{
	"TP FINAL/VotingSystem.sol": {
		"VotingSystem": {
			"abi": [
				{
					"inputs": [
						{
							"internalType": "address",
							"name": "_voteVerifier",
							"type": "address"
						},
						{
							"internalType": "address",
							"name": "_recountVerifier",
							"type": "address"
						}
					],
					"stateMutability": "nonpayable",
					"type": "constructor"
				},
				{
					"anonymous": false,
					"inputs": [],
					"name": "ElectionClosed",
					"type": "event"
				},
				{
					"anonymous": false,
					"inputs": [
						{
							"indexed": false,
							"internalType": "uint256",
							"name": "result",
							"type": "uint256"
						}
					],
					"name": "ResultsPublished",
					"type": "event"
				},
				{
					"anonymous": false,
					"inputs": [
						{
							"indexed": false,
							"internalType": "uint256[2]",
							"name": "C1",
							"type": "uint256[2]"
						},
						{
							"indexed": false,
							"internalType": "uint256[2]",
							"name": "C2",
							"type": "uint256[2]"
						},
						{
							"indexed": false,
							"internalType": "bytes32",
							"name": "nullifierHash",
							"type": "bytes32"
						}
					],
					"name": "VoteRegistered",
					"type": "event"
				},
				{
					"inputs": [],
					"name": "accC1x",
					"outputs": [
						{
							"internalType": "uint256",
							"name": "",
							"type": "uint256"
						}
					],
					"stateMutability": "view",
					"type": "function"
				},
				{
					"inputs": [],
					"name": "accC1y",
					"outputs": [
						{
							"internalType": "uint256",
							"name": "",
							"type": "uint256"
						}
					],
					"stateMutability": "view",
					"type": "function"
				},
				{
					"inputs": [],
					"name": "accC2x",
					"outputs": [
						{
							"internalType": "uint256",
							"name": "",
							"type": "uint256"
						}
					],
					"stateMutability": "view",
					"type": "function"
				},
				{
					"inputs": [],
					"name": "accC2y",
					"outputs": [
						{
							"internalType": "uint256",
							"name": "",
							"type": "uint256"
						}
					],
					"stateMutability": "view",
					"type": "function"
				},
				{
					"inputs": [],
					"name": "closeElection",
					"outputs": [],
					"stateMutability": "nonpayable",
					"type": "function"
				},
				{
					"inputs": [],
					"name": "electionOpen",
					"outputs": [
						{
							"internalType": "bool",
							"name": "",
							"type": "bool"
						}
					],
					"stateMutability": "view",
					"type": "function"
				},
				{
					"inputs": [
						{
							"internalType": "bytes32",
							"name": "",
							"type": "bytes32"
						}
					],
					"name": "nullifierUsed",
					"outputs": [
						{
							"internalType": "bool",
							"name": "",
							"type": "bool"
						}
					],
					"stateMutability": "view",
					"type": "function"
				},
				{
					"inputs": [],
					"name": "numberOfVotes",
					"outputs": [
						{
							"internalType": "uint256",
							"name": "",
							"type": "uint256"
						}
					],
					"stateMutability": "view",
					"type": "function"
				},
				{
					"inputs": [],
					"name": "owner",
					"outputs": [
						{
							"internalType": "address",
							"name": "",
							"type": "address"
						}
					],
					"stateMutability": "view",
					"type": "function"
				},
				{
					"inputs": [
						{
							"internalType": "uint256",
							"name": "result",
							"type": "uint256"
						},
						{
							"components": [
								{
									"components": [
										{
											"internalType": "uint256",
											"name": "X",
											"type": "uint256"
										},
										{
											"internalType": "uint256",
											"name": "Y",
											"type": "uint256"
										}
									],
									"internalType": "struct G1Point",
									"name": "a",
									"type": "tuple"
								},
								{
									"components": [
										{
											"internalType": "uint256[2]",
											"name": "X",
											"type": "uint256[2]"
										},
										{
											"internalType": "uint256[2]",
											"name": "Y",
											"type": "uint256[2]"
										}
									],
									"internalType": "struct G2Point",
									"name": "b",
									"type": "tuple"
								},
								{
									"components": [
										{
											"internalType": "uint256",
											"name": "X",
											"type": "uint256"
										},
										{
											"internalType": "uint256",
											"name": "Y",
											"type": "uint256"
										}
									],
									"internalType": "struct G1Point",
									"name": "c",
									"type": "tuple"
								}
							],
							"internalType": "struct Proof",
							"name": "proof",
							"type": "tuple"
						}
					],
					"name": "publishResults",
					"outputs": [],
					"stateMutability": "nonpayable",
					"type": "function"
				},
				{
					"inputs": [],
					"name": "recountVerifier",
					"outputs": [
						{
							"internalType": "contract IVerifier",
							"name": "",
							"type": "address"
						}
					],
					"stateMutability": "view",
					"type": "function"
				},
				{
					"inputs": [
						{
							"components": [
								{
									"components": [
										{
											"internalType": "uint256",
											"name": "X",
											"type": "uint256"
										},
										{
											"internalType": "uint256",
											"name": "Y",
											"type": "uint256"
										}
									],
									"internalType": "struct G1Point",
									"name": "a",
									"type": "tuple"
								},
								{
									"components": [
										{
											"internalType": "uint256[2]",
											"name": "X",
											"type": "uint256[2]"
										},
										{
											"internalType": "uint256[2]",
											"name": "Y",
											"type": "uint256[2]"
										}
									],
									"internalType": "struct G2Point",
									"name": "b",
									"type": "tuple"
								},
								{
									"components": [
										{
											"internalType": "uint256",
											"name": "X",
											"type": "uint256"
										},
										{
											"internalType": "uint256",
											"name": "Y",
											"type": "uint256"
										}
									],
									"internalType": "struct G1Point",
									"name": "c",
									"type": "tuple"
								}
							],
							"internalType": "struct Proof",
							"name": "proof",
							"type": "tuple"
						},
						{
							"internalType": "uint256[2]",
							"name": "C1",
							"type": "uint256[2]"
						},
						{
							"internalType": "uint256[2]",
							"name": "C2",
							"type": "uint256[2]"
						},
						{
							"internalType": "uint32[8]",
							"name": "nullifier",
							"type": "uint32[8]"
						}
					],
					"name": "registerVote",
					"outputs": [],
					"stateMutability": "nonpayable",
					"type": "function"
				},
				{
					"inputs": [],
					"name": "voteVerifier",
					"outputs": [
						{
							"internalType": "contract IVerifier",
							"name": "",
							"type": "address"
						}
					],
					"stateMutability": "view",
					"type": "function"
				}
			],
			"devdoc": {
				"kind": "dev",
				"methods": {},
				"version": 1
			},
			"evm": {
				"assembly": "    /* \"TP FINAL/VotingSystem.sol\":122:3787  contract VotingSystem {... */\n  mstore(0x40, 0x80)\n    /* \"TP FINAL/VotingSystem.sol\":864:1209  constructor(... */\n  callvalue\n  dup1\n  iszero\n  tag_1\n  jumpi\n  revert(0x00, 0x00)\ntag_1:\n  pop\n  mload(0x40)\n  sub(codesize, bytecodeSize)\n  dup1\n  bytecodeSize\n  dup4\n  codecopy\n  dup2\n  dup2\n  add\n  0x40\n  mstore\n  dup2\n  add\n  swap1\n  tag_2\n  swap2\n  swap1\n  tag_3\n  jump\t// in\ntag_2:\n    /* \"TP FINAL/VotingSystem.sol\":969:979  msg.sender */\n  caller\n    /* \"TP FINAL/VotingSystem.sol\":961:966  owner */\n  0x00\n  0x00\n    /* \"TP FINAL/VotingSystem.sol\":961:979  owner = msg.sender */\n  0x0100\n  exp\n  dup2\n  sload\n  dup2\n  0xffffffffffffffffffffffffffffffffffffffff\n  mul\n  not\n  and\n  swap1\n  dup4\n  0xffffffffffffffffffffffffffffffffffffffff\n  and\n  mul\n  or\n  swap1\n  sstore\n  pop\n    /* \"TP FINAL/VotingSystem.sol\":1005:1009  true */\n  0x01\n    /* \"TP FINAL/VotingSystem.sol\":990:1002  electionOpen */\n  0x00\n  0x14\n    /* \"TP FINAL/VotingSystem.sol\":990:1009  electionOpen = true */\n  0x0100\n  exp\n  dup2\n  sload\n  dup2\n  0xff\n  mul\n  not\n  and\n  swap1\n  dup4\n  iszero\n  iszero\n  mul\n  or\n  swap1\n  sstore\n  pop\n    /* \"TP FINAL/VotingSystem.sol\":1047:1060  _voteVerifier */\n  dup2\n    /* \"TP FINAL/VotingSystem.sol\":1022:1034  voteVerifier */\n  0x07\n  0x00\n    /* \"TP FINAL/VotingSystem.sol\":1022:1061  voteVerifier = IVerifier(_voteVerifier) */\n  0x0100\n  exp\n  dup2\n  sload\n  dup2\n  0xffffffffffffffffffffffffffffffffffffffff\n  mul\n  not\n  and\n  swap1\n  dup4\n  0xffffffffffffffffffffffffffffffffffffffff\n  and\n  mul\n  or\n  swap1\n  sstore\n  pop\n    /* \"TP FINAL/VotingSystem.sol\":1100:1116  _recountVerifier */\n  dup1\n    /* \"TP FINAL/VotingSystem.sol\":1072:1087  recountVerifier */\n  0x08\n  0x00\n    /* \"TP FINAL/VotingSystem.sol\":1072:1117  recountVerifier = IVerifier(_recountVerifier) */\n  0x0100\n  exp\n  dup2\n  sload\n  dup2\n  0xffffffffffffffffffffffffffffffffffffffff\n  mul\n  not\n  and\n  swap1\n  dup4\n  0xffffffffffffffffffffffffffffffffffffffff\n  and\n  mul\n  or\n  swap1\n  sstore\n  pop\n    /* \"TP FINAL/VotingSystem.sol\":1139:1140  0 */\n  0x00\n    /* \"TP FINAL/VotingSystem.sol\":1132:1138  accC1x */\n  0x01\n    /* \"TP FINAL/VotingSystem.sol\":1132:1140  accC1x=0 */\n  dup2\n  swap1\n  sstore\n  pop\n    /* \"TP FINAL/VotingSystem.sol\":1158:1159  1 */\n  0x01\n    /* \"TP FINAL/VotingSystem.sol\":1151:1157  accC1y */\n  0x02\n    /* \"TP FINAL/VotingSystem.sol\":1151:1159  accC1y=1 */\n  dup2\n  swap1\n  sstore\n  pop\n    /* \"TP FINAL/VotingSystem.sol\":1179:1180  0 */\n  0x00\n    /* \"TP FINAL/VotingSystem.sol\":1170:1176  accC2x */\n  0x03\n    /* \"TP FINAL/VotingSystem.sol\":1170:1180  accC2x = 0 */\n  dup2\n  swap1\n  sstore\n  pop\n    /* \"TP FINAL/VotingSystem.sol\":1200:1201  1 */\n  0x01\n    /* \"TP FINAL/VotingSystem.sol\":1191:1197  accC2y */\n  0x04\n    /* \"TP FINAL/VotingSystem.sol\":1191:1201  accC2y = 1 */\n  dup2\n  swap1\n  sstore\n  pop\n    /* \"TP FINAL/VotingSystem.sol\":864:1209  constructor(... */\n  pop\n  pop\n    /* \"TP FINAL/VotingSystem.sol\":122:3787  contract VotingSystem {... */\n  jump(tag_6)\n    /* \"#utility.yul\":88:205   */\ntag_8:\n    /* \"#utility.yul\":197:198   */\n  0x00\n    /* \"#utility.yul\":194:195   */\n  0x00\n    /* \"#utility.yul\":187:199   */\n  revert\n    /* \"#utility.yul\":334:460   */\ntag_10:\n    /* \"#utility.yul\":371:378   */\n  0x00\n    /* \"#utility.yul\":411:453   */\n  0xffffffffffffffffffffffffffffffffffffffff\n    /* \"#utility.yul\":404:409   */\n  dup3\n    /* \"#utility.yul\":400:454   */\n  and\n    /* \"#utility.yul\":389:454   */\n  swap1\n  pop\n    /* \"#utility.yul\":334:460   */\n  swap2\n  swap1\n  pop\n  jump\t// out\n    /* \"#utility.yul\":466:562   */\ntag_11:\n    /* \"#utility.yul\":503:510   */\n  0x00\n    /* \"#utility.yul\":532:556   */\n  tag_20\n    /* \"#utility.yul\":550:555   */\n  dup3\n    /* \"#utility.yul\":532:556   */\n  tag_10\n  jump\t// in\ntag_20:\n    /* \"#utility.yul\":521:556   */\n  swap1\n  pop\n    /* \"#utility.yul\":466:562   */\n  swap2\n  swap1\n  pop\n  jump\t// out\n    /* \"#utility.yul\":568:690   */\ntag_12:\n    /* \"#utility.yul\":641:665   */\n  tag_22\n    /* \"#utility.yul\":659:664   */\n  dup2\n    /* \"#utility.yul\":641:665   */\n  tag_11\n  jump\t// in\ntag_22:\n    /* \"#utility.yul\":634:639   */\n  dup2\n    /* \"#utility.yul\":631:666   */\n  eq\n    /* \"#utility.yul\":621:684   */\n  tag_23\n  jumpi\n    /* \"#utility.yul\":680:681   */\n  0x00\n    /* \"#utility.yul\":677:678   */\n  0x00\n    /* \"#utility.yul\":670:682   */\n  revert\n    /* \"#utility.yul\":621:684   */\ntag_23:\n    /* \"#utility.yul\":568:690   */\n  pop\n  jump\t// out\n    /* \"#utility.yul\":696:839   */\ntag_13:\n    /* \"#utility.yul\":753:758   */\n  0x00\n    /* \"#utility.yul\":784:790   */\n  dup2\n    /* \"#utility.yul\":778:791   */\n  mload\n    /* \"#utility.yul\":769:791   */\n  swap1\n  pop\n    /* \"#utility.yul\":800:833   */\n  tag_25\n    /* \"#utility.yul\":827:832   */\n  dup2\n    /* \"#utility.yul\":800:833   */\n  tag_12\n  jump\t// in\ntag_25:\n    /* \"#utility.yul\":696:839   */\n  swap3\n  swap2\n  pop\n  pop\n  jump\t// out\n    /* \"#utility.yul\":845:1352   */\ntag_3:\n    /* \"#utility.yul\":924:930   */\n  0x00\n    /* \"#utility.yul\":932:938   */\n  0x00\n    /* \"#utility.yul\":981:983   */\n  0x40\n    /* \"#utility.yul\":969:978   */\n  dup4\n    /* \"#utility.yul\":960:967   */\n  dup6\n    /* \"#utility.yul\":956:979   */\n  sub\n    /* \"#utility.yul\":952:984   */\n  slt\n    /* \"#utility.yul\":949:1068   */\n  iszero\n  tag_27\n  jumpi\n    /* \"#utility.yul\":987:1066   */\n  tag_28\n  tag_8\n  jump\t// in\ntag_28:\n    /* \"#utility.yul\":949:1068   */\ntag_27:\n    /* \"#utility.yul\":1107:1108   */\n  0x00\n    /* \"#utility.yul\":1132:1196   */\n  tag_29\n    /* \"#utility.yul\":1188:1195   */\n  dup6\n    /* \"#utility.yul\":1179:1185   */\n  dup3\n    /* \"#utility.yul\":1168:1177   */\n  dup7\n    /* \"#utility.yul\":1164:1186   */\n  add\n    /* \"#utility.yul\":1132:1196   */\n  tag_13\n  jump\t// in\ntag_29:\n    /* \"#utility.yul\":1122:1196   */\n  swap3\n  pop\n    /* \"#utility.yul\":1078:1206   */\n  pop\n    /* \"#utility.yul\":1245:1247   */\n  0x20\n    /* \"#utility.yul\":1271:1335   */\n  tag_30\n    /* \"#utility.yul\":1327:1334   */\n  dup6\n    /* \"#utility.yul\":1318:1324   */\n  dup3\n    /* \"#utility.yul\":1307:1316   */\n  dup7\n    /* \"#utility.yul\":1303:1325   */\n  add\n    /* \"#utility.yul\":1271:1335   */\n  tag_13\n  jump\t// in\ntag_30:\n    /* \"#utility.yul\":1261:1335   */\n  swap2\n  pop\n    /* \"#utility.yul\":1216:1345   */\n  pop\n    /* \"#utility.yul\":845:1352   */\n  swap3\n  pop\n  swap3\n  swap1\n  pop\n  jump\t// out\n    /* \"TP FINAL/VotingSystem.sol\":122:3787  contract VotingSystem {... */\ntag_6:\n  dataSize(sub_0)\n  dup1\n  dataOffset(sub_0)\n  0x00\n  codecopy\n  0x00\n  return\nstop\n\nsub_0: assembly {\n        /* \"TP FINAL/VotingSystem.sol\":122:3787  contract VotingSystem {... */\n      mstore(0x40, 0x80)\n      callvalue\n      dup1\n      iszero\n      tag_1\n      jumpi\n      revert(0x00, 0x00)\n    tag_1:\n      pop\n      jumpi(tag_2, lt(calldatasize, 0x04))\n      shr(0xe0, calldataload(0x00))\n      dup1\n      0x7ecf686d\n      gt\n      tag_16\n      jumpi\n      dup1\n      0x8da5cb5b\n      gt\n      tag_17\n      jumpi\n      dup1\n      0x8da5cb5b\n      eq\n      tag_12\n      jumpi\n      dup1\n      0x99d74c71\n      eq\n      tag_13\n      jumpi\n      dup1\n      0xbf0516f2\n      eq\n      tag_14\n      jumpi\n      dup1\n      0xe63aa8fb\n      eq\n      tag_15\n      jumpi\n      jump(tag_2)\n    tag_17:\n      dup1\n      0x7ecf686d\n      eq\n      tag_9\n      jumpi\n      dup1\n      0x82786199\n      eq\n      tag_10\n      jumpi\n      dup1\n      0x87dde0be\n      eq\n      tag_11\n      jumpi\n      jump(tag_2)\n    tag_16:\n      dup1\n      0x0e7d490d\n      eq\n      tag_3\n      jumpi\n      dup1\n      0x4a39d442\n      eq\n      tag_4\n      jumpi\n      dup1\n      0x4d139763\n      eq\n      tag_5\n      jumpi\n      dup1\n      0x59a00a30\n      eq\n      tag_6\n      jumpi\n      dup1\n      0x6c6c32d0\n      eq\n      tag_7\n      jumpi\n      dup1\n      0x75f11da1\n      eq\n      tag_8\n      jumpi\n    tag_2:\n      revert(0x00, 0x00)\n        /* \"TP FINAL/VotingSystem.sol\":329:357  uint256 public numberOfVotes */\n    tag_3:\n      tag_18\n      tag_19\n      jump\t// in\n    tag_18:\n      mload(0x40)\n      tag_20\n      swap2\n      swap1\n      tag_21\n      jump\t// in\n    tag_20:\n      mload(0x40)\n      dup1\n      swap2\n      sub\n      swap1\n      return\n        /* \"TP FINAL/VotingSystem.sol\":180:204  bool public electionOpen */\n    tag_4:\n      tag_22\n      tag_23\n      jump\t// in\n    tag_22:\n      mload(0x40)\n      tag_24\n      swap2\n      swap1\n      tag_25\n      jump\t// in\n    tag_24:\n      mload(0x40)\n      dup1\n      swap2\n      sub\n      swap1\n      return\n        /* \"TP FINAL/VotingSystem.sol\":213:234  uint256 public accC1x */\n    tag_5:\n      tag_26\n      tag_27\n      jump\t// in\n    tag_26:\n      mload(0x40)\n      tag_28\n      swap2\n      swap1\n      tag_21\n      jump\t// in\n    tag_28:\n      mload(0x40)\n      dup1\n      swap2\n      sub\n      swap1\n      return\n        /* \"TP FINAL/VotingSystem.sol\":1290:2774  function registerVote(... */\n    tag_6:\n      tag_29\n      0x04\n      dup1\n      calldatasize\n      sub\n      dup2\n      add\n      swap1\n      tag_30\n      swap2\n      swap1\n      tag_31\n      jump\t// in\n    tag_30:\n      tag_32\n      jump\t// in\n    tag_29:\n      stop\n        /* \"TP FINAL/VotingSystem.sol\":2865:3075  function closeElection() external {... */\n    tag_7:\n      tag_33\n      tag_34\n      jump\t// in\n    tag_33:\n      stop\n        /* \"TP FINAL/VotingSystem.sol\":241:263  uint256 public  accC1y */\n    tag_8:\n      tag_35\n      tag_36\n      jump\t// in\n    tag_35:\n      mload(0x40)\n      tag_37\n      swap2\n      swap1\n      tag_21\n      jump\t// in\n    tag_37:\n      mload(0x40)\n      dup1\n      swap2\n      sub\n      swap1\n      return\n        /* \"TP FINAL/VotingSystem.sol\":366:411  mapping(bytes32 => bool) public nullifierUsed */\n    tag_9:\n      tag_38\n      0x04\n      dup1\n      calldatasize\n      sub\n      dup2\n      add\n      swap1\n      tag_39\n      swap2\n      swap1\n      tag_40\n      jump\t// in\n    tag_39:\n      tag_41\n      jump\t// in\n    tag_38:\n      mload(0x40)\n      tag_42\n      swap2\n      swap1\n      tag_25\n      jump\t// in\n    tag_42:\n      mload(0x40)\n      dup1\n      swap2\n      sub\n      swap1\n      return\n        /* \"TP FINAL/VotingSystem.sol\":270:291  uint256 public accC2x */\n    tag_10:\n      tag_43\n      tag_44\n      jump\t// in\n    tag_43:\n      mload(0x40)\n      tag_45\n      swap2\n      swap1\n      tag_21\n      jump\t// in\n    tag_45:\n      mload(0x40)\n      dup1\n      swap2\n      sub\n      swap1\n      return\n        /* \"TP FINAL/VotingSystem.sol\":298:320  uint256 public  accC2y */\n    tag_11:\n      tag_46\n      tag_47\n      jump\t// in\n    tag_46:\n      mload(0x40)\n      tag_48\n      swap2\n      swap1\n      tag_21\n      jump\t// in\n    tag_48:\n      mload(0x40)\n      dup1\n      swap2\n      sub\n      swap1\n      return\n        /* \"TP FINAL/VotingSystem.sol\":153:173  address public owner */\n    tag_12:\n      tag_49\n      tag_50\n      jump\t// in\n    tag_49:\n      mload(0x40)\n      tag_51\n      swap2\n      swap1\n      tag_52\n      jump\t// in\n    tag_51:\n      mload(0x40)\n      dup1\n      swap2\n      sub\n      swap1\n      return\n        /* \"TP FINAL/VotingSystem.sol\":420:449  IVerifier public voteVerifier */\n    tag_13:\n      tag_53\n      tag_54\n      jump\t// in\n    tag_53:\n      mload(0x40)\n      tag_55\n      swap2\n      swap1\n      tag_56\n      jump\t// in\n    tag_55:\n      mload(0x40)\n      dup1\n      swap2\n      sub\n      swap1\n      return\n        /* \"TP FINAL/VotingSystem.sol\":456:488  IVerifier public recountVerifier */\n    tag_14:\n      tag_57\n      tag_58\n      jump\t// in\n    tag_57:\n      mload(0x40)\n      tag_59\n      swap2\n      swap1\n      tag_56\n      jump\t// in\n    tag_59:\n      mload(0x40)\n      dup1\n      swap2\n      sub\n      swap1\n      return\n        /* \"TP FINAL/VotingSystem.sol\":3167:3784  function publishResults(... */\n    tag_15:\n      tag_60\n      0x04\n      dup1\n      calldatasize\n      sub\n      dup2\n      add\n      swap1\n      tag_61\n      swap2\n      swap1\n      tag_62\n      jump\t// in\n    tag_61:\n      tag_63\n      jump\t// in\n    tag_60:\n      stop\n        /* \"TP FINAL/VotingSystem.sol\":329:357  uint256 public numberOfVotes */\n    tag_19:\n      sload(0x05)\n      dup2\n      jump\t// out\n        /* \"TP FINAL/VotingSystem.sol\":180:204  bool public electionOpen */\n    tag_23:\n      0x00\n      0x14\n      swap1\n      sload\n      swap1\n      0x0100\n      exp\n      swap1\n      div\n      0xff\n      and\n      dup2\n      jump\t// out\n        /* \"TP FINAL/VotingSystem.sol\":213:234  uint256 public accC1x */\n    tag_27:\n      sload(0x01)\n      dup2\n      jump\t// out\n        /* \"TP FINAL/VotingSystem.sol\":1290:2774  function registerVote(... */\n    tag_32:\n        /* \"TP FINAL/VotingSystem.sol\":1475:1506  uint256[12] memory publicInputs */\n      tag_65\n      tag_66\n      jump\t// in\n    tag_65:\n        /* \"TP FINAL/VotingSystem.sol\":1535:1537  C1 */\n      dup4\n        /* \"TP FINAL/VotingSystem.sol\":1538:1539  0 */\n      0x00\n        /* \"TP FINAL/VotingSystem.sol\":1535:1540  C1[0] */\n      0x02\n      dup2\n      lt\n      tag_67\n      jumpi\n      tag_68\n      tag_69\n      jump\t// in\n    tag_68:\n    tag_67:\n      0x20\n      mul\n      add\n      calldataload\n        /* \"TP FINAL/VotingSystem.sol\":1517:1529  publicInputs */\n      dup2\n        /* \"TP FINAL/VotingSystem.sol\":1530:1531  0 */\n      0x00\n        /* \"TP FINAL/VotingSystem.sol\":1517:1532  publicInputs[0] */\n      0x0c\n      dup2\n      lt\n      tag_70\n      jumpi\n      tag_71\n      tag_69\n      jump\t// in\n    tag_71:\n    tag_70:\n      0x20\n      mul\n      add\n        /* \"TP FINAL/VotingSystem.sol\":1517:1540  publicInputs[0] = C1[0] */\n      dup2\n      dup2\n      mstore\n      pop\n      pop\n        /* \"TP FINAL/VotingSystem.sol\":1569:1571  C1 */\n      dup4\n        /* \"TP FINAL/VotingSystem.sol\":1572:1573  1 */\n      0x01\n        /* \"TP FINAL/VotingSystem.sol\":1569:1574  C1[1] */\n      0x02\n      dup2\n      lt\n      tag_72\n      jumpi\n      tag_73\n      tag_69\n      jump\t// in\n    tag_73:\n    tag_72:\n      0x20\n      mul\n      add\n      calldataload\n        /* \"TP FINAL/VotingSystem.sol\":1551:1563  publicInputs */\n      dup2\n        /* \"TP FINAL/VotingSystem.sol\":1564:1565  1 */\n      0x01\n        /* \"TP FINAL/VotingSystem.sol\":1551:1566  publicInputs[1] */\n      0x0c\n      dup2\n      lt\n      tag_74\n      jumpi\n      tag_75\n      tag_69\n      jump\t// in\n    tag_75:\n    tag_74:\n      0x20\n      mul\n      add\n        /* \"TP FINAL/VotingSystem.sol\":1551:1574  publicInputs[1] = C1[1] */\n      dup2\n      dup2\n      mstore\n      pop\n      pop\n        /* \"TP FINAL/VotingSystem.sol\":1603:1605  C2 */\n      dup3\n        /* \"TP FINAL/VotingSystem.sol\":1606:1607  0 */\n      0x00\n        /* \"TP FINAL/VotingSystem.sol\":1603:1608  C2[0] */\n      0x02\n      dup2\n      lt\n      tag_76\n      jumpi\n      tag_77\n      tag_69\n      jump\t// in\n    tag_77:\n    tag_76:\n      0x20\n      mul\n      add\n      calldataload\n        /* \"TP FINAL/VotingSystem.sol\":1585:1597  publicInputs */\n      dup2\n        /* \"TP FINAL/VotingSystem.sol\":1598:1599  2 */\n      0x02\n        /* \"TP FINAL/VotingSystem.sol\":1585:1600  publicInputs[2] */\n      0x0c\n      dup2\n      lt\n      tag_78\n      jumpi\n      tag_79\n      tag_69\n      jump\t// in\n    tag_79:\n    tag_78:\n      0x20\n      mul\n      add\n        /* \"TP FINAL/VotingSystem.sol\":1585:1608  publicInputs[2] = C2[0] */\n      dup2\n      dup2\n      mstore\n      pop\n      pop\n        /* \"TP FINAL/VotingSystem.sol\":1637:1639  C2 */\n      dup3\n        /* \"TP FINAL/VotingSystem.sol\":1640:1641  1 */\n      0x01\n        /* \"TP FINAL/VotingSystem.sol\":1637:1642  C2[1] */\n      0x02\n      dup2\n      lt\n      tag_80\n      jumpi\n      tag_81\n      tag_69\n      jump\t// in\n    tag_81:\n    tag_80:\n      0x20\n      mul\n      add\n      calldataload\n        /* \"TP FINAL/VotingSystem.sol\":1619:1631  publicInputs */\n      dup2\n        /* \"TP FINAL/VotingSystem.sol\":1632:1633  3 */\n      0x03\n        /* \"TP FINAL/VotingSystem.sol\":1619:1634  publicInputs[3] */\n      0x0c\n      dup2\n      lt\n      tag_82\n      jumpi\n      tag_83\n      tag_69\n      jump\t// in\n    tag_83:\n    tag_82:\n      0x20\n      mul\n      add\n        /* \"TP FINAL/VotingSystem.sol\":1619:1642  publicInputs[3] = C2[1] */\n      dup2\n      dup2\n      mstore\n      pop\n      pop\n        /* \"TP FINAL/VotingSystem.sol\":1671:1680  nullifier */\n      dup2\n        /* \"TP FINAL/VotingSystem.sol\":1681:1682  0 */\n      0x00\n        /* \"TP FINAL/VotingSystem.sol\":1671:1683  nullifier[0] */\n      0x08\n      dup2\n      lt\n      tag_84\n      jumpi\n      tag_85\n      tag_69\n      jump\t// in\n    tag_85:\n    tag_84:\n      0x20\n      mul\n      add\n      0x20\n      dup2\n      add\n      swap1\n      tag_86\n      swap2\n      swap1\n      tag_87\n      jump\t// in\n    tag_86:\n        /* \"TP FINAL/VotingSystem.sol\":1653:1683  publicInputs[4] = nullifier[0] */\n      0xffffffff\n      and\n        /* \"TP FINAL/VotingSystem.sol\":1653:1665  publicInputs */\n      dup2\n        /* \"TP FINAL/VotingSystem.sol\":1666:1667  4 */\n      0x04\n        /* \"TP FINAL/VotingSystem.sol\":1653:1668  publicInputs[4] */\n      0x0c\n      dup2\n      lt\n      tag_88\n      jumpi\n      tag_89\n      tag_69\n      jump\t// in\n    tag_89:\n    tag_88:\n      0x20\n      mul\n      add\n        /* \"TP FINAL/VotingSystem.sol\":1653:1683  publicInputs[4] = nullifier[0] */\n      dup2\n      dup2\n      mstore\n      pop\n      pop\n        /* \"TP FINAL/VotingSystem.sol\":1712:1721  nullifier */\n      dup2\n        /* \"TP FINAL/VotingSystem.sol\":1722:1723  1 */\n      0x01\n        /* \"TP FINAL/VotingSystem.sol\":1712:1724  nullifier[1] */\n      0x08\n      dup2\n      lt\n      tag_90\n      jumpi\n      tag_91\n      tag_69\n      jump\t// in\n    tag_91:\n    tag_90:\n      0x20\n      mul\n      add\n      0x20\n      dup2\n      add\n      swap1\n      tag_92\n      swap2\n      swap1\n      tag_87\n      jump\t// in\n    tag_92:\n        /* \"TP FINAL/VotingSystem.sol\":1694:1724  publicInputs[5] = nullifier[1] */\n      0xffffffff\n      and\n        /* \"TP FINAL/VotingSystem.sol\":1694:1706  publicInputs */\n      dup2\n        /* \"TP FINAL/VotingSystem.sol\":1707:1708  5 */\n      0x05\n        /* \"TP FINAL/VotingSystem.sol\":1694:1709  publicInputs[5] */\n      0x0c\n      dup2\n      lt\n      tag_93\n      jumpi\n      tag_94\n      tag_69\n      jump\t// in\n    tag_94:\n    tag_93:\n      0x20\n      mul\n      add\n        /* \"TP FINAL/VotingSystem.sol\":1694:1724  publicInputs[5] = nullifier[1] */\n      dup2\n      dup2\n      mstore\n      pop\n      pop\n        /* \"TP FINAL/VotingSystem.sol\":1753:1762  nullifier */\n      dup2\n        /* \"TP FINAL/VotingSystem.sol\":1763:1764  2 */\n      0x02\n        /* \"TP FINAL/VotingSystem.sol\":1753:1765  nullifier[2] */\n      0x08\n      dup2\n      lt\n      tag_95\n      jumpi\n      tag_96\n      tag_69\n      jump\t// in\n    tag_96:\n    tag_95:\n      0x20\n      mul\n      add\n      0x20\n      dup2\n      add\n      swap1\n      tag_97\n      swap2\n      swap1\n      tag_87\n      jump\t// in\n    tag_97:\n        /* \"TP FINAL/VotingSystem.sol\":1735:1765  publicInputs[6] = nullifier[2] */\n      0xffffffff\n      and\n        /* \"TP FINAL/VotingSystem.sol\":1735:1747  publicInputs */\n      dup2\n        /* \"TP FINAL/VotingSystem.sol\":1748:1749  6 */\n      0x06\n        /* \"TP FINAL/VotingSystem.sol\":1735:1750  publicInputs[6] */\n      0x0c\n      dup2\n      lt\n      tag_98\n      jumpi\n      tag_99\n      tag_69\n      jump\t// in\n    tag_99:\n    tag_98:\n      0x20\n      mul\n      add\n        /* \"TP FINAL/VotingSystem.sol\":1735:1765  publicInputs[6] = nullifier[2] */\n      dup2\n      dup2\n      mstore\n      pop\n      pop\n        /* \"TP FINAL/VotingSystem.sol\":1794:1803  nullifier */\n      dup2\n        /* \"TP FINAL/VotingSystem.sol\":1804:1805  3 */\n      0x03\n        /* \"TP FINAL/VotingSystem.sol\":1794:1806  nullifier[3] */\n      0x08\n      dup2\n      lt\n      tag_100\n      jumpi\n      tag_101\n      tag_69\n      jump\t// in\n    tag_101:\n    tag_100:\n      0x20\n      mul\n      add\n      0x20\n      dup2\n      add\n      swap1\n      tag_102\n      swap2\n      swap1\n      tag_87\n      jump\t// in\n    tag_102:\n        /* \"TP FINAL/VotingSystem.sol\":1776:1806  publicInputs[7] = nullifier[3] */\n      0xffffffff\n      and\n        /* \"TP FINAL/VotingSystem.sol\":1776:1788  publicInputs */\n      dup2\n        /* \"TP FINAL/VotingSystem.sol\":1789:1790  7 */\n      0x07\n        /* \"TP FINAL/VotingSystem.sol\":1776:1791  publicInputs[7] */\n      0x0c\n      dup2\n      lt\n      tag_103\n      jumpi\n      tag_104\n      tag_69\n      jump\t// in\n    tag_104:\n    tag_103:\n      0x20\n      mul\n      add\n        /* \"TP FINAL/VotingSystem.sol\":1776:1806  publicInputs[7] = nullifier[3] */\n      dup2\n      dup2\n      mstore\n      pop\n      pop\n        /* \"TP FINAL/VotingSystem.sol\":1835:1844  nullifier */\n      dup2\n        /* \"TP FINAL/VotingSystem.sol\":1845:1846  4 */\n      0x04\n        /* \"TP FINAL/VotingSystem.sol\":1835:1847  nullifier[4] */\n      0x08\n      dup2\n      lt\n      tag_105\n      jumpi\n      tag_106\n      tag_69\n      jump\t// in\n    tag_106:\n    tag_105:\n      0x20\n      mul\n      add\n      0x20\n      dup2\n      add\n      swap1\n      tag_107\n      swap2\n      swap1\n      tag_87\n      jump\t// in\n    tag_107:\n        /* \"TP FINAL/VotingSystem.sol\":1817:1847  publicInputs[8] = nullifier[4] */\n      0xffffffff\n      and\n        /* \"TP FINAL/VotingSystem.sol\":1817:1829  publicInputs */\n      dup2\n        /* \"TP FINAL/VotingSystem.sol\":1830:1831  8 */\n      0x08\n        /* \"TP FINAL/VotingSystem.sol\":1817:1832  publicInputs[8] */\n      0x0c\n      dup2\n      lt\n      tag_108\n      jumpi\n      tag_109\n      tag_69\n      jump\t// in\n    tag_109:\n    tag_108:\n      0x20\n      mul\n      add\n        /* \"TP FINAL/VotingSystem.sol\":1817:1847  publicInputs[8] = nullifier[4] */\n      dup2\n      dup2\n      mstore\n      pop\n      pop\n        /* \"TP FINAL/VotingSystem.sol\":1876:1885  nullifier */\n      dup2\n        /* \"TP FINAL/VotingSystem.sol\":1886:1887  5 */\n      0x05\n        /* \"TP FINAL/VotingSystem.sol\":1876:1888  nullifier[5] */\n      0x08\n      dup2\n      lt\n      tag_110\n      jumpi\n      tag_111\n      tag_69\n      jump\t// in\n    tag_111:\n    tag_110:\n      0x20\n      mul\n      add\n      0x20\n      dup2\n      add\n      swap1\n      tag_112\n      swap2\n      swap1\n      tag_87\n      jump\t// in\n    tag_112:\n        /* \"TP FINAL/VotingSystem.sol\":1858:1888  publicInputs[9] = nullifier[5] */\n      0xffffffff\n      and\n        /* \"TP FINAL/VotingSystem.sol\":1858:1870  publicInputs */\n      dup2\n        /* \"TP FINAL/VotingSystem.sol\":1871:1872  9 */\n      0x09\n        /* \"TP FINAL/VotingSystem.sol\":1858:1873  publicInputs[9] */\n      0x0c\n      dup2\n      lt\n      tag_113\n      jumpi\n      tag_114\n      tag_69\n      jump\t// in\n    tag_114:\n    tag_113:\n      0x20\n      mul\n      add\n        /* \"TP FINAL/VotingSystem.sol\":1858:1888  publicInputs[9] = nullifier[5] */\n      dup2\n      dup2\n      mstore\n      pop\n      pop\n        /* \"TP FINAL/VotingSystem.sol\":1918:1927  nullifier */\n      dup2\n        /* \"TP FINAL/VotingSystem.sol\":1928:1929  6 */\n      0x06\n        /* \"TP FINAL/VotingSystem.sol\":1918:1930  nullifier[6] */\n      0x08\n      dup2\n      lt\n      tag_115\n      jumpi\n      tag_116\n      tag_69\n      jump\t// in\n    tag_116:\n    tag_115:\n      0x20\n      mul\n      add\n      0x20\n      dup2\n      add\n      swap1\n      tag_117\n      swap2\n      swap1\n      tag_87\n      jump\t// in\n    tag_117:\n        /* \"TP FINAL/VotingSystem.sol\":1899:1930  publicInputs[10] = nullifier[6] */\n      0xffffffff\n      and\n        /* \"TP FINAL/VotingSystem.sol\":1899:1911  publicInputs */\n      dup2\n        /* \"TP FINAL/VotingSystem.sol\":1912:1914  10 */\n      0x0a\n        /* \"TP FINAL/VotingSystem.sol\":1899:1915  publicInputs[10] */\n      0x0c\n      dup2\n      lt\n      tag_118\n      jumpi\n      tag_119\n      tag_69\n      jump\t// in\n    tag_119:\n    tag_118:\n      0x20\n      mul\n      add\n        /* \"TP FINAL/VotingSystem.sol\":1899:1930  publicInputs[10] = nullifier[6] */\n      dup2\n      dup2\n      mstore\n      pop\n      pop\n        /* \"TP FINAL/VotingSystem.sol\":1960:1969  nullifier */\n      dup2\n        /* \"TP FINAL/VotingSystem.sol\":1970:1971  7 */\n      0x07\n        /* \"TP FINAL/VotingSystem.sol\":1960:1972  nullifier[7] */\n      0x08\n      dup2\n      lt\n      tag_120\n      jumpi\n      tag_121\n      tag_69\n      jump\t// in\n    tag_121:\n    tag_120:\n      0x20\n      mul\n      add\n      0x20\n      dup2\n      add\n      swap1\n      tag_122\n      swap2\n      swap1\n      tag_87\n      jump\t// in\n    tag_122:\n        /* \"TP FINAL/VotingSystem.sol\":1941:1972  publicInputs[11] = nullifier[7] */\n      0xffffffff\n      and\n        /* \"TP FINAL/VotingSystem.sol\":1941:1953  publicInputs */\n      dup2\n        /* \"TP FINAL/VotingSystem.sol\":1954:1956  11 */\n      0x0b\n        /* \"TP FINAL/VotingSystem.sol\":1941:1957  publicInputs[11] */\n      0x0c\n      dup2\n      lt\n      tag_123\n      jumpi\n      tag_124\n      tag_69\n      jump\t// in\n    tag_124:\n    tag_123:\n      0x20\n      mul\n      add\n        /* \"TP FINAL/VotingSystem.sol\":1941:1972  publicInputs[11] = nullifier[7] */\n      dup2\n      dup2\n      mstore\n      pop\n      pop\n        /* \"TP FINAL/VotingSystem.sol\":1999:2011  electionOpen */\n      0x00\n      0x14\n      swap1\n      sload\n      swap1\n      0x0100\n      exp\n      swap1\n      div\n      0xff\n      and\n        /* \"TP FINAL/VotingSystem.sol\":1991:2031  require(electionOpen, \"Election closed\") */\n      tag_125\n      jumpi\n      mload(0x40)\n      0x08c379a000000000000000000000000000000000000000000000000000000000\n      dup2\n      mstore\n      0x04\n      add\n      tag_126\n      swap1\n      tag_127\n      jump\t// in\n    tag_126:\n      mload(0x40)\n      dup1\n      swap2\n      sub\n      swap1\n      revert\n    tag_125:\n        /* \"TP FINAL/VotingSystem.sol\":2042:2063  bytes32 nullifierHash */\n      0x00\n        /* \"TP FINAL/VotingSystem.sol\":2093:2102  nullifier */\n      dup3\n        /* \"TP FINAL/VotingSystem.sol\":2076:2103  abi.encodePacked(nullifier) */\n      add(0x20, mload(0x40))\n      tag_128\n      swap2\n      swap1\n      tag_129\n      jump\t// in\n    tag_128:\n      mload(0x40)\n      0x20\n      dup2\n      dup4\n      sub\n      sub\n      dup2\n      mstore\n      swap1\n      0x40\n      mstore\n        /* \"TP FINAL/VotingSystem.sol\":2066:2104  keccak256(abi.encodePacked(nullifier)) */\n      dup1\n      mload\n      swap1\n      0x20\n      add\n      keccak256\n        /* \"TP FINAL/VotingSystem.sol\":2042:2104  bytes32 nullifierHash = keccak256(abi.encodePacked(nullifier)) */\n      swap1\n      pop\n        /* \"TP FINAL/VotingSystem.sol\":2191:2204  nullifierUsed */\n      0x06\n        /* \"TP FINAL/VotingSystem.sol\":2191:2219  nullifierUsed[nullifierHash] */\n      0x00\n        /* \"TP FINAL/VotingSystem.sol\":2205:2218  nullifierHash */\n      dup3\n        /* \"TP FINAL/VotingSystem.sol\":2191:2219  nullifierUsed[nullifierHash] */\n      dup2\n      mstore\n      0x20\n      add\n      swap1\n      dup2\n      mstore\n      0x20\n      add\n      0x00\n      keccak256\n      0x00\n      swap1\n      sload\n      swap1\n      0x0100\n      exp\n      swap1\n      div\n      0xff\n      and\n        /* \"TP FINAL/VotingSystem.sol\":2190:2219  !nullifierUsed[nullifierHash] */\n      iszero\n        /* \"TP FINAL/VotingSystem.sol\":2182:2246  require(!nullifierUsed[nullifierHash], \"Nullifier already used\") */\n      tag_130\n      jumpi\n      mload(0x40)\n      0x08c379a000000000000000000000000000000000000000000000000000000000\n      dup2\n      mstore\n      0x04\n      add\n      tag_131\n      swap1\n      tag_132\n      jump\t// in\n    tag_131:\n      mload(0x40)\n      dup1\n      swap2\n      sub\n      swap1\n      revert\n    tag_130:\n        /* \"TP FINAL/VotingSystem.sol\":2291:2298  bool ok */\n      0x00\n        /* \"TP FINAL/VotingSystem.sol\":2301:2313  voteVerifier */\n      0x07\n      0x00\n      swap1\n      sload\n      swap1\n      0x0100\n      exp\n      swap1\n      div\n      0xffffffffffffffffffffffffffffffffffffffff\n      and\n        /* \"TP FINAL/VotingSystem.sol\":2301:2322  voteVerifier.verifyTx */\n      0xffffffffffffffffffffffffffffffffffffffff\n      and\n      0x66670599\n        /* \"TP FINAL/VotingSystem.sol\":2323:2328  proof */\n      dup9\n        /* \"TP FINAL/VotingSystem.sol\":2330:2342  publicInputs */\n      dup6\n        /* \"TP FINAL/VotingSystem.sol\":2301:2343  voteVerifier.verifyTx(proof, publicInputs) */\n      mload(0x40)\n      dup4\n      0xffffffff\n      and\n      0xe0\n      shl\n      dup2\n      mstore\n      0x04\n      add\n      tag_133\n      swap3\n      swap2\n      swap1\n      tag_134\n      jump\t// in\n    tag_133:\n      0x20\n      mload(0x40)\n      dup1\n      dup4\n      sub\n      dup2\n      dup7\n      gas\n      staticcall\n      iszero\n      dup1\n      iszero\n      tag_136\n      jumpi\n      returndatacopy(0x00, 0x00, returndatasize)\n      revert(0x00, returndatasize)\n    tag_136:\n      pop\n      pop\n      pop\n      pop\n      mload(0x40)\n      returndatasize\n      not(0x1f)\n      0x1f\n      dup3\n      add\n      and\n      dup3\n      add\n      dup1\n      0x40\n      mstore\n      pop\n      dup2\n      add\n      swap1\n      tag_137\n      swap2\n      swap1\n      tag_138\n      jump\t// in\n    tag_137:\n        /* \"TP FINAL/VotingSystem.sol\":2291:2343  bool ok = voteVerifier.verifyTx(proof, publicInputs) */\n      swap1\n      pop\n        /* \"TP FINAL/VotingSystem.sol\":2362:2364  ok */\n      dup1\n        /* \"TP FINAL/VotingSystem.sol\":2354:2387  require(ok, \"Invalid vote proof\") */\n      tag_139\n      jumpi\n      mload(0x40)\n      0x08c379a000000000000000000000000000000000000000000000000000000000\n      dup2\n      mstore\n      0x04\n      add\n      tag_140\n      swap1\n      tag_141\n      jump\t// in\n    tag_140:\n      mload(0x40)\n      dup1\n      swap2\n      sub\n      swap1\n      revert\n    tag_139:\n        /* \"TP FINAL/VotingSystem.sol\":2460:2464  true */\n      0x01\n        /* \"TP FINAL/VotingSystem.sol\":2429:2442  nullifierUsed */\n      0x06\n        /* \"TP FINAL/VotingSystem.sol\":2429:2457  nullifierUsed[nullifierHash] */\n      0x00\n        /* \"TP FINAL/VotingSystem.sol\":2443:2456  nullifierHash */\n      dup5\n        /* \"TP FINAL/VotingSystem.sol\":2429:2457  nullifierUsed[nullifierHash] */\n      dup2\n      mstore\n      0x20\n      add\n      swap1\n      dup2\n      mstore\n      0x20\n      add\n      0x00\n      keccak256\n      0x00\n        /* \"TP FINAL/VotingSystem.sol\":2429:2464  nullifierUsed[nullifierHash] = true */\n      0x0100\n      exp\n      dup2\n      sload\n      dup2\n      0xff\n      mul\n      not\n      and\n      swap1\n      dup4\n      iszero\n      iszero\n      mul\n      or\n      swap1\n      sstore\n      pop\n        /* \"TP FINAL/VotingSystem.sol\":2542:2596  CurveBabyJubJub.pointAdd(accC1x, accC1y, C1[0], C1[1]) */\n      tag_142\n        /* \"TP FINAL/VotingSystem.sol\":2567:2573  accC1x */\n      sload(0x01)\n        /* \"TP FINAL/VotingSystem.sol\":2575:2581  accC1y */\n      sload(0x02)\n        /* \"TP FINAL/VotingSystem.sol\":2583:2585  C1 */\n      dup9\n        /* \"TP FINAL/VotingSystem.sol\":2586:2587  0 */\n      0x00\n        /* \"TP FINAL/VotingSystem.sol\":2583:2588  C1[0] */\n      0x02\n      dup2\n      lt\n      tag_143\n      jumpi\n      tag_144\n      tag_69\n      jump\t// in\n    tag_144:\n    tag_143:\n      0x20\n      mul\n      add\n      calldataload\n        /* \"TP FINAL/VotingSystem.sol\":2590:2592  C1 */\n      dup10\n        /* \"TP FINAL/VotingSystem.sol\":2593:2594  1 */\n      0x01\n        /* \"TP FINAL/VotingSystem.sol\":2590:2595  C1[1] */\n      0x02\n      dup2\n      lt\n      tag_145\n      jumpi\n      tag_146\n      tag_69\n      jump\t// in\n    tag_146:\n    tag_145:\n      0x20\n      mul\n      add\n      calldataload\n        /* \"TP FINAL/VotingSystem.sol\":2542:2566  CurveBabyJubJub.pointAdd */\n      tag_147\n        /* \"TP FINAL/VotingSystem.sol\":2542:2596  CurveBabyJubJub.pointAdd(accC1x, accC1y, C1[0], C1[1]) */\n      jump\t// in\n    tag_142:\n        /* \"TP FINAL/VotingSystem.sol\":2524:2530  accC1x */\n      0x01\n      0x00\n        /* \"TP FINAL/VotingSystem.sol\":2532:2538  accC1y */\n      0x02\n      0x00\n        /* \"TP FINAL/VotingSystem.sol\":2523:2596  (accC1x, accC1y) = CurveBabyJubJub.pointAdd(accC1x, accC1y, C1[0], C1[1]) */\n      dup5\n      swap2\n      swap1\n      pop\n      sstore\n      dup4\n      swap2\n      swap1\n      pop\n      sstore\n      pop\n      pop\n        /* \"TP FINAL/VotingSystem.sol\":2626:2680  CurveBabyJubJub.pointAdd(accC2x, accC2y, C2[0], C2[1]) */\n      tag_148\n        /* \"TP FINAL/VotingSystem.sol\":2651:2657  accC2x */\n      sload(0x03)\n        /* \"TP FINAL/VotingSystem.sol\":2659:2665  accC2y */\n      sload(0x04)\n        /* \"TP FINAL/VotingSystem.sol\":2667:2669  C2 */\n      dup8\n        /* \"TP FINAL/VotingSystem.sol\":2670:2671  0 */\n      0x00\n        /* \"TP FINAL/VotingSystem.sol\":2667:2672  C2[0] */\n      0x02\n      dup2\n      lt\n      tag_149\n      jumpi\n      tag_150\n      tag_69\n      jump\t// in\n    tag_150:\n    tag_149:\n      0x20\n      mul\n      add\n      calldataload\n        /* \"TP FINAL/VotingSystem.sol\":2674:2676  C2 */\n      dup9\n        /* \"TP FINAL/VotingSystem.sol\":2677:2678  1 */\n      0x01\n        /* \"TP FINAL/VotingSystem.sol\":2674:2679  C2[1] */\n      0x02\n      dup2\n      lt\n      tag_151\n      jumpi\n      tag_152\n      tag_69\n      jump\t// in\n    tag_152:\n    tag_151:\n      0x20\n      mul\n      add\n      calldataload\n        /* \"TP FINAL/VotingSystem.sol\":2626:2650  CurveBabyJubJub.pointAdd */\n      tag_147\n        /* \"TP FINAL/VotingSystem.sol\":2626:2680  CurveBabyJubJub.pointAdd(accC2x, accC2y, C2[0], C2[1]) */\n      jump\t// in\n    tag_148:\n        /* \"TP FINAL/VotingSystem.sol\":2608:2614  accC2x */\n      0x03\n      0x00\n        /* \"TP FINAL/VotingSystem.sol\":2616:2622  accC2y */\n      0x04\n      0x00\n        /* \"TP FINAL/VotingSystem.sol\":2607:2680  (accC2x, accC2y) = CurveBabyJubJub.pointAdd(accC2x, accC2y, C2[0], C2[1]) */\n      dup5\n      swap2\n      swap1\n      pop\n      sstore\n      dup4\n      swap2\n      swap1\n      pop\n      sstore\n      pop\n      pop\n        /* \"TP FINAL/VotingSystem.sol\":2710:2711  1 */\n      0x01\n        /* \"TP FINAL/VotingSystem.sol\":2693:2706  numberOfVotes */\n      0x05\n      0x00\n        /* \"TP FINAL/VotingSystem.sol\":2693:2711  numberOfVotes += 1 */\n      dup3\n      dup3\n      sload\n      tag_153\n      swap2\n      swap1\n      tag_154\n      jump\t// in\n    tag_153:\n      swap3\n      pop\n      pop\n      dup2\n      swap1\n      sstore\n      pop\n        /* \"TP FINAL/VotingSystem.sol\":2729:2766  VoteRegistered(C1, C2, nullifierHash) */\n      0xec3373933d5241831a4fb1607a10c99cc2d1a609f099ff1987ce2c1884d05284\n        /* \"TP FINAL/VotingSystem.sol\":2744:2746  C1 */\n      dup7\n        /* \"TP FINAL/VotingSystem.sol\":2748:2750  C2 */\n      dup7\n        /* \"TP FINAL/VotingSystem.sol\":2752:2765  nullifierHash */\n      dup5\n        /* \"TP FINAL/VotingSystem.sol\":2729:2766  VoteRegistered(C1, C2, nullifierHash) */\n      mload(0x40)\n      tag_155\n      swap4\n      swap3\n      swap2\n      swap1\n      tag_156\n      jump\t// in\n    tag_155:\n      mload(0x40)\n      dup1\n      swap2\n      sub\n      swap1\n      log1\n        /* \"TP FINAL/VotingSystem.sol\":1464:2774  {... */\n      pop\n      pop\n      pop\n        /* \"TP FINAL/VotingSystem.sol\":1290:2774  function registerVote(... */\n      pop\n      pop\n      pop\n      pop\n      jump\t// out\n        /* \"TP FINAL/VotingSystem.sol\":2865:3075  function closeElection() external {... */\n    tag_34:\n        /* \"TP FINAL/VotingSystem.sol\":2932:2937  owner */\n      0x00\n      0x00\n      swap1\n      sload\n      swap1\n      0x0100\n      exp\n      swap1\n      div\n      0xffffffffffffffffffffffffffffffffffffffff\n      and\n        /* \"TP FINAL/VotingSystem.sol\":2918:2937  msg.sender == owner */\n      0xffffffffffffffffffffffffffffffffffffffff\n      and\n        /* \"TP FINAL/VotingSystem.sol\":2918:2928  msg.sender */\n      caller\n        /* \"TP FINAL/VotingSystem.sol\":2918:2937  msg.sender == owner */\n      0xffffffffffffffffffffffffffffffffffffffff\n      and\n      eq\n        /* \"TP FINAL/VotingSystem.sol\":2910:2952  require(msg.sender == owner, \"Only owner\") */\n      tag_158\n      jumpi\n      mload(0x40)\n      0x08c379a000000000000000000000000000000000000000000000000000000000\n      dup2\n      mstore\n      0x04\n      add\n      tag_159\n      swap1\n      tag_160\n      jump\t// in\n    tag_159:\n      mload(0x40)\n      dup1\n      swap2\n      sub\n      swap1\n      revert\n    tag_158:\n        /* \"TP FINAL/VotingSystem.sol\":2971:2983  electionOpen */\n      0x00\n      0x14\n      swap1\n      sload\n      swap1\n      0x0100\n      exp\n      swap1\n      div\n      0xff\n      and\n        /* \"TP FINAL/VotingSystem.sol\":2963:3002  require(electionOpen, \"Already closed\") */\n      tag_161\n      jumpi\n      mload(0x40)\n      0x08c379a000000000000000000000000000000000000000000000000000000000\n      dup2\n      mstore\n      0x04\n      add\n      tag_162\n      swap1\n      tag_163\n      jump\t// in\n    tag_162:\n      mload(0x40)\n      dup1\n      swap2\n      sub\n      swap1\n      revert\n    tag_161:\n        /* \"TP FINAL/VotingSystem.sol\":3030:3035  false */\n      0x00\n        /* \"TP FINAL/VotingSystem.sol\":3015:3027  electionOpen */\n      0x00\n      0x14\n        /* \"TP FINAL/VotingSystem.sol\":3015:3035  electionOpen = false */\n      0x0100\n      exp\n      dup2\n      sload\n      dup2\n      0xff\n      mul\n      not\n      and\n      swap1\n      dup4\n      iszero\n      iszero\n      mul\n      or\n      swap1\n      sstore\n      pop\n        /* \"TP FINAL/VotingSystem.sol\":3051:3067  ElectionClosed() */\n      0xa549b9addfc3693a1863ac5b0b13c42960d78df554c01ea6ac72a7db985df0cf\n      mload(0x40)\n      mload(0x40)\n      dup1\n      swap2\n      sub\n      swap1\n      log1\n        /* \"TP FINAL/VotingSystem.sol\":2865:3075  function closeElection() external {... */\n      jump\t// out\n        /* \"TP FINAL/VotingSystem.sol\":241:263  uint256 public  accC1y */\n    tag_36:\n      sload(0x02)\n      dup2\n      jump\t// out\n        /* \"TP FINAL/VotingSystem.sol\":366:411  mapping(bytes32 => bool) public nullifierUsed */\n    tag_41:\n      mstore(0x20, 0x06)\n      dup1\n      0x00\n      mstore\n      keccak256(0x00, 0x40)\n      0x00\n      swap2\n      pop\n      sload\n      swap1\n      0x0100\n      exp\n      swap1\n      div\n      0xff\n      and\n      dup2\n      jump\t// out\n        /* \"TP FINAL/VotingSystem.sol\":270:291  uint256 public accC2x */\n    tag_44:\n      sload(0x03)\n      dup2\n      jump\t// out\n        /* \"TP FINAL/VotingSystem.sol\":298:320  uint256 public  accC2y */\n    tag_47:\n      sload(0x04)\n      dup2\n      jump\t// out\n        /* \"TP FINAL/VotingSystem.sol\":153:173  address public owner */\n    tag_50:\n      0x00\n      0x00\n      swap1\n      sload\n      swap1\n      0x0100\n      exp\n      swap1\n      div\n      0xffffffffffffffffffffffffffffffffffffffff\n      and\n      dup2\n      jump\t// out\n        /* \"TP FINAL/VotingSystem.sol\":420:449  IVerifier public voteVerifier */\n    tag_54:\n      0x07\n      0x00\n      swap1\n      sload\n      swap1\n      0x0100\n      exp\n      swap1\n      div\n      0xffffffffffffffffffffffffffffffffffffffff\n      and\n      dup2\n      jump\t// out\n        /* \"TP FINAL/VotingSystem.sol\":456:488  IVerifier public recountVerifier */\n    tag_58:\n      0x08\n      0x00\n      swap1\n      sload\n      swap1\n      0x0100\n      exp\n      swap1\n      div\n      0xffffffffffffffffffffffffffffffffffffffff\n      and\n      dup2\n      jump\t// out\n        /* \"TP FINAL/VotingSystem.sol\":3167:3784  function publishResults(... */\n    tag_63:\n        /* \"TP FINAL/VotingSystem.sol\":3308:3313  owner */\n      0x00\n      0x00\n      swap1\n      sload\n      swap1\n      0x0100\n      exp\n      swap1\n      div\n      0xffffffffffffffffffffffffffffffffffffffff\n      and\n        /* \"TP FINAL/VotingSystem.sol\":3294:3313  msg.sender == owner */\n      0xffffffffffffffffffffffffffffffffffffffff\n      and\n        /* \"TP FINAL/VotingSystem.sol\":3294:3304  msg.sender */\n      caller\n        /* \"TP FINAL/VotingSystem.sol\":3294:3313  msg.sender == owner */\n      0xffffffffffffffffffffffffffffffffffffffff\n      and\n      eq\n        /* \"TP FINAL/VotingSystem.sol\":3286:3328  require(msg.sender == owner, \"Only owner\") */\n      tag_165\n      jumpi\n      mload(0x40)\n      0x08c379a000000000000000000000000000000000000000000000000000000000\n      dup2\n      mstore\n      0x04\n      add\n      tag_166\n      swap1\n      tag_160\n      jump\t// in\n    tag_166:\n      mload(0x40)\n      dup1\n      swap2\n      sub\n      swap1\n      revert\n    tag_165:\n        /* \"TP FINAL/VotingSystem.sol\":3348:3360  electionOpen */\n      0x00\n      0x14\n      swap1\n      sload\n      swap1\n      0x0100\n      exp\n      swap1\n      div\n      0xff\n      and\n        /* \"TP FINAL/VotingSystem.sol\":3347:3360  !electionOpen */\n      iszero\n        /* \"TP FINAL/VotingSystem.sol\":3339:3384  require(!electionOpen, \"Election still open\") */\n      tag_167\n      jumpi\n      mload(0x40)\n      0x08c379a000000000000000000000000000000000000000000000000000000000\n      dup2\n      mstore\n      0x04\n      add\n      tag_168\n      swap1\n      tag_169\n      jump\t// in\n    tag_168:\n      mload(0x40)\n      dup1\n      swap2\n      sub\n      swap1\n      revert\n    tag_167:\n        /* \"TP FINAL/VotingSystem.sol\":3457:3482  uint256[12] memory inputs */\n      tag_170\n      tag_66\n      jump\t// in\n    tag_170:\n        /* \"TP FINAL/VotingSystem.sol\":3505:3511  accC1x */\n      sload(0x01)\n        /* \"TP FINAL/VotingSystem.sol\":3493:3499  inputs */\n      dup2\n        /* \"TP FINAL/VotingSystem.sol\":3500:3501  0 */\n      0x00\n        /* \"TP FINAL/VotingSystem.sol\":3493:3502  inputs[0] */\n      0x0c\n      dup2\n      lt\n      tag_171\n      jumpi\n      tag_172\n      tag_69\n      jump\t// in\n    tag_172:\n    tag_171:\n      0x20\n      mul\n      add\n        /* \"TP FINAL/VotingSystem.sol\":3493:3511  inputs[0] = accC1x */\n      dup2\n      dup2\n      mstore\n      pop\n      pop\n        /* \"TP FINAL/VotingSystem.sol\":3534:3540  accC1y */\n      sload(0x02)\n        /* \"TP FINAL/VotingSystem.sol\":3522:3528  inputs */\n      dup2\n        /* \"TP FINAL/VotingSystem.sol\":3529:3530  1 */\n      0x01\n        /* \"TP FINAL/VotingSystem.sol\":3522:3531  inputs[1] */\n      0x0c\n      dup2\n      lt\n      tag_173\n      jumpi\n      tag_174\n      tag_69\n      jump\t// in\n    tag_174:\n    tag_173:\n      0x20\n      mul\n      add\n        /* \"TP FINAL/VotingSystem.sol\":3522:3540  inputs[1] = accC1y */\n      dup2\n      dup2\n      mstore\n      pop\n      pop\n        /* \"TP FINAL/VotingSystem.sol\":3563:3569  accC2x */\n      sload(0x03)\n        /* \"TP FINAL/VotingSystem.sol\":3551:3557  inputs */\n      dup2\n        /* \"TP FINAL/VotingSystem.sol\":3558:3559  2 */\n      0x02\n        /* \"TP FINAL/VotingSystem.sol\":3551:3560  inputs[2] */\n      0x0c\n      dup2\n      lt\n      tag_175\n      jumpi\n      tag_176\n      tag_69\n      jump\t// in\n    tag_176:\n    tag_175:\n      0x20\n      mul\n      add\n        /* \"TP FINAL/VotingSystem.sol\":3551:3569  inputs[2] = accC2x */\n      dup2\n      dup2\n      mstore\n      pop\n      pop\n        /* \"TP FINAL/VotingSystem.sol\":3592:3598  accC2y */\n      sload(0x04)\n        /* \"TP FINAL/VotingSystem.sol\":3580:3586  inputs */\n      dup2\n        /* \"TP FINAL/VotingSystem.sol\":3587:3588  3 */\n      0x03\n        /* \"TP FINAL/VotingSystem.sol\":3580:3589  inputs[3] */\n      0x0c\n      dup2\n      lt\n      tag_177\n      jumpi\n      tag_178\n      tag_69\n      jump\t// in\n    tag_178:\n    tag_177:\n      0x20\n      mul\n      add\n        /* \"TP FINAL/VotingSystem.sol\":3580:3598  inputs[3] = accC2y */\n      dup2\n      dup2\n      mstore\n      pop\n      pop\n        /* \"TP FINAL/VotingSystem.sol\":3621:3627  result */\n      dup3\n        /* \"TP FINAL/VotingSystem.sol\":3609:3615  inputs */\n      dup2\n        /* \"TP FINAL/VotingSystem.sol\":3616:3617  4 */\n      0x04\n        /* \"TP FINAL/VotingSystem.sol\":3609:3618  inputs[4] */\n      0x0c\n      dup2\n      lt\n      tag_179\n      jumpi\n      tag_180\n      tag_69\n      jump\t// in\n    tag_180:\n    tag_179:\n      0x20\n      mul\n      add\n        /* \"TP FINAL/VotingSystem.sol\":3609:3627  inputs[4] = result */\n      dup2\n      dup2\n      mstore\n      pop\n      pop\n        /* \"TP FINAL/VotingSystem.sol\":3638:3645  bool ok */\n      0x00\n        /* \"TP FINAL/VotingSystem.sol\":3648:3663  recountVerifier */\n      0x08\n      0x00\n      swap1\n      sload\n      swap1\n      0x0100\n      exp\n      swap1\n      div\n      0xffffffffffffffffffffffffffffffffffffffff\n      and\n        /* \"TP FINAL/VotingSystem.sol\":3648:3672  recountVerifier.verifyTx */\n      0xffffffffffffffffffffffffffffffffffffffff\n      and\n      0x66670599\n        /* \"TP FINAL/VotingSystem.sol\":3673:3678  proof */\n      dup5\n        /* \"TP FINAL/VotingSystem.sol\":3680:3686  inputs */\n      dup5\n        /* \"TP FINAL/VotingSystem.sol\":3648:3687  recountVerifier.verifyTx(proof, inputs) */\n      mload(0x40)\n      dup4\n      0xffffffff\n      and\n      0xe0\n      shl\n      dup2\n      mstore\n      0x04\n      add\n      tag_181\n      swap3\n      swap2\n      swap1\n      tag_134\n      jump\t// in\n    tag_181:\n      0x20\n      mload(0x40)\n      dup1\n      dup4\n      sub\n      dup2\n      dup7\n      gas\n      staticcall\n      iszero\n      dup1\n      iszero\n      tag_183\n      jumpi\n      returndatacopy(0x00, 0x00, returndatasize)\n      revert(0x00, returndatasize)\n    tag_183:\n      pop\n      pop\n      pop\n      pop\n      mload(0x40)\n      returndatasize\n      not(0x1f)\n      0x1f\n      dup3\n      add\n      and\n      dup3\n      add\n      dup1\n      0x40\n      mstore\n      pop\n      dup2\n      add\n      swap1\n      tag_184\n      swap2\n      swap1\n      tag_138\n      jump\t// in\n    tag_184:\n        /* \"TP FINAL/VotingSystem.sol\":3638:3687  bool ok = recountVerifier.verifyTx(proof, inputs) */\n      swap1\n      pop\n        /* \"TP FINAL/VotingSystem.sol\":3706:3708  ok */\n      dup1\n        /* \"TP FINAL/VotingSystem.sol\":3698:3734  require(ok, \"Invalid recount proof\") */\n      tag_185\n      jumpi\n      mload(0x40)\n      0x08c379a000000000000000000000000000000000000000000000000000000000\n      dup2\n      mstore\n      0x04\n      add\n      tag_186\n      swap1\n      tag_187\n      jump\t// in\n    tag_186:\n      mload(0x40)\n      dup1\n      swap2\n      sub\n      swap1\n      revert\n    tag_185:\n        /* \"TP FINAL/VotingSystem.sol\":3752:3776  ResultsPublished(result) */\n      0xee088bcc4c9bbd048c9c087916ec26aae94e63151610af8167078ef170e5ae60\n        /* \"TP FINAL/VotingSystem.sol\":3769:3775  result */\n      dup5\n        /* \"TP FINAL/VotingSystem.sol\":3752:3776  ResultsPublished(result) */\n      mload(0x40)\n      tag_188\n      swap2\n      swap1\n      tag_21\n      jump\t// in\n    tag_188:\n      mload(0x40)\n      dup1\n      swap2\n      sub\n      swap1\n      log1\n        /* \"TP FINAL/VotingSystem.sol\":3273:3784  {... */\n      pop\n      pop\n        /* \"TP FINAL/VotingSystem.sol\":3167:3784  function publishResults(... */\n      pop\n      pop\n      jump\t// out\n        /* \"TP FINAL/CurveBabyJubJub.sol\":671:1433  function pointAdd(... */\n    tag_147:\n        /* \"TP FINAL/CurveBabyJubJub.sol\":807:817  uint256 x3 */\n      0x00\n        /* \"TP FINAL/CurveBabyJubJub.sol\":819:829  uint256 y3 */\n      0x00\n        /* \"TP FINAL/CurveBabyJubJub.sol\":853:854  0 */\n      0x00\n        /* \"TP FINAL/CurveBabyJubJub.sol\":846:849  _x1 */\n      dup7\n        /* \"TP FINAL/CurveBabyJubJub.sol\":846:854  _x1 == 0 */\n      eq\n        /* \"TP FINAL/CurveBabyJubJub.sol\":846:866  _x1 == 0 && _y1 == 0 */\n      dup1\n      iszero\n      tag_190\n      jumpi\n      pop\n        /* \"TP FINAL/CurveBabyJubJub.sol\":865:866  0 */\n      0x00\n        /* \"TP FINAL/CurveBabyJubJub.sol\":858:861  _y1 */\n      dup6\n        /* \"TP FINAL/CurveBabyJubJub.sol\":858:866  _y1 == 0 */\n      eq\n        /* \"TP FINAL/CurveBabyJubJub.sol\":846:866  _x1 == 0 && _y1 == 0 */\n    tag_190:\n        /* \"TP FINAL/CurveBabyJubJub.sol\":842:912  if (_x1 == 0 && _y1 == 0) {... */\n      iszero\n      tag_191\n      jumpi\n        /* \"TP FINAL/CurveBabyJubJub.sol\":891:894  _x2 */\n      dup4\n        /* \"TP FINAL/CurveBabyJubJub.sol\":896:899  _y2 */\n      dup4\n        /* \"TP FINAL/CurveBabyJubJub.sol\":883:900  return (_x2, _y2) */\n      swap2\n      pop\n      swap2\n      pop\n      jump(tag_189)\n        /* \"TP FINAL/CurveBabyJubJub.sol\":842:912  if (_x1 == 0 && _y1 == 0) {... */\n    tag_191:\n        /* \"TP FINAL/CurveBabyJubJub.sol\":935:936  0 */\n      0x00\n        /* \"TP FINAL/CurveBabyJubJub.sol\":928:931  _x2 */\n      dup5\n        /* \"TP FINAL/CurveBabyJubJub.sol\":928:936  _x2 == 0 */\n      eq\n        /* \"TP FINAL/CurveBabyJubJub.sol\":928:948  _x2 == 0 && _y1 == 0 */\n      dup1\n      iszero\n      tag_192\n      jumpi\n      pop\n        /* \"TP FINAL/CurveBabyJubJub.sol\":947:948  0 */\n      0x00\n        /* \"TP FINAL/CurveBabyJubJub.sol\":940:943  _y1 */\n      dup6\n        /* \"TP FINAL/CurveBabyJubJub.sol\":940:948  _y1 == 0 */\n      eq\n        /* \"TP FINAL/CurveBabyJubJub.sol\":928:948  _x2 == 0 && _y1 == 0 */\n    tag_192:\n        /* \"TP FINAL/CurveBabyJubJub.sol\":924:994  if (_x2 == 0 && _y1 == 0) {... */\n      iszero\n      tag_193\n      jumpi\n        /* \"TP FINAL/CurveBabyJubJub.sol\":973:976  _x1 */\n      dup6\n        /* \"TP FINAL/CurveBabyJubJub.sol\":978:981  _y1 */\n      dup6\n        /* \"TP FINAL/CurveBabyJubJub.sol\":965:982  return (_x1, _y1) */\n      swap2\n      pop\n      swap2\n      pop\n      jump(tag_189)\n        /* \"TP FINAL/CurveBabyJubJub.sol\":924:994  if (_x2 == 0 && _y1 == 0) {... */\n    tag_193:\n        /* \"TP FINAL/CurveBabyJubJub.sol\":1006:1018  uint256 x1x2 */\n      0x00\n        /* \"TP FINAL/CurveBabyJubJub.sol\":375:441  0x30644E72E131A029B85045B68181585D2833E84879B9709143E1F593F0000001 */\n      0x30644e72e131a029b85045b68181585d2833e84879b9709143e1f593f0000001\n        /* \"TP FINAL/CurveBabyJubJub.sol\":1021:1040  mulmod(_x1, _x2, Q) */\n      dup1\n      tag_194\n      jumpi\n      tag_195\n      tag_196\n      jump\t// in\n    tag_195:\n    tag_194:\n        /* \"TP FINAL/CurveBabyJubJub.sol\":1033:1036  _x2 */\n      dup6\n        /* \"TP FINAL/CurveBabyJubJub.sol\":1028:1031  _x1 */\n      dup9\n        /* \"TP FINAL/CurveBabyJubJub.sol\":1021:1040  mulmod(_x1, _x2, Q) */\n      mulmod\n        /* \"TP FINAL/CurveBabyJubJub.sol\":1006:1040  uint256 x1x2 = mulmod(_x1, _x2, Q) */\n      swap1\n      pop\n        /* \"TP FINAL/CurveBabyJubJub.sol\":1051:1063  uint256 y1y2 */\n      0x00\n        /* \"TP FINAL/CurveBabyJubJub.sol\":375:441  0x30644E72E131A029B85045B68181585D2833E84879B9709143E1F593F0000001 */\n      0x30644e72e131a029b85045b68181585d2833e84879b9709143e1f593f0000001\n        /* \"TP FINAL/CurveBabyJubJub.sol\":1066:1085  mulmod(_y1, _y2, Q) */\n      dup1\n      tag_197\n      jumpi\n      tag_198\n      tag_196\n      jump\t// in\n    tag_198:\n    tag_197:\n        /* \"TP FINAL/CurveBabyJubJub.sol\":1078:1081  _y2 */\n      dup6\n        /* \"TP FINAL/CurveBabyJubJub.sol\":1073:1076  _y1 */\n      dup9\n        /* \"TP FINAL/CurveBabyJubJub.sol\":1066:1085  mulmod(_y1, _y2, Q) */\n      mulmod\n        /* \"TP FINAL/CurveBabyJubJub.sol\":1051:1085  uint256 y1y2 = mulmod(_y1, _y2, Q) */\n      swap1\n      pop\n        /* \"TP FINAL/CurveBabyJubJub.sol\":1096:1113  uint256 dx1x2y1y2 */\n      0x00\n        /* \"TP FINAL/CurveBabyJubJub.sol\":375:441  0x30644E72E131A029B85045B68181585D2833E84879B9709143E1F593F0000001 */\n      0x30644e72e131a029b85045b68181585d2833e84879b9709143e1f593f0000001\n        /* \"TP FINAL/CurveBabyJubJub.sol\":1116:1151  mulmod(D, mulmod(x1x2, y1y2, Q), Q) */\n      dup1\n      tag_199\n      jumpi\n      tag_200\n      tag_196\n      jump\t// in\n    tag_200:\n    tag_199:\n        /* \"TP FINAL/CurveBabyJubJub.sol\":375:441  0x30644E72E131A029B85045B68181585D2833E84879B9709143E1F593F0000001 */\n      0x30644e72e131a029b85045b68181585d2833e84879b9709143e1f593f0000001\n        /* \"TP FINAL/CurveBabyJubJub.sol\":1126:1147  mulmod(x1x2, y1y2, Q) */\n      dup1\n      tag_201\n      jumpi\n      tag_202\n      tag_196\n      jump\t// in\n    tag_202:\n    tag_201:\n        /* \"TP FINAL/CurveBabyJubJub.sol\":1139:1143  y1y2 */\n      dup4\n        /* \"TP FINAL/CurveBabyJubJub.sol\":1133:1137  x1x2 */\n      dup6\n        /* \"TP FINAL/CurveBabyJubJub.sol\":1126:1147  mulmod(x1x2, y1y2, Q) */\n      mulmod\n        /* \"TP FINAL/CurveBabyJubJub.sol\":237:244  0x292F8 */\n      0x0292f8\n        /* \"TP FINAL/CurveBabyJubJub.sol\":1116:1151  mulmod(D, mulmod(x1x2, y1y2, Q), Q) */\n      mulmod\n        /* \"TP FINAL/CurveBabyJubJub.sol\":1096:1151  uint256 dx1x2y1y2 = mulmod(D, mulmod(x1x2, y1y2, Q), Q) */\n      swap1\n      pop\n        /* \"TP FINAL/CurveBabyJubJub.sol\":1162:1175  uint256 x3Num */\n      0x00\n        /* \"TP FINAL/CurveBabyJubJub.sol\":375:441  0x30644E72E131A029B85045B68181585D2833E84879B9709143E1F593F0000001 */\n      0x30644e72e131a029b85045b68181585d2833e84879b9709143e1f593f0000001\n        /* \"TP FINAL/CurveBabyJubJub.sol\":1178:1229  addmod(mulmod(_x1, _y2, Q), mulmod(_y1, _x2, Q), Q) */\n      dup1\n      tag_203\n      jumpi\n      tag_204\n      tag_196\n      jump\t// in\n    tag_204:\n    tag_203:\n        /* \"TP FINAL/CurveBabyJubJub.sol\":375:441  0x30644E72E131A029B85045B68181585D2833E84879B9709143E1F593F0000001 */\n      0x30644e72e131a029b85045b68181585d2833e84879b9709143e1f593f0000001\n        /* \"TP FINAL/CurveBabyJubJub.sol\":1206:1225  mulmod(_y1, _x2, Q) */\n      dup1\n      tag_205\n      jumpi\n      tag_206\n      tag_196\n      jump\t// in\n    tag_206:\n    tag_205:\n        /* \"TP FINAL/CurveBabyJubJub.sol\":1218:1221  _x2 */\n      dup10\n        /* \"TP FINAL/CurveBabyJubJub.sol\":1213:1216  _y1 */\n      dup12\n        /* \"TP FINAL/CurveBabyJubJub.sol\":1206:1225  mulmod(_y1, _x2, Q) */\n      mulmod\n        /* \"TP FINAL/CurveBabyJubJub.sol\":375:441  0x30644E72E131A029B85045B68181585D2833E84879B9709143E1F593F0000001 */\n      0x30644e72e131a029b85045b68181585d2833e84879b9709143e1f593f0000001\n        /* \"TP FINAL/CurveBabyJubJub.sol\":1185:1204  mulmod(_x1, _y2, Q) */\n      dup1\n      tag_207\n      jumpi\n      tag_208\n      tag_196\n      jump\t// in\n    tag_208:\n    tag_207:\n        /* \"TP FINAL/CurveBabyJubJub.sol\":1197:1200  _y2 */\n      dup10\n        /* \"TP FINAL/CurveBabyJubJub.sol\":1192:1195  _x1 */\n      dup14\n        /* \"TP FINAL/CurveBabyJubJub.sol\":1185:1204  mulmod(_x1, _y2, Q) */\n      mulmod\n        /* \"TP FINAL/CurveBabyJubJub.sol\":1178:1229  addmod(mulmod(_x1, _y2, Q), mulmod(_y1, _x2, Q), Q) */\n      addmod\n        /* \"TP FINAL/CurveBabyJubJub.sol\":1162:1229  uint256 x3Num = addmod(mulmod(_x1, _y2, Q), mulmod(_y1, _x2, Q), Q) */\n      swap1\n      pop\n        /* \"TP FINAL/CurveBabyJubJub.sol\":1240:1253  uint256 y3Num */\n      0x00\n        /* \"TP FINAL/CurveBabyJubJub.sol\":1256:1291  submod(y1y2, mulmod(A, x1x2, Q), Q) */\n      tag_209\n        /* \"TP FINAL/CurveBabyJubJub.sol\":1263:1267  y1y2 */\n      dup5\n        /* \"TP FINAL/CurveBabyJubJub.sol\":375:441  0x30644E72E131A029B85045B68181585D2833E84879B9709143E1F593F0000001 */\n      0x30644e72e131a029b85045b68181585d2833e84879b9709143e1f593f0000001\n        /* \"TP FINAL/CurveBabyJubJub.sol\":1269:1287  mulmod(A, x1x2, Q) */\n      dup1\n      tag_210\n      jumpi\n      tag_211\n      tag_196\n      jump\t// in\n    tag_211:\n    tag_210:\n        /* \"TP FINAL/CurveBabyJubJub.sol\":1279:1283  x1x2 */\n      dup8\n        /* \"TP FINAL/CurveBabyJubJub.sol\":176:183  0x292FC */\n      0x0292fc\n        /* \"TP FINAL/CurveBabyJubJub.sol\":1269:1287  mulmod(A, x1x2, Q) */\n      mulmod\n        /* \"TP FINAL/CurveBabyJubJub.sol\":375:441  0x30644E72E131A029B85045B68181585D2833E84879B9709143E1F593F0000001 */\n      0x30644e72e131a029b85045b68181585d2833e84879b9709143e1f593f0000001\n        /* \"TP FINAL/CurveBabyJubJub.sol\":1256:1262  submod */\n      tag_212\n        /* \"TP FINAL/CurveBabyJubJub.sol\":1256:1291  submod(y1y2, mulmod(A, x1x2, Q), Q) */\n      jump\t// in\n    tag_209:\n        /* \"TP FINAL/CurveBabyJubJub.sol\":1240:1291  uint256 y3Num = submod(y1y2, mulmod(A, x1x2, Q), Q) */\n      swap1\n      pop\n        /* \"TP FINAL/CurveBabyJubJub.sol\":375:441  0x30644E72E131A029B85045B68181585D2833E84879B9709143E1F593F0000001 */\n      0x30644e72e131a029b85045b68181585d2833e84879b9709143e1f593f0000001\n        /* \"TP FINAL/CurveBabyJubJub.sol\":1309:1359  mulmod(x3Num, inverse(addmod(1, dx1x2y1y2, Q)), Q) */\n      dup1\n      tag_213\n      jumpi\n      tag_214\n      tag_196\n      jump\t// in\n    tag_214:\n    tag_213:\n        /* \"TP FINAL/CurveBabyJubJub.sol\":1323:1355  inverse(addmod(1, dx1x2y1y2, Q)) */\n      tag_215\n        /* \"TP FINAL/CurveBabyJubJub.sol\":375:441  0x30644E72E131A029B85045B68181585D2833E84879B9709143E1F593F0000001 */\n      0x30644e72e131a029b85045b68181585d2833e84879b9709143e1f593f0000001\n        /* \"TP FINAL/CurveBabyJubJub.sol\":1331:1354  addmod(1, dx1x2y1y2, Q) */\n      dup1\n      tag_216\n      jumpi\n      tag_217\n      tag_196\n      jump\t// in\n    tag_217:\n    tag_216:\n        /* \"TP FINAL/CurveBabyJubJub.sol\":1341:1350  dx1x2y1y2 */\n      dup6\n        /* \"TP FINAL/CurveBabyJubJub.sol\":1338:1339  1 */\n      0x01\n        /* \"TP FINAL/CurveBabyJubJub.sol\":1331:1354  addmod(1, dx1x2y1y2, Q) */\n      addmod\n        /* \"TP FINAL/CurveBabyJubJub.sol\":1323:1330  inverse */\n      tag_218\n        /* \"TP FINAL/CurveBabyJubJub.sol\":1323:1355  inverse(addmod(1, dx1x2y1y2, Q)) */\n      jump\t// in\n    tag_215:\n        /* \"TP FINAL/CurveBabyJubJub.sol\":1316:1321  x3Num */\n      dup4\n        /* \"TP FINAL/CurveBabyJubJub.sol\":1309:1359  mulmod(x3Num, inverse(addmod(1, dx1x2y1y2, Q)), Q) */\n      mulmod\n        /* \"TP FINAL/CurveBabyJubJub.sol\":1304:1359  x3 = mulmod(x3Num, inverse(addmod(1, dx1x2y1y2, Q)), Q) */\n      swap7\n      pop\n        /* \"TP FINAL/CurveBabyJubJub.sol\":375:441  0x30644E72E131A029B85045B68181585D2833E84879B9709143E1F593F0000001 */\n      0x30644e72e131a029b85045b68181585d2833e84879b9709143e1f593f0000001\n        /* \"TP FINAL/CurveBabyJubJub.sol\":1375:1425  mulmod(y3Num, inverse(submod(1, dx1x2y1y2, Q)), Q) */\n      dup1\n      tag_219\n      jumpi\n      tag_220\n      tag_196\n      jump\t// in\n    tag_220:\n    tag_219:\n        /* \"TP FINAL/CurveBabyJubJub.sol\":1389:1421  inverse(submod(1, dx1x2y1y2, Q)) */\n      tag_221\n        /* \"TP FINAL/CurveBabyJubJub.sol\":1397:1420  submod(1, dx1x2y1y2, Q) */\n      tag_222\n        /* \"TP FINAL/CurveBabyJubJub.sol\":1404:1405  1 */\n      0x01\n        /* \"TP FINAL/CurveBabyJubJub.sol\":1407:1416  dx1x2y1y2 */\n      dup7\n        /* \"TP FINAL/CurveBabyJubJub.sol\":375:441  0x30644E72E131A029B85045B68181585D2833E84879B9709143E1F593F0000001 */\n      0x30644e72e131a029b85045b68181585d2833e84879b9709143e1f593f0000001\n        /* \"TP FINAL/CurveBabyJubJub.sol\":1397:1403  submod */\n      tag_212\n        /* \"TP FINAL/CurveBabyJubJub.sol\":1397:1420  submod(1, dx1x2y1y2, Q) */\n      jump\t// in\n    tag_222:\n        /* \"TP FINAL/CurveBabyJubJub.sol\":1389:1396  inverse */\n      tag_218\n        /* \"TP FINAL/CurveBabyJubJub.sol\":1389:1421  inverse(submod(1, dx1x2y1y2, Q)) */\n      jump\t// in\n    tag_221:\n        /* \"TP FINAL/CurveBabyJubJub.sol\":1382:1387  y3Num */\n      dup3\n        /* \"TP FINAL/CurveBabyJubJub.sol\":1375:1425  mulmod(y3Num, inverse(submod(1, dx1x2y1y2, Q)), Q) */\n      mulmod\n        /* \"TP FINAL/CurveBabyJubJub.sol\":1370:1425  y3 = mulmod(y3Num, inverse(submod(1, dx1x2y1y2, Q)), Q) */\n      swap6\n      pop\n        /* \"TP FINAL/CurveBabyJubJub.sol\":831:1433  {... */\n      pop\n      pop\n      pop\n      pop\n      pop\n        /* \"TP FINAL/CurveBabyJubJub.sol\":671:1433  function pointAdd(... */\n    tag_189:\n      swap5\n      pop\n      swap5\n      swap3\n      pop\n      pop\n      pop\n      jump\t// out\n        /* \"TP FINAL/CurveBabyJubJub.sol\":3024:3288  function submod(... */\n    tag_212:\n        /* \"TP FINAL/CurveBabyJubJub.sol\":3135:3142  uint256 */\n      0x00\n        /* \"TP FINAL/CurveBabyJubJub.sol\":3155:3166  uint256 aNN */\n      0x00\n        /* \"TP FINAL/CurveBabyJubJub.sol\":3169:3171  _a */\n      dup5\n        /* \"TP FINAL/CurveBabyJubJub.sol\":3155:3171  uint256 aNN = _a */\n      swap1\n      pop\n        /* \"TP FINAL/CurveBabyJubJub.sol\":3194:3196  _b */\n      dup4\n        /* \"TP FINAL/CurveBabyJubJub.sol\":3188:3190  _a */\n      dup6\n        /* \"TP FINAL/CurveBabyJubJub.sol\":3188:3196  _a <= _b */\n      gt\n        /* \"TP FINAL/CurveBabyJubJub.sol\":3184:3236  if (_a <= _b) {... */\n      tag_224\n      jumpi\n        /* \"TP FINAL/CurveBabyJubJub.sol\":3220:3224  _mod */\n      dup3\n        /* \"TP FINAL/CurveBabyJubJub.sol\":3213:3224  aNN += _mod */\n      dup2\n      tag_225\n      swap2\n      swap1\n      tag_154\n      jump\t// in\n    tag_225:\n      swap1\n      pop\n        /* \"TP FINAL/CurveBabyJubJub.sol\":3184:3236  if (_a <= _b) {... */\n    tag_224:\n        /* \"TP FINAL/CurveBabyJubJub.sol\":3275:3279  _mod */\n      dup3\n        /* \"TP FINAL/CurveBabyJubJub.sol\":3255:3280  addmod(aNN - _b, 0, _mod) */\n      dup1\n      tag_226\n      jumpi\n      tag_227\n      tag_196\n      jump\t// in\n    tag_227:\n    tag_226:\n        /* \"TP FINAL/CurveBabyJubJub.sol\":3272:3273  0 */\n      0x00\n        /* \"TP FINAL/CurveBabyJubJub.sol\":3268:3270  _b */\n      dup6\n        /* \"TP FINAL/CurveBabyJubJub.sol\":3262:3265  aNN */\n      dup4\n        /* \"TP FINAL/CurveBabyJubJub.sol\":3262:3270  aNN - _b */\n      tag_228\n      swap2\n      swap1\n      tag_229\n      jump\t// in\n    tag_228:\n        /* \"TP FINAL/CurveBabyJubJub.sol\":3255:3280  addmod(aNN - _b, 0, _mod) */\n      addmod\n        /* \"TP FINAL/CurveBabyJubJub.sol\":3248:3280  return addmod(aNN - _b, 0, _mod) */\n      swap2\n      pop\n      pop\n        /* \"TP FINAL/CurveBabyJubJub.sol\":3024:3288  function submod(... */\n      swap4\n      swap3\n      pop\n      pop\n      pop\n      jump\t// out\n        /* \"TP FINAL/CurveBabyJubJub.sol\":3363:3626  function inverse(uint256 _a) internal view returns (uint256) {... */\n    tag_218:\n        /* \"TP FINAL/CurveBabyJubJub.sol\":3415:3422  uint256 */\n      0x00\n        /* \"TP FINAL/CurveBabyJubJub.sol\":3598:3618  expmod(_a, Q - 2, Q) */\n      tag_231\n        /* \"TP FINAL/CurveBabyJubJub.sol\":3605:3607  _a */\n      dup3\n        /* \"TP FINAL/CurveBabyJubJub.sol\":3613:3614  2 */\n      0x02\n        /* \"TP FINAL/CurveBabyJubJub.sol\":375:441  0x30644E72E131A029B85045B68181585D2833E84879B9709143E1F593F0000001 */\n      0x30644e72e131a029b85045b68181585d2833e84879b9709143e1f593f0000001\n        /* \"TP FINAL/CurveBabyJubJub.sol\":3609:3614  Q - 2 */\n      tag_232\n      swap2\n      swap1\n      tag_229\n      jump\t// in\n    tag_232:\n        /* \"TP FINAL/CurveBabyJubJub.sol\":375:441  0x30644E72E131A029B85045B68181585D2833E84879B9709143E1F593F0000001 */\n      0x30644e72e131a029b85045b68181585d2833e84879b9709143e1f593f0000001\n        /* \"TP FINAL/CurveBabyJubJub.sol\":3598:3604  expmod */\n      tag_233\n        /* \"TP FINAL/CurveBabyJubJub.sol\":3598:3618  expmod(_a, Q - 2, Q) */\n      jump\t// in\n    tag_231:\n        /* \"TP FINAL/CurveBabyJubJub.sol\":3591:3618  return expmod(_a, Q - 2, Q) */\n      swap1\n      pop\n        /* \"TP FINAL/CurveBabyJubJub.sol\":3363:3626  function inverse(uint256 _a) internal view returns (uint256) {... */\n      swap2\n      swap1\n      pop\n      jump\t// out\n        /* \"TP FINAL/CurveBabyJubJub.sol\":3714:4358  function expmod(... */\n    tag_233:\n        /* \"TP FINAL/CurveBabyJubJub.sol\":3823:3832  uint256 o */\n      0x00\n        /* \"TP FINAL/CurveBabyJubJub.sol\":3889:3893  0x40 */\n      0x40\n        /* \"TP FINAL/CurveBabyJubJub.sol\":3883:3894  mload(0x40) */\n      mload\n        /* \"TP FINAL/CurveBabyJubJub.sol\":3923:3927  0x20 */\n      0x20\n        /* \"TP FINAL/CurveBabyJubJub.sol\":3915:3921  memPtr */\n      dup2\n        /* \"TP FINAL/CurveBabyJubJub.sol\":3908:3928  mstore(memPtr, 0x20) */\n      mstore\n        /* \"TP FINAL/CurveBabyJubJub.sol\":3968:3972  0x20 */\n      0x20\n        /* \"TP FINAL/CurveBabyJubJub.sol\":3961:3965  0x20 */\n      dup1\n        /* \"TP FINAL/CurveBabyJubJub.sol\":3953:3959  memPtr */\n      dup3\n        /* \"TP FINAL/CurveBabyJubJub.sol\":3949:3966  add(memPtr, 0x20) */\n      add\n        /* \"TP FINAL/CurveBabyJubJub.sol\":3942:3973  mstore(add(memPtr, 0x20), 0x20) */\n      mstore\n        /* \"TP FINAL/CurveBabyJubJub.sol\":4013:4017  0x20 */\n      0x20\n        /* \"TP FINAL/CurveBabyJubJub.sol\":4006:4010  0x40 */\n      0x40\n        /* \"TP FINAL/CurveBabyJubJub.sol\":3998:4004  memPtr */\n      dup3\n        /* \"TP FINAL/CurveBabyJubJub.sol\":3994:4011  add(memPtr, 0x40) */\n      add\n        /* \"TP FINAL/CurveBabyJubJub.sol\":3987:4018  mstore(add(memPtr, 0x40), 0x20) */\n      mstore\n        /* \"TP FINAL/CurveBabyJubJub.sol\":4058:4060  _b */\n      dup5\n        /* \"TP FINAL/CurveBabyJubJub.sol\":4051:4055  0x60 */\n      0x60\n        /* \"TP FINAL/CurveBabyJubJub.sol\":4043:4049  memPtr */\n      dup3\n        /* \"TP FINAL/CurveBabyJubJub.sol\":4039:4056  add(memPtr, 0x60) */\n      add\n        /* \"TP FINAL/CurveBabyJubJub.sol\":4032:4061  mstore(add(memPtr, 0x60), _b) */\n      mstore\n        /* \"TP FINAL/CurveBabyJubJub.sol\":4101:4103  _e */\n      dup4\n        /* \"TP FINAL/CurveBabyJubJub.sol\":4094:4098  0x80 */\n      0x80\n        /* \"TP FINAL/CurveBabyJubJub.sol\":4086:4092  memPtr */\n      dup3\n        /* \"TP FINAL/CurveBabyJubJub.sol\":4082:4099  add(memPtr, 0x80) */\n      add\n        /* \"TP FINAL/CurveBabyJubJub.sol\":4075:4104  mstore(add(memPtr, 0x80), _e) */\n      mstore\n        /* \"TP FINAL/CurveBabyJubJub.sol\":4144:4146  _m */\n      dup3\n        /* \"TP FINAL/CurveBabyJubJub.sol\":4137:4141  0xa0 */\n      0xa0\n        /* \"TP FINAL/CurveBabyJubJub.sol\":4129:4135  memPtr */\n      dup3\n        /* \"TP FINAL/CurveBabyJubJub.sol\":4125:4142  add(memPtr, 0xa0) */\n      add\n        /* \"TP FINAL/CurveBabyJubJub.sol\":4118:4147  mstore(add(memPtr, 0xa0), _m) */\n      mstore\n        /* \"TP FINAL/CurveBabyJubJub.sol\":4224:4228  0x20 */\n      0x20\n        /* \"TP FINAL/CurveBabyJubJub.sol\":4216:4222  memPtr */\n      dup2\n        /* \"TP FINAL/CurveBabyJubJub.sol\":4210:4214  0xc0 */\n      0xc0\n        /* \"TP FINAL/CurveBabyJubJub.sol\":4202:4208  memPtr */\n      dup4\n        /* \"TP FINAL/CurveBabyJubJub.sol\":4196:4200  0x05 */\n      0x05\n        /* \"TP FINAL/CurveBabyJubJub.sol\":4189:4194  gas() */\n      gas\n        /* \"TP FINAL/CurveBabyJubJub.sol\":4178:4229  staticcall(gas(), 0x05, memPtr, 0xc0, memPtr, 0x20) */\n      staticcall\n        /* \"TP FINAL/CurveBabyJubJub.sol\":4253:4260  success */\n      dup1\n        /* \"TP FINAL/CurveBabyJubJub.sol\":4243:4308  if iszero(success) {... */\n      tag_235\n      jumpi\n        /* \"TP FINAL/CurveBabyJubJub.sol\":4291:4292  0 */\n      0x00\n        /* \"TP FINAL/CurveBabyJubJub.sol\":4288:4289  0 */\n      0x00\n        /* \"TP FINAL/CurveBabyJubJub.sol\":4281:4293  revert(0, 0) */\n      revert\n        /* \"TP FINAL/CurveBabyJubJub.sol\":4243:4308  if iszero(success) {... */\n    tag_235:\n        /* \"TP FINAL/CurveBabyJubJub.sol\":4333:4339  memPtr */\n      dup2\n        /* \"TP FINAL/CurveBabyJubJub.sol\":4327:4340  mload(memPtr) */\n      mload\n        /* \"TP FINAL/CurveBabyJubJub.sol\":4322:4340  o := mload(memPtr) */\n      swap3\n      pop\n        /* \"TP FINAL/CurveBabyJubJub.sol\":3854:4351  {... */\n      pop\n      pop\n        /* \"TP FINAL/CurveBabyJubJub.sol\":3714:4358  function expmod(... */\n      swap4\n      swap3\n      pop\n      pop\n      pop\n      jump\t// out\n    tag_66:\n      mload(0x40)\n      dup1\n      0x0180\n      add\n      0x40\n      mstore\n      dup1\n      0x0c\n      swap1\n      0x20\n      dup3\n      mul\n      dup1\n      calldatasize\n      dup4\n      calldatacopy\n      dup1\n      dup3\n      add\n      swap2\n      pop\n      pop\n      swap1\n      pop\n      pop\n      swap1\n      jump\t// out\n        /* \"#utility.yul\":7:84   */\n    tag_236:\n        /* \"#utility.yul\":44:51   */\n      0x00\n        /* \"#utility.yul\":73:78   */\n      dup2\n        /* \"#utility.yul\":62:78   */\n      swap1\n      pop\n        /* \"#utility.yul\":7:84   */\n      swap2\n      swap1\n      pop\n      jump\t// out\n        /* \"#utility.yul\":90:208   */\n    tag_237:\n        /* \"#utility.yul\":177:201   */\n      tag_311\n        /* \"#utility.yul\":195:200   */\n      dup2\n        /* \"#utility.yul\":177:201   */\n      tag_236\n      jump\t// in\n    tag_311:\n        /* \"#utility.yul\":172:175   */\n      dup3\n        /* \"#utility.yul\":165:202   */\n      mstore\n        /* \"#utility.yul\":90:208   */\n      pop\n      pop\n      jump\t// out\n        /* \"#utility.yul\":214:436   */\n    tag_21:\n        /* \"#utility.yul\":307:311   */\n      0x00\n        /* \"#utility.yul\":345:347   */\n      0x20\n        /* \"#utility.yul\":334:343   */\n      dup3\n        /* \"#utility.yul\":330:348   */\n      add\n        /* \"#utility.yul\":322:348   */\n      swap1\n      pop\n        /* \"#utility.yul\":358:429   */\n      tag_313\n        /* \"#utility.yul\":426:427   */\n      0x00\n        /* \"#utility.yul\":415:424   */\n      dup4\n        /* \"#utility.yul\":411:428   */\n      add\n        /* \"#utility.yul\":402:408   */\n      dup5\n        /* \"#utility.yul\":358:429   */\n      tag_237\n      jump\t// in\n    tag_313:\n        /* \"#utility.yul\":214:436   */\n      swap3\n      swap2\n      pop\n      pop\n      jump\t// out\n        /* \"#utility.yul\":442:532   */\n    tag_238:\n        /* \"#utility.yul\":476:483   */\n      0x00\n        /* \"#utility.yul\":519:524   */\n      dup2\n        /* \"#utility.yul\":512:525   */\n      iszero\n        /* \"#utility.yul\":505:526   */\n      iszero\n        /* \"#utility.yul\":494:526   */\n      swap1\n      pop\n        /* \"#utility.yul\":442:532   */\n      swap2\n      swap1\n      pop\n      jump\t// out\n        /* \"#utility.yul\":538:647   */\n    tag_239:\n        /* \"#utility.yul\":619:640   */\n      tag_316\n        /* \"#utility.yul\":634:639   */\n      dup2\n        /* \"#utility.yul\":619:640   */\n      tag_238\n      jump\t// in\n    tag_316:\n        /* \"#utility.yul\":614:617   */\n      dup3\n        /* \"#utility.yul\":607:641   */\n      mstore\n        /* \"#utility.yul\":538:647   */\n      pop\n      pop\n      jump\t// out\n        /* \"#utility.yul\":653:863   */\n    tag_25:\n        /* \"#utility.yul\":740:744   */\n      0x00\n        /* \"#utility.yul\":778:780   */\n      0x20\n        /* \"#utility.yul\":767:776   */\n      dup3\n        /* \"#utility.yul\":763:781   */\n      add\n        /* \"#utility.yul\":755:781   */\n      swap1\n      pop\n        /* \"#utility.yul\":791:856   */\n      tag_318\n        /* \"#utility.yul\":853:854   */\n      0x00\n        /* \"#utility.yul\":842:851   */\n      dup4\n        /* \"#utility.yul\":838:855   */\n      add\n        /* \"#utility.yul\":829:835   */\n      dup5\n        /* \"#utility.yul\":791:856   */\n      tag_239\n      jump\t// in\n    tag_318:\n        /* \"#utility.yul\":653:863   */\n      swap3\n      swap2\n      pop\n      pop\n      jump\t// out\n        /* \"#utility.yul\":950:1067   */\n    tag_241:\n        /* \"#utility.yul\":1059:1060   */\n      0x00\n        /* \"#utility.yul\":1056:1057   */\n      0x00\n        /* \"#utility.yul\":1049:1061   */\n      revert\n        /* \"#utility.yul\":1196:1313   */\n    tag_243:\n        /* \"#utility.yul\":1305:1306   */\n      0x00\n        /* \"#utility.yul\":1302:1303   */\n      0x00\n        /* \"#utility.yul\":1295:1307   */\n      revert\n        /* \"#utility.yul\":1339:1568   */\n    tag_244:\n        /* \"#utility.yul\":1409:1414   */\n      0x00\n        /* \"#utility.yul\":1450:1453   */\n      0x0100\n        /* \"#utility.yul\":1441:1447   */\n      dup3\n        /* \"#utility.yul\":1436:1439   */\n      dup5\n        /* \"#utility.yul\":1432:1448   */\n      sub\n        /* \"#utility.yul\":1428:1454   */\n      slt\n        /* \"#utility.yul\":1425:1538   */\n      iszero\n      tag_324\n      jumpi\n        /* \"#utility.yul\":1457:1536   */\n      tag_325\n      tag_243\n      jump\t// in\n    tag_325:\n        /* \"#utility.yul\":1425:1538   */\n    tag_324:\n        /* \"#utility.yul\":1556:1562   */\n      dup2\n        /* \"#utility.yul\":1547:1562   */\n      swap1\n      pop\n        /* \"#utility.yul\":1339:1568   */\n      swap3\n      swap2\n      pop\n      pop\n      jump\t// out\n        /* \"#utility.yul\":1574:1691   */\n    tag_245:\n        /* \"#utility.yul\":1683:1684   */\n      0x00\n        /* \"#utility.yul\":1680:1681   */\n      0x00\n        /* \"#utility.yul\":1673:1685   */\n      revert\n        /* \"#utility.yul\":1715:1964   */\n    tag_246:\n        /* \"#utility.yul\":1786:1794   */\n      0x00\n        /* \"#utility.yul\":1817:1823   */\n      dup2\n        /* \"#utility.yul\":1805:1823   */\n      swap1\n      pop\n        /* \"#utility.yul\":1870:1873   */\n      dup3\n        /* \"#utility.yul\":1862:1866   */\n      0x20\n        /* \"#utility.yul\":1856:1860   */\n      0x02\n        /* \"#utility.yul\":1852:1867   */\n      mul\n        /* \"#utility.yul\":1842:1850   */\n      dup3\n        /* \"#utility.yul\":1838:1868   */\n      add\n        /* \"#utility.yul\":1835:1874   */\n      gt\n        /* \"#utility.yul\":1832:1958   */\n      iszero\n      tag_328\n      jumpi\n        /* \"#utility.yul\":1877:1956   */\n      tag_329\n      tag_245\n      jump\t// in\n    tag_329:\n        /* \"#utility.yul\":1832:1958   */\n    tag_328:\n        /* \"#utility.yul\":1715:1964   */\n      swap3\n      swap2\n      pop\n      pop\n      jump\t// out\n        /* \"#utility.yul\":1987:2235   */\n    tag_247:\n        /* \"#utility.yul\":2057:2065   */\n      0x00\n        /* \"#utility.yul\":2088:2094   */\n      dup2\n        /* \"#utility.yul\":2076:2094   */\n      swap1\n      pop\n        /* \"#utility.yul\":2141:2144   */\n      dup3\n        /* \"#utility.yul\":2133:2137   */\n      0x20\n        /* \"#utility.yul\":2127:2131   */\n      0x08\n        /* \"#utility.yul\":2123:2138   */\n      mul\n        /* \"#utility.yul\":2113:2121   */\n      dup3\n        /* \"#utility.yul\":2109:2139   */\n      add\n        /* \"#utility.yul\":2106:2145   */\n      gt\n        /* \"#utility.yul\":2103:2229   */\n      iszero\n      tag_331\n      jumpi\n        /* \"#utility.yul\":2148:2227   */\n      tag_332\n      tag_245\n      jump\t// in\n    tag_332:\n        /* \"#utility.yul\":2103:2229   */\n    tag_331:\n        /* \"#utility.yul\":1987:2235   */\n      swap3\n      swap2\n      pop\n      pop\n      jump\t// out\n        /* \"#utility.yul\":2241:3205   */\n    tag_31:\n        /* \"#utility.yul\":2425:2431   */\n      0x00\n        /* \"#utility.yul\":2433:2439   */\n      0x00\n        /* \"#utility.yul\":2441:2447   */\n      0x00\n        /* \"#utility.yul\":2449:2455   */\n      0x00\n        /* \"#utility.yul\":2498:2501   */\n      0x0280\n        /* \"#utility.yul\":2486:2495   */\n      dup6\n        /* \"#utility.yul\":2477:2484   */\n      dup8\n        /* \"#utility.yul\":2473:2496   */\n      sub\n        /* \"#utility.yul\":2469:2502   */\n      slt\n        /* \"#utility.yul\":2466:2586   */\n      iszero\n      tag_334\n      jumpi\n        /* \"#utility.yul\":2505:2584   */\n      tag_335\n      tag_241\n      jump\t// in\n    tag_335:\n        /* \"#utility.yul\":2466:2586   */\n    tag_334:\n        /* \"#utility.yul\":2625:2626   */\n      0x00\n        /* \"#utility.yul\":2650:2727   */\n      tag_336\n        /* \"#utility.yul\":2719:2726   */\n      dup8\n        /* \"#utility.yul\":2710:2716   */\n      dup3\n        /* \"#utility.yul\":2699:2708   */\n      dup9\n        /* \"#utility.yul\":2695:2717   */\n      add\n        /* \"#utility.yul\":2650:2727   */\n      tag_244\n      jump\t// in\n    tag_336:\n        /* \"#utility.yul\":2640:2727   */\n      swap5\n      pop\n        /* \"#utility.yul\":2596:2737   */\n      pop\n        /* \"#utility.yul\":2776:2779   */\n      0x0100\n        /* \"#utility.yul\":2803:2881   */\n      tag_337\n        /* \"#utility.yul\":2873:2880   */\n      dup8\n        /* \"#utility.yul\":2864:2870   */\n      dup3\n        /* \"#utility.yul\":2853:2862   */\n      dup9\n        /* \"#utility.yul\":2849:2871   */\n      add\n        /* \"#utility.yul\":2803:2881   */\n      tag_246\n      jump\t// in\n    tag_337:\n        /* \"#utility.yul\":2793:2881   */\n      swap4\n      pop\n        /* \"#utility.yul\":2747:2891   */\n      pop\n        /* \"#utility.yul\":2930:2933   */\n      0x0140\n        /* \"#utility.yul\":2957:3035   */\n      tag_338\n        /* \"#utility.yul\":3027:3034   */\n      dup8\n        /* \"#utility.yul\":3018:3024   */\n      dup3\n        /* \"#utility.yul\":3007:3016   */\n      dup9\n        /* \"#utility.yul\":3003:3025   */\n      add\n        /* \"#utility.yul\":2957:3035   */\n      tag_246\n      jump\t// in\n    tag_338:\n        /* \"#utility.yul\":2947:3035   */\n      swap3\n      pop\n        /* \"#utility.yul\":2901:3045   */\n      pop\n        /* \"#utility.yul\":3084:3087   */\n      0x0180\n        /* \"#utility.yul\":3111:3188   */\n      tag_339\n        /* \"#utility.yul\":3180:3187   */\n      dup8\n        /* \"#utility.yul\":3171:3177   */\n      dup3\n        /* \"#utility.yul\":3160:3169   */\n      dup9\n        /* \"#utility.yul\":3156:3178   */\n      add\n        /* \"#utility.yul\":3111:3188   */\n      tag_247\n      jump\t// in\n    tag_339:\n        /* \"#utility.yul\":3101:3188   */\n      swap2\n      pop\n        /* \"#utility.yul\":3055:3198   */\n      pop\n        /* \"#utility.yul\":2241:3205   */\n      swap3\n      swap6\n      swap2\n      swap5\n      pop\n      swap3\n      pop\n      jump\t// out\n        /* \"#utility.yul\":3211:3288   */\n    tag_248:\n        /* \"#utility.yul\":3248:3255   */\n      0x00\n        /* \"#utility.yul\":3277:3282   */\n      dup2\n        /* \"#utility.yul\":3266:3282   */\n      swap1\n      pop\n        /* \"#utility.yul\":3211:3288   */\n      swap2\n      swap1\n      pop\n      jump\t// out\n        /* \"#utility.yul\":3294:3416   */\n    tag_249:\n        /* \"#utility.yul\":3367:3391   */\n      tag_342\n        /* \"#utility.yul\":3385:3390   */\n      dup2\n        /* \"#utility.yul\":3367:3391   */\n      tag_248\n      jump\t// in\n    tag_342:\n        /* \"#utility.yul\":3360:3365   */\n      dup2\n        /* \"#utility.yul\":3357:3392   */\n      eq\n        /* \"#utility.yul\":3347:3410   */\n      tag_343\n      jumpi\n        /* \"#utility.yul\":3406:3407   */\n      0x00\n        /* \"#utility.yul\":3403:3404   */\n      0x00\n        /* \"#utility.yul\":3396:3408   */\n      revert\n        /* \"#utility.yul\":3347:3410   */\n    tag_343:\n        /* \"#utility.yul\":3294:3416   */\n      pop\n      jump\t// out\n        /* \"#utility.yul\":3422:3561   */\n    tag_250:\n        /* \"#utility.yul\":3468:3473   */\n      0x00\n        /* \"#utility.yul\":3506:3512   */\n      dup2\n        /* \"#utility.yul\":3493:3513   */\n      calldataload\n        /* \"#utility.yul\":3484:3513   */\n      swap1\n      pop\n        /* \"#utility.yul\":3522:3555   */\n      tag_345\n        /* \"#utility.yul\":3549:3554   */\n      dup2\n        /* \"#utility.yul\":3522:3555   */\n      tag_249\n      jump\t// in\n    tag_345:\n        /* \"#utility.yul\":3422:3561   */\n      swap3\n      swap2\n      pop\n      pop\n      jump\t// out\n        /* \"#utility.yul\":3567:3896   */\n    tag_40:\n        /* \"#utility.yul\":3626:3632   */\n      0x00\n        /* \"#utility.yul\":3675:3677   */\n      0x20\n        /* \"#utility.yul\":3663:3672   */\n      dup3\n        /* \"#utility.yul\":3654:3661   */\n      dup5\n        /* \"#utility.yul\":3650:3673   */\n      sub\n        /* \"#utility.yul\":3646:3678   */\n      slt\n        /* \"#utility.yul\":3643:3762   */\n      iszero\n      tag_347\n      jumpi\n        /* \"#utility.yul\":3681:3760   */\n      tag_348\n      tag_241\n      jump\t// in\n    tag_348:\n        /* \"#utility.yul\":3643:3762   */\n    tag_347:\n        /* \"#utility.yul\":3801:3802   */\n      0x00\n        /* \"#utility.yul\":3826:3879   */\n      tag_349\n        /* \"#utility.yul\":3871:3878   */\n      dup5\n        /* \"#utility.yul\":3862:3868   */\n      dup3\n        /* \"#utility.yul\":3851:3860   */\n      dup6\n        /* \"#utility.yul\":3847:3869   */\n      add\n        /* \"#utility.yul\":3826:3879   */\n      tag_250\n      jump\t// in\n    tag_349:\n        /* \"#utility.yul\":3816:3879   */\n      swap2\n      pop\n        /* \"#utility.yul\":3772:3889   */\n      pop\n        /* \"#utility.yul\":3567:3896   */\n      swap3\n      swap2\n      pop\n      pop\n      jump\t// out\n        /* \"#utility.yul\":3902:4028   */\n    tag_251:\n        /* \"#utility.yul\":3939:3946   */\n      0x00\n        /* \"#utility.yul\":3979:4021   */\n      0xffffffffffffffffffffffffffffffffffffffff\n        /* \"#utility.yul\":3972:3977   */\n      dup3\n        /* \"#utility.yul\":3968:4022   */\n      and\n        /* \"#utility.yul\":3957:4022   */\n      swap1\n      pop\n        /* \"#utility.yul\":3902:4028   */\n      swap2\n      swap1\n      pop\n      jump\t// out\n        /* \"#utility.yul\":4034:4130   */\n    tag_252:\n        /* \"#utility.yul\":4071:4078   */\n      0x00\n        /* \"#utility.yul\":4100:4124   */\n      tag_352\n        /* \"#utility.yul\":4118:4123   */\n      dup3\n        /* \"#utility.yul\":4100:4124   */\n      tag_251\n      jump\t// in\n    tag_352:\n        /* \"#utility.yul\":4089:4124   */\n      swap1\n      pop\n        /* \"#utility.yul\":4034:4130   */\n      swap2\n      swap1\n      pop\n      jump\t// out\n        /* \"#utility.yul\":4136:4254   */\n    tag_253:\n        /* \"#utility.yul\":4223:4247   */\n      tag_354\n        /* \"#utility.yul\":4241:4246   */\n      dup2\n        /* \"#utility.yul\":4223:4247   */\n      tag_252\n      jump\t// in\n    tag_354:\n        /* \"#utility.yul\":4218:4221   */\n      dup3\n        /* \"#utility.yul\":4211:4248   */\n      mstore\n        /* \"#utility.yul\":4136:4254   */\n      pop\n      pop\n      jump\t// out\n        /* \"#utility.yul\":4260:4482   */\n    tag_52:\n        /* \"#utility.yul\":4353:4357   */\n      0x00\n        /* \"#utility.yul\":4391:4393   */\n      0x20\n        /* \"#utility.yul\":4380:4389   */\n      dup3\n        /* \"#utility.yul\":4376:4394   */\n      add\n        /* \"#utility.yul\":4368:4394   */\n      swap1\n      pop\n        /* \"#utility.yul\":4404:4475   */\n      tag_356\n        /* \"#utility.yul\":4472:4473   */\n      0x00\n        /* \"#utility.yul\":4461:4470   */\n      dup4\n        /* \"#utility.yul\":4457:4474   */\n      add\n        /* \"#utility.yul\":4448:4454   */\n      dup5\n        /* \"#utility.yul\":4404:4475   */\n      tag_253\n      jump\t// in\n    tag_356:\n        /* \"#utility.yul\":4260:4482   */\n      swap3\n      swap2\n      pop\n      pop\n      jump\t// out\n        /* \"#utility.yul\":4488:4548   */\n    tag_254:\n        /* \"#utility.yul\":4516:4519   */\n      0x00\n        /* \"#utility.yul\":4537:4542   */\n      dup2\n        /* \"#utility.yul\":4530:4542   */\n      swap1\n      pop\n        /* \"#utility.yul\":4488:4548   */\n      swap2\n      swap1\n      pop\n      jump\t// out\n        /* \"#utility.yul\":4554:4696   */\n    tag_255:\n        /* \"#utility.yul\":4604:4613   */\n      0x00\n        /* \"#utility.yul\":4637:4690   */\n      tag_359\n        /* \"#utility.yul\":4655:4689   */\n      tag_360\n        /* \"#utility.yul\":4664:4688   */\n      tag_361\n        /* \"#utility.yul\":4682:4687   */\n      dup5\n        /* \"#utility.yul\":4664:4688   */\n      tag_251\n      jump\t// in\n    tag_361:\n        /* \"#utility.yul\":4655:4689   */\n      tag_254\n      jump\t// in\n    tag_360:\n        /* \"#utility.yul\":4637:4690   */\n      tag_251\n      jump\t// in\n    tag_359:\n        /* \"#utility.yul\":4624:4690   */\n      swap1\n      pop\n        /* \"#utility.yul\":4554:4696   */\n      swap2\n      swap1\n      pop\n      jump\t// out\n        /* \"#utility.yul\":4702:4828   */\n    tag_256:\n        /* \"#utility.yul\":4752:4761   */\n      0x00\n        /* \"#utility.yul\":4785:4822   */\n      tag_363\n        /* \"#utility.yul\":4816:4821   */\n      dup3\n        /* \"#utility.yul\":4785:4822   */\n      tag_255\n      jump\t// in\n    tag_363:\n        /* \"#utility.yul\":4772:4822   */\n      swap1\n      pop\n        /* \"#utility.yul\":4702:4828   */\n      swap2\n      swap1\n      pop\n      jump\t// out\n        /* \"#utility.yul\":4834:4977   */\n    tag_257:\n        /* \"#utility.yul\":4901:4910   */\n      0x00\n        /* \"#utility.yul\":4934:4971   */\n      tag_365\n        /* \"#utility.yul\":4965:4970   */\n      dup3\n        /* \"#utility.yul\":4934:4971   */\n      tag_256\n      jump\t// in\n    tag_365:\n        /* \"#utility.yul\":4921:4971   */\n      swap1\n      pop\n        /* \"#utility.yul\":4834:4977   */\n      swap2\n      swap1\n      pop\n      jump\t// out\n        /* \"#utility.yul\":4983:5148   */\n    tag_258:\n        /* \"#utility.yul\":5087:5141   */\n      tag_367\n        /* \"#utility.yul\":5135:5140   */\n      dup2\n        /* \"#utility.yul\":5087:5141   */\n      tag_257\n      jump\t// in\n    tag_367:\n        /* \"#utility.yul\":5082:5085   */\n      dup3\n        /* \"#utility.yul\":5075:5142   */\n      mstore\n        /* \"#utility.yul\":4983:5148   */\n      pop\n      pop\n      jump\t// out\n        /* \"#utility.yul\":5154:5410   */\n    tag_56:\n        /* \"#utility.yul\":5264:5268   */\n      0x00\n        /* \"#utility.yul\":5302:5304   */\n      0x20\n        /* \"#utility.yul\":5291:5300   */\n      dup3\n        /* \"#utility.yul\":5287:5305   */\n      add\n        /* \"#utility.yul\":5279:5305   */\n      swap1\n      pop\n        /* \"#utility.yul\":5315:5403   */\n      tag_369\n        /* \"#utility.yul\":5400:5401   */\n      0x00\n        /* \"#utility.yul\":5389:5398   */\n      dup4\n        /* \"#utility.yul\":5385:5402   */\n      add\n        /* \"#utility.yul\":5376:5382   */\n      dup5\n        /* \"#utility.yul\":5315:5403   */\n      tag_258\n      jump\t// in\n    tag_369:\n        /* \"#utility.yul\":5154:5410   */\n      swap3\n      swap2\n      pop\n      pop\n      jump\t// out\n        /* \"#utility.yul\":5416:5538   */\n    tag_259:\n        /* \"#utility.yul\":5489:5513   */\n      tag_371\n        /* \"#utility.yul\":5507:5512   */\n      dup2\n        /* \"#utility.yul\":5489:5513   */\n      tag_236\n      jump\t// in\n    tag_371:\n        /* \"#utility.yul\":5482:5487   */\n      dup2\n        /* \"#utility.yul\":5479:5514   */\n      eq\n        /* \"#utility.yul\":5469:5532   */\n      tag_372\n      jumpi\n        /* \"#utility.yul\":5528:5529   */\n      0x00\n        /* \"#utility.yul\":5525:5526   */\n      0x00\n        /* \"#utility.yul\":5518:5530   */\n      revert\n        /* \"#utility.yul\":5469:5532   */\n    tag_372:\n        /* \"#utility.yul\":5416:5538   */\n      pop\n      jump\t// out\n        /* \"#utility.yul\":5544:5683   */\n    tag_260:\n        /* \"#utility.yul\":5590:5595   */\n      0x00\n        /* \"#utility.yul\":5628:5634   */\n      dup2\n        /* \"#utility.yul\":5615:5635   */\n      calldataload\n        /* \"#utility.yul\":5606:5635   */\n      swap1\n      pop\n        /* \"#utility.yul\":5644:5677   */\n      tag_374\n        /* \"#utility.yul\":5671:5676   */\n      dup2\n        /* \"#utility.yul\":5644:5677   */\n      tag_259\n      jump\t// in\n    tag_374:\n        /* \"#utility.yul\":5544:5683   */\n      swap3\n      swap2\n      pop\n      pop\n      jump\t// out\n        /* \"#utility.yul\":5689:6212   */\n    tag_62:\n        /* \"#utility.yul\":5781:5787   */\n      0x00\n        /* \"#utility.yul\":5789:5795   */\n      0x00\n        /* \"#utility.yul\":5838:5841   */\n      0x0120\n        /* \"#utility.yul\":5826:5835   */\n      dup4\n        /* \"#utility.yul\":5817:5824   */\n      dup6\n        /* \"#utility.yul\":5813:5836   */\n      sub\n        /* \"#utility.yul\":5809:5842   */\n      slt\n        /* \"#utility.yul\":5806:5926   */\n      iszero\n      tag_376\n      jumpi\n        /* \"#utility.yul\":5845:5924   */\n      tag_377\n      tag_241\n      jump\t// in\n    tag_377:\n        /* \"#utility.yul\":5806:5926   */\n    tag_376:\n        /* \"#utility.yul\":5965:5966   */\n      0x00\n        /* \"#utility.yul\":5990:6043   */\n      tag_378\n        /* \"#utility.yul\":6035:6042   */\n      dup6\n        /* \"#utility.yul\":6026:6032   */\n      dup3\n        /* \"#utility.yul\":6015:6024   */\n      dup7\n        /* \"#utility.yul\":6011:6033   */\n      add\n        /* \"#utility.yul\":5990:6043   */\n      tag_260\n      jump\t// in\n    tag_378:\n        /* \"#utility.yul\":5980:6043   */\n      swap3\n      pop\n        /* \"#utility.yul\":5936:6053   */\n      pop\n        /* \"#utility.yul\":6092:6094   */\n      0x20\n        /* \"#utility.yul\":6118:6195   */\n      tag_379\n        /* \"#utility.yul\":6187:6194   */\n      dup6\n        /* \"#utility.yul\":6178:6184   */\n      dup3\n        /* \"#utility.yul\":6167:6176   */\n      dup7\n        /* \"#utility.yul\":6163:6185   */\n      add\n        /* \"#utility.yul\":6118:6195   */\n      tag_244\n      jump\t// in\n    tag_379:\n        /* \"#utility.yul\":6108:6195   */\n      swap2\n      pop\n        /* \"#utility.yul\":6063:6205   */\n      pop\n        /* \"#utility.yul\":5689:6212   */\n      swap3\n      pop\n      swap3\n      swap1\n      pop\n      jump\t// out\n        /* \"#utility.yul\":6218:6398   */\n    tag_69:\n        /* \"#utility.yul\":6266:6343   */\n      0x4e487b7100000000000000000000000000000000000000000000000000000000\n        /* \"#utility.yul\":6263:6264   */\n      0x00\n        /* \"#utility.yul\":6256:6344   */\n      mstore\n        /* \"#utility.yul\":6363:6367   */\n      0x32\n        /* \"#utility.yul\":6360:6361   */\n      0x04\n        /* \"#utility.yul\":6353:6368   */\n      mstore\n        /* \"#utility.yul\":6387:6391   */\n      0x24\n        /* \"#utility.yul\":6384:6385   */\n      0x00\n        /* \"#utility.yul\":6377:6392   */\n      revert\n        /* \"#utility.yul\":6404:6497   */\n    tag_261:\n        /* \"#utility.yul\":6440:6447   */\n      0x00\n        /* \"#utility.yul\":6480:6490   */\n      0xffffffff\n        /* \"#utility.yul\":6473:6478   */\n      dup3\n        /* \"#utility.yul\":6469:6491   */\n      and\n        /* \"#utility.yul\":6458:6491   */\n      swap1\n      pop\n        /* \"#utility.yul\":6404:6497   */\n      swap2\n      swap1\n      pop\n      jump\t// out\n        /* \"#utility.yul\":6503:6623   */\n    tag_262:\n        /* \"#utility.yul\":6575:6598   */\n      tag_383\n        /* \"#utility.yul\":6592:6597   */\n      dup2\n        /* \"#utility.yul\":6575:6598   */\n      tag_261\n      jump\t// in\n    tag_383:\n        /* \"#utility.yul\":6568:6573   */\n      dup2\n        /* \"#utility.yul\":6565:6599   */\n      eq\n        /* \"#utility.yul\":6555:6617   */\n      tag_384\n      jumpi\n        /* \"#utility.yul\":6613:6614   */\n      0x00\n        /* \"#utility.yul\":6610:6611   */\n      0x00\n        /* \"#utility.yul\":6603:6615   */\n      revert\n        /* \"#utility.yul\":6555:6617   */\n    tag_384:\n        /* \"#utility.yul\":6503:6623   */\n      pop\n      jump\t// out\n        /* \"#utility.yul\":6629:6766   */\n    tag_263:\n        /* \"#utility.yul\":6674:6679   */\n      0x00\n        /* \"#utility.yul\":6712:6718   */\n      dup2\n        /* \"#utility.yul\":6699:6719   */\n      calldataload\n        /* \"#utility.yul\":6690:6719   */\n      swap1\n      pop\n        /* \"#utility.yul\":6728:6760   */\n      tag_386\n        /* \"#utility.yul\":6754:6759   */\n      dup2\n        /* \"#utility.yul\":6728:6760   */\n      tag_262\n      jump\t// in\n    tag_386:\n        /* \"#utility.yul\":6629:6766   */\n      swap3\n      swap2\n      pop\n      pop\n      jump\t// out\n        /* \"#utility.yul\":6772:7099   */\n    tag_87:\n        /* \"#utility.yul\":6830:6836   */\n      0x00\n        /* \"#utility.yul\":6879:6881   */\n      0x20\n        /* \"#utility.yul\":6867:6876   */\n      dup3\n        /* \"#utility.yul\":6858:6865   */\n      dup5\n        /* \"#utility.yul\":6854:6877   */\n      sub\n        /* \"#utility.yul\":6850:6882   */\n      slt\n        /* \"#utility.yul\":6847:6966   */\n      iszero\n      tag_388\n      jumpi\n        /* \"#utility.yul\":6885:6964   */\n      tag_389\n      tag_241\n      jump\t// in\n    tag_389:\n        /* \"#utility.yul\":6847:6966   */\n    tag_388:\n        /* \"#utility.yul\":7005:7006   */\n      0x00\n        /* \"#utility.yul\":7030:7082   */\n      tag_390\n        /* \"#utility.yul\":7074:7081   */\n      dup5\n        /* \"#utility.yul\":7065:7071   */\n      dup3\n        /* \"#utility.yul\":7054:7063   */\n      dup6\n        /* \"#utility.yul\":7050:7072   */\n      add\n        /* \"#utility.yul\":7030:7082   */\n      tag_263\n      jump\t// in\n    tag_390:\n        /* \"#utility.yul\":7020:7082   */\n      swap2\n      pop\n        /* \"#utility.yul\":6976:7092   */\n      pop\n        /* \"#utility.yul\":6772:7099   */\n      swap3\n      swap2\n      pop\n      pop\n      jump\t// out\n        /* \"#utility.yul\":7105:7274   */\n    tag_264:\n        /* \"#utility.yul\":7189:7200   */\n      0x00\n        /* \"#utility.yul\":7223:7229   */\n      dup3\n        /* \"#utility.yul\":7218:7221   */\n      dup3\n        /* \"#utility.yul\":7211:7230   */\n      mstore\n        /* \"#utility.yul\":7263:7267   */\n      0x20\n        /* \"#utility.yul\":7258:7261   */\n      dup3\n        /* \"#utility.yul\":7254:7268   */\n      add\n        /* \"#utility.yul\":7239:7268   */\n      swap1\n      pop\n        /* \"#utility.yul\":7105:7274   */\n      swap3\n      swap2\n      pop\n      pop\n      jump\t// out\n        /* \"#utility.yul\":7280:7445   */\n    tag_265:\n        /* \"#utility.yul\":7420:7437   */\n      0x456c656374696f6e20636c6f7365640000000000000000000000000000000000\n        /* \"#utility.yul\":7416:7417   */\n      0x00\n        /* \"#utility.yul\":7408:7414   */\n      dup3\n        /* \"#utility.yul\":7404:7418   */\n      add\n        /* \"#utility.yul\":7397:7438   */\n      mstore\n        /* \"#utility.yul\":7280:7445   */\n      pop\n      jump\t// out\n        /* \"#utility.yul\":7451:7817   */\n    tag_266:\n        /* \"#utility.yul\":7593:7596   */\n      0x00\n        /* \"#utility.yul\":7614:7681   */\n      tag_394\n        /* \"#utility.yul\":7678:7680   */\n      0x0f\n        /* \"#utility.yul\":7673:7676   */\n      dup4\n        /* \"#utility.yul\":7614:7681   */\n      tag_264\n      jump\t// in\n    tag_394:\n        /* \"#utility.yul\":7607:7681   */\n      swap2\n      pop\n        /* \"#utility.yul\":7690:7783   */\n      tag_395\n        /* \"#utility.yul\":7779:7782   */\n      dup3\n        /* \"#utility.yul\":7690:7783   */\n      tag_265\n      jump\t// in\n    tag_395:\n        /* \"#utility.yul\":7808:7810   */\n      0x20\n        /* \"#utility.yul\":7803:7806   */\n      dup3\n        /* \"#utility.yul\":7799:7811   */\n      add\n        /* \"#utility.yul\":7792:7811   */\n      swap1\n      pop\n        /* \"#utility.yul\":7451:7817   */\n      swap2\n      swap1\n      pop\n      jump\t// out\n        /* \"#utility.yul\":7823:8242   */\n    tag_127:\n        /* \"#utility.yul\":7989:7993   */\n      0x00\n        /* \"#utility.yul\":8027:8029   */\n      0x20\n        /* \"#utility.yul\":8016:8025   */\n      dup3\n        /* \"#utility.yul\":8012:8030   */\n      add\n        /* \"#utility.yul\":8004:8030   */\n      swap1\n      pop\n        /* \"#utility.yul\":8076:8085   */\n      dup2\n        /* \"#utility.yul\":8070:8074   */\n      dup2\n        /* \"#utility.yul\":8066:8086   */\n      sub\n        /* \"#utility.yul\":8062:8063   */\n      0x00\n        /* \"#utility.yul\":8051:8060   */\n      dup4\n        /* \"#utility.yul\":8047:8064   */\n      add\n        /* \"#utility.yul\":8040:8087   */\n      mstore\n        /* \"#utility.yul\":8104:8235   */\n      tag_397\n        /* \"#utility.yul\":8230:8234   */\n      dup2\n        /* \"#utility.yul\":8104:8235   */\n      tag_266\n      jump\t// in\n    tag_397:\n        /* \"#utility.yul\":8096:8235   */\n      swap1\n      pop\n        /* \"#utility.yul\":7823:8242   */\n      swap2\n      swap1\n      pop\n      jump\t// out\n        /* \"#utility.yul\":8248:8353   */\n    tag_267:\n        /* \"#utility.yul\":8314:8320   */\n      0x00\n        /* \"#utility.yul\":8342:8346   */\n      0x08\n        /* \"#utility.yul\":8332:8346   */\n      swap1\n      pop\n        /* \"#utility.yul\":8248:8353   */\n      swap2\n      swap1\n      pop\n      jump\t// out\n        /* \"#utility.yul\":8359:8519   */\n    tag_268:\n        /* \"#utility.yul\":8473:8484   */\n      0x00\n        /* \"#utility.yul\":8510:8513   */\n      dup2\n        /* \"#utility.yul\":8495:8513   */\n      swap1\n      pop\n        /* \"#utility.yul\":8359:8519   */\n      swap3\n      swap2\n      pop\n      pop\n      jump\t// out\n        /* \"#utility.yul\":8525:8624   */\n    tag_269:\n        /* \"#utility.yul\":8591:8595   */\n      0x00\n        /* \"#utility.yul\":8614:8617   */\n      dup2\n        /* \"#utility.yul\":8606:8617   */\n      swap1\n      pop\n        /* \"#utility.yul\":8525:8624   */\n      swap2\n      swap1\n      pop\n      jump\t// out\n        /* \"#utility.yul\":8630:8743   */\n    tag_270:\n        /* \"#utility.yul\":8713:8736   */\n      tag_402\n        /* \"#utility.yul\":8730:8735   */\n      dup2\n        /* \"#utility.yul\":8713:8736   */\n      tag_261\n      jump\t// in\n    tag_402:\n        /* \"#utility.yul\":8708:8711   */\n      dup3\n        /* \"#utility.yul\":8701:8737   */\n      mstore\n        /* \"#utility.yul\":8630:8743   */\n      pop\n      pop\n      jump\t// out\n        /* \"#utility.yul\":8749:8940   */\n    tag_271:\n        /* \"#utility.yul\":8824:8834   */\n      0x00\n        /* \"#utility.yul\":8845:8897   */\n      tag_404\n        /* \"#utility.yul\":8893:8896   */\n      dup4\n        /* \"#utility.yul\":8885:8891   */\n      dup4\n        /* \"#utility.yul\":8845:8897   */\n      tag_270\n      jump\t// in\n    tag_404:\n        /* \"#utility.yul\":8929:8933   */\n      0x20\n        /* \"#utility.yul\":8924:8927   */\n      dup4\n        /* \"#utility.yul\":8920:8934   */\n      add\n        /* \"#utility.yul\":8906:8934   */\n      swap1\n      pop\n        /* \"#utility.yul\":8749:8940   */\n      swap3\n      swap2\n      pop\n      pop\n      jump\t// out\n        /* \"#utility.yul\":8946:9066   */\n    tag_272:\n        /* \"#utility.yul\":8997:9002   */\n      0x00\n        /* \"#utility.yul\":9022:9060   */\n      tag_406\n        /* \"#utility.yul\":9056:9058   */\n      0x20\n        /* \"#utility.yul\":9051:9054   */\n      dup5\n        /* \"#utility.yul\":9047:9059   */\n      add\n        /* \"#utility.yul\":9042:9045   */\n      dup5\n        /* \"#utility.yul\":9022:9060   */\n      tag_263\n      jump\t// in\n    tag_406:\n        /* \"#utility.yul\":9013:9060   */\n      swap1\n      pop\n        /* \"#utility.yul\":8946:9066   */\n      swap3\n      swap2\n      pop\n      pop\n      jump\t// out\n        /* \"#utility.yul\":9072:9184   */\n    tag_273:\n        /* \"#utility.yul\":9141:9145   */\n      0x00\n        /* \"#utility.yul\":9173:9177   */\n      0x20\n        /* \"#utility.yul\":9168:9171   */\n      dup3\n        /* \"#utility.yul\":9164:9178   */\n      add\n        /* \"#utility.yul\":9156:9178   */\n      swap1\n      pop\n        /* \"#utility.yul\":9072:9184   */\n      swap2\n      swap1\n      pop\n      jump\t// out\n        /* \"#utility.yul\":9220:9986   */\n    tag_274:\n        /* \"#utility.yul\":9374:9427   */\n      tag_409\n        /* \"#utility.yul\":9421:9426   */\n      dup2\n        /* \"#utility.yul\":9374:9427   */\n      tag_267\n      jump\t// in\n    tag_409:\n        /* \"#utility.yul\":9443:9544   */\n      tag_410\n        /* \"#utility.yul\":9537:9543   */\n      dup2\n        /* \"#utility.yul\":9532:9535   */\n      dup5\n        /* \"#utility.yul\":9443:9544   */\n      tag_268\n      jump\t// in\n    tag_410:\n        /* \"#utility.yul\":9436:9544   */\n      swap3\n      pop\n        /* \"#utility.yul\":9568:9623   */\n      tag_411\n        /* \"#utility.yul\":9617:9622   */\n      dup3\n        /* \"#utility.yul\":9568:9623   */\n      tag_269\n      jump\t// in\n    tag_411:\n        /* \"#utility.yul\":9646:9653   */\n      dup1\n        /* \"#utility.yul\":9677:9678   */\n      0x00\n        /* \"#utility.yul\":9662:9979   */\n    tag_412:\n        /* \"#utility.yul\":9687:9693   */\n      dup4\n        /* \"#utility.yul\":9684:9685   */\n      dup2\n        /* \"#utility.yul\":9681:9694   */\n      lt\n        /* \"#utility.yul\":9662:9979   */\n      iszero\n      tag_414\n      jumpi\n        /* \"#utility.yul\":9757:9798   */\n      tag_415\n        /* \"#utility.yul\":9791:9797   */\n      dup3\n        /* \"#utility.yul\":9782:9789   */\n      dup5\n        /* \"#utility.yul\":9757:9798   */\n      tag_272\n      jump\t// in\n    tag_415:\n        /* \"#utility.yul\":9818:9887   */\n      tag_416\n        /* \"#utility.yul\":9883:9886   */\n      dup8\n        /* \"#utility.yul\":9868:9881   */\n      dup3\n        /* \"#utility.yul\":9818:9887   */\n      tag_271\n      jump\t// in\n    tag_416:\n        /* \"#utility.yul\":9811:9887   */\n      swap7\n      pop\n        /* \"#utility.yul\":9910:9969   */\n      tag_417\n        /* \"#utility.yul\":9962:9968   */\n      dup4\n        /* \"#utility.yul\":9910:9969   */\n      tag_273\n      jump\t// in\n    tag_417:\n        /* \"#utility.yul\":9900:9969   */\n      swap3\n      pop\n        /* \"#utility.yul\":9722:9979   */\n      pop\n        /* \"#utility.yul\":9709:9710   */\n      0x01\n        /* \"#utility.yul\":9706:9707   */\n      dup2\n        /* \"#utility.yul\":9702:9711   */\n      add\n        /* \"#utility.yul\":9697:9711   */\n      swap1\n      pop\n        /* \"#utility.yul\":9662:9979   */\n      jump(tag_412)\n    tag_414:\n        /* \"#utility.yul\":9666:9680   */\n      pop\n        /* \"#utility.yul\":9350:9986   */\n      pop\n      pop\n      pop\n        /* \"#utility.yul\":9220:9986   */\n      pop\n      pop\n      jump\t// out\n        /* \"#utility.yul\":9992:10341   */\n    tag_129:\n        /* \"#utility.yul\":10150:10153   */\n      0x00\n        /* \"#utility.yul\":10165:10286   */\n      tag_419\n        /* \"#utility.yul\":10282:10285   */\n      dup3\n        /* \"#utility.yul\":10273:10279   */\n      dup5\n        /* \"#utility.yul\":10165:10286   */\n      tag_274\n      jump\t// in\n    tag_419:\n        /* \"#utility.yul\":10311:10314   */\n      0x0100\n        /* \"#utility.yul\":10306:10309   */\n      dup3\n        /* \"#utility.yul\":10302:10315   */\n      add\n        /* \"#utility.yul\":10295:10315   */\n      swap2\n      pop\n        /* \"#utility.yul\":10332:10335   */\n      dup2\n        /* \"#utility.yul\":10325:10335   */\n      swap1\n      pop\n        /* \"#utility.yul\":9992:10341   */\n      swap3\n      swap2\n      pop\n      pop\n      jump\t// out\n        /* \"#utility.yul\":10347:10519   */\n    tag_275:\n        /* \"#utility.yul\":10487:10511   */\n      0x4e756c6c696669657220616c7265616479207573656400000000000000000000\n        /* \"#utility.yul\":10483:10484   */\n      0x00\n        /* \"#utility.yul\":10475:10481   */\n      dup3\n        /* \"#utility.yul\":10471:10485   */\n      add\n        /* \"#utility.yul\":10464:10512   */\n      mstore\n        /* \"#utility.yul\":10347:10519   */\n      pop\n      jump\t// out\n        /* \"#utility.yul\":10525:10891   */\n    tag_276:\n        /* \"#utility.yul\":10667:10670   */\n      0x00\n        /* \"#utility.yul\":10688:10755   */\n      tag_422\n        /* \"#utility.yul\":10752:10754   */\n      0x16\n        /* \"#utility.yul\":10747:10750   */\n      dup4\n        /* \"#utility.yul\":10688:10755   */\n      tag_264\n      jump\t// in\n    tag_422:\n        /* \"#utility.yul\":10681:10755   */\n      swap2\n      pop\n        /* \"#utility.yul\":10764:10857   */\n      tag_423\n        /* \"#utility.yul\":10853:10856   */\n      dup3\n        /* \"#utility.yul\":10764:10857   */\n      tag_275\n      jump\t// in\n    tag_423:\n        /* \"#utility.yul\":10882:10884   */\n      0x20\n        /* \"#utility.yul\":10877:10880   */\n      dup3\n        /* \"#utility.yul\":10873:10885   */\n      add\n        /* \"#utility.yul\":10866:10885   */\n      swap1\n      pop\n        /* \"#utility.yul\":10525:10891   */\n      swap2\n      swap1\n      pop\n      jump\t// out\n        /* \"#utility.yul\":10897:11316   */\n    tag_132:\n        /* \"#utility.yul\":11063:11067   */\n      0x00\n        /* \"#utility.yul\":11101:11103   */\n      0x20\n        /* \"#utility.yul\":11090:11099   */\n      dup3\n        /* \"#utility.yul\":11086:11104   */\n      add\n        /* \"#utility.yul\":11078:11104   */\n      swap1\n      pop\n        /* \"#utility.yul\":11150:11159   */\n      dup2\n        /* \"#utility.yul\":11144:11148   */\n      dup2\n        /* \"#utility.yul\":11140:11160   */\n      sub\n        /* \"#utility.yul\":11136:11137   */\n      0x00\n        /* \"#utility.yul\":11125:11134   */\n      dup4\n        /* \"#utility.yul\":11121:11138   */\n      add\n        /* \"#utility.yul\":11114:11161   */\n      mstore\n        /* \"#utility.yul\":11178:11309   */\n      tag_425\n        /* \"#utility.yul\":11304:11308   */\n      dup2\n        /* \"#utility.yul\":11178:11309   */\n      tag_276\n      jump\t// in\n    tag_425:\n        /* \"#utility.yul\":11170:11309   */\n      swap1\n      pop\n        /* \"#utility.yul\":10897:11316   */\n      swap2\n      swap1\n      pop\n      jump\t// out\n        /* \"#utility.yul\":11322:11434   */\n    tag_277:\n        /* \"#utility.yul\":11400:11405   */\n      0x00\n        /* \"#utility.yul\":11425:11428   */\n      dup3\n        /* \"#utility.yul\":11416:11428   */\n      swap1\n      pop\n        /* \"#utility.yul\":11322:11434   */\n      swap3\n      swap2\n      pop\n      pop\n      jump\t// out\n        /* \"#utility.yul\":11440:11562   */\n    tag_278:\n        /* \"#utility.yul\":11492:11497   */\n      0x00\n        /* \"#utility.yul\":11517:11556   */\n      tag_428\n        /* \"#utility.yul\":11552:11554   */\n      0x20\n        /* \"#utility.yul\":11547:11550   */\n      dup5\n        /* \"#utility.yul\":11543:11555   */\n      add\n        /* \"#utility.yul\":11538:11541   */\n      dup5\n        /* \"#utility.yul\":11517:11556   */\n      tag_260\n      jump\t// in\n    tag_428:\n        /* \"#utility.yul\":11508:11556   */\n      swap1\n      pop\n        /* \"#utility.yul\":11440:11562   */\n      swap3\n      swap2\n      pop\n      pop\n      jump\t// out\n        /* \"#utility.yul\":11568:11676   */\n    tag_279:\n        /* \"#utility.yul\":11645:11669   */\n      tag_430\n        /* \"#utility.yul\":11663:11668   */\n      dup2\n        /* \"#utility.yul\":11645:11669   */\n      tag_236\n      jump\t// in\n    tag_430:\n        /* \"#utility.yul\":11640:11643   */\n      dup3\n        /* \"#utility.yul\":11633:11670   */\n      mstore\n        /* \"#utility.yul\":11568:11676   */\n      pop\n      pop\n      jump\t// out\n        /* \"#utility.yul\":11722:12267   */\n    tag_280:\n        /* \"#utility.yul\":11859:11863   */\n      0x40\n        /* \"#utility.yul\":11854:11857   */\n      dup3\n        /* \"#utility.yul\":11850:11864   */\n      add\n        /* \"#utility.yul\":11926:11976   */\n      tag_432\n        /* \"#utility.yul\":11970:11974   */\n      0x00\n        /* \"#utility.yul\":11963:11968   */\n      dup4\n        /* \"#utility.yul\":11959:11975   */\n      add\n        /* \"#utility.yul\":11952:11957   */\n      dup4\n        /* \"#utility.yul\":11926:11976   */\n      tag_278\n      jump\t// in\n    tag_432:\n        /* \"#utility.yul\":11989:12052   */\n      tag_433\n        /* \"#utility.yul\":12046:12050   */\n      0x00\n        /* \"#utility.yul\":12041:12044   */\n      dup6\n        /* \"#utility.yul\":12037:12051   */\n      add\n        /* \"#utility.yul\":12023:12035   */\n      dup3\n        /* \"#utility.yul\":11989:12052   */\n      tag_279\n      jump\t// in\n    tag_433:\n        /* \"#utility.yul\":11874:12062   */\n      pop\n        /* \"#utility.yul\":12124:12174   */\n      tag_434\n        /* \"#utility.yul\":12168:12172   */\n      0x20\n        /* \"#utility.yul\":12161:12166   */\n      dup4\n        /* \"#utility.yul\":12157:12173   */\n      add\n        /* \"#utility.yul\":12150:12155   */\n      dup4\n        /* \"#utility.yul\":12124:12174   */\n      tag_278\n      jump\t// in\n    tag_434:\n        /* \"#utility.yul\":12187:12250   */\n      tag_435\n        /* \"#utility.yul\":12244:12248   */\n      0x20\n        /* \"#utility.yul\":12239:12242   */\n      dup6\n        /* \"#utility.yul\":12235:12249   */\n      add\n        /* \"#utility.yul\":12221:12233   */\n      dup3\n        /* \"#utility.yul\":12187:12250   */\n      tag_279\n      jump\t// in\n    tag_435:\n        /* \"#utility.yul\":12072:12260   */\n      pop\n        /* \"#utility.yul\":11828:12267   */\n      pop\n        /* \"#utility.yul\":11722:12267   */\n      pop\n      pop\n      jump\t// out\n        /* \"#utility.yul\":12273:12385   */\n    tag_281:\n        /* \"#utility.yul\":12351:12356   */\n      0x00\n        /* \"#utility.yul\":12376:12379   */\n      dup3\n        /* \"#utility.yul\":12367:12379   */\n      swap1\n      pop\n        /* \"#utility.yul\":12273:12385   */\n      swap3\n      swap2\n      pop\n      pop\n      jump\t// out\n        /* \"#utility.yul\":12391:12502   */\n    tag_282:\n        /* \"#utility.yul\":12468:12473   */\n      0x00\n        /* \"#utility.yul\":12493:12496   */\n      dup3\n        /* \"#utility.yul\":12484:12496   */\n      swap1\n      pop\n        /* \"#utility.yul\":12391:12502   */\n      swap3\n      swap2\n      pop\n      pop\n      jump\t// out\n        /* \"#utility.yul\":12508:12607   */\n    tag_283:\n        /* \"#utility.yul\":12593:12599   */\n      dup3\n        /* \"#utility.yul\":12588:12591   */\n      dup2\n        /* \"#utility.yul\":12583:12586   */\n      dup4\n        /* \"#utility.yul\":12570:12600   */\n      calldatacopy\n        /* \"#utility.yul\":12508:12607   */\n      pop\n      pop\n      pop\n      jump\t// out\n        /* \"#utility.yul\":12645:12805   */\n    tag_284:\n        /* \"#utility.yul\":12758:12799   */\n      tag_440\n        /* \"#utility.yul\":12794:12798   */\n      0x40\n        /* \"#utility.yul\":12789:12792   */\n      dup4\n        /* \"#utility.yul\":12782:12787   */\n      dup4\n        /* \"#utility.yul\":12758:12799   */\n      tag_283\n      jump\t// in\n    tag_440:\n        /* \"#utility.yul\":12645:12805   */\n      pop\n      pop\n      jump\t// out\n        /* \"#utility.yul\":12851:13542   */\n    tag_285:\n        /* \"#utility.yul\":12988:12992   */\n      0x80\n        /* \"#utility.yul\":12983:12986   */\n      dup3\n        /* \"#utility.yul\":12979:12993   */\n      add\n        /* \"#utility.yul\":13055:13130   */\n      tag_442\n        /* \"#utility.yul\":13124:13128   */\n      0x00\n        /* \"#utility.yul\":13117:13122   */\n      dup4\n        /* \"#utility.yul\":13113:13129   */\n      add\n        /* \"#utility.yul\":13106:13111   */\n      dup4\n        /* \"#utility.yul\":13055:13130   */\n      tag_282\n      jump\t// in\n    tag_442:\n        /* \"#utility.yul\":13143:13254   */\n      tag_443\n        /* \"#utility.yul\":13248:13252   */\n      0x00\n        /* \"#utility.yul\":13243:13246   */\n      dup6\n        /* \"#utility.yul\":13239:13253   */\n      add\n        /* \"#utility.yul\":13225:13237   */\n      dup3\n        /* \"#utility.yul\":13143:13254   */\n      tag_284\n      jump\t// in\n    tag_443:\n        /* \"#utility.yul\":13003:13264   */\n      pop\n        /* \"#utility.yul\":13326:13401   */\n      tag_444\n        /* \"#utility.yul\":13395:13399   */\n      0x40\n        /* \"#utility.yul\":13388:13393   */\n      dup4\n        /* \"#utility.yul\":13384:13400   */\n      add\n        /* \"#utility.yul\":13377:13382   */\n      dup4\n        /* \"#utility.yul\":13326:13401   */\n      tag_282\n      jump\t// in\n    tag_444:\n        /* \"#utility.yul\":13414:13525   */\n      tag_445\n        /* \"#utility.yul\":13519:13523   */\n      0x40\n        /* \"#utility.yul\":13514:13517   */\n      dup6\n        /* \"#utility.yul\":13510:13524   */\n      add\n        /* \"#utility.yul\":13496:13508   */\n      dup3\n        /* \"#utility.yul\":13414:13525   */\n      tag_284\n      jump\t// in\n    tag_445:\n        /* \"#utility.yul\":13274:13535   */\n      pop\n        /* \"#utility.yul\":12957:13542   */\n      pop\n        /* \"#utility.yul\":12851:13542   */\n      pop\n      pop\n      jump\t// out\n        /* \"#utility.yul\":13584:14563   */\n    tag_286:\n        /* \"#utility.yul\":13727:13733   */\n      0x0100\n        /* \"#utility.yul\":13722:13725   */\n      dup3\n        /* \"#utility.yul\":13718:13734   */\n      add\n        /* \"#utility.yul\":13796:13872   */\n      tag_447\n        /* \"#utility.yul\":13866:13870   */\n      0x00\n        /* \"#utility.yul\":13859:13864   */\n      dup4\n        /* \"#utility.yul\":13855:13871   */\n      add\n        /* \"#utility.yul\":13848:13853   */\n      dup4\n        /* \"#utility.yul\":13796:13872   */\n      tag_277\n      jump\t// in\n    tag_447:\n        /* \"#utility.yul\":13885:13998   */\n      tag_448\n        /* \"#utility.yul\":13992:13996   */\n      0x00\n        /* \"#utility.yul\":13987:13990   */\n      dup6\n        /* \"#utility.yul\":13983:13997   */\n      add\n        /* \"#utility.yul\":13969:13981   */\n      dup3\n        /* \"#utility.yul\":13885:13998   */\n      tag_280\n      jump\t// in\n    tag_448:\n        /* \"#utility.yul\":13744:14008   */\n      pop\n        /* \"#utility.yul\":14070:14146   */\n      tag_449\n        /* \"#utility.yul\":14140:14144   */\n      0x40\n        /* \"#utility.yul\":14133:14138   */\n      dup4\n        /* \"#utility.yul\":14129:14145   */\n      add\n        /* \"#utility.yul\":14122:14127   */\n      dup4\n        /* \"#utility.yul\":14070:14146   */\n      tag_281\n      jump\t// in\n    tag_449:\n        /* \"#utility.yul\":14159:14272   */\n      tag_450\n        /* \"#utility.yul\":14266:14270   */\n      0x40\n        /* \"#utility.yul\":14261:14264   */\n      dup6\n        /* \"#utility.yul\":14257:14271   */\n      add\n        /* \"#utility.yul\":14243:14255   */\n      dup3\n        /* \"#utility.yul\":14159:14272   */\n      tag_285\n      jump\t// in\n    tag_450:\n        /* \"#utility.yul\":14018:14282   */\n      pop\n        /* \"#utility.yul\":14344:14420   */\n      tag_451\n        /* \"#utility.yul\":14414:14418   */\n      0xc0\n        /* \"#utility.yul\":14407:14412   */\n      dup4\n        /* \"#utility.yul\":14403:14419   */\n      add\n        /* \"#utility.yul\":14396:14401   */\n      dup4\n        /* \"#utility.yul\":14344:14420   */\n      tag_277\n      jump\t// in\n    tag_451:\n        /* \"#utility.yul\":14433:14546   */\n      tag_452\n        /* \"#utility.yul\":14540:14544   */\n      0xc0\n        /* \"#utility.yul\":14535:14538   */\n      dup6\n        /* \"#utility.yul\":14531:14545   */\n      add\n        /* \"#utility.yul\":14517:14529   */\n      dup3\n        /* \"#utility.yul\":14433:14546   */\n      tag_280\n      jump\t// in\n    tag_452:\n        /* \"#utility.yul\":14292:14556   */\n      pop\n        /* \"#utility.yul\":13696:14563   */\n      pop\n        /* \"#utility.yul\":13584:14563   */\n      pop\n      pop\n      jump\t// out\n        /* \"#utility.yul\":14569:14674   */\n    tag_287:\n        /* \"#utility.yul\":14635:14641   */\n      0x00\n        /* \"#utility.yul\":14663:14667   */\n      0x0c\n        /* \"#utility.yul\":14653:14667   */\n      swap1\n      pop\n        /* \"#utility.yul\":14569:14674   */\n      swap2\n      swap1\n      pop\n      jump\t// out\n        /* \"#utility.yul\":14680:14824   */\n    tag_288:\n        /* \"#utility.yul\":14778:14789   */\n      0x00\n        /* \"#utility.yul\":14815:14818   */\n      dup2\n        /* \"#utility.yul\":14800:14818   */\n      swap1\n      pop\n        /* \"#utility.yul\":14680:14824   */\n      swap3\n      swap2\n      pop\n      pop\n      jump\t// out\n        /* \"#utility.yul\":14830:14929   */\n    tag_289:\n        /* \"#utility.yul\":14896:14900   */\n      0x00\n        /* \"#utility.yul\":14919:14922   */\n      dup2\n        /* \"#utility.yul\":14911:14922   */\n      swap1\n      pop\n        /* \"#utility.yul\":14830:14929   */\n      swap2\n      swap1\n      pop\n      jump\t// out\n        /* \"#utility.yul\":14935:15114   */\n    tag_290:\n        /* \"#utility.yul\":15004:15014   */\n      0x00\n        /* \"#utility.yul\":15025:15071   */\n      tag_457\n        /* \"#utility.yul\":15067:15070   */\n      dup4\n        /* \"#utility.yul\":15059:15065   */\n      dup4\n        /* \"#utility.yul\":15025:15071   */\n      tag_279\n      jump\t// in\n    tag_457:\n        /* \"#utility.yul\":15103:15107   */\n      0x20\n        /* \"#utility.yul\":15098:15101   */\n      dup4\n        /* \"#utility.yul\":15094:15108   */\n      add\n        /* \"#utility.yul\":15080:15108   */\n      swap1\n      pop\n        /* \"#utility.yul\":14935:15114   */\n      swap3\n      swap2\n      pop\n      pop\n      jump\t// out\n        /* \"#utility.yul\":15120:15232   */\n    tag_291:\n        /* \"#utility.yul\":15189:15193   */\n      0x00\n        /* \"#utility.yul\":15221:15225   */\n      0x20\n        /* \"#utility.yul\":15216:15219   */\n      dup3\n        /* \"#utility.yul\":15212:15226   */\n      add\n        /* \"#utility.yul\":15204:15226   */\n      swap1\n      pop\n        /* \"#utility.yul\":15120:15232   */\n      swap2\n      swap1\n      pop\n      jump\t// out\n        /* \"#utility.yul\":15272:15972   */\n    tag_292:\n        /* \"#utility.yul\":15410:15463   */\n      tag_460\n        /* \"#utility.yul\":15457:15462   */\n      dup2\n        /* \"#utility.yul\":15410:15463   */\n      tag_287\n      jump\t// in\n    tag_460:\n        /* \"#utility.yul\":15479:15564   */\n      tag_461\n        /* \"#utility.yul\":15557:15563   */\n      dup2\n        /* \"#utility.yul\":15552:15555   */\n      dup5\n        /* \"#utility.yul\":15479:15564   */\n      tag_288\n      jump\t// in\n    tag_461:\n        /* \"#utility.yul\":15472:15564   */\n      swap3\n      pop\n        /* \"#utility.yul\":15588:15643   */\n      tag_462\n        /* \"#utility.yul\":15637:15642   */\n      dup3\n        /* \"#utility.yul\":15588:15643   */\n      tag_289\n      jump\t// in\n    tag_462:\n        /* \"#utility.yul\":15666:15673   */\n      dup1\n        /* \"#utility.yul\":15697:15698   */\n      0x00\n        /* \"#utility.yul\":15682:15965   */\n    tag_463:\n        /* \"#utility.yul\":15707:15713   */\n      dup4\n        /* \"#utility.yul\":15704:15705   */\n      dup2\n        /* \"#utility.yul\":15701:15714   */\n      lt\n        /* \"#utility.yul\":15682:15965   */\n      iszero\n      tag_465\n      jumpi\n        /* \"#utility.yul\":15783:15789   */\n      dup2\n        /* \"#utility.yul\":15777:15790   */\n      mload\n        /* \"#utility.yul\":15810:15873   */\n      tag_466\n        /* \"#utility.yul\":15869:15872   */\n      dup8\n        /* \"#utility.yul\":15854:15867   */\n      dup3\n        /* \"#utility.yul\":15810:15873   */\n      tag_290\n      jump\t// in\n    tag_466:\n        /* \"#utility.yul\":15803:15873   */\n      swap7\n      pop\n        /* \"#utility.yul\":15896:15955   */\n      tag_467\n        /* \"#utility.yul\":15948:15954   */\n      dup4\n        /* \"#utility.yul\":15896:15955   */\n      tag_291\n      jump\t// in\n    tag_467:\n        /* \"#utility.yul\":15886:15955   */\n      swap3\n      pop\n        /* \"#utility.yul\":15742:15965   */\n      pop\n        /* \"#utility.yul\":15729:15730   */\n      0x01\n        /* \"#utility.yul\":15726:15727   */\n      dup2\n        /* \"#utility.yul\":15722:15731   */\n      add\n        /* \"#utility.yul\":15717:15731   */\n      swap1\n      pop\n        /* \"#utility.yul\":15682:15965   */\n      jump(tag_463)\n    tag_465:\n        /* \"#utility.yul\":15686:15700   */\n      pop\n        /* \"#utility.yul\":15386:15972   */\n      pop\n      pop\n      pop\n        /* \"#utility.yul\":15272:15972   */\n      pop\n      pop\n      jump\t// out\n        /* \"#utility.yul\":15978:16500   */\n    tag_134:\n        /* \"#utility.yul\":16193:16197   */\n      0x00\n        /* \"#utility.yul\":16231:16234   */\n      0x0280\n        /* \"#utility.yul\":16220:16229   */\n      dup3\n        /* \"#utility.yul\":16216:16235   */\n      add\n        /* \"#utility.yul\":16208:16235   */\n      swap1\n      pop\n        /* \"#utility.yul\":16245:16362   */\n      tag_469\n        /* \"#utility.yul\":16359:16360   */\n      0x00\n        /* \"#utility.yul\":16348:16357   */\n      dup4\n        /* \"#utility.yul\":16344:16361   */\n      add\n        /* \"#utility.yul\":16335:16341   */\n      dup6\n        /* \"#utility.yul\":16245:16362   */\n      tag_286\n      jump\t// in\n    tag_469:\n        /* \"#utility.yul\":16372:16493   */\n      tag_470\n        /* \"#utility.yul\":16488:16491   */\n      0x0100\n        /* \"#utility.yul\":16477:16486   */\n      dup4\n        /* \"#utility.yul\":16473:16492   */\n      add\n        /* \"#utility.yul\":16464:16470   */\n      dup5\n        /* \"#utility.yul\":16372:16493   */\n      tag_292\n      jump\t// in\n    tag_470:\n        /* \"#utility.yul\":15978:16500   */\n      swap4\n      swap3\n      pop\n      pop\n      pop\n      jump\t// out\n        /* \"#utility.yul\":16506:16622   */\n    tag_293:\n        /* \"#utility.yul\":16576:16597   */\n      tag_472\n        /* \"#utility.yul\":16591:16596   */\n      dup2\n        /* \"#utility.yul\":16576:16597   */\n      tag_238\n      jump\t// in\n    tag_472:\n        /* \"#utility.yul\":16569:16574   */\n      dup2\n        /* \"#utility.yul\":16566:16598   */\n      eq\n        /* \"#utility.yul\":16556:16616   */\n      tag_473\n      jumpi\n        /* \"#utility.yul\":16612:16613   */\n      0x00\n        /* \"#utility.yul\":16609:16610   */\n      0x00\n        /* \"#utility.yul\":16602:16614   */\n      revert\n        /* \"#utility.yul\":16556:16616   */\n    tag_473:\n        /* \"#utility.yul\":16506:16622   */\n      pop\n      jump\t// out\n        /* \"#utility.yul\":16628:16765   */\n    tag_294:\n        /* \"#utility.yul\":16682:16687   */\n      0x00\n        /* \"#utility.yul\":16713:16719   */\n      dup2\n        /* \"#utility.yul\":16707:16720   */\n      mload\n        /* \"#utility.yul\":16698:16720   */\n      swap1\n      pop\n        /* \"#utility.yul\":16729:16759   */\n      tag_475\n        /* \"#utility.yul\":16753:16758   */\n      dup2\n        /* \"#utility.yul\":16729:16759   */\n      tag_293\n      jump\t// in\n    tag_475:\n        /* \"#utility.yul\":16628:16765   */\n      swap3\n      swap2\n      pop\n      pop\n      jump\t// out\n        /* \"#utility.yul\":16771:17116   */\n    tag_138:\n        /* \"#utility.yul\":16838:16844   */\n      0x00\n        /* \"#utility.yul\":16887:16889   */\n      0x20\n        /* \"#utility.yul\":16875:16884   */\n      dup3\n        /* \"#utility.yul\":16866:16873   */\n      dup5\n        /* \"#utility.yul\":16862:16885   */\n      sub\n        /* \"#utility.yul\":16858:16890   */\n      slt\n        /* \"#utility.yul\":16855:16974   */\n      iszero\n      tag_477\n      jumpi\n        /* \"#utility.yul\":16893:16972   */\n      tag_478\n      tag_241\n      jump\t// in\n    tag_478:\n        /* \"#utility.yul\":16855:16974   */\n    tag_477:\n        /* \"#utility.yul\":17013:17014   */\n      0x00\n        /* \"#utility.yul\":17038:17099   */\n      tag_479\n        /* \"#utility.yul\":17091:17098   */\n      dup5\n        /* \"#utility.yul\":17082:17088   */\n      dup3\n        /* \"#utility.yul\":17071:17080   */\n      dup6\n        /* \"#utility.yul\":17067:17089   */\n      add\n        /* \"#utility.yul\":17038:17099   */\n      tag_294\n      jump\t// in\n    tag_479:\n        /* \"#utility.yul\":17028:17099   */\n      swap2\n      pop\n        /* \"#utility.yul\":16984:17109   */\n      pop\n        /* \"#utility.yul\":16771:17116   */\n      swap3\n      swap2\n      pop\n      pop\n      jump\t// out\n        /* \"#utility.yul\":17122:17290   */\n    tag_295:\n        /* \"#utility.yul\":17262:17282   */\n      0x496e76616c696420766f74652070726f6f660000000000000000000000000000\n        /* \"#utility.yul\":17258:17259   */\n      0x00\n        /* \"#utility.yul\":17250:17256   */\n      dup3\n        /* \"#utility.yul\":17246:17260   */\n      add\n        /* \"#utility.yul\":17239:17283   */\n      mstore\n        /* \"#utility.yul\":17122:17290   */\n      pop\n      jump\t// out\n        /* \"#utility.yul\":17296:17662   */\n    tag_296:\n        /* \"#utility.yul\":17438:17441   */\n      0x00\n        /* \"#utility.yul\":17459:17526   */\n      tag_482\n        /* \"#utility.yul\":17523:17525   */\n      0x12\n        /* \"#utility.yul\":17518:17521   */\n      dup4\n        /* \"#utility.yul\":17459:17526   */\n      tag_264\n      jump\t// in\n    tag_482:\n        /* \"#utility.yul\":17452:17526   */\n      swap2\n      pop\n        /* \"#utility.yul\":17535:17628   */\n      tag_483\n        /* \"#utility.yul\":17624:17627   */\n      dup3\n        /* \"#utility.yul\":17535:17628   */\n      tag_295\n      jump\t// in\n    tag_483:\n        /* \"#utility.yul\":17653:17655   */\n      0x20\n        /* \"#utility.yul\":17648:17651   */\n      dup3\n        /* \"#utility.yul\":17644:17656   */\n      add\n        /* \"#utility.yul\":17637:17656   */\n      swap1\n      pop\n        /* \"#utility.yul\":17296:17662   */\n      swap2\n      swap1\n      pop\n      jump\t// out\n        /* \"#utility.yul\":17668:18087   */\n    tag_141:\n        /* \"#utility.yul\":17834:17838   */\n      0x00\n        /* \"#utility.yul\":17872:17874   */\n      0x20\n        /* \"#utility.yul\":17861:17870   */\n      dup3\n        /* \"#utility.yul\":17857:17875   */\n      add\n        /* \"#utility.yul\":17849:17875   */\n      swap1\n      pop\n        /* \"#utility.yul\":17921:17930   */\n      dup2\n        /* \"#utility.yul\":17915:17919   */\n      dup2\n        /* \"#utility.yul\":17911:17931   */\n      sub\n        /* \"#utility.yul\":17907:17908   */\n      0x00\n        /* \"#utility.yul\":17896:17905   */\n      dup4\n        /* \"#utility.yul\":17892:17909   */\n      add\n        /* \"#utility.yul\":17885:17932   */\n      mstore\n        /* \"#utility.yul\":17949:18080   */\n      tag_485\n        /* \"#utility.yul\":18075:18079   */\n      dup2\n        /* \"#utility.yul\":17949:18080   */\n      tag_296\n      jump\t// in\n    tag_485:\n        /* \"#utility.yul\":17941:18080   */\n      swap1\n      pop\n        /* \"#utility.yul\":17668:18087   */\n      swap2\n      swap1\n      pop\n      jump\t// out\n        /* \"#utility.yul\":18093:18273   */\n    tag_297:\n        /* \"#utility.yul\":18141:18218   */\n      0x4e487b7100000000000000000000000000000000000000000000000000000000\n        /* \"#utility.yul\":18138:18139   */\n      0x00\n        /* \"#utility.yul\":18131:18219   */\n      mstore\n        /* \"#utility.yul\":18238:18242   */\n      0x11\n        /* \"#utility.yul\":18235:18236   */\n      0x04\n        /* \"#utility.yul\":18228:18243   */\n      mstore\n        /* \"#utility.yul\":18262:18266   */\n      0x24\n        /* \"#utility.yul\":18259:18260   */\n      0x00\n        /* \"#utility.yul\":18252:18267   */\n      revert\n        /* \"#utility.yul\":18279:18470   */\n    tag_154:\n        /* \"#utility.yul\":18319:18322   */\n      0x00\n        /* \"#utility.yul\":18338:18358   */\n      tag_488\n        /* \"#utility.yul\":18356:18357   */\n      dup3\n        /* \"#utility.yul\":18338:18358   */\n      tag_236\n      jump\t// in\n    tag_488:\n        /* \"#utility.yul\":18333:18358   */\n      swap2\n      pop\n        /* \"#utility.yul\":18372:18392   */\n      tag_489\n        /* \"#utility.yul\":18390:18391   */\n      dup4\n        /* \"#utility.yul\":18372:18392   */\n      tag_236\n      jump\t// in\n    tag_489:\n        /* \"#utility.yul\":18367:18392   */\n      swap3\n      pop\n        /* \"#utility.yul\":18415:18416   */\n      dup3\n        /* \"#utility.yul\":18412:18413   */\n      dup3\n        /* \"#utility.yul\":18408:18417   */\n      add\n        /* \"#utility.yul\":18401:18417   */\n      swap1\n      pop\n        /* \"#utility.yul\":18436:18439   */\n      dup1\n        /* \"#utility.yul\":18433:18434   */\n      dup3\n        /* \"#utility.yul\":18430:18440   */\n      gt\n        /* \"#utility.yul\":18427:18463   */\n      iszero\n      tag_490\n      jumpi\n        /* \"#utility.yul\":18443:18461   */\n      tag_491\n      tag_297\n      jump\t// in\n    tag_491:\n        /* \"#utility.yul\":18427:18463   */\n    tag_490:\n        /* \"#utility.yul\":18279:18470   */\n      swap3\n      swap2\n      pop\n      pop\n      jump\t// out\n        /* \"#utility.yul\":18508:18678   */\n    tag_298:\n        /* \"#utility.yul\":18631:18672   */\n      tag_493\n        /* \"#utility.yul\":18667:18671   */\n      0x40\n        /* \"#utility.yul\":18662:18665   */\n      dup4\n        /* \"#utility.yul\":18655:18660   */\n      dup4\n        /* \"#utility.yul\":18631:18672   */\n      tag_283\n      jump\t// in\n    tag_493:\n        /* \"#utility.yul\":18508:18678   */\n      pop\n      pop\n      jump\t// out\n        /* \"#utility.yul\":18684:18802   */\n    tag_299:\n        /* \"#utility.yul\":18771:18795   */\n      tag_495\n        /* \"#utility.yul\":18789:18794   */\n      dup2\n        /* \"#utility.yul\":18771:18795   */\n      tag_248\n      jump\t// in\n    tag_495:\n        /* \"#utility.yul\":18766:18769   */\n      dup3\n        /* \"#utility.yul\":18759:18796   */\n      mstore\n        /* \"#utility.yul\":18684:18802   */\n      pop\n      pop\n      jump\t// out\n        /* \"#utility.yul\":18808:19444   */\n    tag_156:\n        /* \"#utility.yul\":19053:19057   */\n      0x00\n        /* \"#utility.yul\":19091:19094   */\n      0xa0\n        /* \"#utility.yul\":19080:19089   */\n      dup3\n        /* \"#utility.yul\":19076:19095   */\n      add\n        /* \"#utility.yul\":19068:19095   */\n      swap1\n      pop\n        /* \"#utility.yul\":19105:19224   */\n      tag_497\n        /* \"#utility.yul\":19221:19222   */\n      0x00\n        /* \"#utility.yul\":19210:19219   */\n      dup4\n        /* \"#utility.yul\":19206:19223   */\n      add\n        /* \"#utility.yul\":19197:19203   */\n      dup7\n        /* \"#utility.yul\":19105:19224   */\n      tag_298\n      jump\t// in\n    tag_497:\n        /* \"#utility.yul\":19234:19354   */\n      tag_498\n        /* \"#utility.yul\":19350:19352   */\n      0x40\n        /* \"#utility.yul\":19339:19348   */\n      dup4\n        /* \"#utility.yul\":19335:19353   */\n      add\n        /* \"#utility.yul\":19326:19332   */\n      dup6\n        /* \"#utility.yul\":19234:19354   */\n      tag_298\n      jump\t// in\n    tag_498:\n        /* \"#utility.yul\":19364:19437   */\n      tag_499\n        /* \"#utility.yul\":19432:19435   */\n      0x80\n        /* \"#utility.yul\":19421:19430   */\n      dup4\n        /* \"#utility.yul\":19417:19436   */\n      add\n        /* \"#utility.yul\":19408:19414   */\n      dup5\n        /* \"#utility.yul\":19364:19437   */\n      tag_299\n      jump\t// in\n    tag_499:\n        /* \"#utility.yul\":18808:19444   */\n      swap5\n      swap4\n      pop\n      pop\n      pop\n      pop\n      jump\t// out\n        /* \"#utility.yul\":19450:19610   */\n    tag_300:\n        /* \"#utility.yul\":19590:19602   */\n      0x4f6e6c79206f776e657200000000000000000000000000000000000000000000\n        /* \"#utility.yul\":19586:19587   */\n      0x00\n        /* \"#utility.yul\":19578:19584   */\n      dup3\n        /* \"#utility.yul\":19574:19588   */\n      add\n        /* \"#utility.yul\":19567:19603   */\n      mstore\n        /* \"#utility.yul\":19450:19610   */\n      pop\n      jump\t// out\n        /* \"#utility.yul\":19616:19982   */\n    tag_301:\n        /* \"#utility.yul\":19758:19761   */\n      0x00\n        /* \"#utility.yul\":19779:19846   */\n      tag_502\n        /* \"#utility.yul\":19843:19845   */\n      0x0a\n        /* \"#utility.yul\":19838:19841   */\n      dup4\n        /* \"#utility.yul\":19779:19846   */\n      tag_264\n      jump\t// in\n    tag_502:\n        /* \"#utility.yul\":19772:19846   */\n      swap2\n      pop\n        /* \"#utility.yul\":19855:19948   */\n      tag_503\n        /* \"#utility.yul\":19944:19947   */\n      dup3\n        /* \"#utility.yul\":19855:19948   */\n      tag_300\n      jump\t// in\n    tag_503:\n        /* \"#utility.yul\":19973:19975   */\n      0x20\n        /* \"#utility.yul\":19968:19971   */\n      dup3\n        /* \"#utility.yul\":19964:19976   */\n      add\n        /* \"#utility.yul\":19957:19976   */\n      swap1\n      pop\n        /* \"#utility.yul\":19616:19982   */\n      swap2\n      swap1\n      pop\n      jump\t// out\n        /* \"#utility.yul\":19988:20407   */\n    tag_160:\n        /* \"#utility.yul\":20154:20158   */\n      0x00\n        /* \"#utility.yul\":20192:20194   */\n      0x20\n        /* \"#utility.yul\":20181:20190   */\n      dup3\n        /* \"#utility.yul\":20177:20195   */\n      add\n        /* \"#utility.yul\":20169:20195   */\n      swap1\n      pop\n        /* \"#utility.yul\":20241:20250   */\n      dup2\n        /* \"#utility.yul\":20235:20239   */\n      dup2\n        /* \"#utility.yul\":20231:20251   */\n      sub\n        /* \"#utility.yul\":20227:20228   */\n      0x00\n        /* \"#utility.yul\":20216:20225   */\n      dup4\n        /* \"#utility.yul\":20212:20229   */\n      add\n        /* \"#utility.yul\":20205:20252   */\n      mstore\n        /* \"#utility.yul\":20269:20400   */\n      tag_505\n        /* \"#utility.yul\":20395:20399   */\n      dup2\n        /* \"#utility.yul\":20269:20400   */\n      tag_301\n      jump\t// in\n    tag_505:\n        /* \"#utility.yul\":20261:20400   */\n      swap1\n      pop\n        /* \"#utility.yul\":19988:20407   */\n      swap2\n      swap1\n      pop\n      jump\t// out\n        /* \"#utility.yul\":20413:20577   */\n    tag_302:\n        /* \"#utility.yul\":20553:20569   */\n      0x416c726561647920636c6f736564000000000000000000000000000000000000\n        /* \"#utility.yul\":20549:20550   */\n      0x00\n        /* \"#utility.yul\":20541:20547   */\n      dup3\n        /* \"#utility.yul\":20537:20551   */\n      add\n        /* \"#utility.yul\":20530:20570   */\n      mstore\n        /* \"#utility.yul\":20413:20577   */\n      pop\n      jump\t// out\n        /* \"#utility.yul\":20583:20949   */\n    tag_303:\n        /* \"#utility.yul\":20725:20728   */\n      0x00\n        /* \"#utility.yul\":20746:20813   */\n      tag_508\n        /* \"#utility.yul\":20810:20812   */\n      0x0e\n        /* \"#utility.yul\":20805:20808   */\n      dup4\n        /* \"#utility.yul\":20746:20813   */\n      tag_264\n      jump\t// in\n    tag_508:\n        /* \"#utility.yul\":20739:20813   */\n      swap2\n      pop\n        /* \"#utility.yul\":20822:20915   */\n      tag_509\n        /* \"#utility.yul\":20911:20914   */\n      dup3\n        /* \"#utility.yul\":20822:20915   */\n      tag_302\n      jump\t// in\n    tag_509:\n        /* \"#utility.yul\":20940:20942   */\n      0x20\n        /* \"#utility.yul\":20935:20938   */\n      dup3\n        /* \"#utility.yul\":20931:20943   */\n      add\n        /* \"#utility.yul\":20924:20943   */\n      swap1\n      pop\n        /* \"#utility.yul\":20583:20949   */\n      swap2\n      swap1\n      pop\n      jump\t// out\n        /* \"#utility.yul\":20955:21374   */\n    tag_163:\n        /* \"#utility.yul\":21121:21125   */\n      0x00\n        /* \"#utility.yul\":21159:21161   */\n      0x20\n        /* \"#utility.yul\":21148:21157   */\n      dup3\n        /* \"#utility.yul\":21144:21162   */\n      add\n        /* \"#utility.yul\":21136:21162   */\n      swap1\n      pop\n        /* \"#utility.yul\":21208:21217   */\n      dup2\n        /* \"#utility.yul\":21202:21206   */\n      dup2\n        /* \"#utility.yul\":21198:21218   */\n      sub\n        /* \"#utility.yul\":21194:21195   */\n      0x00\n        /* \"#utility.yul\":21183:21192   */\n      dup4\n        /* \"#utility.yul\":21179:21196   */\n      add\n        /* \"#utility.yul\":21172:21219   */\n      mstore\n        /* \"#utility.yul\":21236:21367   */\n      tag_511\n        /* \"#utility.yul\":21362:21366   */\n      dup2\n        /* \"#utility.yul\":21236:21367   */\n      tag_303\n      jump\t// in\n    tag_511:\n        /* \"#utility.yul\":21228:21367   */\n      swap1\n      pop\n        /* \"#utility.yul\":20955:21374   */\n      swap2\n      swap1\n      pop\n      jump\t// out\n        /* \"#utility.yul\":21380:21549   */\n    tag_304:\n        /* \"#utility.yul\":21520:21541   */\n      0x456c656374696f6e207374696c6c206f70656e00000000000000000000000000\n        /* \"#utility.yul\":21516:21517   */\n      0x00\n        /* \"#utility.yul\":21508:21514   */\n      dup3\n        /* \"#utility.yul\":21504:21518   */\n      add\n        /* \"#utility.yul\":21497:21542   */\n      mstore\n        /* \"#utility.yul\":21380:21549   */\n      pop\n      jump\t// out\n        /* \"#utility.yul\":21555:21921   */\n    tag_305:\n        /* \"#utility.yul\":21697:21700   */\n      0x00\n        /* \"#utility.yul\":21718:21785   */\n      tag_514\n        /* \"#utility.yul\":21782:21784   */\n      0x13\n        /* \"#utility.yul\":21777:21780   */\n      dup4\n        /* \"#utility.yul\":21718:21785   */\n      tag_264\n      jump\t// in\n    tag_514:\n        /* \"#utility.yul\":21711:21785   */\n      swap2\n      pop\n        /* \"#utility.yul\":21794:21887   */\n      tag_515\n        /* \"#utility.yul\":21883:21886   */\n      dup3\n        /* \"#utility.yul\":21794:21887   */\n      tag_304\n      jump\t// in\n    tag_515:\n        /* \"#utility.yul\":21912:21914   */\n      0x20\n        /* \"#utility.yul\":21907:21910   */\n      dup3\n        /* \"#utility.yul\":21903:21915   */\n      add\n        /* \"#utility.yul\":21896:21915   */\n      swap1\n      pop\n        /* \"#utility.yul\":21555:21921   */\n      swap2\n      swap1\n      pop\n      jump\t// out\n        /* \"#utility.yul\":21927:22346   */\n    tag_169:\n        /* \"#utility.yul\":22093:22097   */\n      0x00\n        /* \"#utility.yul\":22131:22133   */\n      0x20\n        /* \"#utility.yul\":22120:22129   */\n      dup3\n        /* \"#utility.yul\":22116:22134   */\n      add\n        /* \"#utility.yul\":22108:22134   */\n      swap1\n      pop\n        /* \"#utility.yul\":22180:22189   */\n      dup2\n        /* \"#utility.yul\":22174:22178   */\n      dup2\n        /* \"#utility.yul\":22170:22190   */\n      sub\n        /* \"#utility.yul\":22166:22167   */\n      0x00\n        /* \"#utility.yul\":22155:22164   */\n      dup4\n        /* \"#utility.yul\":22151:22168   */\n      add\n        /* \"#utility.yul\":22144:22191   */\n      mstore\n        /* \"#utility.yul\":22208:22339   */\n      tag_517\n        /* \"#utility.yul\":22334:22338   */\n      dup2\n        /* \"#utility.yul\":22208:22339   */\n      tag_305\n      jump\t// in\n    tag_517:\n        /* \"#utility.yul\":22200:22339   */\n      swap1\n      pop\n        /* \"#utility.yul\":21927:22346   */\n      swap2\n      swap1\n      pop\n      jump\t// out\n        /* \"#utility.yul\":22352:22523   */\n    tag_306:\n        /* \"#utility.yul\":22492:22515   */\n      0x496e76616c6964207265636f756e742070726f6f660000000000000000000000\n        /* \"#utility.yul\":22488:22489   */\n      0x00\n        /* \"#utility.yul\":22480:22486   */\n      dup3\n        /* \"#utility.yul\":22476:22490   */\n      add\n        /* \"#utility.yul\":22469:22516   */\n      mstore\n        /* \"#utility.yul\":22352:22523   */\n      pop\n      jump\t// out\n        /* \"#utility.yul\":22529:22895   */\n    tag_307:\n        /* \"#utility.yul\":22671:22674   */\n      0x00\n        /* \"#utility.yul\":22692:22759   */\n      tag_520\n        /* \"#utility.yul\":22756:22758   */\n      0x15\n        /* \"#utility.yul\":22751:22754   */\n      dup4\n        /* \"#utility.yul\":22692:22759   */\n      tag_264\n      jump\t// in\n    tag_520:\n        /* \"#utility.yul\":22685:22759   */\n      swap2\n      pop\n        /* \"#utility.yul\":22768:22861   */\n      tag_521\n        /* \"#utility.yul\":22857:22860   */\n      dup3\n        /* \"#utility.yul\":22768:22861   */\n      tag_306\n      jump\t// in\n    tag_521:\n        /* \"#utility.yul\":22886:22888   */\n      0x20\n        /* \"#utility.yul\":22881:22884   */\n      dup3\n        /* \"#utility.yul\":22877:22889   */\n      add\n        /* \"#utility.yul\":22870:22889   */\n      swap1\n      pop\n        /* \"#utility.yul\":22529:22895   */\n      swap2\n      swap1\n      pop\n      jump\t// out\n        /* \"#utility.yul\":22901:23320   */\n    tag_187:\n        /* \"#utility.yul\":23067:23071   */\n      0x00\n        /* \"#utility.yul\":23105:23107   */\n      0x20\n        /* \"#utility.yul\":23094:23103   */\n      dup3\n        /* \"#utility.yul\":23090:23108   */\n      add\n        /* \"#utility.yul\":23082:23108   */\n      swap1\n      pop\n        /* \"#utility.yul\":23154:23163   */\n      dup2\n        /* \"#utility.yul\":23148:23152   */\n      dup2\n        /* \"#utility.yul\":23144:23164   */\n      sub\n        /* \"#utility.yul\":23140:23141   */\n      0x00\n        /* \"#utility.yul\":23129:23138   */\n      dup4\n        /* \"#utility.yul\":23125:23142   */\n      add\n        /* \"#utility.yul\":23118:23165   */\n      mstore\n        /* \"#utility.yul\":23182:23313   */\n      tag_523\n        /* \"#utility.yul\":23308:23312   */\n      dup2\n        /* \"#utility.yul\":23182:23313   */\n      tag_307\n      jump\t// in\n    tag_523:\n        /* \"#utility.yul\":23174:23313   */\n      swap1\n      pop\n        /* \"#utility.yul\":22901:23320   */\n      swap2\n      swap1\n      pop\n      jump\t// out\n        /* \"#utility.yul\":23326:23506   */\n    tag_196:\n        /* \"#utility.yul\":23374:23451   */\n      0x4e487b7100000000000000000000000000000000000000000000000000000000\n        /* \"#utility.yul\":23371:23372   */\n      0x00\n        /* \"#utility.yul\":23364:23452   */\n      mstore\n        /* \"#utility.yul\":23471:23475   */\n      0x12\n        /* \"#utility.yul\":23468:23469   */\n      0x04\n        /* \"#utility.yul\":23461:23476   */\n      mstore\n        /* \"#utility.yul\":23495:23499   */\n      0x24\n        /* \"#utility.yul\":23492:23493   */\n      0x00\n        /* \"#utility.yul\":23485:23500   */\n      revert\n        /* \"#utility.yul\":23512:23706   */\n    tag_229:\n        /* \"#utility.yul\":23552:23556   */\n      0x00\n        /* \"#utility.yul\":23572:23592   */\n      tag_526\n        /* \"#utility.yul\":23590:23591   */\n      dup3\n        /* \"#utility.yul\":23572:23592   */\n      tag_236\n      jump\t// in\n    tag_526:\n        /* \"#utility.yul\":23567:23592   */\n      swap2\n      pop\n        /* \"#utility.yul\":23606:23626   */\n      tag_527\n        /* \"#utility.yul\":23624:23625   */\n      dup4\n        /* \"#utility.yul\":23606:23626   */\n      tag_236\n      jump\t// in\n    tag_527:\n        /* \"#utility.yul\":23601:23626   */\n      swap3\n      pop\n        /* \"#utility.yul\":23650:23651   */\n      dup3\n        /* \"#utility.yul\":23647:23648   */\n      dup3\n        /* \"#utility.yul\":23643:23652   */\n      sub\n        /* \"#utility.yul\":23635:23652   */\n      swap1\n      pop\n        /* \"#utility.yul\":23674:23675   */\n      dup2\n        /* \"#utility.yul\":23668:23672   */\n      dup2\n        /* \"#utility.yul\":23665:23676   */\n      gt\n        /* \"#utility.yul\":23662:23699   */\n      iszero\n      tag_528\n      jumpi\n        /* \"#utility.yul\":23679:23697   */\n      tag_529\n      tag_297\n      jump\t// in\n    tag_529:\n        /* \"#utility.yul\":23662:23699   */\n    tag_528:\n        /* \"#utility.yul\":23512:23706   */\n      swap3\n      swap2\n      pop\n      pop\n      jump\t// out\n\n    auxdata: 0xa2646970667358221220b6b59541c049b06ad43eed160692742f0dd1da98c28b608d855f7c2036640cab64736f6c634300081e0033\n}\n",
				"bytecode": {
					"linkReferences": {},
					"object": "608060405234801561000f575f5ffd5b50604051611d55380380611d558339818101604052810190610031919061018d565b335f5f6101000a81548173ffffffffffffffffffffffffffffffffffffffff021916908373ffffffffffffffffffffffffffffffffffffffff16021790555060015f60146101000a81548160ff0219169083151502179055508160075f6101000a81548173ffffffffffffffffffffffffffffffffffffffff021916908373ffffffffffffffffffffffffffffffffffffffff1602179055508060085f6101000a81548173ffffffffffffffffffffffffffffffffffffffff021916908373ffffffffffffffffffffffffffffffffffffffff1602179055505f60018190555060016002819055505f600381905550600160048190555050506101cb565b5f5ffd5b5f73ffffffffffffffffffffffffffffffffffffffff82169050919050565b5f61015c82610133565b9050919050565b61016c81610152565b8114610176575f5ffd5b50565b5f8151905061018781610163565b92915050565b5f5f604083850312156101a3576101a261012f565b5b5f6101b085828601610179565b92505060206101c185828601610179565b9150509250929050565b611b7d806101d85f395ff3fe608060405234801561000f575f5ffd5b50600436106100cd575f3560e01c80637ecf686d1161008a5780638da5cb5b116100645780638da5cb5b146101db57806399d74c71146101f9578063bf0516f214610217578063e63aa8fb14610235576100cd565b80637ecf686d1461016f578063827861991461019f57806387dde0be146101bd576100cd565b80630e7d490d146100d15780634a39d442146100ef5780634d1397631461010d57806359a00a301461012b5780636c6c32d01461014757806375f11da114610151575b5f5ffd5b6100d9610251565b6040516100e691906110e5565b60405180910390f35b6100f7610257565b6040516101049190611118565b60405180910390f35b610115610269565b60405161012291906110e5565b60405180910390f35b6101456004803603810190610140919061119e565b61026f565b005b61014f610877565b005b61015961099a565b60405161016691906110e5565b60405180910390f35b61018960048036038101906101849190611239565b6109a0565b6040516101969190611118565b60405180910390f35b6101a76109bd565b6040516101b491906110e5565b60405180910390f35b6101c56109c3565b6040516101d291906110e5565b60405180910390f35b6101e36109c9565b6040516101f091906112a3565b60405180910390f35b6102016109ed565b60405161020e9190611317565b60405180910390f35b61021f610a12565b60405161022c9190611317565b60405180910390f35b61024f600480360381019061024a919061135a565b610a37565b005b60055481565b5f60149054906101000a900460ff1681565b60015481565b6102776110aa565b835f6002811061028a57610289611399565b5b6020020135815f600c81106102a2576102a1611399565b5b602002018181525050836001600281106102bf576102be611399565b5b6020020135816001600c81106102d8576102d7611399565b5b602002018181525050825f600281106102f4576102f3611399565b5b6020020135816002600c811061030d5761030c611399565b5b6020020181815250508260016002811061032a57610329611399565b5b6020020135816003600c811061034357610342611399565b5b602002018181525050815f6008811061035f5761035e611399565b5b60200201602081019061037291906113ff565b63ffffffff16816004600c811061038c5761038b611399565b5b602002018181525050816001600881106103a9576103a8611399565b5b6020020160208101906103bc91906113ff565b63ffffffff16816005600c81106103d6576103d5611399565b5b602002018181525050816002600881106103f3576103f2611399565b5b60200201602081019061040691906113ff565b63ffffffff16816006600c81106104205761041f611399565b5b6020020181815250508160036008811061043d5761043c611399565b5b60200201602081019061045091906113ff565b63ffffffff16816007600c811061046a57610469611399565b5b6020020181815250508160046008811061048757610486611399565b5b60200201602081019061049a91906113ff565b63ffffffff16816008600c81106104b4576104b3611399565b5b602002018181525050816005600881106104d1576104d0611399565b5b6020020160208101906104e491906113ff565b63ffffffff16816009600c81106104fe576104fd611399565b5b6020020181815250508160066008811061051b5761051a611399565b5b60200201602081019061052e91906113ff565b63ffffffff1681600a600c811061054857610547611399565b5b6020020181815250508160076008811061056557610564611399565b5b60200201602081019061057891906113ff565b63ffffffff1681600b600c811061059257610591611399565b5b6020020181815250505f60149054906101000a900460ff166105e9576040517f08c379a00000000000000000000000000000000000000000000000000000000081526004016105e090611484565b60405180910390fd5b5f826040516020016105fb9190611565565b60405160208183030381529060405280519060200120905060065f8281526020019081526020015f205f9054906101000a900460ff1615610671576040517f08c379a0000000000000000000000000000000000000000000000000000000008152600401610668906115ca565b60405180910390fd5b5f60075f9054906101000a900473ffffffffffffffffffffffffffffffffffffffff1673ffffffffffffffffffffffffffffffffffffffff16636667059988856040518363ffffffff1660e01b81526004016106ce9291906117ad565b602060405180830381865afa1580156106e9573d5f5f3e3d5ffd5b505050506040513d601f19601f8201168201806040525081019061070d9190611800565b90508061074f576040517f08c379a000000000000000000000000000000000000000000000000000000000815260040161074690611875565b60405180910390fd5b600160065f8481526020019081526020015f205f6101000a81548160ff0219169083151502179055506107b7600154600254885f6002811061079457610793611399565b5b6020020135896001600281106107ad576107ac611399565b5b6020020135610cd4565b60015f60025f849190505583919050555050610808600354600454875f600281106107e5576107e4611399565b5b6020020135886001600281106107fe576107fd611399565b5b6020020135610cd4565b60035f60045f849190505583919050555050600160055f82825461082c91906118c0565b925050819055507fec3373933d5241831a4fb1607a10c99cc2d1a609f099ff1987ce2c1884d0528486868460405161086693929190611912565b60405180910390a150505050505050565b5f5f9054906101000a900473ffffffffffffffffffffffffffffffffffffffff1673ffffffffffffffffffffffffffffffffffffffff163373ffffffffffffffffffffffffffffffffffffffff1614610905576040517f08c379a00000000000000000000000000000000000000000000000000000000081526004016108fc90611991565b60405180910390fd5b5f60149054906101000a900460ff16610953576040517f08c379a000000000000000000000000000000000000000000000000000000000815260040161094a906119f9565b60405180910390fd5b5f5f60146101000a81548160ff0219169083151502179055507fa549b9addfc3693a1863ac5b0b13c42960d78df554c01ea6ac72a7db985df0cf60405160405180910390a1565b60025481565b6006602052805f5260405f205f915054906101000a900460ff1681565b60035481565b60045481565b5f5f9054906101000a900473ffffffffffffffffffffffffffffffffffffffff1681565b60075f9054906101000a900473ffffffffffffffffffffffffffffffffffffffff1681565b60085f9054906101000a900473ffffffffffffffffffffffffffffffffffffffff1681565b5f5f9054906101000a900473ffffffffffffffffffffffffffffffffffffffff1673ffffffffffffffffffffffffffffffffffffffff163373ffffffffffffffffffffffffffffffffffffffff1614610ac5576040517f08c379a0000000000000000000000000000000000000000000000000000000008152600401610abc90611991565b60405180910390fd5b5f60149054906101000a900460ff1615610b14576040517f08c379a0000000000000000000000000000000000000000000000000000000008152600401610b0b90611a61565b60405180910390fd5b610b1c6110aa565b600154815f600c8110610b3257610b31611399565b5b602002018181525050600254816001600c8110610b5257610b51611399565b5b602002018181525050600354816002600c8110610b7257610b71611399565b5b602002018181525050600454816003600c8110610b9257610b91611399565b5b60200201818152505082816004600c8110610bb057610baf611399565b5b6020020181815250505f60085f9054906101000a900473ffffffffffffffffffffffffffffffffffffffff1673ffffffffffffffffffffffffffffffffffffffff16636667059984846040518363ffffffff1660e01b8152600401610c169291906117ad565b602060405180830381865afa158015610c31573d5f5f3e3d5ffd5b505050506040513d601f19601f82011682018060405250810190610c559190611800565b905080610c97576040517f08c379a0000000000000000000000000000000000000000000000000000000008152600401610c8e90611ac9565b60405180910390fd5b7fee088bcc4c9bbd048c9c087916ec26aae94e63151610af8167078ef170e5ae6084604051610cc691906110e5565b60405180910390a150505050565b5f5f5f86148015610ce457505f85145b15610cf457838391509150610fb9565b5f84148015610d0257505f85145b15610d1257858591509150610fb9565b5f7f30644e72e131a029b85045b68181585d2833e84879b9709143e1f593f000000180610d4257610d41611ae7565b5b85880990505f7f30644e72e131a029b85045b68181585d2833e84879b9709143e1f593f000000180610d7757610d76611ae7565b5b85880990505f7f30644e72e131a029b85045b68181585d2833e84879b9709143e1f593f000000180610dac57610dab611ae7565b5b7f30644e72e131a029b85045b68181585d2833e84879b9709143e1f593f000000180610ddb57610dda611ae7565b5b838509620292f80990505f7f30644e72e131a029b85045b68181585d2833e84879b9709143e1f593f000000180610e1557610e14611ae7565b5b7f30644e72e131a029b85045b68181585d2833e84879b9709143e1f593f000000180610e4457610e43611ae7565b5b898b097f30644e72e131a029b85045b68181585d2833e84879b9709143e1f593f000000180610e7657610e75611ae7565b5b898d090890505f610edc847f30644e72e131a029b85045b68181585d2833e84879b9709143e1f593f000000180610eb057610eaf611ae7565b5b87620292fc097f30644e72e131a029b85045b68181585d2833e84879b9709143e1f593f0000001610fc2565b90507f30644e72e131a029b85045b68181585d2833e84879b9709143e1f593f000000180610f0d57610f0c611ae7565b5b610f487f30644e72e131a029b85045b68181585d2833e84879b9709143e1f593f000000180610f3f57610f3e611ae7565b5b85600108611004565b830996507f30644e72e131a029b85045b68181585d2833e84879b9709143e1f593f000000180610f7b57610f7a611ae7565b5b610faf610faa6001867f30644e72e131a029b85045b68181585d2833e84879b9709143e1f593f0000001610fc2565b611004565b8209955050505050505b94509492505050565b5f5f849050838511610fdd578281610fda91906118c0565b90505b8280610fec57610feb611ae7565b5b5f8583610ff99190611b14565b089150509392505050565b5f61105c8260027f30644e72e131a029b85045b68181585d2833e84879b9709143e1f593f00000016110369190611b14565b7f30644e72e131a029b85045b68181585d2833e84879b9709143e1f593f0000001611063565b9050919050565b5f60405160208152602080820152602060408201528460608201528360808201528260a082015260208160c08360055afa8061109d575f5ffd5b8151925050509392505050565b604051806101800160405280600c90602082028036833780820191505090505090565b5f819050919050565b6110df816110cd565b82525050565b5f6020820190506110f85f8301846110d6565b92915050565b5f8115159050919050565b611112816110fe565b82525050565b5f60208201905061112b5f830184611109565b92915050565b5f5ffd5b5f5ffd5b5f610100828403121561114f5761114e611135565b5b81905092915050565b5f5ffd5b5f8190508260206002028201111561117757611176611158565b5b92915050565b5f8190508260206008028201111561119857611197611158565b5b92915050565b5f5f5f5f61028085870312156111b7576111b6611131565b5b5f6111c487828801611139565b9450506101006111d68782880161115c565b9350506101406111e88782880161115c565b9250506101806111fa8782880161117d565b91505092959194509250565b5f819050919050565b61121881611206565b8114611222575f5ffd5b50565b5f813590506112338161120f565b92915050565b5f6020828403121561124e5761124d611131565b5b5f61125b84828501611225565b91505092915050565b5f73ffffffffffffffffffffffffffffffffffffffff82169050919050565b5f61128d82611264565b9050919050565b61129d81611283565b82525050565b5f6020820190506112b65f830184611294565b92915050565b5f819050919050565b5f6112df6112da6112d584611264565b6112bc565b611264565b9050919050565b5f6112f0826112c5565b9050919050565b5f611301826112e6565b9050919050565b611311816112f7565b82525050565b5f60208201905061132a5f830184611308565b92915050565b611339816110cd565b8114611343575f5ffd5b50565b5f8135905061135481611330565b92915050565b5f5f610120838503121561137157611370611131565b5b5f61137e85828601611346565b925050602061138f85828601611139565b9150509250929050565b7f4e487b71000000000000000000000000000000000000000000000000000000005f52603260045260245ffd5b5f63ffffffff82169050919050565b6113de816113c6565b81146113e8575f5ffd5b50565b5f813590506113f9816113d5565b92915050565b5f6020828403121561141457611413611131565b5b5f611421848285016113eb565b91505092915050565b5f82825260208201905092915050565b7f456c656374696f6e20636c6f73656400000000000000000000000000000000005f82015250565b5f61146e600f8361142a565b91506114798261143a565b602082019050919050565b5f6020820190508181035f83015261149b81611462565b9050919050565b5f60089050919050565b5f81905092915050565b5f819050919050565b6114c8816113c6565b82525050565b5f6114d983836114bf565b60208301905092915050565b5f6114f360208401846113eb565b905092915050565b5f602082019050919050565b611510816114a2565b61151a81846114ac565b9250611525826114b6565b805f5b8381101561155d5761153a82846114e5565b61154487826114ce565b965061154f836114fb565b925050600181019050611528565b505050505050565b5f6115708284611507565b6101008201915081905092915050565b7f4e756c6c696669657220616c72656164792075736564000000000000000000005f82015250565b5f6115b460168361142a565b91506115bf82611580565b602082019050919050565b5f6020820190508181035f8301526115e1816115a8565b9050919050565b5f82905092915050565b5f6116006020840184611346565b905092915050565b611611816110cd565b82525050565b604082016116275f8301836115f2565b6116335f850182611608565b5061164160208301836115f2565b61164e6020850182611608565b50505050565b5f82905092915050565b5f82905092915050565b82818337505050565b61167d60408383611668565b5050565b608082016116915f83018361165e565b61169d5f850182611671565b506116ab604083018361165e565b6116b86040850182611671565b50505050565b61010082016116cf5f8301836115e8565b6116db5f850182611617565b506116e96040830183611654565b6116f66040850182611681565b5061170460c08301836115e8565b61171160c0850182611617565b50505050565b5f600c9050919050565b5f81905092915050565b5f819050919050565b5f61173f8383611608565b60208301905092915050565b5f602082019050919050565b61176081611717565b61176a8184611721565b92506117758261172b565b805f5b838110156117a557815161178c8782611734565b96506117978361174b565b925050600181019050611778565b505050505050565b5f610280820190506117c15f8301856116be565b6117cf610100830184611757565b9392505050565b6117df816110fe565b81146117e9575f5ffd5b50565b5f815190506117fa816117d6565b92915050565b5f6020828403121561181557611814611131565b5b5f611822848285016117ec565b91505092915050565b7f496e76616c696420766f74652070726f6f6600000000000000000000000000005f82015250565b5f61185f60128361142a565b915061186a8261182b565b602082019050919050565b5f6020820190508181035f83015261188c81611853565b9050919050565b7f4e487b71000000000000000000000000000000000000000000000000000000005f52601160045260245ffd5b5f6118ca826110cd565b91506118d5836110cd565b92508282019050808211156118ed576118ec611893565b5b92915050565b6118ff60408383611668565b5050565b61190c81611206565b82525050565b5f60a0820190506119255f8301866118f3565b61193260408301856118f3565b61193f6080830184611903565b949350505050565b7f4f6e6c79206f776e6572000000000000000000000000000000000000000000005f82015250565b5f61197b600a8361142a565b915061198682611947565b602082019050919050565b5f6020820190508181035f8301526119a88161196f565b9050919050565b7f416c726561647920636c6f7365640000000000000000000000000000000000005f82015250565b5f6119e3600e8361142a565b91506119ee826119af565b602082019050919050565b5f6020820190508181035f830152611a10816119d7565b9050919050565b7f456c656374696f6e207374696c6c206f70656e000000000000000000000000005f82015250565b5f611a4b60138361142a565b9150611a5682611a17565b602082019050919050565b5f6020820190508181035f830152611a7881611a3f565b9050919050565b7f496e76616c6964207265636f756e742070726f6f6600000000000000000000005f82015250565b5f611ab360158361142a565b9150611abe82611a7f565b602082019050919050565b5f6020820190508181035f830152611ae081611aa7565b9050919050565b7f4e487b71000000000000000000000000000000000000000000000000000000005f52601260045260245ffd5b5f611b1e826110cd565b9150611b29836110cd565b9250828203905081811115611b4157611b40611893565b5b9291505056fea2646970667358221220b6b59541c049b06ad43eed160692742f0dd1da98c28b608d855f7c2036640cab64736f6c634300081e0033",
					"opcodes": "PUSH1 0x80 PUSH1 0x40 MSTORE CALLVALUE DUP1 ISZERO PUSH2 0xF JUMPI PUSH0 PUSH0 REVERT JUMPDEST POP PUSH1 0x40 MLOAD PUSH2 0x1D55 CODESIZE SUB DUP1 PUSH2 0x1D55 DUP4 CODECOPY DUP2 DUP2 ADD PUSH1 0x40 MSTORE DUP2 ADD SWAP1 PUSH2 0x31 SWAP2 SWAP1 PUSH2 0x18D JUMP JUMPDEST CALLER PUSH0 PUSH0 PUSH2 0x100 EXP DUP2 SLOAD DUP2 PUSH20 0xFFFFFFFFFFFFFFFFFFFFFFFFFFFFFFFFFFFFFFFF MUL NOT AND SWAP1 DUP4 PUSH20 0xFFFFFFFFFFFFFFFFFFFFFFFFFFFFFFFFFFFFFFFF AND MUL OR SWAP1 SSTORE POP PUSH1 0x1 PUSH0 PUSH1 0x14 PUSH2 0x100 EXP DUP2 SLOAD DUP2 PUSH1 0xFF MUL NOT AND SWAP1 DUP4 ISZERO ISZERO MUL OR SWAP1 SSTORE POP DUP2 PUSH1 0x7 PUSH0 PUSH2 0x100 EXP DUP2 SLOAD DUP2 PUSH20 0xFFFFFFFFFFFFFFFFFFFFFFFFFFFFFFFFFFFFFFFF MUL NOT AND SWAP1 DUP4 PUSH20 0xFFFFFFFFFFFFFFFFFFFFFFFFFFFFFFFFFFFFFFFF AND MUL OR SWAP1 SSTORE POP DUP1 PUSH1 0x8 PUSH0 PUSH2 0x100 EXP DUP2 SLOAD DUP2 PUSH20 0xFFFFFFFFFFFFFFFFFFFFFFFFFFFFFFFFFFFFFFFF MUL NOT AND SWAP1 DUP4 PUSH20 0xFFFFFFFFFFFFFFFFFFFFFFFFFFFFFFFFFFFFFFFF AND MUL OR SWAP1 SSTORE POP PUSH0 PUSH1 0x1 DUP2 SWAP1 SSTORE POP PUSH1 0x1 PUSH1 0x2 DUP2 SWAP1 SSTORE POP PUSH0 PUSH1 0x3 DUP2 SWAP1 SSTORE POP PUSH1 0x1 PUSH1 0x4 DUP2 SWAP1 SSTORE POP POP POP PUSH2 0x1CB JUMP JUMPDEST PUSH0 PUSH0 REVERT JUMPDEST PUSH0 PUSH20 0xFFFFFFFFFFFFFFFFFFFFFFFFFFFFFFFFFFFFFFFF DUP3 AND SWAP1 POP SWAP2 SWAP1 POP JUMP JUMPDEST PUSH0 PUSH2 0x15C DUP3 PUSH2 0x133 JUMP JUMPDEST SWAP1 POP SWAP2 SWAP1 POP JUMP JUMPDEST PUSH2 0x16C DUP2 PUSH2 0x152 JUMP JUMPDEST DUP2 EQ PUSH2 0x176 JUMPI PUSH0 PUSH0 REVERT JUMPDEST POP JUMP JUMPDEST PUSH0 DUP2 MLOAD SWAP1 POP PUSH2 0x187 DUP2 PUSH2 0x163 JUMP JUMPDEST SWAP3 SWAP2 POP POP JUMP JUMPDEST PUSH0 PUSH0 PUSH1 0x40 DUP4 DUP6 SUB SLT ISZERO PUSH2 0x1A3 JUMPI PUSH2 0x1A2 PUSH2 0x12F JUMP JUMPDEST JUMPDEST PUSH0 PUSH2 0x1B0 DUP6 DUP3 DUP7 ADD PUSH2 0x179 JUMP JUMPDEST SWAP3 POP POP PUSH1 0x20 PUSH2 0x1C1 DUP6 DUP3 DUP7 ADD PUSH2 0x179 JUMP JUMPDEST SWAP2 POP POP SWAP3 POP SWAP3 SWAP1 POP JUMP JUMPDEST PUSH2 0x1B7D DUP1 PUSH2 0x1D8 PUSH0 CODECOPY PUSH0 RETURN INVALID PUSH1 0x80 PUSH1 0x40 MSTORE CALLVALUE DUP1 ISZERO PUSH2 0xF JUMPI PUSH0 PUSH0 REVERT JUMPDEST POP PUSH1 0x4 CALLDATASIZE LT PUSH2 0xCD JUMPI PUSH0 CALLDATALOAD PUSH1 0xE0 SHR DUP1 PUSH4 0x7ECF686D GT PUSH2 0x8A JUMPI DUP1 PUSH4 0x8DA5CB5B GT PUSH2 0x64 JUMPI DUP1 PUSH4 0x8DA5CB5B EQ PUSH2 0x1DB JUMPI DUP1 PUSH4 0x99D74C71 EQ PUSH2 0x1F9 JUMPI DUP1 PUSH4 0xBF0516F2 EQ PUSH2 0x217 JUMPI DUP1 PUSH4 0xE63AA8FB EQ PUSH2 0x235 JUMPI PUSH2 0xCD JUMP JUMPDEST DUP1 PUSH4 0x7ECF686D EQ PUSH2 0x16F JUMPI DUP1 PUSH4 0x82786199 EQ PUSH2 0x19F JUMPI DUP1 PUSH4 0x87DDE0BE EQ PUSH2 0x1BD JUMPI PUSH2 0xCD JUMP JUMPDEST DUP1 PUSH4 0xE7D490D EQ PUSH2 0xD1 JUMPI DUP1 PUSH4 0x4A39D442 EQ PUSH2 0xEF JUMPI DUP1 PUSH4 0x4D139763 EQ PUSH2 0x10D JUMPI DUP1 PUSH4 0x59A00A30 EQ PUSH2 0x12B JUMPI DUP1 PUSH4 0x6C6C32D0 EQ PUSH2 0x147 JUMPI DUP1 PUSH4 0x75F11DA1 EQ PUSH2 0x151 JUMPI JUMPDEST PUSH0 PUSH0 REVERT JUMPDEST PUSH2 0xD9 PUSH2 0x251 JUMP JUMPDEST PUSH1 0x40 MLOAD PUSH2 0xE6 SWAP2 SWAP1 PUSH2 0x10E5 JUMP JUMPDEST PUSH1 0x40 MLOAD DUP1 SWAP2 SUB SWAP1 RETURN JUMPDEST PUSH2 0xF7 PUSH2 0x257 JUMP JUMPDEST PUSH1 0x40 MLOAD PUSH2 0x104 SWAP2 SWAP1 PUSH2 0x1118 JUMP JUMPDEST PUSH1 0x40 MLOAD DUP1 SWAP2 SUB SWAP1 RETURN JUMPDEST PUSH2 0x115 PUSH2 0x269 JUMP JUMPDEST PUSH1 0x40 MLOAD PUSH2 0x122 SWAP2 SWAP1 PUSH2 0x10E5 JUMP JUMPDEST PUSH1 0x40 MLOAD DUP1 SWAP2 SUB SWAP1 RETURN JUMPDEST PUSH2 0x145 PUSH1 0x4 DUP1 CALLDATASIZE SUB DUP2 ADD SWAP1 PUSH2 0x140 SWAP2 SWAP1 PUSH2 0x119E JUMP JUMPDEST PUSH2 0x26F JUMP JUMPDEST STOP JUMPDEST PUSH2 0x14F PUSH2 0x877 JUMP JUMPDEST STOP JUMPDEST PUSH2 0x159 PUSH2 0x99A JUMP JUMPDEST PUSH1 0x40 MLOAD PUSH2 0x166 SWAP2 SWAP1 PUSH2 0x10E5 JUMP JUMPDEST PUSH1 0x40 MLOAD DUP1 SWAP2 SUB SWAP1 RETURN JUMPDEST PUSH2 0x189 PUSH1 0x4 DUP1 CALLDATASIZE SUB DUP2 ADD SWAP1 PUSH2 0x184 SWAP2 SWAP1 PUSH2 0x1239 JUMP JUMPDEST PUSH2 0x9A0 JUMP JUMPDEST PUSH1 0x40 MLOAD PUSH2 0x196 SWAP2 SWAP1 PUSH2 0x1118 JUMP JUMPDEST PUSH1 0x40 MLOAD DUP1 SWAP2 SUB SWAP1 RETURN JUMPDEST PUSH2 0x1A7 PUSH2 0x9BD JUMP JUMPDEST PUSH1 0x40 MLOAD PUSH2 0x1B4 SWAP2 SWAP1 PUSH2 0x10E5 JUMP JUMPDEST PUSH1 0x40 MLOAD DUP1 SWAP2 SUB SWAP1 RETURN JUMPDEST PUSH2 0x1C5 PUSH2 0x9C3 JUMP JUMPDEST PUSH1 0x40 MLOAD PUSH2 0x1D2 SWAP2 SWAP1 PUSH2 0x10E5 JUMP JUMPDEST PUSH1 0x40 MLOAD DUP1 SWAP2 SUB SWAP1 RETURN JUMPDEST PUSH2 0x1E3 PUSH2 0x9C9 JUMP JUMPDEST PUSH1 0x40 MLOAD PUSH2 0x1F0 SWAP2 SWAP1 PUSH2 0x12A3 JUMP JUMPDEST PUSH1 0x40 MLOAD DUP1 SWAP2 SUB SWAP1 RETURN JUMPDEST PUSH2 0x201 PUSH2 0x9ED JUMP JUMPDEST PUSH1 0x40 MLOAD PUSH2 0x20E SWAP2 SWAP1 PUSH2 0x1317 JUMP JUMPDEST PUSH1 0x40 MLOAD DUP1 SWAP2 SUB SWAP1 RETURN JUMPDEST PUSH2 0x21F PUSH2 0xA12 JUMP JUMPDEST PUSH1 0x40 MLOAD PUSH2 0x22C SWAP2 SWAP1 PUSH2 0x1317 JUMP JUMPDEST PUSH1 0x40 MLOAD DUP1 SWAP2 SUB SWAP1 RETURN JUMPDEST PUSH2 0x24F PUSH1 0x4 DUP1 CALLDATASIZE SUB DUP2 ADD SWAP1 PUSH2 0x24A SWAP2 SWAP1 PUSH2 0x135A JUMP JUMPDEST PUSH2 0xA37 JUMP JUMPDEST STOP JUMPDEST PUSH1 0x5 SLOAD DUP2 JUMP JUMPDEST PUSH0 PUSH1 0x14 SWAP1 SLOAD SWAP1 PUSH2 0x100 EXP SWAP1 DIV PUSH1 0xFF AND DUP2 JUMP JUMPDEST PUSH1 0x1 SLOAD DUP2 JUMP JUMPDEST PUSH2 0x277 PUSH2 0x10AA JUMP JUMPDEST DUP4 PUSH0 PUSH1 0x2 DUP2 LT PUSH2 0x28A JUMPI PUSH2 0x289 PUSH2 0x1399 JUMP JUMPDEST JUMPDEST PUSH1 0x20 MUL ADD CALLDATALOAD DUP2 PUSH0 PUSH1 0xC DUP2 LT PUSH2 0x2A2 JUMPI PUSH2 0x2A1 PUSH2 0x1399 JUMP JUMPDEST JUMPDEST PUSH1 0x20 MUL ADD DUP2 DUP2 MSTORE POP POP DUP4 PUSH1 0x1 PUSH1 0x2 DUP2 LT PUSH2 0x2BF JUMPI PUSH2 0x2BE PUSH2 0x1399 JUMP JUMPDEST JUMPDEST PUSH1 0x20 MUL ADD CALLDATALOAD DUP2 PUSH1 0x1 PUSH1 0xC DUP2 LT PUSH2 0x2D8 JUMPI PUSH2 0x2D7 PUSH2 0x1399 JUMP JUMPDEST JUMPDEST PUSH1 0x20 MUL ADD DUP2 DUP2 MSTORE POP POP DUP3 PUSH0 PUSH1 0x2 DUP2 LT PUSH2 0x2F4 JUMPI PUSH2 0x2F3 PUSH2 0x1399 JUMP JUMPDEST JUMPDEST PUSH1 0x20 MUL ADD CALLDATALOAD DUP2 PUSH1 0x2 PUSH1 0xC DUP2 LT PUSH2 0x30D JUMPI PUSH2 0x30C PUSH2 0x1399 JUMP JUMPDEST JUMPDEST PUSH1 0x20 MUL ADD DUP2 DUP2 MSTORE POP POP DUP3 PUSH1 0x1 PUSH1 0x2 DUP2 LT PUSH2 0x32A JUMPI PUSH2 0x329 PUSH2 0x1399 JUMP JUMPDEST JUMPDEST PUSH1 0x20 MUL ADD CALLDATALOAD DUP2 PUSH1 0x3 PUSH1 0xC DUP2 LT PUSH2 0x343 JUMPI PUSH2 0x342 PUSH2 0x1399 JUMP JUMPDEST JUMPDEST PUSH1 0x20 MUL ADD DUP2 DUP2 MSTORE POP POP DUP2 PUSH0 PUSH1 0x8 DUP2 LT PUSH2 0x35F JUMPI PUSH2 0x35E PUSH2 0x1399 JUMP JUMPDEST JUMPDEST PUSH1 0x20 MUL ADD PUSH1 0x20 DUP2 ADD SWAP1 PUSH2 0x372 SWAP2 SWAP1 PUSH2 0x13FF JUMP JUMPDEST PUSH4 0xFFFFFFFF AND DUP2 PUSH1 0x4 PUSH1 0xC DUP2 LT PUSH2 0x38C JUMPI PUSH2 0x38B PUSH2 0x1399 JUMP JUMPDEST JUMPDEST PUSH1 0x20 MUL ADD DUP2 DUP2 MSTORE POP POP DUP2 PUSH1 0x1 PUSH1 0x8 DUP2 LT PUSH2 0x3A9 JUMPI PUSH2 0x3A8 PUSH2 0x1399 JUMP JUMPDEST JUMPDEST PUSH1 0x20 MUL ADD PUSH1 0x20 DUP2 ADD SWAP1 PUSH2 0x3BC SWAP2 SWAP1 PUSH2 0x13FF JUMP JUMPDEST PUSH4 0xFFFFFFFF AND DUP2 PUSH1 0x5 PUSH1 0xC DUP2 LT PUSH2 0x3D6 JUMPI PUSH2 0x3D5 PUSH2 0x1399 JUMP JUMPDEST JUMPDEST PUSH1 0x20 MUL ADD DUP2 DUP2 MSTORE POP POP DUP2 PUSH1 0x2 PUSH1 0x8 DUP2 LT PUSH2 0x3F3 JUMPI PUSH2 0x3F2 PUSH2 0x1399 JUMP JUMPDEST JUMPDEST PUSH1 0x20 MUL ADD PUSH1 0x20 DUP2 ADD SWAP1 PUSH2 0x406 SWAP2 SWAP1 PUSH2 0x13FF JUMP JUMPDEST PUSH4 0xFFFFFFFF AND DUP2 PUSH1 0x6 PUSH1 0xC DUP2 LT PUSH2 0x420 JUMPI PUSH2 0x41F PUSH2 0x1399 JUMP JUMPDEST JUMPDEST PUSH1 0x20 MUL ADD DUP2 DUP2 MSTORE POP POP DUP2 PUSH1 0x3 PUSH1 0x8 DUP2 LT PUSH2 0x43D JUMPI PUSH2 0x43C PUSH2 0x1399 JUMP JUMPDEST JUMPDEST PUSH1 0x20 MUL ADD PUSH1 0x20 DUP2 ADD SWAP1 PUSH2 0x450 SWAP2 SWAP1 PUSH2 0x13FF JUMP JUMPDEST PUSH4 0xFFFFFFFF AND DUP2 PUSH1 0x7 PUSH1 0xC DUP2 LT PUSH2 0x46A JUMPI PUSH2 0x469 PUSH2 0x1399 JUMP JUMPDEST JUMPDEST PUSH1 0x20 MUL ADD DUP2 DUP2 MSTORE POP POP DUP2 PUSH1 0x4 PUSH1 0x8 DUP2 LT PUSH2 0x487 JUMPI PUSH2 0x486 PUSH2 0x1399 JUMP JUMPDEST JUMPDEST PUSH1 0x20 MUL ADD PUSH1 0x20 DUP2 ADD SWAP1 PUSH2 0x49A SWAP2 SWAP1 PUSH2 0x13FF JUMP JUMPDEST PUSH4 0xFFFFFFFF AND DUP2 PUSH1 0x8 PUSH1 0xC DUP2 LT PUSH2 0x4B4 JUMPI PUSH2 0x4B3 PUSH2 0x1399 JUMP JUMPDEST JUMPDEST PUSH1 0x20 MUL ADD DUP2 DUP2 MSTORE POP POP DUP2 PUSH1 0x5 PUSH1 0x8 DUP2 LT PUSH2 0x4D1 JUMPI PUSH2 0x4D0 PUSH2 0x1399 JUMP JUMPDEST JUMPDEST PUSH1 0x20 MUL ADD PUSH1 0x20 DUP2 ADD SWAP1 PUSH2 0x4E4 SWAP2 SWAP1 PUSH2 0x13FF JUMP JUMPDEST PUSH4 0xFFFFFFFF AND DUP2 PUSH1 0x9 PUSH1 0xC DUP2 LT PUSH2 0x4FE JUMPI PUSH2 0x4FD PUSH2 0x1399 JUMP JUMPDEST JUMPDEST PUSH1 0x20 MUL ADD DUP2 DUP2 MSTORE POP POP DUP2 PUSH1 0x6 PUSH1 0x8 DUP2 LT PUSH2 0x51B JUMPI PUSH2 0x51A PUSH2 0x1399 JUMP JUMPDEST JUMPDEST PUSH1 0x20 MUL ADD PUSH1 0x20 DUP2 ADD SWAP1 PUSH2 0x52E SWAP2 SWAP1 PUSH2 0x13FF JUMP JUMPDEST PUSH4 0xFFFFFFFF AND DUP2 PUSH1 0xA PUSH1 0xC DUP2 LT PUSH2 0x548 JUMPI PUSH2 0x547 PUSH2 0x1399 JUMP JUMPDEST JUMPDEST PUSH1 0x20 MUL ADD DUP2 DUP2 MSTORE POP POP DUP2 PUSH1 0x7 PUSH1 0x8 DUP2 LT PUSH2 0x565 JUMPI PUSH2 0x564 PUSH2 0x1399 JUMP JUMPDEST JUMPDEST PUSH1 0x20 MUL ADD PUSH1 0x20 DUP2 ADD SWAP1 PUSH2 0x578 SWAP2 SWAP1 PUSH2 0x13FF JUMP JUMPDEST PUSH4 0xFFFFFFFF AND DUP2 PUSH1 0xB PUSH1 0xC DUP2 LT PUSH2 0x592 JUMPI PUSH2 0x591 PUSH2 0x1399 JUMP JUMPDEST JUMPDEST PUSH1 0x20 MUL ADD DUP2 DUP2 MSTORE POP POP PUSH0 PUSH1 0x14 SWAP1 SLOAD SWAP1 PUSH2 0x100 EXP SWAP1 DIV PUSH1 0xFF AND PUSH2 0x5E9 JUMPI PUSH1 0x40 MLOAD PUSH32 0x8C379A000000000000000000000000000000000000000000000000000000000 DUP2 MSTORE PUSH1 0x4 ADD PUSH2 0x5E0 SWAP1 PUSH2 0x1484 JUMP JUMPDEST PUSH1 0x40 MLOAD DUP1 SWAP2 SUB SWAP1 REVERT JUMPDEST PUSH0 DUP3 PUSH1 0x40 MLOAD PUSH1 0x20 ADD PUSH2 0x5FB SWAP2 SWAP1 PUSH2 0x1565 JUMP JUMPDEST PUSH1 0x40 MLOAD PUSH1 0x20 DUP2 DUP4 SUB SUB DUP2 MSTORE SWAP1 PUSH1 0x40 MSTORE DUP1 MLOAD SWAP1 PUSH1 0x20 ADD KECCAK256 SWAP1 POP PUSH1 0x6 PUSH0 DUP3 DUP2 MSTORE PUSH1 0x20 ADD SWAP1 DUP2 MSTORE PUSH1 0x20 ADD PUSH0 KECCAK256 PUSH0 SWAP1 SLOAD SWAP1 PUSH2 0x100 EXP SWAP1 DIV PUSH1 0xFF AND ISZERO PUSH2 0x671 JUMPI PUSH1 0x40 MLOAD PUSH32 0x8C379A000000000000000000000000000000000000000000000000000000000 DUP2 MSTORE PUSH1 0x4 ADD PUSH2 0x668 SWAP1 PUSH2 0x15CA JUMP JUMPDEST PUSH1 0x40 MLOAD DUP1 SWAP2 SUB SWAP1 REVERT JUMPDEST PUSH0 PUSH1 0x7 PUSH0 SWAP1 SLOAD SWAP1 PUSH2 0x100 EXP SWAP1 DIV PUSH20 0xFFFFFFFFFFFFFFFFFFFFFFFFFFFFFFFFFFFFFFFF AND PUSH20 0xFFFFFFFFFFFFFFFFFFFFFFFFFFFFFFFFFFFFFFFF AND PUSH4 0x66670599 DUP9 DUP6 PUSH1 0x40 MLOAD DUP4 PUSH4 0xFFFFFFFF AND PUSH1 0xE0 SHL DUP2 MSTORE PUSH1 0x4 ADD PUSH2 0x6CE SWAP3 SWAP2 SWAP1 PUSH2 0x17AD JUMP JUMPDEST PUSH1 0x20 PUSH1 0x40 MLOAD DUP1 DUP4 SUB DUP2 DUP7 GAS STATICCALL ISZERO DUP1 ISZERO PUSH2 0x6E9 JUMPI RETURNDATASIZE PUSH0 PUSH0 RETURNDATACOPY RETURNDATASIZE PUSH0 REVERT JUMPDEST POP POP POP POP PUSH1 0x40 MLOAD RETURNDATASIZE PUSH1 0x1F NOT PUSH1 0x1F DUP3 ADD AND DUP3 ADD DUP1 PUSH1 0x40 MSTORE POP DUP2 ADD SWAP1 PUSH2 0x70D SWAP2 SWAP1 PUSH2 0x1800 JUMP JUMPDEST SWAP1 POP DUP1 PUSH2 0x74F JUMPI PUSH1 0x40 MLOAD PUSH32 0x8C379A000000000000000000000000000000000000000000000000000000000 DUP2 MSTORE PUSH1 0x4 ADD PUSH2 0x746 SWAP1 PUSH2 0x1875 JUMP JUMPDEST PUSH1 0x40 MLOAD DUP1 SWAP2 SUB SWAP1 REVERT JUMPDEST PUSH1 0x1 PUSH1 0x6 PUSH0 DUP5 DUP2 MSTORE PUSH1 0x20 ADD SWAP1 DUP2 MSTORE PUSH1 0x20 ADD PUSH0 KECCAK256 PUSH0 PUSH2 0x100 EXP DUP2 SLOAD DUP2 PUSH1 0xFF MUL NOT AND SWAP1 DUP4 ISZERO ISZERO MUL OR SWAP1 SSTORE POP PUSH2 0x7B7 PUSH1 0x1 SLOAD PUSH1 0x2 SLOAD DUP9 PUSH0 PUSH1 0x2 DUP2 LT PUSH2 0x794 JUMPI PUSH2 0x793 PUSH2 0x1399 JUMP JUMPDEST JUMPDEST PUSH1 0x20 MUL ADD CALLDATALOAD DUP10 PUSH1 0x1 PUSH1 0x2 DUP2 LT PUSH2 0x7AD JUMPI PUSH2 0x7AC PUSH2 0x1399 JUMP JUMPDEST JUMPDEST PUSH1 0x20 MUL ADD CALLDATALOAD PUSH2 0xCD4 JUMP JUMPDEST PUSH1 0x1 PUSH0 PUSH1 0x2 PUSH0 DUP5 SWAP2 SWAP1 POP SSTORE DUP4 SWAP2 SWAP1 POP SSTORE POP POP PUSH2 0x808 PUSH1 0x3 SLOAD PUSH1 0x4 SLOAD DUP8 PUSH0 PUSH1 0x2 DUP2 LT PUSH2 0x7E5 JUMPI PUSH2 0x7E4 PUSH2 0x1399 JUMP JUMPDEST JUMPDEST PUSH1 0x20 MUL ADD CALLDATALOAD DUP9 PUSH1 0x1 PUSH1 0x2 DUP2 LT PUSH2 0x7FE JUMPI PUSH2 0x7FD PUSH2 0x1399 JUMP JUMPDEST JUMPDEST PUSH1 0x20 MUL ADD CALLDATALOAD PUSH2 0xCD4 JUMP JUMPDEST PUSH1 0x3 PUSH0 PUSH1 0x4 PUSH0 DUP5 SWAP2 SWAP1 POP SSTORE DUP4 SWAP2 SWAP1 POP SSTORE POP POP PUSH1 0x1 PUSH1 0x5 PUSH0 DUP3 DUP3 SLOAD PUSH2 0x82C SWAP2 SWAP1 PUSH2 0x18C0 JUMP JUMPDEST SWAP3 POP POP DUP2 SWAP1 SSTORE POP PUSH32 0xEC3373933D5241831A4FB1607A10C99CC2D1A609F099FF1987CE2C1884D05284 DUP7 DUP7 DUP5 PUSH1 0x40 MLOAD PUSH2 0x866 SWAP4 SWAP3 SWAP2 SWAP1 PUSH2 0x1912 JUMP JUMPDEST PUSH1 0x40 MLOAD DUP1 SWAP2 SUB SWAP1 LOG1 POP POP POP POP POP POP POP JUMP JUMPDEST PUSH0 PUSH0 SWAP1 SLOAD SWAP1 PUSH2 0x100 EXP SWAP1 DIV PUSH20 0xFFFFFFFFFFFFFFFFFFFFFFFFFFFFFFFFFFFFFFFF AND PUSH20 0xFFFFFFFFFFFFFFFFFFFFFFFFFFFFFFFFFFFFFFFF AND CALLER PUSH20 0xFFFFFFFFFFFFFFFFFFFFFFFFFFFFFFFFFFFFFFFF AND EQ PUSH2 0x905 JUMPI PUSH1 0x40 MLOAD PUSH32 0x8C379A000000000000000000000000000000000000000000000000000000000 DUP2 MSTORE PUSH1 0x4 ADD PUSH2 0x8FC SWAP1 PUSH2 0x1991 JUMP JUMPDEST PUSH1 0x40 MLOAD DUP1 SWAP2 SUB SWAP1 REVERT JUMPDEST PUSH0 PUSH1 0x14 SWAP1 SLOAD SWAP1 PUSH2 0x100 EXP SWAP1 DIV PUSH1 0xFF AND PUSH2 0x953 JUMPI PUSH1 0x40 MLOAD PUSH32 0x8C379A000000000000000000000000000000000000000000000000000000000 DUP2 MSTORE PUSH1 0x4 ADD PUSH2 0x94A SWAP1 PUSH2 0x19F9 JUMP JUMPDEST PUSH1 0x40 MLOAD DUP1 SWAP2 SUB SWAP1 REVERT JUMPDEST PUSH0 PUSH0 PUSH1 0x14 PUSH2 0x100 EXP DUP2 SLOAD DUP2 PUSH1 0xFF MUL NOT AND SWAP1 DUP4 ISZERO ISZERO MUL OR SWAP1 SSTORE POP PUSH32 0xA549B9ADDFC3693A1863AC5B0B13C42960D78DF554C01EA6AC72A7DB985DF0CF PUSH1 0x40 MLOAD PUSH1 0x40 MLOAD DUP1 SWAP2 SUB SWAP1 LOG1 JUMP JUMPDEST PUSH1 0x2 SLOAD DUP2 JUMP JUMPDEST PUSH1 0x6 PUSH1 0x20 MSTORE DUP1 PUSH0 MSTORE PUSH1 0x40 PUSH0 KECCAK256 PUSH0 SWAP2 POP SLOAD SWAP1 PUSH2 0x100 EXP SWAP1 DIV PUSH1 0xFF AND DUP2 JUMP JUMPDEST PUSH1 0x3 SLOAD DUP2 JUMP JUMPDEST PUSH1 0x4 SLOAD DUP2 JUMP JUMPDEST PUSH0 PUSH0 SWAP1 SLOAD SWAP1 PUSH2 0x100 EXP SWAP1 DIV PUSH20 0xFFFFFFFFFFFFFFFFFFFFFFFFFFFFFFFFFFFFFFFF AND DUP2 JUMP JUMPDEST PUSH1 0x7 PUSH0 SWAP1 SLOAD SWAP1 PUSH2 0x100 EXP SWAP1 DIV PUSH20 0xFFFFFFFFFFFFFFFFFFFFFFFFFFFFFFFFFFFFFFFF AND DUP2 JUMP JUMPDEST PUSH1 0x8 PUSH0 SWAP1 SLOAD SWAP1 PUSH2 0x100 EXP SWAP1 DIV PUSH20 0xFFFFFFFFFFFFFFFFFFFFFFFFFFFFFFFFFFFFFFFF AND DUP2 JUMP JUMPDEST PUSH0 PUSH0 SWAP1 SLOAD SWAP1 PUSH2 0x100 EXP SWAP1 DIV PUSH20 0xFFFFFFFFFFFFFFFFFFFFFFFFFFFFFFFFFFFFFFFF AND PUSH20 0xFFFFFFFFFFFFFFFFFFFFFFFFFFFFFFFFFFFFFFFF AND CALLER PUSH20 0xFFFFFFFFFFFFFFFFFFFFFFFFFFFFFFFFFFFFFFFF AND EQ PUSH2 0xAC5 JUMPI PUSH1 0x40 MLOAD PUSH32 0x8C379A000000000000000000000000000000000000000000000000000000000 DUP2 MSTORE PUSH1 0x4 ADD PUSH2 0xABC SWAP1 PUSH2 0x1991 JUMP JUMPDEST PUSH1 0x40 MLOAD DUP1 SWAP2 SUB SWAP1 REVERT JUMPDEST PUSH0 PUSH1 0x14 SWAP1 SLOAD SWAP1 PUSH2 0x100 EXP SWAP1 DIV PUSH1 0xFF AND ISZERO PUSH2 0xB14 JUMPI PUSH1 0x40 MLOAD PUSH32 0x8C379A000000000000000000000000000000000000000000000000000000000 DUP2 MSTORE PUSH1 0x4 ADD PUSH2 0xB0B SWAP1 PUSH2 0x1A61 JUMP JUMPDEST PUSH1 0x40 MLOAD DUP1 SWAP2 SUB SWAP1 REVERT JUMPDEST PUSH2 0xB1C PUSH2 0x10AA JUMP JUMPDEST PUSH1 0x1 SLOAD DUP2 PUSH0 PUSH1 0xC DUP2 LT PUSH2 0xB32 JUMPI PUSH2 0xB31 PUSH2 0x1399 JUMP JUMPDEST JUMPDEST PUSH1 0x20 MUL ADD DUP2 DUP2 MSTORE POP POP PUSH1 0x2 SLOAD DUP2 PUSH1 0x1 PUSH1 0xC DUP2 LT PUSH2 0xB52 JUMPI PUSH2 0xB51 PUSH2 0x1399 JUMP JUMPDEST JUMPDEST PUSH1 0x20 MUL ADD DUP2 DUP2 MSTORE POP POP PUSH1 0x3 SLOAD DUP2 PUSH1 0x2 PUSH1 0xC DUP2 LT PUSH2 0xB72 JUMPI PUSH2 0xB71 PUSH2 0x1399 JUMP JUMPDEST JUMPDEST PUSH1 0x20 MUL ADD DUP2 DUP2 MSTORE POP POP PUSH1 0x4 SLOAD DUP2 PUSH1 0x3 PUSH1 0xC DUP2 LT PUSH2 0xB92 JUMPI PUSH2 0xB91 PUSH2 0x1399 JUMP JUMPDEST JUMPDEST PUSH1 0x20 MUL ADD DUP2 DUP2 MSTORE POP POP DUP3 DUP2 PUSH1 0x4 PUSH1 0xC DUP2 LT PUSH2 0xBB0 JUMPI PUSH2 0xBAF PUSH2 0x1399 JUMP JUMPDEST JUMPDEST PUSH1 0x20 MUL ADD DUP2 DUP2 MSTORE POP POP PUSH0 PUSH1 0x8 PUSH0 SWAP1 SLOAD SWAP1 PUSH2 0x100 EXP SWAP1 DIV PUSH20 0xFFFFFFFFFFFFFFFFFFFFFFFFFFFFFFFFFFFFFFFF AND PUSH20 0xFFFFFFFFFFFFFFFFFFFFFFFFFFFFFFFFFFFFFFFF AND PUSH4 0x66670599 DUP5 DUP5 PUSH1 0x40 MLOAD DUP4 PUSH4 0xFFFFFFFF AND PUSH1 0xE0 SHL DUP2 MSTORE PUSH1 0x4 ADD PUSH2 0xC16 SWAP3 SWAP2 SWAP1 PUSH2 0x17AD JUMP JUMPDEST PUSH1 0x20 PUSH1 0x40 MLOAD DUP1 DUP4 SUB DUP2 DUP7 GAS STATICCALL ISZERO DUP1 ISZERO PUSH2 0xC31 JUMPI RETURNDATASIZE PUSH0 PUSH0 RETURNDATACOPY RETURNDATASIZE PUSH0 REVERT JUMPDEST POP POP POP POP PUSH1 0x40 MLOAD RETURNDATASIZE PUSH1 0x1F NOT PUSH1 0x1F DUP3 ADD AND DUP3 ADD DUP1 PUSH1 0x40 MSTORE POP DUP2 ADD SWAP1 PUSH2 0xC55 SWAP2 SWAP1 PUSH2 0x1800 JUMP JUMPDEST SWAP1 POP DUP1 PUSH2 0xC97 JUMPI PUSH1 0x40 MLOAD PUSH32 0x8C379A000000000000000000000000000000000000000000000000000000000 DUP2 MSTORE PUSH1 0x4 ADD PUSH2 0xC8E SWAP1 PUSH2 0x1AC9 JUMP JUMPDEST PUSH1 0x40 MLOAD DUP1 SWAP2 SUB SWAP1 REVERT JUMPDEST PUSH32 0xEE088BCC4C9BBD048C9C087916EC26AAE94E63151610AF8167078EF170E5AE60 DUP5 PUSH1 0x40 MLOAD PUSH2 0xCC6 SWAP2 SWAP1 PUSH2 0x10E5 JUMP JUMPDEST PUSH1 0x40 MLOAD DUP1 SWAP2 SUB SWAP1 LOG1 POP POP POP POP JUMP JUMPDEST PUSH0 PUSH0 PUSH0 DUP7 EQ DUP1 ISZERO PUSH2 0xCE4 JUMPI POP PUSH0 DUP6 EQ JUMPDEST ISZERO PUSH2 0xCF4 JUMPI DUP4 DUP4 SWAP2 POP SWAP2 POP PUSH2 0xFB9 JUMP JUMPDEST PUSH0 DUP5 EQ DUP1 ISZERO PUSH2 0xD02 JUMPI POP PUSH0 DUP6 EQ JUMPDEST ISZERO PUSH2 0xD12 JUMPI DUP6 DUP6 SWAP2 POP SWAP2 POP PUSH2 0xFB9 JUMP JUMPDEST PUSH0 PUSH32 0x30644E72E131A029B85045B68181585D2833E84879B9709143E1F593F0000001 DUP1 PUSH2 0xD42 JUMPI PUSH2 0xD41 PUSH2 0x1AE7 JUMP JUMPDEST JUMPDEST DUP6 DUP9 MULMOD SWAP1 POP PUSH0 PUSH32 0x30644E72E131A029B85045B68181585D2833E84879B9709143E1F593F0000001 DUP1 PUSH2 0xD77 JUMPI PUSH2 0xD76 PUSH2 0x1AE7 JUMP JUMPDEST JUMPDEST DUP6 DUP9 MULMOD SWAP1 POP PUSH0 PUSH32 0x30644E72E131A029B85045B68181585D2833E84879B9709143E1F593F0000001 DUP1 PUSH2 0xDAC JUMPI PUSH2 0xDAB PUSH2 0x1AE7 JUMP JUMPDEST JUMPDEST PUSH32 0x30644E72E131A029B85045B68181585D2833E84879B9709143E1F593F0000001 DUP1 PUSH2 0xDDB JUMPI PUSH2 0xDDA PUSH2 0x1AE7 JUMP JUMPDEST JUMPDEST DUP4 DUP6 MULMOD PUSH3 0x292F8 MULMOD SWAP1 POP PUSH0 PUSH32 0x30644E72E131A029B85045B68181585D2833E84879B9709143E1F593F0000001 DUP1 PUSH2 0xE15 JUMPI PUSH2 0xE14 PUSH2 0x1AE7 JUMP JUMPDEST JUMPDEST PUSH32 0x30644E72E131A029B85045B68181585D2833E84879B9709143E1F593F0000001 DUP1 PUSH2 0xE44 JUMPI PUSH2 0xE43 PUSH2 0x1AE7 JUMP JUMPDEST JUMPDEST DUP10 DUP12 MULMOD PUSH32 0x30644E72E131A029B85045B68181585D2833E84879B9709143E1F593F0000001 DUP1 PUSH2 0xE76 JUMPI PUSH2 0xE75 PUSH2 0x1AE7 JUMP JUMPDEST JUMPDEST DUP10 DUP14 MULMOD ADDMOD SWAP1 POP PUSH0 PUSH2 0xEDC DUP5 PUSH32 0x30644E72E131A029B85045B68181585D2833E84879B9709143E1F593F0000001 DUP1 PUSH2 0xEB0 JUMPI PUSH2 0xEAF PUSH2 0x1AE7 JUMP JUMPDEST JUMPDEST DUP8 PUSH3 0x292FC MULMOD PUSH32 0x30644E72E131A029B85045B68181585D2833E84879B9709143E1F593F0000001 PUSH2 0xFC2 JUMP JUMPDEST SWAP1 POP PUSH32 0x30644E72E131A029B85045B68181585D2833E84879B9709143E1F593F0000001 DUP1 PUSH2 0xF0D JUMPI PUSH2 0xF0C PUSH2 0x1AE7 JUMP JUMPDEST JUMPDEST PUSH2 0xF48 PUSH32 0x30644E72E131A029B85045B68181585D2833E84879B9709143E1F593F0000001 DUP1 PUSH2 0xF3F JUMPI PUSH2 0xF3E PUSH2 0x1AE7 JUMP JUMPDEST JUMPDEST DUP6 PUSH1 0x1 ADDMOD PUSH2 0x1004 JUMP JUMPDEST DUP4 MULMOD SWAP7 POP PUSH32 0x30644E72E131A029B85045B68181585D2833E84879B9709143E1F593F0000001 DUP1 PUSH2 0xF7B JUMPI PUSH2 0xF7A PUSH2 0x1AE7 JUMP JUMPDEST JUMPDEST PUSH2 0xFAF PUSH2 0xFAA PUSH1 0x1 DUP7 PUSH32 0x30644E72E131A029B85045B68181585D2833E84879B9709143E1F593F0000001 PUSH2 0xFC2 JUMP JUMPDEST PUSH2 0x1004 JUMP JUMPDEST DUP3 MULMOD SWAP6 POP POP POP POP POP POP JUMPDEST SWAP5 POP SWAP5 SWAP3 POP POP POP JUMP JUMPDEST PUSH0 PUSH0 DUP5 SWAP1 POP DUP4 DUP6 GT PUSH2 0xFDD JUMPI DUP3 DUP2 PUSH2 0xFDA SWAP2 SWAP1 PUSH2 0x18C0 JUMP JUMPDEST SWAP1 POP JUMPDEST DUP3 DUP1 PUSH2 0xFEC JUMPI PUSH2 0xFEB PUSH2 0x1AE7 JUMP JUMPDEST JUMPDEST PUSH0 DUP6 DUP4 PUSH2 0xFF9 SWAP2 SWAP1 PUSH2 0x1B14 JUMP JUMPDEST ADDMOD SWAP2 POP POP SWAP4 SWAP3 POP POP POP JUMP JUMPDEST PUSH0 PUSH2 0x105C DUP3 PUSH1 0x2 PUSH32 0x30644E72E131A029B85045B68181585D2833E84879B9709143E1F593F0000001 PUSH2 0x1036 SWAP2 SWAP1 PUSH2 0x1B14 JUMP JUMPDEST PUSH32 0x30644E72E131A029B85045B68181585D2833E84879B9709143E1F593F0000001 PUSH2 0x1063 JUMP JUMPDEST SWAP1 POP SWAP2 SWAP1 POP JUMP JUMPDEST PUSH0 PUSH1 0x40 MLOAD PUSH1 0x20 DUP2 MSTORE PUSH1 0x20 DUP1 DUP3 ADD MSTORE PUSH1 0x20 PUSH1 0x40 DUP3 ADD MSTORE DUP5 PUSH1 0x60 DUP3 ADD MSTORE DUP4 PUSH1 0x80 DUP3 ADD MSTORE DUP3 PUSH1 0xA0 DUP3 ADD MSTORE PUSH1 0x20 DUP2 PUSH1 0xC0 DUP4 PUSH1 0x5 GAS STATICCALL DUP1 PUSH2 0x109D JUMPI PUSH0 PUSH0 REVERT JUMPDEST DUP2 MLOAD SWAP3 POP POP POP SWAP4 SWAP3 POP POP POP JUMP JUMPDEST PUSH1 0x40 MLOAD DUP1 PUSH2 0x180 ADD PUSH1 0x40 MSTORE DUP1 PUSH1 0xC SWAP1 PUSH1 0x20 DUP3 MUL DUP1 CALLDATASIZE DUP4 CALLDATACOPY DUP1 DUP3 ADD SWAP2 POP POP SWAP1 POP POP SWAP1 JUMP JUMPDEST PUSH0 DUP2 SWAP1 POP SWAP2 SWAP1 POP JUMP JUMPDEST PUSH2 0x10DF DUP2 PUSH2 0x10CD JUMP JUMPDEST DUP3 MSTORE POP POP JUMP JUMPDEST PUSH0 PUSH1 0x20 DUP3 ADD SWAP1 POP PUSH2 0x10F8 PUSH0 DUP4 ADD DUP5 PUSH2 0x10D6 JUMP JUMPDEST SWAP3 SWAP2 POP POP JUMP JUMPDEST PUSH0 DUP2 ISZERO ISZERO SWAP1 POP SWAP2 SWAP1 POP JUMP JUMPDEST PUSH2 0x1112 DUP2 PUSH2 0x10FE JUMP JUMPDEST DUP3 MSTORE POP POP JUMP JUMPDEST PUSH0 PUSH1 0x20 DUP3 ADD SWAP1 POP PUSH2 0x112B PUSH0 DUP4 ADD DUP5 PUSH2 0x1109 JUMP JUMPDEST SWAP3 SWAP2 POP POP JUMP JUMPDEST PUSH0 PUSH0 REVERT JUMPDEST PUSH0 PUSH0 REVERT JUMPDEST PUSH0 PUSH2 0x100 DUP3 DUP5 SUB SLT ISZERO PUSH2 0x114F JUMPI PUSH2 0x114E PUSH2 0x1135 JUMP JUMPDEST JUMPDEST DUP2 SWAP1 POP SWAP3 SWAP2 POP POP JUMP JUMPDEST PUSH0 PUSH0 REVERT JUMPDEST PUSH0 DUP2 SWAP1 POP DUP3 PUSH1 0x20 PUSH1 0x2 MUL DUP3 ADD GT ISZERO PUSH2 0x1177 JUMPI PUSH2 0x1176 PUSH2 0x1158 JUMP JUMPDEST JUMPDEST SWAP3 SWAP2 POP POP JUMP JUMPDEST PUSH0 DUP2 SWAP1 POP DUP3 PUSH1 0x20 PUSH1 0x8 MUL DUP3 ADD GT ISZERO PUSH2 0x1198 JUMPI PUSH2 0x1197 PUSH2 0x1158 JUMP JUMPDEST JUMPDEST SWAP3 SWAP2 POP POP JUMP JUMPDEST PUSH0 PUSH0 PUSH0 PUSH0 PUSH2 0x280 DUP6 DUP8 SUB SLT ISZERO PUSH2 0x11B7 JUMPI PUSH2 0x11B6 PUSH2 0x1131 JUMP JUMPDEST JUMPDEST PUSH0 PUSH2 0x11C4 DUP8 DUP3 DUP9 ADD PUSH2 0x1139 JUMP JUMPDEST SWAP5 POP POP PUSH2 0x100 PUSH2 0x11D6 DUP8 DUP3 DUP9 ADD PUSH2 0x115C JUMP JUMPDEST SWAP4 POP POP PUSH2 0x140 PUSH2 0x11E8 DUP8 DUP3 DUP9 ADD PUSH2 0x115C JUMP JUMPDEST SWAP3 POP POP PUSH2 0x180 PUSH2 0x11FA DUP8 DUP3 DUP9 ADD PUSH2 0x117D JUMP JUMPDEST SWAP2 POP POP SWAP3 SWAP6 SWAP2 SWAP5 POP SWAP3 POP JUMP JUMPDEST PUSH0 DUP2 SWAP1 POP SWAP2 SWAP1 POP JUMP JUMPDEST PUSH2 0x1218 DUP2 PUSH2 0x1206 JUMP JUMPDEST DUP2 EQ PUSH2 0x1222 JUMPI PUSH0 PUSH0 REVERT JUMPDEST POP JUMP JUMPDEST PUSH0 DUP2 CALLDATALOAD SWAP1 POP PUSH2 0x1233 DUP2 PUSH2 0x120F JUMP JUMPDEST SWAP3 SWAP2 POP POP JUMP JUMPDEST PUSH0 PUSH1 0x20 DUP3 DUP5 SUB SLT ISZERO PUSH2 0x124E JUMPI PUSH2 0x124D PUSH2 0x1131 JUMP JUMPDEST JUMPDEST PUSH0 PUSH2 0x125B DUP5 DUP3 DUP6 ADD PUSH2 0x1225 JUMP JUMPDEST SWAP2 POP POP SWAP3 SWAP2 POP POP JUMP JUMPDEST PUSH0 PUSH20 0xFFFFFFFFFFFFFFFFFFFFFFFFFFFFFFFFFFFFFFFF DUP3 AND SWAP1 POP SWAP2 SWAP1 POP JUMP JUMPDEST PUSH0 PUSH2 0x128D DUP3 PUSH2 0x1264 JUMP JUMPDEST SWAP1 POP SWAP2 SWAP1 POP JUMP JUMPDEST PUSH2 0x129D DUP2 PUSH2 0x1283 JUMP JUMPDEST DUP3 MSTORE POP POP JUMP JUMPDEST PUSH0 PUSH1 0x20 DUP3 ADD SWAP1 POP PUSH2 0x12B6 PUSH0 DUP4 ADD DUP5 PUSH2 0x1294 JUMP JUMPDEST SWAP3 SWAP2 POP POP JUMP JUMPDEST PUSH0 DUP2 SWAP1 POP SWAP2 SWAP1 POP JUMP JUMPDEST PUSH0 PUSH2 0x12DF PUSH2 0x12DA PUSH2 0x12D5 DUP5 PUSH2 0x1264 JUMP JUMPDEST PUSH2 0x12BC JUMP JUMPDEST PUSH2 0x1264 JUMP JUMPDEST SWAP1 POP SWAP2 SWAP1 POP JUMP JUMPDEST PUSH0 PUSH2 0x12F0 DUP3 PUSH2 0x12C5 JUMP JUMPDEST SWAP1 POP SWAP2 SWAP1 POP JUMP JUMPDEST PUSH0 PUSH2 0x1301 DUP3 PUSH2 0x12E6 JUMP JUMPDEST SWAP1 POP SWAP2 SWAP1 POP JUMP JUMPDEST PUSH2 0x1311 DUP2 PUSH2 0x12F7 JUMP JUMPDEST DUP3 MSTORE POP POP JUMP JUMPDEST PUSH0 PUSH1 0x20 DUP3 ADD SWAP1 POP PUSH2 0x132A PUSH0 DUP4 ADD DUP5 PUSH2 0x1308 JUMP JUMPDEST SWAP3 SWAP2 POP POP JUMP JUMPDEST PUSH2 0x1339 DUP2 PUSH2 0x10CD JUMP JUMPDEST DUP2 EQ PUSH2 0x1343 JUMPI PUSH0 PUSH0 REVERT JUMPDEST POP JUMP JUMPDEST PUSH0 DUP2 CALLDATALOAD SWAP1 POP PUSH2 0x1354 DUP2 PUSH2 0x1330 JUMP JUMPDEST SWAP3 SWAP2 POP POP JUMP JUMPDEST PUSH0 PUSH0 PUSH2 0x120 DUP4 DUP6 SUB SLT ISZERO PUSH2 0x1371 JUMPI PUSH2 0x1370 PUSH2 0x1131 JUMP JUMPDEST JUMPDEST PUSH0 PUSH2 0x137E DUP6 DUP3 DUP7 ADD PUSH2 0x1346 JUMP JUMPDEST SWAP3 POP POP PUSH1 0x20 PUSH2 0x138F DUP6 DUP3 DUP7 ADD PUSH2 0x1139 JUMP JUMPDEST SWAP2 POP POP SWAP3 POP SWAP3 SWAP1 POP JUMP JUMPDEST PUSH32 0x4E487B7100000000000000000000000000000000000000000000000000000000 PUSH0 MSTORE PUSH1 0x32 PUSH1 0x4 MSTORE PUSH1 0x24 PUSH0 REVERT JUMPDEST PUSH0 PUSH4 0xFFFFFFFF DUP3 AND SWAP1 POP SWAP2 SWAP1 POP JUMP JUMPDEST PUSH2 0x13DE DUP2 PUSH2 0x13C6 JUMP JUMPDEST DUP2 EQ PUSH2 0x13E8 JUMPI PUSH0 PUSH0 REVERT JUMPDEST POP JUMP JUMPDEST PUSH0 DUP2 CALLDATALOAD SWAP1 POP PUSH2 0x13F9 DUP2 PUSH2 0x13D5 JUMP JUMPDEST SWAP3 SWAP2 POP POP JUMP JUMPDEST PUSH0 PUSH1 0x20 DUP3 DUP5 SUB SLT ISZERO PUSH2 0x1414 JUMPI PUSH2 0x1413 PUSH2 0x1131 JUMP JUMPDEST JUMPDEST PUSH0 PUSH2 0x1421 DUP5 DUP3 DUP6 ADD PUSH2 0x13EB JUMP JUMPDEST SWAP2 POP POP SWAP3 SWAP2 POP POP JUMP JUMPDEST PUSH0 DUP3 DUP3 MSTORE PUSH1 0x20 DUP3 ADD SWAP1 POP SWAP3 SWAP2 POP POP JUMP JUMPDEST PUSH32 0x456C656374696F6E20636C6F7365640000000000000000000000000000000000 PUSH0 DUP3 ADD MSTORE POP JUMP JUMPDEST PUSH0 PUSH2 0x146E PUSH1 0xF DUP4 PUSH2 0x142A JUMP JUMPDEST SWAP2 POP PUSH2 0x1479 DUP3 PUSH2 0x143A JUMP JUMPDEST PUSH1 0x20 DUP3 ADD SWAP1 POP SWAP2 SWAP1 POP JUMP JUMPDEST PUSH0 PUSH1 0x20 DUP3 ADD SWAP1 POP DUP2 DUP2 SUB PUSH0 DUP4 ADD MSTORE PUSH2 0x149B DUP2 PUSH2 0x1462 JUMP JUMPDEST SWAP1 POP SWAP2 SWAP1 POP JUMP JUMPDEST PUSH0 PUSH1 0x8 SWAP1 POP SWAP2 SWAP1 POP JUMP JUMPDEST PUSH0 DUP2 SWAP1 POP SWAP3 SWAP2 POP POP JUMP JUMPDEST PUSH0 DUP2 SWAP1 POP SWAP2 SWAP1 POP JUMP JUMPDEST PUSH2 0x14C8 DUP2 PUSH2 0x13C6 JUMP JUMPDEST DUP3 MSTORE POP POP JUMP JUMPDEST PUSH0 PUSH2 0x14D9 DUP4 DUP4 PUSH2 0x14BF JUMP JUMPDEST PUSH1 0x20 DUP4 ADD SWAP1 POP SWAP3 SWAP2 POP POP JUMP JUMPDEST PUSH0 PUSH2 0x14F3 PUSH1 0x20 DUP5 ADD DUP5 PUSH2 0x13EB JUMP JUMPDEST SWAP1 POP SWAP3 SWAP2 POP POP JUMP JUMPDEST PUSH0 PUSH1 0x20 DUP3 ADD SWAP1 POP SWAP2 SWAP1 POP JUMP JUMPDEST PUSH2 0x1510 DUP2 PUSH2 0x14A2 JUMP JUMPDEST PUSH2 0x151A DUP2 DUP5 PUSH2 0x14AC JUMP JUMPDEST SWAP3 POP PUSH2 0x1525 DUP3 PUSH2 0x14B6 JUMP JUMPDEST DUP1 PUSH0 JUMPDEST DUP4 DUP2 LT ISZERO PUSH2 0x155D JUMPI PUSH2 0x153A DUP3 DUP5 PUSH2 0x14E5 JUMP JUMPDEST PUSH2 0x1544 DUP8 DUP3 PUSH2 0x14CE JUMP JUMPDEST SWAP7 POP PUSH2 0x154F DUP4 PUSH2 0x14FB JUMP JUMPDEST SWAP3 POP POP PUSH1 0x1 DUP2 ADD SWAP1 POP PUSH2 0x1528 JUMP JUMPDEST POP POP POP POP POP POP JUMP JUMPDEST PUSH0 PUSH2 0x1570 DUP3 DUP5 PUSH2 0x1507 JUMP JUMPDEST PUSH2 0x100 DUP3 ADD SWAP2 POP DUP2 SWAP1 POP SWAP3 SWAP2 POP POP JUMP JUMPDEST PUSH32 0x4E756C6C696669657220616C7265616479207573656400000000000000000000 PUSH0 DUP3 ADD MSTORE POP JUMP JUMPDEST PUSH0 PUSH2 0x15B4 PUSH1 0x16 DUP4 PUSH2 0x142A JUMP JUMPDEST SWAP2 POP PUSH2 0x15BF DUP3 PUSH2 0x1580 JUMP JUMPDEST PUSH1 0x20 DUP3 ADD SWAP1 POP SWAP2 SWAP1 POP JUMP JUMPDEST PUSH0 PUSH1 0x20 DUP3 ADD SWAP1 POP DUP2 DUP2 SUB PUSH0 DUP4 ADD MSTORE PUSH2 0x15E1 DUP2 PUSH2 0x15A8 JUMP JUMPDEST SWAP1 POP SWAP2 SWAP1 POP JUMP JUMPDEST PUSH0 DUP3 SWAP1 POP SWAP3 SWAP2 POP POP JUMP JUMPDEST PUSH0 PUSH2 0x1600 PUSH1 0x20 DUP5 ADD DUP5 PUSH2 0x1346 JUMP JUMPDEST SWAP1 POP SWAP3 SWAP2 POP POP JUMP JUMPDEST PUSH2 0x1611 DUP2 PUSH2 0x10CD JUMP JUMPDEST DUP3 MSTORE POP POP JUMP JUMPDEST PUSH1 0x40 DUP3 ADD PUSH2 0x1627 PUSH0 DUP4 ADD DUP4 PUSH2 0x15F2 JUMP JUMPDEST PUSH2 0x1633 PUSH0 DUP6 ADD DUP3 PUSH2 0x1608 JUMP JUMPDEST POP PUSH2 0x1641 PUSH1 0x20 DUP4 ADD DUP4 PUSH2 0x15F2 JUMP JUMPDEST PUSH2 0x164E PUSH1 0x20 DUP6 ADD DUP3 PUSH2 0x1608 JUMP JUMPDEST POP POP POP POP JUMP JUMPDEST PUSH0 DUP3 SWAP1 POP SWAP3 SWAP2 POP POP JUMP JUMPDEST PUSH0 DUP3 SWAP1 POP SWAP3 SWAP2 POP POP JUMP JUMPDEST DUP3 DUP2 DUP4 CALLDATACOPY POP POP POP JUMP JUMPDEST PUSH2 0x167D PUSH1 0x40 DUP4 DUP4 PUSH2 0x1668 JUMP JUMPDEST POP POP JUMP JUMPDEST PUSH1 0x80 DUP3 ADD PUSH2 0x1691 PUSH0 DUP4 ADD DUP4 PUSH2 0x165E JUMP JUMPDEST PUSH2 0x169D PUSH0 DUP6 ADD DUP3 PUSH2 0x1671 JUMP JUMPDEST POP PUSH2 0x16AB PUSH1 0x40 DUP4 ADD DUP4 PUSH2 0x165E JUMP JUMPDEST PUSH2 0x16B8 PUSH1 0x40 DUP6 ADD DUP3 PUSH2 0x1671 JUMP JUMPDEST POP POP POP POP JUMP JUMPDEST PUSH2 0x100 DUP3 ADD PUSH2 0x16CF PUSH0 DUP4 ADD DUP4 PUSH2 0x15E8 JUMP JUMPDEST PUSH2 0x16DB PUSH0 DUP6 ADD DUP3 PUSH2 0x1617 JUMP JUMPDEST POP PUSH2 0x16E9 PUSH1 0x40 DUP4 ADD DUP4 PUSH2 0x1654 JUMP JUMPDEST PUSH2 0x16F6 PUSH1 0x40 DUP6 ADD DUP3 PUSH2 0x1681 JUMP JUMPDEST POP PUSH2 0x1704 PUSH1 0xC0 DUP4 ADD DUP4 PUSH2 0x15E8 JUMP JUMPDEST PUSH2 0x1711 PUSH1 0xC0 DUP6 ADD DUP3 PUSH2 0x1617 JUMP JUMPDEST POP POP POP POP JUMP JUMPDEST PUSH0 PUSH1 0xC SWAP1 POP SWAP2 SWAP1 POP JUMP JUMPDEST PUSH0 DUP2 SWAP1 POP SWAP3 SWAP2 POP POP JUMP JUMPDEST PUSH0 DUP2 SWAP1 POP SWAP2 SWAP1 POP JUMP JUMPDEST PUSH0 PUSH2 0x173F DUP4 DUP4 PUSH2 0x1608 JUMP JUMPDEST PUSH1 0x20 DUP4 ADD SWAP1 POP SWAP3 SWAP2 POP POP JUMP JUMPDEST PUSH0 PUSH1 0x20 DUP3 ADD SWAP1 POP SWAP2 SWAP1 POP JUMP JUMPDEST PUSH2 0x1760 DUP2 PUSH2 0x1717 JUMP JUMPDEST PUSH2 0x176A DUP2 DUP5 PUSH2 0x1721 JUMP JUMPDEST SWAP3 POP PUSH2 0x1775 DUP3 PUSH2 0x172B JUMP JUMPDEST DUP1 PUSH0 JUMPDEST DUP4 DUP2 LT ISZERO PUSH2 0x17A5 JUMPI DUP2 MLOAD PUSH2 0x178C DUP8 DUP3 PUSH2 0x1734 JUMP JUMPDEST SWAP7 POP PUSH2 0x1797 DUP4 PUSH2 0x174B JUMP JUMPDEST SWAP3 POP POP PUSH1 0x1 DUP2 ADD SWAP1 POP PUSH2 0x1778 JUMP JUMPDEST POP POP POP POP POP POP JUMP JUMPDEST PUSH0 PUSH2 0x280 DUP3 ADD SWAP1 POP PUSH2 0x17C1 PUSH0 DUP4 ADD DUP6 PUSH2 0x16BE JUMP JUMPDEST PUSH2 0x17CF PUSH2 0x100 DUP4 ADD DUP5 PUSH2 0x1757 JUMP JUMPDEST SWAP4 SWAP3 POP POP POP JUMP JUMPDEST PUSH2 0x17DF DUP2 PUSH2 0x10FE JUMP JUMPDEST DUP2 EQ PUSH2 0x17E9 JUMPI PUSH0 PUSH0 REVERT JUMPDEST POP JUMP JUMPDEST PUSH0 DUP2 MLOAD SWAP1 POP PUSH2 0x17FA DUP2 PUSH2 0x17D6 JUMP JUMPDEST SWAP3 SWAP2 POP POP JUMP JUMPDEST PUSH0 PUSH1 0x20 DUP3 DUP5 SUB SLT ISZERO PUSH2 0x1815 JUMPI PUSH2 0x1814 PUSH2 0x1131 JUMP JUMPDEST JUMPDEST PUSH0 PUSH2 0x1822 DUP5 DUP3 DUP6 ADD PUSH2 0x17EC JUMP JUMPDEST SWAP2 POP POP SWAP3 SWAP2 POP POP JUMP JUMPDEST PUSH32 0x496E76616C696420766F74652070726F6F660000000000000000000000000000 PUSH0 DUP3 ADD MSTORE POP JUMP JUMPDEST PUSH0 PUSH2 0x185F PUSH1 0x12 DUP4 PUSH2 0x142A JUMP JUMPDEST SWAP2 POP PUSH2 0x186A DUP3 PUSH2 0x182B JUMP JUMPDEST PUSH1 0x20 DUP3 ADD SWAP1 POP SWAP2 SWAP1 POP JUMP JUMPDEST PUSH0 PUSH1 0x20 DUP3 ADD SWAP1 POP DUP2 DUP2 SUB PUSH0 DUP4 ADD MSTORE PUSH2 0x188C DUP2 PUSH2 0x1853 JUMP JUMPDEST SWAP1 POP SWAP2 SWAP1 POP JUMP JUMPDEST PUSH32 0x4E487B7100000000000000000000000000000000000000000000000000000000 PUSH0 MSTORE PUSH1 0x11 PUSH1 0x4 MSTORE PUSH1 0x24 PUSH0 REVERT JUMPDEST PUSH0 PUSH2 0x18CA DUP3 PUSH2 0x10CD JUMP JUMPDEST SWAP2 POP PUSH2 0x18D5 DUP4 PUSH2 0x10CD JUMP JUMPDEST SWAP3 POP DUP3 DUP3 ADD SWAP1 POP DUP1 DUP3 GT ISZERO PUSH2 0x18ED JUMPI PUSH2 0x18EC PUSH2 0x1893 JUMP JUMPDEST JUMPDEST SWAP3 SWAP2 POP POP JUMP JUMPDEST PUSH2 0x18FF PUSH1 0x40 DUP4 DUP4 PUSH2 0x1668 JUMP JUMPDEST POP POP JUMP JUMPDEST PUSH2 0x190C DUP2 PUSH2 0x1206 JUMP JUMPDEST DUP3 MSTORE POP POP JUMP JUMPDEST PUSH0 PUSH1 0xA0 DUP3 ADD SWAP1 POP PUSH2 0x1925 PUSH0 DUP4 ADD DUP7 PUSH2 0x18F3 JUMP JUMPDEST PUSH2 0x1932 PUSH1 0x40 DUP4 ADD DUP6 PUSH2 0x18F3 JUMP JUMPDEST PUSH2 0x193F PUSH1 0x80 DUP4 ADD DUP5 PUSH2 0x1903 JUMP JUMPDEST SWAP5 SWAP4 POP POP POP POP JUMP JUMPDEST PUSH32 0x4F6E6C79206F776E657200000000000000000000000000000000000000000000 PUSH0 DUP3 ADD MSTORE POP JUMP JUMPDEST PUSH0 PUSH2 0x197B PUSH1 0xA DUP4 PUSH2 0x142A JUMP JUMPDEST SWAP2 POP PUSH2 0x1986 DUP3 PUSH2 0x1947 JUMP JUMPDEST PUSH1 0x20 DUP3 ADD SWAP1 POP SWAP2 SWAP1 POP JUMP JUMPDEST PUSH0 PUSH1 0x20 DUP3 ADD SWAP1 POP DUP2 DUP2 SUB PUSH0 DUP4 ADD MSTORE PUSH2 0x19A8 DUP2 PUSH2 0x196F JUMP JUMPDEST SWAP1 POP SWAP2 SWAP1 POP JUMP JUMPDEST PUSH32 0x416C726561647920636C6F736564000000000000000000000000000000000000 PUSH0 DUP3 ADD MSTORE POP JUMP JUMPDEST PUSH0 PUSH2 0x19E3 PUSH1 0xE DUP4 PUSH2 0x142A JUMP JUMPDEST SWAP2 POP PUSH2 0x19EE DUP3 PUSH2 0x19AF JUMP JUMPDEST PUSH1 0x20 DUP3 ADD SWAP1 POP SWAP2 SWAP1 POP JUMP JUMPDEST PUSH0 PUSH1 0x20 DUP3 ADD SWAP1 POP DUP2 DUP2 SUB PUSH0 DUP4 ADD MSTORE PUSH2 0x1A10 DUP2 PUSH2 0x19D7 JUMP JUMPDEST SWAP1 POP SWAP2 SWAP1 POP JUMP JUMPDEST PUSH32 0x456C656374696F6E207374696C6C206F70656E00000000000000000000000000 PUSH0 DUP3 ADD MSTORE POP JUMP JUMPDEST PUSH0 PUSH2 0x1A4B PUSH1 0x13 DUP4 PUSH2 0x142A JUMP JUMPDEST SWAP2 POP PUSH2 0x1A56 DUP3 PUSH2 0x1A17 JUMP JUMPDEST PUSH1 0x20 DUP3 ADD SWAP1 POP SWAP2 SWAP1 POP JUMP JUMPDEST PUSH0 PUSH1 0x20 DUP3 ADD SWAP1 POP DUP2 DUP2 SUB PUSH0 DUP4 ADD MSTORE PUSH2 0x1A78 DUP2 PUSH2 0x1A3F JUMP JUMPDEST SWAP1 POP SWAP2 SWAP1 POP JUMP JUMPDEST PUSH32 0x496E76616C6964207265636F756E742070726F6F660000000000000000000000 PUSH0 DUP3 ADD MSTORE POP JUMP JUMPDEST PUSH0 PUSH2 0x1AB3 PUSH1 0x15 DUP4 PUSH2 0x142A JUMP JUMPDEST SWAP2 POP PUSH2 0x1ABE DUP3 PUSH2 0x1A7F JUMP JUMPDEST PUSH1 0x20 DUP3 ADD SWAP1 POP SWAP2 SWAP1 POP JUMP JUMPDEST PUSH0 PUSH1 0x20 DUP3 ADD SWAP1 POP DUP2 DUP2 SUB PUSH0 DUP4 ADD MSTORE PUSH2 0x1AE0 DUP2 PUSH2 0x1AA7 JUMP JUMPDEST SWAP1 POP SWAP2 SWAP1 POP JUMP JUMPDEST PUSH32 0x4E487B7100000000000000000000000000000000000000000000000000000000 PUSH0 MSTORE PUSH1 0x12 PUSH1 0x4 MSTORE PUSH1 0x24 PUSH0 REVERT JUMPDEST PUSH0 PUSH2 0x1B1E DUP3 PUSH2 0x10CD JUMP JUMPDEST SWAP2 POP PUSH2 0x1B29 DUP4 PUSH2 0x10CD JUMP JUMPDEST SWAP3 POP DUP3 DUP3 SUB SWAP1 POP DUP2 DUP2 GT ISZERO PUSH2 0x1B41 JUMPI PUSH2 0x1B40 PUSH2 0x1893 JUMP JUMPDEST JUMPDEST SWAP3 SWAP2 POP POP JUMP INVALID LOG2 PUSH5 0x6970667358 0x22 SLT KECCAK256 0xB6 0xB5 SWAP6 COINBASE 0xC0 BLOBHASH 0xB0 PUSH11 0xD43EED160692742F0DD1DA SWAP9 0xC2 DUP12 PUSH1 0x8D DUP6 PUSH0 PUSH29 0x2036640CAB64736F6C634300081E003300000000000000000000000000 "
				},
				"gasEstimates": {
					"creation": {
						"codeDepositCost": "1407400",
						"executionCost": "infinite",
						"totalCost": "infinite"
					},
					"external": {
						"accC1x()": "2470",
						"accC1y()": "2536",
						"accC2x()": "2470",
						"accC2y()": "2492",
						"closeElection()": "29694",
						"electionOpen()": "2539",
						"nullifierUsed(bytes32)": "2808",
						"numberOfVotes()": "2426",
						"owner()": "2529",
						"publishResults(uint256,((uint256,uint256),(uint256[2],uint256[2]),(uint256,uint256)))": "infinite",
						"recountVerifier()": "infinite",
						"registerVote(((uint256,uint256),(uint256[2],uint256[2]),(uint256,uint256)),uint256[2],uint256[2],uint32[8])": "infinite",
						"voteVerifier()": "infinite"
					}
				},
				"methodIdentifiers": {
					"accC1x()": "4d139763",
					"accC1y()": "75f11da1",
					"accC2x()": "82786199",
					"accC2y()": "87dde0be",
					"closeElection()": "6c6c32d0",
					"electionOpen()": "4a39d442",
					"nullifierUsed(bytes32)": "7ecf686d",
					"numberOfVotes()": "0e7d490d",
					"owner()": "8da5cb5b",
					"publishResults(uint256,((uint256,uint256),(uint256[2],uint256[2]),(uint256,uint256)))": "e63aa8fb",
					"recountVerifier()": "bf0516f2",
					"registerVote(((uint256,uint256),(uint256[2],uint256[2]),(uint256,uint256)),uint256[2],uint256[2],uint32[8])": "59a00a30",
					"voteVerifier()": "99d74c71"
				}
			},
			"storageLayout": {
				"storage": [
					{
						"astId": 413,
						"contract": "TP FINAL/VotingSystem.sol:VotingSystem",
						"label": "owner",
						"offset": 0,
						"slot": "0",
						"type": "t_address"
					},
					{
						"astId": 415,
						"contract": "TP FINAL/VotingSystem.sol:VotingSystem",
						"label": "electionOpen",
						"offset": 20,
						"slot": "0",
						"type": "t_bool"
					},
					{
						"astId": 417,
						"contract": "TP FINAL/VotingSystem.sol:VotingSystem",
						"label": "accC1x",
						"offset": 0,
						"slot": "1",
						"type": "t_uint256"
					},
					{
						"astId": 419,
						"contract": "TP FINAL/VotingSystem.sol:VotingSystem",
						"label": "accC1y",
						"offset": 0,
						"slot": "2",
						"type": "t_uint256"
					},
					{
						"astId": 421,
						"contract": "TP FINAL/VotingSystem.sol:VotingSystem",
						"label": "accC2x",
						"offset": 0,
						"slot": "3",
						"type": "t_uint256"
					},
					{
						"astId": 423,
						"contract": "TP FINAL/VotingSystem.sol:VotingSystem",
						"label": "accC2y",
						"offset": 0,
						"slot": "4",
						"type": "t_uint256"
					},
					{
						"astId": 425,
						"contract": "TP FINAL/VotingSystem.sol:VotingSystem",
						"label": "numberOfVotes",
						"offset": 0,
						"slot": "5",
						"type": "t_uint256"
					},
					{
						"astId": 429,
						"contract": "TP FINAL/VotingSystem.sol:VotingSystem",
						"label": "nullifierUsed",
						"offset": 0,
						"slot": "6",
						"type": "t_mapping(t_bytes32,t_bool)"
					},
					{
						"astId": 432,
						"contract": "TP FINAL/VotingSystem.sol:VotingSystem",
						"label": "voteVerifier",
						"offset": 0,
						"slot": "7",
						"type": "t_contract(IVerifier)407"
					},
					{
						"astId": 435,
						"contract": "TP FINAL/VotingSystem.sol:VotingSystem",
						"label": "recountVerifier",
						"offset": 0,
						"slot": "8",
						"type": "t_contract(IVerifier)407"
					}
				],
				"types": {
					"t_address": {
						"encoding": "inplace",
						"label": "address",
						"numberOfBytes": "20"
					},
					"t_bool": {
						"encoding": "inplace",
						"label": "bool",
						"numberOfBytes": "1"
					},
					"t_bytes32": {
						"encoding": "inplace",
						"label": "bytes32",
						"numberOfBytes": "32"
					},
					"t_contract(IVerifier)407": {
						"encoding": "inplace",
						"label": "contract IVerifier",
						"numberOfBytes": "20"
					},
					"t_mapping(t_bytes32,t_bool)": {
						"encoding": "mapping",
						"key": "t_bytes32",
						"label": "mapping(bytes32 => bool)",
						"numberOfBytes": "32",
						"value": "t_bool"
					},
					"t_uint256": {
						"encoding": "inplace",
						"label": "uint256",
						"numberOfBytes": "32"
					}
				}
			},
			"userdoc": {
				"kind": "user",
				"methods": {},
				"version": 1
			}
		}
	}
}