{
	"TP FINAL/VotingSystem.sol": {
		"VotingSystem": {
			"abi": [
				{
					"inputs": [
						{
							"internalType": "address",
							"name": "_voteVerifier",
							"type": "address"
						},
						{
							"internalType": "address",
							"name": "_recountVerifier",
							"type": "address"
						}
					],
					"stateMutability": "nonpayable",
					"type": "constructor"
				},
				{
					"anonymous": false,
					"inputs": [],
					"name": "ElectionClosed",
					"type": "event"
				},
				{
					"anonymous": false,
					"inputs": [
						{
							"indexed": false,
							"internalType": "uint256",
							"name": "result",
							"type": "uint256"
						}
					],
					"name": "ResultsPublished",
					"type": "event"
				},
				{
					"anonymous": false,
					"inputs": [
						{
							"indexed": false,
							"internalType": "uint256[2]",
							"name": "C1",
							"type": "uint256[2]"
						},
						{
							"indexed": false,
							"internalType": "uint256[2]",
							"name": "C2",
							"type": "uint256[2]"
						},
						{
							"indexed": false,
							"internalType": "bytes32",
							"name": "nullifierHash",
							"type": "bytes32"
						}
					],
					"name": "VoteRegistered",
					"type": "event"
				},
				{
					"inputs": [],
					"name": "accC1x",
					"outputs": [
						{
							"internalType": "uint256",
							"name": "",
							"type": "uint256"
						}
					],
					"stateMutability": "view",
					"type": "function"
				},
				{
					"inputs": [],
					"name": "accC1y",
					"outputs": [
						{
							"internalType": "uint256",
							"name": "",
							"type": "uint256"
						}
					],
					"stateMutability": "view",
					"type": "function"
				},
				{
					"inputs": [],
					"name": "accC2x",
					"outputs": [
						{
							"internalType": "uint256",
							"name": "",
							"type": "uint256"
						}
					],
					"stateMutability": "view",
					"type": "function"
				},
				{
					"inputs": [],
					"name": "accC2y",
					"outputs": [
						{
							"internalType": "uint256",
							"name": "",
							"type": "uint256"
						}
					],
					"stateMutability": "view",
					"type": "function"
				},
				{
					"inputs": [],
					"name": "closeElection",
					"outputs": [],
					"stateMutability": "nonpayable",
					"type": "function"
				},
				{
					"inputs": [],
					"name": "electionOpen",
					"outputs": [
						{
							"internalType": "bool",
							"name": "",
							"type": "bool"
						}
					],
					"stateMutability": "view",
					"type": "function"
				},
				{
					"inputs": [
						{
							"internalType": "bytes32",
							"name": "",
							"type": "bytes32"
						}
					],
					"name": "nullifierUsed",
					"outputs": [
						{
							"internalType": "bool",
							"name": "",
							"type": "bool"
						}
					],
					"stateMutability": "view",
					"type": "function"
				},
				{
					"inputs": [],
					"name": "numberOfVotes",
					"outputs": [
						{
							"internalType": "uint256",
							"name": "",
							"type": "uint256"
						}
					],
					"stateMutability": "view",
					"type": "function"
				},
				{
					"inputs": [],
					"name": "owner",
					"outputs": [
						{
							"internalType": "address",
							"name": "",
							"type": "address"
						}
					],
					"stateMutability": "view",
					"type": "function"
				},
				{
					"inputs": [
						{
							"internalType": "uint32[8]",
							"name": "result",
							"type": "uint32[8]"
						},
						{
							"components": [
								{
									"components": [
										{
											"internalType": "uint256",
											"name": "X",
											"type": "uint256"
										},
										{
											"internalType": "uint256",
											"name": "Y",
											"type": "uint256"
										}
									],
									"internalType": "struct G1Point",
									"name": "a",
									"type": "tuple"
								},
								{
									"components": [
										{
											"internalType": "uint256[2]",
											"name": "X",
											"type": "uint256[2]"
										},
										{
											"internalType": "uint256[2]",
											"name": "Y",
											"type": "uint256[2]"
										}
									],
									"internalType": "struct G2Point",
									"name": "b",
									"type": "tuple"
								},
								{
									"components": [
										{
											"internalType": "uint256",
											"name": "X",
											"type": "uint256"
										},
										{
											"internalType": "uint256",
											"name": "Y",
											"type": "uint256"
										}
									],
									"internalType": "struct G1Point",
									"name": "c",
									"type": "tuple"
								}
							],
							"internalType": "struct Proof",
							"name": "proof",
							"type": "tuple"
						}
					],
					"name": "publishResults",
					"outputs": [],
					"stateMutability": "nonpayable",
					"type": "function"
				},
				{
					"inputs": [],
					"name": "recountVerifier",
					"outputs": [
						{
							"internalType": "contract IVerifier",
							"name": "",
							"type": "address"
						}
					],
					"stateMutability": "view",
					"type": "function"
				},
				{
					"inputs": [
						{
							"components": [
								{
									"components": [
										{
											"internalType": "uint256",
											"name": "X",
											"type": "uint256"
										},
										{
											"internalType": "uint256",
											"name": "Y",
											"type": "uint256"
										}
									],
									"internalType": "struct G1Point",
									"name": "a",
									"type": "tuple"
								},
								{
									"components": [
										{
											"internalType": "uint256[2]",
											"name": "X",
											"type": "uint256[2]"
										},
										{
											"internalType": "uint256[2]",
											"name": "Y",
											"type": "uint256[2]"
										}
									],
									"internalType": "struct G2Point",
									"name": "b",
									"type": "tuple"
								},
								{
									"components": [
										{
											"internalType": "uint256",
											"name": "X",
											"type": "uint256"
										},
										{
											"internalType": "uint256",
											"name": "Y",
											"type": "uint256"
										}
									],
									"internalType": "struct G1Point",
									"name": "c",
									"type": "tuple"
								}
							],
							"internalType": "struct Proof",
							"name": "proof",
							"type": "tuple"
						},
						{
							"internalType": "uint256[2]",
							"name": "C1",
							"type": "uint256[2]"
						},
						{
							"internalType": "uint256[2]",
							"name": "C2",
							"type": "uint256[2]"
						},
						{
							"internalType": "uint32[8]",
							"name": "nullifier",
							"type": "uint32[8]"
						}
					],
					"name": "registerVote",
					"outputs": [],
					"stateMutability": "nonpayable",
					"type": "function"
				},
				{
					"inputs": [],
					"name": "voteVerifier",
					"outputs": [
						{
							"internalType": "contract IVerifier",
							"name": "",
							"type": "address"
						}
					],
					"stateMutability": "view",
					"type": "function"
				}
			],
			"devdoc": {
				"kind": "dev",
				"methods": {},
				"version": 1
			},
			"evm": {
				"assembly": "    /* \"TP FINAL/VotingSystem.sol\":122:4116  contract VotingSystem {... */\n  mstore(0x40, 0x80)\n    /* \"TP FINAL/VotingSystem.sol\":864:1209  constructor(... */\n  callvalue\n  dup1\n  iszero\n  tag_1\n  jumpi\n  revert(0x00, 0x00)\ntag_1:\n  pop\n  mload(0x40)\n  sub(codesize, bytecodeSize)\n  dup1\n  bytecodeSize\n  dup4\n  codecopy\n  dup2\n  dup2\n  add\n  0x40\n  mstore\n  dup2\n  add\n  swap1\n  tag_2\n  swap2\n  swap1\n  tag_3\n  jump\t// in\ntag_2:\n    /* \"TP FINAL/VotingSystem.sol\":969:979  msg.sender */\n  caller\n    /* \"TP FINAL/VotingSystem.sol\":961:966  owner */\n  0x00\n  0x00\n    /* \"TP FINAL/VotingSystem.sol\":961:979  owner = msg.sender */\n  0x0100\n  exp\n  dup2\n  sload\n  dup2\n  0xffffffffffffffffffffffffffffffffffffffff\n  mul\n  not\n  and\n  swap1\n  dup4\n  0xffffffffffffffffffffffffffffffffffffffff\n  and\n  mul\n  or\n  swap1\n  sstore\n  pop\n    /* \"TP FINAL/VotingSystem.sol\":1005:1009  true */\n  0x01\n    /* \"TP FINAL/VotingSystem.sol\":990:1002  electionOpen */\n  0x00\n  0x14\n    /* \"TP FINAL/VotingSystem.sol\":990:1009  electionOpen = true */\n  0x0100\n  exp\n  dup2\n  sload\n  dup2\n  0xff\n  mul\n  not\n  and\n  swap1\n  dup4\n  iszero\n  iszero\n  mul\n  or\n  swap1\n  sstore\n  pop\n    /* \"TP FINAL/VotingSystem.sol\":1047:1060  _voteVerifier */\n  dup2\n    /* \"TP FINAL/VotingSystem.sol\":1022:1034  voteVerifier */\n  0x07\n  0x00\n    /* \"TP FINAL/VotingSystem.sol\":1022:1061  voteVerifier = IVerifier(_voteVerifier) */\n  0x0100\n  exp\n  dup2\n  sload\n  dup2\n  0xffffffffffffffffffffffffffffffffffffffff\n  mul\n  not\n  and\n  swap1\n  dup4\n  0xffffffffffffffffffffffffffffffffffffffff\n  and\n  mul\n  or\n  swap1\n  sstore\n  pop\n    /* \"TP FINAL/VotingSystem.sol\":1100:1116  _recountVerifier */\n  dup1\n    /* \"TP FINAL/VotingSystem.sol\":1072:1087  recountVerifier */\n  0x08\n  0x00\n    /* \"TP FINAL/VotingSystem.sol\":1072:1117  recountVerifier = IVerifier(_recountVerifier) */\n  0x0100\n  exp\n  dup2\n  sload\n  dup2\n  0xffffffffffffffffffffffffffffffffffffffff\n  mul\n  not\n  and\n  swap1\n  dup4\n  0xffffffffffffffffffffffffffffffffffffffff\n  and\n  mul\n  or\n  swap1\n  sstore\n  pop\n    /* \"TP FINAL/VotingSystem.sol\":1139:1140  0 */\n  0x00\n    /* \"TP FINAL/VotingSystem.sol\":1132:1138  accC1x */\n  0x01\n    /* \"TP FINAL/VotingSystem.sol\":1132:1140  accC1x=0 */\n  dup2\n  swap1\n  sstore\n  pop\n    /* \"TP FINAL/VotingSystem.sol\":1158:1159  1 */\n  0x01\n    /* \"TP FINAL/VotingSystem.sol\":1151:1157  accC1y */\n  0x02\n    /* \"TP FINAL/VotingSystem.sol\":1151:1159  accC1y=1 */\n  dup2\n  swap1\n  sstore\n  pop\n    /* \"TP FINAL/VotingSystem.sol\":1179:1180  0 */\n  0x00\n    /* \"TP FINAL/VotingSystem.sol\":1170:1176  accC2x */\n  0x03\n    /* \"TP FINAL/VotingSystem.sol\":1170:1180  accC2x = 0 */\n  dup2\n  swap1\n  sstore\n  pop\n    /* \"TP FINAL/VotingSystem.sol\":1200:1201  1 */\n  0x01\n    /* \"TP FINAL/VotingSystem.sol\":1191:1197  accC2y */\n  0x04\n    /* \"TP FINAL/VotingSystem.sol\":1191:1201  accC2y = 1 */\n  dup2\n  swap1\n  sstore\n  pop\n    /* \"TP FINAL/VotingSystem.sol\":864:1209  constructor(... */\n  pop\n  pop\n    /* \"TP FINAL/VotingSystem.sol\":122:4116  contract VotingSystem {... */\n  jump(tag_6)\n    /* \"#utility.yul\":88:205   */\ntag_8:\n    /* \"#utility.yul\":197:198   */\n  0x00\n    /* \"#utility.yul\":194:195   */\n  0x00\n    /* \"#utility.yul\":187:199   */\n  revert\n    /* \"#utility.yul\":334:460   */\ntag_10:\n    /* \"#utility.yul\":371:378   */\n  0x00\n    /* \"#utility.yul\":411:453   */\n  0xffffffffffffffffffffffffffffffffffffffff\n    /* \"#utility.yul\":404:409   */\n  dup3\n    /* \"#utility.yul\":400:454   */\n  and\n    /* \"#utility.yul\":389:454   */\n  swap1\n  pop\n    /* \"#utility.yul\":334:460   */\n  swap2\n  swap1\n  pop\n  jump\t// out\n    /* \"#utility.yul\":466:562   */\ntag_11:\n    /* \"#utility.yul\":503:510   */\n  0x00\n    /* \"#utility.yul\":532:556   */\n  tag_20\n    /* \"#utility.yul\":550:555   */\n  dup3\n    /* \"#utility.yul\":532:556   */\n  tag_10\n  jump\t// in\ntag_20:\n    /* \"#utility.yul\":521:556   */\n  swap1\n  pop\n    /* \"#utility.yul\":466:562   */\n  swap2\n  swap1\n  pop\n  jump\t// out\n    /* \"#utility.yul\":568:690   */\ntag_12:\n    /* \"#utility.yul\":641:665   */\n  tag_22\n    /* \"#utility.yul\":659:664   */\n  dup2\n    /* \"#utility.yul\":641:665   */\n  tag_11\n  jump\t// in\ntag_22:\n    /* \"#utility.yul\":634:639   */\n  dup2\n    /* \"#utility.yul\":631:666   */\n  eq\n    /* \"#utility.yul\":621:684   */\n  tag_23\n  jumpi\n    /* \"#utility.yul\":680:681   */\n  0x00\n    /* \"#utility.yul\":677:678   */\n  0x00\n    /* \"#utility.yul\":670:682   */\n  revert\n    /* \"#utility.yul\":621:684   */\ntag_23:\n    /* \"#utility.yul\":568:690   */\n  pop\n  jump\t// out\n    /* \"#utility.yul\":696:839   */\ntag_13:\n    /* \"#utility.yul\":753:758   */\n  0x00\n    /* \"#utility.yul\":784:790   */\n  dup2\n    /* \"#utility.yul\":778:791   */\n  mload\n    /* \"#utility.yul\":769:791   */\n  swap1\n  pop\n    /* \"#utility.yul\":800:833   */\n  tag_25\n    /* \"#utility.yul\":827:832   */\n  dup2\n    /* \"#utility.yul\":800:833   */\n  tag_12\n  jump\t// in\ntag_25:\n    /* \"#utility.yul\":696:839   */\n  swap3\n  swap2\n  pop\n  pop\n  jump\t// out\n    /* \"#utility.yul\":845:1352   */\ntag_3:\n    /* \"#utility.yul\":924:930   */\n  0x00\n    /* \"#utility.yul\":932:938   */\n  0x00\n    /* \"#utility.yul\":981:983   */\n  0x40\n    /* \"#utility.yul\":969:978   */\n  dup4\n    /* \"#utility.yul\":960:967   */\n  dup6\n    /* \"#utility.yul\":956:979   */\n  sub\n    /* \"#utility.yul\":952:984   */\n  slt\n    /* \"#utility.yul\":949:1068   */\n  iszero\n  tag_27\n  jumpi\n    /* \"#utility.yul\":987:1066   */\n  tag_28\n  tag_8\n  jump\t// in\ntag_28:\n    /* \"#utility.yul\":949:1068   */\ntag_27:\n    /* \"#utility.yul\":1107:1108   */\n  0x00\n    /* \"#utility.yul\":1132:1196   */\n  tag_29\n    /* \"#utility.yul\":1188:1195   */\n  dup6\n    /* \"#utility.yul\":1179:1185   */\n  dup3\n    /* \"#utility.yul\":1168:1177   */\n  dup7\n    /* \"#utility.yul\":1164:1186   */\n  add\n    /* \"#utility.yul\":1132:1196   */\n  tag_13\n  jump\t// in\ntag_29:\n    /* \"#utility.yul\":1122:1196   */\n  swap3\n  pop\n    /* \"#utility.yul\":1078:1206   */\n  pop\n    /* \"#utility.yul\":1245:1247   */\n  0x20\n    /* \"#utility.yul\":1271:1335   */\n  tag_30\n    /* \"#utility.yul\":1327:1334   */\n  dup6\n    /* \"#utility.yul\":1318:1324   */\n  dup3\n    /* \"#utility.yul\":1307:1316   */\n  dup7\n    /* \"#utility.yul\":1303:1325   */\n  add\n    /* \"#utility.yul\":1271:1335   */\n  tag_13\n  jump\t// in\ntag_30:\n    /* \"#utility.yul\":1261:1335   */\n  swap2\n  pop\n    /* \"#utility.yul\":1216:1345   */\n  pop\n    /* \"#utility.yul\":845:1352   */\n  swap3\n  pop\n  swap3\n  swap1\n  pop\n  jump\t// out\n    /* \"TP FINAL/VotingSystem.sol\":122:4116  contract VotingSystem {... */\ntag_6:\n  dataSize(sub_0)\n  dup1\n  dataOffset(sub_0)\n  0x00\n  codecopy\n  0x00\n  return\nstop\n\nsub_0: assembly {\n        /* \"TP FINAL/VotingSystem.sol\":122:4116  contract VotingSystem {... */\n      mstore(0x40, 0x80)\n      callvalue\n      dup1\n      iszero\n      tag_1\n      jumpi\n      revert(0x00, 0x00)\n    tag_1:\n      pop\n      jumpi(tag_2, lt(calldatasize, 0x04))\n      shr(0xe0, calldataload(0x00))\n      dup1\n      0x7ecf686d\n      gt\n      tag_16\n      jumpi\n      dup1\n      0x8da5cb5b\n      gt\n      tag_17\n      jumpi\n      dup1\n      0x8da5cb5b\n      eq\n      tag_12\n      jumpi\n      dup1\n      0x99d74c71\n      eq\n      tag_13\n      jumpi\n      dup1\n      0xbf0516f2\n      eq\n      tag_14\n      jumpi\n      dup1\n      0xd317cfb0\n      eq\n      tag_15\n      jumpi\n      jump(tag_2)\n    tag_17:\n      dup1\n      0x7ecf686d\n      eq\n      tag_9\n      jumpi\n      dup1\n      0x82786199\n      eq\n      tag_10\n      jumpi\n      dup1\n      0x87dde0be\n      eq\n      tag_11\n      jumpi\n      jump(tag_2)\n    tag_16:\n      dup1\n      0x0e7d490d\n      eq\n      tag_3\n      jumpi\n      dup1\n      0x4a39d442\n      eq\n      tag_4\n      jumpi\n      dup1\n      0x4d139763\n      eq\n      tag_5\n      jumpi\n      dup1\n      0x59a00a30\n      eq\n      tag_6\n      jumpi\n      dup1\n      0x6c6c32d0\n      eq\n      tag_7\n      jumpi\n      dup1\n      0x75f11da1\n      eq\n      tag_8\n      jumpi\n    tag_2:\n      revert(0x00, 0x00)\n        /* \"TP FINAL/VotingSystem.sol\":329:357  uint256 public numberOfVotes */\n    tag_3:\n      tag_18\n      tag_19\n      jump\t// in\n    tag_18:\n      mload(0x40)\n      tag_20\n      swap2\n      swap1\n      tag_21\n      jump\t// in\n    tag_20:\n      mload(0x40)\n      dup1\n      swap2\n      sub\n      swap1\n      return\n        /* \"TP FINAL/VotingSystem.sol\":180:204  bool public electionOpen */\n    tag_4:\n      tag_22\n      tag_23\n      jump\t// in\n    tag_22:\n      mload(0x40)\n      tag_24\n      swap2\n      swap1\n      tag_25\n      jump\t// in\n    tag_24:\n      mload(0x40)\n      dup1\n      swap2\n      sub\n      swap1\n      return\n        /* \"TP FINAL/VotingSystem.sol\":213:234  uint256 public accC1x */\n    tag_5:\n      tag_26\n      tag_27\n      jump\t// in\n    tag_26:\n      mload(0x40)\n      tag_28\n      swap2\n      swap1\n      tag_21\n      jump\t// in\n    tag_28:\n      mload(0x40)\n      dup1\n      swap2\n      sub\n      swap1\n      return\n        /* \"TP FINAL/VotingSystem.sol\":1290:2774  function registerVote(... */\n    tag_6:\n      tag_29\n      0x04\n      dup1\n      calldatasize\n      sub\n      dup2\n      add\n      swap1\n      tag_30\n      swap2\n      swap1\n      tag_31\n      jump\t// in\n    tag_30:\n      tag_32\n      jump\t// in\n    tag_29:\n      stop\n        /* \"TP FINAL/VotingSystem.sol\":2865:3075  function closeElection() external {... */\n    tag_7:\n      tag_33\n      tag_34\n      jump\t// in\n    tag_33:\n      stop\n        /* \"TP FINAL/VotingSystem.sol\":241:263  uint256 public  accC1y */\n    tag_8:\n      tag_35\n      tag_36\n      jump\t// in\n    tag_35:\n      mload(0x40)\n      tag_37\n      swap2\n      swap1\n      tag_21\n      jump\t// in\n    tag_37:\n      mload(0x40)\n      dup1\n      swap2\n      sub\n      swap1\n      return\n        /* \"TP FINAL/VotingSystem.sol\":366:411  mapping(bytes32 => bool) public nullifierUsed */\n    tag_9:\n      tag_38\n      0x04\n      dup1\n      calldatasize\n      sub\n      dup2\n      add\n      swap1\n      tag_39\n      swap2\n      swap1\n      tag_40\n      jump\t// in\n    tag_39:\n      tag_41\n      jump\t// in\n    tag_38:\n      mload(0x40)\n      tag_42\n      swap2\n      swap1\n      tag_25\n      jump\t// in\n    tag_42:\n      mload(0x40)\n      dup1\n      swap2\n      sub\n      swap1\n      return\n        /* \"TP FINAL/VotingSystem.sol\":270:291  uint256 public accC2x */\n    tag_10:\n      tag_43\n      tag_44\n      jump\t// in\n    tag_43:\n      mload(0x40)\n      tag_45\n      swap2\n      swap1\n      tag_21\n      jump\t// in\n    tag_45:\n      mload(0x40)\n      dup1\n      swap2\n      sub\n      swap1\n      return\n        /* \"TP FINAL/VotingSystem.sol\":298:320  uint256 public  accC2y */\n    tag_11:\n      tag_46\n      tag_47\n      jump\t// in\n    tag_46:\n      mload(0x40)\n      tag_48\n      swap2\n      swap1\n      tag_21\n      jump\t// in\n    tag_48:\n      mload(0x40)\n      dup1\n      swap2\n      sub\n      swap1\n      return\n        /* \"TP FINAL/VotingSystem.sol\":153:173  address public owner */\n    tag_12:\n      tag_49\n      tag_50\n      jump\t// in\n    tag_49:\n      mload(0x40)\n      tag_51\n      swap2\n      swap1\n      tag_52\n      jump\t// in\n    tag_51:\n      mload(0x40)\n      dup1\n      swap2\n      sub\n      swap1\n      return\n        /* \"TP FINAL/VotingSystem.sol\":420:449  IVerifier public voteVerifier */\n    tag_13:\n      tag_53\n      tag_54\n      jump\t// in\n    tag_53:\n      mload(0x40)\n      tag_55\n      swap2\n      swap1\n      tag_56\n      jump\t// in\n    tag_55:\n      mload(0x40)\n      dup1\n      swap2\n      sub\n      swap1\n      return\n        /* \"TP FINAL/VotingSystem.sol\":456:488  IVerifier public recountVerifier */\n    tag_14:\n      tag_57\n      tag_58\n      jump\t// in\n    tag_57:\n      mload(0x40)\n      tag_59\n      swap2\n      swap1\n      tag_56\n      jump\t// in\n    tag_59:\n      mload(0x40)\n      dup1\n      swap2\n      sub\n      swap1\n      return\n        /* \"TP FINAL/VotingSystem.sol\":3167:4113  function publishResults(... */\n    tag_15:\n      tag_60\n      0x04\n      dup1\n      calldatasize\n      sub\n      dup2\n      add\n      swap1\n      tag_61\n      swap2\n      swap1\n      tag_62\n      jump\t// in\n    tag_61:\n      tag_63\n      jump\t// in\n    tag_60:\n      stop\n        /* \"TP FINAL/VotingSystem.sol\":329:357  uint256 public numberOfVotes */\n    tag_19:\n      sload(0x05)\n      dup2\n      jump\t// out\n        /* \"TP FINAL/VotingSystem.sol\":180:204  bool public electionOpen */\n    tag_23:\n      0x00\n      0x14\n      swap1\n      sload\n      swap1\n      0x0100\n      exp\n      swap1\n      div\n      0xff\n      and\n      dup2\n      jump\t// out\n        /* \"TP FINAL/VotingSystem.sol\":213:234  uint256 public accC1x */\n    tag_27:\n      sload(0x01)\n      dup2\n      jump\t// out\n        /* \"TP FINAL/VotingSystem.sol\":1290:2774  function registerVote(... */\n    tag_32:\n        /* \"TP FINAL/VotingSystem.sol\":1475:1506  uint256[12] memory publicInputs */\n      tag_65\n      tag_66\n      jump\t// in\n    tag_65:\n        /* \"TP FINAL/VotingSystem.sol\":1535:1537  C1 */\n      dup4\n        /* \"TP FINAL/VotingSystem.sol\":1538:1539  0 */\n      0x00\n        /* \"TP FINAL/VotingSystem.sol\":1535:1540  C1[0] */\n      0x02\n      dup2\n      lt\n      tag_67\n      jumpi\n      tag_68\n      tag_69\n      jump\t// in\n    tag_68:\n    tag_67:\n      0x20\n      mul\n      add\n      calldataload\n        /* \"TP FINAL/VotingSystem.sol\":1517:1529  publicInputs */\n      dup2\n        /* \"TP FINAL/VotingSystem.sol\":1530:1531  0 */\n      0x00\n        /* \"TP FINAL/VotingSystem.sol\":1517:1532  publicInputs[0] */\n      0x0c\n      dup2\n      lt\n      tag_70\n      jumpi\n      tag_71\n      tag_69\n      jump\t// in\n    tag_71:\n    tag_70:\n      0x20\n      mul\n      add\n        /* \"TP FINAL/VotingSystem.sol\":1517:1540  publicInputs[0] = C1[0] */\n      dup2\n      dup2\n      mstore\n      pop\n      pop\n        /* \"TP FINAL/VotingSystem.sol\":1569:1571  C1 */\n      dup4\n        /* \"TP FINAL/VotingSystem.sol\":1572:1573  1 */\n      0x01\n        /* \"TP FINAL/VotingSystem.sol\":1569:1574  C1[1] */\n      0x02\n      dup2\n      lt\n      tag_72\n      jumpi\n      tag_73\n      tag_69\n      jump\t// in\n    tag_73:\n    tag_72:\n      0x20\n      mul\n      add\n      calldataload\n        /* \"TP FINAL/VotingSystem.sol\":1551:1563  publicInputs */\n      dup2\n        /* \"TP FINAL/VotingSystem.sol\":1564:1565  1 */\n      0x01\n        /* \"TP FINAL/VotingSystem.sol\":1551:1566  publicInputs[1] */\n      0x0c\n      dup2\n      lt\n      tag_74\n      jumpi\n      tag_75\n      tag_69\n      jump\t// in\n    tag_75:\n    tag_74:\n      0x20\n      mul\n      add\n        /* \"TP FINAL/VotingSystem.sol\":1551:1574  publicInputs[1] = C1[1] */\n      dup2\n      dup2\n      mstore\n      pop\n      pop\n        /* \"TP FINAL/VotingSystem.sol\":1603:1605  C2 */\n      dup3\n        /* \"TP FINAL/VotingSystem.sol\":1606:1607  0 */\n      0x00\n        /* \"TP FINAL/VotingSystem.sol\":1603:1608  C2[0] */\n      0x02\n      dup2\n      lt\n      tag_76\n      jumpi\n      tag_77\n      tag_69\n      jump\t// in\n    tag_77:\n    tag_76:\n      0x20\n      mul\n      add\n      calldataload\n        /* \"TP FINAL/VotingSystem.sol\":1585:1597  publicInputs */\n      dup2\n        /* \"TP FINAL/VotingSystem.sol\":1598:1599  2 */\n      0x02\n        /* \"TP FINAL/VotingSystem.sol\":1585:1600  publicInputs[2] */\n      0x0c\n      dup2\n      lt\n      tag_78\n      jumpi\n      tag_79\n      tag_69\n      jump\t// in\n    tag_79:\n    tag_78:\n      0x20\n      mul\n      add\n        /* \"TP FINAL/VotingSystem.sol\":1585:1608  publicInputs[2] = C2[0] */\n      dup2\n      dup2\n      mstore\n      pop\n      pop\n        /* \"TP FINAL/VotingSystem.sol\":1637:1639  C2 */\n      dup3\n        /* \"TP FINAL/VotingSystem.sol\":1640:1641  1 */\n      0x01\n        /* \"TP FINAL/VotingSystem.sol\":1637:1642  C2[1] */\n      0x02\n      dup2\n      lt\n      tag_80\n      jumpi\n      tag_81\n      tag_69\n      jump\t// in\n    tag_81:\n    tag_80:\n      0x20\n      mul\n      add\n      calldataload\n        /* \"TP FINAL/VotingSystem.sol\":1619:1631  publicInputs */\n      dup2\n        /* \"TP FINAL/VotingSystem.sol\":1632:1633  3 */\n      0x03\n        /* \"TP FINAL/VotingSystem.sol\":1619:1634  publicInputs[3] */\n      0x0c\n      dup2\n      lt\n      tag_82\n      jumpi\n      tag_83\n      tag_69\n      jump\t// in\n    tag_83:\n    tag_82:\n      0x20\n      mul\n      add\n        /* \"TP FINAL/VotingSystem.sol\":1619:1642  publicInputs[3] = C2[1] */\n      dup2\n      dup2\n      mstore\n      pop\n      pop\n        /* \"TP FINAL/VotingSystem.sol\":1671:1680  nullifier */\n      dup2\n        /* \"TP FINAL/VotingSystem.sol\":1681:1682  0 */\n      0x00\n        /* \"TP FINAL/VotingSystem.sol\":1671:1683  nullifier[0] */\n      0x08\n      dup2\n      lt\n      tag_84\n      jumpi\n      tag_85\n      tag_69\n      jump\t// in\n    tag_85:\n    tag_84:\n      0x20\n      mul\n      add\n      0x20\n      dup2\n      add\n      swap1\n      tag_86\n      swap2\n      swap1\n      tag_87\n      jump\t// in\n    tag_86:\n        /* \"TP FINAL/VotingSystem.sol\":1653:1683  publicInputs[4] = nullifier[0] */\n      0xffffffff\n      and\n        /* \"TP FINAL/VotingSystem.sol\":1653:1665  publicInputs */\n      dup2\n        /* \"TP FINAL/VotingSystem.sol\":1666:1667  4 */\n      0x04\n        /* \"TP FINAL/VotingSystem.sol\":1653:1668  publicInputs[4] */\n      0x0c\n      dup2\n      lt\n      tag_88\n      jumpi\n      tag_89\n      tag_69\n      jump\t// in\n    tag_89:\n    tag_88:\n      0x20\n      mul\n      add\n        /* \"TP FINAL/VotingSystem.sol\":1653:1683  publicInputs[4] = nullifier[0] */\n      dup2\n      dup2\n      mstore\n      pop\n      pop\n        /* \"TP FINAL/VotingSystem.sol\":1712:1721  nullifier */\n      dup2\n        /* \"TP FINAL/VotingSystem.sol\":1722:1723  1 */\n      0x01\n        /* \"TP FINAL/VotingSystem.sol\":1712:1724  nullifier[1] */\n      0x08\n      dup2\n      lt\n      tag_90\n      jumpi\n      tag_91\n      tag_69\n      jump\t// in\n    tag_91:\n    tag_90:\n      0x20\n      mul\n      add\n      0x20\n      dup2\n      add\n      swap1\n      tag_92\n      swap2\n      swap1\n      tag_87\n      jump\t// in\n    tag_92:\n        /* \"TP FINAL/VotingSystem.sol\":1694:1724  publicInputs[5] = nullifier[1] */\n      0xffffffff\n      and\n        /* \"TP FINAL/VotingSystem.sol\":1694:1706  publicInputs */\n      dup2\n        /* \"TP FINAL/VotingSystem.sol\":1707:1708  5 */\n      0x05\n        /* \"TP FINAL/VotingSystem.sol\":1694:1709  publicInputs[5] */\n      0x0c\n      dup2\n      lt\n      tag_93\n      jumpi\n      tag_94\n      tag_69\n      jump\t// in\n    tag_94:\n    tag_93:\n      0x20\n      mul\n      add\n        /* \"TP FINAL/VotingSystem.sol\":1694:1724  publicInputs[5] = nullifier[1] */\n      dup2\n      dup2\n      mstore\n      pop\n      pop\n        /* \"TP FINAL/VotingSystem.sol\":1753:1762  nullifier */\n      dup2\n        /* \"TP FINAL/VotingSystem.sol\":1763:1764  2 */\n      0x02\n        /* \"TP FINAL/VotingSystem.sol\":1753:1765  nullifier[2] */\n      0x08\n      dup2\n      lt\n      tag_95\n      jumpi\n      tag_96\n      tag_69\n      jump\t// in\n    tag_96:\n    tag_95:\n      0x20\n      mul\n      add\n      0x20\n      dup2\n      add\n      swap1\n      tag_97\n      swap2\n      swap1\n      tag_87\n      jump\t// in\n    tag_97:\n        /* \"TP FINAL/VotingSystem.sol\":1735:1765  publicInputs[6] = nullifier[2] */\n      0xffffffff\n      and\n        /* \"TP FINAL/VotingSystem.sol\":1735:1747  publicInputs */\n      dup2\n        /* \"TP FINAL/VotingSystem.sol\":1748:1749  6 */\n      0x06\n        /* \"TP FINAL/VotingSystem.sol\":1735:1750  publicInputs[6] */\n      0x0c\n      dup2\n      lt\n      tag_98\n      jumpi\n      tag_99\n      tag_69\n      jump\t// in\n    tag_99:\n    tag_98:\n      0x20\n      mul\n      add\n        /* \"TP FINAL/VotingSystem.sol\":1735:1765  publicInputs[6] = nullifier[2] */\n      dup2\n      dup2\n      mstore\n      pop\n      pop\n        /* \"TP FINAL/VotingSystem.sol\":1794:1803  nullifier */\n      dup2\n        /* \"TP FINAL/VotingSystem.sol\":1804:1805  3 */\n      0x03\n        /* \"TP FINAL/VotingSystem.sol\":1794:1806  nullifier[3] */\n      0x08\n      dup2\n      lt\n      tag_100\n      jumpi\n      tag_101\n      tag_69\n      jump\t// in\n    tag_101:\n    tag_100:\n      0x20\n      mul\n      add\n      0x20\n      dup2\n      add\n      swap1\n      tag_102\n      swap2\n      swap1\n      tag_87\n      jump\t// in\n    tag_102:\n        /* \"TP FINAL/VotingSystem.sol\":1776:1806  publicInputs[7] = nullifier[3] */\n      0xffffffff\n      and\n        /* \"TP FINAL/VotingSystem.sol\":1776:1788  publicInputs */\n      dup2\n        /* \"TP FINAL/VotingSystem.sol\":1789:1790  7 */\n      0x07\n        /* \"TP FINAL/VotingSystem.sol\":1776:1791  publicInputs[7] */\n      0x0c\n      dup2\n      lt\n      tag_103\n      jumpi\n      tag_104\n      tag_69\n      jump\t// in\n    tag_104:\n    tag_103:\n      0x20\n      mul\n      add\n        /* \"TP FINAL/VotingSystem.sol\":1776:1806  publicInputs[7] = nullifier[3] */\n      dup2\n      dup2\n      mstore\n      pop\n      pop\n        /* \"TP FINAL/VotingSystem.sol\":1835:1844  nullifier */\n      dup2\n        /* \"TP FINAL/VotingSystem.sol\":1845:1846  4 */\n      0x04\n        /* \"TP FINAL/VotingSystem.sol\":1835:1847  nullifier[4] */\n      0x08\n      dup2\n      lt\n      tag_105\n      jumpi\n      tag_106\n      tag_69\n      jump\t// in\n    tag_106:\n    tag_105:\n      0x20\n      mul\n      add\n      0x20\n      dup2\n      add\n      swap1\n      tag_107\n      swap2\n      swap1\n      tag_87\n      jump\t// in\n    tag_107:\n        /* \"TP FINAL/VotingSystem.sol\":1817:1847  publicInputs[8] = nullifier[4] */\n      0xffffffff\n      and\n        /* \"TP FINAL/VotingSystem.sol\":1817:1829  publicInputs */\n      dup2\n        /* \"TP FINAL/VotingSystem.sol\":1830:1831  8 */\n      0x08\n        /* \"TP FINAL/VotingSystem.sol\":1817:1832  publicInputs[8] */\n      0x0c\n      dup2\n      lt\n      tag_108\n      jumpi\n      tag_109\n      tag_69\n      jump\t// in\n    tag_109:\n    tag_108:\n      0x20\n      mul\n      add\n        /* \"TP FINAL/VotingSystem.sol\":1817:1847  publicInputs[8] = nullifier[4] */\n      dup2\n      dup2\n      mstore\n      pop\n      pop\n        /* \"TP FINAL/VotingSystem.sol\":1876:1885  nullifier */\n      dup2\n        /* \"TP FINAL/VotingSystem.sol\":1886:1887  5 */\n      0x05\n        /* \"TP FINAL/VotingSystem.sol\":1876:1888  nullifier[5] */\n      0x08\n      dup2\n      lt\n      tag_110\n      jumpi\n      tag_111\n      tag_69\n      jump\t// in\n    tag_111:\n    tag_110:\n      0x20\n      mul\n      add\n      0x20\n      dup2\n      add\n      swap1\n      tag_112\n      swap2\n      swap1\n      tag_87\n      jump\t// in\n    tag_112:\n        /* \"TP FINAL/VotingSystem.sol\":1858:1888  publicInputs[9] = nullifier[5] */\n      0xffffffff\n      and\n        /* \"TP FINAL/VotingSystem.sol\":1858:1870  publicInputs */\n      dup2\n        /* \"TP FINAL/VotingSystem.sol\":1871:1872  9 */\n      0x09\n        /* \"TP FINAL/VotingSystem.sol\":1858:1873  publicInputs[9] */\n      0x0c\n      dup2\n      lt\n      tag_113\n      jumpi\n      tag_114\n      tag_69\n      jump\t// in\n    tag_114:\n    tag_113:\n      0x20\n      mul\n      add\n        /* \"TP FINAL/VotingSystem.sol\":1858:1888  publicInputs[9] = nullifier[5] */\n      dup2\n      dup2\n      mstore\n      pop\n      pop\n        /* \"TP FINAL/VotingSystem.sol\":1918:1927  nullifier */\n      dup2\n        /* \"TP FINAL/VotingSystem.sol\":1928:1929  6 */\n      0x06\n        /* \"TP FINAL/VotingSystem.sol\":1918:1930  nullifier[6] */\n      0x08\n      dup2\n      lt\n      tag_115\n      jumpi\n      tag_116\n      tag_69\n      jump\t// in\n    tag_116:\n    tag_115:\n      0x20\n      mul\n      add\n      0x20\n      dup2\n      add\n      swap1\n      tag_117\n      swap2\n      swap1\n      tag_87\n      jump\t// in\n    tag_117:\n        /* \"TP FINAL/VotingSystem.sol\":1899:1930  publicInputs[10] = nullifier[6] */\n      0xffffffff\n      and\n        /* \"TP FINAL/VotingSystem.sol\":1899:1911  publicInputs */\n      dup2\n        /* \"TP FINAL/VotingSystem.sol\":1912:1914  10 */\n      0x0a\n        /* \"TP FINAL/VotingSystem.sol\":1899:1915  publicInputs[10] */\n      0x0c\n      dup2\n      lt\n      tag_118\n      jumpi\n      tag_119\n      tag_69\n      jump\t// in\n    tag_119:\n    tag_118:\n      0x20\n      mul\n      add\n        /* \"TP FINAL/VotingSystem.sol\":1899:1930  publicInputs[10] = nullifier[6] */\n      dup2\n      dup2\n      mstore\n      pop\n      pop\n        /* \"TP FINAL/VotingSystem.sol\":1960:1969  nullifier */\n      dup2\n        /* \"TP FINAL/VotingSystem.sol\":1970:1971  7 */\n      0x07\n        /* \"TP FINAL/VotingSystem.sol\":1960:1972  nullifier[7] */\n      0x08\n      dup2\n      lt\n      tag_120\n      jumpi\n      tag_121\n      tag_69\n      jump\t// in\n    tag_121:\n    tag_120:\n      0x20\n      mul\n      add\n      0x20\n      dup2\n      add\n      swap1\n      tag_122\n      swap2\n      swap1\n      tag_87\n      jump\t// in\n    tag_122:\n        /* \"TP FINAL/VotingSystem.sol\":1941:1972  publicInputs[11] = nullifier[7] */\n      0xffffffff\n      and\n        /* \"TP FINAL/VotingSystem.sol\":1941:1953  publicInputs */\n      dup2\n        /* \"TP FINAL/VotingSystem.sol\":1954:1956  11 */\n      0x0b\n        /* \"TP FINAL/VotingSystem.sol\":1941:1957  publicInputs[11] */\n      0x0c\n      dup2\n      lt\n      tag_123\n      jumpi\n      tag_124\n      tag_69\n      jump\t// in\n    tag_124:\n    tag_123:\n      0x20\n      mul\n      add\n        /* \"TP FINAL/VotingSystem.sol\":1941:1972  publicInputs[11] = nullifier[7] */\n      dup2\n      dup2\n      mstore\n      pop\n      pop\n        /* \"TP FINAL/VotingSystem.sol\":1999:2011  electionOpen */\n      0x00\n      0x14\n      swap1\n      sload\n      swap1\n      0x0100\n      exp\n      swap1\n      div\n      0xff\n      and\n        /* \"TP FINAL/VotingSystem.sol\":1991:2031  require(electionOpen, \"Election closed\") */\n      tag_125\n      jumpi\n      mload(0x40)\n      0x08c379a000000000000000000000000000000000000000000000000000000000\n      dup2\n      mstore\n      0x04\n      add\n      tag_126\n      swap1\n      tag_127\n      jump\t// in\n    tag_126:\n      mload(0x40)\n      dup1\n      swap2\n      sub\n      swap1\n      revert\n    tag_125:\n        /* \"TP FINAL/VotingSystem.sol\":2042:2063  bytes32 nullifierHash */\n      0x00\n        /* \"TP FINAL/VotingSystem.sol\":2093:2102  nullifier */\n      dup3\n        /* \"TP FINAL/VotingSystem.sol\":2076:2103  abi.encodePacked(nullifier) */\n      add(0x20, mload(0x40))\n      tag_128\n      swap2\n      swap1\n      tag_129\n      jump\t// in\n    tag_128:\n      mload(0x40)\n      0x20\n      dup2\n      dup4\n      sub\n      sub\n      dup2\n      mstore\n      swap1\n      0x40\n      mstore\n        /* \"TP FINAL/VotingSystem.sol\":2066:2104  keccak256(abi.encodePacked(nullifier)) */\n      dup1\n      mload\n      swap1\n      0x20\n      add\n      keccak256\n        /* \"TP FINAL/VotingSystem.sol\":2042:2104  bytes32 nullifierHash = keccak256(abi.encodePacked(nullifier)) */\n      swap1\n      pop\n        /* \"TP FINAL/VotingSystem.sol\":2191:2204  nullifierUsed */\n      0x06\n        /* \"TP FINAL/VotingSystem.sol\":2191:2219  nullifierUsed[nullifierHash] */\n      0x00\n        /* \"TP FINAL/VotingSystem.sol\":2205:2218  nullifierHash */\n      dup3\n        /* \"TP FINAL/VotingSystem.sol\":2191:2219  nullifierUsed[nullifierHash] */\n      dup2\n      mstore\n      0x20\n      add\n      swap1\n      dup2\n      mstore\n      0x20\n      add\n      0x00\n      keccak256\n      0x00\n      swap1\n      sload\n      swap1\n      0x0100\n      exp\n      swap1\n      div\n      0xff\n      and\n        /* \"TP FINAL/VotingSystem.sol\":2190:2219  !nullifierUsed[nullifierHash] */\n      iszero\n        /* \"TP FINAL/VotingSystem.sol\":2182:2246  require(!nullifierUsed[nullifierHash], \"Nullifier already used\") */\n      tag_130\n      jumpi\n      mload(0x40)\n      0x08c379a000000000000000000000000000000000000000000000000000000000\n      dup2\n      mstore\n      0x04\n      add\n      tag_131\n      swap1\n      tag_132\n      jump\t// in\n    tag_131:\n      mload(0x40)\n      dup1\n      swap2\n      sub\n      swap1\n      revert\n    tag_130:\n        /* \"TP FINAL/VotingSystem.sol\":2291:2298  bool ok */\n      0x00\n        /* \"TP FINAL/VotingSystem.sol\":2301:2313  voteVerifier */\n      0x07\n      0x00\n      swap1\n      sload\n      swap1\n      0x0100\n      exp\n      swap1\n      div\n      0xffffffffffffffffffffffffffffffffffffffff\n      and\n        /* \"TP FINAL/VotingSystem.sol\":2301:2322  voteVerifier.verifyTx */\n      0xffffffffffffffffffffffffffffffffffffffff\n      and\n      0x66670599\n        /* \"TP FINAL/VotingSystem.sol\":2323:2328  proof */\n      dup9\n        /* \"TP FINAL/VotingSystem.sol\":2330:2342  publicInputs */\n      dup6\n        /* \"TP FINAL/VotingSystem.sol\":2301:2343  voteVerifier.verifyTx(proof, publicInputs) */\n      mload(0x40)\n      dup4\n      0xffffffff\n      and\n      0xe0\n      shl\n      dup2\n      mstore\n      0x04\n      add\n      tag_133\n      swap3\n      swap2\n      swap1\n      tag_134\n      jump\t// in\n    tag_133:\n      0x20\n      mload(0x40)\n      dup1\n      dup4\n      sub\n      dup2\n      dup7\n      gas\n      staticcall\n      iszero\n      dup1\n      iszero\n      tag_136\n      jumpi\n      returndatacopy(0x00, 0x00, returndatasize)\n      revert(0x00, returndatasize)\n    tag_136:\n      pop\n      pop\n      pop\n      pop\n      mload(0x40)\n      returndatasize\n      not(0x1f)\n      0x1f\n      dup3\n      add\n      and\n      dup3\n      add\n      dup1\n      0x40\n      mstore\n      pop\n      dup2\n      add\n      swap1\n      tag_137\n      swap2\n      swap1\n      tag_138\n      jump\t// in\n    tag_137:\n        /* \"TP FINAL/VotingSystem.sol\":2291:2343  bool ok = voteVerifier.verifyTx(proof, publicInputs) */\n      swap1\n      pop\n        /* \"TP FINAL/VotingSystem.sol\":2362:2364  ok */\n      dup1\n        /* \"TP FINAL/VotingSystem.sol\":2354:2387  require(ok, \"Invalid vote proof\") */\n      tag_139\n      jumpi\n      mload(0x40)\n      0x08c379a000000000000000000000000000000000000000000000000000000000\n      dup2\n      mstore\n      0x04\n      add\n      tag_140\n      swap1\n      tag_141\n      jump\t// in\n    tag_140:\n      mload(0x40)\n      dup1\n      swap2\n      sub\n      swap1\n      revert\n    tag_139:\n        /* \"TP FINAL/VotingSystem.sol\":2460:2464  true */\n      0x01\n        /* \"TP FINAL/VotingSystem.sol\":2429:2442  nullifierUsed */\n      0x06\n        /* \"TP FINAL/VotingSystem.sol\":2429:2457  nullifierUsed[nullifierHash] */\n      0x00\n        /* \"TP FINAL/VotingSystem.sol\":2443:2456  nullifierHash */\n      dup5\n        /* \"TP FINAL/VotingSystem.sol\":2429:2457  nullifierUsed[nullifierHash] */\n      dup2\n      mstore\n      0x20\n      add\n      swap1\n      dup2\n      mstore\n      0x20\n      add\n      0x00\n      keccak256\n      0x00\n        /* \"TP FINAL/VotingSystem.sol\":2429:2464  nullifierUsed[nullifierHash] = true */\n      0x0100\n      exp\n      dup2\n      sload\n      dup2\n      0xff\n      mul\n      not\n      and\n      swap1\n      dup4\n      iszero\n      iszero\n      mul\n      or\n      swap1\n      sstore\n      pop\n        /* \"TP FINAL/VotingSystem.sol\":2542:2596  CurveBabyJubJub.pointAdd(accC1x, accC1y, C1[0], C1[1]) */\n      tag_142\n        /* \"TP FINAL/VotingSystem.sol\":2567:2573  accC1x */\n      sload(0x01)\n        /* \"TP FINAL/VotingSystem.sol\":2575:2581  accC1y */\n      sload(0x02)\n        /* \"TP FINAL/VotingSystem.sol\":2583:2585  C1 */\n      dup9\n        /* \"TP FINAL/VotingSystem.sol\":2586:2587  0 */\n      0x00\n        /* \"TP FINAL/VotingSystem.sol\":2583:2588  C1[0] */\n      0x02\n      dup2\n      lt\n      tag_143\n      jumpi\n      tag_144\n      tag_69\n      jump\t// in\n    tag_144:\n    tag_143:\n      0x20\n      mul\n      add\n      calldataload\n        /* \"TP FINAL/VotingSystem.sol\":2590:2592  C1 */\n      dup10\n        /* \"TP FINAL/VotingSystem.sol\":2593:2594  1 */\n      0x01\n        /* \"TP FINAL/VotingSystem.sol\":2590:2595  C1[1] */\n      0x02\n      dup2\n      lt\n      tag_145\n      jumpi\n      tag_146\n      tag_69\n      jump\t// in\n    tag_146:\n    tag_145:\n      0x20\n      mul\n      add\n      calldataload\n        /* \"TP FINAL/VotingSystem.sol\":2542:2566  CurveBabyJubJub.pointAdd */\n      tag_147\n        /* \"TP FINAL/VotingSystem.sol\":2542:2596  CurveBabyJubJub.pointAdd(accC1x, accC1y, C1[0], C1[1]) */\n      jump\t// in\n    tag_142:\n        /* \"TP FINAL/VotingSystem.sol\":2524:2530  accC1x */\n      0x01\n      0x00\n        /* \"TP FINAL/VotingSystem.sol\":2532:2538  accC1y */\n      0x02\n      0x00\n        /* \"TP FINAL/VotingSystem.sol\":2523:2596  (accC1x, accC1y) = CurveBabyJubJub.pointAdd(accC1x, accC1y, C1[0], C1[1]) */\n      dup5\n      swap2\n      swap1\n      pop\n      sstore\n      dup4\n      swap2\n      swap1\n      pop\n      sstore\n      pop\n      pop\n        /* \"TP FINAL/VotingSystem.sol\":2626:2680  CurveBabyJubJub.pointAdd(accC2x, accC2y, C2[0], C2[1]) */\n      tag_148\n        /* \"TP FINAL/VotingSystem.sol\":2651:2657  accC2x */\n      sload(0x03)\n        /* \"TP FINAL/VotingSystem.sol\":2659:2665  accC2y */\n      sload(0x04)\n        /* \"TP FINAL/VotingSystem.sol\":2667:2669  C2 */\n      dup8\n        /* \"TP FINAL/VotingSystem.sol\":2670:2671  0 */\n      0x00\n        /* \"TP FINAL/VotingSystem.sol\":2667:2672  C2[0] */\n      0x02\n      dup2\n      lt\n      tag_149\n      jumpi\n      tag_150\n      tag_69\n      jump\t// in\n    tag_150:\n    tag_149:\n      0x20\n      mul\n      add\n      calldataload\n        /* \"TP FINAL/VotingSystem.sol\":2674:2676  C2 */\n      dup9\n        /* \"TP FINAL/VotingSystem.sol\":2677:2678  1 */\n      0x01\n        /* \"TP FINAL/VotingSystem.sol\":2674:2679  C2[1] */\n      0x02\n      dup2\n      lt\n      tag_151\n      jumpi\n      tag_152\n      tag_69\n      jump\t// in\n    tag_152:\n    tag_151:\n      0x20\n      mul\n      add\n      calldataload\n        /* \"TP FINAL/VotingSystem.sol\":2626:2650  CurveBabyJubJub.pointAdd */\n      tag_147\n        /* \"TP FINAL/VotingSystem.sol\":2626:2680  CurveBabyJubJub.pointAdd(accC2x, accC2y, C2[0], C2[1]) */\n      jump\t// in\n    tag_148:\n        /* \"TP FINAL/VotingSystem.sol\":2608:2614  accC2x */\n      0x03\n      0x00\n        /* \"TP FINAL/VotingSystem.sol\":2616:2622  accC2y */\n      0x04\n      0x00\n        /* \"TP FINAL/VotingSystem.sol\":2607:2680  (accC2x, accC2y) = CurveBabyJubJub.pointAdd(accC2x, accC2y, C2[0], C2[1]) */\n      dup5\n      swap2\n      swap1\n      pop\n      sstore\n      dup4\n      swap2\n      swap1\n      pop\n      sstore\n      pop\n      pop\n        /* \"TP FINAL/VotingSystem.sol\":2710:2711  1 */\n      0x01\n        /* \"TP FINAL/VotingSystem.sol\":2693:2706  numberOfVotes */\n      0x05\n      0x00\n        /* \"TP FINAL/VotingSystem.sol\":2693:2711  numberOfVotes += 1 */\n      dup3\n      dup3\n      sload\n      tag_153\n      swap2\n      swap1\n      tag_154\n      jump\t// in\n    tag_153:\n      swap3\n      pop\n      pop\n      dup2\n      swap1\n      sstore\n      pop\n        /* \"TP FINAL/VotingSystem.sol\":2729:2766  VoteRegistered(C1, C2, nullifierHash) */\n      0xec3373933d5241831a4fb1607a10c99cc2d1a609f099ff1987ce2c1884d05284\n        /* \"TP FINAL/VotingSystem.sol\":2744:2746  C1 */\n      dup7\n        /* \"TP FINAL/VotingSystem.sol\":2748:2750  C2 */\n      dup7\n        /* \"TP FINAL/VotingSystem.sol\":2752:2765  nullifierHash */\n      dup5\n        /* \"TP FINAL/VotingSystem.sol\":2729:2766  VoteRegistered(C1, C2, nullifierHash) */\n      mload(0x40)\n      tag_155\n      swap4\n      swap3\n      swap2\n      swap1\n      tag_156\n      jump\t// in\n    tag_155:\n      mload(0x40)\n      dup1\n      swap2\n      sub\n      swap1\n      log1\n        /* \"TP FINAL/VotingSystem.sol\":1464:2774  {... */\n      pop\n      pop\n      pop\n        /* \"TP FINAL/VotingSystem.sol\":1290:2774  function registerVote(... */\n      pop\n      pop\n      pop\n      pop\n      jump\t// out\n        /* \"TP FINAL/VotingSystem.sol\":2865:3075  function closeElection() external {... */\n    tag_34:\n        /* \"TP FINAL/VotingSystem.sol\":2932:2937  owner */\n      0x00\n      0x00\n      swap1\n      sload\n      swap1\n      0x0100\n      exp\n      swap1\n      div\n      0xffffffffffffffffffffffffffffffffffffffff\n      and\n        /* \"TP FINAL/VotingSystem.sol\":2918:2937  msg.sender == owner */\n      0xffffffffffffffffffffffffffffffffffffffff\n      and\n        /* \"TP FINAL/VotingSystem.sol\":2918:2928  msg.sender */\n      caller\n        /* \"TP FINAL/VotingSystem.sol\":2918:2937  msg.sender == owner */\n      0xffffffffffffffffffffffffffffffffffffffff\n      and\n      eq\n        /* \"TP FINAL/VotingSystem.sol\":2910:2952  require(msg.sender == owner, \"Only owner\") */\n      tag_158\n      jumpi\n      mload(0x40)\n      0x08c379a000000000000000000000000000000000000000000000000000000000\n      dup2\n      mstore\n      0x04\n      add\n      tag_159\n      swap1\n      tag_160\n      jump\t// in\n    tag_159:\n      mload(0x40)\n      dup1\n      swap2\n      sub\n      swap1\n      revert\n    tag_158:\n        /* \"TP FINAL/VotingSystem.sol\":2971:2983  electionOpen */\n      0x00\n      0x14\n      swap1\n      sload\n      swap1\n      0x0100\n      exp\n      swap1\n      div\n      0xff\n      and\n        /* \"TP FINAL/VotingSystem.sol\":2963:3002  require(electionOpen, \"Already closed\") */\n      tag_161\n      jumpi\n      mload(0x40)\n      0x08c379a000000000000000000000000000000000000000000000000000000000\n      dup2\n      mstore\n      0x04\n      add\n      tag_162\n      swap1\n      tag_163\n      jump\t// in\n    tag_162:\n      mload(0x40)\n      dup1\n      swap2\n      sub\n      swap1\n      revert\n    tag_161:\n        /* \"TP FINAL/VotingSystem.sol\":3030:3035  false */\n      0x00\n        /* \"TP FINAL/VotingSystem.sol\":3015:3027  electionOpen */\n      0x00\n      0x14\n        /* \"TP FINAL/VotingSystem.sol\":3015:3035  electionOpen = false */\n      0x0100\n      exp\n      dup2\n      sload\n      dup2\n      0xff\n      mul\n      not\n      and\n      swap1\n      dup4\n      iszero\n      iszero\n      mul\n      or\n      swap1\n      sstore\n      pop\n        /* \"TP FINAL/VotingSystem.sol\":3051:3067  ElectionClosed() */\n      0xa549b9addfc3693a1863ac5b0b13c42960d78df554c01ea6ac72a7db985df0cf\n      mload(0x40)\n      mload(0x40)\n      dup1\n      swap2\n      sub\n      swap1\n      log1\n        /* \"TP FINAL/VotingSystem.sol\":2865:3075  function closeElection() external {... */\n      jump\t// out\n        /* \"TP FINAL/VotingSystem.sol\":241:263  uint256 public  accC1y */\n    tag_36:\n      sload(0x02)\n      dup2\n      jump\t// out\n        /* \"TP FINAL/VotingSystem.sol\":366:411  mapping(bytes32 => bool) public nullifierUsed */\n    tag_41:\n      mstore(0x20, 0x06)\n      dup1\n      0x00\n      mstore\n      keccak256(0x00, 0x40)\n      0x00\n      swap2\n      pop\n      sload\n      swap1\n      0x0100\n      exp\n      swap1\n      div\n      0xff\n      and\n      dup2\n      jump\t// out\n        /* \"TP FINAL/VotingSystem.sol\":270:291  uint256 public accC2x */\n    tag_44:\n      sload(0x03)\n      dup2\n      jump\t// out\n        /* \"TP FINAL/VotingSystem.sol\":298:320  uint256 public  accC2y */\n    tag_47:\n      sload(0x04)\n      dup2\n      jump\t// out\n        /* \"TP FINAL/VotingSystem.sol\":153:173  address public owner */\n    tag_50:\n      0x00\n      0x00\n      swap1\n      sload\n      swap1\n      0x0100\n      exp\n      swap1\n      div\n      0xffffffffffffffffffffffffffffffffffffffff\n      and\n      dup2\n      jump\t// out\n        /* \"TP FINAL/VotingSystem.sol\":420:449  IVerifier public voteVerifier */\n    tag_54:\n      0x07\n      0x00\n      swap1\n      sload\n      swap1\n      0x0100\n      exp\n      swap1\n      div\n      0xffffffffffffffffffffffffffffffffffffffff\n      and\n      dup2\n      jump\t// out\n        /* \"TP FINAL/VotingSystem.sol\":456:488  IVerifier public recountVerifier */\n    tag_58:\n      0x08\n      0x00\n      swap1\n      sload\n      swap1\n      0x0100\n      exp\n      swap1\n      div\n      0xffffffffffffffffffffffffffffffffffffffff\n      and\n      dup2\n      jump\t// out\n        /* \"TP FINAL/VotingSystem.sol\":3167:4113  function publishResults(... */\n    tag_63:\n        /* \"TP FINAL/VotingSystem.sol\":3319:3324  owner */\n      0x00\n      0x00\n      swap1\n      sload\n      swap1\n      0x0100\n      exp\n      swap1\n      div\n      0xffffffffffffffffffffffffffffffffffffffff\n      and\n        /* \"TP FINAL/VotingSystem.sol\":3305:3324  msg.sender == owner */\n      0xffffffffffffffffffffffffffffffffffffffff\n      and\n        /* \"TP FINAL/VotingSystem.sol\":3305:3315  msg.sender */\n      caller\n        /* \"TP FINAL/VotingSystem.sol\":3305:3324  msg.sender == owner */\n      0xffffffffffffffffffffffffffffffffffffffff\n      and\n      eq\n        /* \"TP FINAL/VotingSystem.sol\":3297:3339  require(msg.sender == owner, \"Only owner\") */\n      tag_165\n      jumpi\n      mload(0x40)\n      0x08c379a000000000000000000000000000000000000000000000000000000000\n      dup2\n      mstore\n      0x04\n      add\n      tag_166\n      swap1\n      tag_160\n      jump\t// in\n    tag_166:\n      mload(0x40)\n      dup1\n      swap2\n      sub\n      swap1\n      revert\n    tag_165:\n        /* \"TP FINAL/VotingSystem.sol\":3359:3371  electionOpen */\n      0x00\n      0x14\n      swap1\n      sload\n      swap1\n      0x0100\n      exp\n      swap1\n      div\n      0xff\n      and\n        /* \"TP FINAL/VotingSystem.sol\":3358:3371  !electionOpen */\n      iszero\n        /* \"TP FINAL/VotingSystem.sol\":3350:3395  require(!electionOpen, \"Election still open\") */\n      tag_167\n      jumpi\n      mload(0x40)\n      0x08c379a000000000000000000000000000000000000000000000000000000000\n      dup2\n      mstore\n      0x04\n      add\n      tag_168\n      swap1\n      tag_169\n      jump\t// in\n    tag_168:\n      mload(0x40)\n      dup1\n      swap2\n      sub\n      swap1\n      revert\n    tag_167:\n        /* \"TP FINAL/VotingSystem.sol\":3468:3493  uint256[12] memory inputs */\n      tag_170\n      tag_66\n      jump\t// in\n    tag_170:\n        /* \"TP FINAL/VotingSystem.sol\":3516:3522  accC1x */\n      sload(0x01)\n        /* \"TP FINAL/VotingSystem.sol\":3504:3510  inputs */\n      dup2\n        /* \"TP FINAL/VotingSystem.sol\":3511:3512  0 */\n      0x00\n        /* \"TP FINAL/VotingSystem.sol\":3504:3513  inputs[0] */\n      0x0c\n      dup2\n      lt\n      tag_171\n      jumpi\n      tag_172\n      tag_69\n      jump\t// in\n    tag_172:\n    tag_171:\n      0x20\n      mul\n      add\n        /* \"TP FINAL/VotingSystem.sol\":3504:3522  inputs[0] = accC1x */\n      dup2\n      dup2\n      mstore\n      pop\n      pop\n        /* \"TP FINAL/VotingSystem.sol\":3545:3551  accC1y */\n      sload(0x02)\n        /* \"TP FINAL/VotingSystem.sol\":3533:3539  inputs */\n      dup2\n        /* \"TP FINAL/VotingSystem.sol\":3540:3541  1 */\n      0x01\n        /* \"TP FINAL/VotingSystem.sol\":3533:3542  inputs[1] */\n      0x0c\n      dup2\n      lt\n      tag_173\n      jumpi\n      tag_174\n      tag_69\n      jump\t// in\n    tag_174:\n    tag_173:\n      0x20\n      mul\n      add\n        /* \"TP FINAL/VotingSystem.sol\":3533:3551  inputs[1] = accC1y */\n      dup2\n      dup2\n      mstore\n      pop\n      pop\n        /* \"TP FINAL/VotingSystem.sol\":3574:3580  accC2x */\n      sload(0x03)\n        /* \"TP FINAL/VotingSystem.sol\":3562:3568  inputs */\n      dup2\n        /* \"TP FINAL/VotingSystem.sol\":3569:3570  2 */\n      0x02\n        /* \"TP FINAL/VotingSystem.sol\":3562:3571  inputs[2] */\n      0x0c\n      dup2\n      lt\n      tag_175\n      jumpi\n      tag_176\n      tag_69\n      jump\t// in\n    tag_176:\n    tag_175:\n      0x20\n      mul\n      add\n        /* \"TP FINAL/VotingSystem.sol\":3562:3580  inputs[2] = accC2x */\n      dup2\n      dup2\n      mstore\n      pop\n      pop\n        /* \"TP FINAL/VotingSystem.sol\":3603:3609  accC2y */\n      sload(0x04)\n        /* \"TP FINAL/VotingSystem.sol\":3591:3597  inputs */\n      dup2\n        /* \"TP FINAL/VotingSystem.sol\":3598:3599  3 */\n      0x03\n        /* \"TP FINAL/VotingSystem.sol\":3591:3600  inputs[3] */\n      0x0c\n      dup2\n      lt\n      tag_177\n      jumpi\n      tag_178\n      tag_69\n      jump\t// in\n    tag_178:\n    tag_177:\n      0x20\n      mul\n      add\n        /* \"TP FINAL/VotingSystem.sol\":3591:3609  inputs[3] = accC2y */\n      dup2\n      dup2\n      mstore\n      pop\n      pop\n        /* \"TP FINAL/VotingSystem.sol\":3632:3638  result */\n      dup3\n        /* \"TP FINAL/VotingSystem.sol\":3639:3640  0 */\n      0x00\n        /* \"TP FINAL/VotingSystem.sol\":3632:3641  result[0] */\n      0x08\n      dup2\n      lt\n      tag_179\n      jumpi\n      tag_180\n      tag_69\n      jump\t// in\n    tag_180:\n    tag_179:\n      0x20\n      mul\n      add\n      0x20\n      dup2\n      add\n      swap1\n      tag_181\n      swap2\n      swap1\n      tag_87\n      jump\t// in\n    tag_181:\n        /* \"TP FINAL/VotingSystem.sol\":3620:3641  inputs[4] = result[0] */\n      0xffffffff\n      and\n        /* \"TP FINAL/VotingSystem.sol\":3620:3626  inputs */\n      dup2\n        /* \"TP FINAL/VotingSystem.sol\":3627:3628  4 */\n      0x04\n        /* \"TP FINAL/VotingSystem.sol\":3620:3629  inputs[4] */\n      0x0c\n      dup2\n      lt\n      tag_182\n      jumpi\n      tag_183\n      tag_69\n      jump\t// in\n    tag_183:\n    tag_182:\n      0x20\n      mul\n      add\n        /* \"TP FINAL/VotingSystem.sol\":3620:3641  inputs[4] = result[0] */\n      dup2\n      dup2\n      mstore\n      pop\n      pop\n        /* \"TP FINAL/VotingSystem.sol\":3664:3670  result */\n      dup3\n        /* \"TP FINAL/VotingSystem.sol\":3671:3672  1 */\n      0x01\n        /* \"TP FINAL/VotingSystem.sol\":3664:3673  result[1] */\n      0x08\n      dup2\n      lt\n      tag_184\n      jumpi\n      tag_185\n      tag_69\n      jump\t// in\n    tag_185:\n    tag_184:\n      0x20\n      mul\n      add\n      0x20\n      dup2\n      add\n      swap1\n      tag_186\n      swap2\n      swap1\n      tag_87\n      jump\t// in\n    tag_186:\n        /* \"TP FINAL/VotingSystem.sol\":3652:3673  inputs[5] = result[1] */\n      0xffffffff\n      and\n        /* \"TP FINAL/VotingSystem.sol\":3652:3658  inputs */\n      dup2\n        /* \"TP FINAL/VotingSystem.sol\":3659:3660  5 */\n      0x05\n        /* \"TP FINAL/VotingSystem.sol\":3652:3661  inputs[5] */\n      0x0c\n      dup2\n      lt\n      tag_187\n      jumpi\n      tag_188\n      tag_69\n      jump\t// in\n    tag_188:\n    tag_187:\n      0x20\n      mul\n      add\n        /* \"TP FINAL/VotingSystem.sol\":3652:3673  inputs[5] = result[1] */\n      dup2\n      dup2\n      mstore\n      pop\n      pop\n        /* \"TP FINAL/VotingSystem.sol\":3696:3702  result */\n      dup3\n        /* \"TP FINAL/VotingSystem.sol\":3703:3704  2 */\n      0x02\n        /* \"TP FINAL/VotingSystem.sol\":3696:3705  result[2] */\n      0x08\n      dup2\n      lt\n      tag_189\n      jumpi\n      tag_190\n      tag_69\n      jump\t// in\n    tag_190:\n    tag_189:\n      0x20\n      mul\n      add\n      0x20\n      dup2\n      add\n      swap1\n      tag_191\n      swap2\n      swap1\n      tag_87\n      jump\t// in\n    tag_191:\n        /* \"TP FINAL/VotingSystem.sol\":3684:3705  inputs[6] = result[2] */\n      0xffffffff\n      and\n        /* \"TP FINAL/VotingSystem.sol\":3684:3690  inputs */\n      dup2\n        /* \"TP FINAL/VotingSystem.sol\":3691:3692  6 */\n      0x06\n        /* \"TP FINAL/VotingSystem.sol\":3684:3693  inputs[6] */\n      0x0c\n      dup2\n      lt\n      tag_192\n      jumpi\n      tag_193\n      tag_69\n      jump\t// in\n    tag_193:\n    tag_192:\n      0x20\n      mul\n      add\n        /* \"TP FINAL/VotingSystem.sol\":3684:3705  inputs[6] = result[2] */\n      dup2\n      dup2\n      mstore\n      pop\n      pop\n        /* \"TP FINAL/VotingSystem.sol\":3728:3734  result */\n      dup3\n        /* \"TP FINAL/VotingSystem.sol\":3735:3736  3 */\n      0x03\n        /* \"TP FINAL/VotingSystem.sol\":3728:3737  result[3] */\n      0x08\n      dup2\n      lt\n      tag_194\n      jumpi\n      tag_195\n      tag_69\n      jump\t// in\n    tag_195:\n    tag_194:\n      0x20\n      mul\n      add\n      0x20\n      dup2\n      add\n      swap1\n      tag_196\n      swap2\n      swap1\n      tag_87\n      jump\t// in\n    tag_196:\n        /* \"TP FINAL/VotingSystem.sol\":3716:3737  inputs[7] = result[3] */\n      0xffffffff\n      and\n        /* \"TP FINAL/VotingSystem.sol\":3716:3722  inputs */\n      dup2\n        /* \"TP FINAL/VotingSystem.sol\":3723:3724  7 */\n      0x07\n        /* \"TP FINAL/VotingSystem.sol\":3716:3725  inputs[7] */\n      0x0c\n      dup2\n      lt\n      tag_197\n      jumpi\n      tag_198\n      tag_69\n      jump\t// in\n    tag_198:\n    tag_197:\n      0x20\n      mul\n      add\n        /* \"TP FINAL/VotingSystem.sol\":3716:3737  inputs[7] = result[3] */\n      dup2\n      dup2\n      mstore\n      pop\n      pop\n        /* \"TP FINAL/VotingSystem.sol\":3760:3766  result */\n      dup3\n        /* \"TP FINAL/VotingSystem.sol\":3767:3768  4 */\n      0x04\n        /* \"TP FINAL/VotingSystem.sol\":3760:3769  result[4] */\n      0x08\n      dup2\n      lt\n      tag_199\n      jumpi\n      tag_200\n      tag_69\n      jump\t// in\n    tag_200:\n    tag_199:\n      0x20\n      mul\n      add\n      0x20\n      dup2\n      add\n      swap1\n      tag_201\n      swap2\n      swap1\n      tag_87\n      jump\t// in\n    tag_201:\n        /* \"TP FINAL/VotingSystem.sol\":3748:3769  inputs[8] = result[4] */\n      0xffffffff\n      and\n        /* \"TP FINAL/VotingSystem.sol\":3748:3754  inputs */\n      dup2\n        /* \"TP FINAL/VotingSystem.sol\":3755:3756  8 */\n      0x08\n        /* \"TP FINAL/VotingSystem.sol\":3748:3757  inputs[8] */\n      0x0c\n      dup2\n      lt\n      tag_202\n      jumpi\n      tag_203\n      tag_69\n      jump\t// in\n    tag_203:\n    tag_202:\n      0x20\n      mul\n      add\n        /* \"TP FINAL/VotingSystem.sol\":3748:3769  inputs[8] = result[4] */\n      dup2\n      dup2\n      mstore\n      pop\n      pop\n        /* \"TP FINAL/VotingSystem.sol\":3792:3798  result */\n      dup3\n        /* \"TP FINAL/VotingSystem.sol\":3799:3800  5 */\n      0x05\n        /* \"TP FINAL/VotingSystem.sol\":3792:3801  result[5] */\n      0x08\n      dup2\n      lt\n      tag_204\n      jumpi\n      tag_205\n      tag_69\n      jump\t// in\n    tag_205:\n    tag_204:\n      0x20\n      mul\n      add\n      0x20\n      dup2\n      add\n      swap1\n      tag_206\n      swap2\n      swap1\n      tag_87\n      jump\t// in\n    tag_206:\n        /* \"TP FINAL/VotingSystem.sol\":3780:3801  inputs[9] = result[5] */\n      0xffffffff\n      and\n        /* \"TP FINAL/VotingSystem.sol\":3780:3786  inputs */\n      dup2\n        /* \"TP FINAL/VotingSystem.sol\":3787:3788  9 */\n      0x09\n        /* \"TP FINAL/VotingSystem.sol\":3780:3789  inputs[9] */\n      0x0c\n      dup2\n      lt\n      tag_207\n      jumpi\n      tag_208\n      tag_69\n      jump\t// in\n    tag_208:\n    tag_207:\n      0x20\n      mul\n      add\n        /* \"TP FINAL/VotingSystem.sol\":3780:3801  inputs[9] = result[5] */\n      dup2\n      dup2\n      mstore\n      pop\n      pop\n        /* \"TP FINAL/VotingSystem.sol\":3824:3830  result */\n      dup3\n        /* \"TP FINAL/VotingSystem.sol\":3831:3832  6 */\n      0x06\n        /* \"TP FINAL/VotingSystem.sol\":3824:3833  result[6] */\n      0x08\n      dup2\n      lt\n      tag_209\n      jumpi\n      tag_210\n      tag_69\n      jump\t// in\n    tag_210:\n    tag_209:\n      0x20\n      mul\n      add\n      0x20\n      dup2\n      add\n      swap1\n      tag_211\n      swap2\n      swap1\n      tag_87\n      jump\t// in\n    tag_211:\n        /* \"TP FINAL/VotingSystem.sol\":3812:3833  inputs[8] = result[6] */\n      0xffffffff\n      and\n        /* \"TP FINAL/VotingSystem.sol\":3812:3818  inputs */\n      dup2\n        /* \"TP FINAL/VotingSystem.sol\":3819:3820  8 */\n      0x08\n        /* \"TP FINAL/VotingSystem.sol\":3812:3821  inputs[8] */\n      0x0c\n      dup2\n      lt\n      tag_212\n      jumpi\n      tag_213\n      tag_69\n      jump\t// in\n    tag_213:\n    tag_212:\n      0x20\n      mul\n      add\n        /* \"TP FINAL/VotingSystem.sol\":3812:3833  inputs[8] = result[6] */\n      dup2\n      dup2\n      mstore\n      pop\n      pop\n        /* \"TP FINAL/VotingSystem.sol\":3856:3862  result */\n      dup3\n        /* \"TP FINAL/VotingSystem.sol\":3863:3864  7 */\n      0x07\n        /* \"TP FINAL/VotingSystem.sol\":3856:3865  result[7] */\n      0x08\n      dup2\n      lt\n      tag_214\n      jumpi\n      tag_215\n      tag_69\n      jump\t// in\n    tag_215:\n    tag_214:\n      0x20\n      mul\n      add\n      0x20\n      dup2\n      add\n      swap1\n      tag_216\n      swap2\n      swap1\n      tag_87\n      jump\t// in\n    tag_216:\n        /* \"TP FINAL/VotingSystem.sol\":3844:3865  inputs[9] = result[7] */\n      0xffffffff\n      and\n        /* \"TP FINAL/VotingSystem.sol\":3844:3850  inputs */\n      dup2\n        /* \"TP FINAL/VotingSystem.sol\":3851:3852  9 */\n      0x09\n        /* \"TP FINAL/VotingSystem.sol\":3844:3853  inputs[9] */\n      0x0c\n      dup2\n      lt\n      tag_217\n      jumpi\n      tag_218\n      tag_69\n      jump\t// in\n    tag_218:\n    tag_217:\n      0x20\n      mul\n      add\n        /* \"TP FINAL/VotingSystem.sol\":3844:3865  inputs[9] = result[7] */\n      dup2\n      dup2\n      mstore\n      pop\n      pop\n        /* \"TP FINAL/VotingSystem.sol\":3876:3883  bool ok */\n      0x00\n        /* \"TP FINAL/VotingSystem.sol\":3886:3901  recountVerifier */\n      0x08\n      0x00\n      swap1\n      sload\n      swap1\n      0x0100\n      exp\n      swap1\n      div\n      0xffffffffffffffffffffffffffffffffffffffff\n      and\n        /* \"TP FINAL/VotingSystem.sol\":3886:3910  recountVerifier.verifyTx */\n      0xffffffffffffffffffffffffffffffffffffffff\n      and\n      0x66670599\n        /* \"TP FINAL/VotingSystem.sol\":3911:3916  proof */\n      dup5\n        /* \"TP FINAL/VotingSystem.sol\":3918:3924  inputs */\n      dup5\n        /* \"TP FINAL/VotingSystem.sol\":3886:3925  recountVerifier.verifyTx(proof, inputs) */\n      mload(0x40)\n      dup4\n      0xffffffff\n      and\n      0xe0\n      shl\n      dup2\n      mstore\n      0x04\n      add\n      tag_219\n      swap3\n      swap2\n      swap1\n      tag_134\n      jump\t// in\n    tag_219:\n      0x20\n      mload(0x40)\n      dup1\n      dup4\n      sub\n      dup2\n      dup7\n      gas\n      staticcall\n      iszero\n      dup1\n      iszero\n      tag_221\n      jumpi\n      returndatacopy(0x00, 0x00, returndatasize)\n      revert(0x00, returndatasize)\n    tag_221:\n      pop\n      pop\n      pop\n      pop\n      mload(0x40)\n      returndatasize\n      not(0x1f)\n      0x1f\n      dup3\n      add\n      and\n      dup3\n      add\n      dup1\n      0x40\n      mstore\n      pop\n      dup2\n      add\n      swap1\n      tag_222\n      swap2\n      swap1\n      tag_138\n      jump\t// in\n    tag_222:\n        /* \"TP FINAL/VotingSystem.sol\":3876:3925  bool ok = recountVerifier.verifyTx(proof, inputs) */\n      swap1\n      pop\n        /* \"TP FINAL/VotingSystem.sol\":3944:3946  ok */\n      dup1\n        /* \"TP FINAL/VotingSystem.sol\":3936:3972  require(ok, \"Invalid recount proof\") */\n      tag_223\n      jumpi\n      mload(0x40)\n      0x08c379a000000000000000000000000000000000000000000000000000000000\n      dup2\n      mstore\n      0x04\n      add\n      tag_224\n      swap1\n      tag_225\n      jump\t// in\n    tag_224:\n      mload(0x40)\n      dup1\n      swap2\n      sub\n      swap1\n      revert\n    tag_223:\n        /* \"TP FINAL/VotingSystem.sol\":3990:4017  ResultsPublished(result[7]) */\n      0xee088bcc4c9bbd048c9c087916ec26aae94e63151610af8167078ef170e5ae60\n        /* \"TP FINAL/VotingSystem.sol\":4007:4013  result */\n      dup5\n        /* \"TP FINAL/VotingSystem.sol\":4014:4015  7 */\n      0x07\n        /* \"TP FINAL/VotingSystem.sol\":4007:4016  result[7] */\n      0x08\n      dup2\n      lt\n      tag_226\n      jumpi\n      tag_227\n      tag_69\n      jump\t// in\n    tag_227:\n    tag_226:\n      0x20\n      mul\n      add\n      0x20\n      dup2\n      add\n      swap1\n      tag_228\n      swap2\n      swap1\n      tag_87\n      jump\t// in\n    tag_228:\n        /* \"TP FINAL/VotingSystem.sol\":3990:4017  ResultsPublished(result[7]) */\n      mload(0x40)\n      tag_229\n      swap2\n      swap1\n      tag_230\n      jump\t// in\n    tag_229:\n      mload(0x40)\n      dup1\n      swap2\n      sub\n      swap1\n      log1\n        /* \"TP FINAL/VotingSystem.sol\":3284:4113  {... */\n      pop\n      pop\n        /* \"TP FINAL/VotingSystem.sol\":3167:4113  function publishResults(... */\n      pop\n      pop\n      jump\t// out\n        /* \"TP FINAL/CurveBabyJubJub.sol\":671:1433  function pointAdd(... */\n    tag_147:\n        /* \"TP FINAL/CurveBabyJubJub.sol\":807:817  uint256 x3 */\n      0x00\n        /* \"TP FINAL/CurveBabyJubJub.sol\":819:829  uint256 y3 */\n      0x00\n        /* \"TP FINAL/CurveBabyJubJub.sol\":853:854  0 */\n      0x00\n        /* \"TP FINAL/CurveBabyJubJub.sol\":846:849  _x1 */\n      dup7\n        /* \"TP FINAL/CurveBabyJubJub.sol\":846:854  _x1 == 0 */\n      eq\n        /* \"TP FINAL/CurveBabyJubJub.sol\":846:866  _x1 == 0 && _y1 == 0 */\n      dup1\n      iszero\n      tag_232\n      jumpi\n      pop\n        /* \"TP FINAL/CurveBabyJubJub.sol\":865:866  0 */\n      0x00\n        /* \"TP FINAL/CurveBabyJubJub.sol\":858:861  _y1 */\n      dup6\n        /* \"TP FINAL/CurveBabyJubJub.sol\":858:866  _y1 == 0 */\n      eq\n        /* \"TP FINAL/CurveBabyJubJub.sol\":846:866  _x1 == 0 && _y1 == 0 */\n    tag_232:\n        /* \"TP FINAL/CurveBabyJubJub.sol\":842:912  if (_x1 == 0 && _y1 == 0) {... */\n      iszero\n      tag_233\n      jumpi\n        /* \"TP FINAL/CurveBabyJubJub.sol\":891:894  _x2 */\n      dup4\n        /* \"TP FINAL/CurveBabyJubJub.sol\":896:899  _y2 */\n      dup4\n        /* \"TP FINAL/CurveBabyJubJub.sol\":883:900  return (_x2, _y2) */\n      swap2\n      pop\n      swap2\n      pop\n      jump(tag_231)\n        /* \"TP FINAL/CurveBabyJubJub.sol\":842:912  if (_x1 == 0 && _y1 == 0) {... */\n    tag_233:\n        /* \"TP FINAL/CurveBabyJubJub.sol\":935:936  0 */\n      0x00\n        /* \"TP FINAL/CurveBabyJubJub.sol\":928:931  _x2 */\n      dup5\n        /* \"TP FINAL/CurveBabyJubJub.sol\":928:936  _x2 == 0 */\n      eq\n        /* \"TP FINAL/CurveBabyJubJub.sol\":928:948  _x2 == 0 && _y1 == 0 */\n      dup1\n      iszero\n      tag_234\n      jumpi\n      pop\n        /* \"TP FINAL/CurveBabyJubJub.sol\":947:948  0 */\n      0x00\n        /* \"TP FINAL/CurveBabyJubJub.sol\":940:943  _y1 */\n      dup6\n        /* \"TP FINAL/CurveBabyJubJub.sol\":940:948  _y1 == 0 */\n      eq\n        /* \"TP FINAL/CurveBabyJubJub.sol\":928:948  _x2 == 0 && _y1 == 0 */\n    tag_234:\n        /* \"TP FINAL/CurveBabyJubJub.sol\":924:994  if (_x2 == 0 && _y1 == 0) {... */\n      iszero\n      tag_235\n      jumpi\n        /* \"TP FINAL/CurveBabyJubJub.sol\":973:976  _x1 */\n      dup6\n        /* \"TP FINAL/CurveBabyJubJub.sol\":978:981  _y1 */\n      dup6\n        /* \"TP FINAL/CurveBabyJubJub.sol\":965:982  return (_x1, _y1) */\n      swap2\n      pop\n      swap2\n      pop\n      jump(tag_231)\n        /* \"TP FINAL/CurveBabyJubJub.sol\":924:994  if (_x2 == 0 && _y1 == 0) {... */\n    tag_235:\n        /* \"TP FINAL/CurveBabyJubJub.sol\":1006:1018  uint256 x1x2 */\n      0x00\n        /* \"TP FINAL/CurveBabyJubJub.sol\":375:441  0x30644E72E131A029B85045B68181585D2833E84879B9709143E1F593F0000001 */\n      0x30644e72e131a029b85045b68181585d2833e84879b9709143e1f593f0000001\n        /* \"TP FINAL/CurveBabyJubJub.sol\":1021:1040  mulmod(_x1, _x2, Q) */\n      dup1\n      tag_236\n      jumpi\n      tag_237\n      tag_238\n      jump\t// in\n    tag_237:\n    tag_236:\n        /* \"TP FINAL/CurveBabyJubJub.sol\":1033:1036  _x2 */\n      dup6\n        /* \"TP FINAL/CurveBabyJubJub.sol\":1028:1031  _x1 */\n      dup9\n        /* \"TP FINAL/CurveBabyJubJub.sol\":1021:1040  mulmod(_x1, _x2, Q) */\n      mulmod\n        /* \"TP FINAL/CurveBabyJubJub.sol\":1006:1040  uint256 x1x2 = mulmod(_x1, _x2, Q) */\n      swap1\n      pop\n        /* \"TP FINAL/CurveBabyJubJub.sol\":1051:1063  uint256 y1y2 */\n      0x00\n        /* \"TP FINAL/CurveBabyJubJub.sol\":375:441  0x30644E72E131A029B85045B68181585D2833E84879B9709143E1F593F0000001 */\n      0x30644e72e131a029b85045b68181585d2833e84879b9709143e1f593f0000001\n        /* \"TP FINAL/CurveBabyJubJub.sol\":1066:1085  mulmod(_y1, _y2, Q) */\n      dup1\n      tag_239\n      jumpi\n      tag_240\n      tag_238\n      jump\t// in\n    tag_240:\n    tag_239:\n        /* \"TP FINAL/CurveBabyJubJub.sol\":1078:1081  _y2 */\n      dup6\n        /* \"TP FINAL/CurveBabyJubJub.sol\":1073:1076  _y1 */\n      dup9\n        /* \"TP FINAL/CurveBabyJubJub.sol\":1066:1085  mulmod(_y1, _y2, Q) */\n      mulmod\n        /* \"TP FINAL/CurveBabyJubJub.sol\":1051:1085  uint256 y1y2 = mulmod(_y1, _y2, Q) */\n      swap1\n      pop\n        /* \"TP FINAL/CurveBabyJubJub.sol\":1096:1113  uint256 dx1x2y1y2 */\n      0x00\n        /* \"TP FINAL/CurveBabyJubJub.sol\":375:441  0x30644E72E131A029B85045B68181585D2833E84879B9709143E1F593F0000001 */\n      0x30644e72e131a029b85045b68181585d2833e84879b9709143e1f593f0000001\n        /* \"TP FINAL/CurveBabyJubJub.sol\":1116:1151  mulmod(D, mulmod(x1x2, y1y2, Q), Q) */\n      dup1\n      tag_241\n      jumpi\n      tag_242\n      tag_238\n      jump\t// in\n    tag_242:\n    tag_241:\n        /* \"TP FINAL/CurveBabyJubJub.sol\":375:441  0x30644E72E131A029B85045B68181585D2833E84879B9709143E1F593F0000001 */\n      0x30644e72e131a029b85045b68181585d2833e84879b9709143e1f593f0000001\n        /* \"TP FINAL/CurveBabyJubJub.sol\":1126:1147  mulmod(x1x2, y1y2, Q) */\n      dup1\n      tag_243\n      jumpi\n      tag_244\n      tag_238\n      jump\t// in\n    tag_244:\n    tag_243:\n        /* \"TP FINAL/CurveBabyJubJub.sol\":1139:1143  y1y2 */\n      dup4\n        /* \"TP FINAL/CurveBabyJubJub.sol\":1133:1137  x1x2 */\n      dup6\n        /* \"TP FINAL/CurveBabyJubJub.sol\":1126:1147  mulmod(x1x2, y1y2, Q) */\n      mulmod\n        /* \"TP FINAL/CurveBabyJubJub.sol\":237:244  0x292F8 */\n      0x0292f8\n        /* \"TP FINAL/CurveBabyJubJub.sol\":1116:1151  mulmod(D, mulmod(x1x2, y1y2, Q), Q) */\n      mulmod\n        /* \"TP FINAL/CurveBabyJubJub.sol\":1096:1151  uint256 dx1x2y1y2 = mulmod(D, mulmod(x1x2, y1y2, Q), Q) */\n      swap1\n      pop\n        /* \"TP FINAL/CurveBabyJubJub.sol\":1162:1175  uint256 x3Num */\n      0x00\n        /* \"TP FINAL/CurveBabyJubJub.sol\":375:441  0x30644E72E131A029B85045B68181585D2833E84879B9709143E1F593F0000001 */\n      0x30644e72e131a029b85045b68181585d2833e84879b9709143e1f593f0000001\n        /* \"TP FINAL/CurveBabyJubJub.sol\":1178:1229  addmod(mulmod(_x1, _y2, Q), mulmod(_y1, _x2, Q), Q) */\n      dup1\n      tag_245\n      jumpi\n      tag_246\n      tag_238\n      jump\t// in\n    tag_246:\n    tag_245:\n        /* \"TP FINAL/CurveBabyJubJub.sol\":375:441  0x30644E72E131A029B85045B68181585D2833E84879B9709143E1F593F0000001 */\n      0x30644e72e131a029b85045b68181585d2833e84879b9709143e1f593f0000001\n        /* \"TP FINAL/CurveBabyJubJub.sol\":1206:1225  mulmod(_y1, _x2, Q) */\n      dup1\n      tag_247\n      jumpi\n      tag_248\n      tag_238\n      jump\t// in\n    tag_248:\n    tag_247:\n        /* \"TP FINAL/CurveBabyJubJub.sol\":1218:1221  _x2 */\n      dup10\n        /* \"TP FINAL/CurveBabyJubJub.sol\":1213:1216  _y1 */\n      dup12\n        /* \"TP FINAL/CurveBabyJubJub.sol\":1206:1225  mulmod(_y1, _x2, Q) */\n      mulmod\n        /* \"TP FINAL/CurveBabyJubJub.sol\":375:441  0x30644E72E131A029B85045B68181585D2833E84879B9709143E1F593F0000001 */\n      0x30644e72e131a029b85045b68181585d2833e84879b9709143e1f593f0000001\n        /* \"TP FINAL/CurveBabyJubJub.sol\":1185:1204  mulmod(_x1, _y2, Q) */\n      dup1\n      tag_249\n      jumpi\n      tag_250\n      tag_238\n      jump\t// in\n    tag_250:\n    tag_249:\n        /* \"TP FINAL/CurveBabyJubJub.sol\":1197:1200  _y2 */\n      dup10\n        /* \"TP FINAL/CurveBabyJubJub.sol\":1192:1195  _x1 */\n      dup14\n        /* \"TP FINAL/CurveBabyJubJub.sol\":1185:1204  mulmod(_x1, _y2, Q) */\n      mulmod\n        /* \"TP FINAL/CurveBabyJubJub.sol\":1178:1229  addmod(mulmod(_x1, _y2, Q), mulmod(_y1, _x2, Q), Q) */\n      addmod\n        /* \"TP FINAL/CurveBabyJubJub.sol\":1162:1229  uint256 x3Num = addmod(mulmod(_x1, _y2, Q), mulmod(_y1, _x2, Q), Q) */\n      swap1\n      pop\n        /* \"TP FINAL/CurveBabyJubJub.sol\":1240:1253  uint256 y3Num */\n      0x00\n        /* \"TP FINAL/CurveBabyJubJub.sol\":1256:1291  submod(y1y2, mulmod(A, x1x2, Q), Q) */\n      tag_251\n        /* \"TP FINAL/CurveBabyJubJub.sol\":1263:1267  y1y2 */\n      dup5\n        /* \"TP FINAL/CurveBabyJubJub.sol\":375:441  0x30644E72E131A029B85045B68181585D2833E84879B9709143E1F593F0000001 */\n      0x30644e72e131a029b85045b68181585d2833e84879b9709143e1f593f0000001\n        /* \"TP FINAL/CurveBabyJubJub.sol\":1269:1287  mulmod(A, x1x2, Q) */\n      dup1\n      tag_252\n      jumpi\n      tag_253\n      tag_238\n      jump\t// in\n    tag_253:\n    tag_252:\n        /* \"TP FINAL/CurveBabyJubJub.sol\":1279:1283  x1x2 */\n      dup8\n        /* \"TP FINAL/CurveBabyJubJub.sol\":176:183  0x292FC */\n      0x0292fc\n        /* \"TP FINAL/CurveBabyJubJub.sol\":1269:1287  mulmod(A, x1x2, Q) */\n      mulmod\n        /* \"TP FINAL/CurveBabyJubJub.sol\":375:441  0x30644E72E131A029B85045B68181585D2833E84879B9709143E1F593F0000001 */\n      0x30644e72e131a029b85045b68181585d2833e84879b9709143e1f593f0000001\n        /* \"TP FINAL/CurveBabyJubJub.sol\":1256:1262  submod */\n      tag_254\n        /* \"TP FINAL/CurveBabyJubJub.sol\":1256:1291  submod(y1y2, mulmod(A, x1x2, Q), Q) */\n      jump\t// in\n    tag_251:\n        /* \"TP FINAL/CurveBabyJubJub.sol\":1240:1291  uint256 y3Num = submod(y1y2, mulmod(A, x1x2, Q), Q) */\n      swap1\n      pop\n        /* \"TP FINAL/CurveBabyJubJub.sol\":375:441  0x30644E72E131A029B85045B68181585D2833E84879B9709143E1F593F0000001 */\n      0x30644e72e131a029b85045b68181585d2833e84879b9709143e1f593f0000001\n        /* \"TP FINAL/CurveBabyJubJub.sol\":1309:1359  mulmod(x3Num, inverse(addmod(1, dx1x2y1y2, Q)), Q) */\n      dup1\n      tag_255\n      jumpi\n      tag_256\n      tag_238\n      jump\t// in\n    tag_256:\n    tag_255:\n        /* \"TP FINAL/CurveBabyJubJub.sol\":1323:1355  inverse(addmod(1, dx1x2y1y2, Q)) */\n      tag_257\n        /* \"TP FINAL/CurveBabyJubJub.sol\":375:441  0x30644E72E131A029B85045B68181585D2833E84879B9709143E1F593F0000001 */\n      0x30644e72e131a029b85045b68181585d2833e84879b9709143e1f593f0000001\n        /* \"TP FINAL/CurveBabyJubJub.sol\":1331:1354  addmod(1, dx1x2y1y2, Q) */\n      dup1\n      tag_258\n      jumpi\n      tag_259\n      tag_238\n      jump\t// in\n    tag_259:\n    tag_258:\n        /* \"TP FINAL/CurveBabyJubJub.sol\":1341:1350  dx1x2y1y2 */\n      dup6\n        /* \"TP FINAL/CurveBabyJubJub.sol\":1338:1339  1 */\n      0x01\n        /* \"TP FINAL/CurveBabyJubJub.sol\":1331:1354  addmod(1, dx1x2y1y2, Q) */\n      addmod\n        /* \"TP FINAL/CurveBabyJubJub.sol\":1323:1330  inverse */\n      tag_260\n        /* \"TP FINAL/CurveBabyJubJub.sol\":1323:1355  inverse(addmod(1, dx1x2y1y2, Q)) */\n      jump\t// in\n    tag_257:\n        /* \"TP FINAL/CurveBabyJubJub.sol\":1316:1321  x3Num */\n      dup4\n        /* \"TP FINAL/CurveBabyJubJub.sol\":1309:1359  mulmod(x3Num, inverse(addmod(1, dx1x2y1y2, Q)), Q) */\n      mulmod\n        /* \"TP FINAL/CurveBabyJubJub.sol\":1304:1359  x3 = mulmod(x3Num, inverse(addmod(1, dx1x2y1y2, Q)), Q) */\n      swap7\n      pop\n        /* \"TP FINAL/CurveBabyJubJub.sol\":375:441  0x30644E72E131A029B85045B68181585D2833E84879B9709143E1F593F0000001 */\n      0x30644e72e131a029b85045b68181585d2833e84879b9709143e1f593f0000001\n        /* \"TP FINAL/CurveBabyJubJub.sol\":1375:1425  mulmod(y3Num, inverse(submod(1, dx1x2y1y2, Q)), Q) */\n      dup1\n      tag_261\n      jumpi\n      tag_262\n      tag_238\n      jump\t// in\n    tag_262:\n    tag_261:\n        /* \"TP FINAL/CurveBabyJubJub.sol\":1389:1421  inverse(submod(1, dx1x2y1y2, Q)) */\n      tag_263\n        /* \"TP FINAL/CurveBabyJubJub.sol\":1397:1420  submod(1, dx1x2y1y2, Q) */\n      tag_264\n        /* \"TP FINAL/CurveBabyJubJub.sol\":1404:1405  1 */\n      0x01\n        /* \"TP FINAL/CurveBabyJubJub.sol\":1407:1416  dx1x2y1y2 */\n      dup7\n        /* \"TP FINAL/CurveBabyJubJub.sol\":375:441  0x30644E72E131A029B85045B68181585D2833E84879B9709143E1F593F0000001 */\n      0x30644e72e131a029b85045b68181585d2833e84879b9709143e1f593f0000001\n        /* \"TP FINAL/CurveBabyJubJub.sol\":1397:1403  submod */\n      tag_254\n        /* \"TP FINAL/CurveBabyJubJub.sol\":1397:1420  submod(1, dx1x2y1y2, Q) */\n      jump\t// in\n    tag_264:\n        /* \"TP FINAL/CurveBabyJubJub.sol\":1389:1396  inverse */\n      tag_260\n        /* \"TP FINAL/CurveBabyJubJub.sol\":1389:1421  inverse(submod(1, dx1x2y1y2, Q)) */\n      jump\t// in\n    tag_263:\n        /* \"TP FINAL/CurveBabyJubJub.sol\":1382:1387  y3Num */\n      dup3\n        /* \"TP FINAL/CurveBabyJubJub.sol\":1375:1425  mulmod(y3Num, inverse(submod(1, dx1x2y1y2, Q)), Q) */\n      mulmod\n        /* \"TP FINAL/CurveBabyJubJub.sol\":1370:1425  y3 = mulmod(y3Num, inverse(submod(1, dx1x2y1y2, Q)), Q) */\n      swap6\n      pop\n        /* \"TP FINAL/CurveBabyJubJub.sol\":831:1433  {... */\n      pop\n      pop\n      pop\n      pop\n      pop\n        /* \"TP FINAL/CurveBabyJubJub.sol\":671:1433  function pointAdd(... */\n    tag_231:\n      swap5\n      pop\n      swap5\n      swap3\n      pop\n      pop\n      pop\n      jump\t// out\n        /* \"TP FINAL/CurveBabyJubJub.sol\":3024:3288  function submod(... */\n    tag_254:\n        /* \"TP FINAL/CurveBabyJubJub.sol\":3135:3142  uint256 */\n      0x00\n        /* \"TP FINAL/CurveBabyJubJub.sol\":3155:3166  uint256 aNN */\n      0x00\n        /* \"TP FINAL/CurveBabyJubJub.sol\":3169:3171  _a */\n      dup5\n        /* \"TP FINAL/CurveBabyJubJub.sol\":3155:3171  uint256 aNN = _a */\n      swap1\n      pop\n        /* \"TP FINAL/CurveBabyJubJub.sol\":3194:3196  _b */\n      dup4\n        /* \"TP FINAL/CurveBabyJubJub.sol\":3188:3190  _a */\n      dup6\n        /* \"TP FINAL/CurveBabyJubJub.sol\":3188:3196  _a <= _b */\n      gt\n        /* \"TP FINAL/CurveBabyJubJub.sol\":3184:3236  if (_a <= _b) {... */\n      tag_266\n      jumpi\n        /* \"TP FINAL/CurveBabyJubJub.sol\":3220:3224  _mod */\n      dup3\n        /* \"TP FINAL/CurveBabyJubJub.sol\":3213:3224  aNN += _mod */\n      dup2\n      tag_267\n      swap2\n      swap1\n      tag_154\n      jump\t// in\n    tag_267:\n      swap1\n      pop\n        /* \"TP FINAL/CurveBabyJubJub.sol\":3184:3236  if (_a <= _b) {... */\n    tag_266:\n        /* \"TP FINAL/CurveBabyJubJub.sol\":3275:3279  _mod */\n      dup3\n        /* \"TP FINAL/CurveBabyJubJub.sol\":3255:3280  addmod(aNN - _b, 0, _mod) */\n      dup1\n      tag_268\n      jumpi\n      tag_269\n      tag_238\n      jump\t// in\n    tag_269:\n    tag_268:\n        /* \"TP FINAL/CurveBabyJubJub.sol\":3272:3273  0 */\n      0x00\n        /* \"TP FINAL/CurveBabyJubJub.sol\":3268:3270  _b */\n      dup6\n        /* \"TP FINAL/CurveBabyJubJub.sol\":3262:3265  aNN */\n      dup4\n        /* \"TP FINAL/CurveBabyJubJub.sol\":3262:3270  aNN - _b */\n      tag_270\n      swap2\n      swap1\n      tag_271\n      jump\t// in\n    tag_270:\n        /* \"TP FINAL/CurveBabyJubJub.sol\":3255:3280  addmod(aNN - _b, 0, _mod) */\n      addmod\n        /* \"TP FINAL/CurveBabyJubJub.sol\":3248:3280  return addmod(aNN - _b, 0, _mod) */\n      swap2\n      pop\n      pop\n        /* \"TP FINAL/CurveBabyJubJub.sol\":3024:3288  function submod(... */\n      swap4\n      swap3\n      pop\n      pop\n      pop\n      jump\t// out\n        /* \"TP FINAL/CurveBabyJubJub.sol\":3363:3626  function inverse(uint256 _a) internal view returns (uint256) {... */\n    tag_260:\n        /* \"TP FINAL/CurveBabyJubJub.sol\":3415:3422  uint256 */\n      0x00\n        /* \"TP FINAL/CurveBabyJubJub.sol\":3598:3618  expmod(_a, Q - 2, Q) */\n      tag_273\n        /* \"TP FINAL/CurveBabyJubJub.sol\":3605:3607  _a */\n      dup3\n        /* \"TP FINAL/CurveBabyJubJub.sol\":3613:3614  2 */\n      0x02\n        /* \"TP FINAL/CurveBabyJubJub.sol\":375:441  0x30644E72E131A029B85045B68181585D2833E84879B9709143E1F593F0000001 */\n      0x30644e72e131a029b85045b68181585d2833e84879b9709143e1f593f0000001\n        /* \"TP FINAL/CurveBabyJubJub.sol\":3609:3614  Q - 2 */\n      tag_274\n      swap2\n      swap1\n      tag_271\n      jump\t// in\n    tag_274:\n        /* \"TP FINAL/CurveBabyJubJub.sol\":375:441  0x30644E72E131A029B85045B68181585D2833E84879B9709143E1F593F0000001 */\n      0x30644e72e131a029b85045b68181585d2833e84879b9709143e1f593f0000001\n        /* \"TP FINAL/CurveBabyJubJub.sol\":3598:3604  expmod */\n      tag_275\n        /* \"TP FINAL/CurveBabyJubJub.sol\":3598:3618  expmod(_a, Q - 2, Q) */\n      jump\t// in\n    tag_273:\n        /* \"TP FINAL/CurveBabyJubJub.sol\":3591:3618  return expmod(_a, Q - 2, Q) */\n      swap1\n      pop\n        /* \"TP FINAL/CurveBabyJubJub.sol\":3363:3626  function inverse(uint256 _a) internal view returns (uint256) {... */\n      swap2\n      swap1\n      pop\n      jump\t// out\n        /* \"TP FINAL/CurveBabyJubJub.sol\":3714:4358  function expmod(... */\n    tag_275:\n        /* \"TP FINAL/CurveBabyJubJub.sol\":3823:3832  uint256 o */\n      0x00\n        /* \"TP FINAL/CurveBabyJubJub.sol\":3889:3893  0x40 */\n      0x40\n        /* \"TP FINAL/CurveBabyJubJub.sol\":3883:3894  mload(0x40) */\n      mload\n        /* \"TP FINAL/CurveBabyJubJub.sol\":3923:3927  0x20 */\n      0x20\n        /* \"TP FINAL/CurveBabyJubJub.sol\":3915:3921  memPtr */\n      dup2\n        /* \"TP FINAL/CurveBabyJubJub.sol\":3908:3928  mstore(memPtr, 0x20) */\n      mstore\n        /* \"TP FINAL/CurveBabyJubJub.sol\":3968:3972  0x20 */\n      0x20\n        /* \"TP FINAL/CurveBabyJubJub.sol\":3961:3965  0x20 */\n      dup1\n        /* \"TP FINAL/CurveBabyJubJub.sol\":3953:3959  memPtr */\n      dup3\n        /* \"TP FINAL/CurveBabyJubJub.sol\":3949:3966  add(memPtr, 0x20) */\n      add\n        /* \"TP FINAL/CurveBabyJubJub.sol\":3942:3973  mstore(add(memPtr, 0x20), 0x20) */\n      mstore\n        /* \"TP FINAL/CurveBabyJubJub.sol\":4013:4017  0x20 */\n      0x20\n        /* \"TP FINAL/CurveBabyJubJub.sol\":4006:4010  0x40 */\n      0x40\n        /* \"TP FINAL/CurveBabyJubJub.sol\":3998:4004  memPtr */\n      dup3\n        /* \"TP FINAL/CurveBabyJubJub.sol\":3994:4011  add(memPtr, 0x40) */\n      add\n        /* \"TP FINAL/CurveBabyJubJub.sol\":3987:4018  mstore(add(memPtr, 0x40), 0x20) */\n      mstore\n        /* \"TP FINAL/CurveBabyJubJub.sol\":4058:4060  _b */\n      dup5\n        /* \"TP FINAL/CurveBabyJubJub.sol\":4051:4055  0x60 */\n      0x60\n        /* \"TP FINAL/CurveBabyJubJub.sol\":4043:4049  memPtr */\n      dup3\n        /* \"TP FINAL/CurveBabyJubJub.sol\":4039:4056  add(memPtr, 0x60) */\n      add\n        /* \"TP FINAL/CurveBabyJubJub.sol\":4032:4061  mstore(add(memPtr, 0x60), _b) */\n      mstore\n        /* \"TP FINAL/CurveBabyJubJub.sol\":4101:4103  _e */\n      dup4\n        /* \"TP FINAL/CurveBabyJubJub.sol\":4094:4098  0x80 */\n      0x80\n        /* \"TP FINAL/CurveBabyJubJub.sol\":4086:4092  memPtr */\n      dup3\n        /* \"TP FINAL/CurveBabyJubJub.sol\":4082:4099  add(memPtr, 0x80) */\n      add\n        /* \"TP FINAL/CurveBabyJubJub.sol\":4075:4104  mstore(add(memPtr, 0x80), _e) */\n      mstore\n        /* \"TP FINAL/CurveBabyJubJub.sol\":4144:4146  _m */\n      dup3\n        /* \"TP FINAL/CurveBabyJubJub.sol\":4137:4141  0xa0 */\n      0xa0\n        /* \"TP FINAL/CurveBabyJubJub.sol\":4129:4135  memPtr */\n      dup3\n        /* \"TP FINAL/CurveBabyJubJub.sol\":4125:4142  add(memPtr, 0xa0) */\n      add\n        /* \"TP FINAL/CurveBabyJubJub.sol\":4118:4147  mstore(add(memPtr, 0xa0), _m) */\n      mstore\n        /* \"TP FINAL/CurveBabyJubJub.sol\":4224:4228  0x20 */\n      0x20\n        /* \"TP FINAL/CurveBabyJubJub.sol\":4216:4222  memPtr */\n      dup2\n        /* \"TP FINAL/CurveBabyJubJub.sol\":4210:4214  0xc0 */\n      0xc0\n        /* \"TP FINAL/CurveBabyJubJub.sol\":4202:4208  memPtr */\n      dup4\n        /* \"TP FINAL/CurveBabyJubJub.sol\":4196:4200  0x05 */\n      0x05\n        /* \"TP FINAL/CurveBabyJubJub.sol\":4189:4194  gas() */\n      gas\n        /* \"TP FINAL/CurveBabyJubJub.sol\":4178:4229  staticcall(gas(), 0x05, memPtr, 0xc0, memPtr, 0x20) */\n      staticcall\n        /* \"TP FINAL/CurveBabyJubJub.sol\":4253:4260  success */\n      dup1\n        /* \"TP FINAL/CurveBabyJubJub.sol\":4243:4308  if iszero(success) {... */\n      tag_277\n      jumpi\n        /* \"TP FINAL/CurveBabyJubJub.sol\":4291:4292  0 */\n      0x00\n        /* \"TP FINAL/CurveBabyJubJub.sol\":4288:4289  0 */\n      0x00\n        /* \"TP FINAL/CurveBabyJubJub.sol\":4281:4293  revert(0, 0) */\n      revert\n        /* \"TP FINAL/CurveBabyJubJub.sol\":4243:4308  if iszero(success) {... */\n    tag_277:\n        /* \"TP FINAL/CurveBabyJubJub.sol\":4333:4339  memPtr */\n      dup2\n        /* \"TP FINAL/CurveBabyJubJub.sol\":4327:4340  mload(memPtr) */\n      mload\n        /* \"TP FINAL/CurveBabyJubJub.sol\":4322:4340  o := mload(memPtr) */\n      swap3\n      pop\n        /* \"TP FINAL/CurveBabyJubJub.sol\":3854:4351  {... */\n      pop\n      pop\n        /* \"TP FINAL/CurveBabyJubJub.sol\":3714:4358  function expmod(... */\n      swap4\n      swap3\n      pop\n      pop\n      pop\n      jump\t// out\n    tag_66:\n      mload(0x40)\n      dup1\n      0x0180\n      add\n      0x40\n      mstore\n      dup1\n      0x0c\n      swap1\n      0x20\n      dup3\n      mul\n      dup1\n      calldatasize\n      dup4\n      calldatacopy\n      dup1\n      dup3\n      add\n      swap2\n      pop\n      pop\n      swap1\n      pop\n      pop\n      swap1\n      jump\t// out\n        /* \"#utility.yul\":7:84   */\n    tag_278:\n        /* \"#utility.yul\":44:51   */\n      0x00\n        /* \"#utility.yul\":73:78   */\n      dup2\n        /* \"#utility.yul\":62:78   */\n      swap1\n      pop\n        /* \"#utility.yul\":7:84   */\n      swap2\n      swap1\n      pop\n      jump\t// out\n        /* \"#utility.yul\":90:208   */\n    tag_279:\n        /* \"#utility.yul\":177:201   */\n      tag_355\n        /* \"#utility.yul\":195:200   */\n      dup2\n        /* \"#utility.yul\":177:201   */\n      tag_278\n      jump\t// in\n    tag_355:\n        /* \"#utility.yul\":172:175   */\n      dup3\n        /* \"#utility.yul\":165:202   */\n      mstore\n        /* \"#utility.yul\":90:208   */\n      pop\n      pop\n      jump\t// out\n        /* \"#utility.yul\":214:436   */\n    tag_21:\n        /* \"#utility.yul\":307:311   */\n      0x00\n        /* \"#utility.yul\":345:347   */\n      0x20\n        /* \"#utility.yul\":334:343   */\n      dup3\n        /* \"#utility.yul\":330:348   */\n      add\n        /* \"#utility.yul\":322:348   */\n      swap1\n      pop\n        /* \"#utility.yul\":358:429   */\n      tag_357\n        /* \"#utility.yul\":426:427   */\n      0x00\n        /* \"#utility.yul\":415:424   */\n      dup4\n        /* \"#utility.yul\":411:428   */\n      add\n        /* \"#utility.yul\":402:408   */\n      dup5\n        /* \"#utility.yul\":358:429   */\n      tag_279\n      jump\t// in\n    tag_357:\n        /* \"#utility.yul\":214:436   */\n      swap3\n      swap2\n      pop\n      pop\n      jump\t// out\n        /* \"#utility.yul\":442:532   */\n    tag_280:\n        /* \"#utility.yul\":476:483   */\n      0x00\n        /* \"#utility.yul\":519:524   */\n      dup2\n        /* \"#utility.yul\":512:525   */\n      iszero\n        /* \"#utility.yul\":505:526   */\n      iszero\n        /* \"#utility.yul\":494:526   */\n      swap1\n      pop\n        /* \"#utility.yul\":442:532   */\n      swap2\n      swap1\n      pop\n      jump\t// out\n        /* \"#utility.yul\":538:647   */\n    tag_281:\n        /* \"#utility.yul\":619:640   */\n      tag_360\n        /* \"#utility.yul\":634:639   */\n      dup2\n        /* \"#utility.yul\":619:640   */\n      tag_280\n      jump\t// in\n    tag_360:\n        /* \"#utility.yul\":614:617   */\n      dup3\n        /* \"#utility.yul\":607:641   */\n      mstore\n        /* \"#utility.yul\":538:647   */\n      pop\n      pop\n      jump\t// out\n        /* \"#utility.yul\":653:863   */\n    tag_25:\n        /* \"#utility.yul\":740:744   */\n      0x00\n        /* \"#utility.yul\":778:780   */\n      0x20\n        /* \"#utility.yul\":767:776   */\n      dup3\n        /* \"#utility.yul\":763:781   */\n      add\n        /* \"#utility.yul\":755:781   */\n      swap1\n      pop\n        /* \"#utility.yul\":791:856   */\n      tag_362\n        /* \"#utility.yul\":853:854   */\n      0x00\n        /* \"#utility.yul\":842:851   */\n      dup4\n        /* \"#utility.yul\":838:855   */\n      add\n        /* \"#utility.yul\":829:835   */\n      dup5\n        /* \"#utility.yul\":791:856   */\n      tag_281\n      jump\t// in\n    tag_362:\n        /* \"#utility.yul\":653:863   */\n      swap3\n      swap2\n      pop\n      pop\n      jump\t// out\n        /* \"#utility.yul\":950:1067   */\n    tag_283:\n        /* \"#utility.yul\":1059:1060   */\n      0x00\n        /* \"#utility.yul\":1056:1057   */\n      0x00\n        /* \"#utility.yul\":1049:1061   */\n      revert\n        /* \"#utility.yul\":1196:1313   */\n    tag_285:\n        /* \"#utility.yul\":1305:1306   */\n      0x00\n        /* \"#utility.yul\":1302:1303   */\n      0x00\n        /* \"#utility.yul\":1295:1307   */\n      revert\n        /* \"#utility.yul\":1339:1568   */\n    tag_286:\n        /* \"#utility.yul\":1409:1414   */\n      0x00\n        /* \"#utility.yul\":1450:1453   */\n      0x0100\n        /* \"#utility.yul\":1441:1447   */\n      dup3\n        /* \"#utility.yul\":1436:1439   */\n      dup5\n        /* \"#utility.yul\":1432:1448   */\n      sub\n        /* \"#utility.yul\":1428:1454   */\n      slt\n        /* \"#utility.yul\":1425:1538   */\n      iszero\n      tag_368\n      jumpi\n        /* \"#utility.yul\":1457:1536   */\n      tag_369\n      tag_285\n      jump\t// in\n    tag_369:\n        /* \"#utility.yul\":1425:1538   */\n    tag_368:\n        /* \"#utility.yul\":1556:1562   */\n      dup2\n        /* \"#utility.yul\":1547:1562   */\n      swap1\n      pop\n        /* \"#utility.yul\":1339:1568   */\n      swap3\n      swap2\n      pop\n      pop\n      jump\t// out\n        /* \"#utility.yul\":1574:1691   */\n    tag_287:\n        /* \"#utility.yul\":1683:1684   */\n      0x00\n        /* \"#utility.yul\":1680:1681   */\n      0x00\n        /* \"#utility.yul\":1673:1685   */\n      revert\n        /* \"#utility.yul\":1715:1964   */\n    tag_288:\n        /* \"#utility.yul\":1786:1794   */\n      0x00\n        /* \"#utility.yul\":1817:1823   */\n      dup2\n        /* \"#utility.yul\":1805:1823   */\n      swap1\n      pop\n        /* \"#utility.yul\":1870:1873   */\n      dup3\n        /* \"#utility.yul\":1862:1866   */\n      0x20\n        /* \"#utility.yul\":1856:1860   */\n      0x02\n        /* \"#utility.yul\":1852:1867   */\n      mul\n        /* \"#utility.yul\":1842:1850   */\n      dup3\n        /* \"#utility.yul\":1838:1868   */\n      add\n        /* \"#utility.yul\":1835:1874   */\n      gt\n        /* \"#utility.yul\":1832:1958   */\n      iszero\n      tag_372\n      jumpi\n        /* \"#utility.yul\":1877:1956   */\n      tag_373\n      tag_287\n      jump\t// in\n    tag_373:\n        /* \"#utility.yul\":1832:1958   */\n    tag_372:\n        /* \"#utility.yul\":1715:1964   */\n      swap3\n      swap2\n      pop\n      pop\n      jump\t// out\n        /* \"#utility.yul\":1987:2235   */\n    tag_289:\n        /* \"#utility.yul\":2057:2065   */\n      0x00\n        /* \"#utility.yul\":2088:2094   */\n      dup2\n        /* \"#utility.yul\":2076:2094   */\n      swap1\n      pop\n        /* \"#utility.yul\":2141:2144   */\n      dup3\n        /* \"#utility.yul\":2133:2137   */\n      0x20\n        /* \"#utility.yul\":2127:2131   */\n      0x08\n        /* \"#utility.yul\":2123:2138   */\n      mul\n        /* \"#utility.yul\":2113:2121   */\n      dup3\n        /* \"#utility.yul\":2109:2139   */\n      add\n        /* \"#utility.yul\":2106:2145   */\n      gt\n        /* \"#utility.yul\":2103:2229   */\n      iszero\n      tag_375\n      jumpi\n        /* \"#utility.yul\":2148:2227   */\n      tag_376\n      tag_287\n      jump\t// in\n    tag_376:\n        /* \"#utility.yul\":2103:2229   */\n    tag_375:\n        /* \"#utility.yul\":1987:2235   */\n      swap3\n      swap2\n      pop\n      pop\n      jump\t// out\n        /* \"#utility.yul\":2241:3205   */\n    tag_31:\n        /* \"#utility.yul\":2425:2431   */\n      0x00\n        /* \"#utility.yul\":2433:2439   */\n      0x00\n        /* \"#utility.yul\":2441:2447   */\n      0x00\n        /* \"#utility.yul\":2449:2455   */\n      0x00\n        /* \"#utility.yul\":2498:2501   */\n      0x0280\n        /* \"#utility.yul\":2486:2495   */\n      dup6\n        /* \"#utility.yul\":2477:2484   */\n      dup8\n        /* \"#utility.yul\":2473:2496   */\n      sub\n        /* \"#utility.yul\":2469:2502   */\n      slt\n        /* \"#utility.yul\":2466:2586   */\n      iszero\n      tag_378\n      jumpi\n        /* \"#utility.yul\":2505:2584   */\n      tag_379\n      tag_283\n      jump\t// in\n    tag_379:\n        /* \"#utility.yul\":2466:2586   */\n    tag_378:\n        /* \"#utility.yul\":2625:2626   */\n      0x00\n        /* \"#utility.yul\":2650:2727   */\n      tag_380\n        /* \"#utility.yul\":2719:2726   */\n      dup8\n        /* \"#utility.yul\":2710:2716   */\n      dup3\n        /* \"#utility.yul\":2699:2708   */\n      dup9\n        /* \"#utility.yul\":2695:2717   */\n      add\n        /* \"#utility.yul\":2650:2727   */\n      tag_286\n      jump\t// in\n    tag_380:\n        /* \"#utility.yul\":2640:2727   */\n      swap5\n      pop\n        /* \"#utility.yul\":2596:2737   */\n      pop\n        /* \"#utility.yul\":2776:2779   */\n      0x0100\n        /* \"#utility.yul\":2803:2881   */\n      tag_381\n        /* \"#utility.yul\":2873:2880   */\n      dup8\n        /* \"#utility.yul\":2864:2870   */\n      dup3\n        /* \"#utility.yul\":2853:2862   */\n      dup9\n        /* \"#utility.yul\":2849:2871   */\n      add\n        /* \"#utility.yul\":2803:2881   */\n      tag_288\n      jump\t// in\n    tag_381:\n        /* \"#utility.yul\":2793:2881   */\n      swap4\n      pop\n        /* \"#utility.yul\":2747:2891   */\n      pop\n        /* \"#utility.yul\":2930:2933   */\n      0x0140\n        /* \"#utility.yul\":2957:3035   */\n      tag_382\n        /* \"#utility.yul\":3027:3034   */\n      dup8\n        /* \"#utility.yul\":3018:3024   */\n      dup3\n        /* \"#utility.yul\":3007:3016   */\n      dup9\n        /* \"#utility.yul\":3003:3025   */\n      add\n        /* \"#utility.yul\":2957:3035   */\n      tag_288\n      jump\t// in\n    tag_382:\n        /* \"#utility.yul\":2947:3035   */\n      swap3\n      pop\n        /* \"#utility.yul\":2901:3045   */\n      pop\n        /* \"#utility.yul\":3084:3087   */\n      0x0180\n        /* \"#utility.yul\":3111:3188   */\n      tag_383\n        /* \"#utility.yul\":3180:3187   */\n      dup8\n        /* \"#utility.yul\":3171:3177   */\n      dup3\n        /* \"#utility.yul\":3160:3169   */\n      dup9\n        /* \"#utility.yul\":3156:3178   */\n      add\n        /* \"#utility.yul\":3111:3188   */\n      tag_289\n      jump\t// in\n    tag_383:\n        /* \"#utility.yul\":3101:3188   */\n      swap2\n      pop\n        /* \"#utility.yul\":3055:3198   */\n      pop\n        /* \"#utility.yul\":2241:3205   */\n      swap3\n      swap6\n      swap2\n      swap5\n      pop\n      swap3\n      pop\n      jump\t// out\n        /* \"#utility.yul\":3211:3288   */\n    tag_290:\n        /* \"#utility.yul\":3248:3255   */\n      0x00\n        /* \"#utility.yul\":3277:3282   */\n      dup2\n        /* \"#utility.yul\":3266:3282   */\n      swap1\n      pop\n        /* \"#utility.yul\":3211:3288   */\n      swap2\n      swap1\n      pop\n      jump\t// out\n        /* \"#utility.yul\":3294:3416   */\n    tag_291:\n        /* \"#utility.yul\":3367:3391   */\n      tag_386\n        /* \"#utility.yul\":3385:3390   */\n      dup2\n        /* \"#utility.yul\":3367:3391   */\n      tag_290\n      jump\t// in\n    tag_386:\n        /* \"#utility.yul\":3360:3365   */\n      dup2\n        /* \"#utility.yul\":3357:3392   */\n      eq\n        /* \"#utility.yul\":3347:3410   */\n      tag_387\n      jumpi\n        /* \"#utility.yul\":3406:3407   */\n      0x00\n        /* \"#utility.yul\":3403:3404   */\n      0x00\n        /* \"#utility.yul\":3396:3408   */\n      revert\n        /* \"#utility.yul\":3347:3410   */\n    tag_387:\n        /* \"#utility.yul\":3294:3416   */\n      pop\n      jump\t// out\n        /* \"#utility.yul\":3422:3561   */\n    tag_292:\n        /* \"#utility.yul\":3468:3473   */\n      0x00\n        /* \"#utility.yul\":3506:3512   */\n      dup2\n        /* \"#utility.yul\":3493:3513   */\n      calldataload\n        /* \"#utility.yul\":3484:3513   */\n      swap1\n      pop\n        /* \"#utility.yul\":3522:3555   */\n      tag_389\n        /* \"#utility.yul\":3549:3554   */\n      dup2\n        /* \"#utility.yul\":3522:3555   */\n      tag_291\n      jump\t// in\n    tag_389:\n        /* \"#utility.yul\":3422:3561   */\n      swap3\n      swap2\n      pop\n      pop\n      jump\t// out\n        /* \"#utility.yul\":3567:3896   */\n    tag_40:\n        /* \"#utility.yul\":3626:3632   */\n      0x00\n        /* \"#utility.yul\":3675:3677   */\n      0x20\n        /* \"#utility.yul\":3663:3672   */\n      dup3\n        /* \"#utility.yul\":3654:3661   */\n      dup5\n        /* \"#utility.yul\":3650:3673   */\n      sub\n        /* \"#utility.yul\":3646:3678   */\n      slt\n        /* \"#utility.yul\":3643:3762   */\n      iszero\n      tag_391\n      jumpi\n        /* \"#utility.yul\":3681:3760   */\n      tag_392\n      tag_283\n      jump\t// in\n    tag_392:\n        /* \"#utility.yul\":3643:3762   */\n    tag_391:\n        /* \"#utility.yul\":3801:3802   */\n      0x00\n        /* \"#utility.yul\":3826:3879   */\n      tag_393\n        /* \"#utility.yul\":3871:3878   */\n      dup5\n        /* \"#utility.yul\":3862:3868   */\n      dup3\n        /* \"#utility.yul\":3851:3860   */\n      dup6\n        /* \"#utility.yul\":3847:3869   */\n      add\n        /* \"#utility.yul\":3826:3879   */\n      tag_292\n      jump\t// in\n    tag_393:\n        /* \"#utility.yul\":3816:3879   */\n      swap2\n      pop\n        /* \"#utility.yul\":3772:3889   */\n      pop\n        /* \"#utility.yul\":3567:3896   */\n      swap3\n      swap2\n      pop\n      pop\n      jump\t// out\n        /* \"#utility.yul\":3902:4028   */\n    tag_293:\n        /* \"#utility.yul\":3939:3946   */\n      0x00\n        /* \"#utility.yul\":3979:4021   */\n      0xffffffffffffffffffffffffffffffffffffffff\n        /* \"#utility.yul\":3972:3977   */\n      dup3\n        /* \"#utility.yul\":3968:4022   */\n      and\n        /* \"#utility.yul\":3957:4022   */\n      swap1\n      pop\n        /* \"#utility.yul\":3902:4028   */\n      swap2\n      swap1\n      pop\n      jump\t// out\n        /* \"#utility.yul\":4034:4130   */\n    tag_294:\n        /* \"#utility.yul\":4071:4078   */\n      0x00\n        /* \"#utility.yul\":4100:4124   */\n      tag_396\n        /* \"#utility.yul\":4118:4123   */\n      dup3\n        /* \"#utility.yul\":4100:4124   */\n      tag_293\n      jump\t// in\n    tag_396:\n        /* \"#utility.yul\":4089:4124   */\n      swap1\n      pop\n        /* \"#utility.yul\":4034:4130   */\n      swap2\n      swap1\n      pop\n      jump\t// out\n        /* \"#utility.yul\":4136:4254   */\n    tag_295:\n        /* \"#utility.yul\":4223:4247   */\n      tag_398\n        /* \"#utility.yul\":4241:4246   */\n      dup2\n        /* \"#utility.yul\":4223:4247   */\n      tag_294\n      jump\t// in\n    tag_398:\n        /* \"#utility.yul\":4218:4221   */\n      dup3\n        /* \"#utility.yul\":4211:4248   */\n      mstore\n        /* \"#utility.yul\":4136:4254   */\n      pop\n      pop\n      jump\t// out\n        /* \"#utility.yul\":4260:4482   */\n    tag_52:\n        /* \"#utility.yul\":4353:4357   */\n      0x00\n        /* \"#utility.yul\":4391:4393   */\n      0x20\n        /* \"#utility.yul\":4380:4389   */\n      dup3\n        /* \"#utility.yul\":4376:4394   */\n      add\n        /* \"#utility.yul\":4368:4394   */\n      swap1\n      pop\n        /* \"#utility.yul\":4404:4475   */\n      tag_400\n        /* \"#utility.yul\":4472:4473   */\n      0x00\n        /* \"#utility.yul\":4461:4470   */\n      dup4\n        /* \"#utility.yul\":4457:4474   */\n      add\n        /* \"#utility.yul\":4448:4454   */\n      dup5\n        /* \"#utility.yul\":4404:4475   */\n      tag_295\n      jump\t// in\n    tag_400:\n        /* \"#utility.yul\":4260:4482   */\n      swap3\n      swap2\n      pop\n      pop\n      jump\t// out\n        /* \"#utility.yul\":4488:4548   */\n    tag_296:\n        /* \"#utility.yul\":4516:4519   */\n      0x00\n        /* \"#utility.yul\":4537:4542   */\n      dup2\n        /* \"#utility.yul\":4530:4542   */\n      swap1\n      pop\n        /* \"#utility.yul\":4488:4548   */\n      swap2\n      swap1\n      pop\n      jump\t// out\n        /* \"#utility.yul\":4554:4696   */\n    tag_297:\n        /* \"#utility.yul\":4604:4613   */\n      0x00\n        /* \"#utility.yul\":4637:4690   */\n      tag_403\n        /* \"#utility.yul\":4655:4689   */\n      tag_404\n        /* \"#utility.yul\":4664:4688   */\n      tag_405\n        /* \"#utility.yul\":4682:4687   */\n      dup5\n        /* \"#utility.yul\":4664:4688   */\n      tag_293\n      jump\t// in\n    tag_405:\n        /* \"#utility.yul\":4655:4689   */\n      tag_296\n      jump\t// in\n    tag_404:\n        /* \"#utility.yul\":4637:4690   */\n      tag_293\n      jump\t// in\n    tag_403:\n        /* \"#utility.yul\":4624:4690   */\n      swap1\n      pop\n        /* \"#utility.yul\":4554:4696   */\n      swap2\n      swap1\n      pop\n      jump\t// out\n        /* \"#utility.yul\":4702:4828   */\n    tag_298:\n        /* \"#utility.yul\":4752:4761   */\n      0x00\n        /* \"#utility.yul\":4785:4822   */\n      tag_407\n        /* \"#utility.yul\":4816:4821   */\n      dup3\n        /* \"#utility.yul\":4785:4822   */\n      tag_297\n      jump\t// in\n    tag_407:\n        /* \"#utility.yul\":4772:4822   */\n      swap1\n      pop\n        /* \"#utility.yul\":4702:4828   */\n      swap2\n      swap1\n      pop\n      jump\t// out\n        /* \"#utility.yul\":4834:4977   */\n    tag_299:\n        /* \"#utility.yul\":4901:4910   */\n      0x00\n        /* \"#utility.yul\":4934:4971   */\n      tag_409\n        /* \"#utility.yul\":4965:4970   */\n      dup3\n        /* \"#utility.yul\":4934:4971   */\n      tag_298\n      jump\t// in\n    tag_409:\n        /* \"#utility.yul\":4921:4971   */\n      swap1\n      pop\n        /* \"#utility.yul\":4834:4977   */\n      swap2\n      swap1\n      pop\n      jump\t// out\n        /* \"#utility.yul\":4983:5148   */\n    tag_300:\n        /* \"#utility.yul\":5087:5141   */\n      tag_411\n        /* \"#utility.yul\":5135:5140   */\n      dup2\n        /* \"#utility.yul\":5087:5141   */\n      tag_299\n      jump\t// in\n    tag_411:\n        /* \"#utility.yul\":5082:5085   */\n      dup3\n        /* \"#utility.yul\":5075:5142   */\n      mstore\n        /* \"#utility.yul\":4983:5148   */\n      pop\n      pop\n      jump\t// out\n        /* \"#utility.yul\":5154:5410   */\n    tag_56:\n        /* \"#utility.yul\":5264:5268   */\n      0x00\n        /* \"#utility.yul\":5302:5304   */\n      0x20\n        /* \"#utility.yul\":5291:5300   */\n      dup3\n        /* \"#utility.yul\":5287:5305   */\n      add\n        /* \"#utility.yul\":5279:5305   */\n      swap1\n      pop\n        /* \"#utility.yul\":5315:5403   */\n      tag_413\n        /* \"#utility.yul\":5400:5401   */\n      0x00\n        /* \"#utility.yul\":5389:5398   */\n      dup4\n        /* \"#utility.yul\":5385:5402   */\n      add\n        /* \"#utility.yul\":5376:5382   */\n      dup5\n        /* \"#utility.yul\":5315:5403   */\n      tag_300\n      jump\t// in\n    tag_413:\n        /* \"#utility.yul\":5154:5410   */\n      swap3\n      swap2\n      pop\n      pop\n      jump\t// out\n        /* \"#utility.yul\":5416:5988   */\n    tag_62:\n        /* \"#utility.yul\":5532:5538   */\n      0x00\n        /* \"#utility.yul\":5540:5546   */\n      0x00\n        /* \"#utility.yul\":5589:5592   */\n      0x0200\n        /* \"#utility.yul\":5577:5586   */\n      dup4\n        /* \"#utility.yul\":5568:5575   */\n      dup6\n        /* \"#utility.yul\":5564:5587   */\n      sub\n        /* \"#utility.yul\":5560:5593   */\n      slt\n        /* \"#utility.yul\":5557:5677   */\n      iszero\n      tag_415\n      jumpi\n        /* \"#utility.yul\":5596:5675   */\n      tag_416\n      tag_283\n      jump\t// in\n    tag_416:\n        /* \"#utility.yul\":5557:5677   */\n    tag_415:\n        /* \"#utility.yul\":5716:5717   */\n      0x00\n        /* \"#utility.yul\":5741:5818   */\n      tag_417\n        /* \"#utility.yul\":5810:5817   */\n      dup6\n        /* \"#utility.yul\":5801:5807   */\n      dup3\n        /* \"#utility.yul\":5790:5799   */\n      dup7\n        /* \"#utility.yul\":5786:5808   */\n      add\n        /* \"#utility.yul\":5741:5818   */\n      tag_289\n      jump\t// in\n    tag_417:\n        /* \"#utility.yul\":5731:5818   */\n      swap3\n      pop\n        /* \"#utility.yul\":5687:5828   */\n      pop\n        /* \"#utility.yul\":5867:5870   */\n      0x0100\n        /* \"#utility.yul\":5894:5971   */\n      tag_418\n        /* \"#utility.yul\":5963:5970   */\n      dup6\n        /* \"#utility.yul\":5954:5960   */\n      dup3\n        /* \"#utility.yul\":5943:5952   */\n      dup7\n        /* \"#utility.yul\":5939:5961   */\n      add\n        /* \"#utility.yul\":5894:5971   */\n      tag_286\n      jump\t// in\n    tag_418:\n        /* \"#utility.yul\":5884:5971   */\n      swap2\n      pop\n        /* \"#utility.yul\":5838:5981   */\n      pop\n        /* \"#utility.yul\":5416:5988   */\n      swap3\n      pop\n      swap3\n      swap1\n      pop\n      jump\t// out\n        /* \"#utility.yul\":5994:6174   */\n    tag_69:\n        /* \"#utility.yul\":6042:6119   */\n      0x4e487b7100000000000000000000000000000000000000000000000000000000\n        /* \"#utility.yul\":6039:6040   */\n      0x00\n        /* \"#utility.yul\":6032:6120   */\n      mstore\n        /* \"#utility.yul\":6139:6143   */\n      0x32\n        /* \"#utility.yul\":6136:6137   */\n      0x04\n        /* \"#utility.yul\":6129:6144   */\n      mstore\n        /* \"#utility.yul\":6163:6167   */\n      0x24\n        /* \"#utility.yul\":6160:6161   */\n      0x00\n        /* \"#utility.yul\":6153:6168   */\n      revert\n        /* \"#utility.yul\":6180:6273   */\n    tag_301:\n        /* \"#utility.yul\":6216:6223   */\n      0x00\n        /* \"#utility.yul\":6256:6266   */\n      0xffffffff\n        /* \"#utility.yul\":6249:6254   */\n      dup3\n        /* \"#utility.yul\":6245:6267   */\n      and\n        /* \"#utility.yul\":6234:6267   */\n      swap1\n      pop\n        /* \"#utility.yul\":6180:6273   */\n      swap2\n      swap1\n      pop\n      jump\t// out\n        /* \"#utility.yul\":6279:6399   */\n    tag_302:\n        /* \"#utility.yul\":6351:6374   */\n      tag_422\n        /* \"#utility.yul\":6368:6373   */\n      dup2\n        /* \"#utility.yul\":6351:6374   */\n      tag_301\n      jump\t// in\n    tag_422:\n        /* \"#utility.yul\":6344:6349   */\n      dup2\n        /* \"#utility.yul\":6341:6375   */\n      eq\n        /* \"#utility.yul\":6331:6393   */\n      tag_423\n      jumpi\n        /* \"#utility.yul\":6389:6390   */\n      0x00\n        /* \"#utility.yul\":6386:6387   */\n      0x00\n        /* \"#utility.yul\":6379:6391   */\n      revert\n        /* \"#utility.yul\":6331:6393   */\n    tag_423:\n        /* \"#utility.yul\":6279:6399   */\n      pop\n      jump\t// out\n        /* \"#utility.yul\":6405:6542   */\n    tag_303:\n        /* \"#utility.yul\":6450:6455   */\n      0x00\n        /* \"#utility.yul\":6488:6494   */\n      dup2\n        /* \"#utility.yul\":6475:6495   */\n      calldataload\n        /* \"#utility.yul\":6466:6495   */\n      swap1\n      pop\n        /* \"#utility.yul\":6504:6536   */\n      tag_425\n        /* \"#utility.yul\":6530:6535   */\n      dup2\n        /* \"#utility.yul\":6504:6536   */\n      tag_302\n      jump\t// in\n    tag_425:\n        /* \"#utility.yul\":6405:6542   */\n      swap3\n      swap2\n      pop\n      pop\n      jump\t// out\n        /* \"#utility.yul\":6548:6875   */\n    tag_87:\n        /* \"#utility.yul\":6606:6612   */\n      0x00\n        /* \"#utility.yul\":6655:6657   */\n      0x20\n        /* \"#utility.yul\":6643:6652   */\n      dup3\n        /* \"#utility.yul\":6634:6641   */\n      dup5\n        /* \"#utility.yul\":6630:6653   */\n      sub\n        /* \"#utility.yul\":6626:6658   */\n      slt\n        /* \"#utility.yul\":6623:6742   */\n      iszero\n      tag_427\n      jumpi\n        /* \"#utility.yul\":6661:6740   */\n      tag_428\n      tag_283\n      jump\t// in\n    tag_428:\n        /* \"#utility.yul\":6623:6742   */\n    tag_427:\n        /* \"#utility.yul\":6781:6782   */\n      0x00\n        /* \"#utility.yul\":6806:6858   */\n      tag_429\n        /* \"#utility.yul\":6850:6857   */\n      dup5\n        /* \"#utility.yul\":6841:6847   */\n      dup3\n        /* \"#utility.yul\":6830:6839   */\n      dup6\n        /* \"#utility.yul\":6826:6848   */\n      add\n        /* \"#utility.yul\":6806:6858   */\n      tag_303\n      jump\t// in\n    tag_429:\n        /* \"#utility.yul\":6796:6858   */\n      swap2\n      pop\n        /* \"#utility.yul\":6752:6868   */\n      pop\n        /* \"#utility.yul\":6548:6875   */\n      swap3\n      swap2\n      pop\n      pop\n      jump\t// out\n        /* \"#utility.yul\":6881:7050   */\n    tag_304:\n        /* \"#utility.yul\":6965:6976   */\n      0x00\n        /* \"#utility.yul\":6999:7005   */\n      dup3\n        /* \"#utility.yul\":6994:6997   */\n      dup3\n        /* \"#utility.yul\":6987:7006   */\n      mstore\n        /* \"#utility.yul\":7039:7043   */\n      0x20\n        /* \"#utility.yul\":7034:7037   */\n      dup3\n        /* \"#utility.yul\":7030:7044   */\n      add\n        /* \"#utility.yul\":7015:7044   */\n      swap1\n      pop\n        /* \"#utility.yul\":6881:7050   */\n      swap3\n      swap2\n      pop\n      pop\n      jump\t// out\n        /* \"#utility.yul\":7056:7221   */\n    tag_305:\n        /* \"#utility.yul\":7196:7213   */\n      0x456c656374696f6e20636c6f7365640000000000000000000000000000000000\n        /* \"#utility.yul\":7192:7193   */\n      0x00\n        /* \"#utility.yul\":7184:7190   */\n      dup3\n        /* \"#utility.yul\":7180:7194   */\n      add\n        /* \"#utility.yul\":7173:7214   */\n      mstore\n        /* \"#utility.yul\":7056:7221   */\n      pop\n      jump\t// out\n        /* \"#utility.yul\":7227:7593   */\n    tag_306:\n        /* \"#utility.yul\":7369:7372   */\n      0x00\n        /* \"#utility.yul\":7390:7457   */\n      tag_433\n        /* \"#utility.yul\":7454:7456   */\n      0x0f\n        /* \"#utility.yul\":7449:7452   */\n      dup4\n        /* \"#utility.yul\":7390:7457   */\n      tag_304\n      jump\t// in\n    tag_433:\n        /* \"#utility.yul\":7383:7457   */\n      swap2\n      pop\n        /* \"#utility.yul\":7466:7559   */\n      tag_434\n        /* \"#utility.yul\":7555:7558   */\n      dup3\n        /* \"#utility.yul\":7466:7559   */\n      tag_305\n      jump\t// in\n    tag_434:\n        /* \"#utility.yul\":7584:7586   */\n      0x20\n        /* \"#utility.yul\":7579:7582   */\n      dup3\n        /* \"#utility.yul\":7575:7587   */\n      add\n        /* \"#utility.yul\":7568:7587   */\n      swap1\n      pop\n        /* \"#utility.yul\":7227:7593   */\n      swap2\n      swap1\n      pop\n      jump\t// out\n        /* \"#utility.yul\":7599:8018   */\n    tag_127:\n        /* \"#utility.yul\":7765:7769   */\n      0x00\n        /* \"#utility.yul\":7803:7805   */\n      0x20\n        /* \"#utility.yul\":7792:7801   */\n      dup3\n        /* \"#utility.yul\":7788:7806   */\n      add\n        /* \"#utility.yul\":7780:7806   */\n      swap1\n      pop\n        /* \"#utility.yul\":7852:7861   */\n      dup2\n        /* \"#utility.yul\":7846:7850   */\n      dup2\n        /* \"#utility.yul\":7842:7862   */\n      sub\n        /* \"#utility.yul\":7838:7839   */\n      0x00\n        /* \"#utility.yul\":7827:7836   */\n      dup4\n        /* \"#utility.yul\":7823:7840   */\n      add\n        /* \"#utility.yul\":7816:7863   */\n      mstore\n        /* \"#utility.yul\":7880:8011   */\n      tag_436\n        /* \"#utility.yul\":8006:8010   */\n      dup2\n        /* \"#utility.yul\":7880:8011   */\n      tag_306\n      jump\t// in\n    tag_436:\n        /* \"#utility.yul\":7872:8011   */\n      swap1\n      pop\n        /* \"#utility.yul\":7599:8018   */\n      swap2\n      swap1\n      pop\n      jump\t// out\n        /* \"#utility.yul\":8024:8129   */\n    tag_307:\n        /* \"#utility.yul\":8090:8096   */\n      0x00\n        /* \"#utility.yul\":8118:8122   */\n      0x08\n        /* \"#utility.yul\":8108:8122   */\n      swap1\n      pop\n        /* \"#utility.yul\":8024:8129   */\n      swap2\n      swap1\n      pop\n      jump\t// out\n        /* \"#utility.yul\":8135:8295   */\n    tag_308:\n        /* \"#utility.yul\":8249:8260   */\n      0x00\n        /* \"#utility.yul\":8286:8289   */\n      dup2\n        /* \"#utility.yul\":8271:8289   */\n      swap1\n      pop\n        /* \"#utility.yul\":8135:8295   */\n      swap3\n      swap2\n      pop\n      pop\n      jump\t// out\n        /* \"#utility.yul\":8301:8400   */\n    tag_309:\n        /* \"#utility.yul\":8367:8371   */\n      0x00\n        /* \"#utility.yul\":8390:8393   */\n      dup2\n        /* \"#utility.yul\":8382:8393   */\n      swap1\n      pop\n        /* \"#utility.yul\":8301:8400   */\n      swap2\n      swap1\n      pop\n      jump\t// out\n        /* \"#utility.yul\":8406:8519   */\n    tag_310:\n        /* \"#utility.yul\":8489:8512   */\n      tag_441\n        /* \"#utility.yul\":8506:8511   */\n      dup2\n        /* \"#utility.yul\":8489:8512   */\n      tag_301\n      jump\t// in\n    tag_441:\n        /* \"#utility.yul\":8484:8487   */\n      dup3\n        /* \"#utility.yul\":8477:8513   */\n      mstore\n        /* \"#utility.yul\":8406:8519   */\n      pop\n      pop\n      jump\t// out\n        /* \"#utility.yul\":8525:8716   */\n    tag_311:\n        /* \"#utility.yul\":8600:8610   */\n      0x00\n        /* \"#utility.yul\":8621:8673   */\n      tag_443\n        /* \"#utility.yul\":8669:8672   */\n      dup4\n        /* \"#utility.yul\":8661:8667   */\n      dup4\n        /* \"#utility.yul\":8621:8673   */\n      tag_310\n      jump\t// in\n    tag_443:\n        /* \"#utility.yul\":8705:8709   */\n      0x20\n        /* \"#utility.yul\":8700:8703   */\n      dup4\n        /* \"#utility.yul\":8696:8710   */\n      add\n        /* \"#utility.yul\":8682:8710   */\n      swap1\n      pop\n        /* \"#utility.yul\":8525:8716   */\n      swap3\n      swap2\n      pop\n      pop\n      jump\t// out\n        /* \"#utility.yul\":8722:8842   */\n    tag_312:\n        /* \"#utility.yul\":8773:8778   */\n      0x00\n        /* \"#utility.yul\":8798:8836   */\n      tag_445\n        /* \"#utility.yul\":8832:8834   */\n      0x20\n        /* \"#utility.yul\":8827:8830   */\n      dup5\n        /* \"#utility.yul\":8823:8835   */\n      add\n        /* \"#utility.yul\":8818:8821   */\n      dup5\n        /* \"#utility.yul\":8798:8836   */\n      tag_303\n      jump\t// in\n    tag_445:\n        /* \"#utility.yul\":8789:8836   */\n      swap1\n      pop\n        /* \"#utility.yul\":8722:8842   */\n      swap3\n      swap2\n      pop\n      pop\n      jump\t// out\n        /* \"#utility.yul\":8848:8960   */\n    tag_313:\n        /* \"#utility.yul\":8917:8921   */\n      0x00\n        /* \"#utility.yul\":8949:8953   */\n      0x20\n        /* \"#utility.yul\":8944:8947   */\n      dup3\n        /* \"#utility.yul\":8940:8954   */\n      add\n        /* \"#utility.yul\":8932:8954   */\n      swap1\n      pop\n        /* \"#utility.yul\":8848:8960   */\n      swap2\n      swap1\n      pop\n      jump\t// out\n        /* \"#utility.yul\":8996:9762   */\n    tag_314:\n        /* \"#utility.yul\":9150:9203   */\n      tag_448\n        /* \"#utility.yul\":9197:9202   */\n      dup2\n        /* \"#utility.yul\":9150:9203   */\n      tag_307\n      jump\t// in\n    tag_448:\n        /* \"#utility.yul\":9219:9320   */\n      tag_449\n        /* \"#utility.yul\":9313:9319   */\n      dup2\n        /* \"#utility.yul\":9308:9311   */\n      dup5\n        /* \"#utility.yul\":9219:9320   */\n      tag_308\n      jump\t// in\n    tag_449:\n        /* \"#utility.yul\":9212:9320   */\n      swap3\n      pop\n        /* \"#utility.yul\":9344:9399   */\n      tag_450\n        /* \"#utility.yul\":9393:9398   */\n      dup3\n        /* \"#utility.yul\":9344:9399   */\n      tag_309\n      jump\t// in\n    tag_450:\n        /* \"#utility.yul\":9422:9429   */\n      dup1\n        /* \"#utility.yul\":9453:9454   */\n      0x00\n        /* \"#utility.yul\":9438:9755   */\n    tag_451:\n        /* \"#utility.yul\":9463:9469   */\n      dup4\n        /* \"#utility.yul\":9460:9461   */\n      dup2\n        /* \"#utility.yul\":9457:9470   */\n      lt\n        /* \"#utility.yul\":9438:9755   */\n      iszero\n      tag_453\n      jumpi\n        /* \"#utility.yul\":9533:9574   */\n      tag_454\n        /* \"#utility.yul\":9567:9573   */\n      dup3\n        /* \"#utility.yul\":9558:9565   */\n      dup5\n        /* \"#utility.yul\":9533:9574   */\n      tag_312\n      jump\t// in\n    tag_454:\n        /* \"#utility.yul\":9594:9663   */\n      tag_455\n        /* \"#utility.yul\":9659:9662   */\n      dup8\n        /* \"#utility.yul\":9644:9657   */\n      dup3\n        /* \"#utility.yul\":9594:9663   */\n      tag_311\n      jump\t// in\n    tag_455:\n        /* \"#utility.yul\":9587:9663   */\n      swap7\n      pop\n        /* \"#utility.yul\":9686:9745   */\n      tag_456\n        /* \"#utility.yul\":9738:9744   */\n      dup4\n        /* \"#utility.yul\":9686:9745   */\n      tag_313\n      jump\t// in\n    tag_456:\n        /* \"#utility.yul\":9676:9745   */\n      swap3\n      pop\n        /* \"#utility.yul\":9498:9755   */\n      pop\n        /* \"#utility.yul\":9485:9486   */\n      0x01\n        /* \"#utility.yul\":9482:9483   */\n      dup2\n        /* \"#utility.yul\":9478:9487   */\n      add\n        /* \"#utility.yul\":9473:9487   */\n      swap1\n      pop\n        /* \"#utility.yul\":9438:9755   */\n      jump(tag_451)\n    tag_453:\n        /* \"#utility.yul\":9442:9456   */\n      pop\n        /* \"#utility.yul\":9126:9762   */\n      pop\n      pop\n      pop\n        /* \"#utility.yul\":8996:9762   */\n      pop\n      pop\n      jump\t// out\n        /* \"#utility.yul\":9768:10117   */\n    tag_129:\n        /* \"#utility.yul\":9926:9929   */\n      0x00\n        /* \"#utility.yul\":9941:10062   */\n      tag_458\n        /* \"#utility.yul\":10058:10061   */\n      dup3\n        /* \"#utility.yul\":10049:10055   */\n      dup5\n        /* \"#utility.yul\":9941:10062   */\n      tag_314\n      jump\t// in\n    tag_458:\n        /* \"#utility.yul\":10087:10090   */\n      0x0100\n        /* \"#utility.yul\":10082:10085   */\n      dup3\n        /* \"#utility.yul\":10078:10091   */\n      add\n        /* \"#utility.yul\":10071:10091   */\n      swap2\n      pop\n        /* \"#utility.yul\":10108:10111   */\n      dup2\n        /* \"#utility.yul\":10101:10111   */\n      swap1\n      pop\n        /* \"#utility.yul\":9768:10117   */\n      swap3\n      swap2\n      pop\n      pop\n      jump\t// out\n        /* \"#utility.yul\":10123:10295   */\n    tag_315:\n        /* \"#utility.yul\":10263:10287   */\n      0x4e756c6c696669657220616c7265616479207573656400000000000000000000\n        /* \"#utility.yul\":10259:10260   */\n      0x00\n        /* \"#utility.yul\":10251:10257   */\n      dup3\n        /* \"#utility.yul\":10247:10261   */\n      add\n        /* \"#utility.yul\":10240:10288   */\n      mstore\n        /* \"#utility.yul\":10123:10295   */\n      pop\n      jump\t// out\n        /* \"#utility.yul\":10301:10667   */\n    tag_316:\n        /* \"#utility.yul\":10443:10446   */\n      0x00\n        /* \"#utility.yul\":10464:10531   */\n      tag_461\n        /* \"#utility.yul\":10528:10530   */\n      0x16\n        /* \"#utility.yul\":10523:10526   */\n      dup4\n        /* \"#utility.yul\":10464:10531   */\n      tag_304\n      jump\t// in\n    tag_461:\n        /* \"#utility.yul\":10457:10531   */\n      swap2\n      pop\n        /* \"#utility.yul\":10540:10633   */\n      tag_462\n        /* \"#utility.yul\":10629:10632   */\n      dup3\n        /* \"#utility.yul\":10540:10633   */\n      tag_315\n      jump\t// in\n    tag_462:\n        /* \"#utility.yul\":10658:10660   */\n      0x20\n        /* \"#utility.yul\":10653:10656   */\n      dup3\n        /* \"#utility.yul\":10649:10661   */\n      add\n        /* \"#utility.yul\":10642:10661   */\n      swap1\n      pop\n        /* \"#utility.yul\":10301:10667   */\n      swap2\n      swap1\n      pop\n      jump\t// out\n        /* \"#utility.yul\":10673:11092   */\n    tag_132:\n        /* \"#utility.yul\":10839:10843   */\n      0x00\n        /* \"#utility.yul\":10877:10879   */\n      0x20\n        /* \"#utility.yul\":10866:10875   */\n      dup3\n        /* \"#utility.yul\":10862:10880   */\n      add\n        /* \"#utility.yul\":10854:10880   */\n      swap1\n      pop\n        /* \"#utility.yul\":10926:10935   */\n      dup2\n        /* \"#utility.yul\":10920:10924   */\n      dup2\n        /* \"#utility.yul\":10916:10936   */\n      sub\n        /* \"#utility.yul\":10912:10913   */\n      0x00\n        /* \"#utility.yul\":10901:10910   */\n      dup4\n        /* \"#utility.yul\":10897:10914   */\n      add\n        /* \"#utility.yul\":10890:10937   */\n      mstore\n        /* \"#utility.yul\":10954:11085   */\n      tag_464\n        /* \"#utility.yul\":11080:11084   */\n      dup2\n        /* \"#utility.yul\":10954:11085   */\n      tag_316\n      jump\t// in\n    tag_464:\n        /* \"#utility.yul\":10946:11085   */\n      swap1\n      pop\n        /* \"#utility.yul\":10673:11092   */\n      swap2\n      swap1\n      pop\n      jump\t// out\n        /* \"#utility.yul\":11098:11210   */\n    tag_317:\n        /* \"#utility.yul\":11176:11181   */\n      0x00\n        /* \"#utility.yul\":11201:11204   */\n      dup3\n        /* \"#utility.yul\":11192:11204   */\n      swap1\n      pop\n        /* \"#utility.yul\":11098:11210   */\n      swap3\n      swap2\n      pop\n      pop\n      jump\t// out\n        /* \"#utility.yul\":11216:11338   */\n    tag_318:\n        /* \"#utility.yul\":11289:11313   */\n      tag_467\n        /* \"#utility.yul\":11307:11312   */\n      dup2\n        /* \"#utility.yul\":11289:11313   */\n      tag_278\n      jump\t// in\n    tag_467:\n        /* \"#utility.yul\":11282:11287   */\n      dup2\n        /* \"#utility.yul\":11279:11314   */\n      eq\n        /* \"#utility.yul\":11269:11332   */\n      tag_468\n      jumpi\n        /* \"#utility.yul\":11328:11329   */\n      0x00\n        /* \"#utility.yul\":11325:11326   */\n      0x00\n        /* \"#utility.yul\":11318:11330   */\n      revert\n        /* \"#utility.yul\":11269:11332   */\n    tag_468:\n        /* \"#utility.yul\":11216:11338   */\n      pop\n      jump\t// out\n        /* \"#utility.yul\":11344:11483   */\n    tag_319:\n        /* \"#utility.yul\":11390:11395   */\n      0x00\n        /* \"#utility.yul\":11428:11434   */\n      dup2\n        /* \"#utility.yul\":11415:11435   */\n      calldataload\n        /* \"#utility.yul\":11406:11435   */\n      swap1\n      pop\n        /* \"#utility.yul\":11444:11477   */\n      tag_470\n        /* \"#utility.yul\":11471:11476   */\n      dup2\n        /* \"#utility.yul\":11444:11477   */\n      tag_318\n      jump\t// in\n    tag_470:\n        /* \"#utility.yul\":11344:11483   */\n      swap3\n      swap2\n      pop\n      pop\n      jump\t// out\n        /* \"#utility.yul\":11489:11611   */\n    tag_320:\n        /* \"#utility.yul\":11541:11546   */\n      0x00\n        /* \"#utility.yul\":11566:11605   */\n      tag_472\n        /* \"#utility.yul\":11601:11603   */\n      0x20\n        /* \"#utility.yul\":11596:11599   */\n      dup5\n        /* \"#utility.yul\":11592:11604   */\n      add\n        /* \"#utility.yul\":11587:11590   */\n      dup5\n        /* \"#utility.yul\":11566:11605   */\n      tag_319\n      jump\t// in\n    tag_472:\n        /* \"#utility.yul\":11557:11605   */\n      swap1\n      pop\n        /* \"#utility.yul\":11489:11611   */\n      swap3\n      swap2\n      pop\n      pop\n      jump\t// out\n        /* \"#utility.yul\":11617:11725   */\n    tag_321:\n        /* \"#utility.yul\":11694:11718   */\n      tag_474\n        /* \"#utility.yul\":11712:11717   */\n      dup2\n        /* \"#utility.yul\":11694:11718   */\n      tag_278\n      jump\t// in\n    tag_474:\n        /* \"#utility.yul\":11689:11692   */\n      dup3\n        /* \"#utility.yul\":11682:11719   */\n      mstore\n        /* \"#utility.yul\":11617:11725   */\n      pop\n      pop\n      jump\t// out\n        /* \"#utility.yul\":11771:12316   */\n    tag_322:\n        /* \"#utility.yul\":11908:11912   */\n      0x40\n        /* \"#utility.yul\":11903:11906   */\n      dup3\n        /* \"#utility.yul\":11899:11913   */\n      add\n        /* \"#utility.yul\":11975:12025   */\n      tag_476\n        /* \"#utility.yul\":12019:12023   */\n      0x00\n        /* \"#utility.yul\":12012:12017   */\n      dup4\n        /* \"#utility.yul\":12008:12024   */\n      add\n        /* \"#utility.yul\":12001:12006   */\n      dup4\n        /* \"#utility.yul\":11975:12025   */\n      tag_320\n      jump\t// in\n    tag_476:\n        /* \"#utility.yul\":12038:12101   */\n      tag_477\n        /* \"#utility.yul\":12095:12099   */\n      0x00\n        /* \"#utility.yul\":12090:12093   */\n      dup6\n        /* \"#utility.yul\":12086:12100   */\n      add\n        /* \"#utility.yul\":12072:12084   */\n      dup3\n        /* \"#utility.yul\":12038:12101   */\n      tag_321\n      jump\t// in\n    tag_477:\n        /* \"#utility.yul\":11923:12111   */\n      pop\n        /* \"#utility.yul\":12173:12223   */\n      tag_478\n        /* \"#utility.yul\":12217:12221   */\n      0x20\n        /* \"#utility.yul\":12210:12215   */\n      dup4\n        /* \"#utility.yul\":12206:12222   */\n      add\n        /* \"#utility.yul\":12199:12204   */\n      dup4\n        /* \"#utility.yul\":12173:12223   */\n      tag_320\n      jump\t// in\n    tag_478:\n        /* \"#utility.yul\":12236:12299   */\n      tag_479\n        /* \"#utility.yul\":12293:12297   */\n      0x20\n        /* \"#utility.yul\":12288:12291   */\n      dup6\n        /* \"#utility.yul\":12284:12298   */\n      add\n        /* \"#utility.yul\":12270:12282   */\n      dup3\n        /* \"#utility.yul\":12236:12299   */\n      tag_321\n      jump\t// in\n    tag_479:\n        /* \"#utility.yul\":12121:12309   */\n      pop\n        /* \"#utility.yul\":11877:12316   */\n      pop\n        /* \"#utility.yul\":11771:12316   */\n      pop\n      pop\n      jump\t// out\n        /* \"#utility.yul\":12322:12434   */\n    tag_323:\n        /* \"#utility.yul\":12400:12405   */\n      0x00\n        /* \"#utility.yul\":12425:12428   */\n      dup3\n        /* \"#utility.yul\":12416:12428   */\n      swap1\n      pop\n        /* \"#utility.yul\":12322:12434   */\n      swap3\n      swap2\n      pop\n      pop\n      jump\t// out\n        /* \"#utility.yul\":12440:12551   */\n    tag_324:\n        /* \"#utility.yul\":12517:12522   */\n      0x00\n        /* \"#utility.yul\":12542:12545   */\n      dup3\n        /* \"#utility.yul\":12533:12545   */\n      swap1\n      pop\n        /* \"#utility.yul\":12440:12551   */\n      swap3\n      swap2\n      pop\n      pop\n      jump\t// out\n        /* \"#utility.yul\":12557:12656   */\n    tag_325:\n        /* \"#utility.yul\":12642:12648   */\n      dup3\n        /* \"#utility.yul\":12637:12640   */\n      dup2\n        /* \"#utility.yul\":12632:12635   */\n      dup4\n        /* \"#utility.yul\":12619:12649   */\n      calldatacopy\n        /* \"#utility.yul\":12557:12656   */\n      pop\n      pop\n      pop\n      jump\t// out\n        /* \"#utility.yul\":12694:12854   */\n    tag_326:\n        /* \"#utility.yul\":12807:12848   */\n      tag_484\n        /* \"#utility.yul\":12843:12847   */\n      0x40\n        /* \"#utility.yul\":12838:12841   */\n      dup4\n        /* \"#utility.yul\":12831:12836   */\n      dup4\n        /* \"#utility.yul\":12807:12848   */\n      tag_325\n      jump\t// in\n    tag_484:\n        /* \"#utility.yul\":12694:12854   */\n      pop\n      pop\n      jump\t// out\n        /* \"#utility.yul\":12900:13591   */\n    tag_327:\n        /* \"#utility.yul\":13037:13041   */\n      0x80\n        /* \"#utility.yul\":13032:13035   */\n      dup3\n        /* \"#utility.yul\":13028:13042   */\n      add\n        /* \"#utility.yul\":13104:13179   */\n      tag_486\n        /* \"#utility.yul\":13173:13177   */\n      0x00\n        /* \"#utility.yul\":13166:13171   */\n      dup4\n        /* \"#utility.yul\":13162:13178   */\n      add\n        /* \"#utility.yul\":13155:13160   */\n      dup4\n        /* \"#utility.yul\":13104:13179   */\n      tag_324\n      jump\t// in\n    tag_486:\n        /* \"#utility.yul\":13192:13303   */\n      tag_487\n        /* \"#utility.yul\":13297:13301   */\n      0x00\n        /* \"#utility.yul\":13292:13295   */\n      dup6\n        /* \"#utility.yul\":13288:13302   */\n      add\n        /* \"#utility.yul\":13274:13286   */\n      dup3\n        /* \"#utility.yul\":13192:13303   */\n      tag_326\n      jump\t// in\n    tag_487:\n        /* \"#utility.yul\":13052:13313   */\n      pop\n        /* \"#utility.yul\":13375:13450   */\n      tag_488\n        /* \"#utility.yul\":13444:13448   */\n      0x40\n        /* \"#utility.yul\":13437:13442   */\n      dup4\n        /* \"#utility.yul\":13433:13449   */\n      add\n        /* \"#utility.yul\":13426:13431   */\n      dup4\n        /* \"#utility.yul\":13375:13450   */\n      tag_324\n      jump\t// in\n    tag_488:\n        /* \"#utility.yul\":13463:13574   */\n      tag_489\n        /* \"#utility.yul\":13568:13572   */\n      0x40\n        /* \"#utility.yul\":13563:13566   */\n      dup6\n        /* \"#utility.yul\":13559:13573   */\n      add\n        /* \"#utility.yul\":13545:13557   */\n      dup3\n        /* \"#utility.yul\":13463:13574   */\n      tag_326\n      jump\t// in\n    tag_489:\n        /* \"#utility.yul\":13323:13584   */\n      pop\n        /* \"#utility.yul\":13006:13591   */\n      pop\n        /* \"#utility.yul\":12900:13591   */\n      pop\n      pop\n      jump\t// out\n        /* \"#utility.yul\":13633:14612   */\n    tag_328:\n        /* \"#utility.yul\":13776:13782   */\n      0x0100\n        /* \"#utility.yul\":13771:13774   */\n      dup3\n        /* \"#utility.yul\":13767:13783   */\n      add\n        /* \"#utility.yul\":13845:13921   */\n      tag_491\n        /* \"#utility.yul\":13915:13919   */\n      0x00\n        /* \"#utility.yul\":13908:13913   */\n      dup4\n        /* \"#utility.yul\":13904:13920   */\n      add\n        /* \"#utility.yul\":13897:13902   */\n      dup4\n        /* \"#utility.yul\":13845:13921   */\n      tag_317\n      jump\t// in\n    tag_491:\n        /* \"#utility.yul\":13934:14047   */\n      tag_492\n        /* \"#utility.yul\":14041:14045   */\n      0x00\n        /* \"#utility.yul\":14036:14039   */\n      dup6\n        /* \"#utility.yul\":14032:14046   */\n      add\n        /* \"#utility.yul\":14018:14030   */\n      dup3\n        /* \"#utility.yul\":13934:14047   */\n      tag_322\n      jump\t// in\n    tag_492:\n        /* \"#utility.yul\":13793:14057   */\n      pop\n        /* \"#utility.yul\":14119:14195   */\n      tag_493\n        /* \"#utility.yul\":14189:14193   */\n      0x40\n        /* \"#utility.yul\":14182:14187   */\n      dup4\n        /* \"#utility.yul\":14178:14194   */\n      add\n        /* \"#utility.yul\":14171:14176   */\n      dup4\n        /* \"#utility.yul\":14119:14195   */\n      tag_323\n      jump\t// in\n    tag_493:\n        /* \"#utility.yul\":14208:14321   */\n      tag_494\n        /* \"#utility.yul\":14315:14319   */\n      0x40\n        /* \"#utility.yul\":14310:14313   */\n      dup6\n        /* \"#utility.yul\":14306:14320   */\n      add\n        /* \"#utility.yul\":14292:14304   */\n      dup3\n        /* \"#utility.yul\":14208:14321   */\n      tag_327\n      jump\t// in\n    tag_494:\n        /* \"#utility.yul\":14067:14331   */\n      pop\n        /* \"#utility.yul\":14393:14469   */\n      tag_495\n        /* \"#utility.yul\":14463:14467   */\n      0xc0\n        /* \"#utility.yul\":14456:14461   */\n      dup4\n        /* \"#utility.yul\":14452:14468   */\n      add\n        /* \"#utility.yul\":14445:14450   */\n      dup4\n        /* \"#utility.yul\":14393:14469   */\n      tag_317\n      jump\t// in\n    tag_495:\n        /* \"#utility.yul\":14482:14595   */\n      tag_496\n        /* \"#utility.yul\":14589:14593   */\n      0xc0\n        /* \"#utility.yul\":14584:14587   */\n      dup6\n        /* \"#utility.yul\":14580:14594   */\n      add\n        /* \"#utility.yul\":14566:14578   */\n      dup3\n        /* \"#utility.yul\":14482:14595   */\n      tag_322\n      jump\t// in\n    tag_496:\n        /* \"#utility.yul\":14341:14605   */\n      pop\n        /* \"#utility.yul\":13745:14612   */\n      pop\n        /* \"#utility.yul\":13633:14612   */\n      pop\n      pop\n      jump\t// out\n        /* \"#utility.yul\":14618:14723   */\n    tag_329:\n        /* \"#utility.yul\":14684:14690   */\n      0x00\n        /* \"#utility.yul\":14712:14716   */\n      0x0c\n        /* \"#utility.yul\":14702:14716   */\n      swap1\n      pop\n        /* \"#utility.yul\":14618:14723   */\n      swap2\n      swap1\n      pop\n      jump\t// out\n        /* \"#utility.yul\":14729:14873   */\n    tag_330:\n        /* \"#utility.yul\":14827:14838   */\n      0x00\n        /* \"#utility.yul\":14864:14867   */\n      dup2\n        /* \"#utility.yul\":14849:14867   */\n      swap1\n      pop\n        /* \"#utility.yul\":14729:14873   */\n      swap3\n      swap2\n      pop\n      pop\n      jump\t// out\n        /* \"#utility.yul\":14879:14978   */\n    tag_331:\n        /* \"#utility.yul\":14945:14949   */\n      0x00\n        /* \"#utility.yul\":14968:14971   */\n      dup2\n        /* \"#utility.yul\":14960:14971   */\n      swap1\n      pop\n        /* \"#utility.yul\":14879:14978   */\n      swap2\n      swap1\n      pop\n      jump\t// out\n        /* \"#utility.yul\":14984:15163   */\n    tag_332:\n        /* \"#utility.yul\":15053:15063   */\n      0x00\n        /* \"#utility.yul\":15074:15120   */\n      tag_501\n        /* \"#utility.yul\":15116:15119   */\n      dup4\n        /* \"#utility.yul\":15108:15114   */\n      dup4\n        /* \"#utility.yul\":15074:15120   */\n      tag_321\n      jump\t// in\n    tag_501:\n        /* \"#utility.yul\":15152:15156   */\n      0x20\n        /* \"#utility.yul\":15147:15150   */\n      dup4\n        /* \"#utility.yul\":15143:15157   */\n      add\n        /* \"#utility.yul\":15129:15157   */\n      swap1\n      pop\n        /* \"#utility.yul\":14984:15163   */\n      swap3\n      swap2\n      pop\n      pop\n      jump\t// out\n        /* \"#utility.yul\":15169:15281   */\n    tag_333:\n        /* \"#utility.yul\":15238:15242   */\n      0x00\n        /* \"#utility.yul\":15270:15274   */\n      0x20\n        /* \"#utility.yul\":15265:15268   */\n      dup3\n        /* \"#utility.yul\":15261:15275   */\n      add\n        /* \"#utility.yul\":15253:15275   */\n      swap1\n      pop\n        /* \"#utility.yul\":15169:15281   */\n      swap2\n      swap1\n      pop\n      jump\t// out\n        /* \"#utility.yul\":15321:16021   */\n    tag_334:\n        /* \"#utility.yul\":15459:15512   */\n      tag_504\n        /* \"#utility.yul\":15506:15511   */\n      dup2\n        /* \"#utility.yul\":15459:15512   */\n      tag_329\n      jump\t// in\n    tag_504:\n        /* \"#utility.yul\":15528:15613   */\n      tag_505\n        /* \"#utility.yul\":15606:15612   */\n      dup2\n        /* \"#utility.yul\":15601:15604   */\n      dup5\n        /* \"#utility.yul\":15528:15613   */\n      tag_330\n      jump\t// in\n    tag_505:\n        /* \"#utility.yul\":15521:15613   */\n      swap3\n      pop\n        /* \"#utility.yul\":15637:15692   */\n      tag_506\n        /* \"#utility.yul\":15686:15691   */\n      dup3\n        /* \"#utility.yul\":15637:15692   */\n      tag_331\n      jump\t// in\n    tag_506:\n        /* \"#utility.yul\":15715:15722   */\n      dup1\n        /* \"#utility.yul\":15746:15747   */\n      0x00\n        /* \"#utility.yul\":15731:16014   */\n    tag_507:\n        /* \"#utility.yul\":15756:15762   */\n      dup4\n        /* \"#utility.yul\":15753:15754   */\n      dup2\n        /* \"#utility.yul\":15750:15763   */\n      lt\n        /* \"#utility.yul\":15731:16014   */\n      iszero\n      tag_509\n      jumpi\n        /* \"#utility.yul\":15832:15838   */\n      dup2\n        /* \"#utility.yul\":15826:15839   */\n      mload\n        /* \"#utility.yul\":15859:15922   */\n      tag_510\n        /* \"#utility.yul\":15918:15921   */\n      dup8\n        /* \"#utility.yul\":15903:15916   */\n      dup3\n        /* \"#utility.yul\":15859:15922   */\n      tag_332\n      jump\t// in\n    tag_510:\n        /* \"#utility.yul\":15852:15922   */\n      swap7\n      pop\n        /* \"#utility.yul\":15945:16004   */\n      tag_511\n        /* \"#utility.yul\":15997:16003   */\n      dup4\n        /* \"#utility.yul\":15945:16004   */\n      tag_333\n      jump\t// in\n    tag_511:\n        /* \"#utility.yul\":15935:16004   */\n      swap3\n      pop\n        /* \"#utility.yul\":15791:16014   */\n      pop\n        /* \"#utility.yul\":15778:15779   */\n      0x01\n        /* \"#utility.yul\":15775:15776   */\n      dup2\n        /* \"#utility.yul\":15771:15780   */\n      add\n        /* \"#utility.yul\":15766:15780   */\n      swap1\n      pop\n        /* \"#utility.yul\":15731:16014   */\n      jump(tag_507)\n    tag_509:\n        /* \"#utility.yul\":15735:15749   */\n      pop\n        /* \"#utility.yul\":15435:16021   */\n      pop\n      pop\n      pop\n        /* \"#utility.yul\":15321:16021   */\n      pop\n      pop\n      jump\t// out\n        /* \"#utility.yul\":16027:16549   */\n    tag_134:\n        /* \"#utility.yul\":16242:16246   */\n      0x00\n        /* \"#utility.yul\":16280:16283   */\n      0x0280\n        /* \"#utility.yul\":16269:16278   */\n      dup3\n        /* \"#utility.yul\":16265:16284   */\n      add\n        /* \"#utility.yul\":16257:16284   */\n      swap1\n      pop\n        /* \"#utility.yul\":16294:16411   */\n      tag_513\n        /* \"#utility.yul\":16408:16409   */\n      0x00\n        /* \"#utility.yul\":16397:16406   */\n      dup4\n        /* \"#utility.yul\":16393:16410   */\n      add\n        /* \"#utility.yul\":16384:16390   */\n      dup6\n        /* \"#utility.yul\":16294:16411   */\n      tag_328\n      jump\t// in\n    tag_513:\n        /* \"#utility.yul\":16421:16542   */\n      tag_514\n        /* \"#utility.yul\":16537:16540   */\n      0x0100\n        /* \"#utility.yul\":16526:16535   */\n      dup4\n        /* \"#utility.yul\":16522:16541   */\n      add\n        /* \"#utility.yul\":16513:16519   */\n      dup5\n        /* \"#utility.yul\":16421:16542   */\n      tag_334\n      jump\t// in\n    tag_514:\n        /* \"#utility.yul\":16027:16549   */\n      swap4\n      swap3\n      pop\n      pop\n      pop\n      jump\t// out\n        /* \"#utility.yul\":16555:16671   */\n    tag_335:\n        /* \"#utility.yul\":16625:16646   */\n      tag_516\n        /* \"#utility.yul\":16640:16645   */\n      dup2\n        /* \"#utility.yul\":16625:16646   */\n      tag_280\n      jump\t// in\n    tag_516:\n        /* \"#utility.yul\":16618:16623   */\n      dup2\n        /* \"#utility.yul\":16615:16647   */\n      eq\n        /* \"#utility.yul\":16605:16665   */\n      tag_517\n      jumpi\n        /* \"#utility.yul\":16661:16662   */\n      0x00\n        /* \"#utility.yul\":16658:16659   */\n      0x00\n        /* \"#utility.yul\":16651:16663   */\n      revert\n        /* \"#utility.yul\":16605:16665   */\n    tag_517:\n        /* \"#utility.yul\":16555:16671   */\n      pop\n      jump\t// out\n        /* \"#utility.yul\":16677:16814   */\n    tag_336:\n        /* \"#utility.yul\":16731:16736   */\n      0x00\n        /* \"#utility.yul\":16762:16768   */\n      dup2\n        /* \"#utility.yul\":16756:16769   */\n      mload\n        /* \"#utility.yul\":16747:16769   */\n      swap1\n      pop\n        /* \"#utility.yul\":16778:16808   */\n      tag_519\n        /* \"#utility.yul\":16802:16807   */\n      dup2\n        /* \"#utility.yul\":16778:16808   */\n      tag_335\n      jump\t// in\n    tag_519:\n        /* \"#utility.yul\":16677:16814   */\n      swap3\n      swap2\n      pop\n      pop\n      jump\t// out\n        /* \"#utility.yul\":16820:17165   */\n    tag_138:\n        /* \"#utility.yul\":16887:16893   */\n      0x00\n        /* \"#utility.yul\":16936:16938   */\n      0x20\n        /* \"#utility.yul\":16924:16933   */\n      dup3\n        /* \"#utility.yul\":16915:16922   */\n      dup5\n        /* \"#utility.yul\":16911:16934   */\n      sub\n        /* \"#utility.yul\":16907:16939   */\n      slt\n        /* \"#utility.yul\":16904:17023   */\n      iszero\n      tag_521\n      jumpi\n        /* \"#utility.yul\":16942:17021   */\n      tag_522\n      tag_283\n      jump\t// in\n    tag_522:\n        /* \"#utility.yul\":16904:17023   */\n    tag_521:\n        /* \"#utility.yul\":17062:17063   */\n      0x00\n        /* \"#utility.yul\":17087:17148   */\n      tag_523\n        /* \"#utility.yul\":17140:17147   */\n      dup5\n        /* \"#utility.yul\":17131:17137   */\n      dup3\n        /* \"#utility.yul\":17120:17129   */\n      dup6\n        /* \"#utility.yul\":17116:17138   */\n      add\n        /* \"#utility.yul\":17087:17148   */\n      tag_336\n      jump\t// in\n    tag_523:\n        /* \"#utility.yul\":17077:17148   */\n      swap2\n      pop\n        /* \"#utility.yul\":17033:17158   */\n      pop\n        /* \"#utility.yul\":16820:17165   */\n      swap3\n      swap2\n      pop\n      pop\n      jump\t// out\n        /* \"#utility.yul\":17171:17339   */\n    tag_337:\n        /* \"#utility.yul\":17311:17331   */\n      0x496e76616c696420766f74652070726f6f660000000000000000000000000000\n        /* \"#utility.yul\":17307:17308   */\n      0x00\n        /* \"#utility.yul\":17299:17305   */\n      dup3\n        /* \"#utility.yul\":17295:17309   */\n      add\n        /* \"#utility.yul\":17288:17332   */\n      mstore\n        /* \"#utility.yul\":17171:17339   */\n      pop\n      jump\t// out\n        /* \"#utility.yul\":17345:17711   */\n    tag_338:\n        /* \"#utility.yul\":17487:17490   */\n      0x00\n        /* \"#utility.yul\":17508:17575   */\n      tag_526\n        /* \"#utility.yul\":17572:17574   */\n      0x12\n        /* \"#utility.yul\":17567:17570   */\n      dup4\n        /* \"#utility.yul\":17508:17575   */\n      tag_304\n      jump\t// in\n    tag_526:\n        /* \"#utility.yul\":17501:17575   */\n      swap2\n      pop\n        /* \"#utility.yul\":17584:17677   */\n      tag_527\n        /* \"#utility.yul\":17673:17676   */\n      dup3\n        /* \"#utility.yul\":17584:17677   */\n      tag_337\n      jump\t// in\n    tag_527:\n        /* \"#utility.yul\":17702:17704   */\n      0x20\n        /* \"#utility.yul\":17697:17700   */\n      dup3\n        /* \"#utility.yul\":17693:17705   */\n      add\n        /* \"#utility.yul\":17686:17705   */\n      swap1\n      pop\n        /* \"#utility.yul\":17345:17711   */\n      swap2\n      swap1\n      pop\n      jump\t// out\n        /* \"#utility.yul\":17717:18136   */\n    tag_141:\n        /* \"#utility.yul\":17883:17887   */\n      0x00\n        /* \"#utility.yul\":17921:17923   */\n      0x20\n        /* \"#utility.yul\":17910:17919   */\n      dup3\n        /* \"#utility.yul\":17906:17924   */\n      add\n        /* \"#utility.yul\":17898:17924   */\n      swap1\n      pop\n        /* \"#utility.yul\":17970:17979   */\n      dup2\n        /* \"#utility.yul\":17964:17968   */\n      dup2\n        /* \"#utility.yul\":17960:17980   */\n      sub\n        /* \"#utility.yul\":17956:17957   */\n      0x00\n        /* \"#utility.yul\":17945:17954   */\n      dup4\n        /* \"#utility.yul\":17941:17958   */\n      add\n        /* \"#utility.yul\":17934:17981   */\n      mstore\n        /* \"#utility.yul\":17998:18129   */\n      tag_529\n        /* \"#utility.yul\":18124:18128   */\n      dup2\n        /* \"#utility.yul\":17998:18129   */\n      tag_338\n      jump\t// in\n    tag_529:\n        /* \"#utility.yul\":17990:18129   */\n      swap1\n      pop\n        /* \"#utility.yul\":17717:18136   */\n      swap2\n      swap1\n      pop\n      jump\t// out\n        /* \"#utility.yul\":18142:18322   */\n    tag_339:\n        /* \"#utility.yul\":18190:18267   */\n      0x4e487b7100000000000000000000000000000000000000000000000000000000\n        /* \"#utility.yul\":18187:18188   */\n      0x00\n        /* \"#utility.yul\":18180:18268   */\n      mstore\n        /* \"#utility.yul\":18287:18291   */\n      0x11\n        /* \"#utility.yul\":18284:18285   */\n      0x04\n        /* \"#utility.yul\":18277:18292   */\n      mstore\n        /* \"#utility.yul\":18311:18315   */\n      0x24\n        /* \"#utility.yul\":18308:18309   */\n      0x00\n        /* \"#utility.yul\":18301:18316   */\n      revert\n        /* \"#utility.yul\":18328:18519   */\n    tag_154:\n        /* \"#utility.yul\":18368:18371   */\n      0x00\n        /* \"#utility.yul\":18387:18407   */\n      tag_532\n        /* \"#utility.yul\":18405:18406   */\n      dup3\n        /* \"#utility.yul\":18387:18407   */\n      tag_278\n      jump\t// in\n    tag_532:\n        /* \"#utility.yul\":18382:18407   */\n      swap2\n      pop\n        /* \"#utility.yul\":18421:18441   */\n      tag_533\n        /* \"#utility.yul\":18439:18440   */\n      dup4\n        /* \"#utility.yul\":18421:18441   */\n      tag_278\n      jump\t// in\n    tag_533:\n        /* \"#utility.yul\":18416:18441   */\n      swap3\n      pop\n        /* \"#utility.yul\":18464:18465   */\n      dup3\n        /* \"#utility.yul\":18461:18462   */\n      dup3\n        /* \"#utility.yul\":18457:18466   */\n      add\n        /* \"#utility.yul\":18450:18466   */\n      swap1\n      pop\n        /* \"#utility.yul\":18485:18488   */\n      dup1\n        /* \"#utility.yul\":18482:18483   */\n      dup3\n        /* \"#utility.yul\":18479:18489   */\n      gt\n        /* \"#utility.yul\":18476:18512   */\n      iszero\n      tag_534\n      jumpi\n        /* \"#utility.yul\":18492:18510   */\n      tag_535\n      tag_339\n      jump\t// in\n    tag_535:\n        /* \"#utility.yul\":18476:18512   */\n    tag_534:\n        /* \"#utility.yul\":18328:18519   */\n      swap3\n      swap2\n      pop\n      pop\n      jump\t// out\n        /* \"#utility.yul\":18557:18727   */\n    tag_340:\n        /* \"#utility.yul\":18680:18721   */\n      tag_537\n        /* \"#utility.yul\":18716:18720   */\n      0x40\n        /* \"#utility.yul\":18711:18714   */\n      dup4\n        /* \"#utility.yul\":18704:18709   */\n      dup4\n        /* \"#utility.yul\":18680:18721   */\n      tag_325\n      jump\t// in\n    tag_537:\n        /* \"#utility.yul\":18557:18727   */\n      pop\n      pop\n      jump\t// out\n        /* \"#utility.yul\":18733:18851   */\n    tag_341:\n        /* \"#utility.yul\":18820:18844   */\n      tag_539\n        /* \"#utility.yul\":18838:18843   */\n      dup2\n        /* \"#utility.yul\":18820:18844   */\n      tag_290\n      jump\t// in\n    tag_539:\n        /* \"#utility.yul\":18815:18818   */\n      dup3\n        /* \"#utility.yul\":18808:18845   */\n      mstore\n        /* \"#utility.yul\":18733:18851   */\n      pop\n      pop\n      jump\t// out\n        /* \"#utility.yul\":18857:19493   */\n    tag_156:\n        /* \"#utility.yul\":19102:19106   */\n      0x00\n        /* \"#utility.yul\":19140:19143   */\n      0xa0\n        /* \"#utility.yul\":19129:19138   */\n      dup3\n        /* \"#utility.yul\":19125:19144   */\n      add\n        /* \"#utility.yul\":19117:19144   */\n      swap1\n      pop\n        /* \"#utility.yul\":19154:19273   */\n      tag_541\n        /* \"#utility.yul\":19270:19271   */\n      0x00\n        /* \"#utility.yul\":19259:19268   */\n      dup4\n        /* \"#utility.yul\":19255:19272   */\n      add\n        /* \"#utility.yul\":19246:19252   */\n      dup7\n        /* \"#utility.yul\":19154:19273   */\n      tag_340\n      jump\t// in\n    tag_541:\n        /* \"#utility.yul\":19283:19403   */\n      tag_542\n        /* \"#utility.yul\":19399:19401   */\n      0x40\n        /* \"#utility.yul\":19388:19397   */\n      dup4\n        /* \"#utility.yul\":19384:19402   */\n      add\n        /* \"#utility.yul\":19375:19381   */\n      dup6\n        /* \"#utility.yul\":19283:19403   */\n      tag_340\n      jump\t// in\n    tag_542:\n        /* \"#utility.yul\":19413:19486   */\n      tag_543\n        /* \"#utility.yul\":19481:19484   */\n      0x80\n        /* \"#utility.yul\":19470:19479   */\n      dup4\n        /* \"#utility.yul\":19466:19485   */\n      add\n        /* \"#utility.yul\":19457:19463   */\n      dup5\n        /* \"#utility.yul\":19413:19486   */\n      tag_341\n      jump\t// in\n    tag_543:\n        /* \"#utility.yul\":18857:19493   */\n      swap5\n      swap4\n      pop\n      pop\n      pop\n      pop\n      jump\t// out\n        /* \"#utility.yul\":19499:19659   */\n    tag_342:\n        /* \"#utility.yul\":19639:19651   */\n      0x4f6e6c79206f776e657200000000000000000000000000000000000000000000\n        /* \"#utility.yul\":19635:19636   */\n      0x00\n        /* \"#utility.yul\":19627:19633   */\n      dup3\n        /* \"#utility.yul\":19623:19637   */\n      add\n        /* \"#utility.yul\":19616:19652   */\n      mstore\n        /* \"#utility.yul\":19499:19659   */\n      pop\n      jump\t// out\n        /* \"#utility.yul\":19665:20031   */\n    tag_343:\n        /* \"#utility.yul\":19807:19810   */\n      0x00\n        /* \"#utility.yul\":19828:19895   */\n      tag_546\n        /* \"#utility.yul\":19892:19894   */\n      0x0a\n        /* \"#utility.yul\":19887:19890   */\n      dup4\n        /* \"#utility.yul\":19828:19895   */\n      tag_304\n      jump\t// in\n    tag_546:\n        /* \"#utility.yul\":19821:19895   */\n      swap2\n      pop\n        /* \"#utility.yul\":19904:19997   */\n      tag_547\n        /* \"#utility.yul\":19993:19996   */\n      dup3\n        /* \"#utility.yul\":19904:19997   */\n      tag_342\n      jump\t// in\n    tag_547:\n        /* \"#utility.yul\":20022:20024   */\n      0x20\n        /* \"#utility.yul\":20017:20020   */\n      dup3\n        /* \"#utility.yul\":20013:20025   */\n      add\n        /* \"#utility.yul\":20006:20025   */\n      swap1\n      pop\n        /* \"#utility.yul\":19665:20031   */\n      swap2\n      swap1\n      pop\n      jump\t// out\n        /* \"#utility.yul\":20037:20456   */\n    tag_160:\n        /* \"#utility.yul\":20203:20207   */\n      0x00\n        /* \"#utility.yul\":20241:20243   */\n      0x20\n        /* \"#utility.yul\":20230:20239   */\n      dup3\n        /* \"#utility.yul\":20226:20244   */\n      add\n        /* \"#utility.yul\":20218:20244   */\n      swap1\n      pop\n        /* \"#utility.yul\":20290:20299   */\n      dup2\n        /* \"#utility.yul\":20284:20288   */\n      dup2\n        /* \"#utility.yul\":20280:20300   */\n      sub\n        /* \"#utility.yul\":20276:20277   */\n      0x00\n        /* \"#utility.yul\":20265:20274   */\n      dup4\n        /* \"#utility.yul\":20261:20278   */\n      add\n        /* \"#utility.yul\":20254:20301   */\n      mstore\n        /* \"#utility.yul\":20318:20449   */\n      tag_549\n        /* \"#utility.yul\":20444:20448   */\n      dup2\n        /* \"#utility.yul\":20318:20449   */\n      tag_343\n      jump\t// in\n    tag_549:\n        /* \"#utility.yul\":20310:20449   */\n      swap1\n      pop\n        /* \"#utility.yul\":20037:20456   */\n      swap2\n      swap1\n      pop\n      jump\t// out\n        /* \"#utility.yul\":20462:20626   */\n    tag_344:\n        /* \"#utility.yul\":20602:20618   */\n      0x416c726561647920636c6f736564000000000000000000000000000000000000\n        /* \"#utility.yul\":20598:20599   */\n      0x00\n        /* \"#utility.yul\":20590:20596   */\n      dup3\n        /* \"#utility.yul\":20586:20600   */\n      add\n        /* \"#utility.yul\":20579:20619   */\n      mstore\n        /* \"#utility.yul\":20462:20626   */\n      pop\n      jump\t// out\n        /* \"#utility.yul\":20632:20998   */\n    tag_345:\n        /* \"#utility.yul\":20774:20777   */\n      0x00\n        /* \"#utility.yul\":20795:20862   */\n      tag_552\n        /* \"#utility.yul\":20859:20861   */\n      0x0e\n        /* \"#utility.yul\":20854:20857   */\n      dup4\n        /* \"#utility.yul\":20795:20862   */\n      tag_304\n      jump\t// in\n    tag_552:\n        /* \"#utility.yul\":20788:20862   */\n      swap2\n      pop\n        /* \"#utility.yul\":20871:20964   */\n      tag_553\n        /* \"#utility.yul\":20960:20963   */\n      dup3\n        /* \"#utility.yul\":20871:20964   */\n      tag_344\n      jump\t// in\n    tag_553:\n        /* \"#utility.yul\":20989:20991   */\n      0x20\n        /* \"#utility.yul\":20984:20987   */\n      dup3\n        /* \"#utility.yul\":20980:20992   */\n      add\n        /* \"#utility.yul\":20973:20992   */\n      swap1\n      pop\n        /* \"#utility.yul\":20632:20998   */\n      swap2\n      swap1\n      pop\n      jump\t// out\n        /* \"#utility.yul\":21004:21423   */\n    tag_163:\n        /* \"#utility.yul\":21170:21174   */\n      0x00\n        /* \"#utility.yul\":21208:21210   */\n      0x20\n        /* \"#utility.yul\":21197:21206   */\n      dup3\n        /* \"#utility.yul\":21193:21211   */\n      add\n        /* \"#utility.yul\":21185:21211   */\n      swap1\n      pop\n        /* \"#utility.yul\":21257:21266   */\n      dup2\n        /* \"#utility.yul\":21251:21255   */\n      dup2\n        /* \"#utility.yul\":21247:21267   */\n      sub\n        /* \"#utility.yul\":21243:21244   */\n      0x00\n        /* \"#utility.yul\":21232:21241   */\n      dup4\n        /* \"#utility.yul\":21228:21245   */\n      add\n        /* \"#utility.yul\":21221:21268   */\n      mstore\n        /* \"#utility.yul\":21285:21416   */\n      tag_555\n        /* \"#utility.yul\":21411:21415   */\n      dup2\n        /* \"#utility.yul\":21285:21416   */\n      tag_345\n      jump\t// in\n    tag_555:\n        /* \"#utility.yul\":21277:21416   */\n      swap1\n      pop\n        /* \"#utility.yul\":21004:21423   */\n      swap2\n      swap1\n      pop\n      jump\t// out\n        /* \"#utility.yul\":21429:21598   */\n    tag_346:\n        /* \"#utility.yul\":21569:21590   */\n      0x456c656374696f6e207374696c6c206f70656e00000000000000000000000000\n        /* \"#utility.yul\":21565:21566   */\n      0x00\n        /* \"#utility.yul\":21557:21563   */\n      dup3\n        /* \"#utility.yul\":21553:21567   */\n      add\n        /* \"#utility.yul\":21546:21591   */\n      mstore\n        /* \"#utility.yul\":21429:21598   */\n      pop\n      jump\t// out\n        /* \"#utility.yul\":21604:21970   */\n    tag_347:\n        /* \"#utility.yul\":21746:21749   */\n      0x00\n        /* \"#utility.yul\":21767:21834   */\n      tag_558\n        /* \"#utility.yul\":21831:21833   */\n      0x13\n        /* \"#utility.yul\":21826:21829   */\n      dup4\n        /* \"#utility.yul\":21767:21834   */\n      tag_304\n      jump\t// in\n    tag_558:\n        /* \"#utility.yul\":21760:21834   */\n      swap2\n      pop\n        /* \"#utility.yul\":21843:21936   */\n      tag_559\n        /* \"#utility.yul\":21932:21935   */\n      dup3\n        /* \"#utility.yul\":21843:21936   */\n      tag_346\n      jump\t// in\n    tag_559:\n        /* \"#utility.yul\":21961:21963   */\n      0x20\n        /* \"#utility.yul\":21956:21959   */\n      dup3\n        /* \"#utility.yul\":21952:21964   */\n      add\n        /* \"#utility.yul\":21945:21964   */\n      swap1\n      pop\n        /* \"#utility.yul\":21604:21970   */\n      swap2\n      swap1\n      pop\n      jump\t// out\n        /* \"#utility.yul\":21976:22395   */\n    tag_169:\n        /* \"#utility.yul\":22142:22146   */\n      0x00\n        /* \"#utility.yul\":22180:22182   */\n      0x20\n        /* \"#utility.yul\":22169:22178   */\n      dup3\n        /* \"#utility.yul\":22165:22183   */\n      add\n        /* \"#utility.yul\":22157:22183   */\n      swap1\n      pop\n        /* \"#utility.yul\":22229:22238   */\n      dup2\n        /* \"#utility.yul\":22223:22227   */\n      dup2\n        /* \"#utility.yul\":22219:22239   */\n      sub\n        /* \"#utility.yul\":22215:22216   */\n      0x00\n        /* \"#utility.yul\":22204:22213   */\n      dup4\n        /* \"#utility.yul\":22200:22217   */\n      add\n        /* \"#utility.yul\":22193:22240   */\n      mstore\n        /* \"#utility.yul\":22257:22388   */\n      tag_561\n        /* \"#utility.yul\":22383:22387   */\n      dup2\n        /* \"#utility.yul\":22257:22388   */\n      tag_347\n      jump\t// in\n    tag_561:\n        /* \"#utility.yul\":22249:22388   */\n      swap1\n      pop\n        /* \"#utility.yul\":21976:22395   */\n      swap2\n      swap1\n      pop\n      jump\t// out\n        /* \"#utility.yul\":22401:22572   */\n    tag_348:\n        /* \"#utility.yul\":22541:22564   */\n      0x496e76616c6964207265636f756e742070726f6f660000000000000000000000\n        /* \"#utility.yul\":22537:22538   */\n      0x00\n        /* \"#utility.yul\":22529:22535   */\n      dup3\n        /* \"#utility.yul\":22525:22539   */\n      add\n        /* \"#utility.yul\":22518:22565   */\n      mstore\n        /* \"#utility.yul\":22401:22572   */\n      pop\n      jump\t// out\n        /* \"#utility.yul\":22578:22944   */\n    tag_349:\n        /* \"#utility.yul\":22720:22723   */\n      0x00\n        /* \"#utility.yul\":22741:22808   */\n      tag_564\n        /* \"#utility.yul\":22805:22807   */\n      0x15\n        /* \"#utility.yul\":22800:22803   */\n      dup4\n        /* \"#utility.yul\":22741:22808   */\n      tag_304\n      jump\t// in\n    tag_564:\n        /* \"#utility.yul\":22734:22808   */\n      swap2\n      pop\n        /* \"#utility.yul\":22817:22910   */\n      tag_565\n        /* \"#utility.yul\":22906:22909   */\n      dup3\n        /* \"#utility.yul\":22817:22910   */\n      tag_348\n      jump\t// in\n    tag_565:\n        /* \"#utility.yul\":22935:22937   */\n      0x20\n        /* \"#utility.yul\":22930:22933   */\n      dup3\n        /* \"#utility.yul\":22926:22938   */\n      add\n        /* \"#utility.yul\":22919:22938   */\n      swap1\n      pop\n        /* \"#utility.yul\":22578:22944   */\n      swap2\n      swap1\n      pop\n      jump\t// out\n        /* \"#utility.yul\":22950:23369   */\n    tag_225:\n        /* \"#utility.yul\":23116:23120   */\n      0x00\n        /* \"#utility.yul\":23154:23156   */\n      0x20\n        /* \"#utility.yul\":23143:23152   */\n      dup3\n        /* \"#utility.yul\":23139:23157   */\n      add\n        /* \"#utility.yul\":23131:23157   */\n      swap1\n      pop\n        /* \"#utility.yul\":23203:23212   */\n      dup2\n        /* \"#utility.yul\":23197:23201   */\n      dup2\n        /* \"#utility.yul\":23193:23213   */\n      sub\n        /* \"#utility.yul\":23189:23190   */\n      0x00\n        /* \"#utility.yul\":23178:23187   */\n      dup4\n        /* \"#utility.yul\":23174:23191   */\n      add\n        /* \"#utility.yul\":23167:23214   */\n      mstore\n        /* \"#utility.yul\":23231:23362   */\n      tag_567\n        /* \"#utility.yul\":23357:23361   */\n      dup2\n        /* \"#utility.yul\":23231:23362   */\n      tag_349\n      jump\t// in\n    tag_567:\n        /* \"#utility.yul\":23223:23362   */\n      swap1\n      pop\n        /* \"#utility.yul\":22950:23369   */\n      swap2\n      swap1\n      pop\n      jump\t// out\n        /* \"#utility.yul\":23375:23515   */\n    tag_350:\n        /* \"#utility.yul\":23424:23433   */\n      0x00\n        /* \"#utility.yul\":23457:23509   */\n      tag_569\n        /* \"#utility.yul\":23475:23508   */\n      tag_570\n        /* \"#utility.yul\":23484:23507   */\n      tag_571\n        /* \"#utility.yul\":23501:23506   */\n      dup5\n        /* \"#utility.yul\":23484:23507   */\n      tag_301\n      jump\t// in\n    tag_571:\n        /* \"#utility.yul\":23475:23508   */\n      tag_296\n      jump\t// in\n    tag_570:\n        /* \"#utility.yul\":23457:23509   */\n      tag_278\n      jump\t// in\n    tag_569:\n        /* \"#utility.yul\":23444:23509   */\n      swap1\n      pop\n        /* \"#utility.yul\":23375:23515   */\n      swap2\n      swap1\n      pop\n      jump\t// out\n        /* \"#utility.yul\":23521:23650   */\n    tag_351:\n        /* \"#utility.yul\":23607:23643   */\n      tag_573\n        /* \"#utility.yul\":23637:23642   */\n      dup2\n        /* \"#utility.yul\":23607:23643   */\n      tag_350\n      jump\t// in\n    tag_573:\n        /* \"#utility.yul\":23602:23605   */\n      dup3\n        /* \"#utility.yul\":23595:23644   */\n      mstore\n        /* \"#utility.yul\":23521:23650   */\n      pop\n      pop\n      jump\t// out\n        /* \"#utility.yul\":23656:23876   */\n    tag_230:\n        /* \"#utility.yul\":23748:23752   */\n      0x00\n        /* \"#utility.yul\":23786:23788   */\n      0x20\n        /* \"#utility.yul\":23775:23784   */\n      dup3\n        /* \"#utility.yul\":23771:23789   */\n      add\n        /* \"#utility.yul\":23763:23789   */\n      swap1\n      pop\n        /* \"#utility.yul\":23799:23869   */\n      tag_575\n        /* \"#utility.yul\":23866:23867   */\n      0x00\n        /* \"#utility.yul\":23855:23864   */\n      dup4\n        /* \"#utility.yul\":23851:23868   */\n      add\n        /* \"#utility.yul\":23842:23848   */\n      dup5\n        /* \"#utility.yul\":23799:23869   */\n      tag_351\n      jump\t// in\n    tag_575:\n        /* \"#utility.yul\":23656:23876   */\n      swap3\n      swap2\n      pop\n      pop\n      jump\t// out\n        /* \"#utility.yul\":23882:24062   */\n    tag_238:\n        /* \"#utility.yul\":23930:24007   */\n      0x4e487b7100000000000000000000000000000000000000000000000000000000\n        /* \"#utility.yul\":23927:23928   */\n      0x00\n        /* \"#utility.yul\":23920:24008   */\n      mstore\n        /* \"#utility.yul\":24027:24031   */\n      0x12\n        /* \"#utility.yul\":24024:24025   */\n      0x04\n        /* \"#utility.yul\":24017:24032   */\n      mstore\n        /* \"#utility.yul\":24051:24055   */\n      0x24\n        /* \"#utility.yul\":24048:24049   */\n      0x00\n        /* \"#utility.yul\":24041:24056   */\n      revert\n        /* \"#utility.yul\":24068:24262   */\n    tag_271:\n        /* \"#utility.yul\":24108:24112   */\n      0x00\n        /* \"#utility.yul\":24128:24148   */\n      tag_578\n        /* \"#utility.yul\":24146:24147   */\n      dup3\n        /* \"#utility.yul\":24128:24148   */\n      tag_278\n      jump\t// in\n    tag_578:\n        /* \"#utility.yul\":24123:24148   */\n      swap2\n      pop\n        /* \"#utility.yul\":24162:24182   */\n      tag_579\n        /* \"#utility.yul\":24180:24181   */\n      dup4\n        /* \"#utility.yul\":24162:24182   */\n      tag_278\n      jump\t// in\n    tag_579:\n        /* \"#utility.yul\":24157:24182   */\n      swap3\n      pop\n        /* \"#utility.yul\":24206:24207   */\n      dup3\n        /* \"#utility.yul\":24203:24204   */\n      dup3\n        /* \"#utility.yul\":24199:24208   */\n      sub\n        /* \"#utility.yul\":24191:24208   */\n      swap1\n      pop\n        /* \"#utility.yul\":24230:24231   */\n      dup2\n        /* \"#utility.yul\":24224:24228   */\n      dup2\n        /* \"#utility.yul\":24221:24232   */\n      gt\n        /* \"#utility.yul\":24218:24255   */\n      iszero\n      tag_580\n      jumpi\n        /* \"#utility.yul\":24235:24253   */\n      tag_581\n      tag_339\n      jump\t// in\n    tag_581:\n        /* \"#utility.yul\":24218:24255   */\n    tag_580:\n        /* \"#utility.yul\":24068:24262   */\n      swap3\n      swap2\n      pop\n      pop\n      jump\t// out\n\n    auxdata: 0xa26469706673582212208d90de3cbf3cadd345b74d85acee6bc50ef121299c1dee188678aad2f52fa2a264736f6c634300081e0033\n}\n",
				"bytecode": {
					"linkReferences": {},
					"object": "608060405234801561000f575f5ffd5b50604051611ff6380380611ff68339818101604052810190610031919061018d565b335f5f6101000a81548173ffffffffffffffffffffffffffffffffffffffff021916908373ffffffffffffffffffffffffffffffffffffffff16021790555060015f60146101000a81548160ff0219169083151502179055508160075f6101000a81548173ffffffffffffffffffffffffffffffffffffffff021916908373ffffffffffffffffffffffffffffffffffffffff1602179055508060085f6101000a81548173ffffffffffffffffffffffffffffffffffffffff021916908373ffffffffffffffffffffffffffffffffffffffff1602179055505f60018190555060016002819055505f600381905550600160048190555050506101cb565b5f5ffd5b5f73ffffffffffffffffffffffffffffffffffffffff82169050919050565b5f61015c82610133565b9050919050565b61016c81610152565b8114610176575f5ffd5b50565b5f8151905061018781610163565b92915050565b5f5f604083850312156101a3576101a261012f565b5b5f6101b085828601610179565b92505060206101c185828601610179565b9150509250929050565b611e1e806101d85f395ff3fe608060405234801561000f575f5ffd5b50600436106100cd575f3560e01c80637ecf686d1161008a5780638da5cb5b116100645780638da5cb5b146101db57806399d74c71146101f9578063bf0516f214610217578063d317cfb014610235576100cd565b80637ecf686d1461016f578063827861991461019f57806387dde0be146101bd576100cd565b80630e7d490d146100d15780634a39d442146100ef5780634d1397631461010d57806359a00a301461012b5780636c6c32d01461014757806375f11da114610151575b5f5ffd5b6100d9610251565b6040516100e6919061133c565b60405180910390f35b6100f7610257565b604051610104919061136f565b60405180910390f35b610115610269565b604051610122919061133c565b60405180910390f35b610145600480360381019061014091906113f5565b61026f565b005b61014f610877565b005b61015961099a565b604051610166919061133c565b60405180910390f35b61018960048036038101906101849190611490565b6109a0565b604051610196919061136f565b60405180910390f35b6101a76109bd565b6040516101b4919061133c565b60405180910390f35b6101c56109c3565b6040516101d2919061133c565b60405180910390f35b6101e36109c9565b6040516101f091906114fa565b60405180910390f35b6102016109ed565b60405161020e919061156e565b60405180910390f35b61021f610a12565b60405161022c919061156e565b60405180910390f35b61024f600480360381019061024a9190611587565b610a37565b005b60055481565b5f60149054906101000a900460ff1681565b60015481565b610277611301565b835f6002811061028a576102896115c7565b5b6020020135815f600c81106102a2576102a16115c7565b5b602002018181525050836001600281106102bf576102be6115c7565b5b6020020135816001600c81106102d8576102d76115c7565b5b602002018181525050825f600281106102f4576102f36115c7565b5b6020020135816002600c811061030d5761030c6115c7565b5b6020020181815250508260016002811061032a576103296115c7565b5b6020020135816003600c8110610343576103426115c7565b5b602002018181525050815f6008811061035f5761035e6115c7565b5b602002016020810190610372919061162d565b63ffffffff16816004600c811061038c5761038b6115c7565b5b602002018181525050816001600881106103a9576103a86115c7565b5b6020020160208101906103bc919061162d565b63ffffffff16816005600c81106103d6576103d56115c7565b5b602002018181525050816002600881106103f3576103f26115c7565b5b602002016020810190610406919061162d565b63ffffffff16816006600c81106104205761041f6115c7565b5b6020020181815250508160036008811061043d5761043c6115c7565b5b602002016020810190610450919061162d565b63ffffffff16816007600c811061046a576104696115c7565b5b60200201818152505081600460088110610487576104866115c7565b5b60200201602081019061049a919061162d565b63ffffffff16816008600c81106104b4576104b36115c7565b5b602002018181525050816005600881106104d1576104d06115c7565b5b6020020160208101906104e4919061162d565b63ffffffff16816009600c81106104fe576104fd6115c7565b5b6020020181815250508160066008811061051b5761051a6115c7565b5b60200201602081019061052e919061162d565b63ffffffff1681600a600c8110610548576105476115c7565b5b60200201818152505081600760088110610565576105646115c7565b5b602002016020810190610578919061162d565b63ffffffff1681600b600c8110610592576105916115c7565b5b6020020181815250505f60149054906101000a900460ff166105e9576040517f08c379a00000000000000000000000000000000000000000000000000000000081526004016105e0906116b2565b60405180910390fd5b5f826040516020016105fb9190611793565b60405160208183030381529060405280519060200120905060065f8281526020019081526020015f205f9054906101000a900460ff1615610671576040517f08c379a0000000000000000000000000000000000000000000000000000000008152600401610668906117f8565b60405180910390fd5b5f60075f9054906101000a900473ffffffffffffffffffffffffffffffffffffffff1673ffffffffffffffffffffffffffffffffffffffff16636667059988856040518363ffffffff1660e01b81526004016106ce929190611a05565b602060405180830381865afa1580156106e9573d5f5f3e3d5ffd5b505050506040513d601f19601f8201168201806040525081019061070d9190611a58565b90508061074f576040517f08c379a000000000000000000000000000000000000000000000000000000000815260040161074690611acd565b60405180910390fd5b600160065f8481526020019081526020015f205f6101000a81548160ff0219169083151502179055506107b7600154600254885f60028110610794576107936115c7565b5b6020020135896001600281106107ad576107ac6115c7565b5b6020020135610f2b565b60015f60025f849190505583919050555050610808600354600454875f600281106107e5576107e46115c7565b5b6020020135886001600281106107fe576107fd6115c7565b5b6020020135610f2b565b60035f60045f849190505583919050555050600160055f82825461082c9190611b18565b925050819055507fec3373933d5241831a4fb1607a10c99cc2d1a609f099ff1987ce2c1884d0528486868460405161086693929190611b6a565b60405180910390a150505050505050565b5f5f9054906101000a900473ffffffffffffffffffffffffffffffffffffffff1673ffffffffffffffffffffffffffffffffffffffff163373ffffffffffffffffffffffffffffffffffffffff1614610905576040517f08c379a00000000000000000000000000000000000000000000000000000000081526004016108fc90611be9565b60405180910390fd5b5f60149054906101000a900460ff16610953576040517f08c379a000000000000000000000000000000000000000000000000000000000815260040161094a90611c51565b60405180910390fd5b5f5f60146101000a81548160ff0219169083151502179055507fa549b9addfc3693a1863ac5b0b13c42960d78df554c01ea6ac72a7db985df0cf60405160405180910390a1565b60025481565b6006602052805f5260405f205f915054906101000a900460ff1681565b60035481565b60045481565b5f5f9054906101000a900473ffffffffffffffffffffffffffffffffffffffff1681565b60075f9054906101000a900473ffffffffffffffffffffffffffffffffffffffff1681565b60085f9054906101000a900473ffffffffffffffffffffffffffffffffffffffff1681565b5f5f9054906101000a900473ffffffffffffffffffffffffffffffffffffffff1673ffffffffffffffffffffffffffffffffffffffff163373ffffffffffffffffffffffffffffffffffffffff1614610ac5576040517f08c379a0000000000000000000000000000000000000000000000000000000008152600401610abc90611be9565b60405180910390fd5b5f60149054906101000a900460ff1615610b14576040517f08c379a0000000000000000000000000000000000000000000000000000000008152600401610b0b90611cb9565b60405180910390fd5b610b1c611301565b600154815f600c8110610b3257610b316115c7565b5b602002018181525050600254816001600c8110610b5257610b516115c7565b5b602002018181525050600354816002600c8110610b7257610b716115c7565b5b602002018181525050600454816003600c8110610b9257610b916115c7565b5b602002018181525050825f60088110610bae57610bad6115c7565b5b602002016020810190610bc1919061162d565b63ffffffff16816004600c8110610bdb57610bda6115c7565b5b60200201818152505082600160088110610bf857610bf76115c7565b5b602002016020810190610c0b919061162d565b63ffffffff16816005600c8110610c2557610c246115c7565b5b60200201818152505082600260088110610c4257610c416115c7565b5b602002016020810190610c55919061162d565b63ffffffff16816006600c8110610c6f57610c6e6115c7565b5b60200201818152505082600360088110610c8c57610c8b6115c7565b5b602002016020810190610c9f919061162d565b63ffffffff16816007600c8110610cb957610cb86115c7565b5b60200201818152505082600460088110610cd657610cd56115c7565b5b602002016020810190610ce9919061162d565b63ffffffff16816008600c8110610d0357610d026115c7565b5b60200201818152505082600560088110610d2057610d1f6115c7565b5b602002016020810190610d33919061162d565b63ffffffff16816009600c8110610d4d57610d4c6115c7565b5b60200201818152505082600660088110610d6a57610d696115c7565b5b602002016020810190610d7d919061162d565b63ffffffff16816008600c8110610d9757610d966115c7565b5b60200201818152505082600760088110610db457610db36115c7565b5b602002016020810190610dc7919061162d565b63ffffffff16816009600c8110610de157610de06115c7565b5b6020020181815250505f60085f9054906101000a900473ffffffffffffffffffffffffffffffffffffffff1673ffffffffffffffffffffffffffffffffffffffff16636667059984846040518363ffffffff1660e01b8152600401610e47929190611a05565b602060405180830381865afa158015610e62573d5f5f3e3d5ffd5b505050506040513d601f19601f82011682018060405250810190610e869190611a58565b905080610ec8576040517f08c379a0000000000000000000000000000000000000000000000000000000008152600401610ebf90611d21565b60405180910390fd5b7fee088bcc4c9bbd048c9c087916ec26aae94e63151610af8167078ef170e5ae6084600760088110610efd57610efc6115c7565b5b602002016020810190610f10919061162d565b604051610f1d9190611d6f565b60405180910390a150505050565b5f5f5f86148015610f3b57505f85145b15610f4b57838391509150611210565b5f84148015610f5957505f85145b15610f6957858591509150611210565b5f7f30644e72e131a029b85045b68181585d2833e84879b9709143e1f593f000000180610f9957610f98611d88565b5b85880990505f7f30644e72e131a029b85045b68181585d2833e84879b9709143e1f593f000000180610fce57610fcd611d88565b5b85880990505f7f30644e72e131a029b85045b68181585d2833e84879b9709143e1f593f00000018061100357611002611d88565b5b7f30644e72e131a029b85045b68181585d2833e84879b9709143e1f593f00000018061103257611031611d88565b5b838509620292f80990505f7f30644e72e131a029b85045b68181585d2833e84879b9709143e1f593f00000018061106c5761106b611d88565b5b7f30644e72e131a029b85045b68181585d2833e84879b9709143e1f593f00000018061109b5761109a611d88565b5b898b097f30644e72e131a029b85045b68181585d2833e84879b9709143e1f593f0000001806110cd576110cc611d88565b5b898d090890505f611133847f30644e72e131a029b85045b68181585d2833e84879b9709143e1f593f00000018061110757611106611d88565b5b87620292fc097f30644e72e131a029b85045b68181585d2833e84879b9709143e1f593f0000001611219565b90507f30644e72e131a029b85045b68181585d2833e84879b9709143e1f593f00000018061116457611163611d88565b5b61119f7f30644e72e131a029b85045b68181585d2833e84879b9709143e1f593f00000018061119657611195611d88565b5b8560010861125b565b830996507f30644e72e131a029b85045b68181585d2833e84879b9709143e1f593f0000001806111d2576111d1611d88565b5b6112066112016001867f30644e72e131a029b85045b68181585d2833e84879b9709143e1f593f0000001611219565b61125b565b8209955050505050505b94509492505050565b5f5f8490508385116112345782816112319190611b18565b90505b828061124357611242611d88565b5b5f85836112509190611db5565b089150509392505050565b5f6112b38260027f30644e72e131a029b85045b68181585d2833e84879b9709143e1f593f000000161128d9190611db5565b7f30644e72e131a029b85045b68181585d2833e84879b9709143e1f593f00000016112ba565b9050919050565b5f60405160208152602080820152602060408201528460608201528360808201528260a082015260208160c08360055afa806112f4575f5ffd5b8151925050509392505050565b604051806101800160405280600c90602082028036833780820191505090505090565b5f819050919050565b61133681611324565b82525050565b5f60208201905061134f5f83018461132d565b92915050565b5f8115159050919050565b61136981611355565b82525050565b5f6020820190506113825f830184611360565b92915050565b5f5ffd5b5f5ffd5b5f61010082840312156113a6576113a561138c565b5b81905092915050565b5f5ffd5b5f819050826020600202820111156113ce576113cd6113af565b5b92915050565b5f819050826020600802820111156113ef576113ee6113af565b5b92915050565b5f5f5f5f610280858703121561140e5761140d611388565b5b5f61141b87828801611390565b94505061010061142d878288016113b3565b93505061014061143f878288016113b3565b925050610180611451878288016113d4565b91505092959194509250565b5f819050919050565b61146f8161145d565b8114611479575f5ffd5b50565b5f8135905061148a81611466565b92915050565b5f602082840312156114a5576114a4611388565b5b5f6114b28482850161147c565b91505092915050565b5f73ffffffffffffffffffffffffffffffffffffffff82169050919050565b5f6114e4826114bb565b9050919050565b6114f4816114da565b82525050565b5f60208201905061150d5f8301846114eb565b92915050565b5f819050919050565b5f61153661153161152c846114bb565b611513565b6114bb565b9050919050565b5f6115478261151c565b9050919050565b5f6115588261153d565b9050919050565b6115688161154e565b82525050565b5f6020820190506115815f83018461155f565b92915050565b5f5f610200838503121561159e5761159d611388565b5b5f6115ab858286016113d4565b9250506101006115bd85828601611390565b9150509250929050565b7f4e487b71000000000000000000000000000000000000000000000000000000005f52603260045260245ffd5b5f63ffffffff82169050919050565b61160c816115f4565b8114611616575f5ffd5b50565b5f8135905061162781611603565b92915050565b5f6020828403121561164257611641611388565b5b5f61164f84828501611619565b91505092915050565b5f82825260208201905092915050565b7f456c656374696f6e20636c6f73656400000000000000000000000000000000005f82015250565b5f61169c600f83611658565b91506116a782611668565b602082019050919050565b5f6020820190508181035f8301526116c981611690565b9050919050565b5f60089050919050565b5f81905092915050565b5f819050919050565b6116f6816115f4565b82525050565b5f61170783836116ed565b60208301905092915050565b5f6117216020840184611619565b905092915050565b5f602082019050919050565b61173e816116d0565b61174881846116da565b9250611753826116e4565b805f5b8381101561178b576117688284611713565b61177287826116fc565b965061177d83611729565b925050600181019050611756565b505050505050565b5f61179e8284611735565b6101008201915081905092915050565b7f4e756c6c696669657220616c72656164792075736564000000000000000000005f82015250565b5f6117e2601683611658565b91506117ed826117ae565b602082019050919050565b5f6020820190508181035f83015261180f816117d6565b9050919050565b5f82905092915050565b61182981611324565b8114611833575f5ffd5b50565b5f8135905061184481611820565b92915050565b5f6118586020840184611836565b905092915050565b61186981611324565b82525050565b6040820161187f5f83018361184a565b61188b5f850182611860565b50611899602083018361184a565b6118a66020850182611860565b50505050565b5f82905092915050565b5f82905092915050565b82818337505050565b6118d5604083836118c0565b5050565b608082016118e95f8301836118b6565b6118f55f8501826118c9565b5061190360408301836118b6565b61191060408501826118c9565b50505050565b61010082016119275f830183611816565b6119335f85018261186f565b5061194160408301836118ac565b61194e60408501826118d9565b5061195c60c0830183611816565b61196960c085018261186f565b50505050565b5f600c9050919050565b5f81905092915050565b5f819050919050565b5f6119978383611860565b60208301905092915050565b5f602082019050919050565b6119b88161196f565b6119c28184611979565b92506119cd82611983565b805f5b838110156119fd5781516119e4878261198c565b96506119ef836119a3565b9250506001810190506119d0565b505050505050565b5f61028082019050611a195f830185611916565b611a276101008301846119af565b9392505050565b611a3781611355565b8114611a41575f5ffd5b50565b5f81519050611a5281611a2e565b92915050565b5f60208284031215611a6d57611a6c611388565b5b5f611a7a84828501611a44565b91505092915050565b7f496e76616c696420766f74652070726f6f6600000000000000000000000000005f82015250565b5f611ab7601283611658565b9150611ac282611a83565b602082019050919050565b5f6020820190508181035f830152611ae481611aab565b9050919050565b7f4e487b71000000000000000000000000000000000000000000000000000000005f52601160045260245ffd5b5f611b2282611324565b9150611b2d83611324565b9250828201905080821115611b4557611b44611aeb565b5b92915050565b611b57604083836118c0565b5050565b611b648161145d565b82525050565b5f60a082019050611b7d5f830186611b4b565b611b8a6040830185611b4b565b611b976080830184611b5b565b949350505050565b7f4f6e6c79206f776e6572000000000000000000000000000000000000000000005f82015250565b5f611bd3600a83611658565b9150611bde82611b9f565b602082019050919050565b5f6020820190508181035f830152611c0081611bc7565b9050919050565b7f416c726561647920636c6f7365640000000000000000000000000000000000005f82015250565b5f611c3b600e83611658565b9150611c4682611c07565b602082019050919050565b5f6020820190508181035f830152611c6881611c2f565b9050919050565b7f456c656374696f6e207374696c6c206f70656e000000000000000000000000005f82015250565b5f611ca3601383611658565b9150611cae82611c6f565b602082019050919050565b5f6020820190508181035f830152611cd081611c97565b9050919050565b7f496e76616c6964207265636f756e742070726f6f6600000000000000000000005f82015250565b5f611d0b601583611658565b9150611d1682611cd7565b602082019050919050565b5f6020820190508181035f830152611d3881611cff565b9050919050565b5f611d59611d54611d4f846115f4565b611513565b611324565b9050919050565b611d6981611d3f565b82525050565b5f602082019050611d825f830184611d60565b92915050565b7f4e487b71000000000000000000000000000000000000000000000000000000005f52601260045260245ffd5b5f611dbf82611324565b9150611dca83611324565b9250828203905081811115611de257611de1611aeb565b5b9291505056fea26469706673582212208d90de3cbf3cadd345b74d85acee6bc50ef121299c1dee188678aad2f52fa2a264736f6c634300081e0033",
					"opcodes": "PUSH1 0x80 PUSH1 0x40 MSTORE CALLVALUE DUP1 ISZERO PUSH2 0xF JUMPI PUSH0 PUSH0 REVERT JUMPDEST POP PUSH1 0x40 MLOAD PUSH2 0x1FF6 CODESIZE SUB DUP1 PUSH2 0x1FF6 DUP4 CODECOPY DUP2 DUP2 ADD PUSH1 0x40 MSTORE DUP2 ADD SWAP1 PUSH2 0x31 SWAP2 SWAP1 PUSH2 0x18D JUMP JUMPDEST CALLER PUSH0 PUSH0 PUSH2 0x100 EXP DUP2 SLOAD DUP2 PUSH20 0xFFFFFFFFFFFFFFFFFFFFFFFFFFFFFFFFFFFFFFFF MUL NOT AND SWAP1 DUP4 PUSH20 0xFFFFFFFFFFFFFFFFFFFFFFFFFFFFFFFFFFFFFFFF AND MUL OR SWAP1 SSTORE POP PUSH1 0x1 PUSH0 PUSH1 0x14 PUSH2 0x100 EXP DUP2 SLOAD DUP2 PUSH1 0xFF MUL NOT AND SWAP1 DUP4 ISZERO ISZERO MUL OR SWAP1 SSTORE POP DUP2 PUSH1 0x7 PUSH0 PUSH2 0x100 EXP DUP2 SLOAD DUP2 PUSH20 0xFFFFFFFFFFFFFFFFFFFFFFFFFFFFFFFFFFFFFFFF MUL NOT AND SWAP1 DUP4 PUSH20 0xFFFFFFFFFFFFFFFFFFFFFFFFFFFFFFFFFFFFFFFF AND MUL OR SWAP1 SSTORE POP DUP1 PUSH1 0x8 PUSH0 PUSH2 0x100 EXP DUP2 SLOAD DUP2 PUSH20 0xFFFFFFFFFFFFFFFFFFFFFFFFFFFFFFFFFFFFFFFF MUL NOT AND SWAP1 DUP4 PUSH20 0xFFFFFFFFFFFFFFFFFFFFFFFFFFFFFFFFFFFFFFFF AND MUL OR SWAP1 SSTORE POP PUSH0 PUSH1 0x1 DUP2 SWAP1 SSTORE POP PUSH1 0x1 PUSH1 0x2 DUP2 SWAP1 SSTORE POP PUSH0 PUSH1 0x3 DUP2 SWAP1 SSTORE POP PUSH1 0x1 PUSH1 0x4 DUP2 SWAP1 SSTORE POP POP POP PUSH2 0x1CB JUMP JUMPDEST PUSH0 PUSH0 REVERT JUMPDEST PUSH0 PUSH20 0xFFFFFFFFFFFFFFFFFFFFFFFFFFFFFFFFFFFFFFFF DUP3 AND SWAP1 POP SWAP2 SWAP1 POP JUMP JUMPDEST PUSH0 PUSH2 0x15C DUP3 PUSH2 0x133 JUMP JUMPDEST SWAP1 POP SWAP2 SWAP1 POP JUMP JUMPDEST PUSH2 0x16C DUP2 PUSH2 0x152 JUMP JUMPDEST DUP2 EQ PUSH2 0x176 JUMPI PUSH0 PUSH0 REVERT JUMPDEST POP JUMP JUMPDEST PUSH0 DUP2 MLOAD SWAP1 POP PUSH2 0x187 DUP2 PUSH2 0x163 JUMP JUMPDEST SWAP3 SWAP2 POP POP JUMP JUMPDEST PUSH0 PUSH0 PUSH1 0x40 DUP4 DUP6 SUB SLT ISZERO PUSH2 0x1A3 JUMPI PUSH2 0x1A2 PUSH2 0x12F JUMP JUMPDEST JUMPDEST PUSH0 PUSH2 0x1B0 DUP6 DUP3 DUP7 ADD PUSH2 0x179 JUMP JUMPDEST SWAP3 POP POP PUSH1 0x20 PUSH2 0x1C1 DUP6 DUP3 DUP7 ADD PUSH2 0x179 JUMP JUMPDEST SWAP2 POP POP SWAP3 POP SWAP3 SWAP1 POP JUMP JUMPDEST PUSH2 0x1E1E DUP1 PUSH2 0x1D8 PUSH0 CODECOPY PUSH0 RETURN INVALID PUSH1 0x80 PUSH1 0x40 MSTORE CALLVALUE DUP1 ISZERO PUSH2 0xF JUMPI PUSH0 PUSH0 REVERT JUMPDEST POP PUSH1 0x4 CALLDATASIZE LT PUSH2 0xCD JUMPI PUSH0 CALLDATALOAD PUSH1 0xE0 SHR DUP1 PUSH4 0x7ECF686D GT PUSH2 0x8A JUMPI DUP1 PUSH4 0x8DA5CB5B GT PUSH2 0x64 JUMPI DUP1 PUSH4 0x8DA5CB5B EQ PUSH2 0x1DB JUMPI DUP1 PUSH4 0x99D74C71 EQ PUSH2 0x1F9 JUMPI DUP1 PUSH4 0xBF0516F2 EQ PUSH2 0x217 JUMPI DUP1 PUSH4 0xD317CFB0 EQ PUSH2 0x235 JUMPI PUSH2 0xCD JUMP JUMPDEST DUP1 PUSH4 0x7ECF686D EQ PUSH2 0x16F JUMPI DUP1 PUSH4 0x82786199 EQ PUSH2 0x19F JUMPI DUP1 PUSH4 0x87DDE0BE EQ PUSH2 0x1BD JUMPI PUSH2 0xCD JUMP JUMPDEST DUP1 PUSH4 0xE7D490D EQ PUSH2 0xD1 JUMPI DUP1 PUSH4 0x4A39D442 EQ PUSH2 0xEF JUMPI DUP1 PUSH4 0x4D139763 EQ PUSH2 0x10D JUMPI DUP1 PUSH4 0x59A00A30 EQ PUSH2 0x12B JUMPI DUP1 PUSH4 0x6C6C32D0 EQ PUSH2 0x147 JUMPI DUP1 PUSH4 0x75F11DA1 EQ PUSH2 0x151 JUMPI JUMPDEST PUSH0 PUSH0 REVERT JUMPDEST PUSH2 0xD9 PUSH2 0x251 JUMP JUMPDEST PUSH1 0x40 MLOAD PUSH2 0xE6 SWAP2 SWAP1 PUSH2 0x133C JUMP JUMPDEST PUSH1 0x40 MLOAD DUP1 SWAP2 SUB SWAP1 RETURN JUMPDEST PUSH2 0xF7 PUSH2 0x257 JUMP JUMPDEST PUSH1 0x40 MLOAD PUSH2 0x104 SWAP2 SWAP1 PUSH2 0x136F JUMP JUMPDEST PUSH1 0x40 MLOAD DUP1 SWAP2 SUB SWAP1 RETURN JUMPDEST PUSH2 0x115 PUSH2 0x269 JUMP JUMPDEST PUSH1 0x40 MLOAD PUSH2 0x122 SWAP2 SWAP1 PUSH2 0x133C JUMP JUMPDEST PUSH1 0x40 MLOAD DUP1 SWAP2 SUB SWAP1 RETURN JUMPDEST PUSH2 0x145 PUSH1 0x4 DUP1 CALLDATASIZE SUB DUP2 ADD SWAP1 PUSH2 0x140 SWAP2 SWAP1 PUSH2 0x13F5 JUMP JUMPDEST PUSH2 0x26F JUMP JUMPDEST STOP JUMPDEST PUSH2 0x14F PUSH2 0x877 JUMP JUMPDEST STOP JUMPDEST PUSH2 0x159 PUSH2 0x99A JUMP JUMPDEST PUSH1 0x40 MLOAD PUSH2 0x166 SWAP2 SWAP1 PUSH2 0x133C JUMP JUMPDEST PUSH1 0x40 MLOAD DUP1 SWAP2 SUB SWAP1 RETURN JUMPDEST PUSH2 0x189 PUSH1 0x4 DUP1 CALLDATASIZE SUB DUP2 ADD SWAP1 PUSH2 0x184 SWAP2 SWAP1 PUSH2 0x1490 JUMP JUMPDEST PUSH2 0x9A0 JUMP JUMPDEST PUSH1 0x40 MLOAD PUSH2 0x196 SWAP2 SWAP1 PUSH2 0x136F JUMP JUMPDEST PUSH1 0x40 MLOAD DUP1 SWAP2 SUB SWAP1 RETURN JUMPDEST PUSH2 0x1A7 PUSH2 0x9BD JUMP JUMPDEST PUSH1 0x40 MLOAD PUSH2 0x1B4 SWAP2 SWAP1 PUSH2 0x133C JUMP JUMPDEST PUSH1 0x40 MLOAD DUP1 SWAP2 SUB SWAP1 RETURN JUMPDEST PUSH2 0x1C5 PUSH2 0x9C3 JUMP JUMPDEST PUSH1 0x40 MLOAD PUSH2 0x1D2 SWAP2 SWAP1 PUSH2 0x133C JUMP JUMPDEST PUSH1 0x40 MLOAD DUP1 SWAP2 SUB SWAP1 RETURN JUMPDEST PUSH2 0x1E3 PUSH2 0x9C9 JUMP JUMPDEST PUSH1 0x40 MLOAD PUSH2 0x1F0 SWAP2 SWAP1 PUSH2 0x14FA JUMP JUMPDEST PUSH1 0x40 MLOAD DUP1 SWAP2 SUB SWAP1 RETURN JUMPDEST PUSH2 0x201 PUSH2 0x9ED JUMP JUMPDEST PUSH1 0x40 MLOAD PUSH2 0x20E SWAP2 SWAP1 PUSH2 0x156E JUMP JUMPDEST PUSH1 0x40 MLOAD DUP1 SWAP2 SUB SWAP1 RETURN JUMPDEST PUSH2 0x21F PUSH2 0xA12 JUMP JUMPDEST PUSH1 0x40 MLOAD PUSH2 0x22C SWAP2 SWAP1 PUSH2 0x156E JUMP JUMPDEST PUSH1 0x40 MLOAD DUP1 SWAP2 SUB SWAP1 RETURN JUMPDEST PUSH2 0x24F PUSH1 0x4 DUP1 CALLDATASIZE SUB DUP2 ADD SWAP1 PUSH2 0x24A SWAP2 SWAP1 PUSH2 0x1587 JUMP JUMPDEST PUSH2 0xA37 JUMP JUMPDEST STOP JUMPDEST PUSH1 0x5 SLOAD DUP2 JUMP JUMPDEST PUSH0 PUSH1 0x14 SWAP1 SLOAD SWAP1 PUSH2 0x100 EXP SWAP1 DIV PUSH1 0xFF AND DUP2 JUMP JUMPDEST PUSH1 0x1 SLOAD DUP2 JUMP JUMPDEST PUSH2 0x277 PUSH2 0x1301 JUMP JUMPDEST DUP4 PUSH0 PUSH1 0x2 DUP2 LT PUSH2 0x28A JUMPI PUSH2 0x289 PUSH2 0x15C7 JUMP JUMPDEST JUMPDEST PUSH1 0x20 MUL ADD CALLDATALOAD DUP2 PUSH0 PUSH1 0xC DUP2 LT PUSH2 0x2A2 JUMPI PUSH2 0x2A1 PUSH2 0x15C7 JUMP JUMPDEST JUMPDEST PUSH1 0x20 MUL ADD DUP2 DUP2 MSTORE POP POP DUP4 PUSH1 0x1 PUSH1 0x2 DUP2 LT PUSH2 0x2BF JUMPI PUSH2 0x2BE PUSH2 0x15C7 JUMP JUMPDEST JUMPDEST PUSH1 0x20 MUL ADD CALLDATALOAD DUP2 PUSH1 0x1 PUSH1 0xC DUP2 LT PUSH2 0x2D8 JUMPI PUSH2 0x2D7 PUSH2 0x15C7 JUMP JUMPDEST JUMPDEST PUSH1 0x20 MUL ADD DUP2 DUP2 MSTORE POP POP DUP3 PUSH0 PUSH1 0x2 DUP2 LT PUSH2 0x2F4 JUMPI PUSH2 0x2F3 PUSH2 0x15C7 JUMP JUMPDEST JUMPDEST PUSH1 0x20 MUL ADD CALLDATALOAD DUP2 PUSH1 0x2 PUSH1 0xC DUP2 LT PUSH2 0x30D JUMPI PUSH2 0x30C PUSH2 0x15C7 JUMP JUMPDEST JUMPDEST PUSH1 0x20 MUL ADD DUP2 DUP2 MSTORE POP POP DUP3 PUSH1 0x1 PUSH1 0x2 DUP2 LT PUSH2 0x32A JUMPI PUSH2 0x329 PUSH2 0x15C7 JUMP JUMPDEST JUMPDEST PUSH1 0x20 MUL ADD CALLDATALOAD DUP2 PUSH1 0x3 PUSH1 0xC DUP2 LT PUSH2 0x343 JUMPI PUSH2 0x342 PUSH2 0x15C7 JUMP JUMPDEST JUMPDEST PUSH1 0x20 MUL ADD DUP2 DUP2 MSTORE POP POP DUP2 PUSH0 PUSH1 0x8 DUP2 LT PUSH2 0x35F JUMPI PUSH2 0x35E PUSH2 0x15C7 JUMP JUMPDEST JUMPDEST PUSH1 0x20 MUL ADD PUSH1 0x20 DUP2 ADD SWAP1 PUSH2 0x372 SWAP2 SWAP1 PUSH2 0x162D JUMP JUMPDEST PUSH4 0xFFFFFFFF AND DUP2 PUSH1 0x4 PUSH1 0xC DUP2 LT PUSH2 0x38C JUMPI PUSH2 0x38B PUSH2 0x15C7 JUMP JUMPDEST JUMPDEST PUSH1 0x20 MUL ADD DUP2 DUP2 MSTORE POP POP DUP2 PUSH1 0x1 PUSH1 0x8 DUP2 LT PUSH2 0x3A9 JUMPI PUSH2 0x3A8 PUSH2 0x15C7 JUMP JUMPDEST JUMPDEST PUSH1 0x20 MUL ADD PUSH1 0x20 DUP2 ADD SWAP1 PUSH2 0x3BC SWAP2 SWAP1 PUSH2 0x162D JUMP JUMPDEST PUSH4 0xFFFFFFFF AND DUP2 PUSH1 0x5 PUSH1 0xC DUP2 LT PUSH2 0x3D6 JUMPI PUSH2 0x3D5 PUSH2 0x15C7 JUMP JUMPDEST JUMPDEST PUSH1 0x20 MUL ADD DUP2 DUP2 MSTORE POP POP DUP2 PUSH1 0x2 PUSH1 0x8 DUP2 LT PUSH2 0x3F3 JUMPI PUSH2 0x3F2 PUSH2 0x15C7 JUMP JUMPDEST JUMPDEST PUSH1 0x20 MUL ADD PUSH1 0x20 DUP2 ADD SWAP1 PUSH2 0x406 SWAP2 SWAP1 PUSH2 0x162D JUMP JUMPDEST PUSH4 0xFFFFFFFF AND DUP2 PUSH1 0x6 PUSH1 0xC DUP2 LT PUSH2 0x420 JUMPI PUSH2 0x41F PUSH2 0x15C7 JUMP JUMPDEST JUMPDEST PUSH1 0x20 MUL ADD DUP2 DUP2 MSTORE POP POP DUP2 PUSH1 0x3 PUSH1 0x8 DUP2 LT PUSH2 0x43D JUMPI PUSH2 0x43C PUSH2 0x15C7 JUMP JUMPDEST JUMPDEST PUSH1 0x20 MUL ADD PUSH1 0x20 DUP2 ADD SWAP1 PUSH2 0x450 SWAP2 SWAP1 PUSH2 0x162D JUMP JUMPDEST PUSH4 0xFFFFFFFF AND DUP2 PUSH1 0x7 PUSH1 0xC DUP2 LT PUSH2 0x46A JUMPI PUSH2 0x469 PUSH2 0x15C7 JUMP JUMPDEST JUMPDEST PUSH1 0x20 MUL ADD DUP2 DUP2 MSTORE POP POP DUP2 PUSH1 0x4 PUSH1 0x8 DUP2 LT PUSH2 0x487 JUMPI PUSH2 0x486 PUSH2 0x15C7 JUMP JUMPDEST JUMPDEST PUSH1 0x20 MUL ADD PUSH1 0x20 DUP2 ADD SWAP1 PUSH2 0x49A SWAP2 SWAP1 PUSH2 0x162D JUMP JUMPDEST PUSH4 0xFFFFFFFF AND DUP2 PUSH1 0x8 PUSH1 0xC DUP2 LT PUSH2 0x4B4 JUMPI PUSH2 0x4B3 PUSH2 0x15C7 JUMP JUMPDEST JUMPDEST PUSH1 0x20 MUL ADD DUP2 DUP2 MSTORE POP POP DUP2 PUSH1 0x5 PUSH1 0x8 DUP2 LT PUSH2 0x4D1 JUMPI PUSH2 0x4D0 PUSH2 0x15C7 JUMP JUMPDEST JUMPDEST PUSH1 0x20 MUL ADD PUSH1 0x20 DUP2 ADD SWAP1 PUSH2 0x4E4 SWAP2 SWAP1 PUSH2 0x162D JUMP JUMPDEST PUSH4 0xFFFFFFFF AND DUP2 PUSH1 0x9 PUSH1 0xC DUP2 LT PUSH2 0x4FE JUMPI PUSH2 0x4FD PUSH2 0x15C7 JUMP JUMPDEST JUMPDEST PUSH1 0x20 MUL ADD DUP2 DUP2 MSTORE POP POP DUP2 PUSH1 0x6 PUSH1 0x8 DUP2 LT PUSH2 0x51B JUMPI PUSH2 0x51A PUSH2 0x15C7 JUMP JUMPDEST JUMPDEST PUSH1 0x20 MUL ADD PUSH1 0x20 DUP2 ADD SWAP1 PUSH2 0x52E SWAP2 SWAP1 PUSH2 0x162D JUMP JUMPDEST PUSH4 0xFFFFFFFF AND DUP2 PUSH1 0xA PUSH1 0xC DUP2 LT PUSH2 0x548 JUMPI PUSH2 0x547 PUSH2 0x15C7 JUMP JUMPDEST JUMPDEST PUSH1 0x20 MUL ADD DUP2 DUP2 MSTORE POP POP DUP2 PUSH1 0x7 PUSH1 0x8 DUP2 LT PUSH2 0x565 JUMPI PUSH2 0x564 PUSH2 0x15C7 JUMP JUMPDEST JUMPDEST PUSH1 0x20 MUL ADD PUSH1 0x20 DUP2 ADD SWAP1 PUSH2 0x578 SWAP2 SWAP1 PUSH2 0x162D JUMP JUMPDEST PUSH4 0xFFFFFFFF AND DUP2 PUSH1 0xB PUSH1 0xC DUP2 LT PUSH2 0x592 JUMPI PUSH2 0x591 PUSH2 0x15C7 JUMP JUMPDEST JUMPDEST PUSH1 0x20 MUL ADD DUP2 DUP2 MSTORE POP POP PUSH0 PUSH1 0x14 SWAP1 SLOAD SWAP1 PUSH2 0x100 EXP SWAP1 DIV PUSH1 0xFF AND PUSH2 0x5E9 JUMPI PUSH1 0x40 MLOAD PUSH32 0x8C379A000000000000000000000000000000000000000000000000000000000 DUP2 MSTORE PUSH1 0x4 ADD PUSH2 0x5E0 SWAP1 PUSH2 0x16B2 JUMP JUMPDEST PUSH1 0x40 MLOAD DUP1 SWAP2 SUB SWAP1 REVERT JUMPDEST PUSH0 DUP3 PUSH1 0x40 MLOAD PUSH1 0x20 ADD PUSH2 0x5FB SWAP2 SWAP1 PUSH2 0x1793 JUMP JUMPDEST PUSH1 0x40 MLOAD PUSH1 0x20 DUP2 DUP4 SUB SUB DUP2 MSTORE SWAP1 PUSH1 0x40 MSTORE DUP1 MLOAD SWAP1 PUSH1 0x20 ADD KECCAK256 SWAP1 POP PUSH1 0x6 PUSH0 DUP3 DUP2 MSTORE PUSH1 0x20 ADD SWAP1 DUP2 MSTORE PUSH1 0x20 ADD PUSH0 KECCAK256 PUSH0 SWAP1 SLOAD SWAP1 PUSH2 0x100 EXP SWAP1 DIV PUSH1 0xFF AND ISZERO PUSH2 0x671 JUMPI PUSH1 0x40 MLOAD PUSH32 0x8C379A000000000000000000000000000000000000000000000000000000000 DUP2 MSTORE PUSH1 0x4 ADD PUSH2 0x668 SWAP1 PUSH2 0x17F8 JUMP JUMPDEST PUSH1 0x40 MLOAD DUP1 SWAP2 SUB SWAP1 REVERT JUMPDEST PUSH0 PUSH1 0x7 PUSH0 SWAP1 SLOAD SWAP1 PUSH2 0x100 EXP SWAP1 DIV PUSH20 0xFFFFFFFFFFFFFFFFFFFFFFFFFFFFFFFFFFFFFFFF AND PUSH20 0xFFFFFFFFFFFFFFFFFFFFFFFFFFFFFFFFFFFFFFFF AND PUSH4 0x66670599 DUP9 DUP6 PUSH1 0x40 MLOAD DUP4 PUSH4 0xFFFFFFFF AND PUSH1 0xE0 SHL DUP2 MSTORE PUSH1 0x4 ADD PUSH2 0x6CE SWAP3 SWAP2 SWAP1 PUSH2 0x1A05 JUMP JUMPDEST PUSH1 0x20 PUSH1 0x40 MLOAD DUP1 DUP4 SUB DUP2 DUP7 GAS STATICCALL ISZERO DUP1 ISZERO PUSH2 0x6E9 JUMPI RETURNDATASIZE PUSH0 PUSH0 RETURNDATACOPY RETURNDATASIZE PUSH0 REVERT JUMPDEST POP POP POP POP PUSH1 0x40 MLOAD RETURNDATASIZE PUSH1 0x1F NOT PUSH1 0x1F DUP3 ADD AND DUP3 ADD DUP1 PUSH1 0x40 MSTORE POP DUP2 ADD SWAP1 PUSH2 0x70D SWAP2 SWAP1 PUSH2 0x1A58 JUMP JUMPDEST SWAP1 POP DUP1 PUSH2 0x74F JUMPI PUSH1 0x40 MLOAD PUSH32 0x8C379A000000000000000000000000000000000000000000000000000000000 DUP2 MSTORE PUSH1 0x4 ADD PUSH2 0x746 SWAP1 PUSH2 0x1ACD JUMP JUMPDEST PUSH1 0x40 MLOAD DUP1 SWAP2 SUB SWAP1 REVERT JUMPDEST PUSH1 0x1 PUSH1 0x6 PUSH0 DUP5 DUP2 MSTORE PUSH1 0x20 ADD SWAP1 DUP2 MSTORE PUSH1 0x20 ADD PUSH0 KECCAK256 PUSH0 PUSH2 0x100 EXP DUP2 SLOAD DUP2 PUSH1 0xFF MUL NOT AND SWAP1 DUP4 ISZERO ISZERO MUL OR SWAP1 SSTORE POP PUSH2 0x7B7 PUSH1 0x1 SLOAD PUSH1 0x2 SLOAD DUP9 PUSH0 PUSH1 0x2 DUP2 LT PUSH2 0x794 JUMPI PUSH2 0x793 PUSH2 0x15C7 JUMP JUMPDEST JUMPDEST PUSH1 0x20 MUL ADD CALLDATALOAD DUP10 PUSH1 0x1 PUSH1 0x2 DUP2 LT PUSH2 0x7AD JUMPI PUSH2 0x7AC PUSH2 0x15C7 JUMP JUMPDEST JUMPDEST PUSH1 0x20 MUL ADD CALLDATALOAD PUSH2 0xF2B JUMP JUMPDEST PUSH1 0x1 PUSH0 PUSH1 0x2 PUSH0 DUP5 SWAP2 SWAP1 POP SSTORE DUP4 SWAP2 SWAP1 POP SSTORE POP POP PUSH2 0x808 PUSH1 0x3 SLOAD PUSH1 0x4 SLOAD DUP8 PUSH0 PUSH1 0x2 DUP2 LT PUSH2 0x7E5 JUMPI PUSH2 0x7E4 PUSH2 0x15C7 JUMP JUMPDEST JUMPDEST PUSH1 0x20 MUL ADD CALLDATALOAD DUP9 PUSH1 0x1 PUSH1 0x2 DUP2 LT PUSH2 0x7FE JUMPI PUSH2 0x7FD PUSH2 0x15C7 JUMP JUMPDEST JUMPDEST PUSH1 0x20 MUL ADD CALLDATALOAD PUSH2 0xF2B JUMP JUMPDEST PUSH1 0x3 PUSH0 PUSH1 0x4 PUSH0 DUP5 SWAP2 SWAP1 POP SSTORE DUP4 SWAP2 SWAP1 POP SSTORE POP POP PUSH1 0x1 PUSH1 0x5 PUSH0 DUP3 DUP3 SLOAD PUSH2 0x82C SWAP2 SWAP1 PUSH2 0x1B18 JUMP JUMPDEST SWAP3 POP POP DUP2 SWAP1 SSTORE POP PUSH32 0xEC3373933D5241831A4FB1607A10C99CC2D1A609F099FF1987CE2C1884D05284 DUP7 DUP7 DUP5 PUSH1 0x40 MLOAD PUSH2 0x866 SWAP4 SWAP3 SWAP2 SWAP1 PUSH2 0x1B6A JUMP JUMPDEST PUSH1 0x40 MLOAD DUP1 SWAP2 SUB SWAP1 LOG1 POP POP POP POP POP POP POP JUMP JUMPDEST PUSH0 PUSH0 SWAP1 SLOAD SWAP1 PUSH2 0x100 EXP SWAP1 DIV PUSH20 0xFFFFFFFFFFFFFFFFFFFFFFFFFFFFFFFFFFFFFFFF AND PUSH20 0xFFFFFFFFFFFFFFFFFFFFFFFFFFFFFFFFFFFFFFFF AND CALLER PUSH20 0xFFFFFFFFFFFFFFFFFFFFFFFFFFFFFFFFFFFFFFFF AND EQ PUSH2 0x905 JUMPI PUSH1 0x40 MLOAD PUSH32 0x8C379A000000000000000000000000000000000000000000000000000000000 DUP2 MSTORE PUSH1 0x4 ADD PUSH2 0x8FC SWAP1 PUSH2 0x1BE9 JUMP JUMPDEST PUSH1 0x40 MLOAD DUP1 SWAP2 SUB SWAP1 REVERT JUMPDEST PUSH0 PUSH1 0x14 SWAP1 SLOAD SWAP1 PUSH2 0x100 EXP SWAP1 DIV PUSH1 0xFF AND PUSH2 0x953 JUMPI PUSH1 0x40 MLOAD PUSH32 0x8C379A000000000000000000000000000000000000000000000000000000000 DUP2 MSTORE PUSH1 0x4 ADD PUSH2 0x94A SWAP1 PUSH2 0x1C51 JUMP JUMPDEST PUSH1 0x40 MLOAD DUP1 SWAP2 SUB SWAP1 REVERT JUMPDEST PUSH0 PUSH0 PUSH1 0x14 PUSH2 0x100 EXP DUP2 SLOAD DUP2 PUSH1 0xFF MUL NOT AND SWAP1 DUP4 ISZERO ISZERO MUL OR SWAP1 SSTORE POP PUSH32 0xA549B9ADDFC3693A1863AC5B0B13C42960D78DF554C01EA6AC72A7DB985DF0CF PUSH1 0x40 MLOAD PUSH1 0x40 MLOAD DUP1 SWAP2 SUB SWAP1 LOG1 JUMP JUMPDEST PUSH1 0x2 SLOAD DUP2 JUMP JUMPDEST PUSH1 0x6 PUSH1 0x20 MSTORE DUP1 PUSH0 MSTORE PUSH1 0x40 PUSH0 KECCAK256 PUSH0 SWAP2 POP SLOAD SWAP1 PUSH2 0x100 EXP SWAP1 DIV PUSH1 0xFF AND DUP2 JUMP JUMPDEST PUSH1 0x3 SLOAD DUP2 JUMP JUMPDEST PUSH1 0x4 SLOAD DUP2 JUMP JUMPDEST PUSH0 PUSH0 SWAP1 SLOAD SWAP1 PUSH2 0x100 EXP SWAP1 DIV PUSH20 0xFFFFFFFFFFFFFFFFFFFFFFFFFFFFFFFFFFFFFFFF AND DUP2 JUMP JUMPDEST PUSH1 0x7 PUSH0 SWAP1 SLOAD SWAP1 PUSH2 0x100 EXP SWAP1 DIV PUSH20 0xFFFFFFFFFFFFFFFFFFFFFFFFFFFFFFFFFFFFFFFF AND DUP2 JUMP JUMPDEST PUSH1 0x8 PUSH0 SWAP1 SLOAD SWAP1 PUSH2 0x100 EXP SWAP1 DIV PUSH20 0xFFFFFFFFFFFFFFFFFFFFFFFFFFFFFFFFFFFFFFFF AND DUP2 JUMP JUMPDEST PUSH0 PUSH0 SWAP1 SLOAD SWAP1 PUSH2 0x100 EXP SWAP1 DIV PUSH20 0xFFFFFFFFFFFFFFFFFFFFFFFFFFFFFFFFFFFFFFFF AND PUSH20 0xFFFFFFFFFFFFFFFFFFFFFFFFFFFFFFFFFFFFFFFF AND CALLER PUSH20 0xFFFFFFFFFFFFFFFFFFFFFFFFFFFFFFFFFFFFFFFF AND EQ PUSH2 0xAC5 JUMPI PUSH1 0x40 MLOAD PUSH32 0x8C379A000000000000000000000000000000000000000000000000000000000 DUP2 MSTORE PUSH1 0x4 ADD PUSH2 0xABC SWAP1 PUSH2 0x1BE9 JUMP JUMPDEST PUSH1 0x40 MLOAD DUP1 SWAP2 SUB SWAP1 REVERT JUMPDEST PUSH0 PUSH1 0x14 SWAP1 SLOAD SWAP1 PUSH2 0x100 EXP SWAP1 DIV PUSH1 0xFF AND ISZERO PUSH2 0xB14 JUMPI PUSH1 0x40 MLOAD PUSH32 0x8C379A000000000000000000000000000000000000000000000000000000000 DUP2 MSTORE PUSH1 0x4 ADD PUSH2 0xB0B SWAP1 PUSH2 0x1CB9 JUMP JUMPDEST PUSH1 0x40 MLOAD DUP1 SWAP2 SUB SWAP1 REVERT JUMPDEST PUSH2 0xB1C PUSH2 0x1301 JUMP JUMPDEST PUSH1 0x1 SLOAD DUP2 PUSH0 PUSH1 0xC DUP2 LT PUSH2 0xB32 JUMPI PUSH2 0xB31 PUSH2 0x15C7 JUMP JUMPDEST JUMPDEST PUSH1 0x20 MUL ADD DUP2 DUP2 MSTORE POP POP PUSH1 0x2 SLOAD DUP2 PUSH1 0x1 PUSH1 0xC DUP2 LT PUSH2 0xB52 JUMPI PUSH2 0xB51 PUSH2 0x15C7 JUMP JUMPDEST JUMPDEST PUSH1 0x20 MUL ADD DUP2 DUP2 MSTORE POP POP PUSH1 0x3 SLOAD DUP2 PUSH1 0x2 PUSH1 0xC DUP2 LT PUSH2 0xB72 JUMPI PUSH2 0xB71 PUSH2 0x15C7 JUMP JUMPDEST JUMPDEST PUSH1 0x20 MUL ADD DUP2 DUP2 MSTORE POP POP PUSH1 0x4 SLOAD DUP2 PUSH1 0x3 PUSH1 0xC DUP2 LT PUSH2 0xB92 JUMPI PUSH2 0xB91 PUSH2 0x15C7 JUMP JUMPDEST JUMPDEST PUSH1 0x20 MUL ADD DUP2 DUP2 MSTORE POP POP DUP3 PUSH0 PUSH1 0x8 DUP2 LT PUSH2 0xBAE JUMPI PUSH2 0xBAD PUSH2 0x15C7 JUMP JUMPDEST JUMPDEST PUSH1 0x20 MUL ADD PUSH1 0x20 DUP2 ADD SWAP1 PUSH2 0xBC1 SWAP2 SWAP1 PUSH2 0x162D JUMP JUMPDEST PUSH4 0xFFFFFFFF AND DUP2 PUSH1 0x4 PUSH1 0xC DUP2 LT PUSH2 0xBDB JUMPI PUSH2 0xBDA PUSH2 0x15C7 JUMP JUMPDEST JUMPDEST PUSH1 0x20 MUL ADD DUP2 DUP2 MSTORE POP POP DUP3 PUSH1 0x1 PUSH1 0x8 DUP2 LT PUSH2 0xBF8 JUMPI PUSH2 0xBF7 PUSH2 0x15C7 JUMP JUMPDEST JUMPDEST PUSH1 0x20 MUL ADD PUSH1 0x20 DUP2 ADD SWAP1 PUSH2 0xC0B SWAP2 SWAP1 PUSH2 0x162D JUMP JUMPDEST PUSH4 0xFFFFFFFF AND DUP2 PUSH1 0x5 PUSH1 0xC DUP2 LT PUSH2 0xC25 JUMPI PUSH2 0xC24 PUSH2 0x15C7 JUMP JUMPDEST JUMPDEST PUSH1 0x20 MUL ADD DUP2 DUP2 MSTORE POP POP DUP3 PUSH1 0x2 PUSH1 0x8 DUP2 LT PUSH2 0xC42 JUMPI PUSH2 0xC41 PUSH2 0x15C7 JUMP JUMPDEST JUMPDEST PUSH1 0x20 MUL ADD PUSH1 0x20 DUP2 ADD SWAP1 PUSH2 0xC55 SWAP2 SWAP1 PUSH2 0x162D JUMP JUMPDEST PUSH4 0xFFFFFFFF AND DUP2 PUSH1 0x6 PUSH1 0xC DUP2 LT PUSH2 0xC6F JUMPI PUSH2 0xC6E PUSH2 0x15C7 JUMP JUMPDEST JUMPDEST PUSH1 0x20 MUL ADD DUP2 DUP2 MSTORE POP POP DUP3 PUSH1 0x3 PUSH1 0x8 DUP2 LT PUSH2 0xC8C JUMPI PUSH2 0xC8B PUSH2 0x15C7 JUMP JUMPDEST JUMPDEST PUSH1 0x20 MUL ADD PUSH1 0x20 DUP2 ADD SWAP1 PUSH2 0xC9F SWAP2 SWAP1 PUSH2 0x162D JUMP JUMPDEST PUSH4 0xFFFFFFFF AND DUP2 PUSH1 0x7 PUSH1 0xC DUP2 LT PUSH2 0xCB9 JUMPI PUSH2 0xCB8 PUSH2 0x15C7 JUMP JUMPDEST JUMPDEST PUSH1 0x20 MUL ADD DUP2 DUP2 MSTORE POP POP DUP3 PUSH1 0x4 PUSH1 0x8 DUP2 LT PUSH2 0xCD6 JUMPI PUSH2 0xCD5 PUSH2 0x15C7 JUMP JUMPDEST JUMPDEST PUSH1 0x20 MUL ADD PUSH1 0x20 DUP2 ADD SWAP1 PUSH2 0xCE9 SWAP2 SWAP1 PUSH2 0x162D JUMP JUMPDEST PUSH4 0xFFFFFFFF AND DUP2 PUSH1 0x8 PUSH1 0xC DUP2 LT PUSH2 0xD03 JUMPI PUSH2 0xD02 PUSH2 0x15C7 JUMP JUMPDEST JUMPDEST PUSH1 0x20 MUL ADD DUP2 DUP2 MSTORE POP POP DUP3 PUSH1 0x5 PUSH1 0x8 DUP2 LT PUSH2 0xD20 JUMPI PUSH2 0xD1F PUSH2 0x15C7 JUMP JUMPDEST JUMPDEST PUSH1 0x20 MUL ADD PUSH1 0x20 DUP2 ADD SWAP1 PUSH2 0xD33 SWAP2 SWAP1 PUSH2 0x162D JUMP JUMPDEST PUSH4 0xFFFFFFFF AND DUP2 PUSH1 0x9 PUSH1 0xC DUP2 LT PUSH2 0xD4D JUMPI PUSH2 0xD4C PUSH2 0x15C7 JUMP JUMPDEST JUMPDEST PUSH1 0x20 MUL ADD DUP2 DUP2 MSTORE POP POP DUP3 PUSH1 0x6 PUSH1 0x8 DUP2 LT PUSH2 0xD6A JUMPI PUSH2 0xD69 PUSH2 0x15C7 JUMP JUMPDEST JUMPDEST PUSH1 0x20 MUL ADD PUSH1 0x20 DUP2 ADD SWAP1 PUSH2 0xD7D SWAP2 SWAP1 PUSH2 0x162D JUMP JUMPDEST PUSH4 0xFFFFFFFF AND DUP2 PUSH1 0x8 PUSH1 0xC DUP2 LT PUSH2 0xD97 JUMPI PUSH2 0xD96 PUSH2 0x15C7 JUMP JUMPDEST JUMPDEST PUSH1 0x20 MUL ADD DUP2 DUP2 MSTORE POP POP DUP3 PUSH1 0x7 PUSH1 0x8 DUP2 LT PUSH2 0xDB4 JUMPI PUSH2 0xDB3 PUSH2 0x15C7 JUMP JUMPDEST JUMPDEST PUSH1 0x20 MUL ADD PUSH1 0x20 DUP2 ADD SWAP1 PUSH2 0xDC7 SWAP2 SWAP1 PUSH2 0x162D JUMP JUMPDEST PUSH4 0xFFFFFFFF AND DUP2 PUSH1 0x9 PUSH1 0xC DUP2 LT PUSH2 0xDE1 JUMPI PUSH2 0xDE0 PUSH2 0x15C7 JUMP JUMPDEST JUMPDEST PUSH1 0x20 MUL ADD DUP2 DUP2 MSTORE POP POP PUSH0 PUSH1 0x8 PUSH0 SWAP1 SLOAD SWAP1 PUSH2 0x100 EXP SWAP1 DIV PUSH20 0xFFFFFFFFFFFFFFFFFFFFFFFFFFFFFFFFFFFFFFFF AND PUSH20 0xFFFFFFFFFFFFFFFFFFFFFFFFFFFFFFFFFFFFFFFF AND PUSH4 0x66670599 DUP5 DUP5 PUSH1 0x40 MLOAD DUP4 PUSH4 0xFFFFFFFF AND PUSH1 0xE0 SHL DUP2 MSTORE PUSH1 0x4 ADD PUSH2 0xE47 SWAP3 SWAP2 SWAP1 PUSH2 0x1A05 JUMP JUMPDEST PUSH1 0x20 PUSH1 0x40 MLOAD DUP1 DUP4 SUB DUP2 DUP7 GAS STATICCALL ISZERO DUP1 ISZERO PUSH2 0xE62 JUMPI RETURNDATASIZE PUSH0 PUSH0 RETURNDATACOPY RETURNDATASIZE PUSH0 REVERT JUMPDEST POP POP POP POP PUSH1 0x40 MLOAD RETURNDATASIZE PUSH1 0x1F NOT PUSH1 0x1F DUP3 ADD AND DUP3 ADD DUP1 PUSH1 0x40 MSTORE POP DUP2 ADD SWAP1 PUSH2 0xE86 SWAP2 SWAP1 PUSH2 0x1A58 JUMP JUMPDEST SWAP1 POP DUP1 PUSH2 0xEC8 JUMPI PUSH1 0x40 MLOAD PUSH32 0x8C379A000000000000000000000000000000000000000000000000000000000 DUP2 MSTORE PUSH1 0x4 ADD PUSH2 0xEBF SWAP1 PUSH2 0x1D21 JUMP JUMPDEST PUSH1 0x40 MLOAD DUP1 SWAP2 SUB SWAP1 REVERT JUMPDEST PUSH32 0xEE088BCC4C9BBD048C9C087916EC26AAE94E63151610AF8167078EF170E5AE60 DUP5 PUSH1 0x7 PUSH1 0x8 DUP2 LT PUSH2 0xEFD JUMPI PUSH2 0xEFC PUSH2 0x15C7 JUMP JUMPDEST JUMPDEST PUSH1 0x20 MUL ADD PUSH1 0x20 DUP2 ADD SWAP1 PUSH2 0xF10 SWAP2 SWAP1 PUSH2 0x162D JUMP JUMPDEST PUSH1 0x40 MLOAD PUSH2 0xF1D SWAP2 SWAP1 PUSH2 0x1D6F JUMP JUMPDEST PUSH1 0x40 MLOAD DUP1 SWAP2 SUB SWAP1 LOG1 POP POP POP POP JUMP JUMPDEST PUSH0 PUSH0 PUSH0 DUP7 EQ DUP1 ISZERO PUSH2 0xF3B JUMPI POP PUSH0 DUP6 EQ JUMPDEST ISZERO PUSH2 0xF4B JUMPI DUP4 DUP4 SWAP2 POP SWAP2 POP PUSH2 0x1210 JUMP JUMPDEST PUSH0 DUP5 EQ DUP1 ISZERO PUSH2 0xF59 JUMPI POP PUSH0 DUP6 EQ JUMPDEST ISZERO PUSH2 0xF69 JUMPI DUP6 DUP6 SWAP2 POP SWAP2 POP PUSH2 0x1210 JUMP JUMPDEST PUSH0 PUSH32 0x30644E72E131A029B85045B68181585D2833E84879B9709143E1F593F0000001 DUP1 PUSH2 0xF99 JUMPI PUSH2 0xF98 PUSH2 0x1D88 JUMP JUMPDEST JUMPDEST DUP6 DUP9 MULMOD SWAP1 POP PUSH0 PUSH32 0x30644E72E131A029B85045B68181585D2833E84879B9709143E1F593F0000001 DUP1 PUSH2 0xFCE JUMPI PUSH2 0xFCD PUSH2 0x1D88 JUMP JUMPDEST JUMPDEST DUP6 DUP9 MULMOD SWAP1 POP PUSH0 PUSH32 0x30644E72E131A029B85045B68181585D2833E84879B9709143E1F593F0000001 DUP1 PUSH2 0x1003 JUMPI PUSH2 0x1002 PUSH2 0x1D88 JUMP JUMPDEST JUMPDEST PUSH32 0x30644E72E131A029B85045B68181585D2833E84879B9709143E1F593F0000001 DUP1 PUSH2 0x1032 JUMPI PUSH2 0x1031 PUSH2 0x1D88 JUMP JUMPDEST JUMPDEST DUP4 DUP6 MULMOD PUSH3 0x292F8 MULMOD SWAP1 POP PUSH0 PUSH32 0x30644E72E131A029B85045B68181585D2833E84879B9709143E1F593F0000001 DUP1 PUSH2 0x106C JUMPI PUSH2 0x106B PUSH2 0x1D88 JUMP JUMPDEST JUMPDEST PUSH32 0x30644E72E131A029B85045B68181585D2833E84879B9709143E1F593F0000001 DUP1 PUSH2 0x109B JUMPI PUSH2 0x109A PUSH2 0x1D88 JUMP JUMPDEST JUMPDEST DUP10 DUP12 MULMOD PUSH32 0x30644E72E131A029B85045B68181585D2833E84879B9709143E1F593F0000001 DUP1 PUSH2 0x10CD JUMPI PUSH2 0x10CC PUSH2 0x1D88 JUMP JUMPDEST JUMPDEST DUP10 DUP14 MULMOD ADDMOD SWAP1 POP PUSH0 PUSH2 0x1133 DUP5 PUSH32 0x30644E72E131A029B85045B68181585D2833E84879B9709143E1F593F0000001 DUP1 PUSH2 0x1107 JUMPI PUSH2 0x1106 PUSH2 0x1D88 JUMP JUMPDEST JUMPDEST DUP8 PUSH3 0x292FC MULMOD PUSH32 0x30644E72E131A029B85045B68181585D2833E84879B9709143E1F593F0000001 PUSH2 0x1219 JUMP JUMPDEST SWAP1 POP PUSH32 0x30644E72E131A029B85045B68181585D2833E84879B9709143E1F593F0000001 DUP1 PUSH2 0x1164 JUMPI PUSH2 0x1163 PUSH2 0x1D88 JUMP JUMPDEST JUMPDEST PUSH2 0x119F PUSH32 0x30644E72E131A029B85045B68181585D2833E84879B9709143E1F593F0000001 DUP1 PUSH2 0x1196 JUMPI PUSH2 0x1195 PUSH2 0x1D88 JUMP JUMPDEST JUMPDEST DUP6 PUSH1 0x1 ADDMOD PUSH2 0x125B JUMP JUMPDEST DUP4 MULMOD SWAP7 POP PUSH32 0x30644E72E131A029B85045B68181585D2833E84879B9709143E1F593F0000001 DUP1 PUSH2 0x11D2 JUMPI PUSH2 0x11D1 PUSH2 0x1D88 JUMP JUMPDEST JUMPDEST PUSH2 0x1206 PUSH2 0x1201 PUSH1 0x1 DUP7 PUSH32 0x30644E72E131A029B85045B68181585D2833E84879B9709143E1F593F0000001 PUSH2 0x1219 JUMP JUMPDEST PUSH2 0x125B JUMP JUMPDEST DUP3 MULMOD SWAP6 POP POP POP POP POP POP JUMPDEST SWAP5 POP SWAP5 SWAP3 POP POP POP JUMP JUMPDEST PUSH0 PUSH0 DUP5 SWAP1 POP DUP4 DUP6 GT PUSH2 0x1234 JUMPI DUP3 DUP2 PUSH2 0x1231 SWAP2 SWAP1 PUSH2 0x1B18 JUMP JUMPDEST SWAP1 POP JUMPDEST DUP3 DUP1 PUSH2 0x1243 JUMPI PUSH2 0x1242 PUSH2 0x1D88 JUMP JUMPDEST JUMPDEST PUSH0 DUP6 DUP4 PUSH2 0x1250 SWAP2 SWAP1 PUSH2 0x1DB5 JUMP JUMPDEST ADDMOD SWAP2 POP POP SWAP4 SWAP3 POP POP POP JUMP JUMPDEST PUSH0 PUSH2 0x12B3 DUP3 PUSH1 0x2 PUSH32 0x30644E72E131A029B85045B68181585D2833E84879B9709143E1F593F0000001 PUSH2 0x128D SWAP2 SWAP1 PUSH2 0x1DB5 JUMP JUMPDEST PUSH32 0x30644E72E131A029B85045B68181585D2833E84879B9709143E1F593F0000001 PUSH2 0x12BA JUMP JUMPDEST SWAP1 POP SWAP2 SWAP1 POP JUMP JUMPDEST PUSH0 PUSH1 0x40 MLOAD PUSH1 0x20 DUP2 MSTORE PUSH1 0x20 DUP1 DUP3 ADD MSTORE PUSH1 0x20 PUSH1 0x40 DUP3 ADD MSTORE DUP5 PUSH1 0x60 DUP3 ADD MSTORE DUP4 PUSH1 0x80 DUP3 ADD MSTORE DUP3 PUSH1 0xA0 DUP3 ADD MSTORE PUSH1 0x20 DUP2 PUSH1 0xC0 DUP4 PUSH1 0x5 GAS STATICCALL DUP1 PUSH2 0x12F4 JUMPI PUSH0 PUSH0 REVERT JUMPDEST DUP2 MLOAD SWAP3 POP POP POP SWAP4 SWAP3 POP POP POP JUMP JUMPDEST PUSH1 0x40 MLOAD DUP1 PUSH2 0x180 ADD PUSH1 0x40 MSTORE DUP1 PUSH1 0xC SWAP1 PUSH1 0x20 DUP3 MUL DUP1 CALLDATASIZE DUP4 CALLDATACOPY DUP1 DUP3 ADD SWAP2 POP POP SWAP1 POP POP SWAP1 JUMP JUMPDEST PUSH0 DUP2 SWAP1 POP SWAP2 SWAP1 POP JUMP JUMPDEST PUSH2 0x1336 DUP2 PUSH2 0x1324 JUMP JUMPDEST DUP3 MSTORE POP POP JUMP JUMPDEST PUSH0 PUSH1 0x20 DUP3 ADD SWAP1 POP PUSH2 0x134F PUSH0 DUP4 ADD DUP5 PUSH2 0x132D JUMP JUMPDEST SWAP3 SWAP2 POP POP JUMP JUMPDEST PUSH0 DUP2 ISZERO ISZERO SWAP1 POP SWAP2 SWAP1 POP JUMP JUMPDEST PUSH2 0x1369 DUP2 PUSH2 0x1355 JUMP JUMPDEST DUP3 MSTORE POP POP JUMP JUMPDEST PUSH0 PUSH1 0x20 DUP3 ADD SWAP1 POP PUSH2 0x1382 PUSH0 DUP4 ADD DUP5 PUSH2 0x1360 JUMP JUMPDEST SWAP3 SWAP2 POP POP JUMP JUMPDEST PUSH0 PUSH0 REVERT JUMPDEST PUSH0 PUSH0 REVERT JUMPDEST PUSH0 PUSH2 0x100 DUP3 DUP5 SUB SLT ISZERO PUSH2 0x13A6 JUMPI PUSH2 0x13A5 PUSH2 0x138C JUMP JUMPDEST JUMPDEST DUP2 SWAP1 POP SWAP3 SWAP2 POP POP JUMP JUMPDEST PUSH0 PUSH0 REVERT JUMPDEST PUSH0 DUP2 SWAP1 POP DUP3 PUSH1 0x20 PUSH1 0x2 MUL DUP3 ADD GT ISZERO PUSH2 0x13CE JUMPI PUSH2 0x13CD PUSH2 0x13AF JUMP JUMPDEST JUMPDEST SWAP3 SWAP2 POP POP JUMP JUMPDEST PUSH0 DUP2 SWAP1 POP DUP3 PUSH1 0x20 PUSH1 0x8 MUL DUP3 ADD GT ISZERO PUSH2 0x13EF JUMPI PUSH2 0x13EE PUSH2 0x13AF JUMP JUMPDEST JUMPDEST SWAP3 SWAP2 POP POP JUMP JUMPDEST PUSH0 PUSH0 PUSH0 PUSH0 PUSH2 0x280 DUP6 DUP8 SUB SLT ISZERO PUSH2 0x140E JUMPI PUSH2 0x140D PUSH2 0x1388 JUMP JUMPDEST JUMPDEST PUSH0 PUSH2 0x141B DUP8 DUP3 DUP9 ADD PUSH2 0x1390 JUMP JUMPDEST SWAP5 POP POP PUSH2 0x100 PUSH2 0x142D DUP8 DUP3 DUP9 ADD PUSH2 0x13B3 JUMP JUMPDEST SWAP4 POP POP PUSH2 0x140 PUSH2 0x143F DUP8 DUP3 DUP9 ADD PUSH2 0x13B3 JUMP JUMPDEST SWAP3 POP POP PUSH2 0x180 PUSH2 0x1451 DUP8 DUP3 DUP9 ADD PUSH2 0x13D4 JUMP JUMPDEST SWAP2 POP POP SWAP3 SWAP6 SWAP2 SWAP5 POP SWAP3 POP JUMP JUMPDEST PUSH0 DUP2 SWAP1 POP SWAP2 SWAP1 POP JUMP JUMPDEST PUSH2 0x146F DUP2 PUSH2 0x145D JUMP JUMPDEST DUP2 EQ PUSH2 0x1479 JUMPI PUSH0 PUSH0 REVERT JUMPDEST POP JUMP JUMPDEST PUSH0 DUP2 CALLDATALOAD SWAP1 POP PUSH2 0x148A DUP2 PUSH2 0x1466 JUMP JUMPDEST SWAP3 SWAP2 POP POP JUMP JUMPDEST PUSH0 PUSH1 0x20 DUP3 DUP5 SUB SLT ISZERO PUSH2 0x14A5 JUMPI PUSH2 0x14A4 PUSH2 0x1388 JUMP JUMPDEST JUMPDEST PUSH0 PUSH2 0x14B2 DUP5 DUP3 DUP6 ADD PUSH2 0x147C JUMP JUMPDEST SWAP2 POP POP SWAP3 SWAP2 POP POP JUMP JUMPDEST PUSH0 PUSH20 0xFFFFFFFFFFFFFFFFFFFFFFFFFFFFFFFFFFFFFFFF DUP3 AND SWAP1 POP SWAP2 SWAP1 POP JUMP JUMPDEST PUSH0 PUSH2 0x14E4 DUP3 PUSH2 0x14BB JUMP JUMPDEST SWAP1 POP SWAP2 SWAP1 POP JUMP JUMPDEST PUSH2 0x14F4 DUP2 PUSH2 0x14DA JUMP JUMPDEST DUP3 MSTORE POP POP JUMP JUMPDEST PUSH0 PUSH1 0x20 DUP3 ADD SWAP1 POP PUSH2 0x150D PUSH0 DUP4 ADD DUP5 PUSH2 0x14EB JUMP JUMPDEST SWAP3 SWAP2 POP POP JUMP JUMPDEST PUSH0 DUP2 SWAP1 POP SWAP2 SWAP1 POP JUMP JUMPDEST PUSH0 PUSH2 0x1536 PUSH2 0x1531 PUSH2 0x152C DUP5 PUSH2 0x14BB JUMP JUMPDEST PUSH2 0x1513 JUMP JUMPDEST PUSH2 0x14BB JUMP JUMPDEST SWAP1 POP SWAP2 SWAP1 POP JUMP JUMPDEST PUSH0 PUSH2 0x1547 DUP3 PUSH2 0x151C JUMP JUMPDEST SWAP1 POP SWAP2 SWAP1 POP JUMP JUMPDEST PUSH0 PUSH2 0x1558 DUP3 PUSH2 0x153D JUMP JUMPDEST SWAP1 POP SWAP2 SWAP1 POP JUMP JUMPDEST PUSH2 0x1568 DUP2 PUSH2 0x154E JUMP JUMPDEST DUP3 MSTORE POP POP JUMP JUMPDEST PUSH0 PUSH1 0x20 DUP3 ADD SWAP1 POP PUSH2 0x1581 PUSH0 DUP4 ADD DUP5 PUSH2 0x155F JUMP JUMPDEST SWAP3 SWAP2 POP POP JUMP JUMPDEST PUSH0 PUSH0 PUSH2 0x200 DUP4 DUP6 SUB SLT ISZERO PUSH2 0x159E JUMPI PUSH2 0x159D PUSH2 0x1388 JUMP JUMPDEST JUMPDEST PUSH0 PUSH2 0x15AB DUP6 DUP3 DUP7 ADD PUSH2 0x13D4 JUMP JUMPDEST SWAP3 POP POP PUSH2 0x100 PUSH2 0x15BD DUP6 DUP3 DUP7 ADD PUSH2 0x1390 JUMP JUMPDEST SWAP2 POP POP SWAP3 POP SWAP3 SWAP1 POP JUMP JUMPDEST PUSH32 0x4E487B7100000000000000000000000000000000000000000000000000000000 PUSH0 MSTORE PUSH1 0x32 PUSH1 0x4 MSTORE PUSH1 0x24 PUSH0 REVERT JUMPDEST PUSH0 PUSH4 0xFFFFFFFF DUP3 AND SWAP1 POP SWAP2 SWAP1 POP JUMP JUMPDEST PUSH2 0x160C DUP2 PUSH2 0x15F4 JUMP JUMPDEST DUP2 EQ PUSH2 0x1616 JUMPI PUSH0 PUSH0 REVERT JUMPDEST POP JUMP JUMPDEST PUSH0 DUP2 CALLDATALOAD SWAP1 POP PUSH2 0x1627 DUP2 PUSH2 0x1603 JUMP JUMPDEST SWAP3 SWAP2 POP POP JUMP JUMPDEST PUSH0 PUSH1 0x20 DUP3 DUP5 SUB SLT ISZERO PUSH2 0x1642 JUMPI PUSH2 0x1641 PUSH2 0x1388 JUMP JUMPDEST JUMPDEST PUSH0 PUSH2 0x164F DUP5 DUP3 DUP6 ADD PUSH2 0x1619 JUMP JUMPDEST SWAP2 POP POP SWAP3 SWAP2 POP POP JUMP JUMPDEST PUSH0 DUP3 DUP3 MSTORE PUSH1 0x20 DUP3 ADD SWAP1 POP SWAP3 SWAP2 POP POP JUMP JUMPDEST PUSH32 0x456C656374696F6E20636C6F7365640000000000000000000000000000000000 PUSH0 DUP3 ADD MSTORE POP JUMP JUMPDEST PUSH0 PUSH2 0x169C PUSH1 0xF DUP4 PUSH2 0x1658 JUMP JUMPDEST SWAP2 POP PUSH2 0x16A7 DUP3 PUSH2 0x1668 JUMP JUMPDEST PUSH1 0x20 DUP3 ADD SWAP1 POP SWAP2 SWAP1 POP JUMP JUMPDEST PUSH0 PUSH1 0x20 DUP3 ADD SWAP1 POP DUP2 DUP2 SUB PUSH0 DUP4 ADD MSTORE PUSH2 0x16C9 DUP2 PUSH2 0x1690 JUMP JUMPDEST SWAP1 POP SWAP2 SWAP1 POP JUMP JUMPDEST PUSH0 PUSH1 0x8 SWAP1 POP SWAP2 SWAP1 POP JUMP JUMPDEST PUSH0 DUP2 SWAP1 POP SWAP3 SWAP2 POP POP JUMP JUMPDEST PUSH0 DUP2 SWAP1 POP SWAP2 SWAP1 POP JUMP JUMPDEST PUSH2 0x16F6 DUP2 PUSH2 0x15F4 JUMP JUMPDEST DUP3 MSTORE POP POP JUMP JUMPDEST PUSH0 PUSH2 0x1707 DUP4 DUP4 PUSH2 0x16ED JUMP JUMPDEST PUSH1 0x20 DUP4 ADD SWAP1 POP SWAP3 SWAP2 POP POP JUMP JUMPDEST PUSH0 PUSH2 0x1721 PUSH1 0x20 DUP5 ADD DUP5 PUSH2 0x1619 JUMP JUMPDEST SWAP1 POP SWAP3 SWAP2 POP POP JUMP JUMPDEST PUSH0 PUSH1 0x20 DUP3 ADD SWAP1 POP SWAP2 SWAP1 POP JUMP JUMPDEST PUSH2 0x173E DUP2 PUSH2 0x16D0 JUMP JUMPDEST PUSH2 0x1748 DUP2 DUP5 PUSH2 0x16DA JUMP JUMPDEST SWAP3 POP PUSH2 0x1753 DUP3 PUSH2 0x16E4 JUMP JUMPDEST DUP1 PUSH0 JUMPDEST DUP4 DUP2 LT ISZERO PUSH2 0x178B JUMPI PUSH2 0x1768 DUP3 DUP5 PUSH2 0x1713 JUMP JUMPDEST PUSH2 0x1772 DUP8 DUP3 PUSH2 0x16FC JUMP JUMPDEST SWAP7 POP PUSH2 0x177D DUP4 PUSH2 0x1729 JUMP JUMPDEST SWAP3 POP POP PUSH1 0x1 DUP2 ADD SWAP1 POP PUSH2 0x1756 JUMP JUMPDEST POP POP POP POP POP POP JUMP JUMPDEST PUSH0 PUSH2 0x179E DUP3 DUP5 PUSH2 0x1735 JUMP JUMPDEST PUSH2 0x100 DUP3 ADD SWAP2 POP DUP2 SWAP1 POP SWAP3 SWAP2 POP POP JUMP JUMPDEST PUSH32 0x4E756C6C696669657220616C7265616479207573656400000000000000000000 PUSH0 DUP3 ADD MSTORE POP JUMP JUMPDEST PUSH0 PUSH2 0x17E2 PUSH1 0x16 DUP4 PUSH2 0x1658 JUMP JUMPDEST SWAP2 POP PUSH2 0x17ED DUP3 PUSH2 0x17AE JUMP JUMPDEST PUSH1 0x20 DUP3 ADD SWAP1 POP SWAP2 SWAP1 POP JUMP JUMPDEST PUSH0 PUSH1 0x20 DUP3 ADD SWAP1 POP DUP2 DUP2 SUB PUSH0 DUP4 ADD MSTORE PUSH2 0x180F DUP2 PUSH2 0x17D6 JUMP JUMPDEST SWAP1 POP SWAP2 SWAP1 POP JUMP JUMPDEST PUSH0 DUP3 SWAP1 POP SWAP3 SWAP2 POP POP JUMP JUMPDEST PUSH2 0x1829 DUP2 PUSH2 0x1324 JUMP JUMPDEST DUP2 EQ PUSH2 0x1833 JUMPI PUSH0 PUSH0 REVERT JUMPDEST POP JUMP JUMPDEST PUSH0 DUP2 CALLDATALOAD SWAP1 POP PUSH2 0x1844 DUP2 PUSH2 0x1820 JUMP JUMPDEST SWAP3 SWAP2 POP POP JUMP JUMPDEST PUSH0 PUSH2 0x1858 PUSH1 0x20 DUP5 ADD DUP5 PUSH2 0x1836 JUMP JUMPDEST SWAP1 POP SWAP3 SWAP2 POP POP JUMP JUMPDEST PUSH2 0x1869 DUP2 PUSH2 0x1324 JUMP JUMPDEST DUP3 MSTORE POP POP JUMP JUMPDEST PUSH1 0x40 DUP3 ADD PUSH2 0x187F PUSH0 DUP4 ADD DUP4 PUSH2 0x184A JUMP JUMPDEST PUSH2 0x188B PUSH0 DUP6 ADD DUP3 PUSH2 0x1860 JUMP JUMPDEST POP PUSH2 0x1899 PUSH1 0x20 DUP4 ADD DUP4 PUSH2 0x184A JUMP JUMPDEST PUSH2 0x18A6 PUSH1 0x20 DUP6 ADD DUP3 PUSH2 0x1860 JUMP JUMPDEST POP POP POP POP JUMP JUMPDEST PUSH0 DUP3 SWAP1 POP SWAP3 SWAP2 POP POP JUMP JUMPDEST PUSH0 DUP3 SWAP1 POP SWAP3 SWAP2 POP POP JUMP JUMPDEST DUP3 DUP2 DUP4 CALLDATACOPY POP POP POP JUMP JUMPDEST PUSH2 0x18D5 PUSH1 0x40 DUP4 DUP4 PUSH2 0x18C0 JUMP JUMPDEST POP POP JUMP JUMPDEST PUSH1 0x80 DUP3 ADD PUSH2 0x18E9 PUSH0 DUP4 ADD DUP4 PUSH2 0x18B6 JUMP JUMPDEST PUSH2 0x18F5 PUSH0 DUP6 ADD DUP3 PUSH2 0x18C9 JUMP JUMPDEST POP PUSH2 0x1903 PUSH1 0x40 DUP4 ADD DUP4 PUSH2 0x18B6 JUMP JUMPDEST PUSH2 0x1910 PUSH1 0x40 DUP6 ADD DUP3 PUSH2 0x18C9 JUMP JUMPDEST POP POP POP POP JUMP JUMPDEST PUSH2 0x100 DUP3 ADD PUSH2 0x1927 PUSH0 DUP4 ADD DUP4 PUSH2 0x1816 JUMP JUMPDEST PUSH2 0x1933 PUSH0 DUP6 ADD DUP3 PUSH2 0x186F JUMP JUMPDEST POP PUSH2 0x1941 PUSH1 0x40 DUP4 ADD DUP4 PUSH2 0x18AC JUMP JUMPDEST PUSH2 0x194E PUSH1 0x40 DUP6 ADD DUP3 PUSH2 0x18D9 JUMP JUMPDEST POP PUSH2 0x195C PUSH1 0xC0 DUP4 ADD DUP4 PUSH2 0x1816 JUMP JUMPDEST PUSH2 0x1969 PUSH1 0xC0 DUP6 ADD DUP3 PUSH2 0x186F JUMP JUMPDEST POP POP POP POP JUMP JUMPDEST PUSH0 PUSH1 0xC SWAP1 POP SWAP2 SWAP1 POP JUMP JUMPDEST PUSH0 DUP2 SWAP1 POP SWAP3 SWAP2 POP POP JUMP JUMPDEST PUSH0 DUP2 SWAP1 POP SWAP2 SWAP1 POP JUMP JUMPDEST PUSH0 PUSH2 0x1997 DUP4 DUP4 PUSH2 0x1860 JUMP JUMPDEST PUSH1 0x20 DUP4 ADD SWAP1 POP SWAP3 SWAP2 POP POP JUMP JUMPDEST PUSH0 PUSH1 0x20 DUP3 ADD SWAP1 POP SWAP2 SWAP1 POP JUMP JUMPDEST PUSH2 0x19B8 DUP2 PUSH2 0x196F JUMP JUMPDEST PUSH2 0x19C2 DUP2 DUP5 PUSH2 0x1979 JUMP JUMPDEST SWAP3 POP PUSH2 0x19CD DUP3 PUSH2 0x1983 JUMP JUMPDEST DUP1 PUSH0 JUMPDEST DUP4 DUP2 LT ISZERO PUSH2 0x19FD JUMPI DUP2 MLOAD PUSH2 0x19E4 DUP8 DUP3 PUSH2 0x198C JUMP JUMPDEST SWAP7 POP PUSH2 0x19EF DUP4 PUSH2 0x19A3 JUMP JUMPDEST SWAP3 POP POP PUSH1 0x1 DUP2 ADD SWAP1 POP PUSH2 0x19D0 JUMP JUMPDEST POP POP POP POP POP POP JUMP JUMPDEST PUSH0 PUSH2 0x280 DUP3 ADD SWAP1 POP PUSH2 0x1A19 PUSH0 DUP4 ADD DUP6 PUSH2 0x1916 JUMP JUMPDEST PUSH2 0x1A27 PUSH2 0x100 DUP4 ADD DUP5 PUSH2 0x19AF JUMP JUMPDEST SWAP4 SWAP3 POP POP POP JUMP JUMPDEST PUSH2 0x1A37 DUP2 PUSH2 0x1355 JUMP JUMPDEST DUP2 EQ PUSH2 0x1A41 JUMPI PUSH0 PUSH0 REVERT JUMPDEST POP JUMP JUMPDEST PUSH0 DUP2 MLOAD SWAP1 POP PUSH2 0x1A52 DUP2 PUSH2 0x1A2E JUMP JUMPDEST SWAP3 SWAP2 POP POP JUMP JUMPDEST PUSH0 PUSH1 0x20 DUP3 DUP5 SUB SLT ISZERO PUSH2 0x1A6D JUMPI PUSH2 0x1A6C PUSH2 0x1388 JUMP JUMPDEST JUMPDEST PUSH0 PUSH2 0x1A7A DUP5 DUP3 DUP6 ADD PUSH2 0x1A44 JUMP JUMPDEST SWAP2 POP POP SWAP3 SWAP2 POP POP JUMP JUMPDEST PUSH32 0x496E76616C696420766F74652070726F6F660000000000000000000000000000 PUSH0 DUP3 ADD MSTORE POP JUMP JUMPDEST PUSH0 PUSH2 0x1AB7 PUSH1 0x12 DUP4 PUSH2 0x1658 JUMP JUMPDEST SWAP2 POP PUSH2 0x1AC2 DUP3 PUSH2 0x1A83 JUMP JUMPDEST PUSH1 0x20 DUP3 ADD SWAP1 POP SWAP2 SWAP1 POP JUMP JUMPDEST PUSH0 PUSH1 0x20 DUP3 ADD SWAP1 POP DUP2 DUP2 SUB PUSH0 DUP4 ADD MSTORE PUSH2 0x1AE4 DUP2 PUSH2 0x1AAB JUMP JUMPDEST SWAP1 POP SWAP2 SWAP1 POP JUMP JUMPDEST PUSH32 0x4E487B7100000000000000000000000000000000000000000000000000000000 PUSH0 MSTORE PUSH1 0x11 PUSH1 0x4 MSTORE PUSH1 0x24 PUSH0 REVERT JUMPDEST PUSH0 PUSH2 0x1B22 DUP3 PUSH2 0x1324 JUMP JUMPDEST SWAP2 POP PUSH2 0x1B2D DUP4 PUSH2 0x1324 JUMP JUMPDEST SWAP3 POP DUP3 DUP3 ADD SWAP1 POP DUP1 DUP3 GT ISZERO PUSH2 0x1B45 JUMPI PUSH2 0x1B44 PUSH2 0x1AEB JUMP JUMPDEST JUMPDEST SWAP3 SWAP2 POP POP JUMP JUMPDEST PUSH2 0x1B57 PUSH1 0x40 DUP4 DUP4 PUSH2 0x18C0 JUMP JUMPDEST POP POP JUMP JUMPDEST PUSH2 0x1B64 DUP2 PUSH2 0x145D JUMP JUMPDEST DUP3 MSTORE POP POP JUMP JUMPDEST PUSH0 PUSH1 0xA0 DUP3 ADD SWAP1 POP PUSH2 0x1B7D PUSH0 DUP4 ADD DUP7 PUSH2 0x1B4B JUMP JUMPDEST PUSH2 0x1B8A PUSH1 0x40 DUP4 ADD DUP6 PUSH2 0x1B4B JUMP JUMPDEST PUSH2 0x1B97 PUSH1 0x80 DUP4 ADD DUP5 PUSH2 0x1B5B JUMP JUMPDEST SWAP5 SWAP4 POP POP POP POP JUMP JUMPDEST PUSH32 0x4F6E6C79206F776E657200000000000000000000000000000000000000000000 PUSH0 DUP3 ADD MSTORE POP JUMP JUMPDEST PUSH0 PUSH2 0x1BD3 PUSH1 0xA DUP4 PUSH2 0x1658 JUMP JUMPDEST SWAP2 POP PUSH2 0x1BDE DUP3 PUSH2 0x1B9F JUMP JUMPDEST PUSH1 0x20 DUP3 ADD SWAP1 POP SWAP2 SWAP1 POP JUMP JUMPDEST PUSH0 PUSH1 0x20 DUP3 ADD SWAP1 POP DUP2 DUP2 SUB PUSH0 DUP4 ADD MSTORE PUSH2 0x1C00 DUP2 PUSH2 0x1BC7 JUMP JUMPDEST SWAP1 POP SWAP2 SWAP1 POP JUMP JUMPDEST PUSH32 0x416C726561647920636C6F736564000000000000000000000000000000000000 PUSH0 DUP3 ADD MSTORE POP JUMP JUMPDEST PUSH0 PUSH2 0x1C3B PUSH1 0xE DUP4 PUSH2 0x1658 JUMP JUMPDEST SWAP2 POP PUSH2 0x1C46 DUP3 PUSH2 0x1C07 JUMP JUMPDEST PUSH1 0x20 DUP3 ADD SWAP1 POP SWAP2 SWAP1 POP JUMP JUMPDEST PUSH0 PUSH1 0x20 DUP3 ADD SWAP1 POP DUP2 DUP2 SUB PUSH0 DUP4 ADD MSTORE PUSH2 0x1C68 DUP2 PUSH2 0x1C2F JUMP JUMPDEST SWAP1 POP SWAP2 SWAP1 POP JUMP JUMPDEST PUSH32 0x456C656374696F6E207374696C6C206F70656E00000000000000000000000000 PUSH0 DUP3 ADD MSTORE POP JUMP JUMPDEST PUSH0 PUSH2 0x1CA3 PUSH1 0x13 DUP4 PUSH2 0x1658 JUMP JUMPDEST SWAP2 POP PUSH2 0x1CAE DUP3 PUSH2 0x1C6F JUMP JUMPDEST PUSH1 0x20 DUP3 ADD SWAP1 POP SWAP2 SWAP1 POP JUMP JUMPDEST PUSH0 PUSH1 0x20 DUP3 ADD SWAP1 POP DUP2 DUP2 SUB PUSH0 DUP4 ADD MSTORE PUSH2 0x1CD0 DUP2 PUSH2 0x1C97 JUMP JUMPDEST SWAP1 POP SWAP2 SWAP1 POP JUMP JUMPDEST PUSH32 0x496E76616C6964207265636F756E742070726F6F660000000000000000000000 PUSH0 DUP3 ADD MSTORE POP JUMP JUMPDEST PUSH0 PUSH2 0x1D0B PUSH1 0x15 DUP4 PUSH2 0x1658 JUMP JUMPDEST SWAP2 POP PUSH2 0x1D16 DUP3 PUSH2 0x1CD7 JUMP JUMPDEST PUSH1 0x20 DUP3 ADD SWAP1 POP SWAP2 SWAP1 POP JUMP JUMPDEST PUSH0 PUSH1 0x20 DUP3 ADD SWAP1 POP DUP2 DUP2 SUB PUSH0 DUP4 ADD MSTORE PUSH2 0x1D38 DUP2 PUSH2 0x1CFF JUMP JUMPDEST SWAP1 POP SWAP2 SWAP1 POP JUMP JUMPDEST PUSH0 PUSH2 0x1D59 PUSH2 0x1D54 PUSH2 0x1D4F DUP5 PUSH2 0x15F4 JUMP JUMPDEST PUSH2 0x1513 JUMP JUMPDEST PUSH2 0x1324 JUMP JUMPDEST SWAP1 POP SWAP2 SWAP1 POP JUMP JUMPDEST PUSH2 0x1D69 DUP2 PUSH2 0x1D3F JUMP JUMPDEST DUP3 MSTORE POP POP JUMP JUMPDEST PUSH0 PUSH1 0x20 DUP3 ADD SWAP1 POP PUSH2 0x1D82 PUSH0 DUP4 ADD DUP5 PUSH2 0x1D60 JUMP JUMPDEST SWAP3 SWAP2 POP POP JUMP JUMPDEST PUSH32 0x4E487B7100000000000000000000000000000000000000000000000000000000 PUSH0 MSTORE PUSH1 0x12 PUSH1 0x4 MSTORE PUSH1 0x24 PUSH0 REVERT JUMPDEST PUSH0 PUSH2 0x1DBF DUP3 PUSH2 0x1324 JUMP JUMPDEST SWAP2 POP PUSH2 0x1DCA DUP4 PUSH2 0x1324 JUMP JUMPDEST SWAP3 POP DUP3 DUP3 SUB SWAP1 POP DUP2 DUP2 GT ISZERO PUSH2 0x1DE2 JUMPI PUSH2 0x1DE1 PUSH2 0x1AEB JUMP JUMPDEST JUMPDEST SWAP3 SWAP2 POP POP JUMP INVALID LOG2 PUSH5 0x6970667358 0x22 SLT KECCAK256 DUP14 SWAP1 0xDE EXTCODECOPY 0xBF EXTCODECOPY 0xAD 0xD3 GASLIMIT 0xB7 0x4D DUP6 0xAC RETURNCONTRACT 0x6B 0xC5 0xE CALL 0x21 0x29 SWAP13 SAR RETURNCONTRACT 0x18 DUP7 PUSH25 0xAAD2F52FA2A264736F6C634300081E00330000000000000000 "
				},
				"gasEstimates": {
					"creation": {
						"codeDepositCost": "1542000",
						"executionCost": "infinite",
						"totalCost": "infinite"
					},
					"external": {
						"accC1x()": "2470",
						"accC1y()": "2536",
						"accC2x()": "2470",
						"accC2y()": "2492",
						"closeElection()": "29694",
						"electionOpen()": "2539",
						"nullifierUsed(bytes32)": "2808",
						"numberOfVotes()": "2426",
						"owner()": "2529",
						"publishResults(uint32[8],((uint256,uint256),(uint256[2],uint256[2]),(uint256,uint256)))": "infinite",
						"recountVerifier()": "infinite",
						"registerVote(((uint256,uint256),(uint256[2],uint256[2]),(uint256,uint256)),uint256[2],uint256[2],uint32[8])": "infinite",
						"voteVerifier()": "infinite"
					}
				},
				"methodIdentifiers": {
					"accC1x()": "4d139763",
					"accC1y()": "75f11da1",
					"accC2x()": "82786199",
					"accC2y()": "87dde0be",
					"closeElection()": "6c6c32d0",
					"electionOpen()": "4a39d442",
					"nullifierUsed(bytes32)": "7ecf686d",
					"numberOfVotes()": "0e7d490d",
					"owner()": "8da5cb5b",
					"publishResults(uint32[8],((uint256,uint256),(uint256[2],uint256[2]),(uint256,uint256)))": "d317cfb0",
					"recountVerifier()": "bf0516f2",
					"registerVote(((uint256,uint256),(uint256[2],uint256[2]),(uint256,uint256)),uint256[2],uint256[2],uint32[8])": "59a00a30",
					"voteVerifier()": "99d74c71"
				}
			},
			"storageLayout": {
				"storage": [
					{
						"astId": 413,
						"contract": "TP FINAL/VotingSystem.sol:VotingSystem",
						"label": "owner",
						"offset": 0,
						"slot": "0",
						"type": "t_address"
					},
					{
						"astId": 415,
						"contract": "TP FINAL/VotingSystem.sol:VotingSystem",
						"label": "electionOpen",
						"offset": 20,
						"slot": "0",
						"type": "t_bool"
					},
					{
						"astId": 417,
						"contract": "TP FINAL/VotingSystem.sol:VotingSystem",
						"label": "accC1x",
						"offset": 0,
						"slot": "1",
						"type": "t_uint256"
					},
					{
						"astId": 419,
						"contract": "TP FINAL/VotingSystem.sol:VotingSystem",
						"label": "accC1y",
						"offset": 0,
						"slot": "2",
						"type": "t_uint256"
					},
					{
						"astId": 421,
						"contract": "TP FINAL/VotingSystem.sol:VotingSystem",
						"label": "accC2x",
						"offset": 0,
						"slot": "3",
						"type": "t_uint256"
					},
					{
						"astId": 423,
						"contract": "TP FINAL/VotingSystem.sol:VotingSystem",
						"label": "accC2y",
						"offset": 0,
						"slot": "4",
						"type": "t_uint256"
					},
					{
						"astId": 425,
						"contract": "TP FINAL/VotingSystem.sol:VotingSystem",
						"label": "numberOfVotes",
						"offset": 0,
						"slot": "5",
						"type": "t_uint256"
					},
					{
						"astId": 429,
						"contract": "TP FINAL/VotingSystem.sol:VotingSystem",
						"label": "nullifierUsed",
						"offset": 0,
						"slot": "6",
						"type": "t_mapping(t_bytes32,t_bool)"
					},
					{
						"astId": 432,
						"contract": "TP FINAL/VotingSystem.sol:VotingSystem",
						"label": "voteVerifier",
						"offset": 0,
						"slot": "7",
						"type": "t_contract(IVerifier)407"
					},
					{
						"astId": 435,
						"contract": "TP FINAL/VotingSystem.sol:VotingSystem",
						"label": "recountVerifier",
						"offset": 0,
						"slot": "8",
						"type": "t_contract(IVerifier)407"
					}
				],
				"types": {
					"t_address": {
						"encoding": "inplace",
						"label": "address",
						"numberOfBytes": "20"
					},
					"t_bool": {
						"encoding": "inplace",
						"label": "bool",
						"numberOfBytes": "1"
					},
					"t_bytes32": {
						"encoding": "inplace",
						"label": "bytes32",
						"numberOfBytes": "32"
					},
					"t_contract(IVerifier)407": {
						"encoding": "inplace",
						"label": "contract IVerifier",
						"numberOfBytes": "20"
					},
					"t_mapping(t_bytes32,t_bool)": {
						"encoding": "mapping",
						"key": "t_bytes32",
						"label": "mapping(bytes32 => bool)",
						"numberOfBytes": "32",
						"value": "t_bool"
					},
					"t_uint256": {
						"encoding": "inplace",
						"label": "uint256",
						"numberOfBytes": "32"
					}
				}
			},
			"userdoc": {
				"kind": "user",
				"methods": {},
				"version": 1
			}
		}
	}
}