{
	"verifier.sol": {
		"Verifier": {
			"abi": [
				{
					"inputs": [
						{
							"components": [
								{
									"components": [
										{
											"internalType": "uint256",
											"name": "X",
											"type": "uint256"
										},
										{
											"internalType": "uint256",
											"name": "Y",
											"type": "uint256"
										}
									],
									"internalType": "struct Pairing.G1Point",
									"name": "a",
									"type": "tuple"
								},
								{
									"components": [
										{
											"internalType": "uint256[2]",
											"name": "X",
											"type": "uint256[2]"
										},
										{
											"internalType": "uint256[2]",
											"name": "Y",
											"type": "uint256[2]"
										}
									],
									"internalType": "struct Pairing.G2Point",
									"name": "b",
									"type": "tuple"
								},
								{
									"components": [
										{
											"internalType": "uint256",
											"name": "X",
											"type": "uint256"
										},
										{
											"internalType": "uint256",
											"name": "Y",
											"type": "uint256"
										}
									],
									"internalType": "struct Pairing.G1Point",
									"name": "c",
									"type": "tuple"
								}
							],
							"internalType": "struct Verifier.Proof",
							"name": "proof",
							"type": "tuple"
						},
						{
							"internalType": "uint256[4]",
							"name": "input",
							"type": "uint256[4]"
						}
					],
					"name": "verifyTx",
					"outputs": [
						{
							"internalType": "bool",
							"name": "r",
							"type": "bool"
						}
					],
					"stateMutability": "view",
					"type": "function"
				}
			],
			"devdoc": {
				"kind": "dev",
				"methods": {},
				"version": 1
			},
			"evm": {
				"assembly": "    /* \"verifier.sol\":6234:10259  contract Verifier {... */\n  mstore(0x40, 0x80)\n  callvalue\n  dup1\n  iszero\n  tag_1\n  jumpi\n  revert(0x00, 0x00)\ntag_1:\n  pop\n  dataSize(sub_0)\n  dup1\n  dataOffset(sub_0)\n  0x00\n  codecopy\n  0x00\n  return\nstop\n\nsub_0: assembly {\n        /* \"verifier.sol\":6234:10259  contract Verifier {... */\n      mstore(0x40, 0x80)\n      callvalue\n      dup1\n      iszero\n      tag_1\n      jumpi\n      revert(0x00, 0x00)\n    tag_1:\n      pop\n      jumpi(tag_2, lt(calldatasize, 0x04))\n      shr(0xe0, calldataload(0x00))\n      dup1\n      0x799afa76\n      eq\n      tag_3\n      jumpi\n    tag_2:\n      revert(0x00, 0x00)\n        /* \"verifier.sol\":9857:10257  function verifyTx(... */\n    tag_3:\n      tag_4\n      0x04\n      dup1\n      calldatasize\n      sub\n      dup2\n      add\n      swap1\n      tag_5\n      swap2\n      swap1\n      tag_6\n      jump\t// in\n    tag_5:\n      tag_7\n      jump\t// in\n    tag_4:\n      mload(0x40)\n      tag_8\n      swap2\n      swap1\n      tag_9\n      jump\t// in\n    tag_8:\n      mload(0x40)\n      dup1\n      swap2\n      sub\n      swap1\n      return\n    tag_7:\n        /* \"verifier.sol\":9960:9966  bool r */\n      0x00\n        /* \"verifier.sol\":9978:10003  uint[] memory inputValues */\n      0x00\n        /* \"verifier.sol\":10017:10018  4 */\n      0x04\n        /* \"verifier.sol\":10006:10019  new uint[](4) */\n      0xffffffffffffffff\n      dup2\n      gt\n      iszero\n      tag_11\n      jumpi\n      tag_12\n      tag_13\n      jump\t// in\n    tag_12:\n    tag_11:\n      mload(0x40)\n      swap1\n      dup1\n      dup3\n      mstore\n      dup1\n      0x20\n      mul\n      0x20\n      add\n      dup3\n      add\n      0x40\n      mstore\n      dup1\n      iszero\n      tag_14\n      jumpi\n      dup2\n      0x20\n      add\n      0x20\n      dup3\n      mul\n      dup1\n      calldatasize\n      dup4\n      calldatacopy\n      dup1\n      dup3\n      add\n      swap2\n      pop\n      pop\n      swap1\n      pop\n    tag_14:\n      pop\n        /* \"verifier.sol\":9978:10019  uint[] memory inputValues = new uint[](4) */\n      swap1\n      pop\n        /* \"verifier.sol\":10042:10048  uint i */\n      0x00\n        /* \"verifier.sol\":10051:10052  0 */\n      0x00\n        /* \"verifier.sol\":10042:10052  uint i = 0 */\n      swap1\n      pop\n        /* \"verifier.sol\":10038:10126  for(uint i = 0; i < input.length; i++){... */\n    tag_15:\n        /* \"verifier.sol\":10058:10070  input.length */\n      0x04\n        /* \"verifier.sol\":10054:10055  i */\n      dup2\n        /* \"verifier.sol\":10054:10070  i < input.length */\n      lt\n        /* \"verifier.sol\":10038:10126  for(uint i = 0; i < input.length; i++){... */\n      iszero\n      tag_16\n      jumpi\n        /* \"verifier.sol\":10107:10112  input */\n      dup4\n        /* \"verifier.sol\":10113:10114  i */\n      dup2\n        /* \"verifier.sol\":10107:10115  input[i] */\n      0x04\n      dup2\n      lt\n      tag_18\n      jumpi\n      tag_19\n      tag_20\n      jump\t// in\n    tag_19:\n    tag_18:\n      0x20\n      mul\n      add\n      mload\n        /* \"verifier.sol\":10090:10101  inputValues */\n      dup3\n        /* \"verifier.sol\":10102:10103  i */\n      dup3\n        /* \"verifier.sol\":10090:10104  inputValues[i] */\n      dup2\n      mload\n      dup2\n      lt\n      tag_21\n      jumpi\n      tag_22\n      tag_20\n      jump\t// in\n    tag_22:\n    tag_21:\n      0x20\n      mul\n      0x20\n      add\n      add\n        /* \"verifier.sol\":10090:10115  inputValues[i] = input[i] */\n      dup2\n      dup2\n      mstore\n      pop\n      pop\n        /* \"verifier.sol\":10072:10075  i++ */\n      dup1\n      dup1\n      0x01\n      add\n      swap2\n      pop\n      pop\n        /* \"verifier.sol\":10038:10126  for(uint i = 0; i < input.length; i++){... */\n      jump(tag_15)\n    tag_16:\n      pop\n        /* \"verifier.sol\":10169:10170  0 */\n      0x00\n        /* \"verifier.sol\":10139:10165  verify(inputValues, proof) */\n      tag_23\n        /* \"verifier.sol\":10146:10157  inputValues */\n      dup3\n        /* \"verifier.sol\":10159:10164  proof */\n      dup7\n        /* \"verifier.sol\":10139:10145  verify */\n      tag_24\n        /* \"verifier.sol\":10139:10165  verify(inputValues, proof) */\n      jump\t// in\n    tag_23:\n        /* \"verifier.sol\":10139:10170  verify(inputValues, proof) == 0 */\n      sub\n        /* \"verifier.sol\":10135:10251  if (verify(inputValues, proof) == 0) {... */\n      tag_25\n      jumpi\n        /* \"verifier.sol\":10193:10197  true */\n      0x01\n        /* \"verifier.sol\":10186:10197  return true */\n      swap2\n      pop\n      pop\n      jump(tag_10)\n        /* \"verifier.sol\":10135:10251  if (verify(inputValues, proof) == 0) {... */\n    tag_25:\n        /* \"verifier.sol\":10235:10240  false */\n      0x00\n        /* \"verifier.sol\":10228:10240  return false */\n      swap2\n      pop\n      pop\n        /* \"verifier.sol\":9857:10257  function verifyTx(... */\n    tag_10:\n      swap3\n      swap2\n      pop\n      pop\n      jump\t// out\n        /* \"verifier.sol\":8931:9852  function verify(uint[] memory input, Proof memory proof) internal view returns (uint) {... */\n    tag_24:\n        /* \"verifier.sol\":9011:9015  uint */\n      0x00\n        /* \"verifier.sol\":9027:9053  uint256 snark_scalar_field */\n      0x00\n        /* \"verifier.sol\":9056:9133  21888242871839275222246405745257275088548364400416034343698204186575808495617 */\n      0x30644e72e131a029b85045b68181585d2833e84879b9709143e1f593f0000001\n        /* \"verifier.sol\":9027:9133  uint256 snark_scalar_field = 21888242871839275222246405745257275088548364400416034343698204186575808495617 */\n      swap1\n      pop\n        /* \"verifier.sol\":9143:9165  VerifyingKey memory vk */\n      0x00\n        /* \"verifier.sol\":9168:9182  verifyingKey() */\n      tag_28\n        /* \"verifier.sol\":9168:9180  verifyingKey */\n      tag_29\n        /* \"verifier.sol\":9168:9182  verifyingKey() */\n      jump\t// in\n    tag_28:\n        /* \"verifier.sol\":9143:9182  VerifyingKey memory vk = verifyingKey() */\n      swap1\n      pop\n        /* \"verifier.sol\":9220:9222  vk */\n      dup1\n        /* \"verifier.sol\":9220:9232  vk.gamma_abc */\n      0x80\n      add\n      mload\n        /* \"verifier.sol\":9220:9239  vk.gamma_abc.length */\n      mload\n        /* \"verifier.sol\":9215:9216  1 */\n      0x01\n        /* \"verifier.sol\":9200:9205  input */\n      dup7\n        /* \"verifier.sol\":9200:9212  input.length */\n      mload\n        /* \"verifier.sol\":9200:9216  input.length + 1 */\n      tag_30\n      swap2\n      swap1\n      tag_31\n      jump\t// in\n    tag_30:\n        /* \"verifier.sol\":9200:9239  input.length + 1 == vk.gamma_abc.length */\n      eq\n        /* \"verifier.sol\":9192:9240  require(input.length + 1 == vk.gamma_abc.length) */\n      tag_32\n      jumpi\n      revert(0x00, 0x00)\n    tag_32:\n        /* \"verifier.sol\":9297:9324  Pairing.G1Point memory vk_x */\n      0x00\n        /* \"verifier.sol\":9327:9348  Pairing.G1Point(0, 0) */\n      mload(0x40)\n      dup1\n      0x40\n      add\n      0x40\n      mstore\n      dup1\n        /* \"verifier.sol\":9343:9344  0 */\n      0x00\n        /* \"verifier.sol\":9327:9348  Pairing.G1Point(0, 0) */\n      dup2\n      mstore\n      0x20\n      add\n        /* \"verifier.sol\":9346:9347  0 */\n      0x00\n        /* \"verifier.sol\":9327:9348  Pairing.G1Point(0, 0) */\n      dup2\n      mstore\n      pop\n        /* \"verifier.sol\":9297:9348  Pairing.G1Point memory vk_x = Pairing.G1Point(0, 0) */\n      swap1\n      pop\n        /* \"verifier.sol\":9363:9369  uint i */\n      0x00\n        /* \"verifier.sol\":9372:9373  0 */\n      0x00\n        /* \"verifier.sol\":9363:9373  uint i = 0 */\n      swap1\n      pop\n        /* \"verifier.sol\":9358:9555  for (uint i = 0; i < input.length; i++) {... */\n    tag_33:\n        /* \"verifier.sol\":9379:9384  input */\n      dup7\n        /* \"verifier.sol\":9379:9391  input.length */\n      mload\n        /* \"verifier.sol\":9375:9376  i */\n      dup2\n        /* \"verifier.sol\":9375:9391  i < input.length */\n      lt\n        /* \"verifier.sol\":9358:9555  for (uint i = 0; i < input.length; i++) {... */\n      iszero\n      tag_34\n      jumpi\n        /* \"verifier.sol\":9431:9449  snark_scalar_field */\n      dup4\n        /* \"verifier.sol\":9420:9425  input */\n      dup8\n        /* \"verifier.sol\":9426:9427  i */\n      dup3\n        /* \"verifier.sol\":9420:9428  input[i] */\n      dup2\n      mload\n      dup2\n      lt\n      tag_36\n      jumpi\n      tag_37\n      tag_20\n      jump\t// in\n    tag_37:\n    tag_36:\n      0x20\n      mul\n      0x20\n      add\n      add\n      mload\n        /* \"verifier.sol\":9420:9449  input[i] < snark_scalar_field */\n      lt\n        /* \"verifier.sol\":9412:9450  require(input[i] < snark_scalar_field) */\n      tag_38\n      jumpi\n      revert(0x00, 0x00)\n    tag_38:\n        /* \"verifier.sol\":9471:9544  Pairing.addition(vk_x, Pairing.scalar_mul(vk.gamma_abc[i + 1], input[i])) */\n      tag_39\n        /* \"verifier.sol\":9488:9492  vk_x */\n      dup3\n        /* \"verifier.sol\":9494:9543  Pairing.scalar_mul(vk.gamma_abc[i + 1], input[i]) */\n      tag_40\n        /* \"verifier.sol\":9513:9515  vk */\n      dup6\n        /* \"verifier.sol\":9513:9525  vk.gamma_abc */\n      0x80\n      add\n      mload\n        /* \"verifier.sol\":9530:9531  1 */\n      0x01\n        /* \"verifier.sol\":9526:9527  i */\n      dup6\n        /* \"verifier.sol\":9526:9531  i + 1 */\n      tag_41\n      swap2\n      swap1\n      tag_31\n      jump\t// in\n    tag_41:\n        /* \"verifier.sol\":9513:9532  vk.gamma_abc[i + 1] */\n      dup2\n      mload\n      dup2\n      lt\n      tag_42\n      jumpi\n      tag_43\n      tag_20\n      jump\t// in\n    tag_43:\n    tag_42:\n      0x20\n      mul\n      0x20\n      add\n      add\n      mload\n        /* \"verifier.sol\":9534:9539  input */\n      dup11\n        /* \"verifier.sol\":9540:9541  i */\n      dup6\n        /* \"verifier.sol\":9534:9542  input[i] */\n      dup2\n      mload\n      dup2\n      lt\n      tag_44\n      jumpi\n      tag_45\n      tag_20\n      jump\t// in\n    tag_45:\n    tag_44:\n      0x20\n      mul\n      0x20\n      add\n      add\n      mload\n        /* \"verifier.sol\":9494:9512  Pairing.scalar_mul */\n      tag_46\n        /* \"verifier.sol\":9494:9543  Pairing.scalar_mul(vk.gamma_abc[i + 1], input[i]) */\n      jump\t// in\n    tag_40:\n        /* \"verifier.sol\":9471:9487  Pairing.addition */\n      tag_47\n        /* \"verifier.sol\":9471:9544  Pairing.addition(vk_x, Pairing.scalar_mul(vk.gamma_abc[i + 1], input[i])) */\n      jump\t// in\n    tag_39:\n        /* \"verifier.sol\":9464:9544  vk_x = Pairing.addition(vk_x, Pairing.scalar_mul(vk.gamma_abc[i + 1], input[i])) */\n      swap2\n      pop\n        /* \"verifier.sol\":9393:9396  i++ */\n      dup1\n      dup1\n      0x01\n      add\n      swap2\n      pop\n      pop\n        /* \"verifier.sol\":9358:9555  for (uint i = 0; i < input.length; i++) {... */\n      jump(tag_33)\n    tag_34:\n      pop\n        /* \"verifier.sol\":9571:9610  Pairing.addition(vk_x, vk.gamma_abc[0]) */\n      tag_48\n        /* \"verifier.sol\":9588:9592  vk_x */\n      dup2\n        /* \"verifier.sol\":9594:9596  vk */\n      dup4\n        /* \"verifier.sol\":9594:9606  vk.gamma_abc */\n      0x80\n      add\n      mload\n        /* \"verifier.sol\":9607:9608  0 */\n      0x00\n        /* \"verifier.sol\":9594:9609  vk.gamma_abc[0] */\n      dup2\n      mload\n      dup2\n      lt\n      tag_49\n      jumpi\n      tag_50\n      tag_20\n      jump\t// in\n    tag_50:\n    tag_49:\n      0x20\n      mul\n      0x20\n      add\n      add\n      mload\n        /* \"verifier.sol\":9571:9587  Pairing.addition */\n      tag_47\n        /* \"verifier.sol\":9571:9610  Pairing.addition(vk_x, vk.gamma_abc[0]) */\n      jump\t// in\n    tag_48:\n        /* \"verifier.sol\":9564:9610  vk_x = Pairing.addition(vk_x, vk.gamma_abc[0]) */\n      swap1\n      pop\n        /* \"verifier.sol\":9624:9817  Pairing.pairingProd4(... */\n      tag_51\n        /* \"verifier.sol\":9659:9664  proof */\n      dup6\n        /* \"verifier.sol\":9659:9666  proof.a */\n      0x00\n      add\n      mload\n        /* \"verifier.sol\":9668:9673  proof */\n      dup7\n        /* \"verifier.sol\":9668:9675  proof.b */\n      0x20\n      add\n      mload\n        /* \"verifier.sol\":9690:9710  Pairing.negate(vk_x) */\n      tag_52\n        /* \"verifier.sol\":9705:9709  vk_x */\n      dup5\n        /* \"verifier.sol\":9690:9704  Pairing.negate */\n      tag_53\n        /* \"verifier.sol\":9690:9710  Pairing.negate(vk_x) */\n      jump\t// in\n    tag_52:\n        /* \"verifier.sol\":9712:9714  vk */\n      dup6\n        /* \"verifier.sol\":9712:9720  vk.gamma */\n      0x40\n      add\n      mload\n        /* \"verifier.sol\":9735:9758  Pairing.negate(proof.c) */\n      tag_54\n        /* \"verifier.sol\":9750:9755  proof */\n      dup11\n        /* \"verifier.sol\":9750:9757  proof.c */\n      0x40\n      add\n      mload\n        /* \"verifier.sol\":9735:9749  Pairing.negate */\n      tag_53\n        /* \"verifier.sol\":9735:9758  Pairing.negate(proof.c) */\n      jump\t// in\n    tag_54:\n        /* \"verifier.sol\":9760:9762  vk */\n      dup8\n        /* \"verifier.sol\":9760:9768  vk.delta */\n      0x60\n      add\n      mload\n        /* \"verifier.sol\":9783:9807  Pairing.negate(vk.alpha) */\n      tag_55\n        /* \"verifier.sol\":9798:9800  vk */\n      dup10\n        /* \"verifier.sol\":9798:9806  vk.alpha */\n      0x00\n      add\n      mload\n        /* \"verifier.sol\":9783:9797  Pairing.negate */\n      tag_53\n        /* \"verifier.sol\":9783:9807  Pairing.negate(vk.alpha) */\n      jump\t// in\n    tag_55:\n        /* \"verifier.sol\":9809:9811  vk */\n      dup10\n        /* \"verifier.sol\":9809:9816  vk.beta */\n      0x20\n      add\n      mload\n        /* \"verifier.sol\":9624:9644  Pairing.pairingProd4 */\n      tag_56\n        /* \"verifier.sol\":9624:9817  Pairing.pairingProd4(... */\n      jump\t// in\n    tag_51:\n        /* \"verifier.sol\":9620:9827  if(!Pairing.pairingProd4(... */\n      tag_57\n      jumpi\n        /* \"verifier.sol\":9826:9827  1 */\n      0x01\n        /* \"verifier.sol\":9819:9827  return 1 */\n      swap4\n      pop\n      pop\n      pop\n      pop\n      jump(tag_27)\n        /* \"verifier.sol\":9620:9827  if(!Pairing.pairingProd4(... */\n    tag_57:\n        /* \"verifier.sol\":9844:9845  0 */\n      0x00\n        /* \"verifier.sol\":9837:9845  return 0 */\n      swap4\n      pop\n      pop\n      pop\n      pop\n        /* \"verifier.sol\":8931:9852  function verify(uint[] memory input, Proof memory proof) internal view returns (uint) {... */\n    tag_27:\n      swap3\n      swap2\n      pop\n      pop\n      jump\t// out\n        /* \"verifier.sol\":6581:8926  function verifyingKey() pure internal returns (VerifyingKey memory vk) {... */\n    tag_29:\n        /* \"verifier.sol\":6628:6650  VerifyingKey memory vk */\n      tag_58\n      tag_59\n      jump\t// in\n    tag_58:\n        /* \"verifier.sol\":6673:6842  Pairing.G1Point(uint256(0x1f7831672127bb363374647d0c87a31ce91a1c685d875a53a5cac600faeded4f), uint256(0x07670423de21a7bdb3578ffb77b415c2ea786e4e502990bd70f5466f912d2852)) */\n      mload(0x40)\n      dup1\n      0x40\n      add\n      0x40\n      mstore\n      dup1\n        /* \"verifier.sol\":6697:6763  0x1f7831672127bb363374647d0c87a31ce91a1c685d875a53a5cac600faeded4f */\n      0x1f7831672127bb363374647d0c87a31ce91a1c685d875a53a5cac600faeded4f\n        /* \"verifier.sol\":6673:6842  Pairing.G1Point(uint256(0x1f7831672127bb363374647d0c87a31ce91a1c685d875a53a5cac600faeded4f), uint256(0x07670423de21a7bdb3578ffb77b415c2ea786e4e502990bd70f5466f912d2852)) */\n      dup2\n      mstore\n      0x20\n      add\n        /* \"verifier.sol\":6774:6840  0x07670423de21a7bdb3578ffb77b415c2ea786e4e502990bd70f5466f912d2852 */\n      0x07670423de21a7bdb3578ffb77b415c2ea786e4e502990bd70f5466f912d2852\n        /* \"verifier.sol\":6673:6842  Pairing.G1Point(uint256(0x1f7831672127bb363374647d0c87a31ce91a1c685d875a53a5cac600faeded4f), uint256(0x07670423de21a7bdb3578ffb77b415c2ea786e4e502990bd70f5466f912d2852)) */\n      dup2\n      mstore\n      pop\n        /* \"verifier.sol\":6662:6664  vk */\n      dup2\n        /* \"verifier.sol\":6662:6670  vk.alpha */\n      0x00\n      add\n        /* \"verifier.sol\":6662:6842  vk.alpha = Pairing.G1Point(uint256(0x1f7831672127bb363374647d0c87a31ce91a1c685d875a53a5cac600faeded4f), uint256(0x07670423de21a7bdb3578ffb77b415c2ea786e4e502990bd70f5466f912d2852)) */\n      dup2\n      swap1\n      mstore\n      pop\n        /* \"verifier.sol\":6862:7189  Pairing.G2Point([uint256(0x159b583d51881a3d382c9a4e3fd9a650135055063b6a6b22721d76173dfbab2d), uint256(0x04139747af7047fe4cf264d25b15235f4ec43bb38e7a688567f031c5e2d920e0)], [uint256(0x1fc4a8d05593db0d87f4f97e5f91ae18430aca05a0cf38232eeae735fe87454b), uint256(0x10ea261691552ffb0a35fed505cd904ac01e01abf590a16ad75e2b8986f8a0a6)]) */\n      mload(0x40)\n      dup1\n      0x40\n      add\n      0x40\n      mstore\n      dup1\n      mload(0x40)\n      dup1\n      0x40\n      add\n      0x40\n      mstore\n      dup1\n        /* \"verifier.sol\":6887:6953  0x159b583d51881a3d382c9a4e3fd9a650135055063b6a6b22721d76173dfbab2d */\n      0x159b583d51881a3d382c9a4e3fd9a650135055063b6a6b22721d76173dfbab2d\n        /* \"verifier.sol\":6862:7189  Pairing.G2Point([uint256(0x159b583d51881a3d382c9a4e3fd9a650135055063b6a6b22721d76173dfbab2d), uint256(0x04139747af7047fe4cf264d25b15235f4ec43bb38e7a688567f031c5e2d920e0)], [uint256(0x1fc4a8d05593db0d87f4f97e5f91ae18430aca05a0cf38232eeae735fe87454b), uint256(0x10ea261691552ffb0a35fed505cd904ac01e01abf590a16ad75e2b8986f8a0a6)]) */\n      dup2\n      mstore\n      0x20\n      add\n        /* \"verifier.sol\":6964:7030  0x04139747af7047fe4cf264d25b15235f4ec43bb38e7a688567f031c5e2d920e0 */\n      0x04139747af7047fe4cf264d25b15235f4ec43bb38e7a688567f031c5e2d920e0\n        /* \"verifier.sol\":6862:7189  Pairing.G2Point([uint256(0x159b583d51881a3d382c9a4e3fd9a650135055063b6a6b22721d76173dfbab2d), uint256(0x04139747af7047fe4cf264d25b15235f4ec43bb38e7a688567f031c5e2d920e0)], [uint256(0x1fc4a8d05593db0d87f4f97e5f91ae18430aca05a0cf38232eeae735fe87454b), uint256(0x10ea261691552ffb0a35fed505cd904ac01e01abf590a16ad75e2b8986f8a0a6)]) */\n      dup2\n      mstore\n      pop\n      dup2\n      mstore\n      0x20\n      add\n      mload(0x40)\n      dup1\n      0x40\n      add\n      0x40\n      mstore\n      dup1\n        /* \"verifier.sol\":7043:7109  0x1fc4a8d05593db0d87f4f97e5f91ae18430aca05a0cf38232eeae735fe87454b */\n      0x1fc4a8d05593db0d87f4f97e5f91ae18430aca05a0cf38232eeae735fe87454b\n        /* \"verifier.sol\":6862:7189  Pairing.G2Point([uint256(0x159b583d51881a3d382c9a4e3fd9a650135055063b6a6b22721d76173dfbab2d), uint256(0x04139747af7047fe4cf264d25b15235f4ec43bb38e7a688567f031c5e2d920e0)], [uint256(0x1fc4a8d05593db0d87f4f97e5f91ae18430aca05a0cf38232eeae735fe87454b), uint256(0x10ea261691552ffb0a35fed505cd904ac01e01abf590a16ad75e2b8986f8a0a6)]) */\n      dup2\n      mstore\n      0x20\n      add\n        /* \"verifier.sol\":7120:7186  0x10ea261691552ffb0a35fed505cd904ac01e01abf590a16ad75e2b8986f8a0a6 */\n      0x10ea261691552ffb0a35fed505cd904ac01e01abf590a16ad75e2b8986f8a0a6\n        /* \"verifier.sol\":6862:7189  Pairing.G2Point([uint256(0x159b583d51881a3d382c9a4e3fd9a650135055063b6a6b22721d76173dfbab2d), uint256(0x04139747af7047fe4cf264d25b15235f4ec43bb38e7a688567f031c5e2d920e0)], [uint256(0x1fc4a8d05593db0d87f4f97e5f91ae18430aca05a0cf38232eeae735fe87454b), uint256(0x10ea261691552ffb0a35fed505cd904ac01e01abf590a16ad75e2b8986f8a0a6)]) */\n      dup2\n      mstore\n      pop\n      dup2\n      mstore\n      pop\n        /* \"verifier.sol\":6852:6854  vk */\n      dup2\n        /* \"verifier.sol\":6852:6859  vk.beta */\n      0x20\n      add\n        /* \"verifier.sol\":6852:7189  vk.beta = Pairing.G2Point([uint256(0x159b583d51881a3d382c9a4e3fd9a650135055063b6a6b22721d76173dfbab2d), uint256(0x04139747af7047fe4cf264d25b15235f4ec43bb38e7a688567f031c5e2d920e0)], [uint256(0x1fc4a8d05593db0d87f4f97e5f91ae18430aca05a0cf38232eeae735fe87454b), uint256(0x10ea261691552ffb0a35fed505cd904ac01e01abf590a16ad75e2b8986f8a0a6)]) */\n      dup2\n      swap1\n      mstore\n      pop\n        /* \"verifier.sol\":7210:7537  Pairing.G2Point([uint256(0x2f4d859e096097fcb241bdb87257410ee80b2524f44733a8add221e92bbb9d48), uint256(0x0216bedc2a1ab164892327794537e324bdb9118bf6ebe21459983e953b550bea)], [uint256(0x2e50d45ceb04b952f390bd9e7c421db774d9cad30be64a8541d221f9cab6fe05), uint256(0x092209f9c9688a024370181dc66215ac222860e409b6aa5bc1f01fcb4baadf70)]) */\n      mload(0x40)\n      dup1\n      0x40\n      add\n      0x40\n      mstore\n      dup1\n      mload(0x40)\n      dup1\n      0x40\n      add\n      0x40\n      mstore\n      dup1\n        /* \"verifier.sol\":7235:7301  0x2f4d859e096097fcb241bdb87257410ee80b2524f44733a8add221e92bbb9d48 */\n      0x2f4d859e096097fcb241bdb87257410ee80b2524f44733a8add221e92bbb9d48\n        /* \"verifier.sol\":7210:7537  Pairing.G2Point([uint256(0x2f4d859e096097fcb241bdb87257410ee80b2524f44733a8add221e92bbb9d48), uint256(0x0216bedc2a1ab164892327794537e324bdb9118bf6ebe21459983e953b550bea)], [uint256(0x2e50d45ceb04b952f390bd9e7c421db774d9cad30be64a8541d221f9cab6fe05), uint256(0x092209f9c9688a024370181dc66215ac222860e409b6aa5bc1f01fcb4baadf70)]) */\n      dup2\n      mstore\n      0x20\n      add\n        /* \"verifier.sol\":7312:7378  0x0216bedc2a1ab164892327794537e324bdb9118bf6ebe21459983e953b550bea */\n      0x0216bedc2a1ab164892327794537e324bdb9118bf6ebe21459983e953b550bea\n        /* \"verifier.sol\":7210:7537  Pairing.G2Point([uint256(0x2f4d859e096097fcb241bdb87257410ee80b2524f44733a8add221e92bbb9d48), uint256(0x0216bedc2a1ab164892327794537e324bdb9118bf6ebe21459983e953b550bea)], [uint256(0x2e50d45ceb04b952f390bd9e7c421db774d9cad30be64a8541d221f9cab6fe05), uint256(0x092209f9c9688a024370181dc66215ac222860e409b6aa5bc1f01fcb4baadf70)]) */\n      dup2\n      mstore\n      pop\n      dup2\n      mstore\n      0x20\n      add\n      mload(0x40)\n      dup1\n      0x40\n      add\n      0x40\n      mstore\n      dup1\n        /* \"verifier.sol\":7391:7457  0x2e50d45ceb04b952f390bd9e7c421db774d9cad30be64a8541d221f9cab6fe05 */\n      0x2e50d45ceb04b952f390bd9e7c421db774d9cad30be64a8541d221f9cab6fe05\n        /* \"verifier.sol\":7210:7537  Pairing.G2Point([uint256(0x2f4d859e096097fcb241bdb87257410ee80b2524f44733a8add221e92bbb9d48), uint256(0x0216bedc2a1ab164892327794537e324bdb9118bf6ebe21459983e953b550bea)], [uint256(0x2e50d45ceb04b952f390bd9e7c421db774d9cad30be64a8541d221f9cab6fe05), uint256(0x092209f9c9688a024370181dc66215ac222860e409b6aa5bc1f01fcb4baadf70)]) */\n      dup2\n      mstore\n      0x20\n      add\n        /* \"verifier.sol\":7468:7534  0x092209f9c9688a024370181dc66215ac222860e409b6aa5bc1f01fcb4baadf70 */\n      0x092209f9c9688a024370181dc66215ac222860e409b6aa5bc1f01fcb4baadf70\n        /* \"verifier.sol\":7210:7537  Pairing.G2Point([uint256(0x2f4d859e096097fcb241bdb87257410ee80b2524f44733a8add221e92bbb9d48), uint256(0x0216bedc2a1ab164892327794537e324bdb9118bf6ebe21459983e953b550bea)], [uint256(0x2e50d45ceb04b952f390bd9e7c421db774d9cad30be64a8541d221f9cab6fe05), uint256(0x092209f9c9688a024370181dc66215ac222860e409b6aa5bc1f01fcb4baadf70)]) */\n      dup2\n      mstore\n      pop\n      dup2\n      mstore\n      pop\n        /* \"verifier.sol\":7199:7201  vk */\n      dup2\n        /* \"verifier.sol\":7199:7207  vk.gamma */\n      0x40\n      add\n        /* \"verifier.sol\":7199:7537  vk.gamma = Pairing.G2Point([uint256(0x2f4d859e096097fcb241bdb87257410ee80b2524f44733a8add221e92bbb9d48), uint256(0x0216bedc2a1ab164892327794537e324bdb9118bf6ebe21459983e953b550bea)], [uint256(0x2e50d45ceb04b952f390bd9e7c421db774d9cad30be64a8541d221f9cab6fe05), uint256(0x092209f9c9688a024370181dc66215ac222860e409b6aa5bc1f01fcb4baadf70)]) */\n      dup2\n      swap1\n      mstore\n      pop\n        /* \"verifier.sol\":7558:7885  Pairing.G2Point([uint256(0x0306d089d5f2bb7c7f566c89ae7621fd4f9a125e4c1634d121f4346d19542b60), uint256(0x29b81308a9e273f8cf524d7ab1a777751fdc2477f3f0921756e6a3d1f6c1996b)], [uint256(0x1d7247377df3c9907bc574eca03edb7ee6be018f01a00897dda62c17d9218575), uint256(0x289c126ce263de6300c6134b4e06559e4023bb41546866016334e23347d44f56)]) */\n      mload(0x40)\n      dup1\n      0x40\n      add\n      0x40\n      mstore\n      dup1\n      mload(0x40)\n      dup1\n      0x40\n      add\n      0x40\n      mstore\n      dup1\n        /* \"verifier.sol\":7583:7649  0x0306d089d5f2bb7c7f566c89ae7621fd4f9a125e4c1634d121f4346d19542b60 */\n      0x0306d089d5f2bb7c7f566c89ae7621fd4f9a125e4c1634d121f4346d19542b60\n        /* \"verifier.sol\":7558:7885  Pairing.G2Point([uint256(0x0306d089d5f2bb7c7f566c89ae7621fd4f9a125e4c1634d121f4346d19542b60), uint256(0x29b81308a9e273f8cf524d7ab1a777751fdc2477f3f0921756e6a3d1f6c1996b)], [uint256(0x1d7247377df3c9907bc574eca03edb7ee6be018f01a00897dda62c17d9218575), uint256(0x289c126ce263de6300c6134b4e06559e4023bb41546866016334e23347d44f56)]) */\n      dup2\n      mstore\n      0x20\n      add\n        /* \"verifier.sol\":7660:7726  0x29b81308a9e273f8cf524d7ab1a777751fdc2477f3f0921756e6a3d1f6c1996b */\n      0x29b81308a9e273f8cf524d7ab1a777751fdc2477f3f0921756e6a3d1f6c1996b\n        /* \"verifier.sol\":7558:7885  Pairing.G2Point([uint256(0x0306d089d5f2bb7c7f566c89ae7621fd4f9a125e4c1634d121f4346d19542b60), uint256(0x29b81308a9e273f8cf524d7ab1a777751fdc2477f3f0921756e6a3d1f6c1996b)], [uint256(0x1d7247377df3c9907bc574eca03edb7ee6be018f01a00897dda62c17d9218575), uint256(0x289c126ce263de6300c6134b4e06559e4023bb41546866016334e23347d44f56)]) */\n      dup2\n      mstore\n      pop\n      dup2\n      mstore\n      0x20\n      add\n      mload(0x40)\n      dup1\n      0x40\n      add\n      0x40\n      mstore\n      dup1\n        /* \"verifier.sol\":7739:7805  0x1d7247377df3c9907bc574eca03edb7ee6be018f01a00897dda62c17d9218575 */\n      0x1d7247377df3c9907bc574eca03edb7ee6be018f01a00897dda62c17d9218575\n        /* \"verifier.sol\":7558:7885  Pairing.G2Point([uint256(0x0306d089d5f2bb7c7f566c89ae7621fd4f9a125e4c1634d121f4346d19542b60), uint256(0x29b81308a9e273f8cf524d7ab1a777751fdc2477f3f0921756e6a3d1f6c1996b)], [uint256(0x1d7247377df3c9907bc574eca03edb7ee6be018f01a00897dda62c17d9218575), uint256(0x289c126ce263de6300c6134b4e06559e4023bb41546866016334e23347d44f56)]) */\n      dup2\n      mstore\n      0x20\n      add\n        /* \"verifier.sol\":7816:7882  0x289c126ce263de6300c6134b4e06559e4023bb41546866016334e23347d44f56 */\n      0x289c126ce263de6300c6134b4e06559e4023bb41546866016334e23347d44f56\n        /* \"verifier.sol\":7558:7885  Pairing.G2Point([uint256(0x0306d089d5f2bb7c7f566c89ae7621fd4f9a125e4c1634d121f4346d19542b60), uint256(0x29b81308a9e273f8cf524d7ab1a777751fdc2477f3f0921756e6a3d1f6c1996b)], [uint256(0x1d7247377df3c9907bc574eca03edb7ee6be018f01a00897dda62c17d9218575), uint256(0x289c126ce263de6300c6134b4e06559e4023bb41546866016334e23347d44f56)]) */\n      dup2\n      mstore\n      pop\n      dup2\n      mstore\n      pop\n        /* \"verifier.sol\":7547:7549  vk */\n      dup2\n        /* \"verifier.sol\":7547:7555  vk.delta */\n      0x60\n      add\n        /* \"verifier.sol\":7547:7885  vk.delta = Pairing.G2Point([uint256(0x0306d089d5f2bb7c7f566c89ae7621fd4f9a125e4c1634d121f4346d19542b60), uint256(0x29b81308a9e273f8cf524d7ab1a777751fdc2477f3f0921756e6a3d1f6c1996b)], [uint256(0x1d7247377df3c9907bc574eca03edb7ee6be018f01a00897dda62c17d9218575), uint256(0x289c126ce263de6300c6134b4e06559e4023bb41546866016334e23347d44f56)]) */\n      dup2\n      swap1\n      mstore\n      pop\n        /* \"verifier.sol\":7932:7933  5 */\n      0x05\n        /* \"verifier.sol\":7910:7934  new Pairing.G1Point[](5) */\n      0xffffffffffffffff\n      dup2\n      gt\n      iszero\n      tag_61\n      jumpi\n      tag_62\n      tag_13\n      jump\t// in\n    tag_62:\n    tag_61:\n      mload(0x40)\n      swap1\n      dup1\n      dup3\n      mstore\n      dup1\n      0x20\n      mul\n      0x20\n      add\n      dup3\n      add\n      0x40\n      mstore\n      dup1\n      iszero\n      tag_63\n      jumpi\n      dup2\n      0x20\n      add\n    tag_64:\n      tag_65\n      tag_66\n      jump\t// in\n    tag_65:\n      dup2\n      mstore\n      0x20\n      add\n      swap1\n      0x01\n      swap1\n      sub\n      swap1\n      dup2\n      tag_64\n      jumpi\n      swap1\n      pop\n    tag_63:\n      pop\n        /* \"verifier.sol\":7895:7897  vk */\n      dup2\n        /* \"verifier.sol\":7895:7907  vk.gamma_abc */\n      0x80\n      add\n        /* \"verifier.sol\":7895:7934  vk.gamma_abc = new Pairing.G1Point[](5) */\n      dup2\n      swap1\n      mstore\n      pop\n        /* \"verifier.sol\":7962:8131  Pairing.G1Point(uint256(0x1ff6515df24714beb6bec648702cd88f0786a266aaf3cee0c4791cff6c53d35e), uint256(0x1e74942a208ab7636752dd9f910b0de565526b80ab4dbdb1942b116d02603e21)) */\n      mload(0x40)\n      dup1\n      0x40\n      add\n      0x40\n      mstore\n      dup1\n        /* \"verifier.sol\":7986:8052  0x1ff6515df24714beb6bec648702cd88f0786a266aaf3cee0c4791cff6c53d35e */\n      0x1ff6515df24714beb6bec648702cd88f0786a266aaf3cee0c4791cff6c53d35e\n        /* \"verifier.sol\":7962:8131  Pairing.G1Point(uint256(0x1ff6515df24714beb6bec648702cd88f0786a266aaf3cee0c4791cff6c53d35e), uint256(0x1e74942a208ab7636752dd9f910b0de565526b80ab4dbdb1942b116d02603e21)) */\n      dup2\n      mstore\n      0x20\n      add\n        /* \"verifier.sol\":8063:8129  0x1e74942a208ab7636752dd9f910b0de565526b80ab4dbdb1942b116d02603e21 */\n      0x1e74942a208ab7636752dd9f910b0de565526b80ab4dbdb1942b116d02603e21\n        /* \"verifier.sol\":7962:8131  Pairing.G1Point(uint256(0x1ff6515df24714beb6bec648702cd88f0786a266aaf3cee0c4791cff6c53d35e), uint256(0x1e74942a208ab7636752dd9f910b0de565526b80ab4dbdb1942b116d02603e21)) */\n      dup2\n      mstore\n      pop\n        /* \"verifier.sol\":7944:7946  vk */\n      dup2\n        /* \"verifier.sol\":7944:7956  vk.gamma_abc */\n      0x80\n      add\n      mload\n        /* \"verifier.sol\":7957:7958  0 */\n      0x00\n        /* \"verifier.sol\":7944:7959  vk.gamma_abc[0] */\n      dup2\n      mload\n      dup2\n      lt\n      tag_67\n      jumpi\n      tag_68\n      tag_20\n      jump\t// in\n    tag_68:\n    tag_67:\n      0x20\n      mul\n      0x20\n      add\n      add\n        /* \"verifier.sol\":7944:8131  vk.gamma_abc[0] = Pairing.G1Point(uint256(0x1ff6515df24714beb6bec648702cd88f0786a266aaf3cee0c4791cff6c53d35e), uint256(0x1e74942a208ab7636752dd9f910b0de565526b80ab4dbdb1942b116d02603e21)) */\n      dup2\n      swap1\n      mstore\n      pop\n        /* \"verifier.sol\":8159:8328  Pairing.G1Point(uint256(0x0a90e62d51d3f72378ddbe28514cdcac96876323092907fcca74f8cf8418b7f0), uint256(0x300713f90ee55c54909db0adabbf98487a86992617e1143f646ed9f460d52ead)) */\n      mload(0x40)\n      dup1\n      0x40\n      add\n      0x40\n      mstore\n      dup1\n        /* \"verifier.sol\":8183:8249  0x0a90e62d51d3f72378ddbe28514cdcac96876323092907fcca74f8cf8418b7f0 */\n      0x0a90e62d51d3f72378ddbe28514cdcac96876323092907fcca74f8cf8418b7f0\n        /* \"verifier.sol\":8159:8328  Pairing.G1Point(uint256(0x0a90e62d51d3f72378ddbe28514cdcac96876323092907fcca74f8cf8418b7f0), uint256(0x300713f90ee55c54909db0adabbf98487a86992617e1143f646ed9f460d52ead)) */\n      dup2\n      mstore\n      0x20\n      add\n        /* \"verifier.sol\":8260:8326  0x300713f90ee55c54909db0adabbf98487a86992617e1143f646ed9f460d52ead */\n      0x300713f90ee55c54909db0adabbf98487a86992617e1143f646ed9f460d52ead\n        /* \"verifier.sol\":8159:8328  Pairing.G1Point(uint256(0x0a90e62d51d3f72378ddbe28514cdcac96876323092907fcca74f8cf8418b7f0), uint256(0x300713f90ee55c54909db0adabbf98487a86992617e1143f646ed9f460d52ead)) */\n      dup2\n      mstore\n      pop\n        /* \"verifier.sol\":8141:8143  vk */\n      dup2\n        /* \"verifier.sol\":8141:8153  vk.gamma_abc */\n      0x80\n      add\n      mload\n        /* \"verifier.sol\":8154:8155  1 */\n      0x01\n        /* \"verifier.sol\":8141:8156  vk.gamma_abc[1] */\n      dup2\n      mload\n      dup2\n      lt\n      tag_69\n      jumpi\n      tag_70\n      tag_20\n      jump\t// in\n    tag_70:\n    tag_69:\n      0x20\n      mul\n      0x20\n      add\n      add\n        /* \"verifier.sol\":8141:8328  vk.gamma_abc[1] = Pairing.G1Point(uint256(0x0a90e62d51d3f72378ddbe28514cdcac96876323092907fcca74f8cf8418b7f0), uint256(0x300713f90ee55c54909db0adabbf98487a86992617e1143f646ed9f460d52ead)) */\n      dup2\n      swap1\n      mstore\n      pop\n        /* \"verifier.sol\":8356:8525  Pairing.G1Point(uint256(0x1654353e47ff9707ab0f55af2ed3ca63994d4c0e6389cb4752844400a13c2905), uint256(0x0c78254a4716a42e8bf12038f2a11f9c66dcdca054caaefe00a540ee0beafde6)) */\n      mload(0x40)\n      dup1\n      0x40\n      add\n      0x40\n      mstore\n      dup1\n        /* \"verifier.sol\":8380:8446  0x1654353e47ff9707ab0f55af2ed3ca63994d4c0e6389cb4752844400a13c2905 */\n      0x1654353e47ff9707ab0f55af2ed3ca63994d4c0e6389cb4752844400a13c2905\n        /* \"verifier.sol\":8356:8525  Pairing.G1Point(uint256(0x1654353e47ff9707ab0f55af2ed3ca63994d4c0e6389cb4752844400a13c2905), uint256(0x0c78254a4716a42e8bf12038f2a11f9c66dcdca054caaefe00a540ee0beafde6)) */\n      dup2\n      mstore\n      0x20\n      add\n        /* \"verifier.sol\":8457:8523  0x0c78254a4716a42e8bf12038f2a11f9c66dcdca054caaefe00a540ee0beafde6 */\n      0x0c78254a4716a42e8bf12038f2a11f9c66dcdca054caaefe00a540ee0beafde6\n        /* \"verifier.sol\":8356:8525  Pairing.G1Point(uint256(0x1654353e47ff9707ab0f55af2ed3ca63994d4c0e6389cb4752844400a13c2905), uint256(0x0c78254a4716a42e8bf12038f2a11f9c66dcdca054caaefe00a540ee0beafde6)) */\n      dup2\n      mstore\n      pop\n        /* \"verifier.sol\":8338:8340  vk */\n      dup2\n        /* \"verifier.sol\":8338:8350  vk.gamma_abc */\n      0x80\n      add\n      mload\n        /* \"verifier.sol\":8351:8352  2 */\n      0x02\n        /* \"verifier.sol\":8338:8353  vk.gamma_abc[2] */\n      dup2\n      mload\n      dup2\n      lt\n      tag_71\n      jumpi\n      tag_72\n      tag_20\n      jump\t// in\n    tag_72:\n    tag_71:\n      0x20\n      mul\n      0x20\n      add\n      add\n        /* \"verifier.sol\":8338:8525  vk.gamma_abc[2] = Pairing.G1Point(uint256(0x1654353e47ff9707ab0f55af2ed3ca63994d4c0e6389cb4752844400a13c2905), uint256(0x0c78254a4716a42e8bf12038f2a11f9c66dcdca054caaefe00a540ee0beafde6)) */\n      dup2\n      swap1\n      mstore\n      pop\n        /* \"verifier.sol\":8553:8722  Pairing.G1Point(uint256(0x1dae2230cc5d0736855c7052a432659f83440d5886f19e6ffe4035d58bb16168), uint256(0x129a45fefad763d1e4ebaa56312122372fcba4cea3b6e81dc6cfe3cefde2026b)) */\n      mload(0x40)\n      dup1\n      0x40\n      add\n      0x40\n      mstore\n      dup1\n        /* \"verifier.sol\":8577:8643  0x1dae2230cc5d0736855c7052a432659f83440d5886f19e6ffe4035d58bb16168 */\n      0x1dae2230cc5d0736855c7052a432659f83440d5886f19e6ffe4035d58bb16168\n        /* \"verifier.sol\":8553:8722  Pairing.G1Point(uint256(0x1dae2230cc5d0736855c7052a432659f83440d5886f19e6ffe4035d58bb16168), uint256(0x129a45fefad763d1e4ebaa56312122372fcba4cea3b6e81dc6cfe3cefde2026b)) */\n      dup2\n      mstore\n      0x20\n      add\n        /* \"verifier.sol\":8654:8720  0x129a45fefad763d1e4ebaa56312122372fcba4cea3b6e81dc6cfe3cefde2026b */\n      0x129a45fefad763d1e4ebaa56312122372fcba4cea3b6e81dc6cfe3cefde2026b\n        /* \"verifier.sol\":8553:8722  Pairing.G1Point(uint256(0x1dae2230cc5d0736855c7052a432659f83440d5886f19e6ffe4035d58bb16168), uint256(0x129a45fefad763d1e4ebaa56312122372fcba4cea3b6e81dc6cfe3cefde2026b)) */\n      dup2\n      mstore\n      pop\n        /* \"verifier.sol\":8535:8537  vk */\n      dup2\n        /* \"verifier.sol\":8535:8547  vk.gamma_abc */\n      0x80\n      add\n      mload\n        /* \"verifier.sol\":8548:8549  3 */\n      0x03\n        /* \"verifier.sol\":8535:8550  vk.gamma_abc[3] */\n      dup2\n      mload\n      dup2\n      lt\n      tag_73\n      jumpi\n      tag_74\n      tag_20\n      jump\t// in\n    tag_74:\n    tag_73:\n      0x20\n      mul\n      0x20\n      add\n      add\n        /* \"verifier.sol\":8535:8722  vk.gamma_abc[3] = Pairing.G1Point(uint256(0x1dae2230cc5d0736855c7052a432659f83440d5886f19e6ffe4035d58bb16168), uint256(0x129a45fefad763d1e4ebaa56312122372fcba4cea3b6e81dc6cfe3cefde2026b)) */\n      dup2\n      swap1\n      mstore\n      pop\n        /* \"verifier.sol\":8750:8919  Pairing.G1Point(uint256(0x06de78707393bd9eb1c9d0a3adc107320bbc90ba7f1985e844b7a9d30970403b), uint256(0x22500a1cb2c7a6db8d193e1a32d1054d581d6bc6a066637ddf2d24e26c56e8ce)) */\n      mload(0x40)\n      dup1\n      0x40\n      add\n      0x40\n      mstore\n      dup1\n        /* \"verifier.sol\":8774:8840  0x06de78707393bd9eb1c9d0a3adc107320bbc90ba7f1985e844b7a9d30970403b */\n      0x06de78707393bd9eb1c9d0a3adc107320bbc90ba7f1985e844b7a9d30970403b\n        /* \"verifier.sol\":8750:8919  Pairing.G1Point(uint256(0x06de78707393bd9eb1c9d0a3adc107320bbc90ba7f1985e844b7a9d30970403b), uint256(0x22500a1cb2c7a6db8d193e1a32d1054d581d6bc6a066637ddf2d24e26c56e8ce)) */\n      dup2\n      mstore\n      0x20\n      add\n        /* \"verifier.sol\":8851:8917  0x22500a1cb2c7a6db8d193e1a32d1054d581d6bc6a066637ddf2d24e26c56e8ce */\n      0x22500a1cb2c7a6db8d193e1a32d1054d581d6bc6a066637ddf2d24e26c56e8ce\n        /* \"verifier.sol\":8750:8919  Pairing.G1Point(uint256(0x06de78707393bd9eb1c9d0a3adc107320bbc90ba7f1985e844b7a9d30970403b), uint256(0x22500a1cb2c7a6db8d193e1a32d1054d581d6bc6a066637ddf2d24e26c56e8ce)) */\n      dup2\n      mstore\n      pop\n        /* \"verifier.sol\":8732:8734  vk */\n      dup2\n        /* \"verifier.sol\":8732:8744  vk.gamma_abc */\n      0x80\n      add\n      mload\n        /* \"verifier.sol\":8745:8746  4 */\n      0x04\n        /* \"verifier.sol\":8732:8747  vk.gamma_abc[4] */\n      dup2\n      mload\n      dup2\n      lt\n      tag_75\n      jumpi\n      tag_76\n      tag_20\n      jump\t// in\n    tag_76:\n    tag_75:\n      0x20\n      mul\n      0x20\n      add\n      add\n        /* \"verifier.sol\":8732:8919  vk.gamma_abc[4] = Pairing.G1Point(uint256(0x06de78707393bd9eb1c9d0a3adc107320bbc90ba7f1985e844b7a9d30970403b), uint256(0x22500a1cb2c7a6db8d193e1a32d1054d581d6bc6a066637ddf2d24e26c56e8ce)) */\n      dup2\n      swap1\n      mstore\n      pop\n        /* \"verifier.sol\":6581:8926  function verifyingKey() pure internal returns (VerifyingKey memory vk) {... */\n      swap1\n      jump\t// out\n        /* \"verifier.sol\":3082:3536  function scalar_mul(G1Point memory p, uint s) internal view returns (G1Point memory r) {... */\n    tag_46:\n        /* \"verifier.sol\":3151:3167  G1Point memory r */\n      tag_77\n      tag_66\n      jump\t// in\n    tag_77:\n        /* \"verifier.sol\":3179:3199  uint[3] memory input */\n      tag_79\n      tag_80\n      jump\t// in\n    tag_79:\n        /* \"verifier.sol\":3220:3221  p */\n      dup4\n        /* \"verifier.sol\":3220:3223  p.X */\n      0x00\n      add\n      mload\n        /* \"verifier.sol\":3209:3214  input */\n      dup2\n        /* \"verifier.sol\":3215:3216  0 */\n      0x00\n        /* \"verifier.sol\":3209:3217  input[0] */\n      0x03\n      dup2\n      lt\n      tag_81\n      jumpi\n      tag_82\n      tag_20\n      jump\t// in\n    tag_82:\n    tag_81:\n      0x20\n      mul\n      add\n        /* \"verifier.sol\":3209:3223  input[0] = p.X */\n      dup2\n      dup2\n      mstore\n      pop\n      pop\n        /* \"verifier.sol\":3244:3245  p */\n      dup4\n        /* \"verifier.sol\":3244:3247  p.Y */\n      0x20\n      add\n      mload\n        /* \"verifier.sol\":3233:3238  input */\n      dup2\n        /* \"verifier.sol\":3239:3240  1 */\n      0x01\n        /* \"verifier.sol\":3233:3241  input[1] */\n      0x03\n      dup2\n      lt\n      tag_83\n      jumpi\n      tag_84\n      tag_20\n      jump\t// in\n    tag_84:\n    tag_83:\n      0x20\n      mul\n      add\n        /* \"verifier.sol\":3233:3247  input[1] = p.Y */\n      dup2\n      dup2\n      mstore\n      pop\n      pop\n        /* \"verifier.sol\":3268:3269  s */\n      dup3\n        /* \"verifier.sol\":3257:3262  input */\n      dup2\n        /* \"verifier.sol\":3263:3264  2 */\n      0x02\n        /* \"verifier.sol\":3257:3265  input[2] */\n      0x03\n      dup2\n      lt\n      tag_85\n      jumpi\n      tag_86\n      tag_20\n      jump\t// in\n    tag_86:\n    tag_85:\n      0x20\n      mul\n      add\n        /* \"verifier.sol\":3257:3269  input[2] = s */\n      dup2\n      dup2\n      mstore\n      pop\n      pop\n        /* \"verifier.sol\":3279:3291  bool success */\n      0x00\n        /* \"verifier.sol\":3383:3387  0x60 */\n      0x60\n        /* \"verifier.sol\":3380:3381  r */\n      dup4\n        /* \"verifier.sol\":3374:3378  0x80 */\n      0x80\n        /* \"verifier.sol\":3367:3372  input */\n      dup5\n        /* \"verifier.sol\":3364:3365  7 */\n      0x07\n        /* \"verifier.sol\":3357:3361  2000 */\n      0x07d0\n        /* \"verifier.sol\":3350:3355  gas() */\n      gas\n        /* \"verifier.sol\":3346:3362  sub(gas(), 2000) */\n      sub\n        /* \"verifier.sol\":3335:3388  staticcall(sub(gas(), 2000), 7, input, 0x80, r, 0x60) */\n      staticcall\n        /* \"verifier.sol\":3324:3388  success := staticcall(sub(gas(), 2000), 7, input, 0x80, r, 0x60) */\n      swap1\n      pop\n        /* \"verifier.sol\":3465:3472  success */\n      dup1\n        /* \"verifier.sol\":3478:3479  0 */\n      0x00\n        /* \"verifier.sol\":3473:3493  case 0 { invalid() } */\n      dup2\n      sub\n        /* \"verifier.sol\":3458:3493  switch success case 0 { invalid() } */\n      tag_87\n        /* \"verifier.sol\":3473:3493  case 0 { invalid() } */\n      jumpi\n        /* \"verifier.sol\":3482:3491  invalid() */\n      invalid\n        /* \"verifier.sol\":3458:3493  switch success case 0 { invalid() } */\n    tag_87:\n      pop\n        /* \"verifier.sol\":3521:3528  success */\n      dup1\n        /* \"verifier.sol\":3512:3529  require (success) */\n      tag_89\n      jumpi\n      revert(0x00, 0x00)\n    tag_89:\n        /* \"verifier.sol\":3169:3536  {... */\n      pop\n      pop\n        /* \"verifier.sol\":3082:3536  function scalar_mul(G1Point memory p, uint s) internal view returns (G1Point memory r) {... */\n      swap3\n      swap2\n      pop\n      pop\n      jump\t// out\n        /* \"verifier.sol\":2432:2925  function addition(G1Point memory p1, G1Point memory p2) internal view returns (G1Point memory r) {... */\n    tag_47:\n        /* \"verifier.sol\":2511:2527  G1Point memory r */\n      tag_90\n      tag_66\n      jump\t// in\n    tag_90:\n        /* \"verifier.sol\":2539:2559  uint[4] memory input */\n      tag_92\n      tag_93\n      jump\t// in\n    tag_92:\n        /* \"verifier.sol\":2580:2582  p1 */\n      dup4\n        /* \"verifier.sol\":2580:2584  p1.X */\n      0x00\n      add\n      mload\n        /* \"verifier.sol\":2569:2574  input */\n      dup2\n        /* \"verifier.sol\":2575:2576  0 */\n      0x00\n        /* \"verifier.sol\":2569:2577  input[0] */\n      0x04\n      dup2\n      lt\n      tag_94\n      jumpi\n      tag_95\n      tag_20\n      jump\t// in\n    tag_95:\n    tag_94:\n      0x20\n      mul\n      add\n        /* \"verifier.sol\":2569:2584  input[0] = p1.X */\n      dup2\n      dup2\n      mstore\n      pop\n      pop\n        /* \"verifier.sol\":2605:2607  p1 */\n      dup4\n        /* \"verifier.sol\":2605:2609  p1.Y */\n      0x20\n      add\n      mload\n        /* \"verifier.sol\":2594:2599  input */\n      dup2\n        /* \"verifier.sol\":2600:2601  1 */\n      0x01\n        /* \"verifier.sol\":2594:2602  input[1] */\n      0x04\n      dup2\n      lt\n      tag_96\n      jumpi\n      tag_97\n      tag_20\n      jump\t// in\n    tag_97:\n    tag_96:\n      0x20\n      mul\n      add\n        /* \"verifier.sol\":2594:2609  input[1] = p1.Y */\n      dup2\n      dup2\n      mstore\n      pop\n      pop\n        /* \"verifier.sol\":2630:2632  p2 */\n      dup3\n        /* \"verifier.sol\":2630:2634  p2.X */\n      0x00\n      add\n      mload\n        /* \"verifier.sol\":2619:2624  input */\n      dup2\n        /* \"verifier.sol\":2625:2626  2 */\n      0x02\n        /* \"verifier.sol\":2619:2627  input[2] */\n      0x04\n      dup2\n      lt\n      tag_98\n      jumpi\n      tag_99\n      tag_20\n      jump\t// in\n    tag_99:\n    tag_98:\n      0x20\n      mul\n      add\n        /* \"verifier.sol\":2619:2634  input[2] = p2.X */\n      dup2\n      dup2\n      mstore\n      pop\n      pop\n        /* \"verifier.sol\":2655:2657  p2 */\n      dup3\n        /* \"verifier.sol\":2655:2659  p2.Y */\n      0x20\n      add\n      mload\n        /* \"verifier.sol\":2644:2649  input */\n      dup2\n        /* \"verifier.sol\":2650:2651  3 */\n      0x03\n        /* \"verifier.sol\":2644:2652  input[3] */\n      0x04\n      dup2\n      lt\n      tag_100\n      jumpi\n      tag_101\n      tag_20\n      jump\t// in\n    tag_101:\n    tag_100:\n      0x20\n      mul\n      add\n        /* \"verifier.sol\":2644:2659  input[3] = p2.Y */\n      dup2\n      dup2\n      mstore\n      pop\n      pop\n        /* \"verifier.sol\":2669:2681  bool success */\n      0x00\n        /* \"verifier.sol\":2773:2777  0x60 */\n      0x60\n        /* \"verifier.sol\":2770:2771  r */\n      dup4\n        /* \"verifier.sol\":2764:2768  0xc0 */\n      0xc0\n        /* \"verifier.sol\":2757:2762  input */\n      dup5\n        /* \"verifier.sol\":2754:2755  6 */\n      0x06\n        /* \"verifier.sol\":2747:2751  2000 */\n      0x07d0\n        /* \"verifier.sol\":2740:2745  gas() */\n      gas\n        /* \"verifier.sol\":2736:2752  sub(gas(), 2000) */\n      sub\n        /* \"verifier.sol\":2725:2778  staticcall(sub(gas(), 2000), 6, input, 0xc0, r, 0x60) */\n      staticcall\n        /* \"verifier.sol\":2714:2778  success := staticcall(sub(gas(), 2000), 6, input, 0xc0, r, 0x60) */\n      swap1\n      pop\n        /* \"verifier.sol\":2855:2862  success */\n      dup1\n        /* \"verifier.sol\":2868:2869  0 */\n      0x00\n        /* \"verifier.sol\":2863:2883  case 0 { invalid() } */\n      dup2\n      sub\n        /* \"verifier.sol\":2848:2883  switch success case 0 { invalid() } */\n      tag_102\n        /* \"verifier.sol\":2863:2883  case 0 { invalid() } */\n      jumpi\n        /* \"verifier.sol\":2872:2881  invalid() */\n      invalid\n        /* \"verifier.sol\":2848:2883  switch success case 0 { invalid() } */\n    tag_102:\n      pop\n        /* \"verifier.sol\":2910:2917  success */\n      dup1\n        /* \"verifier.sol\":2902:2918  require(success) */\n      tag_104\n      jumpi\n      revert(0x00, 0x00)\n    tag_104:\n        /* \"verifier.sol\":2529:2925  {... */\n      pop\n      pop\n        /* \"verifier.sol\":2432:2925  function addition(G1Point memory p1, G1Point memory p2) internal view returns (G1Point memory r) {... */\n      swap3\n      swap2\n      pop\n      pop\n      jump\t// out\n        /* \"verifier.sol\":2041:2381  function negate(G1Point memory p) pure internal returns (G1Point memory) {... */\n    tag_53:\n        /* \"verifier.sol\":2098:2112  G1Point memory */\n      tag_105\n      tag_66\n      jump\t// in\n    tag_105:\n        /* \"verifier.sol\":2176:2182  uint q */\n      0x00\n        /* \"verifier.sol\":2185:2262  21888242871839275222246405745257275088696311157297823662689037894645226208583 */\n      0x30644e72e131a029b85045b68181585d97816a916871ca8d3c208c16d87cfd47\n        /* \"verifier.sol\":2176:2262  uint q = 21888242871839275222246405745257275088696311157297823662689037894645226208583 */\n      swap1\n      pop\n        /* \"verifier.sol\":2283:2284  0 */\n      0x00\n        /* \"verifier.sol\":2276:2277  p */\n      dup4\n        /* \"verifier.sol\":2276:2279  p.X */\n      0x00\n      add\n      mload\n        /* \"verifier.sol\":2276:2284  p.X == 0 */\n      eq\n        /* \"verifier.sol\":2276:2296  p.X == 0 && p.Y == 0 */\n      dup1\n      iszero\n      tag_107\n      jumpi\n      pop\n        /* \"verifier.sol\":2295:2296  0 */\n      0x00\n        /* \"verifier.sol\":2288:2289  p */\n      dup4\n        /* \"verifier.sol\":2288:2291  p.Y */\n      0x20\n      add\n      mload\n        /* \"verifier.sol\":2288:2296  p.Y == 0 */\n      eq\n        /* \"verifier.sol\":2276:2296  p.X == 0 && p.Y == 0 */\n    tag_107:\n        /* \"verifier.sol\":2272:2330  if (p.X == 0 && p.Y == 0)... */\n      iszero\n      tag_108\n      jumpi\n        /* \"verifier.sol\":2317:2330  G1Point(0, 0) */\n      mload(0x40)\n      dup1\n      0x40\n      add\n      0x40\n      mstore\n      dup1\n        /* \"verifier.sol\":2325:2326  0 */\n      0x00\n        /* \"verifier.sol\":2317:2330  G1Point(0, 0) */\n      dup2\n      mstore\n      0x20\n      add\n        /* \"verifier.sol\":2328:2329  0 */\n      0x00\n        /* \"verifier.sol\":2317:2330  G1Point(0, 0) */\n      dup2\n      mstore\n      pop\n        /* \"verifier.sol\":2310:2330  return G1Point(0, 0) */\n      swap2\n      pop\n      pop\n      jump(tag_106)\n        /* \"verifier.sol\":2272:2330  if (p.X == 0 && p.Y == 0)... */\n    tag_108:\n        /* \"verifier.sol\":2347:2374  G1Point(p.X, q - (p.Y % q)) */\n      mload(0x40)\n      dup1\n      0x40\n      add\n      0x40\n      mstore\n      dup1\n        /* \"verifier.sol\":2355:2356  p */\n      dup5\n        /* \"verifier.sol\":2355:2358  p.X */\n      0x00\n      add\n      mload\n        /* \"verifier.sol\":2347:2374  G1Point(p.X, q - (p.Y % q)) */\n      dup2\n      mstore\n      0x20\n      add\n        /* \"verifier.sol\":2371:2372  q */\n      dup3\n        /* \"verifier.sol\":2365:2366  p */\n      dup6\n        /* \"verifier.sol\":2365:2368  p.Y */\n      0x20\n      add\n      mload\n        /* \"verifier.sol\":2365:2372  p.Y % q */\n      tag_109\n      swap2\n      swap1\n      tag_110\n      jump\t// in\n    tag_109:\n        /* \"verifier.sol\":2360:2361  q */\n      dup4\n        /* \"verifier.sol\":2360:2373  q - (p.Y % q) */\n      tag_111\n      swap2\n      swap1\n      tag_112\n      jump\t// in\n    tag_111:\n        /* \"verifier.sol\":2347:2374  G1Point(p.X, q - (p.Y % q)) */\n      dup2\n      mstore\n      pop\n        /* \"verifier.sol\":2340:2374  return G1Point(p.X, q - (p.Y % q)) */\n      swap2\n      pop\n      pop\n        /* \"verifier.sol\":2041:2381  function negate(G1Point memory p) pure internal returns (G1Point memory) {... */\n    tag_106:\n      swap2\n      swap1\n      pop\n      jump\t// out\n        /* \"verifier.sol\":5678:6230  function pairingProd4(... */\n    tag_56:\n        /* \"verifier.sol\":5929:5933  bool */\n      0x00\n        /* \"verifier.sol\":5945:5964  G1Point[] memory p1 */\n      0x00\n        /* \"verifier.sol\":5981:5982  4 */\n      0x04\n        /* \"verifier.sol\":5967:5983  new G1Point[](4) */\n      0xffffffffffffffff\n      dup2\n      gt\n      iszero\n      tag_114\n      jumpi\n      tag_115\n      tag_13\n      jump\t// in\n    tag_115:\n    tag_114:\n      mload(0x40)\n      swap1\n      dup1\n      dup3\n      mstore\n      dup1\n      0x20\n      mul\n      0x20\n      add\n      dup3\n      add\n      0x40\n      mstore\n      dup1\n      iszero\n      tag_116\n      jumpi\n      dup2\n      0x20\n      add\n    tag_117:\n      tag_118\n      tag_66\n      jump\t// in\n    tag_118:\n      dup2\n      mstore\n      0x20\n      add\n      swap1\n      0x01\n      swap1\n      sub\n      swap1\n      dup2\n      tag_117\n      jumpi\n      swap1\n      pop\n    tag_116:\n      pop\n        /* \"verifier.sol\":5945:5983  G1Point[] memory p1 = new G1Point[](4) */\n      swap1\n      pop\n        /* \"verifier.sol\":5993:6012  G2Point[] memory p2 */\n      0x00\n        /* \"verifier.sol\":6029:6030  4 */\n      0x04\n        /* \"verifier.sol\":6015:6031  new G2Point[](4) */\n      0xffffffffffffffff\n      dup2\n      gt\n      iszero\n      tag_119\n      jumpi\n      tag_120\n      tag_13\n      jump\t// in\n    tag_120:\n    tag_119:\n      mload(0x40)\n      swap1\n      dup1\n      dup3\n      mstore\n      dup1\n      0x20\n      mul\n      0x20\n      add\n      dup3\n      add\n      0x40\n      mstore\n      dup1\n      iszero\n      tag_121\n      jumpi\n      dup2\n      0x20\n      add\n    tag_122:\n      tag_123\n      tag_124\n      jump\t// in\n    tag_123:\n      dup2\n      mstore\n      0x20\n      add\n      swap1\n      0x01\n      swap1\n      sub\n      swap1\n      dup2\n      tag_122\n      jumpi\n      swap1\n      pop\n    tag_121:\n      pop\n        /* \"verifier.sol\":5993:6031  G2Point[] memory p2 = new G2Point[](4) */\n      swap1\n      pop\n        /* \"verifier.sol\":6049:6051  a1 */\n      dup11\n        /* \"verifier.sol\":6041:6043  p1 */\n      dup3\n        /* \"verifier.sol\":6044:6045  0 */\n      0x00\n        /* \"verifier.sol\":6041:6046  p1[0] */\n      dup2\n      mload\n      dup2\n      lt\n      tag_125\n      jumpi\n      tag_126\n      tag_20\n      jump\t// in\n    tag_126:\n    tag_125:\n      0x20\n      mul\n      0x20\n      add\n      add\n        /* \"verifier.sol\":6041:6051  p1[0] = a1 */\n      dup2\n      swap1\n      mstore\n      pop\n        /* \"verifier.sol\":6069:6071  b1 */\n      dup9\n        /* \"verifier.sol\":6061:6063  p1 */\n      dup3\n        /* \"verifier.sol\":6064:6065  1 */\n      0x01\n        /* \"verifier.sol\":6061:6066  p1[1] */\n      dup2\n      mload\n      dup2\n      lt\n      tag_127\n      jumpi\n      tag_128\n      tag_20\n      jump\t// in\n    tag_128:\n    tag_127:\n      0x20\n      mul\n      0x20\n      add\n      add\n        /* \"verifier.sol\":6061:6071  p1[1] = b1 */\n      dup2\n      swap1\n      mstore\n      pop\n        /* \"verifier.sol\":6089:6091  c1 */\n      dup7\n        /* \"verifier.sol\":6081:6083  p1 */\n      dup3\n        /* \"verifier.sol\":6084:6085  2 */\n      0x02\n        /* \"verifier.sol\":6081:6086  p1[2] */\n      dup2\n      mload\n      dup2\n      lt\n      tag_129\n      jumpi\n      tag_130\n      tag_20\n      jump\t// in\n    tag_130:\n    tag_129:\n      0x20\n      mul\n      0x20\n      add\n      add\n        /* \"verifier.sol\":6081:6091  p1[2] = c1 */\n      dup2\n      swap1\n      mstore\n      pop\n        /* \"verifier.sol\":6109:6111  d1 */\n      dup5\n        /* \"verifier.sol\":6101:6103  p1 */\n      dup3\n        /* \"verifier.sol\":6104:6105  3 */\n      0x03\n        /* \"verifier.sol\":6101:6106  p1[3] */\n      dup2\n      mload\n      dup2\n      lt\n      tag_131\n      jumpi\n      tag_132\n      tag_20\n      jump\t// in\n    tag_132:\n    tag_131:\n      0x20\n      mul\n      0x20\n      add\n      add\n        /* \"verifier.sol\":6101:6111  p1[3] = d1 */\n      dup2\n      swap1\n      mstore\n      pop\n        /* \"verifier.sol\":6129:6131  a2 */\n      dup10\n        /* \"verifier.sol\":6121:6123  p2 */\n      dup2\n        /* \"verifier.sol\":6124:6125  0 */\n      0x00\n        /* \"verifier.sol\":6121:6126  p2[0] */\n      dup2\n      mload\n      dup2\n      lt\n      tag_133\n      jumpi\n      tag_134\n      tag_20\n      jump\t// in\n    tag_134:\n    tag_133:\n      0x20\n      mul\n      0x20\n      add\n      add\n        /* \"verifier.sol\":6121:6131  p2[0] = a2 */\n      dup2\n      swap1\n      mstore\n      pop\n        /* \"verifier.sol\":6149:6151  b2 */\n      dup8\n        /* \"verifier.sol\":6141:6143  p2 */\n      dup2\n        /* \"verifier.sol\":6144:6145  1 */\n      0x01\n        /* \"verifier.sol\":6141:6146  p2[1] */\n      dup2\n      mload\n      dup2\n      lt\n      tag_135\n      jumpi\n      tag_136\n      tag_20\n      jump\t// in\n    tag_136:\n    tag_135:\n      0x20\n      mul\n      0x20\n      add\n      add\n        /* \"verifier.sol\":6141:6151  p2[1] = b2 */\n      dup2\n      swap1\n      mstore\n      pop\n        /* \"verifier.sol\":6169:6171  c2 */\n      dup6\n        /* \"verifier.sol\":6161:6163  p2 */\n      dup2\n        /* \"verifier.sol\":6164:6165  2 */\n      0x02\n        /* \"verifier.sol\":6161:6166  p2[2] */\n      dup2\n      mload\n      dup2\n      lt\n      tag_137\n      jumpi\n      tag_138\n      tag_20\n      jump\t// in\n    tag_138:\n    tag_137:\n      0x20\n      mul\n      0x20\n      add\n      add\n        /* \"verifier.sol\":6161:6171  p2[2] = c2 */\n      dup2\n      swap1\n      mstore\n      pop\n        /* \"verifier.sol\":6189:6191  d2 */\n      dup4\n        /* \"verifier.sol\":6181:6183  p2 */\n      dup2\n        /* \"verifier.sol\":6184:6185  3 */\n      0x03\n        /* \"verifier.sol\":6181:6186  p2[3] */\n      dup2\n      mload\n      dup2\n      lt\n      tag_139\n      jumpi\n      tag_140\n      tag_20\n      jump\t// in\n    tag_140:\n    tag_139:\n      0x20\n      mul\n      0x20\n      add\n      add\n        /* \"verifier.sol\":6181:6191  p2[3] = d2 */\n      dup2\n      swap1\n      mstore\n      pop\n        /* \"verifier.sol\":6208:6223  pairing(p1, p2) */\n      tag_141\n        /* \"verifier.sol\":6216:6218  p1 */\n      dup3\n        /* \"verifier.sol\":6220:6222  p2 */\n      dup3\n        /* \"verifier.sol\":6208:6215  pairing */\n      tag_142\n        /* \"verifier.sol\":6208:6223  pairing(p1, p2) */\n      jump\t// in\n    tag_141:\n        /* \"verifier.sol\":6201:6223  return pairing(p1, p2) */\n      swap3\n      pop\n      pop\n      pop\n        /* \"verifier.sol\":5678:6230  function pairingProd4(... */\n      swap9\n      swap8\n      pop\n      pop\n      pop\n      pop\n      pop\n      pop\n      pop\n      pop\n      jump\t// out\n        /* \"verifier.sol\":3747:4670  function pairing(G1Point[] memory p1, G2Point[] memory p2) internal view returns (bool) {... */\n    tag_142:\n        /* \"verifier.sol\":3829:3833  bool */\n      0x00\n        /* \"verifier.sol\":3866:3868  p2 */\n      dup2\n        /* \"verifier.sol\":3866:3875  p2.length */\n      mload\n        /* \"verifier.sol\":3853:3855  p1 */\n      dup4\n        /* \"verifier.sol\":3853:3862  p1.length */\n      mload\n        /* \"verifier.sol\":3853:3875  p1.length == p2.length */\n      eq\n        /* \"verifier.sol\":3845:3876  require(p1.length == p2.length) */\n      tag_144\n      jumpi\n      revert(0x00, 0x00)\n    tag_144:\n        /* \"verifier.sol\":3886:3899  uint elements */\n      0x00\n        /* \"verifier.sol\":3902:3904  p1 */\n      dup4\n        /* \"verifier.sol\":3902:3911  p1.length */\n      mload\n        /* \"verifier.sol\":3886:3911  uint elements = p1.length */\n      swap1\n      pop\n        /* \"verifier.sol\":3921:3935  uint inputSize */\n      0x00\n        /* \"verifier.sol\":3949:3950  6 */\n      0x06\n        /* \"verifier.sol\":3938:3946  elements */\n      dup3\n        /* \"verifier.sol\":3938:3950  elements * 6 */\n      tag_145\n      swap2\n      swap1\n      tag_146\n      jump\t// in\n    tag_145:\n        /* \"verifier.sol\":3921:3950  uint inputSize = elements * 6 */\n      swap1\n      pop\n        /* \"verifier.sol\":3960:3979  uint[] memory input */\n      0x00\n        /* \"verifier.sol\":3993:4002  inputSize */\n      dup2\n        /* \"verifier.sol\":3982:4003  new uint[](inputSize) */\n      0xffffffffffffffff\n      dup2\n      gt\n      iszero\n      tag_147\n      jumpi\n      tag_148\n      tag_13\n      jump\t// in\n    tag_148:\n    tag_147:\n      mload(0x40)\n      swap1\n      dup1\n      dup3\n      mstore\n      dup1\n      0x20\n      mul\n      0x20\n      add\n      dup3\n      add\n      0x40\n      mstore\n      dup1\n      iszero\n      tag_149\n      jumpi\n      dup2\n      0x20\n      add\n      0x20\n      dup3\n      mul\n      dup1\n      calldatasize\n      dup4\n      calldatacopy\n      dup1\n      dup3\n      add\n      swap2\n      pop\n      pop\n      swap1\n      pop\n    tag_149:\n      pop\n        /* \"verifier.sol\":3960:4003  uint[] memory input = new uint[](inputSize) */\n      swap1\n      pop\n        /* \"verifier.sol\":4018:4024  uint i */\n      0x00\n        /* \"verifier.sol\":4027:4028  0 */\n      0x00\n        /* \"verifier.sol\":4018:4028  uint i = 0 */\n      swap1\n      pop\n        /* \"verifier.sol\":4013:4320  for (uint i = 0; i < elements; i++)... */\n    tag_150:\n        /* \"verifier.sol\":4034:4042  elements */\n      dup4\n        /* \"verifier.sol\":4030:4031  i */\n      dup2\n        /* \"verifier.sol\":4030:4042  i < elements */\n      lt\n        /* \"verifier.sol\":4013:4320  for (uint i = 0; i < elements; i++)... */\n      iszero\n      tag_151\n      jumpi\n        /* \"verifier.sol\":4090:4092  p1 */\n      dup7\n        /* \"verifier.sol\":4093:4094  i */\n      dup2\n        /* \"verifier.sol\":4090:4095  p1[i] */\n      dup2\n      mload\n      dup2\n      lt\n      tag_153\n      jumpi\n      tag_154\n      tag_20\n      jump\t// in\n    tag_154:\n    tag_153:\n      0x20\n      mul\n      0x20\n      add\n      add\n      mload\n        /* \"verifier.sol\":4090:4097  p1[i].X */\n      0x00\n      add\n      mload\n        /* \"verifier.sol\":4071:4076  input */\n      dup3\n        /* \"verifier.sol\":4085:4086  0 */\n      0x00\n        /* \"verifier.sol\":4081:4082  6 */\n      0x06\n        /* \"verifier.sol\":4077:4078  i */\n      dup5\n        /* \"verifier.sol\":4077:4082  i * 6 */\n      tag_155\n      swap2\n      swap1\n      tag_146\n      jump\t// in\n    tag_155:\n        /* \"verifier.sol\":4077:4086  i * 6 + 0 */\n      tag_156\n      swap2\n      swap1\n      tag_31\n      jump\t// in\n    tag_156:\n        /* \"verifier.sol\":4071:4087  input[i * 6 + 0] */\n      dup2\n      mload\n      dup2\n      lt\n      tag_157\n      jumpi\n      tag_158\n      tag_20\n      jump\t// in\n    tag_158:\n    tag_157:\n      0x20\n      mul\n      0x20\n      add\n      add\n        /* \"verifier.sol\":4071:4097  input[i * 6 + 0] = p1[i].X */\n      dup2\n      dup2\n      mstore\n      pop\n      pop\n        /* \"verifier.sol\":4130:4132  p1 */\n      dup7\n        /* \"verifier.sol\":4133:4134  i */\n      dup2\n        /* \"verifier.sol\":4130:4135  p1[i] */\n      dup2\n      mload\n      dup2\n      lt\n      tag_159\n      jumpi\n      tag_160\n      tag_20\n      jump\t// in\n    tag_160:\n    tag_159:\n      0x20\n      mul\n      0x20\n      add\n      add\n      mload\n        /* \"verifier.sol\":4130:4137  p1[i].Y */\n      0x20\n      add\n      mload\n        /* \"verifier.sol\":4111:4116  input */\n      dup3\n        /* \"verifier.sol\":4125:4126  1 */\n      0x01\n        /* \"verifier.sol\":4121:4122  6 */\n      0x06\n        /* \"verifier.sol\":4117:4118  i */\n      dup5\n        /* \"verifier.sol\":4117:4122  i * 6 */\n      tag_161\n      swap2\n      swap1\n      tag_146\n      jump\t// in\n    tag_161:\n        /* \"verifier.sol\":4117:4126  i * 6 + 1 */\n      tag_162\n      swap2\n      swap1\n      tag_31\n      jump\t// in\n    tag_162:\n        /* \"verifier.sol\":4111:4127  input[i * 6 + 1] */\n      dup2\n      mload\n      dup2\n      lt\n      tag_163\n      jumpi\n      tag_164\n      tag_20\n      jump\t// in\n    tag_164:\n    tag_163:\n      0x20\n      mul\n      0x20\n      add\n      add\n        /* \"verifier.sol\":4111:4137  input[i * 6 + 1] = p1[i].Y */\n      dup2\n      dup2\n      mstore\n      pop\n      pop\n        /* \"verifier.sol\":4170:4172  p2 */\n      dup6\n        /* \"verifier.sol\":4173:4174  i */\n      dup2\n        /* \"verifier.sol\":4170:4175  p2[i] */\n      dup2\n      mload\n      dup2\n      lt\n      tag_165\n      jumpi\n      tag_166\n      tag_20\n      jump\t// in\n    tag_166:\n    tag_165:\n      0x20\n      mul\n      0x20\n      add\n      add\n      mload\n        /* \"verifier.sol\":4170:4177  p2[i].X */\n      0x00\n      add\n      mload\n        /* \"verifier.sol\":4178:4179  1 */\n      0x01\n        /* \"verifier.sol\":4170:4180  p2[i].X[1] */\n      0x02\n      dup2\n      lt\n      tag_167\n      jumpi\n      tag_168\n      tag_20\n      jump\t// in\n    tag_168:\n    tag_167:\n      0x20\n      mul\n      add\n      mload\n        /* \"verifier.sol\":4151:4156  input */\n      dup3\n        /* \"verifier.sol\":4165:4166  2 */\n      0x02\n        /* \"verifier.sol\":4161:4162  6 */\n      0x06\n        /* \"verifier.sol\":4157:4158  i */\n      dup5\n        /* \"verifier.sol\":4157:4162  i * 6 */\n      tag_169\n      swap2\n      swap1\n      tag_146\n      jump\t// in\n    tag_169:\n        /* \"verifier.sol\":4157:4166  i * 6 + 2 */\n      tag_170\n      swap2\n      swap1\n      tag_31\n      jump\t// in\n    tag_170:\n        /* \"verifier.sol\":4151:4167  input[i * 6 + 2] */\n      dup2\n      mload\n      dup2\n      lt\n      tag_171\n      jumpi\n      tag_172\n      tag_20\n      jump\t// in\n    tag_172:\n    tag_171:\n      0x20\n      mul\n      0x20\n      add\n      add\n        /* \"verifier.sol\":4151:4180  input[i * 6 + 2] = p2[i].X[1] */\n      dup2\n      dup2\n      mstore\n      pop\n      pop\n        /* \"verifier.sol\":4213:4215  p2 */\n      dup6\n        /* \"verifier.sol\":4216:4217  i */\n      dup2\n        /* \"verifier.sol\":4213:4218  p2[i] */\n      dup2\n      mload\n      dup2\n      lt\n      tag_173\n      jumpi\n      tag_174\n      tag_20\n      jump\t// in\n    tag_174:\n    tag_173:\n      0x20\n      mul\n      0x20\n      add\n      add\n      mload\n        /* \"verifier.sol\":4213:4220  p2[i].X */\n      0x00\n      add\n      mload\n        /* \"verifier.sol\":4221:4222  0 */\n      0x00\n        /* \"verifier.sol\":4213:4223  p2[i].X[0] */\n      0x02\n      dup2\n      lt\n      tag_175\n      jumpi\n      tag_176\n      tag_20\n      jump\t// in\n    tag_176:\n    tag_175:\n      0x20\n      mul\n      add\n      mload\n        /* \"verifier.sol\":4194:4199  input */\n      dup3\n        /* \"verifier.sol\":4208:4209  3 */\n      0x03\n        /* \"verifier.sol\":4204:4205  6 */\n      0x06\n        /* \"verifier.sol\":4200:4201  i */\n      dup5\n        /* \"verifier.sol\":4200:4205  i * 6 */\n      tag_177\n      swap2\n      swap1\n      tag_146\n      jump\t// in\n    tag_177:\n        /* \"verifier.sol\":4200:4209  i * 6 + 3 */\n      tag_178\n      swap2\n      swap1\n      tag_31\n      jump\t// in\n    tag_178:\n        /* \"verifier.sol\":4194:4210  input[i * 6 + 3] */\n      dup2\n      mload\n      dup2\n      lt\n      tag_179\n      jumpi\n      tag_180\n      tag_20\n      jump\t// in\n    tag_180:\n    tag_179:\n      0x20\n      mul\n      0x20\n      add\n      add\n        /* \"verifier.sol\":4194:4223  input[i * 6 + 3] = p2[i].X[0] */\n      dup2\n      dup2\n      mstore\n      pop\n      pop\n        /* \"verifier.sol\":4256:4258  p2 */\n      dup6\n        /* \"verifier.sol\":4259:4260  i */\n      dup2\n        /* \"verifier.sol\":4256:4261  p2[i] */\n      dup2\n      mload\n      dup2\n      lt\n      tag_181\n      jumpi\n      tag_182\n      tag_20\n      jump\t// in\n    tag_182:\n    tag_181:\n      0x20\n      mul\n      0x20\n      add\n      add\n      mload\n        /* \"verifier.sol\":4256:4263  p2[i].Y */\n      0x20\n      add\n      mload\n        /* \"verifier.sol\":4264:4265  1 */\n      0x01\n        /* \"verifier.sol\":4256:4266  p2[i].Y[1] */\n      0x02\n      dup2\n      lt\n      tag_183\n      jumpi\n      tag_184\n      tag_20\n      jump\t// in\n    tag_184:\n    tag_183:\n      0x20\n      mul\n      add\n      mload\n        /* \"verifier.sol\":4237:4242  input */\n      dup3\n        /* \"verifier.sol\":4251:4252  4 */\n      0x04\n        /* \"verifier.sol\":4247:4248  6 */\n      0x06\n        /* \"verifier.sol\":4243:4244  i */\n      dup5\n        /* \"verifier.sol\":4243:4248  i * 6 */\n      tag_185\n      swap2\n      swap1\n      tag_146\n      jump\t// in\n    tag_185:\n        /* \"verifier.sol\":4243:4252  i * 6 + 4 */\n      tag_186\n      swap2\n      swap1\n      tag_31\n      jump\t// in\n    tag_186:\n        /* \"verifier.sol\":4237:4253  input[i * 6 + 4] */\n      dup2\n      mload\n      dup2\n      lt\n      tag_187\n      jumpi\n      tag_188\n      tag_20\n      jump\t// in\n    tag_188:\n    tag_187:\n      0x20\n      mul\n      0x20\n      add\n      add\n        /* \"verifier.sol\":4237:4266  input[i * 6 + 4] = p2[i].Y[1] */\n      dup2\n      dup2\n      mstore\n      pop\n      pop\n        /* \"verifier.sol\":4299:4301  p2 */\n      dup6\n        /* \"verifier.sol\":4302:4303  i */\n      dup2\n        /* \"verifier.sol\":4299:4304  p2[i] */\n      dup2\n      mload\n      dup2\n      lt\n      tag_189\n      jumpi\n      tag_190\n      tag_20\n      jump\t// in\n    tag_190:\n    tag_189:\n      0x20\n      mul\n      0x20\n      add\n      add\n      mload\n        /* \"verifier.sol\":4299:4306  p2[i].Y */\n      0x20\n      add\n      mload\n        /* \"verifier.sol\":4307:4308  0 */\n      0x00\n        /* \"verifier.sol\":4299:4309  p2[i].Y[0] */\n      0x02\n      dup2\n      lt\n      tag_191\n      jumpi\n      tag_192\n      tag_20\n      jump\t// in\n    tag_192:\n    tag_191:\n      0x20\n      mul\n      add\n      mload\n        /* \"verifier.sol\":4280:4285  input */\n      dup3\n        /* \"verifier.sol\":4294:4295  5 */\n      0x05\n        /* \"verifier.sol\":4290:4291  6 */\n      0x06\n        /* \"verifier.sol\":4286:4287  i */\n      dup5\n        /* \"verifier.sol\":4286:4291  i * 6 */\n      tag_193\n      swap2\n      swap1\n      tag_146\n      jump\t// in\n    tag_193:\n        /* \"verifier.sol\":4286:4295  i * 6 + 5 */\n      tag_194\n      swap2\n      swap1\n      tag_31\n      jump\t// in\n    tag_194:\n        /* \"verifier.sol\":4280:4296  input[i * 6 + 5] */\n      dup2\n      mload\n      dup2\n      lt\n      tag_195\n      jumpi\n      tag_196\n      tag_20\n      jump\t// in\n    tag_196:\n    tag_195:\n      0x20\n      mul\n      0x20\n      add\n      add\n        /* \"verifier.sol\":4280:4309  input[i * 6 + 5] = p2[i].Y[0] */\n      dup2\n      dup2\n      mstore\n      pop\n      pop\n        /* \"verifier.sol\":4044:4047  i++ */\n      dup1\n      dup1\n      0x01\n      add\n      swap2\n      pop\n      pop\n        /* \"verifier.sol\":4013:4320  for (uint i = 0; i < elements; i++)... */\n      jump(tag_150)\n    tag_151:\n      pop\n        /* \"verifier.sol\":4329:4347  uint[1] memory out */\n      tag_197\n      tag_198\n      jump\t// in\n    tag_197:\n        /* \"verifier.sol\":4357:4369  bool success */\n      0x00\n        /* \"verifier.sol\":4490:4494  0x20 */\n      0x20\n        /* \"verifier.sol\":4485:4488  out */\n      dup3\n        /* \"verifier.sol\":4478:4482  0x20 */\n      0x20\n        /* \"verifier.sol\":4467:4476  inputSize */\n      dup7\n        /* \"verifier.sol\":4463:4483  mul(inputSize, 0x20) */\n      mul\n        /* \"verifier.sol\":4456:4460  0x20 */\n      0x20\n        /* \"verifier.sol\":4449:4454  input */\n      dup7\n        /* \"verifier.sol\":4445:4461  add(input, 0x20) */\n      add\n        /* \"verifier.sol\":4442:4443  8 */\n      0x08\n        /* \"verifier.sol\":4435:4439  2000 */\n      0x07d0\n        /* \"verifier.sol\":4428:4433  gas() */\n      gas\n        /* \"verifier.sol\":4424:4440  sub(gas(), 2000) */\n      sub\n        /* \"verifier.sol\":4413:4495  staticcall(sub(gas(), 2000), 8, add(input, 0x20), mul(inputSize, 0x20), out, 0x20) */\n      staticcall\n        /* \"verifier.sol\":4402:4495  success := staticcall(sub(gas(), 2000), 8, add(input, 0x20), mul(inputSize, 0x20), out, 0x20) */\n      swap1\n      pop\n        /* \"verifier.sol\":4572:4579  success */\n      dup1\n        /* \"verifier.sol\":4585:4586  0 */\n      0x00\n        /* \"verifier.sol\":4580:4600  case 0 { invalid() } */\n      dup2\n      sub\n        /* \"verifier.sol\":4565:4600  switch success case 0 { invalid() } */\n      tag_199\n        /* \"verifier.sol\":4580:4600  case 0 { invalid() } */\n      jumpi\n        /* \"verifier.sol\":4589:4598  invalid() */\n      invalid\n        /* \"verifier.sol\":4565:4600  switch success case 0 { invalid() } */\n    tag_199:\n      pop\n        /* \"verifier.sol\":4627:4634  success */\n      dup1\n        /* \"verifier.sol\":4619:4635  require(success) */\n      tag_201\n      jumpi\n      revert(0x00, 0x00)\n    tag_201:\n        /* \"verifier.sol\":4662:4663  0 */\n      0x00\n        /* \"verifier.sol\":4652:4655  out */\n      dup3\n        /* \"verifier.sol\":4656:4657  0 */\n      0x00\n        /* \"verifier.sol\":4652:4658  out[0] */\n      0x01\n      dup2\n      lt\n      tag_202\n      jumpi\n      tag_203\n      tag_20\n      jump\t// in\n    tag_203:\n    tag_202:\n      0x20\n      mul\n      add\n      mload\n        /* \"verifier.sol\":4652:4663  out[0] != 0 */\n      eq\n      iszero\n        /* \"verifier.sol\":4645:4663  return out[0] != 0 */\n      swap6\n      pop\n      pop\n      pop\n      pop\n      pop\n      pop\n        /* \"verifier.sol\":3747:4670  function pairing(G1Point[] memory p1, G2Point[] memory p2) internal view returns (bool) {... */\n      swap3\n      swap2\n      pop\n      pop\n      jump\t// out\n    tag_59:\n      mload(0x40)\n      dup1\n      0xa0\n      add\n      0x40\n      mstore\n      dup1\n      tag_204\n      tag_66\n      jump\t// in\n    tag_204:\n      dup2\n      mstore\n      0x20\n      add\n      tag_205\n      tag_124\n      jump\t// in\n    tag_205:\n      dup2\n      mstore\n      0x20\n      add\n      tag_206\n      tag_124\n      jump\t// in\n    tag_206:\n      dup2\n      mstore\n      0x20\n      add\n      tag_207\n      tag_124\n      jump\t// in\n    tag_207:\n      dup2\n      mstore\n      0x20\n      add\n      0x60\n      dup2\n      mstore\n      pop\n      swap1\n      jump\t// out\n    tag_66:\n      mload(0x40)\n      dup1\n      0x40\n      add\n      0x40\n      mstore\n      dup1\n      0x00\n      dup2\n      mstore\n      0x20\n      add\n      0x00\n      dup2\n      mstore\n      pop\n      swap1\n      jump\t// out\n    tag_80:\n      mload(0x40)\n      dup1\n      0x60\n      add\n      0x40\n      mstore\n      dup1\n      0x03\n      swap1\n      0x20\n      dup3\n      mul\n      dup1\n      calldatasize\n      dup4\n      calldatacopy\n      dup1\n      dup3\n      add\n      swap2\n      pop\n      pop\n      swap1\n      pop\n      pop\n      swap1\n      jump\t// out\n    tag_93:\n      mload(0x40)\n      dup1\n      0x80\n      add\n      0x40\n      mstore\n      dup1\n      0x04\n      swap1\n      0x20\n      dup3\n      mul\n      dup1\n      calldatasize\n      dup4\n      calldatacopy\n      dup1\n      dup3\n      add\n      swap2\n      pop\n      pop\n      swap1\n      pop\n      pop\n      swap1\n      jump\t// out\n    tag_124:\n      mload(0x40)\n      dup1\n      0x40\n      add\n      0x40\n      mstore\n      dup1\n      tag_208\n      tag_209\n      jump\t// in\n    tag_208:\n      dup2\n      mstore\n      0x20\n      add\n      tag_210\n      tag_209\n      jump\t// in\n    tag_210:\n      dup2\n      mstore\n      pop\n      swap1\n      jump\t// out\n    tag_198:\n      mload(0x40)\n      dup1\n      0x20\n      add\n      0x40\n      mstore\n      dup1\n      0x01\n      swap1\n      0x20\n      dup3\n      mul\n      dup1\n      calldatasize\n      dup4\n      calldatacopy\n      dup1\n      dup3\n      add\n      swap2\n      pop\n      pop\n      swap1\n      pop\n      pop\n      swap1\n      jump\t// out\n    tag_209:\n      mload(0x40)\n      dup1\n      0x40\n      add\n      0x40\n      mstore\n      dup1\n      0x02\n      swap1\n      0x20\n      dup3\n      mul\n      dup1\n      calldatasize\n      dup4\n      calldatacopy\n      dup1\n      dup3\n      add\n      swap2\n      pop\n      pop\n      swap1\n      pop\n      pop\n      swap1\n      jump\t// out\n        /* \"#utility.yul\":7:82   */\n    tag_211:\n        /* \"#utility.yul\":40:46   */\n      0x00\n        /* \"#utility.yul\":73:75   */\n      0x40\n        /* \"#utility.yul\":67:76   */\n      mload\n        /* \"#utility.yul\":57:76   */\n      swap1\n      pop\n        /* \"#utility.yul\":7:82   */\n      swap1\n      jump\t// out\n        /* \"#utility.yul\":88:205   */\n    tag_212:\n        /* \"#utility.yul\":197:198   */\n      0x00\n        /* \"#utility.yul\":194:195   */\n      0x00\n        /* \"#utility.yul\":187:199   */\n      revert\n        /* \"#utility.yul\":334:451   */\n    tag_214:\n        /* \"#utility.yul\":443:444   */\n      0x00\n        /* \"#utility.yul\":440:441   */\n      0x00\n        /* \"#utility.yul\":433:445   */\n      revert\n        /* \"#utility.yul\":457:559   */\n    tag_215:\n        /* \"#utility.yul\":498:504   */\n      0x00\n        /* \"#utility.yul\":549:551   */\n      0x1f\n        /* \"#utility.yul\":545:552   */\n      not\n        /* \"#utility.yul\":540:542   */\n      0x1f\n        /* \"#utility.yul\":533:538   */\n      dup4\n        /* \"#utility.yul\":529:543   */\n      add\n        /* \"#utility.yul\":525:553   */\n      and\n        /* \"#utility.yul\":515:553   */\n      swap1\n      pop\n        /* \"#utility.yul\":457:559   */\n      swap2\n      swap1\n      pop\n      jump\t// out\n        /* \"#utility.yul\":565:745   */\n    tag_13:\n        /* \"#utility.yul\":613:690   */\n      0x4e487b7100000000000000000000000000000000000000000000000000000000\n        /* \"#utility.yul\":610:611   */\n      0x00\n        /* \"#utility.yul\":603:691   */\n      mstore\n        /* \"#utility.yul\":710:714   */\n      0x41\n        /* \"#utility.yul\":707:708   */\n      0x04\n        /* \"#utility.yul\":700:715   */\n      mstore\n        /* \"#utility.yul\":734:738   */\n      0x24\n        /* \"#utility.yul\":731:732   */\n      0x00\n        /* \"#utility.yul\":724:739   */\n      revert\n        /* \"#utility.yul\":751:1032   */\n    tag_216:\n        /* \"#utility.yul\":834:861   */\n      tag_245\n        /* \"#utility.yul\":856:860   */\n      dup3\n        /* \"#utility.yul\":834:861   */\n      tag_215\n      jump\t// in\n    tag_245:\n        /* \"#utility.yul\":826:832   */\n      dup2\n        /* \"#utility.yul\":822:862   */\n      add\n        /* \"#utility.yul\":964:970   */\n      dup2\n        /* \"#utility.yul\":952:962   */\n      dup2\n        /* \"#utility.yul\":949:971   */\n      lt\n        /* \"#utility.yul\":928:946   */\n      0xffffffffffffffff\n        /* \"#utility.yul\":916:926   */\n      dup3\n        /* \"#utility.yul\":913:947   */\n      gt\n        /* \"#utility.yul\":910:972   */\n      or\n        /* \"#utility.yul\":907:995   */\n      iszero\n      tag_246\n      jumpi\n        /* \"#utility.yul\":975:993   */\n      tag_247\n      tag_13\n      jump\t// in\n    tag_247:\n        /* \"#utility.yul\":907:995   */\n    tag_246:\n        /* \"#utility.yul\":1015:1025   */\n      dup1\n        /* \"#utility.yul\":1011:1013   */\n      0x40\n        /* \"#utility.yul\":1004:1026   */\n      mstore\n        /* \"#utility.yul\":794:1032   */\n      pop\n        /* \"#utility.yul\":751:1032   */\n      pop\n      pop\n      jump\t// out\n        /* \"#utility.yul\":1038:1167   */\n    tag_217:\n        /* \"#utility.yul\":1072:1078   */\n      0x00\n        /* \"#utility.yul\":1099:1119   */\n      tag_249\n      tag_211\n      jump\t// in\n    tag_249:\n        /* \"#utility.yul\":1089:1119   */\n      swap1\n      pop\n        /* \"#utility.yul\":1128:1161   */\n      tag_250\n        /* \"#utility.yul\":1156:1160   */\n      dup3\n        /* \"#utility.yul\":1148:1154   */\n      dup3\n        /* \"#utility.yul\":1128:1161   */\n      tag_216\n      jump\t// in\n    tag_250:\n        /* \"#utility.yul\":1038:1167   */\n      swap2\n      swap1\n      pop\n      jump\t// out\n        /* \"#utility.yul\":1296:1373   */\n    tag_219:\n        /* \"#utility.yul\":1333:1340   */\n      0x00\n        /* \"#utility.yul\":1362:1367   */\n      dup2\n        /* \"#utility.yul\":1351:1367   */\n      swap1\n      pop\n        /* \"#utility.yul\":1296:1373   */\n      swap2\n      swap1\n      pop\n      jump\t// out\n        /* \"#utility.yul\":1379:1501   */\n    tag_220:\n        /* \"#utility.yul\":1452:1476   */\n      tag_254\n        /* \"#utility.yul\":1470:1475   */\n      dup2\n        /* \"#utility.yul\":1452:1476   */\n      tag_219\n      jump\t// in\n    tag_254:\n        /* \"#utility.yul\":1445:1450   */\n      dup2\n        /* \"#utility.yul\":1442:1477   */\n      eq\n        /* \"#utility.yul\":1432:1495   */\n      tag_255\n      jumpi\n        /* \"#utility.yul\":1491:1492   */\n      0x00\n        /* \"#utility.yul\":1488:1489   */\n      0x00\n        /* \"#utility.yul\":1481:1493   */\n      revert\n        /* \"#utility.yul\":1432:1495   */\n    tag_255:\n        /* \"#utility.yul\":1379:1501   */\n      pop\n      jump\t// out\n        /* \"#utility.yul\":1507:1646   */\n    tag_221:\n        /* \"#utility.yul\":1553:1558   */\n      0x00\n        /* \"#utility.yul\":1591:1597   */\n      dup2\n        /* \"#utility.yul\":1578:1598   */\n      calldataload\n        /* \"#utility.yul\":1569:1598   */\n      swap1\n      pop\n        /* \"#utility.yul\":1607:1640   */\n      tag_257\n        /* \"#utility.yul\":1634:1639   */\n      dup2\n        /* \"#utility.yul\":1607:1640   */\n      tag_220\n      jump\t// in\n    tag_257:\n        /* \"#utility.yul\":1507:1646   */\n      swap3\n      swap2\n      pop\n      pop\n      jump\t// out\n        /* \"#utility.yul\":1682:2247   */\n    tag_222:\n        /* \"#utility.yul\":1753:1758   */\n      0x00\n        /* \"#utility.yul\":1797:1801   */\n      0x40\n        /* \"#utility.yul\":1785:1794   */\n      dup3\n        /* \"#utility.yul\":1780:1783   */\n      dup5\n        /* \"#utility.yul\":1776:1795   */\n      sub\n        /* \"#utility.yul\":1772:1802   */\n      slt\n        /* \"#utility.yul\":1769:1886   */\n      iszero\n      tag_259\n      jumpi\n        /* \"#utility.yul\":1805:1884   */\n      tag_260\n      tag_214\n      jump\t// in\n    tag_260:\n        /* \"#utility.yul\":1769:1886   */\n    tag_259:\n        /* \"#utility.yul\":1904:1925   */\n      tag_261\n        /* \"#utility.yul\":1920:1924   */\n      0x40\n        /* \"#utility.yul\":1904:1925   */\n      tag_217\n      jump\t// in\n    tag_261:\n        /* \"#utility.yul\":1895:1925   */\n      swap1\n      pop\n        /* \"#utility.yul\":1981:1982   */\n      0x00\n        /* \"#utility.yul\":2021:2070   */\n      tag_262\n        /* \"#utility.yul\":2066:2069   */\n      dup5\n        /* \"#utility.yul\":2057:2063   */\n      dup3\n        /* \"#utility.yul\":2046:2055   */\n      dup6\n        /* \"#utility.yul\":2042:2064   */\n      add\n        /* \"#utility.yul\":2021:2070   */\n      tag_221\n      jump\t// in\n    tag_262:\n        /* \"#utility.yul\":2014:2018   */\n      0x00\n        /* \"#utility.yul\":2007:2012   */\n      dup4\n        /* \"#utility.yul\":2003:2019   */\n      add\n        /* \"#utility.yul\":1996:2071   */\n      mstore\n        /* \"#utility.yul\":1935:2082   */\n      pop\n        /* \"#utility.yul\":2138:2140   */\n      0x20\n        /* \"#utility.yul\":2179:2228   */\n      tag_263\n        /* \"#utility.yul\":2224:2227   */\n      dup5\n        /* \"#utility.yul\":2215:2221   */\n      dup3\n        /* \"#utility.yul\":2204:2213   */\n      dup6\n        /* \"#utility.yul\":2200:2222   */\n      add\n        /* \"#utility.yul\":2179:2228   */\n      tag_221\n      jump\t// in\n    tag_263:\n        /* \"#utility.yul\":2172:2176   */\n      0x20\n        /* \"#utility.yul\":2165:2170   */\n      dup4\n        /* \"#utility.yul\":2161:2177   */\n      add\n        /* \"#utility.yul\":2154:2229   */\n      mstore\n        /* \"#utility.yul\":2092:2240   */\n      pop\n        /* \"#utility.yul\":1682:2247   */\n      swap3\n      swap2\n      pop\n      pop\n      jump\t// out\n        /* \"#utility.yul\":2253:2370   */\n    tag_223:\n        /* \"#utility.yul\":2362:2363   */\n      0x00\n        /* \"#utility.yul\":2359:2360   */\n      0x00\n        /* \"#utility.yul\":2352:2364   */\n      revert\n        /* \"#utility.yul\":2376:2625   */\n    tag_224:\n        /* \"#utility.yul\":2451:2455   */\n      0x00\n        /* \"#utility.yul\":2541:2559   */\n      0xffffffffffffffff\n        /* \"#utility.yul\":2533:2539   */\n      dup3\n        /* \"#utility.yul\":2530:2560   */\n      gt\n        /* \"#utility.yul\":2527:2583   */\n      iszero\n      tag_266\n      jumpi\n        /* \"#utility.yul\":2563:2581   */\n      tag_267\n      tag_13\n      jump\t// in\n    tag_267:\n        /* \"#utility.yul\":2527:2583   */\n    tag_266:\n        /* \"#utility.yul\":2613:2617   */\n      0x20\n        /* \"#utility.yul\":2605:2611   */\n      dup3\n        /* \"#utility.yul\":2601:2618   */\n      mul\n        /* \"#utility.yul\":2593:2618   */\n      swap1\n      pop\n        /* \"#utility.yul\":2376:2625   */\n      swap2\n      swap1\n      pop\n      jump\t// out\n        /* \"#utility.yul\":2631:2748   */\n    tag_225:\n        /* \"#utility.yul\":2740:2741   */\n      0x00\n        /* \"#utility.yul\":2737:2738   */\n      0x00\n        /* \"#utility.yul\":2730:2742   */\n      revert\n        /* \"#utility.yul\":2772:3415   */\n    tag_226:\n        /* \"#utility.yul\":2866:2871   */\n      0x00\n        /* \"#utility.yul\":2891:2970   */\n      tag_270\n        /* \"#utility.yul\":2907:2969   */\n      tag_271\n        /* \"#utility.yul\":2962:2968   */\n      dup5\n        /* \"#utility.yul\":2907:2969   */\n      tag_224\n      jump\t// in\n    tag_271:\n        /* \"#utility.yul\":2891:2970   */\n      tag_217\n      jump\t// in\n    tag_270:\n        /* \"#utility.yul\":2882:2970   */\n      swap1\n      pop\n        /* \"#utility.yul\":2990:2995   */\n      dup1\n        /* \"#utility.yul\":3043:3047   */\n      0x20\n        /* \"#utility.yul\":3035:3041   */\n      dup5\n        /* \"#utility.yul\":3031:3048   */\n      mul\n        /* \"#utility.yul\":3023:3029   */\n      dup4\n        /* \"#utility.yul\":3019:3049   */\n      add\n        /* \"#utility.yul\":3072:3075   */\n      dup6\n        /* \"#utility.yul\":3064:3070   */\n      dup2\n        /* \"#utility.yul\":3061:3076   */\n      gt\n        /* \"#utility.yul\":3058:3180   */\n      iszero\n      tag_272\n      jumpi\n        /* \"#utility.yul\":3091:3170   */\n      tag_273\n      tag_225\n      jump\t// in\n    tag_273:\n        /* \"#utility.yul\":3058:3180   */\n    tag_272:\n        /* \"#utility.yul\":3206:3212   */\n      dup4\n        /* \"#utility.yul\":3189:3409   */\n    tag_274:\n        /* \"#utility.yul\":3223:3229   */\n      dup2\n        /* \"#utility.yul\":3218:3221   */\n      dup2\n        /* \"#utility.yul\":3215:3230   */\n      lt\n        /* \"#utility.yul\":3189:3409   */\n      iszero\n      tag_276\n      jumpi\n        /* \"#utility.yul\":3298:3301   */\n      dup1\n        /* \"#utility.yul\":3327:3364   */\n      tag_277\n        /* \"#utility.yul\":3360:3363   */\n      dup9\n        /* \"#utility.yul\":3348:3358   */\n      dup3\n        /* \"#utility.yul\":3327:3364   */\n      tag_221\n      jump\t// in\n    tag_277:\n        /* \"#utility.yul\":3322:3325   */\n      dup5\n        /* \"#utility.yul\":3315:3365   */\n      mstore\n        /* \"#utility.yul\":3394:3398   */\n      0x20\n        /* \"#utility.yul\":3389:3392   */\n      dup5\n        /* \"#utility.yul\":3385:3399   */\n      add\n        /* \"#utility.yul\":3378:3399   */\n      swap4\n      pop\n        /* \"#utility.yul\":3265:3409   */\n      pop\n        /* \"#utility.yul\":3249:3253   */\n      0x20\n        /* \"#utility.yul\":3244:3247   */\n      dup2\n        /* \"#utility.yul\":3240:3254   */\n      add\n        /* \"#utility.yul\":3233:3254   */\n      swap1\n      pop\n        /* \"#utility.yul\":3189:3409   */\n      jump(tag_274)\n    tag_276:\n        /* \"#utility.yul\":3193:3214   */\n      pop\n        /* \"#utility.yul\":2872:3415   */\n      pop\n      pop\n        /* \"#utility.yul\":2772:3415   */\n      swap4\n      swap3\n      pop\n      pop\n      pop\n      jump\t// out\n        /* \"#utility.yul\":3439:3778   */\n    tag_227:\n        /* \"#utility.yul\":3508:3513   */\n      0x00\n        /* \"#utility.yul\":3557:3560   */\n      dup3\n        /* \"#utility.yul\":3550:3554   */\n      0x1f\n        /* \"#utility.yul\":3542:3548   */\n      dup4\n        /* \"#utility.yul\":3538:3555   */\n      add\n        /* \"#utility.yul\":3534:3561   */\n      slt\n        /* \"#utility.yul\":3524:3646   */\n      tag_279\n      jumpi\n        /* \"#utility.yul\":3565:3644   */\n      tag_280\n      tag_223\n      jump\t// in\n    tag_280:\n        /* \"#utility.yul\":3524:3646   */\n    tag_279:\n        /* \"#utility.yul\":3669:3673   */\n      0x02\n        /* \"#utility.yul\":3691:3772   */\n      tag_281\n        /* \"#utility.yul\":3768:3771   */\n      dup5\n        /* \"#utility.yul\":3760:3766   */\n      dup3\n        /* \"#utility.yul\":3752:3758   */\n      dup6\n        /* \"#utility.yul\":3691:3772   */\n      tag_226\n      jump\t// in\n    tag_281:\n        /* \"#utility.yul\":3682:3772   */\n      swap2\n      pop\n        /* \"#utility.yul\":3514:3778   */\n      pop\n        /* \"#utility.yul\":3439:3778   */\n      swap3\n      swap2\n      pop\n      pop\n      jump\t// out\n        /* \"#utility.yul\":3814:4426   */\n    tag_228:\n        /* \"#utility.yul\":3886:3891   */\n      0x00\n        /* \"#utility.yul\":3930:3934   */\n      0x80\n        /* \"#utility.yul\":3918:3927   */\n      dup3\n        /* \"#utility.yul\":3913:3916   */\n      dup5\n        /* \"#utility.yul\":3909:3928   */\n      sub\n        /* \"#utility.yul\":3905:3935   */\n      slt\n        /* \"#utility.yul\":3902:4019   */\n      iszero\n      tag_283\n      jumpi\n        /* \"#utility.yul\":3938:4017   */\n      tag_284\n      tag_214\n      jump\t// in\n    tag_284:\n        /* \"#utility.yul\":3902:4019   */\n    tag_283:\n        /* \"#utility.yul\":4037:4058   */\n      tag_285\n        /* \"#utility.yul\":4053:4057   */\n      0x40\n        /* \"#utility.yul\":4037:4058   */\n      tag_217\n      jump\t// in\n    tag_285:\n        /* \"#utility.yul\":4028:4058   */\n      swap1\n      pop\n        /* \"#utility.yul\":4114:4115   */\n      0x00\n        /* \"#utility.yul\":4154:4226   */\n      tag_286\n        /* \"#utility.yul\":4222:4225   */\n      dup5\n        /* \"#utility.yul\":4213:4219   */\n      dup3\n        /* \"#utility.yul\":4202:4211   */\n      dup6\n        /* \"#utility.yul\":4198:4220   */\n      add\n        /* \"#utility.yul\":4154:4226   */\n      tag_227\n      jump\t// in\n    tag_286:\n        /* \"#utility.yul\":4147:4151   */\n      0x00\n        /* \"#utility.yul\":4140:4145   */\n      dup4\n        /* \"#utility.yul\":4136:4152   */\n      add\n        /* \"#utility.yul\":4129:4227   */\n      mstore\n        /* \"#utility.yul\":4068:4238   */\n      pop\n        /* \"#utility.yul\":4294:4296   */\n      0x40\n        /* \"#utility.yul\":4335:4407   */\n      tag_287\n        /* \"#utility.yul\":4403:4406   */\n      dup5\n        /* \"#utility.yul\":4394:4400   */\n      dup3\n        /* \"#utility.yul\":4383:4392   */\n      dup6\n        /* \"#utility.yul\":4379:4401   */\n      add\n        /* \"#utility.yul\":4335:4407   */\n      tag_227\n      jump\t// in\n    tag_287:\n        /* \"#utility.yul\":4328:4332   */\n      0x20\n        /* \"#utility.yul\":4321:4326   */\n      dup4\n        /* \"#utility.yul\":4317:4333   */\n      add\n        /* \"#utility.yul\":4310:4408   */\n      mstore\n        /* \"#utility.yul\":4248:4419   */\n      pop\n        /* \"#utility.yul\":3814:4426   */\n      swap3\n      swap2\n      pop\n      pop\n      jump\t// out\n        /* \"#utility.yul\":4461:5254   */\n    tag_229:\n        /* \"#utility.yul\":4532:4537   */\n      0x00\n        /* \"#utility.yul\":4576:4582   */\n      0x0100\n        /* \"#utility.yul\":4564:4573   */\n      dup3\n        /* \"#utility.yul\":4559:4562   */\n      dup5\n        /* \"#utility.yul\":4555:4574   */\n      sub\n        /* \"#utility.yul\":4551:4583   */\n      slt\n        /* \"#utility.yul\":4548:4667   */\n      iszero\n      tag_289\n      jumpi\n        /* \"#utility.yul\":4586:4665   */\n      tag_290\n      tag_214\n      jump\t// in\n    tag_290:\n        /* \"#utility.yul\":4548:4667   */\n    tag_289:\n        /* \"#utility.yul\":4685:4706   */\n      tag_291\n        /* \"#utility.yul\":4701:4705   */\n      0x60\n        /* \"#utility.yul\":4685:4706   */\n      tag_217\n      jump\t// in\n    tag_291:\n        /* \"#utility.yul\":4676:4706   */\n      swap1\n      pop\n        /* \"#utility.yul\":4762:4763   */\n      0x00\n        /* \"#utility.yul\":4802:4873   */\n      tag_292\n        /* \"#utility.yul\":4869:4872   */\n      dup5\n        /* \"#utility.yul\":4860:4866   */\n      dup3\n        /* \"#utility.yul\":4849:4858   */\n      dup6\n        /* \"#utility.yul\":4845:4867   */\n      add\n        /* \"#utility.yul\":4802:4873   */\n      tag_222\n      jump\t// in\n    tag_292:\n        /* \"#utility.yul\":4795:4799   */\n      0x00\n        /* \"#utility.yul\":4788:4793   */\n      dup4\n        /* \"#utility.yul\":4784:4800   */\n      add\n        /* \"#utility.yul\":4777:4874   */\n      mstore\n        /* \"#utility.yul\":4716:4885   */\n      pop\n        /* \"#utility.yul\":4941:4943   */\n      0x40\n        /* \"#utility.yul\":4982:5054   */\n      tag_293\n        /* \"#utility.yul\":5050:5053   */\n      dup5\n        /* \"#utility.yul\":5041:5047   */\n      dup3\n        /* \"#utility.yul\":5030:5039   */\n      dup6\n        /* \"#utility.yul\":5026:5048   */\n      add\n        /* \"#utility.yul\":4982:5054   */\n      tag_228\n      jump\t// in\n    tag_293:\n        /* \"#utility.yul\":4975:4979   */\n      0x20\n        /* \"#utility.yul\":4968:4973   */\n      dup4\n        /* \"#utility.yul\":4964:4980   */\n      add\n        /* \"#utility.yul\":4957:5055   */\n      mstore\n        /* \"#utility.yul\":4895:5066   */\n      pop\n        /* \"#utility.yul\":5122:5125   */\n      0xc0\n        /* \"#utility.yul\":5164:5235   */\n      tag_294\n        /* \"#utility.yul\":5231:5234   */\n      dup5\n        /* \"#utility.yul\":5222:5228   */\n      dup3\n        /* \"#utility.yul\":5211:5220   */\n      dup6\n        /* \"#utility.yul\":5207:5229   */\n      add\n        /* \"#utility.yul\":5164:5235   */\n      tag_222\n      jump\t// in\n    tag_294:\n        /* \"#utility.yul\":5157:5161   */\n      0x40\n        /* \"#utility.yul\":5150:5155   */\n      dup4\n        /* \"#utility.yul\":5146:5162   */\n      add\n        /* \"#utility.yul\":5139:5236   */\n      mstore\n        /* \"#utility.yul\":5076:5247   */\n      pop\n        /* \"#utility.yul\":4461:5254   */\n      swap3\n      swap2\n      pop\n      pop\n      jump\t// out\n        /* \"#utility.yul\":5260:5509   */\n    tag_230:\n        /* \"#utility.yul\":5335:5339   */\n      0x00\n        /* \"#utility.yul\":5425:5443   */\n      0xffffffffffffffff\n        /* \"#utility.yul\":5417:5423   */\n      dup3\n        /* \"#utility.yul\":5414:5444   */\n      gt\n        /* \"#utility.yul\":5411:5467   */\n      iszero\n      tag_296\n      jumpi\n        /* \"#utility.yul\":5447:5465   */\n      tag_297\n      tag_13\n      jump\t// in\n    tag_297:\n        /* \"#utility.yul\":5411:5467   */\n    tag_296:\n        /* \"#utility.yul\":5497:5501   */\n      0x20\n        /* \"#utility.yul\":5489:5495   */\n      dup3\n        /* \"#utility.yul\":5485:5502   */\n      mul\n        /* \"#utility.yul\":5477:5502   */\n      swap1\n      pop\n        /* \"#utility.yul\":5260:5509   */\n      swap2\n      swap1\n      pop\n      jump\t// out\n        /* \"#utility.yul\":5533:6176   */\n    tag_231:\n        /* \"#utility.yul\":5627:5632   */\n      0x00\n        /* \"#utility.yul\":5652:5731   */\n      tag_299\n        /* \"#utility.yul\":5668:5730   */\n      tag_300\n        /* \"#utility.yul\":5723:5729   */\n      dup5\n        /* \"#utility.yul\":5668:5730   */\n      tag_230\n      jump\t// in\n    tag_300:\n        /* \"#utility.yul\":5652:5731   */\n      tag_217\n      jump\t// in\n    tag_299:\n        /* \"#utility.yul\":5643:5731   */\n      swap1\n      pop\n        /* \"#utility.yul\":5751:5756   */\n      dup1\n        /* \"#utility.yul\":5804:5808   */\n      0x20\n        /* \"#utility.yul\":5796:5802   */\n      dup5\n        /* \"#utility.yul\":5792:5809   */\n      mul\n        /* \"#utility.yul\":5784:5790   */\n      dup4\n        /* \"#utility.yul\":5780:5810   */\n      add\n        /* \"#utility.yul\":5833:5836   */\n      dup6\n        /* \"#utility.yul\":5825:5831   */\n      dup2\n        /* \"#utility.yul\":5822:5837   */\n      gt\n        /* \"#utility.yul\":5819:5941   */\n      iszero\n      tag_301\n      jumpi\n        /* \"#utility.yul\":5852:5931   */\n      tag_302\n      tag_225\n      jump\t// in\n    tag_302:\n        /* \"#utility.yul\":5819:5941   */\n    tag_301:\n        /* \"#utility.yul\":5967:5973   */\n      dup4\n        /* \"#utility.yul\":5950:6170   */\n    tag_303:\n        /* \"#utility.yul\":5984:5990   */\n      dup2\n        /* \"#utility.yul\":5979:5982   */\n      dup2\n        /* \"#utility.yul\":5976:5991   */\n      lt\n        /* \"#utility.yul\":5950:6170   */\n      iszero\n      tag_305\n      jumpi\n        /* \"#utility.yul\":6059:6062   */\n      dup1\n        /* \"#utility.yul\":6088:6125   */\n      tag_306\n        /* \"#utility.yul\":6121:6124   */\n      dup9\n        /* \"#utility.yul\":6109:6119   */\n      dup3\n        /* \"#utility.yul\":6088:6125   */\n      tag_221\n      jump\t// in\n    tag_306:\n        /* \"#utility.yul\":6083:6086   */\n      dup5\n        /* \"#utility.yul\":6076:6126   */\n      mstore\n        /* \"#utility.yul\":6155:6159   */\n      0x20\n        /* \"#utility.yul\":6150:6153   */\n      dup5\n        /* \"#utility.yul\":6146:6160   */\n      add\n        /* \"#utility.yul\":6139:6160   */\n      swap4\n      pop\n        /* \"#utility.yul\":6026:6170   */\n      pop\n        /* \"#utility.yul\":6010:6014   */\n      0x20\n        /* \"#utility.yul\":6005:6008   */\n      dup2\n        /* \"#utility.yul\":6001:6015   */\n      add\n        /* \"#utility.yul\":5994:6015   */\n      swap1\n      pop\n        /* \"#utility.yul\":5950:6170   */\n      jump(tag_303)\n    tag_305:\n        /* \"#utility.yul\":5954:5975   */\n      pop\n        /* \"#utility.yul\":5633:6176   */\n      pop\n      pop\n        /* \"#utility.yul\":5533:6176   */\n      swap4\n      swap3\n      pop\n      pop\n      pop\n      jump\t// out\n        /* \"#utility.yul\":6200:6539   */\n    tag_232:\n        /* \"#utility.yul\":6269:6274   */\n      0x00\n        /* \"#utility.yul\":6318:6321   */\n      dup3\n        /* \"#utility.yul\":6311:6315   */\n      0x1f\n        /* \"#utility.yul\":6303:6309   */\n      dup4\n        /* \"#utility.yul\":6299:6316   */\n      add\n        /* \"#utility.yul\":6295:6322   */\n      slt\n        /* \"#utility.yul\":6285:6407   */\n      tag_308\n      jumpi\n        /* \"#utility.yul\":6326:6405   */\n      tag_309\n      tag_223\n      jump\t// in\n    tag_309:\n        /* \"#utility.yul\":6285:6407   */\n    tag_308:\n        /* \"#utility.yul\":6430:6434   */\n      0x04\n        /* \"#utility.yul\":6452:6533   */\n      tag_310\n        /* \"#utility.yul\":6529:6532   */\n      dup5\n        /* \"#utility.yul\":6521:6527   */\n      dup3\n        /* \"#utility.yul\":6513:6519   */\n      dup6\n        /* \"#utility.yul\":6452:6533   */\n      tag_231\n      jump\t// in\n    tag_310:\n        /* \"#utility.yul\":6443:6533   */\n      swap2\n      pop\n        /* \"#utility.yul\":6275:6539   */\n      pop\n        /* \"#utility.yul\":6200:6539   */\n      swap3\n      swap2\n      pop\n      pop\n      jump\t// out\n        /* \"#utility.yul\":6545:7111   */\n    tag_6:\n        /* \"#utility.yul\":6658:6664   */\n      0x00\n        /* \"#utility.yul\":6666:6672   */\n      0x00\n        /* \"#utility.yul\":6715:6718   */\n      0x0180\n        /* \"#utility.yul\":6703:6712   */\n      dup4\n        /* \"#utility.yul\":6694:6701   */\n      dup6\n        /* \"#utility.yul\":6690:6713   */\n      sub\n        /* \"#utility.yul\":6686:6719   */\n      slt\n        /* \"#utility.yul\":6683:6803   */\n      iszero\n      tag_312\n      jumpi\n        /* \"#utility.yul\":6722:6801   */\n      tag_313\n      tag_212\n      jump\t// in\n    tag_313:\n        /* \"#utility.yul\":6683:6803   */\n    tag_312:\n        /* \"#utility.yul\":6842:6843   */\n      0x00\n        /* \"#utility.yul\":6867:6942   */\n      tag_314\n        /* \"#utility.yul\":6934:6941   */\n      dup6\n        /* \"#utility.yul\":6925:6931   */\n      dup3\n        /* \"#utility.yul\":6914:6923   */\n      dup7\n        /* \"#utility.yul\":6910:6932   */\n      add\n        /* \"#utility.yul\":6867:6942   */\n      tag_229\n      jump\t// in\n    tag_314:\n        /* \"#utility.yul\":6857:6942   */\n      swap3\n      pop\n        /* \"#utility.yul\":6813:6952   */\n      pop\n        /* \"#utility.yul\":6991:6994   */\n      0x0100\n        /* \"#utility.yul\":7018:7094   */\n      tag_315\n        /* \"#utility.yul\":7086:7093   */\n      dup6\n        /* \"#utility.yul\":7077:7083   */\n      dup3\n        /* \"#utility.yul\":7066:7075   */\n      dup7\n        /* \"#utility.yul\":7062:7084   */\n      add\n        /* \"#utility.yul\":7018:7094   */\n      tag_232\n      jump\t// in\n    tag_315:\n        /* \"#utility.yul\":7008:7094   */\n      swap2\n      pop\n        /* \"#utility.yul\":6962:7104   */\n      pop\n        /* \"#utility.yul\":6545:7111   */\n      swap3\n      pop\n      swap3\n      swap1\n      pop\n      jump\t// out\n        /* \"#utility.yul\":7117:7207   */\n    tag_233:\n        /* \"#utility.yul\":7151:7158   */\n      0x00\n        /* \"#utility.yul\":7194:7199   */\n      dup2\n        /* \"#utility.yul\":7187:7200   */\n      iszero\n        /* \"#utility.yul\":7180:7201   */\n      iszero\n        /* \"#utility.yul\":7169:7201   */\n      swap1\n      pop\n        /* \"#utility.yul\":7117:7207   */\n      swap2\n      swap1\n      pop\n      jump\t// out\n        /* \"#utility.yul\":7213:7322   */\n    tag_234:\n        /* \"#utility.yul\":7294:7315   */\n      tag_318\n        /* \"#utility.yul\":7309:7314   */\n      dup2\n        /* \"#utility.yul\":7294:7315   */\n      tag_233\n      jump\t// in\n    tag_318:\n        /* \"#utility.yul\":7289:7292   */\n      dup3\n        /* \"#utility.yul\":7282:7316   */\n      mstore\n        /* \"#utility.yul\":7213:7322   */\n      pop\n      pop\n      jump\t// out\n        /* \"#utility.yul\":7328:7538   */\n    tag_9:\n        /* \"#utility.yul\":7415:7419   */\n      0x00\n        /* \"#utility.yul\":7453:7455   */\n      0x20\n        /* \"#utility.yul\":7442:7451   */\n      dup3\n        /* \"#utility.yul\":7438:7456   */\n      add\n        /* \"#utility.yul\":7430:7456   */\n      swap1\n      pop\n        /* \"#utility.yul\":7466:7531   */\n      tag_320\n        /* \"#utility.yul\":7528:7529   */\n      0x00\n        /* \"#utility.yul\":7517:7526   */\n      dup4\n        /* \"#utility.yul\":7513:7530   */\n      add\n        /* \"#utility.yul\":7504:7510   */\n      dup5\n        /* \"#utility.yul\":7466:7531   */\n      tag_234\n      jump\t// in\n    tag_320:\n        /* \"#utility.yul\":7328:7538   */\n      swap3\n      swap2\n      pop\n      pop\n      jump\t// out\n        /* \"#utility.yul\":7544:7724   */\n    tag_20:\n        /* \"#utility.yul\":7592:7669   */\n      0x4e487b7100000000000000000000000000000000000000000000000000000000\n        /* \"#utility.yul\":7589:7590   */\n      0x00\n        /* \"#utility.yul\":7582:7670   */\n      mstore\n        /* \"#utility.yul\":7689:7693   */\n      0x32\n        /* \"#utility.yul\":7686:7687   */\n      0x04\n        /* \"#utility.yul\":7679:7694   */\n      mstore\n        /* \"#utility.yul\":7713:7717   */\n      0x24\n        /* \"#utility.yul\":7710:7711   */\n      0x00\n        /* \"#utility.yul\":7703:7718   */\n      revert\n        /* \"#utility.yul\":7730:7910   */\n    tag_235:\n        /* \"#utility.yul\":7778:7855   */\n      0x4e487b7100000000000000000000000000000000000000000000000000000000\n        /* \"#utility.yul\":7775:7776   */\n      0x00\n        /* \"#utility.yul\":7768:7856   */\n      mstore\n        /* \"#utility.yul\":7875:7879   */\n      0x11\n        /* \"#utility.yul\":7872:7873   */\n      0x04\n        /* \"#utility.yul\":7865:7880   */\n      mstore\n        /* \"#utility.yul\":7899:7903   */\n      0x24\n        /* \"#utility.yul\":7896:7897   */\n      0x00\n        /* \"#utility.yul\":7889:7904   */\n      revert\n        /* \"#utility.yul\":7916:8107   */\n    tag_31:\n        /* \"#utility.yul\":7956:7959   */\n      0x00\n        /* \"#utility.yul\":7975:7995   */\n      tag_324\n        /* \"#utility.yul\":7993:7994   */\n      dup3\n        /* \"#utility.yul\":7975:7995   */\n      tag_219\n      jump\t// in\n    tag_324:\n        /* \"#utility.yul\":7970:7995   */\n      swap2\n      pop\n        /* \"#utility.yul\":8009:8029   */\n      tag_325\n        /* \"#utility.yul\":8027:8028   */\n      dup4\n        /* \"#utility.yul\":8009:8029   */\n      tag_219\n      jump\t// in\n    tag_325:\n        /* \"#utility.yul\":8004:8029   */\n      swap3\n      pop\n        /* \"#utility.yul\":8052:8053   */\n      dup3\n        /* \"#utility.yul\":8049:8050   */\n      dup3\n        /* \"#utility.yul\":8045:8054   */\n      add\n        /* \"#utility.yul\":8038:8054   */\n      swap1\n      pop\n        /* \"#utility.yul\":8073:8076   */\n      dup1\n        /* \"#utility.yul\":8070:8071   */\n      dup3\n        /* \"#utility.yul\":8067:8077   */\n      gt\n        /* \"#utility.yul\":8064:8100   */\n      iszero\n      tag_326\n      jumpi\n        /* \"#utility.yul\":8080:8098   */\n      tag_327\n      tag_235\n      jump\t// in\n    tag_327:\n        /* \"#utility.yul\":8064:8100   */\n    tag_326:\n        /* \"#utility.yul\":7916:8107   */\n      swap3\n      swap2\n      pop\n      pop\n      jump\t// out\n        /* \"#utility.yul\":8113:8293   */\n    tag_236:\n        /* \"#utility.yul\":8161:8238   */\n      0x4e487b7100000000000000000000000000000000000000000000000000000000\n        /* \"#utility.yul\":8158:8159   */\n      0x00\n        /* \"#utility.yul\":8151:8239   */\n      mstore\n        /* \"#utility.yul\":8258:8262   */\n      0x12\n        /* \"#utility.yul\":8255:8256   */\n      0x04\n        /* \"#utility.yul\":8248:8263   */\n      mstore\n        /* \"#utility.yul\":8282:8286   */\n      0x24\n        /* \"#utility.yul\":8279:8280   */\n      0x00\n        /* \"#utility.yul\":8272:8287   */\n      revert\n        /* \"#utility.yul\":8299:8475   */\n    tag_110:\n        /* \"#utility.yul\":8331:8332   */\n      0x00\n        /* \"#utility.yul\":8348:8368   */\n      tag_330\n        /* \"#utility.yul\":8366:8367   */\n      dup3\n        /* \"#utility.yul\":8348:8368   */\n      tag_219\n      jump\t// in\n    tag_330:\n        /* \"#utility.yul\":8343:8368   */\n      swap2\n      pop\n        /* \"#utility.yul\":8382:8402   */\n      tag_331\n        /* \"#utility.yul\":8400:8401   */\n      dup4\n        /* \"#utility.yul\":8382:8402   */\n      tag_219\n      jump\t// in\n    tag_331:\n        /* \"#utility.yul\":8377:8402   */\n      swap3\n      pop\n        /* \"#utility.yul\":8421:8422   */\n      dup3\n        /* \"#utility.yul\":8411:8446   */\n      tag_332\n      jumpi\n        /* \"#utility.yul\":8426:8444   */\n      tag_333\n      tag_236\n      jump\t// in\n    tag_333:\n        /* \"#utility.yul\":8411:8446   */\n    tag_332:\n        /* \"#utility.yul\":8467:8468   */\n      dup3\n        /* \"#utility.yul\":8464:8465   */\n      dup3\n        /* \"#utility.yul\":8460:8469   */\n      mod\n        /* \"#utility.yul\":8455:8469   */\n      swap1\n      pop\n        /* \"#utility.yul\":8299:8475   */\n      swap3\n      swap2\n      pop\n      pop\n      jump\t// out\n        /* \"#utility.yul\":8481:8675   */\n    tag_112:\n        /* \"#utility.yul\":8521:8525   */\n      0x00\n        /* \"#utility.yul\":8541:8561   */\n      tag_335\n        /* \"#utility.yul\":8559:8560   */\n      dup3\n        /* \"#utility.yul\":8541:8561   */\n      tag_219\n      jump\t// in\n    tag_335:\n        /* \"#utility.yul\":8536:8561   */\n      swap2\n      pop\n        /* \"#utility.yul\":8575:8595   */\n      tag_336\n        /* \"#utility.yul\":8593:8594   */\n      dup4\n        /* \"#utility.yul\":8575:8595   */\n      tag_219\n      jump\t// in\n    tag_336:\n        /* \"#utility.yul\":8570:8595   */\n      swap3\n      pop\n        /* \"#utility.yul\":8619:8620   */\n      dup3\n        /* \"#utility.yul\":8616:8617   */\n      dup3\n        /* \"#utility.yul\":8612:8621   */\n      sub\n        /* \"#utility.yul\":8604:8621   */\n      swap1\n      pop\n        /* \"#utility.yul\":8643:8644   */\n      dup2\n        /* \"#utility.yul\":8637:8641   */\n      dup2\n        /* \"#utility.yul\":8634:8645   */\n      gt\n        /* \"#utility.yul\":8631:8668   */\n      iszero\n      tag_337\n      jumpi\n        /* \"#utility.yul\":8648:8666   */\n      tag_338\n      tag_235\n      jump\t// in\n    tag_338:\n        /* \"#utility.yul\":8631:8668   */\n    tag_337:\n        /* \"#utility.yul\":8481:8675   */\n      swap3\n      swap2\n      pop\n      pop\n      jump\t// out\n        /* \"#utility.yul\":8681:9091   */\n    tag_146:\n        /* \"#utility.yul\":8721:8728   */\n      0x00\n        /* \"#utility.yul\":8744:8764   */\n      tag_340\n        /* \"#utility.yul\":8762:8763   */\n      dup3\n        /* \"#utility.yul\":8744:8764   */\n      tag_219\n      jump\t// in\n    tag_340:\n        /* \"#utility.yul\":8739:8764   */\n      swap2\n      pop\n        /* \"#utility.yul\":8778:8798   */\n      tag_341\n        /* \"#utility.yul\":8796:8797   */\n      dup4\n        /* \"#utility.yul\":8778:8798   */\n      tag_219\n      jump\t// in\n    tag_341:\n        /* \"#utility.yul\":8773:8798   */\n      swap3\n      pop\n        /* \"#utility.yul\":8833:8834   */\n      dup3\n        /* \"#utility.yul\":8830:8831   */\n      dup3\n        /* \"#utility.yul\":8826:8835   */\n      mul\n        /* \"#utility.yul\":8855:8885   */\n      tag_342\n        /* \"#utility.yul\":8873:8884   */\n      dup2\n        /* \"#utility.yul\":8855:8885   */\n      tag_219\n      jump\t// in\n    tag_342:\n        /* \"#utility.yul\":8844:8885   */\n      swap2\n      pop\n        /* \"#utility.yul\":9034:9035   */\n      dup3\n        /* \"#utility.yul\":9025:9032   */\n      dup3\n        /* \"#utility.yul\":9021:9036   */\n      div\n        /* \"#utility.yul\":9018:9019   */\n      dup5\n        /* \"#utility.yul\":9015:9037   */\n      eq\n        /* \"#utility.yul\":8995:8996   */\n      dup4\n        /* \"#utility.yul\":8988:8997   */\n      iszero\n        /* \"#utility.yul\":8968:9051   */\n      or\n        /* \"#utility.yul\":8945:9084   */\n      tag_343\n      jumpi\n        /* \"#utility.yul\":9064:9082   */\n      tag_344\n      tag_235\n      jump\t// in\n    tag_344:\n        /* \"#utility.yul\":8945:9084   */\n    tag_343:\n        /* \"#utility.yul\":8729:9091   */\n      pop\n        /* \"#utility.yul\":8681:9091   */\n      swap3\n      swap2\n      pop\n      pop\n      jump\t// out\n\n    auxdata: 0xa26469706673582212206c8e512477d84d96fab0a848f702c45e11b025f1a7776ec381564c17212b45c464736f6c634300081e0033\n}\n",
				"bytecode": {
					"linkReferences": {},
					"object": "6080604052348015600e575f5ffd5b5061155d8061001c5f395ff3fe608060405234801561000f575f5ffd5b5060043610610029575f3560e01c8063799afa761461002d575b5f5ffd5b61004760048036038101906100429190611356565b61005d565b60405161005491906113b0565b60405180910390f35b5f5f600467ffffffffffffffff81111561007a5761007961104b565b5b6040519080825280602002602001820160405280156100a85781602001602082028036833780820191505090505b5090505f5f90505b60048110156100fd578381600481106100cc576100cb6113c9565b5b60200201518282815181106100e4576100e36113c9565b5b60200260200101818152505080806001019150506100b0565b505f6101098286610123565b0361011857600191505061011d565b5f9150505b92915050565b5f5f7f30644e72e131a029b85045b68181585d2833e84879b9709143e1f593f000000190505f6101516102ab565b9050806080015151600186516101679190611423565b14610170575f5ffd5b5f60405180604001604052805f81526020015f81525090505f5f90505b865181101561022157838782815181106101aa576101a96113c9565b5b6020026020010151106101bb575f5ffd5b6102128261020d85608001516001856101d49190611423565b815181106101e5576101e46113c9565b5b60200260200101518a8581518110610200576101ff6113c9565b5b6020026020010151610815565b6108b2565b9150808060010191505061018d565b5061024a8183608001515f8151811061023d5761023c6113c9565b5b60200260200101516108b2565b905061028e855f0151866020015161026184610974565b85604001516102738a60400151610974565b8760600151610284895f0151610974565b8960200151610a12565b61029e57600193505050506102a5565b5f93505050505b92915050565b6102b3610f1d565b60405180604001604052807f1f7831672127bb363374647d0c87a31ce91a1c685d875a53a5cac600faeded4f81526020017f07670423de21a7bdb3578ffb77b415c2ea786e4e502990bd70f5466f912d2852815250815f0181905250604051806040016040528060405180604001604052807f159b583d51881a3d382c9a4e3fd9a650135055063b6a6b22721d76173dfbab2d81526020017f04139747af7047fe4cf264d25b15235f4ec43bb38e7a688567f031c5e2d920e0815250815260200160405180604001604052807f1fc4a8d05593db0d87f4f97e5f91ae18430aca05a0cf38232eeae735fe87454b81526020017f10ea261691552ffb0a35fed505cd904ac01e01abf590a16ad75e2b8986f8a0a68152508152508160200181905250604051806040016040528060405180604001604052807f2f4d859e096097fcb241bdb87257410ee80b2524f44733a8add221e92bbb9d4881526020017f0216bedc2a1ab164892327794537e324bdb9118bf6ebe21459983e953b550bea815250815260200160405180604001604052807f2e50d45ceb04b952f390bd9e7c421db774d9cad30be64a8541d221f9cab6fe0581526020017f092209f9c9688a024370181dc66215ac222860e409b6aa5bc1f01fcb4baadf708152508152508160400181905250604051806040016040528060405180604001604052807f0306d089d5f2bb7c7f566c89ae7621fd4f9a125e4c1634d121f4346d19542b6081526020017f29b81308a9e273f8cf524d7ab1a777751fdc2477f3f0921756e6a3d1f6c1996b815250815260200160405180604001604052807f1d7247377df3c9907bc574eca03edb7ee6be018f01a00897dda62c17d921857581526020017f289c126ce263de6300c6134b4e06559e4023bb41546866016334e23347d44f568152508152508160600181905250600567ffffffffffffffff8111156105795761057861104b565b5b6040519080825280602002602001820160405280156105b257816020015b61059f610f64565b8152602001906001900390816105975790505b50816080018190525060405180604001604052807f1ff6515df24714beb6bec648702cd88f0786a266aaf3cee0c4791cff6c53d35e81526020017f1e74942a208ab7636752dd9f910b0de565526b80ab4dbdb1942b116d02603e2181525081608001515f81518110610627576106266113c9565b5b602002602001018190525060405180604001604052807f0a90e62d51d3f72378ddbe28514cdcac96876323092907fcca74f8cf8418b7f081526020017f300713f90ee55c54909db0adabbf98487a86992617e1143f646ed9f460d52ead815250816080015160018151811061069f5761069e6113c9565b5b602002602001018190525060405180604001604052807f1654353e47ff9707ab0f55af2ed3ca63994d4c0e6389cb4752844400a13c290581526020017f0c78254a4716a42e8bf12038f2a11f9c66dcdca054caaefe00a540ee0beafde68152508160800151600281518110610717576107166113c9565b5b602002602001018190525060405180604001604052807f1dae2230cc5d0736855c7052a432659f83440d5886f19e6ffe4035d58bb1616881526020017f129a45fefad763d1e4ebaa56312122372fcba4cea3b6e81dc6cfe3cefde2026b815250816080015160038151811061078f5761078e6113c9565b5b602002602001018190525060405180604001604052807f06de78707393bd9eb1c9d0a3adc107320bbc90ba7f1985e844b7a9d30970403b81526020017f22500a1cb2c7a6db8d193e1a32d1054d581d6bc6a066637ddf2d24e26c56e8ce8152508160800151600481518110610807576108066113c9565b5b602002602001018190525090565b61081d610f64565b610825610f7c565b835f0151815f6003811061083c5761083b6113c9565b5b60200201818152505083602001518160016003811061085e5761085d6113c9565b5b602002018181525050828160026003811061087c5761087b6113c9565b5b6020020181815250505f60608360808460076107d05a03fa9050805f81036108a057fe5b50806108aa575f5ffd5b505092915050565b6108ba610f64565b6108c2610f9e565b835f0151815f600481106108d9576108d86113c9565b5b6020020181815250508360200151816001600481106108fb576108fa6113c9565b5b602002018181525050825f01518160026004811061091c5761091b6113c9565b5b60200201818152505082602001518160036004811061093e5761093d6113c9565b5b6020020181815250505f60608360c08460066107d05a03fa9050805f810361096257fe5b508061096c575f5ffd5b505092915050565b61097c610f64565b5f7f30644e72e131a029b85045b68181585d97816a916871ca8d3c208c16d87cfd4790505f835f01511480156109b557505f8360200151145b156109d75760405180604001604052805f81526020015f815250915050610a0d565b6040518060400160405280845f015181526020018285602001516109fb9190611483565b83610a0691906114b3565b8152509150505b919050565b5f5f600467ffffffffffffffff811115610a2f57610a2e61104b565b5b604051908082528060200260200182016040528015610a6857816020015b610a55610f64565b815260200190600190039081610a4d5790505b5090505f600467ffffffffffffffff811115610a8757610a8661104b565b5b604051908082528060200260200182016040528015610ac057816020015b610aad610fc0565b815260200190600190039081610aa55790505b5090508a825f81518110610ad757610ad66113c9565b5b60200260200101819052508882600181518110610af757610af66113c9565b5b60200260200101819052508682600281518110610b1757610b166113c9565b5b60200260200101819052508482600381518110610b3757610b366113c9565b5b602002602001018190525089815f81518110610b5657610b556113c9565b5b60200260200101819052508781600181518110610b7657610b756113c9565b5b60200260200101819052508581600281518110610b9657610b956113c9565b5b60200260200101819052508381600381518110610bb657610bb56113c9565b5b6020026020010181905250610bcb8282610bdb565b9250505098975050505050505050565b5f8151835114610be9575f5ffd5b5f835190505f600682610bfc91906114e6565b90505f8167ffffffffffffffff811115610c1957610c1861104b565b5b604051908082528060200260200182016040528015610c475781602001602082028036833780820191505090505b5090505f5f90505b83811015610ec257868181518110610c6a57610c696113c9565b5b60200260200101515f0151825f600684610c8491906114e6565b610c8e9190611423565b81518110610c9f57610c9e6113c9565b5b602002602001018181525050868181518110610cbe57610cbd6113c9565b5b602002602001015160200151826001600684610cda91906114e6565b610ce49190611423565b81518110610cf557610cf46113c9565b5b602002602001018181525050858181518110610d1457610d136113c9565b5b60200260200101515f0151600160028110610d3257610d316113c9565b5b6020020151826002600684610d4791906114e6565b610d519190611423565b81518110610d6257610d616113c9565b5b602002602001018181525050858181518110610d8157610d806113c9565b5b60200260200101515f01515f60028110610d9e57610d9d6113c9565b5b6020020151826003600684610db391906114e6565b610dbd9190611423565b81518110610dce57610dcd6113c9565b5b602002602001018181525050858181518110610ded57610dec6113c9565b5b602002602001015160200151600160028110610e0c57610e0b6113c9565b5b6020020151826004600684610e2191906114e6565b610e2b9190611423565b81518110610e3c57610e3b6113c9565b5b602002602001018181525050858181518110610e5b57610e5a6113c9565b5b6020026020010151602001515f60028110610e7957610e786113c9565b5b6020020151826005600684610e8e91906114e6565b610e989190611423565b81518110610ea957610ea86113c9565b5b6020026020010181815250508080600101915050610c4f565b50610ecb610fe6565b5f602082602086026020860160086107d05a03fa9050805f8103610eeb57fe5b5080610ef5575f5ffd5b5f825f60018110610f0957610f086113c9565b5b602002015114159550505050505092915050565b6040518060a00160405280610f30610f64565b8152602001610f3d610fc0565b8152602001610f4a610fc0565b8152602001610f57610fc0565b8152602001606081525090565b60405180604001604052805f81526020015f81525090565b6040518060600160405280600390602082028036833780820191505090505090565b6040518060800160405280600490602082028036833780820191505090505090565b6040518060400160405280610fd3611008565b8152602001610fe0611008565b81525090565b6040518060200160405280600190602082028036833780820191505090505090565b6040518060400160405280600290602082028036833780820191505090505090565b5f604051905090565b5f5ffd5b5f5ffd5b5f601f19601f8301169050919050565b7f4e487b71000000000000000000000000000000000000000000000000000000005f52604160045260245ffd5b6110818261103b565b810181811067ffffffffffffffff821117156110a05761109f61104b565b5b80604052505050565b5f6110b261102a565b90506110be8282611078565b919050565b5f819050919050565b6110d5816110c3565b81146110df575f5ffd5b50565b5f813590506110f0816110cc565b92915050565b5f6040828403121561110b5761110a611037565b5b61111560406110a9565b90505f611124848285016110e2565b5f830152506020611137848285016110e2565b60208301525092915050565b5f5ffd5b5f67ffffffffffffffff8211156111615761116061104b565b5b602082029050919050565b5f5ffd5b5f61118261117d84611147565b6110a9565b9050806020840283018581111561119c5761119b61116c565b5b835b818110156111c557806111b188826110e2565b84526020840193505060208101905061119e565b5050509392505050565b5f82601f8301126111e3576111e2611143565b5b60026111f0848285611170565b91505092915050565b5f6080828403121561120e5761120d611037565b5b61121860406110a9565b90505f611227848285016111cf565b5f83015250604061123a848285016111cf565b60208301525092915050565b5f610100828403121561125c5761125b611037565b5b61126660606110a9565b90505f611275848285016110f6565b5f830152506040611288848285016111f9565b60208301525060c061129c848285016110f6565b60408301525092915050565b5f67ffffffffffffffff8211156112c2576112c161104b565b5b602082029050919050565b5f6112df6112da846112a8565b6110a9565b905080602084028301858111156112f9576112f861116c565b5b835b81811015611322578061130e88826110e2565b8452602084019350506020810190506112fb565b5050509392505050565b5f82601f8301126113405761133f611143565b5b600461134d8482856112cd565b91505092915050565b5f5f610180838503121561136d5761136c611033565b5b5f61137a85828601611246565b92505061010061138c8582860161132c565b9150509250929050565b5f8115159050919050565b6113aa81611396565b82525050565b5f6020820190506113c35f8301846113a1565b92915050565b7f4e487b71000000000000000000000000000000000000000000000000000000005f52603260045260245ffd5b7f4e487b71000000000000000000000000000000000000000000000000000000005f52601160045260245ffd5b5f61142d826110c3565b9150611438836110c3565b92508282019050808211156114505761144f6113f6565b5b92915050565b7f4e487b71000000000000000000000000000000000000000000000000000000005f52601260045260245ffd5b5f61148d826110c3565b9150611498836110c3565b9250826114a8576114a7611456565b5b828206905092915050565b5f6114bd826110c3565b91506114c8836110c3565b92508282039050818111156114e0576114df6113f6565b5b92915050565b5f6114f0826110c3565b91506114fb836110c3565b9250828202611509816110c3565b915082820484148315176115205761151f6113f6565b5b509291505056fea26469706673582212206c8e512477d84d96fab0a848f702c45e11b025f1a7776ec381564c17212b45c464736f6c634300081e0033",
					"opcodes": "PUSH1 0x80 PUSH1 0x40 MSTORE CALLVALUE DUP1 ISZERO PUSH1 0xE JUMPI PUSH0 PUSH0 REVERT JUMPDEST POP PUSH2 0x155D DUP1 PUSH2 0x1C PUSH0 CODECOPY PUSH0 RETURN INVALID PUSH1 0x80 PUSH1 0x40 MSTORE CALLVALUE DUP1 ISZERO PUSH2 0xF JUMPI PUSH0 PUSH0 REVERT JUMPDEST POP PUSH1 0x4 CALLDATASIZE LT PUSH2 0x29 JUMPI PUSH0 CALLDATALOAD PUSH1 0xE0 SHR DUP1 PUSH4 0x799AFA76 EQ PUSH2 0x2D JUMPI JUMPDEST PUSH0 PUSH0 REVERT JUMPDEST PUSH2 0x47 PUSH1 0x4 DUP1 CALLDATASIZE SUB DUP2 ADD SWAP1 PUSH2 0x42 SWAP2 SWAP1 PUSH2 0x1356 JUMP JUMPDEST PUSH2 0x5D JUMP JUMPDEST PUSH1 0x40 MLOAD PUSH2 0x54 SWAP2 SWAP1 PUSH2 0x13B0 JUMP JUMPDEST PUSH1 0x40 MLOAD DUP1 SWAP2 SUB SWAP1 RETURN JUMPDEST PUSH0 PUSH0 PUSH1 0x4 PUSH8 0xFFFFFFFFFFFFFFFF DUP2 GT ISZERO PUSH2 0x7A JUMPI PUSH2 0x79 PUSH2 0x104B JUMP JUMPDEST JUMPDEST PUSH1 0x40 MLOAD SWAP1 DUP1 DUP3 MSTORE DUP1 PUSH1 0x20 MUL PUSH1 0x20 ADD DUP3 ADD PUSH1 0x40 MSTORE DUP1 ISZERO PUSH2 0xA8 JUMPI DUP2 PUSH1 0x20 ADD PUSH1 0x20 DUP3 MUL DUP1 CALLDATASIZE DUP4 CALLDATACOPY DUP1 DUP3 ADD SWAP2 POP POP SWAP1 POP JUMPDEST POP SWAP1 POP PUSH0 PUSH0 SWAP1 POP JUMPDEST PUSH1 0x4 DUP2 LT ISZERO PUSH2 0xFD JUMPI DUP4 DUP2 PUSH1 0x4 DUP2 LT PUSH2 0xCC JUMPI PUSH2 0xCB PUSH2 0x13C9 JUMP JUMPDEST JUMPDEST PUSH1 0x20 MUL ADD MLOAD DUP3 DUP3 DUP2 MLOAD DUP2 LT PUSH2 0xE4 JUMPI PUSH2 0xE3 PUSH2 0x13C9 JUMP JUMPDEST JUMPDEST PUSH1 0x20 MUL PUSH1 0x20 ADD ADD DUP2 DUP2 MSTORE POP POP DUP1 DUP1 PUSH1 0x1 ADD SWAP2 POP POP PUSH2 0xB0 JUMP JUMPDEST POP PUSH0 PUSH2 0x109 DUP3 DUP7 PUSH2 0x123 JUMP JUMPDEST SUB PUSH2 0x118 JUMPI PUSH1 0x1 SWAP2 POP POP PUSH2 0x11D JUMP JUMPDEST PUSH0 SWAP2 POP POP JUMPDEST SWAP3 SWAP2 POP POP JUMP JUMPDEST PUSH0 PUSH0 PUSH32 0x30644E72E131A029B85045B68181585D2833E84879B9709143E1F593F0000001 SWAP1 POP PUSH0 PUSH2 0x151 PUSH2 0x2AB JUMP JUMPDEST SWAP1 POP DUP1 PUSH1 0x80 ADD MLOAD MLOAD PUSH1 0x1 DUP7 MLOAD PUSH2 0x167 SWAP2 SWAP1 PUSH2 0x1423 JUMP JUMPDEST EQ PUSH2 0x170 JUMPI PUSH0 PUSH0 REVERT JUMPDEST PUSH0 PUSH1 0x40 MLOAD DUP1 PUSH1 0x40 ADD PUSH1 0x40 MSTORE DUP1 PUSH0 DUP2 MSTORE PUSH1 0x20 ADD PUSH0 DUP2 MSTORE POP SWAP1 POP PUSH0 PUSH0 SWAP1 POP JUMPDEST DUP7 MLOAD DUP2 LT ISZERO PUSH2 0x221 JUMPI DUP4 DUP8 DUP3 DUP2 MLOAD DUP2 LT PUSH2 0x1AA JUMPI PUSH2 0x1A9 PUSH2 0x13C9 JUMP JUMPDEST JUMPDEST PUSH1 0x20 MUL PUSH1 0x20 ADD ADD MLOAD LT PUSH2 0x1BB JUMPI PUSH0 PUSH0 REVERT JUMPDEST PUSH2 0x212 DUP3 PUSH2 0x20D DUP6 PUSH1 0x80 ADD MLOAD PUSH1 0x1 DUP6 PUSH2 0x1D4 SWAP2 SWAP1 PUSH2 0x1423 JUMP JUMPDEST DUP2 MLOAD DUP2 LT PUSH2 0x1E5 JUMPI PUSH2 0x1E4 PUSH2 0x13C9 JUMP JUMPDEST JUMPDEST PUSH1 0x20 MUL PUSH1 0x20 ADD ADD MLOAD DUP11 DUP6 DUP2 MLOAD DUP2 LT PUSH2 0x200 JUMPI PUSH2 0x1FF PUSH2 0x13C9 JUMP JUMPDEST JUMPDEST PUSH1 0x20 MUL PUSH1 0x20 ADD ADD MLOAD PUSH2 0x815 JUMP JUMPDEST PUSH2 0x8B2 JUMP JUMPDEST SWAP2 POP DUP1 DUP1 PUSH1 0x1 ADD SWAP2 POP POP PUSH2 0x18D JUMP JUMPDEST POP PUSH2 0x24A DUP2 DUP4 PUSH1 0x80 ADD MLOAD PUSH0 DUP2 MLOAD DUP2 LT PUSH2 0x23D JUMPI PUSH2 0x23C PUSH2 0x13C9 JUMP JUMPDEST JUMPDEST PUSH1 0x20 MUL PUSH1 0x20 ADD ADD MLOAD PUSH2 0x8B2 JUMP JUMPDEST SWAP1 POP PUSH2 0x28E DUP6 PUSH0 ADD MLOAD DUP7 PUSH1 0x20 ADD MLOAD PUSH2 0x261 DUP5 PUSH2 0x974 JUMP JUMPDEST DUP6 PUSH1 0x40 ADD MLOAD PUSH2 0x273 DUP11 PUSH1 0x40 ADD MLOAD PUSH2 0x974 JUMP JUMPDEST DUP8 PUSH1 0x60 ADD MLOAD PUSH2 0x284 DUP10 PUSH0 ADD MLOAD PUSH2 0x974 JUMP JUMPDEST DUP10 PUSH1 0x20 ADD MLOAD PUSH2 0xA12 JUMP JUMPDEST PUSH2 0x29E JUMPI PUSH1 0x1 SWAP4 POP POP POP POP PUSH2 0x2A5 JUMP JUMPDEST PUSH0 SWAP4 POP POP POP POP JUMPDEST SWAP3 SWAP2 POP POP JUMP JUMPDEST PUSH2 0x2B3 PUSH2 0xF1D JUMP JUMPDEST PUSH1 0x40 MLOAD DUP1 PUSH1 0x40 ADD PUSH1 0x40 MSTORE DUP1 PUSH32 0x1F7831672127BB363374647D0C87A31CE91A1C685D875A53A5CAC600FAEDED4F DUP2 MSTORE PUSH1 0x20 ADD PUSH32 0x7670423DE21A7BDB3578FFB77B415C2EA786E4E502990BD70F5466F912D2852 DUP2 MSTORE POP DUP2 PUSH0 ADD DUP2 SWAP1 MSTORE POP PUSH1 0x40 MLOAD DUP1 PUSH1 0x40 ADD PUSH1 0x40 MSTORE DUP1 PUSH1 0x40 MLOAD DUP1 PUSH1 0x40 ADD PUSH1 0x40 MSTORE DUP1 PUSH32 0x159B583D51881A3D382C9A4E3FD9A650135055063B6A6B22721D76173DFBAB2D DUP2 MSTORE PUSH1 0x20 ADD PUSH32 0x4139747AF7047FE4CF264D25B15235F4EC43BB38E7A688567F031C5E2D920E0 DUP2 MSTORE POP DUP2 MSTORE PUSH1 0x20 ADD PUSH1 0x40 MLOAD DUP1 PUSH1 0x40 ADD PUSH1 0x40 MSTORE DUP1 PUSH32 0x1FC4A8D05593DB0D87F4F97E5F91AE18430ACA05A0CF38232EEAE735FE87454B DUP2 MSTORE PUSH1 0x20 ADD PUSH32 0x10EA261691552FFB0A35FED505CD904AC01E01ABF590A16AD75E2B8986F8A0A6 DUP2 MSTORE POP DUP2 MSTORE POP DUP2 PUSH1 0x20 ADD DUP2 SWAP1 MSTORE POP PUSH1 0x40 MLOAD DUP1 PUSH1 0x40 ADD PUSH1 0x40 MSTORE DUP1 PUSH1 0x40 MLOAD DUP1 PUSH1 0x40 ADD PUSH1 0x40 MSTORE DUP1 PUSH32 0x2F4D859E096097FCB241BDB87257410EE80B2524F44733A8ADD221E92BBB9D48 DUP2 MSTORE PUSH1 0x20 ADD PUSH32 0x216BEDC2A1AB164892327794537E324BDB9118BF6EBE21459983E953B550BEA DUP2 MSTORE POP DUP2 MSTORE PUSH1 0x20 ADD PUSH1 0x40 MLOAD DUP1 PUSH1 0x40 ADD PUSH1 0x40 MSTORE DUP1 PUSH32 0x2E50D45CEB04B952F390BD9E7C421DB774D9CAD30BE64A8541D221F9CAB6FE05 DUP2 MSTORE PUSH1 0x20 ADD PUSH32 0x92209F9C9688A024370181DC66215AC222860E409B6AA5BC1F01FCB4BAADF70 DUP2 MSTORE POP DUP2 MSTORE POP DUP2 PUSH1 0x40 ADD DUP2 SWAP1 MSTORE POP PUSH1 0x40 MLOAD DUP1 PUSH1 0x40 ADD PUSH1 0x40 MSTORE DUP1 PUSH1 0x40 MLOAD DUP1 PUSH1 0x40 ADD PUSH1 0x40 MSTORE DUP1 PUSH32 0x306D089D5F2BB7C7F566C89AE7621FD4F9A125E4C1634D121F4346D19542B60 DUP2 MSTORE PUSH1 0x20 ADD PUSH32 0x29B81308A9E273F8CF524D7AB1A777751FDC2477F3F0921756E6A3D1F6C1996B DUP2 MSTORE POP DUP2 MSTORE PUSH1 0x20 ADD PUSH1 0x40 MLOAD DUP1 PUSH1 0x40 ADD PUSH1 0x40 MSTORE DUP1 PUSH32 0x1D7247377DF3C9907BC574ECA03EDB7EE6BE018F01A00897DDA62C17D9218575 DUP2 MSTORE PUSH1 0x20 ADD PUSH32 0x289C126CE263DE6300C6134B4E06559E4023BB41546866016334E23347D44F56 DUP2 MSTORE POP DUP2 MSTORE POP DUP2 PUSH1 0x60 ADD DUP2 SWAP1 MSTORE POP PUSH1 0x5 PUSH8 0xFFFFFFFFFFFFFFFF DUP2 GT ISZERO PUSH2 0x579 JUMPI PUSH2 0x578 PUSH2 0x104B JUMP JUMPDEST JUMPDEST PUSH1 0x40 MLOAD SWAP1 DUP1 DUP3 MSTORE DUP1 PUSH1 0x20 MUL PUSH1 0x20 ADD DUP3 ADD PUSH1 0x40 MSTORE DUP1 ISZERO PUSH2 0x5B2 JUMPI DUP2 PUSH1 0x20 ADD JUMPDEST PUSH2 0x59F PUSH2 0xF64 JUMP JUMPDEST DUP2 MSTORE PUSH1 0x20 ADD SWAP1 PUSH1 0x1 SWAP1 SUB SWAP1 DUP2 PUSH2 0x597 JUMPI SWAP1 POP JUMPDEST POP DUP2 PUSH1 0x80 ADD DUP2 SWAP1 MSTORE POP PUSH1 0x40 MLOAD DUP1 PUSH1 0x40 ADD PUSH1 0x40 MSTORE DUP1 PUSH32 0x1FF6515DF24714BEB6BEC648702CD88F0786A266AAF3CEE0C4791CFF6C53D35E DUP2 MSTORE PUSH1 0x20 ADD PUSH32 0x1E74942A208AB7636752DD9F910B0DE565526B80AB4DBDB1942B116D02603E21 DUP2 MSTORE POP DUP2 PUSH1 0x80 ADD MLOAD PUSH0 DUP2 MLOAD DUP2 LT PUSH2 0x627 JUMPI PUSH2 0x626 PUSH2 0x13C9 JUMP JUMPDEST JUMPDEST PUSH1 0x20 MUL PUSH1 0x20 ADD ADD DUP2 SWAP1 MSTORE POP PUSH1 0x40 MLOAD DUP1 PUSH1 0x40 ADD PUSH1 0x40 MSTORE DUP1 PUSH32 0xA90E62D51D3F72378DDBE28514CDCAC96876323092907FCCA74F8CF8418B7F0 DUP2 MSTORE PUSH1 0x20 ADD PUSH32 0x300713F90EE55C54909DB0ADABBF98487A86992617E1143F646ED9F460D52EAD DUP2 MSTORE POP DUP2 PUSH1 0x80 ADD MLOAD PUSH1 0x1 DUP2 MLOAD DUP2 LT PUSH2 0x69F JUMPI PUSH2 0x69E PUSH2 0x13C9 JUMP JUMPDEST JUMPDEST PUSH1 0x20 MUL PUSH1 0x20 ADD ADD DUP2 SWAP1 MSTORE POP PUSH1 0x40 MLOAD DUP1 PUSH1 0x40 ADD PUSH1 0x40 MSTORE DUP1 PUSH32 0x1654353E47FF9707AB0F55AF2ED3CA63994D4C0E6389CB4752844400A13C2905 DUP2 MSTORE PUSH1 0x20 ADD PUSH32 0xC78254A4716A42E8BF12038F2A11F9C66DCDCA054CAAEFE00A540EE0BEAFDE6 DUP2 MSTORE POP DUP2 PUSH1 0x80 ADD MLOAD PUSH1 0x2 DUP2 MLOAD DUP2 LT PUSH2 0x717 JUMPI PUSH2 0x716 PUSH2 0x13C9 JUMP JUMPDEST JUMPDEST PUSH1 0x20 MUL PUSH1 0x20 ADD ADD DUP2 SWAP1 MSTORE POP PUSH1 0x40 MLOAD DUP1 PUSH1 0x40 ADD PUSH1 0x40 MSTORE DUP1 PUSH32 0x1DAE2230CC5D0736855C7052A432659F83440D5886F19E6FFE4035D58BB16168 DUP2 MSTORE PUSH1 0x20 ADD PUSH32 0x129A45FEFAD763D1E4EBAA56312122372FCBA4CEA3B6E81DC6CFE3CEFDE2026B DUP2 MSTORE POP DUP2 PUSH1 0x80 ADD MLOAD PUSH1 0x3 DUP2 MLOAD DUP2 LT PUSH2 0x78F JUMPI PUSH2 0x78E PUSH2 0x13C9 JUMP JUMPDEST JUMPDEST PUSH1 0x20 MUL PUSH1 0x20 ADD ADD DUP2 SWAP1 MSTORE POP PUSH1 0x40 MLOAD DUP1 PUSH1 0x40 ADD PUSH1 0x40 MSTORE DUP1 PUSH32 0x6DE78707393BD9EB1C9D0A3ADC107320BBC90BA7F1985E844B7A9D30970403B DUP2 MSTORE PUSH1 0x20 ADD PUSH32 0x22500A1CB2C7A6DB8D193E1A32D1054D581D6BC6A066637DDF2D24E26C56E8CE DUP2 MSTORE POP DUP2 PUSH1 0x80 ADD MLOAD PUSH1 0x4 DUP2 MLOAD DUP2 LT PUSH2 0x807 JUMPI PUSH2 0x806 PUSH2 0x13C9 JUMP JUMPDEST JUMPDEST PUSH1 0x20 MUL PUSH1 0x20 ADD ADD DUP2 SWAP1 MSTORE POP SWAP1 JUMP JUMPDEST PUSH2 0x81D PUSH2 0xF64 JUMP JUMPDEST PUSH2 0x825 PUSH2 0xF7C JUMP JUMPDEST DUP4 PUSH0 ADD MLOAD DUP2 PUSH0 PUSH1 0x3 DUP2 LT PUSH2 0x83C JUMPI PUSH2 0x83B PUSH2 0x13C9 JUMP JUMPDEST JUMPDEST PUSH1 0x20 MUL ADD DUP2 DUP2 MSTORE POP POP DUP4 PUSH1 0x20 ADD MLOAD DUP2 PUSH1 0x1 PUSH1 0x3 DUP2 LT PUSH2 0x85E JUMPI PUSH2 0x85D PUSH2 0x13C9 JUMP JUMPDEST JUMPDEST PUSH1 0x20 MUL ADD DUP2 DUP2 MSTORE POP POP DUP3 DUP2 PUSH1 0x2 PUSH1 0x3 DUP2 LT PUSH2 0x87C JUMPI PUSH2 0x87B PUSH2 0x13C9 JUMP JUMPDEST JUMPDEST PUSH1 0x20 MUL ADD DUP2 DUP2 MSTORE POP POP PUSH0 PUSH1 0x60 DUP4 PUSH1 0x80 DUP5 PUSH1 0x7 PUSH2 0x7D0 GAS SUB STATICCALL SWAP1 POP DUP1 PUSH0 DUP2 SUB PUSH2 0x8A0 JUMPI INVALID JUMPDEST POP DUP1 PUSH2 0x8AA JUMPI PUSH0 PUSH0 REVERT JUMPDEST POP POP SWAP3 SWAP2 POP POP JUMP JUMPDEST PUSH2 0x8BA PUSH2 0xF64 JUMP JUMPDEST PUSH2 0x8C2 PUSH2 0xF9E JUMP JUMPDEST DUP4 PUSH0 ADD MLOAD DUP2 PUSH0 PUSH1 0x4 DUP2 LT PUSH2 0x8D9 JUMPI PUSH2 0x8D8 PUSH2 0x13C9 JUMP JUMPDEST JUMPDEST PUSH1 0x20 MUL ADD DUP2 DUP2 MSTORE POP POP DUP4 PUSH1 0x20 ADD MLOAD DUP2 PUSH1 0x1 PUSH1 0x4 DUP2 LT PUSH2 0x8FB JUMPI PUSH2 0x8FA PUSH2 0x13C9 JUMP JUMPDEST JUMPDEST PUSH1 0x20 MUL ADD DUP2 DUP2 MSTORE POP POP DUP3 PUSH0 ADD MLOAD DUP2 PUSH1 0x2 PUSH1 0x4 DUP2 LT PUSH2 0x91C JUMPI PUSH2 0x91B PUSH2 0x13C9 JUMP JUMPDEST JUMPDEST PUSH1 0x20 MUL ADD DUP2 DUP2 MSTORE POP POP DUP3 PUSH1 0x20 ADD MLOAD DUP2 PUSH1 0x3 PUSH1 0x4 DUP2 LT PUSH2 0x93E JUMPI PUSH2 0x93D PUSH2 0x13C9 JUMP JUMPDEST JUMPDEST PUSH1 0x20 MUL ADD DUP2 DUP2 MSTORE POP POP PUSH0 PUSH1 0x60 DUP4 PUSH1 0xC0 DUP5 PUSH1 0x6 PUSH2 0x7D0 GAS SUB STATICCALL SWAP1 POP DUP1 PUSH0 DUP2 SUB PUSH2 0x962 JUMPI INVALID JUMPDEST POP DUP1 PUSH2 0x96C JUMPI PUSH0 PUSH0 REVERT JUMPDEST POP POP SWAP3 SWAP2 POP POP JUMP JUMPDEST PUSH2 0x97C PUSH2 0xF64 JUMP JUMPDEST PUSH0 PUSH32 0x30644E72E131A029B85045B68181585D97816A916871CA8D3C208C16D87CFD47 SWAP1 POP PUSH0 DUP4 PUSH0 ADD MLOAD EQ DUP1 ISZERO PUSH2 0x9B5 JUMPI POP PUSH0 DUP4 PUSH1 0x20 ADD MLOAD EQ JUMPDEST ISZERO PUSH2 0x9D7 JUMPI PUSH1 0x40 MLOAD DUP1 PUSH1 0x40 ADD PUSH1 0x40 MSTORE DUP1 PUSH0 DUP2 MSTORE PUSH1 0x20 ADD PUSH0 DUP2 MSTORE POP SWAP2 POP POP PUSH2 0xA0D JUMP JUMPDEST PUSH1 0x40 MLOAD DUP1 PUSH1 0x40 ADD PUSH1 0x40 MSTORE DUP1 DUP5 PUSH0 ADD MLOAD DUP2 MSTORE PUSH1 0x20 ADD DUP3 DUP6 PUSH1 0x20 ADD MLOAD PUSH2 0x9FB SWAP2 SWAP1 PUSH2 0x1483 JUMP JUMPDEST DUP4 PUSH2 0xA06 SWAP2 SWAP1 PUSH2 0x14B3 JUMP JUMPDEST DUP2 MSTORE POP SWAP2 POP POP JUMPDEST SWAP2 SWAP1 POP JUMP JUMPDEST PUSH0 PUSH0 PUSH1 0x4 PUSH8 0xFFFFFFFFFFFFFFFF DUP2 GT ISZERO PUSH2 0xA2F JUMPI PUSH2 0xA2E PUSH2 0x104B JUMP JUMPDEST JUMPDEST PUSH1 0x40 MLOAD SWAP1 DUP1 DUP3 MSTORE DUP1 PUSH1 0x20 MUL PUSH1 0x20 ADD DUP3 ADD PUSH1 0x40 MSTORE DUP1 ISZERO PUSH2 0xA68 JUMPI DUP2 PUSH1 0x20 ADD JUMPDEST PUSH2 0xA55 PUSH2 0xF64 JUMP JUMPDEST DUP2 MSTORE PUSH1 0x20 ADD SWAP1 PUSH1 0x1 SWAP1 SUB SWAP1 DUP2 PUSH2 0xA4D JUMPI SWAP1 POP JUMPDEST POP SWAP1 POP PUSH0 PUSH1 0x4 PUSH8 0xFFFFFFFFFFFFFFFF DUP2 GT ISZERO PUSH2 0xA87 JUMPI PUSH2 0xA86 PUSH2 0x104B JUMP JUMPDEST JUMPDEST PUSH1 0x40 MLOAD SWAP1 DUP1 DUP3 MSTORE DUP1 PUSH1 0x20 MUL PUSH1 0x20 ADD DUP3 ADD PUSH1 0x40 MSTORE DUP1 ISZERO PUSH2 0xAC0 JUMPI DUP2 PUSH1 0x20 ADD JUMPDEST PUSH2 0xAAD PUSH2 0xFC0 JUMP JUMPDEST DUP2 MSTORE PUSH1 0x20 ADD SWAP1 PUSH1 0x1 SWAP1 SUB SWAP1 DUP2 PUSH2 0xAA5 JUMPI SWAP1 POP JUMPDEST POP SWAP1 POP DUP11 DUP3 PUSH0 DUP2 MLOAD DUP2 LT PUSH2 0xAD7 JUMPI PUSH2 0xAD6 PUSH2 0x13C9 JUMP JUMPDEST JUMPDEST PUSH1 0x20 MUL PUSH1 0x20 ADD ADD DUP2 SWAP1 MSTORE POP DUP9 DUP3 PUSH1 0x1 DUP2 MLOAD DUP2 LT PUSH2 0xAF7 JUMPI PUSH2 0xAF6 PUSH2 0x13C9 JUMP JUMPDEST JUMPDEST PUSH1 0x20 MUL PUSH1 0x20 ADD ADD DUP2 SWAP1 MSTORE POP DUP7 DUP3 PUSH1 0x2 DUP2 MLOAD DUP2 LT PUSH2 0xB17 JUMPI PUSH2 0xB16 PUSH2 0x13C9 JUMP JUMPDEST JUMPDEST PUSH1 0x20 MUL PUSH1 0x20 ADD ADD DUP2 SWAP1 MSTORE POP DUP5 DUP3 PUSH1 0x3 DUP2 MLOAD DUP2 LT PUSH2 0xB37 JUMPI PUSH2 0xB36 PUSH2 0x13C9 JUMP JUMPDEST JUMPDEST PUSH1 0x20 MUL PUSH1 0x20 ADD ADD DUP2 SWAP1 MSTORE POP DUP10 DUP2 PUSH0 DUP2 MLOAD DUP2 LT PUSH2 0xB56 JUMPI PUSH2 0xB55 PUSH2 0x13C9 JUMP JUMPDEST JUMPDEST PUSH1 0x20 MUL PUSH1 0x20 ADD ADD DUP2 SWAP1 MSTORE POP DUP8 DUP2 PUSH1 0x1 DUP2 MLOAD DUP2 LT PUSH2 0xB76 JUMPI PUSH2 0xB75 PUSH2 0x13C9 JUMP JUMPDEST JUMPDEST PUSH1 0x20 MUL PUSH1 0x20 ADD ADD DUP2 SWAP1 MSTORE POP DUP6 DUP2 PUSH1 0x2 DUP2 MLOAD DUP2 LT PUSH2 0xB96 JUMPI PUSH2 0xB95 PUSH2 0x13C9 JUMP JUMPDEST JUMPDEST PUSH1 0x20 MUL PUSH1 0x20 ADD ADD DUP2 SWAP1 MSTORE POP DUP4 DUP2 PUSH1 0x3 DUP2 MLOAD DUP2 LT PUSH2 0xBB6 JUMPI PUSH2 0xBB5 PUSH2 0x13C9 JUMP JUMPDEST JUMPDEST PUSH1 0x20 MUL PUSH1 0x20 ADD ADD DUP2 SWAP1 MSTORE POP PUSH2 0xBCB DUP3 DUP3 PUSH2 0xBDB JUMP JUMPDEST SWAP3 POP POP POP SWAP9 SWAP8 POP POP POP POP POP POP POP POP JUMP JUMPDEST PUSH0 DUP2 MLOAD DUP4 MLOAD EQ PUSH2 0xBE9 JUMPI PUSH0 PUSH0 REVERT JUMPDEST PUSH0 DUP4 MLOAD SWAP1 POP PUSH0 PUSH1 0x6 DUP3 PUSH2 0xBFC SWAP2 SWAP1 PUSH2 0x14E6 JUMP JUMPDEST SWAP1 POP PUSH0 DUP2 PUSH8 0xFFFFFFFFFFFFFFFF DUP2 GT ISZERO PUSH2 0xC19 JUMPI PUSH2 0xC18 PUSH2 0x104B JUMP JUMPDEST JUMPDEST PUSH1 0x40 MLOAD SWAP1 DUP1 DUP3 MSTORE DUP1 PUSH1 0x20 MUL PUSH1 0x20 ADD DUP3 ADD PUSH1 0x40 MSTORE DUP1 ISZERO PUSH2 0xC47 JUMPI DUP2 PUSH1 0x20 ADD PUSH1 0x20 DUP3 MUL DUP1 CALLDATASIZE DUP4 CALLDATACOPY DUP1 DUP3 ADD SWAP2 POP POP SWAP1 POP JUMPDEST POP SWAP1 POP PUSH0 PUSH0 SWAP1 POP JUMPDEST DUP4 DUP2 LT ISZERO PUSH2 0xEC2 JUMPI DUP7 DUP2 DUP2 MLOAD DUP2 LT PUSH2 0xC6A JUMPI PUSH2 0xC69 PUSH2 0x13C9 JUMP JUMPDEST JUMPDEST PUSH1 0x20 MUL PUSH1 0x20 ADD ADD MLOAD PUSH0 ADD MLOAD DUP3 PUSH0 PUSH1 0x6 DUP5 PUSH2 0xC84 SWAP2 SWAP1 PUSH2 0x14E6 JUMP JUMPDEST PUSH2 0xC8E SWAP2 SWAP1 PUSH2 0x1423 JUMP JUMPDEST DUP2 MLOAD DUP2 LT PUSH2 0xC9F JUMPI PUSH2 0xC9E PUSH2 0x13C9 JUMP JUMPDEST JUMPDEST PUSH1 0x20 MUL PUSH1 0x20 ADD ADD DUP2 DUP2 MSTORE POP POP DUP7 DUP2 DUP2 MLOAD DUP2 LT PUSH2 0xCBE JUMPI PUSH2 0xCBD PUSH2 0x13C9 JUMP JUMPDEST JUMPDEST PUSH1 0x20 MUL PUSH1 0x20 ADD ADD MLOAD PUSH1 0x20 ADD MLOAD DUP3 PUSH1 0x1 PUSH1 0x6 DUP5 PUSH2 0xCDA SWAP2 SWAP1 PUSH2 0x14E6 JUMP JUMPDEST PUSH2 0xCE4 SWAP2 SWAP1 PUSH2 0x1423 JUMP JUMPDEST DUP2 MLOAD DUP2 LT PUSH2 0xCF5 JUMPI PUSH2 0xCF4 PUSH2 0x13C9 JUMP JUMPDEST JUMPDEST PUSH1 0x20 MUL PUSH1 0x20 ADD ADD DUP2 DUP2 MSTORE POP POP DUP6 DUP2 DUP2 MLOAD DUP2 LT PUSH2 0xD14 JUMPI PUSH2 0xD13 PUSH2 0x13C9 JUMP JUMPDEST JUMPDEST PUSH1 0x20 MUL PUSH1 0x20 ADD ADD MLOAD PUSH0 ADD MLOAD PUSH1 0x1 PUSH1 0x2 DUP2 LT PUSH2 0xD32 JUMPI PUSH2 0xD31 PUSH2 0x13C9 JUMP JUMPDEST JUMPDEST PUSH1 0x20 MUL ADD MLOAD DUP3 PUSH1 0x2 PUSH1 0x6 DUP5 PUSH2 0xD47 SWAP2 SWAP1 PUSH2 0x14E6 JUMP JUMPDEST PUSH2 0xD51 SWAP2 SWAP1 PUSH2 0x1423 JUMP JUMPDEST DUP2 MLOAD DUP2 LT PUSH2 0xD62 JUMPI PUSH2 0xD61 PUSH2 0x13C9 JUMP JUMPDEST JUMPDEST PUSH1 0x20 MUL PUSH1 0x20 ADD ADD DUP2 DUP2 MSTORE POP POP DUP6 DUP2 DUP2 MLOAD DUP2 LT PUSH2 0xD81 JUMPI PUSH2 0xD80 PUSH2 0x13C9 JUMP JUMPDEST JUMPDEST PUSH1 0x20 MUL PUSH1 0x20 ADD ADD MLOAD PUSH0 ADD MLOAD PUSH0 PUSH1 0x2 DUP2 LT PUSH2 0xD9E JUMPI PUSH2 0xD9D PUSH2 0x13C9 JUMP JUMPDEST JUMPDEST PUSH1 0x20 MUL ADD MLOAD DUP3 PUSH1 0x3 PUSH1 0x6 DUP5 PUSH2 0xDB3 SWAP2 SWAP1 PUSH2 0x14E6 JUMP JUMPDEST PUSH2 0xDBD SWAP2 SWAP1 PUSH2 0x1423 JUMP JUMPDEST DUP2 MLOAD DUP2 LT PUSH2 0xDCE JUMPI PUSH2 0xDCD PUSH2 0x13C9 JUMP JUMPDEST JUMPDEST PUSH1 0x20 MUL PUSH1 0x20 ADD ADD DUP2 DUP2 MSTORE POP POP DUP6 DUP2 DUP2 MLOAD DUP2 LT PUSH2 0xDED JUMPI PUSH2 0xDEC PUSH2 0x13C9 JUMP JUMPDEST JUMPDEST PUSH1 0x20 MUL PUSH1 0x20 ADD ADD MLOAD PUSH1 0x20 ADD MLOAD PUSH1 0x1 PUSH1 0x2 DUP2 LT PUSH2 0xE0C JUMPI PUSH2 0xE0B PUSH2 0x13C9 JUMP JUMPDEST JUMPDEST PUSH1 0x20 MUL ADD MLOAD DUP3 PUSH1 0x4 PUSH1 0x6 DUP5 PUSH2 0xE21 SWAP2 SWAP1 PUSH2 0x14E6 JUMP JUMPDEST PUSH2 0xE2B SWAP2 SWAP1 PUSH2 0x1423 JUMP JUMPDEST DUP2 MLOAD DUP2 LT PUSH2 0xE3C JUMPI PUSH2 0xE3B PUSH2 0x13C9 JUMP JUMPDEST JUMPDEST PUSH1 0x20 MUL PUSH1 0x20 ADD ADD DUP2 DUP2 MSTORE POP POP DUP6 DUP2 DUP2 MLOAD DUP2 LT PUSH2 0xE5B JUMPI PUSH2 0xE5A PUSH2 0x13C9 JUMP JUMPDEST JUMPDEST PUSH1 0x20 MUL PUSH1 0x20 ADD ADD MLOAD PUSH1 0x20 ADD MLOAD PUSH0 PUSH1 0x2 DUP2 LT PUSH2 0xE79 JUMPI PUSH2 0xE78 PUSH2 0x13C9 JUMP JUMPDEST JUMPDEST PUSH1 0x20 MUL ADD MLOAD DUP3 PUSH1 0x5 PUSH1 0x6 DUP5 PUSH2 0xE8E SWAP2 SWAP1 PUSH2 0x14E6 JUMP JUMPDEST PUSH2 0xE98 SWAP2 SWAP1 PUSH2 0x1423 JUMP JUMPDEST DUP2 MLOAD DUP2 LT PUSH2 0xEA9 JUMPI PUSH2 0xEA8 PUSH2 0x13C9 JUMP JUMPDEST JUMPDEST PUSH1 0x20 MUL PUSH1 0x20 ADD ADD DUP2 DUP2 MSTORE POP POP DUP1 DUP1 PUSH1 0x1 ADD SWAP2 POP POP PUSH2 0xC4F JUMP JUMPDEST POP PUSH2 0xECB PUSH2 0xFE6 JUMP JUMPDEST PUSH0 PUSH1 0x20 DUP3 PUSH1 0x20 DUP7 MUL PUSH1 0x20 DUP7 ADD PUSH1 0x8 PUSH2 0x7D0 GAS SUB STATICCALL SWAP1 POP DUP1 PUSH0 DUP2 SUB PUSH2 0xEEB JUMPI INVALID JUMPDEST POP DUP1 PUSH2 0xEF5 JUMPI PUSH0 PUSH0 REVERT JUMPDEST PUSH0 DUP3 PUSH0 PUSH1 0x1 DUP2 LT PUSH2 0xF09 JUMPI PUSH2 0xF08 PUSH2 0x13C9 JUMP JUMPDEST JUMPDEST PUSH1 0x20 MUL ADD MLOAD EQ ISZERO SWAP6 POP POP POP POP POP POP SWAP3 SWAP2 POP POP JUMP JUMPDEST PUSH1 0x40 MLOAD DUP1 PUSH1 0xA0 ADD PUSH1 0x40 MSTORE DUP1 PUSH2 0xF30 PUSH2 0xF64 JUMP JUMPDEST DUP2 MSTORE PUSH1 0x20 ADD PUSH2 0xF3D PUSH2 0xFC0 JUMP JUMPDEST DUP2 MSTORE PUSH1 0x20 ADD PUSH2 0xF4A PUSH2 0xFC0 JUMP JUMPDEST DUP2 MSTORE PUSH1 0x20 ADD PUSH2 0xF57 PUSH2 0xFC0 JUMP JUMPDEST DUP2 MSTORE PUSH1 0x20 ADD PUSH1 0x60 DUP2 MSTORE POP SWAP1 JUMP JUMPDEST PUSH1 0x40 MLOAD DUP1 PUSH1 0x40 ADD PUSH1 0x40 MSTORE DUP1 PUSH0 DUP2 MSTORE PUSH1 0x20 ADD PUSH0 DUP2 MSTORE POP SWAP1 JUMP JUMPDEST PUSH1 0x40 MLOAD DUP1 PUSH1 0x60 ADD PUSH1 0x40 MSTORE DUP1 PUSH1 0x3 SWAP1 PUSH1 0x20 DUP3 MUL DUP1 CALLDATASIZE DUP4 CALLDATACOPY DUP1 DUP3 ADD SWAP2 POP POP SWAP1 POP POP SWAP1 JUMP JUMPDEST PUSH1 0x40 MLOAD DUP1 PUSH1 0x80 ADD PUSH1 0x40 MSTORE DUP1 PUSH1 0x4 SWAP1 PUSH1 0x20 DUP3 MUL DUP1 CALLDATASIZE DUP4 CALLDATACOPY DUP1 DUP3 ADD SWAP2 POP POP SWAP1 POP POP SWAP1 JUMP JUMPDEST PUSH1 0x40 MLOAD DUP1 PUSH1 0x40 ADD PUSH1 0x40 MSTORE DUP1 PUSH2 0xFD3 PUSH2 0x1008 JUMP JUMPDEST DUP2 MSTORE PUSH1 0x20 ADD PUSH2 0xFE0 PUSH2 0x1008 JUMP JUMPDEST DUP2 MSTORE POP SWAP1 JUMP JUMPDEST PUSH1 0x40 MLOAD DUP1 PUSH1 0x20 ADD PUSH1 0x40 MSTORE DUP1 PUSH1 0x1 SWAP1 PUSH1 0x20 DUP3 MUL DUP1 CALLDATASIZE DUP4 CALLDATACOPY DUP1 DUP3 ADD SWAP2 POP POP SWAP1 POP POP SWAP1 JUMP JUMPDEST PUSH1 0x40 MLOAD DUP1 PUSH1 0x40 ADD PUSH1 0x40 MSTORE DUP1 PUSH1 0x2 SWAP1 PUSH1 0x20 DUP3 MUL DUP1 CALLDATASIZE DUP4 CALLDATACOPY DUP1 DUP3 ADD SWAP2 POP POP SWAP1 POP POP SWAP1 JUMP JUMPDEST PUSH0 PUSH1 0x40 MLOAD SWAP1 POP SWAP1 JUMP JUMPDEST PUSH0 PUSH0 REVERT JUMPDEST PUSH0 PUSH0 REVERT JUMPDEST PUSH0 PUSH1 0x1F NOT PUSH1 0x1F DUP4 ADD AND SWAP1 POP SWAP2 SWAP1 POP JUMP JUMPDEST PUSH32 0x4E487B7100000000000000000000000000000000000000000000000000000000 PUSH0 MSTORE PUSH1 0x41 PUSH1 0x4 MSTORE PUSH1 0x24 PUSH0 REVERT JUMPDEST PUSH2 0x1081 DUP3 PUSH2 0x103B JUMP JUMPDEST DUP2 ADD DUP2 DUP2 LT PUSH8 0xFFFFFFFFFFFFFFFF DUP3 GT OR ISZERO PUSH2 0x10A0 JUMPI PUSH2 0x109F PUSH2 0x104B JUMP JUMPDEST JUMPDEST DUP1 PUSH1 0x40 MSTORE POP POP POP JUMP JUMPDEST PUSH0 PUSH2 0x10B2 PUSH2 0x102A JUMP JUMPDEST SWAP1 POP PUSH2 0x10BE DUP3 DUP3 PUSH2 0x1078 JUMP JUMPDEST SWAP2 SWAP1 POP JUMP JUMPDEST PUSH0 DUP2 SWAP1 POP SWAP2 SWAP1 POP JUMP JUMPDEST PUSH2 0x10D5 DUP2 PUSH2 0x10C3 JUMP JUMPDEST DUP2 EQ PUSH2 0x10DF JUMPI PUSH0 PUSH0 REVERT JUMPDEST POP JUMP JUMPDEST PUSH0 DUP2 CALLDATALOAD SWAP1 POP PUSH2 0x10F0 DUP2 PUSH2 0x10CC JUMP JUMPDEST SWAP3 SWAP2 POP POP JUMP JUMPDEST PUSH0 PUSH1 0x40 DUP3 DUP5 SUB SLT ISZERO PUSH2 0x110B JUMPI PUSH2 0x110A PUSH2 0x1037 JUMP JUMPDEST JUMPDEST PUSH2 0x1115 PUSH1 0x40 PUSH2 0x10A9 JUMP JUMPDEST SWAP1 POP PUSH0 PUSH2 0x1124 DUP5 DUP3 DUP6 ADD PUSH2 0x10E2 JUMP JUMPDEST PUSH0 DUP4 ADD MSTORE POP PUSH1 0x20 PUSH2 0x1137 DUP5 DUP3 DUP6 ADD PUSH2 0x10E2 JUMP JUMPDEST PUSH1 0x20 DUP4 ADD MSTORE POP SWAP3 SWAP2 POP POP JUMP JUMPDEST PUSH0 PUSH0 REVERT JUMPDEST PUSH0 PUSH8 0xFFFFFFFFFFFFFFFF DUP3 GT ISZERO PUSH2 0x1161 JUMPI PUSH2 0x1160 PUSH2 0x104B JUMP JUMPDEST JUMPDEST PUSH1 0x20 DUP3 MUL SWAP1 POP SWAP2 SWAP1 POP JUMP JUMPDEST PUSH0 PUSH0 REVERT JUMPDEST PUSH0 PUSH2 0x1182 PUSH2 0x117D DUP5 PUSH2 0x1147 JUMP JUMPDEST PUSH2 0x10A9 JUMP JUMPDEST SWAP1 POP DUP1 PUSH1 0x20 DUP5 MUL DUP4 ADD DUP6 DUP2 GT ISZERO PUSH2 0x119C JUMPI PUSH2 0x119B PUSH2 0x116C JUMP JUMPDEST JUMPDEST DUP4 JUMPDEST DUP2 DUP2 LT ISZERO PUSH2 0x11C5 JUMPI DUP1 PUSH2 0x11B1 DUP9 DUP3 PUSH2 0x10E2 JUMP JUMPDEST DUP5 MSTORE PUSH1 0x20 DUP5 ADD SWAP4 POP POP PUSH1 0x20 DUP2 ADD SWAP1 POP PUSH2 0x119E JUMP JUMPDEST POP POP POP SWAP4 SWAP3 POP POP POP JUMP JUMPDEST PUSH0 DUP3 PUSH1 0x1F DUP4 ADD SLT PUSH2 0x11E3 JUMPI PUSH2 0x11E2 PUSH2 0x1143 JUMP JUMPDEST JUMPDEST PUSH1 0x2 PUSH2 0x11F0 DUP5 DUP3 DUP6 PUSH2 0x1170 JUMP JUMPDEST SWAP2 POP POP SWAP3 SWAP2 POP POP JUMP JUMPDEST PUSH0 PUSH1 0x80 DUP3 DUP5 SUB SLT ISZERO PUSH2 0x120E JUMPI PUSH2 0x120D PUSH2 0x1037 JUMP JUMPDEST JUMPDEST PUSH2 0x1218 PUSH1 0x40 PUSH2 0x10A9 JUMP JUMPDEST SWAP1 POP PUSH0 PUSH2 0x1227 DUP5 DUP3 DUP6 ADD PUSH2 0x11CF JUMP JUMPDEST PUSH0 DUP4 ADD MSTORE POP PUSH1 0x40 PUSH2 0x123A DUP5 DUP3 DUP6 ADD PUSH2 0x11CF JUMP JUMPDEST PUSH1 0x20 DUP4 ADD MSTORE POP SWAP3 SWAP2 POP POP JUMP JUMPDEST PUSH0 PUSH2 0x100 DUP3 DUP5 SUB SLT ISZERO PUSH2 0x125C JUMPI PUSH2 0x125B PUSH2 0x1037 JUMP JUMPDEST JUMPDEST PUSH2 0x1266 PUSH1 0x60 PUSH2 0x10A9 JUMP JUMPDEST SWAP1 POP PUSH0 PUSH2 0x1275 DUP5 DUP3 DUP6 ADD PUSH2 0x10F6 JUMP JUMPDEST PUSH0 DUP4 ADD MSTORE POP PUSH1 0x40 PUSH2 0x1288 DUP5 DUP3 DUP6 ADD PUSH2 0x11F9 JUMP JUMPDEST PUSH1 0x20 DUP4 ADD MSTORE POP PUSH1 0xC0 PUSH2 0x129C DUP5 DUP3 DUP6 ADD PUSH2 0x10F6 JUMP JUMPDEST PUSH1 0x40 DUP4 ADD MSTORE POP SWAP3 SWAP2 POP POP JUMP JUMPDEST PUSH0 PUSH8 0xFFFFFFFFFFFFFFFF DUP3 GT ISZERO PUSH2 0x12C2 JUMPI PUSH2 0x12C1 PUSH2 0x104B JUMP JUMPDEST JUMPDEST PUSH1 0x20 DUP3 MUL SWAP1 POP SWAP2 SWAP1 POP JUMP JUMPDEST PUSH0 PUSH2 0x12DF PUSH2 0x12DA DUP5 PUSH2 0x12A8 JUMP JUMPDEST PUSH2 0x10A9 JUMP JUMPDEST SWAP1 POP DUP1 PUSH1 0x20 DUP5 MUL DUP4 ADD DUP6 DUP2 GT ISZERO PUSH2 0x12F9 JUMPI PUSH2 0x12F8 PUSH2 0x116C JUMP JUMPDEST JUMPDEST DUP4 JUMPDEST DUP2 DUP2 LT ISZERO PUSH2 0x1322 JUMPI DUP1 PUSH2 0x130E DUP9 DUP3 PUSH2 0x10E2 JUMP JUMPDEST DUP5 MSTORE PUSH1 0x20 DUP5 ADD SWAP4 POP POP PUSH1 0x20 DUP2 ADD SWAP1 POP PUSH2 0x12FB JUMP JUMPDEST POP POP POP SWAP4 SWAP3 POP POP POP JUMP JUMPDEST PUSH0 DUP3 PUSH1 0x1F DUP4 ADD SLT PUSH2 0x1340 JUMPI PUSH2 0x133F PUSH2 0x1143 JUMP JUMPDEST JUMPDEST PUSH1 0x4 PUSH2 0x134D DUP5 DUP3 DUP6 PUSH2 0x12CD JUMP JUMPDEST SWAP2 POP POP SWAP3 SWAP2 POP POP JUMP JUMPDEST PUSH0 PUSH0 PUSH2 0x180 DUP4 DUP6 SUB SLT ISZERO PUSH2 0x136D JUMPI PUSH2 0x136C PUSH2 0x1033 JUMP JUMPDEST JUMPDEST PUSH0 PUSH2 0x137A DUP6 DUP3 DUP7 ADD PUSH2 0x1246 JUMP JUMPDEST SWAP3 POP POP PUSH2 0x100 PUSH2 0x138C DUP6 DUP3 DUP7 ADD PUSH2 0x132C JUMP JUMPDEST SWAP2 POP POP SWAP3 POP SWAP3 SWAP1 POP JUMP JUMPDEST PUSH0 DUP2 ISZERO ISZERO SWAP1 POP SWAP2 SWAP1 POP JUMP JUMPDEST PUSH2 0x13AA DUP2 PUSH2 0x1396 JUMP JUMPDEST DUP3 MSTORE POP POP JUMP JUMPDEST PUSH0 PUSH1 0x20 DUP3 ADD SWAP1 POP PUSH2 0x13C3 PUSH0 DUP4 ADD DUP5 PUSH2 0x13A1 JUMP JUMPDEST SWAP3 SWAP2 POP POP JUMP JUMPDEST PUSH32 0x4E487B7100000000000000000000000000000000000000000000000000000000 PUSH0 MSTORE PUSH1 0x32 PUSH1 0x4 MSTORE PUSH1 0x24 PUSH0 REVERT JUMPDEST PUSH32 0x4E487B7100000000000000000000000000000000000000000000000000000000 PUSH0 MSTORE PUSH1 0x11 PUSH1 0x4 MSTORE PUSH1 0x24 PUSH0 REVERT JUMPDEST PUSH0 PUSH2 0x142D DUP3 PUSH2 0x10C3 JUMP JUMPDEST SWAP2 POP PUSH2 0x1438 DUP4 PUSH2 0x10C3 JUMP JUMPDEST SWAP3 POP DUP3 DUP3 ADD SWAP1 POP DUP1 DUP3 GT ISZERO PUSH2 0x1450 JUMPI PUSH2 0x144F PUSH2 0x13F6 JUMP JUMPDEST JUMPDEST SWAP3 SWAP2 POP POP JUMP JUMPDEST PUSH32 0x4E487B7100000000000000000000000000000000000000000000000000000000 PUSH0 MSTORE PUSH1 0x12 PUSH1 0x4 MSTORE PUSH1 0x24 PUSH0 REVERT JUMPDEST PUSH0 PUSH2 0x148D DUP3 PUSH2 0x10C3 JUMP JUMPDEST SWAP2 POP PUSH2 0x1498 DUP4 PUSH2 0x10C3 JUMP JUMPDEST SWAP3 POP DUP3 PUSH2 0x14A8 JUMPI PUSH2 0x14A7 PUSH2 0x1456 JUMP JUMPDEST JUMPDEST DUP3 DUP3 MOD SWAP1 POP SWAP3 SWAP2 POP POP JUMP JUMPDEST PUSH0 PUSH2 0x14BD DUP3 PUSH2 0x10C3 JUMP JUMPDEST SWAP2 POP PUSH2 0x14C8 DUP4 PUSH2 0x10C3 JUMP JUMPDEST SWAP3 POP DUP3 DUP3 SUB SWAP1 POP DUP2 DUP2 GT ISZERO PUSH2 0x14E0 JUMPI PUSH2 0x14DF PUSH2 0x13F6 JUMP JUMPDEST JUMPDEST SWAP3 SWAP2 POP POP JUMP JUMPDEST PUSH0 PUSH2 0x14F0 DUP3 PUSH2 0x10C3 JUMP JUMPDEST SWAP2 POP PUSH2 0x14FB DUP4 PUSH2 0x10C3 JUMP JUMPDEST SWAP3 POP DUP3 DUP3 MUL PUSH2 0x1509 DUP2 PUSH2 0x10C3 JUMP JUMPDEST SWAP2 POP DUP3 DUP3 DIV DUP5 EQ DUP4 ISZERO OR PUSH2 0x1520 JUMPI PUSH2 0x151F PUSH2 0x13F6 JUMP JUMPDEST JUMPDEST POP SWAP3 SWAP2 POP POP JUMP INVALID LOG2 PUSH5 0x6970667358 0x22 SLT KECCAK256 PUSH13 0x8E512477D84D96FAB0A848F702 0xC4 MCOPY GT 0xB0 0x25 CALL 0xA7 PUSH24 0x6EC381564C17212B45C464736F6C634300081E0033000000 "
				},
				"gasEstimates": {
					"creation": {
						"codeDepositCost": "1093800",
						"executionCost": "1132",
						"totalCost": "1094932"
					},
					"external": {
						"verifyTx(((uint256,uint256),(uint256[2],uint256[2]),(uint256,uint256)),uint256[4])": "infinite"
					},
					"internal": {
						"verify(uint256[] memory,struct Verifier.Proof memory)": "infinite",
						"verifyingKey()": "infinite"
					}
				},
				"methodIdentifiers": {
					"verifyTx(((uint256,uint256),(uint256[2],uint256[2]),(uint256,uint256)),uint256[4])": "799afa76"
				}
			},
			"storageLayout": {
				"storage": [],
				"types": null
			},
			"userdoc": {
				"kind": "user",
				"methods": {},
				"version": 1
			}
		}
	}
}