{
	"TP FINAL/verifierRecuento.sol": {
		"VerifierRecuento": {
			"abi": [
				{
					"inputs": [
						{
							"components": [
								{
									"components": [
										{
											"internalType": "uint256",
											"name": "X",
											"type": "uint256"
										},
										{
											"internalType": "uint256",
											"name": "Y",
											"type": "uint256"
										}
									],
									"internalType": "struct Pairing2.G1Point",
									"name": "a",
									"type": "tuple"
								},
								{
									"components": [
										{
											"internalType": "uint256[2]",
											"name": "X",
											"type": "uint256[2]"
										},
										{
											"internalType": "uint256[2]",
											"name": "Y",
											"type": "uint256[2]"
										}
									],
									"internalType": "struct Pairing2.G2Point",
									"name": "b",
									"type": "tuple"
								},
								{
									"components": [
										{
											"internalType": "uint256",
											"name": "X",
											"type": "uint256"
										},
										{
											"internalType": "uint256",
											"name": "Y",
											"type": "uint256"
										}
									],
									"internalType": "struct Pairing2.G1Point",
									"name": "c",
									"type": "tuple"
								}
							],
							"internalType": "struct VerifierRecuento.Proof",
							"name": "proof",
							"type": "tuple"
						},
						{
							"internalType": "uint256[12]",
							"name": "input",
							"type": "uint256[12]"
						}
					],
					"name": "verifyTx",
					"outputs": [
						{
							"internalType": "bool",
							"name": "r",
							"type": "bool"
						}
					],
					"stateMutability": "view",
					"type": "function"
				}
			],
			"devdoc": {
				"kind": "dev",
				"methods": {},
				"version": 1
			},
			"evm": {
				"assembly": "    /* \"TP FINAL/verifierRecuento.sol\":6235:11886  contract VerifierRecuento {... */\n  mstore(0x40, 0x80)\n  callvalue\n  dup1\n  iszero\n  tag_1\n  jumpi\n  revert(0x00, 0x00)\ntag_1:\n  pop\n  dataSize(sub_0)\n  dup1\n  dataOffset(sub_0)\n  0x00\n  codecopy\n  0x00\n  return\nstop\n\nsub_0: assembly {\n        /* \"TP FINAL/verifierRecuento.sol\":6235:11886  contract VerifierRecuento {... */\n      mstore(0x40, 0x80)\n      callvalue\n      dup1\n      iszero\n      tag_1\n      jumpi\n      revert(0x00, 0x00)\n    tag_1:\n      pop\n      jumpi(tag_2, lt(calldatasize, 0x04))\n      shr(0xe0, calldataload(0x00))\n      dup1\n      0x66670599\n      eq\n      tag_3\n      jumpi\n    tag_2:\n      revert(0x00, 0x00)\n        /* \"TP FINAL/verifierRecuento.sol\":11482:11884  function verifyTx(... */\n    tag_3:\n      tag_4\n      0x04\n      dup1\n      calldatasize\n      sub\n      dup2\n      add\n      swap1\n      tag_5\n      swap2\n      swap1\n      tag_6\n      jump\t// in\n    tag_5:\n      tag_7\n      jump\t// in\n    tag_4:\n      mload(0x40)\n      tag_8\n      swap2\n      swap1\n      tag_9\n      jump\t// in\n    tag_8:\n      mload(0x40)\n      dup1\n      swap2\n      sub\n      swap1\n      return\n    tag_7:\n        /* \"TP FINAL/verifierRecuento.sol\":11586:11592  bool r */\n      0x00\n        /* \"TP FINAL/verifierRecuento.sol\":11604:11629  uint[] memory inputValues */\n      0x00\n        /* \"TP FINAL/verifierRecuento.sol\":11643:11645  12 */\n      0x0c\n        /* \"TP FINAL/verifierRecuento.sol\":11632:11646  new uint[](12) */\n      0xffffffffffffffff\n      dup2\n      gt\n      iszero\n      tag_11\n      jumpi\n      tag_12\n      tag_13\n      jump\t// in\n    tag_12:\n    tag_11:\n      mload(0x40)\n      swap1\n      dup1\n      dup3\n      mstore\n      dup1\n      0x20\n      mul\n      0x20\n      add\n      dup3\n      add\n      0x40\n      mstore\n      dup1\n      iszero\n      tag_14\n      jumpi\n      dup2\n      0x20\n      add\n      0x20\n      dup3\n      mul\n      dup1\n      calldatasize\n      dup4\n      calldatacopy\n      dup1\n      dup3\n      add\n      swap2\n      pop\n      pop\n      swap1\n      pop\n    tag_14:\n      pop\n        /* \"TP FINAL/verifierRecuento.sol\":11604:11646  uint[] memory inputValues = new uint[](12) */\n      swap1\n      pop\n        /* \"TP FINAL/verifierRecuento.sol\":11669:11675  uint i */\n      0x00\n        /* \"TP FINAL/verifierRecuento.sol\":11678:11679  0 */\n      0x00\n        /* \"TP FINAL/verifierRecuento.sol\":11669:11679  uint i = 0 */\n      swap1\n      pop\n        /* \"TP FINAL/verifierRecuento.sol\":11665:11753  for(uint i = 0; i < input.length; i++){... */\n    tag_15:\n        /* \"TP FINAL/verifierRecuento.sol\":11685:11697  input.length */\n      0x0c\n        /* \"TP FINAL/verifierRecuento.sol\":11681:11682  i */\n      dup2\n        /* \"TP FINAL/verifierRecuento.sol\":11681:11697  i < input.length */\n      lt\n        /* \"TP FINAL/verifierRecuento.sol\":11665:11753  for(uint i = 0; i < input.length; i++){... */\n      iszero\n      tag_16\n      jumpi\n        /* \"TP FINAL/verifierRecuento.sol\":11734:11739  input */\n      dup4\n        /* \"TP FINAL/verifierRecuento.sol\":11740:11741  i */\n      dup2\n        /* \"TP FINAL/verifierRecuento.sol\":11734:11742  input[i] */\n      0x0c\n      dup2\n      lt\n      tag_18\n      jumpi\n      tag_19\n      tag_20\n      jump\t// in\n    tag_19:\n    tag_18:\n      0x20\n      mul\n      add\n      mload\n        /* \"TP FINAL/verifierRecuento.sol\":11717:11728  inputValues */\n      dup3\n        /* \"TP FINAL/verifierRecuento.sol\":11729:11730  i */\n      dup3\n        /* \"TP FINAL/verifierRecuento.sol\":11717:11731  inputValues[i] */\n      dup2\n      mload\n      dup2\n      lt\n      tag_21\n      jumpi\n      tag_22\n      tag_20\n      jump\t// in\n    tag_22:\n    tag_21:\n      0x20\n      mul\n      0x20\n      add\n      add\n        /* \"TP FINAL/verifierRecuento.sol\":11717:11742  inputValues[i] = input[i] */\n      dup2\n      dup2\n      mstore\n      pop\n      pop\n        /* \"TP FINAL/verifierRecuento.sol\":11699:11702  i++ */\n      dup1\n      dup1\n      0x01\n      add\n      swap2\n      pop\n      pop\n        /* \"TP FINAL/verifierRecuento.sol\":11665:11753  for(uint i = 0; i < input.length; i++){... */\n      jump(tag_15)\n    tag_16:\n      pop\n        /* \"TP FINAL/verifierRecuento.sol\":11796:11797  0 */\n      0x00\n        /* \"TP FINAL/verifierRecuento.sol\":11766:11792  verify(inputValues, proof) */\n      tag_23\n        /* \"TP FINAL/verifierRecuento.sol\":11773:11784  inputValues */\n      dup3\n        /* \"TP FINAL/verifierRecuento.sol\":11786:11791  proof */\n      dup7\n        /* \"TP FINAL/verifierRecuento.sol\":11766:11772  verify */\n      tag_24\n        /* \"TP FINAL/verifierRecuento.sol\":11766:11792  verify(inputValues, proof) */\n      jump\t// in\n    tag_23:\n        /* \"TP FINAL/verifierRecuento.sol\":11766:11797  verify(inputValues, proof) == 0 */\n      sub\n        /* \"TP FINAL/verifierRecuento.sol\":11762:11878  if (verify(inputValues, proof) == 0) {... */\n      tag_25\n      jumpi\n        /* \"TP FINAL/verifierRecuento.sol\":11820:11824  true */\n      0x01\n        /* \"TP FINAL/verifierRecuento.sol\":11813:11824  return true */\n      swap2\n      pop\n      pop\n      jump(tag_10)\n        /* \"TP FINAL/verifierRecuento.sol\":11762:11878  if (verify(inputValues, proof) == 0) {... */\n    tag_25:\n        /* \"TP FINAL/verifierRecuento.sol\":11862:11867  false */\n      0x00\n        /* \"TP FINAL/verifierRecuento.sol\":11855:11867  return false */\n      swap2\n      pop\n      pop\n        /* \"TP FINAL/verifierRecuento.sol\":11482:11884  function verifyTx(... */\n    tag_10:\n      swap3\n      swap2\n      pop\n      pop\n      jump\t// out\n        /* \"TP FINAL/verifierRecuento.sol\":10547:11477  function verify(uint[] memory input, Proof memory proof) internal view returns (uint) {... */\n    tag_24:\n        /* \"TP FINAL/verifierRecuento.sol\":10627:10631  uint */\n      0x00\n        /* \"TP FINAL/verifierRecuento.sol\":10643:10669  uint256 snark_scalar_field */\n      0x00\n        /* \"TP FINAL/verifierRecuento.sol\":10672:10749  21888242871839275222246405745257275088548364400416034343698204186575808495617 */\n      0x30644e72e131a029b85045b68181585d2833e84879b9709143e1f593f0000001\n        /* \"TP FINAL/verifierRecuento.sol\":10643:10749  uint256 snark_scalar_field = 21888242871839275222246405745257275088548364400416034343698204186575808495617 */\n      swap1\n      pop\n        /* \"TP FINAL/verifierRecuento.sol\":10759:10781  VerifyingKey memory vk */\n      0x00\n        /* \"TP FINAL/verifierRecuento.sol\":10784:10798  verifyingKey() */\n      tag_28\n        /* \"TP FINAL/verifierRecuento.sol\":10784:10796  verifyingKey */\n      tag_29\n        /* \"TP FINAL/verifierRecuento.sol\":10784:10798  verifyingKey() */\n      jump\t// in\n    tag_28:\n        /* \"TP FINAL/verifierRecuento.sol\":10759:10798  VerifyingKey memory vk = verifyingKey() */\n      swap1\n      pop\n        /* \"TP FINAL/verifierRecuento.sol\":10836:10838  vk */\n      dup1\n        /* \"TP FINAL/verifierRecuento.sol\":10836:10848  vk.gamma_abc */\n      0x80\n      add\n      mload\n        /* \"TP FINAL/verifierRecuento.sol\":10836:10855  vk.gamma_abc.length */\n      mload\n        /* \"TP FINAL/verifierRecuento.sol\":10831:10832  1 */\n      0x01\n        /* \"TP FINAL/verifierRecuento.sol\":10816:10821  input */\n      dup7\n        /* \"TP FINAL/verifierRecuento.sol\":10816:10828  input.length */\n      mload\n        /* \"TP FINAL/verifierRecuento.sol\":10816:10832  input.length + 1 */\n      tag_30\n      swap2\n      swap1\n      tag_31\n      jump\t// in\n    tag_30:\n        /* \"TP FINAL/verifierRecuento.sol\":10816:10855  input.length + 1 == vk.gamma_abc.length */\n      eq\n        /* \"TP FINAL/verifierRecuento.sol\":10808:10856  require(input.length + 1 == vk.gamma_abc.length) */\n      tag_32\n      jumpi\n      revert(0x00, 0x00)\n    tag_32:\n        /* \"TP FINAL/verifierRecuento.sol\":10913:10941  Pairing2.G1Point memory vk_x */\n      0x00\n        /* \"TP FINAL/verifierRecuento.sol\":10944:10966  Pairing2.G1Point(0, 0) */\n      mload(0x40)\n      dup1\n      0x40\n      add\n      0x40\n      mstore\n      dup1\n        /* \"TP FINAL/verifierRecuento.sol\":10961:10962  0 */\n      0x00\n        /* \"TP FINAL/verifierRecuento.sol\":10944:10966  Pairing2.G1Point(0, 0) */\n      dup2\n      mstore\n      0x20\n      add\n        /* \"TP FINAL/verifierRecuento.sol\":10964:10965  0 */\n      0x00\n        /* \"TP FINAL/verifierRecuento.sol\":10944:10966  Pairing2.G1Point(0, 0) */\n      dup2\n      mstore\n      pop\n        /* \"TP FINAL/verifierRecuento.sol\":10913:10966  Pairing2.G1Point memory vk_x = Pairing2.G1Point(0, 0) */\n      swap1\n      pop\n        /* \"TP FINAL/verifierRecuento.sol\":10981:10987  uint i */\n      0x00\n        /* \"TP FINAL/verifierRecuento.sol\":10990:10991  0 */\n      0x00\n        /* \"TP FINAL/verifierRecuento.sol\":10981:10991  uint i = 0 */\n      swap1\n      pop\n        /* \"TP FINAL/verifierRecuento.sol\":10976:11175  for (uint i = 0; i < input.length; i++) {... */\n    tag_33:\n        /* \"TP FINAL/verifierRecuento.sol\":10997:11002  input */\n      dup7\n        /* \"TP FINAL/verifierRecuento.sol\":10997:11009  input.length */\n      mload\n        /* \"TP FINAL/verifierRecuento.sol\":10993:10994  i */\n      dup2\n        /* \"TP FINAL/verifierRecuento.sol\":10993:11009  i < input.length */\n      lt\n        /* \"TP FINAL/verifierRecuento.sol\":10976:11175  for (uint i = 0; i < input.length; i++) {... */\n      iszero\n      tag_34\n      jumpi\n        /* \"TP FINAL/verifierRecuento.sol\":11049:11067  snark_scalar_field */\n      dup4\n        /* \"TP FINAL/verifierRecuento.sol\":11038:11043  input */\n      dup8\n        /* \"TP FINAL/verifierRecuento.sol\":11044:11045  i */\n      dup3\n        /* \"TP FINAL/verifierRecuento.sol\":11038:11046  input[i] */\n      dup2\n      mload\n      dup2\n      lt\n      tag_36\n      jumpi\n      tag_37\n      tag_20\n      jump\t// in\n    tag_37:\n    tag_36:\n      0x20\n      mul\n      0x20\n      add\n      add\n      mload\n        /* \"TP FINAL/verifierRecuento.sol\":11038:11067  input[i] < snark_scalar_field */\n      lt\n        /* \"TP FINAL/verifierRecuento.sol\":11030:11068  require(input[i] < snark_scalar_field) */\n      tag_38\n      jumpi\n      revert(0x00, 0x00)\n    tag_38:\n        /* \"TP FINAL/verifierRecuento.sol\":11089:11164  Pairing2.addition(vk_x, Pairing2.scalar_mul(vk.gamma_abc[i + 1], input[i])) */\n      tag_39\n        /* \"TP FINAL/verifierRecuento.sol\":11107:11111  vk_x */\n      dup3\n        /* \"TP FINAL/verifierRecuento.sol\":11113:11163  Pairing2.scalar_mul(vk.gamma_abc[i + 1], input[i]) */\n      tag_40\n        /* \"TP FINAL/verifierRecuento.sol\":11133:11135  vk */\n      dup6\n        /* \"TP FINAL/verifierRecuento.sol\":11133:11145  vk.gamma_abc */\n      0x80\n      add\n      mload\n        /* \"TP FINAL/verifierRecuento.sol\":11150:11151  1 */\n      0x01\n        /* \"TP FINAL/verifierRecuento.sol\":11146:11147  i */\n      dup6\n        /* \"TP FINAL/verifierRecuento.sol\":11146:11151  i + 1 */\n      tag_41\n      swap2\n      swap1\n      tag_31\n      jump\t// in\n    tag_41:\n        /* \"TP FINAL/verifierRecuento.sol\":11133:11152  vk.gamma_abc[i + 1] */\n      dup2\n      mload\n      dup2\n      lt\n      tag_42\n      jumpi\n      tag_43\n      tag_20\n      jump\t// in\n    tag_43:\n    tag_42:\n      0x20\n      mul\n      0x20\n      add\n      add\n      mload\n        /* \"TP FINAL/verifierRecuento.sol\":11154:11159  input */\n      dup11\n        /* \"TP FINAL/verifierRecuento.sol\":11160:11161  i */\n      dup6\n        /* \"TP FINAL/verifierRecuento.sol\":11154:11162  input[i] */\n      dup2\n      mload\n      dup2\n      lt\n      tag_44\n      jumpi\n      tag_45\n      tag_20\n      jump\t// in\n    tag_45:\n    tag_44:\n      0x20\n      mul\n      0x20\n      add\n      add\n      mload\n        /* \"TP FINAL/verifierRecuento.sol\":11113:11132  Pairing2.scalar_mul */\n      tag_46\n        /* \"TP FINAL/verifierRecuento.sol\":11113:11163  Pairing2.scalar_mul(vk.gamma_abc[i + 1], input[i]) */\n      jump\t// in\n    tag_40:\n        /* \"TP FINAL/verifierRecuento.sol\":11089:11106  Pairing2.addition */\n      tag_47\n        /* \"TP FINAL/verifierRecuento.sol\":11089:11164  Pairing2.addition(vk_x, Pairing2.scalar_mul(vk.gamma_abc[i + 1], input[i])) */\n      jump\t// in\n    tag_39:\n        /* \"TP FINAL/verifierRecuento.sol\":11082:11164  vk_x = Pairing2.addition(vk_x, Pairing2.scalar_mul(vk.gamma_abc[i + 1], input[i])) */\n      swap2\n      pop\n        /* \"TP FINAL/verifierRecuento.sol\":11011:11014  i++ */\n      dup1\n      dup1\n      0x01\n      add\n      swap2\n      pop\n      pop\n        /* \"TP FINAL/verifierRecuento.sol\":10976:11175  for (uint i = 0; i < input.length; i++) {... */\n      jump(tag_33)\n    tag_34:\n      pop\n        /* \"TP FINAL/verifierRecuento.sol\":11191:11231  Pairing2.addition(vk_x, vk.gamma_abc[0]) */\n      tag_48\n        /* \"TP FINAL/verifierRecuento.sol\":11209:11213  vk_x */\n      dup2\n        /* \"TP FINAL/verifierRecuento.sol\":11215:11217  vk */\n      dup4\n        /* \"TP FINAL/verifierRecuento.sol\":11215:11227  vk.gamma_abc */\n      0x80\n      add\n      mload\n        /* \"TP FINAL/verifierRecuento.sol\":11228:11229  0 */\n      0x00\n        /* \"TP FINAL/verifierRecuento.sol\":11215:11230  vk.gamma_abc[0] */\n      dup2\n      mload\n      dup2\n      lt\n      tag_49\n      jumpi\n      tag_50\n      tag_20\n      jump\t// in\n    tag_50:\n    tag_49:\n      0x20\n      mul\n      0x20\n      add\n      add\n      mload\n        /* \"TP FINAL/verifierRecuento.sol\":11191:11208  Pairing2.addition */\n      tag_47\n        /* \"TP FINAL/verifierRecuento.sol\":11191:11231  Pairing2.addition(vk_x, vk.gamma_abc[0]) */\n      jump\t// in\n    tag_48:\n        /* \"TP FINAL/verifierRecuento.sol\":11184:11231  vk_x = Pairing2.addition(vk_x, vk.gamma_abc[0]) */\n      swap1\n      pop\n        /* \"TP FINAL/verifierRecuento.sol\":11245:11442  Pairing2.pairingProd4(... */\n      tag_51\n        /* \"TP FINAL/verifierRecuento.sol\":11281:11286  proof */\n      dup6\n        /* \"TP FINAL/verifierRecuento.sol\":11281:11288  proof.a */\n      0x00\n      add\n      mload\n        /* \"TP FINAL/verifierRecuento.sol\":11290:11295  proof */\n      dup7\n        /* \"TP FINAL/verifierRecuento.sol\":11290:11297  proof.b */\n      0x20\n      add\n      mload\n        /* \"TP FINAL/verifierRecuento.sol\":11312:11333  Pairing2.negate(vk_x) */\n      tag_52\n        /* \"TP FINAL/verifierRecuento.sol\":11328:11332  vk_x */\n      dup5\n        /* \"TP FINAL/verifierRecuento.sol\":11312:11327  Pairing2.negate */\n      tag_53\n        /* \"TP FINAL/verifierRecuento.sol\":11312:11333  Pairing2.negate(vk_x) */\n      jump\t// in\n    tag_52:\n        /* \"TP FINAL/verifierRecuento.sol\":11335:11337  vk */\n      dup6\n        /* \"TP FINAL/verifierRecuento.sol\":11335:11343  vk.gamma */\n      0x40\n      add\n      mload\n        /* \"TP FINAL/verifierRecuento.sol\":11358:11382  Pairing2.negate(proof.c) */\n      tag_54\n        /* \"TP FINAL/verifierRecuento.sol\":11374:11379  proof */\n      dup11\n        /* \"TP FINAL/verifierRecuento.sol\":11374:11381  proof.c */\n      0x40\n      add\n      mload\n        /* \"TP FINAL/verifierRecuento.sol\":11358:11373  Pairing2.negate */\n      tag_53\n        /* \"TP FINAL/verifierRecuento.sol\":11358:11382  Pairing2.negate(proof.c) */\n      jump\t// in\n    tag_54:\n        /* \"TP FINAL/verifierRecuento.sol\":11384:11386  vk */\n      dup8\n        /* \"TP FINAL/verifierRecuento.sol\":11384:11392  vk.delta */\n      0x60\n      add\n      mload\n        /* \"TP FINAL/verifierRecuento.sol\":11407:11432  Pairing2.negate(vk.alpha) */\n      tag_55\n        /* \"TP FINAL/verifierRecuento.sol\":11423:11425  vk */\n      dup10\n        /* \"TP FINAL/verifierRecuento.sol\":11423:11431  vk.alpha */\n      0x00\n      add\n      mload\n        /* \"TP FINAL/verifierRecuento.sol\":11407:11422  Pairing2.negate */\n      tag_53\n        /* \"TP FINAL/verifierRecuento.sol\":11407:11432  Pairing2.negate(vk.alpha) */\n      jump\t// in\n    tag_55:\n        /* \"TP FINAL/verifierRecuento.sol\":11434:11436  vk */\n      dup10\n        /* \"TP FINAL/verifierRecuento.sol\":11434:11441  vk.beta */\n      0x20\n      add\n      mload\n        /* \"TP FINAL/verifierRecuento.sol\":11245:11266  Pairing2.pairingProd4 */\n      tag_56\n        /* \"TP FINAL/verifierRecuento.sol\":11245:11442  Pairing2.pairingProd4(... */\n      jump\t// in\n    tag_51:\n        /* \"TP FINAL/verifierRecuento.sol\":11241:11452  if(!Pairing2.pairingProd4(... */\n      tag_57\n      jumpi\n        /* \"TP FINAL/verifierRecuento.sol\":11451:11452  1 */\n      0x01\n        /* \"TP FINAL/verifierRecuento.sol\":11444:11452  return 1 */\n      swap4\n      pop\n      pop\n      pop\n      pop\n      jump(tag_27)\n        /* \"TP FINAL/verifierRecuento.sol\":11241:11452  if(!Pairing2.pairingProd4(... */\n    tag_57:\n        /* \"TP FINAL/verifierRecuento.sol\":11469:11470  0 */\n      0x00\n        /* \"TP FINAL/verifierRecuento.sol\":11462:11470  return 0 */\n      swap4\n      pop\n      pop\n      pop\n      pop\n        /* \"TP FINAL/verifierRecuento.sol\":10547:11477  function verify(uint[] memory input, Proof memory proof) internal view returns (uint) {... */\n    tag_27:\n      swap3\n      swap2\n      pop\n      pop\n      jump\t// out\n        /* \"TP FINAL/verifierRecuento.sol\":6599:10542  function verifyingKey() pure internal returns (VerifyingKey memory vk) {... */\n    tag_29:\n        /* \"TP FINAL/verifierRecuento.sol\":6646:6668  VerifyingKey memory vk */\n      tag_58\n      tag_59\n      jump\t// in\n    tag_58:\n        /* \"TP FINAL/verifierRecuento.sol\":6691:6861  Pairing2.G1Point(uint256(0x28a7729804d9784737152ba161e9b5bb3075adf4dbe2fb7bca382216cddd6d70), uint256(0x28784a9669ed9a0a339d22b73f39b4ff0eb15f5ce1b7426ce6cba26b39772317)) */\n      mload(0x40)\n      dup1\n      0x40\n      add\n      0x40\n      mstore\n      dup1\n        /* \"TP FINAL/verifierRecuento.sol\":6716:6782  0x28a7729804d9784737152ba161e9b5bb3075adf4dbe2fb7bca382216cddd6d70 */\n      0x28a7729804d9784737152ba161e9b5bb3075adf4dbe2fb7bca382216cddd6d70\n        /* \"TP FINAL/verifierRecuento.sol\":6691:6861  Pairing2.G1Point(uint256(0x28a7729804d9784737152ba161e9b5bb3075adf4dbe2fb7bca382216cddd6d70), uint256(0x28784a9669ed9a0a339d22b73f39b4ff0eb15f5ce1b7426ce6cba26b39772317)) */\n      dup2\n      mstore\n      0x20\n      add\n        /* \"TP FINAL/verifierRecuento.sol\":6793:6859  0x28784a9669ed9a0a339d22b73f39b4ff0eb15f5ce1b7426ce6cba26b39772317 */\n      0x28784a9669ed9a0a339d22b73f39b4ff0eb15f5ce1b7426ce6cba26b39772317\n        /* \"TP FINAL/verifierRecuento.sol\":6691:6861  Pairing2.G1Point(uint256(0x28a7729804d9784737152ba161e9b5bb3075adf4dbe2fb7bca382216cddd6d70), uint256(0x28784a9669ed9a0a339d22b73f39b4ff0eb15f5ce1b7426ce6cba26b39772317)) */\n      dup2\n      mstore\n      pop\n        /* \"TP FINAL/verifierRecuento.sol\":6680:6682  vk */\n      dup2\n        /* \"TP FINAL/verifierRecuento.sol\":6680:6688  vk.alpha */\n      0x00\n      add\n        /* \"TP FINAL/verifierRecuento.sol\":6680:6861  vk.alpha = Pairing2.G1Point(uint256(0x28a7729804d9784737152ba161e9b5bb3075adf4dbe2fb7bca382216cddd6d70), uint256(0x28784a9669ed9a0a339d22b73f39b4ff0eb15f5ce1b7426ce6cba26b39772317)) */\n      dup2\n      swap1\n      mstore\n      pop\n        /* \"TP FINAL/verifierRecuento.sol\":6881:7209  Pairing2.G2Point([uint256(0x0e6e11738f4757f3df0986e0122743121956c43471b337241e1a130c722858ec), uint256(0x2d65d4fe199b98e9182ccb71d3877da10fdd277e6111ef0b709c6cfaa8840308)], [uint256(0x22f7daee6dd380548926f390b2e5ccbd52c2e9ff6e64ad903f12ff872876a37d), uint256(0x0a121cf0cf08910ed781228eb30edc6528fcb63ef2d624859b8311a1fd94d43c)]) */\n      mload(0x40)\n      dup1\n      0x40\n      add\n      0x40\n      mstore\n      dup1\n      mload(0x40)\n      dup1\n      0x40\n      add\n      0x40\n      mstore\n      dup1\n        /* \"TP FINAL/verifierRecuento.sol\":6907:6973  0x0e6e11738f4757f3df0986e0122743121956c43471b337241e1a130c722858ec */\n      0x0e6e11738f4757f3df0986e0122743121956c43471b337241e1a130c722858ec\n        /* \"TP FINAL/verifierRecuento.sol\":6881:7209  Pairing2.G2Point([uint256(0x0e6e11738f4757f3df0986e0122743121956c43471b337241e1a130c722858ec), uint256(0x2d65d4fe199b98e9182ccb71d3877da10fdd277e6111ef0b709c6cfaa8840308)], [uint256(0x22f7daee6dd380548926f390b2e5ccbd52c2e9ff6e64ad903f12ff872876a37d), uint256(0x0a121cf0cf08910ed781228eb30edc6528fcb63ef2d624859b8311a1fd94d43c)]) */\n      dup2\n      mstore\n      0x20\n      add\n        /* \"TP FINAL/verifierRecuento.sol\":6984:7050  0x2d65d4fe199b98e9182ccb71d3877da10fdd277e6111ef0b709c6cfaa8840308 */\n      0x2d65d4fe199b98e9182ccb71d3877da10fdd277e6111ef0b709c6cfaa8840308\n        /* \"TP FINAL/verifierRecuento.sol\":6881:7209  Pairing2.G2Point([uint256(0x0e6e11738f4757f3df0986e0122743121956c43471b337241e1a130c722858ec), uint256(0x2d65d4fe199b98e9182ccb71d3877da10fdd277e6111ef0b709c6cfaa8840308)], [uint256(0x22f7daee6dd380548926f390b2e5ccbd52c2e9ff6e64ad903f12ff872876a37d), uint256(0x0a121cf0cf08910ed781228eb30edc6528fcb63ef2d624859b8311a1fd94d43c)]) */\n      dup2\n      mstore\n      pop\n      dup2\n      mstore\n      0x20\n      add\n      mload(0x40)\n      dup1\n      0x40\n      add\n      0x40\n      mstore\n      dup1\n        /* \"TP FINAL/verifierRecuento.sol\":7063:7129  0x22f7daee6dd380548926f390b2e5ccbd52c2e9ff6e64ad903f12ff872876a37d */\n      0x22f7daee6dd380548926f390b2e5ccbd52c2e9ff6e64ad903f12ff872876a37d\n        /* \"TP FINAL/verifierRecuento.sol\":6881:7209  Pairing2.G2Point([uint256(0x0e6e11738f4757f3df0986e0122743121956c43471b337241e1a130c722858ec), uint256(0x2d65d4fe199b98e9182ccb71d3877da10fdd277e6111ef0b709c6cfaa8840308)], [uint256(0x22f7daee6dd380548926f390b2e5ccbd52c2e9ff6e64ad903f12ff872876a37d), uint256(0x0a121cf0cf08910ed781228eb30edc6528fcb63ef2d624859b8311a1fd94d43c)]) */\n      dup2\n      mstore\n      0x20\n      add\n        /* \"TP FINAL/verifierRecuento.sol\":7140:7206  0x0a121cf0cf08910ed781228eb30edc6528fcb63ef2d624859b8311a1fd94d43c */\n      0x0a121cf0cf08910ed781228eb30edc6528fcb63ef2d624859b8311a1fd94d43c\n        /* \"TP FINAL/verifierRecuento.sol\":6881:7209  Pairing2.G2Point([uint256(0x0e6e11738f4757f3df0986e0122743121956c43471b337241e1a130c722858ec), uint256(0x2d65d4fe199b98e9182ccb71d3877da10fdd277e6111ef0b709c6cfaa8840308)], [uint256(0x22f7daee6dd380548926f390b2e5ccbd52c2e9ff6e64ad903f12ff872876a37d), uint256(0x0a121cf0cf08910ed781228eb30edc6528fcb63ef2d624859b8311a1fd94d43c)]) */\n      dup2\n      mstore\n      pop\n      dup2\n      mstore\n      pop\n        /* \"TP FINAL/verifierRecuento.sol\":6871:6873  vk */\n      dup2\n        /* \"TP FINAL/verifierRecuento.sol\":6871:6878  vk.beta */\n      0x20\n      add\n        /* \"TP FINAL/verifierRecuento.sol\":6871:7209  vk.beta = Pairing2.G2Point([uint256(0x0e6e11738f4757f3df0986e0122743121956c43471b337241e1a130c722858ec), uint256(0x2d65d4fe199b98e9182ccb71d3877da10fdd277e6111ef0b709c6cfaa8840308)], [uint256(0x22f7daee6dd380548926f390b2e5ccbd52c2e9ff6e64ad903f12ff872876a37d), uint256(0x0a121cf0cf08910ed781228eb30edc6528fcb63ef2d624859b8311a1fd94d43c)]) */\n      dup2\n      swap1\n      mstore\n      pop\n        /* \"TP FINAL/verifierRecuento.sol\":7230:7558  Pairing2.G2Point([uint256(0x269f66b3ce49dab8bf3eeaf1b8815c5347fe986bc68b44bf9738780744e5ccdb), uint256(0x2fd45e1eb6617859a5d7f3fa555b40d86c4154e6a2cf0034bd3222fff296b3ca)], [uint256(0x04f94bd8573dbcf47ee1313af6ad79ffcaf21ad60f4bb4ccdebe43f3369c5dee), uint256(0x1c1d5b5ceb346ec69040a6d6c687960bcba9adbb3b626d2043450e9e12dbf6a2)]) */\n      mload(0x40)\n      dup1\n      0x40\n      add\n      0x40\n      mstore\n      dup1\n      mload(0x40)\n      dup1\n      0x40\n      add\n      0x40\n      mstore\n      dup1\n        /* \"TP FINAL/verifierRecuento.sol\":7256:7322  0x269f66b3ce49dab8bf3eeaf1b8815c5347fe986bc68b44bf9738780744e5ccdb */\n      0x269f66b3ce49dab8bf3eeaf1b8815c5347fe986bc68b44bf9738780744e5ccdb\n        /* \"TP FINAL/verifierRecuento.sol\":7230:7558  Pairing2.G2Point([uint256(0x269f66b3ce49dab8bf3eeaf1b8815c5347fe986bc68b44bf9738780744e5ccdb), uint256(0x2fd45e1eb6617859a5d7f3fa555b40d86c4154e6a2cf0034bd3222fff296b3ca)], [uint256(0x04f94bd8573dbcf47ee1313af6ad79ffcaf21ad60f4bb4ccdebe43f3369c5dee), uint256(0x1c1d5b5ceb346ec69040a6d6c687960bcba9adbb3b626d2043450e9e12dbf6a2)]) */\n      dup2\n      mstore\n      0x20\n      add\n        /* \"TP FINAL/verifierRecuento.sol\":7333:7399  0x2fd45e1eb6617859a5d7f3fa555b40d86c4154e6a2cf0034bd3222fff296b3ca */\n      0x2fd45e1eb6617859a5d7f3fa555b40d86c4154e6a2cf0034bd3222fff296b3ca\n        /* \"TP FINAL/verifierRecuento.sol\":7230:7558  Pairing2.G2Point([uint256(0x269f66b3ce49dab8bf3eeaf1b8815c5347fe986bc68b44bf9738780744e5ccdb), uint256(0x2fd45e1eb6617859a5d7f3fa555b40d86c4154e6a2cf0034bd3222fff296b3ca)], [uint256(0x04f94bd8573dbcf47ee1313af6ad79ffcaf21ad60f4bb4ccdebe43f3369c5dee), uint256(0x1c1d5b5ceb346ec69040a6d6c687960bcba9adbb3b626d2043450e9e12dbf6a2)]) */\n      dup2\n      mstore\n      pop\n      dup2\n      mstore\n      0x20\n      add\n      mload(0x40)\n      dup1\n      0x40\n      add\n      0x40\n      mstore\n      dup1\n        /* \"TP FINAL/verifierRecuento.sol\":7412:7478  0x04f94bd8573dbcf47ee1313af6ad79ffcaf21ad60f4bb4ccdebe43f3369c5dee */\n      0x04f94bd8573dbcf47ee1313af6ad79ffcaf21ad60f4bb4ccdebe43f3369c5dee\n        /* \"TP FINAL/verifierRecuento.sol\":7230:7558  Pairing2.G2Point([uint256(0x269f66b3ce49dab8bf3eeaf1b8815c5347fe986bc68b44bf9738780744e5ccdb), uint256(0x2fd45e1eb6617859a5d7f3fa555b40d86c4154e6a2cf0034bd3222fff296b3ca)], [uint256(0x04f94bd8573dbcf47ee1313af6ad79ffcaf21ad60f4bb4ccdebe43f3369c5dee), uint256(0x1c1d5b5ceb346ec69040a6d6c687960bcba9adbb3b626d2043450e9e12dbf6a2)]) */\n      dup2\n      mstore\n      0x20\n      add\n        /* \"TP FINAL/verifierRecuento.sol\":7489:7555  0x1c1d5b5ceb346ec69040a6d6c687960bcba9adbb3b626d2043450e9e12dbf6a2 */\n      0x1c1d5b5ceb346ec69040a6d6c687960bcba9adbb3b626d2043450e9e12dbf6a2\n        /* \"TP FINAL/verifierRecuento.sol\":7230:7558  Pairing2.G2Point([uint256(0x269f66b3ce49dab8bf3eeaf1b8815c5347fe986bc68b44bf9738780744e5ccdb), uint256(0x2fd45e1eb6617859a5d7f3fa555b40d86c4154e6a2cf0034bd3222fff296b3ca)], [uint256(0x04f94bd8573dbcf47ee1313af6ad79ffcaf21ad60f4bb4ccdebe43f3369c5dee), uint256(0x1c1d5b5ceb346ec69040a6d6c687960bcba9adbb3b626d2043450e9e12dbf6a2)]) */\n      dup2\n      mstore\n      pop\n      dup2\n      mstore\n      pop\n        /* \"TP FINAL/verifierRecuento.sol\":7219:7221  vk */\n      dup2\n        /* \"TP FINAL/verifierRecuento.sol\":7219:7227  vk.gamma */\n      0x40\n      add\n        /* \"TP FINAL/verifierRecuento.sol\":7219:7558  vk.gamma = Pairing2.G2Point([uint256(0x269f66b3ce49dab8bf3eeaf1b8815c5347fe986bc68b44bf9738780744e5ccdb), uint256(0x2fd45e1eb6617859a5d7f3fa555b40d86c4154e6a2cf0034bd3222fff296b3ca)], [uint256(0x04f94bd8573dbcf47ee1313af6ad79ffcaf21ad60f4bb4ccdebe43f3369c5dee), uint256(0x1c1d5b5ceb346ec69040a6d6c687960bcba9adbb3b626d2043450e9e12dbf6a2)]) */\n      dup2\n      swap1\n      mstore\n      pop\n        /* \"TP FINAL/verifierRecuento.sol\":7579:7907  Pairing2.G2Point([uint256(0x20b716b6c087263484e0665da2edd5448a3afc07ed399598ab9d4fe51d4673c2), uint256(0x2be69cabfcd1ca824594d678eafb7606a63d4ac8c88b54359db9cb9efdb5b009)], [uint256(0x2d6251b9b12e346d39b87256520a546bf9b76135c815bc5f06b083e396e9ab84), uint256(0x01ec3a52a96658f2a1cfbf70aad62515fb27c25b29240a4b5b8b7e99ffa53769)]) */\n      mload(0x40)\n      dup1\n      0x40\n      add\n      0x40\n      mstore\n      dup1\n      mload(0x40)\n      dup1\n      0x40\n      add\n      0x40\n      mstore\n      dup1\n        /* \"TP FINAL/verifierRecuento.sol\":7605:7671  0x20b716b6c087263484e0665da2edd5448a3afc07ed399598ab9d4fe51d4673c2 */\n      0x20b716b6c087263484e0665da2edd5448a3afc07ed399598ab9d4fe51d4673c2\n        /* \"TP FINAL/verifierRecuento.sol\":7579:7907  Pairing2.G2Point([uint256(0x20b716b6c087263484e0665da2edd5448a3afc07ed399598ab9d4fe51d4673c2), uint256(0x2be69cabfcd1ca824594d678eafb7606a63d4ac8c88b54359db9cb9efdb5b009)], [uint256(0x2d6251b9b12e346d39b87256520a546bf9b76135c815bc5f06b083e396e9ab84), uint256(0x01ec3a52a96658f2a1cfbf70aad62515fb27c25b29240a4b5b8b7e99ffa53769)]) */\n      dup2\n      mstore\n      0x20\n      add\n        /* \"TP FINAL/verifierRecuento.sol\":7682:7748  0x2be69cabfcd1ca824594d678eafb7606a63d4ac8c88b54359db9cb9efdb5b009 */\n      0x2be69cabfcd1ca824594d678eafb7606a63d4ac8c88b54359db9cb9efdb5b009\n        /* \"TP FINAL/verifierRecuento.sol\":7579:7907  Pairing2.G2Point([uint256(0x20b716b6c087263484e0665da2edd5448a3afc07ed399598ab9d4fe51d4673c2), uint256(0x2be69cabfcd1ca824594d678eafb7606a63d4ac8c88b54359db9cb9efdb5b009)], [uint256(0x2d6251b9b12e346d39b87256520a546bf9b76135c815bc5f06b083e396e9ab84), uint256(0x01ec3a52a96658f2a1cfbf70aad62515fb27c25b29240a4b5b8b7e99ffa53769)]) */\n      dup2\n      mstore\n      pop\n      dup2\n      mstore\n      0x20\n      add\n      mload(0x40)\n      dup1\n      0x40\n      add\n      0x40\n      mstore\n      dup1\n        /* \"TP FINAL/verifierRecuento.sol\":7761:7827  0x2d6251b9b12e346d39b87256520a546bf9b76135c815bc5f06b083e396e9ab84 */\n      0x2d6251b9b12e346d39b87256520a546bf9b76135c815bc5f06b083e396e9ab84\n        /* \"TP FINAL/verifierRecuento.sol\":7579:7907  Pairing2.G2Point([uint256(0x20b716b6c087263484e0665da2edd5448a3afc07ed399598ab9d4fe51d4673c2), uint256(0x2be69cabfcd1ca824594d678eafb7606a63d4ac8c88b54359db9cb9efdb5b009)], [uint256(0x2d6251b9b12e346d39b87256520a546bf9b76135c815bc5f06b083e396e9ab84), uint256(0x01ec3a52a96658f2a1cfbf70aad62515fb27c25b29240a4b5b8b7e99ffa53769)]) */\n      dup2\n      mstore\n      0x20\n      add\n        /* \"TP FINAL/verifierRecuento.sol\":7838:7904  0x01ec3a52a96658f2a1cfbf70aad62515fb27c25b29240a4b5b8b7e99ffa53769 */\n      0x01ec3a52a96658f2a1cfbf70aad62515fb27c25b29240a4b5b8b7e99ffa53769\n        /* \"TP FINAL/verifierRecuento.sol\":7579:7907  Pairing2.G2Point([uint256(0x20b716b6c087263484e0665da2edd5448a3afc07ed399598ab9d4fe51d4673c2), uint256(0x2be69cabfcd1ca824594d678eafb7606a63d4ac8c88b54359db9cb9efdb5b009)], [uint256(0x2d6251b9b12e346d39b87256520a546bf9b76135c815bc5f06b083e396e9ab84), uint256(0x01ec3a52a96658f2a1cfbf70aad62515fb27c25b29240a4b5b8b7e99ffa53769)]) */\n      dup2\n      mstore\n      pop\n      dup2\n      mstore\n      pop\n        /* \"TP FINAL/verifierRecuento.sol\":7568:7570  vk */\n      dup2\n        /* \"TP FINAL/verifierRecuento.sol\":7568:7576  vk.delta */\n      0x60\n      add\n        /* \"TP FINAL/verifierRecuento.sol\":7568:7907  vk.delta = Pairing2.G2Point([uint256(0x20b716b6c087263484e0665da2edd5448a3afc07ed399598ab9d4fe51d4673c2), uint256(0x2be69cabfcd1ca824594d678eafb7606a63d4ac8c88b54359db9cb9efdb5b009)], [uint256(0x2d6251b9b12e346d39b87256520a546bf9b76135c815bc5f06b083e396e9ab84), uint256(0x01ec3a52a96658f2a1cfbf70aad62515fb27c25b29240a4b5b8b7e99ffa53769)]) */\n      dup2\n      swap1\n      mstore\n      pop\n        /* \"TP FINAL/verifierRecuento.sol\":7955:7957  13 */\n      0x0d\n        /* \"TP FINAL/verifierRecuento.sol\":7932:7958  new Pairing2.G1Point[](13) */\n      0xffffffffffffffff\n      dup2\n      gt\n      iszero\n      tag_61\n      jumpi\n      tag_62\n      tag_13\n      jump\t// in\n    tag_62:\n    tag_61:\n      mload(0x40)\n      swap1\n      dup1\n      dup3\n      mstore\n      dup1\n      0x20\n      mul\n      0x20\n      add\n      dup3\n      add\n      0x40\n      mstore\n      dup1\n      iszero\n      tag_63\n      jumpi\n      dup2\n      0x20\n      add\n    tag_64:\n      tag_65\n      tag_66\n      jump\t// in\n    tag_65:\n      dup2\n      mstore\n      0x20\n      add\n      swap1\n      0x01\n      swap1\n      sub\n      swap1\n      dup2\n      tag_64\n      jumpi\n      swap1\n      pop\n    tag_63:\n      pop\n        /* \"TP FINAL/verifierRecuento.sol\":7917:7919  vk */\n      dup2\n        /* \"TP FINAL/verifierRecuento.sol\":7917:7929  vk.gamma_abc */\n      0x80\n      add\n        /* \"TP FINAL/verifierRecuento.sol\":7917:7958  vk.gamma_abc = new Pairing2.G1Point[](13) */\n      dup2\n      swap1\n      mstore\n      pop\n        /* \"TP FINAL/verifierRecuento.sol\":7986:8156  Pairing2.G1Point(uint256(0x1deef4c2163c27ef391a67129bff86ac96fd4f255f20f0387bf8382c99241488), uint256(0x25d8aebada2fe633dddff87d3a2f3fde80e559a0a2c5f96be63bfd7c83604402)) */\n      mload(0x40)\n      dup1\n      0x40\n      add\n      0x40\n      mstore\n      dup1\n        /* \"TP FINAL/verifierRecuento.sol\":8011:8077  0x1deef4c2163c27ef391a67129bff86ac96fd4f255f20f0387bf8382c99241488 */\n      0x1deef4c2163c27ef391a67129bff86ac96fd4f255f20f0387bf8382c99241488\n        /* \"TP FINAL/verifierRecuento.sol\":7986:8156  Pairing2.G1Point(uint256(0x1deef4c2163c27ef391a67129bff86ac96fd4f255f20f0387bf8382c99241488), uint256(0x25d8aebada2fe633dddff87d3a2f3fde80e559a0a2c5f96be63bfd7c83604402)) */\n      dup2\n      mstore\n      0x20\n      add\n        /* \"TP FINAL/verifierRecuento.sol\":8088:8154  0x25d8aebada2fe633dddff87d3a2f3fde80e559a0a2c5f96be63bfd7c83604402 */\n      0x25d8aebada2fe633dddff87d3a2f3fde80e559a0a2c5f96be63bfd7c83604402\n        /* \"TP FINAL/verifierRecuento.sol\":7986:8156  Pairing2.G1Point(uint256(0x1deef4c2163c27ef391a67129bff86ac96fd4f255f20f0387bf8382c99241488), uint256(0x25d8aebada2fe633dddff87d3a2f3fde80e559a0a2c5f96be63bfd7c83604402)) */\n      dup2\n      mstore\n      pop\n        /* \"TP FINAL/verifierRecuento.sol\":7968:7970  vk */\n      dup2\n        /* \"TP FINAL/verifierRecuento.sol\":7968:7980  vk.gamma_abc */\n      0x80\n      add\n      mload\n        /* \"TP FINAL/verifierRecuento.sol\":7981:7982  0 */\n      0x00\n        /* \"TP FINAL/verifierRecuento.sol\":7968:7983  vk.gamma_abc[0] */\n      dup2\n      mload\n      dup2\n      lt\n      tag_67\n      jumpi\n      tag_68\n      tag_20\n      jump\t// in\n    tag_68:\n    tag_67:\n      0x20\n      mul\n      0x20\n      add\n      add\n        /* \"TP FINAL/verifierRecuento.sol\":7968:8156  vk.gamma_abc[0] = Pairing2.G1Point(uint256(0x1deef4c2163c27ef391a67129bff86ac96fd4f255f20f0387bf8382c99241488), uint256(0x25d8aebada2fe633dddff87d3a2f3fde80e559a0a2c5f96be63bfd7c83604402)) */\n      dup2\n      swap1\n      mstore\n      pop\n        /* \"TP FINAL/verifierRecuento.sol\":8184:8354  Pairing2.G1Point(uint256(0x0ce914d7009ed6549895785755e62171d10b0dc88f90cd2c3545116d2da3868e), uint256(0x094c15f9a4a4a981aa152456f33b467b56c183ba0b9ce2e4fc6b5a1b35d45924)) */\n      mload(0x40)\n      dup1\n      0x40\n      add\n      0x40\n      mstore\n      dup1\n        /* \"TP FINAL/verifierRecuento.sol\":8209:8275  0x0ce914d7009ed6549895785755e62171d10b0dc88f90cd2c3545116d2da3868e */\n      0x0ce914d7009ed6549895785755e62171d10b0dc88f90cd2c3545116d2da3868e\n        /* \"TP FINAL/verifierRecuento.sol\":8184:8354  Pairing2.G1Point(uint256(0x0ce914d7009ed6549895785755e62171d10b0dc88f90cd2c3545116d2da3868e), uint256(0x094c15f9a4a4a981aa152456f33b467b56c183ba0b9ce2e4fc6b5a1b35d45924)) */\n      dup2\n      mstore\n      0x20\n      add\n        /* \"TP FINAL/verifierRecuento.sol\":8286:8352  0x094c15f9a4a4a981aa152456f33b467b56c183ba0b9ce2e4fc6b5a1b35d45924 */\n      0x094c15f9a4a4a981aa152456f33b467b56c183ba0b9ce2e4fc6b5a1b35d45924\n        /* \"TP FINAL/verifierRecuento.sol\":8184:8354  Pairing2.G1Point(uint256(0x0ce914d7009ed6549895785755e62171d10b0dc88f90cd2c3545116d2da3868e), uint256(0x094c15f9a4a4a981aa152456f33b467b56c183ba0b9ce2e4fc6b5a1b35d45924)) */\n      dup2\n      mstore\n      pop\n        /* \"TP FINAL/verifierRecuento.sol\":8166:8168  vk */\n      dup2\n        /* \"TP FINAL/verifierRecuento.sol\":8166:8178  vk.gamma_abc */\n      0x80\n      add\n      mload\n        /* \"TP FINAL/verifierRecuento.sol\":8179:8180  1 */\n      0x01\n        /* \"TP FINAL/verifierRecuento.sol\":8166:8181  vk.gamma_abc[1] */\n      dup2\n      mload\n      dup2\n      lt\n      tag_69\n      jumpi\n      tag_70\n      tag_20\n      jump\t// in\n    tag_70:\n    tag_69:\n      0x20\n      mul\n      0x20\n      add\n      add\n        /* \"TP FINAL/verifierRecuento.sol\":8166:8354  vk.gamma_abc[1] = Pairing2.G1Point(uint256(0x0ce914d7009ed6549895785755e62171d10b0dc88f90cd2c3545116d2da3868e), uint256(0x094c15f9a4a4a981aa152456f33b467b56c183ba0b9ce2e4fc6b5a1b35d45924)) */\n      dup2\n      swap1\n      mstore\n      pop\n        /* \"TP FINAL/verifierRecuento.sol\":8382:8552  Pairing2.G1Point(uint256(0x2176329002eaca982d0fafffd371b95553b7ba6b595caa5952d2031677905e14), uint256(0x0276de88554a48c91efb6116208bb83a49fd4c04a69d3022f426248eb46095ad)) */\n      mload(0x40)\n      dup1\n      0x40\n      add\n      0x40\n      mstore\n      dup1\n        /* \"TP FINAL/verifierRecuento.sol\":8407:8473  0x2176329002eaca982d0fafffd371b95553b7ba6b595caa5952d2031677905e14 */\n      0x2176329002eaca982d0fafffd371b95553b7ba6b595caa5952d2031677905e14\n        /* \"TP FINAL/verifierRecuento.sol\":8382:8552  Pairing2.G1Point(uint256(0x2176329002eaca982d0fafffd371b95553b7ba6b595caa5952d2031677905e14), uint256(0x0276de88554a48c91efb6116208bb83a49fd4c04a69d3022f426248eb46095ad)) */\n      dup2\n      mstore\n      0x20\n      add\n        /* \"TP FINAL/verifierRecuento.sol\":8484:8550  0x0276de88554a48c91efb6116208bb83a49fd4c04a69d3022f426248eb46095ad */\n      0x0276de88554a48c91efb6116208bb83a49fd4c04a69d3022f426248eb46095ad\n        /* \"TP FINAL/verifierRecuento.sol\":8382:8552  Pairing2.G1Point(uint256(0x2176329002eaca982d0fafffd371b95553b7ba6b595caa5952d2031677905e14), uint256(0x0276de88554a48c91efb6116208bb83a49fd4c04a69d3022f426248eb46095ad)) */\n      dup2\n      mstore\n      pop\n        /* \"TP FINAL/verifierRecuento.sol\":8364:8366  vk */\n      dup2\n        /* \"TP FINAL/verifierRecuento.sol\":8364:8376  vk.gamma_abc */\n      0x80\n      add\n      mload\n        /* \"TP FINAL/verifierRecuento.sol\":8377:8378  2 */\n      0x02\n        /* \"TP FINAL/verifierRecuento.sol\":8364:8379  vk.gamma_abc[2] */\n      dup2\n      mload\n      dup2\n      lt\n      tag_71\n      jumpi\n      tag_72\n      tag_20\n      jump\t// in\n    tag_72:\n    tag_71:\n      0x20\n      mul\n      0x20\n      add\n      add\n        /* \"TP FINAL/verifierRecuento.sol\":8364:8552  vk.gamma_abc[2] = Pairing2.G1Point(uint256(0x2176329002eaca982d0fafffd371b95553b7ba6b595caa5952d2031677905e14), uint256(0x0276de88554a48c91efb6116208bb83a49fd4c04a69d3022f426248eb46095ad)) */\n      dup2\n      swap1\n      mstore\n      pop\n        /* \"TP FINAL/verifierRecuento.sol\":8580:8750  Pairing2.G1Point(uint256(0x04fdde8cbf46445df350925504ba0ba0dfb069aca2c0a9e52b60994a22265a70), uint256(0x110040cd9d9b9cc7f5beee07b1fd78deb4c942ada14836a2a371a7a7086b775d)) */\n      mload(0x40)\n      dup1\n      0x40\n      add\n      0x40\n      mstore\n      dup1\n        /* \"TP FINAL/verifierRecuento.sol\":8605:8671  0x04fdde8cbf46445df350925504ba0ba0dfb069aca2c0a9e52b60994a22265a70 */\n      0x04fdde8cbf46445df350925504ba0ba0dfb069aca2c0a9e52b60994a22265a70\n        /* \"TP FINAL/verifierRecuento.sol\":8580:8750  Pairing2.G1Point(uint256(0x04fdde8cbf46445df350925504ba0ba0dfb069aca2c0a9e52b60994a22265a70), uint256(0x110040cd9d9b9cc7f5beee07b1fd78deb4c942ada14836a2a371a7a7086b775d)) */\n      dup2\n      mstore\n      0x20\n      add\n        /* \"TP FINAL/verifierRecuento.sol\":8682:8748  0x110040cd9d9b9cc7f5beee07b1fd78deb4c942ada14836a2a371a7a7086b775d */\n      0x110040cd9d9b9cc7f5beee07b1fd78deb4c942ada14836a2a371a7a7086b775d\n        /* \"TP FINAL/verifierRecuento.sol\":8580:8750  Pairing2.G1Point(uint256(0x04fdde8cbf46445df350925504ba0ba0dfb069aca2c0a9e52b60994a22265a70), uint256(0x110040cd9d9b9cc7f5beee07b1fd78deb4c942ada14836a2a371a7a7086b775d)) */\n      dup2\n      mstore\n      pop\n        /* \"TP FINAL/verifierRecuento.sol\":8562:8564  vk */\n      dup2\n        /* \"TP FINAL/verifierRecuento.sol\":8562:8574  vk.gamma_abc */\n      0x80\n      add\n      mload\n        /* \"TP FINAL/verifierRecuento.sol\":8575:8576  3 */\n      0x03\n        /* \"TP FINAL/verifierRecuento.sol\":8562:8577  vk.gamma_abc[3] */\n      dup2\n      mload\n      dup2\n      lt\n      tag_73\n      jumpi\n      tag_74\n      tag_20\n      jump\t// in\n    tag_74:\n    tag_73:\n      0x20\n      mul\n      0x20\n      add\n      add\n        /* \"TP FINAL/verifierRecuento.sol\":8562:8750  vk.gamma_abc[3] = Pairing2.G1Point(uint256(0x04fdde8cbf46445df350925504ba0ba0dfb069aca2c0a9e52b60994a22265a70), uint256(0x110040cd9d9b9cc7f5beee07b1fd78deb4c942ada14836a2a371a7a7086b775d)) */\n      dup2\n      swap1\n      mstore\n      pop\n        /* \"TP FINAL/verifierRecuento.sol\":8778:8948  Pairing2.G1Point(uint256(0x1de361fad29615559888fd87f7e26896acb358d92e7652e027bcb51efdcc3817), uint256(0x1592e6746475ad488afcff1b19d3bb60e900a75a5a00311e515814a3acab99ac)) */\n      mload(0x40)\n      dup1\n      0x40\n      add\n      0x40\n      mstore\n      dup1\n        /* \"TP FINAL/verifierRecuento.sol\":8803:8869  0x1de361fad29615559888fd87f7e26896acb358d92e7652e027bcb51efdcc3817 */\n      0x1de361fad29615559888fd87f7e26896acb358d92e7652e027bcb51efdcc3817\n        /* \"TP FINAL/verifierRecuento.sol\":8778:8948  Pairing2.G1Point(uint256(0x1de361fad29615559888fd87f7e26896acb358d92e7652e027bcb51efdcc3817), uint256(0x1592e6746475ad488afcff1b19d3bb60e900a75a5a00311e515814a3acab99ac)) */\n      dup2\n      mstore\n      0x20\n      add\n        /* \"TP FINAL/verifierRecuento.sol\":8880:8946  0x1592e6746475ad488afcff1b19d3bb60e900a75a5a00311e515814a3acab99ac */\n      0x1592e6746475ad488afcff1b19d3bb60e900a75a5a00311e515814a3acab99ac\n        /* \"TP FINAL/verifierRecuento.sol\":8778:8948  Pairing2.G1Point(uint256(0x1de361fad29615559888fd87f7e26896acb358d92e7652e027bcb51efdcc3817), uint256(0x1592e6746475ad488afcff1b19d3bb60e900a75a5a00311e515814a3acab99ac)) */\n      dup2\n      mstore\n      pop\n        /* \"TP FINAL/verifierRecuento.sol\":8760:8762  vk */\n      dup2\n        /* \"TP FINAL/verifierRecuento.sol\":8760:8772  vk.gamma_abc */\n      0x80\n      add\n      mload\n        /* \"TP FINAL/verifierRecuento.sol\":8773:8774  4 */\n      0x04\n        /* \"TP FINAL/verifierRecuento.sol\":8760:8775  vk.gamma_abc[4] */\n      dup2\n      mload\n      dup2\n      lt\n      tag_75\n      jumpi\n      tag_76\n      tag_20\n      jump\t// in\n    tag_76:\n    tag_75:\n      0x20\n      mul\n      0x20\n      add\n      add\n        /* \"TP FINAL/verifierRecuento.sol\":8760:8948  vk.gamma_abc[4] = Pairing2.G1Point(uint256(0x1de361fad29615559888fd87f7e26896acb358d92e7652e027bcb51efdcc3817), uint256(0x1592e6746475ad488afcff1b19d3bb60e900a75a5a00311e515814a3acab99ac)) */\n      dup2\n      swap1\n      mstore\n      pop\n        /* \"TP FINAL/verifierRecuento.sol\":8976:9146  Pairing2.G1Point(uint256(0x0b486bc7267410a315d45a2033e80c24afd73b92e308db08835be523ecac9e27), uint256(0x1fe232523b83eccd37db23b3ea381e992168b4087838421e0afb703ecd634c2a)) */\n      mload(0x40)\n      dup1\n      0x40\n      add\n      0x40\n      mstore\n      dup1\n        /* \"TP FINAL/verifierRecuento.sol\":9001:9067  0x0b486bc7267410a315d45a2033e80c24afd73b92e308db08835be523ecac9e27 */\n      0x0b486bc7267410a315d45a2033e80c24afd73b92e308db08835be523ecac9e27\n        /* \"TP FINAL/verifierRecuento.sol\":8976:9146  Pairing2.G1Point(uint256(0x0b486bc7267410a315d45a2033e80c24afd73b92e308db08835be523ecac9e27), uint256(0x1fe232523b83eccd37db23b3ea381e992168b4087838421e0afb703ecd634c2a)) */\n      dup2\n      mstore\n      0x20\n      add\n        /* \"TP FINAL/verifierRecuento.sol\":9078:9144  0x1fe232523b83eccd37db23b3ea381e992168b4087838421e0afb703ecd634c2a */\n      0x1fe232523b83eccd37db23b3ea381e992168b4087838421e0afb703ecd634c2a\n        /* \"TP FINAL/verifierRecuento.sol\":8976:9146  Pairing2.G1Point(uint256(0x0b486bc7267410a315d45a2033e80c24afd73b92e308db08835be523ecac9e27), uint256(0x1fe232523b83eccd37db23b3ea381e992168b4087838421e0afb703ecd634c2a)) */\n      dup2\n      mstore\n      pop\n        /* \"TP FINAL/verifierRecuento.sol\":8958:8960  vk */\n      dup2\n        /* \"TP FINAL/verifierRecuento.sol\":8958:8970  vk.gamma_abc */\n      0x80\n      add\n      mload\n        /* \"TP FINAL/verifierRecuento.sol\":8971:8972  5 */\n      0x05\n        /* \"TP FINAL/verifierRecuento.sol\":8958:8973  vk.gamma_abc[5] */\n      dup2\n      mload\n      dup2\n      lt\n      tag_77\n      jumpi\n      tag_78\n      tag_20\n      jump\t// in\n    tag_78:\n    tag_77:\n      0x20\n      mul\n      0x20\n      add\n      add\n        /* \"TP FINAL/verifierRecuento.sol\":8958:9146  vk.gamma_abc[5] = Pairing2.G1Point(uint256(0x0b486bc7267410a315d45a2033e80c24afd73b92e308db08835be523ecac9e27), uint256(0x1fe232523b83eccd37db23b3ea381e992168b4087838421e0afb703ecd634c2a)) */\n      dup2\n      swap1\n      mstore\n      pop\n        /* \"TP FINAL/verifierRecuento.sol\":9174:9344  Pairing2.G1Point(uint256(0x2b01058f10c05d33184e3d146e134f5c24a3ba9dca0b7a9e8e4df49a6c284927), uint256(0x189d5092a7cec07849e3fc6f40970bb7c778590d17670c17d79c013092c4134b)) */\n      mload(0x40)\n      dup1\n      0x40\n      add\n      0x40\n      mstore\n      dup1\n        /* \"TP FINAL/verifierRecuento.sol\":9199:9265  0x2b01058f10c05d33184e3d146e134f5c24a3ba9dca0b7a9e8e4df49a6c284927 */\n      0x2b01058f10c05d33184e3d146e134f5c24a3ba9dca0b7a9e8e4df49a6c284927\n        /* \"TP FINAL/verifierRecuento.sol\":9174:9344  Pairing2.G1Point(uint256(0x2b01058f10c05d33184e3d146e134f5c24a3ba9dca0b7a9e8e4df49a6c284927), uint256(0x189d5092a7cec07849e3fc6f40970bb7c778590d17670c17d79c013092c4134b)) */\n      dup2\n      mstore\n      0x20\n      add\n        /* \"TP FINAL/verifierRecuento.sol\":9276:9342  0x189d5092a7cec07849e3fc6f40970bb7c778590d17670c17d79c013092c4134b */\n      0x189d5092a7cec07849e3fc6f40970bb7c778590d17670c17d79c013092c4134b\n        /* \"TP FINAL/verifierRecuento.sol\":9174:9344  Pairing2.G1Point(uint256(0x2b01058f10c05d33184e3d146e134f5c24a3ba9dca0b7a9e8e4df49a6c284927), uint256(0x189d5092a7cec07849e3fc6f40970bb7c778590d17670c17d79c013092c4134b)) */\n      dup2\n      mstore\n      pop\n        /* \"TP FINAL/verifierRecuento.sol\":9156:9158  vk */\n      dup2\n        /* \"TP FINAL/verifierRecuento.sol\":9156:9168  vk.gamma_abc */\n      0x80\n      add\n      mload\n        /* \"TP FINAL/verifierRecuento.sol\":9169:9170  6 */\n      0x06\n        /* \"TP FINAL/verifierRecuento.sol\":9156:9171  vk.gamma_abc[6] */\n      dup2\n      mload\n      dup2\n      lt\n      tag_79\n      jumpi\n      tag_80\n      tag_20\n      jump\t// in\n    tag_80:\n    tag_79:\n      0x20\n      mul\n      0x20\n      add\n      add\n        /* \"TP FINAL/verifierRecuento.sol\":9156:9344  vk.gamma_abc[6] = Pairing2.G1Point(uint256(0x2b01058f10c05d33184e3d146e134f5c24a3ba9dca0b7a9e8e4df49a6c284927), uint256(0x189d5092a7cec07849e3fc6f40970bb7c778590d17670c17d79c013092c4134b)) */\n      dup2\n      swap1\n      mstore\n      pop\n        /* \"TP FINAL/verifierRecuento.sol\":9372:9542  Pairing2.G1Point(uint256(0x01eafab0be54246f0612615f7c4926e524643094ceec5e2d1e408a2ca83d027b), uint256(0x10ce98a135cd3b80e8c9fbd205e354ca3d526878ecfbe2803892842a187f78a5)) */\n      mload(0x40)\n      dup1\n      0x40\n      add\n      0x40\n      mstore\n      dup1\n        /* \"TP FINAL/verifierRecuento.sol\":9397:9463  0x01eafab0be54246f0612615f7c4926e524643094ceec5e2d1e408a2ca83d027b */\n      0x01eafab0be54246f0612615f7c4926e524643094ceec5e2d1e408a2ca83d027b\n        /* \"TP FINAL/verifierRecuento.sol\":9372:9542  Pairing2.G1Point(uint256(0x01eafab0be54246f0612615f7c4926e524643094ceec5e2d1e408a2ca83d027b), uint256(0x10ce98a135cd3b80e8c9fbd205e354ca3d526878ecfbe2803892842a187f78a5)) */\n      dup2\n      mstore\n      0x20\n      add\n        /* \"TP FINAL/verifierRecuento.sol\":9474:9540  0x10ce98a135cd3b80e8c9fbd205e354ca3d526878ecfbe2803892842a187f78a5 */\n      0x10ce98a135cd3b80e8c9fbd205e354ca3d526878ecfbe2803892842a187f78a5\n        /* \"TP FINAL/verifierRecuento.sol\":9372:9542  Pairing2.G1Point(uint256(0x01eafab0be54246f0612615f7c4926e524643094ceec5e2d1e408a2ca83d027b), uint256(0x10ce98a135cd3b80e8c9fbd205e354ca3d526878ecfbe2803892842a187f78a5)) */\n      dup2\n      mstore\n      pop\n        /* \"TP FINAL/verifierRecuento.sol\":9354:9356  vk */\n      dup2\n        /* \"TP FINAL/verifierRecuento.sol\":9354:9366  vk.gamma_abc */\n      0x80\n      add\n      mload\n        /* \"TP FINAL/verifierRecuento.sol\":9367:9368  7 */\n      0x07\n        /* \"TP FINAL/verifierRecuento.sol\":9354:9369  vk.gamma_abc[7] */\n      dup2\n      mload\n      dup2\n      lt\n      tag_81\n      jumpi\n      tag_82\n      tag_20\n      jump\t// in\n    tag_82:\n    tag_81:\n      0x20\n      mul\n      0x20\n      add\n      add\n        /* \"TP FINAL/verifierRecuento.sol\":9354:9542  vk.gamma_abc[7] = Pairing2.G1Point(uint256(0x01eafab0be54246f0612615f7c4926e524643094ceec5e2d1e408a2ca83d027b), uint256(0x10ce98a135cd3b80e8c9fbd205e354ca3d526878ecfbe2803892842a187f78a5)) */\n      dup2\n      swap1\n      mstore\n      pop\n        /* \"TP FINAL/verifierRecuento.sol\":9570:9740  Pairing2.G1Point(uint256(0x0c65ce40152eba575a15253dd929f5074bdb3746811a8e13f1fd4b41bf0284fc), uint256(0x0e1f3ed6ea56b4b51148b6b8735eb31595c63fbd414facb84a84f6a122aeba15)) */\n      mload(0x40)\n      dup1\n      0x40\n      add\n      0x40\n      mstore\n      dup1\n        /* \"TP FINAL/verifierRecuento.sol\":9595:9661  0x0c65ce40152eba575a15253dd929f5074bdb3746811a8e13f1fd4b41bf0284fc */\n      0x0c65ce40152eba575a15253dd929f5074bdb3746811a8e13f1fd4b41bf0284fc\n        /* \"TP FINAL/verifierRecuento.sol\":9570:9740  Pairing2.G1Point(uint256(0x0c65ce40152eba575a15253dd929f5074bdb3746811a8e13f1fd4b41bf0284fc), uint256(0x0e1f3ed6ea56b4b51148b6b8735eb31595c63fbd414facb84a84f6a122aeba15)) */\n      dup2\n      mstore\n      0x20\n      add\n        /* \"TP FINAL/verifierRecuento.sol\":9672:9738  0x0e1f3ed6ea56b4b51148b6b8735eb31595c63fbd414facb84a84f6a122aeba15 */\n      0x0e1f3ed6ea56b4b51148b6b8735eb31595c63fbd414facb84a84f6a122aeba15\n        /* \"TP FINAL/verifierRecuento.sol\":9570:9740  Pairing2.G1Point(uint256(0x0c65ce40152eba575a15253dd929f5074bdb3746811a8e13f1fd4b41bf0284fc), uint256(0x0e1f3ed6ea56b4b51148b6b8735eb31595c63fbd414facb84a84f6a122aeba15)) */\n      dup2\n      mstore\n      pop\n        /* \"TP FINAL/verifierRecuento.sol\":9552:9554  vk */\n      dup2\n        /* \"TP FINAL/verifierRecuento.sol\":9552:9564  vk.gamma_abc */\n      0x80\n      add\n      mload\n        /* \"TP FINAL/verifierRecuento.sol\":9565:9566  8 */\n      0x08\n        /* \"TP FINAL/verifierRecuento.sol\":9552:9567  vk.gamma_abc[8] */\n      dup2\n      mload\n      dup2\n      lt\n      tag_83\n      jumpi\n      tag_84\n      tag_20\n      jump\t// in\n    tag_84:\n    tag_83:\n      0x20\n      mul\n      0x20\n      add\n      add\n        /* \"TP FINAL/verifierRecuento.sol\":9552:9740  vk.gamma_abc[8] = Pairing2.G1Point(uint256(0x0c65ce40152eba575a15253dd929f5074bdb3746811a8e13f1fd4b41bf0284fc), uint256(0x0e1f3ed6ea56b4b51148b6b8735eb31595c63fbd414facb84a84f6a122aeba15)) */\n      dup2\n      swap1\n      mstore\n      pop\n        /* \"TP FINAL/verifierRecuento.sol\":9768:9938  Pairing2.G1Point(uint256(0x2a71a8b23d9e78b23664642644148d2caeee718b445bfcc028ee6876cb55ed2c), uint256(0x0b9ddaf66f5f4cac359d07ecf7cfdb3caf40627a7673f5e1c2de77f2f25df31b)) */\n      mload(0x40)\n      dup1\n      0x40\n      add\n      0x40\n      mstore\n      dup1\n        /* \"TP FINAL/verifierRecuento.sol\":9793:9859  0x2a71a8b23d9e78b23664642644148d2caeee718b445bfcc028ee6876cb55ed2c */\n      0x2a71a8b23d9e78b23664642644148d2caeee718b445bfcc028ee6876cb55ed2c\n        /* \"TP FINAL/verifierRecuento.sol\":9768:9938  Pairing2.G1Point(uint256(0x2a71a8b23d9e78b23664642644148d2caeee718b445bfcc028ee6876cb55ed2c), uint256(0x0b9ddaf66f5f4cac359d07ecf7cfdb3caf40627a7673f5e1c2de77f2f25df31b)) */\n      dup2\n      mstore\n      0x20\n      add\n        /* \"TP FINAL/verifierRecuento.sol\":9870:9936  0x0b9ddaf66f5f4cac359d07ecf7cfdb3caf40627a7673f5e1c2de77f2f25df31b */\n      0x0b9ddaf66f5f4cac359d07ecf7cfdb3caf40627a7673f5e1c2de77f2f25df31b\n        /* \"TP FINAL/verifierRecuento.sol\":9768:9938  Pairing2.G1Point(uint256(0x2a71a8b23d9e78b23664642644148d2caeee718b445bfcc028ee6876cb55ed2c), uint256(0x0b9ddaf66f5f4cac359d07ecf7cfdb3caf40627a7673f5e1c2de77f2f25df31b)) */\n      dup2\n      mstore\n      pop\n        /* \"TP FINAL/verifierRecuento.sol\":9750:9752  vk */\n      dup2\n        /* \"TP FINAL/verifierRecuento.sol\":9750:9762  vk.gamma_abc */\n      0x80\n      add\n      mload\n        /* \"TP FINAL/verifierRecuento.sol\":9763:9764  9 */\n      0x09\n        /* \"TP FINAL/verifierRecuento.sol\":9750:9765  vk.gamma_abc[9] */\n      dup2\n      mload\n      dup2\n      lt\n      tag_85\n      jumpi\n      tag_86\n      tag_20\n      jump\t// in\n    tag_86:\n    tag_85:\n      0x20\n      mul\n      0x20\n      add\n      add\n        /* \"TP FINAL/verifierRecuento.sol\":9750:9938  vk.gamma_abc[9] = Pairing2.G1Point(uint256(0x2a71a8b23d9e78b23664642644148d2caeee718b445bfcc028ee6876cb55ed2c), uint256(0x0b9ddaf66f5f4cac359d07ecf7cfdb3caf40627a7673f5e1c2de77f2f25df31b)) */\n      dup2\n      swap1\n      mstore\n      pop\n        /* \"TP FINAL/verifierRecuento.sol\":9967:10137  Pairing2.G1Point(uint256(0x2134ae21d4b4a30f4462f471df99d59e476f3d1b5004533624639cde55ddea1f), uint256(0x018071500c6ab3c5cafafd511958d76e1deee4c8700397991758d1829311f7e0)) */\n      mload(0x40)\n      dup1\n      0x40\n      add\n      0x40\n      mstore\n      dup1\n        /* \"TP FINAL/verifierRecuento.sol\":9992:10058  0x2134ae21d4b4a30f4462f471df99d59e476f3d1b5004533624639cde55ddea1f */\n      0x2134ae21d4b4a30f4462f471df99d59e476f3d1b5004533624639cde55ddea1f\n        /* \"TP FINAL/verifierRecuento.sol\":9967:10137  Pairing2.G1Point(uint256(0x2134ae21d4b4a30f4462f471df99d59e476f3d1b5004533624639cde55ddea1f), uint256(0x018071500c6ab3c5cafafd511958d76e1deee4c8700397991758d1829311f7e0)) */\n      dup2\n      mstore\n      0x20\n      add\n        /* \"TP FINAL/verifierRecuento.sol\":10069:10135  0x018071500c6ab3c5cafafd511958d76e1deee4c8700397991758d1829311f7e0 */\n      0x018071500c6ab3c5cafafd511958d76e1deee4c8700397991758d1829311f7e0\n        /* \"TP FINAL/verifierRecuento.sol\":9967:10137  Pairing2.G1Point(uint256(0x2134ae21d4b4a30f4462f471df99d59e476f3d1b5004533624639cde55ddea1f), uint256(0x018071500c6ab3c5cafafd511958d76e1deee4c8700397991758d1829311f7e0)) */\n      dup2\n      mstore\n      pop\n        /* \"TP FINAL/verifierRecuento.sol\":9948:9950  vk */\n      dup2\n        /* \"TP FINAL/verifierRecuento.sol\":9948:9960  vk.gamma_abc */\n      0x80\n      add\n      mload\n        /* \"TP FINAL/verifierRecuento.sol\":9961:9963  10 */\n      0x0a\n        /* \"TP FINAL/verifierRecuento.sol\":9948:9964  vk.gamma_abc[10] */\n      dup2\n      mload\n      dup2\n      lt\n      tag_87\n      jumpi\n      tag_88\n      tag_20\n      jump\t// in\n    tag_88:\n    tag_87:\n      0x20\n      mul\n      0x20\n      add\n      add\n        /* \"TP FINAL/verifierRecuento.sol\":9948:10137  vk.gamma_abc[10] = Pairing2.G1Point(uint256(0x2134ae21d4b4a30f4462f471df99d59e476f3d1b5004533624639cde55ddea1f), uint256(0x018071500c6ab3c5cafafd511958d76e1deee4c8700397991758d1829311f7e0)) */\n      dup2\n      swap1\n      mstore\n      pop\n        /* \"TP FINAL/verifierRecuento.sol\":10166:10336  Pairing2.G1Point(uint256(0x02d23e166e9fad75b3e4d328e1bf2f35372dce751550ed21a10ec4b96491b4c1), uint256(0x0361bc0450dde385c9c8301f6e73995e5190f44f903d9fc6474ec16fb0995b7e)) */\n      mload(0x40)\n      dup1\n      0x40\n      add\n      0x40\n      mstore\n      dup1\n        /* \"TP FINAL/verifierRecuento.sol\":10191:10257  0x02d23e166e9fad75b3e4d328e1bf2f35372dce751550ed21a10ec4b96491b4c1 */\n      0x02d23e166e9fad75b3e4d328e1bf2f35372dce751550ed21a10ec4b96491b4c1\n        /* \"TP FINAL/verifierRecuento.sol\":10166:10336  Pairing2.G1Point(uint256(0x02d23e166e9fad75b3e4d328e1bf2f35372dce751550ed21a10ec4b96491b4c1), uint256(0x0361bc0450dde385c9c8301f6e73995e5190f44f903d9fc6474ec16fb0995b7e)) */\n      dup2\n      mstore\n      0x20\n      add\n        /* \"TP FINAL/verifierRecuento.sol\":10268:10334  0x0361bc0450dde385c9c8301f6e73995e5190f44f903d9fc6474ec16fb0995b7e */\n      0x0361bc0450dde385c9c8301f6e73995e5190f44f903d9fc6474ec16fb0995b7e\n        /* \"TP FINAL/verifierRecuento.sol\":10166:10336  Pairing2.G1Point(uint256(0x02d23e166e9fad75b3e4d328e1bf2f35372dce751550ed21a10ec4b96491b4c1), uint256(0x0361bc0450dde385c9c8301f6e73995e5190f44f903d9fc6474ec16fb0995b7e)) */\n      dup2\n      mstore\n      pop\n        /* \"TP FINAL/verifierRecuento.sol\":10147:10149  vk */\n      dup2\n        /* \"TP FINAL/verifierRecuento.sol\":10147:10159  vk.gamma_abc */\n      0x80\n      add\n      mload\n        /* \"TP FINAL/verifierRecuento.sol\":10160:10162  11 */\n      0x0b\n        /* \"TP FINAL/verifierRecuento.sol\":10147:10163  vk.gamma_abc[11] */\n      dup2\n      mload\n      dup2\n      lt\n      tag_89\n      jumpi\n      tag_90\n      tag_20\n      jump\t// in\n    tag_90:\n    tag_89:\n      0x20\n      mul\n      0x20\n      add\n      add\n        /* \"TP FINAL/verifierRecuento.sol\":10147:10336  vk.gamma_abc[11] = Pairing2.G1Point(uint256(0x02d23e166e9fad75b3e4d328e1bf2f35372dce751550ed21a10ec4b96491b4c1), uint256(0x0361bc0450dde385c9c8301f6e73995e5190f44f903d9fc6474ec16fb0995b7e)) */\n      dup2\n      swap1\n      mstore\n      pop\n        /* \"TP FINAL/verifierRecuento.sol\":10365:10535  Pairing2.G1Point(uint256(0x1d51d31d0477236fc08266d0205de543fcfa65443c4f2bd453fbbcfee8279ab5), uint256(0x2a1b55cf51f4f2b414a710eab948346ade0b7e85c80536ed61fc878c326e6e6c)) */\n      mload(0x40)\n      dup1\n      0x40\n      add\n      0x40\n      mstore\n      dup1\n        /* \"TP FINAL/verifierRecuento.sol\":10390:10456  0x1d51d31d0477236fc08266d0205de543fcfa65443c4f2bd453fbbcfee8279ab5 */\n      0x1d51d31d0477236fc08266d0205de543fcfa65443c4f2bd453fbbcfee8279ab5\n        /* \"TP FINAL/verifierRecuento.sol\":10365:10535  Pairing2.G1Point(uint256(0x1d51d31d0477236fc08266d0205de543fcfa65443c4f2bd453fbbcfee8279ab5), uint256(0x2a1b55cf51f4f2b414a710eab948346ade0b7e85c80536ed61fc878c326e6e6c)) */\n      dup2\n      mstore\n      0x20\n      add\n        /* \"TP FINAL/verifierRecuento.sol\":10467:10533  0x2a1b55cf51f4f2b414a710eab948346ade0b7e85c80536ed61fc878c326e6e6c */\n      0x2a1b55cf51f4f2b414a710eab948346ade0b7e85c80536ed61fc878c326e6e6c\n        /* \"TP FINAL/verifierRecuento.sol\":10365:10535  Pairing2.G1Point(uint256(0x1d51d31d0477236fc08266d0205de543fcfa65443c4f2bd453fbbcfee8279ab5), uint256(0x2a1b55cf51f4f2b414a710eab948346ade0b7e85c80536ed61fc878c326e6e6c)) */\n      dup2\n      mstore\n      pop\n        /* \"TP FINAL/verifierRecuento.sol\":10346:10348  vk */\n      dup2\n        /* \"TP FINAL/verifierRecuento.sol\":10346:10358  vk.gamma_abc */\n      0x80\n      add\n      mload\n        /* \"TP FINAL/verifierRecuento.sol\":10359:10361  12 */\n      0x0c\n        /* \"TP FINAL/verifierRecuento.sol\":10346:10362  vk.gamma_abc[12] */\n      dup2\n      mload\n      dup2\n      lt\n      tag_91\n      jumpi\n      tag_92\n      tag_20\n      jump\t// in\n    tag_92:\n    tag_91:\n      0x20\n      mul\n      0x20\n      add\n      add\n        /* \"TP FINAL/verifierRecuento.sol\":10346:10535  vk.gamma_abc[12] = Pairing2.G1Point(uint256(0x1d51d31d0477236fc08266d0205de543fcfa65443c4f2bd453fbbcfee8279ab5), uint256(0x2a1b55cf51f4f2b414a710eab948346ade0b7e85c80536ed61fc878c326e6e6c)) */\n      dup2\n      swap1\n      mstore\n      pop\n        /* \"TP FINAL/verifierRecuento.sol\":6599:10542  function verifyingKey() pure internal returns (VerifyingKey memory vk) {... */\n      swap1\n      jump\t// out\n        /* \"TP FINAL/verifierRecuento.sol\":3083:3537  function scalar_mul(G1Point memory p, uint s) internal view returns (G1Point memory r) {... */\n    tag_46:\n        /* \"TP FINAL/verifierRecuento.sol\":3152:3168  G1Point memory r */\n      tag_93\n      tag_66\n      jump\t// in\n    tag_93:\n        /* \"TP FINAL/verifierRecuento.sol\":3180:3200  uint[3] memory input */\n      tag_95\n      tag_96\n      jump\t// in\n    tag_95:\n        /* \"TP FINAL/verifierRecuento.sol\":3221:3222  p */\n      dup4\n        /* \"TP FINAL/verifierRecuento.sol\":3221:3224  p.X */\n      0x00\n      add\n      mload\n        /* \"TP FINAL/verifierRecuento.sol\":3210:3215  input */\n      dup2\n        /* \"TP FINAL/verifierRecuento.sol\":3216:3217  0 */\n      0x00\n        /* \"TP FINAL/verifierRecuento.sol\":3210:3218  input[0] */\n      0x03\n      dup2\n      lt\n      tag_97\n      jumpi\n      tag_98\n      tag_20\n      jump\t// in\n    tag_98:\n    tag_97:\n      0x20\n      mul\n      add\n        /* \"TP FINAL/verifierRecuento.sol\":3210:3224  input[0] = p.X */\n      dup2\n      dup2\n      mstore\n      pop\n      pop\n        /* \"TP FINAL/verifierRecuento.sol\":3245:3246  p */\n      dup4\n        /* \"TP FINAL/verifierRecuento.sol\":3245:3248  p.Y */\n      0x20\n      add\n      mload\n        /* \"TP FINAL/verifierRecuento.sol\":3234:3239  input */\n      dup2\n        /* \"TP FINAL/verifierRecuento.sol\":3240:3241  1 */\n      0x01\n        /* \"TP FINAL/verifierRecuento.sol\":3234:3242  input[1] */\n      0x03\n      dup2\n      lt\n      tag_99\n      jumpi\n      tag_100\n      tag_20\n      jump\t// in\n    tag_100:\n    tag_99:\n      0x20\n      mul\n      add\n        /* \"TP FINAL/verifierRecuento.sol\":3234:3248  input[1] = p.Y */\n      dup2\n      dup2\n      mstore\n      pop\n      pop\n        /* \"TP FINAL/verifierRecuento.sol\":3269:3270  s */\n      dup3\n        /* \"TP FINAL/verifierRecuento.sol\":3258:3263  input */\n      dup2\n        /* \"TP FINAL/verifierRecuento.sol\":3264:3265  2 */\n      0x02\n        /* \"TP FINAL/verifierRecuento.sol\":3258:3266  input[2] */\n      0x03\n      dup2\n      lt\n      tag_101\n      jumpi\n      tag_102\n      tag_20\n      jump\t// in\n    tag_102:\n    tag_101:\n      0x20\n      mul\n      add\n        /* \"TP FINAL/verifierRecuento.sol\":3258:3270  input[2] = s */\n      dup2\n      dup2\n      mstore\n      pop\n      pop\n        /* \"TP FINAL/verifierRecuento.sol\":3280:3292  bool success */\n      0x00\n        /* \"TP FINAL/verifierRecuento.sol\":3384:3388  0x60 */\n      0x60\n        /* \"TP FINAL/verifierRecuento.sol\":3381:3382  r */\n      dup4\n        /* \"TP FINAL/verifierRecuento.sol\":3375:3379  0x80 */\n      0x80\n        /* \"TP FINAL/verifierRecuento.sol\":3368:3373  input */\n      dup5\n        /* \"TP FINAL/verifierRecuento.sol\":3365:3366  7 */\n      0x07\n        /* \"TP FINAL/verifierRecuento.sol\":3358:3362  2000 */\n      0x07d0\n        /* \"TP FINAL/verifierRecuento.sol\":3351:3356  gas() */\n      gas\n        /* \"TP FINAL/verifierRecuento.sol\":3347:3363  sub(gas(), 2000) */\n      sub\n        /* \"TP FINAL/verifierRecuento.sol\":3336:3389  staticcall(sub(gas(), 2000), 7, input, 0x80, r, 0x60) */\n      staticcall\n        /* \"TP FINAL/verifierRecuento.sol\":3325:3389  success := staticcall(sub(gas(), 2000), 7, input, 0x80, r, 0x60) */\n      swap1\n      pop\n        /* \"TP FINAL/verifierRecuento.sol\":3466:3473  success */\n      dup1\n        /* \"TP FINAL/verifierRecuento.sol\":3479:3480  0 */\n      0x00\n        /* \"TP FINAL/verifierRecuento.sol\":3474:3494  case 0 { invalid() } */\n      dup2\n      sub\n        /* \"TP FINAL/verifierRecuento.sol\":3459:3494  switch success case 0 { invalid() } */\n      tag_103\n        /* \"TP FINAL/verifierRecuento.sol\":3474:3494  case 0 { invalid() } */\n      jumpi\n        /* \"TP FINAL/verifierRecuento.sol\":3483:3492  invalid() */\n      invalid\n        /* \"TP FINAL/verifierRecuento.sol\":3459:3494  switch success case 0 { invalid() } */\n    tag_103:\n      pop\n        /* \"TP FINAL/verifierRecuento.sol\":3522:3529  success */\n      dup1\n        /* \"TP FINAL/verifierRecuento.sol\":3513:3530  require (success) */\n      tag_105\n      jumpi\n      revert(0x00, 0x00)\n    tag_105:\n        /* \"TP FINAL/verifierRecuento.sol\":3170:3537  {... */\n      pop\n      pop\n        /* \"TP FINAL/verifierRecuento.sol\":3083:3537  function scalar_mul(G1Point memory p, uint s) internal view returns (G1Point memory r) {... */\n      swap3\n      swap2\n      pop\n      pop\n      jump\t// out\n        /* \"TP FINAL/verifierRecuento.sol\":2433:2926  function addition(G1Point memory p1, G1Point memory p2) internal view returns (G1Point memory r) {... */\n    tag_47:\n        /* \"TP FINAL/verifierRecuento.sol\":2512:2528  G1Point memory r */\n      tag_106\n      tag_66\n      jump\t// in\n    tag_106:\n        /* \"TP FINAL/verifierRecuento.sol\":2540:2560  uint[4] memory input */\n      tag_108\n      tag_109\n      jump\t// in\n    tag_108:\n        /* \"TP FINAL/verifierRecuento.sol\":2581:2583  p1 */\n      dup4\n        /* \"TP FINAL/verifierRecuento.sol\":2581:2585  p1.X */\n      0x00\n      add\n      mload\n        /* \"TP FINAL/verifierRecuento.sol\":2570:2575  input */\n      dup2\n        /* \"TP FINAL/verifierRecuento.sol\":2576:2577  0 */\n      0x00\n        /* \"TP FINAL/verifierRecuento.sol\":2570:2578  input[0] */\n      0x04\n      dup2\n      lt\n      tag_110\n      jumpi\n      tag_111\n      tag_20\n      jump\t// in\n    tag_111:\n    tag_110:\n      0x20\n      mul\n      add\n        /* \"TP FINAL/verifierRecuento.sol\":2570:2585  input[0] = p1.X */\n      dup2\n      dup2\n      mstore\n      pop\n      pop\n        /* \"TP FINAL/verifierRecuento.sol\":2606:2608  p1 */\n      dup4\n        /* \"TP FINAL/verifierRecuento.sol\":2606:2610  p1.Y */\n      0x20\n      add\n      mload\n        /* \"TP FINAL/verifierRecuento.sol\":2595:2600  input */\n      dup2\n        /* \"TP FINAL/verifierRecuento.sol\":2601:2602  1 */\n      0x01\n        /* \"TP FINAL/verifierRecuento.sol\":2595:2603  input[1] */\n      0x04\n      dup2\n      lt\n      tag_112\n      jumpi\n      tag_113\n      tag_20\n      jump\t// in\n    tag_113:\n    tag_112:\n      0x20\n      mul\n      add\n        /* \"TP FINAL/verifierRecuento.sol\":2595:2610  input[1] = p1.Y */\n      dup2\n      dup2\n      mstore\n      pop\n      pop\n        /* \"TP FINAL/verifierRecuento.sol\":2631:2633  p2 */\n      dup3\n        /* \"TP FINAL/verifierRecuento.sol\":2631:2635  p2.X */\n      0x00\n      add\n      mload\n        /* \"TP FINAL/verifierRecuento.sol\":2620:2625  input */\n      dup2\n        /* \"TP FINAL/verifierRecuento.sol\":2626:2627  2 */\n      0x02\n        /* \"TP FINAL/verifierRecuento.sol\":2620:2628  input[2] */\n      0x04\n      dup2\n      lt\n      tag_114\n      jumpi\n      tag_115\n      tag_20\n      jump\t// in\n    tag_115:\n    tag_114:\n      0x20\n      mul\n      add\n        /* \"TP FINAL/verifierRecuento.sol\":2620:2635  input[2] = p2.X */\n      dup2\n      dup2\n      mstore\n      pop\n      pop\n        /* \"TP FINAL/verifierRecuento.sol\":2656:2658  p2 */\n      dup3\n        /* \"TP FINAL/verifierRecuento.sol\":2656:2660  p2.Y */\n      0x20\n      add\n      mload\n        /* \"TP FINAL/verifierRecuento.sol\":2645:2650  input */\n      dup2\n        /* \"TP FINAL/verifierRecuento.sol\":2651:2652  3 */\n      0x03\n        /* \"TP FINAL/verifierRecuento.sol\":2645:2653  input[3] */\n      0x04\n      dup2\n      lt\n      tag_116\n      jumpi\n      tag_117\n      tag_20\n      jump\t// in\n    tag_117:\n    tag_116:\n      0x20\n      mul\n      add\n        /* \"TP FINAL/verifierRecuento.sol\":2645:2660  input[3] = p2.Y */\n      dup2\n      dup2\n      mstore\n      pop\n      pop\n        /* \"TP FINAL/verifierRecuento.sol\":2670:2682  bool success */\n      0x00\n        /* \"TP FINAL/verifierRecuento.sol\":2774:2778  0x60 */\n      0x60\n        /* \"TP FINAL/verifierRecuento.sol\":2771:2772  r */\n      dup4\n        /* \"TP FINAL/verifierRecuento.sol\":2765:2769  0xc0 */\n      0xc0\n        /* \"TP FINAL/verifierRecuento.sol\":2758:2763  input */\n      dup5\n        /* \"TP FINAL/verifierRecuento.sol\":2755:2756  6 */\n      0x06\n        /* \"TP FINAL/verifierRecuento.sol\":2748:2752  2000 */\n      0x07d0\n        /* \"TP FINAL/verifierRecuento.sol\":2741:2746  gas() */\n      gas\n        /* \"TP FINAL/verifierRecuento.sol\":2737:2753  sub(gas(), 2000) */\n      sub\n        /* \"TP FINAL/verifierRecuento.sol\":2726:2779  staticcall(sub(gas(), 2000), 6, input, 0xc0, r, 0x60) */\n      staticcall\n        /* \"TP FINAL/verifierRecuento.sol\":2715:2779  success := staticcall(sub(gas(), 2000), 6, input, 0xc0, r, 0x60) */\n      swap1\n      pop\n        /* \"TP FINAL/verifierRecuento.sol\":2856:2863  success */\n      dup1\n        /* \"TP FINAL/verifierRecuento.sol\":2869:2870  0 */\n      0x00\n        /* \"TP FINAL/verifierRecuento.sol\":2864:2884  case 0 { invalid() } */\n      dup2\n      sub\n        /* \"TP FINAL/verifierRecuento.sol\":2849:2884  switch success case 0 { invalid() } */\n      tag_118\n        /* \"TP FINAL/verifierRecuento.sol\":2864:2884  case 0 { invalid() } */\n      jumpi\n        /* \"TP FINAL/verifierRecuento.sol\":2873:2882  invalid() */\n      invalid\n        /* \"TP FINAL/verifierRecuento.sol\":2849:2884  switch success case 0 { invalid() } */\n    tag_118:\n      pop\n        /* \"TP FINAL/verifierRecuento.sol\":2911:2918  success */\n      dup1\n        /* \"TP FINAL/verifierRecuento.sol\":2903:2919  require(success) */\n      tag_120\n      jumpi\n      revert(0x00, 0x00)\n    tag_120:\n        /* \"TP FINAL/verifierRecuento.sol\":2530:2926  {... */\n      pop\n      pop\n        /* \"TP FINAL/verifierRecuento.sol\":2433:2926  function addition(G1Point memory p1, G1Point memory p2) internal view returns (G1Point memory r) {... */\n      swap3\n      swap2\n      pop\n      pop\n      jump\t// out\n        /* \"TP FINAL/verifierRecuento.sol\":2042:2382  function negate(G1Point memory p) pure internal returns (G1Point memory) {... */\n    tag_53:\n        /* \"TP FINAL/verifierRecuento.sol\":2099:2113  G1Point memory */\n      tag_121\n      tag_66\n      jump\t// in\n    tag_121:\n        /* \"TP FINAL/verifierRecuento.sol\":2177:2183  uint q */\n      0x00\n        /* \"TP FINAL/verifierRecuento.sol\":2186:2263  21888242871839275222246405745257275088696311157297823662689037894645226208583 */\n      0x30644e72e131a029b85045b68181585d97816a916871ca8d3c208c16d87cfd47\n        /* \"TP FINAL/verifierRecuento.sol\":2177:2263  uint q = 21888242871839275222246405745257275088696311157297823662689037894645226208583 */\n      swap1\n      pop\n        /* \"TP FINAL/verifierRecuento.sol\":2284:2285  0 */\n      0x00\n        /* \"TP FINAL/verifierRecuento.sol\":2277:2278  p */\n      dup4\n        /* \"TP FINAL/verifierRecuento.sol\":2277:2280  p.X */\n      0x00\n      add\n      mload\n        /* \"TP FINAL/verifierRecuento.sol\":2277:2285  p.X == 0 */\n      eq\n        /* \"TP FINAL/verifierRecuento.sol\":2277:2297  p.X == 0 && p.Y == 0 */\n      dup1\n      iszero\n      tag_123\n      jumpi\n      pop\n        /* \"TP FINAL/verifierRecuento.sol\":2296:2297  0 */\n      0x00\n        /* \"TP FINAL/verifierRecuento.sol\":2289:2290  p */\n      dup4\n        /* \"TP FINAL/verifierRecuento.sol\":2289:2292  p.Y */\n      0x20\n      add\n      mload\n        /* \"TP FINAL/verifierRecuento.sol\":2289:2297  p.Y == 0 */\n      eq\n        /* \"TP FINAL/verifierRecuento.sol\":2277:2297  p.X == 0 && p.Y == 0 */\n    tag_123:\n        /* \"TP FINAL/verifierRecuento.sol\":2273:2331  if (p.X == 0 && p.Y == 0)... */\n      iszero\n      tag_124\n      jumpi\n        /* \"TP FINAL/verifierRecuento.sol\":2318:2331  G1Point(0, 0) */\n      mload(0x40)\n      dup1\n      0x40\n      add\n      0x40\n      mstore\n      dup1\n        /* \"TP FINAL/verifierRecuento.sol\":2326:2327  0 */\n      0x00\n        /* \"TP FINAL/verifierRecuento.sol\":2318:2331  G1Point(0, 0) */\n      dup2\n      mstore\n      0x20\n      add\n        /* \"TP FINAL/verifierRecuento.sol\":2329:2330  0 */\n      0x00\n        /* \"TP FINAL/verifierRecuento.sol\":2318:2331  G1Point(0, 0) */\n      dup2\n      mstore\n      pop\n        /* \"TP FINAL/verifierRecuento.sol\":2311:2331  return G1Point(0, 0) */\n      swap2\n      pop\n      pop\n      jump(tag_122)\n        /* \"TP FINAL/verifierRecuento.sol\":2273:2331  if (p.X == 0 && p.Y == 0)... */\n    tag_124:\n        /* \"TP FINAL/verifierRecuento.sol\":2348:2375  G1Point(p.X, q - (p.Y % q)) */\n      mload(0x40)\n      dup1\n      0x40\n      add\n      0x40\n      mstore\n      dup1\n        /* \"TP FINAL/verifierRecuento.sol\":2356:2357  p */\n      dup5\n        /* \"TP FINAL/verifierRecuento.sol\":2356:2359  p.X */\n      0x00\n      add\n      mload\n        /* \"TP FINAL/verifierRecuento.sol\":2348:2375  G1Point(p.X, q - (p.Y % q)) */\n      dup2\n      mstore\n      0x20\n      add\n        /* \"TP FINAL/verifierRecuento.sol\":2372:2373  q */\n      dup3\n        /* \"TP FINAL/verifierRecuento.sol\":2366:2367  p */\n      dup6\n        /* \"TP FINAL/verifierRecuento.sol\":2366:2369  p.Y */\n      0x20\n      add\n      mload\n        /* \"TP FINAL/verifierRecuento.sol\":2366:2373  p.Y % q */\n      tag_125\n      swap2\n      swap1\n      tag_126\n      jump\t// in\n    tag_125:\n        /* \"TP FINAL/verifierRecuento.sol\":2361:2362  q */\n      dup4\n        /* \"TP FINAL/verifierRecuento.sol\":2361:2374  q - (p.Y % q) */\n      tag_127\n      swap2\n      swap1\n      tag_128\n      jump\t// in\n    tag_127:\n        /* \"TP FINAL/verifierRecuento.sol\":2348:2375  G1Point(p.X, q - (p.Y % q)) */\n      dup2\n      mstore\n      pop\n        /* \"TP FINAL/verifierRecuento.sol\":2341:2375  return G1Point(p.X, q - (p.Y % q)) */\n      swap2\n      pop\n      pop\n        /* \"TP FINAL/verifierRecuento.sol\":2042:2382  function negate(G1Point memory p) pure internal returns (G1Point memory) {... */\n    tag_122:\n      swap2\n      swap1\n      pop\n      jump\t// out\n        /* \"TP FINAL/verifierRecuento.sol\":5679:6231  function pairingProd4(... */\n    tag_56:\n        /* \"TP FINAL/verifierRecuento.sol\":5930:5934  bool */\n      0x00\n        /* \"TP FINAL/verifierRecuento.sol\":5946:5965  G1Point[] memory p1 */\n      0x00\n        /* \"TP FINAL/verifierRecuento.sol\":5982:5983  4 */\n      0x04\n        /* \"TP FINAL/verifierRecuento.sol\":5968:5984  new G1Point[](4) */\n      0xffffffffffffffff\n      dup2\n      gt\n      iszero\n      tag_130\n      jumpi\n      tag_131\n      tag_13\n      jump\t// in\n    tag_131:\n    tag_130:\n      mload(0x40)\n      swap1\n      dup1\n      dup3\n      mstore\n      dup1\n      0x20\n      mul\n      0x20\n      add\n      dup3\n      add\n      0x40\n      mstore\n      dup1\n      iszero\n      tag_132\n      jumpi\n      dup2\n      0x20\n      add\n    tag_133:\n      tag_134\n      tag_66\n      jump\t// in\n    tag_134:\n      dup2\n      mstore\n      0x20\n      add\n      swap1\n      0x01\n      swap1\n      sub\n      swap1\n      dup2\n      tag_133\n      jumpi\n      swap1\n      pop\n    tag_132:\n      pop\n        /* \"TP FINAL/verifierRecuento.sol\":5946:5984  G1Point[] memory p1 = new G1Point[](4) */\n      swap1\n      pop\n        /* \"TP FINAL/verifierRecuento.sol\":5994:6013  G2Point[] memory p2 */\n      0x00\n        /* \"TP FINAL/verifierRecuento.sol\":6030:6031  4 */\n      0x04\n        /* \"TP FINAL/verifierRecuento.sol\":6016:6032  new G2Point[](4) */\n      0xffffffffffffffff\n      dup2\n      gt\n      iszero\n      tag_135\n      jumpi\n      tag_136\n      tag_13\n      jump\t// in\n    tag_136:\n    tag_135:\n      mload(0x40)\n      swap1\n      dup1\n      dup3\n      mstore\n      dup1\n      0x20\n      mul\n      0x20\n      add\n      dup3\n      add\n      0x40\n      mstore\n      dup1\n      iszero\n      tag_137\n      jumpi\n      dup2\n      0x20\n      add\n    tag_138:\n      tag_139\n      tag_140\n      jump\t// in\n    tag_139:\n      dup2\n      mstore\n      0x20\n      add\n      swap1\n      0x01\n      swap1\n      sub\n      swap1\n      dup2\n      tag_138\n      jumpi\n      swap1\n      pop\n    tag_137:\n      pop\n        /* \"TP FINAL/verifierRecuento.sol\":5994:6032  G2Point[] memory p2 = new G2Point[](4) */\n      swap1\n      pop\n        /* \"TP FINAL/verifierRecuento.sol\":6050:6052  a1 */\n      dup11\n        /* \"TP FINAL/verifierRecuento.sol\":6042:6044  p1 */\n      dup3\n        /* \"TP FINAL/verifierRecuento.sol\":6045:6046  0 */\n      0x00\n        /* \"TP FINAL/verifierRecuento.sol\":6042:6047  p1[0] */\n      dup2\n      mload\n      dup2\n      lt\n      tag_141\n      jumpi\n      tag_142\n      tag_20\n      jump\t// in\n    tag_142:\n    tag_141:\n      0x20\n      mul\n      0x20\n      add\n      add\n        /* \"TP FINAL/verifierRecuento.sol\":6042:6052  p1[0] = a1 */\n      dup2\n      swap1\n      mstore\n      pop\n        /* \"TP FINAL/verifierRecuento.sol\":6070:6072  b1 */\n      dup9\n        /* \"TP FINAL/verifierRecuento.sol\":6062:6064  p1 */\n      dup3\n        /* \"TP FINAL/verifierRecuento.sol\":6065:6066  1 */\n      0x01\n        /* \"TP FINAL/verifierRecuento.sol\":6062:6067  p1[1] */\n      dup2\n      mload\n      dup2\n      lt\n      tag_143\n      jumpi\n      tag_144\n      tag_20\n      jump\t// in\n    tag_144:\n    tag_143:\n      0x20\n      mul\n      0x20\n      add\n      add\n        /* \"TP FINAL/verifierRecuento.sol\":6062:6072  p1[1] = b1 */\n      dup2\n      swap1\n      mstore\n      pop\n        /* \"TP FINAL/verifierRecuento.sol\":6090:6092  c1 */\n      dup7\n        /* \"TP FINAL/verifierRecuento.sol\":6082:6084  p1 */\n      dup3\n        /* \"TP FINAL/verifierRecuento.sol\":6085:6086  2 */\n      0x02\n        /* \"TP FINAL/verifierRecuento.sol\":6082:6087  p1[2] */\n      dup2\n      mload\n      dup2\n      lt\n      tag_145\n      jumpi\n      tag_146\n      tag_20\n      jump\t// in\n    tag_146:\n    tag_145:\n      0x20\n      mul\n      0x20\n      add\n      add\n        /* \"TP FINAL/verifierRecuento.sol\":6082:6092  p1[2] = c1 */\n      dup2\n      swap1\n      mstore\n      pop\n        /* \"TP FINAL/verifierRecuento.sol\":6110:6112  d1 */\n      dup5\n        /* \"TP FINAL/verifierRecuento.sol\":6102:6104  p1 */\n      dup3\n        /* \"TP FINAL/verifierRecuento.sol\":6105:6106  3 */\n      0x03\n        /* \"TP FINAL/verifierRecuento.sol\":6102:6107  p1[3] */\n      dup2\n      mload\n      dup2\n      lt\n      tag_147\n      jumpi\n      tag_148\n      tag_20\n      jump\t// in\n    tag_148:\n    tag_147:\n      0x20\n      mul\n      0x20\n      add\n      add\n        /* \"TP FINAL/verifierRecuento.sol\":6102:6112  p1[3] = d1 */\n      dup2\n      swap1\n      mstore\n      pop\n        /* \"TP FINAL/verifierRecuento.sol\":6130:6132  a2 */\n      dup10\n        /* \"TP FINAL/verifierRecuento.sol\":6122:6124  p2 */\n      dup2\n        /* \"TP FINAL/verifierRecuento.sol\":6125:6126  0 */\n      0x00\n        /* \"TP FINAL/verifierRecuento.sol\":6122:6127  p2[0] */\n      dup2\n      mload\n      dup2\n      lt\n      tag_149\n      jumpi\n      tag_150\n      tag_20\n      jump\t// in\n    tag_150:\n    tag_149:\n      0x20\n      mul\n      0x20\n      add\n      add\n        /* \"TP FINAL/verifierRecuento.sol\":6122:6132  p2[0] = a2 */\n      dup2\n      swap1\n      mstore\n      pop\n        /* \"TP FINAL/verifierRecuento.sol\":6150:6152  b2 */\n      dup8\n        /* \"TP FINAL/verifierRecuento.sol\":6142:6144  p2 */\n      dup2\n        /* \"TP FINAL/verifierRecuento.sol\":6145:6146  1 */\n      0x01\n        /* \"TP FINAL/verifierRecuento.sol\":6142:6147  p2[1] */\n      dup2\n      mload\n      dup2\n      lt\n      tag_151\n      jumpi\n      tag_152\n      tag_20\n      jump\t// in\n    tag_152:\n    tag_151:\n      0x20\n      mul\n      0x20\n      add\n      add\n        /* \"TP FINAL/verifierRecuento.sol\":6142:6152  p2[1] = b2 */\n      dup2\n      swap1\n      mstore\n      pop\n        /* \"TP FINAL/verifierRecuento.sol\":6170:6172  c2 */\n      dup6\n        /* \"TP FINAL/verifierRecuento.sol\":6162:6164  p2 */\n      dup2\n        /* \"TP FINAL/verifierRecuento.sol\":6165:6166  2 */\n      0x02\n        /* \"TP FINAL/verifierRecuento.sol\":6162:6167  p2[2] */\n      dup2\n      mload\n      dup2\n      lt\n      tag_153\n      jumpi\n      tag_154\n      tag_20\n      jump\t// in\n    tag_154:\n    tag_153:\n      0x20\n      mul\n      0x20\n      add\n      add\n        /* \"TP FINAL/verifierRecuento.sol\":6162:6172  p2[2] = c2 */\n      dup2\n      swap1\n      mstore\n      pop\n        /* \"TP FINAL/verifierRecuento.sol\":6190:6192  d2 */\n      dup4\n        /* \"TP FINAL/verifierRecuento.sol\":6182:6184  p2 */\n      dup2\n        /* \"TP FINAL/verifierRecuento.sol\":6185:6186  3 */\n      0x03\n        /* \"TP FINAL/verifierRecuento.sol\":6182:6187  p2[3] */\n      dup2\n      mload\n      dup2\n      lt\n      tag_155\n      jumpi\n      tag_156\n      tag_20\n      jump\t// in\n    tag_156:\n    tag_155:\n      0x20\n      mul\n      0x20\n      add\n      add\n        /* \"TP FINAL/verifierRecuento.sol\":6182:6192  p2[3] = d2 */\n      dup2\n      swap1\n      mstore\n      pop\n        /* \"TP FINAL/verifierRecuento.sol\":6209:6224  pairing(p1, p2) */\n      tag_157\n        /* \"TP FINAL/verifierRecuento.sol\":6217:6219  p1 */\n      dup3\n        /* \"TP FINAL/verifierRecuento.sol\":6221:6223  p2 */\n      dup3\n        /* \"TP FINAL/verifierRecuento.sol\":6209:6216  pairing */\n      tag_158\n        /* \"TP FINAL/verifierRecuento.sol\":6209:6224  pairing(p1, p2) */\n      jump\t// in\n    tag_157:\n        /* \"TP FINAL/verifierRecuento.sol\":6202:6224  return pairing(p1, p2) */\n      swap3\n      pop\n      pop\n      pop\n        /* \"TP FINAL/verifierRecuento.sol\":5679:6231  function pairingProd4(... */\n      swap9\n      swap8\n      pop\n      pop\n      pop\n      pop\n      pop\n      pop\n      pop\n      pop\n      jump\t// out\n        /* \"TP FINAL/verifierRecuento.sol\":3748:4671  function pairing(G1Point[] memory p1, G2Point[] memory p2) internal view returns (bool) {... */\n    tag_158:\n        /* \"TP FINAL/verifierRecuento.sol\":3830:3834  bool */\n      0x00\n        /* \"TP FINAL/verifierRecuento.sol\":3867:3869  p2 */\n      dup2\n        /* \"TP FINAL/verifierRecuento.sol\":3867:3876  p2.length */\n      mload\n        /* \"TP FINAL/verifierRecuento.sol\":3854:3856  p1 */\n      dup4\n        /* \"TP FINAL/verifierRecuento.sol\":3854:3863  p1.length */\n      mload\n        /* \"TP FINAL/verifierRecuento.sol\":3854:3876  p1.length == p2.length */\n      eq\n        /* \"TP FINAL/verifierRecuento.sol\":3846:3877  require(p1.length == p2.length) */\n      tag_160\n      jumpi\n      revert(0x00, 0x00)\n    tag_160:\n        /* \"TP FINAL/verifierRecuento.sol\":3887:3900  uint elements */\n      0x00\n        /* \"TP FINAL/verifierRecuento.sol\":3903:3905  p1 */\n      dup4\n        /* \"TP FINAL/verifierRecuento.sol\":3903:3912  p1.length */\n      mload\n        /* \"TP FINAL/verifierRecuento.sol\":3887:3912  uint elements = p1.length */\n      swap1\n      pop\n        /* \"TP FINAL/verifierRecuento.sol\":3922:3936  uint inputSize */\n      0x00\n        /* \"TP FINAL/verifierRecuento.sol\":3950:3951  6 */\n      0x06\n        /* \"TP FINAL/verifierRecuento.sol\":3939:3947  elements */\n      dup3\n        /* \"TP FINAL/verifierRecuento.sol\":3939:3951  elements * 6 */\n      tag_161\n      swap2\n      swap1\n      tag_162\n      jump\t// in\n    tag_161:\n        /* \"TP FINAL/verifierRecuento.sol\":3922:3951  uint inputSize = elements * 6 */\n      swap1\n      pop\n        /* \"TP FINAL/verifierRecuento.sol\":3961:3980  uint[] memory input */\n      0x00\n        /* \"TP FINAL/verifierRecuento.sol\":3994:4003  inputSize */\n      dup2\n        /* \"TP FINAL/verifierRecuento.sol\":3983:4004  new uint[](inputSize) */\n      0xffffffffffffffff\n      dup2\n      gt\n      iszero\n      tag_163\n      jumpi\n      tag_164\n      tag_13\n      jump\t// in\n    tag_164:\n    tag_163:\n      mload(0x40)\n      swap1\n      dup1\n      dup3\n      mstore\n      dup1\n      0x20\n      mul\n      0x20\n      add\n      dup3\n      add\n      0x40\n      mstore\n      dup1\n      iszero\n      tag_165\n      jumpi\n      dup2\n      0x20\n      add\n      0x20\n      dup3\n      mul\n      dup1\n      calldatasize\n      dup4\n      calldatacopy\n      dup1\n      dup3\n      add\n      swap2\n      pop\n      pop\n      swap1\n      pop\n    tag_165:\n      pop\n        /* \"TP FINAL/verifierRecuento.sol\":3961:4004  uint[] memory input = new uint[](inputSize) */\n      swap1\n      pop\n        /* \"TP FINAL/verifierRecuento.sol\":4019:4025  uint i */\n      0x00\n        /* \"TP FINAL/verifierRecuento.sol\":4028:4029  0 */\n      0x00\n        /* \"TP FINAL/verifierRecuento.sol\":4019:4029  uint i = 0 */\n      swap1\n      pop\n        /* \"TP FINAL/verifierRecuento.sol\":4014:4321  for (uint i = 0; i < elements; i++)... */\n    tag_166:\n        /* \"TP FINAL/verifierRecuento.sol\":4035:4043  elements */\n      dup4\n        /* \"TP FINAL/verifierRecuento.sol\":4031:4032  i */\n      dup2\n        /* \"TP FINAL/verifierRecuento.sol\":4031:4043  i < elements */\n      lt\n        /* \"TP FINAL/verifierRecuento.sol\":4014:4321  for (uint i = 0; i < elements; i++)... */\n      iszero\n      tag_167\n      jumpi\n        /* \"TP FINAL/verifierRecuento.sol\":4091:4093  p1 */\n      dup7\n        /* \"TP FINAL/verifierRecuento.sol\":4094:4095  i */\n      dup2\n        /* \"TP FINAL/verifierRecuento.sol\":4091:4096  p1[i] */\n      dup2\n      mload\n      dup2\n      lt\n      tag_169\n      jumpi\n      tag_170\n      tag_20\n      jump\t// in\n    tag_170:\n    tag_169:\n      0x20\n      mul\n      0x20\n      add\n      add\n      mload\n        /* \"TP FINAL/verifierRecuento.sol\":4091:4098  p1[i].X */\n      0x00\n      add\n      mload\n        /* \"TP FINAL/verifierRecuento.sol\":4072:4077  input */\n      dup3\n        /* \"TP FINAL/verifierRecuento.sol\":4086:4087  0 */\n      0x00\n        /* \"TP FINAL/verifierRecuento.sol\":4082:4083  6 */\n      0x06\n        /* \"TP FINAL/verifierRecuento.sol\":4078:4079  i */\n      dup5\n        /* \"TP FINAL/verifierRecuento.sol\":4078:4083  i * 6 */\n      tag_171\n      swap2\n      swap1\n      tag_162\n      jump\t// in\n    tag_171:\n        /* \"TP FINAL/verifierRecuento.sol\":4078:4087  i * 6 + 0 */\n      tag_172\n      swap2\n      swap1\n      tag_31\n      jump\t// in\n    tag_172:\n        /* \"TP FINAL/verifierRecuento.sol\":4072:4088  input[i * 6 + 0] */\n      dup2\n      mload\n      dup2\n      lt\n      tag_173\n      jumpi\n      tag_174\n      tag_20\n      jump\t// in\n    tag_174:\n    tag_173:\n      0x20\n      mul\n      0x20\n      add\n      add\n        /* \"TP FINAL/verifierRecuento.sol\":4072:4098  input[i * 6 + 0] = p1[i].X */\n      dup2\n      dup2\n      mstore\n      pop\n      pop\n        /* \"TP FINAL/verifierRecuento.sol\":4131:4133  p1 */\n      dup7\n        /* \"TP FINAL/verifierRecuento.sol\":4134:4135  i */\n      dup2\n        /* \"TP FINAL/verifierRecuento.sol\":4131:4136  p1[i] */\n      dup2\n      mload\n      dup2\n      lt\n      tag_175\n      jumpi\n      tag_176\n      tag_20\n      jump\t// in\n    tag_176:\n    tag_175:\n      0x20\n      mul\n      0x20\n      add\n      add\n      mload\n        /* \"TP FINAL/verifierRecuento.sol\":4131:4138  p1[i].Y */\n      0x20\n      add\n      mload\n        /* \"TP FINAL/verifierRecuento.sol\":4112:4117  input */\n      dup3\n        /* \"TP FINAL/verifierRecuento.sol\":4126:4127  1 */\n      0x01\n        /* \"TP FINAL/verifierRecuento.sol\":4122:4123  6 */\n      0x06\n        /* \"TP FINAL/verifierRecuento.sol\":4118:4119  i */\n      dup5\n        /* \"TP FINAL/verifierRecuento.sol\":4118:4123  i * 6 */\n      tag_177\n      swap2\n      swap1\n      tag_162\n      jump\t// in\n    tag_177:\n        /* \"TP FINAL/verifierRecuento.sol\":4118:4127  i * 6 + 1 */\n      tag_178\n      swap2\n      swap1\n      tag_31\n      jump\t// in\n    tag_178:\n        /* \"TP FINAL/verifierRecuento.sol\":4112:4128  input[i * 6 + 1] */\n      dup2\n      mload\n      dup2\n      lt\n      tag_179\n      jumpi\n      tag_180\n      tag_20\n      jump\t// in\n    tag_180:\n    tag_179:\n      0x20\n      mul\n      0x20\n      add\n      add\n        /* \"TP FINAL/verifierRecuento.sol\":4112:4138  input[i * 6 + 1] = p1[i].Y */\n      dup2\n      dup2\n      mstore\n      pop\n      pop\n        /* \"TP FINAL/verifierRecuento.sol\":4171:4173  p2 */\n      dup6\n        /* \"TP FINAL/verifierRecuento.sol\":4174:4175  i */\n      dup2\n        /* \"TP FINAL/verifierRecuento.sol\":4171:4176  p2[i] */\n      dup2\n      mload\n      dup2\n      lt\n      tag_181\n      jumpi\n      tag_182\n      tag_20\n      jump\t// in\n    tag_182:\n    tag_181:\n      0x20\n      mul\n      0x20\n      add\n      add\n      mload\n        /* \"TP FINAL/verifierRecuento.sol\":4171:4178  p2[i].X */\n      0x00\n      add\n      mload\n        /* \"TP FINAL/verifierRecuento.sol\":4179:4180  1 */\n      0x01\n        /* \"TP FINAL/verifierRecuento.sol\":4171:4181  p2[i].X[1] */\n      0x02\n      dup2\n      lt\n      tag_183\n      jumpi\n      tag_184\n      tag_20\n      jump\t// in\n    tag_184:\n    tag_183:\n      0x20\n      mul\n      add\n      mload\n        /* \"TP FINAL/verifierRecuento.sol\":4152:4157  input */\n      dup3\n        /* \"TP FINAL/verifierRecuento.sol\":4166:4167  2 */\n      0x02\n        /* \"TP FINAL/verifierRecuento.sol\":4162:4163  6 */\n      0x06\n        /* \"TP FINAL/verifierRecuento.sol\":4158:4159  i */\n      dup5\n        /* \"TP FINAL/verifierRecuento.sol\":4158:4163  i * 6 */\n      tag_185\n      swap2\n      swap1\n      tag_162\n      jump\t// in\n    tag_185:\n        /* \"TP FINAL/verifierRecuento.sol\":4158:4167  i * 6 + 2 */\n      tag_186\n      swap2\n      swap1\n      tag_31\n      jump\t// in\n    tag_186:\n        /* \"TP FINAL/verifierRecuento.sol\":4152:4168  input[i * 6 + 2] */\n      dup2\n      mload\n      dup2\n      lt\n      tag_187\n      jumpi\n      tag_188\n      tag_20\n      jump\t// in\n    tag_188:\n    tag_187:\n      0x20\n      mul\n      0x20\n      add\n      add\n        /* \"TP FINAL/verifierRecuento.sol\":4152:4181  input[i * 6 + 2] = p2[i].X[1] */\n      dup2\n      dup2\n      mstore\n      pop\n      pop\n        /* \"TP FINAL/verifierRecuento.sol\":4214:4216  p2 */\n      dup6\n        /* \"TP FINAL/verifierRecuento.sol\":4217:4218  i */\n      dup2\n        /* \"TP FINAL/verifierRecuento.sol\":4214:4219  p2[i] */\n      dup2\n      mload\n      dup2\n      lt\n      tag_189\n      jumpi\n      tag_190\n      tag_20\n      jump\t// in\n    tag_190:\n    tag_189:\n      0x20\n      mul\n      0x20\n      add\n      add\n      mload\n        /* \"TP FINAL/verifierRecuento.sol\":4214:4221  p2[i].X */\n      0x00\n      add\n      mload\n        /* \"TP FINAL/verifierRecuento.sol\":4222:4223  0 */\n      0x00\n        /* \"TP FINAL/verifierRecuento.sol\":4214:4224  p2[i].X[0] */\n      0x02\n      dup2\n      lt\n      tag_191\n      jumpi\n      tag_192\n      tag_20\n      jump\t// in\n    tag_192:\n    tag_191:\n      0x20\n      mul\n      add\n      mload\n        /* \"TP FINAL/verifierRecuento.sol\":4195:4200  input */\n      dup3\n        /* \"TP FINAL/verifierRecuento.sol\":4209:4210  3 */\n      0x03\n        /* \"TP FINAL/verifierRecuento.sol\":4205:4206  6 */\n      0x06\n        /* \"TP FINAL/verifierRecuento.sol\":4201:4202  i */\n      dup5\n        /* \"TP FINAL/verifierRecuento.sol\":4201:4206  i * 6 */\n      tag_193\n      swap2\n      swap1\n      tag_162\n      jump\t// in\n    tag_193:\n        /* \"TP FINAL/verifierRecuento.sol\":4201:4210  i * 6 + 3 */\n      tag_194\n      swap2\n      swap1\n      tag_31\n      jump\t// in\n    tag_194:\n        /* \"TP FINAL/verifierRecuento.sol\":4195:4211  input[i * 6 + 3] */\n      dup2\n      mload\n      dup2\n      lt\n      tag_195\n      jumpi\n      tag_196\n      tag_20\n      jump\t// in\n    tag_196:\n    tag_195:\n      0x20\n      mul\n      0x20\n      add\n      add\n        /* \"TP FINAL/verifierRecuento.sol\":4195:4224  input[i * 6 + 3] = p2[i].X[0] */\n      dup2\n      dup2\n      mstore\n      pop\n      pop\n        /* \"TP FINAL/verifierRecuento.sol\":4257:4259  p2 */\n      dup6\n        /* \"TP FINAL/verifierRecuento.sol\":4260:4261  i */\n      dup2\n        /* \"TP FINAL/verifierRecuento.sol\":4257:4262  p2[i] */\n      dup2\n      mload\n      dup2\n      lt\n      tag_197\n      jumpi\n      tag_198\n      tag_20\n      jump\t// in\n    tag_198:\n    tag_197:\n      0x20\n      mul\n      0x20\n      add\n      add\n      mload\n        /* \"TP FINAL/verifierRecuento.sol\":4257:4264  p2[i].Y */\n      0x20\n      add\n      mload\n        /* \"TP FINAL/verifierRecuento.sol\":4265:4266  1 */\n      0x01\n        /* \"TP FINAL/verifierRecuento.sol\":4257:4267  p2[i].Y[1] */\n      0x02\n      dup2\n      lt\n      tag_199\n      jumpi\n      tag_200\n      tag_20\n      jump\t// in\n    tag_200:\n    tag_199:\n      0x20\n      mul\n      add\n      mload\n        /* \"TP FINAL/verifierRecuento.sol\":4238:4243  input */\n      dup3\n        /* \"TP FINAL/verifierRecuento.sol\":4252:4253  4 */\n      0x04\n        /* \"TP FINAL/verifierRecuento.sol\":4248:4249  6 */\n      0x06\n        /* \"TP FINAL/verifierRecuento.sol\":4244:4245  i */\n      dup5\n        /* \"TP FINAL/verifierRecuento.sol\":4244:4249  i * 6 */\n      tag_201\n      swap2\n      swap1\n      tag_162\n      jump\t// in\n    tag_201:\n        /* \"TP FINAL/verifierRecuento.sol\":4244:4253  i * 6 + 4 */\n      tag_202\n      swap2\n      swap1\n      tag_31\n      jump\t// in\n    tag_202:\n        /* \"TP FINAL/verifierRecuento.sol\":4238:4254  input[i * 6 + 4] */\n      dup2\n      mload\n      dup2\n      lt\n      tag_203\n      jumpi\n      tag_204\n      tag_20\n      jump\t// in\n    tag_204:\n    tag_203:\n      0x20\n      mul\n      0x20\n      add\n      add\n        /* \"TP FINAL/verifierRecuento.sol\":4238:4267  input[i * 6 + 4] = p2[i].Y[1] */\n      dup2\n      dup2\n      mstore\n      pop\n      pop\n        /* \"TP FINAL/verifierRecuento.sol\":4300:4302  p2 */\n      dup6\n        /* \"TP FINAL/verifierRecuento.sol\":4303:4304  i */\n      dup2\n        /* \"TP FINAL/verifierRecuento.sol\":4300:4305  p2[i] */\n      dup2\n      mload\n      dup2\n      lt\n      tag_205\n      jumpi\n      tag_206\n      tag_20\n      jump\t// in\n    tag_206:\n    tag_205:\n      0x20\n      mul\n      0x20\n      add\n      add\n      mload\n        /* \"TP FINAL/verifierRecuento.sol\":4300:4307  p2[i].Y */\n      0x20\n      add\n      mload\n        /* \"TP FINAL/verifierRecuento.sol\":4308:4309  0 */\n      0x00\n        /* \"TP FINAL/verifierRecuento.sol\":4300:4310  p2[i].Y[0] */\n      0x02\n      dup2\n      lt\n      tag_207\n      jumpi\n      tag_208\n      tag_20\n      jump\t// in\n    tag_208:\n    tag_207:\n      0x20\n      mul\n      add\n      mload\n        /* \"TP FINAL/verifierRecuento.sol\":4281:4286  input */\n      dup3\n        /* \"TP FINAL/verifierRecuento.sol\":4295:4296  5 */\n      0x05\n        /* \"TP FINAL/verifierRecuento.sol\":4291:4292  6 */\n      0x06\n        /* \"TP FINAL/verifierRecuento.sol\":4287:4288  i */\n      dup5\n        /* \"TP FINAL/verifierRecuento.sol\":4287:4292  i * 6 */\n      tag_209\n      swap2\n      swap1\n      tag_162\n      jump\t// in\n    tag_209:\n        /* \"TP FINAL/verifierRecuento.sol\":4287:4296  i * 6 + 5 */\n      tag_210\n      swap2\n      swap1\n      tag_31\n      jump\t// in\n    tag_210:\n        /* \"TP FINAL/verifierRecuento.sol\":4281:4297  input[i * 6 + 5] */\n      dup2\n      mload\n      dup2\n      lt\n      tag_211\n      jumpi\n      tag_212\n      tag_20\n      jump\t// in\n    tag_212:\n    tag_211:\n      0x20\n      mul\n      0x20\n      add\n      add\n        /* \"TP FINAL/verifierRecuento.sol\":4281:4310  input[i * 6 + 5] = p2[i].Y[0] */\n      dup2\n      dup2\n      mstore\n      pop\n      pop\n        /* \"TP FINAL/verifierRecuento.sol\":4045:4048  i++ */\n      dup1\n      dup1\n      0x01\n      add\n      swap2\n      pop\n      pop\n        /* \"TP FINAL/verifierRecuento.sol\":4014:4321  for (uint i = 0; i < elements; i++)... */\n      jump(tag_166)\n    tag_167:\n      pop\n        /* \"TP FINAL/verifierRecuento.sol\":4330:4348  uint[1] memory out */\n      tag_213\n      tag_214\n      jump\t// in\n    tag_213:\n        /* \"TP FINAL/verifierRecuento.sol\":4358:4370  bool success */\n      0x00\n        /* \"TP FINAL/verifierRecuento.sol\":4491:4495  0x20 */\n      0x20\n        /* \"TP FINAL/verifierRecuento.sol\":4486:4489  out */\n      dup3\n        /* \"TP FINAL/verifierRecuento.sol\":4479:4483  0x20 */\n      0x20\n        /* \"TP FINAL/verifierRecuento.sol\":4468:4477  inputSize */\n      dup7\n        /* \"TP FINAL/verifierRecuento.sol\":4464:4484  mul(inputSize, 0x20) */\n      mul\n        /* \"TP FINAL/verifierRecuento.sol\":4457:4461  0x20 */\n      0x20\n        /* \"TP FINAL/verifierRecuento.sol\":4450:4455  input */\n      dup7\n        /* \"TP FINAL/verifierRecuento.sol\":4446:4462  add(input, 0x20) */\n      add\n        /* \"TP FINAL/verifierRecuento.sol\":4443:4444  8 */\n      0x08\n        /* \"TP FINAL/verifierRecuento.sol\":4436:4440  2000 */\n      0x07d0\n        /* \"TP FINAL/verifierRecuento.sol\":4429:4434  gas() */\n      gas\n        /* \"TP FINAL/verifierRecuento.sol\":4425:4441  sub(gas(), 2000) */\n      sub\n        /* \"TP FINAL/verifierRecuento.sol\":4414:4496  staticcall(sub(gas(), 2000), 8, add(input, 0x20), mul(inputSize, 0x20), out, 0x20) */\n      staticcall\n        /* \"TP FINAL/verifierRecuento.sol\":4403:4496  success := staticcall(sub(gas(), 2000), 8, add(input, 0x20), mul(inputSize, 0x20), out, 0x20) */\n      swap1\n      pop\n        /* \"TP FINAL/verifierRecuento.sol\":4573:4580  success */\n      dup1\n        /* \"TP FINAL/verifierRecuento.sol\":4586:4587  0 */\n      0x00\n        /* \"TP FINAL/verifierRecuento.sol\":4581:4601  case 0 { invalid() } */\n      dup2\n      sub\n        /* \"TP FINAL/verifierRecuento.sol\":4566:4601  switch success case 0 { invalid() } */\n      tag_215\n        /* \"TP FINAL/verifierRecuento.sol\":4581:4601  case 0 { invalid() } */\n      jumpi\n        /* \"TP FINAL/verifierRecuento.sol\":4590:4599  invalid() */\n      invalid\n        /* \"TP FINAL/verifierRecuento.sol\":4566:4601  switch success case 0 { invalid() } */\n    tag_215:\n      pop\n        /* \"TP FINAL/verifierRecuento.sol\":4628:4635  success */\n      dup1\n        /* \"TP FINAL/verifierRecuento.sol\":4620:4636  require(success) */\n      tag_217\n      jumpi\n      revert(0x00, 0x00)\n    tag_217:\n        /* \"TP FINAL/verifierRecuento.sol\":4663:4664  0 */\n      0x00\n        /* \"TP FINAL/verifierRecuento.sol\":4653:4656  out */\n      dup3\n        /* \"TP FINAL/verifierRecuento.sol\":4657:4658  0 */\n      0x00\n        /* \"TP FINAL/verifierRecuento.sol\":4653:4659  out[0] */\n      0x01\n      dup2\n      lt\n      tag_218\n      jumpi\n      tag_219\n      tag_20\n      jump\t// in\n    tag_219:\n    tag_218:\n      0x20\n      mul\n      add\n      mload\n        /* \"TP FINAL/verifierRecuento.sol\":4653:4664  out[0] != 0 */\n      eq\n      iszero\n        /* \"TP FINAL/verifierRecuento.sol\":4646:4664  return out[0] != 0 */\n      swap6\n      pop\n      pop\n      pop\n      pop\n      pop\n      pop\n        /* \"TP FINAL/verifierRecuento.sol\":3748:4671  function pairing(G1Point[] memory p1, G2Point[] memory p2) internal view returns (bool) {... */\n      swap3\n      swap2\n      pop\n      pop\n      jump\t// out\n    tag_59:\n      mload(0x40)\n      dup1\n      0xa0\n      add\n      0x40\n      mstore\n      dup1\n      tag_220\n      tag_66\n      jump\t// in\n    tag_220:\n      dup2\n      mstore\n      0x20\n      add\n      tag_221\n      tag_140\n      jump\t// in\n    tag_221:\n      dup2\n      mstore\n      0x20\n      add\n      tag_222\n      tag_140\n      jump\t// in\n    tag_222:\n      dup2\n      mstore\n      0x20\n      add\n      tag_223\n      tag_140\n      jump\t// in\n    tag_223:\n      dup2\n      mstore\n      0x20\n      add\n      0x60\n      dup2\n      mstore\n      pop\n      swap1\n      jump\t// out\n    tag_66:\n      mload(0x40)\n      dup1\n      0x40\n      add\n      0x40\n      mstore\n      dup1\n      0x00\n      dup2\n      mstore\n      0x20\n      add\n      0x00\n      dup2\n      mstore\n      pop\n      swap1\n      jump\t// out\n    tag_96:\n      mload(0x40)\n      dup1\n      0x60\n      add\n      0x40\n      mstore\n      dup1\n      0x03\n      swap1\n      0x20\n      dup3\n      mul\n      dup1\n      calldatasize\n      dup4\n      calldatacopy\n      dup1\n      dup3\n      add\n      swap2\n      pop\n      pop\n      swap1\n      pop\n      pop\n      swap1\n      jump\t// out\n    tag_109:\n      mload(0x40)\n      dup1\n      0x80\n      add\n      0x40\n      mstore\n      dup1\n      0x04\n      swap1\n      0x20\n      dup3\n      mul\n      dup1\n      calldatasize\n      dup4\n      calldatacopy\n      dup1\n      dup3\n      add\n      swap2\n      pop\n      pop\n      swap1\n      pop\n      pop\n      swap1\n      jump\t// out\n    tag_140:\n      mload(0x40)\n      dup1\n      0x40\n      add\n      0x40\n      mstore\n      dup1\n      tag_224\n      tag_225\n      jump\t// in\n    tag_224:\n      dup2\n      mstore\n      0x20\n      add\n      tag_226\n      tag_225\n      jump\t// in\n    tag_226:\n      dup2\n      mstore\n      pop\n      swap1\n      jump\t// out\n    tag_214:\n      mload(0x40)\n      dup1\n      0x20\n      add\n      0x40\n      mstore\n      dup1\n      0x01\n      swap1\n      0x20\n      dup3\n      mul\n      dup1\n      calldatasize\n      dup4\n      calldatacopy\n      dup1\n      dup3\n      add\n      swap2\n      pop\n      pop\n      swap1\n      pop\n      pop\n      swap1\n      jump\t// out\n    tag_225:\n      mload(0x40)\n      dup1\n      0x40\n      add\n      0x40\n      mstore\n      dup1\n      0x02\n      swap1\n      0x20\n      dup3\n      mul\n      dup1\n      calldatasize\n      dup4\n      calldatacopy\n      dup1\n      dup3\n      add\n      swap2\n      pop\n      pop\n      swap1\n      pop\n      pop\n      swap1\n      jump\t// out\n        /* \"#utility.yul\":7:82   */\n    tag_227:\n        /* \"#utility.yul\":40:46   */\n      0x00\n        /* \"#utility.yul\":73:75   */\n      0x40\n        /* \"#utility.yul\":67:76   */\n      mload\n        /* \"#utility.yul\":57:76   */\n      swap1\n      pop\n        /* \"#utility.yul\":7:82   */\n      swap1\n      jump\t// out\n        /* \"#utility.yul\":88:205   */\n    tag_228:\n        /* \"#utility.yul\":197:198   */\n      0x00\n        /* \"#utility.yul\":194:195   */\n      0x00\n        /* \"#utility.yul\":187:199   */\n      revert\n        /* \"#utility.yul\":334:451   */\n    tag_230:\n        /* \"#utility.yul\":443:444   */\n      0x00\n        /* \"#utility.yul\":440:441   */\n      0x00\n        /* \"#utility.yul\":433:445   */\n      revert\n        /* \"#utility.yul\":457:559   */\n    tag_231:\n        /* \"#utility.yul\":498:504   */\n      0x00\n        /* \"#utility.yul\":549:551   */\n      0x1f\n        /* \"#utility.yul\":545:552   */\n      not\n        /* \"#utility.yul\":540:542   */\n      0x1f\n        /* \"#utility.yul\":533:538   */\n      dup4\n        /* \"#utility.yul\":529:543   */\n      add\n        /* \"#utility.yul\":525:553   */\n      and\n        /* \"#utility.yul\":515:553   */\n      swap1\n      pop\n        /* \"#utility.yul\":457:559   */\n      swap2\n      swap1\n      pop\n      jump\t// out\n        /* \"#utility.yul\":565:745   */\n    tag_13:\n        /* \"#utility.yul\":613:690   */\n      0x4e487b7100000000000000000000000000000000000000000000000000000000\n        /* \"#utility.yul\":610:611   */\n      0x00\n        /* \"#utility.yul\":603:691   */\n      mstore\n        /* \"#utility.yul\":710:714   */\n      0x41\n        /* \"#utility.yul\":707:708   */\n      0x04\n        /* \"#utility.yul\":700:715   */\n      mstore\n        /* \"#utility.yul\":734:738   */\n      0x24\n        /* \"#utility.yul\":731:732   */\n      0x00\n        /* \"#utility.yul\":724:739   */\n      revert\n        /* \"#utility.yul\":751:1032   */\n    tag_232:\n        /* \"#utility.yul\":834:861   */\n      tag_261\n        /* \"#utility.yul\":856:860   */\n      dup3\n        /* \"#utility.yul\":834:861   */\n      tag_231\n      jump\t// in\n    tag_261:\n        /* \"#utility.yul\":826:832   */\n      dup2\n        /* \"#utility.yul\":822:862   */\n      add\n        /* \"#utility.yul\":964:970   */\n      dup2\n        /* \"#utility.yul\":952:962   */\n      dup2\n        /* \"#utility.yul\":949:971   */\n      lt\n        /* \"#utility.yul\":928:946   */\n      0xffffffffffffffff\n        /* \"#utility.yul\":916:926   */\n      dup3\n        /* \"#utility.yul\":913:947   */\n      gt\n        /* \"#utility.yul\":910:972   */\n      or\n        /* \"#utility.yul\":907:995   */\n      iszero\n      tag_262\n      jumpi\n        /* \"#utility.yul\":975:993   */\n      tag_263\n      tag_13\n      jump\t// in\n    tag_263:\n        /* \"#utility.yul\":907:995   */\n    tag_262:\n        /* \"#utility.yul\":1015:1025   */\n      dup1\n        /* \"#utility.yul\":1011:1013   */\n      0x40\n        /* \"#utility.yul\":1004:1026   */\n      mstore\n        /* \"#utility.yul\":794:1032   */\n      pop\n        /* \"#utility.yul\":751:1032   */\n      pop\n      pop\n      jump\t// out\n        /* \"#utility.yul\":1038:1167   */\n    tag_233:\n        /* \"#utility.yul\":1072:1078   */\n      0x00\n        /* \"#utility.yul\":1099:1119   */\n      tag_265\n      tag_227\n      jump\t// in\n    tag_265:\n        /* \"#utility.yul\":1089:1119   */\n      swap1\n      pop\n        /* \"#utility.yul\":1128:1161   */\n      tag_266\n        /* \"#utility.yul\":1156:1160   */\n      dup3\n        /* \"#utility.yul\":1148:1154   */\n      dup3\n        /* \"#utility.yul\":1128:1161   */\n      tag_232\n      jump\t// in\n    tag_266:\n        /* \"#utility.yul\":1038:1167   */\n      swap2\n      swap1\n      pop\n      jump\t// out\n        /* \"#utility.yul\":1296:1373   */\n    tag_235:\n        /* \"#utility.yul\":1333:1340   */\n      0x00\n        /* \"#utility.yul\":1362:1367   */\n      dup2\n        /* \"#utility.yul\":1351:1367   */\n      swap1\n      pop\n        /* \"#utility.yul\":1296:1373   */\n      swap2\n      swap1\n      pop\n      jump\t// out\n        /* \"#utility.yul\":1379:1501   */\n    tag_236:\n        /* \"#utility.yul\":1452:1476   */\n      tag_270\n        /* \"#utility.yul\":1470:1475   */\n      dup2\n        /* \"#utility.yul\":1452:1476   */\n      tag_235\n      jump\t// in\n    tag_270:\n        /* \"#utility.yul\":1445:1450   */\n      dup2\n        /* \"#utility.yul\":1442:1477   */\n      eq\n        /* \"#utility.yul\":1432:1495   */\n      tag_271\n      jumpi\n        /* \"#utility.yul\":1491:1492   */\n      0x00\n        /* \"#utility.yul\":1488:1489   */\n      0x00\n        /* \"#utility.yul\":1481:1493   */\n      revert\n        /* \"#utility.yul\":1432:1495   */\n    tag_271:\n        /* \"#utility.yul\":1379:1501   */\n      pop\n      jump\t// out\n        /* \"#utility.yul\":1507:1646   */\n    tag_237:\n        /* \"#utility.yul\":1553:1558   */\n      0x00\n        /* \"#utility.yul\":1591:1597   */\n      dup2\n        /* \"#utility.yul\":1578:1598   */\n      calldataload\n        /* \"#utility.yul\":1569:1598   */\n      swap1\n      pop\n        /* \"#utility.yul\":1607:1640   */\n      tag_273\n        /* \"#utility.yul\":1634:1639   */\n      dup2\n        /* \"#utility.yul\":1607:1640   */\n      tag_236\n      jump\t// in\n    tag_273:\n        /* \"#utility.yul\":1507:1646   */\n      swap3\n      swap2\n      pop\n      pop\n      jump\t// out\n        /* \"#utility.yul\":1683:2248   */\n    tag_238:\n        /* \"#utility.yul\":1754:1759   */\n      0x00\n        /* \"#utility.yul\":1798:1802   */\n      0x40\n        /* \"#utility.yul\":1786:1795   */\n      dup3\n        /* \"#utility.yul\":1781:1784   */\n      dup5\n        /* \"#utility.yul\":1777:1796   */\n      sub\n        /* \"#utility.yul\":1773:1803   */\n      slt\n        /* \"#utility.yul\":1770:1887   */\n      iszero\n      tag_275\n      jumpi\n        /* \"#utility.yul\":1806:1885   */\n      tag_276\n      tag_230\n      jump\t// in\n    tag_276:\n        /* \"#utility.yul\":1770:1887   */\n    tag_275:\n        /* \"#utility.yul\":1905:1926   */\n      tag_277\n        /* \"#utility.yul\":1921:1925   */\n      0x40\n        /* \"#utility.yul\":1905:1926   */\n      tag_233\n      jump\t// in\n    tag_277:\n        /* \"#utility.yul\":1896:1926   */\n      swap1\n      pop\n        /* \"#utility.yul\":1982:1983   */\n      0x00\n        /* \"#utility.yul\":2022:2071   */\n      tag_278\n        /* \"#utility.yul\":2067:2070   */\n      dup5\n        /* \"#utility.yul\":2058:2064   */\n      dup3\n        /* \"#utility.yul\":2047:2056   */\n      dup6\n        /* \"#utility.yul\":2043:2065   */\n      add\n        /* \"#utility.yul\":2022:2071   */\n      tag_237\n      jump\t// in\n    tag_278:\n        /* \"#utility.yul\":2015:2019   */\n      0x00\n        /* \"#utility.yul\":2008:2013   */\n      dup4\n        /* \"#utility.yul\":2004:2020   */\n      add\n        /* \"#utility.yul\":1997:2072   */\n      mstore\n        /* \"#utility.yul\":1936:2083   */\n      pop\n        /* \"#utility.yul\":2139:2141   */\n      0x20\n        /* \"#utility.yul\":2180:2229   */\n      tag_279\n        /* \"#utility.yul\":2225:2228   */\n      dup5\n        /* \"#utility.yul\":2216:2222   */\n      dup3\n        /* \"#utility.yul\":2205:2214   */\n      dup6\n        /* \"#utility.yul\":2201:2223   */\n      add\n        /* \"#utility.yul\":2180:2229   */\n      tag_237\n      jump\t// in\n    tag_279:\n        /* \"#utility.yul\":2173:2177   */\n      0x20\n        /* \"#utility.yul\":2166:2171   */\n      dup4\n        /* \"#utility.yul\":2162:2178   */\n      add\n        /* \"#utility.yul\":2155:2230   */\n      mstore\n        /* \"#utility.yul\":2093:2241   */\n      pop\n        /* \"#utility.yul\":1683:2248   */\n      swap3\n      swap2\n      pop\n      pop\n      jump\t// out\n        /* \"#utility.yul\":2254:2371   */\n    tag_239:\n        /* \"#utility.yul\":2363:2364   */\n      0x00\n        /* \"#utility.yul\":2360:2361   */\n      0x00\n        /* \"#utility.yul\":2353:2365   */\n      revert\n        /* \"#utility.yul\":2377:2626   */\n    tag_240:\n        /* \"#utility.yul\":2452:2456   */\n      0x00\n        /* \"#utility.yul\":2542:2560   */\n      0xffffffffffffffff\n        /* \"#utility.yul\":2534:2540   */\n      dup3\n        /* \"#utility.yul\":2531:2561   */\n      gt\n        /* \"#utility.yul\":2528:2584   */\n      iszero\n      tag_282\n      jumpi\n        /* \"#utility.yul\":2564:2582   */\n      tag_283\n      tag_13\n      jump\t// in\n    tag_283:\n        /* \"#utility.yul\":2528:2584   */\n    tag_282:\n        /* \"#utility.yul\":2614:2618   */\n      0x20\n        /* \"#utility.yul\":2606:2612   */\n      dup3\n        /* \"#utility.yul\":2602:2619   */\n      mul\n        /* \"#utility.yul\":2594:2619   */\n      swap1\n      pop\n        /* \"#utility.yul\":2377:2626   */\n      swap2\n      swap1\n      pop\n      jump\t// out\n        /* \"#utility.yul\":2632:2749   */\n    tag_241:\n        /* \"#utility.yul\":2741:2742   */\n      0x00\n        /* \"#utility.yul\":2738:2739   */\n      0x00\n        /* \"#utility.yul\":2731:2743   */\n      revert\n        /* \"#utility.yul\":2773:3416   */\n    tag_242:\n        /* \"#utility.yul\":2867:2872   */\n      0x00\n        /* \"#utility.yul\":2892:2971   */\n      tag_286\n        /* \"#utility.yul\":2908:2970   */\n      tag_287\n        /* \"#utility.yul\":2963:2969   */\n      dup5\n        /* \"#utility.yul\":2908:2970   */\n      tag_240\n      jump\t// in\n    tag_287:\n        /* \"#utility.yul\":2892:2971   */\n      tag_233\n      jump\t// in\n    tag_286:\n        /* \"#utility.yul\":2883:2971   */\n      swap1\n      pop\n        /* \"#utility.yul\":2991:2996   */\n      dup1\n        /* \"#utility.yul\":3044:3048   */\n      0x20\n        /* \"#utility.yul\":3036:3042   */\n      dup5\n        /* \"#utility.yul\":3032:3049   */\n      mul\n        /* \"#utility.yul\":3024:3030   */\n      dup4\n        /* \"#utility.yul\":3020:3050   */\n      add\n        /* \"#utility.yul\":3073:3076   */\n      dup6\n        /* \"#utility.yul\":3065:3071   */\n      dup2\n        /* \"#utility.yul\":3062:3077   */\n      gt\n        /* \"#utility.yul\":3059:3181   */\n      iszero\n      tag_288\n      jumpi\n        /* \"#utility.yul\":3092:3171   */\n      tag_289\n      tag_241\n      jump\t// in\n    tag_289:\n        /* \"#utility.yul\":3059:3181   */\n    tag_288:\n        /* \"#utility.yul\":3207:3213   */\n      dup4\n        /* \"#utility.yul\":3190:3410   */\n    tag_290:\n        /* \"#utility.yul\":3224:3230   */\n      dup2\n        /* \"#utility.yul\":3219:3222   */\n      dup2\n        /* \"#utility.yul\":3216:3231   */\n      lt\n        /* \"#utility.yul\":3190:3410   */\n      iszero\n      tag_292\n      jumpi\n        /* \"#utility.yul\":3299:3302   */\n      dup1\n        /* \"#utility.yul\":3328:3365   */\n      tag_293\n        /* \"#utility.yul\":3361:3364   */\n      dup9\n        /* \"#utility.yul\":3349:3359   */\n      dup3\n        /* \"#utility.yul\":3328:3365   */\n      tag_237\n      jump\t// in\n    tag_293:\n        /* \"#utility.yul\":3323:3326   */\n      dup5\n        /* \"#utility.yul\":3316:3366   */\n      mstore\n        /* \"#utility.yul\":3395:3399   */\n      0x20\n        /* \"#utility.yul\":3390:3393   */\n      dup5\n        /* \"#utility.yul\":3386:3400   */\n      add\n        /* \"#utility.yul\":3379:3400   */\n      swap4\n      pop\n        /* \"#utility.yul\":3266:3410   */\n      pop\n        /* \"#utility.yul\":3250:3254   */\n      0x20\n        /* \"#utility.yul\":3245:3248   */\n      dup2\n        /* \"#utility.yul\":3241:3255   */\n      add\n        /* \"#utility.yul\":3234:3255   */\n      swap1\n      pop\n        /* \"#utility.yul\":3190:3410   */\n      jump(tag_290)\n    tag_292:\n        /* \"#utility.yul\":3194:3215   */\n      pop\n        /* \"#utility.yul\":2873:3416   */\n      pop\n      pop\n        /* \"#utility.yul\":2773:3416   */\n      swap4\n      swap3\n      pop\n      pop\n      pop\n      jump\t// out\n        /* \"#utility.yul\":3440:3779   */\n    tag_243:\n        /* \"#utility.yul\":3509:3514   */\n      0x00\n        /* \"#utility.yul\":3558:3561   */\n      dup3\n        /* \"#utility.yul\":3551:3555   */\n      0x1f\n        /* \"#utility.yul\":3543:3549   */\n      dup4\n        /* \"#utility.yul\":3539:3556   */\n      add\n        /* \"#utility.yul\":3535:3562   */\n      slt\n        /* \"#utility.yul\":3525:3647   */\n      tag_295\n      jumpi\n        /* \"#utility.yul\":3566:3645   */\n      tag_296\n      tag_239\n      jump\t// in\n    tag_296:\n        /* \"#utility.yul\":3525:3647   */\n    tag_295:\n        /* \"#utility.yul\":3670:3674   */\n      0x02\n        /* \"#utility.yul\":3692:3773   */\n      tag_297\n        /* \"#utility.yul\":3769:3772   */\n      dup5\n        /* \"#utility.yul\":3761:3767   */\n      dup3\n        /* \"#utility.yul\":3753:3759   */\n      dup6\n        /* \"#utility.yul\":3692:3773   */\n      tag_242\n      jump\t// in\n    tag_297:\n        /* \"#utility.yul\":3683:3773   */\n      swap2\n      pop\n        /* \"#utility.yul\":3515:3779   */\n      pop\n        /* \"#utility.yul\":3440:3779   */\n      swap3\n      swap2\n      pop\n      pop\n      jump\t// out\n        /* \"#utility.yul\":3816:4428   */\n    tag_244:\n        /* \"#utility.yul\":3888:3893   */\n      0x00\n        /* \"#utility.yul\":3932:3936   */\n      0x80\n        /* \"#utility.yul\":3920:3929   */\n      dup3\n        /* \"#utility.yul\":3915:3918   */\n      dup5\n        /* \"#utility.yul\":3911:3930   */\n      sub\n        /* \"#utility.yul\":3907:3937   */\n      slt\n        /* \"#utility.yul\":3904:4021   */\n      iszero\n      tag_299\n      jumpi\n        /* \"#utility.yul\":3940:4019   */\n      tag_300\n      tag_230\n      jump\t// in\n    tag_300:\n        /* \"#utility.yul\":3904:4021   */\n    tag_299:\n        /* \"#utility.yul\":4039:4060   */\n      tag_301\n        /* \"#utility.yul\":4055:4059   */\n      0x40\n        /* \"#utility.yul\":4039:4060   */\n      tag_233\n      jump\t// in\n    tag_301:\n        /* \"#utility.yul\":4030:4060   */\n      swap1\n      pop\n        /* \"#utility.yul\":4116:4117   */\n      0x00\n        /* \"#utility.yul\":4156:4228   */\n      tag_302\n        /* \"#utility.yul\":4224:4227   */\n      dup5\n        /* \"#utility.yul\":4215:4221   */\n      dup3\n        /* \"#utility.yul\":4204:4213   */\n      dup6\n        /* \"#utility.yul\":4200:4222   */\n      add\n        /* \"#utility.yul\":4156:4228   */\n      tag_243\n      jump\t// in\n    tag_302:\n        /* \"#utility.yul\":4149:4153   */\n      0x00\n        /* \"#utility.yul\":4142:4147   */\n      dup4\n        /* \"#utility.yul\":4138:4154   */\n      add\n        /* \"#utility.yul\":4131:4229   */\n      mstore\n        /* \"#utility.yul\":4070:4240   */\n      pop\n        /* \"#utility.yul\":4296:4298   */\n      0x40\n        /* \"#utility.yul\":4337:4409   */\n      tag_303\n        /* \"#utility.yul\":4405:4408   */\n      dup5\n        /* \"#utility.yul\":4396:4402   */\n      dup3\n        /* \"#utility.yul\":4385:4394   */\n      dup6\n        /* \"#utility.yul\":4381:4403   */\n      add\n        /* \"#utility.yul\":4337:4409   */\n      tag_243\n      jump\t// in\n    tag_303:\n        /* \"#utility.yul\":4330:4334   */\n      0x20\n        /* \"#utility.yul\":4323:4328   */\n      dup4\n        /* \"#utility.yul\":4319:4335   */\n      add\n        /* \"#utility.yul\":4312:4410   */\n      mstore\n        /* \"#utility.yul\":4250:4421   */\n      pop\n        /* \"#utility.yul\":3816:4428   */\n      swap3\n      swap2\n      pop\n      pop\n      jump\t// out\n        /* \"#utility.yul\":4471:5264   */\n    tag_245:\n        /* \"#utility.yul\":4542:4547   */\n      0x00\n        /* \"#utility.yul\":4586:4592   */\n      0x0100\n        /* \"#utility.yul\":4574:4583   */\n      dup3\n        /* \"#utility.yul\":4569:4572   */\n      dup5\n        /* \"#utility.yul\":4565:4584   */\n      sub\n        /* \"#utility.yul\":4561:4593   */\n      slt\n        /* \"#utility.yul\":4558:4677   */\n      iszero\n      tag_305\n      jumpi\n        /* \"#utility.yul\":4596:4675   */\n      tag_306\n      tag_230\n      jump\t// in\n    tag_306:\n        /* \"#utility.yul\":4558:4677   */\n    tag_305:\n        /* \"#utility.yul\":4695:4716   */\n      tag_307\n        /* \"#utility.yul\":4711:4715   */\n      0x60\n        /* \"#utility.yul\":4695:4716   */\n      tag_233\n      jump\t// in\n    tag_307:\n        /* \"#utility.yul\":4686:4716   */\n      swap1\n      pop\n        /* \"#utility.yul\":4772:4773   */\n      0x00\n        /* \"#utility.yul\":4812:4883   */\n      tag_308\n        /* \"#utility.yul\":4879:4882   */\n      dup5\n        /* \"#utility.yul\":4870:4876   */\n      dup3\n        /* \"#utility.yul\":4859:4868   */\n      dup6\n        /* \"#utility.yul\":4855:4877   */\n      add\n        /* \"#utility.yul\":4812:4883   */\n      tag_238\n      jump\t// in\n    tag_308:\n        /* \"#utility.yul\":4805:4809   */\n      0x00\n        /* \"#utility.yul\":4798:4803   */\n      dup4\n        /* \"#utility.yul\":4794:4810   */\n      add\n        /* \"#utility.yul\":4787:4884   */\n      mstore\n        /* \"#utility.yul\":4726:4895   */\n      pop\n        /* \"#utility.yul\":4951:4953   */\n      0x40\n        /* \"#utility.yul\":4992:5064   */\n      tag_309\n        /* \"#utility.yul\":5060:5063   */\n      dup5\n        /* \"#utility.yul\":5051:5057   */\n      dup3\n        /* \"#utility.yul\":5040:5049   */\n      dup6\n        /* \"#utility.yul\":5036:5058   */\n      add\n        /* \"#utility.yul\":4992:5064   */\n      tag_244\n      jump\t// in\n    tag_309:\n        /* \"#utility.yul\":4985:4989   */\n      0x20\n        /* \"#utility.yul\":4978:4983   */\n      dup4\n        /* \"#utility.yul\":4974:4990   */\n      add\n        /* \"#utility.yul\":4967:5065   */\n      mstore\n        /* \"#utility.yul\":4905:5076   */\n      pop\n        /* \"#utility.yul\":5132:5135   */\n      0xc0\n        /* \"#utility.yul\":5174:5245   */\n      tag_310\n        /* \"#utility.yul\":5241:5244   */\n      dup5\n        /* \"#utility.yul\":5232:5238   */\n      dup3\n        /* \"#utility.yul\":5221:5230   */\n      dup6\n        /* \"#utility.yul\":5217:5239   */\n      add\n        /* \"#utility.yul\":5174:5245   */\n      tag_238\n      jump\t// in\n    tag_310:\n        /* \"#utility.yul\":5167:5171   */\n      0x40\n        /* \"#utility.yul\":5160:5165   */\n      dup4\n        /* \"#utility.yul\":5156:5172   */\n      add\n        /* \"#utility.yul\":5149:5246   */\n      mstore\n        /* \"#utility.yul\":5086:5257   */\n      pop\n        /* \"#utility.yul\":4471:5264   */\n      swap3\n      swap2\n      pop\n      pop\n      jump\t// out\n        /* \"#utility.yul\":5270:5520   */\n    tag_246:\n        /* \"#utility.yul\":5346:5350   */\n      0x00\n        /* \"#utility.yul\":5436:5454   */\n      0xffffffffffffffff\n        /* \"#utility.yul\":5428:5434   */\n      dup3\n        /* \"#utility.yul\":5425:5455   */\n      gt\n        /* \"#utility.yul\":5422:5478   */\n      iszero\n      tag_312\n      jumpi\n        /* \"#utility.yul\":5458:5476   */\n      tag_313\n      tag_13\n      jump\t// in\n    tag_313:\n        /* \"#utility.yul\":5422:5478   */\n    tag_312:\n        /* \"#utility.yul\":5508:5512   */\n      0x20\n        /* \"#utility.yul\":5500:5506   */\n      dup3\n        /* \"#utility.yul\":5496:5513   */\n      mul\n        /* \"#utility.yul\":5488:5513   */\n      swap1\n      pop\n        /* \"#utility.yul\":5270:5520   */\n      swap2\n      swap1\n      pop\n      jump\t// out\n        /* \"#utility.yul\":5545:6190   */\n    tag_247:\n        /* \"#utility.yul\":5640:5645   */\n      0x00\n        /* \"#utility.yul\":5665:5745   */\n      tag_315\n        /* \"#utility.yul\":5681:5744   */\n      tag_316\n        /* \"#utility.yul\":5737:5743   */\n      dup5\n        /* \"#utility.yul\":5681:5744   */\n      tag_246\n      jump\t// in\n    tag_316:\n        /* \"#utility.yul\":5665:5745   */\n      tag_233\n      jump\t// in\n    tag_315:\n        /* \"#utility.yul\":5656:5745   */\n      swap1\n      pop\n        /* \"#utility.yul\":5765:5770   */\n      dup1\n        /* \"#utility.yul\":5818:5822   */\n      0x20\n        /* \"#utility.yul\":5810:5816   */\n      dup5\n        /* \"#utility.yul\":5806:5823   */\n      mul\n        /* \"#utility.yul\":5798:5804   */\n      dup4\n        /* \"#utility.yul\":5794:5824   */\n      add\n        /* \"#utility.yul\":5847:5850   */\n      dup6\n        /* \"#utility.yul\":5839:5845   */\n      dup2\n        /* \"#utility.yul\":5836:5851   */\n      gt\n        /* \"#utility.yul\":5833:5955   */\n      iszero\n      tag_317\n      jumpi\n        /* \"#utility.yul\":5866:5945   */\n      tag_318\n      tag_241\n      jump\t// in\n    tag_318:\n        /* \"#utility.yul\":5833:5955   */\n    tag_317:\n        /* \"#utility.yul\":5981:5987   */\n      dup4\n        /* \"#utility.yul\":5964:6184   */\n    tag_319:\n        /* \"#utility.yul\":5998:6004   */\n      dup2\n        /* \"#utility.yul\":5993:5996   */\n      dup2\n        /* \"#utility.yul\":5990:6005   */\n      lt\n        /* \"#utility.yul\":5964:6184   */\n      iszero\n      tag_321\n      jumpi\n        /* \"#utility.yul\":6073:6076   */\n      dup1\n        /* \"#utility.yul\":6102:6139   */\n      tag_322\n        /* \"#utility.yul\":6135:6138   */\n      dup9\n        /* \"#utility.yul\":6123:6133   */\n      dup3\n        /* \"#utility.yul\":6102:6139   */\n      tag_237\n      jump\t// in\n    tag_322:\n        /* \"#utility.yul\":6097:6100   */\n      dup5\n        /* \"#utility.yul\":6090:6140   */\n      mstore\n        /* \"#utility.yul\":6169:6173   */\n      0x20\n        /* \"#utility.yul\":6164:6167   */\n      dup5\n        /* \"#utility.yul\":6160:6174   */\n      add\n        /* \"#utility.yul\":6153:6174   */\n      swap4\n      pop\n        /* \"#utility.yul\":6040:6184   */\n      pop\n        /* \"#utility.yul\":6024:6028   */\n      0x20\n        /* \"#utility.yul\":6019:6022   */\n      dup2\n        /* \"#utility.yul\":6015:6029   */\n      add\n        /* \"#utility.yul\":6008:6029   */\n      swap1\n      pop\n        /* \"#utility.yul\":5964:6184   */\n      jump(tag_319)\n    tag_321:\n        /* \"#utility.yul\":5968:5989   */\n      pop\n        /* \"#utility.yul\":5646:6190   */\n      pop\n      pop\n        /* \"#utility.yul\":5545:6190   */\n      swap4\n      swap3\n      pop\n      pop\n      pop\n      jump\t// out\n        /* \"#utility.yul\":6215:6556   */\n    tag_248:\n        /* \"#utility.yul\":6285:6290   */\n      0x00\n        /* \"#utility.yul\":6334:6337   */\n      dup3\n        /* \"#utility.yul\":6327:6331   */\n      0x1f\n        /* \"#utility.yul\":6319:6325   */\n      dup4\n        /* \"#utility.yul\":6315:6332   */\n      add\n        /* \"#utility.yul\":6311:6338   */\n      slt\n        /* \"#utility.yul\":6301:6423   */\n      tag_324\n      jumpi\n        /* \"#utility.yul\":6342:6421   */\n      tag_325\n      tag_239\n      jump\t// in\n    tag_325:\n        /* \"#utility.yul\":6301:6423   */\n    tag_324:\n        /* \"#utility.yul\":6446:6450   */\n      0x0c\n        /* \"#utility.yul\":6468:6550   */\n      tag_326\n        /* \"#utility.yul\":6546:6549   */\n      dup5\n        /* \"#utility.yul\":6538:6544   */\n      dup3\n        /* \"#utility.yul\":6530:6536   */\n      dup6\n        /* \"#utility.yul\":6468:6550   */\n      tag_247\n      jump\t// in\n    tag_326:\n        /* \"#utility.yul\":6459:6550   */\n      swap2\n      pop\n        /* \"#utility.yul\":6291:6556   */\n      pop\n        /* \"#utility.yul\":6215:6556   */\n      swap3\n      swap2\n      pop\n      pop\n      jump\t// out\n        /* \"#utility.yul\":6562:7130   */\n    tag_6:\n        /* \"#utility.yul\":6676:6682   */\n      0x00\n        /* \"#utility.yul\":6684:6690   */\n      0x00\n        /* \"#utility.yul\":6733:6736   */\n      0x0280\n        /* \"#utility.yul\":6721:6730   */\n      dup4\n        /* \"#utility.yul\":6712:6719   */\n      dup6\n        /* \"#utility.yul\":6708:6731   */\n      sub\n        /* \"#utility.yul\":6704:6737   */\n      slt\n        /* \"#utility.yul\":6701:6821   */\n      iszero\n      tag_328\n      jumpi\n        /* \"#utility.yul\":6740:6819   */\n      tag_329\n      tag_228\n      jump\t// in\n    tag_329:\n        /* \"#utility.yul\":6701:6821   */\n    tag_328:\n        /* \"#utility.yul\":6860:6861   */\n      0x00\n        /* \"#utility.yul\":6885:6960   */\n      tag_330\n        /* \"#utility.yul\":6952:6959   */\n      dup6\n        /* \"#utility.yul\":6943:6949   */\n      dup3\n        /* \"#utility.yul\":6932:6941   */\n      dup7\n        /* \"#utility.yul\":6928:6950   */\n      add\n        /* \"#utility.yul\":6885:6960   */\n      tag_245\n      jump\t// in\n    tag_330:\n        /* \"#utility.yul\":6875:6960   */\n      swap3\n      pop\n        /* \"#utility.yul\":6831:6970   */\n      pop\n        /* \"#utility.yul\":7009:7012   */\n      0x0100\n        /* \"#utility.yul\":7036:7113   */\n      tag_331\n        /* \"#utility.yul\":7105:7112   */\n      dup6\n        /* \"#utility.yul\":7096:7102   */\n      dup3\n        /* \"#utility.yul\":7085:7094   */\n      dup7\n        /* \"#utility.yul\":7081:7103   */\n      add\n        /* \"#utility.yul\":7036:7113   */\n      tag_248\n      jump\t// in\n    tag_331:\n        /* \"#utility.yul\":7026:7113   */\n      swap2\n      pop\n        /* \"#utility.yul\":6980:7123   */\n      pop\n        /* \"#utility.yul\":6562:7130   */\n      swap3\n      pop\n      swap3\n      swap1\n      pop\n      jump\t// out\n        /* \"#utility.yul\":7136:7226   */\n    tag_249:\n        /* \"#utility.yul\":7170:7177   */\n      0x00\n        /* \"#utility.yul\":7213:7218   */\n      dup2\n        /* \"#utility.yul\":7206:7219   */\n      iszero\n        /* \"#utility.yul\":7199:7220   */\n      iszero\n        /* \"#utility.yul\":7188:7220   */\n      swap1\n      pop\n        /* \"#utility.yul\":7136:7226   */\n      swap2\n      swap1\n      pop\n      jump\t// out\n        /* \"#utility.yul\":7232:7341   */\n    tag_250:\n        /* \"#utility.yul\":7313:7334   */\n      tag_334\n        /* \"#utility.yul\":7328:7333   */\n      dup2\n        /* \"#utility.yul\":7313:7334   */\n      tag_249\n      jump\t// in\n    tag_334:\n        /* \"#utility.yul\":7308:7311   */\n      dup3\n        /* \"#utility.yul\":7301:7335   */\n      mstore\n        /* \"#utility.yul\":7232:7341   */\n      pop\n      pop\n      jump\t// out\n        /* \"#utility.yul\":7347:7557   */\n    tag_9:\n        /* \"#utility.yul\":7434:7438   */\n      0x00\n        /* \"#utility.yul\":7472:7474   */\n      0x20\n        /* \"#utility.yul\":7461:7470   */\n      dup3\n        /* \"#utility.yul\":7457:7475   */\n      add\n        /* \"#utility.yul\":7449:7475   */\n      swap1\n      pop\n        /* \"#utility.yul\":7485:7550   */\n      tag_336\n        /* \"#utility.yul\":7547:7548   */\n      0x00\n        /* \"#utility.yul\":7536:7545   */\n      dup4\n        /* \"#utility.yul\":7532:7549   */\n      add\n        /* \"#utility.yul\":7523:7529   */\n      dup5\n        /* \"#utility.yul\":7485:7550   */\n      tag_250\n      jump\t// in\n    tag_336:\n        /* \"#utility.yul\":7347:7557   */\n      swap3\n      swap2\n      pop\n      pop\n      jump\t// out\n        /* \"#utility.yul\":7563:7743   */\n    tag_20:\n        /* \"#utility.yul\":7611:7688   */\n      0x4e487b7100000000000000000000000000000000000000000000000000000000\n        /* \"#utility.yul\":7608:7609   */\n      0x00\n        /* \"#utility.yul\":7601:7689   */\n      mstore\n        /* \"#utility.yul\":7708:7712   */\n      0x32\n        /* \"#utility.yul\":7705:7706   */\n      0x04\n        /* \"#utility.yul\":7698:7713   */\n      mstore\n        /* \"#utility.yul\":7732:7736   */\n      0x24\n        /* \"#utility.yul\":7729:7730   */\n      0x00\n        /* \"#utility.yul\":7722:7737   */\n      revert\n        /* \"#utility.yul\":7749:7929   */\n    tag_251:\n        /* \"#utility.yul\":7797:7874   */\n      0x4e487b7100000000000000000000000000000000000000000000000000000000\n        /* \"#utility.yul\":7794:7795   */\n      0x00\n        /* \"#utility.yul\":7787:7875   */\n      mstore\n        /* \"#utility.yul\":7894:7898   */\n      0x11\n        /* \"#utility.yul\":7891:7892   */\n      0x04\n        /* \"#utility.yul\":7884:7899   */\n      mstore\n        /* \"#utility.yul\":7918:7922   */\n      0x24\n        /* \"#utility.yul\":7915:7916   */\n      0x00\n        /* \"#utility.yul\":7908:7923   */\n      revert\n        /* \"#utility.yul\":7935:8126   */\n    tag_31:\n        /* \"#utility.yul\":7975:7978   */\n      0x00\n        /* \"#utility.yul\":7994:8014   */\n      tag_340\n        /* \"#utility.yul\":8012:8013   */\n      dup3\n        /* \"#utility.yul\":7994:8014   */\n      tag_235\n      jump\t// in\n    tag_340:\n        /* \"#utility.yul\":7989:8014   */\n      swap2\n      pop\n        /* \"#utility.yul\":8028:8048   */\n      tag_341\n        /* \"#utility.yul\":8046:8047   */\n      dup4\n        /* \"#utility.yul\":8028:8048   */\n      tag_235\n      jump\t// in\n    tag_341:\n        /* \"#utility.yul\":8023:8048   */\n      swap3\n      pop\n        /* \"#utility.yul\":8071:8072   */\n      dup3\n        /* \"#utility.yul\":8068:8069   */\n      dup3\n        /* \"#utility.yul\":8064:8073   */\n      add\n        /* \"#utility.yul\":8057:8073   */\n      swap1\n      pop\n        /* \"#utility.yul\":8092:8095   */\n      dup1\n        /* \"#utility.yul\":8089:8090   */\n      dup3\n        /* \"#utility.yul\":8086:8096   */\n      gt\n        /* \"#utility.yul\":8083:8119   */\n      iszero\n      tag_342\n      jumpi\n        /* \"#utility.yul\":8099:8117   */\n      tag_343\n      tag_251\n      jump\t// in\n    tag_343:\n        /* \"#utility.yul\":8083:8119   */\n    tag_342:\n        /* \"#utility.yul\":7935:8126   */\n      swap3\n      swap2\n      pop\n      pop\n      jump\t// out\n        /* \"#utility.yul\":8132:8312   */\n    tag_252:\n        /* \"#utility.yul\":8180:8257   */\n      0x4e487b7100000000000000000000000000000000000000000000000000000000\n        /* \"#utility.yul\":8177:8178   */\n      0x00\n        /* \"#utility.yul\":8170:8258   */\n      mstore\n        /* \"#utility.yul\":8277:8281   */\n      0x12\n        /* \"#utility.yul\":8274:8275   */\n      0x04\n        /* \"#utility.yul\":8267:8282   */\n      mstore\n        /* \"#utility.yul\":8301:8305   */\n      0x24\n        /* \"#utility.yul\":8298:8299   */\n      0x00\n        /* \"#utility.yul\":8291:8306   */\n      revert\n        /* \"#utility.yul\":8318:8494   */\n    tag_126:\n        /* \"#utility.yul\":8350:8351   */\n      0x00\n        /* \"#utility.yul\":8367:8387   */\n      tag_346\n        /* \"#utility.yul\":8385:8386   */\n      dup3\n        /* \"#utility.yul\":8367:8387   */\n      tag_235\n      jump\t// in\n    tag_346:\n        /* \"#utility.yul\":8362:8387   */\n      swap2\n      pop\n        /* \"#utility.yul\":8401:8421   */\n      tag_347\n        /* \"#utility.yul\":8419:8420   */\n      dup4\n        /* \"#utility.yul\":8401:8421   */\n      tag_235\n      jump\t// in\n    tag_347:\n        /* \"#utility.yul\":8396:8421   */\n      swap3\n      pop\n        /* \"#utility.yul\":8440:8441   */\n      dup3\n        /* \"#utility.yul\":8430:8465   */\n      tag_348\n      jumpi\n        /* \"#utility.yul\":8445:8463   */\n      tag_349\n      tag_252\n      jump\t// in\n    tag_349:\n        /* \"#utility.yul\":8430:8465   */\n    tag_348:\n        /* \"#utility.yul\":8486:8487   */\n      dup3\n        /* \"#utility.yul\":8483:8484   */\n      dup3\n        /* \"#utility.yul\":8479:8488   */\n      mod\n        /* \"#utility.yul\":8474:8488   */\n      swap1\n      pop\n        /* \"#utility.yul\":8318:8494   */\n      swap3\n      swap2\n      pop\n      pop\n      jump\t// out\n        /* \"#utility.yul\":8500:8694   */\n    tag_128:\n        /* \"#utility.yul\":8540:8544   */\n      0x00\n        /* \"#utility.yul\":8560:8580   */\n      tag_351\n        /* \"#utility.yul\":8578:8579   */\n      dup3\n        /* \"#utility.yul\":8560:8580   */\n      tag_235\n      jump\t// in\n    tag_351:\n        /* \"#utility.yul\":8555:8580   */\n      swap2\n      pop\n        /* \"#utility.yul\":8594:8614   */\n      tag_352\n        /* \"#utility.yul\":8612:8613   */\n      dup4\n        /* \"#utility.yul\":8594:8614   */\n      tag_235\n      jump\t// in\n    tag_352:\n        /* \"#utility.yul\":8589:8614   */\n      swap3\n      pop\n        /* \"#utility.yul\":8638:8639   */\n      dup3\n        /* \"#utility.yul\":8635:8636   */\n      dup3\n        /* \"#utility.yul\":8631:8640   */\n      sub\n        /* \"#utility.yul\":8623:8640   */\n      swap1\n      pop\n        /* \"#utility.yul\":8662:8663   */\n      dup2\n        /* \"#utility.yul\":8656:8660   */\n      dup2\n        /* \"#utility.yul\":8653:8664   */\n      gt\n        /* \"#utility.yul\":8650:8687   */\n      iszero\n      tag_353\n      jumpi\n        /* \"#utility.yul\":8667:8685   */\n      tag_354\n      tag_251\n      jump\t// in\n    tag_354:\n        /* \"#utility.yul\":8650:8687   */\n    tag_353:\n        /* \"#utility.yul\":8500:8694   */\n      swap3\n      swap2\n      pop\n      pop\n      jump\t// out\n        /* \"#utility.yul\":8700:9110   */\n    tag_162:\n        /* \"#utility.yul\":8740:8747   */\n      0x00\n        /* \"#utility.yul\":8763:8783   */\n      tag_356\n        /* \"#utility.yul\":8781:8782   */\n      dup3\n        /* \"#utility.yul\":8763:8783   */\n      tag_235\n      jump\t// in\n    tag_356:\n        /* \"#utility.yul\":8758:8783   */\n      swap2\n      pop\n        /* \"#utility.yul\":8797:8817   */\n      tag_357\n        /* \"#utility.yul\":8815:8816   */\n      dup4\n        /* \"#utility.yul\":8797:8817   */\n      tag_235\n      jump\t// in\n    tag_357:\n        /* \"#utility.yul\":8792:8817   */\n      swap3\n      pop\n        /* \"#utility.yul\":8852:8853   */\n      dup3\n        /* \"#utility.yul\":8849:8850   */\n      dup3\n        /* \"#utility.yul\":8845:8854   */\n      mul\n        /* \"#utility.yul\":8874:8904   */\n      tag_358\n        /* \"#utility.yul\":8892:8903   */\n      dup2\n        /* \"#utility.yul\":8874:8904   */\n      tag_235\n      jump\t// in\n    tag_358:\n        /* \"#utility.yul\":8863:8904   */\n      swap2\n      pop\n        /* \"#utility.yul\":9053:9054   */\n      dup3\n        /* \"#utility.yul\":9044:9051   */\n      dup3\n        /* \"#utility.yul\":9040:9055   */\n      div\n        /* \"#utility.yul\":9037:9038   */\n      dup5\n        /* \"#utility.yul\":9034:9056   */\n      eq\n        /* \"#utility.yul\":9014:9015   */\n      dup4\n        /* \"#utility.yul\":9007:9016   */\n      iszero\n        /* \"#utility.yul\":8987:9070   */\n      or\n        /* \"#utility.yul\":8964:9103   */\n      tag_359\n      jumpi\n        /* \"#utility.yul\":9083:9101   */\n      tag_360\n      tag_251\n      jump\t// in\n    tag_360:\n        /* \"#utility.yul\":8964:9103   */\n    tag_359:\n        /* \"#utility.yul\":8748:9110   */\n      pop\n        /* \"#utility.yul\":8700:9110   */\n      swap3\n      swap2\n      pop\n      pop\n      jump\t// out\n\n    auxdata: 0xa26469706673582212206ca2eb29add30f6718578c67c957f5d7c78bbd3a80381fbdd7008c395ea4940364736f6c634300081e0033\n}\n",
				"bytecode": {
					"linkReferences": {},
					"object": "6080604052348015600e575f5ffd5b5061191d8061001c5f395ff3fe608060405234801561000f575f5ffd5b5060043610610029575f3560e01c8063666705991461002d575b5f5ffd5b61004760048036038101906100429190611716565b61005d565b6040516100549190611770565b60405180910390f35b5f5f600c67ffffffffffffffff81111561007a5761007961140b565b5b6040519080825280602002602001820160405280156100a85781602001602082028036833780820191505090505b5090505f5f90505b600c8110156100fd578381600c81106100cc576100cb611789565b5b60200201518282815181106100e4576100e3611789565b5b60200260200101818152505080806001019150506100b0565b505f6101098286610123565b0361011857600191505061011d565b5f9150505b92915050565b5f5f7f30644e72e131a029b85045b68181585d2833e84879b9709143e1f593f000000190505f6101516102ab565b90508060800151516001865161016791906117e3565b14610170575f5ffd5b5f60405180604001604052805f81526020015f81525090505f5f90505b865181101561022157838782815181106101aa576101a9611789565b5b6020026020010151106101bb575f5ffd5b6102128261020d85608001516001856101d491906117e3565b815181106101e5576101e4611789565b5b60200260200101518a8581518110610200576101ff611789565b5b6020026020010151610bd5565b610c72565b9150808060010191505061018d565b5061024a8183608001515f8151811061023d5761023c611789565b5b6020026020010151610c72565b905061028e855f0151866020015161026184610d34565b85604001516102738a60400151610d34565b8760600151610284895f0151610d34565b8960200151610dd2565b61029e57600193505050506102a5565b5f93505050505b92915050565b6102b36112dd565b60405180604001604052807f28a7729804d9784737152ba161e9b5bb3075adf4dbe2fb7bca382216cddd6d7081526020017f28784a9669ed9a0a339d22b73f39b4ff0eb15f5ce1b7426ce6cba26b39772317815250815f0181905250604051806040016040528060405180604001604052807f0e6e11738f4757f3df0986e0122743121956c43471b337241e1a130c722858ec81526020017f2d65d4fe199b98e9182ccb71d3877da10fdd277e6111ef0b709c6cfaa8840308815250815260200160405180604001604052807f22f7daee6dd380548926f390b2e5ccbd52c2e9ff6e64ad903f12ff872876a37d81526020017f0a121cf0cf08910ed781228eb30edc6528fcb63ef2d624859b8311a1fd94d43c8152508152508160200181905250604051806040016040528060405180604001604052807f269f66b3ce49dab8bf3eeaf1b8815c5347fe986bc68b44bf9738780744e5ccdb81526020017f2fd45e1eb6617859a5d7f3fa555b40d86c4154e6a2cf0034bd3222fff296b3ca815250815260200160405180604001604052807f04f94bd8573dbcf47ee1313af6ad79ffcaf21ad60f4bb4ccdebe43f3369c5dee81526020017f1c1d5b5ceb346ec69040a6d6c687960bcba9adbb3b626d2043450e9e12dbf6a28152508152508160400181905250604051806040016040528060405180604001604052807f20b716b6c087263484e0665da2edd5448a3afc07ed399598ab9d4fe51d4673c281526020017f2be69cabfcd1ca824594d678eafb7606a63d4ac8c88b54359db9cb9efdb5b009815250815260200160405180604001604052807f2d6251b9b12e346d39b87256520a546bf9b76135c815bc5f06b083e396e9ab8481526020017f01ec3a52a96658f2a1cfbf70aad62515fb27c25b29240a4b5b8b7e99ffa537698152508152508160600181905250600d67ffffffffffffffff8111156105795761057861140b565b5b6040519080825280602002602001820160405280156105b257816020015b61059f611324565b8152602001906001900390816105975790505b50816080018190525060405180604001604052807f1deef4c2163c27ef391a67129bff86ac96fd4f255f20f0387bf8382c9924148881526020017f25d8aebada2fe633dddff87d3a2f3fde80e559a0a2c5f96be63bfd7c8360440281525081608001515f8151811061062757610626611789565b5b602002602001018190525060405180604001604052807f0ce914d7009ed6549895785755e62171d10b0dc88f90cd2c3545116d2da3868e81526020017f094c15f9a4a4a981aa152456f33b467b56c183ba0b9ce2e4fc6b5a1b35d45924815250816080015160018151811061069f5761069e611789565b5b602002602001018190525060405180604001604052807f2176329002eaca982d0fafffd371b95553b7ba6b595caa5952d2031677905e1481526020017f0276de88554a48c91efb6116208bb83a49fd4c04a69d3022f426248eb46095ad815250816080015160028151811061071757610716611789565b5b602002602001018190525060405180604001604052807f04fdde8cbf46445df350925504ba0ba0dfb069aca2c0a9e52b60994a22265a7081526020017f110040cd9d9b9cc7f5beee07b1fd78deb4c942ada14836a2a371a7a7086b775d815250816080015160038151811061078f5761078e611789565b5b602002602001018190525060405180604001604052807f1de361fad29615559888fd87f7e26896acb358d92e7652e027bcb51efdcc381781526020017f1592e6746475ad488afcff1b19d3bb60e900a75a5a00311e515814a3acab99ac815250816080015160048151811061080757610806611789565b5b602002602001018190525060405180604001604052807f0b486bc7267410a315d45a2033e80c24afd73b92e308db08835be523ecac9e2781526020017f1fe232523b83eccd37db23b3ea381e992168b4087838421e0afb703ecd634c2a815250816080015160058151811061087f5761087e611789565b5b602002602001018190525060405180604001604052807f2b01058f10c05d33184e3d146e134f5c24a3ba9dca0b7a9e8e4df49a6c28492781526020017f189d5092a7cec07849e3fc6f40970bb7c778590d17670c17d79c013092c4134b81525081608001516006815181106108f7576108f6611789565b5b602002602001018190525060405180604001604052807f01eafab0be54246f0612615f7c4926e524643094ceec5e2d1e408a2ca83d027b81526020017f10ce98a135cd3b80e8c9fbd205e354ca3d526878ecfbe2803892842a187f78a5815250816080015160078151811061096f5761096e611789565b5b602002602001018190525060405180604001604052807f0c65ce40152eba575a15253dd929f5074bdb3746811a8e13f1fd4b41bf0284fc81526020017f0e1f3ed6ea56b4b51148b6b8735eb31595c63fbd414facb84a84f6a122aeba1581525081608001516008815181106109e7576109e6611789565b5b602002602001018190525060405180604001604052807f2a71a8b23d9e78b23664642644148d2caeee718b445bfcc028ee6876cb55ed2c81526020017f0b9ddaf66f5f4cac359d07ecf7cfdb3caf40627a7673f5e1c2de77f2f25df31b8152508160800151600981518110610a5f57610a5e611789565b5b602002602001018190525060405180604001604052807f2134ae21d4b4a30f4462f471df99d59e476f3d1b5004533624639cde55ddea1f81526020017f018071500c6ab3c5cafafd511958d76e1deee4c8700397991758d1829311f7e08152508160800151600a81518110610ad757610ad6611789565b5b602002602001018190525060405180604001604052807f02d23e166e9fad75b3e4d328e1bf2f35372dce751550ed21a10ec4b96491b4c181526020017f0361bc0450dde385c9c8301f6e73995e5190f44f903d9fc6474ec16fb0995b7e8152508160800151600b81518110610b4f57610b4e611789565b5b602002602001018190525060405180604001604052807f1d51d31d0477236fc08266d0205de543fcfa65443c4f2bd453fbbcfee8279ab581526020017f2a1b55cf51f4f2b414a710eab948346ade0b7e85c80536ed61fc878c326e6e6c8152508160800151600c81518110610bc757610bc6611789565b5b602002602001018190525090565b610bdd611324565b610be561133c565b835f0151815f60038110610bfc57610bfb611789565b5b602002018181525050836020015181600160038110610c1e57610c1d611789565b5b6020020181815250508281600260038110610c3c57610c3b611789565b5b6020020181815250505f60608360808460076107d05a03fa9050805f8103610c6057fe5b5080610c6a575f5ffd5b505092915050565b610c7a611324565b610c8261135e565b835f0151815f60048110610c9957610c98611789565b5b602002018181525050836020015181600160048110610cbb57610cba611789565b5b602002018181525050825f015181600260048110610cdc57610cdb611789565b5b602002018181525050826020015181600360048110610cfe57610cfd611789565b5b6020020181815250505f60608360c08460066107d05a03fa9050805f8103610d2257fe5b5080610d2c575f5ffd5b505092915050565b610d3c611324565b5f7f30644e72e131a029b85045b68181585d97816a916871ca8d3c208c16d87cfd4790505f835f0151148015610d7557505f8360200151145b15610d975760405180604001604052805f81526020015f815250915050610dcd565b6040518060400160405280845f01518152602001828560200151610dbb9190611843565b83610dc69190611873565b8152509150505b919050565b5f5f600467ffffffffffffffff811115610def57610dee61140b565b5b604051908082528060200260200182016040528015610e2857816020015b610e15611324565b815260200190600190039081610e0d5790505b5090505f600467ffffffffffffffff811115610e4757610e4661140b565b5b604051908082528060200260200182016040528015610e8057816020015b610e6d611380565b815260200190600190039081610e655790505b5090508a825f81518110610e9757610e96611789565b5b60200260200101819052508882600181518110610eb757610eb6611789565b5b60200260200101819052508682600281518110610ed757610ed6611789565b5b60200260200101819052508482600381518110610ef757610ef6611789565b5b602002602001018190525089815f81518110610f1657610f15611789565b5b60200260200101819052508781600181518110610f3657610f35611789565b5b60200260200101819052508581600281518110610f5657610f55611789565b5b60200260200101819052508381600381518110610f7657610f75611789565b5b6020026020010181905250610f8b8282610f9b565b9250505098975050505050505050565b5f8151835114610fa9575f5ffd5b5f835190505f600682610fbc91906118a6565b90505f8167ffffffffffffffff811115610fd957610fd861140b565b5b6040519080825280602002602001820160405280156110075781602001602082028036833780820191505090505b5090505f5f90505b838110156112825786818151811061102a57611029611789565b5b60200260200101515f0151825f60068461104491906118a6565b61104e91906117e3565b8151811061105f5761105e611789565b5b60200260200101818152505086818151811061107e5761107d611789565b5b60200260200101516020015182600160068461109a91906118a6565b6110a491906117e3565b815181106110b5576110b4611789565b5b6020026020010181815250508581815181106110d4576110d3611789565b5b60200260200101515f01516001600281106110f2576110f1611789565b5b602002015182600260068461110791906118a6565b61111191906117e3565b8151811061112257611121611789565b5b60200260200101818152505085818151811061114157611140611789565b5b60200260200101515f01515f6002811061115e5761115d611789565b5b602002015182600360068461117391906118a6565b61117d91906117e3565b8151811061118e5761118d611789565b5b6020026020010181815250508581815181106111ad576111ac611789565b5b6020026020010151602001516001600281106111cc576111cb611789565b5b60200201518260046006846111e191906118a6565b6111eb91906117e3565b815181106111fc576111fb611789565b5b60200260200101818152505085818151811061121b5761121a611789565b5b6020026020010151602001515f6002811061123957611238611789565b5b602002015182600560068461124e91906118a6565b61125891906117e3565b8151811061126957611268611789565b5b602002602001018181525050808060010191505061100f565b5061128b6113a6565b5f602082602086026020860160086107d05a03fa9050805f81036112ab57fe5b50806112b5575f5ffd5b5f825f600181106112c9576112c8611789565b5b602002015114159550505050505092915050565b6040518060a001604052806112f0611324565b81526020016112fd611380565b815260200161130a611380565b8152602001611317611380565b8152602001606081525090565b60405180604001604052805f81526020015f81525090565b6040518060600160405280600390602082028036833780820191505090505090565b6040518060800160405280600490602082028036833780820191505090505090565b60405180604001604052806113936113c8565b81526020016113a06113c8565b81525090565b6040518060200160405280600190602082028036833780820191505090505090565b6040518060400160405280600290602082028036833780820191505090505090565b5f604051905090565b5f5ffd5b5f5ffd5b5f601f19601f8301169050919050565b7f4e487b71000000000000000000000000000000000000000000000000000000005f52604160045260245ffd5b611441826113fb565b810181811067ffffffffffffffff821117156114605761145f61140b565b5b80604052505050565b5f6114726113ea565b905061147e8282611438565b919050565b5f819050919050565b61149581611483565b811461149f575f5ffd5b50565b5f813590506114b08161148c565b92915050565b5f604082840312156114cb576114ca6113f7565b5b6114d56040611469565b90505f6114e4848285016114a2565b5f8301525060206114f7848285016114a2565b60208301525092915050565b5f5ffd5b5f67ffffffffffffffff8211156115215761152061140b565b5b602082029050919050565b5f5ffd5b5f61154261153d84611507565b611469565b9050806020840283018581111561155c5761155b61152c565b5b835b81811015611585578061157188826114a2565b84526020840193505060208101905061155e565b5050509392505050565b5f82601f8301126115a3576115a2611503565b5b60026115b0848285611530565b91505092915050565b5f608082840312156115ce576115cd6113f7565b5b6115d86040611469565b90505f6115e78482850161158f565b5f8301525060406115fa8482850161158f565b60208301525092915050565b5f610100828403121561161c5761161b6113f7565b5b6116266060611469565b90505f611635848285016114b6565b5f830152506040611648848285016115b9565b60208301525060c061165c848285016114b6565b60408301525092915050565b5f67ffffffffffffffff8211156116825761168161140b565b5b602082029050919050565b5f61169f61169a84611668565b611469565b905080602084028301858111156116b9576116b861152c565b5b835b818110156116e257806116ce88826114a2565b8452602084019350506020810190506116bb565b5050509392505050565b5f82601f830112611700576116ff611503565b5b600c61170d84828561168d565b91505092915050565b5f5f610280838503121561172d5761172c6113f3565b5b5f61173a85828601611606565b92505061010061174c858286016116ec565b9150509250929050565b5f8115159050919050565b61176a81611756565b82525050565b5f6020820190506117835f830184611761565b92915050565b7f4e487b71000000000000000000000000000000000000000000000000000000005f52603260045260245ffd5b7f4e487b71000000000000000000000000000000000000000000000000000000005f52601160045260245ffd5b5f6117ed82611483565b91506117f883611483565b92508282019050808211156118105761180f6117b6565b5b92915050565b7f4e487b71000000000000000000000000000000000000000000000000000000005f52601260045260245ffd5b5f61184d82611483565b915061185883611483565b92508261186857611867611816565b5b828206905092915050565b5f61187d82611483565b915061188883611483565b92508282039050818111156118a05761189f6117b6565b5b92915050565b5f6118b082611483565b91506118bb83611483565b92508282026118c981611483565b915082820484148315176118e0576118df6117b6565b5b509291505056fea26469706673582212206ca2eb29add30f6718578c67c957f5d7c78bbd3a80381fbdd7008c395ea4940364736f6c634300081e0033",
					"opcodes": "PUSH1 0x80 PUSH1 0x40 MSTORE CALLVALUE DUP1 ISZERO PUSH1 0xE JUMPI PUSH0 PUSH0 REVERT JUMPDEST POP PUSH2 0x191D DUP1 PUSH2 0x1C PUSH0 CODECOPY PUSH0 RETURN INVALID PUSH1 0x80 PUSH1 0x40 MSTORE CALLVALUE DUP1 ISZERO PUSH2 0xF JUMPI PUSH0 PUSH0 REVERT JUMPDEST POP PUSH1 0x4 CALLDATASIZE LT PUSH2 0x29 JUMPI PUSH0 CALLDATALOAD PUSH1 0xE0 SHR DUP1 PUSH4 0x66670599 EQ PUSH2 0x2D JUMPI JUMPDEST PUSH0 PUSH0 REVERT JUMPDEST PUSH2 0x47 PUSH1 0x4 DUP1 CALLDATASIZE SUB DUP2 ADD SWAP1 PUSH2 0x42 SWAP2 SWAP1 PUSH2 0x1716 JUMP JUMPDEST PUSH2 0x5D JUMP JUMPDEST PUSH1 0x40 MLOAD PUSH2 0x54 SWAP2 SWAP1 PUSH2 0x1770 JUMP JUMPDEST PUSH1 0x40 MLOAD DUP1 SWAP2 SUB SWAP1 RETURN JUMPDEST PUSH0 PUSH0 PUSH1 0xC PUSH8 0xFFFFFFFFFFFFFFFF DUP2 GT ISZERO PUSH2 0x7A JUMPI PUSH2 0x79 PUSH2 0x140B JUMP JUMPDEST JUMPDEST PUSH1 0x40 MLOAD SWAP1 DUP1 DUP3 MSTORE DUP1 PUSH1 0x20 MUL PUSH1 0x20 ADD DUP3 ADD PUSH1 0x40 MSTORE DUP1 ISZERO PUSH2 0xA8 JUMPI DUP2 PUSH1 0x20 ADD PUSH1 0x20 DUP3 MUL DUP1 CALLDATASIZE DUP4 CALLDATACOPY DUP1 DUP3 ADD SWAP2 POP POP SWAP1 POP JUMPDEST POP SWAP1 POP PUSH0 PUSH0 SWAP1 POP JUMPDEST PUSH1 0xC DUP2 LT ISZERO PUSH2 0xFD JUMPI DUP4 DUP2 PUSH1 0xC DUP2 LT PUSH2 0xCC JUMPI PUSH2 0xCB PUSH2 0x1789 JUMP JUMPDEST JUMPDEST PUSH1 0x20 MUL ADD MLOAD DUP3 DUP3 DUP2 MLOAD DUP2 LT PUSH2 0xE4 JUMPI PUSH2 0xE3 PUSH2 0x1789 JUMP JUMPDEST JUMPDEST PUSH1 0x20 MUL PUSH1 0x20 ADD ADD DUP2 DUP2 MSTORE POP POP DUP1 DUP1 PUSH1 0x1 ADD SWAP2 POP POP PUSH2 0xB0 JUMP JUMPDEST POP PUSH0 PUSH2 0x109 DUP3 DUP7 PUSH2 0x123 JUMP JUMPDEST SUB PUSH2 0x118 JUMPI PUSH1 0x1 SWAP2 POP POP PUSH2 0x11D JUMP JUMPDEST PUSH0 SWAP2 POP POP JUMPDEST SWAP3 SWAP2 POP POP JUMP JUMPDEST PUSH0 PUSH0 PUSH32 0x30644E72E131A029B85045B68181585D2833E84879B9709143E1F593F0000001 SWAP1 POP PUSH0 PUSH2 0x151 PUSH2 0x2AB JUMP JUMPDEST SWAP1 POP DUP1 PUSH1 0x80 ADD MLOAD MLOAD PUSH1 0x1 DUP7 MLOAD PUSH2 0x167 SWAP2 SWAP1 PUSH2 0x17E3 JUMP JUMPDEST EQ PUSH2 0x170 JUMPI PUSH0 PUSH0 REVERT JUMPDEST PUSH0 PUSH1 0x40 MLOAD DUP1 PUSH1 0x40 ADD PUSH1 0x40 MSTORE DUP1 PUSH0 DUP2 MSTORE PUSH1 0x20 ADD PUSH0 DUP2 MSTORE POP SWAP1 POP PUSH0 PUSH0 SWAP1 POP JUMPDEST DUP7 MLOAD DUP2 LT ISZERO PUSH2 0x221 JUMPI DUP4 DUP8 DUP3 DUP2 MLOAD DUP2 LT PUSH2 0x1AA JUMPI PUSH2 0x1A9 PUSH2 0x1789 JUMP JUMPDEST JUMPDEST PUSH1 0x20 MUL PUSH1 0x20 ADD ADD MLOAD LT PUSH2 0x1BB JUMPI PUSH0 PUSH0 REVERT JUMPDEST PUSH2 0x212 DUP3 PUSH2 0x20D DUP6 PUSH1 0x80 ADD MLOAD PUSH1 0x1 DUP6 PUSH2 0x1D4 SWAP2 SWAP1 PUSH2 0x17E3 JUMP JUMPDEST DUP2 MLOAD DUP2 LT PUSH2 0x1E5 JUMPI PUSH2 0x1E4 PUSH2 0x1789 JUMP JUMPDEST JUMPDEST PUSH1 0x20 MUL PUSH1 0x20 ADD ADD MLOAD DUP11 DUP6 DUP2 MLOAD DUP2 LT PUSH2 0x200 JUMPI PUSH2 0x1FF PUSH2 0x1789 JUMP JUMPDEST JUMPDEST PUSH1 0x20 MUL PUSH1 0x20 ADD ADD MLOAD PUSH2 0xBD5 JUMP JUMPDEST PUSH2 0xC72 JUMP JUMPDEST SWAP2 POP DUP1 DUP1 PUSH1 0x1 ADD SWAP2 POP POP PUSH2 0x18D JUMP JUMPDEST POP PUSH2 0x24A DUP2 DUP4 PUSH1 0x80 ADD MLOAD PUSH0 DUP2 MLOAD DUP2 LT PUSH2 0x23D JUMPI PUSH2 0x23C PUSH2 0x1789 JUMP JUMPDEST JUMPDEST PUSH1 0x20 MUL PUSH1 0x20 ADD ADD MLOAD PUSH2 0xC72 JUMP JUMPDEST SWAP1 POP PUSH2 0x28E DUP6 PUSH0 ADD MLOAD DUP7 PUSH1 0x20 ADD MLOAD PUSH2 0x261 DUP5 PUSH2 0xD34 JUMP JUMPDEST DUP6 PUSH1 0x40 ADD MLOAD PUSH2 0x273 DUP11 PUSH1 0x40 ADD MLOAD PUSH2 0xD34 JUMP JUMPDEST DUP8 PUSH1 0x60 ADD MLOAD PUSH2 0x284 DUP10 PUSH0 ADD MLOAD PUSH2 0xD34 JUMP JUMPDEST DUP10 PUSH1 0x20 ADD MLOAD PUSH2 0xDD2 JUMP JUMPDEST PUSH2 0x29E JUMPI PUSH1 0x1 SWAP4 POP POP POP POP PUSH2 0x2A5 JUMP JUMPDEST PUSH0 SWAP4 POP POP POP POP JUMPDEST SWAP3 SWAP2 POP POP JUMP JUMPDEST PUSH2 0x2B3 PUSH2 0x12DD JUMP JUMPDEST PUSH1 0x40 MLOAD DUP1 PUSH1 0x40 ADD PUSH1 0x40 MSTORE DUP1 PUSH32 0x28A7729804D9784737152BA161E9B5BB3075ADF4DBE2FB7BCA382216CDDD6D70 DUP2 MSTORE PUSH1 0x20 ADD PUSH32 0x28784A9669ED9A0A339D22B73F39B4FF0EB15F5CE1B7426CE6CBA26B39772317 DUP2 MSTORE POP DUP2 PUSH0 ADD DUP2 SWAP1 MSTORE POP PUSH1 0x40 MLOAD DUP1 PUSH1 0x40 ADD PUSH1 0x40 MSTORE DUP1 PUSH1 0x40 MLOAD DUP1 PUSH1 0x40 ADD PUSH1 0x40 MSTORE DUP1 PUSH32 0xE6E11738F4757F3DF0986E0122743121956C43471B337241E1A130C722858EC DUP2 MSTORE PUSH1 0x20 ADD PUSH32 0x2D65D4FE199B98E9182CCB71D3877DA10FDD277E6111EF0B709C6CFAA8840308 DUP2 MSTORE POP DUP2 MSTORE PUSH1 0x20 ADD PUSH1 0x40 MLOAD DUP1 PUSH1 0x40 ADD PUSH1 0x40 MSTORE DUP1 PUSH32 0x22F7DAEE6DD380548926F390B2E5CCBD52C2E9FF6E64AD903F12FF872876A37D DUP2 MSTORE PUSH1 0x20 ADD PUSH32 0xA121CF0CF08910ED781228EB30EDC6528FCB63EF2D624859B8311A1FD94D43C DUP2 MSTORE POP DUP2 MSTORE POP DUP2 PUSH1 0x20 ADD DUP2 SWAP1 MSTORE POP PUSH1 0x40 MLOAD DUP1 PUSH1 0x40 ADD PUSH1 0x40 MSTORE DUP1 PUSH1 0x40 MLOAD DUP1 PUSH1 0x40 ADD PUSH1 0x40 MSTORE DUP1 PUSH32 0x269F66B3CE49DAB8BF3EEAF1B8815C5347FE986BC68B44BF9738780744E5CCDB DUP2 MSTORE PUSH1 0x20 ADD PUSH32 0x2FD45E1EB6617859A5D7F3FA555B40D86C4154E6A2CF0034BD3222FFF296B3CA DUP2 MSTORE POP DUP2 MSTORE PUSH1 0x20 ADD PUSH1 0x40 MLOAD DUP1 PUSH1 0x40 ADD PUSH1 0x40 MSTORE DUP1 PUSH32 0x4F94BD8573DBCF47EE1313AF6AD79FFCAF21AD60F4BB4CCDEBE43F3369C5DEE DUP2 MSTORE PUSH1 0x20 ADD PUSH32 0x1C1D5B5CEB346EC69040A6D6C687960BCBA9ADBB3B626D2043450E9E12DBF6A2 DUP2 MSTORE POP DUP2 MSTORE POP DUP2 PUSH1 0x40 ADD DUP2 SWAP1 MSTORE POP PUSH1 0x40 MLOAD DUP1 PUSH1 0x40 ADD PUSH1 0x40 MSTORE DUP1 PUSH1 0x40 MLOAD DUP1 PUSH1 0x40 ADD PUSH1 0x40 MSTORE DUP1 PUSH32 0x20B716B6C087263484E0665DA2EDD5448A3AFC07ED399598AB9D4FE51D4673C2 DUP2 MSTORE PUSH1 0x20 ADD PUSH32 0x2BE69CABFCD1CA824594D678EAFB7606A63D4AC8C88B54359DB9CB9EFDB5B009 DUP2 MSTORE POP DUP2 MSTORE PUSH1 0x20 ADD PUSH1 0x40 MLOAD DUP1 PUSH1 0x40 ADD PUSH1 0x40 MSTORE DUP1 PUSH32 0x2D6251B9B12E346D39B87256520A546BF9B76135C815BC5F06B083E396E9AB84 DUP2 MSTORE PUSH1 0x20 ADD PUSH32 0x1EC3A52A96658F2A1CFBF70AAD62515FB27C25B29240A4B5B8B7E99FFA53769 DUP2 MSTORE POP DUP2 MSTORE POP DUP2 PUSH1 0x60 ADD DUP2 SWAP1 MSTORE POP PUSH1 0xD PUSH8 0xFFFFFFFFFFFFFFFF DUP2 GT ISZERO PUSH2 0x579 JUMPI PUSH2 0x578 PUSH2 0x140B JUMP JUMPDEST JUMPDEST PUSH1 0x40 MLOAD SWAP1 DUP1 DUP3 MSTORE DUP1 PUSH1 0x20 MUL PUSH1 0x20 ADD DUP3 ADD PUSH1 0x40 MSTORE DUP1 ISZERO PUSH2 0x5B2 JUMPI DUP2 PUSH1 0x20 ADD JUMPDEST PUSH2 0x59F PUSH2 0x1324 JUMP JUMPDEST DUP2 MSTORE PUSH1 0x20 ADD SWAP1 PUSH1 0x1 SWAP1 SUB SWAP1 DUP2 PUSH2 0x597 JUMPI SWAP1 POP JUMPDEST POP DUP2 PUSH1 0x80 ADD DUP2 SWAP1 MSTORE POP PUSH1 0x40 MLOAD DUP1 PUSH1 0x40 ADD PUSH1 0x40 MSTORE DUP1 PUSH32 0x1DEEF4C2163C27EF391A67129BFF86AC96FD4F255F20F0387BF8382C99241488 DUP2 MSTORE PUSH1 0x20 ADD PUSH32 0x25D8AEBADA2FE633DDDFF87D3A2F3FDE80E559A0A2C5F96BE63BFD7C83604402 DUP2 MSTORE POP DUP2 PUSH1 0x80 ADD MLOAD PUSH0 DUP2 MLOAD DUP2 LT PUSH2 0x627 JUMPI PUSH2 0x626 PUSH2 0x1789 JUMP JUMPDEST JUMPDEST PUSH1 0x20 MUL PUSH1 0x20 ADD ADD DUP2 SWAP1 MSTORE POP PUSH1 0x40 MLOAD DUP1 PUSH1 0x40 ADD PUSH1 0x40 MSTORE DUP1 PUSH32 0xCE914D7009ED6549895785755E62171D10B0DC88F90CD2C3545116D2DA3868E DUP2 MSTORE PUSH1 0x20 ADD PUSH32 0x94C15F9A4A4A981AA152456F33B467B56C183BA0B9CE2E4FC6B5A1B35D45924 DUP2 MSTORE POP DUP2 PUSH1 0x80 ADD MLOAD PUSH1 0x1 DUP2 MLOAD DUP2 LT PUSH2 0x69F JUMPI PUSH2 0x69E PUSH2 0x1789 JUMP JUMPDEST JUMPDEST PUSH1 0x20 MUL PUSH1 0x20 ADD ADD DUP2 SWAP1 MSTORE POP PUSH1 0x40 MLOAD DUP1 PUSH1 0x40 ADD PUSH1 0x40 MSTORE DUP1 PUSH32 0x2176329002EACA982D0FAFFFD371B95553B7BA6B595CAA5952D2031677905E14 DUP2 MSTORE PUSH1 0x20 ADD PUSH32 0x276DE88554A48C91EFB6116208BB83A49FD4C04A69D3022F426248EB46095AD DUP2 MSTORE POP DUP2 PUSH1 0x80 ADD MLOAD PUSH1 0x2 DUP2 MLOAD DUP2 LT PUSH2 0x717 JUMPI PUSH2 0x716 PUSH2 0x1789 JUMP JUMPDEST JUMPDEST PUSH1 0x20 MUL PUSH1 0x20 ADD ADD DUP2 SWAP1 MSTORE POP PUSH1 0x40 MLOAD DUP1 PUSH1 0x40 ADD PUSH1 0x40 MSTORE DUP1 PUSH32 0x4FDDE8CBF46445DF350925504BA0BA0DFB069ACA2C0A9E52B60994A22265A70 DUP2 MSTORE PUSH1 0x20 ADD PUSH32 0x110040CD9D9B9CC7F5BEEE07B1FD78DEB4C942ADA14836A2A371A7A7086B775D DUP2 MSTORE POP DUP2 PUSH1 0x80 ADD MLOAD PUSH1 0x3 DUP2 MLOAD DUP2 LT PUSH2 0x78F JUMPI PUSH2 0x78E PUSH2 0x1789 JUMP JUMPDEST JUMPDEST PUSH1 0x20 MUL PUSH1 0x20 ADD ADD DUP2 SWAP1 MSTORE POP PUSH1 0x40 MLOAD DUP1 PUSH1 0x40 ADD PUSH1 0x40 MSTORE DUP1 PUSH32 0x1DE361FAD29615559888FD87F7E26896ACB358D92E7652E027BCB51EFDCC3817 DUP2 MSTORE PUSH1 0x20 ADD PUSH32 0x1592E6746475AD488AFCFF1B19D3BB60E900A75A5A00311E515814A3ACAB99AC DUP2 MSTORE POP DUP2 PUSH1 0x80 ADD MLOAD PUSH1 0x4 DUP2 MLOAD DUP2 LT PUSH2 0x807 JUMPI PUSH2 0x806 PUSH2 0x1789 JUMP JUMPDEST JUMPDEST PUSH1 0x20 MUL PUSH1 0x20 ADD ADD DUP2 SWAP1 MSTORE POP PUSH1 0x40 MLOAD DUP1 PUSH1 0x40 ADD PUSH1 0x40 MSTORE DUP1 PUSH32 0xB486BC7267410A315D45A2033E80C24AFD73B92E308DB08835BE523ECAC9E27 DUP2 MSTORE PUSH1 0x20 ADD PUSH32 0x1FE232523B83ECCD37DB23B3EA381E992168B4087838421E0AFB703ECD634C2A DUP2 MSTORE POP DUP2 PUSH1 0x80 ADD MLOAD PUSH1 0x5 DUP2 MLOAD DUP2 LT PUSH2 0x87F JUMPI PUSH2 0x87E PUSH2 0x1789 JUMP JUMPDEST JUMPDEST PUSH1 0x20 MUL PUSH1 0x20 ADD ADD DUP2 SWAP1 MSTORE POP PUSH1 0x40 MLOAD DUP1 PUSH1 0x40 ADD PUSH1 0x40 MSTORE DUP1 PUSH32 0x2B01058F10C05D33184E3D146E134F5C24A3BA9DCA0B7A9E8E4DF49A6C284927 DUP2 MSTORE PUSH1 0x20 ADD PUSH32 0x189D5092A7CEC07849E3FC6F40970BB7C778590D17670C17D79C013092C4134B DUP2 MSTORE POP DUP2 PUSH1 0x80 ADD MLOAD PUSH1 0x6 DUP2 MLOAD DUP2 LT PUSH2 0x8F7 JUMPI PUSH2 0x8F6 PUSH2 0x1789 JUMP JUMPDEST JUMPDEST PUSH1 0x20 MUL PUSH1 0x20 ADD ADD DUP2 SWAP1 MSTORE POP PUSH1 0x40 MLOAD DUP1 PUSH1 0x40 ADD PUSH1 0x40 MSTORE DUP1 PUSH32 0x1EAFAB0BE54246F0612615F7C4926E524643094CEEC5E2D1E408A2CA83D027B DUP2 MSTORE PUSH1 0x20 ADD PUSH32 0x10CE98A135CD3B80E8C9FBD205E354CA3D526878ECFBE2803892842A187F78A5 DUP2 MSTORE POP DUP2 PUSH1 0x80 ADD MLOAD PUSH1 0x7 DUP2 MLOAD DUP2 LT PUSH2 0x96F JUMPI PUSH2 0x96E PUSH2 0x1789 JUMP JUMPDEST JUMPDEST PUSH1 0x20 MUL PUSH1 0x20 ADD ADD DUP2 SWAP1 MSTORE POP PUSH1 0x40 MLOAD DUP1 PUSH1 0x40 ADD PUSH1 0x40 MSTORE DUP1 PUSH32 0xC65CE40152EBA575A15253DD929F5074BDB3746811A8E13F1FD4B41BF0284FC DUP2 MSTORE PUSH1 0x20 ADD PUSH32 0xE1F3ED6EA56B4B51148B6B8735EB31595C63FBD414FACB84A84F6A122AEBA15 DUP2 MSTORE POP DUP2 PUSH1 0x80 ADD MLOAD PUSH1 0x8 DUP2 MLOAD DUP2 LT PUSH2 0x9E7 JUMPI PUSH2 0x9E6 PUSH2 0x1789 JUMP JUMPDEST JUMPDEST PUSH1 0x20 MUL PUSH1 0x20 ADD ADD DUP2 SWAP1 MSTORE POP PUSH1 0x40 MLOAD DUP1 PUSH1 0x40 ADD PUSH1 0x40 MSTORE DUP1 PUSH32 0x2A71A8B23D9E78B23664642644148D2CAEEE718B445BFCC028EE6876CB55ED2C DUP2 MSTORE PUSH1 0x20 ADD PUSH32 0xB9DDAF66F5F4CAC359D07ECF7CFDB3CAF40627A7673F5E1C2DE77F2F25DF31B DUP2 MSTORE POP DUP2 PUSH1 0x80 ADD MLOAD PUSH1 0x9 DUP2 MLOAD DUP2 LT PUSH2 0xA5F JUMPI PUSH2 0xA5E PUSH2 0x1789 JUMP JUMPDEST JUMPDEST PUSH1 0x20 MUL PUSH1 0x20 ADD ADD DUP2 SWAP1 MSTORE POP PUSH1 0x40 MLOAD DUP1 PUSH1 0x40 ADD PUSH1 0x40 MSTORE DUP1 PUSH32 0x2134AE21D4B4A30F4462F471DF99D59E476F3D1B5004533624639CDE55DDEA1F DUP2 MSTORE PUSH1 0x20 ADD PUSH32 0x18071500C6AB3C5CAFAFD511958D76E1DEEE4C8700397991758D1829311F7E0 DUP2 MSTORE POP DUP2 PUSH1 0x80 ADD MLOAD PUSH1 0xA DUP2 MLOAD DUP2 LT PUSH2 0xAD7 JUMPI PUSH2 0xAD6 PUSH2 0x1789 JUMP JUMPDEST JUMPDEST PUSH1 0x20 MUL PUSH1 0x20 ADD ADD DUP2 SWAP1 MSTORE POP PUSH1 0x40 MLOAD DUP1 PUSH1 0x40 ADD PUSH1 0x40 MSTORE DUP1 PUSH32 0x2D23E166E9FAD75B3E4D328E1BF2F35372DCE751550ED21A10EC4B96491B4C1 DUP2 MSTORE PUSH1 0x20 ADD PUSH32 0x361BC0450DDE385C9C8301F6E73995E5190F44F903D9FC6474EC16FB0995B7E DUP2 MSTORE POP DUP2 PUSH1 0x80 ADD MLOAD PUSH1 0xB DUP2 MLOAD DUP2 LT PUSH2 0xB4F JUMPI PUSH2 0xB4E PUSH2 0x1789 JUMP JUMPDEST JUMPDEST PUSH1 0x20 MUL PUSH1 0x20 ADD ADD DUP2 SWAP1 MSTORE POP PUSH1 0x40 MLOAD DUP1 PUSH1 0x40 ADD PUSH1 0x40 MSTORE DUP1 PUSH32 0x1D51D31D0477236FC08266D0205DE543FCFA65443C4F2BD453FBBCFEE8279AB5 DUP2 MSTORE PUSH1 0x20 ADD PUSH32 0x2A1B55CF51F4F2B414A710EAB948346ADE0B7E85C80536ED61FC878C326E6E6C DUP2 MSTORE POP DUP2 PUSH1 0x80 ADD MLOAD PUSH1 0xC DUP2 MLOAD DUP2 LT PUSH2 0xBC7 JUMPI PUSH2 0xBC6 PUSH2 0x1789 JUMP JUMPDEST JUMPDEST PUSH1 0x20 MUL PUSH1 0x20 ADD ADD DUP2 SWAP1 MSTORE POP SWAP1 JUMP JUMPDEST PUSH2 0xBDD PUSH2 0x1324 JUMP JUMPDEST PUSH2 0xBE5 PUSH2 0x133C JUMP JUMPDEST DUP4 PUSH0 ADD MLOAD DUP2 PUSH0 PUSH1 0x3 DUP2 LT PUSH2 0xBFC JUMPI PUSH2 0xBFB PUSH2 0x1789 JUMP JUMPDEST JUMPDEST PUSH1 0x20 MUL ADD DUP2 DUP2 MSTORE POP POP DUP4 PUSH1 0x20 ADD MLOAD DUP2 PUSH1 0x1 PUSH1 0x3 DUP2 LT PUSH2 0xC1E JUMPI PUSH2 0xC1D PUSH2 0x1789 JUMP JUMPDEST JUMPDEST PUSH1 0x20 MUL ADD DUP2 DUP2 MSTORE POP POP DUP3 DUP2 PUSH1 0x2 PUSH1 0x3 DUP2 LT PUSH2 0xC3C JUMPI PUSH2 0xC3B PUSH2 0x1789 JUMP JUMPDEST JUMPDEST PUSH1 0x20 MUL ADD DUP2 DUP2 MSTORE POP POP PUSH0 PUSH1 0x60 DUP4 PUSH1 0x80 DUP5 PUSH1 0x7 PUSH2 0x7D0 GAS SUB STATICCALL SWAP1 POP DUP1 PUSH0 DUP2 SUB PUSH2 0xC60 JUMPI INVALID JUMPDEST POP DUP1 PUSH2 0xC6A JUMPI PUSH0 PUSH0 REVERT JUMPDEST POP POP SWAP3 SWAP2 POP POP JUMP JUMPDEST PUSH2 0xC7A PUSH2 0x1324 JUMP JUMPDEST PUSH2 0xC82 PUSH2 0x135E JUMP JUMPDEST DUP4 PUSH0 ADD MLOAD DUP2 PUSH0 PUSH1 0x4 DUP2 LT PUSH2 0xC99 JUMPI PUSH2 0xC98 PUSH2 0x1789 JUMP JUMPDEST JUMPDEST PUSH1 0x20 MUL ADD DUP2 DUP2 MSTORE POP POP DUP4 PUSH1 0x20 ADD MLOAD DUP2 PUSH1 0x1 PUSH1 0x4 DUP2 LT PUSH2 0xCBB JUMPI PUSH2 0xCBA PUSH2 0x1789 JUMP JUMPDEST JUMPDEST PUSH1 0x20 MUL ADD DUP2 DUP2 MSTORE POP POP DUP3 PUSH0 ADD MLOAD DUP2 PUSH1 0x2 PUSH1 0x4 DUP2 LT PUSH2 0xCDC JUMPI PUSH2 0xCDB PUSH2 0x1789 JUMP JUMPDEST JUMPDEST PUSH1 0x20 MUL ADD DUP2 DUP2 MSTORE POP POP DUP3 PUSH1 0x20 ADD MLOAD DUP2 PUSH1 0x3 PUSH1 0x4 DUP2 LT PUSH2 0xCFE JUMPI PUSH2 0xCFD PUSH2 0x1789 JUMP JUMPDEST JUMPDEST PUSH1 0x20 MUL ADD DUP2 DUP2 MSTORE POP POP PUSH0 PUSH1 0x60 DUP4 PUSH1 0xC0 DUP5 PUSH1 0x6 PUSH2 0x7D0 GAS SUB STATICCALL SWAP1 POP DUP1 PUSH0 DUP2 SUB PUSH2 0xD22 JUMPI INVALID JUMPDEST POP DUP1 PUSH2 0xD2C JUMPI PUSH0 PUSH0 REVERT JUMPDEST POP POP SWAP3 SWAP2 POP POP JUMP JUMPDEST PUSH2 0xD3C PUSH2 0x1324 JUMP JUMPDEST PUSH0 PUSH32 0x30644E72E131A029B85045B68181585D97816A916871CA8D3C208C16D87CFD47 SWAP1 POP PUSH0 DUP4 PUSH0 ADD MLOAD EQ DUP1 ISZERO PUSH2 0xD75 JUMPI POP PUSH0 DUP4 PUSH1 0x20 ADD MLOAD EQ JUMPDEST ISZERO PUSH2 0xD97 JUMPI PUSH1 0x40 MLOAD DUP1 PUSH1 0x40 ADD PUSH1 0x40 MSTORE DUP1 PUSH0 DUP2 MSTORE PUSH1 0x20 ADD PUSH0 DUP2 MSTORE POP SWAP2 POP POP PUSH2 0xDCD JUMP JUMPDEST PUSH1 0x40 MLOAD DUP1 PUSH1 0x40 ADD PUSH1 0x40 MSTORE DUP1 DUP5 PUSH0 ADD MLOAD DUP2 MSTORE PUSH1 0x20 ADD DUP3 DUP6 PUSH1 0x20 ADD MLOAD PUSH2 0xDBB SWAP2 SWAP1 PUSH2 0x1843 JUMP JUMPDEST DUP4 PUSH2 0xDC6 SWAP2 SWAP1 PUSH2 0x1873 JUMP JUMPDEST DUP2 MSTORE POP SWAP2 POP POP JUMPDEST SWAP2 SWAP1 POP JUMP JUMPDEST PUSH0 PUSH0 PUSH1 0x4 PUSH8 0xFFFFFFFFFFFFFFFF DUP2 GT ISZERO PUSH2 0xDEF JUMPI PUSH2 0xDEE PUSH2 0x140B JUMP JUMPDEST JUMPDEST PUSH1 0x40 MLOAD SWAP1 DUP1 DUP3 MSTORE DUP1 PUSH1 0x20 MUL PUSH1 0x20 ADD DUP3 ADD PUSH1 0x40 MSTORE DUP1 ISZERO PUSH2 0xE28 JUMPI DUP2 PUSH1 0x20 ADD JUMPDEST PUSH2 0xE15 PUSH2 0x1324 JUMP JUMPDEST DUP2 MSTORE PUSH1 0x20 ADD SWAP1 PUSH1 0x1 SWAP1 SUB SWAP1 DUP2 PUSH2 0xE0D JUMPI SWAP1 POP JUMPDEST POP SWAP1 POP PUSH0 PUSH1 0x4 PUSH8 0xFFFFFFFFFFFFFFFF DUP2 GT ISZERO PUSH2 0xE47 JUMPI PUSH2 0xE46 PUSH2 0x140B JUMP JUMPDEST JUMPDEST PUSH1 0x40 MLOAD SWAP1 DUP1 DUP3 MSTORE DUP1 PUSH1 0x20 MUL PUSH1 0x20 ADD DUP3 ADD PUSH1 0x40 MSTORE DUP1 ISZERO PUSH2 0xE80 JUMPI DUP2 PUSH1 0x20 ADD JUMPDEST PUSH2 0xE6D PUSH2 0x1380 JUMP JUMPDEST DUP2 MSTORE PUSH1 0x20 ADD SWAP1 PUSH1 0x1 SWAP1 SUB SWAP1 DUP2 PUSH2 0xE65 JUMPI SWAP1 POP JUMPDEST POP SWAP1 POP DUP11 DUP3 PUSH0 DUP2 MLOAD DUP2 LT PUSH2 0xE97 JUMPI PUSH2 0xE96 PUSH2 0x1789 JUMP JUMPDEST JUMPDEST PUSH1 0x20 MUL PUSH1 0x20 ADD ADD DUP2 SWAP1 MSTORE POP DUP9 DUP3 PUSH1 0x1 DUP2 MLOAD DUP2 LT PUSH2 0xEB7 JUMPI PUSH2 0xEB6 PUSH2 0x1789 JUMP JUMPDEST JUMPDEST PUSH1 0x20 MUL PUSH1 0x20 ADD ADD DUP2 SWAP1 MSTORE POP DUP7 DUP3 PUSH1 0x2 DUP2 MLOAD DUP2 LT PUSH2 0xED7 JUMPI PUSH2 0xED6 PUSH2 0x1789 JUMP JUMPDEST JUMPDEST PUSH1 0x20 MUL PUSH1 0x20 ADD ADD DUP2 SWAP1 MSTORE POP DUP5 DUP3 PUSH1 0x3 DUP2 MLOAD DUP2 LT PUSH2 0xEF7 JUMPI PUSH2 0xEF6 PUSH2 0x1789 JUMP JUMPDEST JUMPDEST PUSH1 0x20 MUL PUSH1 0x20 ADD ADD DUP2 SWAP1 MSTORE POP DUP10 DUP2 PUSH0 DUP2 MLOAD DUP2 LT PUSH2 0xF16 JUMPI PUSH2 0xF15 PUSH2 0x1789 JUMP JUMPDEST JUMPDEST PUSH1 0x20 MUL PUSH1 0x20 ADD ADD DUP2 SWAP1 MSTORE POP DUP8 DUP2 PUSH1 0x1 DUP2 MLOAD DUP2 LT PUSH2 0xF36 JUMPI PUSH2 0xF35 PUSH2 0x1789 JUMP JUMPDEST JUMPDEST PUSH1 0x20 MUL PUSH1 0x20 ADD ADD DUP2 SWAP1 MSTORE POP DUP6 DUP2 PUSH1 0x2 DUP2 MLOAD DUP2 LT PUSH2 0xF56 JUMPI PUSH2 0xF55 PUSH2 0x1789 JUMP JUMPDEST JUMPDEST PUSH1 0x20 MUL PUSH1 0x20 ADD ADD DUP2 SWAP1 MSTORE POP DUP4 DUP2 PUSH1 0x3 DUP2 MLOAD DUP2 LT PUSH2 0xF76 JUMPI PUSH2 0xF75 PUSH2 0x1789 JUMP JUMPDEST JUMPDEST PUSH1 0x20 MUL PUSH1 0x20 ADD ADD DUP2 SWAP1 MSTORE POP PUSH2 0xF8B DUP3 DUP3 PUSH2 0xF9B JUMP JUMPDEST SWAP3 POP POP POP SWAP9 SWAP8 POP POP POP POP POP POP POP POP JUMP JUMPDEST PUSH0 DUP2 MLOAD DUP4 MLOAD EQ PUSH2 0xFA9 JUMPI PUSH0 PUSH0 REVERT JUMPDEST PUSH0 DUP4 MLOAD SWAP1 POP PUSH0 PUSH1 0x6 DUP3 PUSH2 0xFBC SWAP2 SWAP1 PUSH2 0x18A6 JUMP JUMPDEST SWAP1 POP PUSH0 DUP2 PUSH8 0xFFFFFFFFFFFFFFFF DUP2 GT ISZERO PUSH2 0xFD9 JUMPI PUSH2 0xFD8 PUSH2 0x140B JUMP JUMPDEST JUMPDEST PUSH1 0x40 MLOAD SWAP1 DUP1 DUP3 MSTORE DUP1 PUSH1 0x20 MUL PUSH1 0x20 ADD DUP3 ADD PUSH1 0x40 MSTORE DUP1 ISZERO PUSH2 0x1007 JUMPI DUP2 PUSH1 0x20 ADD PUSH1 0x20 DUP3 MUL DUP1 CALLDATASIZE DUP4 CALLDATACOPY DUP1 DUP3 ADD SWAP2 POP POP SWAP1 POP JUMPDEST POP SWAP1 POP PUSH0 PUSH0 SWAP1 POP JUMPDEST DUP4 DUP2 LT ISZERO PUSH2 0x1282 JUMPI DUP7 DUP2 DUP2 MLOAD DUP2 LT PUSH2 0x102A JUMPI PUSH2 0x1029 PUSH2 0x1789 JUMP JUMPDEST JUMPDEST PUSH1 0x20 MUL PUSH1 0x20 ADD ADD MLOAD PUSH0 ADD MLOAD DUP3 PUSH0 PUSH1 0x6 DUP5 PUSH2 0x1044 SWAP2 SWAP1 PUSH2 0x18A6 JUMP JUMPDEST PUSH2 0x104E SWAP2 SWAP1 PUSH2 0x17E3 JUMP JUMPDEST DUP2 MLOAD DUP2 LT PUSH2 0x105F JUMPI PUSH2 0x105E PUSH2 0x1789 JUMP JUMPDEST JUMPDEST PUSH1 0x20 MUL PUSH1 0x20 ADD ADD DUP2 DUP2 MSTORE POP POP DUP7 DUP2 DUP2 MLOAD DUP2 LT PUSH2 0x107E JUMPI PUSH2 0x107D PUSH2 0x1789 JUMP JUMPDEST JUMPDEST PUSH1 0x20 MUL PUSH1 0x20 ADD ADD MLOAD PUSH1 0x20 ADD MLOAD DUP3 PUSH1 0x1 PUSH1 0x6 DUP5 PUSH2 0x109A SWAP2 SWAP1 PUSH2 0x18A6 JUMP JUMPDEST PUSH2 0x10A4 SWAP2 SWAP1 PUSH2 0x17E3 JUMP JUMPDEST DUP2 MLOAD DUP2 LT PUSH2 0x10B5 JUMPI PUSH2 0x10B4 PUSH2 0x1789 JUMP JUMPDEST JUMPDEST PUSH1 0x20 MUL PUSH1 0x20 ADD ADD DUP2 DUP2 MSTORE POP POP DUP6 DUP2 DUP2 MLOAD DUP2 LT PUSH2 0x10D4 JUMPI PUSH2 0x10D3 PUSH2 0x1789 JUMP JUMPDEST JUMPDEST PUSH1 0x20 MUL PUSH1 0x20 ADD ADD MLOAD PUSH0 ADD MLOAD PUSH1 0x1 PUSH1 0x2 DUP2 LT PUSH2 0x10F2 JUMPI PUSH2 0x10F1 PUSH2 0x1789 JUMP JUMPDEST JUMPDEST PUSH1 0x20 MUL ADD MLOAD DUP3 PUSH1 0x2 PUSH1 0x6 DUP5 PUSH2 0x1107 SWAP2 SWAP1 PUSH2 0x18A6 JUMP JUMPDEST PUSH2 0x1111 SWAP2 SWAP1 PUSH2 0x17E3 JUMP JUMPDEST DUP2 MLOAD DUP2 LT PUSH2 0x1122 JUMPI PUSH2 0x1121 PUSH2 0x1789 JUMP JUMPDEST JUMPDEST PUSH1 0x20 MUL PUSH1 0x20 ADD ADD DUP2 DUP2 MSTORE POP POP DUP6 DUP2 DUP2 MLOAD DUP2 LT PUSH2 0x1141 JUMPI PUSH2 0x1140 PUSH2 0x1789 JUMP JUMPDEST JUMPDEST PUSH1 0x20 MUL PUSH1 0x20 ADD ADD MLOAD PUSH0 ADD MLOAD PUSH0 PUSH1 0x2 DUP2 LT PUSH2 0x115E JUMPI PUSH2 0x115D PUSH2 0x1789 JUMP JUMPDEST JUMPDEST PUSH1 0x20 MUL ADD MLOAD DUP3 PUSH1 0x3 PUSH1 0x6 DUP5 PUSH2 0x1173 SWAP2 SWAP1 PUSH2 0x18A6 JUMP JUMPDEST PUSH2 0x117D SWAP2 SWAP1 PUSH2 0x17E3 JUMP JUMPDEST DUP2 MLOAD DUP2 LT PUSH2 0x118E JUMPI PUSH2 0x118D PUSH2 0x1789 JUMP JUMPDEST JUMPDEST PUSH1 0x20 MUL PUSH1 0x20 ADD ADD DUP2 DUP2 MSTORE POP POP DUP6 DUP2 DUP2 MLOAD DUP2 LT PUSH2 0x11AD JUMPI PUSH2 0x11AC PUSH2 0x1789 JUMP JUMPDEST JUMPDEST PUSH1 0x20 MUL PUSH1 0x20 ADD ADD MLOAD PUSH1 0x20 ADD MLOAD PUSH1 0x1 PUSH1 0x2 DUP2 LT PUSH2 0x11CC JUMPI PUSH2 0x11CB PUSH2 0x1789 JUMP JUMPDEST JUMPDEST PUSH1 0x20 MUL ADD MLOAD DUP3 PUSH1 0x4 PUSH1 0x6 DUP5 PUSH2 0x11E1 SWAP2 SWAP1 PUSH2 0x18A6 JUMP JUMPDEST PUSH2 0x11EB SWAP2 SWAP1 PUSH2 0x17E3 JUMP JUMPDEST DUP2 MLOAD DUP2 LT PUSH2 0x11FC JUMPI PUSH2 0x11FB PUSH2 0x1789 JUMP JUMPDEST JUMPDEST PUSH1 0x20 MUL PUSH1 0x20 ADD ADD DUP2 DUP2 MSTORE POP POP DUP6 DUP2 DUP2 MLOAD DUP2 LT PUSH2 0x121B JUMPI PUSH2 0x121A PUSH2 0x1789 JUMP JUMPDEST JUMPDEST PUSH1 0x20 MUL PUSH1 0x20 ADD ADD MLOAD PUSH1 0x20 ADD MLOAD PUSH0 PUSH1 0x2 DUP2 LT PUSH2 0x1239 JUMPI PUSH2 0x1238 PUSH2 0x1789 JUMP JUMPDEST JUMPDEST PUSH1 0x20 MUL ADD MLOAD DUP3 PUSH1 0x5 PUSH1 0x6 DUP5 PUSH2 0x124E SWAP2 SWAP1 PUSH2 0x18A6 JUMP JUMPDEST PUSH2 0x1258 SWAP2 SWAP1 PUSH2 0x17E3 JUMP JUMPDEST DUP2 MLOAD DUP2 LT PUSH2 0x1269 JUMPI PUSH2 0x1268 PUSH2 0x1789 JUMP JUMPDEST JUMPDEST PUSH1 0x20 MUL PUSH1 0x20 ADD ADD DUP2 DUP2 MSTORE POP POP DUP1 DUP1 PUSH1 0x1 ADD SWAP2 POP POP PUSH2 0x100F JUMP JUMPDEST POP PUSH2 0x128B PUSH2 0x13A6 JUMP JUMPDEST PUSH0 PUSH1 0x20 DUP3 PUSH1 0x20 DUP7 MUL PUSH1 0x20 DUP7 ADD PUSH1 0x8 PUSH2 0x7D0 GAS SUB STATICCALL SWAP1 POP DUP1 PUSH0 DUP2 SUB PUSH2 0x12AB JUMPI INVALID JUMPDEST POP DUP1 PUSH2 0x12B5 JUMPI PUSH0 PUSH0 REVERT JUMPDEST PUSH0 DUP3 PUSH0 PUSH1 0x1 DUP2 LT PUSH2 0x12C9 JUMPI PUSH2 0x12C8 PUSH2 0x1789 JUMP JUMPDEST JUMPDEST PUSH1 0x20 MUL ADD MLOAD EQ ISZERO SWAP6 POP POP POP POP POP POP SWAP3 SWAP2 POP POP JUMP JUMPDEST PUSH1 0x40 MLOAD DUP1 PUSH1 0xA0 ADD PUSH1 0x40 MSTORE DUP1 PUSH2 0x12F0 PUSH2 0x1324 JUMP JUMPDEST DUP2 MSTORE PUSH1 0x20 ADD PUSH2 0x12FD PUSH2 0x1380 JUMP JUMPDEST DUP2 MSTORE PUSH1 0x20 ADD PUSH2 0x130A PUSH2 0x1380 JUMP JUMPDEST DUP2 MSTORE PUSH1 0x20 ADD PUSH2 0x1317 PUSH2 0x1380 JUMP JUMPDEST DUP2 MSTORE PUSH1 0x20 ADD PUSH1 0x60 DUP2 MSTORE POP SWAP1 JUMP JUMPDEST PUSH1 0x40 MLOAD DUP1 PUSH1 0x40 ADD PUSH1 0x40 MSTORE DUP1 PUSH0 DUP2 MSTORE PUSH1 0x20 ADD PUSH0 DUP2 MSTORE POP SWAP1 JUMP JUMPDEST PUSH1 0x40 MLOAD DUP1 PUSH1 0x60 ADD PUSH1 0x40 MSTORE DUP1 PUSH1 0x3 SWAP1 PUSH1 0x20 DUP3 MUL DUP1 CALLDATASIZE DUP4 CALLDATACOPY DUP1 DUP3 ADD SWAP2 POP POP SWAP1 POP POP SWAP1 JUMP JUMPDEST PUSH1 0x40 MLOAD DUP1 PUSH1 0x80 ADD PUSH1 0x40 MSTORE DUP1 PUSH1 0x4 SWAP1 PUSH1 0x20 DUP3 MUL DUP1 CALLDATASIZE DUP4 CALLDATACOPY DUP1 DUP3 ADD SWAP2 POP POP SWAP1 POP POP SWAP1 JUMP JUMPDEST PUSH1 0x40 MLOAD DUP1 PUSH1 0x40 ADD PUSH1 0x40 MSTORE DUP1 PUSH2 0x1393 PUSH2 0x13C8 JUMP JUMPDEST DUP2 MSTORE PUSH1 0x20 ADD PUSH2 0x13A0 PUSH2 0x13C8 JUMP JUMPDEST DUP2 MSTORE POP SWAP1 JUMP JUMPDEST PUSH1 0x40 MLOAD DUP1 PUSH1 0x20 ADD PUSH1 0x40 MSTORE DUP1 PUSH1 0x1 SWAP1 PUSH1 0x20 DUP3 MUL DUP1 CALLDATASIZE DUP4 CALLDATACOPY DUP1 DUP3 ADD SWAP2 POP POP SWAP1 POP POP SWAP1 JUMP JUMPDEST PUSH1 0x40 MLOAD DUP1 PUSH1 0x40 ADD PUSH1 0x40 MSTORE DUP1 PUSH1 0x2 SWAP1 PUSH1 0x20 DUP3 MUL DUP1 CALLDATASIZE DUP4 CALLDATACOPY DUP1 DUP3 ADD SWAP2 POP POP SWAP1 POP POP SWAP1 JUMP JUMPDEST PUSH0 PUSH1 0x40 MLOAD SWAP1 POP SWAP1 JUMP JUMPDEST PUSH0 PUSH0 REVERT JUMPDEST PUSH0 PUSH0 REVERT JUMPDEST PUSH0 PUSH1 0x1F NOT PUSH1 0x1F DUP4 ADD AND SWAP1 POP SWAP2 SWAP1 POP JUMP JUMPDEST PUSH32 0x4E487B7100000000000000000000000000000000000000000000000000000000 PUSH0 MSTORE PUSH1 0x41 PUSH1 0x4 MSTORE PUSH1 0x24 PUSH0 REVERT JUMPDEST PUSH2 0x1441 DUP3 PUSH2 0x13FB JUMP JUMPDEST DUP2 ADD DUP2 DUP2 LT PUSH8 0xFFFFFFFFFFFFFFFF DUP3 GT OR ISZERO PUSH2 0x1460 JUMPI PUSH2 0x145F PUSH2 0x140B JUMP JUMPDEST JUMPDEST DUP1 PUSH1 0x40 MSTORE POP POP POP JUMP JUMPDEST PUSH0 PUSH2 0x1472 PUSH2 0x13EA JUMP JUMPDEST SWAP1 POP PUSH2 0x147E DUP3 DUP3 PUSH2 0x1438 JUMP JUMPDEST SWAP2 SWAP1 POP JUMP JUMPDEST PUSH0 DUP2 SWAP1 POP SWAP2 SWAP1 POP JUMP JUMPDEST PUSH2 0x1495 DUP2 PUSH2 0x1483 JUMP JUMPDEST DUP2 EQ PUSH2 0x149F JUMPI PUSH0 PUSH0 REVERT JUMPDEST POP JUMP JUMPDEST PUSH0 DUP2 CALLDATALOAD SWAP1 POP PUSH2 0x14B0 DUP2 PUSH2 0x148C JUMP JUMPDEST SWAP3 SWAP2 POP POP JUMP JUMPDEST PUSH0 PUSH1 0x40 DUP3 DUP5 SUB SLT ISZERO PUSH2 0x14CB JUMPI PUSH2 0x14CA PUSH2 0x13F7 JUMP JUMPDEST JUMPDEST PUSH2 0x14D5 PUSH1 0x40 PUSH2 0x1469 JUMP JUMPDEST SWAP1 POP PUSH0 PUSH2 0x14E4 DUP5 DUP3 DUP6 ADD PUSH2 0x14A2 JUMP JUMPDEST PUSH0 DUP4 ADD MSTORE POP PUSH1 0x20 PUSH2 0x14F7 DUP5 DUP3 DUP6 ADD PUSH2 0x14A2 JUMP JUMPDEST PUSH1 0x20 DUP4 ADD MSTORE POP SWAP3 SWAP2 POP POP JUMP JUMPDEST PUSH0 PUSH0 REVERT JUMPDEST PUSH0 PUSH8 0xFFFFFFFFFFFFFFFF DUP3 GT ISZERO PUSH2 0x1521 JUMPI PUSH2 0x1520 PUSH2 0x140B JUMP JUMPDEST JUMPDEST PUSH1 0x20 DUP3 MUL SWAP1 POP SWAP2 SWAP1 POP JUMP JUMPDEST PUSH0 PUSH0 REVERT JUMPDEST PUSH0 PUSH2 0x1542 PUSH2 0x153D DUP5 PUSH2 0x1507 JUMP JUMPDEST PUSH2 0x1469 JUMP JUMPDEST SWAP1 POP DUP1 PUSH1 0x20 DUP5 MUL DUP4 ADD DUP6 DUP2 GT ISZERO PUSH2 0x155C JUMPI PUSH2 0x155B PUSH2 0x152C JUMP JUMPDEST JUMPDEST DUP4 JUMPDEST DUP2 DUP2 LT ISZERO PUSH2 0x1585 JUMPI DUP1 PUSH2 0x1571 DUP9 DUP3 PUSH2 0x14A2 JUMP JUMPDEST DUP5 MSTORE PUSH1 0x20 DUP5 ADD SWAP4 POP POP PUSH1 0x20 DUP2 ADD SWAP1 POP PUSH2 0x155E JUMP JUMPDEST POP POP POP SWAP4 SWAP3 POP POP POP JUMP JUMPDEST PUSH0 DUP3 PUSH1 0x1F DUP4 ADD SLT PUSH2 0x15A3 JUMPI PUSH2 0x15A2 PUSH2 0x1503 JUMP JUMPDEST JUMPDEST PUSH1 0x2 PUSH2 0x15B0 DUP5 DUP3 DUP6 PUSH2 0x1530 JUMP JUMPDEST SWAP2 POP POP SWAP3 SWAP2 POP POP JUMP JUMPDEST PUSH0 PUSH1 0x80 DUP3 DUP5 SUB SLT ISZERO PUSH2 0x15CE JUMPI PUSH2 0x15CD PUSH2 0x13F7 JUMP JUMPDEST JUMPDEST PUSH2 0x15D8 PUSH1 0x40 PUSH2 0x1469 JUMP JUMPDEST SWAP1 POP PUSH0 PUSH2 0x15E7 DUP5 DUP3 DUP6 ADD PUSH2 0x158F JUMP JUMPDEST PUSH0 DUP4 ADD MSTORE POP PUSH1 0x40 PUSH2 0x15FA DUP5 DUP3 DUP6 ADD PUSH2 0x158F JUMP JUMPDEST PUSH1 0x20 DUP4 ADD MSTORE POP SWAP3 SWAP2 POP POP JUMP JUMPDEST PUSH0 PUSH2 0x100 DUP3 DUP5 SUB SLT ISZERO PUSH2 0x161C JUMPI PUSH2 0x161B PUSH2 0x13F7 JUMP JUMPDEST JUMPDEST PUSH2 0x1626 PUSH1 0x60 PUSH2 0x1469 JUMP JUMPDEST SWAP1 POP PUSH0 PUSH2 0x1635 DUP5 DUP3 DUP6 ADD PUSH2 0x14B6 JUMP JUMPDEST PUSH0 DUP4 ADD MSTORE POP PUSH1 0x40 PUSH2 0x1648 DUP5 DUP3 DUP6 ADD PUSH2 0x15B9 JUMP JUMPDEST PUSH1 0x20 DUP4 ADD MSTORE POP PUSH1 0xC0 PUSH2 0x165C DUP5 DUP3 DUP6 ADD PUSH2 0x14B6 JUMP JUMPDEST PUSH1 0x40 DUP4 ADD MSTORE POP SWAP3 SWAP2 POP POP JUMP JUMPDEST PUSH0 PUSH8 0xFFFFFFFFFFFFFFFF DUP3 GT ISZERO PUSH2 0x1682 JUMPI PUSH2 0x1681 PUSH2 0x140B JUMP JUMPDEST JUMPDEST PUSH1 0x20 DUP3 MUL SWAP1 POP SWAP2 SWAP1 POP JUMP JUMPDEST PUSH0 PUSH2 0x169F PUSH2 0x169A DUP5 PUSH2 0x1668 JUMP JUMPDEST PUSH2 0x1469 JUMP JUMPDEST SWAP1 POP DUP1 PUSH1 0x20 DUP5 MUL DUP4 ADD DUP6 DUP2 GT ISZERO PUSH2 0x16B9 JUMPI PUSH2 0x16B8 PUSH2 0x152C JUMP JUMPDEST JUMPDEST DUP4 JUMPDEST DUP2 DUP2 LT ISZERO PUSH2 0x16E2 JUMPI DUP1 PUSH2 0x16CE DUP9 DUP3 PUSH2 0x14A2 JUMP JUMPDEST DUP5 MSTORE PUSH1 0x20 DUP5 ADD SWAP4 POP POP PUSH1 0x20 DUP2 ADD SWAP1 POP PUSH2 0x16BB JUMP JUMPDEST POP POP POP SWAP4 SWAP3 POP POP POP JUMP JUMPDEST PUSH0 DUP3 PUSH1 0x1F DUP4 ADD SLT PUSH2 0x1700 JUMPI PUSH2 0x16FF PUSH2 0x1503 JUMP JUMPDEST JUMPDEST PUSH1 0xC PUSH2 0x170D DUP5 DUP3 DUP6 PUSH2 0x168D JUMP JUMPDEST SWAP2 POP POP SWAP3 SWAP2 POP POP JUMP JUMPDEST PUSH0 PUSH0 PUSH2 0x280 DUP4 DUP6 SUB SLT ISZERO PUSH2 0x172D JUMPI PUSH2 0x172C PUSH2 0x13F3 JUMP JUMPDEST JUMPDEST PUSH0 PUSH2 0x173A DUP6 DUP3 DUP7 ADD PUSH2 0x1606 JUMP JUMPDEST SWAP3 POP POP PUSH2 0x100 PUSH2 0x174C DUP6 DUP3 DUP7 ADD PUSH2 0x16EC JUMP JUMPDEST SWAP2 POP POP SWAP3 POP SWAP3 SWAP1 POP JUMP JUMPDEST PUSH0 DUP2 ISZERO ISZERO SWAP1 POP SWAP2 SWAP1 POP JUMP JUMPDEST PUSH2 0x176A DUP2 PUSH2 0x1756 JUMP JUMPDEST DUP3 MSTORE POP POP JUMP JUMPDEST PUSH0 PUSH1 0x20 DUP3 ADD SWAP1 POP PUSH2 0x1783 PUSH0 DUP4 ADD DUP5 PUSH2 0x1761 JUMP JUMPDEST SWAP3 SWAP2 POP POP JUMP JUMPDEST PUSH32 0x4E487B7100000000000000000000000000000000000000000000000000000000 PUSH0 MSTORE PUSH1 0x32 PUSH1 0x4 MSTORE PUSH1 0x24 PUSH0 REVERT JUMPDEST PUSH32 0x4E487B7100000000000000000000000000000000000000000000000000000000 PUSH0 MSTORE PUSH1 0x11 PUSH1 0x4 MSTORE PUSH1 0x24 PUSH0 REVERT JUMPDEST PUSH0 PUSH2 0x17ED DUP3 PUSH2 0x1483 JUMP JUMPDEST SWAP2 POP PUSH2 0x17F8 DUP4 PUSH2 0x1483 JUMP JUMPDEST SWAP3 POP DUP3 DUP3 ADD SWAP1 POP DUP1 DUP3 GT ISZERO PUSH2 0x1810 JUMPI PUSH2 0x180F PUSH2 0x17B6 JUMP JUMPDEST JUMPDEST SWAP3 SWAP2 POP POP JUMP JUMPDEST PUSH32 0x4E487B7100000000000000000000000000000000000000000000000000000000 PUSH0 MSTORE PUSH1 0x12 PUSH1 0x4 MSTORE PUSH1 0x24 PUSH0 REVERT JUMPDEST PUSH0 PUSH2 0x184D DUP3 PUSH2 0x1483 JUMP JUMPDEST SWAP2 POP PUSH2 0x1858 DUP4 PUSH2 0x1483 JUMP JUMPDEST SWAP3 POP DUP3 PUSH2 0x1868 JUMPI PUSH2 0x1867 PUSH2 0x1816 JUMP JUMPDEST JUMPDEST DUP3 DUP3 MOD SWAP1 POP SWAP3 SWAP2 POP POP JUMP JUMPDEST PUSH0 PUSH2 0x187D DUP3 PUSH2 0x1483 JUMP JUMPDEST SWAP2 POP PUSH2 0x1888 DUP4 PUSH2 0x1483 JUMP JUMPDEST SWAP3 POP DUP3 DUP3 SUB SWAP1 POP DUP2 DUP2 GT ISZERO PUSH2 0x18A0 JUMPI PUSH2 0x189F PUSH2 0x17B6 JUMP JUMPDEST JUMPDEST SWAP3 SWAP2 POP POP JUMP JUMPDEST PUSH0 PUSH2 0x18B0 DUP3 PUSH2 0x1483 JUMP JUMPDEST SWAP2 POP PUSH2 0x18BB DUP4 PUSH2 0x1483 JUMP JUMPDEST SWAP3 POP DUP3 DUP3 MUL PUSH2 0x18C9 DUP2 PUSH2 0x1483 JUMP JUMPDEST SWAP2 POP DUP3 DUP3 DIV DUP5 EQ DUP4 ISZERO OR PUSH2 0x18E0 JUMPI PUSH2 0x18DF PUSH2 0x17B6 JUMP JUMPDEST JUMPDEST POP SWAP3 SWAP2 POP POP JUMP INVALID LOG2 PUSH5 0x6970667358 0x22 SLT KECCAK256 PUSH13 0xA2EB29ADD30F6718578C67C957 CREATE2 0xD7 0xC7 DUP12 0xBD GASPRICE DUP1 CODESIZE 0x1F 0xBD 0xD7 STOP DUP13 CODECOPY MCOPY LOG4 SWAP5 SUB PUSH5 0x736F6C6343 STOP ADDMOD 0x1E STOP CALLER "
				},
				"gasEstimates": {
					"creation": {
						"codeDepositCost": "1285800",
						"executionCost": "1333",
						"totalCost": "1287133"
					},
					"external": {
						"verifyTx(((uint256,uint256),(uint256[2],uint256[2]),(uint256,uint256)),uint256[12])": "infinite"
					},
					"internal": {
						"verify(uint256[] memory,struct VerifierRecuento.Proof memory)": "infinite",
						"verifyingKey()": "infinite"
					}
				},
				"methodIdentifiers": {
					"verifyTx(((uint256,uint256),(uint256[2],uint256[2]),(uint256,uint256)),uint256[12])": "66670599"
				}
			},
			"storageLayout": {
				"storage": [],
				"types": null
			},
			"userdoc": {
				"kind": "user",
				"methods": {},
				"version": 1
			}
		}
	}
}