{
	"TP FINAL/verifier.sol": {
		"VerifierVoto": {
			"abi": [
				{
					"inputs": [
						{
							"components": [
								{
									"components": [
										{
											"internalType": "uint256",
											"name": "X",
											"type": "uint256"
										},
										{
											"internalType": "uint256",
											"name": "Y",
											"type": "uint256"
										}
									],
									"internalType": "struct Pairing.G1Point",
									"name": "a",
									"type": "tuple"
								},
								{
									"components": [
										{
											"internalType": "uint256[2]",
											"name": "X",
											"type": "uint256[2]"
										},
										{
											"internalType": "uint256[2]",
											"name": "Y",
											"type": "uint256[2]"
										}
									],
									"internalType": "struct Pairing.G2Point",
									"name": "b",
									"type": "tuple"
								},
								{
									"components": [
										{
											"internalType": "uint256",
											"name": "X",
											"type": "uint256"
										},
										{
											"internalType": "uint256",
											"name": "Y",
											"type": "uint256"
										}
									],
									"internalType": "struct Pairing.G1Point",
									"name": "c",
									"type": "tuple"
								}
							],
							"internalType": "struct VerifierVoto.Proof",
							"name": "proof",
							"type": "tuple"
						},
						{
							"internalType": "uint256[12]",
							"name": "input",
							"type": "uint256[12]"
						}
					],
					"name": "verifyTx",
					"outputs": [
						{
							"internalType": "bool",
							"name": "r",
							"type": "bool"
						}
					],
					"stateMutability": "view",
					"type": "function"
				}
			],
			"devdoc": {
				"kind": "dev",
				"methods": {},
				"version": 1
			},
			"evm": {
				"assembly": "    /* \"TP FINAL/verifier.sol\":6234:11845  contract VerifierVoto {... */\n  mstore(0x40, 0x80)\n  callvalue\n  dup1\n  iszero\n  tag_1\n  jumpi\n  revert(0x00, 0x00)\ntag_1:\n  pop\n  dataSize(sub_0)\n  dup1\n  dataOffset(sub_0)\n  0x00\n  codecopy\n  0x00\n  return\nstop\n\nsub_0: assembly {\n        /* \"TP FINAL/verifier.sol\":6234:11845  contract VerifierVoto {... */\n      mstore(0x40, 0x80)\n      callvalue\n      dup1\n      iszero\n      tag_1\n      jumpi\n      revert(0x00, 0x00)\n    tag_1:\n      pop\n      jumpi(tag_2, lt(calldatasize, 0x04))\n      shr(0xe0, calldataload(0x00))\n      dup1\n      0x66670599\n      eq\n      tag_3\n      jumpi\n    tag_2:\n      revert(0x00, 0x00)\n        /* \"TP FINAL/verifier.sol\":11441:11843  function verifyTx(... */\n    tag_3:\n      tag_4\n      0x04\n      dup1\n      calldatasize\n      sub\n      dup2\n      add\n      swap1\n      tag_5\n      swap2\n      swap1\n      tag_6\n      jump\t// in\n    tag_5:\n      tag_7\n      jump\t// in\n    tag_4:\n      mload(0x40)\n      tag_8\n      swap2\n      swap1\n      tag_9\n      jump\t// in\n    tag_8:\n      mload(0x40)\n      dup1\n      swap2\n      sub\n      swap1\n      return\n    tag_7:\n        /* \"TP FINAL/verifier.sol\":11545:11551  bool r */\n      0x00\n        /* \"TP FINAL/verifier.sol\":11563:11588  uint[] memory inputValues */\n      0x00\n        /* \"TP FINAL/verifier.sol\":11602:11604  12 */\n      0x0c\n        /* \"TP FINAL/verifier.sol\":11591:11605  new uint[](12) */\n      0xffffffffffffffff\n      dup2\n      gt\n      iszero\n      tag_11\n      jumpi\n      tag_12\n      tag_13\n      jump\t// in\n    tag_12:\n    tag_11:\n      mload(0x40)\n      swap1\n      dup1\n      dup3\n      mstore\n      dup1\n      0x20\n      mul\n      0x20\n      add\n      dup3\n      add\n      0x40\n      mstore\n      dup1\n      iszero\n      tag_14\n      jumpi\n      dup2\n      0x20\n      add\n      0x20\n      dup3\n      mul\n      dup1\n      calldatasize\n      dup4\n      calldatacopy\n      dup1\n      dup3\n      add\n      swap2\n      pop\n      pop\n      swap1\n      pop\n    tag_14:\n      pop\n        /* \"TP FINAL/verifier.sol\":11563:11605  uint[] memory inputValues = new uint[](12) */\n      swap1\n      pop\n        /* \"TP FINAL/verifier.sol\":11628:11634  uint i */\n      0x00\n        /* \"TP FINAL/verifier.sol\":11637:11638  0 */\n      0x00\n        /* \"TP FINAL/verifier.sol\":11628:11638  uint i = 0 */\n      swap1\n      pop\n        /* \"TP FINAL/verifier.sol\":11624:11712  for(uint i = 0; i < input.length; i++){... */\n    tag_15:\n        /* \"TP FINAL/verifier.sol\":11644:11656  input.length */\n      0x0c\n        /* \"TP FINAL/verifier.sol\":11640:11641  i */\n      dup2\n        /* \"TP FINAL/verifier.sol\":11640:11656  i < input.length */\n      lt\n        /* \"TP FINAL/verifier.sol\":11624:11712  for(uint i = 0; i < input.length; i++){... */\n      iszero\n      tag_16\n      jumpi\n        /* \"TP FINAL/verifier.sol\":11693:11698  input */\n      dup4\n        /* \"TP FINAL/verifier.sol\":11699:11700  i */\n      dup2\n        /* \"TP FINAL/verifier.sol\":11693:11701  input[i] */\n      0x0c\n      dup2\n      lt\n      tag_18\n      jumpi\n      tag_19\n      tag_20\n      jump\t// in\n    tag_19:\n    tag_18:\n      0x20\n      mul\n      add\n      mload\n        /* \"TP FINAL/verifier.sol\":11676:11687  inputValues */\n      dup3\n        /* \"TP FINAL/verifier.sol\":11688:11689  i */\n      dup3\n        /* \"TP FINAL/verifier.sol\":11676:11690  inputValues[i] */\n      dup2\n      mload\n      dup2\n      lt\n      tag_21\n      jumpi\n      tag_22\n      tag_20\n      jump\t// in\n    tag_22:\n    tag_21:\n      0x20\n      mul\n      0x20\n      add\n      add\n        /* \"TP FINAL/verifier.sol\":11676:11701  inputValues[i] = input[i] */\n      dup2\n      dup2\n      mstore\n      pop\n      pop\n        /* \"TP FINAL/verifier.sol\":11658:11661  i++ */\n      dup1\n      dup1\n      0x01\n      add\n      swap2\n      pop\n      pop\n        /* \"TP FINAL/verifier.sol\":11624:11712  for(uint i = 0; i < input.length; i++){... */\n      jump(tag_15)\n    tag_16:\n      pop\n        /* \"TP FINAL/verifier.sol\":11755:11756  0 */\n      0x00\n        /* \"TP FINAL/verifier.sol\":11725:11751  verify(inputValues, proof) */\n      tag_23\n        /* \"TP FINAL/verifier.sol\":11732:11743  inputValues */\n      dup3\n        /* \"TP FINAL/verifier.sol\":11745:11750  proof */\n      dup7\n        /* \"TP FINAL/verifier.sol\":11725:11731  verify */\n      tag_24\n        /* \"TP FINAL/verifier.sol\":11725:11751  verify(inputValues, proof) */\n      jump\t// in\n    tag_23:\n        /* \"TP FINAL/verifier.sol\":11725:11756  verify(inputValues, proof) == 0 */\n      sub\n        /* \"TP FINAL/verifier.sol\":11721:11837  if (verify(inputValues, proof) == 0) {... */\n      tag_25\n      jumpi\n        /* \"TP FINAL/verifier.sol\":11779:11783  true */\n      0x01\n        /* \"TP FINAL/verifier.sol\":11772:11783  return true */\n      swap2\n      pop\n      pop\n      jump(tag_10)\n        /* \"TP FINAL/verifier.sol\":11721:11837  if (verify(inputValues, proof) == 0) {... */\n    tag_25:\n        /* \"TP FINAL/verifier.sol\":11821:11826  false */\n      0x00\n        /* \"TP FINAL/verifier.sol\":11814:11826  return false */\n      swap2\n      pop\n      pop\n        /* \"TP FINAL/verifier.sol\":11441:11843  function verifyTx(... */\n    tag_10:\n      swap3\n      swap2\n      pop\n      pop\n      jump\t// out\n        /* \"TP FINAL/verifier.sol\":10515:11436  function verify(uint[] memory input, Proof memory proof) internal view returns (uint) {... */\n    tag_24:\n        /* \"TP FINAL/verifier.sol\":10595:10599  uint */\n      0x00\n        /* \"TP FINAL/verifier.sol\":10611:10637  uint256 snark_scalar_field */\n      0x00\n        /* \"TP FINAL/verifier.sol\":10640:10717  21888242871839275222246405745257275088548364400416034343698204186575808495617 */\n      0x30644e72e131a029b85045b68181585d2833e84879b9709143e1f593f0000001\n        /* \"TP FINAL/verifier.sol\":10611:10717  uint256 snark_scalar_field = 21888242871839275222246405745257275088548364400416034343698204186575808495617 */\n      swap1\n      pop\n        /* \"TP FINAL/verifier.sol\":10727:10749  VerifyingKey memory vk */\n      0x00\n        /* \"TP FINAL/verifier.sol\":10752:10766  verifyingKey() */\n      tag_28\n        /* \"TP FINAL/verifier.sol\":10752:10764  verifyingKey */\n      tag_29\n        /* \"TP FINAL/verifier.sol\":10752:10766  verifyingKey() */\n      jump\t// in\n    tag_28:\n        /* \"TP FINAL/verifier.sol\":10727:10766  VerifyingKey memory vk = verifyingKey() */\n      swap1\n      pop\n        /* \"TP FINAL/verifier.sol\":10804:10806  vk */\n      dup1\n        /* \"TP FINAL/verifier.sol\":10804:10816  vk.gamma_abc */\n      0x80\n      add\n      mload\n        /* \"TP FINAL/verifier.sol\":10804:10823  vk.gamma_abc.length */\n      mload\n        /* \"TP FINAL/verifier.sol\":10799:10800  1 */\n      0x01\n        /* \"TP FINAL/verifier.sol\":10784:10789  input */\n      dup7\n        /* \"TP FINAL/verifier.sol\":10784:10796  input.length */\n      mload\n        /* \"TP FINAL/verifier.sol\":10784:10800  input.length + 1 */\n      tag_30\n      swap2\n      swap1\n      tag_31\n      jump\t// in\n    tag_30:\n        /* \"TP FINAL/verifier.sol\":10784:10823  input.length + 1 == vk.gamma_abc.length */\n      eq\n        /* \"TP FINAL/verifier.sol\":10776:10824  require(input.length + 1 == vk.gamma_abc.length) */\n      tag_32\n      jumpi\n      revert(0x00, 0x00)\n    tag_32:\n        /* \"TP FINAL/verifier.sol\":10881:10908  Pairing.G1Point memory vk_x */\n      0x00\n        /* \"TP FINAL/verifier.sol\":10911:10932  Pairing.G1Point(0, 0) */\n      mload(0x40)\n      dup1\n      0x40\n      add\n      0x40\n      mstore\n      dup1\n        /* \"TP FINAL/verifier.sol\":10927:10928  0 */\n      0x00\n        /* \"TP FINAL/verifier.sol\":10911:10932  Pairing.G1Point(0, 0) */\n      dup2\n      mstore\n      0x20\n      add\n        /* \"TP FINAL/verifier.sol\":10930:10931  0 */\n      0x00\n        /* \"TP FINAL/verifier.sol\":10911:10932  Pairing.G1Point(0, 0) */\n      dup2\n      mstore\n      pop\n        /* \"TP FINAL/verifier.sol\":10881:10932  Pairing.G1Point memory vk_x = Pairing.G1Point(0, 0) */\n      swap1\n      pop\n        /* \"TP FINAL/verifier.sol\":10947:10953  uint i */\n      0x00\n        /* \"TP FINAL/verifier.sol\":10956:10957  0 */\n      0x00\n        /* \"TP FINAL/verifier.sol\":10947:10957  uint i = 0 */\n      swap1\n      pop\n        /* \"TP FINAL/verifier.sol\":10942:11139  for (uint i = 0; i < input.length; i++) {... */\n    tag_33:\n        /* \"TP FINAL/verifier.sol\":10963:10968  input */\n      dup7\n        /* \"TP FINAL/verifier.sol\":10963:10975  input.length */\n      mload\n        /* \"TP FINAL/verifier.sol\":10959:10960  i */\n      dup2\n        /* \"TP FINAL/verifier.sol\":10959:10975  i < input.length */\n      lt\n        /* \"TP FINAL/verifier.sol\":10942:11139  for (uint i = 0; i < input.length; i++) {... */\n      iszero\n      tag_34\n      jumpi\n        /* \"TP FINAL/verifier.sol\":11015:11033  snark_scalar_field */\n      dup4\n        /* \"TP FINAL/verifier.sol\":11004:11009  input */\n      dup8\n        /* \"TP FINAL/verifier.sol\":11010:11011  i */\n      dup3\n        /* \"TP FINAL/verifier.sol\":11004:11012  input[i] */\n      dup2\n      mload\n      dup2\n      lt\n      tag_36\n      jumpi\n      tag_37\n      tag_20\n      jump\t// in\n    tag_37:\n    tag_36:\n      0x20\n      mul\n      0x20\n      add\n      add\n      mload\n        /* \"TP FINAL/verifier.sol\":11004:11033  input[i] < snark_scalar_field */\n      lt\n        /* \"TP FINAL/verifier.sol\":10996:11034  require(input[i] < snark_scalar_field) */\n      tag_38\n      jumpi\n      revert(0x00, 0x00)\n    tag_38:\n        /* \"TP FINAL/verifier.sol\":11055:11128  Pairing.addition(vk_x, Pairing.scalar_mul(vk.gamma_abc[i + 1], input[i])) */\n      tag_39\n        /* \"TP FINAL/verifier.sol\":11072:11076  vk_x */\n      dup3\n        /* \"TP FINAL/verifier.sol\":11078:11127  Pairing.scalar_mul(vk.gamma_abc[i + 1], input[i]) */\n      tag_40\n        /* \"TP FINAL/verifier.sol\":11097:11099  vk */\n      dup6\n        /* \"TP FINAL/verifier.sol\":11097:11109  vk.gamma_abc */\n      0x80\n      add\n      mload\n        /* \"TP FINAL/verifier.sol\":11114:11115  1 */\n      0x01\n        /* \"TP FINAL/verifier.sol\":11110:11111  i */\n      dup6\n        /* \"TP FINAL/verifier.sol\":11110:11115  i + 1 */\n      tag_41\n      swap2\n      swap1\n      tag_31\n      jump\t// in\n    tag_41:\n        /* \"TP FINAL/verifier.sol\":11097:11116  vk.gamma_abc[i + 1] */\n      dup2\n      mload\n      dup2\n      lt\n      tag_42\n      jumpi\n      tag_43\n      tag_20\n      jump\t// in\n    tag_43:\n    tag_42:\n      0x20\n      mul\n      0x20\n      add\n      add\n      mload\n        /* \"TP FINAL/verifier.sol\":11118:11123  input */\n      dup11\n        /* \"TP FINAL/verifier.sol\":11124:11125  i */\n      dup6\n        /* \"TP FINAL/verifier.sol\":11118:11126  input[i] */\n      dup2\n      mload\n      dup2\n      lt\n      tag_44\n      jumpi\n      tag_45\n      tag_20\n      jump\t// in\n    tag_45:\n    tag_44:\n      0x20\n      mul\n      0x20\n      add\n      add\n      mload\n        /* \"TP FINAL/verifier.sol\":11078:11096  Pairing.scalar_mul */\n      tag_46\n        /* \"TP FINAL/verifier.sol\":11078:11127  Pairing.scalar_mul(vk.gamma_abc[i + 1], input[i]) */\n      jump\t// in\n    tag_40:\n        /* \"TP FINAL/verifier.sol\":11055:11071  Pairing.addition */\n      tag_47\n        /* \"TP FINAL/verifier.sol\":11055:11128  Pairing.addition(vk_x, Pairing.scalar_mul(vk.gamma_abc[i + 1], input[i])) */\n      jump\t// in\n    tag_39:\n        /* \"TP FINAL/verifier.sol\":11048:11128  vk_x = Pairing.addition(vk_x, Pairing.scalar_mul(vk.gamma_abc[i + 1], input[i])) */\n      swap2\n      pop\n        /* \"TP FINAL/verifier.sol\":10977:10980  i++ */\n      dup1\n      dup1\n      0x01\n      add\n      swap2\n      pop\n      pop\n        /* \"TP FINAL/verifier.sol\":10942:11139  for (uint i = 0; i < input.length; i++) {... */\n      jump(tag_33)\n    tag_34:\n      pop\n        /* \"TP FINAL/verifier.sol\":11155:11194  Pairing.addition(vk_x, vk.gamma_abc[0]) */\n      tag_48\n        /* \"TP FINAL/verifier.sol\":11172:11176  vk_x */\n      dup2\n        /* \"TP FINAL/verifier.sol\":11178:11180  vk */\n      dup4\n        /* \"TP FINAL/verifier.sol\":11178:11190  vk.gamma_abc */\n      0x80\n      add\n      mload\n        /* \"TP FINAL/verifier.sol\":11191:11192  0 */\n      0x00\n        /* \"TP FINAL/verifier.sol\":11178:11193  vk.gamma_abc[0] */\n      dup2\n      mload\n      dup2\n      lt\n      tag_49\n      jumpi\n      tag_50\n      tag_20\n      jump\t// in\n    tag_50:\n    tag_49:\n      0x20\n      mul\n      0x20\n      add\n      add\n      mload\n        /* \"TP FINAL/verifier.sol\":11155:11171  Pairing.addition */\n      tag_47\n        /* \"TP FINAL/verifier.sol\":11155:11194  Pairing.addition(vk_x, vk.gamma_abc[0]) */\n      jump\t// in\n    tag_48:\n        /* \"TP FINAL/verifier.sol\":11148:11194  vk_x = Pairing.addition(vk_x, vk.gamma_abc[0]) */\n      swap1\n      pop\n        /* \"TP FINAL/verifier.sol\":11208:11401  Pairing.pairingProd4(... */\n      tag_51\n        /* \"TP FINAL/verifier.sol\":11243:11248  proof */\n      dup6\n        /* \"TP FINAL/verifier.sol\":11243:11250  proof.a */\n      0x00\n      add\n      mload\n        /* \"TP FINAL/verifier.sol\":11252:11257  proof */\n      dup7\n        /* \"TP FINAL/verifier.sol\":11252:11259  proof.b */\n      0x20\n      add\n      mload\n        /* \"TP FINAL/verifier.sol\":11274:11294  Pairing.negate(vk_x) */\n      tag_52\n        /* \"TP FINAL/verifier.sol\":11289:11293  vk_x */\n      dup5\n        /* \"TP FINAL/verifier.sol\":11274:11288  Pairing.negate */\n      tag_53\n        /* \"TP FINAL/verifier.sol\":11274:11294  Pairing.negate(vk_x) */\n      jump\t// in\n    tag_52:\n        /* \"TP FINAL/verifier.sol\":11296:11298  vk */\n      dup6\n        /* \"TP FINAL/verifier.sol\":11296:11304  vk.gamma */\n      0x40\n      add\n      mload\n        /* \"TP FINAL/verifier.sol\":11319:11342  Pairing.negate(proof.c) */\n      tag_54\n        /* \"TP FINAL/verifier.sol\":11334:11339  proof */\n      dup11\n        /* \"TP FINAL/verifier.sol\":11334:11341  proof.c */\n      0x40\n      add\n      mload\n        /* \"TP FINAL/verifier.sol\":11319:11333  Pairing.negate */\n      tag_53\n        /* \"TP FINAL/verifier.sol\":11319:11342  Pairing.negate(proof.c) */\n      jump\t// in\n    tag_54:\n        /* \"TP FINAL/verifier.sol\":11344:11346  vk */\n      dup8\n        /* \"TP FINAL/verifier.sol\":11344:11352  vk.delta */\n      0x60\n      add\n      mload\n        /* \"TP FINAL/verifier.sol\":11367:11391  Pairing.negate(vk.alpha) */\n      tag_55\n        /* \"TP FINAL/verifier.sol\":11382:11384  vk */\n      dup10\n        /* \"TP FINAL/verifier.sol\":11382:11390  vk.alpha */\n      0x00\n      add\n      mload\n        /* \"TP FINAL/verifier.sol\":11367:11381  Pairing.negate */\n      tag_53\n        /* \"TP FINAL/verifier.sol\":11367:11391  Pairing.negate(vk.alpha) */\n      jump\t// in\n    tag_55:\n        /* \"TP FINAL/verifier.sol\":11393:11395  vk */\n      dup10\n        /* \"TP FINAL/verifier.sol\":11393:11400  vk.beta */\n      0x20\n      add\n      mload\n        /* \"TP FINAL/verifier.sol\":11208:11228  Pairing.pairingProd4 */\n      tag_56\n        /* \"TP FINAL/verifier.sol\":11208:11401  Pairing.pairingProd4(... */\n      jump\t// in\n    tag_51:\n        /* \"TP FINAL/verifier.sol\":11204:11411  if(!Pairing.pairingProd4(... */\n      tag_57\n      jumpi\n        /* \"TP FINAL/verifier.sol\":11410:11411  1 */\n      0x01\n        /* \"TP FINAL/verifier.sol\":11403:11411  return 1 */\n      swap4\n      pop\n      pop\n      pop\n      pop\n      jump(tag_27)\n        /* \"TP FINAL/verifier.sol\":11204:11411  if(!Pairing.pairingProd4(... */\n    tag_57:\n        /* \"TP FINAL/verifier.sol\":11428:11429  0 */\n      0x00\n        /* \"TP FINAL/verifier.sol\":11421:11429  return 0 */\n      swap4\n      pop\n      pop\n      pop\n      pop\n        /* \"TP FINAL/verifier.sol\":10515:11436  function verify(uint[] memory input, Proof memory proof) internal view returns (uint) {... */\n    tag_27:\n      swap3\n      swap2\n      pop\n      pop\n      jump\t// out\n        /* \"TP FINAL/verifier.sol\":6585:10510  function verifyingKey() pure internal returns (VerifyingKey memory vk) {... */\n    tag_29:\n        /* \"TP FINAL/verifier.sol\":6632:6654  VerifyingKey memory vk */\n      tag_58\n      tag_59\n      jump\t// in\n    tag_58:\n        /* \"TP FINAL/verifier.sol\":6677:6846  Pairing.G1Point(uint256(0x0daa57dc4a4692c2ac1f2b06c0f5be3297fb59681cb6ee071334ab6435f6f39f), uint256(0x072515937d4f66f7fd7bd111c87c377f41a6724c4445437f3238c46fd413afc6)) */\n      mload(0x40)\n      dup1\n      0x40\n      add\n      0x40\n      mstore\n      dup1\n        /* \"TP FINAL/verifier.sol\":6701:6767  0x0daa57dc4a4692c2ac1f2b06c0f5be3297fb59681cb6ee071334ab6435f6f39f */\n      0x0daa57dc4a4692c2ac1f2b06c0f5be3297fb59681cb6ee071334ab6435f6f39f\n        /* \"TP FINAL/verifier.sol\":6677:6846  Pairing.G1Point(uint256(0x0daa57dc4a4692c2ac1f2b06c0f5be3297fb59681cb6ee071334ab6435f6f39f), uint256(0x072515937d4f66f7fd7bd111c87c377f41a6724c4445437f3238c46fd413afc6)) */\n      dup2\n      mstore\n      0x20\n      add\n        /* \"TP FINAL/verifier.sol\":6778:6844  0x072515937d4f66f7fd7bd111c87c377f41a6724c4445437f3238c46fd413afc6 */\n      0x072515937d4f66f7fd7bd111c87c377f41a6724c4445437f3238c46fd413afc6\n        /* \"TP FINAL/verifier.sol\":6677:6846  Pairing.G1Point(uint256(0x0daa57dc4a4692c2ac1f2b06c0f5be3297fb59681cb6ee071334ab6435f6f39f), uint256(0x072515937d4f66f7fd7bd111c87c377f41a6724c4445437f3238c46fd413afc6)) */\n      dup2\n      mstore\n      pop\n        /* \"TP FINAL/verifier.sol\":6666:6668  vk */\n      dup2\n        /* \"TP FINAL/verifier.sol\":6666:6674  vk.alpha */\n      0x00\n      add\n        /* \"TP FINAL/verifier.sol\":6666:6846  vk.alpha = Pairing.G1Point(uint256(0x0daa57dc4a4692c2ac1f2b06c0f5be3297fb59681cb6ee071334ab6435f6f39f), uint256(0x072515937d4f66f7fd7bd111c87c377f41a6724c4445437f3238c46fd413afc6)) */\n      dup2\n      swap1\n      mstore\n      pop\n        /* \"TP FINAL/verifier.sol\":6866:7193  Pairing.G2Point([uint256(0x2de1f7c564d6a0ca0431221e98101d1d71b0e68f915032b7381e9e6301ad3de6), uint256(0x118c304086f3359014d0af4f4c87571decff530aaa45da37c133aca4ec537d71)], [uint256(0x117846116db6bdbc400b5b1ed1a5c227aa3b556573b80c1403bc34d7a3f0e751), uint256(0x167a659204992d15584e0c75e4a7e47a30c03023fe19dac1aab163e817f8dc75)]) */\n      mload(0x40)\n      dup1\n      0x40\n      add\n      0x40\n      mstore\n      dup1\n      mload(0x40)\n      dup1\n      0x40\n      add\n      0x40\n      mstore\n      dup1\n        /* \"TP FINAL/verifier.sol\":6891:6957  0x2de1f7c564d6a0ca0431221e98101d1d71b0e68f915032b7381e9e6301ad3de6 */\n      0x2de1f7c564d6a0ca0431221e98101d1d71b0e68f915032b7381e9e6301ad3de6\n        /* \"TP FINAL/verifier.sol\":6866:7193  Pairing.G2Point([uint256(0x2de1f7c564d6a0ca0431221e98101d1d71b0e68f915032b7381e9e6301ad3de6), uint256(0x118c304086f3359014d0af4f4c87571decff530aaa45da37c133aca4ec537d71)], [uint256(0x117846116db6bdbc400b5b1ed1a5c227aa3b556573b80c1403bc34d7a3f0e751), uint256(0x167a659204992d15584e0c75e4a7e47a30c03023fe19dac1aab163e817f8dc75)]) */\n      dup2\n      mstore\n      0x20\n      add\n        /* \"TP FINAL/verifier.sol\":6968:7034  0x118c304086f3359014d0af4f4c87571decff530aaa45da37c133aca4ec537d71 */\n      0x118c304086f3359014d0af4f4c87571decff530aaa45da37c133aca4ec537d71\n        /* \"TP FINAL/verifier.sol\":6866:7193  Pairing.G2Point([uint256(0x2de1f7c564d6a0ca0431221e98101d1d71b0e68f915032b7381e9e6301ad3de6), uint256(0x118c304086f3359014d0af4f4c87571decff530aaa45da37c133aca4ec537d71)], [uint256(0x117846116db6bdbc400b5b1ed1a5c227aa3b556573b80c1403bc34d7a3f0e751), uint256(0x167a659204992d15584e0c75e4a7e47a30c03023fe19dac1aab163e817f8dc75)]) */\n      dup2\n      mstore\n      pop\n      dup2\n      mstore\n      0x20\n      add\n      mload(0x40)\n      dup1\n      0x40\n      add\n      0x40\n      mstore\n      dup1\n        /* \"TP FINAL/verifier.sol\":7047:7113  0x117846116db6bdbc400b5b1ed1a5c227aa3b556573b80c1403bc34d7a3f0e751 */\n      0x117846116db6bdbc400b5b1ed1a5c227aa3b556573b80c1403bc34d7a3f0e751\n        /* \"TP FINAL/verifier.sol\":6866:7193  Pairing.G2Point([uint256(0x2de1f7c564d6a0ca0431221e98101d1d71b0e68f915032b7381e9e6301ad3de6), uint256(0x118c304086f3359014d0af4f4c87571decff530aaa45da37c133aca4ec537d71)], [uint256(0x117846116db6bdbc400b5b1ed1a5c227aa3b556573b80c1403bc34d7a3f0e751), uint256(0x167a659204992d15584e0c75e4a7e47a30c03023fe19dac1aab163e817f8dc75)]) */\n      dup2\n      mstore\n      0x20\n      add\n        /* \"TP FINAL/verifier.sol\":7124:7190  0x167a659204992d15584e0c75e4a7e47a30c03023fe19dac1aab163e817f8dc75 */\n      0x167a659204992d15584e0c75e4a7e47a30c03023fe19dac1aab163e817f8dc75\n        /* \"TP FINAL/verifier.sol\":6866:7193  Pairing.G2Point([uint256(0x2de1f7c564d6a0ca0431221e98101d1d71b0e68f915032b7381e9e6301ad3de6), uint256(0x118c304086f3359014d0af4f4c87571decff530aaa45da37c133aca4ec537d71)], [uint256(0x117846116db6bdbc400b5b1ed1a5c227aa3b556573b80c1403bc34d7a3f0e751), uint256(0x167a659204992d15584e0c75e4a7e47a30c03023fe19dac1aab163e817f8dc75)]) */\n      dup2\n      mstore\n      pop\n      dup2\n      mstore\n      pop\n        /* \"TP FINAL/verifier.sol\":6856:6858  vk */\n      dup2\n        /* \"TP FINAL/verifier.sol\":6856:6863  vk.beta */\n      0x20\n      add\n        /* \"TP FINAL/verifier.sol\":6856:7193  vk.beta = Pairing.G2Point([uint256(0x2de1f7c564d6a0ca0431221e98101d1d71b0e68f915032b7381e9e6301ad3de6), uint256(0x118c304086f3359014d0af4f4c87571decff530aaa45da37c133aca4ec537d71)], [uint256(0x117846116db6bdbc400b5b1ed1a5c227aa3b556573b80c1403bc34d7a3f0e751), uint256(0x167a659204992d15584e0c75e4a7e47a30c03023fe19dac1aab163e817f8dc75)]) */\n      dup2\n      swap1\n      mstore\n      pop\n        /* \"TP FINAL/verifier.sol\":7214:7541  Pairing.G2Point([uint256(0x2968ed1423c743f4f1410c66985a635ff325e21a895c94589331b70554cd4fa8), uint256(0x016b68374b6d4825747c83cee8c589e8deb7be7f63c83c80c85985387aa3c9cd)], [uint256(0x0cb42d30f5ceedaa6936c083e68e6adc0b386d36a86059a305624b998cdb0a28), uint256(0x0774bee6b76b7fc994e2349dcdd8f1fca28a67e9b07509dc4f249bda432087e4)]) */\n      mload(0x40)\n      dup1\n      0x40\n      add\n      0x40\n      mstore\n      dup1\n      mload(0x40)\n      dup1\n      0x40\n      add\n      0x40\n      mstore\n      dup1\n        /* \"TP FINAL/verifier.sol\":7239:7305  0x2968ed1423c743f4f1410c66985a635ff325e21a895c94589331b70554cd4fa8 */\n      0x2968ed1423c743f4f1410c66985a635ff325e21a895c94589331b70554cd4fa8\n        /* \"TP FINAL/verifier.sol\":7214:7541  Pairing.G2Point([uint256(0x2968ed1423c743f4f1410c66985a635ff325e21a895c94589331b70554cd4fa8), uint256(0x016b68374b6d4825747c83cee8c589e8deb7be7f63c83c80c85985387aa3c9cd)], [uint256(0x0cb42d30f5ceedaa6936c083e68e6adc0b386d36a86059a305624b998cdb0a28), uint256(0x0774bee6b76b7fc994e2349dcdd8f1fca28a67e9b07509dc4f249bda432087e4)]) */\n      dup2\n      mstore\n      0x20\n      add\n        /* \"TP FINAL/verifier.sol\":7316:7382  0x016b68374b6d4825747c83cee8c589e8deb7be7f63c83c80c85985387aa3c9cd */\n      0x016b68374b6d4825747c83cee8c589e8deb7be7f63c83c80c85985387aa3c9cd\n        /* \"TP FINAL/verifier.sol\":7214:7541  Pairing.G2Point([uint256(0x2968ed1423c743f4f1410c66985a635ff325e21a895c94589331b70554cd4fa8), uint256(0x016b68374b6d4825747c83cee8c589e8deb7be7f63c83c80c85985387aa3c9cd)], [uint256(0x0cb42d30f5ceedaa6936c083e68e6adc0b386d36a86059a305624b998cdb0a28), uint256(0x0774bee6b76b7fc994e2349dcdd8f1fca28a67e9b07509dc4f249bda432087e4)]) */\n      dup2\n      mstore\n      pop\n      dup2\n      mstore\n      0x20\n      add\n      mload(0x40)\n      dup1\n      0x40\n      add\n      0x40\n      mstore\n      dup1\n        /* \"TP FINAL/verifier.sol\":7395:7461  0x0cb42d30f5ceedaa6936c083e68e6adc0b386d36a86059a305624b998cdb0a28 */\n      0x0cb42d30f5ceedaa6936c083e68e6adc0b386d36a86059a305624b998cdb0a28\n        /* \"TP FINAL/verifier.sol\":7214:7541  Pairing.G2Point([uint256(0x2968ed1423c743f4f1410c66985a635ff325e21a895c94589331b70554cd4fa8), uint256(0x016b68374b6d4825747c83cee8c589e8deb7be7f63c83c80c85985387aa3c9cd)], [uint256(0x0cb42d30f5ceedaa6936c083e68e6adc0b386d36a86059a305624b998cdb0a28), uint256(0x0774bee6b76b7fc994e2349dcdd8f1fca28a67e9b07509dc4f249bda432087e4)]) */\n      dup2\n      mstore\n      0x20\n      add\n        /* \"TP FINAL/verifier.sol\":7472:7538  0x0774bee6b76b7fc994e2349dcdd8f1fca28a67e9b07509dc4f249bda432087e4 */\n      0x0774bee6b76b7fc994e2349dcdd8f1fca28a67e9b07509dc4f249bda432087e4\n        /* \"TP FINAL/verifier.sol\":7214:7541  Pairing.G2Point([uint256(0x2968ed1423c743f4f1410c66985a635ff325e21a895c94589331b70554cd4fa8), uint256(0x016b68374b6d4825747c83cee8c589e8deb7be7f63c83c80c85985387aa3c9cd)], [uint256(0x0cb42d30f5ceedaa6936c083e68e6adc0b386d36a86059a305624b998cdb0a28), uint256(0x0774bee6b76b7fc994e2349dcdd8f1fca28a67e9b07509dc4f249bda432087e4)]) */\n      dup2\n      mstore\n      pop\n      dup2\n      mstore\n      pop\n        /* \"TP FINAL/verifier.sol\":7203:7205  vk */\n      dup2\n        /* \"TP FINAL/verifier.sol\":7203:7211  vk.gamma */\n      0x40\n      add\n        /* \"TP FINAL/verifier.sol\":7203:7541  vk.gamma = Pairing.G2Point([uint256(0x2968ed1423c743f4f1410c66985a635ff325e21a895c94589331b70554cd4fa8), uint256(0x016b68374b6d4825747c83cee8c589e8deb7be7f63c83c80c85985387aa3c9cd)], [uint256(0x0cb42d30f5ceedaa6936c083e68e6adc0b386d36a86059a305624b998cdb0a28), uint256(0x0774bee6b76b7fc994e2349dcdd8f1fca28a67e9b07509dc4f249bda432087e4)]) */\n      dup2\n      swap1\n      mstore\n      pop\n        /* \"TP FINAL/verifier.sol\":7562:7889  Pairing.G2Point([uint256(0x0e9a7e0c5e9237e049821a9b96107098c0f878977a78ca983233ac9174ce87eb), uint256(0x2bb21a00ec8b20398799687107808f1d8c7bfe515cfc6db2a0a5e468896b08d1)], [uint256(0x22647b8cf8e82011242b5d9638f6efc0b72e0bfdc1a1b2cfaa4e578712c34787), uint256(0x02566cb9c3ddfa185320ded12e3f3f1e27a161d1fbe4a7f3cad3e35cf71b33fb)]) */\n      mload(0x40)\n      dup1\n      0x40\n      add\n      0x40\n      mstore\n      dup1\n      mload(0x40)\n      dup1\n      0x40\n      add\n      0x40\n      mstore\n      dup1\n        /* \"TP FINAL/verifier.sol\":7587:7653  0x0e9a7e0c5e9237e049821a9b96107098c0f878977a78ca983233ac9174ce87eb */\n      0x0e9a7e0c5e9237e049821a9b96107098c0f878977a78ca983233ac9174ce87eb\n        /* \"TP FINAL/verifier.sol\":7562:7889  Pairing.G2Point([uint256(0x0e9a7e0c5e9237e049821a9b96107098c0f878977a78ca983233ac9174ce87eb), uint256(0x2bb21a00ec8b20398799687107808f1d8c7bfe515cfc6db2a0a5e468896b08d1)], [uint256(0x22647b8cf8e82011242b5d9638f6efc0b72e0bfdc1a1b2cfaa4e578712c34787), uint256(0x02566cb9c3ddfa185320ded12e3f3f1e27a161d1fbe4a7f3cad3e35cf71b33fb)]) */\n      dup2\n      mstore\n      0x20\n      add\n        /* \"TP FINAL/verifier.sol\":7664:7730  0x2bb21a00ec8b20398799687107808f1d8c7bfe515cfc6db2a0a5e468896b08d1 */\n      0x2bb21a00ec8b20398799687107808f1d8c7bfe515cfc6db2a0a5e468896b08d1\n        /* \"TP FINAL/verifier.sol\":7562:7889  Pairing.G2Point([uint256(0x0e9a7e0c5e9237e049821a9b96107098c0f878977a78ca983233ac9174ce87eb), uint256(0x2bb21a00ec8b20398799687107808f1d8c7bfe515cfc6db2a0a5e468896b08d1)], [uint256(0x22647b8cf8e82011242b5d9638f6efc0b72e0bfdc1a1b2cfaa4e578712c34787), uint256(0x02566cb9c3ddfa185320ded12e3f3f1e27a161d1fbe4a7f3cad3e35cf71b33fb)]) */\n      dup2\n      mstore\n      pop\n      dup2\n      mstore\n      0x20\n      add\n      mload(0x40)\n      dup1\n      0x40\n      add\n      0x40\n      mstore\n      dup1\n        /* \"TP FINAL/verifier.sol\":7743:7809  0x22647b8cf8e82011242b5d9638f6efc0b72e0bfdc1a1b2cfaa4e578712c34787 */\n      0x22647b8cf8e82011242b5d9638f6efc0b72e0bfdc1a1b2cfaa4e578712c34787\n        /* \"TP FINAL/verifier.sol\":7562:7889  Pairing.G2Point([uint256(0x0e9a7e0c5e9237e049821a9b96107098c0f878977a78ca983233ac9174ce87eb), uint256(0x2bb21a00ec8b20398799687107808f1d8c7bfe515cfc6db2a0a5e468896b08d1)], [uint256(0x22647b8cf8e82011242b5d9638f6efc0b72e0bfdc1a1b2cfaa4e578712c34787), uint256(0x02566cb9c3ddfa185320ded12e3f3f1e27a161d1fbe4a7f3cad3e35cf71b33fb)]) */\n      dup2\n      mstore\n      0x20\n      add\n        /* \"TP FINAL/verifier.sol\":7820:7886  0x02566cb9c3ddfa185320ded12e3f3f1e27a161d1fbe4a7f3cad3e35cf71b33fb */\n      0x02566cb9c3ddfa185320ded12e3f3f1e27a161d1fbe4a7f3cad3e35cf71b33fb\n        /* \"TP FINAL/verifier.sol\":7562:7889  Pairing.G2Point([uint256(0x0e9a7e0c5e9237e049821a9b96107098c0f878977a78ca983233ac9174ce87eb), uint256(0x2bb21a00ec8b20398799687107808f1d8c7bfe515cfc6db2a0a5e468896b08d1)], [uint256(0x22647b8cf8e82011242b5d9638f6efc0b72e0bfdc1a1b2cfaa4e578712c34787), uint256(0x02566cb9c3ddfa185320ded12e3f3f1e27a161d1fbe4a7f3cad3e35cf71b33fb)]) */\n      dup2\n      mstore\n      pop\n      dup2\n      mstore\n      pop\n        /* \"TP FINAL/verifier.sol\":7551:7553  vk */\n      dup2\n        /* \"TP FINAL/verifier.sol\":7551:7559  vk.delta */\n      0x60\n      add\n        /* \"TP FINAL/verifier.sol\":7551:7889  vk.delta = Pairing.G2Point([uint256(0x0e9a7e0c5e9237e049821a9b96107098c0f878977a78ca983233ac9174ce87eb), uint256(0x2bb21a00ec8b20398799687107808f1d8c7bfe515cfc6db2a0a5e468896b08d1)], [uint256(0x22647b8cf8e82011242b5d9638f6efc0b72e0bfdc1a1b2cfaa4e578712c34787), uint256(0x02566cb9c3ddfa185320ded12e3f3f1e27a161d1fbe4a7f3cad3e35cf71b33fb)]) */\n      dup2\n      swap1\n      mstore\n      pop\n        /* \"TP FINAL/verifier.sol\":7936:7938  13 */\n      0x0d\n        /* \"TP FINAL/verifier.sol\":7914:7939  new Pairing.G1Point[](13) */\n      0xffffffffffffffff\n      dup2\n      gt\n      iszero\n      tag_61\n      jumpi\n      tag_62\n      tag_13\n      jump\t// in\n    tag_62:\n    tag_61:\n      mload(0x40)\n      swap1\n      dup1\n      dup3\n      mstore\n      dup1\n      0x20\n      mul\n      0x20\n      add\n      dup3\n      add\n      0x40\n      mstore\n      dup1\n      iszero\n      tag_63\n      jumpi\n      dup2\n      0x20\n      add\n    tag_64:\n      tag_65\n      tag_66\n      jump\t// in\n    tag_65:\n      dup2\n      mstore\n      0x20\n      add\n      swap1\n      0x01\n      swap1\n      sub\n      swap1\n      dup2\n      tag_64\n      jumpi\n      swap1\n      pop\n    tag_63:\n      pop\n        /* \"TP FINAL/verifier.sol\":7899:7901  vk */\n      dup2\n        /* \"TP FINAL/verifier.sol\":7899:7911  vk.gamma_abc */\n      0x80\n      add\n        /* \"TP FINAL/verifier.sol\":7899:7939  vk.gamma_abc = new Pairing.G1Point[](13) */\n      dup2\n      swap1\n      mstore\n      pop\n        /* \"TP FINAL/verifier.sol\":7967:8136  Pairing.G1Point(uint256(0x2af849b578726a614b9cf837813b1920d037d44d4fb4bc16f12191fad80f49a7), uint256(0x2996abb657ecb50682bdddffaebaa1d8ac4f24f9e9a0316061f3b752eeb45eb2)) */\n      mload(0x40)\n      dup1\n      0x40\n      add\n      0x40\n      mstore\n      dup1\n        /* \"TP FINAL/verifier.sol\":7991:8057  0x2af849b578726a614b9cf837813b1920d037d44d4fb4bc16f12191fad80f49a7 */\n      0x2af849b578726a614b9cf837813b1920d037d44d4fb4bc16f12191fad80f49a7\n        /* \"TP FINAL/verifier.sol\":7967:8136  Pairing.G1Point(uint256(0x2af849b578726a614b9cf837813b1920d037d44d4fb4bc16f12191fad80f49a7), uint256(0x2996abb657ecb50682bdddffaebaa1d8ac4f24f9e9a0316061f3b752eeb45eb2)) */\n      dup2\n      mstore\n      0x20\n      add\n        /* \"TP FINAL/verifier.sol\":8068:8134  0x2996abb657ecb50682bdddffaebaa1d8ac4f24f9e9a0316061f3b752eeb45eb2 */\n      0x2996abb657ecb50682bdddffaebaa1d8ac4f24f9e9a0316061f3b752eeb45eb2\n        /* \"TP FINAL/verifier.sol\":7967:8136  Pairing.G1Point(uint256(0x2af849b578726a614b9cf837813b1920d037d44d4fb4bc16f12191fad80f49a7), uint256(0x2996abb657ecb50682bdddffaebaa1d8ac4f24f9e9a0316061f3b752eeb45eb2)) */\n      dup2\n      mstore\n      pop\n        /* \"TP FINAL/verifier.sol\":7949:7951  vk */\n      dup2\n        /* \"TP FINAL/verifier.sol\":7949:7961  vk.gamma_abc */\n      0x80\n      add\n      mload\n        /* \"TP FINAL/verifier.sol\":7962:7963  0 */\n      0x00\n        /* \"TP FINAL/verifier.sol\":7949:7964  vk.gamma_abc[0] */\n      dup2\n      mload\n      dup2\n      lt\n      tag_67\n      jumpi\n      tag_68\n      tag_20\n      jump\t// in\n    tag_68:\n    tag_67:\n      0x20\n      mul\n      0x20\n      add\n      add\n        /* \"TP FINAL/verifier.sol\":7949:8136  vk.gamma_abc[0] = Pairing.G1Point(uint256(0x2af849b578726a614b9cf837813b1920d037d44d4fb4bc16f12191fad80f49a7), uint256(0x2996abb657ecb50682bdddffaebaa1d8ac4f24f9e9a0316061f3b752eeb45eb2)) */\n      dup2\n      swap1\n      mstore\n      pop\n        /* \"TP FINAL/verifier.sol\":8164:8333  Pairing.G1Point(uint256(0x0f712efb483b65815be9b69fcba66737d47b7cbe013e8de2d2165c24b049d9cc), uint256(0x0ca7b9adfe5ab02ce2a736b251a7445727bbb4976609c2f64afb79e10c887aa8)) */\n      mload(0x40)\n      dup1\n      0x40\n      add\n      0x40\n      mstore\n      dup1\n        /* \"TP FINAL/verifier.sol\":8188:8254  0x0f712efb483b65815be9b69fcba66737d47b7cbe013e8de2d2165c24b049d9cc */\n      0x0f712efb483b65815be9b69fcba66737d47b7cbe013e8de2d2165c24b049d9cc\n        /* \"TP FINAL/verifier.sol\":8164:8333  Pairing.G1Point(uint256(0x0f712efb483b65815be9b69fcba66737d47b7cbe013e8de2d2165c24b049d9cc), uint256(0x0ca7b9adfe5ab02ce2a736b251a7445727bbb4976609c2f64afb79e10c887aa8)) */\n      dup2\n      mstore\n      0x20\n      add\n        /* \"TP FINAL/verifier.sol\":8265:8331  0x0ca7b9adfe5ab02ce2a736b251a7445727bbb4976609c2f64afb79e10c887aa8 */\n      0x0ca7b9adfe5ab02ce2a736b251a7445727bbb4976609c2f64afb79e10c887aa8\n        /* \"TP FINAL/verifier.sol\":8164:8333  Pairing.G1Point(uint256(0x0f712efb483b65815be9b69fcba66737d47b7cbe013e8de2d2165c24b049d9cc), uint256(0x0ca7b9adfe5ab02ce2a736b251a7445727bbb4976609c2f64afb79e10c887aa8)) */\n      dup2\n      mstore\n      pop\n        /* \"TP FINAL/verifier.sol\":8146:8148  vk */\n      dup2\n        /* \"TP FINAL/verifier.sol\":8146:8158  vk.gamma_abc */\n      0x80\n      add\n      mload\n        /* \"TP FINAL/verifier.sol\":8159:8160  1 */\n      0x01\n        /* \"TP FINAL/verifier.sol\":8146:8161  vk.gamma_abc[1] */\n      dup2\n      mload\n      dup2\n      lt\n      tag_69\n      jumpi\n      tag_70\n      tag_20\n      jump\t// in\n    tag_70:\n    tag_69:\n      0x20\n      mul\n      0x20\n      add\n      add\n        /* \"TP FINAL/verifier.sol\":8146:8333  vk.gamma_abc[1] = Pairing.G1Point(uint256(0x0f712efb483b65815be9b69fcba66737d47b7cbe013e8de2d2165c24b049d9cc), uint256(0x0ca7b9adfe5ab02ce2a736b251a7445727bbb4976609c2f64afb79e10c887aa8)) */\n      dup2\n      swap1\n      mstore\n      pop\n        /* \"TP FINAL/verifier.sol\":8361:8530  Pairing.G1Point(uint256(0x257841b48225a6a393bef459cfbadd860b062e3a4cfcdcd84e1f17a8566b5a2f), uint256(0x1a2651a33495d6fc0cad673183fdf57e17633cad5bb5f498bcec10cfab67cfde)) */\n      mload(0x40)\n      dup1\n      0x40\n      add\n      0x40\n      mstore\n      dup1\n        /* \"TP FINAL/verifier.sol\":8385:8451  0x257841b48225a6a393bef459cfbadd860b062e3a4cfcdcd84e1f17a8566b5a2f */\n      0x257841b48225a6a393bef459cfbadd860b062e3a4cfcdcd84e1f17a8566b5a2f\n        /* \"TP FINAL/verifier.sol\":8361:8530  Pairing.G1Point(uint256(0x257841b48225a6a393bef459cfbadd860b062e3a4cfcdcd84e1f17a8566b5a2f), uint256(0x1a2651a33495d6fc0cad673183fdf57e17633cad5bb5f498bcec10cfab67cfde)) */\n      dup2\n      mstore\n      0x20\n      add\n        /* \"TP FINAL/verifier.sol\":8462:8528  0x1a2651a33495d6fc0cad673183fdf57e17633cad5bb5f498bcec10cfab67cfde */\n      0x1a2651a33495d6fc0cad673183fdf57e17633cad5bb5f498bcec10cfab67cfde\n        /* \"TP FINAL/verifier.sol\":8361:8530  Pairing.G1Point(uint256(0x257841b48225a6a393bef459cfbadd860b062e3a4cfcdcd84e1f17a8566b5a2f), uint256(0x1a2651a33495d6fc0cad673183fdf57e17633cad5bb5f498bcec10cfab67cfde)) */\n      dup2\n      mstore\n      pop\n        /* \"TP FINAL/verifier.sol\":8343:8345  vk */\n      dup2\n        /* \"TP FINAL/verifier.sol\":8343:8355  vk.gamma_abc */\n      0x80\n      add\n      mload\n        /* \"TP FINAL/verifier.sol\":8356:8357  2 */\n      0x02\n        /* \"TP FINAL/verifier.sol\":8343:8358  vk.gamma_abc[2] */\n      dup2\n      mload\n      dup2\n      lt\n      tag_71\n      jumpi\n      tag_72\n      tag_20\n      jump\t// in\n    tag_72:\n    tag_71:\n      0x20\n      mul\n      0x20\n      add\n      add\n        /* \"TP FINAL/verifier.sol\":8343:8530  vk.gamma_abc[2] = Pairing.G1Point(uint256(0x257841b48225a6a393bef459cfbadd860b062e3a4cfcdcd84e1f17a8566b5a2f), uint256(0x1a2651a33495d6fc0cad673183fdf57e17633cad5bb5f498bcec10cfab67cfde)) */\n      dup2\n      swap1\n      mstore\n      pop\n        /* \"TP FINAL/verifier.sol\":8558:8727  Pairing.G1Point(uint256(0x094e3cd70d9e5d64a4d8edabce7da6c82886b83e2f354b11c52fab27889b34a3), uint256(0x2dacdd83d24d55f4a68f7d2b3b93f9cd3211c1d20ab137daa2f400c52339a8fe)) */\n      mload(0x40)\n      dup1\n      0x40\n      add\n      0x40\n      mstore\n      dup1\n        /* \"TP FINAL/verifier.sol\":8582:8648  0x094e3cd70d9e5d64a4d8edabce7da6c82886b83e2f354b11c52fab27889b34a3 */\n      0x094e3cd70d9e5d64a4d8edabce7da6c82886b83e2f354b11c52fab27889b34a3\n        /* \"TP FINAL/verifier.sol\":8558:8727  Pairing.G1Point(uint256(0x094e3cd70d9e5d64a4d8edabce7da6c82886b83e2f354b11c52fab27889b34a3), uint256(0x2dacdd83d24d55f4a68f7d2b3b93f9cd3211c1d20ab137daa2f400c52339a8fe)) */\n      dup2\n      mstore\n      0x20\n      add\n        /* \"TP FINAL/verifier.sol\":8659:8725  0x2dacdd83d24d55f4a68f7d2b3b93f9cd3211c1d20ab137daa2f400c52339a8fe */\n      0x2dacdd83d24d55f4a68f7d2b3b93f9cd3211c1d20ab137daa2f400c52339a8fe\n        /* \"TP FINAL/verifier.sol\":8558:8727  Pairing.G1Point(uint256(0x094e3cd70d9e5d64a4d8edabce7da6c82886b83e2f354b11c52fab27889b34a3), uint256(0x2dacdd83d24d55f4a68f7d2b3b93f9cd3211c1d20ab137daa2f400c52339a8fe)) */\n      dup2\n      mstore\n      pop\n        /* \"TP FINAL/verifier.sol\":8540:8542  vk */\n      dup2\n        /* \"TP FINAL/verifier.sol\":8540:8552  vk.gamma_abc */\n      0x80\n      add\n      mload\n        /* \"TP FINAL/verifier.sol\":8553:8554  3 */\n      0x03\n        /* \"TP FINAL/verifier.sol\":8540:8555  vk.gamma_abc[3] */\n      dup2\n      mload\n      dup2\n      lt\n      tag_73\n      jumpi\n      tag_74\n      tag_20\n      jump\t// in\n    tag_74:\n    tag_73:\n      0x20\n      mul\n      0x20\n      add\n      add\n        /* \"TP FINAL/verifier.sol\":8540:8727  vk.gamma_abc[3] = Pairing.G1Point(uint256(0x094e3cd70d9e5d64a4d8edabce7da6c82886b83e2f354b11c52fab27889b34a3), uint256(0x2dacdd83d24d55f4a68f7d2b3b93f9cd3211c1d20ab137daa2f400c52339a8fe)) */\n      dup2\n      swap1\n      mstore\n      pop\n        /* \"TP FINAL/verifier.sol\":8755:8924  Pairing.G1Point(uint256(0x0d4a741a96da6c76bfaec796252395489e90cfe4433878dca9302fbb46df0226), uint256(0x061594c538bc606f36887a7e1c66ac8a961afaddcc804ad7ffc4b90f0a4c3e06)) */\n      mload(0x40)\n      dup1\n      0x40\n      add\n      0x40\n      mstore\n      dup1\n        /* \"TP FINAL/verifier.sol\":8779:8845  0x0d4a741a96da6c76bfaec796252395489e90cfe4433878dca9302fbb46df0226 */\n      0x0d4a741a96da6c76bfaec796252395489e90cfe4433878dca9302fbb46df0226\n        /* \"TP FINAL/verifier.sol\":8755:8924  Pairing.G1Point(uint256(0x0d4a741a96da6c76bfaec796252395489e90cfe4433878dca9302fbb46df0226), uint256(0x061594c538bc606f36887a7e1c66ac8a961afaddcc804ad7ffc4b90f0a4c3e06)) */\n      dup2\n      mstore\n      0x20\n      add\n        /* \"TP FINAL/verifier.sol\":8856:8922  0x061594c538bc606f36887a7e1c66ac8a961afaddcc804ad7ffc4b90f0a4c3e06 */\n      0x061594c538bc606f36887a7e1c66ac8a961afaddcc804ad7ffc4b90f0a4c3e06\n        /* \"TP FINAL/verifier.sol\":8755:8924  Pairing.G1Point(uint256(0x0d4a741a96da6c76bfaec796252395489e90cfe4433878dca9302fbb46df0226), uint256(0x061594c538bc606f36887a7e1c66ac8a961afaddcc804ad7ffc4b90f0a4c3e06)) */\n      dup2\n      mstore\n      pop\n        /* \"TP FINAL/verifier.sol\":8737:8739  vk */\n      dup2\n        /* \"TP FINAL/verifier.sol\":8737:8749  vk.gamma_abc */\n      0x80\n      add\n      mload\n        /* \"TP FINAL/verifier.sol\":8750:8751  4 */\n      0x04\n        /* \"TP FINAL/verifier.sol\":8737:8752  vk.gamma_abc[4] */\n      dup2\n      mload\n      dup2\n      lt\n      tag_75\n      jumpi\n      tag_76\n      tag_20\n      jump\t// in\n    tag_76:\n    tag_75:\n      0x20\n      mul\n      0x20\n      add\n      add\n        /* \"TP FINAL/verifier.sol\":8737:8924  vk.gamma_abc[4] = Pairing.G1Point(uint256(0x0d4a741a96da6c76bfaec796252395489e90cfe4433878dca9302fbb46df0226), uint256(0x061594c538bc606f36887a7e1c66ac8a961afaddcc804ad7ffc4b90f0a4c3e06)) */\n      dup2\n      swap1\n      mstore\n      pop\n        /* \"TP FINAL/verifier.sol\":8952:9121  Pairing.G1Point(uint256(0x193a0d2b254ffea955d5785440b9207c678aacb1a3f53d9e3e9ca3b686462922), uint256(0x24d34ba9aeb28b477546bfcd799b397b126c2e900cf52fd8d75b613b0f3d0fbd)) */\n      mload(0x40)\n      dup1\n      0x40\n      add\n      0x40\n      mstore\n      dup1\n        /* \"TP FINAL/verifier.sol\":8976:9042  0x193a0d2b254ffea955d5785440b9207c678aacb1a3f53d9e3e9ca3b686462922 */\n      0x193a0d2b254ffea955d5785440b9207c678aacb1a3f53d9e3e9ca3b686462922\n        /* \"TP FINAL/verifier.sol\":8952:9121  Pairing.G1Point(uint256(0x193a0d2b254ffea955d5785440b9207c678aacb1a3f53d9e3e9ca3b686462922), uint256(0x24d34ba9aeb28b477546bfcd799b397b126c2e900cf52fd8d75b613b0f3d0fbd)) */\n      dup2\n      mstore\n      0x20\n      add\n        /* \"TP FINAL/verifier.sol\":9053:9119  0x24d34ba9aeb28b477546bfcd799b397b126c2e900cf52fd8d75b613b0f3d0fbd */\n      0x24d34ba9aeb28b477546bfcd799b397b126c2e900cf52fd8d75b613b0f3d0fbd\n        /* \"TP FINAL/verifier.sol\":8952:9121  Pairing.G1Point(uint256(0x193a0d2b254ffea955d5785440b9207c678aacb1a3f53d9e3e9ca3b686462922), uint256(0x24d34ba9aeb28b477546bfcd799b397b126c2e900cf52fd8d75b613b0f3d0fbd)) */\n      dup2\n      mstore\n      pop\n        /* \"TP FINAL/verifier.sol\":8934:8936  vk */\n      dup2\n        /* \"TP FINAL/verifier.sol\":8934:8946  vk.gamma_abc */\n      0x80\n      add\n      mload\n        /* \"TP FINAL/verifier.sol\":8947:8948  5 */\n      0x05\n        /* \"TP FINAL/verifier.sol\":8934:8949  vk.gamma_abc[5] */\n      dup2\n      mload\n      dup2\n      lt\n      tag_77\n      jumpi\n      tag_78\n      tag_20\n      jump\t// in\n    tag_78:\n    tag_77:\n      0x20\n      mul\n      0x20\n      add\n      add\n        /* \"TP FINAL/verifier.sol\":8934:9121  vk.gamma_abc[5] = Pairing.G1Point(uint256(0x193a0d2b254ffea955d5785440b9207c678aacb1a3f53d9e3e9ca3b686462922), uint256(0x24d34ba9aeb28b477546bfcd799b397b126c2e900cf52fd8d75b613b0f3d0fbd)) */\n      dup2\n      swap1\n      mstore\n      pop\n        /* \"TP FINAL/verifier.sol\":9149:9318  Pairing.G1Point(uint256(0x1444833fd0171d0153fe099b605a3acc2d59e21ab4cf6363f48e3f356a69febd), uint256(0x007b3259fca2e2081506324d1e635984ffa6e96617c3af356b144a9f4f0d2b4f)) */\n      mload(0x40)\n      dup1\n      0x40\n      add\n      0x40\n      mstore\n      dup1\n        /* \"TP FINAL/verifier.sol\":9173:9239  0x1444833fd0171d0153fe099b605a3acc2d59e21ab4cf6363f48e3f356a69febd */\n      0x1444833fd0171d0153fe099b605a3acc2d59e21ab4cf6363f48e3f356a69febd\n        /* \"TP FINAL/verifier.sol\":9149:9318  Pairing.G1Point(uint256(0x1444833fd0171d0153fe099b605a3acc2d59e21ab4cf6363f48e3f356a69febd), uint256(0x007b3259fca2e2081506324d1e635984ffa6e96617c3af356b144a9f4f0d2b4f)) */\n      dup2\n      mstore\n      0x20\n      add\n        /* \"TP FINAL/verifier.sol\":9250:9316  0x007b3259fca2e2081506324d1e635984ffa6e96617c3af356b144a9f4f0d2b4f */\n      0x7b3259fca2e2081506324d1e635984ffa6e96617c3af356b144a9f4f0d2b4f\n        /* \"TP FINAL/verifier.sol\":9149:9318  Pairing.G1Point(uint256(0x1444833fd0171d0153fe099b605a3acc2d59e21ab4cf6363f48e3f356a69febd), uint256(0x007b3259fca2e2081506324d1e635984ffa6e96617c3af356b144a9f4f0d2b4f)) */\n      dup2\n      mstore\n      pop\n        /* \"TP FINAL/verifier.sol\":9131:9133  vk */\n      dup2\n        /* \"TP FINAL/verifier.sol\":9131:9143  vk.gamma_abc */\n      0x80\n      add\n      mload\n        /* \"TP FINAL/verifier.sol\":9144:9145  6 */\n      0x06\n        /* \"TP FINAL/verifier.sol\":9131:9146  vk.gamma_abc[6] */\n      dup2\n      mload\n      dup2\n      lt\n      tag_79\n      jumpi\n      tag_80\n      tag_20\n      jump\t// in\n    tag_80:\n    tag_79:\n      0x20\n      mul\n      0x20\n      add\n      add\n        /* \"TP FINAL/verifier.sol\":9131:9318  vk.gamma_abc[6] = Pairing.G1Point(uint256(0x1444833fd0171d0153fe099b605a3acc2d59e21ab4cf6363f48e3f356a69febd), uint256(0x007b3259fca2e2081506324d1e635984ffa6e96617c3af356b144a9f4f0d2b4f)) */\n      dup2\n      swap1\n      mstore\n      pop\n        /* \"TP FINAL/verifier.sol\":9346:9515  Pairing.G1Point(uint256(0x0754b8b3c860c7a0bade23151b313fb3603fb8ed9ab46870bba02ce6a8947fc6), uint256(0x27aa34fcf45b39af9a1cc47f5f445d38bffb9daaaef0abff7ca0cf5690d3a5bb)) */\n      mload(0x40)\n      dup1\n      0x40\n      add\n      0x40\n      mstore\n      dup1\n        /* \"TP FINAL/verifier.sol\":9370:9436  0x0754b8b3c860c7a0bade23151b313fb3603fb8ed9ab46870bba02ce6a8947fc6 */\n      0x0754b8b3c860c7a0bade23151b313fb3603fb8ed9ab46870bba02ce6a8947fc6\n        /* \"TP FINAL/verifier.sol\":9346:9515  Pairing.G1Point(uint256(0x0754b8b3c860c7a0bade23151b313fb3603fb8ed9ab46870bba02ce6a8947fc6), uint256(0x27aa34fcf45b39af9a1cc47f5f445d38bffb9daaaef0abff7ca0cf5690d3a5bb)) */\n      dup2\n      mstore\n      0x20\n      add\n        /* \"TP FINAL/verifier.sol\":9447:9513  0x27aa34fcf45b39af9a1cc47f5f445d38bffb9daaaef0abff7ca0cf5690d3a5bb */\n      0x27aa34fcf45b39af9a1cc47f5f445d38bffb9daaaef0abff7ca0cf5690d3a5bb\n        /* \"TP FINAL/verifier.sol\":9346:9515  Pairing.G1Point(uint256(0x0754b8b3c860c7a0bade23151b313fb3603fb8ed9ab46870bba02ce6a8947fc6), uint256(0x27aa34fcf45b39af9a1cc47f5f445d38bffb9daaaef0abff7ca0cf5690d3a5bb)) */\n      dup2\n      mstore\n      pop\n        /* \"TP FINAL/verifier.sol\":9328:9330  vk */\n      dup2\n        /* \"TP FINAL/verifier.sol\":9328:9340  vk.gamma_abc */\n      0x80\n      add\n      mload\n        /* \"TP FINAL/verifier.sol\":9341:9342  7 */\n      0x07\n        /* \"TP FINAL/verifier.sol\":9328:9343  vk.gamma_abc[7] */\n      dup2\n      mload\n      dup2\n      lt\n      tag_81\n      jumpi\n      tag_82\n      tag_20\n      jump\t// in\n    tag_82:\n    tag_81:\n      0x20\n      mul\n      0x20\n      add\n      add\n        /* \"TP FINAL/verifier.sol\":9328:9515  vk.gamma_abc[7] = Pairing.G1Point(uint256(0x0754b8b3c860c7a0bade23151b313fb3603fb8ed9ab46870bba02ce6a8947fc6), uint256(0x27aa34fcf45b39af9a1cc47f5f445d38bffb9daaaef0abff7ca0cf5690d3a5bb)) */\n      dup2\n      swap1\n      mstore\n      pop\n        /* \"TP FINAL/verifier.sol\":9543:9712  Pairing.G1Point(uint256(0x0c3a9b3069b87a21366c0747c8dc11116a494115bef45835ad706c3e9263a626), uint256(0x0679d15a217ecd95db26f4c3b63441f3aee0dbd429e658b1d6b8ba11204ad900)) */\n      mload(0x40)\n      dup1\n      0x40\n      add\n      0x40\n      mstore\n      dup1\n        /* \"TP FINAL/verifier.sol\":9567:9633  0x0c3a9b3069b87a21366c0747c8dc11116a494115bef45835ad706c3e9263a626 */\n      0x0c3a9b3069b87a21366c0747c8dc11116a494115bef45835ad706c3e9263a626\n        /* \"TP FINAL/verifier.sol\":9543:9712  Pairing.G1Point(uint256(0x0c3a9b3069b87a21366c0747c8dc11116a494115bef45835ad706c3e9263a626), uint256(0x0679d15a217ecd95db26f4c3b63441f3aee0dbd429e658b1d6b8ba11204ad900)) */\n      dup2\n      mstore\n      0x20\n      add\n        /* \"TP FINAL/verifier.sol\":9644:9710  0x0679d15a217ecd95db26f4c3b63441f3aee0dbd429e658b1d6b8ba11204ad900 */\n      0x0679d15a217ecd95db26f4c3b63441f3aee0dbd429e658b1d6b8ba11204ad900\n        /* \"TP FINAL/verifier.sol\":9543:9712  Pairing.G1Point(uint256(0x0c3a9b3069b87a21366c0747c8dc11116a494115bef45835ad706c3e9263a626), uint256(0x0679d15a217ecd95db26f4c3b63441f3aee0dbd429e658b1d6b8ba11204ad900)) */\n      dup2\n      mstore\n      pop\n        /* \"TP FINAL/verifier.sol\":9525:9527  vk */\n      dup2\n        /* \"TP FINAL/verifier.sol\":9525:9537  vk.gamma_abc */\n      0x80\n      add\n      mload\n        /* \"TP FINAL/verifier.sol\":9538:9539  8 */\n      0x08\n        /* \"TP FINAL/verifier.sol\":9525:9540  vk.gamma_abc[8] */\n      dup2\n      mload\n      dup2\n      lt\n      tag_83\n      jumpi\n      tag_84\n      tag_20\n      jump\t// in\n    tag_84:\n    tag_83:\n      0x20\n      mul\n      0x20\n      add\n      add\n        /* \"TP FINAL/verifier.sol\":9525:9712  vk.gamma_abc[8] = Pairing.G1Point(uint256(0x0c3a9b3069b87a21366c0747c8dc11116a494115bef45835ad706c3e9263a626), uint256(0x0679d15a217ecd95db26f4c3b63441f3aee0dbd429e658b1d6b8ba11204ad900)) */\n      dup2\n      swap1\n      mstore\n      pop\n        /* \"TP FINAL/verifier.sol\":9740:9909  Pairing.G1Point(uint256(0x1bbc2288469bcee3f68e84dee9b37b42d6170e0fe13bae9e9ad7533ef51d0e6b), uint256(0x0b699e3e8f4c9081e4ca6ec357938656e4672743692d8ca6c46c2276ec3beacd)) */\n      mload(0x40)\n      dup1\n      0x40\n      add\n      0x40\n      mstore\n      dup1\n        /* \"TP FINAL/verifier.sol\":9764:9830  0x1bbc2288469bcee3f68e84dee9b37b42d6170e0fe13bae9e9ad7533ef51d0e6b */\n      0x1bbc2288469bcee3f68e84dee9b37b42d6170e0fe13bae9e9ad7533ef51d0e6b\n        /* \"TP FINAL/verifier.sol\":9740:9909  Pairing.G1Point(uint256(0x1bbc2288469bcee3f68e84dee9b37b42d6170e0fe13bae9e9ad7533ef51d0e6b), uint256(0x0b699e3e8f4c9081e4ca6ec357938656e4672743692d8ca6c46c2276ec3beacd)) */\n      dup2\n      mstore\n      0x20\n      add\n        /* \"TP FINAL/verifier.sol\":9841:9907  0x0b699e3e8f4c9081e4ca6ec357938656e4672743692d8ca6c46c2276ec3beacd */\n      0x0b699e3e8f4c9081e4ca6ec357938656e4672743692d8ca6c46c2276ec3beacd\n        /* \"TP FINAL/verifier.sol\":9740:9909  Pairing.G1Point(uint256(0x1bbc2288469bcee3f68e84dee9b37b42d6170e0fe13bae9e9ad7533ef51d0e6b), uint256(0x0b699e3e8f4c9081e4ca6ec357938656e4672743692d8ca6c46c2276ec3beacd)) */\n      dup2\n      mstore\n      pop\n        /* \"TP FINAL/verifier.sol\":9722:9724  vk */\n      dup2\n        /* \"TP FINAL/verifier.sol\":9722:9734  vk.gamma_abc */\n      0x80\n      add\n      mload\n        /* \"TP FINAL/verifier.sol\":9735:9736  9 */\n      0x09\n        /* \"TP FINAL/verifier.sol\":9722:9737  vk.gamma_abc[9] */\n      dup2\n      mload\n      dup2\n      lt\n      tag_85\n      jumpi\n      tag_86\n      tag_20\n      jump\t// in\n    tag_86:\n    tag_85:\n      0x20\n      mul\n      0x20\n      add\n      add\n        /* \"TP FINAL/verifier.sol\":9722:9909  vk.gamma_abc[9] = Pairing.G1Point(uint256(0x1bbc2288469bcee3f68e84dee9b37b42d6170e0fe13bae9e9ad7533ef51d0e6b), uint256(0x0b699e3e8f4c9081e4ca6ec357938656e4672743692d8ca6c46c2276ec3beacd)) */\n      dup2\n      swap1\n      mstore\n      pop\n        /* \"TP FINAL/verifier.sol\":9938:10107  Pairing.G1Point(uint256(0x104f36c1bd12a5ef51ddef228954b3e83aad23ccb1f62ae85a5bcda689574f73), uint256(0x1da183ca55536270a093a0cae171e4460b529d9a4d934aa2b5c560d1012a2403)) */\n      mload(0x40)\n      dup1\n      0x40\n      add\n      0x40\n      mstore\n      dup1\n        /* \"TP FINAL/verifier.sol\":9962:10028  0x104f36c1bd12a5ef51ddef228954b3e83aad23ccb1f62ae85a5bcda689574f73 */\n      0x104f36c1bd12a5ef51ddef228954b3e83aad23ccb1f62ae85a5bcda689574f73\n        /* \"TP FINAL/verifier.sol\":9938:10107  Pairing.G1Point(uint256(0x104f36c1bd12a5ef51ddef228954b3e83aad23ccb1f62ae85a5bcda689574f73), uint256(0x1da183ca55536270a093a0cae171e4460b529d9a4d934aa2b5c560d1012a2403)) */\n      dup2\n      mstore\n      0x20\n      add\n        /* \"TP FINAL/verifier.sol\":10039:10105  0x1da183ca55536270a093a0cae171e4460b529d9a4d934aa2b5c560d1012a2403 */\n      0x1da183ca55536270a093a0cae171e4460b529d9a4d934aa2b5c560d1012a2403\n        /* \"TP FINAL/verifier.sol\":9938:10107  Pairing.G1Point(uint256(0x104f36c1bd12a5ef51ddef228954b3e83aad23ccb1f62ae85a5bcda689574f73), uint256(0x1da183ca55536270a093a0cae171e4460b529d9a4d934aa2b5c560d1012a2403)) */\n      dup2\n      mstore\n      pop\n        /* \"TP FINAL/verifier.sol\":9919:9921  vk */\n      dup2\n        /* \"TP FINAL/verifier.sol\":9919:9931  vk.gamma_abc */\n      0x80\n      add\n      mload\n        /* \"TP FINAL/verifier.sol\":9932:9934  10 */\n      0x0a\n        /* \"TP FINAL/verifier.sol\":9919:9935  vk.gamma_abc[10] */\n      dup2\n      mload\n      dup2\n      lt\n      tag_87\n      jumpi\n      tag_88\n      tag_20\n      jump\t// in\n    tag_88:\n    tag_87:\n      0x20\n      mul\n      0x20\n      add\n      add\n        /* \"TP FINAL/verifier.sol\":9919:10107  vk.gamma_abc[10] = Pairing.G1Point(uint256(0x104f36c1bd12a5ef51ddef228954b3e83aad23ccb1f62ae85a5bcda689574f73), uint256(0x1da183ca55536270a093a0cae171e4460b529d9a4d934aa2b5c560d1012a2403)) */\n      dup2\n      swap1\n      mstore\n      pop\n        /* \"TP FINAL/verifier.sol\":10136:10305  Pairing.G1Point(uint256(0x2ff01214ab73082c36227a00198362112a9b699f3bdb527f2b63ac16894fa44d), uint256(0x2e2ae1c36df72ce92b54f3c43b8271c3c8bf9c6e77f6c52b96c56cf4d0b8bb86)) */\n      mload(0x40)\n      dup1\n      0x40\n      add\n      0x40\n      mstore\n      dup1\n        /* \"TP FINAL/verifier.sol\":10160:10226  0x2ff01214ab73082c36227a00198362112a9b699f3bdb527f2b63ac16894fa44d */\n      0x2ff01214ab73082c36227a00198362112a9b699f3bdb527f2b63ac16894fa44d\n        /* \"TP FINAL/verifier.sol\":10136:10305  Pairing.G1Point(uint256(0x2ff01214ab73082c36227a00198362112a9b699f3bdb527f2b63ac16894fa44d), uint256(0x2e2ae1c36df72ce92b54f3c43b8271c3c8bf9c6e77f6c52b96c56cf4d0b8bb86)) */\n      dup2\n      mstore\n      0x20\n      add\n        /* \"TP FINAL/verifier.sol\":10237:10303  0x2e2ae1c36df72ce92b54f3c43b8271c3c8bf9c6e77f6c52b96c56cf4d0b8bb86 */\n      0x2e2ae1c36df72ce92b54f3c43b8271c3c8bf9c6e77f6c52b96c56cf4d0b8bb86\n        /* \"TP FINAL/verifier.sol\":10136:10305  Pairing.G1Point(uint256(0x2ff01214ab73082c36227a00198362112a9b699f3bdb527f2b63ac16894fa44d), uint256(0x2e2ae1c36df72ce92b54f3c43b8271c3c8bf9c6e77f6c52b96c56cf4d0b8bb86)) */\n      dup2\n      mstore\n      pop\n        /* \"TP FINAL/verifier.sol\":10117:10119  vk */\n      dup2\n        /* \"TP FINAL/verifier.sol\":10117:10129  vk.gamma_abc */\n      0x80\n      add\n      mload\n        /* \"TP FINAL/verifier.sol\":10130:10132  11 */\n      0x0b\n        /* \"TP FINAL/verifier.sol\":10117:10133  vk.gamma_abc[11] */\n      dup2\n      mload\n      dup2\n      lt\n      tag_89\n      jumpi\n      tag_90\n      tag_20\n      jump\t// in\n    tag_90:\n    tag_89:\n      0x20\n      mul\n      0x20\n      add\n      add\n        /* \"TP FINAL/verifier.sol\":10117:10305  vk.gamma_abc[11] = Pairing.G1Point(uint256(0x2ff01214ab73082c36227a00198362112a9b699f3bdb527f2b63ac16894fa44d), uint256(0x2e2ae1c36df72ce92b54f3c43b8271c3c8bf9c6e77f6c52b96c56cf4d0b8bb86)) */\n      dup2\n      swap1\n      mstore\n      pop\n        /* \"TP FINAL/verifier.sol\":10334:10503  Pairing.G1Point(uint256(0x2a7dac41610238196b131c0ab8b9bae8e29516450c1d059a3e55047bc709a7dd), uint256(0x30601d27494f77eb029cc892a1b9bc46adc00de4d115c379d5fb5224dcc05b47)) */\n      mload(0x40)\n      dup1\n      0x40\n      add\n      0x40\n      mstore\n      dup1\n        /* \"TP FINAL/verifier.sol\":10358:10424  0x2a7dac41610238196b131c0ab8b9bae8e29516450c1d059a3e55047bc709a7dd */\n      0x2a7dac41610238196b131c0ab8b9bae8e29516450c1d059a3e55047bc709a7dd\n        /* \"TP FINAL/verifier.sol\":10334:10503  Pairing.G1Point(uint256(0x2a7dac41610238196b131c0ab8b9bae8e29516450c1d059a3e55047bc709a7dd), uint256(0x30601d27494f77eb029cc892a1b9bc46adc00de4d115c379d5fb5224dcc05b47)) */\n      dup2\n      mstore\n      0x20\n      add\n        /* \"TP FINAL/verifier.sol\":10435:10501  0x30601d27494f77eb029cc892a1b9bc46adc00de4d115c379d5fb5224dcc05b47 */\n      0x30601d27494f77eb029cc892a1b9bc46adc00de4d115c379d5fb5224dcc05b47\n        /* \"TP FINAL/verifier.sol\":10334:10503  Pairing.G1Point(uint256(0x2a7dac41610238196b131c0ab8b9bae8e29516450c1d059a3e55047bc709a7dd), uint256(0x30601d27494f77eb029cc892a1b9bc46adc00de4d115c379d5fb5224dcc05b47)) */\n      dup2\n      mstore\n      pop\n        /* \"TP FINAL/verifier.sol\":10315:10317  vk */\n      dup2\n        /* \"TP FINAL/verifier.sol\":10315:10327  vk.gamma_abc */\n      0x80\n      add\n      mload\n        /* \"TP FINAL/verifier.sol\":10328:10330  12 */\n      0x0c\n        /* \"TP FINAL/verifier.sol\":10315:10331  vk.gamma_abc[12] */\n      dup2\n      mload\n      dup2\n      lt\n      tag_91\n      jumpi\n      tag_92\n      tag_20\n      jump\t// in\n    tag_92:\n    tag_91:\n      0x20\n      mul\n      0x20\n      add\n      add\n        /* \"TP FINAL/verifier.sol\":10315:10503  vk.gamma_abc[12] = Pairing.G1Point(uint256(0x2a7dac41610238196b131c0ab8b9bae8e29516450c1d059a3e55047bc709a7dd), uint256(0x30601d27494f77eb029cc892a1b9bc46adc00de4d115c379d5fb5224dcc05b47)) */\n      dup2\n      swap1\n      mstore\n      pop\n        /* \"TP FINAL/verifier.sol\":6585:10510  function verifyingKey() pure internal returns (VerifyingKey memory vk) {... */\n      swap1\n      jump\t// out\n        /* \"TP FINAL/verifier.sol\":3082:3536  function scalar_mul(G1Point memory p, uint s) internal view returns (G1Point memory r) {... */\n    tag_46:\n        /* \"TP FINAL/verifier.sol\":3151:3167  G1Point memory r */\n      tag_93\n      tag_66\n      jump\t// in\n    tag_93:\n        /* \"TP FINAL/verifier.sol\":3179:3199  uint[3] memory input */\n      tag_95\n      tag_96\n      jump\t// in\n    tag_95:\n        /* \"TP FINAL/verifier.sol\":3220:3221  p */\n      dup4\n        /* \"TP FINAL/verifier.sol\":3220:3223  p.X */\n      0x00\n      add\n      mload\n        /* \"TP FINAL/verifier.sol\":3209:3214  input */\n      dup2\n        /* \"TP FINAL/verifier.sol\":3215:3216  0 */\n      0x00\n        /* \"TP FINAL/verifier.sol\":3209:3217  input[0] */\n      0x03\n      dup2\n      lt\n      tag_97\n      jumpi\n      tag_98\n      tag_20\n      jump\t// in\n    tag_98:\n    tag_97:\n      0x20\n      mul\n      add\n        /* \"TP FINAL/verifier.sol\":3209:3223  input[0] = p.X */\n      dup2\n      dup2\n      mstore\n      pop\n      pop\n        /* \"TP FINAL/verifier.sol\":3244:3245  p */\n      dup4\n        /* \"TP FINAL/verifier.sol\":3244:3247  p.Y */\n      0x20\n      add\n      mload\n        /* \"TP FINAL/verifier.sol\":3233:3238  input */\n      dup2\n        /* \"TP FINAL/verifier.sol\":3239:3240  1 */\n      0x01\n        /* \"TP FINAL/verifier.sol\":3233:3241  input[1] */\n      0x03\n      dup2\n      lt\n      tag_99\n      jumpi\n      tag_100\n      tag_20\n      jump\t// in\n    tag_100:\n    tag_99:\n      0x20\n      mul\n      add\n        /* \"TP FINAL/verifier.sol\":3233:3247  input[1] = p.Y */\n      dup2\n      dup2\n      mstore\n      pop\n      pop\n        /* \"TP FINAL/verifier.sol\":3268:3269  s */\n      dup3\n        /* \"TP FINAL/verifier.sol\":3257:3262  input */\n      dup2\n        /* \"TP FINAL/verifier.sol\":3263:3264  2 */\n      0x02\n        /* \"TP FINAL/verifier.sol\":3257:3265  input[2] */\n      0x03\n      dup2\n      lt\n      tag_101\n      jumpi\n      tag_102\n      tag_20\n      jump\t// in\n    tag_102:\n    tag_101:\n      0x20\n      mul\n      add\n        /* \"TP FINAL/verifier.sol\":3257:3269  input[2] = s */\n      dup2\n      dup2\n      mstore\n      pop\n      pop\n        /* \"TP FINAL/verifier.sol\":3279:3291  bool success */\n      0x00\n        /* \"TP FINAL/verifier.sol\":3383:3387  0x60 */\n      0x60\n        /* \"TP FINAL/verifier.sol\":3380:3381  r */\n      dup4\n        /* \"TP FINAL/verifier.sol\":3374:3378  0x80 */\n      0x80\n        /* \"TP FINAL/verifier.sol\":3367:3372  input */\n      dup5\n        /* \"TP FINAL/verifier.sol\":3364:3365  7 */\n      0x07\n        /* \"TP FINAL/verifier.sol\":3357:3361  2000 */\n      0x07d0\n        /* \"TP FINAL/verifier.sol\":3350:3355  gas() */\n      gas\n        /* \"TP FINAL/verifier.sol\":3346:3362  sub(gas(), 2000) */\n      sub\n        /* \"TP FINAL/verifier.sol\":3335:3388  staticcall(sub(gas(), 2000), 7, input, 0x80, r, 0x60) */\n      staticcall\n        /* \"TP FINAL/verifier.sol\":3324:3388  success := staticcall(sub(gas(), 2000), 7, input, 0x80, r, 0x60) */\n      swap1\n      pop\n        /* \"TP FINAL/verifier.sol\":3465:3472  success */\n      dup1\n        /* \"TP FINAL/verifier.sol\":3478:3479  0 */\n      0x00\n        /* \"TP FINAL/verifier.sol\":3473:3493  case 0 { invalid() } */\n      dup2\n      sub\n        /* \"TP FINAL/verifier.sol\":3458:3493  switch success case 0 { invalid() } */\n      tag_103\n        /* \"TP FINAL/verifier.sol\":3473:3493  case 0 { invalid() } */\n      jumpi\n        /* \"TP FINAL/verifier.sol\":3482:3491  invalid() */\n      invalid\n        /* \"TP FINAL/verifier.sol\":3458:3493  switch success case 0 { invalid() } */\n    tag_103:\n      pop\n        /* \"TP FINAL/verifier.sol\":3521:3528  success */\n      dup1\n        /* \"TP FINAL/verifier.sol\":3512:3529  require (success) */\n      tag_105\n      jumpi\n      revert(0x00, 0x00)\n    tag_105:\n        /* \"TP FINAL/verifier.sol\":3169:3536  {... */\n      pop\n      pop\n        /* \"TP FINAL/verifier.sol\":3082:3536  function scalar_mul(G1Point memory p, uint s) internal view returns (G1Point memory r) {... */\n      swap3\n      swap2\n      pop\n      pop\n      jump\t// out\n        /* \"TP FINAL/verifier.sol\":2432:2925  function addition(G1Point memory p1, G1Point memory p2) internal view returns (G1Point memory r) {... */\n    tag_47:\n        /* \"TP FINAL/verifier.sol\":2511:2527  G1Point memory r */\n      tag_106\n      tag_66\n      jump\t// in\n    tag_106:\n        /* \"TP FINAL/verifier.sol\":2539:2559  uint[4] memory input */\n      tag_108\n      tag_109\n      jump\t// in\n    tag_108:\n        /* \"TP FINAL/verifier.sol\":2580:2582  p1 */\n      dup4\n        /* \"TP FINAL/verifier.sol\":2580:2584  p1.X */\n      0x00\n      add\n      mload\n        /* \"TP FINAL/verifier.sol\":2569:2574  input */\n      dup2\n        /* \"TP FINAL/verifier.sol\":2575:2576  0 */\n      0x00\n        /* \"TP FINAL/verifier.sol\":2569:2577  input[0] */\n      0x04\n      dup2\n      lt\n      tag_110\n      jumpi\n      tag_111\n      tag_20\n      jump\t// in\n    tag_111:\n    tag_110:\n      0x20\n      mul\n      add\n        /* \"TP FINAL/verifier.sol\":2569:2584  input[0] = p1.X */\n      dup2\n      dup2\n      mstore\n      pop\n      pop\n        /* \"TP FINAL/verifier.sol\":2605:2607  p1 */\n      dup4\n        /* \"TP FINAL/verifier.sol\":2605:2609  p1.Y */\n      0x20\n      add\n      mload\n        /* \"TP FINAL/verifier.sol\":2594:2599  input */\n      dup2\n        /* \"TP FINAL/verifier.sol\":2600:2601  1 */\n      0x01\n        /* \"TP FINAL/verifier.sol\":2594:2602  input[1] */\n      0x04\n      dup2\n      lt\n      tag_112\n      jumpi\n      tag_113\n      tag_20\n      jump\t// in\n    tag_113:\n    tag_112:\n      0x20\n      mul\n      add\n        /* \"TP FINAL/verifier.sol\":2594:2609  input[1] = p1.Y */\n      dup2\n      dup2\n      mstore\n      pop\n      pop\n        /* \"TP FINAL/verifier.sol\":2630:2632  p2 */\n      dup3\n        /* \"TP FINAL/verifier.sol\":2630:2634  p2.X */\n      0x00\n      add\n      mload\n        /* \"TP FINAL/verifier.sol\":2619:2624  input */\n      dup2\n        /* \"TP FINAL/verifier.sol\":2625:2626  2 */\n      0x02\n        /* \"TP FINAL/verifier.sol\":2619:2627  input[2] */\n      0x04\n      dup2\n      lt\n      tag_114\n      jumpi\n      tag_115\n      tag_20\n      jump\t// in\n    tag_115:\n    tag_114:\n      0x20\n      mul\n      add\n        /* \"TP FINAL/verifier.sol\":2619:2634  input[2] = p2.X */\n      dup2\n      dup2\n      mstore\n      pop\n      pop\n        /* \"TP FINAL/verifier.sol\":2655:2657  p2 */\n      dup3\n        /* \"TP FINAL/verifier.sol\":2655:2659  p2.Y */\n      0x20\n      add\n      mload\n        /* \"TP FINAL/verifier.sol\":2644:2649  input */\n      dup2\n        /* \"TP FINAL/verifier.sol\":2650:2651  3 */\n      0x03\n        /* \"TP FINAL/verifier.sol\":2644:2652  input[3] */\n      0x04\n      dup2\n      lt\n      tag_116\n      jumpi\n      tag_117\n      tag_20\n      jump\t// in\n    tag_117:\n    tag_116:\n      0x20\n      mul\n      add\n        /* \"TP FINAL/verifier.sol\":2644:2659  input[3] = p2.Y */\n      dup2\n      dup2\n      mstore\n      pop\n      pop\n        /* \"TP FINAL/verifier.sol\":2669:2681  bool success */\n      0x00\n        /* \"TP FINAL/verifier.sol\":2773:2777  0x60 */\n      0x60\n        /* \"TP FINAL/verifier.sol\":2770:2771  r */\n      dup4\n        /* \"TP FINAL/verifier.sol\":2764:2768  0xc0 */\n      0xc0\n        /* \"TP FINAL/verifier.sol\":2757:2762  input */\n      dup5\n        /* \"TP FINAL/verifier.sol\":2754:2755  6 */\n      0x06\n        /* \"TP FINAL/verifier.sol\":2747:2751  2000 */\n      0x07d0\n        /* \"TP FINAL/verifier.sol\":2740:2745  gas() */\n      gas\n        /* \"TP FINAL/verifier.sol\":2736:2752  sub(gas(), 2000) */\n      sub\n        /* \"TP FINAL/verifier.sol\":2725:2778  staticcall(sub(gas(), 2000), 6, input, 0xc0, r, 0x60) */\n      staticcall\n        /* \"TP FINAL/verifier.sol\":2714:2778  success := staticcall(sub(gas(), 2000), 6, input, 0xc0, r, 0x60) */\n      swap1\n      pop\n        /* \"TP FINAL/verifier.sol\":2855:2862  success */\n      dup1\n        /* \"TP FINAL/verifier.sol\":2868:2869  0 */\n      0x00\n        /* \"TP FINAL/verifier.sol\":2863:2883  case 0 { invalid() } */\n      dup2\n      sub\n        /* \"TP FINAL/verifier.sol\":2848:2883  switch success case 0 { invalid() } */\n      tag_118\n        /* \"TP FINAL/verifier.sol\":2863:2883  case 0 { invalid() } */\n      jumpi\n        /* \"TP FINAL/verifier.sol\":2872:2881  invalid() */\n      invalid\n        /* \"TP FINAL/verifier.sol\":2848:2883  switch success case 0 { invalid() } */\n    tag_118:\n      pop\n        /* \"TP FINAL/verifier.sol\":2910:2917  success */\n      dup1\n        /* \"TP FINAL/verifier.sol\":2902:2918  require(success) */\n      tag_120\n      jumpi\n      revert(0x00, 0x00)\n    tag_120:\n        /* \"TP FINAL/verifier.sol\":2529:2925  {... */\n      pop\n      pop\n        /* \"TP FINAL/verifier.sol\":2432:2925  function addition(G1Point memory p1, G1Point memory p2) internal view returns (G1Point memory r) {... */\n      swap3\n      swap2\n      pop\n      pop\n      jump\t// out\n        /* \"TP FINAL/verifier.sol\":2041:2381  function negate(G1Point memory p) pure internal returns (G1Point memory) {... */\n    tag_53:\n        /* \"TP FINAL/verifier.sol\":2098:2112  G1Point memory */\n      tag_121\n      tag_66\n      jump\t// in\n    tag_121:\n        /* \"TP FINAL/verifier.sol\":2176:2182  uint q */\n      0x00\n        /* \"TP FINAL/verifier.sol\":2185:2262  21888242871839275222246405745257275088696311157297823662689037894645226208583 */\n      0x30644e72e131a029b85045b68181585d97816a916871ca8d3c208c16d87cfd47\n        /* \"TP FINAL/verifier.sol\":2176:2262  uint q = 21888242871839275222246405745257275088696311157297823662689037894645226208583 */\n      swap1\n      pop\n        /* \"TP FINAL/verifier.sol\":2283:2284  0 */\n      0x00\n        /* \"TP FINAL/verifier.sol\":2276:2277  p */\n      dup4\n        /* \"TP FINAL/verifier.sol\":2276:2279  p.X */\n      0x00\n      add\n      mload\n        /* \"TP FINAL/verifier.sol\":2276:2284  p.X == 0 */\n      eq\n        /* \"TP FINAL/verifier.sol\":2276:2296  p.X == 0 && p.Y == 0 */\n      dup1\n      iszero\n      tag_123\n      jumpi\n      pop\n        /* \"TP FINAL/verifier.sol\":2295:2296  0 */\n      0x00\n        /* \"TP FINAL/verifier.sol\":2288:2289  p */\n      dup4\n        /* \"TP FINAL/verifier.sol\":2288:2291  p.Y */\n      0x20\n      add\n      mload\n        /* \"TP FINAL/verifier.sol\":2288:2296  p.Y == 0 */\n      eq\n        /* \"TP FINAL/verifier.sol\":2276:2296  p.X == 0 && p.Y == 0 */\n    tag_123:\n        /* \"TP FINAL/verifier.sol\":2272:2330  if (p.X == 0 && p.Y == 0)... */\n      iszero\n      tag_124\n      jumpi\n        /* \"TP FINAL/verifier.sol\":2317:2330  G1Point(0, 0) */\n      mload(0x40)\n      dup1\n      0x40\n      add\n      0x40\n      mstore\n      dup1\n        /* \"TP FINAL/verifier.sol\":2325:2326  0 */\n      0x00\n        /* \"TP FINAL/verifier.sol\":2317:2330  G1Point(0, 0) */\n      dup2\n      mstore\n      0x20\n      add\n        /* \"TP FINAL/verifier.sol\":2328:2329  0 */\n      0x00\n        /* \"TP FINAL/verifier.sol\":2317:2330  G1Point(0, 0) */\n      dup2\n      mstore\n      pop\n        /* \"TP FINAL/verifier.sol\":2310:2330  return G1Point(0, 0) */\n      swap2\n      pop\n      pop\n      jump(tag_122)\n        /* \"TP FINAL/verifier.sol\":2272:2330  if (p.X == 0 && p.Y == 0)... */\n    tag_124:\n        /* \"TP FINAL/verifier.sol\":2347:2374  G1Point(p.X, q - (p.Y % q)) */\n      mload(0x40)\n      dup1\n      0x40\n      add\n      0x40\n      mstore\n      dup1\n        /* \"TP FINAL/verifier.sol\":2355:2356  p */\n      dup5\n        /* \"TP FINAL/verifier.sol\":2355:2358  p.X */\n      0x00\n      add\n      mload\n        /* \"TP FINAL/verifier.sol\":2347:2374  G1Point(p.X, q - (p.Y % q)) */\n      dup2\n      mstore\n      0x20\n      add\n        /* \"TP FINAL/verifier.sol\":2371:2372  q */\n      dup3\n        /* \"TP FINAL/verifier.sol\":2365:2366  p */\n      dup6\n        /* \"TP FINAL/verifier.sol\":2365:2368  p.Y */\n      0x20\n      add\n      mload\n        /* \"TP FINAL/verifier.sol\":2365:2372  p.Y % q */\n      tag_125\n      swap2\n      swap1\n      tag_126\n      jump\t// in\n    tag_125:\n        /* \"TP FINAL/verifier.sol\":2360:2361  q */\n      dup4\n        /* \"TP FINAL/verifier.sol\":2360:2373  q - (p.Y % q) */\n      tag_127\n      swap2\n      swap1\n      tag_128\n      jump\t// in\n    tag_127:\n        /* \"TP FINAL/verifier.sol\":2347:2374  G1Point(p.X, q - (p.Y % q)) */\n      dup2\n      mstore\n      pop\n        /* \"TP FINAL/verifier.sol\":2340:2374  return G1Point(p.X, q - (p.Y % q)) */\n      swap2\n      pop\n      pop\n        /* \"TP FINAL/verifier.sol\":2041:2381  function negate(G1Point memory p) pure internal returns (G1Point memory) {... */\n    tag_122:\n      swap2\n      swap1\n      pop\n      jump\t// out\n        /* \"TP FINAL/verifier.sol\":5678:6230  function pairingProd4(... */\n    tag_56:\n        /* \"TP FINAL/verifier.sol\":5929:5933  bool */\n      0x00\n        /* \"TP FINAL/verifier.sol\":5945:5964  G1Point[] memory p1 */\n      0x00\n        /* \"TP FINAL/verifier.sol\":5981:5982  4 */\n      0x04\n        /* \"TP FINAL/verifier.sol\":5967:5983  new G1Point[](4) */\n      0xffffffffffffffff\n      dup2\n      gt\n      iszero\n      tag_130\n      jumpi\n      tag_131\n      tag_13\n      jump\t// in\n    tag_131:\n    tag_130:\n      mload(0x40)\n      swap1\n      dup1\n      dup3\n      mstore\n      dup1\n      0x20\n      mul\n      0x20\n      add\n      dup3\n      add\n      0x40\n      mstore\n      dup1\n      iszero\n      tag_132\n      jumpi\n      dup2\n      0x20\n      add\n    tag_133:\n      tag_134\n      tag_66\n      jump\t// in\n    tag_134:\n      dup2\n      mstore\n      0x20\n      add\n      swap1\n      0x01\n      swap1\n      sub\n      swap1\n      dup2\n      tag_133\n      jumpi\n      swap1\n      pop\n    tag_132:\n      pop\n        /* \"TP FINAL/verifier.sol\":5945:5983  G1Point[] memory p1 = new G1Point[](4) */\n      swap1\n      pop\n        /* \"TP FINAL/verifier.sol\":5993:6012  G2Point[] memory p2 */\n      0x00\n        /* \"TP FINAL/verifier.sol\":6029:6030  4 */\n      0x04\n        /* \"TP FINAL/verifier.sol\":6015:6031  new G2Point[](4) */\n      0xffffffffffffffff\n      dup2\n      gt\n      iszero\n      tag_135\n      jumpi\n      tag_136\n      tag_13\n      jump\t// in\n    tag_136:\n    tag_135:\n      mload(0x40)\n      swap1\n      dup1\n      dup3\n      mstore\n      dup1\n      0x20\n      mul\n      0x20\n      add\n      dup3\n      add\n      0x40\n      mstore\n      dup1\n      iszero\n      tag_137\n      jumpi\n      dup2\n      0x20\n      add\n    tag_138:\n      tag_139\n      tag_140\n      jump\t// in\n    tag_139:\n      dup2\n      mstore\n      0x20\n      add\n      swap1\n      0x01\n      swap1\n      sub\n      swap1\n      dup2\n      tag_138\n      jumpi\n      swap1\n      pop\n    tag_137:\n      pop\n        /* \"TP FINAL/verifier.sol\":5993:6031  G2Point[] memory p2 = new G2Point[](4) */\n      swap1\n      pop\n        /* \"TP FINAL/verifier.sol\":6049:6051  a1 */\n      dup11\n        /* \"TP FINAL/verifier.sol\":6041:6043  p1 */\n      dup3\n        /* \"TP FINAL/verifier.sol\":6044:6045  0 */\n      0x00\n        /* \"TP FINAL/verifier.sol\":6041:6046  p1[0] */\n      dup2\n      mload\n      dup2\n      lt\n      tag_141\n      jumpi\n      tag_142\n      tag_20\n      jump\t// in\n    tag_142:\n    tag_141:\n      0x20\n      mul\n      0x20\n      add\n      add\n        /* \"TP FINAL/verifier.sol\":6041:6051  p1[0] = a1 */\n      dup2\n      swap1\n      mstore\n      pop\n        /* \"TP FINAL/verifier.sol\":6069:6071  b1 */\n      dup9\n        /* \"TP FINAL/verifier.sol\":6061:6063  p1 */\n      dup3\n        /* \"TP FINAL/verifier.sol\":6064:6065  1 */\n      0x01\n        /* \"TP FINAL/verifier.sol\":6061:6066  p1[1] */\n      dup2\n      mload\n      dup2\n      lt\n      tag_143\n      jumpi\n      tag_144\n      tag_20\n      jump\t// in\n    tag_144:\n    tag_143:\n      0x20\n      mul\n      0x20\n      add\n      add\n        /* \"TP FINAL/verifier.sol\":6061:6071  p1[1] = b1 */\n      dup2\n      swap1\n      mstore\n      pop\n        /* \"TP FINAL/verifier.sol\":6089:6091  c1 */\n      dup7\n        /* \"TP FINAL/verifier.sol\":6081:6083  p1 */\n      dup3\n        /* \"TP FINAL/verifier.sol\":6084:6085  2 */\n      0x02\n        /* \"TP FINAL/verifier.sol\":6081:6086  p1[2] */\n      dup2\n      mload\n      dup2\n      lt\n      tag_145\n      jumpi\n      tag_146\n      tag_20\n      jump\t// in\n    tag_146:\n    tag_145:\n      0x20\n      mul\n      0x20\n      add\n      add\n        /* \"TP FINAL/verifier.sol\":6081:6091  p1[2] = c1 */\n      dup2\n      swap1\n      mstore\n      pop\n        /* \"TP FINAL/verifier.sol\":6109:6111  d1 */\n      dup5\n        /* \"TP FINAL/verifier.sol\":6101:6103  p1 */\n      dup3\n        /* \"TP FINAL/verifier.sol\":6104:6105  3 */\n      0x03\n        /* \"TP FINAL/verifier.sol\":6101:6106  p1[3] */\n      dup2\n      mload\n      dup2\n      lt\n      tag_147\n      jumpi\n      tag_148\n      tag_20\n      jump\t// in\n    tag_148:\n    tag_147:\n      0x20\n      mul\n      0x20\n      add\n      add\n        /* \"TP FINAL/verifier.sol\":6101:6111  p1[3] = d1 */\n      dup2\n      swap1\n      mstore\n      pop\n        /* \"TP FINAL/verifier.sol\":6129:6131  a2 */\n      dup10\n        /* \"TP FINAL/verifier.sol\":6121:6123  p2 */\n      dup2\n        /* \"TP FINAL/verifier.sol\":6124:6125  0 */\n      0x00\n        /* \"TP FINAL/verifier.sol\":6121:6126  p2[0] */\n      dup2\n      mload\n      dup2\n      lt\n      tag_149\n      jumpi\n      tag_150\n      tag_20\n      jump\t// in\n    tag_150:\n    tag_149:\n      0x20\n      mul\n      0x20\n      add\n      add\n        /* \"TP FINAL/verifier.sol\":6121:6131  p2[0] = a2 */\n      dup2\n      swap1\n      mstore\n      pop\n        /* \"TP FINAL/verifier.sol\":6149:6151  b2 */\n      dup8\n        /* \"TP FINAL/verifier.sol\":6141:6143  p2 */\n      dup2\n        /* \"TP FINAL/verifier.sol\":6144:6145  1 */\n      0x01\n        /* \"TP FINAL/verifier.sol\":6141:6146  p2[1] */\n      dup2\n      mload\n      dup2\n      lt\n      tag_151\n      jumpi\n      tag_152\n      tag_20\n      jump\t// in\n    tag_152:\n    tag_151:\n      0x20\n      mul\n      0x20\n      add\n      add\n        /* \"TP FINAL/verifier.sol\":6141:6151  p2[1] = b2 */\n      dup2\n      swap1\n      mstore\n      pop\n        /* \"TP FINAL/verifier.sol\":6169:6171  c2 */\n      dup6\n        /* \"TP FINAL/verifier.sol\":6161:6163  p2 */\n      dup2\n        /* \"TP FINAL/verifier.sol\":6164:6165  2 */\n      0x02\n        /* \"TP FINAL/verifier.sol\":6161:6166  p2[2] */\n      dup2\n      mload\n      dup2\n      lt\n      tag_153\n      jumpi\n      tag_154\n      tag_20\n      jump\t// in\n    tag_154:\n    tag_153:\n      0x20\n      mul\n      0x20\n      add\n      add\n        /* \"TP FINAL/verifier.sol\":6161:6171  p2[2] = c2 */\n      dup2\n      swap1\n      mstore\n      pop\n        /* \"TP FINAL/verifier.sol\":6189:6191  d2 */\n      dup4\n        /* \"TP FINAL/verifier.sol\":6181:6183  p2 */\n      dup2\n        /* \"TP FINAL/verifier.sol\":6184:6185  3 */\n      0x03\n        /* \"TP FINAL/verifier.sol\":6181:6186  p2[3] */\n      dup2\n      mload\n      dup2\n      lt\n      tag_155\n      jumpi\n      tag_156\n      tag_20\n      jump\t// in\n    tag_156:\n    tag_155:\n      0x20\n      mul\n      0x20\n      add\n      add\n        /* \"TP FINAL/verifier.sol\":6181:6191  p2[3] = d2 */\n      dup2\n      swap1\n      mstore\n      pop\n        /* \"TP FINAL/verifier.sol\":6208:6223  pairing(p1, p2) */\n      tag_157\n        /* \"TP FINAL/verifier.sol\":6216:6218  p1 */\n      dup3\n        /* \"TP FINAL/verifier.sol\":6220:6222  p2 */\n      dup3\n        /* \"TP FINAL/verifier.sol\":6208:6215  pairing */\n      tag_158\n        /* \"TP FINAL/verifier.sol\":6208:6223  pairing(p1, p2) */\n      jump\t// in\n    tag_157:\n        /* \"TP FINAL/verifier.sol\":6201:6223  return pairing(p1, p2) */\n      swap3\n      pop\n      pop\n      pop\n        /* \"TP FINAL/verifier.sol\":5678:6230  function pairingProd4(... */\n      swap9\n      swap8\n      pop\n      pop\n      pop\n      pop\n      pop\n      pop\n      pop\n      pop\n      jump\t// out\n        /* \"TP FINAL/verifier.sol\":3747:4670  function pairing(G1Point[] memory p1, G2Point[] memory p2) internal view returns (bool) {... */\n    tag_158:\n        /* \"TP FINAL/verifier.sol\":3829:3833  bool */\n      0x00\n        /* \"TP FINAL/verifier.sol\":3866:3868  p2 */\n      dup2\n        /* \"TP FINAL/verifier.sol\":3866:3875  p2.length */\n      mload\n        /* \"TP FINAL/verifier.sol\":3853:3855  p1 */\n      dup4\n        /* \"TP FINAL/verifier.sol\":3853:3862  p1.length */\n      mload\n        /* \"TP FINAL/verifier.sol\":3853:3875  p1.length == p2.length */\n      eq\n        /* \"TP FINAL/verifier.sol\":3845:3876  require(p1.length == p2.length) */\n      tag_160\n      jumpi\n      revert(0x00, 0x00)\n    tag_160:\n        /* \"TP FINAL/verifier.sol\":3886:3899  uint elements */\n      0x00\n        /* \"TP FINAL/verifier.sol\":3902:3904  p1 */\n      dup4\n        /* \"TP FINAL/verifier.sol\":3902:3911  p1.length */\n      mload\n        /* \"TP FINAL/verifier.sol\":3886:3911  uint elements = p1.length */\n      swap1\n      pop\n        /* \"TP FINAL/verifier.sol\":3921:3935  uint inputSize */\n      0x00\n        /* \"TP FINAL/verifier.sol\":3949:3950  6 */\n      0x06\n        /* \"TP FINAL/verifier.sol\":3938:3946  elements */\n      dup3\n        /* \"TP FINAL/verifier.sol\":3938:3950  elements * 6 */\n      tag_161\n      swap2\n      swap1\n      tag_162\n      jump\t// in\n    tag_161:\n        /* \"TP FINAL/verifier.sol\":3921:3950  uint inputSize = elements * 6 */\n      swap1\n      pop\n        /* \"TP FINAL/verifier.sol\":3960:3979  uint[] memory input */\n      0x00\n        /* \"TP FINAL/verifier.sol\":3993:4002  inputSize */\n      dup2\n        /* \"TP FINAL/verifier.sol\":3982:4003  new uint[](inputSize) */\n      0xffffffffffffffff\n      dup2\n      gt\n      iszero\n      tag_163\n      jumpi\n      tag_164\n      tag_13\n      jump\t// in\n    tag_164:\n    tag_163:\n      mload(0x40)\n      swap1\n      dup1\n      dup3\n      mstore\n      dup1\n      0x20\n      mul\n      0x20\n      add\n      dup3\n      add\n      0x40\n      mstore\n      dup1\n      iszero\n      tag_165\n      jumpi\n      dup2\n      0x20\n      add\n      0x20\n      dup3\n      mul\n      dup1\n      calldatasize\n      dup4\n      calldatacopy\n      dup1\n      dup3\n      add\n      swap2\n      pop\n      pop\n      swap1\n      pop\n    tag_165:\n      pop\n        /* \"TP FINAL/verifier.sol\":3960:4003  uint[] memory input = new uint[](inputSize) */\n      swap1\n      pop\n        /* \"TP FINAL/verifier.sol\":4018:4024  uint i */\n      0x00\n        /* \"TP FINAL/verifier.sol\":4027:4028  0 */\n      0x00\n        /* \"TP FINAL/verifier.sol\":4018:4028  uint i = 0 */\n      swap1\n      pop\n        /* \"TP FINAL/verifier.sol\":4013:4320  for (uint i = 0; i < elements; i++)... */\n    tag_166:\n        /* \"TP FINAL/verifier.sol\":4034:4042  elements */\n      dup4\n        /* \"TP FINAL/verifier.sol\":4030:4031  i */\n      dup2\n        /* \"TP FINAL/verifier.sol\":4030:4042  i < elements */\n      lt\n        /* \"TP FINAL/verifier.sol\":4013:4320  for (uint i = 0; i < elements; i++)... */\n      iszero\n      tag_167\n      jumpi\n        /* \"TP FINAL/verifier.sol\":4090:4092  p1 */\n      dup7\n        /* \"TP FINAL/verifier.sol\":4093:4094  i */\n      dup2\n        /* \"TP FINAL/verifier.sol\":4090:4095  p1[i] */\n      dup2\n      mload\n      dup2\n      lt\n      tag_169\n      jumpi\n      tag_170\n      tag_20\n      jump\t// in\n    tag_170:\n    tag_169:\n      0x20\n      mul\n      0x20\n      add\n      add\n      mload\n        /* \"TP FINAL/verifier.sol\":4090:4097  p1[i].X */\n      0x00\n      add\n      mload\n        /* \"TP FINAL/verifier.sol\":4071:4076  input */\n      dup3\n        /* \"TP FINAL/verifier.sol\":4085:4086  0 */\n      0x00\n        /* \"TP FINAL/verifier.sol\":4081:4082  6 */\n      0x06\n        /* \"TP FINAL/verifier.sol\":4077:4078  i */\n      dup5\n        /* \"TP FINAL/verifier.sol\":4077:4082  i * 6 */\n      tag_171\n      swap2\n      swap1\n      tag_162\n      jump\t// in\n    tag_171:\n        /* \"TP FINAL/verifier.sol\":4077:4086  i * 6 + 0 */\n      tag_172\n      swap2\n      swap1\n      tag_31\n      jump\t// in\n    tag_172:\n        /* \"TP FINAL/verifier.sol\":4071:4087  input[i * 6 + 0] */\n      dup2\n      mload\n      dup2\n      lt\n      tag_173\n      jumpi\n      tag_174\n      tag_20\n      jump\t// in\n    tag_174:\n    tag_173:\n      0x20\n      mul\n      0x20\n      add\n      add\n        /* \"TP FINAL/verifier.sol\":4071:4097  input[i * 6 + 0] = p1[i].X */\n      dup2\n      dup2\n      mstore\n      pop\n      pop\n        /* \"TP FINAL/verifier.sol\":4130:4132  p1 */\n      dup7\n        /* \"TP FINAL/verifier.sol\":4133:4134  i */\n      dup2\n        /* \"TP FINAL/verifier.sol\":4130:4135  p1[i] */\n      dup2\n      mload\n      dup2\n      lt\n      tag_175\n      jumpi\n      tag_176\n      tag_20\n      jump\t// in\n    tag_176:\n    tag_175:\n      0x20\n      mul\n      0x20\n      add\n      add\n      mload\n        /* \"TP FINAL/verifier.sol\":4130:4137  p1[i].Y */\n      0x20\n      add\n      mload\n        /* \"TP FINAL/verifier.sol\":4111:4116  input */\n      dup3\n        /* \"TP FINAL/verifier.sol\":4125:4126  1 */\n      0x01\n        /* \"TP FINAL/verifier.sol\":4121:4122  6 */\n      0x06\n        /* \"TP FINAL/verifier.sol\":4117:4118  i */\n      dup5\n        /* \"TP FINAL/verifier.sol\":4117:4122  i * 6 */\n      tag_177\n      swap2\n      swap1\n      tag_162\n      jump\t// in\n    tag_177:\n        /* \"TP FINAL/verifier.sol\":4117:4126  i * 6 + 1 */\n      tag_178\n      swap2\n      swap1\n      tag_31\n      jump\t// in\n    tag_178:\n        /* \"TP FINAL/verifier.sol\":4111:4127  input[i * 6 + 1] */\n      dup2\n      mload\n      dup2\n      lt\n      tag_179\n      jumpi\n      tag_180\n      tag_20\n      jump\t// in\n    tag_180:\n    tag_179:\n      0x20\n      mul\n      0x20\n      add\n      add\n        /* \"TP FINAL/verifier.sol\":4111:4137  input[i * 6 + 1] = p1[i].Y */\n      dup2\n      dup2\n      mstore\n      pop\n      pop\n        /* \"TP FINAL/verifier.sol\":4170:4172  p2 */\n      dup6\n        /* \"TP FINAL/verifier.sol\":4173:4174  i */\n      dup2\n        /* \"TP FINAL/verifier.sol\":4170:4175  p2[i] */\n      dup2\n      mload\n      dup2\n      lt\n      tag_181\n      jumpi\n      tag_182\n      tag_20\n      jump\t// in\n    tag_182:\n    tag_181:\n      0x20\n      mul\n      0x20\n      add\n      add\n      mload\n        /* \"TP FINAL/verifier.sol\":4170:4177  p2[i].X */\n      0x00\n      add\n      mload\n        /* \"TP FINAL/verifier.sol\":4178:4179  1 */\n      0x01\n        /* \"TP FINAL/verifier.sol\":4170:4180  p2[i].X[1] */\n      0x02\n      dup2\n      lt\n      tag_183\n      jumpi\n      tag_184\n      tag_20\n      jump\t// in\n    tag_184:\n    tag_183:\n      0x20\n      mul\n      add\n      mload\n        /* \"TP FINAL/verifier.sol\":4151:4156  input */\n      dup3\n        /* \"TP FINAL/verifier.sol\":4165:4166  2 */\n      0x02\n        /* \"TP FINAL/verifier.sol\":4161:4162  6 */\n      0x06\n        /* \"TP FINAL/verifier.sol\":4157:4158  i */\n      dup5\n        /* \"TP FINAL/verifier.sol\":4157:4162  i * 6 */\n      tag_185\n      swap2\n      swap1\n      tag_162\n      jump\t// in\n    tag_185:\n        /* \"TP FINAL/verifier.sol\":4157:4166  i * 6 + 2 */\n      tag_186\n      swap2\n      swap1\n      tag_31\n      jump\t// in\n    tag_186:\n        /* \"TP FINAL/verifier.sol\":4151:4167  input[i * 6 + 2] */\n      dup2\n      mload\n      dup2\n      lt\n      tag_187\n      jumpi\n      tag_188\n      tag_20\n      jump\t// in\n    tag_188:\n    tag_187:\n      0x20\n      mul\n      0x20\n      add\n      add\n        /* \"TP FINAL/verifier.sol\":4151:4180  input[i * 6 + 2] = p2[i].X[1] */\n      dup2\n      dup2\n      mstore\n      pop\n      pop\n        /* \"TP FINAL/verifier.sol\":4213:4215  p2 */\n      dup6\n        /* \"TP FINAL/verifier.sol\":4216:4217  i */\n      dup2\n        /* \"TP FINAL/verifier.sol\":4213:4218  p2[i] */\n      dup2\n      mload\n      dup2\n      lt\n      tag_189\n      jumpi\n      tag_190\n      tag_20\n      jump\t// in\n    tag_190:\n    tag_189:\n      0x20\n      mul\n      0x20\n      add\n      add\n      mload\n        /* \"TP FINAL/verifier.sol\":4213:4220  p2[i].X */\n      0x00\n      add\n      mload\n        /* \"TP FINAL/verifier.sol\":4221:4222  0 */\n      0x00\n        /* \"TP FINAL/verifier.sol\":4213:4223  p2[i].X[0] */\n      0x02\n      dup2\n      lt\n      tag_191\n      jumpi\n      tag_192\n      tag_20\n      jump\t// in\n    tag_192:\n    tag_191:\n      0x20\n      mul\n      add\n      mload\n        /* \"TP FINAL/verifier.sol\":4194:4199  input */\n      dup3\n        /* \"TP FINAL/verifier.sol\":4208:4209  3 */\n      0x03\n        /* \"TP FINAL/verifier.sol\":4204:4205  6 */\n      0x06\n        /* \"TP FINAL/verifier.sol\":4200:4201  i */\n      dup5\n        /* \"TP FINAL/verifier.sol\":4200:4205  i * 6 */\n      tag_193\n      swap2\n      swap1\n      tag_162\n      jump\t// in\n    tag_193:\n        /* \"TP FINAL/verifier.sol\":4200:4209  i * 6 + 3 */\n      tag_194\n      swap2\n      swap1\n      tag_31\n      jump\t// in\n    tag_194:\n        /* \"TP FINAL/verifier.sol\":4194:4210  input[i * 6 + 3] */\n      dup2\n      mload\n      dup2\n      lt\n      tag_195\n      jumpi\n      tag_196\n      tag_20\n      jump\t// in\n    tag_196:\n    tag_195:\n      0x20\n      mul\n      0x20\n      add\n      add\n        /* \"TP FINAL/verifier.sol\":4194:4223  input[i * 6 + 3] = p2[i].X[0] */\n      dup2\n      dup2\n      mstore\n      pop\n      pop\n        /* \"TP FINAL/verifier.sol\":4256:4258  p2 */\n      dup6\n        /* \"TP FINAL/verifier.sol\":4259:4260  i */\n      dup2\n        /* \"TP FINAL/verifier.sol\":4256:4261  p2[i] */\n      dup2\n      mload\n      dup2\n      lt\n      tag_197\n      jumpi\n      tag_198\n      tag_20\n      jump\t// in\n    tag_198:\n    tag_197:\n      0x20\n      mul\n      0x20\n      add\n      add\n      mload\n        /* \"TP FINAL/verifier.sol\":4256:4263  p2[i].Y */\n      0x20\n      add\n      mload\n        /* \"TP FINAL/verifier.sol\":4264:4265  1 */\n      0x01\n        /* \"TP FINAL/verifier.sol\":4256:4266  p2[i].Y[1] */\n      0x02\n      dup2\n      lt\n      tag_199\n      jumpi\n      tag_200\n      tag_20\n      jump\t// in\n    tag_200:\n    tag_199:\n      0x20\n      mul\n      add\n      mload\n        /* \"TP FINAL/verifier.sol\":4237:4242  input */\n      dup3\n        /* \"TP FINAL/verifier.sol\":4251:4252  4 */\n      0x04\n        /* \"TP FINAL/verifier.sol\":4247:4248  6 */\n      0x06\n        /* \"TP FINAL/verifier.sol\":4243:4244  i */\n      dup5\n        /* \"TP FINAL/verifier.sol\":4243:4248  i * 6 */\n      tag_201\n      swap2\n      swap1\n      tag_162\n      jump\t// in\n    tag_201:\n        /* \"TP FINAL/verifier.sol\":4243:4252  i * 6 + 4 */\n      tag_202\n      swap2\n      swap1\n      tag_31\n      jump\t// in\n    tag_202:\n        /* \"TP FINAL/verifier.sol\":4237:4253  input[i * 6 + 4] */\n      dup2\n      mload\n      dup2\n      lt\n      tag_203\n      jumpi\n      tag_204\n      tag_20\n      jump\t// in\n    tag_204:\n    tag_203:\n      0x20\n      mul\n      0x20\n      add\n      add\n        /* \"TP FINAL/verifier.sol\":4237:4266  input[i * 6 + 4] = p2[i].Y[1] */\n      dup2\n      dup2\n      mstore\n      pop\n      pop\n        /* \"TP FINAL/verifier.sol\":4299:4301  p2 */\n      dup6\n        /* \"TP FINAL/verifier.sol\":4302:4303  i */\n      dup2\n        /* \"TP FINAL/verifier.sol\":4299:4304  p2[i] */\n      dup2\n      mload\n      dup2\n      lt\n      tag_205\n      jumpi\n      tag_206\n      tag_20\n      jump\t// in\n    tag_206:\n    tag_205:\n      0x20\n      mul\n      0x20\n      add\n      add\n      mload\n        /* \"TP FINAL/verifier.sol\":4299:4306  p2[i].Y */\n      0x20\n      add\n      mload\n        /* \"TP FINAL/verifier.sol\":4307:4308  0 */\n      0x00\n        /* \"TP FINAL/verifier.sol\":4299:4309  p2[i].Y[0] */\n      0x02\n      dup2\n      lt\n      tag_207\n      jumpi\n      tag_208\n      tag_20\n      jump\t// in\n    tag_208:\n    tag_207:\n      0x20\n      mul\n      add\n      mload\n        /* \"TP FINAL/verifier.sol\":4280:4285  input */\n      dup3\n        /* \"TP FINAL/verifier.sol\":4294:4295  5 */\n      0x05\n        /* \"TP FINAL/verifier.sol\":4290:4291  6 */\n      0x06\n        /* \"TP FINAL/verifier.sol\":4286:4287  i */\n      dup5\n        /* \"TP FINAL/verifier.sol\":4286:4291  i * 6 */\n      tag_209\n      swap2\n      swap1\n      tag_162\n      jump\t// in\n    tag_209:\n        /* \"TP FINAL/verifier.sol\":4286:4295  i * 6 + 5 */\n      tag_210\n      swap2\n      swap1\n      tag_31\n      jump\t// in\n    tag_210:\n        /* \"TP FINAL/verifier.sol\":4280:4296  input[i * 6 + 5] */\n      dup2\n      mload\n      dup2\n      lt\n      tag_211\n      jumpi\n      tag_212\n      tag_20\n      jump\t// in\n    tag_212:\n    tag_211:\n      0x20\n      mul\n      0x20\n      add\n      add\n        /* \"TP FINAL/verifier.sol\":4280:4309  input[i * 6 + 5] = p2[i].Y[0] */\n      dup2\n      dup2\n      mstore\n      pop\n      pop\n        /* \"TP FINAL/verifier.sol\":4044:4047  i++ */\n      dup1\n      dup1\n      0x01\n      add\n      swap2\n      pop\n      pop\n        /* \"TP FINAL/verifier.sol\":4013:4320  for (uint i = 0; i < elements; i++)... */\n      jump(tag_166)\n    tag_167:\n      pop\n        /* \"TP FINAL/verifier.sol\":4329:4347  uint[1] memory out */\n      tag_213\n      tag_214\n      jump\t// in\n    tag_213:\n        /* \"TP FINAL/verifier.sol\":4357:4369  bool success */\n      0x00\n        /* \"TP FINAL/verifier.sol\":4490:4494  0x20 */\n      0x20\n        /* \"TP FINAL/verifier.sol\":4485:4488  out */\n      dup3\n        /* \"TP FINAL/verifier.sol\":4478:4482  0x20 */\n      0x20\n        /* \"TP FINAL/verifier.sol\":4467:4476  inputSize */\n      dup7\n        /* \"TP FINAL/verifier.sol\":4463:4483  mul(inputSize, 0x20) */\n      mul\n        /* \"TP FINAL/verifier.sol\":4456:4460  0x20 */\n      0x20\n        /* \"TP FINAL/verifier.sol\":4449:4454  input */\n      dup7\n        /* \"TP FINAL/verifier.sol\":4445:4461  add(input, 0x20) */\n      add\n        /* \"TP FINAL/verifier.sol\":4442:4443  8 */\n      0x08\n        /* \"TP FINAL/verifier.sol\":4435:4439  2000 */\n      0x07d0\n        /* \"TP FINAL/verifier.sol\":4428:4433  gas() */\n      gas\n        /* \"TP FINAL/verifier.sol\":4424:4440  sub(gas(), 2000) */\n      sub\n        /* \"TP FINAL/verifier.sol\":4413:4495  staticcall(sub(gas(), 2000), 8, add(input, 0x20), mul(inputSize, 0x20), out, 0x20) */\n      staticcall\n        /* \"TP FINAL/verifier.sol\":4402:4495  success := staticcall(sub(gas(), 2000), 8, add(input, 0x20), mul(inputSize, 0x20), out, 0x20) */\n      swap1\n      pop\n        /* \"TP FINAL/verifier.sol\":4572:4579  success */\n      dup1\n        /* \"TP FINAL/verifier.sol\":4585:4586  0 */\n      0x00\n        /* \"TP FINAL/verifier.sol\":4580:4600  case 0 { invalid() } */\n      dup2\n      sub\n        /* \"TP FINAL/verifier.sol\":4565:4600  switch success case 0 { invalid() } */\n      tag_215\n        /* \"TP FINAL/verifier.sol\":4580:4600  case 0 { invalid() } */\n      jumpi\n        /* \"TP FINAL/verifier.sol\":4589:4598  invalid() */\n      invalid\n        /* \"TP FINAL/verifier.sol\":4565:4600  switch success case 0 { invalid() } */\n    tag_215:\n      pop\n        /* \"TP FINAL/verifier.sol\":4627:4634  success */\n      dup1\n        /* \"TP FINAL/verifier.sol\":4619:4635  require(success) */\n      tag_217\n      jumpi\n      revert(0x00, 0x00)\n    tag_217:\n        /* \"TP FINAL/verifier.sol\":4662:4663  0 */\n      0x00\n        /* \"TP FINAL/verifier.sol\":4652:4655  out */\n      dup3\n        /* \"TP FINAL/verifier.sol\":4656:4657  0 */\n      0x00\n        /* \"TP FINAL/verifier.sol\":4652:4658  out[0] */\n      0x01\n      dup2\n      lt\n      tag_218\n      jumpi\n      tag_219\n      tag_20\n      jump\t// in\n    tag_219:\n    tag_218:\n      0x20\n      mul\n      add\n      mload\n        /* \"TP FINAL/verifier.sol\":4652:4663  out[0] != 0 */\n      eq\n      iszero\n        /* \"TP FINAL/verifier.sol\":4645:4663  return out[0] != 0 */\n      swap6\n      pop\n      pop\n      pop\n      pop\n      pop\n      pop\n        /* \"TP FINAL/verifier.sol\":3747:4670  function pairing(G1Point[] memory p1, G2Point[] memory p2) internal view returns (bool) {... */\n      swap3\n      swap2\n      pop\n      pop\n      jump\t// out\n    tag_59:\n      mload(0x40)\n      dup1\n      0xa0\n      add\n      0x40\n      mstore\n      dup1\n      tag_220\n      tag_66\n      jump\t// in\n    tag_220:\n      dup2\n      mstore\n      0x20\n      add\n      tag_221\n      tag_140\n      jump\t// in\n    tag_221:\n      dup2\n      mstore\n      0x20\n      add\n      tag_222\n      tag_140\n      jump\t// in\n    tag_222:\n      dup2\n      mstore\n      0x20\n      add\n      tag_223\n      tag_140\n      jump\t// in\n    tag_223:\n      dup2\n      mstore\n      0x20\n      add\n      0x60\n      dup2\n      mstore\n      pop\n      swap1\n      jump\t// out\n    tag_66:\n      mload(0x40)\n      dup1\n      0x40\n      add\n      0x40\n      mstore\n      dup1\n      0x00\n      dup2\n      mstore\n      0x20\n      add\n      0x00\n      dup2\n      mstore\n      pop\n      swap1\n      jump\t// out\n    tag_96:\n      mload(0x40)\n      dup1\n      0x60\n      add\n      0x40\n      mstore\n      dup1\n      0x03\n      swap1\n      0x20\n      dup3\n      mul\n      dup1\n      calldatasize\n      dup4\n      calldatacopy\n      dup1\n      dup3\n      add\n      swap2\n      pop\n      pop\n      swap1\n      pop\n      pop\n      swap1\n      jump\t// out\n    tag_109:\n      mload(0x40)\n      dup1\n      0x80\n      add\n      0x40\n      mstore\n      dup1\n      0x04\n      swap1\n      0x20\n      dup3\n      mul\n      dup1\n      calldatasize\n      dup4\n      calldatacopy\n      dup1\n      dup3\n      add\n      swap2\n      pop\n      pop\n      swap1\n      pop\n      pop\n      swap1\n      jump\t// out\n    tag_140:\n      mload(0x40)\n      dup1\n      0x40\n      add\n      0x40\n      mstore\n      dup1\n      tag_224\n      tag_225\n      jump\t// in\n    tag_224:\n      dup2\n      mstore\n      0x20\n      add\n      tag_226\n      tag_225\n      jump\t// in\n    tag_226:\n      dup2\n      mstore\n      pop\n      swap1\n      jump\t// out\n    tag_214:\n      mload(0x40)\n      dup1\n      0x20\n      add\n      0x40\n      mstore\n      dup1\n      0x01\n      swap1\n      0x20\n      dup3\n      mul\n      dup1\n      calldatasize\n      dup4\n      calldatacopy\n      dup1\n      dup3\n      add\n      swap2\n      pop\n      pop\n      swap1\n      pop\n      pop\n      swap1\n      jump\t// out\n    tag_225:\n      mload(0x40)\n      dup1\n      0x40\n      add\n      0x40\n      mstore\n      dup1\n      0x02\n      swap1\n      0x20\n      dup3\n      mul\n      dup1\n      calldatasize\n      dup4\n      calldatacopy\n      dup1\n      dup3\n      add\n      swap2\n      pop\n      pop\n      swap1\n      pop\n      pop\n      swap1\n      jump\t// out\n        /* \"#utility.yul\":7:82   */\n    tag_227:\n        /* \"#utility.yul\":40:46   */\n      0x00\n        /* \"#utility.yul\":73:75   */\n      0x40\n        /* \"#utility.yul\":67:76   */\n      mload\n        /* \"#utility.yul\":57:76   */\n      swap1\n      pop\n        /* \"#utility.yul\":7:82   */\n      swap1\n      jump\t// out\n        /* \"#utility.yul\":88:205   */\n    tag_228:\n        /* \"#utility.yul\":197:198   */\n      0x00\n        /* \"#utility.yul\":194:195   */\n      0x00\n        /* \"#utility.yul\":187:199   */\n      revert\n        /* \"#utility.yul\":334:451   */\n    tag_230:\n        /* \"#utility.yul\":443:444   */\n      0x00\n        /* \"#utility.yul\":440:441   */\n      0x00\n        /* \"#utility.yul\":433:445   */\n      revert\n        /* \"#utility.yul\":457:559   */\n    tag_231:\n        /* \"#utility.yul\":498:504   */\n      0x00\n        /* \"#utility.yul\":549:551   */\n      0x1f\n        /* \"#utility.yul\":545:552   */\n      not\n        /* \"#utility.yul\":540:542   */\n      0x1f\n        /* \"#utility.yul\":533:538   */\n      dup4\n        /* \"#utility.yul\":529:543   */\n      add\n        /* \"#utility.yul\":525:553   */\n      and\n        /* \"#utility.yul\":515:553   */\n      swap1\n      pop\n        /* \"#utility.yul\":457:559   */\n      swap2\n      swap1\n      pop\n      jump\t// out\n        /* \"#utility.yul\":565:745   */\n    tag_13:\n        /* \"#utility.yul\":613:690   */\n      0x4e487b7100000000000000000000000000000000000000000000000000000000\n        /* \"#utility.yul\":610:611   */\n      0x00\n        /* \"#utility.yul\":603:691   */\n      mstore\n        /* \"#utility.yul\":710:714   */\n      0x41\n        /* \"#utility.yul\":707:708   */\n      0x04\n        /* \"#utility.yul\":700:715   */\n      mstore\n        /* \"#utility.yul\":734:738   */\n      0x24\n        /* \"#utility.yul\":731:732   */\n      0x00\n        /* \"#utility.yul\":724:739   */\n      revert\n        /* \"#utility.yul\":751:1032   */\n    tag_232:\n        /* \"#utility.yul\":834:861   */\n      tag_261\n        /* \"#utility.yul\":856:860   */\n      dup3\n        /* \"#utility.yul\":834:861   */\n      tag_231\n      jump\t// in\n    tag_261:\n        /* \"#utility.yul\":826:832   */\n      dup2\n        /* \"#utility.yul\":822:862   */\n      add\n        /* \"#utility.yul\":964:970   */\n      dup2\n        /* \"#utility.yul\":952:962   */\n      dup2\n        /* \"#utility.yul\":949:971   */\n      lt\n        /* \"#utility.yul\":928:946   */\n      0xffffffffffffffff\n        /* \"#utility.yul\":916:926   */\n      dup3\n        /* \"#utility.yul\":913:947   */\n      gt\n        /* \"#utility.yul\":910:972   */\n      or\n        /* \"#utility.yul\":907:995   */\n      iszero\n      tag_262\n      jumpi\n        /* \"#utility.yul\":975:993   */\n      tag_263\n      tag_13\n      jump\t// in\n    tag_263:\n        /* \"#utility.yul\":907:995   */\n    tag_262:\n        /* \"#utility.yul\":1015:1025   */\n      dup1\n        /* \"#utility.yul\":1011:1013   */\n      0x40\n        /* \"#utility.yul\":1004:1026   */\n      mstore\n        /* \"#utility.yul\":794:1032   */\n      pop\n        /* \"#utility.yul\":751:1032   */\n      pop\n      pop\n      jump\t// out\n        /* \"#utility.yul\":1038:1167   */\n    tag_233:\n        /* \"#utility.yul\":1072:1078   */\n      0x00\n        /* \"#utility.yul\":1099:1119   */\n      tag_265\n      tag_227\n      jump\t// in\n    tag_265:\n        /* \"#utility.yul\":1089:1119   */\n      swap1\n      pop\n        /* \"#utility.yul\":1128:1161   */\n      tag_266\n        /* \"#utility.yul\":1156:1160   */\n      dup3\n        /* \"#utility.yul\":1148:1154   */\n      dup3\n        /* \"#utility.yul\":1128:1161   */\n      tag_232\n      jump\t// in\n    tag_266:\n        /* \"#utility.yul\":1038:1167   */\n      swap2\n      swap1\n      pop\n      jump\t// out\n        /* \"#utility.yul\":1296:1373   */\n    tag_235:\n        /* \"#utility.yul\":1333:1340   */\n      0x00\n        /* \"#utility.yul\":1362:1367   */\n      dup2\n        /* \"#utility.yul\":1351:1367   */\n      swap1\n      pop\n        /* \"#utility.yul\":1296:1373   */\n      swap2\n      swap1\n      pop\n      jump\t// out\n        /* \"#utility.yul\":1379:1501   */\n    tag_236:\n        /* \"#utility.yul\":1452:1476   */\n      tag_270\n        /* \"#utility.yul\":1470:1475   */\n      dup2\n        /* \"#utility.yul\":1452:1476   */\n      tag_235\n      jump\t// in\n    tag_270:\n        /* \"#utility.yul\":1445:1450   */\n      dup2\n        /* \"#utility.yul\":1442:1477   */\n      eq\n        /* \"#utility.yul\":1432:1495   */\n      tag_271\n      jumpi\n        /* \"#utility.yul\":1491:1492   */\n      0x00\n        /* \"#utility.yul\":1488:1489   */\n      0x00\n        /* \"#utility.yul\":1481:1493   */\n      revert\n        /* \"#utility.yul\":1432:1495   */\n    tag_271:\n        /* \"#utility.yul\":1379:1501   */\n      pop\n      jump\t// out\n        /* \"#utility.yul\":1507:1646   */\n    tag_237:\n        /* \"#utility.yul\":1553:1558   */\n      0x00\n        /* \"#utility.yul\":1591:1597   */\n      dup2\n        /* \"#utility.yul\":1578:1598   */\n      calldataload\n        /* \"#utility.yul\":1569:1598   */\n      swap1\n      pop\n        /* \"#utility.yul\":1607:1640   */\n      tag_273\n        /* \"#utility.yul\":1634:1639   */\n      dup2\n        /* \"#utility.yul\":1607:1640   */\n      tag_236\n      jump\t// in\n    tag_273:\n        /* \"#utility.yul\":1507:1646   */\n      swap3\n      swap2\n      pop\n      pop\n      jump\t// out\n        /* \"#utility.yul\":1682:2247   */\n    tag_238:\n        /* \"#utility.yul\":1753:1758   */\n      0x00\n        /* \"#utility.yul\":1797:1801   */\n      0x40\n        /* \"#utility.yul\":1785:1794   */\n      dup3\n        /* \"#utility.yul\":1780:1783   */\n      dup5\n        /* \"#utility.yul\":1776:1795   */\n      sub\n        /* \"#utility.yul\":1772:1802   */\n      slt\n        /* \"#utility.yul\":1769:1886   */\n      iszero\n      tag_275\n      jumpi\n        /* \"#utility.yul\":1805:1884   */\n      tag_276\n      tag_230\n      jump\t// in\n    tag_276:\n        /* \"#utility.yul\":1769:1886   */\n    tag_275:\n        /* \"#utility.yul\":1904:1925   */\n      tag_277\n        /* \"#utility.yul\":1920:1924   */\n      0x40\n        /* \"#utility.yul\":1904:1925   */\n      tag_233\n      jump\t// in\n    tag_277:\n        /* \"#utility.yul\":1895:1925   */\n      swap1\n      pop\n        /* \"#utility.yul\":1981:1982   */\n      0x00\n        /* \"#utility.yul\":2021:2070   */\n      tag_278\n        /* \"#utility.yul\":2066:2069   */\n      dup5\n        /* \"#utility.yul\":2057:2063   */\n      dup3\n        /* \"#utility.yul\":2046:2055   */\n      dup6\n        /* \"#utility.yul\":2042:2064   */\n      add\n        /* \"#utility.yul\":2021:2070   */\n      tag_237\n      jump\t// in\n    tag_278:\n        /* \"#utility.yul\":2014:2018   */\n      0x00\n        /* \"#utility.yul\":2007:2012   */\n      dup4\n        /* \"#utility.yul\":2003:2019   */\n      add\n        /* \"#utility.yul\":1996:2071   */\n      mstore\n        /* \"#utility.yul\":1935:2082   */\n      pop\n        /* \"#utility.yul\":2138:2140   */\n      0x20\n        /* \"#utility.yul\":2179:2228   */\n      tag_279\n        /* \"#utility.yul\":2224:2227   */\n      dup5\n        /* \"#utility.yul\":2215:2221   */\n      dup3\n        /* \"#utility.yul\":2204:2213   */\n      dup6\n        /* \"#utility.yul\":2200:2222   */\n      add\n        /* \"#utility.yul\":2179:2228   */\n      tag_237\n      jump\t// in\n    tag_279:\n        /* \"#utility.yul\":2172:2176   */\n      0x20\n        /* \"#utility.yul\":2165:2170   */\n      dup4\n        /* \"#utility.yul\":2161:2177   */\n      add\n        /* \"#utility.yul\":2154:2229   */\n      mstore\n        /* \"#utility.yul\":2092:2240   */\n      pop\n        /* \"#utility.yul\":1682:2247   */\n      swap3\n      swap2\n      pop\n      pop\n      jump\t// out\n        /* \"#utility.yul\":2253:2370   */\n    tag_239:\n        /* \"#utility.yul\":2362:2363   */\n      0x00\n        /* \"#utility.yul\":2359:2360   */\n      0x00\n        /* \"#utility.yul\":2352:2364   */\n      revert\n        /* \"#utility.yul\":2376:2625   */\n    tag_240:\n        /* \"#utility.yul\":2451:2455   */\n      0x00\n        /* \"#utility.yul\":2541:2559   */\n      0xffffffffffffffff\n        /* \"#utility.yul\":2533:2539   */\n      dup3\n        /* \"#utility.yul\":2530:2560   */\n      gt\n        /* \"#utility.yul\":2527:2583   */\n      iszero\n      tag_282\n      jumpi\n        /* \"#utility.yul\":2563:2581   */\n      tag_283\n      tag_13\n      jump\t// in\n    tag_283:\n        /* \"#utility.yul\":2527:2583   */\n    tag_282:\n        /* \"#utility.yul\":2613:2617   */\n      0x20\n        /* \"#utility.yul\":2605:2611   */\n      dup3\n        /* \"#utility.yul\":2601:2618   */\n      mul\n        /* \"#utility.yul\":2593:2618   */\n      swap1\n      pop\n        /* \"#utility.yul\":2376:2625   */\n      swap2\n      swap1\n      pop\n      jump\t// out\n        /* \"#utility.yul\":2631:2748   */\n    tag_241:\n        /* \"#utility.yul\":2740:2741   */\n      0x00\n        /* \"#utility.yul\":2737:2738   */\n      0x00\n        /* \"#utility.yul\":2730:2742   */\n      revert\n        /* \"#utility.yul\":2772:3415   */\n    tag_242:\n        /* \"#utility.yul\":2866:2871   */\n      0x00\n        /* \"#utility.yul\":2891:2970   */\n      tag_286\n        /* \"#utility.yul\":2907:2969   */\n      tag_287\n        /* \"#utility.yul\":2962:2968   */\n      dup5\n        /* \"#utility.yul\":2907:2969   */\n      tag_240\n      jump\t// in\n    tag_287:\n        /* \"#utility.yul\":2891:2970   */\n      tag_233\n      jump\t// in\n    tag_286:\n        /* \"#utility.yul\":2882:2970   */\n      swap1\n      pop\n        /* \"#utility.yul\":2990:2995   */\n      dup1\n        /* \"#utility.yul\":3043:3047   */\n      0x20\n        /* \"#utility.yul\":3035:3041   */\n      dup5\n        /* \"#utility.yul\":3031:3048   */\n      mul\n        /* \"#utility.yul\":3023:3029   */\n      dup4\n        /* \"#utility.yul\":3019:3049   */\n      add\n        /* \"#utility.yul\":3072:3075   */\n      dup6\n        /* \"#utility.yul\":3064:3070   */\n      dup2\n        /* \"#utility.yul\":3061:3076   */\n      gt\n        /* \"#utility.yul\":3058:3180   */\n      iszero\n      tag_288\n      jumpi\n        /* \"#utility.yul\":3091:3170   */\n      tag_289\n      tag_241\n      jump\t// in\n    tag_289:\n        /* \"#utility.yul\":3058:3180   */\n    tag_288:\n        /* \"#utility.yul\":3206:3212   */\n      dup4\n        /* \"#utility.yul\":3189:3409   */\n    tag_290:\n        /* \"#utility.yul\":3223:3229   */\n      dup2\n        /* \"#utility.yul\":3218:3221   */\n      dup2\n        /* \"#utility.yul\":3215:3230   */\n      lt\n        /* \"#utility.yul\":3189:3409   */\n      iszero\n      tag_292\n      jumpi\n        /* \"#utility.yul\":3298:3301   */\n      dup1\n        /* \"#utility.yul\":3327:3364   */\n      tag_293\n        /* \"#utility.yul\":3360:3363   */\n      dup9\n        /* \"#utility.yul\":3348:3358   */\n      dup3\n        /* \"#utility.yul\":3327:3364   */\n      tag_237\n      jump\t// in\n    tag_293:\n        /* \"#utility.yul\":3322:3325   */\n      dup5\n        /* \"#utility.yul\":3315:3365   */\n      mstore\n        /* \"#utility.yul\":3394:3398   */\n      0x20\n        /* \"#utility.yul\":3389:3392   */\n      dup5\n        /* \"#utility.yul\":3385:3399   */\n      add\n        /* \"#utility.yul\":3378:3399   */\n      swap4\n      pop\n        /* \"#utility.yul\":3265:3409   */\n      pop\n        /* \"#utility.yul\":3249:3253   */\n      0x20\n        /* \"#utility.yul\":3244:3247   */\n      dup2\n        /* \"#utility.yul\":3240:3254   */\n      add\n        /* \"#utility.yul\":3233:3254   */\n      swap1\n      pop\n        /* \"#utility.yul\":3189:3409   */\n      jump(tag_290)\n    tag_292:\n        /* \"#utility.yul\":3193:3214   */\n      pop\n        /* \"#utility.yul\":2872:3415   */\n      pop\n      pop\n        /* \"#utility.yul\":2772:3415   */\n      swap4\n      swap3\n      pop\n      pop\n      pop\n      jump\t// out\n        /* \"#utility.yul\":3439:3778   */\n    tag_243:\n        /* \"#utility.yul\":3508:3513   */\n      0x00\n        /* \"#utility.yul\":3557:3560   */\n      dup3\n        /* \"#utility.yul\":3550:3554   */\n      0x1f\n        /* \"#utility.yul\":3542:3548   */\n      dup4\n        /* \"#utility.yul\":3538:3555   */\n      add\n        /* \"#utility.yul\":3534:3561   */\n      slt\n        /* \"#utility.yul\":3524:3646   */\n      tag_295\n      jumpi\n        /* \"#utility.yul\":3565:3644   */\n      tag_296\n      tag_239\n      jump\t// in\n    tag_296:\n        /* \"#utility.yul\":3524:3646   */\n    tag_295:\n        /* \"#utility.yul\":3669:3673   */\n      0x02\n        /* \"#utility.yul\":3691:3772   */\n      tag_297\n        /* \"#utility.yul\":3768:3771   */\n      dup5\n        /* \"#utility.yul\":3760:3766   */\n      dup3\n        /* \"#utility.yul\":3752:3758   */\n      dup6\n        /* \"#utility.yul\":3691:3772   */\n      tag_242\n      jump\t// in\n    tag_297:\n        /* \"#utility.yul\":3682:3772   */\n      swap2\n      pop\n        /* \"#utility.yul\":3514:3778   */\n      pop\n        /* \"#utility.yul\":3439:3778   */\n      swap3\n      swap2\n      pop\n      pop\n      jump\t// out\n        /* \"#utility.yul\":3814:4426   */\n    tag_244:\n        /* \"#utility.yul\":3886:3891   */\n      0x00\n        /* \"#utility.yul\":3930:3934   */\n      0x80\n        /* \"#utility.yul\":3918:3927   */\n      dup3\n        /* \"#utility.yul\":3913:3916   */\n      dup5\n        /* \"#utility.yul\":3909:3928   */\n      sub\n        /* \"#utility.yul\":3905:3935   */\n      slt\n        /* \"#utility.yul\":3902:4019   */\n      iszero\n      tag_299\n      jumpi\n        /* \"#utility.yul\":3938:4017   */\n      tag_300\n      tag_230\n      jump\t// in\n    tag_300:\n        /* \"#utility.yul\":3902:4019   */\n    tag_299:\n        /* \"#utility.yul\":4037:4058   */\n      tag_301\n        /* \"#utility.yul\":4053:4057   */\n      0x40\n        /* \"#utility.yul\":4037:4058   */\n      tag_233\n      jump\t// in\n    tag_301:\n        /* \"#utility.yul\":4028:4058   */\n      swap1\n      pop\n        /* \"#utility.yul\":4114:4115   */\n      0x00\n        /* \"#utility.yul\":4154:4226   */\n      tag_302\n        /* \"#utility.yul\":4222:4225   */\n      dup5\n        /* \"#utility.yul\":4213:4219   */\n      dup3\n        /* \"#utility.yul\":4202:4211   */\n      dup6\n        /* \"#utility.yul\":4198:4220   */\n      add\n        /* \"#utility.yul\":4154:4226   */\n      tag_243\n      jump\t// in\n    tag_302:\n        /* \"#utility.yul\":4147:4151   */\n      0x00\n        /* \"#utility.yul\":4140:4145   */\n      dup4\n        /* \"#utility.yul\":4136:4152   */\n      add\n        /* \"#utility.yul\":4129:4227   */\n      mstore\n        /* \"#utility.yul\":4068:4238   */\n      pop\n        /* \"#utility.yul\":4294:4296   */\n      0x40\n        /* \"#utility.yul\":4335:4407   */\n      tag_303\n        /* \"#utility.yul\":4403:4406   */\n      dup5\n        /* \"#utility.yul\":4394:4400   */\n      dup3\n        /* \"#utility.yul\":4383:4392   */\n      dup6\n        /* \"#utility.yul\":4379:4401   */\n      add\n        /* \"#utility.yul\":4335:4407   */\n      tag_243\n      jump\t// in\n    tag_303:\n        /* \"#utility.yul\":4328:4332   */\n      0x20\n        /* \"#utility.yul\":4321:4326   */\n      dup4\n        /* \"#utility.yul\":4317:4333   */\n      add\n        /* \"#utility.yul\":4310:4408   */\n      mstore\n        /* \"#utility.yul\":4248:4419   */\n      pop\n        /* \"#utility.yul\":3814:4426   */\n      swap3\n      swap2\n      pop\n      pop\n      jump\t// out\n        /* \"#utility.yul\":4465:5258   */\n    tag_245:\n        /* \"#utility.yul\":4536:4541   */\n      0x00\n        /* \"#utility.yul\":4580:4586   */\n      0x0100\n        /* \"#utility.yul\":4568:4577   */\n      dup3\n        /* \"#utility.yul\":4563:4566   */\n      dup5\n        /* \"#utility.yul\":4559:4578   */\n      sub\n        /* \"#utility.yul\":4555:4587   */\n      slt\n        /* \"#utility.yul\":4552:4671   */\n      iszero\n      tag_305\n      jumpi\n        /* \"#utility.yul\":4590:4669   */\n      tag_306\n      tag_230\n      jump\t// in\n    tag_306:\n        /* \"#utility.yul\":4552:4671   */\n    tag_305:\n        /* \"#utility.yul\":4689:4710   */\n      tag_307\n        /* \"#utility.yul\":4705:4709   */\n      0x60\n        /* \"#utility.yul\":4689:4710   */\n      tag_233\n      jump\t// in\n    tag_307:\n        /* \"#utility.yul\":4680:4710   */\n      swap1\n      pop\n        /* \"#utility.yul\":4766:4767   */\n      0x00\n        /* \"#utility.yul\":4806:4877   */\n      tag_308\n        /* \"#utility.yul\":4873:4876   */\n      dup5\n        /* \"#utility.yul\":4864:4870   */\n      dup3\n        /* \"#utility.yul\":4853:4862   */\n      dup6\n        /* \"#utility.yul\":4849:4871   */\n      add\n        /* \"#utility.yul\":4806:4877   */\n      tag_238\n      jump\t// in\n    tag_308:\n        /* \"#utility.yul\":4799:4803   */\n      0x00\n        /* \"#utility.yul\":4792:4797   */\n      dup4\n        /* \"#utility.yul\":4788:4804   */\n      add\n        /* \"#utility.yul\":4781:4878   */\n      mstore\n        /* \"#utility.yul\":4720:4889   */\n      pop\n        /* \"#utility.yul\":4945:4947   */\n      0x40\n        /* \"#utility.yul\":4986:5058   */\n      tag_309\n        /* \"#utility.yul\":5054:5057   */\n      dup5\n        /* \"#utility.yul\":5045:5051   */\n      dup3\n        /* \"#utility.yul\":5034:5043   */\n      dup6\n        /* \"#utility.yul\":5030:5052   */\n      add\n        /* \"#utility.yul\":4986:5058   */\n      tag_244\n      jump\t// in\n    tag_309:\n        /* \"#utility.yul\":4979:4983   */\n      0x20\n        /* \"#utility.yul\":4972:4977   */\n      dup4\n        /* \"#utility.yul\":4968:4984   */\n      add\n        /* \"#utility.yul\":4961:5059   */\n      mstore\n        /* \"#utility.yul\":4899:5070   */\n      pop\n        /* \"#utility.yul\":5126:5129   */\n      0xc0\n        /* \"#utility.yul\":5168:5239   */\n      tag_310\n        /* \"#utility.yul\":5235:5238   */\n      dup5\n        /* \"#utility.yul\":5226:5232   */\n      dup3\n        /* \"#utility.yul\":5215:5224   */\n      dup6\n        /* \"#utility.yul\":5211:5233   */\n      add\n        /* \"#utility.yul\":5168:5239   */\n      tag_238\n      jump\t// in\n    tag_310:\n        /* \"#utility.yul\":5161:5165   */\n      0x40\n        /* \"#utility.yul\":5154:5159   */\n      dup4\n        /* \"#utility.yul\":5150:5166   */\n      add\n        /* \"#utility.yul\":5143:5240   */\n      mstore\n        /* \"#utility.yul\":5080:5251   */\n      pop\n        /* \"#utility.yul\":4465:5258   */\n      swap3\n      swap2\n      pop\n      pop\n      jump\t// out\n        /* \"#utility.yul\":5264:5514   */\n    tag_246:\n        /* \"#utility.yul\":5340:5344   */\n      0x00\n        /* \"#utility.yul\":5430:5448   */\n      0xffffffffffffffff\n        /* \"#utility.yul\":5422:5428   */\n      dup3\n        /* \"#utility.yul\":5419:5449   */\n      gt\n        /* \"#utility.yul\":5416:5472   */\n      iszero\n      tag_312\n      jumpi\n        /* \"#utility.yul\":5452:5470   */\n      tag_313\n      tag_13\n      jump\t// in\n    tag_313:\n        /* \"#utility.yul\":5416:5472   */\n    tag_312:\n        /* \"#utility.yul\":5502:5506   */\n      0x20\n        /* \"#utility.yul\":5494:5500   */\n      dup3\n        /* \"#utility.yul\":5490:5507   */\n      mul\n        /* \"#utility.yul\":5482:5507   */\n      swap1\n      pop\n        /* \"#utility.yul\":5264:5514   */\n      swap2\n      swap1\n      pop\n      jump\t// out\n        /* \"#utility.yul\":5539:6184   */\n    tag_247:\n        /* \"#utility.yul\":5634:5639   */\n      0x00\n        /* \"#utility.yul\":5659:5739   */\n      tag_315\n        /* \"#utility.yul\":5675:5738   */\n      tag_316\n        /* \"#utility.yul\":5731:5737   */\n      dup5\n        /* \"#utility.yul\":5675:5738   */\n      tag_246\n      jump\t// in\n    tag_316:\n        /* \"#utility.yul\":5659:5739   */\n      tag_233\n      jump\t// in\n    tag_315:\n        /* \"#utility.yul\":5650:5739   */\n      swap1\n      pop\n        /* \"#utility.yul\":5759:5764   */\n      dup1\n        /* \"#utility.yul\":5812:5816   */\n      0x20\n        /* \"#utility.yul\":5804:5810   */\n      dup5\n        /* \"#utility.yul\":5800:5817   */\n      mul\n        /* \"#utility.yul\":5792:5798   */\n      dup4\n        /* \"#utility.yul\":5788:5818   */\n      add\n        /* \"#utility.yul\":5841:5844   */\n      dup6\n        /* \"#utility.yul\":5833:5839   */\n      dup2\n        /* \"#utility.yul\":5830:5845   */\n      gt\n        /* \"#utility.yul\":5827:5949   */\n      iszero\n      tag_317\n      jumpi\n        /* \"#utility.yul\":5860:5939   */\n      tag_318\n      tag_241\n      jump\t// in\n    tag_318:\n        /* \"#utility.yul\":5827:5949   */\n    tag_317:\n        /* \"#utility.yul\":5975:5981   */\n      dup4\n        /* \"#utility.yul\":5958:6178   */\n    tag_319:\n        /* \"#utility.yul\":5992:5998   */\n      dup2\n        /* \"#utility.yul\":5987:5990   */\n      dup2\n        /* \"#utility.yul\":5984:5999   */\n      lt\n        /* \"#utility.yul\":5958:6178   */\n      iszero\n      tag_321\n      jumpi\n        /* \"#utility.yul\":6067:6070   */\n      dup1\n        /* \"#utility.yul\":6096:6133   */\n      tag_322\n        /* \"#utility.yul\":6129:6132   */\n      dup9\n        /* \"#utility.yul\":6117:6127   */\n      dup3\n        /* \"#utility.yul\":6096:6133   */\n      tag_237\n      jump\t// in\n    tag_322:\n        /* \"#utility.yul\":6091:6094   */\n      dup5\n        /* \"#utility.yul\":6084:6134   */\n      mstore\n        /* \"#utility.yul\":6163:6167   */\n      0x20\n        /* \"#utility.yul\":6158:6161   */\n      dup5\n        /* \"#utility.yul\":6154:6168   */\n      add\n        /* \"#utility.yul\":6147:6168   */\n      swap4\n      pop\n        /* \"#utility.yul\":6034:6178   */\n      pop\n        /* \"#utility.yul\":6018:6022   */\n      0x20\n        /* \"#utility.yul\":6013:6016   */\n      dup2\n        /* \"#utility.yul\":6009:6023   */\n      add\n        /* \"#utility.yul\":6002:6023   */\n      swap1\n      pop\n        /* \"#utility.yul\":5958:6178   */\n      jump(tag_319)\n    tag_321:\n        /* \"#utility.yul\":5962:5983   */\n      pop\n        /* \"#utility.yul\":5640:6184   */\n      pop\n      pop\n        /* \"#utility.yul\":5539:6184   */\n      swap4\n      swap3\n      pop\n      pop\n      pop\n      jump\t// out\n        /* \"#utility.yul\":6209:6550   */\n    tag_248:\n        /* \"#utility.yul\":6279:6284   */\n      0x00\n        /* \"#utility.yul\":6328:6331   */\n      dup3\n        /* \"#utility.yul\":6321:6325   */\n      0x1f\n        /* \"#utility.yul\":6313:6319   */\n      dup4\n        /* \"#utility.yul\":6309:6326   */\n      add\n        /* \"#utility.yul\":6305:6332   */\n      slt\n        /* \"#utility.yul\":6295:6417   */\n      tag_324\n      jumpi\n        /* \"#utility.yul\":6336:6415   */\n      tag_325\n      tag_239\n      jump\t// in\n    tag_325:\n        /* \"#utility.yul\":6295:6417   */\n    tag_324:\n        /* \"#utility.yul\":6440:6444   */\n      0x0c\n        /* \"#utility.yul\":6462:6544   */\n      tag_326\n        /* \"#utility.yul\":6540:6543   */\n      dup5\n        /* \"#utility.yul\":6532:6538   */\n      dup3\n        /* \"#utility.yul\":6524:6530   */\n      dup6\n        /* \"#utility.yul\":6462:6544   */\n      tag_247\n      jump\t// in\n    tag_326:\n        /* \"#utility.yul\":6453:6544   */\n      swap2\n      pop\n        /* \"#utility.yul\":6285:6550   */\n      pop\n        /* \"#utility.yul\":6209:6550   */\n      swap3\n      swap2\n      pop\n      pop\n      jump\t// out\n        /* \"#utility.yul\":6556:7124   */\n    tag_6:\n        /* \"#utility.yul\":6670:6676   */\n      0x00\n        /* \"#utility.yul\":6678:6684   */\n      0x00\n        /* \"#utility.yul\":6727:6730   */\n      0x0280\n        /* \"#utility.yul\":6715:6724   */\n      dup4\n        /* \"#utility.yul\":6706:6713   */\n      dup6\n        /* \"#utility.yul\":6702:6725   */\n      sub\n        /* \"#utility.yul\":6698:6731   */\n      slt\n        /* \"#utility.yul\":6695:6815   */\n      iszero\n      tag_328\n      jumpi\n        /* \"#utility.yul\":6734:6813   */\n      tag_329\n      tag_228\n      jump\t// in\n    tag_329:\n        /* \"#utility.yul\":6695:6815   */\n    tag_328:\n        /* \"#utility.yul\":6854:6855   */\n      0x00\n        /* \"#utility.yul\":6879:6954   */\n      tag_330\n        /* \"#utility.yul\":6946:6953   */\n      dup6\n        /* \"#utility.yul\":6937:6943   */\n      dup3\n        /* \"#utility.yul\":6926:6935   */\n      dup7\n        /* \"#utility.yul\":6922:6944   */\n      add\n        /* \"#utility.yul\":6879:6954   */\n      tag_245\n      jump\t// in\n    tag_330:\n        /* \"#utility.yul\":6869:6954   */\n      swap3\n      pop\n        /* \"#utility.yul\":6825:6964   */\n      pop\n        /* \"#utility.yul\":7003:7006   */\n      0x0100\n        /* \"#utility.yul\":7030:7107   */\n      tag_331\n        /* \"#utility.yul\":7099:7106   */\n      dup6\n        /* \"#utility.yul\":7090:7096   */\n      dup3\n        /* \"#utility.yul\":7079:7088   */\n      dup7\n        /* \"#utility.yul\":7075:7097   */\n      add\n        /* \"#utility.yul\":7030:7107   */\n      tag_248\n      jump\t// in\n    tag_331:\n        /* \"#utility.yul\":7020:7107   */\n      swap2\n      pop\n        /* \"#utility.yul\":6974:7117   */\n      pop\n        /* \"#utility.yul\":6556:7124   */\n      swap3\n      pop\n      swap3\n      swap1\n      pop\n      jump\t// out\n        /* \"#utility.yul\":7130:7220   */\n    tag_249:\n        /* \"#utility.yul\":7164:7171   */\n      0x00\n        /* \"#utility.yul\":7207:7212   */\n      dup2\n        /* \"#utility.yul\":7200:7213   */\n      iszero\n        /* \"#utility.yul\":7193:7214   */\n      iszero\n        /* \"#utility.yul\":7182:7214   */\n      swap1\n      pop\n        /* \"#utility.yul\":7130:7220   */\n      swap2\n      swap1\n      pop\n      jump\t// out\n        /* \"#utility.yul\":7226:7335   */\n    tag_250:\n        /* \"#utility.yul\":7307:7328   */\n      tag_334\n        /* \"#utility.yul\":7322:7327   */\n      dup2\n        /* \"#utility.yul\":7307:7328   */\n      tag_249\n      jump\t// in\n    tag_334:\n        /* \"#utility.yul\":7302:7305   */\n      dup3\n        /* \"#utility.yul\":7295:7329   */\n      mstore\n        /* \"#utility.yul\":7226:7335   */\n      pop\n      pop\n      jump\t// out\n        /* \"#utility.yul\":7341:7551   */\n    tag_9:\n        /* \"#utility.yul\":7428:7432   */\n      0x00\n        /* \"#utility.yul\":7466:7468   */\n      0x20\n        /* \"#utility.yul\":7455:7464   */\n      dup3\n        /* \"#utility.yul\":7451:7469   */\n      add\n        /* \"#utility.yul\":7443:7469   */\n      swap1\n      pop\n        /* \"#utility.yul\":7479:7544   */\n      tag_336\n        /* \"#utility.yul\":7541:7542   */\n      0x00\n        /* \"#utility.yul\":7530:7539   */\n      dup4\n        /* \"#utility.yul\":7526:7543   */\n      add\n        /* \"#utility.yul\":7517:7523   */\n      dup5\n        /* \"#utility.yul\":7479:7544   */\n      tag_250\n      jump\t// in\n    tag_336:\n        /* \"#utility.yul\":7341:7551   */\n      swap3\n      swap2\n      pop\n      pop\n      jump\t// out\n        /* \"#utility.yul\":7557:7737   */\n    tag_20:\n        /* \"#utility.yul\":7605:7682   */\n      0x4e487b7100000000000000000000000000000000000000000000000000000000\n        /* \"#utility.yul\":7602:7603   */\n      0x00\n        /* \"#utility.yul\":7595:7683   */\n      mstore\n        /* \"#utility.yul\":7702:7706   */\n      0x32\n        /* \"#utility.yul\":7699:7700   */\n      0x04\n        /* \"#utility.yul\":7692:7707   */\n      mstore\n        /* \"#utility.yul\":7726:7730   */\n      0x24\n        /* \"#utility.yul\":7723:7724   */\n      0x00\n        /* \"#utility.yul\":7716:7731   */\n      revert\n        /* \"#utility.yul\":7743:7923   */\n    tag_251:\n        /* \"#utility.yul\":7791:7868   */\n      0x4e487b7100000000000000000000000000000000000000000000000000000000\n        /* \"#utility.yul\":7788:7789   */\n      0x00\n        /* \"#utility.yul\":7781:7869   */\n      mstore\n        /* \"#utility.yul\":7888:7892   */\n      0x11\n        /* \"#utility.yul\":7885:7886   */\n      0x04\n        /* \"#utility.yul\":7878:7893   */\n      mstore\n        /* \"#utility.yul\":7912:7916   */\n      0x24\n        /* \"#utility.yul\":7909:7910   */\n      0x00\n        /* \"#utility.yul\":7902:7917   */\n      revert\n        /* \"#utility.yul\":7929:8120   */\n    tag_31:\n        /* \"#utility.yul\":7969:7972   */\n      0x00\n        /* \"#utility.yul\":7988:8008   */\n      tag_340\n        /* \"#utility.yul\":8006:8007   */\n      dup3\n        /* \"#utility.yul\":7988:8008   */\n      tag_235\n      jump\t// in\n    tag_340:\n        /* \"#utility.yul\":7983:8008   */\n      swap2\n      pop\n        /* \"#utility.yul\":8022:8042   */\n      tag_341\n        /* \"#utility.yul\":8040:8041   */\n      dup4\n        /* \"#utility.yul\":8022:8042   */\n      tag_235\n      jump\t// in\n    tag_341:\n        /* \"#utility.yul\":8017:8042   */\n      swap3\n      pop\n        /* \"#utility.yul\":8065:8066   */\n      dup3\n        /* \"#utility.yul\":8062:8063   */\n      dup3\n        /* \"#utility.yul\":8058:8067   */\n      add\n        /* \"#utility.yul\":8051:8067   */\n      swap1\n      pop\n        /* \"#utility.yul\":8086:8089   */\n      dup1\n        /* \"#utility.yul\":8083:8084   */\n      dup3\n        /* \"#utility.yul\":8080:8090   */\n      gt\n        /* \"#utility.yul\":8077:8113   */\n      iszero\n      tag_342\n      jumpi\n        /* \"#utility.yul\":8093:8111   */\n      tag_343\n      tag_251\n      jump\t// in\n    tag_343:\n        /* \"#utility.yul\":8077:8113   */\n    tag_342:\n        /* \"#utility.yul\":7929:8120   */\n      swap3\n      swap2\n      pop\n      pop\n      jump\t// out\n        /* \"#utility.yul\":8126:8306   */\n    tag_252:\n        /* \"#utility.yul\":8174:8251   */\n      0x4e487b7100000000000000000000000000000000000000000000000000000000\n        /* \"#utility.yul\":8171:8172   */\n      0x00\n        /* \"#utility.yul\":8164:8252   */\n      mstore\n        /* \"#utility.yul\":8271:8275   */\n      0x12\n        /* \"#utility.yul\":8268:8269   */\n      0x04\n        /* \"#utility.yul\":8261:8276   */\n      mstore\n        /* \"#utility.yul\":8295:8299   */\n      0x24\n        /* \"#utility.yul\":8292:8293   */\n      0x00\n        /* \"#utility.yul\":8285:8300   */\n      revert\n        /* \"#utility.yul\":8312:8488   */\n    tag_126:\n        /* \"#utility.yul\":8344:8345   */\n      0x00\n        /* \"#utility.yul\":8361:8381   */\n      tag_346\n        /* \"#utility.yul\":8379:8380   */\n      dup3\n        /* \"#utility.yul\":8361:8381   */\n      tag_235\n      jump\t// in\n    tag_346:\n        /* \"#utility.yul\":8356:8381   */\n      swap2\n      pop\n        /* \"#utility.yul\":8395:8415   */\n      tag_347\n        /* \"#utility.yul\":8413:8414   */\n      dup4\n        /* \"#utility.yul\":8395:8415   */\n      tag_235\n      jump\t// in\n    tag_347:\n        /* \"#utility.yul\":8390:8415   */\n      swap3\n      pop\n        /* \"#utility.yul\":8434:8435   */\n      dup3\n        /* \"#utility.yul\":8424:8459   */\n      tag_348\n      jumpi\n        /* \"#utility.yul\":8439:8457   */\n      tag_349\n      tag_252\n      jump\t// in\n    tag_349:\n        /* \"#utility.yul\":8424:8459   */\n    tag_348:\n        /* \"#utility.yul\":8480:8481   */\n      dup3\n        /* \"#utility.yul\":8477:8478   */\n      dup3\n        /* \"#utility.yul\":8473:8482   */\n      mod\n        /* \"#utility.yul\":8468:8482   */\n      swap1\n      pop\n        /* \"#utility.yul\":8312:8488   */\n      swap3\n      swap2\n      pop\n      pop\n      jump\t// out\n        /* \"#utility.yul\":8494:8688   */\n    tag_128:\n        /* \"#utility.yul\":8534:8538   */\n      0x00\n        /* \"#utility.yul\":8554:8574   */\n      tag_351\n        /* \"#utility.yul\":8572:8573   */\n      dup3\n        /* \"#utility.yul\":8554:8574   */\n      tag_235\n      jump\t// in\n    tag_351:\n        /* \"#utility.yul\":8549:8574   */\n      swap2\n      pop\n        /* \"#utility.yul\":8588:8608   */\n      tag_352\n        /* \"#utility.yul\":8606:8607   */\n      dup4\n        /* \"#utility.yul\":8588:8608   */\n      tag_235\n      jump\t// in\n    tag_352:\n        /* \"#utility.yul\":8583:8608   */\n      swap3\n      pop\n        /* \"#utility.yul\":8632:8633   */\n      dup3\n        /* \"#utility.yul\":8629:8630   */\n      dup3\n        /* \"#utility.yul\":8625:8634   */\n      sub\n        /* \"#utility.yul\":8617:8634   */\n      swap1\n      pop\n        /* \"#utility.yul\":8656:8657   */\n      dup2\n        /* \"#utility.yul\":8650:8654   */\n      dup2\n        /* \"#utility.yul\":8647:8658   */\n      gt\n        /* \"#utility.yul\":8644:8681   */\n      iszero\n      tag_353\n      jumpi\n        /* \"#utility.yul\":8661:8679   */\n      tag_354\n      tag_251\n      jump\t// in\n    tag_354:\n        /* \"#utility.yul\":8644:8681   */\n    tag_353:\n        /* \"#utility.yul\":8494:8688   */\n      swap3\n      swap2\n      pop\n      pop\n      jump\t// out\n        /* \"#utility.yul\":8694:9104   */\n    tag_162:\n        /* \"#utility.yul\":8734:8741   */\n      0x00\n        /* \"#utility.yul\":8757:8777   */\n      tag_356\n        /* \"#utility.yul\":8775:8776   */\n      dup3\n        /* \"#utility.yul\":8757:8777   */\n      tag_235\n      jump\t// in\n    tag_356:\n        /* \"#utility.yul\":8752:8777   */\n      swap2\n      pop\n        /* \"#utility.yul\":8791:8811   */\n      tag_357\n        /* \"#utility.yul\":8809:8810   */\n      dup4\n        /* \"#utility.yul\":8791:8811   */\n      tag_235\n      jump\t// in\n    tag_357:\n        /* \"#utility.yul\":8786:8811   */\n      swap3\n      pop\n        /* \"#utility.yul\":8846:8847   */\n      dup3\n        /* \"#utility.yul\":8843:8844   */\n      dup3\n        /* \"#utility.yul\":8839:8848   */\n      mul\n        /* \"#utility.yul\":8868:8898   */\n      tag_358\n        /* \"#utility.yul\":8886:8897   */\n      dup2\n        /* \"#utility.yul\":8868:8898   */\n      tag_235\n      jump\t// in\n    tag_358:\n        /* \"#utility.yul\":8857:8898   */\n      swap2\n      pop\n        /* \"#utility.yul\":9047:9048   */\n      dup3\n        /* \"#utility.yul\":9038:9045   */\n      dup3\n        /* \"#utility.yul\":9034:9049   */\n      div\n        /* \"#utility.yul\":9031:9032   */\n      dup5\n        /* \"#utility.yul\":9028:9050   */\n      eq\n        /* \"#utility.yul\":9008:9009   */\n      dup4\n        /* \"#utility.yul\":9001:9010   */\n      iszero\n        /* \"#utility.yul\":8981:9064   */\n      or\n        /* \"#utility.yul\":8958:9097   */\n      tag_359\n      jumpi\n        /* \"#utility.yul\":9077:9095   */\n      tag_360\n      tag_251\n      jump\t// in\n    tag_360:\n        /* \"#utility.yul\":8958:9097   */\n    tag_359:\n        /* \"#utility.yul\":8742:9104   */\n      pop\n        /* \"#utility.yul\":8694:9104   */\n      swap3\n      swap2\n      pop\n      pop\n      jump\t// out\n\n    auxdata: 0xa26469706673582212201647251915983d0c7a96e3bf1772b670b273dd4e96e0b7da52f6d067b8f7aabc64736f6c634300081e0033\n}\n",
				"bytecode": {
					"linkReferences": {},
					"object": "6080604052348015600e575f5ffd5b5061191c8061001c5f395ff3fe608060405234801561000f575f5ffd5b5060043610610029575f3560e01c8063666705991461002d575b5f5ffd5b61004760048036038101906100429190611715565b61005d565b604051610054919061176f565b60405180910390f35b5f5f600c67ffffffffffffffff81111561007a5761007961140a565b5b6040519080825280602002602001820160405280156100a85781602001602082028036833780820191505090505b5090505f5f90505b600c8110156100fd578381600c81106100cc576100cb611788565b5b60200201518282815181106100e4576100e3611788565b5b60200260200101818152505080806001019150506100b0565b505f6101098286610123565b0361011857600191505061011d565b5f9150505b92915050565b5f5f7f30644e72e131a029b85045b68181585d2833e84879b9709143e1f593f000000190505f6101516102ab565b90508060800151516001865161016791906117e2565b14610170575f5ffd5b5f60405180604001604052805f81526020015f81525090505f5f90505b865181101561022157838782815181106101aa576101a9611788565b5b6020026020010151106101bb575f5ffd5b6102128261020d85608001516001856101d491906117e2565b815181106101e5576101e4611788565b5b60200260200101518a8581518110610200576101ff611788565b5b6020026020010151610bd4565b610c71565b9150808060010191505061018d565b5061024a8183608001515f8151811061023d5761023c611788565b5b6020026020010151610c71565b905061028e855f0151866020015161026184610d33565b85604001516102738a60400151610d33565b8760600151610284895f0151610d33565b8960200151610dd1565b61029e57600193505050506102a5565b5f93505050505b92915050565b6102b36112dc565b60405180604001604052807f0daa57dc4a4692c2ac1f2b06c0f5be3297fb59681cb6ee071334ab6435f6f39f81526020017f072515937d4f66f7fd7bd111c87c377f41a6724c4445437f3238c46fd413afc6815250815f0181905250604051806040016040528060405180604001604052807f2de1f7c564d6a0ca0431221e98101d1d71b0e68f915032b7381e9e6301ad3de681526020017f118c304086f3359014d0af4f4c87571decff530aaa45da37c133aca4ec537d71815250815260200160405180604001604052807f117846116db6bdbc400b5b1ed1a5c227aa3b556573b80c1403bc34d7a3f0e75181526020017f167a659204992d15584e0c75e4a7e47a30c03023fe19dac1aab163e817f8dc758152508152508160200181905250604051806040016040528060405180604001604052807f2968ed1423c743f4f1410c66985a635ff325e21a895c94589331b70554cd4fa881526020017f016b68374b6d4825747c83cee8c589e8deb7be7f63c83c80c85985387aa3c9cd815250815260200160405180604001604052807f0cb42d30f5ceedaa6936c083e68e6adc0b386d36a86059a305624b998cdb0a2881526020017f0774bee6b76b7fc994e2349dcdd8f1fca28a67e9b07509dc4f249bda432087e48152508152508160400181905250604051806040016040528060405180604001604052807f0e9a7e0c5e9237e049821a9b96107098c0f878977a78ca983233ac9174ce87eb81526020017f2bb21a00ec8b20398799687107808f1d8c7bfe515cfc6db2a0a5e468896b08d1815250815260200160405180604001604052807f22647b8cf8e82011242b5d9638f6efc0b72e0bfdc1a1b2cfaa4e578712c3478781526020017f02566cb9c3ddfa185320ded12e3f3f1e27a161d1fbe4a7f3cad3e35cf71b33fb8152508152508160600181905250600d67ffffffffffffffff8111156105795761057861140a565b5b6040519080825280602002602001820160405280156105b257816020015b61059f611323565b8152602001906001900390816105975790505b50816080018190525060405180604001604052807f2af849b578726a614b9cf837813b1920d037d44d4fb4bc16f12191fad80f49a781526020017f2996abb657ecb50682bdddffaebaa1d8ac4f24f9e9a0316061f3b752eeb45eb281525081608001515f8151811061062757610626611788565b5b602002602001018190525060405180604001604052807f0f712efb483b65815be9b69fcba66737d47b7cbe013e8de2d2165c24b049d9cc81526020017f0ca7b9adfe5ab02ce2a736b251a7445727bbb4976609c2f64afb79e10c887aa8815250816080015160018151811061069f5761069e611788565b5b602002602001018190525060405180604001604052807f257841b48225a6a393bef459cfbadd860b062e3a4cfcdcd84e1f17a8566b5a2f81526020017f1a2651a33495d6fc0cad673183fdf57e17633cad5bb5f498bcec10cfab67cfde815250816080015160028151811061071757610716611788565b5b602002602001018190525060405180604001604052807f094e3cd70d9e5d64a4d8edabce7da6c82886b83e2f354b11c52fab27889b34a381526020017f2dacdd83d24d55f4a68f7d2b3b93f9cd3211c1d20ab137daa2f400c52339a8fe815250816080015160038151811061078f5761078e611788565b5b602002602001018190525060405180604001604052807f0d4a741a96da6c76bfaec796252395489e90cfe4433878dca9302fbb46df022681526020017f061594c538bc606f36887a7e1c66ac8a961afaddcc804ad7ffc4b90f0a4c3e06815250816080015160048151811061080757610806611788565b5b602002602001018190525060405180604001604052807f193a0d2b254ffea955d5785440b9207c678aacb1a3f53d9e3e9ca3b68646292281526020017f24d34ba9aeb28b477546bfcd799b397b126c2e900cf52fd8d75b613b0f3d0fbd815250816080015160058151811061087f5761087e611788565b5b602002602001018190525060405180604001604052807f1444833fd0171d0153fe099b605a3acc2d59e21ab4cf6363f48e3f356a69febd81526020017e7b3259fca2e2081506324d1e635984ffa6e96617c3af356b144a9f4f0d2b4f81525081608001516006815181106108f6576108f5611788565b5b602002602001018190525060405180604001604052807f0754b8b3c860c7a0bade23151b313fb3603fb8ed9ab46870bba02ce6a8947fc681526020017f27aa34fcf45b39af9a1cc47f5f445d38bffb9daaaef0abff7ca0cf5690d3a5bb815250816080015160078151811061096e5761096d611788565b5b602002602001018190525060405180604001604052807f0c3a9b3069b87a21366c0747c8dc11116a494115bef45835ad706c3e9263a62681526020017f0679d15a217ecd95db26f4c3b63441f3aee0dbd429e658b1d6b8ba11204ad90081525081608001516008815181106109e6576109e5611788565b5b602002602001018190525060405180604001604052807f1bbc2288469bcee3f68e84dee9b37b42d6170e0fe13bae9e9ad7533ef51d0e6b81526020017f0b699e3e8f4c9081e4ca6ec357938656e4672743692d8ca6c46c2276ec3beacd8152508160800151600981518110610a5e57610a5d611788565b5b602002602001018190525060405180604001604052807f104f36c1bd12a5ef51ddef228954b3e83aad23ccb1f62ae85a5bcda689574f7381526020017f1da183ca55536270a093a0cae171e4460b529d9a4d934aa2b5c560d1012a24038152508160800151600a81518110610ad657610ad5611788565b5b602002602001018190525060405180604001604052807f2ff01214ab73082c36227a00198362112a9b699f3bdb527f2b63ac16894fa44d81526020017f2e2ae1c36df72ce92b54f3c43b8271c3c8bf9c6e77f6c52b96c56cf4d0b8bb868152508160800151600b81518110610b4e57610b4d611788565b5b602002602001018190525060405180604001604052807f2a7dac41610238196b131c0ab8b9bae8e29516450c1d059a3e55047bc709a7dd81526020017f30601d27494f77eb029cc892a1b9bc46adc00de4d115c379d5fb5224dcc05b478152508160800151600c81518110610bc657610bc5611788565b5b602002602001018190525090565b610bdc611323565b610be461133b565b835f0151815f60038110610bfb57610bfa611788565b5b602002018181525050836020015181600160038110610c1d57610c1c611788565b5b6020020181815250508281600260038110610c3b57610c3a611788565b5b6020020181815250505f60608360808460076107d05a03fa9050805f8103610c5f57fe5b5080610c69575f5ffd5b505092915050565b610c79611323565b610c8161135d565b835f0151815f60048110610c9857610c97611788565b5b602002018181525050836020015181600160048110610cba57610cb9611788565b5b602002018181525050825f015181600260048110610cdb57610cda611788565b5b602002018181525050826020015181600360048110610cfd57610cfc611788565b5b6020020181815250505f60608360c08460066107d05a03fa9050805f8103610d2157fe5b5080610d2b575f5ffd5b505092915050565b610d3b611323565b5f7f30644e72e131a029b85045b68181585d97816a916871ca8d3c208c16d87cfd4790505f835f0151148015610d7457505f8360200151145b15610d965760405180604001604052805f81526020015f815250915050610dcc565b6040518060400160405280845f01518152602001828560200151610dba9190611842565b83610dc59190611872565b8152509150505b919050565b5f5f600467ffffffffffffffff811115610dee57610ded61140a565b5b604051908082528060200260200182016040528015610e2757816020015b610e14611323565b815260200190600190039081610e0c5790505b5090505f600467ffffffffffffffff811115610e4657610e4561140a565b5b604051908082528060200260200182016040528015610e7f57816020015b610e6c61137f565b815260200190600190039081610e645790505b5090508a825f81518110610e9657610e95611788565b5b60200260200101819052508882600181518110610eb657610eb5611788565b5b60200260200101819052508682600281518110610ed657610ed5611788565b5b60200260200101819052508482600381518110610ef657610ef5611788565b5b602002602001018190525089815f81518110610f1557610f14611788565b5b60200260200101819052508781600181518110610f3557610f34611788565b5b60200260200101819052508581600281518110610f5557610f54611788565b5b60200260200101819052508381600381518110610f7557610f74611788565b5b6020026020010181905250610f8a8282610f9a565b9250505098975050505050505050565b5f8151835114610fa8575f5ffd5b5f835190505f600682610fbb91906118a5565b90505f8167ffffffffffffffff811115610fd857610fd761140a565b5b6040519080825280602002602001820160405280156110065781602001602082028036833780820191505090505b5090505f5f90505b838110156112815786818151811061102957611028611788565b5b60200260200101515f0151825f60068461104391906118a5565b61104d91906117e2565b8151811061105e5761105d611788565b5b60200260200101818152505086818151811061107d5761107c611788565b5b60200260200101516020015182600160068461109991906118a5565b6110a391906117e2565b815181106110b4576110b3611788565b5b6020026020010181815250508581815181106110d3576110d2611788565b5b60200260200101515f01516001600281106110f1576110f0611788565b5b602002015182600260068461110691906118a5565b61111091906117e2565b8151811061112157611120611788565b5b6020026020010181815250508581815181106111405761113f611788565b5b60200260200101515f01515f6002811061115d5761115c611788565b5b602002015182600360068461117291906118a5565b61117c91906117e2565b8151811061118d5761118c611788565b5b6020026020010181815250508581815181106111ac576111ab611788565b5b6020026020010151602001516001600281106111cb576111ca611788565b5b60200201518260046006846111e091906118a5565b6111ea91906117e2565b815181106111fb576111fa611788565b5b60200260200101818152505085818151811061121a57611219611788565b5b6020026020010151602001515f6002811061123857611237611788565b5b602002015182600560068461124d91906118a5565b61125791906117e2565b8151811061126857611267611788565b5b602002602001018181525050808060010191505061100e565b5061128a6113a5565b5f602082602086026020860160086107d05a03fa9050805f81036112aa57fe5b50806112b4575f5ffd5b5f825f600181106112c8576112c7611788565b5b602002015114159550505050505092915050565b6040518060a001604052806112ef611323565b81526020016112fc61137f565b815260200161130961137f565b815260200161131661137f565b8152602001606081525090565b60405180604001604052805f81526020015f81525090565b6040518060600160405280600390602082028036833780820191505090505090565b6040518060800160405280600490602082028036833780820191505090505090565b60405180604001604052806113926113c7565b815260200161139f6113c7565b81525090565b6040518060200160405280600190602082028036833780820191505090505090565b6040518060400160405280600290602082028036833780820191505090505090565b5f604051905090565b5f5ffd5b5f5ffd5b5f601f19601f8301169050919050565b7f4e487b71000000000000000000000000000000000000000000000000000000005f52604160045260245ffd5b611440826113fa565b810181811067ffffffffffffffff8211171561145f5761145e61140a565b5b80604052505050565b5f6114716113e9565b905061147d8282611437565b919050565b5f819050919050565b61149481611482565b811461149e575f5ffd5b50565b5f813590506114af8161148b565b92915050565b5f604082840312156114ca576114c96113f6565b5b6114d46040611468565b90505f6114e3848285016114a1565b5f8301525060206114f6848285016114a1565b60208301525092915050565b5f5ffd5b5f67ffffffffffffffff8211156115205761151f61140a565b5b602082029050919050565b5f5ffd5b5f61154161153c84611506565b611468565b9050806020840283018581111561155b5761155a61152b565b5b835b81811015611584578061157088826114a1565b84526020840193505060208101905061155d565b5050509392505050565b5f82601f8301126115a2576115a1611502565b5b60026115af84828561152f565b91505092915050565b5f608082840312156115cd576115cc6113f6565b5b6115d76040611468565b90505f6115e68482850161158e565b5f8301525060406115f98482850161158e565b60208301525092915050565b5f610100828403121561161b5761161a6113f6565b5b6116256060611468565b90505f611634848285016114b5565b5f830152506040611647848285016115b8565b60208301525060c061165b848285016114b5565b60408301525092915050565b5f67ffffffffffffffff8211156116815761168061140a565b5b602082029050919050565b5f61169e61169984611667565b611468565b905080602084028301858111156116b8576116b761152b565b5b835b818110156116e157806116cd88826114a1565b8452602084019350506020810190506116ba565b5050509392505050565b5f82601f8301126116ff576116fe611502565b5b600c61170c84828561168c565b91505092915050565b5f5f610280838503121561172c5761172b6113f2565b5b5f61173985828601611605565b92505061010061174b858286016116eb565b9150509250929050565b5f8115159050919050565b61176981611755565b82525050565b5f6020820190506117825f830184611760565b92915050565b7f4e487b71000000000000000000000000000000000000000000000000000000005f52603260045260245ffd5b7f4e487b71000000000000000000000000000000000000000000000000000000005f52601160045260245ffd5b5f6117ec82611482565b91506117f783611482565b925082820190508082111561180f5761180e6117b5565b5b92915050565b7f4e487b71000000000000000000000000000000000000000000000000000000005f52601260045260245ffd5b5f61184c82611482565b915061185783611482565b92508261186757611866611815565b5b828206905092915050565b5f61187c82611482565b915061188783611482565b925082820390508181111561189f5761189e6117b5565b5b92915050565b5f6118af82611482565b91506118ba83611482565b92508282026118c881611482565b915082820484148315176118df576118de6117b5565b5b509291505056fea26469706673582212201647251915983d0c7a96e3bf1772b670b273dd4e96e0b7da52f6d067b8f7aabc64736f6c634300081e0033",
					"opcodes": "PUSH1 0x80 PUSH1 0x40 MSTORE CALLVALUE DUP1 ISZERO PUSH1 0xE JUMPI PUSH0 PUSH0 REVERT JUMPDEST POP PUSH2 0x191C DUP1 PUSH2 0x1C PUSH0 CODECOPY PUSH0 RETURN INVALID PUSH1 0x80 PUSH1 0x40 MSTORE CALLVALUE DUP1 ISZERO PUSH2 0xF JUMPI PUSH0 PUSH0 REVERT JUMPDEST POP PUSH1 0x4 CALLDATASIZE LT PUSH2 0x29 JUMPI PUSH0 CALLDATALOAD PUSH1 0xE0 SHR DUP1 PUSH4 0x66670599 EQ PUSH2 0x2D JUMPI JUMPDEST PUSH0 PUSH0 REVERT JUMPDEST PUSH2 0x47 PUSH1 0x4 DUP1 CALLDATASIZE SUB DUP2 ADD SWAP1 PUSH2 0x42 SWAP2 SWAP1 PUSH2 0x1715 JUMP JUMPDEST PUSH2 0x5D JUMP JUMPDEST PUSH1 0x40 MLOAD PUSH2 0x54 SWAP2 SWAP1 PUSH2 0x176F JUMP JUMPDEST PUSH1 0x40 MLOAD DUP1 SWAP2 SUB SWAP1 RETURN JUMPDEST PUSH0 PUSH0 PUSH1 0xC PUSH8 0xFFFFFFFFFFFFFFFF DUP2 GT ISZERO PUSH2 0x7A JUMPI PUSH2 0x79 PUSH2 0x140A JUMP JUMPDEST JUMPDEST PUSH1 0x40 MLOAD SWAP1 DUP1 DUP3 MSTORE DUP1 PUSH1 0x20 MUL PUSH1 0x20 ADD DUP3 ADD PUSH1 0x40 MSTORE DUP1 ISZERO PUSH2 0xA8 JUMPI DUP2 PUSH1 0x20 ADD PUSH1 0x20 DUP3 MUL DUP1 CALLDATASIZE DUP4 CALLDATACOPY DUP1 DUP3 ADD SWAP2 POP POP SWAP1 POP JUMPDEST POP SWAP1 POP PUSH0 PUSH0 SWAP1 POP JUMPDEST PUSH1 0xC DUP2 LT ISZERO PUSH2 0xFD JUMPI DUP4 DUP2 PUSH1 0xC DUP2 LT PUSH2 0xCC JUMPI PUSH2 0xCB PUSH2 0x1788 JUMP JUMPDEST JUMPDEST PUSH1 0x20 MUL ADD MLOAD DUP3 DUP3 DUP2 MLOAD DUP2 LT PUSH2 0xE4 JUMPI PUSH2 0xE3 PUSH2 0x1788 JUMP JUMPDEST JUMPDEST PUSH1 0x20 MUL PUSH1 0x20 ADD ADD DUP2 DUP2 MSTORE POP POP DUP1 DUP1 PUSH1 0x1 ADD SWAP2 POP POP PUSH2 0xB0 JUMP JUMPDEST POP PUSH0 PUSH2 0x109 DUP3 DUP7 PUSH2 0x123 JUMP JUMPDEST SUB PUSH2 0x118 JUMPI PUSH1 0x1 SWAP2 POP POP PUSH2 0x11D JUMP JUMPDEST PUSH0 SWAP2 POP POP JUMPDEST SWAP3 SWAP2 POP POP JUMP JUMPDEST PUSH0 PUSH0 PUSH32 0x30644E72E131A029B85045B68181585D2833E84879B9709143E1F593F0000001 SWAP1 POP PUSH0 PUSH2 0x151 PUSH2 0x2AB JUMP JUMPDEST SWAP1 POP DUP1 PUSH1 0x80 ADD MLOAD MLOAD PUSH1 0x1 DUP7 MLOAD PUSH2 0x167 SWAP2 SWAP1 PUSH2 0x17E2 JUMP JUMPDEST EQ PUSH2 0x170 JUMPI PUSH0 PUSH0 REVERT JUMPDEST PUSH0 PUSH1 0x40 MLOAD DUP1 PUSH1 0x40 ADD PUSH1 0x40 MSTORE DUP1 PUSH0 DUP2 MSTORE PUSH1 0x20 ADD PUSH0 DUP2 MSTORE POP SWAP1 POP PUSH0 PUSH0 SWAP1 POP JUMPDEST DUP7 MLOAD DUP2 LT ISZERO PUSH2 0x221 JUMPI DUP4 DUP8 DUP3 DUP2 MLOAD DUP2 LT PUSH2 0x1AA JUMPI PUSH2 0x1A9 PUSH2 0x1788 JUMP JUMPDEST JUMPDEST PUSH1 0x20 MUL PUSH1 0x20 ADD ADD MLOAD LT PUSH2 0x1BB JUMPI PUSH0 PUSH0 REVERT JUMPDEST PUSH2 0x212 DUP3 PUSH2 0x20D DUP6 PUSH1 0x80 ADD MLOAD PUSH1 0x1 DUP6 PUSH2 0x1D4 SWAP2 SWAP1 PUSH2 0x17E2 JUMP JUMPDEST DUP2 MLOAD DUP2 LT PUSH2 0x1E5 JUMPI PUSH2 0x1E4 PUSH2 0x1788 JUMP JUMPDEST JUMPDEST PUSH1 0x20 MUL PUSH1 0x20 ADD ADD MLOAD DUP11 DUP6 DUP2 MLOAD DUP2 LT PUSH2 0x200 JUMPI PUSH2 0x1FF PUSH2 0x1788 JUMP JUMPDEST JUMPDEST PUSH1 0x20 MUL PUSH1 0x20 ADD ADD MLOAD PUSH2 0xBD4 JUMP JUMPDEST PUSH2 0xC71 JUMP JUMPDEST SWAP2 POP DUP1 DUP1 PUSH1 0x1 ADD SWAP2 POP POP PUSH2 0x18D JUMP JUMPDEST POP PUSH2 0x24A DUP2 DUP4 PUSH1 0x80 ADD MLOAD PUSH0 DUP2 MLOAD DUP2 LT PUSH2 0x23D JUMPI PUSH2 0x23C PUSH2 0x1788 JUMP JUMPDEST JUMPDEST PUSH1 0x20 MUL PUSH1 0x20 ADD ADD MLOAD PUSH2 0xC71 JUMP JUMPDEST SWAP1 POP PUSH2 0x28E DUP6 PUSH0 ADD MLOAD DUP7 PUSH1 0x20 ADD MLOAD PUSH2 0x261 DUP5 PUSH2 0xD33 JUMP JUMPDEST DUP6 PUSH1 0x40 ADD MLOAD PUSH2 0x273 DUP11 PUSH1 0x40 ADD MLOAD PUSH2 0xD33 JUMP JUMPDEST DUP8 PUSH1 0x60 ADD MLOAD PUSH2 0x284 DUP10 PUSH0 ADD MLOAD PUSH2 0xD33 JUMP JUMPDEST DUP10 PUSH1 0x20 ADD MLOAD PUSH2 0xDD1 JUMP JUMPDEST PUSH2 0x29E JUMPI PUSH1 0x1 SWAP4 POP POP POP POP PUSH2 0x2A5 JUMP JUMPDEST PUSH0 SWAP4 POP POP POP POP JUMPDEST SWAP3 SWAP2 POP POP JUMP JUMPDEST PUSH2 0x2B3 PUSH2 0x12DC JUMP JUMPDEST PUSH1 0x40 MLOAD DUP1 PUSH1 0x40 ADD PUSH1 0x40 MSTORE DUP1 PUSH32 0xDAA57DC4A4692C2AC1F2B06C0F5BE3297FB59681CB6EE071334AB6435F6F39F DUP2 MSTORE PUSH1 0x20 ADD PUSH32 0x72515937D4F66F7FD7BD111C87C377F41A6724C4445437F3238C46FD413AFC6 DUP2 MSTORE POP DUP2 PUSH0 ADD DUP2 SWAP1 MSTORE POP PUSH1 0x40 MLOAD DUP1 PUSH1 0x40 ADD PUSH1 0x40 MSTORE DUP1 PUSH1 0x40 MLOAD DUP1 PUSH1 0x40 ADD PUSH1 0x40 MSTORE DUP1 PUSH32 0x2DE1F7C564D6A0CA0431221E98101D1D71B0E68F915032B7381E9E6301AD3DE6 DUP2 MSTORE PUSH1 0x20 ADD PUSH32 0x118C304086F3359014D0AF4F4C87571DECFF530AAA45DA37C133ACA4EC537D71 DUP2 MSTORE POP DUP2 MSTORE PUSH1 0x20 ADD PUSH1 0x40 MLOAD DUP1 PUSH1 0x40 ADD PUSH1 0x40 MSTORE DUP1 PUSH32 0x117846116DB6BDBC400B5B1ED1A5C227AA3B556573B80C1403BC34D7A3F0E751 DUP2 MSTORE PUSH1 0x20 ADD PUSH32 0x167A659204992D15584E0C75E4A7E47A30C03023FE19DAC1AAB163E817F8DC75 DUP2 MSTORE POP DUP2 MSTORE POP DUP2 PUSH1 0x20 ADD DUP2 SWAP1 MSTORE POP PUSH1 0x40 MLOAD DUP1 PUSH1 0x40 ADD PUSH1 0x40 MSTORE DUP1 PUSH1 0x40 MLOAD DUP1 PUSH1 0x40 ADD PUSH1 0x40 MSTORE DUP1 PUSH32 0x2968ED1423C743F4F1410C66985A635FF325E21A895C94589331B70554CD4FA8 DUP2 MSTORE PUSH1 0x20 ADD PUSH32 0x16B68374B6D4825747C83CEE8C589E8DEB7BE7F63C83C80C85985387AA3C9CD DUP2 MSTORE POP DUP2 MSTORE PUSH1 0x20 ADD PUSH1 0x40 MLOAD DUP1 PUSH1 0x40 ADD PUSH1 0x40 MSTORE DUP1 PUSH32 0xCB42D30F5CEEDAA6936C083E68E6ADC0B386D36A86059A305624B998CDB0A28 DUP2 MSTORE PUSH1 0x20 ADD PUSH32 0x774BEE6B76B7FC994E2349DCDD8F1FCA28A67E9B07509DC4F249BDA432087E4 DUP2 MSTORE POP DUP2 MSTORE POP DUP2 PUSH1 0x40 ADD DUP2 SWAP1 MSTORE POP PUSH1 0x40 MLOAD DUP1 PUSH1 0x40 ADD PUSH1 0x40 MSTORE DUP1 PUSH1 0x40 MLOAD DUP1 PUSH1 0x40 ADD PUSH1 0x40 MSTORE DUP1 PUSH32 0xE9A7E0C5E9237E049821A9B96107098C0F878977A78CA983233AC9174CE87EB DUP2 MSTORE PUSH1 0x20 ADD PUSH32 0x2BB21A00EC8B20398799687107808F1D8C7BFE515CFC6DB2A0A5E468896B08D1 DUP2 MSTORE POP DUP2 MSTORE PUSH1 0x20 ADD PUSH1 0x40 MLOAD DUP1 PUSH1 0x40 ADD PUSH1 0x40 MSTORE DUP1 PUSH32 0x22647B8CF8E82011242B5D9638F6EFC0B72E0BFDC1A1B2CFAA4E578712C34787 DUP2 MSTORE PUSH1 0x20 ADD PUSH32 0x2566CB9C3DDFA185320DED12E3F3F1E27A161D1FBE4A7F3CAD3E35CF71B33FB DUP2 MSTORE POP DUP2 MSTORE POP DUP2 PUSH1 0x60 ADD DUP2 SWAP1 MSTORE POP PUSH1 0xD PUSH8 0xFFFFFFFFFFFFFFFF DUP2 GT ISZERO PUSH2 0x579 JUMPI PUSH2 0x578 PUSH2 0x140A JUMP JUMPDEST JUMPDEST PUSH1 0x40 MLOAD SWAP1 DUP1 DUP3 MSTORE DUP1 PUSH1 0x20 MUL PUSH1 0x20 ADD DUP3 ADD PUSH1 0x40 MSTORE DUP1 ISZERO PUSH2 0x5B2 JUMPI DUP2 PUSH1 0x20 ADD JUMPDEST PUSH2 0x59F PUSH2 0x1323 JUMP JUMPDEST DUP2 MSTORE PUSH1 0x20 ADD SWAP1 PUSH1 0x1 SWAP1 SUB SWAP1 DUP2 PUSH2 0x597 JUMPI SWAP1 POP JUMPDEST POP DUP2 PUSH1 0x80 ADD DUP2 SWAP1 MSTORE POP PUSH1 0x40 MLOAD DUP1 PUSH1 0x40 ADD PUSH1 0x40 MSTORE DUP1 PUSH32 0x2AF849B578726A614B9CF837813B1920D037D44D4FB4BC16F12191FAD80F49A7 DUP2 MSTORE PUSH1 0x20 ADD PUSH32 0x2996ABB657ECB50682BDDDFFAEBAA1D8AC4F24F9E9A0316061F3B752EEB45EB2 DUP2 MSTORE POP DUP2 PUSH1 0x80 ADD MLOAD PUSH0 DUP2 MLOAD DUP2 LT PUSH2 0x627 JUMPI PUSH2 0x626 PUSH2 0x1788 JUMP JUMPDEST JUMPDEST PUSH1 0x20 MUL PUSH1 0x20 ADD ADD DUP2 SWAP1 MSTORE POP PUSH1 0x40 MLOAD DUP1 PUSH1 0x40 ADD PUSH1 0x40 MSTORE DUP1 PUSH32 0xF712EFB483B65815BE9B69FCBA66737D47B7CBE013E8DE2D2165C24B049D9CC DUP2 MSTORE PUSH1 0x20 ADD PUSH32 0xCA7B9ADFE5AB02CE2A736B251A7445727BBB4976609C2F64AFB79E10C887AA8 DUP2 MSTORE POP DUP2 PUSH1 0x80 ADD MLOAD PUSH1 0x1 DUP2 MLOAD DUP2 LT PUSH2 0x69F JUMPI PUSH2 0x69E PUSH2 0x1788 JUMP JUMPDEST JUMPDEST PUSH1 0x20 MUL PUSH1 0x20 ADD ADD DUP2 SWAP1 MSTORE POP PUSH1 0x40 MLOAD DUP1 PUSH1 0x40 ADD PUSH1 0x40 MSTORE DUP1 PUSH32 0x257841B48225A6A393BEF459CFBADD860B062E3A4CFCDCD84E1F17A8566B5A2F DUP2 MSTORE PUSH1 0x20 ADD PUSH32 0x1A2651A33495D6FC0CAD673183FDF57E17633CAD5BB5F498BCEC10CFAB67CFDE DUP2 MSTORE POP DUP2 PUSH1 0x80 ADD MLOAD PUSH1 0x2 DUP2 MLOAD DUP2 LT PUSH2 0x717 JUMPI PUSH2 0x716 PUSH2 0x1788 JUMP JUMPDEST JUMPDEST PUSH1 0x20 MUL PUSH1 0x20 ADD ADD DUP2 SWAP1 MSTORE POP PUSH1 0x40 MLOAD DUP1 PUSH1 0x40 ADD PUSH1 0x40 MSTORE DUP1 PUSH32 0x94E3CD70D9E5D64A4D8EDABCE7DA6C82886B83E2F354B11C52FAB27889B34A3 DUP2 MSTORE PUSH1 0x20 ADD PUSH32 0x2DACDD83D24D55F4A68F7D2B3B93F9CD3211C1D20AB137DAA2F400C52339A8FE DUP2 MSTORE POP DUP2 PUSH1 0x80 ADD MLOAD PUSH1 0x3 DUP2 MLOAD DUP2 LT PUSH2 0x78F JUMPI PUSH2 0x78E PUSH2 0x1788 JUMP JUMPDEST JUMPDEST PUSH1 0x20 MUL PUSH1 0x20 ADD ADD DUP2 SWAP1 MSTORE POP PUSH1 0x40 MLOAD DUP1 PUSH1 0x40 ADD PUSH1 0x40 MSTORE DUP1 PUSH32 0xD4A741A96DA6C76BFAEC796252395489E90CFE4433878DCA9302FBB46DF0226 DUP2 MSTORE PUSH1 0x20 ADD PUSH32 0x61594C538BC606F36887A7E1C66AC8A961AFADDCC804AD7FFC4B90F0A4C3E06 DUP2 MSTORE POP DUP2 PUSH1 0x80 ADD MLOAD PUSH1 0x4 DUP2 MLOAD DUP2 LT PUSH2 0x807 JUMPI PUSH2 0x806 PUSH2 0x1788 JUMP JUMPDEST JUMPDEST PUSH1 0x20 MUL PUSH1 0x20 ADD ADD DUP2 SWAP1 MSTORE POP PUSH1 0x40 MLOAD DUP1 PUSH1 0x40 ADD PUSH1 0x40 MSTORE DUP1 PUSH32 0x193A0D2B254FFEA955D5785440B9207C678AACB1A3F53D9E3E9CA3B686462922 DUP2 MSTORE PUSH1 0x20 ADD PUSH32 0x24D34BA9AEB28B477546BFCD799B397B126C2E900CF52FD8D75B613B0F3D0FBD DUP2 MSTORE POP DUP2 PUSH1 0x80 ADD MLOAD PUSH1 0x5 DUP2 MLOAD DUP2 LT PUSH2 0x87F JUMPI PUSH2 0x87E PUSH2 0x1788 JUMP JUMPDEST JUMPDEST PUSH1 0x20 MUL PUSH1 0x20 ADD ADD DUP2 SWAP1 MSTORE POP PUSH1 0x40 MLOAD DUP1 PUSH1 0x40 ADD PUSH1 0x40 MSTORE DUP1 PUSH32 0x1444833FD0171D0153FE099B605A3ACC2D59E21AB4CF6363F48E3F356A69FEBD DUP2 MSTORE PUSH1 0x20 ADD PUSH31 0x7B3259FCA2E2081506324D1E635984FFA6E96617C3AF356B144A9F4F0D2B4F DUP2 MSTORE POP DUP2 PUSH1 0x80 ADD MLOAD PUSH1 0x6 DUP2 MLOAD DUP2 LT PUSH2 0x8F6 JUMPI PUSH2 0x8F5 PUSH2 0x1788 JUMP JUMPDEST JUMPDEST PUSH1 0x20 MUL PUSH1 0x20 ADD ADD DUP2 SWAP1 MSTORE POP PUSH1 0x40 MLOAD DUP1 PUSH1 0x40 ADD PUSH1 0x40 MSTORE DUP1 PUSH32 0x754B8B3C860C7A0BADE23151B313FB3603FB8ED9AB46870BBA02CE6A8947FC6 DUP2 MSTORE PUSH1 0x20 ADD PUSH32 0x27AA34FCF45B39AF9A1CC47F5F445D38BFFB9DAAAEF0ABFF7CA0CF5690D3A5BB DUP2 MSTORE POP DUP2 PUSH1 0x80 ADD MLOAD PUSH1 0x7 DUP2 MLOAD DUP2 LT PUSH2 0x96E JUMPI PUSH2 0x96D PUSH2 0x1788 JUMP JUMPDEST JUMPDEST PUSH1 0x20 MUL PUSH1 0x20 ADD ADD DUP2 SWAP1 MSTORE POP PUSH1 0x40 MLOAD DUP1 PUSH1 0x40 ADD PUSH1 0x40 MSTORE DUP1 PUSH32 0xC3A9B3069B87A21366C0747C8DC11116A494115BEF45835AD706C3E9263A626 DUP2 MSTORE PUSH1 0x20 ADD PUSH32 0x679D15A217ECD95DB26F4C3B63441F3AEE0DBD429E658B1D6B8BA11204AD900 DUP2 MSTORE POP DUP2 PUSH1 0x80 ADD MLOAD PUSH1 0x8 DUP2 MLOAD DUP2 LT PUSH2 0x9E6 JUMPI PUSH2 0x9E5 PUSH2 0x1788 JUMP JUMPDEST JUMPDEST PUSH1 0x20 MUL PUSH1 0x20 ADD ADD DUP2 SWAP1 MSTORE POP PUSH1 0x40 MLOAD DUP1 PUSH1 0x40 ADD PUSH1 0x40 MSTORE DUP1 PUSH32 0x1BBC2288469BCEE3F68E84DEE9B37B42D6170E0FE13BAE9E9AD7533EF51D0E6B DUP2 MSTORE PUSH1 0x20 ADD PUSH32 0xB699E3E8F4C9081E4CA6EC357938656E4672743692D8CA6C46C2276EC3BEACD DUP2 MSTORE POP DUP2 PUSH1 0x80 ADD MLOAD PUSH1 0x9 DUP2 MLOAD DUP2 LT PUSH2 0xA5E JUMPI PUSH2 0xA5D PUSH2 0x1788 JUMP JUMPDEST JUMPDEST PUSH1 0x20 MUL PUSH1 0x20 ADD ADD DUP2 SWAP1 MSTORE POP PUSH1 0x40 MLOAD DUP1 PUSH1 0x40 ADD PUSH1 0x40 MSTORE DUP1 PUSH32 0x104F36C1BD12A5EF51DDEF228954B3E83AAD23CCB1F62AE85A5BCDA689574F73 DUP2 MSTORE PUSH1 0x20 ADD PUSH32 0x1DA183CA55536270A093A0CAE171E4460B529D9A4D934AA2B5C560D1012A2403 DUP2 MSTORE POP DUP2 PUSH1 0x80 ADD MLOAD PUSH1 0xA DUP2 MLOAD DUP2 LT PUSH2 0xAD6 JUMPI PUSH2 0xAD5 PUSH2 0x1788 JUMP JUMPDEST JUMPDEST PUSH1 0x20 MUL PUSH1 0x20 ADD ADD DUP2 SWAP1 MSTORE POP PUSH1 0x40 MLOAD DUP1 PUSH1 0x40 ADD PUSH1 0x40 MSTORE DUP1 PUSH32 0x2FF01214AB73082C36227A00198362112A9B699F3BDB527F2B63AC16894FA44D DUP2 MSTORE PUSH1 0x20 ADD PUSH32 0x2E2AE1C36DF72CE92B54F3C43B8271C3C8BF9C6E77F6C52B96C56CF4D0B8BB86 DUP2 MSTORE POP DUP2 PUSH1 0x80 ADD MLOAD PUSH1 0xB DUP2 MLOAD DUP2 LT PUSH2 0xB4E JUMPI PUSH2 0xB4D PUSH2 0x1788 JUMP JUMPDEST JUMPDEST PUSH1 0x20 MUL PUSH1 0x20 ADD ADD DUP2 SWAP1 MSTORE POP PUSH1 0x40 MLOAD DUP1 PUSH1 0x40 ADD PUSH1 0x40 MSTORE DUP1 PUSH32 0x2A7DAC41610238196B131C0AB8B9BAE8E29516450C1D059A3E55047BC709A7DD DUP2 MSTORE PUSH1 0x20 ADD PUSH32 0x30601D27494F77EB029CC892A1B9BC46ADC00DE4D115C379D5FB5224DCC05B47 DUP2 MSTORE POP DUP2 PUSH1 0x80 ADD MLOAD PUSH1 0xC DUP2 MLOAD DUP2 LT PUSH2 0xBC6 JUMPI PUSH2 0xBC5 PUSH2 0x1788 JUMP JUMPDEST JUMPDEST PUSH1 0x20 MUL PUSH1 0x20 ADD ADD DUP2 SWAP1 MSTORE POP SWAP1 JUMP JUMPDEST PUSH2 0xBDC PUSH2 0x1323 JUMP JUMPDEST PUSH2 0xBE4 PUSH2 0x133B JUMP JUMPDEST DUP4 PUSH0 ADD MLOAD DUP2 PUSH0 PUSH1 0x3 DUP2 LT PUSH2 0xBFB JUMPI PUSH2 0xBFA PUSH2 0x1788 JUMP JUMPDEST JUMPDEST PUSH1 0x20 MUL ADD DUP2 DUP2 MSTORE POP POP DUP4 PUSH1 0x20 ADD MLOAD DUP2 PUSH1 0x1 PUSH1 0x3 DUP2 LT PUSH2 0xC1D JUMPI PUSH2 0xC1C PUSH2 0x1788 JUMP JUMPDEST JUMPDEST PUSH1 0x20 MUL ADD DUP2 DUP2 MSTORE POP POP DUP3 DUP2 PUSH1 0x2 PUSH1 0x3 DUP2 LT PUSH2 0xC3B JUMPI PUSH2 0xC3A PUSH2 0x1788 JUMP JUMPDEST JUMPDEST PUSH1 0x20 MUL ADD DUP2 DUP2 MSTORE POP POP PUSH0 PUSH1 0x60 DUP4 PUSH1 0x80 DUP5 PUSH1 0x7 PUSH2 0x7D0 GAS SUB STATICCALL SWAP1 POP DUP1 PUSH0 DUP2 SUB PUSH2 0xC5F JUMPI INVALID JUMPDEST POP DUP1 PUSH2 0xC69 JUMPI PUSH0 PUSH0 REVERT JUMPDEST POP POP SWAP3 SWAP2 POP POP JUMP JUMPDEST PUSH2 0xC79 PUSH2 0x1323 JUMP JUMPDEST PUSH2 0xC81 PUSH2 0x135D JUMP JUMPDEST DUP4 PUSH0 ADD MLOAD DUP2 PUSH0 PUSH1 0x4 DUP2 LT PUSH2 0xC98 JUMPI PUSH2 0xC97 PUSH2 0x1788 JUMP JUMPDEST JUMPDEST PUSH1 0x20 MUL ADD DUP2 DUP2 MSTORE POP POP DUP4 PUSH1 0x20 ADD MLOAD DUP2 PUSH1 0x1 PUSH1 0x4 DUP2 LT PUSH2 0xCBA JUMPI PUSH2 0xCB9 PUSH2 0x1788 JUMP JUMPDEST JUMPDEST PUSH1 0x20 MUL ADD DUP2 DUP2 MSTORE POP POP DUP3 PUSH0 ADD MLOAD DUP2 PUSH1 0x2 PUSH1 0x4 DUP2 LT PUSH2 0xCDB JUMPI PUSH2 0xCDA PUSH2 0x1788 JUMP JUMPDEST JUMPDEST PUSH1 0x20 MUL ADD DUP2 DUP2 MSTORE POP POP DUP3 PUSH1 0x20 ADD MLOAD DUP2 PUSH1 0x3 PUSH1 0x4 DUP2 LT PUSH2 0xCFD JUMPI PUSH2 0xCFC PUSH2 0x1788 JUMP JUMPDEST JUMPDEST PUSH1 0x20 MUL ADD DUP2 DUP2 MSTORE POP POP PUSH0 PUSH1 0x60 DUP4 PUSH1 0xC0 DUP5 PUSH1 0x6 PUSH2 0x7D0 GAS SUB STATICCALL SWAP1 POP DUP1 PUSH0 DUP2 SUB PUSH2 0xD21 JUMPI INVALID JUMPDEST POP DUP1 PUSH2 0xD2B JUMPI PUSH0 PUSH0 REVERT JUMPDEST POP POP SWAP3 SWAP2 POP POP JUMP JUMPDEST PUSH2 0xD3B PUSH2 0x1323 JUMP JUMPDEST PUSH0 PUSH32 0x30644E72E131A029B85045B68181585D97816A916871CA8D3C208C16D87CFD47 SWAP1 POP PUSH0 DUP4 PUSH0 ADD MLOAD EQ DUP1 ISZERO PUSH2 0xD74 JUMPI POP PUSH0 DUP4 PUSH1 0x20 ADD MLOAD EQ JUMPDEST ISZERO PUSH2 0xD96 JUMPI PUSH1 0x40 MLOAD DUP1 PUSH1 0x40 ADD PUSH1 0x40 MSTORE DUP1 PUSH0 DUP2 MSTORE PUSH1 0x20 ADD PUSH0 DUP2 MSTORE POP SWAP2 POP POP PUSH2 0xDCC JUMP JUMPDEST PUSH1 0x40 MLOAD DUP1 PUSH1 0x40 ADD PUSH1 0x40 MSTORE DUP1 DUP5 PUSH0 ADD MLOAD DUP2 MSTORE PUSH1 0x20 ADD DUP3 DUP6 PUSH1 0x20 ADD MLOAD PUSH2 0xDBA SWAP2 SWAP1 PUSH2 0x1842 JUMP JUMPDEST DUP4 PUSH2 0xDC5 SWAP2 SWAP1 PUSH2 0x1872 JUMP JUMPDEST DUP2 MSTORE POP SWAP2 POP POP JUMPDEST SWAP2 SWAP1 POP JUMP JUMPDEST PUSH0 PUSH0 PUSH1 0x4 PUSH8 0xFFFFFFFFFFFFFFFF DUP2 GT ISZERO PUSH2 0xDEE JUMPI PUSH2 0xDED PUSH2 0x140A JUMP JUMPDEST JUMPDEST PUSH1 0x40 MLOAD SWAP1 DUP1 DUP3 MSTORE DUP1 PUSH1 0x20 MUL PUSH1 0x20 ADD DUP3 ADD PUSH1 0x40 MSTORE DUP1 ISZERO PUSH2 0xE27 JUMPI DUP2 PUSH1 0x20 ADD JUMPDEST PUSH2 0xE14 PUSH2 0x1323 JUMP JUMPDEST DUP2 MSTORE PUSH1 0x20 ADD SWAP1 PUSH1 0x1 SWAP1 SUB SWAP1 DUP2 PUSH2 0xE0C JUMPI SWAP1 POP JUMPDEST POP SWAP1 POP PUSH0 PUSH1 0x4 PUSH8 0xFFFFFFFFFFFFFFFF DUP2 GT ISZERO PUSH2 0xE46 JUMPI PUSH2 0xE45 PUSH2 0x140A JUMP JUMPDEST JUMPDEST PUSH1 0x40 MLOAD SWAP1 DUP1 DUP3 MSTORE DUP1 PUSH1 0x20 MUL PUSH1 0x20 ADD DUP3 ADD PUSH1 0x40 MSTORE DUP1 ISZERO PUSH2 0xE7F JUMPI DUP2 PUSH1 0x20 ADD JUMPDEST PUSH2 0xE6C PUSH2 0x137F JUMP JUMPDEST DUP2 MSTORE PUSH1 0x20 ADD SWAP1 PUSH1 0x1 SWAP1 SUB SWAP1 DUP2 PUSH2 0xE64 JUMPI SWAP1 POP JUMPDEST POP SWAP1 POP DUP11 DUP3 PUSH0 DUP2 MLOAD DUP2 LT PUSH2 0xE96 JUMPI PUSH2 0xE95 PUSH2 0x1788 JUMP JUMPDEST JUMPDEST PUSH1 0x20 MUL PUSH1 0x20 ADD ADD DUP2 SWAP1 MSTORE POP DUP9 DUP3 PUSH1 0x1 DUP2 MLOAD DUP2 LT PUSH2 0xEB6 JUMPI PUSH2 0xEB5 PUSH2 0x1788 JUMP JUMPDEST JUMPDEST PUSH1 0x20 MUL PUSH1 0x20 ADD ADD DUP2 SWAP1 MSTORE POP DUP7 DUP3 PUSH1 0x2 DUP2 MLOAD DUP2 LT PUSH2 0xED6 JUMPI PUSH2 0xED5 PUSH2 0x1788 JUMP JUMPDEST JUMPDEST PUSH1 0x20 MUL PUSH1 0x20 ADD ADD DUP2 SWAP1 MSTORE POP DUP5 DUP3 PUSH1 0x3 DUP2 MLOAD DUP2 LT PUSH2 0xEF6 JUMPI PUSH2 0xEF5 PUSH2 0x1788 JUMP JUMPDEST JUMPDEST PUSH1 0x20 MUL PUSH1 0x20 ADD ADD DUP2 SWAP1 MSTORE POP DUP10 DUP2 PUSH0 DUP2 MLOAD DUP2 LT PUSH2 0xF15 JUMPI PUSH2 0xF14 PUSH2 0x1788 JUMP JUMPDEST JUMPDEST PUSH1 0x20 MUL PUSH1 0x20 ADD ADD DUP2 SWAP1 MSTORE POP DUP8 DUP2 PUSH1 0x1 DUP2 MLOAD DUP2 LT PUSH2 0xF35 JUMPI PUSH2 0xF34 PUSH2 0x1788 JUMP JUMPDEST JUMPDEST PUSH1 0x20 MUL PUSH1 0x20 ADD ADD DUP2 SWAP1 MSTORE POP DUP6 DUP2 PUSH1 0x2 DUP2 MLOAD DUP2 LT PUSH2 0xF55 JUMPI PUSH2 0xF54 PUSH2 0x1788 JUMP JUMPDEST JUMPDEST PUSH1 0x20 MUL PUSH1 0x20 ADD ADD DUP2 SWAP1 MSTORE POP DUP4 DUP2 PUSH1 0x3 DUP2 MLOAD DUP2 LT PUSH2 0xF75 JUMPI PUSH2 0xF74 PUSH2 0x1788 JUMP JUMPDEST JUMPDEST PUSH1 0x20 MUL PUSH1 0x20 ADD ADD DUP2 SWAP1 MSTORE POP PUSH2 0xF8A DUP3 DUP3 PUSH2 0xF9A JUMP JUMPDEST SWAP3 POP POP POP SWAP9 SWAP8 POP POP POP POP POP POP POP POP JUMP JUMPDEST PUSH0 DUP2 MLOAD DUP4 MLOAD EQ PUSH2 0xFA8 JUMPI PUSH0 PUSH0 REVERT JUMPDEST PUSH0 DUP4 MLOAD SWAP1 POP PUSH0 PUSH1 0x6 DUP3 PUSH2 0xFBB SWAP2 SWAP1 PUSH2 0x18A5 JUMP JUMPDEST SWAP1 POP PUSH0 DUP2 PUSH8 0xFFFFFFFFFFFFFFFF DUP2 GT ISZERO PUSH2 0xFD8 JUMPI PUSH2 0xFD7 PUSH2 0x140A JUMP JUMPDEST JUMPDEST PUSH1 0x40 MLOAD SWAP1 DUP1 DUP3 MSTORE DUP1 PUSH1 0x20 MUL PUSH1 0x20 ADD DUP3 ADD PUSH1 0x40 MSTORE DUP1 ISZERO PUSH2 0x1006 JUMPI DUP2 PUSH1 0x20 ADD PUSH1 0x20 DUP3 MUL DUP1 CALLDATASIZE DUP4 CALLDATACOPY DUP1 DUP3 ADD SWAP2 POP POP SWAP1 POP JUMPDEST POP SWAP1 POP PUSH0 PUSH0 SWAP1 POP JUMPDEST DUP4 DUP2 LT ISZERO PUSH2 0x1281 JUMPI DUP7 DUP2 DUP2 MLOAD DUP2 LT PUSH2 0x1029 JUMPI PUSH2 0x1028 PUSH2 0x1788 JUMP JUMPDEST JUMPDEST PUSH1 0x20 MUL PUSH1 0x20 ADD ADD MLOAD PUSH0 ADD MLOAD DUP3 PUSH0 PUSH1 0x6 DUP5 PUSH2 0x1043 SWAP2 SWAP1 PUSH2 0x18A5 JUMP JUMPDEST PUSH2 0x104D SWAP2 SWAP1 PUSH2 0x17E2 JUMP JUMPDEST DUP2 MLOAD DUP2 LT PUSH2 0x105E JUMPI PUSH2 0x105D PUSH2 0x1788 JUMP JUMPDEST JUMPDEST PUSH1 0x20 MUL PUSH1 0x20 ADD ADD DUP2 DUP2 MSTORE POP POP DUP7 DUP2 DUP2 MLOAD DUP2 LT PUSH2 0x107D JUMPI PUSH2 0x107C PUSH2 0x1788 JUMP JUMPDEST JUMPDEST PUSH1 0x20 MUL PUSH1 0x20 ADD ADD MLOAD PUSH1 0x20 ADD MLOAD DUP3 PUSH1 0x1 PUSH1 0x6 DUP5 PUSH2 0x1099 SWAP2 SWAP1 PUSH2 0x18A5 JUMP JUMPDEST PUSH2 0x10A3 SWAP2 SWAP1 PUSH2 0x17E2 JUMP JUMPDEST DUP2 MLOAD DUP2 LT PUSH2 0x10B4 JUMPI PUSH2 0x10B3 PUSH2 0x1788 JUMP JUMPDEST JUMPDEST PUSH1 0x20 MUL PUSH1 0x20 ADD ADD DUP2 DUP2 MSTORE POP POP DUP6 DUP2 DUP2 MLOAD DUP2 LT PUSH2 0x10D3 JUMPI PUSH2 0x10D2 PUSH2 0x1788 JUMP JUMPDEST JUMPDEST PUSH1 0x20 MUL PUSH1 0x20 ADD ADD MLOAD PUSH0 ADD MLOAD PUSH1 0x1 PUSH1 0x2 DUP2 LT PUSH2 0x10F1 JUMPI PUSH2 0x10F0 PUSH2 0x1788 JUMP JUMPDEST JUMPDEST PUSH1 0x20 MUL ADD MLOAD DUP3 PUSH1 0x2 PUSH1 0x6 DUP5 PUSH2 0x1106 SWAP2 SWAP1 PUSH2 0x18A5 JUMP JUMPDEST PUSH2 0x1110 SWAP2 SWAP1 PUSH2 0x17E2 JUMP JUMPDEST DUP2 MLOAD DUP2 LT PUSH2 0x1121 JUMPI PUSH2 0x1120 PUSH2 0x1788 JUMP JUMPDEST JUMPDEST PUSH1 0x20 MUL PUSH1 0x20 ADD ADD DUP2 DUP2 MSTORE POP POP DUP6 DUP2 DUP2 MLOAD DUP2 LT PUSH2 0x1140 JUMPI PUSH2 0x113F PUSH2 0x1788 JUMP JUMPDEST JUMPDEST PUSH1 0x20 MUL PUSH1 0x20 ADD ADD MLOAD PUSH0 ADD MLOAD PUSH0 PUSH1 0x2 DUP2 LT PUSH2 0x115D JUMPI PUSH2 0x115C PUSH2 0x1788 JUMP JUMPDEST JUMPDEST PUSH1 0x20 MUL ADD MLOAD DUP3 PUSH1 0x3 PUSH1 0x6 DUP5 PUSH2 0x1172 SWAP2 SWAP1 PUSH2 0x18A5 JUMP JUMPDEST PUSH2 0x117C SWAP2 SWAP1 PUSH2 0x17E2 JUMP JUMPDEST DUP2 MLOAD DUP2 LT PUSH2 0x118D JUMPI PUSH2 0x118C PUSH2 0x1788 JUMP JUMPDEST JUMPDEST PUSH1 0x20 MUL PUSH1 0x20 ADD ADD DUP2 DUP2 MSTORE POP POP DUP6 DUP2 DUP2 MLOAD DUP2 LT PUSH2 0x11AC JUMPI PUSH2 0x11AB PUSH2 0x1788 JUMP JUMPDEST JUMPDEST PUSH1 0x20 MUL PUSH1 0x20 ADD ADD MLOAD PUSH1 0x20 ADD MLOAD PUSH1 0x1 PUSH1 0x2 DUP2 LT PUSH2 0x11CB JUMPI PUSH2 0x11CA PUSH2 0x1788 JUMP JUMPDEST JUMPDEST PUSH1 0x20 MUL ADD MLOAD DUP3 PUSH1 0x4 PUSH1 0x6 DUP5 PUSH2 0x11E0 SWAP2 SWAP1 PUSH2 0x18A5 JUMP JUMPDEST PUSH2 0x11EA SWAP2 SWAP1 PUSH2 0x17E2 JUMP JUMPDEST DUP2 MLOAD DUP2 LT PUSH2 0x11FB JUMPI PUSH2 0x11FA PUSH2 0x1788 JUMP JUMPDEST JUMPDEST PUSH1 0x20 MUL PUSH1 0x20 ADD ADD DUP2 DUP2 MSTORE POP POP DUP6 DUP2 DUP2 MLOAD DUP2 LT PUSH2 0x121A JUMPI PUSH2 0x1219 PUSH2 0x1788 JUMP JUMPDEST JUMPDEST PUSH1 0x20 MUL PUSH1 0x20 ADD ADD MLOAD PUSH1 0x20 ADD MLOAD PUSH0 PUSH1 0x2 DUP2 LT PUSH2 0x1238 JUMPI PUSH2 0x1237 PUSH2 0x1788 JUMP JUMPDEST JUMPDEST PUSH1 0x20 MUL ADD MLOAD DUP3 PUSH1 0x5 PUSH1 0x6 DUP5 PUSH2 0x124D SWAP2 SWAP1 PUSH2 0x18A5 JUMP JUMPDEST PUSH2 0x1257 SWAP2 SWAP1 PUSH2 0x17E2 JUMP JUMPDEST DUP2 MLOAD DUP2 LT PUSH2 0x1268 JUMPI PUSH2 0x1267 PUSH2 0x1788 JUMP JUMPDEST JUMPDEST PUSH1 0x20 MUL PUSH1 0x20 ADD ADD DUP2 DUP2 MSTORE POP POP DUP1 DUP1 PUSH1 0x1 ADD SWAP2 POP POP PUSH2 0x100E JUMP JUMPDEST POP PUSH2 0x128A PUSH2 0x13A5 JUMP JUMPDEST PUSH0 PUSH1 0x20 DUP3 PUSH1 0x20 DUP7 MUL PUSH1 0x20 DUP7 ADD PUSH1 0x8 PUSH2 0x7D0 GAS SUB STATICCALL SWAP1 POP DUP1 PUSH0 DUP2 SUB PUSH2 0x12AA JUMPI INVALID JUMPDEST POP DUP1 PUSH2 0x12B4 JUMPI PUSH0 PUSH0 REVERT JUMPDEST PUSH0 DUP3 PUSH0 PUSH1 0x1 DUP2 LT PUSH2 0x12C8 JUMPI PUSH2 0x12C7 PUSH2 0x1788 JUMP JUMPDEST JUMPDEST PUSH1 0x20 MUL ADD MLOAD EQ ISZERO SWAP6 POP POP POP POP POP POP SWAP3 SWAP2 POP POP JUMP JUMPDEST PUSH1 0x40 MLOAD DUP1 PUSH1 0xA0 ADD PUSH1 0x40 MSTORE DUP1 PUSH2 0x12EF PUSH2 0x1323 JUMP JUMPDEST DUP2 MSTORE PUSH1 0x20 ADD PUSH2 0x12FC PUSH2 0x137F JUMP JUMPDEST DUP2 MSTORE PUSH1 0x20 ADD PUSH2 0x1309 PUSH2 0x137F JUMP JUMPDEST DUP2 MSTORE PUSH1 0x20 ADD PUSH2 0x1316 PUSH2 0x137F JUMP JUMPDEST DUP2 MSTORE PUSH1 0x20 ADD PUSH1 0x60 DUP2 MSTORE POP SWAP1 JUMP JUMPDEST PUSH1 0x40 MLOAD DUP1 PUSH1 0x40 ADD PUSH1 0x40 MSTORE DUP1 PUSH0 DUP2 MSTORE PUSH1 0x20 ADD PUSH0 DUP2 MSTORE POP SWAP1 JUMP JUMPDEST PUSH1 0x40 MLOAD DUP1 PUSH1 0x60 ADD PUSH1 0x40 MSTORE DUP1 PUSH1 0x3 SWAP1 PUSH1 0x20 DUP3 MUL DUP1 CALLDATASIZE DUP4 CALLDATACOPY DUP1 DUP3 ADD SWAP2 POP POP SWAP1 POP POP SWAP1 JUMP JUMPDEST PUSH1 0x40 MLOAD DUP1 PUSH1 0x80 ADD PUSH1 0x40 MSTORE DUP1 PUSH1 0x4 SWAP1 PUSH1 0x20 DUP3 MUL DUP1 CALLDATASIZE DUP4 CALLDATACOPY DUP1 DUP3 ADD SWAP2 POP POP SWAP1 POP POP SWAP1 JUMP JUMPDEST PUSH1 0x40 MLOAD DUP1 PUSH1 0x40 ADD PUSH1 0x40 MSTORE DUP1 PUSH2 0x1392 PUSH2 0x13C7 JUMP JUMPDEST DUP2 MSTORE PUSH1 0x20 ADD PUSH2 0x139F PUSH2 0x13C7 JUMP JUMPDEST DUP2 MSTORE POP SWAP1 JUMP JUMPDEST PUSH1 0x40 MLOAD DUP1 PUSH1 0x20 ADD PUSH1 0x40 MSTORE DUP1 PUSH1 0x1 SWAP1 PUSH1 0x20 DUP3 MUL DUP1 CALLDATASIZE DUP4 CALLDATACOPY DUP1 DUP3 ADD SWAP2 POP POP SWAP1 POP POP SWAP1 JUMP JUMPDEST PUSH1 0x40 MLOAD DUP1 PUSH1 0x40 ADD PUSH1 0x40 MSTORE DUP1 PUSH1 0x2 SWAP1 PUSH1 0x20 DUP3 MUL DUP1 CALLDATASIZE DUP4 CALLDATACOPY DUP1 DUP3 ADD SWAP2 POP POP SWAP1 POP POP SWAP1 JUMP JUMPDEST PUSH0 PUSH1 0x40 MLOAD SWAP1 POP SWAP1 JUMP JUMPDEST PUSH0 PUSH0 REVERT JUMPDEST PUSH0 PUSH0 REVERT JUMPDEST PUSH0 PUSH1 0x1F NOT PUSH1 0x1F DUP4 ADD AND SWAP1 POP SWAP2 SWAP1 POP JUMP JUMPDEST PUSH32 0x4E487B7100000000000000000000000000000000000000000000000000000000 PUSH0 MSTORE PUSH1 0x41 PUSH1 0x4 MSTORE PUSH1 0x24 PUSH0 REVERT JUMPDEST PUSH2 0x1440 DUP3 PUSH2 0x13FA JUMP JUMPDEST DUP2 ADD DUP2 DUP2 LT PUSH8 0xFFFFFFFFFFFFFFFF DUP3 GT OR ISZERO PUSH2 0x145F JUMPI PUSH2 0x145E PUSH2 0x140A JUMP JUMPDEST JUMPDEST DUP1 PUSH1 0x40 MSTORE POP POP POP JUMP JUMPDEST PUSH0 PUSH2 0x1471 PUSH2 0x13E9 JUMP JUMPDEST SWAP1 POP PUSH2 0x147D DUP3 DUP3 PUSH2 0x1437 JUMP JUMPDEST SWAP2 SWAP1 POP JUMP JUMPDEST PUSH0 DUP2 SWAP1 POP SWAP2 SWAP1 POP JUMP JUMPDEST PUSH2 0x1494 DUP2 PUSH2 0x1482 JUMP JUMPDEST DUP2 EQ PUSH2 0x149E JUMPI PUSH0 PUSH0 REVERT JUMPDEST POP JUMP JUMPDEST PUSH0 DUP2 CALLDATALOAD SWAP1 POP PUSH2 0x14AF DUP2 PUSH2 0x148B JUMP JUMPDEST SWAP3 SWAP2 POP POP JUMP JUMPDEST PUSH0 PUSH1 0x40 DUP3 DUP5 SUB SLT ISZERO PUSH2 0x14CA JUMPI PUSH2 0x14C9 PUSH2 0x13F6 JUMP JUMPDEST JUMPDEST PUSH2 0x14D4 PUSH1 0x40 PUSH2 0x1468 JUMP JUMPDEST SWAP1 POP PUSH0 PUSH2 0x14E3 DUP5 DUP3 DUP6 ADD PUSH2 0x14A1 JUMP JUMPDEST PUSH0 DUP4 ADD MSTORE POP PUSH1 0x20 PUSH2 0x14F6 DUP5 DUP3 DUP6 ADD PUSH2 0x14A1 JUMP JUMPDEST PUSH1 0x20 DUP4 ADD MSTORE POP SWAP3 SWAP2 POP POP JUMP JUMPDEST PUSH0 PUSH0 REVERT JUMPDEST PUSH0 PUSH8 0xFFFFFFFFFFFFFFFF DUP3 GT ISZERO PUSH2 0x1520 JUMPI PUSH2 0x151F PUSH2 0x140A JUMP JUMPDEST JUMPDEST PUSH1 0x20 DUP3 MUL SWAP1 POP SWAP2 SWAP1 POP JUMP JUMPDEST PUSH0 PUSH0 REVERT JUMPDEST PUSH0 PUSH2 0x1541 PUSH2 0x153C DUP5 PUSH2 0x1506 JUMP JUMPDEST PUSH2 0x1468 JUMP JUMPDEST SWAP1 POP DUP1 PUSH1 0x20 DUP5 MUL DUP4 ADD DUP6 DUP2 GT ISZERO PUSH2 0x155B JUMPI PUSH2 0x155A PUSH2 0x152B JUMP JUMPDEST JUMPDEST DUP4 JUMPDEST DUP2 DUP2 LT ISZERO PUSH2 0x1584 JUMPI DUP1 PUSH2 0x1570 DUP9 DUP3 PUSH2 0x14A1 JUMP JUMPDEST DUP5 MSTORE PUSH1 0x20 DUP5 ADD SWAP4 POP POP PUSH1 0x20 DUP2 ADD SWAP1 POP PUSH2 0x155D JUMP JUMPDEST POP POP POP SWAP4 SWAP3 POP POP POP JUMP JUMPDEST PUSH0 DUP3 PUSH1 0x1F DUP4 ADD SLT PUSH2 0x15A2 JUMPI PUSH2 0x15A1 PUSH2 0x1502 JUMP JUMPDEST JUMPDEST PUSH1 0x2 PUSH2 0x15AF DUP5 DUP3 DUP6 PUSH2 0x152F JUMP JUMPDEST SWAP2 POP POP SWAP3 SWAP2 POP POP JUMP JUMPDEST PUSH0 PUSH1 0x80 DUP3 DUP5 SUB SLT ISZERO PUSH2 0x15CD JUMPI PUSH2 0x15CC PUSH2 0x13F6 JUMP JUMPDEST JUMPDEST PUSH2 0x15D7 PUSH1 0x40 PUSH2 0x1468 JUMP JUMPDEST SWAP1 POP PUSH0 PUSH2 0x15E6 DUP5 DUP3 DUP6 ADD PUSH2 0x158E JUMP JUMPDEST PUSH0 DUP4 ADD MSTORE POP PUSH1 0x40 PUSH2 0x15F9 DUP5 DUP3 DUP6 ADD PUSH2 0x158E JUMP JUMPDEST PUSH1 0x20 DUP4 ADD MSTORE POP SWAP3 SWAP2 POP POP JUMP JUMPDEST PUSH0 PUSH2 0x100 DUP3 DUP5 SUB SLT ISZERO PUSH2 0x161B JUMPI PUSH2 0x161A PUSH2 0x13F6 JUMP JUMPDEST JUMPDEST PUSH2 0x1625 PUSH1 0x60 PUSH2 0x1468 JUMP JUMPDEST SWAP1 POP PUSH0 PUSH2 0x1634 DUP5 DUP3 DUP6 ADD PUSH2 0x14B5 JUMP JUMPDEST PUSH0 DUP4 ADD MSTORE POP PUSH1 0x40 PUSH2 0x1647 DUP5 DUP3 DUP6 ADD PUSH2 0x15B8 JUMP JUMPDEST PUSH1 0x20 DUP4 ADD MSTORE POP PUSH1 0xC0 PUSH2 0x165B DUP5 DUP3 DUP6 ADD PUSH2 0x14B5 JUMP JUMPDEST PUSH1 0x40 DUP4 ADD MSTORE POP SWAP3 SWAP2 POP POP JUMP JUMPDEST PUSH0 PUSH8 0xFFFFFFFFFFFFFFFF DUP3 GT ISZERO PUSH2 0x1681 JUMPI PUSH2 0x1680 PUSH2 0x140A JUMP JUMPDEST JUMPDEST PUSH1 0x20 DUP3 MUL SWAP1 POP SWAP2 SWAP1 POP JUMP JUMPDEST PUSH0 PUSH2 0x169E PUSH2 0x1699 DUP5 PUSH2 0x1667 JUMP JUMPDEST PUSH2 0x1468 JUMP JUMPDEST SWAP1 POP DUP1 PUSH1 0x20 DUP5 MUL DUP4 ADD DUP6 DUP2 GT ISZERO PUSH2 0x16B8 JUMPI PUSH2 0x16B7 PUSH2 0x152B JUMP JUMPDEST JUMPDEST DUP4 JUMPDEST DUP2 DUP2 LT ISZERO PUSH2 0x16E1 JUMPI DUP1 PUSH2 0x16CD DUP9 DUP3 PUSH2 0x14A1 JUMP JUMPDEST DUP5 MSTORE PUSH1 0x20 DUP5 ADD SWAP4 POP POP PUSH1 0x20 DUP2 ADD SWAP1 POP PUSH2 0x16BA JUMP JUMPDEST POP POP POP SWAP4 SWAP3 POP POP POP JUMP JUMPDEST PUSH0 DUP3 PUSH1 0x1F DUP4 ADD SLT PUSH2 0x16FF JUMPI PUSH2 0x16FE PUSH2 0x1502 JUMP JUMPDEST JUMPDEST PUSH1 0xC PUSH2 0x170C DUP5 DUP3 DUP6 PUSH2 0x168C JUMP JUMPDEST SWAP2 POP POP SWAP3 SWAP2 POP POP JUMP JUMPDEST PUSH0 PUSH0 PUSH2 0x280 DUP4 DUP6 SUB SLT ISZERO PUSH2 0x172C JUMPI PUSH2 0x172B PUSH2 0x13F2 JUMP JUMPDEST JUMPDEST PUSH0 PUSH2 0x1739 DUP6 DUP3 DUP7 ADD PUSH2 0x1605 JUMP JUMPDEST SWAP3 POP POP PUSH2 0x100 PUSH2 0x174B DUP6 DUP3 DUP7 ADD PUSH2 0x16EB JUMP JUMPDEST SWAP2 POP POP SWAP3 POP SWAP3 SWAP1 POP JUMP JUMPDEST PUSH0 DUP2 ISZERO ISZERO SWAP1 POP SWAP2 SWAP1 POP JUMP JUMPDEST PUSH2 0x1769 DUP2 PUSH2 0x1755 JUMP JUMPDEST DUP3 MSTORE POP POP JUMP JUMPDEST PUSH0 PUSH1 0x20 DUP3 ADD SWAP1 POP PUSH2 0x1782 PUSH0 DUP4 ADD DUP5 PUSH2 0x1760 JUMP JUMPDEST SWAP3 SWAP2 POP POP JUMP JUMPDEST PUSH32 0x4E487B7100000000000000000000000000000000000000000000000000000000 PUSH0 MSTORE PUSH1 0x32 PUSH1 0x4 MSTORE PUSH1 0x24 PUSH0 REVERT JUMPDEST PUSH32 0x4E487B7100000000000000000000000000000000000000000000000000000000 PUSH0 MSTORE PUSH1 0x11 PUSH1 0x4 MSTORE PUSH1 0x24 PUSH0 REVERT JUMPDEST PUSH0 PUSH2 0x17EC DUP3 PUSH2 0x1482 JUMP JUMPDEST SWAP2 POP PUSH2 0x17F7 DUP4 PUSH2 0x1482 JUMP JUMPDEST SWAP3 POP DUP3 DUP3 ADD SWAP1 POP DUP1 DUP3 GT ISZERO PUSH2 0x180F JUMPI PUSH2 0x180E PUSH2 0x17B5 JUMP JUMPDEST JUMPDEST SWAP3 SWAP2 POP POP JUMP JUMPDEST PUSH32 0x4E487B7100000000000000000000000000000000000000000000000000000000 PUSH0 MSTORE PUSH1 0x12 PUSH1 0x4 MSTORE PUSH1 0x24 PUSH0 REVERT JUMPDEST PUSH0 PUSH2 0x184C DUP3 PUSH2 0x1482 JUMP JUMPDEST SWAP2 POP PUSH2 0x1857 DUP4 PUSH2 0x1482 JUMP JUMPDEST SWAP3 POP DUP3 PUSH2 0x1867 JUMPI PUSH2 0x1866 PUSH2 0x1815 JUMP JUMPDEST JUMPDEST DUP3 DUP3 MOD SWAP1 POP SWAP3 SWAP2 POP POP JUMP JUMPDEST PUSH0 PUSH2 0x187C DUP3 PUSH2 0x1482 JUMP JUMPDEST SWAP2 POP PUSH2 0x1887 DUP4 PUSH2 0x1482 JUMP JUMPDEST SWAP3 POP DUP3 DUP3 SUB SWAP1 POP DUP2 DUP2 GT ISZERO PUSH2 0x189F JUMPI PUSH2 0x189E PUSH2 0x17B5 JUMP JUMPDEST JUMPDEST SWAP3 SWAP2 POP POP JUMP JUMPDEST PUSH0 PUSH2 0x18AF DUP3 PUSH2 0x1482 JUMP JUMPDEST SWAP2 POP PUSH2 0x18BA DUP4 PUSH2 0x1482 JUMP JUMPDEST SWAP3 POP DUP3 DUP3 MUL PUSH2 0x18C8 DUP2 PUSH2 0x1482 JUMP JUMPDEST SWAP2 POP DUP3 DUP3 DIV DUP5 EQ DUP4 ISZERO OR PUSH2 0x18DF JUMPI PUSH2 0x18DE PUSH2 0x17B5 JUMP JUMPDEST JUMPDEST POP SWAP3 SWAP2 POP POP JUMP INVALID LOG2 PUSH5 0x6970667358 0x22 SLT KECCAK256 AND SELFBALANCE 0x25 NOT ISZERO SWAP9 RETURNDATASIZE 0xC PUSH27 0x96E3BF1772B670B273DD4E96E0B7DA52F6D067B8F7AABC64736F6C PUSH4 0x4300081E STOP CALLER "
				},
				"gasEstimates": {
					"creation": {
						"codeDepositCost": "1285600",
						"executionCost": "1333",
						"totalCost": "1286933"
					},
					"external": {
						"verifyTx(((uint256,uint256),(uint256[2],uint256[2]),(uint256,uint256)),uint256[12])": "infinite"
					},
					"internal": {
						"verify(uint256[] memory,struct VerifierVoto.Proof memory)": "infinite",
						"verifyingKey()": "infinite"
					}
				},
				"methodIdentifiers": {
					"verifyTx(((uint256,uint256),(uint256[2],uint256[2]),(uint256,uint256)),uint256[12])": "66670599"
				}
			},
			"storageLayout": {
				"storage": [],
				"types": null
			},
			"userdoc": {
				"kind": "user",
				"methods": {},
				"version": 1
			}
		}
	}
}