{
	"TP FINAL/VotingSystem.sol": {
		"VotingSystem": {
			"abi": [
				{
					"inputs": [
						{
							"internalType": "uint256",
							"name": "_root",
							"type": "uint256"
						}
					],
					"stateMutability": "nonpayable",
					"type": "constructor"
				},
				{
					"anonymous": false,
					"inputs": [
						{
							"indexed": false,
							"internalType": "uint256",
							"name": "votes0",
							"type": "uint256"
						},
						{
							"indexed": false,
							"internalType": "uint256",
							"name": "votes1",
							"type": "uint256"
						}
					],
					"name": "ResultsPublished",
					"type": "event"
				},
				{
					"anonymous": false,
					"inputs": [
						{
							"indexed": false,
							"internalType": "uint256[2]",
							"name": "c1",
							"type": "uint256[2]"
						},
						{
							"indexed": false,
							"internalType": "uint256[2]",
							"name": "c2",
							"type": "uint256[2]"
						},
						{
							"indexed": false,
							"internalType": "uint256",
							"name": "nullifier",
							"type": "uint256"
						}
					],
					"name": "VoteEmitted",
					"type": "event"
				},
				{
					"inputs": [],
					"name": "closeElection",
					"outputs": [],
					"stateMutability": "nonpayable",
					"type": "function"
				},
				{
					"inputs": [],
					"name": "electionOpen",
					"outputs": [
						{
							"internalType": "bool",
							"name": "",
							"type": "bool"
						}
					],
					"stateMutability": "view",
					"type": "function"
				},
				{
					"inputs": [
						{
							"internalType": "uint256",
							"name": "",
							"type": "uint256"
						}
					],
					"name": "nullifierUsed",
					"outputs": [
						{
							"internalType": "bool",
							"name": "",
							"type": "bool"
						}
					],
					"stateMutability": "view",
					"type": "function"
				},
				{
					"inputs": [],
					"name": "owner",
					"outputs": [
						{
							"internalType": "address",
							"name": "",
							"type": "address"
						}
					],
					"stateMutability": "view",
					"type": "function"
				},
				{
					"inputs": [],
					"name": "publishResults",
					"outputs": [],
					"stateMutability": "nonpayable",
					"type": "function"
				},
				{
					"inputs": [
						{
							"components": [
								{
									"components": [
										{
											"internalType": "uint256",
											"name": "X",
											"type": "uint256"
										},
										{
											"internalType": "uint256",
											"name": "Y",
											"type": "uint256"
										}
									],
									"internalType": "struct Pairing.G1Point",
									"name": "a",
									"type": "tuple"
								},
								{
									"components": [
										{
											"internalType": "uint256[2]",
											"name": "X",
											"type": "uint256[2]"
										},
										{
											"internalType": "uint256[2]",
											"name": "Y",
											"type": "uint256[2]"
										}
									],
									"internalType": "struct Pairing.G2Point",
									"name": "b",
									"type": "tuple"
								},
								{
									"components": [
										{
											"internalType": "uint256",
											"name": "X",
											"type": "uint256"
										},
										{
											"internalType": "uint256",
											"name": "Y",
											"type": "uint256"
										}
									],
									"internalType": "struct Pairing.G1Point",
									"name": "c",
									"type": "tuple"
								}
							],
							"internalType": "struct Verifier.Proof",
							"name": "proof",
							"type": "tuple"
						},
						{
							"internalType": "uint256[4]",
							"name": "publicInputs",
							"type": "uint256[4]"
						},
						{
							"internalType": "uint256",
							"name": "nullifier",
							"type": "uint256"
						},
						{
							"internalType": "bool",
							"name": "vote",
							"type": "bool"
						}
					],
					"name": "registerVote",
					"outputs": [],
					"stateMutability": "nonpayable",
					"type": "function"
				},
				{
					"inputs": [],
					"name": "root",
					"outputs": [
						{
							"internalType": "uint256",
							"name": "",
							"type": "uint256"
						}
					],
					"stateMutability": "view",
					"type": "function"
				},
				{
					"inputs": [
						{
							"components": [
								{
									"components": [
										{
											"internalType": "uint256",
											"name": "X",
											"type": "uint256"
										},
										{
											"internalType": "uint256",
											"name": "Y",
											"type": "uint256"
										}
									],
									"internalType": "struct Pairing.G1Point",
									"name": "a",
									"type": "tuple"
								},
								{
									"components": [
										{
											"internalType": "uint256[2]",
											"name": "X",
											"type": "uint256[2]"
										},
										{
											"internalType": "uint256[2]",
											"name": "Y",
											"type": "uint256[2]"
										}
									],
									"internalType": "struct Pairing.G2Point",
									"name": "b",
									"type": "tuple"
								},
								{
									"components": [
										{
											"internalType": "uint256",
											"name": "X",
											"type": "uint256"
										},
										{
											"internalType": "uint256",
											"name": "Y",
											"type": "uint256"
										}
									],
									"internalType": "struct Pairing.G1Point",
									"name": "c",
									"type": "tuple"
								}
							],
							"internalType": "struct Verifier.Proof",
							"name": "proof",
							"type": "tuple"
						},
						{
							"internalType": "uint256[4]",
							"name": "input",
							"type": "uint256[4]"
						}
					],
					"name": "verifyTx",
					"outputs": [
						{
							"internalType": "bool",
							"name": "r",
							"type": "bool"
						}
					],
					"stateMutability": "view",
					"type": "function"
				},
				{
					"inputs": [],
					"name": "votes0",
					"outputs": [
						{
							"internalType": "uint256",
							"name": "",
							"type": "uint256"
						}
					],
					"stateMutability": "view",
					"type": "function"
				},
				{
					"inputs": [],
					"name": "votes1",
					"outputs": [
						{
							"internalType": "uint256",
							"name": "",
							"type": "uint256"
						}
					],
					"stateMutability": "view",
					"type": "function"
				}
			],
			"devdoc": {
				"kind": "dev",
				"methods": {},
				"version": 1
			},
			"evm": {
				"assembly": "    /* \"TP FINAL/VotingSystem.sol\":55:2000  contract VotingSystem is Verifier {... */\n  mstore(0x40, 0x80)\n    /* \"TP FINAL/VotingSystem.sol\":152:156  true */\n  0x01\n    /* \"TP FINAL/VotingSystem.sol\":125:156  bool public electionOpen = true */\n  0x00\n  exp(0x0100, 0x14)\n  dup2\n  sload\n  dup2\n  0xff\n  mul\n  not\n  and\n  swap1\n  dup4\n  iszero\n  iszero\n  mul\n  or\n  swap1\n  sstore\n  pop\n    /* \"TP FINAL/VotingSystem.sol\":547:634  constructor(uint256 _root) {... */\n  callvalue\n  dup1\n  iszero\n  tag_1\n  jumpi\n  revert(0x00, 0x00)\ntag_1:\n  pop\n  mload(0x40)\n  sub(codesize, bytecodeSize)\n  dup1\n  bytecodeSize\n  dup4\n  codecopy\n  dup2\n  dup2\n  add\n  0x40\n  mstore\n  dup2\n  add\n  swap1\n  tag_2\n  swap2\n  swap1\n  tag_3\n  jump\t// in\ntag_2:\n    /* \"TP FINAL/VotingSystem.sol\":593:603  msg.sender */\n  caller\n    /* \"TP FINAL/VotingSystem.sol\":585:590  owner */\n  0x00\n  0x00\n    /* \"TP FINAL/VotingSystem.sol\":585:603  owner = msg.sender */\n  0x0100\n  exp\n  dup2\n  sload\n  dup2\n  0xffffffffffffffffffffffffffffffffffffffff\n  mul\n  not\n  and\n  swap1\n  dup4\n  0xffffffffffffffffffffffffffffffffffffffff\n  and\n  mul\n  or\n  swap1\n  sstore\n  pop\n    /* \"TP FINAL/VotingSystem.sol\":621:626  _root */\n  dup1\n    /* \"TP FINAL/VotingSystem.sol\":614:618  root */\n  0x01\n    /* \"TP FINAL/VotingSystem.sol\":614:626  root = _root */\n  dup2\n  swap1\n  sstore\n  pop\n    /* \"TP FINAL/VotingSystem.sol\":547:634  constructor(uint256 _root) {... */\n  pop\n    /* \"TP FINAL/VotingSystem.sol\":55:2000  contract VotingSystem is Verifier {... */\n  jump(tag_6)\n    /* \"#utility.yul\":88:205   */\ntag_8:\n    /* \"#utility.yul\":197:198   */\n  0x00\n    /* \"#utility.yul\":194:195   */\n  0x00\n    /* \"#utility.yul\":187:199   */\n  revert\n    /* \"#utility.yul\":334:411   */\ntag_10:\n    /* \"#utility.yul\":371:378   */\n  0x00\n    /* \"#utility.yul\":400:405   */\n  dup2\n    /* \"#utility.yul\":389:405   */\n  swap1\n  pop\n    /* \"#utility.yul\":334:411   */\n  swap2\n  swap1\n  pop\n  jump\t// out\n    /* \"#utility.yul\":417:539   */\ntag_11:\n    /* \"#utility.yul\":490:514   */\n  tag_19\n    /* \"#utility.yul\":508:513   */\n  dup2\n    /* \"#utility.yul\":490:514   */\n  tag_10\n  jump\t// in\ntag_19:\n    /* \"#utility.yul\":483:488   */\n  dup2\n    /* \"#utility.yul\":480:515   */\n  eq\n    /* \"#utility.yul\":470:533   */\n  tag_20\n  jumpi\n    /* \"#utility.yul\":529:530   */\n  0x00\n    /* \"#utility.yul\":526:527   */\n  0x00\n    /* \"#utility.yul\":519:531   */\n  revert\n    /* \"#utility.yul\":470:533   */\ntag_20:\n    /* \"#utility.yul\":417:539   */\n  pop\n  jump\t// out\n    /* \"#utility.yul\":545:688   */\ntag_12:\n    /* \"#utility.yul\":602:607   */\n  0x00\n    /* \"#utility.yul\":633:639   */\n  dup2\n    /* \"#utility.yul\":627:640   */\n  mload\n    /* \"#utility.yul\":618:640   */\n  swap1\n  pop\n    /* \"#utility.yul\":649:682   */\n  tag_22\n    /* \"#utility.yul\":676:681   */\n  dup2\n    /* \"#utility.yul\":649:682   */\n  tag_11\n  jump\t// in\ntag_22:\n    /* \"#utility.yul\":545:688   */\n  swap3\n  swap2\n  pop\n  pop\n  jump\t// out\n    /* \"#utility.yul\":694:1045   */\ntag_3:\n    /* \"#utility.yul\":764:770   */\n  0x00\n    /* \"#utility.yul\":813:815   */\n  0x20\n    /* \"#utility.yul\":801:810   */\n  dup3\n    /* \"#utility.yul\":792:799   */\n  dup5\n    /* \"#utility.yul\":788:811   */\n  sub\n    /* \"#utility.yul\":784:816   */\n  slt\n    /* \"#utility.yul\":781:900   */\n  iszero\n  tag_24\n  jumpi\n    /* \"#utility.yul\":819:898   */\n  tag_25\n  tag_8\n  jump\t// in\ntag_25:\n    /* \"#utility.yul\":781:900   */\ntag_24:\n    /* \"#utility.yul\":939:940   */\n  0x00\n    /* \"#utility.yul\":964:1028   */\n  tag_26\n    /* \"#utility.yul\":1020:1027   */\n  dup5\n    /* \"#utility.yul\":1011:1017   */\n  dup3\n    /* \"#utility.yul\":1000:1009   */\n  dup6\n    /* \"#utility.yul\":996:1018   */\n  add\n    /* \"#utility.yul\":964:1028   */\n  tag_12\n  jump\t// in\ntag_26:\n    /* \"#utility.yul\":954:1028   */\n  swap2\n  pop\n    /* \"#utility.yul\":910:1038   */\n  pop\n    /* \"#utility.yul\":694:1045   */\n  swap3\n  swap2\n  pop\n  pop\n  jump\t// out\n    /* \"TP FINAL/VotingSystem.sol\":55:2000  contract VotingSystem is Verifier {... */\ntag_6:\n  dataSize(sub_0)\n  dup1\n  dataOffset(sub_0)\n  0x00\n  codecopy\n  0x00\n  return\nstop\n\nsub_0: assembly {\n        /* \"TP FINAL/VotingSystem.sol\":55:2000  contract VotingSystem is Verifier {... */\n      mstore(0x40, 0x80)\n      callvalue\n      dup1\n      iszero\n      tag_1\n      jumpi\n      revert(0x00, 0x00)\n    tag_1:\n      pop\n      jumpi(tag_2, lt(calldatasize, 0x04))\n      shr(0xe0, calldataload(0x00))\n      dup1\n      0x79f95ee9\n      gt\n      tag_13\n      jumpi\n      dup1\n      0x79f95ee9\n      eq\n      tag_8\n      jumpi\n      dup1\n      0x8da5cb5b\n      eq\n      tag_9\n      jumpi\n      dup1\n      0x9aa69136\n      eq\n      tag_10\n      jumpi\n      dup1\n      0xb952e7d8\n      eq\n      tag_11\n      jumpi\n      dup1\n      0xebf0c717\n      eq\n      tag_12\n      jumpi\n      jump(tag_2)\n    tag_13:\n      dup1\n      0x1327e258\n      eq\n      tag_3\n      jumpi\n      dup1\n      0x249f66c6\n      eq\n      tag_4\n      jumpi\n      dup1\n      0x4a39d442\n      eq\n      tag_5\n      jumpi\n      dup1\n      0x6c6c32d0\n      eq\n      tag_6\n      jumpi\n      dup1\n      0x799afa76\n      eq\n      tag_7\n      jumpi\n    tag_2:\n      revert(0x00, 0x00)\n        /* \"TP FINAL/VotingSystem.sol\":265:286  uint256 public votes1 */\n    tag_3:\n      tag_14\n      tag_15\n      jump\t// in\n    tag_14:\n      mload(0x40)\n      tag_16\n      swap2\n      swap1\n      tag_17\n      jump\t// in\n    tag_16:\n      mload(0x40)\n      dup1\n      swap2\n      sub\n      swap1\n      return\n        /* \"TP FINAL/VotingSystem.sol\":739:1475  function registerVote(... */\n    tag_4:\n      tag_18\n      0x04\n      dup1\n      calldatasize\n      sub\n      dup2\n      add\n      swap1\n      tag_19\n      swap2\n      swap1\n      tag_20\n      jump\t// in\n    tag_19:\n      tag_21\n      jump\t// in\n    tag_18:\n      stop\n        /* \"TP FINAL/VotingSystem.sol\":125:156  bool public electionOpen = true */\n    tag_5:\n      tag_22\n      tag_23\n      jump\t// in\n    tag_22:\n      mload(0x40)\n      tag_24\n      swap2\n      swap1\n      tag_25\n      jump\t// in\n    tag_24:\n      mload(0x40)\n      dup1\n      swap2\n      sub\n      swap1\n      return\n        /* \"TP FINAL/VotingSystem.sol\":1570:1696  function closeElection() external {... */\n    tag_6:\n      tag_26\n      tag_27\n      jump\t// in\n    tag_26:\n      stop\n        /* \"TP FINAL/verifier.sol\":9857:10257  function verifyTx(... */\n    tag_7:\n      tag_28\n      0x04\n      dup1\n      calldatasize\n      sub\n      dup2\n      add\n      swap1\n      tag_29\n      swap2\n      swap1\n      tag_30\n      jump\t// in\n    tag_29:\n      tag_31\n      jump\t// in\n    tag_28:\n      mload(0x40)\n      tag_32\n      swap2\n      swap1\n      tag_25\n      jump\t// in\n    tag_32:\n      mload(0x40)\n      dup1\n      swap2\n      sub\n      swap1\n      return\n        /* \"TP FINAL/VotingSystem.sol\":321:366  mapping(uint256 => bool) public nullifierUsed */\n    tag_8:\n      tag_33\n      0x04\n      dup1\n      calldatasize\n      sub\n      dup2\n      add\n      swap1\n      tag_34\n      swap2\n      swap1\n      tag_35\n      jump\t// in\n    tag_34:\n      tag_36\n      jump\t// in\n    tag_33:\n      mload(0x40)\n      tag_37\n      swap2\n      swap1\n      tag_25\n      jump\t// in\n    tag_37:\n      mload(0x40)\n      dup1\n      swap2\n      sub\n      swap1\n      return\n        /* \"TP FINAL/VotingSystem.sol\":98:118  address public owner */\n    tag_9:\n      tag_38\n      tag_39\n      jump\t// in\n    tag_38:\n      mload(0x40)\n      tag_40\n      swap2\n      swap1\n      tag_41\n      jump\t// in\n    tag_40:\n      mload(0x40)\n      dup1\n      swap2\n      sub\n      swap1\n      return\n        /* \"TP FINAL/VotingSystem.sol\":237:258  uint256 public votes0 */\n    tag_10:\n      tag_42\n      tag_43\n      jump\t// in\n    tag_42:\n      mload(0x40)\n      tag_44\n      swap2\n      swap1\n      tag_17\n      jump\t// in\n    tag_44:\n      mload(0x40)\n      dup1\n      swap2\n      sub\n      swap1\n      return\n        /* \"TP FINAL/VotingSystem.sol\":1795:1997  function publishResults() external {... */\n    tag_11:\n      tag_45\n      tag_46\n      jump\t// in\n    tag_45:\n      stop\n        /* \"TP FINAL/VotingSystem.sol\":194:213  uint256 public root */\n    tag_12:\n      tag_47\n      tag_48\n      jump\t// in\n    tag_47:\n      mload(0x40)\n      tag_49\n      swap2\n      swap1\n      tag_17\n      jump\t// in\n    tag_49:\n      mload(0x40)\n      dup1\n      swap2\n      sub\n      swap1\n      return\n        /* \"TP FINAL/VotingSystem.sol\":265:286  uint256 public votes1 */\n    tag_15:\n      sload(0x03)\n      dup2\n      jump\t// out\n        /* \"TP FINAL/VotingSystem.sol\":739:1475  function registerVote(... */\n    tag_21:\n        /* \"TP FINAL/VotingSystem.sol\":916:928  electionOpen */\n      0x00\n      0x14\n      swap1\n      sload\n      swap1\n      0x0100\n      exp\n      swap1\n      div\n      0xff\n      and\n        /* \"TP FINAL/VotingSystem.sol\":908:949  require(electionOpen, \"Eleccion cerrada\") */\n      tag_51\n      jumpi\n      mload(0x40)\n      0x08c379a000000000000000000000000000000000000000000000000000000000\n      dup2\n      mstore\n      0x04\n      add\n      tag_52\n      swap1\n      tag_53\n      jump\t// in\n    tag_52:\n      mload(0x40)\n      dup1\n      swap2\n      sub\n      swap1\n      revert\n    tag_51:\n        /* \"TP FINAL/VotingSystem.sol\":969:982  nullifierUsed */\n      0x04\n        /* \"TP FINAL/VotingSystem.sol\":969:993  nullifierUsed[nullifier] */\n      0x00\n        /* \"TP FINAL/VotingSystem.sol\":983:992  nullifier */\n      dup4\n        /* \"TP FINAL/VotingSystem.sol\":969:993  nullifierUsed[nullifier] */\n      dup2\n      mstore\n      0x20\n      add\n      swap1\n      dup2\n      mstore\n      0x20\n      add\n      0x00\n      keccak256\n      0x00\n      swap1\n      sload\n      swap1\n      0x0100\n      exp\n      swap1\n      div\n      0xff\n      and\n        /* \"TP FINAL/VotingSystem.sol\":968:993  !nullifierUsed[nullifier] */\n      iszero\n        /* \"TP FINAL/VotingSystem.sol\":960:1020  require(!nullifierUsed[nullifier], \"Nullifier ya utilizado\") */\n      tag_54\n      jumpi\n      mload(0x40)\n      0x08c379a000000000000000000000000000000000000000000000000000000000\n      dup2\n      mstore\n      0x04\n      add\n      tag_55\n      swap1\n      tag_56\n      jump\t// in\n    tag_55:\n      mload(0x40)\n      dup1\n      swap2\n      sub\n      swap1\n      revert\n    tag_54:\n        /* \"TP FINAL/VotingSystem.sol\":1084:1113  verifyTx(proof, publicInputs) */\n      tag_57\n        /* \"TP FINAL/VotingSystem.sol\":1093:1098  proof */\n      dup5\n        /* \"TP FINAL/VotingSystem.sol\":1084:1113  verifyTx(proof, publicInputs) */\n      dup1\n      calldatasize\n      sub\n      dup2\n      add\n      swap1\n      tag_58\n      swap2\n      swap1\n      tag_59\n      jump\t// in\n    tag_58:\n        /* \"TP FINAL/VotingSystem.sol\":1100:1112  publicInputs */\n      dup5\n        /* \"TP FINAL/VotingSystem.sol\":1084:1113  verifyTx(proof, publicInputs) */\n      0x04\n      dup1\n      0x20\n      mul\n      mload(0x40)\n      swap1\n      dup2\n      add\n      0x40\n      mstore\n      dup1\n      swap3\n      swap2\n      swap1\n      dup3\n      mul(0x20, 0x04)\n      dup1\n      dup3\n      dup5\n      calldatacopy\n      0x00\n      dup2\n      dup5\n      add\n      mstore\n      not(0x1f)\n      0x1f\n      dup3\n      add\n      and\n      swap1\n      pop\n      dup1\n      dup4\n      add\n      swap3\n      pop\n      pop\n      pop\n      pop\n      pop\n      pop\n        /* \"TP FINAL/VotingSystem.sol\":1084:1092  verifyTx */\n      tag_31\n        /* \"TP FINAL/VotingSystem.sol\":1084:1113  verifyTx(proof, publicInputs) */\n      jump\t// in\n    tag_57:\n        /* \"TP FINAL/VotingSystem.sol\":1062:1157  require(... */\n      tag_60\n      jumpi\n      mload(0x40)\n      0x08c379a000000000000000000000000000000000000000000000000000000000\n      dup2\n      mstore\n      0x04\n      add\n      tag_61\n      swap1\n      tag_62\n      jump\t// in\n    tag_61:\n      mload(0x40)\n      dup1\n      swap2\n      sub\n      swap1\n      revert\n    tag_60:\n        /* \"TP FINAL/VotingSystem.sol\":1197:1201  true */\n      0x01\n        /* \"TP FINAL/VotingSystem.sol\":1170:1183  nullifierUsed */\n      0x04\n        /* \"TP FINAL/VotingSystem.sol\":1170:1194  nullifierUsed[nullifier] */\n      0x00\n        /* \"TP FINAL/VotingSystem.sol\":1184:1193  nullifier */\n      dup5\n        /* \"TP FINAL/VotingSystem.sol\":1170:1194  nullifierUsed[nullifier] */\n      dup2\n      mstore\n      0x20\n      add\n      swap1\n      dup2\n      mstore\n      0x20\n      add\n      0x00\n      keccak256\n      0x00\n        /* \"TP FINAL/VotingSystem.sol\":1170:1201  nullifierUsed[nullifier] = true */\n      0x0100\n      exp\n      dup2\n      sload\n      dup2\n      0xff\n      mul\n      not\n      and\n      swap1\n      dup4\n      iszero\n      iszero\n      mul\n      or\n      swap1\n      sstore\n      pop\n        /* \"TP FINAL/VotingSystem.sol\":1218:1222  vote */\n      dup1\n        /* \"TP FINAL/VotingSystem.sol\":1214:1306  if (vote) {... */\n      iszero\n      tag_63\n      jumpi\n        /* \"TP FINAL/VotingSystem.sol\":1249:1250  1 */\n      0x01\n        /* \"TP FINAL/VotingSystem.sol\":1239:1245  votes1 */\n      0x03\n      0x00\n        /* \"TP FINAL/VotingSystem.sol\":1239:1250  votes1 += 1 */\n      dup3\n      dup3\n      sload\n      tag_64\n      swap2\n      swap1\n      tag_65\n      jump\t// in\n    tag_64:\n      swap3\n      pop\n      pop\n      dup2\n      swap1\n      sstore\n      pop\n        /* \"TP FINAL/VotingSystem.sol\":1214:1306  if (vote) {... */\n      jump(tag_66)\n    tag_63:\n        /* \"TP FINAL/VotingSystem.sol\":1293:1294  1 */\n      0x01\n        /* \"TP FINAL/VotingSystem.sol\":1283:1289  votes0 */\n      0x02\n      0x00\n        /* \"TP FINAL/VotingSystem.sol\":1283:1294  votes0 += 1 */\n      dup3\n      dup3\n      sload\n      tag_67\n      swap2\n      swap1\n      tag_65\n      jump\t// in\n    tag_67:\n      swap3\n      pop\n      pop\n      dup2\n      swap1\n      sstore\n      pop\n        /* \"TP FINAL/VotingSystem.sol\":1214:1306  if (vote) {... */\n    tag_66:\n        /* \"TP FINAL/VotingSystem.sol\":1323:1467  VoteEmitted(... */\n      0x13b68c699a704c5d2a4a72f379bb25eccd08e5a21a3fc611aa82a031461969ed\n      mload(0x40)\n      dup1\n      0x40\n      add\n      0x40\n      mstore\n      dup1\n        /* \"TP FINAL/VotingSystem.sol\":1350:1362  publicInputs */\n      dup6\n        /* \"TP FINAL/VotingSystem.sol\":1363:1364  0 */\n      0x00\n        /* \"TP FINAL/VotingSystem.sol\":1350:1365  publicInputs[0] */\n      0x04\n      dup2\n      lt\n      tag_68\n      jumpi\n      tag_69\n      tag_70\n      jump\t// in\n    tag_69:\n    tag_68:\n      0x20\n      mul\n      add\n      calldataload\n        /* \"TP FINAL/VotingSystem.sol\":1323:1467  VoteEmitted(... */\n      dup2\n      mstore\n      0x20\n      add\n        /* \"TP FINAL/VotingSystem.sol\":1367:1379  publicInputs */\n      dup6\n        /* \"TP FINAL/VotingSystem.sol\":1380:1381  1 */\n      0x01\n        /* \"TP FINAL/VotingSystem.sol\":1367:1382  publicInputs[1] */\n      0x04\n      dup2\n      lt\n      tag_71\n      jumpi\n      tag_72\n      tag_70\n      jump\t// in\n    tag_72:\n    tag_71:\n      0x20\n      mul\n      add\n      calldataload\n        /* \"TP FINAL/VotingSystem.sol\":1323:1467  VoteEmitted(... */\n      dup2\n      mstore\n      pop\n      mload(0x40)\n      dup1\n      0x40\n      add\n      0x40\n      mstore\n      dup1\n        /* \"TP FINAL/VotingSystem.sol\":1399:1411  publicInputs */\n      dup7\n        /* \"TP FINAL/VotingSystem.sol\":1412:1413  2 */\n      0x02\n        /* \"TP FINAL/VotingSystem.sol\":1399:1414  publicInputs[2] */\n      0x04\n      dup2\n      lt\n      tag_73\n      jumpi\n      tag_74\n      tag_70\n      jump\t// in\n    tag_74:\n    tag_73:\n      0x20\n      mul\n      add\n      calldataload\n        /* \"TP FINAL/VotingSystem.sol\":1323:1467  VoteEmitted(... */\n      dup2\n      mstore\n      0x20\n      add\n        /* \"TP FINAL/VotingSystem.sol\":1416:1428  publicInputs */\n      dup7\n        /* \"TP FINAL/VotingSystem.sol\":1429:1430  3 */\n      0x03\n        /* \"TP FINAL/VotingSystem.sol\":1416:1431  publicInputs[3] */\n      0x04\n      dup2\n      lt\n      tag_75\n      jumpi\n      tag_76\n      tag_70\n      jump\t// in\n    tag_76:\n    tag_75:\n      0x20\n      mul\n      add\n      calldataload\n        /* \"TP FINAL/VotingSystem.sol\":1323:1467  VoteEmitted(... */\n      dup2\n      mstore\n      pop\n        /* \"TP FINAL/VotingSystem.sol\":1447:1456  nullifier */\n      dup5\n        /* \"TP FINAL/VotingSystem.sol\":1323:1467  VoteEmitted(... */\n      mload(0x40)\n      tag_77\n      swap4\n      swap3\n      swap2\n      swap1\n      tag_78\n      jump\t// in\n    tag_77:\n      mload(0x40)\n      dup1\n      swap2\n      sub\n      swap1\n      log1\n        /* \"TP FINAL/VotingSystem.sol\":739:1475  function registerVote(... */\n      pop\n      pop\n      pop\n      pop\n      jump\t// out\n        /* \"TP FINAL/VotingSystem.sol\":125:156  bool public electionOpen = true */\n    tag_23:\n      0x00\n      0x14\n      swap1\n      sload\n      swap1\n      0x0100\n      exp\n      swap1\n      div\n      0xff\n      and\n      dup2\n      jump\t// out\n        /* \"TP FINAL/VotingSystem.sol\":1570:1696  function closeElection() external {... */\n    tag_27:\n        /* \"TP FINAL/VotingSystem.sol\":1637:1642  owner */\n      0x00\n      0x00\n      swap1\n      sload\n      swap1\n      0x0100\n      exp\n      swap1\n      div\n      0xffffffffffffffffffffffffffffffffffffffff\n      and\n        /* \"TP FINAL/VotingSystem.sol\":1623:1642  msg.sender == owner */\n      0xffffffffffffffffffffffffffffffffffffffff\n      and\n        /* \"TP FINAL/VotingSystem.sol\":1623:1633  msg.sender */\n      caller\n        /* \"TP FINAL/VotingSystem.sol\":1623:1642  msg.sender == owner */\n      0xffffffffffffffffffffffffffffffffffffffff\n      and\n      eq\n        /* \"TP FINAL/VotingSystem.sol\":1615:1657  require(msg.sender == owner, \"Only owner\") */\n      tag_80\n      jumpi\n      mload(0x40)\n      0x08c379a000000000000000000000000000000000000000000000000000000000\n      dup2\n      mstore\n      0x04\n      add\n      tag_81\n      swap1\n      tag_82\n      jump\t// in\n    tag_81:\n      mload(0x40)\n      dup1\n      swap2\n      sub\n      swap1\n      revert\n    tag_80:\n        /* \"TP FINAL/VotingSystem.sol\":1683:1688  false */\n      0x00\n        /* \"TP FINAL/VotingSystem.sol\":1668:1680  electionOpen */\n      0x00\n      0x14\n        /* \"TP FINAL/VotingSystem.sol\":1668:1688  electionOpen = false */\n      0x0100\n      exp\n      dup2\n      sload\n      dup2\n      0xff\n      mul\n      not\n      and\n      swap1\n      dup4\n      iszero\n      iszero\n      mul\n      or\n      swap1\n      sstore\n      pop\n        /* \"TP FINAL/VotingSystem.sol\":1570:1696  function closeElection() external {... */\n      jump\t// out\n        /* \"TP FINAL/verifier.sol\":9857:10257  function verifyTx(... */\n    tag_31:\n        /* \"TP FINAL/verifier.sol\":9960:9966  bool r */\n      0x00\n        /* \"TP FINAL/verifier.sol\":9978:10003  uint[] memory inputValues */\n      0x00\n        /* \"TP FINAL/verifier.sol\":10017:10018  4 */\n      0x04\n        /* \"TP FINAL/verifier.sol\":10006:10019  new uint[](4) */\n      0xffffffffffffffff\n      dup2\n      gt\n      iszero\n      tag_84\n      jumpi\n      tag_85\n      tag_86\n      jump\t// in\n    tag_85:\n    tag_84:\n      mload(0x40)\n      swap1\n      dup1\n      dup3\n      mstore\n      dup1\n      0x20\n      mul\n      0x20\n      add\n      dup3\n      add\n      0x40\n      mstore\n      dup1\n      iszero\n      tag_87\n      jumpi\n      dup2\n      0x20\n      add\n      0x20\n      dup3\n      mul\n      dup1\n      calldatasize\n      dup4\n      calldatacopy\n      dup1\n      dup3\n      add\n      swap2\n      pop\n      pop\n      swap1\n      pop\n    tag_87:\n      pop\n        /* \"TP FINAL/verifier.sol\":9978:10019  uint[] memory inputValues = new uint[](4) */\n      swap1\n      pop\n        /* \"TP FINAL/verifier.sol\":10042:10048  uint i */\n      0x00\n        /* \"TP FINAL/verifier.sol\":10051:10052  0 */\n      0x00\n        /* \"TP FINAL/verifier.sol\":10042:10052  uint i = 0 */\n      swap1\n      pop\n        /* \"TP FINAL/verifier.sol\":10038:10126  for(uint i = 0; i < input.length; i++){... */\n    tag_88:\n        /* \"TP FINAL/verifier.sol\":10058:10070  input.length */\n      0x04\n        /* \"TP FINAL/verifier.sol\":10054:10055  i */\n      dup2\n        /* \"TP FINAL/verifier.sol\":10054:10070  i < input.length */\n      lt\n        /* \"TP FINAL/verifier.sol\":10038:10126  for(uint i = 0; i < input.length; i++){... */\n      iszero\n      tag_89\n      jumpi\n        /* \"TP FINAL/verifier.sol\":10107:10112  input */\n      dup4\n        /* \"TP FINAL/verifier.sol\":10113:10114  i */\n      dup2\n        /* \"TP FINAL/verifier.sol\":10107:10115  input[i] */\n      0x04\n      dup2\n      lt\n      tag_91\n      jumpi\n      tag_92\n      tag_70\n      jump\t// in\n    tag_92:\n    tag_91:\n      0x20\n      mul\n      add\n      mload\n        /* \"TP FINAL/verifier.sol\":10090:10101  inputValues */\n      dup3\n        /* \"TP FINAL/verifier.sol\":10102:10103  i */\n      dup3\n        /* \"TP FINAL/verifier.sol\":10090:10104  inputValues[i] */\n      dup2\n      mload\n      dup2\n      lt\n      tag_93\n      jumpi\n      tag_94\n      tag_70\n      jump\t// in\n    tag_94:\n    tag_93:\n      0x20\n      mul\n      0x20\n      add\n      add\n        /* \"TP FINAL/verifier.sol\":10090:10115  inputValues[i] = input[i] */\n      dup2\n      dup2\n      mstore\n      pop\n      pop\n        /* \"TP FINAL/verifier.sol\":10072:10075  i++ */\n      dup1\n      dup1\n      0x01\n      add\n      swap2\n      pop\n      pop\n        /* \"TP FINAL/verifier.sol\":10038:10126  for(uint i = 0; i < input.length; i++){... */\n      jump(tag_88)\n    tag_89:\n      pop\n        /* \"TP FINAL/verifier.sol\":10169:10170  0 */\n      0x00\n        /* \"TP FINAL/verifier.sol\":10139:10165  verify(inputValues, proof) */\n      tag_95\n        /* \"TP FINAL/verifier.sol\":10146:10157  inputValues */\n      dup3\n        /* \"TP FINAL/verifier.sol\":10159:10164  proof */\n      dup7\n        /* \"TP FINAL/verifier.sol\":10139:10145  verify */\n      tag_96\n        /* \"TP FINAL/verifier.sol\":10139:10165  verify(inputValues, proof) */\n      jump\t// in\n    tag_95:\n        /* \"TP FINAL/verifier.sol\":10139:10170  verify(inputValues, proof) == 0 */\n      sub\n        /* \"TP FINAL/verifier.sol\":10135:10251  if (verify(inputValues, proof) == 0) {... */\n      tag_97\n      jumpi\n        /* \"TP FINAL/verifier.sol\":10193:10197  true */\n      0x01\n        /* \"TP FINAL/verifier.sol\":10186:10197  return true */\n      swap2\n      pop\n      pop\n      jump(tag_83)\n        /* \"TP FINAL/verifier.sol\":10135:10251  if (verify(inputValues, proof) == 0) {... */\n    tag_97:\n        /* \"TP FINAL/verifier.sol\":10235:10240  false */\n      0x00\n        /* \"TP FINAL/verifier.sol\":10228:10240  return false */\n      swap2\n      pop\n      pop\n        /* \"TP FINAL/verifier.sol\":9857:10257  function verifyTx(... */\n    tag_83:\n      swap3\n      swap2\n      pop\n      pop\n      jump\t// out\n        /* \"TP FINAL/VotingSystem.sol\":321:366  mapping(uint256 => bool) public nullifierUsed */\n    tag_36:\n      mstore(0x20, 0x04)\n      dup1\n      0x00\n      mstore\n      keccak256(0x00, 0x40)\n      0x00\n      swap2\n      pop\n      sload\n      swap1\n      0x0100\n      exp\n      swap1\n      div\n      0xff\n      and\n      dup2\n      jump\t// out\n        /* \"TP FINAL/VotingSystem.sol\":98:118  address public owner */\n    tag_39:\n      0x00\n      0x00\n      swap1\n      sload\n      swap1\n      0x0100\n      exp\n      swap1\n      div\n      0xffffffffffffffffffffffffffffffffffffffff\n      and\n      dup2\n      jump\t// out\n        /* \"TP FINAL/VotingSystem.sol\":237:258  uint256 public votes0 */\n    tag_43:\n      sload(0x02)\n      dup2\n      jump\t// out\n        /* \"TP FINAL/VotingSystem.sol\":1795:1997  function publishResults() external {... */\n    tag_46:\n        /* \"TP FINAL/VotingSystem.sol\":1863:1868  owner */\n      0x00\n      0x00\n      swap1\n      sload\n      swap1\n      0x0100\n      exp\n      swap1\n      div\n      0xffffffffffffffffffffffffffffffffffffffff\n      and\n        /* \"TP FINAL/VotingSystem.sol\":1849:1868  msg.sender == owner */\n      0xffffffffffffffffffffffffffffffffffffffff\n      and\n        /* \"TP FINAL/VotingSystem.sol\":1849:1859  msg.sender */\n      caller\n        /* \"TP FINAL/VotingSystem.sol\":1849:1868  msg.sender == owner */\n      0xffffffffffffffffffffffffffffffffffffffff\n      and\n      eq\n        /* \"TP FINAL/VotingSystem.sol\":1841:1883  require(msg.sender == owner, \"Only owner\") */\n      tag_100\n      jumpi\n      mload(0x40)\n      0x08c379a000000000000000000000000000000000000000000000000000000000\n      dup2\n      mstore\n      0x04\n      add\n      tag_101\n      swap1\n      tag_82\n      jump\t// in\n    tag_101:\n      mload(0x40)\n      dup1\n      swap2\n      sub\n      swap1\n      revert\n    tag_100:\n        /* \"TP FINAL/VotingSystem.sol\":1903:1915  electionOpen */\n      0x00\n      0x14\n      swap1\n      sload\n      swap1\n      0x0100\n      exp\n      swap1\n      div\n      0xff\n      and\n        /* \"TP FINAL/VotingSystem.sol\":1902:1915  !electionOpen */\n      iszero\n        /* \"TP FINAL/VotingSystem.sol\":1894:1939  require(!electionOpen, \"Election still open\") */\n      tag_102\n      jumpi\n      mload(0x40)\n      0x08c379a000000000000000000000000000000000000000000000000000000000\n      dup2\n      mstore\n      0x04\n      add\n      tag_103\n      swap1\n      tag_104\n      jump\t// in\n    tag_103:\n      mload(0x40)\n      dup1\n      swap2\n      sub\n      swap1\n      revert\n    tag_102:\n        /* \"TP FINAL/VotingSystem.sol\":1957:1989  ResultsPublished(votes0, votes1) */\n      0x118f959a74f702cdc24614ce54eaada8f5b8e1b01a9bcf1d1b2fe673bedc5147\n        /* \"TP FINAL/VotingSystem.sol\":1974:1980  votes0 */\n      sload(0x02)\n        /* \"TP FINAL/VotingSystem.sol\":1982:1988  votes1 */\n      sload(0x03)\n        /* \"TP FINAL/VotingSystem.sol\":1957:1989  ResultsPublished(votes0, votes1) */\n      mload(0x40)\n      tag_105\n      swap3\n      swap2\n      swap1\n      tag_106\n      jump\t// in\n    tag_105:\n      mload(0x40)\n      dup1\n      swap2\n      sub\n      swap1\n      log1\n        /* \"TP FINAL/VotingSystem.sol\":1795:1997  function publishResults() external {... */\n      jump\t// out\n        /* \"TP FINAL/VotingSystem.sol\":194:213  uint256 public root */\n    tag_48:\n      sload(0x01)\n      dup2\n      jump\t// out\n        /* \"TP FINAL/verifier.sol\":8931:9852  function verify(uint[] memory input, Proof memory proof) internal view returns (uint) {... */\n    tag_96:\n        /* \"TP FINAL/verifier.sol\":9011:9015  uint */\n      0x00\n        /* \"TP FINAL/verifier.sol\":9027:9053  uint256 snark_scalar_field */\n      0x00\n        /* \"TP FINAL/verifier.sol\":9056:9133  21888242871839275222246405745257275088548364400416034343698204186575808495617 */\n      0x30644e72e131a029b85045b68181585d2833e84879b9709143e1f593f0000001\n        /* \"TP FINAL/verifier.sol\":9027:9133  uint256 snark_scalar_field = 21888242871839275222246405745257275088548364400416034343698204186575808495617 */\n      swap1\n      pop\n        /* \"TP FINAL/verifier.sol\":9143:9165  VerifyingKey memory vk */\n      0x00\n        /* \"TP FINAL/verifier.sol\":9168:9182  verifyingKey() */\n      tag_108\n        /* \"TP FINAL/verifier.sol\":9168:9180  verifyingKey */\n      tag_109\n        /* \"TP FINAL/verifier.sol\":9168:9182  verifyingKey() */\n      jump\t// in\n    tag_108:\n        /* \"TP FINAL/verifier.sol\":9143:9182  VerifyingKey memory vk = verifyingKey() */\n      swap1\n      pop\n        /* \"TP FINAL/verifier.sol\":9220:9222  vk */\n      dup1\n        /* \"TP FINAL/verifier.sol\":9220:9232  vk.gamma_abc */\n      0x80\n      add\n      mload\n        /* \"TP FINAL/verifier.sol\":9220:9239  vk.gamma_abc.length */\n      mload\n        /* \"TP FINAL/verifier.sol\":9215:9216  1 */\n      0x01\n        /* \"TP FINAL/verifier.sol\":9200:9205  input */\n      dup7\n        /* \"TP FINAL/verifier.sol\":9200:9212  input.length */\n      mload\n        /* \"TP FINAL/verifier.sol\":9200:9216  input.length + 1 */\n      tag_110\n      swap2\n      swap1\n      tag_65\n      jump\t// in\n    tag_110:\n        /* \"TP FINAL/verifier.sol\":9200:9239  input.length + 1 == vk.gamma_abc.length */\n      eq\n        /* \"TP FINAL/verifier.sol\":9192:9240  require(input.length + 1 == vk.gamma_abc.length) */\n      tag_111\n      jumpi\n      revert(0x00, 0x00)\n    tag_111:\n        /* \"TP FINAL/verifier.sol\":9297:9324  Pairing.G1Point memory vk_x */\n      0x00\n        /* \"TP FINAL/verifier.sol\":9327:9348  Pairing.G1Point(0, 0) */\n      mload(0x40)\n      dup1\n      0x40\n      add\n      0x40\n      mstore\n      dup1\n        /* \"TP FINAL/verifier.sol\":9343:9344  0 */\n      0x00\n        /* \"TP FINAL/verifier.sol\":9327:9348  Pairing.G1Point(0, 0) */\n      dup2\n      mstore\n      0x20\n      add\n        /* \"TP FINAL/verifier.sol\":9346:9347  0 */\n      0x00\n        /* \"TP FINAL/verifier.sol\":9327:9348  Pairing.G1Point(0, 0) */\n      dup2\n      mstore\n      pop\n        /* \"TP FINAL/verifier.sol\":9297:9348  Pairing.G1Point memory vk_x = Pairing.G1Point(0, 0) */\n      swap1\n      pop\n        /* \"TP FINAL/verifier.sol\":9363:9369  uint i */\n      0x00\n        /* \"TP FINAL/verifier.sol\":9372:9373  0 */\n      0x00\n        /* \"TP FINAL/verifier.sol\":9363:9373  uint i = 0 */\n      swap1\n      pop\n        /* \"TP FINAL/verifier.sol\":9358:9555  for (uint i = 0; i < input.length; i++) {... */\n    tag_112:\n        /* \"TP FINAL/verifier.sol\":9379:9384  input */\n      dup7\n        /* \"TP FINAL/verifier.sol\":9379:9391  input.length */\n      mload\n        /* \"TP FINAL/verifier.sol\":9375:9376  i */\n      dup2\n        /* \"TP FINAL/verifier.sol\":9375:9391  i < input.length */\n      lt\n        /* \"TP FINAL/verifier.sol\":9358:9555  for (uint i = 0; i < input.length; i++) {... */\n      iszero\n      tag_113\n      jumpi\n        /* \"TP FINAL/verifier.sol\":9431:9449  snark_scalar_field */\n      dup4\n        /* \"TP FINAL/verifier.sol\":9420:9425  input */\n      dup8\n        /* \"TP FINAL/verifier.sol\":9426:9427  i */\n      dup3\n        /* \"TP FINAL/verifier.sol\":9420:9428  input[i] */\n      dup2\n      mload\n      dup2\n      lt\n      tag_115\n      jumpi\n      tag_116\n      tag_70\n      jump\t// in\n    tag_116:\n    tag_115:\n      0x20\n      mul\n      0x20\n      add\n      add\n      mload\n        /* \"TP FINAL/verifier.sol\":9420:9449  input[i] < snark_scalar_field */\n      lt\n        /* \"TP FINAL/verifier.sol\":9412:9450  require(input[i] < snark_scalar_field) */\n      tag_117\n      jumpi\n      revert(0x00, 0x00)\n    tag_117:\n        /* \"TP FINAL/verifier.sol\":9471:9544  Pairing.addition(vk_x, Pairing.scalar_mul(vk.gamma_abc[i + 1], input[i])) */\n      tag_118\n        /* \"TP FINAL/verifier.sol\":9488:9492  vk_x */\n      dup3\n        /* \"TP FINAL/verifier.sol\":9494:9543  Pairing.scalar_mul(vk.gamma_abc[i + 1], input[i]) */\n      tag_119\n        /* \"TP FINAL/verifier.sol\":9513:9515  vk */\n      dup6\n        /* \"TP FINAL/verifier.sol\":9513:9525  vk.gamma_abc */\n      0x80\n      add\n      mload\n        /* \"TP FINAL/verifier.sol\":9530:9531  1 */\n      0x01\n        /* \"TP FINAL/verifier.sol\":9526:9527  i */\n      dup6\n        /* \"TP FINAL/verifier.sol\":9526:9531  i + 1 */\n      tag_120\n      swap2\n      swap1\n      tag_65\n      jump\t// in\n    tag_120:\n        /* \"TP FINAL/verifier.sol\":9513:9532  vk.gamma_abc[i + 1] */\n      dup2\n      mload\n      dup2\n      lt\n      tag_121\n      jumpi\n      tag_122\n      tag_70\n      jump\t// in\n    tag_122:\n    tag_121:\n      0x20\n      mul\n      0x20\n      add\n      add\n      mload\n        /* \"TP FINAL/verifier.sol\":9534:9539  input */\n      dup11\n        /* \"TP FINAL/verifier.sol\":9540:9541  i */\n      dup6\n        /* \"TP FINAL/verifier.sol\":9534:9542  input[i] */\n      dup2\n      mload\n      dup2\n      lt\n      tag_123\n      jumpi\n      tag_124\n      tag_70\n      jump\t// in\n    tag_124:\n    tag_123:\n      0x20\n      mul\n      0x20\n      add\n      add\n      mload\n        /* \"TP FINAL/verifier.sol\":9494:9512  Pairing.scalar_mul */\n      tag_125\n        /* \"TP FINAL/verifier.sol\":9494:9543  Pairing.scalar_mul(vk.gamma_abc[i + 1], input[i]) */\n      jump\t// in\n    tag_119:\n        /* \"TP FINAL/verifier.sol\":9471:9487  Pairing.addition */\n      tag_126\n        /* \"TP FINAL/verifier.sol\":9471:9544  Pairing.addition(vk_x, Pairing.scalar_mul(vk.gamma_abc[i + 1], input[i])) */\n      jump\t// in\n    tag_118:\n        /* \"TP FINAL/verifier.sol\":9464:9544  vk_x = Pairing.addition(vk_x, Pairing.scalar_mul(vk.gamma_abc[i + 1], input[i])) */\n      swap2\n      pop\n        /* \"TP FINAL/verifier.sol\":9393:9396  i++ */\n      dup1\n      dup1\n      0x01\n      add\n      swap2\n      pop\n      pop\n        /* \"TP FINAL/verifier.sol\":9358:9555  for (uint i = 0; i < input.length; i++) {... */\n      jump(tag_112)\n    tag_113:\n      pop\n        /* \"TP FINAL/verifier.sol\":9571:9610  Pairing.addition(vk_x, vk.gamma_abc[0]) */\n      tag_127\n        /* \"TP FINAL/verifier.sol\":9588:9592  vk_x */\n      dup2\n        /* \"TP FINAL/verifier.sol\":9594:9596  vk */\n      dup4\n        /* \"TP FINAL/verifier.sol\":9594:9606  vk.gamma_abc */\n      0x80\n      add\n      mload\n        /* \"TP FINAL/verifier.sol\":9607:9608  0 */\n      0x00\n        /* \"TP FINAL/verifier.sol\":9594:9609  vk.gamma_abc[0] */\n      dup2\n      mload\n      dup2\n      lt\n      tag_128\n      jumpi\n      tag_129\n      tag_70\n      jump\t// in\n    tag_129:\n    tag_128:\n      0x20\n      mul\n      0x20\n      add\n      add\n      mload\n        /* \"TP FINAL/verifier.sol\":9571:9587  Pairing.addition */\n      tag_126\n        /* \"TP FINAL/verifier.sol\":9571:9610  Pairing.addition(vk_x, vk.gamma_abc[0]) */\n      jump\t// in\n    tag_127:\n        /* \"TP FINAL/verifier.sol\":9564:9610  vk_x = Pairing.addition(vk_x, vk.gamma_abc[0]) */\n      swap1\n      pop\n        /* \"TP FINAL/verifier.sol\":9624:9817  Pairing.pairingProd4(... */\n      tag_130\n        /* \"TP FINAL/verifier.sol\":9659:9664  proof */\n      dup6\n        /* \"TP FINAL/verifier.sol\":9659:9666  proof.a */\n      0x00\n      add\n      mload\n        /* \"TP FINAL/verifier.sol\":9668:9673  proof */\n      dup7\n        /* \"TP FINAL/verifier.sol\":9668:9675  proof.b */\n      0x20\n      add\n      mload\n        /* \"TP FINAL/verifier.sol\":9690:9710  Pairing.negate(vk_x) */\n      tag_131\n        /* \"TP FINAL/verifier.sol\":9705:9709  vk_x */\n      dup5\n        /* \"TP FINAL/verifier.sol\":9690:9704  Pairing.negate */\n      tag_132\n        /* \"TP FINAL/verifier.sol\":9690:9710  Pairing.negate(vk_x) */\n      jump\t// in\n    tag_131:\n        /* \"TP FINAL/verifier.sol\":9712:9714  vk */\n      dup6\n        /* \"TP FINAL/verifier.sol\":9712:9720  vk.gamma */\n      0x40\n      add\n      mload\n        /* \"TP FINAL/verifier.sol\":9735:9758  Pairing.negate(proof.c) */\n      tag_133\n        /* \"TP FINAL/verifier.sol\":9750:9755  proof */\n      dup11\n        /* \"TP FINAL/verifier.sol\":9750:9757  proof.c */\n      0x40\n      add\n      mload\n        /* \"TP FINAL/verifier.sol\":9735:9749  Pairing.negate */\n      tag_132\n        /* \"TP FINAL/verifier.sol\":9735:9758  Pairing.negate(proof.c) */\n      jump\t// in\n    tag_133:\n        /* \"TP FINAL/verifier.sol\":9760:9762  vk */\n      dup8\n        /* \"TP FINAL/verifier.sol\":9760:9768  vk.delta */\n      0x60\n      add\n      mload\n        /* \"TP FINAL/verifier.sol\":9783:9807  Pairing.negate(vk.alpha) */\n      tag_134\n        /* \"TP FINAL/verifier.sol\":9798:9800  vk */\n      dup10\n        /* \"TP FINAL/verifier.sol\":9798:9806  vk.alpha */\n      0x00\n      add\n      mload\n        /* \"TP FINAL/verifier.sol\":9783:9797  Pairing.negate */\n      tag_132\n        /* \"TP FINAL/verifier.sol\":9783:9807  Pairing.negate(vk.alpha) */\n      jump\t// in\n    tag_134:\n        /* \"TP FINAL/verifier.sol\":9809:9811  vk */\n      dup10\n        /* \"TP FINAL/verifier.sol\":9809:9816  vk.beta */\n      0x20\n      add\n      mload\n        /* \"TP FINAL/verifier.sol\":9624:9644  Pairing.pairingProd4 */\n      tag_135\n        /* \"TP FINAL/verifier.sol\":9624:9817  Pairing.pairingProd4(... */\n      jump\t// in\n    tag_130:\n        /* \"TP FINAL/verifier.sol\":9620:9827  if(!Pairing.pairingProd4(... */\n      tag_136\n      jumpi\n        /* \"TP FINAL/verifier.sol\":9826:9827  1 */\n      0x01\n        /* \"TP FINAL/verifier.sol\":9819:9827  return 1 */\n      swap4\n      pop\n      pop\n      pop\n      pop\n      jump(tag_107)\n        /* \"TP FINAL/verifier.sol\":9620:9827  if(!Pairing.pairingProd4(... */\n    tag_136:\n        /* \"TP FINAL/verifier.sol\":9844:9845  0 */\n      0x00\n        /* \"TP FINAL/verifier.sol\":9837:9845  return 0 */\n      swap4\n      pop\n      pop\n      pop\n      pop\n        /* \"TP FINAL/verifier.sol\":8931:9852  function verify(uint[] memory input, Proof memory proof) internal view returns (uint) {... */\n    tag_107:\n      swap3\n      swap2\n      pop\n      pop\n      jump\t// out\n        /* \"TP FINAL/verifier.sol\":6581:8926  function verifyingKey() pure internal returns (VerifyingKey memory vk) {... */\n    tag_109:\n        /* \"TP FINAL/verifier.sol\":6628:6650  VerifyingKey memory vk */\n      tag_137\n      tag_138\n      jump\t// in\n    tag_137:\n        /* \"TP FINAL/verifier.sol\":6673:6842  Pairing.G1Point(uint256(0x1f7831672127bb363374647d0c87a31ce91a1c685d875a53a5cac600faeded4f), uint256(0x07670423de21a7bdb3578ffb77b415c2ea786e4e502990bd70f5466f912d2852)) */\n      mload(0x40)\n      dup1\n      0x40\n      add\n      0x40\n      mstore\n      dup1\n        /* \"TP FINAL/verifier.sol\":6697:6763  0x1f7831672127bb363374647d0c87a31ce91a1c685d875a53a5cac600faeded4f */\n      0x1f7831672127bb363374647d0c87a31ce91a1c685d875a53a5cac600faeded4f\n        /* \"TP FINAL/verifier.sol\":6673:6842  Pairing.G1Point(uint256(0x1f7831672127bb363374647d0c87a31ce91a1c685d875a53a5cac600faeded4f), uint256(0x07670423de21a7bdb3578ffb77b415c2ea786e4e502990bd70f5466f912d2852)) */\n      dup2\n      mstore\n      0x20\n      add\n        /* \"TP FINAL/verifier.sol\":6774:6840  0x07670423de21a7bdb3578ffb77b415c2ea786e4e502990bd70f5466f912d2852 */\n      0x07670423de21a7bdb3578ffb77b415c2ea786e4e502990bd70f5466f912d2852\n        /* \"TP FINAL/verifier.sol\":6673:6842  Pairing.G1Point(uint256(0x1f7831672127bb363374647d0c87a31ce91a1c685d875a53a5cac600faeded4f), uint256(0x07670423de21a7bdb3578ffb77b415c2ea786e4e502990bd70f5466f912d2852)) */\n      dup2\n      mstore\n      pop\n        /* \"TP FINAL/verifier.sol\":6662:6664  vk */\n      dup2\n        /* \"TP FINAL/verifier.sol\":6662:6670  vk.alpha */\n      0x00\n      add\n        /* \"TP FINAL/verifier.sol\":6662:6842  vk.alpha = Pairing.G1Point(uint256(0x1f7831672127bb363374647d0c87a31ce91a1c685d875a53a5cac600faeded4f), uint256(0x07670423de21a7bdb3578ffb77b415c2ea786e4e502990bd70f5466f912d2852)) */\n      dup2\n      swap1\n      mstore\n      pop\n        /* \"TP FINAL/verifier.sol\":6862:7189  Pairing.G2Point([uint256(0x159b583d51881a3d382c9a4e3fd9a650135055063b6a6b22721d76173dfbab2d), uint256(0x04139747af7047fe4cf264d25b15235f4ec43bb38e7a688567f031c5e2d920e0)], [uint256(0x1fc4a8d05593db0d87f4f97e5f91ae18430aca05a0cf38232eeae735fe87454b), uint256(0x10ea261691552ffb0a35fed505cd904ac01e01abf590a16ad75e2b8986f8a0a6)]) */\n      mload(0x40)\n      dup1\n      0x40\n      add\n      0x40\n      mstore\n      dup1\n      mload(0x40)\n      dup1\n      0x40\n      add\n      0x40\n      mstore\n      dup1\n        /* \"TP FINAL/verifier.sol\":6887:6953  0x159b583d51881a3d382c9a4e3fd9a650135055063b6a6b22721d76173dfbab2d */\n      0x159b583d51881a3d382c9a4e3fd9a650135055063b6a6b22721d76173dfbab2d\n        /* \"TP FINAL/verifier.sol\":6862:7189  Pairing.G2Point([uint256(0x159b583d51881a3d382c9a4e3fd9a650135055063b6a6b22721d76173dfbab2d), uint256(0x04139747af7047fe4cf264d25b15235f4ec43bb38e7a688567f031c5e2d920e0)], [uint256(0x1fc4a8d05593db0d87f4f97e5f91ae18430aca05a0cf38232eeae735fe87454b), uint256(0x10ea261691552ffb0a35fed505cd904ac01e01abf590a16ad75e2b8986f8a0a6)]) */\n      dup2\n      mstore\n      0x20\n      add\n        /* \"TP FINAL/verifier.sol\":6964:7030  0x04139747af7047fe4cf264d25b15235f4ec43bb38e7a688567f031c5e2d920e0 */\n      0x04139747af7047fe4cf264d25b15235f4ec43bb38e7a688567f031c5e2d920e0\n        /* \"TP FINAL/verifier.sol\":6862:7189  Pairing.G2Point([uint256(0x159b583d51881a3d382c9a4e3fd9a650135055063b6a6b22721d76173dfbab2d), uint256(0x04139747af7047fe4cf264d25b15235f4ec43bb38e7a688567f031c5e2d920e0)], [uint256(0x1fc4a8d05593db0d87f4f97e5f91ae18430aca05a0cf38232eeae735fe87454b), uint256(0x10ea261691552ffb0a35fed505cd904ac01e01abf590a16ad75e2b8986f8a0a6)]) */\n      dup2\n      mstore\n      pop\n      dup2\n      mstore\n      0x20\n      add\n      mload(0x40)\n      dup1\n      0x40\n      add\n      0x40\n      mstore\n      dup1\n        /* \"TP FINAL/verifier.sol\":7043:7109  0x1fc4a8d05593db0d87f4f97e5f91ae18430aca05a0cf38232eeae735fe87454b */\n      0x1fc4a8d05593db0d87f4f97e5f91ae18430aca05a0cf38232eeae735fe87454b\n        /* \"TP FINAL/verifier.sol\":6862:7189  Pairing.G2Point([uint256(0x159b583d51881a3d382c9a4e3fd9a650135055063b6a6b22721d76173dfbab2d), uint256(0x04139747af7047fe4cf264d25b15235f4ec43bb38e7a688567f031c5e2d920e0)], [uint256(0x1fc4a8d05593db0d87f4f97e5f91ae18430aca05a0cf38232eeae735fe87454b), uint256(0x10ea261691552ffb0a35fed505cd904ac01e01abf590a16ad75e2b8986f8a0a6)]) */\n      dup2\n      mstore\n      0x20\n      add\n        /* \"TP FINAL/verifier.sol\":7120:7186  0x10ea261691552ffb0a35fed505cd904ac01e01abf590a16ad75e2b8986f8a0a6 */\n      0x10ea261691552ffb0a35fed505cd904ac01e01abf590a16ad75e2b8986f8a0a6\n        /* \"TP FINAL/verifier.sol\":6862:7189  Pairing.G2Point([uint256(0x159b583d51881a3d382c9a4e3fd9a650135055063b6a6b22721d76173dfbab2d), uint256(0x04139747af7047fe4cf264d25b15235f4ec43bb38e7a688567f031c5e2d920e0)], [uint256(0x1fc4a8d05593db0d87f4f97e5f91ae18430aca05a0cf38232eeae735fe87454b), uint256(0x10ea261691552ffb0a35fed505cd904ac01e01abf590a16ad75e2b8986f8a0a6)]) */\n      dup2\n      mstore\n      pop\n      dup2\n      mstore\n      pop\n        /* \"TP FINAL/verifier.sol\":6852:6854  vk */\n      dup2\n        /* \"TP FINAL/verifier.sol\":6852:6859  vk.beta */\n      0x20\n      add\n        /* \"TP FINAL/verifier.sol\":6852:7189  vk.beta = Pairing.G2Point([uint256(0x159b583d51881a3d382c9a4e3fd9a650135055063b6a6b22721d76173dfbab2d), uint256(0x04139747af7047fe4cf264d25b15235f4ec43bb38e7a688567f031c5e2d920e0)], [uint256(0x1fc4a8d05593db0d87f4f97e5f91ae18430aca05a0cf38232eeae735fe87454b), uint256(0x10ea261691552ffb0a35fed505cd904ac01e01abf590a16ad75e2b8986f8a0a6)]) */\n      dup2\n      swap1\n      mstore\n      pop\n        /* \"TP FINAL/verifier.sol\":7210:7537  Pairing.G2Point([uint256(0x2f4d859e096097fcb241bdb87257410ee80b2524f44733a8add221e92bbb9d48), uint256(0x0216bedc2a1ab164892327794537e324bdb9118bf6ebe21459983e953b550bea)], [uint256(0x2e50d45ceb04b952f390bd9e7c421db774d9cad30be64a8541d221f9cab6fe05), uint256(0x092209f9c9688a024370181dc66215ac222860e409b6aa5bc1f01fcb4baadf70)]) */\n      mload(0x40)\n      dup1\n      0x40\n      add\n      0x40\n      mstore\n      dup1\n      mload(0x40)\n      dup1\n      0x40\n      add\n      0x40\n      mstore\n      dup1\n        /* \"TP FINAL/verifier.sol\":7235:7301  0x2f4d859e096097fcb241bdb87257410ee80b2524f44733a8add221e92bbb9d48 */\n      0x2f4d859e096097fcb241bdb87257410ee80b2524f44733a8add221e92bbb9d48\n        /* \"TP FINAL/verifier.sol\":7210:7537  Pairing.G2Point([uint256(0x2f4d859e096097fcb241bdb87257410ee80b2524f44733a8add221e92bbb9d48), uint256(0x0216bedc2a1ab164892327794537e324bdb9118bf6ebe21459983e953b550bea)], [uint256(0x2e50d45ceb04b952f390bd9e7c421db774d9cad30be64a8541d221f9cab6fe05), uint256(0x092209f9c9688a024370181dc66215ac222860e409b6aa5bc1f01fcb4baadf70)]) */\n      dup2\n      mstore\n      0x20\n      add\n        /* \"TP FINAL/verifier.sol\":7312:7378  0x0216bedc2a1ab164892327794537e324bdb9118bf6ebe21459983e953b550bea */\n      0x0216bedc2a1ab164892327794537e324bdb9118bf6ebe21459983e953b550bea\n        /* \"TP FINAL/verifier.sol\":7210:7537  Pairing.G2Point([uint256(0x2f4d859e096097fcb241bdb87257410ee80b2524f44733a8add221e92bbb9d48), uint256(0x0216bedc2a1ab164892327794537e324bdb9118bf6ebe21459983e953b550bea)], [uint256(0x2e50d45ceb04b952f390bd9e7c421db774d9cad30be64a8541d221f9cab6fe05), uint256(0x092209f9c9688a024370181dc66215ac222860e409b6aa5bc1f01fcb4baadf70)]) */\n      dup2\n      mstore\n      pop\n      dup2\n      mstore\n      0x20\n      add\n      mload(0x40)\n      dup1\n      0x40\n      add\n      0x40\n      mstore\n      dup1\n        /* \"TP FINAL/verifier.sol\":7391:7457  0x2e50d45ceb04b952f390bd9e7c421db774d9cad30be64a8541d221f9cab6fe05 */\n      0x2e50d45ceb04b952f390bd9e7c421db774d9cad30be64a8541d221f9cab6fe05\n        /* \"TP FINAL/verifier.sol\":7210:7537  Pairing.G2Point([uint256(0x2f4d859e096097fcb241bdb87257410ee80b2524f44733a8add221e92bbb9d48), uint256(0x0216bedc2a1ab164892327794537e324bdb9118bf6ebe21459983e953b550bea)], [uint256(0x2e50d45ceb04b952f390bd9e7c421db774d9cad30be64a8541d221f9cab6fe05), uint256(0x092209f9c9688a024370181dc66215ac222860e409b6aa5bc1f01fcb4baadf70)]) */\n      dup2\n      mstore\n      0x20\n      add\n        /* \"TP FINAL/verifier.sol\":7468:7534  0x092209f9c9688a024370181dc66215ac222860e409b6aa5bc1f01fcb4baadf70 */\n      0x092209f9c9688a024370181dc66215ac222860e409b6aa5bc1f01fcb4baadf70\n        /* \"TP FINAL/verifier.sol\":7210:7537  Pairing.G2Point([uint256(0x2f4d859e096097fcb241bdb87257410ee80b2524f44733a8add221e92bbb9d48), uint256(0x0216bedc2a1ab164892327794537e324bdb9118bf6ebe21459983e953b550bea)], [uint256(0x2e50d45ceb04b952f390bd9e7c421db774d9cad30be64a8541d221f9cab6fe05), uint256(0x092209f9c9688a024370181dc66215ac222860e409b6aa5bc1f01fcb4baadf70)]) */\n      dup2\n      mstore\n      pop\n      dup2\n      mstore\n      pop\n        /* \"TP FINAL/verifier.sol\":7199:7201  vk */\n      dup2\n        /* \"TP FINAL/verifier.sol\":7199:7207  vk.gamma */\n      0x40\n      add\n        /* \"TP FINAL/verifier.sol\":7199:7537  vk.gamma = Pairing.G2Point([uint256(0x2f4d859e096097fcb241bdb87257410ee80b2524f44733a8add221e92bbb9d48), uint256(0x0216bedc2a1ab164892327794537e324bdb9118bf6ebe21459983e953b550bea)], [uint256(0x2e50d45ceb04b952f390bd9e7c421db774d9cad30be64a8541d221f9cab6fe05), uint256(0x092209f9c9688a024370181dc66215ac222860e409b6aa5bc1f01fcb4baadf70)]) */\n      dup2\n      swap1\n      mstore\n      pop\n        /* \"TP FINAL/verifier.sol\":7558:7885  Pairing.G2Point([uint256(0x0306d089d5f2bb7c7f566c89ae7621fd4f9a125e4c1634d121f4346d19542b60), uint256(0x29b81308a9e273f8cf524d7ab1a777751fdc2477f3f0921756e6a3d1f6c1996b)], [uint256(0x1d7247377df3c9907bc574eca03edb7ee6be018f01a00897dda62c17d9218575), uint256(0x289c126ce263de6300c6134b4e06559e4023bb41546866016334e23347d44f56)]) */\n      mload(0x40)\n      dup1\n      0x40\n      add\n      0x40\n      mstore\n      dup1\n      mload(0x40)\n      dup1\n      0x40\n      add\n      0x40\n      mstore\n      dup1\n        /* \"TP FINAL/verifier.sol\":7583:7649  0x0306d089d5f2bb7c7f566c89ae7621fd4f9a125e4c1634d121f4346d19542b60 */\n      0x0306d089d5f2bb7c7f566c89ae7621fd4f9a125e4c1634d121f4346d19542b60\n        /* \"TP FINAL/verifier.sol\":7558:7885  Pairing.G2Point([uint256(0x0306d089d5f2bb7c7f566c89ae7621fd4f9a125e4c1634d121f4346d19542b60), uint256(0x29b81308a9e273f8cf524d7ab1a777751fdc2477f3f0921756e6a3d1f6c1996b)], [uint256(0x1d7247377df3c9907bc574eca03edb7ee6be018f01a00897dda62c17d9218575), uint256(0x289c126ce263de6300c6134b4e06559e4023bb41546866016334e23347d44f56)]) */\n      dup2\n      mstore\n      0x20\n      add\n        /* \"TP FINAL/verifier.sol\":7660:7726  0x29b81308a9e273f8cf524d7ab1a777751fdc2477f3f0921756e6a3d1f6c1996b */\n      0x29b81308a9e273f8cf524d7ab1a777751fdc2477f3f0921756e6a3d1f6c1996b\n        /* \"TP FINAL/verifier.sol\":7558:7885  Pairing.G2Point([uint256(0x0306d089d5f2bb7c7f566c89ae7621fd4f9a125e4c1634d121f4346d19542b60), uint256(0x29b81308a9e273f8cf524d7ab1a777751fdc2477f3f0921756e6a3d1f6c1996b)], [uint256(0x1d7247377df3c9907bc574eca03edb7ee6be018f01a00897dda62c17d9218575), uint256(0x289c126ce263de6300c6134b4e06559e4023bb41546866016334e23347d44f56)]) */\n      dup2\n      mstore\n      pop\n      dup2\n      mstore\n      0x20\n      add\n      mload(0x40)\n      dup1\n      0x40\n      add\n      0x40\n      mstore\n      dup1\n        /* \"TP FINAL/verifier.sol\":7739:7805  0x1d7247377df3c9907bc574eca03edb7ee6be018f01a00897dda62c17d9218575 */\n      0x1d7247377df3c9907bc574eca03edb7ee6be018f01a00897dda62c17d9218575\n        /* \"TP FINAL/verifier.sol\":7558:7885  Pairing.G2Point([uint256(0x0306d089d5f2bb7c7f566c89ae7621fd4f9a125e4c1634d121f4346d19542b60), uint256(0x29b81308a9e273f8cf524d7ab1a777751fdc2477f3f0921756e6a3d1f6c1996b)], [uint256(0x1d7247377df3c9907bc574eca03edb7ee6be018f01a00897dda62c17d9218575), uint256(0x289c126ce263de6300c6134b4e06559e4023bb41546866016334e23347d44f56)]) */\n      dup2\n      mstore\n      0x20\n      add\n        /* \"TP FINAL/verifier.sol\":7816:7882  0x289c126ce263de6300c6134b4e06559e4023bb41546866016334e23347d44f56 */\n      0x289c126ce263de6300c6134b4e06559e4023bb41546866016334e23347d44f56\n        /* \"TP FINAL/verifier.sol\":7558:7885  Pairing.G2Point([uint256(0x0306d089d5f2bb7c7f566c89ae7621fd4f9a125e4c1634d121f4346d19542b60), uint256(0x29b81308a9e273f8cf524d7ab1a777751fdc2477f3f0921756e6a3d1f6c1996b)], [uint256(0x1d7247377df3c9907bc574eca03edb7ee6be018f01a00897dda62c17d9218575), uint256(0x289c126ce263de6300c6134b4e06559e4023bb41546866016334e23347d44f56)]) */\n      dup2\n      mstore\n      pop\n      dup2\n      mstore\n      pop\n        /* \"TP FINAL/verifier.sol\":7547:7549  vk */\n      dup2\n        /* \"TP FINAL/verifier.sol\":7547:7555  vk.delta */\n      0x60\n      add\n        /* \"TP FINAL/verifier.sol\":7547:7885  vk.delta = Pairing.G2Point([uint256(0x0306d089d5f2bb7c7f566c89ae7621fd4f9a125e4c1634d121f4346d19542b60), uint256(0x29b81308a9e273f8cf524d7ab1a777751fdc2477f3f0921756e6a3d1f6c1996b)], [uint256(0x1d7247377df3c9907bc574eca03edb7ee6be018f01a00897dda62c17d9218575), uint256(0x289c126ce263de6300c6134b4e06559e4023bb41546866016334e23347d44f56)]) */\n      dup2\n      swap1\n      mstore\n      pop\n        /* \"TP FINAL/verifier.sol\":7932:7933  5 */\n      0x05\n        /* \"TP FINAL/verifier.sol\":7910:7934  new Pairing.G1Point[](5) */\n      0xffffffffffffffff\n      dup2\n      gt\n      iszero\n      tag_140\n      jumpi\n      tag_141\n      tag_86\n      jump\t// in\n    tag_141:\n    tag_140:\n      mload(0x40)\n      swap1\n      dup1\n      dup3\n      mstore\n      dup1\n      0x20\n      mul\n      0x20\n      add\n      dup3\n      add\n      0x40\n      mstore\n      dup1\n      iszero\n      tag_142\n      jumpi\n      dup2\n      0x20\n      add\n    tag_143:\n      tag_144\n      tag_145\n      jump\t// in\n    tag_144:\n      dup2\n      mstore\n      0x20\n      add\n      swap1\n      0x01\n      swap1\n      sub\n      swap1\n      dup2\n      tag_143\n      jumpi\n      swap1\n      pop\n    tag_142:\n      pop\n        /* \"TP FINAL/verifier.sol\":7895:7897  vk */\n      dup2\n        /* \"TP FINAL/verifier.sol\":7895:7907  vk.gamma_abc */\n      0x80\n      add\n        /* \"TP FINAL/verifier.sol\":7895:7934  vk.gamma_abc = new Pairing.G1Point[](5) */\n      dup2\n      swap1\n      mstore\n      pop\n        /* \"TP FINAL/verifier.sol\":7962:8131  Pairing.G1Point(uint256(0x1ff6515df24714beb6bec648702cd88f0786a266aaf3cee0c4791cff6c53d35e), uint256(0x1e74942a208ab7636752dd9f910b0de565526b80ab4dbdb1942b116d02603e21)) */\n      mload(0x40)\n      dup1\n      0x40\n      add\n      0x40\n      mstore\n      dup1\n        /* \"TP FINAL/verifier.sol\":7986:8052  0x1ff6515df24714beb6bec648702cd88f0786a266aaf3cee0c4791cff6c53d35e */\n      0x1ff6515df24714beb6bec648702cd88f0786a266aaf3cee0c4791cff6c53d35e\n        /* \"TP FINAL/verifier.sol\":7962:8131  Pairing.G1Point(uint256(0x1ff6515df24714beb6bec648702cd88f0786a266aaf3cee0c4791cff6c53d35e), uint256(0x1e74942a208ab7636752dd9f910b0de565526b80ab4dbdb1942b116d02603e21)) */\n      dup2\n      mstore\n      0x20\n      add\n        /* \"TP FINAL/verifier.sol\":8063:8129  0x1e74942a208ab7636752dd9f910b0de565526b80ab4dbdb1942b116d02603e21 */\n      0x1e74942a208ab7636752dd9f910b0de565526b80ab4dbdb1942b116d02603e21\n        /* \"TP FINAL/verifier.sol\":7962:8131  Pairing.G1Point(uint256(0x1ff6515df24714beb6bec648702cd88f0786a266aaf3cee0c4791cff6c53d35e), uint256(0x1e74942a208ab7636752dd9f910b0de565526b80ab4dbdb1942b116d02603e21)) */\n      dup2\n      mstore\n      pop\n        /* \"TP FINAL/verifier.sol\":7944:7946  vk */\n      dup2\n        /* \"TP FINAL/verifier.sol\":7944:7956  vk.gamma_abc */\n      0x80\n      add\n      mload\n        /* \"TP FINAL/verifier.sol\":7957:7958  0 */\n      0x00\n        /* \"TP FINAL/verifier.sol\":7944:7959  vk.gamma_abc[0] */\n      dup2\n      mload\n      dup2\n      lt\n      tag_146\n      jumpi\n      tag_147\n      tag_70\n      jump\t// in\n    tag_147:\n    tag_146:\n      0x20\n      mul\n      0x20\n      add\n      add\n        /* \"TP FINAL/verifier.sol\":7944:8131  vk.gamma_abc[0] = Pairing.G1Point(uint256(0x1ff6515df24714beb6bec648702cd88f0786a266aaf3cee0c4791cff6c53d35e), uint256(0x1e74942a208ab7636752dd9f910b0de565526b80ab4dbdb1942b116d02603e21)) */\n      dup2\n      swap1\n      mstore\n      pop\n        /* \"TP FINAL/verifier.sol\":8159:8328  Pairing.G1Point(uint256(0x0a90e62d51d3f72378ddbe28514cdcac96876323092907fcca74f8cf8418b7f0), uint256(0x300713f90ee55c54909db0adabbf98487a86992617e1143f646ed9f460d52ead)) */\n      mload(0x40)\n      dup1\n      0x40\n      add\n      0x40\n      mstore\n      dup1\n        /* \"TP FINAL/verifier.sol\":8183:8249  0x0a90e62d51d3f72378ddbe28514cdcac96876323092907fcca74f8cf8418b7f0 */\n      0x0a90e62d51d3f72378ddbe28514cdcac96876323092907fcca74f8cf8418b7f0\n        /* \"TP FINAL/verifier.sol\":8159:8328  Pairing.G1Point(uint256(0x0a90e62d51d3f72378ddbe28514cdcac96876323092907fcca74f8cf8418b7f0), uint256(0x300713f90ee55c54909db0adabbf98487a86992617e1143f646ed9f460d52ead)) */\n      dup2\n      mstore\n      0x20\n      add\n        /* \"TP FINAL/verifier.sol\":8260:8326  0x300713f90ee55c54909db0adabbf98487a86992617e1143f646ed9f460d52ead */\n      0x300713f90ee55c54909db0adabbf98487a86992617e1143f646ed9f460d52ead\n        /* \"TP FINAL/verifier.sol\":8159:8328  Pairing.G1Point(uint256(0x0a90e62d51d3f72378ddbe28514cdcac96876323092907fcca74f8cf8418b7f0), uint256(0x300713f90ee55c54909db0adabbf98487a86992617e1143f646ed9f460d52ead)) */\n      dup2\n      mstore\n      pop\n        /* \"TP FINAL/verifier.sol\":8141:8143  vk */\n      dup2\n        /* \"TP FINAL/verifier.sol\":8141:8153  vk.gamma_abc */\n      0x80\n      add\n      mload\n        /* \"TP FINAL/verifier.sol\":8154:8155  1 */\n      0x01\n        /* \"TP FINAL/verifier.sol\":8141:8156  vk.gamma_abc[1] */\n      dup2\n      mload\n      dup2\n      lt\n      tag_148\n      jumpi\n      tag_149\n      tag_70\n      jump\t// in\n    tag_149:\n    tag_148:\n      0x20\n      mul\n      0x20\n      add\n      add\n        /* \"TP FINAL/verifier.sol\":8141:8328  vk.gamma_abc[1] = Pairing.G1Point(uint256(0x0a90e62d51d3f72378ddbe28514cdcac96876323092907fcca74f8cf8418b7f0), uint256(0x300713f90ee55c54909db0adabbf98487a86992617e1143f646ed9f460d52ead)) */\n      dup2\n      swap1\n      mstore\n      pop\n        /* \"TP FINAL/verifier.sol\":8356:8525  Pairing.G1Point(uint256(0x1654353e47ff9707ab0f55af2ed3ca63994d4c0e6389cb4752844400a13c2905), uint256(0x0c78254a4716a42e8bf12038f2a11f9c66dcdca054caaefe00a540ee0beafde6)) */\n      mload(0x40)\n      dup1\n      0x40\n      add\n      0x40\n      mstore\n      dup1\n        /* \"TP FINAL/verifier.sol\":8380:8446  0x1654353e47ff9707ab0f55af2ed3ca63994d4c0e6389cb4752844400a13c2905 */\n      0x1654353e47ff9707ab0f55af2ed3ca63994d4c0e6389cb4752844400a13c2905\n        /* \"TP FINAL/verifier.sol\":8356:8525  Pairing.G1Point(uint256(0x1654353e47ff9707ab0f55af2ed3ca63994d4c0e6389cb4752844400a13c2905), uint256(0x0c78254a4716a42e8bf12038f2a11f9c66dcdca054caaefe00a540ee0beafde6)) */\n      dup2\n      mstore\n      0x20\n      add\n        /* \"TP FINAL/verifier.sol\":8457:8523  0x0c78254a4716a42e8bf12038f2a11f9c66dcdca054caaefe00a540ee0beafde6 */\n      0x0c78254a4716a42e8bf12038f2a11f9c66dcdca054caaefe00a540ee0beafde6\n        /* \"TP FINAL/verifier.sol\":8356:8525  Pairing.G1Point(uint256(0x1654353e47ff9707ab0f55af2ed3ca63994d4c0e6389cb4752844400a13c2905), uint256(0x0c78254a4716a42e8bf12038f2a11f9c66dcdca054caaefe00a540ee0beafde6)) */\n      dup2\n      mstore\n      pop\n        /* \"TP FINAL/verifier.sol\":8338:8340  vk */\n      dup2\n        /* \"TP FINAL/verifier.sol\":8338:8350  vk.gamma_abc */\n      0x80\n      add\n      mload\n        /* \"TP FINAL/verifier.sol\":8351:8352  2 */\n      0x02\n        /* \"TP FINAL/verifier.sol\":8338:8353  vk.gamma_abc[2] */\n      dup2\n      mload\n      dup2\n      lt\n      tag_150\n      jumpi\n      tag_151\n      tag_70\n      jump\t// in\n    tag_151:\n    tag_150:\n      0x20\n      mul\n      0x20\n      add\n      add\n        /* \"TP FINAL/verifier.sol\":8338:8525  vk.gamma_abc[2] = Pairing.G1Point(uint256(0x1654353e47ff9707ab0f55af2ed3ca63994d4c0e6389cb4752844400a13c2905), uint256(0x0c78254a4716a42e8bf12038f2a11f9c66dcdca054caaefe00a540ee0beafde6)) */\n      dup2\n      swap1\n      mstore\n      pop\n        /* \"TP FINAL/verifier.sol\":8553:8722  Pairing.G1Point(uint256(0x1dae2230cc5d0736855c7052a432659f83440d5886f19e6ffe4035d58bb16168), uint256(0x129a45fefad763d1e4ebaa56312122372fcba4cea3b6e81dc6cfe3cefde2026b)) */\n      mload(0x40)\n      dup1\n      0x40\n      add\n      0x40\n      mstore\n      dup1\n        /* \"TP FINAL/verifier.sol\":8577:8643  0x1dae2230cc5d0736855c7052a432659f83440d5886f19e6ffe4035d58bb16168 */\n      0x1dae2230cc5d0736855c7052a432659f83440d5886f19e6ffe4035d58bb16168\n        /* \"TP FINAL/verifier.sol\":8553:8722  Pairing.G1Point(uint256(0x1dae2230cc5d0736855c7052a432659f83440d5886f19e6ffe4035d58bb16168), uint256(0x129a45fefad763d1e4ebaa56312122372fcba4cea3b6e81dc6cfe3cefde2026b)) */\n      dup2\n      mstore\n      0x20\n      add\n        /* \"TP FINAL/verifier.sol\":8654:8720  0x129a45fefad763d1e4ebaa56312122372fcba4cea3b6e81dc6cfe3cefde2026b */\n      0x129a45fefad763d1e4ebaa56312122372fcba4cea3b6e81dc6cfe3cefde2026b\n        /* \"TP FINAL/verifier.sol\":8553:8722  Pairing.G1Point(uint256(0x1dae2230cc5d0736855c7052a432659f83440d5886f19e6ffe4035d58bb16168), uint256(0x129a45fefad763d1e4ebaa56312122372fcba4cea3b6e81dc6cfe3cefde2026b)) */\n      dup2\n      mstore\n      pop\n        /* \"TP FINAL/verifier.sol\":8535:8537  vk */\n      dup2\n        /* \"TP FINAL/verifier.sol\":8535:8547  vk.gamma_abc */\n      0x80\n      add\n      mload\n        /* \"TP FINAL/verifier.sol\":8548:8549  3 */\n      0x03\n        /* \"TP FINAL/verifier.sol\":8535:8550  vk.gamma_abc[3] */\n      dup2\n      mload\n      dup2\n      lt\n      tag_152\n      jumpi\n      tag_153\n      tag_70\n      jump\t// in\n    tag_153:\n    tag_152:\n      0x20\n      mul\n      0x20\n      add\n      add\n        /* \"TP FINAL/verifier.sol\":8535:8722  vk.gamma_abc[3] = Pairing.G1Point(uint256(0x1dae2230cc5d0736855c7052a432659f83440d5886f19e6ffe4035d58bb16168), uint256(0x129a45fefad763d1e4ebaa56312122372fcba4cea3b6e81dc6cfe3cefde2026b)) */\n      dup2\n      swap1\n      mstore\n      pop\n        /* \"TP FINAL/verifier.sol\":8750:8919  Pairing.G1Point(uint256(0x06de78707393bd9eb1c9d0a3adc107320bbc90ba7f1985e844b7a9d30970403b), uint256(0x22500a1cb2c7a6db8d193e1a32d1054d581d6bc6a066637ddf2d24e26c56e8ce)) */\n      mload(0x40)\n      dup1\n      0x40\n      add\n      0x40\n      mstore\n      dup1\n        /* \"TP FINAL/verifier.sol\":8774:8840  0x06de78707393bd9eb1c9d0a3adc107320bbc90ba7f1985e844b7a9d30970403b */\n      0x06de78707393bd9eb1c9d0a3adc107320bbc90ba7f1985e844b7a9d30970403b\n        /* \"TP FINAL/verifier.sol\":8750:8919  Pairing.G1Point(uint256(0x06de78707393bd9eb1c9d0a3adc107320bbc90ba7f1985e844b7a9d30970403b), uint256(0x22500a1cb2c7a6db8d193e1a32d1054d581d6bc6a066637ddf2d24e26c56e8ce)) */\n      dup2\n      mstore\n      0x20\n      add\n        /* \"TP FINAL/verifier.sol\":8851:8917  0x22500a1cb2c7a6db8d193e1a32d1054d581d6bc6a066637ddf2d24e26c56e8ce */\n      0x22500a1cb2c7a6db8d193e1a32d1054d581d6bc6a066637ddf2d24e26c56e8ce\n        /* \"TP FINAL/verifier.sol\":8750:8919  Pairing.G1Point(uint256(0x06de78707393bd9eb1c9d0a3adc107320bbc90ba7f1985e844b7a9d30970403b), uint256(0x22500a1cb2c7a6db8d193e1a32d1054d581d6bc6a066637ddf2d24e26c56e8ce)) */\n      dup2\n      mstore\n      pop\n        /* \"TP FINAL/verifier.sol\":8732:8734  vk */\n      dup2\n        /* \"TP FINAL/verifier.sol\":8732:8744  vk.gamma_abc */\n      0x80\n      add\n      mload\n        /* \"TP FINAL/verifier.sol\":8745:8746  4 */\n      0x04\n        /* \"TP FINAL/verifier.sol\":8732:8747  vk.gamma_abc[4] */\n      dup2\n      mload\n      dup2\n      lt\n      tag_154\n      jumpi\n      tag_155\n      tag_70\n      jump\t// in\n    tag_155:\n    tag_154:\n      0x20\n      mul\n      0x20\n      add\n      add\n        /* \"TP FINAL/verifier.sol\":8732:8919  vk.gamma_abc[4] = Pairing.G1Point(uint256(0x06de78707393bd9eb1c9d0a3adc107320bbc90ba7f1985e844b7a9d30970403b), uint256(0x22500a1cb2c7a6db8d193e1a32d1054d581d6bc6a066637ddf2d24e26c56e8ce)) */\n      dup2\n      swap1\n      mstore\n      pop\n        /* \"TP FINAL/verifier.sol\":6581:8926  function verifyingKey() pure internal returns (VerifyingKey memory vk) {... */\n      swap1\n      jump\t// out\n        /* \"TP FINAL/verifier.sol\":3082:3536  function scalar_mul(G1Point memory p, uint s) internal view returns (G1Point memory r) {... */\n    tag_125:\n        /* \"TP FINAL/verifier.sol\":3151:3167  G1Point memory r */\n      tag_156\n      tag_145\n      jump\t// in\n    tag_156:\n        /* \"TP FINAL/verifier.sol\":3179:3199  uint[3] memory input */\n      tag_158\n      tag_159\n      jump\t// in\n    tag_158:\n        /* \"TP FINAL/verifier.sol\":3220:3221  p */\n      dup4\n        /* \"TP FINAL/verifier.sol\":3220:3223  p.X */\n      0x00\n      add\n      mload\n        /* \"TP FINAL/verifier.sol\":3209:3214  input */\n      dup2\n        /* \"TP FINAL/verifier.sol\":3215:3216  0 */\n      0x00\n        /* \"TP FINAL/verifier.sol\":3209:3217  input[0] */\n      0x03\n      dup2\n      lt\n      tag_160\n      jumpi\n      tag_161\n      tag_70\n      jump\t// in\n    tag_161:\n    tag_160:\n      0x20\n      mul\n      add\n        /* \"TP FINAL/verifier.sol\":3209:3223  input[0] = p.X */\n      dup2\n      dup2\n      mstore\n      pop\n      pop\n        /* \"TP FINAL/verifier.sol\":3244:3245  p */\n      dup4\n        /* \"TP FINAL/verifier.sol\":3244:3247  p.Y */\n      0x20\n      add\n      mload\n        /* \"TP FINAL/verifier.sol\":3233:3238  input */\n      dup2\n        /* \"TP FINAL/verifier.sol\":3239:3240  1 */\n      0x01\n        /* \"TP FINAL/verifier.sol\":3233:3241  input[1] */\n      0x03\n      dup2\n      lt\n      tag_162\n      jumpi\n      tag_163\n      tag_70\n      jump\t// in\n    tag_163:\n    tag_162:\n      0x20\n      mul\n      add\n        /* \"TP FINAL/verifier.sol\":3233:3247  input[1] = p.Y */\n      dup2\n      dup2\n      mstore\n      pop\n      pop\n        /* \"TP FINAL/verifier.sol\":3268:3269  s */\n      dup3\n        /* \"TP FINAL/verifier.sol\":3257:3262  input */\n      dup2\n        /* \"TP FINAL/verifier.sol\":3263:3264  2 */\n      0x02\n        /* \"TP FINAL/verifier.sol\":3257:3265  input[2] */\n      0x03\n      dup2\n      lt\n      tag_164\n      jumpi\n      tag_165\n      tag_70\n      jump\t// in\n    tag_165:\n    tag_164:\n      0x20\n      mul\n      add\n        /* \"TP FINAL/verifier.sol\":3257:3269  input[2] = s */\n      dup2\n      dup2\n      mstore\n      pop\n      pop\n        /* \"TP FINAL/verifier.sol\":3279:3291  bool success */\n      0x00\n        /* \"TP FINAL/verifier.sol\":3383:3387  0x60 */\n      0x60\n        /* \"TP FINAL/verifier.sol\":3380:3381  r */\n      dup4\n        /* \"TP FINAL/verifier.sol\":3374:3378  0x80 */\n      0x80\n        /* \"TP FINAL/verifier.sol\":3367:3372  input */\n      dup5\n        /* \"TP FINAL/verifier.sol\":3364:3365  7 */\n      0x07\n        /* \"TP FINAL/verifier.sol\":3357:3361  2000 */\n      0x07d0\n        /* \"TP FINAL/verifier.sol\":3350:3355  gas() */\n      gas\n        /* \"TP FINAL/verifier.sol\":3346:3362  sub(gas(), 2000) */\n      sub\n        /* \"TP FINAL/verifier.sol\":3335:3388  staticcall(sub(gas(), 2000), 7, input, 0x80, r, 0x60) */\n      staticcall\n        /* \"TP FINAL/verifier.sol\":3324:3388  success := staticcall(sub(gas(), 2000), 7, input, 0x80, r, 0x60) */\n      swap1\n      pop\n        /* \"TP FINAL/verifier.sol\":3465:3472  success */\n      dup1\n        /* \"TP FINAL/verifier.sol\":3478:3479  0 */\n      0x00\n        /* \"TP FINAL/verifier.sol\":3473:3493  case 0 { invalid() } */\n      dup2\n      sub\n        /* \"TP FINAL/verifier.sol\":3458:3493  switch success case 0 { invalid() } */\n      tag_166\n        /* \"TP FINAL/verifier.sol\":3473:3493  case 0 { invalid() } */\n      jumpi\n        /* \"TP FINAL/verifier.sol\":3482:3491  invalid() */\n      invalid\n        /* \"TP FINAL/verifier.sol\":3458:3493  switch success case 0 { invalid() } */\n    tag_166:\n      pop\n        /* \"TP FINAL/verifier.sol\":3521:3528  success */\n      dup1\n        /* \"TP FINAL/verifier.sol\":3512:3529  require (success) */\n      tag_168\n      jumpi\n      revert(0x00, 0x00)\n    tag_168:\n        /* \"TP FINAL/verifier.sol\":3169:3536  {... */\n      pop\n      pop\n        /* \"TP FINAL/verifier.sol\":3082:3536  function scalar_mul(G1Point memory p, uint s) internal view returns (G1Point memory r) {... */\n      swap3\n      swap2\n      pop\n      pop\n      jump\t// out\n        /* \"TP FINAL/verifier.sol\":2432:2925  function addition(G1Point memory p1, G1Point memory p2) internal view returns (G1Point memory r) {... */\n    tag_126:\n        /* \"TP FINAL/verifier.sol\":2511:2527  G1Point memory r */\n      tag_169\n      tag_145\n      jump\t// in\n    tag_169:\n        /* \"TP FINAL/verifier.sol\":2539:2559  uint[4] memory input */\n      tag_171\n      tag_172\n      jump\t// in\n    tag_171:\n        /* \"TP FINAL/verifier.sol\":2580:2582  p1 */\n      dup4\n        /* \"TP FINAL/verifier.sol\":2580:2584  p1.X */\n      0x00\n      add\n      mload\n        /* \"TP FINAL/verifier.sol\":2569:2574  input */\n      dup2\n        /* \"TP FINAL/verifier.sol\":2575:2576  0 */\n      0x00\n        /* \"TP FINAL/verifier.sol\":2569:2577  input[0] */\n      0x04\n      dup2\n      lt\n      tag_173\n      jumpi\n      tag_174\n      tag_70\n      jump\t// in\n    tag_174:\n    tag_173:\n      0x20\n      mul\n      add\n        /* \"TP FINAL/verifier.sol\":2569:2584  input[0] = p1.X */\n      dup2\n      dup2\n      mstore\n      pop\n      pop\n        /* \"TP FINAL/verifier.sol\":2605:2607  p1 */\n      dup4\n        /* \"TP FINAL/verifier.sol\":2605:2609  p1.Y */\n      0x20\n      add\n      mload\n        /* \"TP FINAL/verifier.sol\":2594:2599  input */\n      dup2\n        /* \"TP FINAL/verifier.sol\":2600:2601  1 */\n      0x01\n        /* \"TP FINAL/verifier.sol\":2594:2602  input[1] */\n      0x04\n      dup2\n      lt\n      tag_175\n      jumpi\n      tag_176\n      tag_70\n      jump\t// in\n    tag_176:\n    tag_175:\n      0x20\n      mul\n      add\n        /* \"TP FINAL/verifier.sol\":2594:2609  input[1] = p1.Y */\n      dup2\n      dup2\n      mstore\n      pop\n      pop\n        /* \"TP FINAL/verifier.sol\":2630:2632  p2 */\n      dup3\n        /* \"TP FINAL/verifier.sol\":2630:2634  p2.X */\n      0x00\n      add\n      mload\n        /* \"TP FINAL/verifier.sol\":2619:2624  input */\n      dup2\n        /* \"TP FINAL/verifier.sol\":2625:2626  2 */\n      0x02\n        /* \"TP FINAL/verifier.sol\":2619:2627  input[2] */\n      0x04\n      dup2\n      lt\n      tag_177\n      jumpi\n      tag_178\n      tag_70\n      jump\t// in\n    tag_178:\n    tag_177:\n      0x20\n      mul\n      add\n        /* \"TP FINAL/verifier.sol\":2619:2634  input[2] = p2.X */\n      dup2\n      dup2\n      mstore\n      pop\n      pop\n        /* \"TP FINAL/verifier.sol\":2655:2657  p2 */\n      dup3\n        /* \"TP FINAL/verifier.sol\":2655:2659  p2.Y */\n      0x20\n      add\n      mload\n        /* \"TP FINAL/verifier.sol\":2644:2649  input */\n      dup2\n        /* \"TP FINAL/verifier.sol\":2650:2651  3 */\n      0x03\n        /* \"TP FINAL/verifier.sol\":2644:2652  input[3] */\n      0x04\n      dup2\n      lt\n      tag_179\n      jumpi\n      tag_180\n      tag_70\n      jump\t// in\n    tag_180:\n    tag_179:\n      0x20\n      mul\n      add\n        /* \"TP FINAL/verifier.sol\":2644:2659  input[3] = p2.Y */\n      dup2\n      dup2\n      mstore\n      pop\n      pop\n        /* \"TP FINAL/verifier.sol\":2669:2681  bool success */\n      0x00\n        /* \"TP FINAL/verifier.sol\":2773:2777  0x60 */\n      0x60\n        /* \"TP FINAL/verifier.sol\":2770:2771  r */\n      dup4\n        /* \"TP FINAL/verifier.sol\":2764:2768  0xc0 */\n      0xc0\n        /* \"TP FINAL/verifier.sol\":2757:2762  input */\n      dup5\n        /* \"TP FINAL/verifier.sol\":2754:2755  6 */\n      0x06\n        /* \"TP FINAL/verifier.sol\":2747:2751  2000 */\n      0x07d0\n        /* \"TP FINAL/verifier.sol\":2740:2745  gas() */\n      gas\n        /* \"TP FINAL/verifier.sol\":2736:2752  sub(gas(), 2000) */\n      sub\n        /* \"TP FINAL/verifier.sol\":2725:2778  staticcall(sub(gas(), 2000), 6, input, 0xc0, r, 0x60) */\n      staticcall\n        /* \"TP FINAL/verifier.sol\":2714:2778  success := staticcall(sub(gas(), 2000), 6, input, 0xc0, r, 0x60) */\n      swap1\n      pop\n        /* \"TP FINAL/verifier.sol\":2855:2862  success */\n      dup1\n        /* \"TP FINAL/verifier.sol\":2868:2869  0 */\n      0x00\n        /* \"TP FINAL/verifier.sol\":2863:2883  case 0 { invalid() } */\n      dup2\n      sub\n        /* \"TP FINAL/verifier.sol\":2848:2883  switch success case 0 { invalid() } */\n      tag_181\n        /* \"TP FINAL/verifier.sol\":2863:2883  case 0 { invalid() } */\n      jumpi\n        /* \"TP FINAL/verifier.sol\":2872:2881  invalid() */\n      invalid\n        /* \"TP FINAL/verifier.sol\":2848:2883  switch success case 0 { invalid() } */\n    tag_181:\n      pop\n        /* \"TP FINAL/verifier.sol\":2910:2917  success */\n      dup1\n        /* \"TP FINAL/verifier.sol\":2902:2918  require(success) */\n      tag_183\n      jumpi\n      revert(0x00, 0x00)\n    tag_183:\n        /* \"TP FINAL/verifier.sol\":2529:2925  {... */\n      pop\n      pop\n        /* \"TP FINAL/verifier.sol\":2432:2925  function addition(G1Point memory p1, G1Point memory p2) internal view returns (G1Point memory r) {... */\n      swap3\n      swap2\n      pop\n      pop\n      jump\t// out\n        /* \"TP FINAL/verifier.sol\":2041:2381  function negate(G1Point memory p) pure internal returns (G1Point memory) {... */\n    tag_132:\n        /* \"TP FINAL/verifier.sol\":2098:2112  G1Point memory */\n      tag_184\n      tag_145\n      jump\t// in\n    tag_184:\n        /* \"TP FINAL/verifier.sol\":2176:2182  uint q */\n      0x00\n        /* \"TP FINAL/verifier.sol\":2185:2262  21888242871839275222246405745257275088696311157297823662689037894645226208583 */\n      0x30644e72e131a029b85045b68181585d97816a916871ca8d3c208c16d87cfd47\n        /* \"TP FINAL/verifier.sol\":2176:2262  uint q = 21888242871839275222246405745257275088696311157297823662689037894645226208583 */\n      swap1\n      pop\n        /* \"TP FINAL/verifier.sol\":2283:2284  0 */\n      0x00\n        /* \"TP FINAL/verifier.sol\":2276:2277  p */\n      dup4\n        /* \"TP FINAL/verifier.sol\":2276:2279  p.X */\n      0x00\n      add\n      mload\n        /* \"TP FINAL/verifier.sol\":2276:2284  p.X == 0 */\n      eq\n        /* \"TP FINAL/verifier.sol\":2276:2296  p.X == 0 && p.Y == 0 */\n      dup1\n      iszero\n      tag_186\n      jumpi\n      pop\n        /* \"TP FINAL/verifier.sol\":2295:2296  0 */\n      0x00\n        /* \"TP FINAL/verifier.sol\":2288:2289  p */\n      dup4\n        /* \"TP FINAL/verifier.sol\":2288:2291  p.Y */\n      0x20\n      add\n      mload\n        /* \"TP FINAL/verifier.sol\":2288:2296  p.Y == 0 */\n      eq\n        /* \"TP FINAL/verifier.sol\":2276:2296  p.X == 0 && p.Y == 0 */\n    tag_186:\n        /* \"TP FINAL/verifier.sol\":2272:2330  if (p.X == 0 && p.Y == 0)... */\n      iszero\n      tag_187\n      jumpi\n        /* \"TP FINAL/verifier.sol\":2317:2330  G1Point(0, 0) */\n      mload(0x40)\n      dup1\n      0x40\n      add\n      0x40\n      mstore\n      dup1\n        /* \"TP FINAL/verifier.sol\":2325:2326  0 */\n      0x00\n        /* \"TP FINAL/verifier.sol\":2317:2330  G1Point(0, 0) */\n      dup2\n      mstore\n      0x20\n      add\n        /* \"TP FINAL/verifier.sol\":2328:2329  0 */\n      0x00\n        /* \"TP FINAL/verifier.sol\":2317:2330  G1Point(0, 0) */\n      dup2\n      mstore\n      pop\n        /* \"TP FINAL/verifier.sol\":2310:2330  return G1Point(0, 0) */\n      swap2\n      pop\n      pop\n      jump(tag_185)\n        /* \"TP FINAL/verifier.sol\":2272:2330  if (p.X == 0 && p.Y == 0)... */\n    tag_187:\n        /* \"TP FINAL/verifier.sol\":2347:2374  G1Point(p.X, q - (p.Y % q)) */\n      mload(0x40)\n      dup1\n      0x40\n      add\n      0x40\n      mstore\n      dup1\n        /* \"TP FINAL/verifier.sol\":2355:2356  p */\n      dup5\n        /* \"TP FINAL/verifier.sol\":2355:2358  p.X */\n      0x00\n      add\n      mload\n        /* \"TP FINAL/verifier.sol\":2347:2374  G1Point(p.X, q - (p.Y % q)) */\n      dup2\n      mstore\n      0x20\n      add\n        /* \"TP FINAL/verifier.sol\":2371:2372  q */\n      dup3\n        /* \"TP FINAL/verifier.sol\":2365:2366  p */\n      dup6\n        /* \"TP FINAL/verifier.sol\":2365:2368  p.Y */\n      0x20\n      add\n      mload\n        /* \"TP FINAL/verifier.sol\":2365:2372  p.Y % q */\n      tag_188\n      swap2\n      swap1\n      tag_189\n      jump\t// in\n    tag_188:\n        /* \"TP FINAL/verifier.sol\":2360:2361  q */\n      dup4\n        /* \"TP FINAL/verifier.sol\":2360:2373  q - (p.Y % q) */\n      tag_190\n      swap2\n      swap1\n      tag_191\n      jump\t// in\n    tag_190:\n        /* \"TP FINAL/verifier.sol\":2347:2374  G1Point(p.X, q - (p.Y % q)) */\n      dup2\n      mstore\n      pop\n        /* \"TP FINAL/verifier.sol\":2340:2374  return G1Point(p.X, q - (p.Y % q)) */\n      swap2\n      pop\n      pop\n        /* \"TP FINAL/verifier.sol\":2041:2381  function negate(G1Point memory p) pure internal returns (G1Point memory) {... */\n    tag_185:\n      swap2\n      swap1\n      pop\n      jump\t// out\n        /* \"TP FINAL/verifier.sol\":5678:6230  function pairingProd4(... */\n    tag_135:\n        /* \"TP FINAL/verifier.sol\":5929:5933  bool */\n      0x00\n        /* \"TP FINAL/verifier.sol\":5945:5964  G1Point[] memory p1 */\n      0x00\n        /* \"TP FINAL/verifier.sol\":5981:5982  4 */\n      0x04\n        /* \"TP FINAL/verifier.sol\":5967:5983  new G1Point[](4) */\n      0xffffffffffffffff\n      dup2\n      gt\n      iszero\n      tag_193\n      jumpi\n      tag_194\n      tag_86\n      jump\t// in\n    tag_194:\n    tag_193:\n      mload(0x40)\n      swap1\n      dup1\n      dup3\n      mstore\n      dup1\n      0x20\n      mul\n      0x20\n      add\n      dup3\n      add\n      0x40\n      mstore\n      dup1\n      iszero\n      tag_195\n      jumpi\n      dup2\n      0x20\n      add\n    tag_196:\n      tag_197\n      tag_145\n      jump\t// in\n    tag_197:\n      dup2\n      mstore\n      0x20\n      add\n      swap1\n      0x01\n      swap1\n      sub\n      swap1\n      dup2\n      tag_196\n      jumpi\n      swap1\n      pop\n    tag_195:\n      pop\n        /* \"TP FINAL/verifier.sol\":5945:5983  G1Point[] memory p1 = new G1Point[](4) */\n      swap1\n      pop\n        /* \"TP FINAL/verifier.sol\":5993:6012  G2Point[] memory p2 */\n      0x00\n        /* \"TP FINAL/verifier.sol\":6029:6030  4 */\n      0x04\n        /* \"TP FINAL/verifier.sol\":6015:6031  new G2Point[](4) */\n      0xffffffffffffffff\n      dup2\n      gt\n      iszero\n      tag_198\n      jumpi\n      tag_199\n      tag_86\n      jump\t// in\n    tag_199:\n    tag_198:\n      mload(0x40)\n      swap1\n      dup1\n      dup3\n      mstore\n      dup1\n      0x20\n      mul\n      0x20\n      add\n      dup3\n      add\n      0x40\n      mstore\n      dup1\n      iszero\n      tag_200\n      jumpi\n      dup2\n      0x20\n      add\n    tag_201:\n      tag_202\n      tag_203\n      jump\t// in\n    tag_202:\n      dup2\n      mstore\n      0x20\n      add\n      swap1\n      0x01\n      swap1\n      sub\n      swap1\n      dup2\n      tag_201\n      jumpi\n      swap1\n      pop\n    tag_200:\n      pop\n        /* \"TP FINAL/verifier.sol\":5993:6031  G2Point[] memory p2 = new G2Point[](4) */\n      swap1\n      pop\n        /* \"TP FINAL/verifier.sol\":6049:6051  a1 */\n      dup11\n        /* \"TP FINAL/verifier.sol\":6041:6043  p1 */\n      dup3\n        /* \"TP FINAL/verifier.sol\":6044:6045  0 */\n      0x00\n        /* \"TP FINAL/verifier.sol\":6041:6046  p1[0] */\n      dup2\n      mload\n      dup2\n      lt\n      tag_204\n      jumpi\n      tag_205\n      tag_70\n      jump\t// in\n    tag_205:\n    tag_204:\n      0x20\n      mul\n      0x20\n      add\n      add\n        /* \"TP FINAL/verifier.sol\":6041:6051  p1[0] = a1 */\n      dup2\n      swap1\n      mstore\n      pop\n        /* \"TP FINAL/verifier.sol\":6069:6071  b1 */\n      dup9\n        /* \"TP FINAL/verifier.sol\":6061:6063  p1 */\n      dup3\n        /* \"TP FINAL/verifier.sol\":6064:6065  1 */\n      0x01\n        /* \"TP FINAL/verifier.sol\":6061:6066  p1[1] */\n      dup2\n      mload\n      dup2\n      lt\n      tag_206\n      jumpi\n      tag_207\n      tag_70\n      jump\t// in\n    tag_207:\n    tag_206:\n      0x20\n      mul\n      0x20\n      add\n      add\n        /* \"TP FINAL/verifier.sol\":6061:6071  p1[1] = b1 */\n      dup2\n      swap1\n      mstore\n      pop\n        /* \"TP FINAL/verifier.sol\":6089:6091  c1 */\n      dup7\n        /* \"TP FINAL/verifier.sol\":6081:6083  p1 */\n      dup3\n        /* \"TP FINAL/verifier.sol\":6084:6085  2 */\n      0x02\n        /* \"TP FINAL/verifier.sol\":6081:6086  p1[2] */\n      dup2\n      mload\n      dup2\n      lt\n      tag_208\n      jumpi\n      tag_209\n      tag_70\n      jump\t// in\n    tag_209:\n    tag_208:\n      0x20\n      mul\n      0x20\n      add\n      add\n        /* \"TP FINAL/verifier.sol\":6081:6091  p1[2] = c1 */\n      dup2\n      swap1\n      mstore\n      pop\n        /* \"TP FINAL/verifier.sol\":6109:6111  d1 */\n      dup5\n        /* \"TP FINAL/verifier.sol\":6101:6103  p1 */\n      dup3\n        /* \"TP FINAL/verifier.sol\":6104:6105  3 */\n      0x03\n        /* \"TP FINAL/verifier.sol\":6101:6106  p1[3] */\n      dup2\n      mload\n      dup2\n      lt\n      tag_210\n      jumpi\n      tag_211\n      tag_70\n      jump\t// in\n    tag_211:\n    tag_210:\n      0x20\n      mul\n      0x20\n      add\n      add\n        /* \"TP FINAL/verifier.sol\":6101:6111  p1[3] = d1 */\n      dup2\n      swap1\n      mstore\n      pop\n        /* \"TP FINAL/verifier.sol\":6129:6131  a2 */\n      dup10\n        /* \"TP FINAL/verifier.sol\":6121:6123  p2 */\n      dup2\n        /* \"TP FINAL/verifier.sol\":6124:6125  0 */\n      0x00\n        /* \"TP FINAL/verifier.sol\":6121:6126  p2[0] */\n      dup2\n      mload\n      dup2\n      lt\n      tag_212\n      jumpi\n      tag_213\n      tag_70\n      jump\t// in\n    tag_213:\n    tag_212:\n      0x20\n      mul\n      0x20\n      add\n      add\n        /* \"TP FINAL/verifier.sol\":6121:6131  p2[0] = a2 */\n      dup2\n      swap1\n      mstore\n      pop\n        /* \"TP FINAL/verifier.sol\":6149:6151  b2 */\n      dup8\n        /* \"TP FINAL/verifier.sol\":6141:6143  p2 */\n      dup2\n        /* \"TP FINAL/verifier.sol\":6144:6145  1 */\n      0x01\n        /* \"TP FINAL/verifier.sol\":6141:6146  p2[1] */\n      dup2\n      mload\n      dup2\n      lt\n      tag_214\n      jumpi\n      tag_215\n      tag_70\n      jump\t// in\n    tag_215:\n    tag_214:\n      0x20\n      mul\n      0x20\n      add\n      add\n        /* \"TP FINAL/verifier.sol\":6141:6151  p2[1] = b2 */\n      dup2\n      swap1\n      mstore\n      pop\n        /* \"TP FINAL/verifier.sol\":6169:6171  c2 */\n      dup6\n        /* \"TP FINAL/verifier.sol\":6161:6163  p2 */\n      dup2\n        /* \"TP FINAL/verifier.sol\":6164:6165  2 */\n      0x02\n        /* \"TP FINAL/verifier.sol\":6161:6166  p2[2] */\n      dup2\n      mload\n      dup2\n      lt\n      tag_216\n      jumpi\n      tag_217\n      tag_70\n      jump\t// in\n    tag_217:\n    tag_216:\n      0x20\n      mul\n      0x20\n      add\n      add\n        /* \"TP FINAL/verifier.sol\":6161:6171  p2[2] = c2 */\n      dup2\n      swap1\n      mstore\n      pop\n        /* \"TP FINAL/verifier.sol\":6189:6191  d2 */\n      dup4\n        /* \"TP FINAL/verifier.sol\":6181:6183  p2 */\n      dup2\n        /* \"TP FINAL/verifier.sol\":6184:6185  3 */\n      0x03\n        /* \"TP FINAL/verifier.sol\":6181:6186  p2[3] */\n      dup2\n      mload\n      dup2\n      lt\n      tag_218\n      jumpi\n      tag_219\n      tag_70\n      jump\t// in\n    tag_219:\n    tag_218:\n      0x20\n      mul\n      0x20\n      add\n      add\n        /* \"TP FINAL/verifier.sol\":6181:6191  p2[3] = d2 */\n      dup2\n      swap1\n      mstore\n      pop\n        /* \"TP FINAL/verifier.sol\":6208:6223  pairing(p1, p2) */\n      tag_220\n        /* \"TP FINAL/verifier.sol\":6216:6218  p1 */\n      dup3\n        /* \"TP FINAL/verifier.sol\":6220:6222  p2 */\n      dup3\n        /* \"TP FINAL/verifier.sol\":6208:6215  pairing */\n      tag_221\n        /* \"TP FINAL/verifier.sol\":6208:6223  pairing(p1, p2) */\n      jump\t// in\n    tag_220:\n        /* \"TP FINAL/verifier.sol\":6201:6223  return pairing(p1, p2) */\n      swap3\n      pop\n      pop\n      pop\n        /* \"TP FINAL/verifier.sol\":5678:6230  function pairingProd4(... */\n      swap9\n      swap8\n      pop\n      pop\n      pop\n      pop\n      pop\n      pop\n      pop\n      pop\n      jump\t// out\n        /* \"TP FINAL/verifier.sol\":3747:4670  function pairing(G1Point[] memory p1, G2Point[] memory p2) internal view returns (bool) {... */\n    tag_221:\n        /* \"TP FINAL/verifier.sol\":3829:3833  bool */\n      0x00\n        /* \"TP FINAL/verifier.sol\":3866:3868  p2 */\n      dup2\n        /* \"TP FINAL/verifier.sol\":3866:3875  p2.length */\n      mload\n        /* \"TP FINAL/verifier.sol\":3853:3855  p1 */\n      dup4\n        /* \"TP FINAL/verifier.sol\":3853:3862  p1.length */\n      mload\n        /* \"TP FINAL/verifier.sol\":3853:3875  p1.length == p2.length */\n      eq\n        /* \"TP FINAL/verifier.sol\":3845:3876  require(p1.length == p2.length) */\n      tag_223\n      jumpi\n      revert(0x00, 0x00)\n    tag_223:\n        /* \"TP FINAL/verifier.sol\":3886:3899  uint elements */\n      0x00\n        /* \"TP FINAL/verifier.sol\":3902:3904  p1 */\n      dup4\n        /* \"TP FINAL/verifier.sol\":3902:3911  p1.length */\n      mload\n        /* \"TP FINAL/verifier.sol\":3886:3911  uint elements = p1.length */\n      swap1\n      pop\n        /* \"TP FINAL/verifier.sol\":3921:3935  uint inputSize */\n      0x00\n        /* \"TP FINAL/verifier.sol\":3949:3950  6 */\n      0x06\n        /* \"TP FINAL/verifier.sol\":3938:3946  elements */\n      dup3\n        /* \"TP FINAL/verifier.sol\":3938:3950  elements * 6 */\n      tag_224\n      swap2\n      swap1\n      tag_225\n      jump\t// in\n    tag_224:\n        /* \"TP FINAL/verifier.sol\":3921:3950  uint inputSize = elements * 6 */\n      swap1\n      pop\n        /* \"TP FINAL/verifier.sol\":3960:3979  uint[] memory input */\n      0x00\n        /* \"TP FINAL/verifier.sol\":3993:4002  inputSize */\n      dup2\n        /* \"TP FINAL/verifier.sol\":3982:4003  new uint[](inputSize) */\n      0xffffffffffffffff\n      dup2\n      gt\n      iszero\n      tag_226\n      jumpi\n      tag_227\n      tag_86\n      jump\t// in\n    tag_227:\n    tag_226:\n      mload(0x40)\n      swap1\n      dup1\n      dup3\n      mstore\n      dup1\n      0x20\n      mul\n      0x20\n      add\n      dup3\n      add\n      0x40\n      mstore\n      dup1\n      iszero\n      tag_228\n      jumpi\n      dup2\n      0x20\n      add\n      0x20\n      dup3\n      mul\n      dup1\n      calldatasize\n      dup4\n      calldatacopy\n      dup1\n      dup3\n      add\n      swap2\n      pop\n      pop\n      swap1\n      pop\n    tag_228:\n      pop\n        /* \"TP FINAL/verifier.sol\":3960:4003  uint[] memory input = new uint[](inputSize) */\n      swap1\n      pop\n        /* \"TP FINAL/verifier.sol\":4018:4024  uint i */\n      0x00\n        /* \"TP FINAL/verifier.sol\":4027:4028  0 */\n      0x00\n        /* \"TP FINAL/verifier.sol\":4018:4028  uint i = 0 */\n      swap1\n      pop\n        /* \"TP FINAL/verifier.sol\":4013:4320  for (uint i = 0; i < elements; i++)... */\n    tag_229:\n        /* \"TP FINAL/verifier.sol\":4034:4042  elements */\n      dup4\n        /* \"TP FINAL/verifier.sol\":4030:4031  i */\n      dup2\n        /* \"TP FINAL/verifier.sol\":4030:4042  i < elements */\n      lt\n        /* \"TP FINAL/verifier.sol\":4013:4320  for (uint i = 0; i < elements; i++)... */\n      iszero\n      tag_230\n      jumpi\n        /* \"TP FINAL/verifier.sol\":4090:4092  p1 */\n      dup7\n        /* \"TP FINAL/verifier.sol\":4093:4094  i */\n      dup2\n        /* \"TP FINAL/verifier.sol\":4090:4095  p1[i] */\n      dup2\n      mload\n      dup2\n      lt\n      tag_232\n      jumpi\n      tag_233\n      tag_70\n      jump\t// in\n    tag_233:\n    tag_232:\n      0x20\n      mul\n      0x20\n      add\n      add\n      mload\n        /* \"TP FINAL/verifier.sol\":4090:4097  p1[i].X */\n      0x00\n      add\n      mload\n        /* \"TP FINAL/verifier.sol\":4071:4076  input */\n      dup3\n        /* \"TP FINAL/verifier.sol\":4085:4086  0 */\n      0x00\n        /* \"TP FINAL/verifier.sol\":4081:4082  6 */\n      0x06\n        /* \"TP FINAL/verifier.sol\":4077:4078  i */\n      dup5\n        /* \"TP FINAL/verifier.sol\":4077:4082  i * 6 */\n      tag_234\n      swap2\n      swap1\n      tag_225\n      jump\t// in\n    tag_234:\n        /* \"TP FINAL/verifier.sol\":4077:4086  i * 6 + 0 */\n      tag_235\n      swap2\n      swap1\n      tag_65\n      jump\t// in\n    tag_235:\n        /* \"TP FINAL/verifier.sol\":4071:4087  input[i * 6 + 0] */\n      dup2\n      mload\n      dup2\n      lt\n      tag_236\n      jumpi\n      tag_237\n      tag_70\n      jump\t// in\n    tag_237:\n    tag_236:\n      0x20\n      mul\n      0x20\n      add\n      add\n        /* \"TP FINAL/verifier.sol\":4071:4097  input[i * 6 + 0] = p1[i].X */\n      dup2\n      dup2\n      mstore\n      pop\n      pop\n        /* \"TP FINAL/verifier.sol\":4130:4132  p1 */\n      dup7\n        /* \"TP FINAL/verifier.sol\":4133:4134  i */\n      dup2\n        /* \"TP FINAL/verifier.sol\":4130:4135  p1[i] */\n      dup2\n      mload\n      dup2\n      lt\n      tag_238\n      jumpi\n      tag_239\n      tag_70\n      jump\t// in\n    tag_239:\n    tag_238:\n      0x20\n      mul\n      0x20\n      add\n      add\n      mload\n        /* \"TP FINAL/verifier.sol\":4130:4137  p1[i].Y */\n      0x20\n      add\n      mload\n        /* \"TP FINAL/verifier.sol\":4111:4116  input */\n      dup3\n        /* \"TP FINAL/verifier.sol\":4125:4126  1 */\n      0x01\n        /* \"TP FINAL/verifier.sol\":4121:4122  6 */\n      0x06\n        /* \"TP FINAL/verifier.sol\":4117:4118  i */\n      dup5\n        /* \"TP FINAL/verifier.sol\":4117:4122  i * 6 */\n      tag_240\n      swap2\n      swap1\n      tag_225\n      jump\t// in\n    tag_240:\n        /* \"TP FINAL/verifier.sol\":4117:4126  i * 6 + 1 */\n      tag_241\n      swap2\n      swap1\n      tag_65\n      jump\t// in\n    tag_241:\n        /* \"TP FINAL/verifier.sol\":4111:4127  input[i * 6 + 1] */\n      dup2\n      mload\n      dup2\n      lt\n      tag_242\n      jumpi\n      tag_243\n      tag_70\n      jump\t// in\n    tag_243:\n    tag_242:\n      0x20\n      mul\n      0x20\n      add\n      add\n        /* \"TP FINAL/verifier.sol\":4111:4137  input[i * 6 + 1] = p1[i].Y */\n      dup2\n      dup2\n      mstore\n      pop\n      pop\n        /* \"TP FINAL/verifier.sol\":4170:4172  p2 */\n      dup6\n        /* \"TP FINAL/verifier.sol\":4173:4174  i */\n      dup2\n        /* \"TP FINAL/verifier.sol\":4170:4175  p2[i] */\n      dup2\n      mload\n      dup2\n      lt\n      tag_244\n      jumpi\n      tag_245\n      tag_70\n      jump\t// in\n    tag_245:\n    tag_244:\n      0x20\n      mul\n      0x20\n      add\n      add\n      mload\n        /* \"TP FINAL/verifier.sol\":4170:4177  p2[i].X */\n      0x00\n      add\n      mload\n        /* \"TP FINAL/verifier.sol\":4178:4179  1 */\n      0x01\n        /* \"TP FINAL/verifier.sol\":4170:4180  p2[i].X[1] */\n      0x02\n      dup2\n      lt\n      tag_246\n      jumpi\n      tag_247\n      tag_70\n      jump\t// in\n    tag_247:\n    tag_246:\n      0x20\n      mul\n      add\n      mload\n        /* \"TP FINAL/verifier.sol\":4151:4156  input */\n      dup3\n        /* \"TP FINAL/verifier.sol\":4165:4166  2 */\n      0x02\n        /* \"TP FINAL/verifier.sol\":4161:4162  6 */\n      0x06\n        /* \"TP FINAL/verifier.sol\":4157:4158  i */\n      dup5\n        /* \"TP FINAL/verifier.sol\":4157:4162  i * 6 */\n      tag_248\n      swap2\n      swap1\n      tag_225\n      jump\t// in\n    tag_248:\n        /* \"TP FINAL/verifier.sol\":4157:4166  i * 6 + 2 */\n      tag_249\n      swap2\n      swap1\n      tag_65\n      jump\t// in\n    tag_249:\n        /* \"TP FINAL/verifier.sol\":4151:4167  input[i * 6 + 2] */\n      dup2\n      mload\n      dup2\n      lt\n      tag_250\n      jumpi\n      tag_251\n      tag_70\n      jump\t// in\n    tag_251:\n    tag_250:\n      0x20\n      mul\n      0x20\n      add\n      add\n        /* \"TP FINAL/verifier.sol\":4151:4180  input[i * 6 + 2] = p2[i].X[1] */\n      dup2\n      dup2\n      mstore\n      pop\n      pop\n        /* \"TP FINAL/verifier.sol\":4213:4215  p2 */\n      dup6\n        /* \"TP FINAL/verifier.sol\":4216:4217  i */\n      dup2\n        /* \"TP FINAL/verifier.sol\":4213:4218  p2[i] */\n      dup2\n      mload\n      dup2\n      lt\n      tag_252\n      jumpi\n      tag_253\n      tag_70\n      jump\t// in\n    tag_253:\n    tag_252:\n      0x20\n      mul\n      0x20\n      add\n      add\n      mload\n        /* \"TP FINAL/verifier.sol\":4213:4220  p2[i].X */\n      0x00\n      add\n      mload\n        /* \"TP FINAL/verifier.sol\":4221:4222  0 */\n      0x00\n        /* \"TP FINAL/verifier.sol\":4213:4223  p2[i].X[0] */\n      0x02\n      dup2\n      lt\n      tag_254\n      jumpi\n      tag_255\n      tag_70\n      jump\t// in\n    tag_255:\n    tag_254:\n      0x20\n      mul\n      add\n      mload\n        /* \"TP FINAL/verifier.sol\":4194:4199  input */\n      dup3\n        /* \"TP FINAL/verifier.sol\":4208:4209  3 */\n      0x03\n        /* \"TP FINAL/verifier.sol\":4204:4205  6 */\n      0x06\n        /* \"TP FINAL/verifier.sol\":4200:4201  i */\n      dup5\n        /* \"TP FINAL/verifier.sol\":4200:4205  i * 6 */\n      tag_256\n      swap2\n      swap1\n      tag_225\n      jump\t// in\n    tag_256:\n        /* \"TP FINAL/verifier.sol\":4200:4209  i * 6 + 3 */\n      tag_257\n      swap2\n      swap1\n      tag_65\n      jump\t// in\n    tag_257:\n        /* \"TP FINAL/verifier.sol\":4194:4210  input[i * 6 + 3] */\n      dup2\n      mload\n      dup2\n      lt\n      tag_258\n      jumpi\n      tag_259\n      tag_70\n      jump\t// in\n    tag_259:\n    tag_258:\n      0x20\n      mul\n      0x20\n      add\n      add\n        /* \"TP FINAL/verifier.sol\":4194:4223  input[i * 6 + 3] = p2[i].X[0] */\n      dup2\n      dup2\n      mstore\n      pop\n      pop\n        /* \"TP FINAL/verifier.sol\":4256:4258  p2 */\n      dup6\n        /* \"TP FINAL/verifier.sol\":4259:4260  i */\n      dup2\n        /* \"TP FINAL/verifier.sol\":4256:4261  p2[i] */\n      dup2\n      mload\n      dup2\n      lt\n      tag_260\n      jumpi\n      tag_261\n      tag_70\n      jump\t// in\n    tag_261:\n    tag_260:\n      0x20\n      mul\n      0x20\n      add\n      add\n      mload\n        /* \"TP FINAL/verifier.sol\":4256:4263  p2[i].Y */\n      0x20\n      add\n      mload\n        /* \"TP FINAL/verifier.sol\":4264:4265  1 */\n      0x01\n        /* \"TP FINAL/verifier.sol\":4256:4266  p2[i].Y[1] */\n      0x02\n      dup2\n      lt\n      tag_262\n      jumpi\n      tag_263\n      tag_70\n      jump\t// in\n    tag_263:\n    tag_262:\n      0x20\n      mul\n      add\n      mload\n        /* \"TP FINAL/verifier.sol\":4237:4242  input */\n      dup3\n        /* \"TP FINAL/verifier.sol\":4251:4252  4 */\n      0x04\n        /* \"TP FINAL/verifier.sol\":4247:4248  6 */\n      0x06\n        /* \"TP FINAL/verifier.sol\":4243:4244  i */\n      dup5\n        /* \"TP FINAL/verifier.sol\":4243:4248  i * 6 */\n      tag_264\n      swap2\n      swap1\n      tag_225\n      jump\t// in\n    tag_264:\n        /* \"TP FINAL/verifier.sol\":4243:4252  i * 6 + 4 */\n      tag_265\n      swap2\n      swap1\n      tag_65\n      jump\t// in\n    tag_265:\n        /* \"TP FINAL/verifier.sol\":4237:4253  input[i * 6 + 4] */\n      dup2\n      mload\n      dup2\n      lt\n      tag_266\n      jumpi\n      tag_267\n      tag_70\n      jump\t// in\n    tag_267:\n    tag_266:\n      0x20\n      mul\n      0x20\n      add\n      add\n        /* \"TP FINAL/verifier.sol\":4237:4266  input[i * 6 + 4] = p2[i].Y[1] */\n      dup2\n      dup2\n      mstore\n      pop\n      pop\n        /* \"TP FINAL/verifier.sol\":4299:4301  p2 */\n      dup6\n        /* \"TP FINAL/verifier.sol\":4302:4303  i */\n      dup2\n        /* \"TP FINAL/verifier.sol\":4299:4304  p2[i] */\n      dup2\n      mload\n      dup2\n      lt\n      tag_268\n      jumpi\n      tag_269\n      tag_70\n      jump\t// in\n    tag_269:\n    tag_268:\n      0x20\n      mul\n      0x20\n      add\n      add\n      mload\n        /* \"TP FINAL/verifier.sol\":4299:4306  p2[i].Y */\n      0x20\n      add\n      mload\n        /* \"TP FINAL/verifier.sol\":4307:4308  0 */\n      0x00\n        /* \"TP FINAL/verifier.sol\":4299:4309  p2[i].Y[0] */\n      0x02\n      dup2\n      lt\n      tag_270\n      jumpi\n      tag_271\n      tag_70\n      jump\t// in\n    tag_271:\n    tag_270:\n      0x20\n      mul\n      add\n      mload\n        /* \"TP FINAL/verifier.sol\":4280:4285  input */\n      dup3\n        /* \"TP FINAL/verifier.sol\":4294:4295  5 */\n      0x05\n        /* \"TP FINAL/verifier.sol\":4290:4291  6 */\n      0x06\n        /* \"TP FINAL/verifier.sol\":4286:4287  i */\n      dup5\n        /* \"TP FINAL/verifier.sol\":4286:4291  i * 6 */\n      tag_272\n      swap2\n      swap1\n      tag_225\n      jump\t// in\n    tag_272:\n        /* \"TP FINAL/verifier.sol\":4286:4295  i * 6 + 5 */\n      tag_273\n      swap2\n      swap1\n      tag_65\n      jump\t// in\n    tag_273:\n        /* \"TP FINAL/verifier.sol\":4280:4296  input[i * 6 + 5] */\n      dup2\n      mload\n      dup2\n      lt\n      tag_274\n      jumpi\n      tag_275\n      tag_70\n      jump\t// in\n    tag_275:\n    tag_274:\n      0x20\n      mul\n      0x20\n      add\n      add\n        /* \"TP FINAL/verifier.sol\":4280:4309  input[i * 6 + 5] = p2[i].Y[0] */\n      dup2\n      dup2\n      mstore\n      pop\n      pop\n        /* \"TP FINAL/verifier.sol\":4044:4047  i++ */\n      dup1\n      dup1\n      0x01\n      add\n      swap2\n      pop\n      pop\n        /* \"TP FINAL/verifier.sol\":4013:4320  for (uint i = 0; i < elements; i++)... */\n      jump(tag_229)\n    tag_230:\n      pop\n        /* \"TP FINAL/verifier.sol\":4329:4347  uint[1] memory out */\n      tag_276\n      tag_277\n      jump\t// in\n    tag_276:\n        /* \"TP FINAL/verifier.sol\":4357:4369  bool success */\n      0x00\n        /* \"TP FINAL/verifier.sol\":4490:4494  0x20 */\n      0x20\n        /* \"TP FINAL/verifier.sol\":4485:4488  out */\n      dup3\n        /* \"TP FINAL/verifier.sol\":4478:4482  0x20 */\n      0x20\n        /* \"TP FINAL/verifier.sol\":4467:4476  inputSize */\n      dup7\n        /* \"TP FINAL/verifier.sol\":4463:4483  mul(inputSize, 0x20) */\n      mul\n        /* \"TP FINAL/verifier.sol\":4456:4460  0x20 */\n      0x20\n        /* \"TP FINAL/verifier.sol\":4449:4454  input */\n      dup7\n        /* \"TP FINAL/verifier.sol\":4445:4461  add(input, 0x20) */\n      add\n        /* \"TP FINAL/verifier.sol\":4442:4443  8 */\n      0x08\n        /* \"TP FINAL/verifier.sol\":4435:4439  2000 */\n      0x07d0\n        /* \"TP FINAL/verifier.sol\":4428:4433  gas() */\n      gas\n        /* \"TP FINAL/verifier.sol\":4424:4440  sub(gas(), 2000) */\n      sub\n        /* \"TP FINAL/verifier.sol\":4413:4495  staticcall(sub(gas(), 2000), 8, add(input, 0x20), mul(inputSize, 0x20), out, 0x20) */\n      staticcall\n        /* \"TP FINAL/verifier.sol\":4402:4495  success := staticcall(sub(gas(), 2000), 8, add(input, 0x20), mul(inputSize, 0x20), out, 0x20) */\n      swap1\n      pop\n        /* \"TP FINAL/verifier.sol\":4572:4579  success */\n      dup1\n        /* \"TP FINAL/verifier.sol\":4585:4586  0 */\n      0x00\n        /* \"TP FINAL/verifier.sol\":4580:4600  case 0 { invalid() } */\n      dup2\n      sub\n        /* \"TP FINAL/verifier.sol\":4565:4600  switch success case 0 { invalid() } */\n      tag_278\n        /* \"TP FINAL/verifier.sol\":4580:4600  case 0 { invalid() } */\n      jumpi\n        /* \"TP FINAL/verifier.sol\":4589:4598  invalid() */\n      invalid\n        /* \"TP FINAL/verifier.sol\":4565:4600  switch success case 0 { invalid() } */\n    tag_278:\n      pop\n        /* \"TP FINAL/verifier.sol\":4627:4634  success */\n      dup1\n        /* \"TP FINAL/verifier.sol\":4619:4635  require(success) */\n      tag_280\n      jumpi\n      revert(0x00, 0x00)\n    tag_280:\n        /* \"TP FINAL/verifier.sol\":4662:4663  0 */\n      0x00\n        /* \"TP FINAL/verifier.sol\":4652:4655  out */\n      dup3\n        /* \"TP FINAL/verifier.sol\":4656:4657  0 */\n      0x00\n        /* \"TP FINAL/verifier.sol\":4652:4658  out[0] */\n      0x01\n      dup2\n      lt\n      tag_281\n      jumpi\n      tag_282\n      tag_70\n      jump\t// in\n    tag_282:\n    tag_281:\n      0x20\n      mul\n      add\n      mload\n        /* \"TP FINAL/verifier.sol\":4652:4663  out[0] != 0 */\n      eq\n      iszero\n        /* \"TP FINAL/verifier.sol\":4645:4663  return out[0] != 0 */\n      swap6\n      pop\n      pop\n      pop\n      pop\n      pop\n      pop\n        /* \"TP FINAL/verifier.sol\":3747:4670  function pairing(G1Point[] memory p1, G2Point[] memory p2) internal view returns (bool) {... */\n      swap3\n      swap2\n      pop\n      pop\n      jump\t// out\n    tag_138:\n      mload(0x40)\n      dup1\n      0xa0\n      add\n      0x40\n      mstore\n      dup1\n      tag_283\n      tag_145\n      jump\t// in\n    tag_283:\n      dup2\n      mstore\n      0x20\n      add\n      tag_284\n      tag_203\n      jump\t// in\n    tag_284:\n      dup2\n      mstore\n      0x20\n      add\n      tag_285\n      tag_203\n      jump\t// in\n    tag_285:\n      dup2\n      mstore\n      0x20\n      add\n      tag_286\n      tag_203\n      jump\t// in\n    tag_286:\n      dup2\n      mstore\n      0x20\n      add\n      0x60\n      dup2\n      mstore\n      pop\n      swap1\n      jump\t// out\n    tag_145:\n      mload(0x40)\n      dup1\n      0x40\n      add\n      0x40\n      mstore\n      dup1\n      0x00\n      dup2\n      mstore\n      0x20\n      add\n      0x00\n      dup2\n      mstore\n      pop\n      swap1\n      jump\t// out\n    tag_159:\n      mload(0x40)\n      dup1\n      0x60\n      add\n      0x40\n      mstore\n      dup1\n      0x03\n      swap1\n      0x20\n      dup3\n      mul\n      dup1\n      calldatasize\n      dup4\n      calldatacopy\n      dup1\n      dup3\n      add\n      swap2\n      pop\n      pop\n      swap1\n      pop\n      pop\n      swap1\n      jump\t// out\n    tag_172:\n      mload(0x40)\n      dup1\n      0x80\n      add\n      0x40\n      mstore\n      dup1\n      0x04\n      swap1\n      0x20\n      dup3\n      mul\n      dup1\n      calldatasize\n      dup4\n      calldatacopy\n      dup1\n      dup3\n      add\n      swap2\n      pop\n      pop\n      swap1\n      pop\n      pop\n      swap1\n      jump\t// out\n    tag_203:\n      mload(0x40)\n      dup1\n      0x40\n      add\n      0x40\n      mstore\n      dup1\n      tag_287\n      tag_288\n      jump\t// in\n    tag_287:\n      dup2\n      mstore\n      0x20\n      add\n      tag_289\n      tag_288\n      jump\t// in\n    tag_289:\n      dup2\n      mstore\n      pop\n      swap1\n      jump\t// out\n    tag_277:\n      mload(0x40)\n      dup1\n      0x20\n      add\n      0x40\n      mstore\n      dup1\n      0x01\n      swap1\n      0x20\n      dup3\n      mul\n      dup1\n      calldatasize\n      dup4\n      calldatacopy\n      dup1\n      dup3\n      add\n      swap2\n      pop\n      pop\n      swap1\n      pop\n      pop\n      swap1\n      jump\t// out\n    tag_288:\n      mload(0x40)\n      dup1\n      0x40\n      add\n      0x40\n      mstore\n      dup1\n      0x02\n      swap1\n      0x20\n      dup3\n      mul\n      dup1\n      calldatasize\n      dup4\n      calldatacopy\n      dup1\n      dup3\n      add\n      swap2\n      pop\n      pop\n      swap1\n      pop\n      pop\n      swap1\n      jump\t// out\n        /* \"#utility.yul\":7:84   */\n    tag_290:\n        /* \"#utility.yul\":44:51   */\n      0x00\n        /* \"#utility.yul\":73:78   */\n      dup2\n        /* \"#utility.yul\":62:78   */\n      swap1\n      pop\n        /* \"#utility.yul\":7:84   */\n      swap2\n      swap1\n      pop\n      jump\t// out\n        /* \"#utility.yul\":90:208   */\n    tag_291:\n        /* \"#utility.yul\":177:201   */\n      tag_346\n        /* \"#utility.yul\":195:200   */\n      dup2\n        /* \"#utility.yul\":177:201   */\n      tag_290\n      jump\t// in\n    tag_346:\n        /* \"#utility.yul\":172:175   */\n      dup3\n        /* \"#utility.yul\":165:202   */\n      mstore\n        /* \"#utility.yul\":90:208   */\n      pop\n      pop\n      jump\t// out\n        /* \"#utility.yul\":214:436   */\n    tag_17:\n        /* \"#utility.yul\":307:311   */\n      0x00\n        /* \"#utility.yul\":345:347   */\n      0x20\n        /* \"#utility.yul\":334:343   */\n      dup3\n        /* \"#utility.yul\":330:348   */\n      add\n        /* \"#utility.yul\":322:348   */\n      swap1\n      pop\n        /* \"#utility.yul\":358:429   */\n      tag_348\n        /* \"#utility.yul\":426:427   */\n      0x00\n        /* \"#utility.yul\":415:424   */\n      dup4\n        /* \"#utility.yul\":411:428   */\n      add\n        /* \"#utility.yul\":402:408   */\n      dup5\n        /* \"#utility.yul\":358:429   */\n      tag_291\n      jump\t// in\n    tag_348:\n        /* \"#utility.yul\":214:436   */\n      swap3\n      swap2\n      pop\n      pop\n      jump\t// out\n        /* \"#utility.yul\":442:517   */\n    tag_292:\n        /* \"#utility.yul\":475:481   */\n      0x00\n        /* \"#utility.yul\":508:510   */\n      0x40\n        /* \"#utility.yul\":502:511   */\n      mload\n        /* \"#utility.yul\":492:511   */\n      swap1\n      pop\n        /* \"#utility.yul\":442:517   */\n      swap1\n      jump\t// out\n        /* \"#utility.yul\":523:640   */\n    tag_293:\n        /* \"#utility.yul\":632:633   */\n      0x00\n        /* \"#utility.yul\":629:630   */\n      0x00\n        /* \"#utility.yul\":622:634   */\n      revert\n        /* \"#utility.yul\":769:886   */\n    tag_295:\n        /* \"#utility.yul\":878:879   */\n      0x00\n        /* \"#utility.yul\":875:876   */\n      0x00\n        /* \"#utility.yul\":868:880   */\n      revert\n        /* \"#utility.yul\":921:1150   */\n    tag_296:\n        /* \"#utility.yul\":991:996   */\n      0x00\n        /* \"#utility.yul\":1032:1035   */\n      0x0100\n        /* \"#utility.yul\":1023:1029   */\n      dup3\n        /* \"#utility.yul\":1018:1021   */\n      dup5\n        /* \"#utility.yul\":1014:1030   */\n      sub\n        /* \"#utility.yul\":1010:1036   */\n      slt\n        /* \"#utility.yul\":1007:1120   */\n      iszero\n      tag_354\n      jumpi\n        /* \"#utility.yul\":1039:1118   */\n      tag_355\n      tag_295\n      jump\t// in\n    tag_355:\n        /* \"#utility.yul\":1007:1120   */\n    tag_354:\n        /* \"#utility.yul\":1138:1144   */\n      dup2\n        /* \"#utility.yul\":1129:1144   */\n      swap1\n      pop\n        /* \"#utility.yul\":921:1150   */\n      swap3\n      swap2\n      pop\n      pop\n      jump\t// out\n        /* \"#utility.yul\":1156:1273   */\n    tag_297:\n        /* \"#utility.yul\":1265:1266   */\n      0x00\n        /* \"#utility.yul\":1262:1263   */\n      0x00\n        /* \"#utility.yul\":1255:1267   */\n      revert\n        /* \"#utility.yul\":1297:1546   */\n    tag_298:\n        /* \"#utility.yul\":1368:1376   */\n      0x00\n        /* \"#utility.yul\":1399:1405   */\n      dup2\n        /* \"#utility.yul\":1387:1405   */\n      swap1\n      pop\n        /* \"#utility.yul\":1452:1455   */\n      dup3\n        /* \"#utility.yul\":1444:1448   */\n      0x20\n        /* \"#utility.yul\":1438:1442   */\n      0x04\n        /* \"#utility.yul\":1434:1449   */\n      mul\n        /* \"#utility.yul\":1424:1432   */\n      dup3\n        /* \"#utility.yul\":1420:1450   */\n      add\n        /* \"#utility.yul\":1417:1456   */\n      gt\n        /* \"#utility.yul\":1414:1540   */\n      iszero\n      tag_358\n      jumpi\n        /* \"#utility.yul\":1459:1538   */\n      tag_359\n      tag_297\n      jump\t// in\n    tag_359:\n        /* \"#utility.yul\":1414:1540   */\n    tag_358:\n        /* \"#utility.yul\":1297:1546   */\n      swap3\n      swap2\n      pop\n      pop\n      jump\t// out\n        /* \"#utility.yul\":1552:1674   */\n    tag_299:\n        /* \"#utility.yul\":1625:1649   */\n      tag_361\n        /* \"#utility.yul\":1643:1648   */\n      dup2\n        /* \"#utility.yul\":1625:1649   */\n      tag_290\n      jump\t// in\n    tag_361:\n        /* \"#utility.yul\":1618:1623   */\n      dup2\n        /* \"#utility.yul\":1615:1650   */\n      eq\n        /* \"#utility.yul\":1605:1668   */\n      tag_362\n      jumpi\n        /* \"#utility.yul\":1664:1665   */\n      0x00\n        /* \"#utility.yul\":1661:1662   */\n      0x00\n        /* \"#utility.yul\":1654:1666   */\n      revert\n        /* \"#utility.yul\":1605:1668   */\n    tag_362:\n        /* \"#utility.yul\":1552:1674   */\n      pop\n      jump\t// out\n        /* \"#utility.yul\":1680:1819   */\n    tag_300:\n        /* \"#utility.yul\":1726:1731   */\n      0x00\n        /* \"#utility.yul\":1764:1770   */\n      dup2\n        /* \"#utility.yul\":1751:1771   */\n      calldataload\n        /* \"#utility.yul\":1742:1771   */\n      swap1\n      pop\n        /* \"#utility.yul\":1780:1813   */\n      tag_364\n        /* \"#utility.yul\":1807:1812   */\n      dup2\n        /* \"#utility.yul\":1780:1813   */\n      tag_299\n      jump\t// in\n    tag_364:\n        /* \"#utility.yul\":1680:1819   */\n      swap3\n      swap2\n      pop\n      pop\n      jump\t// out\n        /* \"#utility.yul\":1825:1915   */\n    tag_301:\n        /* \"#utility.yul\":1859:1866   */\n      0x00\n        /* \"#utility.yul\":1902:1907   */\n      dup2\n        /* \"#utility.yul\":1895:1908   */\n      iszero\n        /* \"#utility.yul\":1888:1909   */\n      iszero\n        /* \"#utility.yul\":1877:1909   */\n      swap1\n      pop\n        /* \"#utility.yul\":1825:1915   */\n      swap2\n      swap1\n      pop\n      jump\t// out\n        /* \"#utility.yul\":1921:2037   */\n    tag_302:\n        /* \"#utility.yul\":1991:2012   */\n      tag_367\n        /* \"#utility.yul\":2006:2011   */\n      dup2\n        /* \"#utility.yul\":1991:2012   */\n      tag_301\n      jump\t// in\n    tag_367:\n        /* \"#utility.yul\":1984:1989   */\n      dup2\n        /* \"#utility.yul\":1981:2013   */\n      eq\n        /* \"#utility.yul\":1971:2031   */\n      tag_368\n      jumpi\n        /* \"#utility.yul\":2027:2028   */\n      0x00\n        /* \"#utility.yul\":2024:2025   */\n      0x00\n        /* \"#utility.yul\":2017:2029   */\n      revert\n        /* \"#utility.yul\":1971:2031   */\n    tag_368:\n        /* \"#utility.yul\":1921:2037   */\n      pop\n      jump\t// out\n        /* \"#utility.yul\":2043:2176   */\n    tag_303:\n        /* \"#utility.yul\":2086:2091   */\n      0x00\n        /* \"#utility.yul\":2124:2130   */\n      dup2\n        /* \"#utility.yul\":2111:2131   */\n      calldataload\n        /* \"#utility.yul\":2102:2131   */\n      swap1\n      pop\n        /* \"#utility.yul\":2140:2170   */\n      tag_370\n        /* \"#utility.yul\":2164:2169   */\n      dup2\n        /* \"#utility.yul\":2140:2170   */\n      tag_302\n      jump\t// in\n    tag_370:\n        /* \"#utility.yul\":2043:2176   */\n      swap3\n      swap2\n      pop\n      pop\n      jump\t// out\n        /* \"#utility.yul\":2182:3042   */\n    tag_20:\n        /* \"#utility.yul\":2314:2320   */\n      0x00\n        /* \"#utility.yul\":2322:2328   */\n      0x00\n        /* \"#utility.yul\":2330:2336   */\n      0x00\n        /* \"#utility.yul\":2338:2344   */\n      0x00\n        /* \"#utility.yul\":2387:2390   */\n      0x01c0\n        /* \"#utility.yul\":2375:2384   */\n      dup6\n        /* \"#utility.yul\":2366:2373   */\n      dup8\n        /* \"#utility.yul\":2362:2385   */\n      sub\n        /* \"#utility.yul\":2358:2391   */\n      slt\n        /* \"#utility.yul\":2355:2475   */\n      iszero\n      tag_372\n      jumpi\n        /* \"#utility.yul\":2394:2473   */\n      tag_373\n      tag_293\n      jump\t// in\n    tag_373:\n        /* \"#utility.yul\":2355:2475   */\n    tag_372:\n        /* \"#utility.yul\":2514:2515   */\n      0x00\n        /* \"#utility.yul\":2539:2616   */\n      tag_374\n        /* \"#utility.yul\":2608:2615   */\n      dup8\n        /* \"#utility.yul\":2599:2605   */\n      dup3\n        /* \"#utility.yul\":2588:2597   */\n      dup9\n        /* \"#utility.yul\":2584:2606   */\n      add\n        /* \"#utility.yul\":2539:2616   */\n      tag_296\n      jump\t// in\n    tag_374:\n        /* \"#utility.yul\":2529:2616   */\n      swap5\n      pop\n        /* \"#utility.yul\":2485:2626   */\n      pop\n        /* \"#utility.yul\":2665:2668   */\n      0x0100\n        /* \"#utility.yul\":2692:2770   */\n      tag_375\n        /* \"#utility.yul\":2762:2769   */\n      dup8\n        /* \"#utility.yul\":2753:2759   */\n      dup3\n        /* \"#utility.yul\":2742:2751   */\n      dup9\n        /* \"#utility.yul\":2738:2760   */\n      add\n        /* \"#utility.yul\":2692:2770   */\n      tag_298\n      jump\t// in\n    tag_375:\n        /* \"#utility.yul\":2682:2770   */\n      swap4\n      pop\n        /* \"#utility.yul\":2636:2780   */\n      pop\n        /* \"#utility.yul\":2819:2822   */\n      0x0180\n        /* \"#utility.yul\":2846:2899   */\n      tag_376\n        /* \"#utility.yul\":2891:2898   */\n      dup8\n        /* \"#utility.yul\":2882:2888   */\n      dup3\n        /* \"#utility.yul\":2871:2880   */\n      dup9\n        /* \"#utility.yul\":2867:2889   */\n      add\n        /* \"#utility.yul\":2846:2899   */\n      tag_300\n      jump\t// in\n    tag_376:\n        /* \"#utility.yul\":2836:2899   */\n      swap3\n      pop\n        /* \"#utility.yul\":2790:2909   */\n      pop\n        /* \"#utility.yul\":2948:2951   */\n      0x01a0\n        /* \"#utility.yul\":2975:3025   */\n      tag_377\n        /* \"#utility.yul\":3017:3024   */\n      dup8\n        /* \"#utility.yul\":3008:3014   */\n      dup3\n        /* \"#utility.yul\":2997:3006   */\n      dup9\n        /* \"#utility.yul\":2993:3015   */\n      add\n        /* \"#utility.yul\":2975:3025   */\n      tag_303\n      jump\t// in\n    tag_377:\n        /* \"#utility.yul\":2965:3025   */\n      swap2\n      pop\n        /* \"#utility.yul\":2919:3035   */\n      pop\n        /* \"#utility.yul\":2182:3042   */\n      swap3\n      swap6\n      swap2\n      swap5\n      pop\n      swap3\n      pop\n      jump\t// out\n        /* \"#utility.yul\":3048:3157   */\n    tag_304:\n        /* \"#utility.yul\":3129:3150   */\n      tag_379\n        /* \"#utility.yul\":3144:3149   */\n      dup2\n        /* \"#utility.yul\":3129:3150   */\n      tag_301\n      jump\t// in\n    tag_379:\n        /* \"#utility.yul\":3124:3127   */\n      dup3\n        /* \"#utility.yul\":3117:3151   */\n      mstore\n        /* \"#utility.yul\":3048:3157   */\n      pop\n      pop\n      jump\t// out\n        /* \"#utility.yul\":3163:3373   */\n    tag_25:\n        /* \"#utility.yul\":3250:3254   */\n      0x00\n        /* \"#utility.yul\":3288:3290   */\n      0x20\n        /* \"#utility.yul\":3277:3286   */\n      dup3\n        /* \"#utility.yul\":3273:3291   */\n      add\n        /* \"#utility.yul\":3265:3291   */\n      swap1\n      pop\n        /* \"#utility.yul\":3301:3366   */\n      tag_381\n        /* \"#utility.yul\":3363:3364   */\n      0x00\n        /* \"#utility.yul\":3352:3361   */\n      dup4\n        /* \"#utility.yul\":3348:3365   */\n      add\n        /* \"#utility.yul\":3339:3345   */\n      dup5\n        /* \"#utility.yul\":3301:3366   */\n      tag_304\n      jump\t// in\n    tag_381:\n        /* \"#utility.yul\":3163:3373   */\n      swap3\n      swap2\n      pop\n      pop\n      jump\t// out\n        /* \"#utility.yul\":3379:3496   */\n    tag_305:\n        /* \"#utility.yul\":3488:3489   */\n      0x00\n        /* \"#utility.yul\":3485:3486   */\n      0x00\n        /* \"#utility.yul\":3478:3490   */\n      revert\n        /* \"#utility.yul\":3502:3604   */\n    tag_306:\n        /* \"#utility.yul\":3543:3549   */\n      0x00\n        /* \"#utility.yul\":3594:3596   */\n      0x1f\n        /* \"#utility.yul\":3590:3597   */\n      not\n        /* \"#utility.yul\":3585:3587   */\n      0x1f\n        /* \"#utility.yul\":3578:3583   */\n      dup4\n        /* \"#utility.yul\":3574:3588   */\n      add\n        /* \"#utility.yul\":3570:3598   */\n      and\n        /* \"#utility.yul\":3560:3598   */\n      swap1\n      pop\n        /* \"#utility.yul\":3502:3604   */\n      swap2\n      swap1\n      pop\n      jump\t// out\n        /* \"#utility.yul\":3610:3790   */\n    tag_86:\n        /* \"#utility.yul\":3658:3735   */\n      0x4e487b7100000000000000000000000000000000000000000000000000000000\n        /* \"#utility.yul\":3655:3656   */\n      0x00\n        /* \"#utility.yul\":3648:3736   */\n      mstore\n        /* \"#utility.yul\":3755:3759   */\n      0x41\n        /* \"#utility.yul\":3752:3753   */\n      0x04\n        /* \"#utility.yul\":3745:3760   */\n      mstore\n        /* \"#utility.yul\":3779:3783   */\n      0x24\n        /* \"#utility.yul\":3776:3777   */\n      0x00\n        /* \"#utility.yul\":3769:3784   */\n      revert\n        /* \"#utility.yul\":3796:4077   */\n    tag_307:\n        /* \"#utility.yul\":3879:3906   */\n      tag_386\n        /* \"#utility.yul\":3901:3905   */\n      dup3\n        /* \"#utility.yul\":3879:3906   */\n      tag_306\n      jump\t// in\n    tag_386:\n        /* \"#utility.yul\":3871:3877   */\n      dup2\n        /* \"#utility.yul\":3867:3907   */\n      add\n        /* \"#utility.yul\":4009:4015   */\n      dup2\n        /* \"#utility.yul\":3997:4007   */\n      dup2\n        /* \"#utility.yul\":3994:4016   */\n      lt\n        /* \"#utility.yul\":3973:3991   */\n      0xffffffffffffffff\n        /* \"#utility.yul\":3961:3971   */\n      dup3\n        /* \"#utility.yul\":3958:3992   */\n      gt\n        /* \"#utility.yul\":3955:4017   */\n      or\n        /* \"#utility.yul\":3952:4040   */\n      iszero\n      tag_387\n      jumpi\n        /* \"#utility.yul\":4020:4038   */\n      tag_388\n      tag_86\n      jump\t// in\n    tag_388:\n        /* \"#utility.yul\":3952:4040   */\n    tag_387:\n        /* \"#utility.yul\":4060:4070   */\n      dup1\n        /* \"#utility.yul\":4056:4058   */\n      0x40\n        /* \"#utility.yul\":4049:4071   */\n      mstore\n        /* \"#utility.yul\":3839:4077   */\n      pop\n        /* \"#utility.yul\":3796:4077   */\n      pop\n      pop\n      jump\t// out\n        /* \"#utility.yul\":4083:4212   */\n    tag_308:\n        /* \"#utility.yul\":4117:4123   */\n      0x00\n        /* \"#utility.yul\":4144:4164   */\n      tag_390\n      tag_292\n      jump\t// in\n    tag_390:\n        /* \"#utility.yul\":4134:4164   */\n      swap1\n      pop\n        /* \"#utility.yul\":4173:4206   */\n      tag_391\n        /* \"#utility.yul\":4201:4205   */\n      dup3\n        /* \"#utility.yul\":4193:4199   */\n      dup3\n        /* \"#utility.yul\":4173:4206   */\n      tag_307\n      jump\t// in\n    tag_391:\n        /* \"#utility.yul\":4083:4212   */\n      swap2\n      swap1\n      pop\n      jump\t// out\n        /* \"#utility.yul\":4371:4938   */\n    tag_310:\n        /* \"#utility.yul\":4444:4449   */\n      0x00\n        /* \"#utility.yul\":4488:4492   */\n      0x40\n        /* \"#utility.yul\":4476:4485   */\n      dup3\n        /* \"#utility.yul\":4471:4474   */\n      dup5\n        /* \"#utility.yul\":4467:4486   */\n      sub\n        /* \"#utility.yul\":4463:4493   */\n      slt\n        /* \"#utility.yul\":4460:4577   */\n      iszero\n      tag_394\n      jumpi\n        /* \"#utility.yul\":4496:4575   */\n      tag_395\n      tag_305\n      jump\t// in\n    tag_395:\n        /* \"#utility.yul\":4460:4577   */\n    tag_394:\n        /* \"#utility.yul\":4595:4616   */\n      tag_396\n        /* \"#utility.yul\":4611:4615   */\n      0x40\n        /* \"#utility.yul\":4595:4616   */\n      tag_308\n      jump\t// in\n    tag_396:\n        /* \"#utility.yul\":4586:4616   */\n      swap1\n      pop\n        /* \"#utility.yul\":4672:4673   */\n      0x00\n        /* \"#utility.yul\":4712:4761   */\n      tag_397\n        /* \"#utility.yul\":4757:4760   */\n      dup5\n        /* \"#utility.yul\":4748:4754   */\n      dup3\n        /* \"#utility.yul\":4737:4746   */\n      dup6\n        /* \"#utility.yul\":4733:4755   */\n      add\n        /* \"#utility.yul\":4712:4761   */\n      tag_300\n      jump\t// in\n    tag_397:\n        /* \"#utility.yul\":4705:4709   */\n      0x00\n        /* \"#utility.yul\":4698:4703   */\n      dup4\n        /* \"#utility.yul\":4694:4710   */\n      add\n        /* \"#utility.yul\":4687:4762   */\n      mstore\n        /* \"#utility.yul\":4626:4773   */\n      pop\n        /* \"#utility.yul\":4829:4831   */\n      0x20\n        /* \"#utility.yul\":4870:4919   */\n      tag_398\n        /* \"#utility.yul\":4915:4918   */\n      dup5\n        /* \"#utility.yul\":4906:4912   */\n      dup3\n        /* \"#utility.yul\":4895:4904   */\n      dup6\n        /* \"#utility.yul\":4891:4913   */\n      add\n        /* \"#utility.yul\":4870:4919   */\n      tag_300\n      jump\t// in\n    tag_398:\n        /* \"#utility.yul\":4863:4867   */\n      0x20\n        /* \"#utility.yul\":4856:4861   */\n      dup4\n        /* \"#utility.yul\":4852:4868   */\n      add\n        /* \"#utility.yul\":4845:4920   */\n      mstore\n        /* \"#utility.yul\":4783:4931   */\n      pop\n        /* \"#utility.yul\":4371:4938   */\n      swap3\n      swap2\n      pop\n      pop\n      jump\t// out\n        /* \"#utility.yul\":4944:5061   */\n    tag_311:\n        /* \"#utility.yul\":5053:5054   */\n      0x00\n        /* \"#utility.yul\":5050:5051   */\n      0x00\n        /* \"#utility.yul\":5043:5055   */\n      revert\n        /* \"#utility.yul\":5067:5316   */\n    tag_312:\n        /* \"#utility.yul\":5142:5146   */\n      0x00\n        /* \"#utility.yul\":5232:5250   */\n      0xffffffffffffffff\n        /* \"#utility.yul\":5224:5230   */\n      dup3\n        /* \"#utility.yul\":5221:5251   */\n      gt\n        /* \"#utility.yul\":5218:5274   */\n      iszero\n      tag_401\n      jumpi\n        /* \"#utility.yul\":5254:5272   */\n      tag_402\n      tag_86\n      jump\t// in\n    tag_402:\n        /* \"#utility.yul\":5218:5274   */\n    tag_401:\n        /* \"#utility.yul\":5304:5308   */\n      0x20\n        /* \"#utility.yul\":5296:5302   */\n      dup3\n        /* \"#utility.yul\":5292:5309   */\n      mul\n        /* \"#utility.yul\":5284:5309   */\n      swap1\n      pop\n        /* \"#utility.yul\":5067:5316   */\n      swap2\n      swap1\n      pop\n      jump\t// out\n        /* \"#utility.yul\":5340:5983   */\n    tag_313:\n        /* \"#utility.yul\":5434:5439   */\n      0x00\n        /* \"#utility.yul\":5459:5538   */\n      tag_404\n        /* \"#utility.yul\":5475:5537   */\n      tag_405\n        /* \"#utility.yul\":5530:5536   */\n      dup5\n        /* \"#utility.yul\":5475:5537   */\n      tag_312\n      jump\t// in\n    tag_405:\n        /* \"#utility.yul\":5459:5538   */\n      tag_308\n      jump\t// in\n    tag_404:\n        /* \"#utility.yul\":5450:5538   */\n      swap1\n      pop\n        /* \"#utility.yul\":5558:5563   */\n      dup1\n        /* \"#utility.yul\":5611:5615   */\n      0x20\n        /* \"#utility.yul\":5603:5609   */\n      dup5\n        /* \"#utility.yul\":5599:5616   */\n      mul\n        /* \"#utility.yul\":5591:5597   */\n      dup4\n        /* \"#utility.yul\":5587:5617   */\n      add\n        /* \"#utility.yul\":5640:5643   */\n      dup6\n        /* \"#utility.yul\":5632:5638   */\n      dup2\n        /* \"#utility.yul\":5629:5644   */\n      gt\n        /* \"#utility.yul\":5626:5748   */\n      iszero\n      tag_406\n      jumpi\n        /* \"#utility.yul\":5659:5738   */\n      tag_407\n      tag_297\n      jump\t// in\n    tag_407:\n        /* \"#utility.yul\":5626:5748   */\n    tag_406:\n        /* \"#utility.yul\":5774:5780   */\n      dup4\n        /* \"#utility.yul\":5757:5977   */\n    tag_408:\n        /* \"#utility.yul\":5791:5797   */\n      dup2\n        /* \"#utility.yul\":5786:5789   */\n      dup2\n        /* \"#utility.yul\":5783:5798   */\n      lt\n        /* \"#utility.yul\":5757:5977   */\n      iszero\n      tag_410\n      jumpi\n        /* \"#utility.yul\":5866:5869   */\n      dup1\n        /* \"#utility.yul\":5895:5932   */\n      tag_411\n        /* \"#utility.yul\":5928:5931   */\n      dup9\n        /* \"#utility.yul\":5916:5926   */\n      dup3\n        /* \"#utility.yul\":5895:5932   */\n      tag_300\n      jump\t// in\n    tag_411:\n        /* \"#utility.yul\":5890:5893   */\n      dup5\n        /* \"#utility.yul\":5883:5933   */\n      mstore\n        /* \"#utility.yul\":5962:5966   */\n      0x20\n        /* \"#utility.yul\":5957:5960   */\n      dup5\n        /* \"#utility.yul\":5953:5967   */\n      add\n        /* \"#utility.yul\":5946:5967   */\n      swap4\n      pop\n        /* \"#utility.yul\":5833:5977   */\n      pop\n        /* \"#utility.yul\":5817:5821   */\n      0x20\n        /* \"#utility.yul\":5812:5815   */\n      dup2\n        /* \"#utility.yul\":5808:5822   */\n      add\n        /* \"#utility.yul\":5801:5822   */\n      swap1\n      pop\n        /* \"#utility.yul\":5757:5977   */\n      jump(tag_408)\n    tag_410:\n        /* \"#utility.yul\":5761:5782   */\n      pop\n        /* \"#utility.yul\":5440:5983   */\n      pop\n      pop\n        /* \"#utility.yul\":5340:5983   */\n      swap4\n      swap3\n      pop\n      pop\n      pop\n      jump\t// out\n        /* \"#utility.yul\":6007:6346   */\n    tag_314:\n        /* \"#utility.yul\":6076:6081   */\n      0x00\n        /* \"#utility.yul\":6125:6128   */\n      dup3\n        /* \"#utility.yul\":6118:6122   */\n      0x1f\n        /* \"#utility.yul\":6110:6116   */\n      dup4\n        /* \"#utility.yul\":6106:6123   */\n      add\n        /* \"#utility.yul\":6102:6129   */\n      slt\n        /* \"#utility.yul\":6092:6214   */\n      tag_413\n      jumpi\n        /* \"#utility.yul\":6133:6212   */\n      tag_414\n      tag_311\n      jump\t// in\n    tag_414:\n        /* \"#utility.yul\":6092:6214   */\n    tag_413:\n        /* \"#utility.yul\":6237:6241   */\n      0x02\n        /* \"#utility.yul\":6259:6340   */\n      tag_415\n        /* \"#utility.yul\":6336:6339   */\n      dup5\n        /* \"#utility.yul\":6328:6334   */\n      dup3\n        /* \"#utility.yul\":6320:6326   */\n      dup6\n        /* \"#utility.yul\":6259:6340   */\n      tag_313\n      jump\t// in\n    tag_415:\n        /* \"#utility.yul\":6250:6340   */\n      swap2\n      pop\n        /* \"#utility.yul\":6082:6346   */\n      pop\n        /* \"#utility.yul\":6007:6346   */\n      swap3\n      swap2\n      pop\n      pop\n      jump\t// out\n        /* \"#utility.yul\":6382:6995   */\n    tag_315:\n        /* \"#utility.yul\":6455:6460   */\n      0x00\n        /* \"#utility.yul\":6499:6503   */\n      0x80\n        /* \"#utility.yul\":6487:6496   */\n      dup3\n        /* \"#utility.yul\":6482:6485   */\n      dup5\n        /* \"#utility.yul\":6478:6497   */\n      sub\n        /* \"#utility.yul\":6474:6504   */\n      slt\n        /* \"#utility.yul\":6471:6588   */\n      iszero\n      tag_417\n      jumpi\n        /* \"#utility.yul\":6507:6586   */\n      tag_418\n      tag_305\n      jump\t// in\n    tag_418:\n        /* \"#utility.yul\":6471:6588   */\n    tag_417:\n        /* \"#utility.yul\":6606:6627   */\n      tag_419\n        /* \"#utility.yul\":6622:6626   */\n      0x40\n        /* \"#utility.yul\":6606:6627   */\n      tag_308\n      jump\t// in\n    tag_419:\n        /* \"#utility.yul\":6597:6627   */\n      swap1\n      pop\n        /* \"#utility.yul\":6683:6684   */\n      0x00\n        /* \"#utility.yul\":6723:6795   */\n      tag_420\n        /* \"#utility.yul\":6791:6794   */\n      dup5\n        /* \"#utility.yul\":6782:6788   */\n      dup3\n        /* \"#utility.yul\":6771:6780   */\n      dup6\n        /* \"#utility.yul\":6767:6789   */\n      add\n        /* \"#utility.yul\":6723:6795   */\n      tag_314\n      jump\t// in\n    tag_420:\n        /* \"#utility.yul\":6716:6720   */\n      0x00\n        /* \"#utility.yul\":6709:6714   */\n      dup4\n        /* \"#utility.yul\":6705:6721   */\n      add\n        /* \"#utility.yul\":6698:6796   */\n      mstore\n        /* \"#utility.yul\":6637:6807   */\n      pop\n        /* \"#utility.yul\":6863:6865   */\n      0x40\n        /* \"#utility.yul\":6904:6976   */\n      tag_421\n        /* \"#utility.yul\":6972:6975   */\n      dup5\n        /* \"#utility.yul\":6963:6969   */\n      dup3\n        /* \"#utility.yul\":6952:6961   */\n      dup6\n        /* \"#utility.yul\":6948:6970   */\n      add\n        /* \"#utility.yul\":6904:6976   */\n      tag_314\n      jump\t// in\n    tag_421:\n        /* \"#utility.yul\":6897:6901   */\n      0x20\n        /* \"#utility.yul\":6890:6895   */\n      dup4\n        /* \"#utility.yul\":6886:6902   */\n      add\n        /* \"#utility.yul\":6879:6977   */\n      mstore\n        /* \"#utility.yul\":6817:6988   */\n      pop\n        /* \"#utility.yul\":6382:6995   */\n      swap3\n      swap2\n      pop\n      pop\n      jump\t// out\n        /* \"#utility.yul\":7030:7828   */\n    tag_316:\n        /* \"#utility.yul\":7101:7106   */\n      0x00\n        /* \"#utility.yul\":7145:7151   */\n      0x0100\n        /* \"#utility.yul\":7133:7142   */\n      dup3\n        /* \"#utility.yul\":7128:7131   */\n      dup5\n        /* \"#utility.yul\":7124:7143   */\n      sub\n        /* \"#utility.yul\":7120:7152   */\n      slt\n        /* \"#utility.yul\":7117:7236   */\n      iszero\n      tag_423\n      jumpi\n        /* \"#utility.yul\":7155:7234   */\n      tag_424\n      tag_305\n      jump\t// in\n    tag_424:\n        /* \"#utility.yul\":7117:7236   */\n    tag_423:\n        /* \"#utility.yul\":7254:7275   */\n      tag_425\n        /* \"#utility.yul\":7270:7274   */\n      0x60\n        /* \"#utility.yul\":7254:7275   */\n      tag_308\n      jump\t// in\n    tag_425:\n        /* \"#utility.yul\":7245:7275   */\n      swap1\n      pop\n        /* \"#utility.yul\":7331:7332   */\n      0x00\n        /* \"#utility.yul\":7371:7444   */\n      tag_426\n        /* \"#utility.yul\":7440:7443   */\n      dup5\n        /* \"#utility.yul\":7431:7437   */\n      dup3\n        /* \"#utility.yul\":7420:7429   */\n      dup6\n        /* \"#utility.yul\":7416:7438   */\n      add\n        /* \"#utility.yul\":7371:7444   */\n      tag_310\n      jump\t// in\n    tag_426:\n        /* \"#utility.yul\":7364:7368   */\n      0x00\n        /* \"#utility.yul\":7357:7362   */\n      dup4\n        /* \"#utility.yul\":7353:7369   */\n      add\n        /* \"#utility.yul\":7346:7445   */\n      mstore\n        /* \"#utility.yul\":7285:7456   */\n      pop\n        /* \"#utility.yul\":7512:7514   */\n      0x40\n        /* \"#utility.yul\":7553:7626   */\n      tag_427\n        /* \"#utility.yul\":7622:7625   */\n      dup5\n        /* \"#utility.yul\":7613:7619   */\n      dup3\n        /* \"#utility.yul\":7602:7611   */\n      dup6\n        /* \"#utility.yul\":7598:7620   */\n      add\n        /* \"#utility.yul\":7553:7626   */\n      tag_315\n      jump\t// in\n    tag_427:\n        /* \"#utility.yul\":7546:7550   */\n      0x20\n        /* \"#utility.yul\":7539:7544   */\n      dup4\n        /* \"#utility.yul\":7535:7551   */\n      add\n        /* \"#utility.yul\":7528:7627   */\n      mstore\n        /* \"#utility.yul\":7466:7638   */\n      pop\n        /* \"#utility.yul\":7694:7697   */\n      0xc0\n        /* \"#utility.yul\":7736:7809   */\n      tag_428\n        /* \"#utility.yul\":7805:7808   */\n      dup5\n        /* \"#utility.yul\":7796:7802   */\n      dup3\n        /* \"#utility.yul\":7785:7794   */\n      dup6\n        /* \"#utility.yul\":7781:7803   */\n      add\n        /* \"#utility.yul\":7736:7809   */\n      tag_310\n      jump\t// in\n    tag_428:\n        /* \"#utility.yul\":7729:7733   */\n      0x40\n        /* \"#utility.yul\":7722:7727   */\n      dup4\n        /* \"#utility.yul\":7718:7734   */\n      add\n        /* \"#utility.yul\":7711:7810   */\n      mstore\n        /* \"#utility.yul\":7648:7821   */\n      pop\n        /* \"#utility.yul\":7030:7828   */\n      swap3\n      swap2\n      pop\n      pop\n      jump\t// out\n        /* \"#utility.yul\":7834:8083   */\n    tag_317:\n        /* \"#utility.yul\":7909:7913   */\n      0x00\n        /* \"#utility.yul\":7999:8017   */\n      0xffffffffffffffff\n        /* \"#utility.yul\":7991:7997   */\n      dup3\n        /* \"#utility.yul\":7988:8018   */\n      gt\n        /* \"#utility.yul\":7985:8041   */\n      iszero\n      tag_430\n      jumpi\n        /* \"#utility.yul\":8021:8039   */\n      tag_431\n      tag_86\n      jump\t// in\n    tag_431:\n        /* \"#utility.yul\":7985:8041   */\n    tag_430:\n        /* \"#utility.yul\":8071:8075   */\n      0x20\n        /* \"#utility.yul\":8063:8069   */\n      dup3\n        /* \"#utility.yul\":8059:8076   */\n      mul\n        /* \"#utility.yul\":8051:8076   */\n      swap1\n      pop\n        /* \"#utility.yul\":7834:8083   */\n      swap2\n      swap1\n      pop\n      jump\t// out\n        /* \"#utility.yul\":8107:8750   */\n    tag_318:\n        /* \"#utility.yul\":8201:8206   */\n      0x00\n        /* \"#utility.yul\":8226:8305   */\n      tag_433\n        /* \"#utility.yul\":8242:8304   */\n      tag_434\n        /* \"#utility.yul\":8297:8303   */\n      dup5\n        /* \"#utility.yul\":8242:8304   */\n      tag_317\n      jump\t// in\n    tag_434:\n        /* \"#utility.yul\":8226:8305   */\n      tag_308\n      jump\t// in\n    tag_433:\n        /* \"#utility.yul\":8217:8305   */\n      swap1\n      pop\n        /* \"#utility.yul\":8325:8330   */\n      dup1\n        /* \"#utility.yul\":8378:8382   */\n      0x20\n        /* \"#utility.yul\":8370:8376   */\n      dup5\n        /* \"#utility.yul\":8366:8383   */\n      mul\n        /* \"#utility.yul\":8358:8364   */\n      dup4\n        /* \"#utility.yul\":8354:8384   */\n      add\n        /* \"#utility.yul\":8407:8410   */\n      dup6\n        /* \"#utility.yul\":8399:8405   */\n      dup2\n        /* \"#utility.yul\":8396:8411   */\n      gt\n        /* \"#utility.yul\":8393:8515   */\n      iszero\n      tag_435\n      jumpi\n        /* \"#utility.yul\":8426:8505   */\n      tag_436\n      tag_297\n      jump\t// in\n    tag_436:\n        /* \"#utility.yul\":8393:8515   */\n    tag_435:\n        /* \"#utility.yul\":8541:8547   */\n      dup4\n        /* \"#utility.yul\":8524:8744   */\n    tag_437:\n        /* \"#utility.yul\":8558:8564   */\n      dup2\n        /* \"#utility.yul\":8553:8556   */\n      dup2\n        /* \"#utility.yul\":8550:8565   */\n      lt\n        /* \"#utility.yul\":8524:8744   */\n      iszero\n      tag_439\n      jumpi\n        /* \"#utility.yul\":8633:8636   */\n      dup1\n        /* \"#utility.yul\":8662:8699   */\n      tag_440\n        /* \"#utility.yul\":8695:8698   */\n      dup9\n        /* \"#utility.yul\":8683:8693   */\n      dup3\n        /* \"#utility.yul\":8662:8699   */\n      tag_300\n      jump\t// in\n    tag_440:\n        /* \"#utility.yul\":8657:8660   */\n      dup5\n        /* \"#utility.yul\":8650:8700   */\n      mstore\n        /* \"#utility.yul\":8729:8733   */\n      0x20\n        /* \"#utility.yul\":8724:8727   */\n      dup5\n        /* \"#utility.yul\":8720:8734   */\n      add\n        /* \"#utility.yul\":8713:8734   */\n      swap4\n      pop\n        /* \"#utility.yul\":8600:8744   */\n      pop\n        /* \"#utility.yul\":8584:8588   */\n      0x20\n        /* \"#utility.yul\":8579:8582   */\n      dup2\n        /* \"#utility.yul\":8575:8589   */\n      add\n        /* \"#utility.yul\":8568:8589   */\n      swap1\n      pop\n        /* \"#utility.yul\":8524:8744   */\n      jump(tag_437)\n    tag_439:\n        /* \"#utility.yul\":8528:8549   */\n      pop\n        /* \"#utility.yul\":8207:8750   */\n      pop\n      pop\n        /* \"#utility.yul\":8107:8750   */\n      swap4\n      swap3\n      pop\n      pop\n      pop\n      jump\t// out\n        /* \"#utility.yul\":8774:9113   */\n    tag_319:\n        /* \"#utility.yul\":8843:8848   */\n      0x00\n        /* \"#utility.yul\":8892:8895   */\n      dup3\n        /* \"#utility.yul\":8885:8889   */\n      0x1f\n        /* \"#utility.yul\":8877:8883   */\n      dup4\n        /* \"#utility.yul\":8873:8890   */\n      add\n        /* \"#utility.yul\":8869:8896   */\n      slt\n        /* \"#utility.yul\":8859:8981   */\n      tag_442\n      jumpi\n        /* \"#utility.yul\":8900:8979   */\n      tag_443\n      tag_311\n      jump\t// in\n    tag_443:\n        /* \"#utility.yul\":8859:8981   */\n    tag_442:\n        /* \"#utility.yul\":9004:9008   */\n      0x04\n        /* \"#utility.yul\":9026:9107   */\n      tag_444\n        /* \"#utility.yul\":9103:9106   */\n      dup5\n        /* \"#utility.yul\":9095:9101   */\n      dup3\n        /* \"#utility.yul\":9087:9093   */\n      dup6\n        /* \"#utility.yul\":9026:9107   */\n      tag_318\n      jump\t// in\n    tag_444:\n        /* \"#utility.yul\":9017:9107   */\n      swap2\n      pop\n        /* \"#utility.yul\":8849:9113   */\n      pop\n        /* \"#utility.yul\":8774:9113   */\n      swap3\n      swap2\n      pop\n      pop\n      jump\t// out\n        /* \"#utility.yul\":9119:9685   */\n    tag_30:\n        /* \"#utility.yul\":9232:9238   */\n      0x00\n        /* \"#utility.yul\":9240:9246   */\n      0x00\n        /* \"#utility.yul\":9289:9292   */\n      0x0180\n        /* \"#utility.yul\":9277:9286   */\n      dup4\n        /* \"#utility.yul\":9268:9275   */\n      dup6\n        /* \"#utility.yul\":9264:9287   */\n      sub\n        /* \"#utility.yul\":9260:9293   */\n      slt\n        /* \"#utility.yul\":9257:9377   */\n      iszero\n      tag_446\n      jumpi\n        /* \"#utility.yul\":9296:9375   */\n      tag_447\n      tag_293\n      jump\t// in\n    tag_447:\n        /* \"#utility.yul\":9257:9377   */\n    tag_446:\n        /* \"#utility.yul\":9416:9417   */\n      0x00\n        /* \"#utility.yul\":9441:9516   */\n      tag_448\n        /* \"#utility.yul\":9508:9515   */\n      dup6\n        /* \"#utility.yul\":9499:9505   */\n      dup3\n        /* \"#utility.yul\":9488:9497   */\n      dup7\n        /* \"#utility.yul\":9484:9506   */\n      add\n        /* \"#utility.yul\":9441:9516   */\n      tag_316\n      jump\t// in\n    tag_448:\n        /* \"#utility.yul\":9431:9516   */\n      swap3\n      pop\n        /* \"#utility.yul\":9387:9526   */\n      pop\n        /* \"#utility.yul\":9565:9568   */\n      0x0100\n        /* \"#utility.yul\":9592:9668   */\n      tag_449\n        /* \"#utility.yul\":9660:9667   */\n      dup6\n        /* \"#utility.yul\":9651:9657   */\n      dup3\n        /* \"#utility.yul\":9640:9649   */\n      dup7\n        /* \"#utility.yul\":9636:9658   */\n      add\n        /* \"#utility.yul\":9592:9668   */\n      tag_319\n      jump\t// in\n    tag_449:\n        /* \"#utility.yul\":9582:9668   */\n      swap2\n      pop\n        /* \"#utility.yul\":9536:9678   */\n      pop\n        /* \"#utility.yul\":9119:9685   */\n      swap3\n      pop\n      swap3\n      swap1\n      pop\n      jump\t// out\n        /* \"#utility.yul\":9691:10020   */\n    tag_35:\n        /* \"#utility.yul\":9750:9756   */\n      0x00\n        /* \"#utility.yul\":9799:9801   */\n      0x20\n        /* \"#utility.yul\":9787:9796   */\n      dup3\n        /* \"#utility.yul\":9778:9785   */\n      dup5\n        /* \"#utility.yul\":9774:9797   */\n      sub\n        /* \"#utility.yul\":9770:9802   */\n      slt\n        /* \"#utility.yul\":9767:9886   */\n      iszero\n      tag_451\n      jumpi\n        /* \"#utility.yul\":9805:9884   */\n      tag_452\n      tag_293\n      jump\t// in\n    tag_452:\n        /* \"#utility.yul\":9767:9886   */\n    tag_451:\n        /* \"#utility.yul\":9925:9926   */\n      0x00\n        /* \"#utility.yul\":9950:10003   */\n      tag_453\n        /* \"#utility.yul\":9995:10002   */\n      dup5\n        /* \"#utility.yul\":9986:9992   */\n      dup3\n        /* \"#utility.yul\":9975:9984   */\n      dup6\n        /* \"#utility.yul\":9971:9993   */\n      add\n        /* \"#utility.yul\":9950:10003   */\n      tag_300\n      jump\t// in\n    tag_453:\n        /* \"#utility.yul\":9940:10003   */\n      swap2\n      pop\n        /* \"#utility.yul\":9896:10013   */\n      pop\n        /* \"#utility.yul\":9691:10020   */\n      swap3\n      swap2\n      pop\n      pop\n      jump\t// out\n        /* \"#utility.yul\":10026:10152   */\n    tag_320:\n        /* \"#utility.yul\":10063:10070   */\n      0x00\n        /* \"#utility.yul\":10103:10145   */\n      0xffffffffffffffffffffffffffffffffffffffff\n        /* \"#utility.yul\":10096:10101   */\n      dup3\n        /* \"#utility.yul\":10092:10146   */\n      and\n        /* \"#utility.yul\":10081:10146   */\n      swap1\n      pop\n        /* \"#utility.yul\":10026:10152   */\n      swap2\n      swap1\n      pop\n      jump\t// out\n        /* \"#utility.yul\":10158:10254   */\n    tag_321:\n        /* \"#utility.yul\":10195:10202   */\n      0x00\n        /* \"#utility.yul\":10224:10248   */\n      tag_456\n        /* \"#utility.yul\":10242:10247   */\n      dup3\n        /* \"#utility.yul\":10224:10248   */\n      tag_320\n      jump\t// in\n    tag_456:\n        /* \"#utility.yul\":10213:10248   */\n      swap1\n      pop\n        /* \"#utility.yul\":10158:10254   */\n      swap2\n      swap1\n      pop\n      jump\t// out\n        /* \"#utility.yul\":10260:10378   */\n    tag_322:\n        /* \"#utility.yul\":10347:10371   */\n      tag_458\n        /* \"#utility.yul\":10365:10370   */\n      dup2\n        /* \"#utility.yul\":10347:10371   */\n      tag_321\n      jump\t// in\n    tag_458:\n        /* \"#utility.yul\":10342:10345   */\n      dup3\n        /* \"#utility.yul\":10335:10372   */\n      mstore\n        /* \"#utility.yul\":10260:10378   */\n      pop\n      pop\n      jump\t// out\n        /* \"#utility.yul\":10384:10606   */\n    tag_41:\n        /* \"#utility.yul\":10477:10481   */\n      0x00\n        /* \"#utility.yul\":10515:10517   */\n      0x20\n        /* \"#utility.yul\":10504:10513   */\n      dup3\n        /* \"#utility.yul\":10500:10518   */\n      add\n        /* \"#utility.yul\":10492:10518   */\n      swap1\n      pop\n        /* \"#utility.yul\":10528:10599   */\n      tag_460\n        /* \"#utility.yul\":10596:10597   */\n      0x00\n        /* \"#utility.yul\":10585:10594   */\n      dup4\n        /* \"#utility.yul\":10581:10598   */\n      add\n        /* \"#utility.yul\":10572:10578   */\n      dup5\n        /* \"#utility.yul\":10528:10599   */\n      tag_322\n      jump\t// in\n    tag_460:\n        /* \"#utility.yul\":10384:10606   */\n      swap3\n      swap2\n      pop\n      pop\n      jump\t// out\n        /* \"#utility.yul\":10612:10781   */\n    tag_323:\n        /* \"#utility.yul\":10696:10707   */\n      0x00\n        /* \"#utility.yul\":10730:10736   */\n      dup3\n        /* \"#utility.yul\":10725:10728   */\n      dup3\n        /* \"#utility.yul\":10718:10737   */\n      mstore\n        /* \"#utility.yul\":10770:10774   */\n      0x20\n        /* \"#utility.yul\":10765:10768   */\n      dup3\n        /* \"#utility.yul\":10761:10775   */\n      add\n        /* \"#utility.yul\":10746:10775   */\n      swap1\n      pop\n        /* \"#utility.yul\":10612:10781   */\n      swap3\n      swap2\n      pop\n      pop\n      jump\t// out\n        /* \"#utility.yul\":10787:10953   */\n    tag_324:\n        /* \"#utility.yul\":10927:10945   */\n      0x456c656363696f6e206365727261646100000000000000000000000000000000\n        /* \"#utility.yul\":10923:10924   */\n      0x00\n        /* \"#utility.yul\":10915:10921   */\n      dup3\n        /* \"#utility.yul\":10911:10925   */\n      add\n        /* \"#utility.yul\":10904:10946   */\n      mstore\n        /* \"#utility.yul\":10787:10953   */\n      pop\n      jump\t// out\n        /* \"#utility.yul\":10959:11325   */\n    tag_325:\n        /* \"#utility.yul\":11101:11104   */\n      0x00\n        /* \"#utility.yul\":11122:11189   */\n      tag_464\n        /* \"#utility.yul\":11186:11188   */\n      0x10\n        /* \"#utility.yul\":11181:11184   */\n      dup4\n        /* \"#utility.yul\":11122:11189   */\n      tag_323\n      jump\t// in\n    tag_464:\n        /* \"#utility.yul\":11115:11189   */\n      swap2\n      pop\n        /* \"#utility.yul\":11198:11291   */\n      tag_465\n        /* \"#utility.yul\":11287:11290   */\n      dup3\n        /* \"#utility.yul\":11198:11291   */\n      tag_324\n      jump\t// in\n    tag_465:\n        /* \"#utility.yul\":11316:11318   */\n      0x20\n        /* \"#utility.yul\":11311:11314   */\n      dup3\n        /* \"#utility.yul\":11307:11319   */\n      add\n        /* \"#utility.yul\":11300:11319   */\n      swap1\n      pop\n        /* \"#utility.yul\":10959:11325   */\n      swap2\n      swap1\n      pop\n      jump\t// out\n        /* \"#utility.yul\":11331:11750   */\n    tag_53:\n        /* \"#utility.yul\":11497:11501   */\n      0x00\n        /* \"#utility.yul\":11535:11537   */\n      0x20\n        /* \"#utility.yul\":11524:11533   */\n      dup3\n        /* \"#utility.yul\":11520:11538   */\n      add\n        /* \"#utility.yul\":11512:11538   */\n      swap1\n      pop\n        /* \"#utility.yul\":11584:11593   */\n      dup2\n        /* \"#utility.yul\":11578:11582   */\n      dup2\n        /* \"#utility.yul\":11574:11594   */\n      sub\n        /* \"#utility.yul\":11570:11571   */\n      0x00\n        /* \"#utility.yul\":11559:11568   */\n      dup4\n        /* \"#utility.yul\":11555:11572   */\n      add\n        /* \"#utility.yul\":11548:11595   */\n      mstore\n        /* \"#utility.yul\":11612:11743   */\n      tag_467\n        /* \"#utility.yul\":11738:11742   */\n      dup2\n        /* \"#utility.yul\":11612:11743   */\n      tag_325\n      jump\t// in\n    tag_467:\n        /* \"#utility.yul\":11604:11743   */\n      swap1\n      pop\n        /* \"#utility.yul\":11331:11750   */\n      swap2\n      swap1\n      pop\n      jump\t// out\n        /* \"#utility.yul\":11756:11928   */\n    tag_326:\n        /* \"#utility.yul\":11896:11920   */\n      0x4e756c6c6966696572207961207574696c697a61646f00000000000000000000\n        /* \"#utility.yul\":11892:11893   */\n      0x00\n        /* \"#utility.yul\":11884:11890   */\n      dup3\n        /* \"#utility.yul\":11880:11894   */\n      add\n        /* \"#utility.yul\":11873:11921   */\n      mstore\n        /* \"#utility.yul\":11756:11928   */\n      pop\n      jump\t// out\n        /* \"#utility.yul\":11934:12300   */\n    tag_327:\n        /* \"#utility.yul\":12076:12079   */\n      0x00\n        /* \"#utility.yul\":12097:12164   */\n      tag_470\n        /* \"#utility.yul\":12161:12163   */\n      0x16\n        /* \"#utility.yul\":12156:12159   */\n      dup4\n        /* \"#utility.yul\":12097:12164   */\n      tag_323\n      jump\t// in\n    tag_470:\n        /* \"#utility.yul\":12090:12164   */\n      swap2\n      pop\n        /* \"#utility.yul\":12173:12266   */\n      tag_471\n        /* \"#utility.yul\":12262:12265   */\n      dup3\n        /* \"#utility.yul\":12173:12266   */\n      tag_326\n      jump\t// in\n    tag_471:\n        /* \"#utility.yul\":12291:12293   */\n      0x20\n        /* \"#utility.yul\":12286:12289   */\n      dup3\n        /* \"#utility.yul\":12282:12294   */\n      add\n        /* \"#utility.yul\":12275:12294   */\n      swap1\n      pop\n        /* \"#utility.yul\":11934:12300   */\n      swap2\n      swap1\n      pop\n      jump\t// out\n        /* \"#utility.yul\":12306:12725   */\n    tag_56:\n        /* \"#utility.yul\":12472:12476   */\n      0x00\n        /* \"#utility.yul\":12510:12512   */\n      0x20\n        /* \"#utility.yul\":12499:12508   */\n      dup3\n        /* \"#utility.yul\":12495:12513   */\n      add\n        /* \"#utility.yul\":12487:12513   */\n      swap1\n      pop\n        /* \"#utility.yul\":12559:12568   */\n      dup2\n        /* \"#utility.yul\":12553:12557   */\n      dup2\n        /* \"#utility.yul\":12549:12569   */\n      sub\n        /* \"#utility.yul\":12545:12546   */\n      0x00\n        /* \"#utility.yul\":12534:12543   */\n      dup4\n        /* \"#utility.yul\":12530:12547   */\n      add\n        /* \"#utility.yul\":12523:12570   */\n      mstore\n        /* \"#utility.yul\":12587:12718   */\n      tag_473\n        /* \"#utility.yul\":12713:12717   */\n      dup2\n        /* \"#utility.yul\":12587:12718   */\n      tag_327\n      jump\t// in\n    tag_473:\n        /* \"#utility.yul\":12579:12718   */\n      swap1\n      pop\n        /* \"#utility.yul\":12306:12725   */\n      swap2\n      swap1\n      pop\n      jump\t// out\n        /* \"#utility.yul\":12731:13105   */\n    tag_59:\n        /* \"#utility.yul\":12812:12818   */\n      0x00\n        /* \"#utility.yul\":12861:12864   */\n      0x0100\n        /* \"#utility.yul\":12849:12858   */\n      dup3\n        /* \"#utility.yul\":12840:12847   */\n      dup5\n        /* \"#utility.yul\":12836:12859   */\n      sub\n        /* \"#utility.yul\":12832:12865   */\n      slt\n        /* \"#utility.yul\":12829:12949   */\n      iszero\n      tag_475\n      jumpi\n        /* \"#utility.yul\":12868:12947   */\n      tag_476\n      tag_293\n      jump\t// in\n    tag_476:\n        /* \"#utility.yul\":12829:12949   */\n    tag_475:\n        /* \"#utility.yul\":12988:12989   */\n      0x00\n        /* \"#utility.yul\":13013:13088   */\n      tag_477\n        /* \"#utility.yul\":13080:13087   */\n      dup5\n        /* \"#utility.yul\":13071:13077   */\n      dup3\n        /* \"#utility.yul\":13060:13069   */\n      dup6\n        /* \"#utility.yul\":13056:13078   */\n      add\n        /* \"#utility.yul\":13013:13088   */\n      tag_316\n      jump\t// in\n    tag_477:\n        /* \"#utility.yul\":13003:13088   */\n      swap2\n      pop\n        /* \"#utility.yul\":12959:13098   */\n      pop\n        /* \"#utility.yul\":12731:13105   */\n      swap3\n      swap2\n      pop\n      pop\n      jump\t// out\n        /* \"#utility.yul\":13111:13277   */\n    tag_328:\n        /* \"#utility.yul\":13251:13269   */\n      0x496e76616c6964205a4b2070726f6f6600000000000000000000000000000000\n        /* \"#utility.yul\":13247:13248   */\n      0x00\n        /* \"#utility.yul\":13239:13245   */\n      dup3\n        /* \"#utility.yul\":13235:13249   */\n      add\n        /* \"#utility.yul\":13228:13270   */\n      mstore\n        /* \"#utility.yul\":13111:13277   */\n      pop\n      jump\t// out\n        /* \"#utility.yul\":13283:13649   */\n    tag_329:\n        /* \"#utility.yul\":13425:13428   */\n      0x00\n        /* \"#utility.yul\":13446:13513   */\n      tag_480\n        /* \"#utility.yul\":13510:13512   */\n      0x10\n        /* \"#utility.yul\":13505:13508   */\n      dup4\n        /* \"#utility.yul\":13446:13513   */\n      tag_323\n      jump\t// in\n    tag_480:\n        /* \"#utility.yul\":13439:13513   */\n      swap2\n      pop\n        /* \"#utility.yul\":13522:13615   */\n      tag_481\n        /* \"#utility.yul\":13611:13614   */\n      dup3\n        /* \"#utility.yul\":13522:13615   */\n      tag_328\n      jump\t// in\n    tag_481:\n        /* \"#utility.yul\":13640:13642   */\n      0x20\n        /* \"#utility.yul\":13635:13638   */\n      dup3\n        /* \"#utility.yul\":13631:13643   */\n      add\n        /* \"#utility.yul\":13624:13643   */\n      swap1\n      pop\n        /* \"#utility.yul\":13283:13649   */\n      swap2\n      swap1\n      pop\n      jump\t// out\n        /* \"#utility.yul\":13655:14074   */\n    tag_62:\n        /* \"#utility.yul\":13821:13825   */\n      0x00\n        /* \"#utility.yul\":13859:13861   */\n      0x20\n        /* \"#utility.yul\":13848:13857   */\n      dup3\n        /* \"#utility.yul\":13844:13862   */\n      add\n        /* \"#utility.yul\":13836:13862   */\n      swap1\n      pop\n        /* \"#utility.yul\":13908:13917   */\n      dup2\n        /* \"#utility.yul\":13902:13906   */\n      dup2\n        /* \"#utility.yul\":13898:13918   */\n      sub\n        /* \"#utility.yul\":13894:13895   */\n      0x00\n        /* \"#utility.yul\":13883:13892   */\n      dup4\n        /* \"#utility.yul\":13879:13896   */\n      add\n        /* \"#utility.yul\":13872:13919   */\n      mstore\n        /* \"#utility.yul\":13936:14067   */\n      tag_483\n        /* \"#utility.yul\":14062:14066   */\n      dup2\n        /* \"#utility.yul\":13936:14067   */\n      tag_329\n      jump\t// in\n    tag_483:\n        /* \"#utility.yul\":13928:14067   */\n      swap1\n      pop\n        /* \"#utility.yul\":13655:14074   */\n      swap2\n      swap1\n      pop\n      jump\t// out\n        /* \"#utility.yul\":14080:14260   */\n    tag_330:\n        /* \"#utility.yul\":14128:14205   */\n      0x4e487b7100000000000000000000000000000000000000000000000000000000\n        /* \"#utility.yul\":14125:14126   */\n      0x00\n        /* \"#utility.yul\":14118:14206   */\n      mstore\n        /* \"#utility.yul\":14225:14229   */\n      0x11\n        /* \"#utility.yul\":14222:14223   */\n      0x04\n        /* \"#utility.yul\":14215:14230   */\n      mstore\n        /* \"#utility.yul\":14249:14253   */\n      0x24\n        /* \"#utility.yul\":14246:14247   */\n      0x00\n        /* \"#utility.yul\":14239:14254   */\n      revert\n        /* \"#utility.yul\":14266:14457   */\n    tag_65:\n        /* \"#utility.yul\":14306:14309   */\n      0x00\n        /* \"#utility.yul\":14325:14345   */\n      tag_486\n        /* \"#utility.yul\":14343:14344   */\n      dup3\n        /* \"#utility.yul\":14325:14345   */\n      tag_290\n      jump\t// in\n    tag_486:\n        /* \"#utility.yul\":14320:14345   */\n      swap2\n      pop\n        /* \"#utility.yul\":14359:14379   */\n      tag_487\n        /* \"#utility.yul\":14377:14378   */\n      dup4\n        /* \"#utility.yul\":14359:14379   */\n      tag_290\n      jump\t// in\n    tag_487:\n        /* \"#utility.yul\":14354:14379   */\n      swap3\n      pop\n        /* \"#utility.yul\":14402:14403   */\n      dup3\n        /* \"#utility.yul\":14399:14400   */\n      dup3\n        /* \"#utility.yul\":14395:14404   */\n      add\n        /* \"#utility.yul\":14388:14404   */\n      swap1\n      pop\n        /* \"#utility.yul\":14423:14426   */\n      dup1\n        /* \"#utility.yul\":14420:14421   */\n      dup3\n        /* \"#utility.yul\":14417:14427   */\n      gt\n        /* \"#utility.yul\":14414:14450   */\n      iszero\n      tag_488\n      jumpi\n        /* \"#utility.yul\":14430:14448   */\n      tag_489\n      tag_330\n      jump\t// in\n    tag_489:\n        /* \"#utility.yul\":14414:14450   */\n    tag_488:\n        /* \"#utility.yul\":14266:14457   */\n      swap3\n      swap2\n      pop\n      pop\n      jump\t// out\n        /* \"#utility.yul\":14463:14643   */\n    tag_70:\n        /* \"#utility.yul\":14511:14588   */\n      0x4e487b7100000000000000000000000000000000000000000000000000000000\n        /* \"#utility.yul\":14508:14509   */\n      0x00\n        /* \"#utility.yul\":14501:14589   */\n      mstore\n        /* \"#utility.yul\":14608:14612   */\n      0x32\n        /* \"#utility.yul\":14605:14606   */\n      0x04\n        /* \"#utility.yul\":14598:14613   */\n      mstore\n        /* \"#utility.yul\":14632:14636   */\n      0x24\n        /* \"#utility.yul\":14629:14630   */\n      0x00\n        /* \"#utility.yul\":14622:14637   */\n      revert\n        /* \"#utility.yul\":14649:14753   */\n    tag_331:\n        /* \"#utility.yul\":14714:14720   */\n      0x00\n        /* \"#utility.yul\":14742:14746   */\n      0x02\n        /* \"#utility.yul\":14732:14746   */\n      swap1\n      pop\n        /* \"#utility.yul\":14649:14753   */\n      swap2\n      swap1\n      pop\n      jump\t// out\n        /* \"#utility.yul\":14759:14902   */\n    tag_332:\n        /* \"#utility.yul\":14856:14867   */\n      0x00\n        /* \"#utility.yul\":14893:14896   */\n      dup2\n        /* \"#utility.yul\":14878:14896   */\n      swap1\n      pop\n        /* \"#utility.yul\":14759:14902   */\n      swap3\n      swap2\n      pop\n      pop\n      jump\t// out\n        /* \"#utility.yul\":14908:15006   */\n    tag_333:\n        /* \"#utility.yul\":14973:14977   */\n      0x00\n        /* \"#utility.yul\":14996:14999   */\n      dup2\n        /* \"#utility.yul\":14988:14999   */\n      swap1\n      pop\n        /* \"#utility.yul\":14908:15006   */\n      swap2\n      swap1\n      pop\n      jump\t// out\n        /* \"#utility.yul\":15012:15120   */\n    tag_334:\n        /* \"#utility.yul\":15089:15113   */\n      tag_495\n        /* \"#utility.yul\":15107:15112   */\n      dup2\n        /* \"#utility.yul\":15089:15113   */\n      tag_290\n      jump\t// in\n    tag_495:\n        /* \"#utility.yul\":15084:15087   */\n      dup3\n        /* \"#utility.yul\":15077:15114   */\n      mstore\n        /* \"#utility.yul\":15012:15120   */\n      pop\n      pop\n      jump\t// out\n        /* \"#utility.yul\":15126:15305   */\n    tag_335:\n        /* \"#utility.yul\":15195:15205   */\n      0x00\n        /* \"#utility.yul\":15216:15262   */\n      tag_497\n        /* \"#utility.yul\":15258:15261   */\n      dup4\n        /* \"#utility.yul\":15250:15256   */\n      dup4\n        /* \"#utility.yul\":15216:15262   */\n      tag_334\n      jump\t// in\n    tag_497:\n        /* \"#utility.yul\":15294:15298   */\n      0x20\n        /* \"#utility.yul\":15289:15292   */\n      dup4\n        /* \"#utility.yul\":15285:15299   */\n      add\n        /* \"#utility.yul\":15271:15299   */\n      swap1\n      pop\n        /* \"#utility.yul\":15126:15305   */\n      swap3\n      swap2\n      pop\n      pop\n      jump\t// out\n        /* \"#utility.yul\":15311:15422   */\n    tag_336:\n        /* \"#utility.yul\":15379:15383   */\n      0x00\n        /* \"#utility.yul\":15411:15415   */\n      0x20\n        /* \"#utility.yul\":15406:15409   */\n      dup3\n        /* \"#utility.yul\":15402:15416   */\n      add\n        /* \"#utility.yul\":15394:15416   */\n      swap1\n      pop\n        /* \"#utility.yul\":15311:15422   */\n      swap2\n      swap1\n      pop\n      jump\t// out\n        /* \"#utility.yul\":15460:16154   */\n    tag_337:\n        /* \"#utility.yul\":15596:15648   */\n      tag_500\n        /* \"#utility.yul\":15642:15647   */\n      dup2\n        /* \"#utility.yul\":15596:15648   */\n      tag_331\n      jump\t// in\n    tag_500:\n        /* \"#utility.yul\":15664:15748   */\n      tag_501\n        /* \"#utility.yul\":15741:15747   */\n      dup2\n        /* \"#utility.yul\":15736:15739   */\n      dup5\n        /* \"#utility.yul\":15664:15748   */\n      tag_332\n      jump\t// in\n    tag_501:\n        /* \"#utility.yul\":15657:15748   */\n      swap3\n      pop\n        /* \"#utility.yul\":15772:15826   */\n      tag_502\n        /* \"#utility.yul\":15820:15825   */\n      dup3\n        /* \"#utility.yul\":15772:15826   */\n      tag_333\n      jump\t// in\n    tag_502:\n        /* \"#utility.yul\":15849:15856   */\n      dup1\n        /* \"#utility.yul\":15880:15881   */\n      0x00\n        /* \"#utility.yul\":15865:16147   */\n    tag_503:\n        /* \"#utility.yul\":15890:15896   */\n      dup4\n        /* \"#utility.yul\":15887:15888   */\n      dup2\n        /* \"#utility.yul\":15884:15897   */\n      lt\n        /* \"#utility.yul\":15865:16147   */\n      iszero\n      tag_505\n      jumpi\n        /* \"#utility.yul\":15966:15972   */\n      dup2\n        /* \"#utility.yul\":15960:15973   */\n      mload\n        /* \"#utility.yul\":15993:16056   */\n      tag_506\n        /* \"#utility.yul\":16052:16055   */\n      dup8\n        /* \"#utility.yul\":16037:16050   */\n      dup3\n        /* \"#utility.yul\":15993:16056   */\n      tag_335\n      jump\t// in\n    tag_506:\n        /* \"#utility.yul\":15986:16056   */\n      swap7\n      pop\n        /* \"#utility.yul\":16079:16137   */\n      tag_507\n        /* \"#utility.yul\":16130:16136   */\n      dup4\n        /* \"#utility.yul\":16079:16137   */\n      tag_336\n      jump\t// in\n    tag_507:\n        /* \"#utility.yul\":16069:16137   */\n      swap3\n      pop\n        /* \"#utility.yul\":15925:16147   */\n      pop\n        /* \"#utility.yul\":15912:15913   */\n      0x01\n        /* \"#utility.yul\":15909:15910   */\n      dup2\n        /* \"#utility.yul\":15905:15914   */\n      add\n        /* \"#utility.yul\":15900:15914   */\n      swap1\n      pop\n        /* \"#utility.yul\":15865:16147   */\n      jump(tag_503)\n    tag_505:\n        /* \"#utility.yul\":15869:15883   */\n      pop\n        /* \"#utility.yul\":15572:16154   */\n      pop\n      pop\n      pop\n        /* \"#utility.yul\":15460:16154   */\n      pop\n      pop\n      jump\t// out\n        /* \"#utility.yul\":16160:16788   */\n    tag_78:\n        /* \"#utility.yul\":16401:16405   */\n      0x00\n        /* \"#utility.yul\":16439:16442   */\n      0xa0\n        /* \"#utility.yul\":16428:16437   */\n      dup3\n        /* \"#utility.yul\":16424:16443   */\n      add\n        /* \"#utility.yul\":16416:16443   */\n      swap1\n      pop\n        /* \"#utility.yul\":16453:16570   */\n      tag_509\n        /* \"#utility.yul\":16567:16568   */\n      0x00\n        /* \"#utility.yul\":16556:16565   */\n      dup4\n        /* \"#utility.yul\":16552:16569   */\n      add\n        /* \"#utility.yul\":16543:16549   */\n      dup7\n        /* \"#utility.yul\":16453:16570   */\n      tag_337\n      jump\t// in\n    tag_509:\n        /* \"#utility.yul\":16580:16698   */\n      tag_510\n        /* \"#utility.yul\":16694:16696   */\n      0x40\n        /* \"#utility.yul\":16683:16692   */\n      dup4\n        /* \"#utility.yul\":16679:16697   */\n      add\n        /* \"#utility.yul\":16670:16676   */\n      dup6\n        /* \"#utility.yul\":16580:16698   */\n      tag_337\n      jump\t// in\n    tag_510:\n        /* \"#utility.yul\":16708:16781   */\n      tag_511\n        /* \"#utility.yul\":16776:16779   */\n      0x80\n        /* \"#utility.yul\":16765:16774   */\n      dup4\n        /* \"#utility.yul\":16761:16780   */\n      add\n        /* \"#utility.yul\":16752:16758   */\n      dup5\n        /* \"#utility.yul\":16708:16781   */\n      tag_291\n      jump\t// in\n    tag_511:\n        /* \"#utility.yul\":16160:16788   */\n      swap5\n      swap4\n      pop\n      pop\n      pop\n      pop\n      jump\t// out\n        /* \"#utility.yul\":16794:16954   */\n    tag_338:\n        /* \"#utility.yul\":16934:16946   */\n      0x4f6e6c79206f776e657200000000000000000000000000000000000000000000\n        /* \"#utility.yul\":16930:16931   */\n      0x00\n        /* \"#utility.yul\":16922:16928   */\n      dup3\n        /* \"#utility.yul\":16918:16932   */\n      add\n        /* \"#utility.yul\":16911:16947   */\n      mstore\n        /* \"#utility.yul\":16794:16954   */\n      pop\n      jump\t// out\n        /* \"#utility.yul\":16960:17326   */\n    tag_339:\n        /* \"#utility.yul\":17102:17105   */\n      0x00\n        /* \"#utility.yul\":17123:17190   */\n      tag_514\n        /* \"#utility.yul\":17187:17189   */\n      0x0a\n        /* \"#utility.yul\":17182:17185   */\n      dup4\n        /* \"#utility.yul\":17123:17190   */\n      tag_323\n      jump\t// in\n    tag_514:\n        /* \"#utility.yul\":17116:17190   */\n      swap2\n      pop\n        /* \"#utility.yul\":17199:17292   */\n      tag_515\n        /* \"#utility.yul\":17288:17291   */\n      dup3\n        /* \"#utility.yul\":17199:17292   */\n      tag_338\n      jump\t// in\n    tag_515:\n        /* \"#utility.yul\":17317:17319   */\n      0x20\n        /* \"#utility.yul\":17312:17315   */\n      dup3\n        /* \"#utility.yul\":17308:17320   */\n      add\n        /* \"#utility.yul\":17301:17320   */\n      swap1\n      pop\n        /* \"#utility.yul\":16960:17326   */\n      swap2\n      swap1\n      pop\n      jump\t// out\n        /* \"#utility.yul\":17332:17751   */\n    tag_82:\n        /* \"#utility.yul\":17498:17502   */\n      0x00\n        /* \"#utility.yul\":17536:17538   */\n      0x20\n        /* \"#utility.yul\":17525:17534   */\n      dup3\n        /* \"#utility.yul\":17521:17539   */\n      add\n        /* \"#utility.yul\":17513:17539   */\n      swap1\n      pop\n        /* \"#utility.yul\":17585:17594   */\n      dup2\n        /* \"#utility.yul\":17579:17583   */\n      dup2\n        /* \"#utility.yul\":17575:17595   */\n      sub\n        /* \"#utility.yul\":17571:17572   */\n      0x00\n        /* \"#utility.yul\":17560:17569   */\n      dup4\n        /* \"#utility.yul\":17556:17573   */\n      add\n        /* \"#utility.yul\":17549:17596   */\n      mstore\n        /* \"#utility.yul\":17613:17744   */\n      tag_517\n        /* \"#utility.yul\":17739:17743   */\n      dup2\n        /* \"#utility.yul\":17613:17744   */\n      tag_339\n      jump\t// in\n    tag_517:\n        /* \"#utility.yul\":17605:17744   */\n      swap1\n      pop\n        /* \"#utility.yul\":17332:17751   */\n      swap2\n      swap1\n      pop\n      jump\t// out\n        /* \"#utility.yul\":17757:17926   */\n    tag_340:\n        /* \"#utility.yul\":17897:17918   */\n      0x456c656374696f6e207374696c6c206f70656e00000000000000000000000000\n        /* \"#utility.yul\":17893:17894   */\n      0x00\n        /* \"#utility.yul\":17885:17891   */\n      dup3\n        /* \"#utility.yul\":17881:17895   */\n      add\n        /* \"#utility.yul\":17874:17919   */\n      mstore\n        /* \"#utility.yul\":17757:17926   */\n      pop\n      jump\t// out\n        /* \"#utility.yul\":17932:18298   */\n    tag_341:\n        /* \"#utility.yul\":18074:18077   */\n      0x00\n        /* \"#utility.yul\":18095:18162   */\n      tag_520\n        /* \"#utility.yul\":18159:18161   */\n      0x13\n        /* \"#utility.yul\":18154:18157   */\n      dup4\n        /* \"#utility.yul\":18095:18162   */\n      tag_323\n      jump\t// in\n    tag_520:\n        /* \"#utility.yul\":18088:18162   */\n      swap2\n      pop\n        /* \"#utility.yul\":18171:18264   */\n      tag_521\n        /* \"#utility.yul\":18260:18263   */\n      dup3\n        /* \"#utility.yul\":18171:18264   */\n      tag_340\n      jump\t// in\n    tag_521:\n        /* \"#utility.yul\":18289:18291   */\n      0x20\n        /* \"#utility.yul\":18284:18287   */\n      dup3\n        /* \"#utility.yul\":18280:18292   */\n      add\n        /* \"#utility.yul\":18273:18292   */\n      swap1\n      pop\n        /* \"#utility.yul\":17932:18298   */\n      swap2\n      swap1\n      pop\n      jump\t// out\n        /* \"#utility.yul\":18304:18723   */\n    tag_104:\n        /* \"#utility.yul\":18470:18474   */\n      0x00\n        /* \"#utility.yul\":18508:18510   */\n      0x20\n        /* \"#utility.yul\":18497:18506   */\n      dup3\n        /* \"#utility.yul\":18493:18511   */\n      add\n        /* \"#utility.yul\":18485:18511   */\n      swap1\n      pop\n        /* \"#utility.yul\":18557:18566   */\n      dup2\n        /* \"#utility.yul\":18551:18555   */\n      dup2\n        /* \"#utility.yul\":18547:18567   */\n      sub\n        /* \"#utility.yul\":18543:18544   */\n      0x00\n        /* \"#utility.yul\":18532:18541   */\n      dup4\n        /* \"#utility.yul\":18528:18545   */\n      add\n        /* \"#utility.yul\":18521:18568   */\n      mstore\n        /* \"#utility.yul\":18585:18716   */\n      tag_523\n        /* \"#utility.yul\":18711:18715   */\n      dup2\n        /* \"#utility.yul\":18585:18716   */\n      tag_341\n      jump\t// in\n    tag_523:\n        /* \"#utility.yul\":18577:18716   */\n      swap1\n      pop\n        /* \"#utility.yul\":18304:18723   */\n      swap2\n      swap1\n      pop\n      jump\t// out\n        /* \"#utility.yul\":18729:19061   */\n    tag_106:\n        /* \"#utility.yul\":18850:18854   */\n      0x00\n        /* \"#utility.yul\":18888:18890   */\n      0x40\n        /* \"#utility.yul\":18877:18886   */\n      dup3\n        /* \"#utility.yul\":18873:18891   */\n      add\n        /* \"#utility.yul\":18865:18891   */\n      swap1\n      pop\n        /* \"#utility.yul\":18901:18972   */\n      tag_525\n        /* \"#utility.yul\":18969:18970   */\n      0x00\n        /* \"#utility.yul\":18958:18967   */\n      dup4\n        /* \"#utility.yul\":18954:18971   */\n      add\n        /* \"#utility.yul\":18945:18951   */\n      dup6\n        /* \"#utility.yul\":18901:18972   */\n      tag_291\n      jump\t// in\n    tag_525:\n        /* \"#utility.yul\":18982:19054   */\n      tag_526\n        /* \"#utility.yul\":19050:19052   */\n      0x20\n        /* \"#utility.yul\":19039:19048   */\n      dup4\n        /* \"#utility.yul\":19035:19053   */\n      add\n        /* \"#utility.yul\":19026:19032   */\n      dup5\n        /* \"#utility.yul\":18982:19054   */\n      tag_291\n      jump\t// in\n    tag_526:\n        /* \"#utility.yul\":18729:19061   */\n      swap4\n      swap3\n      pop\n      pop\n      pop\n      jump\t// out\n        /* \"#utility.yul\":19067:19247   */\n    tag_342:\n        /* \"#utility.yul\":19115:19192   */\n      0x4e487b7100000000000000000000000000000000000000000000000000000000\n        /* \"#utility.yul\":19112:19113   */\n      0x00\n        /* \"#utility.yul\":19105:19193   */\n      mstore\n        /* \"#utility.yul\":19212:19216   */\n      0x12\n        /* \"#utility.yul\":19209:19210   */\n      0x04\n        /* \"#utility.yul\":19202:19217   */\n      mstore\n        /* \"#utility.yul\":19236:19240   */\n      0x24\n        /* \"#utility.yul\":19233:19234   */\n      0x00\n        /* \"#utility.yul\":19226:19241   */\n      revert\n        /* \"#utility.yul\":19253:19429   */\n    tag_189:\n        /* \"#utility.yul\":19285:19286   */\n      0x00\n        /* \"#utility.yul\":19302:19322   */\n      tag_529\n        /* \"#utility.yul\":19320:19321   */\n      dup3\n        /* \"#utility.yul\":19302:19322   */\n      tag_290\n      jump\t// in\n    tag_529:\n        /* \"#utility.yul\":19297:19322   */\n      swap2\n      pop\n        /* \"#utility.yul\":19336:19356   */\n      tag_530\n        /* \"#utility.yul\":19354:19355   */\n      dup4\n        /* \"#utility.yul\":19336:19356   */\n      tag_290\n      jump\t// in\n    tag_530:\n        /* \"#utility.yul\":19331:19356   */\n      swap3\n      pop\n        /* \"#utility.yul\":19375:19376   */\n      dup3\n        /* \"#utility.yul\":19365:19400   */\n      tag_531\n      jumpi\n        /* \"#utility.yul\":19380:19398   */\n      tag_532\n      tag_342\n      jump\t// in\n    tag_532:\n        /* \"#utility.yul\":19365:19400   */\n    tag_531:\n        /* \"#utility.yul\":19421:19422   */\n      dup3\n        /* \"#utility.yul\":19418:19419   */\n      dup3\n        /* \"#utility.yul\":19414:19423   */\n      mod\n        /* \"#utility.yul\":19409:19423   */\n      swap1\n      pop\n        /* \"#utility.yul\":19253:19429   */\n      swap3\n      swap2\n      pop\n      pop\n      jump\t// out\n        /* \"#utility.yul\":19435:19629   */\n    tag_191:\n        /* \"#utility.yul\":19475:19479   */\n      0x00\n        /* \"#utility.yul\":19495:19515   */\n      tag_534\n        /* \"#utility.yul\":19513:19514   */\n      dup3\n        /* \"#utility.yul\":19495:19515   */\n      tag_290\n      jump\t// in\n    tag_534:\n        /* \"#utility.yul\":19490:19515   */\n      swap2\n      pop\n        /* \"#utility.yul\":19529:19549   */\n      tag_535\n        /* \"#utility.yul\":19547:19548   */\n      dup4\n        /* \"#utility.yul\":19529:19549   */\n      tag_290\n      jump\t// in\n    tag_535:\n        /* \"#utility.yul\":19524:19549   */\n      swap3\n      pop\n        /* \"#utility.yul\":19573:19574   */\n      dup3\n        /* \"#utility.yul\":19570:19571   */\n      dup3\n        /* \"#utility.yul\":19566:19575   */\n      sub\n        /* \"#utility.yul\":19558:19575   */\n      swap1\n      pop\n        /* \"#utility.yul\":19597:19598   */\n      dup2\n        /* \"#utility.yul\":19591:19595   */\n      dup2\n        /* \"#utility.yul\":19588:19599   */\n      gt\n        /* \"#utility.yul\":19585:19622   */\n      iszero\n      tag_536\n      jumpi\n        /* \"#utility.yul\":19602:19620   */\n      tag_537\n      tag_330\n      jump\t// in\n    tag_537:\n        /* \"#utility.yul\":19585:19622   */\n    tag_536:\n        /* \"#utility.yul\":19435:19629   */\n      swap3\n      swap2\n      pop\n      pop\n      jump\t// out\n        /* \"#utility.yul\":19635:20045   */\n    tag_225:\n        /* \"#utility.yul\":19675:19682   */\n      0x00\n        /* \"#utility.yul\":19698:19718   */\n      tag_539\n        /* \"#utility.yul\":19716:19717   */\n      dup3\n        /* \"#utility.yul\":19698:19718   */\n      tag_290\n      jump\t// in\n    tag_539:\n        /* \"#utility.yul\":19693:19718   */\n      swap2\n      pop\n        /* \"#utility.yul\":19732:19752   */\n      tag_540\n        /* \"#utility.yul\":19750:19751   */\n      dup4\n        /* \"#utility.yul\":19732:19752   */\n      tag_290\n      jump\t// in\n    tag_540:\n        /* \"#utility.yul\":19727:19752   */\n      swap3\n      pop\n        /* \"#utility.yul\":19787:19788   */\n      dup3\n        /* \"#utility.yul\":19784:19785   */\n      dup3\n        /* \"#utility.yul\":19780:19789   */\n      mul\n        /* \"#utility.yul\":19809:19839   */\n      tag_541\n        /* \"#utility.yul\":19827:19838   */\n      dup2\n        /* \"#utility.yul\":19809:19839   */\n      tag_290\n      jump\t// in\n    tag_541:\n        /* \"#utility.yul\":19798:19839   */\n      swap2\n      pop\n        /* \"#utility.yul\":19988:19989   */\n      dup3\n        /* \"#utility.yul\":19979:19986   */\n      dup3\n        /* \"#utility.yul\":19975:19990   */\n      div\n        /* \"#utility.yul\":19972:19973   */\n      dup5\n        /* \"#utility.yul\":19969:19991   */\n      eq\n        /* \"#utility.yul\":19949:19950   */\n      dup4\n        /* \"#utility.yul\":19942:19951   */\n      iszero\n        /* \"#utility.yul\":19922:20005   */\n      or\n        /* \"#utility.yul\":19899:20038   */\n      tag_542\n      jumpi\n        /* \"#utility.yul\":20018:20036   */\n      tag_543\n      tag_330\n      jump\t// in\n    tag_543:\n        /* \"#utility.yul\":19899:20038   */\n    tag_542:\n        /* \"#utility.yul\":19683:20045   */\n      pop\n        /* \"#utility.yul\":19635:20045   */\n      swap3\n      swap2\n      pop\n      pop\n      jump\t// out\n\n    auxdata: 0xa26469706673582212206285511f2ab703d186225a1177908012d4d5c1b47c8f2880082e7e7c86e2818164736f6c634300081e0033\n}\n",
				"bytecode": {
					"linkReferences": {},
					"object": "608060405260015f60146101000a81548160ff021916908315150217905550348015610029575f5ffd5b50604051612126380380612126833981810160405281019061004b91906100ce565b335f5f6101000a81548173ffffffffffffffffffffffffffffffffffffffff021916908373ffffffffffffffffffffffffffffffffffffffff16021790555080600181905550506100f9565b5f5ffd5b5f819050919050565b6100ad8161009b565b81146100b7575f5ffd5b50565b5f815190506100c8816100a4565b92915050565b5f602082840312156100e3576100e2610097565b5b5f6100f0848285016100ba565b91505092915050565b612020806101065f395ff3fe608060405234801561000f575f5ffd5b506004361061009c575f3560e01c806379f95ee91161006457806379f95ee9146101325780638da5cb5b146101625780639aa6913614610180578063b952e7d81461019e578063ebf0c717146101a85761009c565b80631327e258146100a0578063249f66c6146100be5780634a39d442146100da5780636c6c32d0146100f8578063799afa7614610102575b5f5ffd5b6100a86101c6565b6040516100b5919061163f565b60405180910390f35b6100d860048036038101906100d3919061170c565b6101cc565b005b6100e2610436565b6040516100ef9190611783565b60405180910390f35b610100610448565b005b61011c60048036038101906101179190611a84565b6104f1565b6040516101299190611783565b60405180910390f35b61014c60048036038101906101479190611ac4565b6105b7565b6040516101599190611783565b60405180910390f35b61016a6105d4565b6040516101779190611b2e565b60405180910390f35b6101886105f8565b604051610195919061163f565b60405180910390f35b6101a66105fe565b005b6101b061071a565b6040516101bd919061163f565b60405180910390f35b60035481565b5f60149054906101000a900460ff1661021a576040517f08c379a000000000000000000000000000000000000000000000000000000000815260040161021190611ba1565b60405180910390fd5b60045f8381526020019081526020015f205f9054906101000a900460ff1615610278576040517f08c379a000000000000000000000000000000000000000000000000000000000815260040161026f90611c09565b60405180910390fd5b6102c88480360381019061028c9190611c27565b8460048060200260405190810160405280929190826004602002808284375f81840152601f19601f8201169050808301925050505050506104f1565b610307576040517f08c379a00000000000000000000000000000000000000000000000000000000081526004016102fe90611c9d565b60405180910390fd5b600160045f8481526020019081526020015f205f6101000a81548160ff021916908315150217905550801561035457600160035f8282546103489190611ce8565b9250508190555061036e565b600160025f8282546103669190611ce8565b925050819055505b7f13b68c699a704c5d2a4a72f379bb25eccd08e5a21a3fc611aa82a031461969ed6040518060400160405280855f600481106103ad576103ac611d1b565b5b60200201358152602001856001600481106103cb576103ca611d1b565b5b60200201358152506040518060400160405280866002600481106103f2576103f1611d1b565b5b60200201358152602001866003600481106104105761040f611d1b565b5b60200201358152508460405161042893929190611ded565b60405180910390a150505050565b5f60149054906101000a900460ff1681565b5f5f9054906101000a900473ffffffffffffffffffffffffffffffffffffffff1673ffffffffffffffffffffffffffffffffffffffff163373ffffffffffffffffffffffffffffffffffffffff16146104d6576040517f08c379a00000000000000000000000000000000000000000000000000000000081526004016104cd90611e6c565b60405180910390fd5b5f5f60146101000a81548160ff021916908315150217905550565b5f5f600467ffffffffffffffff81111561050e5761050d6117b0565b5b60405190808252806020026020018201604052801561053c5781602001602082028036833780820191505090505b5090505f5f90505b6004811015610591578381600481106105605761055f611d1b565b5b602002015182828151811061057857610577611d1b565b5b6020026020010181815250508080600101915050610544565b505f61059d8286610720565b036105ac5760019150506105b1565b5f9150505b92915050565b6004602052805f5260405f205f915054906101000a900460ff1681565b5f5f9054906101000a900473ffffffffffffffffffffffffffffffffffffffff1681565b60025481565b5f5f9054906101000a900473ffffffffffffffffffffffffffffffffffffffff1673ffffffffffffffffffffffffffffffffffffffff163373ffffffffffffffffffffffffffffffffffffffff161461068c576040517f08c379a000000000000000000000000000000000000000000000000000000000815260040161068390611e6c565b60405180910390fd5b5f60149054906101000a900460ff16156106db576040517f08c379a00000000000000000000000000000000000000000000000000000000081526004016106d290611ed4565b60405180910390fd5b7f118f959a74f702cdc24614ce54eaada8f5b8e1b01a9bcf1d1b2fe673bedc5147600254600354604051610710929190611ef2565b60405180910390a1565b60015481565b5f5f7f30644e72e131a029b85045b68181585d2833e84879b9709143e1f593f000000190505f61074e6108a8565b9050806080015151600186516107649190611ce8565b1461076d575f5ffd5b5f60405180604001604052805f81526020015f81525090505f5f90505b865181101561081e57838782815181106107a7576107a6611d1b565b5b6020026020010151106107b8575f5ffd5b61080f8261080a85608001516001856107d19190611ce8565b815181106107e2576107e1611d1b565b5b60200260200101518a85815181106107fd576107fc611d1b565b5b6020026020010151610e12565b610eaf565b9150808060010191505061078a565b506108478183608001515f8151811061083a57610839611d1b565b5b6020026020010151610eaf565b905061088b855f0151866020015161085e84610f71565b85604001516108708a60400151610f71565b8760600151610881895f0151610f71565b896020015161100f565b61089b57600193505050506108a2565b5f93505050505b92915050565b6108b061151a565b60405180604001604052807f1f7831672127bb363374647d0c87a31ce91a1c685d875a53a5cac600faeded4f81526020017f07670423de21a7bdb3578ffb77b415c2ea786e4e502990bd70f5466f912d2852815250815f0181905250604051806040016040528060405180604001604052807f159b583d51881a3d382c9a4e3fd9a650135055063b6a6b22721d76173dfbab2d81526020017f04139747af7047fe4cf264d25b15235f4ec43bb38e7a688567f031c5e2d920e0815250815260200160405180604001604052807f1fc4a8d05593db0d87f4f97e5f91ae18430aca05a0cf38232eeae735fe87454b81526020017f10ea261691552ffb0a35fed505cd904ac01e01abf590a16ad75e2b8986f8a0a68152508152508160200181905250604051806040016040528060405180604001604052807f2f4d859e096097fcb241bdb87257410ee80b2524f44733a8add221e92bbb9d4881526020017f0216bedc2a1ab164892327794537e324bdb9118bf6ebe21459983e953b550bea815250815260200160405180604001604052807f2e50d45ceb04b952f390bd9e7c421db774d9cad30be64a8541d221f9cab6fe0581526020017f092209f9c9688a024370181dc66215ac222860e409b6aa5bc1f01fcb4baadf708152508152508160400181905250604051806040016040528060405180604001604052807f0306d089d5f2bb7c7f566c89ae7621fd4f9a125e4c1634d121f4346d19542b6081526020017f29b81308a9e273f8cf524d7ab1a777751fdc2477f3f0921756e6a3d1f6c1996b815250815260200160405180604001604052807f1d7247377df3c9907bc574eca03edb7ee6be018f01a00897dda62c17d921857581526020017f289c126ce263de6300c6134b4e06559e4023bb41546866016334e23347d44f568152508152508160600181905250600567ffffffffffffffff811115610b7657610b756117b0565b5b604051908082528060200260200182016040528015610baf57816020015b610b9c611561565b815260200190600190039081610b945790505b50816080018190525060405180604001604052807f1ff6515df24714beb6bec648702cd88f0786a266aaf3cee0c4791cff6c53d35e81526020017f1e74942a208ab7636752dd9f910b0de565526b80ab4dbdb1942b116d02603e2181525081608001515f81518110610c2457610c23611d1b565b5b602002602001018190525060405180604001604052807f0a90e62d51d3f72378ddbe28514cdcac96876323092907fcca74f8cf8418b7f081526020017f300713f90ee55c54909db0adabbf98487a86992617e1143f646ed9f460d52ead8152508160800151600181518110610c9c57610c9b611d1b565b5b602002602001018190525060405180604001604052807f1654353e47ff9707ab0f55af2ed3ca63994d4c0e6389cb4752844400a13c290581526020017f0c78254a4716a42e8bf12038f2a11f9c66dcdca054caaefe00a540ee0beafde68152508160800151600281518110610d1457610d13611d1b565b5b602002602001018190525060405180604001604052807f1dae2230cc5d0736855c7052a432659f83440d5886f19e6ffe4035d58bb1616881526020017f129a45fefad763d1e4ebaa56312122372fcba4cea3b6e81dc6cfe3cefde2026b8152508160800151600381518110610d8c57610d8b611d1b565b5b602002602001018190525060405180604001604052807f06de78707393bd9eb1c9d0a3adc107320bbc90ba7f1985e844b7a9d30970403b81526020017f22500a1cb2c7a6db8d193e1a32d1054d581d6bc6a066637ddf2d24e26c56e8ce8152508160800151600481518110610e0457610e03611d1b565b5b602002602001018190525090565b610e1a611561565b610e22611579565b835f0151815f60038110610e3957610e38611d1b565b5b602002018181525050836020015181600160038110610e5b57610e5a611d1b565b5b6020020181815250508281600260038110610e7957610e78611d1b565b5b6020020181815250505f60608360808460076107d05a03fa9050805f8103610e9d57fe5b5080610ea7575f5ffd5b505092915050565b610eb7611561565b610ebf61159b565b835f0151815f60048110610ed657610ed5611d1b565b5b602002018181525050836020015181600160048110610ef857610ef7611d1b565b5b602002018181525050825f015181600260048110610f1957610f18611d1b565b5b602002018181525050826020015181600360048110610f3b57610f3a611d1b565b5b6020020181815250505f60608360c08460066107d05a03fa9050805f8103610f5f57fe5b5080610f69575f5ffd5b505092915050565b610f79611561565b5f7f30644e72e131a029b85045b68181585d97816a916871ca8d3c208c16d87cfd4790505f835f0151148015610fb257505f8360200151145b15610fd45760405180604001604052805f81526020015f81525091505061100a565b6040518060400160405280845f01518152602001828560200151610ff89190611f46565b836110039190611f76565b8152509150505b919050565b5f5f600467ffffffffffffffff81111561102c5761102b6117b0565b5b60405190808252806020026020018201604052801561106557816020015b611052611561565b81526020019060019003908161104a5790505b5090505f600467ffffffffffffffff811115611084576110836117b0565b5b6040519080825280602002602001820160405280156110bd57816020015b6110aa6115bd565b8152602001906001900390816110a25790505b5090508a825f815181106110d4576110d3611d1b565b5b602002602001018190525088826001815181106110f4576110f3611d1b565b5b6020026020010181905250868260028151811061111457611113611d1b565b5b6020026020010181905250848260038151811061113457611133611d1b565b5b602002602001018190525089815f8151811061115357611152611d1b565b5b6020026020010181905250878160018151811061117357611172611d1b565b5b6020026020010181905250858160028151811061119357611192611d1b565b5b602002602001018190525083816003815181106111b3576111b2611d1b565b5b60200260200101819052506111c882826111d8565b9250505098975050505050505050565b5f81518351146111e6575f5ffd5b5f835190505f6006826111f99190611fa9565b90505f8167ffffffffffffffff811115611216576112156117b0565b5b6040519080825280602002602001820160405280156112445781602001602082028036833780820191505090505b5090505f5f90505b838110156114bf5786818151811061126757611266611d1b565b5b60200260200101515f0151825f6006846112819190611fa9565b61128b9190611ce8565b8151811061129c5761129b611d1b565b5b6020026020010181815250508681815181106112bb576112ba611d1b565b5b6020026020010151602001518260016006846112d79190611fa9565b6112e19190611ce8565b815181106112f2576112f1611d1b565b5b60200260200101818152505085818151811061131157611310611d1b565b5b60200260200101515f015160016002811061132f5761132e611d1b565b5b60200201518260026006846113449190611fa9565b61134e9190611ce8565b8151811061135f5761135e611d1b565b5b60200260200101818152505085818151811061137e5761137d611d1b565b5b60200260200101515f01515f6002811061139b5761139a611d1b565b5b60200201518260036006846113b09190611fa9565b6113ba9190611ce8565b815181106113cb576113ca611d1b565b5b6020026020010181815250508581815181106113ea576113e9611d1b565b5b60200260200101516020015160016002811061140957611408611d1b565b5b602002015182600460068461141e9190611fa9565b6114289190611ce8565b8151811061143957611438611d1b565b5b60200260200101818152505085818151811061145857611457611d1b565b5b6020026020010151602001515f6002811061147657611475611d1b565b5b602002015182600560068461148b9190611fa9565b6114959190611ce8565b815181106114a6576114a5611d1b565b5b602002602001018181525050808060010191505061124c565b506114c86115e3565b5f602082602086026020860160086107d05a03fa9050805f81036114e857fe5b50806114f2575f5ffd5b5f825f6001811061150657611505611d1b565b5b602002015114159550505050505092915050565b6040518060a0016040528061152d611561565b815260200161153a6115bd565b81526020016115476115bd565b81526020016115546115bd565b8152602001606081525090565b60405180604001604052805f81526020015f81525090565b6040518060600160405280600390602082028036833780820191505090505090565b6040518060800160405280600490602082028036833780820191505090505090565b60405180604001604052806115d0611605565b81526020016115dd611605565b81525090565b6040518060200160405280600190602082028036833780820191505090505090565b6040518060400160405280600290602082028036833780820191505090505090565b5f819050919050565b61163981611627565b82525050565b5f6020820190506116525f830184611630565b92915050565b5f604051905090565b5f5ffd5b5f5ffd5b5f610100828403121561167f5761167e611665565b5b81905092915050565b5f5ffd5b5f819050826020600402820111156116a7576116a6611688565b5b92915050565b6116b681611627565b81146116c0575f5ffd5b50565b5f813590506116d1816116ad565b92915050565b5f8115159050919050565b6116eb816116d7565b81146116f5575f5ffd5b50565b5f81359050611706816116e2565b92915050565b5f5f5f5f6101c0858703121561172557611724611661565b5b5f61173287828801611669565b9450506101006117448782880161168c565b935050610180611756878288016116c3565b9250506101a0611768878288016116f8565b91505092959194509250565b61177d816116d7565b82525050565b5f6020820190506117965f830184611774565b92915050565b5f5ffd5b5f601f19601f8301169050919050565b7f4e487b71000000000000000000000000000000000000000000000000000000005f52604160045260245ffd5b6117e6826117a0565b810181811067ffffffffffffffff82111715611805576118046117b0565b5b80604052505050565b5f611817611658565b905061182382826117dd565b919050565b5f6040828403121561183d5761183c61179c565b5b611847604061180e565b90505f611856848285016116c3565b5f830152506020611869848285016116c3565b60208301525092915050565b5f5ffd5b5f67ffffffffffffffff821115611893576118926117b0565b5b602082029050919050565b5f6118b06118ab84611879565b61180e565b905080602084028301858111156118ca576118c9611688565b5b835b818110156118f357806118df88826116c3565b8452602084019350506020810190506118cc565b5050509392505050565b5f82601f83011261191157611910611875565b5b600261191e84828561189e565b91505092915050565b5f6080828403121561193c5761193b61179c565b5b611946604061180e565b90505f611955848285016118fd565b5f830152506040611968848285016118fd565b60208301525092915050565b5f610100828403121561198a5761198961179c565b5b611994606061180e565b90505f6119a384828501611828565b5f8301525060406119b684828501611927565b60208301525060c06119ca84828501611828565b60408301525092915050565b5f67ffffffffffffffff8211156119f0576119ef6117b0565b5b602082029050919050565b5f611a0d611a08846119d6565b61180e565b90508060208402830185811115611a2757611a26611688565b5b835b81811015611a505780611a3c88826116c3565b845260208401935050602081019050611a29565b5050509392505050565b5f82601f830112611a6e57611a6d611875565b5b6004611a7b8482856119fb565b91505092915050565b5f5f6101808385031215611a9b57611a9a611661565b5b5f611aa885828601611974565b925050610100611aba85828601611a5a565b9150509250929050565b5f60208284031215611ad957611ad8611661565b5b5f611ae6848285016116c3565b91505092915050565b5f73ffffffffffffffffffffffffffffffffffffffff82169050919050565b5f611b1882611aef565b9050919050565b611b2881611b0e565b82525050565b5f602082019050611b415f830184611b1f565b92915050565b5f82825260208201905092915050565b7f456c656363696f6e2063657272616461000000000000000000000000000000005f82015250565b5f611b8b601083611b47565b9150611b9682611b57565b602082019050919050565b5f6020820190508181035f830152611bb881611b7f565b9050919050565b7f4e756c6c6966696572207961207574696c697a61646f000000000000000000005f82015250565b5f611bf3601683611b47565b9150611bfe82611bbf565b602082019050919050565b5f6020820190508181035f830152611c2081611be7565b9050919050565b5f6101008284031215611c3d57611c3c611661565b5b5f611c4a84828501611974565b91505092915050565b7f496e76616c6964205a4b2070726f6f66000000000000000000000000000000005f82015250565b5f611c87601083611b47565b9150611c9282611c53565b602082019050919050565b5f6020820190508181035f830152611cb481611c7b565b9050919050565b7f4e487b71000000000000000000000000000000000000000000000000000000005f52601160045260245ffd5b5f611cf282611627565b9150611cfd83611627565b9250828201905080821115611d1557611d14611cbb565b5b92915050565b7f4e487b71000000000000000000000000000000000000000000000000000000005f52603260045260245ffd5b5f60029050919050565b5f81905092915050565b5f819050919050565b611d6e81611627565b82525050565b5f611d7f8383611d65565b60208301905092915050565b5f602082019050919050565b611da081611d48565b611daa8184611d52565b9250611db582611d5c565b805f5b83811015611de5578151611dcc8782611d74565b9650611dd783611d8b565b925050600181019050611db8565b505050505050565b5f60a082019050611e005f830186611d97565b611e0d6040830185611d97565b611e1a6080830184611630565b949350505050565b7f4f6e6c79206f776e6572000000000000000000000000000000000000000000005f82015250565b5f611e56600a83611b47565b9150611e6182611e22565b602082019050919050565b5f6020820190508181035f830152611e8381611e4a565b9050919050565b7f456c656374696f6e207374696c6c206f70656e000000000000000000000000005f82015250565b5f611ebe601383611b47565b9150611ec982611e8a565b602082019050919050565b5f6020820190508181035f830152611eeb81611eb2565b9050919050565b5f604082019050611f055f830185611630565b611f126020830184611630565b9392505050565b7f4e487b71000000000000000000000000000000000000000000000000000000005f52601260045260245ffd5b5f611f5082611627565b9150611f5b83611627565b925082611f6b57611f6a611f19565b5b828206905092915050565b5f611f8082611627565b9150611f8b83611627565b9250828203905081811115611fa357611fa2611cbb565b5b92915050565b5f611fb382611627565b9150611fbe83611627565b9250828202611fcc81611627565b91508282048414831517611fe357611fe2611cbb565b5b509291505056fea26469706673582212206285511f2ab703d186225a1177908012d4d5c1b47c8f2880082e7e7c86e2818164736f6c634300081e0033",
					"opcodes": "PUSH1 0x80 PUSH1 0x40 MSTORE PUSH1 0x1 PUSH0 PUSH1 0x14 PUSH2 0x100 EXP DUP2 SLOAD DUP2 PUSH1 0xFF MUL NOT AND SWAP1 DUP4 ISZERO ISZERO MUL OR SWAP1 SSTORE POP CALLVALUE DUP1 ISZERO PUSH2 0x29 JUMPI PUSH0 PUSH0 REVERT JUMPDEST POP PUSH1 0x40 MLOAD PUSH2 0x2126 CODESIZE SUB DUP1 PUSH2 0x2126 DUP4 CODECOPY DUP2 DUP2 ADD PUSH1 0x40 MSTORE DUP2 ADD SWAP1 PUSH2 0x4B SWAP2 SWAP1 PUSH2 0xCE JUMP JUMPDEST CALLER PUSH0 PUSH0 PUSH2 0x100 EXP DUP2 SLOAD DUP2 PUSH20 0xFFFFFFFFFFFFFFFFFFFFFFFFFFFFFFFFFFFFFFFF MUL NOT AND SWAP1 DUP4 PUSH20 0xFFFFFFFFFFFFFFFFFFFFFFFFFFFFFFFFFFFFFFFF AND MUL OR SWAP1 SSTORE POP DUP1 PUSH1 0x1 DUP2 SWAP1 SSTORE POP POP PUSH2 0xF9 JUMP JUMPDEST PUSH0 PUSH0 REVERT JUMPDEST PUSH0 DUP2 SWAP1 POP SWAP2 SWAP1 POP JUMP JUMPDEST PUSH2 0xAD DUP2 PUSH2 0x9B JUMP JUMPDEST DUP2 EQ PUSH2 0xB7 JUMPI PUSH0 PUSH0 REVERT JUMPDEST POP JUMP JUMPDEST PUSH0 DUP2 MLOAD SWAP1 POP PUSH2 0xC8 DUP2 PUSH2 0xA4 JUMP JUMPDEST SWAP3 SWAP2 POP POP JUMP JUMPDEST PUSH0 PUSH1 0x20 DUP3 DUP5 SUB SLT ISZERO PUSH2 0xE3 JUMPI PUSH2 0xE2 PUSH2 0x97 JUMP JUMPDEST JUMPDEST PUSH0 PUSH2 0xF0 DUP5 DUP3 DUP6 ADD PUSH2 0xBA JUMP JUMPDEST SWAP2 POP POP SWAP3 SWAP2 POP POP JUMP JUMPDEST PUSH2 0x2020 DUP1 PUSH2 0x106 PUSH0 CODECOPY PUSH0 RETURN INVALID PUSH1 0x80 PUSH1 0x40 MSTORE CALLVALUE DUP1 ISZERO PUSH2 0xF JUMPI PUSH0 PUSH0 REVERT JUMPDEST POP PUSH1 0x4 CALLDATASIZE LT PUSH2 0x9C JUMPI PUSH0 CALLDATALOAD PUSH1 0xE0 SHR DUP1 PUSH4 0x79F95EE9 GT PUSH2 0x64 JUMPI DUP1 PUSH4 0x79F95EE9 EQ PUSH2 0x132 JUMPI DUP1 PUSH4 0x8DA5CB5B EQ PUSH2 0x162 JUMPI DUP1 PUSH4 0x9AA69136 EQ PUSH2 0x180 JUMPI DUP1 PUSH4 0xB952E7D8 EQ PUSH2 0x19E JUMPI DUP1 PUSH4 0xEBF0C717 EQ PUSH2 0x1A8 JUMPI PUSH2 0x9C JUMP JUMPDEST DUP1 PUSH4 0x1327E258 EQ PUSH2 0xA0 JUMPI DUP1 PUSH4 0x249F66C6 EQ PUSH2 0xBE JUMPI DUP1 PUSH4 0x4A39D442 EQ PUSH2 0xDA JUMPI DUP1 PUSH4 0x6C6C32D0 EQ PUSH2 0xF8 JUMPI DUP1 PUSH4 0x799AFA76 EQ PUSH2 0x102 JUMPI JUMPDEST PUSH0 PUSH0 REVERT JUMPDEST PUSH2 0xA8 PUSH2 0x1C6 JUMP JUMPDEST PUSH1 0x40 MLOAD PUSH2 0xB5 SWAP2 SWAP1 PUSH2 0x163F JUMP JUMPDEST PUSH1 0x40 MLOAD DUP1 SWAP2 SUB SWAP1 RETURN JUMPDEST PUSH2 0xD8 PUSH1 0x4 DUP1 CALLDATASIZE SUB DUP2 ADD SWAP1 PUSH2 0xD3 SWAP2 SWAP1 PUSH2 0x170C JUMP JUMPDEST PUSH2 0x1CC JUMP JUMPDEST STOP JUMPDEST PUSH2 0xE2 PUSH2 0x436 JUMP JUMPDEST PUSH1 0x40 MLOAD PUSH2 0xEF SWAP2 SWAP1 PUSH2 0x1783 JUMP JUMPDEST PUSH1 0x40 MLOAD DUP1 SWAP2 SUB SWAP1 RETURN JUMPDEST PUSH2 0x100 PUSH2 0x448 JUMP JUMPDEST STOP JUMPDEST PUSH2 0x11C PUSH1 0x4 DUP1 CALLDATASIZE SUB DUP2 ADD SWAP1 PUSH2 0x117 SWAP2 SWAP1 PUSH2 0x1A84 JUMP JUMPDEST PUSH2 0x4F1 JUMP JUMPDEST PUSH1 0x40 MLOAD PUSH2 0x129 SWAP2 SWAP1 PUSH2 0x1783 JUMP JUMPDEST PUSH1 0x40 MLOAD DUP1 SWAP2 SUB SWAP1 RETURN JUMPDEST PUSH2 0x14C PUSH1 0x4 DUP1 CALLDATASIZE SUB DUP2 ADD SWAP1 PUSH2 0x147 SWAP2 SWAP1 PUSH2 0x1AC4 JUMP JUMPDEST PUSH2 0x5B7 JUMP JUMPDEST PUSH1 0x40 MLOAD PUSH2 0x159 SWAP2 SWAP1 PUSH2 0x1783 JUMP JUMPDEST PUSH1 0x40 MLOAD DUP1 SWAP2 SUB SWAP1 RETURN JUMPDEST PUSH2 0x16A PUSH2 0x5D4 JUMP JUMPDEST PUSH1 0x40 MLOAD PUSH2 0x177 SWAP2 SWAP1 PUSH2 0x1B2E JUMP JUMPDEST PUSH1 0x40 MLOAD DUP1 SWAP2 SUB SWAP1 RETURN JUMPDEST PUSH2 0x188 PUSH2 0x5F8 JUMP JUMPDEST PUSH1 0x40 MLOAD PUSH2 0x195 SWAP2 SWAP1 PUSH2 0x163F JUMP JUMPDEST PUSH1 0x40 MLOAD DUP1 SWAP2 SUB SWAP1 RETURN JUMPDEST PUSH2 0x1A6 PUSH2 0x5FE JUMP JUMPDEST STOP JUMPDEST PUSH2 0x1B0 PUSH2 0x71A JUMP JUMPDEST PUSH1 0x40 MLOAD PUSH2 0x1BD SWAP2 SWAP1 PUSH2 0x163F JUMP JUMPDEST PUSH1 0x40 MLOAD DUP1 SWAP2 SUB SWAP1 RETURN JUMPDEST PUSH1 0x3 SLOAD DUP2 JUMP JUMPDEST PUSH0 PUSH1 0x14 SWAP1 SLOAD SWAP1 PUSH2 0x100 EXP SWAP1 DIV PUSH1 0xFF AND PUSH2 0x21A JUMPI PUSH1 0x40 MLOAD PUSH32 0x8C379A000000000000000000000000000000000000000000000000000000000 DUP2 MSTORE PUSH1 0x4 ADD PUSH2 0x211 SWAP1 PUSH2 0x1BA1 JUMP JUMPDEST PUSH1 0x40 MLOAD DUP1 SWAP2 SUB SWAP1 REVERT JUMPDEST PUSH1 0x4 PUSH0 DUP4 DUP2 MSTORE PUSH1 0x20 ADD SWAP1 DUP2 MSTORE PUSH1 0x20 ADD PUSH0 KECCAK256 PUSH0 SWAP1 SLOAD SWAP1 PUSH2 0x100 EXP SWAP1 DIV PUSH1 0xFF AND ISZERO PUSH2 0x278 JUMPI PUSH1 0x40 MLOAD PUSH32 0x8C379A000000000000000000000000000000000000000000000000000000000 DUP2 MSTORE PUSH1 0x4 ADD PUSH2 0x26F SWAP1 PUSH2 0x1C09 JUMP JUMPDEST PUSH1 0x40 MLOAD DUP1 SWAP2 SUB SWAP1 REVERT JUMPDEST PUSH2 0x2C8 DUP5 DUP1 CALLDATASIZE SUB DUP2 ADD SWAP1 PUSH2 0x28C SWAP2 SWAP1 PUSH2 0x1C27 JUMP JUMPDEST DUP5 PUSH1 0x4 DUP1 PUSH1 0x20 MUL PUSH1 0x40 MLOAD SWAP1 DUP2 ADD PUSH1 0x40 MSTORE DUP1 SWAP3 SWAP2 SWAP1 DUP3 PUSH1 0x4 PUSH1 0x20 MUL DUP1 DUP3 DUP5 CALLDATACOPY PUSH0 DUP2 DUP5 ADD MSTORE PUSH1 0x1F NOT PUSH1 0x1F DUP3 ADD AND SWAP1 POP DUP1 DUP4 ADD SWAP3 POP POP POP POP POP POP PUSH2 0x4F1 JUMP JUMPDEST PUSH2 0x307 JUMPI PUSH1 0x40 MLOAD PUSH32 0x8C379A000000000000000000000000000000000000000000000000000000000 DUP2 MSTORE PUSH1 0x4 ADD PUSH2 0x2FE SWAP1 PUSH2 0x1C9D JUMP JUMPDEST PUSH1 0x40 MLOAD DUP1 SWAP2 SUB SWAP1 REVERT JUMPDEST PUSH1 0x1 PUSH1 0x4 PUSH0 DUP5 DUP2 MSTORE PUSH1 0x20 ADD SWAP1 DUP2 MSTORE PUSH1 0x20 ADD PUSH0 KECCAK256 PUSH0 PUSH2 0x100 EXP DUP2 SLOAD DUP2 PUSH1 0xFF MUL NOT AND SWAP1 DUP4 ISZERO ISZERO MUL OR SWAP1 SSTORE POP DUP1 ISZERO PUSH2 0x354 JUMPI PUSH1 0x1 PUSH1 0x3 PUSH0 DUP3 DUP3 SLOAD PUSH2 0x348 SWAP2 SWAP1 PUSH2 0x1CE8 JUMP JUMPDEST SWAP3 POP POP DUP2 SWAP1 SSTORE POP PUSH2 0x36E JUMP JUMPDEST PUSH1 0x1 PUSH1 0x2 PUSH0 DUP3 DUP3 SLOAD PUSH2 0x366 SWAP2 SWAP1 PUSH2 0x1CE8 JUMP JUMPDEST SWAP3 POP POP DUP2 SWAP1 SSTORE POP JUMPDEST PUSH32 0x13B68C699A704C5D2A4A72F379BB25ECCD08E5A21A3FC611AA82A031461969ED PUSH1 0x40 MLOAD DUP1 PUSH1 0x40 ADD PUSH1 0x40 MSTORE DUP1 DUP6 PUSH0 PUSH1 0x4 DUP2 LT PUSH2 0x3AD JUMPI PUSH2 0x3AC PUSH2 0x1D1B JUMP JUMPDEST JUMPDEST PUSH1 0x20 MUL ADD CALLDATALOAD DUP2 MSTORE PUSH1 0x20 ADD DUP6 PUSH1 0x1 PUSH1 0x4 DUP2 LT PUSH2 0x3CB JUMPI PUSH2 0x3CA PUSH2 0x1D1B JUMP JUMPDEST JUMPDEST PUSH1 0x20 MUL ADD CALLDATALOAD DUP2 MSTORE POP PUSH1 0x40 MLOAD DUP1 PUSH1 0x40 ADD PUSH1 0x40 MSTORE DUP1 DUP7 PUSH1 0x2 PUSH1 0x4 DUP2 LT PUSH2 0x3F2 JUMPI PUSH2 0x3F1 PUSH2 0x1D1B JUMP JUMPDEST JUMPDEST PUSH1 0x20 MUL ADD CALLDATALOAD DUP2 MSTORE PUSH1 0x20 ADD DUP7 PUSH1 0x3 PUSH1 0x4 DUP2 LT PUSH2 0x410 JUMPI PUSH2 0x40F PUSH2 0x1D1B JUMP JUMPDEST JUMPDEST PUSH1 0x20 MUL ADD CALLDATALOAD DUP2 MSTORE POP DUP5 PUSH1 0x40 MLOAD PUSH2 0x428 SWAP4 SWAP3 SWAP2 SWAP1 PUSH2 0x1DED JUMP JUMPDEST PUSH1 0x40 MLOAD DUP1 SWAP2 SUB SWAP1 LOG1 POP POP POP POP JUMP JUMPDEST PUSH0 PUSH1 0x14 SWAP1 SLOAD SWAP1 PUSH2 0x100 EXP SWAP1 DIV PUSH1 0xFF AND DUP2 JUMP JUMPDEST PUSH0 PUSH0 SWAP1 SLOAD SWAP1 PUSH2 0x100 EXP SWAP1 DIV PUSH20 0xFFFFFFFFFFFFFFFFFFFFFFFFFFFFFFFFFFFFFFFF AND PUSH20 0xFFFFFFFFFFFFFFFFFFFFFFFFFFFFFFFFFFFFFFFF AND CALLER PUSH20 0xFFFFFFFFFFFFFFFFFFFFFFFFFFFFFFFFFFFFFFFF AND EQ PUSH2 0x4D6 JUMPI PUSH1 0x40 MLOAD PUSH32 0x8C379A000000000000000000000000000000000000000000000000000000000 DUP2 MSTORE PUSH1 0x4 ADD PUSH2 0x4CD SWAP1 PUSH2 0x1E6C JUMP JUMPDEST PUSH1 0x40 MLOAD DUP1 SWAP2 SUB SWAP1 REVERT JUMPDEST PUSH0 PUSH0 PUSH1 0x14 PUSH2 0x100 EXP DUP2 SLOAD DUP2 PUSH1 0xFF MUL NOT AND SWAP1 DUP4 ISZERO ISZERO MUL OR SWAP1 SSTORE POP JUMP JUMPDEST PUSH0 PUSH0 PUSH1 0x4 PUSH8 0xFFFFFFFFFFFFFFFF DUP2 GT ISZERO PUSH2 0x50E JUMPI PUSH2 0x50D PUSH2 0x17B0 JUMP JUMPDEST JUMPDEST PUSH1 0x40 MLOAD SWAP1 DUP1 DUP3 MSTORE DUP1 PUSH1 0x20 MUL PUSH1 0x20 ADD DUP3 ADD PUSH1 0x40 MSTORE DUP1 ISZERO PUSH2 0x53C JUMPI DUP2 PUSH1 0x20 ADD PUSH1 0x20 DUP3 MUL DUP1 CALLDATASIZE DUP4 CALLDATACOPY DUP1 DUP3 ADD SWAP2 POP POP SWAP1 POP JUMPDEST POP SWAP1 POP PUSH0 PUSH0 SWAP1 POP JUMPDEST PUSH1 0x4 DUP2 LT ISZERO PUSH2 0x591 JUMPI DUP4 DUP2 PUSH1 0x4 DUP2 LT PUSH2 0x560 JUMPI PUSH2 0x55F PUSH2 0x1D1B JUMP JUMPDEST JUMPDEST PUSH1 0x20 MUL ADD MLOAD DUP3 DUP3 DUP2 MLOAD DUP2 LT PUSH2 0x578 JUMPI PUSH2 0x577 PUSH2 0x1D1B JUMP JUMPDEST JUMPDEST PUSH1 0x20 MUL PUSH1 0x20 ADD ADD DUP2 DUP2 MSTORE POP POP DUP1 DUP1 PUSH1 0x1 ADD SWAP2 POP POP PUSH2 0x544 JUMP JUMPDEST POP PUSH0 PUSH2 0x59D DUP3 DUP7 PUSH2 0x720 JUMP JUMPDEST SUB PUSH2 0x5AC JUMPI PUSH1 0x1 SWAP2 POP POP PUSH2 0x5B1 JUMP JUMPDEST PUSH0 SWAP2 POP POP JUMPDEST SWAP3 SWAP2 POP POP JUMP JUMPDEST PUSH1 0x4 PUSH1 0x20 MSTORE DUP1 PUSH0 MSTORE PUSH1 0x40 PUSH0 KECCAK256 PUSH0 SWAP2 POP SLOAD SWAP1 PUSH2 0x100 EXP SWAP1 DIV PUSH1 0xFF AND DUP2 JUMP JUMPDEST PUSH0 PUSH0 SWAP1 SLOAD SWAP1 PUSH2 0x100 EXP SWAP1 DIV PUSH20 0xFFFFFFFFFFFFFFFFFFFFFFFFFFFFFFFFFFFFFFFF AND DUP2 JUMP JUMPDEST PUSH1 0x2 SLOAD DUP2 JUMP JUMPDEST PUSH0 PUSH0 SWAP1 SLOAD SWAP1 PUSH2 0x100 EXP SWAP1 DIV PUSH20 0xFFFFFFFFFFFFFFFFFFFFFFFFFFFFFFFFFFFFFFFF AND PUSH20 0xFFFFFFFFFFFFFFFFFFFFFFFFFFFFFFFFFFFFFFFF AND CALLER PUSH20 0xFFFFFFFFFFFFFFFFFFFFFFFFFFFFFFFFFFFFFFFF AND EQ PUSH2 0x68C JUMPI PUSH1 0x40 MLOAD PUSH32 0x8C379A000000000000000000000000000000000000000000000000000000000 DUP2 MSTORE PUSH1 0x4 ADD PUSH2 0x683 SWAP1 PUSH2 0x1E6C JUMP JUMPDEST PUSH1 0x40 MLOAD DUP1 SWAP2 SUB SWAP1 REVERT JUMPDEST PUSH0 PUSH1 0x14 SWAP1 SLOAD SWAP1 PUSH2 0x100 EXP SWAP1 DIV PUSH1 0xFF AND ISZERO PUSH2 0x6DB JUMPI PUSH1 0x40 MLOAD PUSH32 0x8C379A000000000000000000000000000000000000000000000000000000000 DUP2 MSTORE PUSH1 0x4 ADD PUSH2 0x6D2 SWAP1 PUSH2 0x1ED4 JUMP JUMPDEST PUSH1 0x40 MLOAD DUP1 SWAP2 SUB SWAP1 REVERT JUMPDEST PUSH32 0x118F959A74F702CDC24614CE54EAADA8F5B8E1B01A9BCF1D1B2FE673BEDC5147 PUSH1 0x2 SLOAD PUSH1 0x3 SLOAD PUSH1 0x40 MLOAD PUSH2 0x710 SWAP3 SWAP2 SWAP1 PUSH2 0x1EF2 JUMP JUMPDEST PUSH1 0x40 MLOAD DUP1 SWAP2 SUB SWAP1 LOG1 JUMP JUMPDEST PUSH1 0x1 SLOAD DUP2 JUMP JUMPDEST PUSH0 PUSH0 PUSH32 0x30644E72E131A029B85045B68181585D2833E84879B9709143E1F593F0000001 SWAP1 POP PUSH0 PUSH2 0x74E PUSH2 0x8A8 JUMP JUMPDEST SWAP1 POP DUP1 PUSH1 0x80 ADD MLOAD MLOAD PUSH1 0x1 DUP7 MLOAD PUSH2 0x764 SWAP2 SWAP1 PUSH2 0x1CE8 JUMP JUMPDEST EQ PUSH2 0x76D JUMPI PUSH0 PUSH0 REVERT JUMPDEST PUSH0 PUSH1 0x40 MLOAD DUP1 PUSH1 0x40 ADD PUSH1 0x40 MSTORE DUP1 PUSH0 DUP2 MSTORE PUSH1 0x20 ADD PUSH0 DUP2 MSTORE POP SWAP1 POP PUSH0 PUSH0 SWAP1 POP JUMPDEST DUP7 MLOAD DUP2 LT ISZERO PUSH2 0x81E JUMPI DUP4 DUP8 DUP3 DUP2 MLOAD DUP2 LT PUSH2 0x7A7 JUMPI PUSH2 0x7A6 PUSH2 0x1D1B JUMP JUMPDEST JUMPDEST PUSH1 0x20 MUL PUSH1 0x20 ADD ADD MLOAD LT PUSH2 0x7B8 JUMPI PUSH0 PUSH0 REVERT JUMPDEST PUSH2 0x80F DUP3 PUSH2 0x80A DUP6 PUSH1 0x80 ADD MLOAD PUSH1 0x1 DUP6 PUSH2 0x7D1 SWAP2 SWAP1 PUSH2 0x1CE8 JUMP JUMPDEST DUP2 MLOAD DUP2 LT PUSH2 0x7E2 JUMPI PUSH2 0x7E1 PUSH2 0x1D1B JUMP JUMPDEST JUMPDEST PUSH1 0x20 MUL PUSH1 0x20 ADD ADD MLOAD DUP11 DUP6 DUP2 MLOAD DUP2 LT PUSH2 0x7FD JUMPI PUSH2 0x7FC PUSH2 0x1D1B JUMP JUMPDEST JUMPDEST PUSH1 0x20 MUL PUSH1 0x20 ADD ADD MLOAD PUSH2 0xE12 JUMP JUMPDEST PUSH2 0xEAF JUMP JUMPDEST SWAP2 POP DUP1 DUP1 PUSH1 0x1 ADD SWAP2 POP POP PUSH2 0x78A JUMP JUMPDEST POP PUSH2 0x847 DUP2 DUP4 PUSH1 0x80 ADD MLOAD PUSH0 DUP2 MLOAD DUP2 LT PUSH2 0x83A JUMPI PUSH2 0x839 PUSH2 0x1D1B JUMP JUMPDEST JUMPDEST PUSH1 0x20 MUL PUSH1 0x20 ADD ADD MLOAD PUSH2 0xEAF JUMP JUMPDEST SWAP1 POP PUSH2 0x88B DUP6 PUSH0 ADD MLOAD DUP7 PUSH1 0x20 ADD MLOAD PUSH2 0x85E DUP5 PUSH2 0xF71 JUMP JUMPDEST DUP6 PUSH1 0x40 ADD MLOAD PUSH2 0x870 DUP11 PUSH1 0x40 ADD MLOAD PUSH2 0xF71 JUMP JUMPDEST DUP8 PUSH1 0x60 ADD MLOAD PUSH2 0x881 DUP10 PUSH0 ADD MLOAD PUSH2 0xF71 JUMP JUMPDEST DUP10 PUSH1 0x20 ADD MLOAD PUSH2 0x100F JUMP JUMPDEST PUSH2 0x89B JUMPI PUSH1 0x1 SWAP4 POP POP POP POP PUSH2 0x8A2 JUMP JUMPDEST PUSH0 SWAP4 POP POP POP POP JUMPDEST SWAP3 SWAP2 POP POP JUMP JUMPDEST PUSH2 0x8B0 PUSH2 0x151A JUMP JUMPDEST PUSH1 0x40 MLOAD DUP1 PUSH1 0x40 ADD PUSH1 0x40 MSTORE DUP1 PUSH32 0x1F7831672127BB363374647D0C87A31CE91A1C685D875A53A5CAC600FAEDED4F DUP2 MSTORE PUSH1 0x20 ADD PUSH32 0x7670423DE21A7BDB3578FFB77B415C2EA786E4E502990BD70F5466F912D2852 DUP2 MSTORE POP DUP2 PUSH0 ADD DUP2 SWAP1 MSTORE POP PUSH1 0x40 MLOAD DUP1 PUSH1 0x40 ADD PUSH1 0x40 MSTORE DUP1 PUSH1 0x40 MLOAD DUP1 PUSH1 0x40 ADD PUSH1 0x40 MSTORE DUP1 PUSH32 0x159B583D51881A3D382C9A4E3FD9A650135055063B6A6B22721D76173DFBAB2D DUP2 MSTORE PUSH1 0x20 ADD PUSH32 0x4139747AF7047FE4CF264D25B15235F4EC43BB38E7A688567F031C5E2D920E0 DUP2 MSTORE POP DUP2 MSTORE PUSH1 0x20 ADD PUSH1 0x40 MLOAD DUP1 PUSH1 0x40 ADD PUSH1 0x40 MSTORE DUP1 PUSH32 0x1FC4A8D05593DB0D87F4F97E5F91AE18430ACA05A0CF38232EEAE735FE87454B DUP2 MSTORE PUSH1 0x20 ADD PUSH32 0x10EA261691552FFB0A35FED505CD904AC01E01ABF590A16AD75E2B8986F8A0A6 DUP2 MSTORE POP DUP2 MSTORE POP DUP2 PUSH1 0x20 ADD DUP2 SWAP1 MSTORE POP PUSH1 0x40 MLOAD DUP1 PUSH1 0x40 ADD PUSH1 0x40 MSTORE DUP1 PUSH1 0x40 MLOAD DUP1 PUSH1 0x40 ADD PUSH1 0x40 MSTORE DUP1 PUSH32 0x2F4D859E096097FCB241BDB87257410EE80B2524F44733A8ADD221E92BBB9D48 DUP2 MSTORE PUSH1 0x20 ADD PUSH32 0x216BEDC2A1AB164892327794537E324BDB9118BF6EBE21459983E953B550BEA DUP2 MSTORE POP DUP2 MSTORE PUSH1 0x20 ADD PUSH1 0x40 MLOAD DUP1 PUSH1 0x40 ADD PUSH1 0x40 MSTORE DUP1 PUSH32 0x2E50D45CEB04B952F390BD9E7C421DB774D9CAD30BE64A8541D221F9CAB6FE05 DUP2 MSTORE PUSH1 0x20 ADD PUSH32 0x92209F9C9688A024370181DC66215AC222860E409B6AA5BC1F01FCB4BAADF70 DUP2 MSTORE POP DUP2 MSTORE POP DUP2 PUSH1 0x40 ADD DUP2 SWAP1 MSTORE POP PUSH1 0x40 MLOAD DUP1 PUSH1 0x40 ADD PUSH1 0x40 MSTORE DUP1 PUSH1 0x40 MLOAD DUP1 PUSH1 0x40 ADD PUSH1 0x40 MSTORE DUP1 PUSH32 0x306D089D5F2BB7C7F566C89AE7621FD4F9A125E4C1634D121F4346D19542B60 DUP2 MSTORE PUSH1 0x20 ADD PUSH32 0x29B81308A9E273F8CF524D7AB1A777751FDC2477F3F0921756E6A3D1F6C1996B DUP2 MSTORE POP DUP2 MSTORE PUSH1 0x20 ADD PUSH1 0x40 MLOAD DUP1 PUSH1 0x40 ADD PUSH1 0x40 MSTORE DUP1 PUSH32 0x1D7247377DF3C9907BC574ECA03EDB7EE6BE018F01A00897DDA62C17D9218575 DUP2 MSTORE PUSH1 0x20 ADD PUSH32 0x289C126CE263DE6300C6134B4E06559E4023BB41546866016334E23347D44F56 DUP2 MSTORE POP DUP2 MSTORE POP DUP2 PUSH1 0x60 ADD DUP2 SWAP1 MSTORE POP PUSH1 0x5 PUSH8 0xFFFFFFFFFFFFFFFF DUP2 GT ISZERO PUSH2 0xB76 JUMPI PUSH2 0xB75 PUSH2 0x17B0 JUMP JUMPDEST JUMPDEST PUSH1 0x40 MLOAD SWAP1 DUP1 DUP3 MSTORE DUP1 PUSH1 0x20 MUL PUSH1 0x20 ADD DUP3 ADD PUSH1 0x40 MSTORE DUP1 ISZERO PUSH2 0xBAF JUMPI DUP2 PUSH1 0x20 ADD JUMPDEST PUSH2 0xB9C PUSH2 0x1561 JUMP JUMPDEST DUP2 MSTORE PUSH1 0x20 ADD SWAP1 PUSH1 0x1 SWAP1 SUB SWAP1 DUP2 PUSH2 0xB94 JUMPI SWAP1 POP JUMPDEST POP DUP2 PUSH1 0x80 ADD DUP2 SWAP1 MSTORE POP PUSH1 0x40 MLOAD DUP1 PUSH1 0x40 ADD PUSH1 0x40 MSTORE DUP1 PUSH32 0x1FF6515DF24714BEB6BEC648702CD88F0786A266AAF3CEE0C4791CFF6C53D35E DUP2 MSTORE PUSH1 0x20 ADD PUSH32 0x1E74942A208AB7636752DD9F910B0DE565526B80AB4DBDB1942B116D02603E21 DUP2 MSTORE POP DUP2 PUSH1 0x80 ADD MLOAD PUSH0 DUP2 MLOAD DUP2 LT PUSH2 0xC24 JUMPI PUSH2 0xC23 PUSH2 0x1D1B JUMP JUMPDEST JUMPDEST PUSH1 0x20 MUL PUSH1 0x20 ADD ADD DUP2 SWAP1 MSTORE POP PUSH1 0x40 MLOAD DUP1 PUSH1 0x40 ADD PUSH1 0x40 MSTORE DUP1 PUSH32 0xA90E62D51D3F72378DDBE28514CDCAC96876323092907FCCA74F8CF8418B7F0 DUP2 MSTORE PUSH1 0x20 ADD PUSH32 0x300713F90EE55C54909DB0ADABBF98487A86992617E1143F646ED9F460D52EAD DUP2 MSTORE POP DUP2 PUSH1 0x80 ADD MLOAD PUSH1 0x1 DUP2 MLOAD DUP2 LT PUSH2 0xC9C JUMPI PUSH2 0xC9B PUSH2 0x1D1B JUMP JUMPDEST JUMPDEST PUSH1 0x20 MUL PUSH1 0x20 ADD ADD DUP2 SWAP1 MSTORE POP PUSH1 0x40 MLOAD DUP1 PUSH1 0x40 ADD PUSH1 0x40 MSTORE DUP1 PUSH32 0x1654353E47FF9707AB0F55AF2ED3CA63994D4C0E6389CB4752844400A13C2905 DUP2 MSTORE PUSH1 0x20 ADD PUSH32 0xC78254A4716A42E8BF12038F2A11F9C66DCDCA054CAAEFE00A540EE0BEAFDE6 DUP2 MSTORE POP DUP2 PUSH1 0x80 ADD MLOAD PUSH1 0x2 DUP2 MLOAD DUP2 LT PUSH2 0xD14 JUMPI PUSH2 0xD13 PUSH2 0x1D1B JUMP JUMPDEST JUMPDEST PUSH1 0x20 MUL PUSH1 0x20 ADD ADD DUP2 SWAP1 MSTORE POP PUSH1 0x40 MLOAD DUP1 PUSH1 0x40 ADD PUSH1 0x40 MSTORE DUP1 PUSH32 0x1DAE2230CC5D0736855C7052A432659F83440D5886F19E6FFE4035D58BB16168 DUP2 MSTORE PUSH1 0x20 ADD PUSH32 0x129A45FEFAD763D1E4EBAA56312122372FCBA4CEA3B6E81DC6CFE3CEFDE2026B DUP2 MSTORE POP DUP2 PUSH1 0x80 ADD MLOAD PUSH1 0x3 DUP2 MLOAD DUP2 LT PUSH2 0xD8C JUMPI PUSH2 0xD8B PUSH2 0x1D1B JUMP JUMPDEST JUMPDEST PUSH1 0x20 MUL PUSH1 0x20 ADD ADD DUP2 SWAP1 MSTORE POP PUSH1 0x40 MLOAD DUP1 PUSH1 0x40 ADD PUSH1 0x40 MSTORE DUP1 PUSH32 0x6DE78707393BD9EB1C9D0A3ADC107320BBC90BA7F1985E844B7A9D30970403B DUP2 MSTORE PUSH1 0x20 ADD PUSH32 0x22500A1CB2C7A6DB8D193E1A32D1054D581D6BC6A066637DDF2D24E26C56E8CE DUP2 MSTORE POP DUP2 PUSH1 0x80 ADD MLOAD PUSH1 0x4 DUP2 MLOAD DUP2 LT PUSH2 0xE04 JUMPI PUSH2 0xE03 PUSH2 0x1D1B JUMP JUMPDEST JUMPDEST PUSH1 0x20 MUL PUSH1 0x20 ADD ADD DUP2 SWAP1 MSTORE POP SWAP1 JUMP JUMPDEST PUSH2 0xE1A PUSH2 0x1561 JUMP JUMPDEST PUSH2 0xE22 PUSH2 0x1579 JUMP JUMPDEST DUP4 PUSH0 ADD MLOAD DUP2 PUSH0 PUSH1 0x3 DUP2 LT PUSH2 0xE39 JUMPI PUSH2 0xE38 PUSH2 0x1D1B JUMP JUMPDEST JUMPDEST PUSH1 0x20 MUL ADD DUP2 DUP2 MSTORE POP POP DUP4 PUSH1 0x20 ADD MLOAD DUP2 PUSH1 0x1 PUSH1 0x3 DUP2 LT PUSH2 0xE5B JUMPI PUSH2 0xE5A PUSH2 0x1D1B JUMP JUMPDEST JUMPDEST PUSH1 0x20 MUL ADD DUP2 DUP2 MSTORE POP POP DUP3 DUP2 PUSH1 0x2 PUSH1 0x3 DUP2 LT PUSH2 0xE79 JUMPI PUSH2 0xE78 PUSH2 0x1D1B JUMP JUMPDEST JUMPDEST PUSH1 0x20 MUL ADD DUP2 DUP2 MSTORE POP POP PUSH0 PUSH1 0x60 DUP4 PUSH1 0x80 DUP5 PUSH1 0x7 PUSH2 0x7D0 GAS SUB STATICCALL SWAP1 POP DUP1 PUSH0 DUP2 SUB PUSH2 0xE9D JUMPI INVALID JUMPDEST POP DUP1 PUSH2 0xEA7 JUMPI PUSH0 PUSH0 REVERT JUMPDEST POP POP SWAP3 SWAP2 POP POP JUMP JUMPDEST PUSH2 0xEB7 PUSH2 0x1561 JUMP JUMPDEST PUSH2 0xEBF PUSH2 0x159B JUMP JUMPDEST DUP4 PUSH0 ADD MLOAD DUP2 PUSH0 PUSH1 0x4 DUP2 LT PUSH2 0xED6 JUMPI PUSH2 0xED5 PUSH2 0x1D1B JUMP JUMPDEST JUMPDEST PUSH1 0x20 MUL ADD DUP2 DUP2 MSTORE POP POP DUP4 PUSH1 0x20 ADD MLOAD DUP2 PUSH1 0x1 PUSH1 0x4 DUP2 LT PUSH2 0xEF8 JUMPI PUSH2 0xEF7 PUSH2 0x1D1B JUMP JUMPDEST JUMPDEST PUSH1 0x20 MUL ADD DUP2 DUP2 MSTORE POP POP DUP3 PUSH0 ADD MLOAD DUP2 PUSH1 0x2 PUSH1 0x4 DUP2 LT PUSH2 0xF19 JUMPI PUSH2 0xF18 PUSH2 0x1D1B JUMP JUMPDEST JUMPDEST PUSH1 0x20 MUL ADD DUP2 DUP2 MSTORE POP POP DUP3 PUSH1 0x20 ADD MLOAD DUP2 PUSH1 0x3 PUSH1 0x4 DUP2 LT PUSH2 0xF3B JUMPI PUSH2 0xF3A PUSH2 0x1D1B JUMP JUMPDEST JUMPDEST PUSH1 0x20 MUL ADD DUP2 DUP2 MSTORE POP POP PUSH0 PUSH1 0x60 DUP4 PUSH1 0xC0 DUP5 PUSH1 0x6 PUSH2 0x7D0 GAS SUB STATICCALL SWAP1 POP DUP1 PUSH0 DUP2 SUB PUSH2 0xF5F JUMPI INVALID JUMPDEST POP DUP1 PUSH2 0xF69 JUMPI PUSH0 PUSH0 REVERT JUMPDEST POP POP SWAP3 SWAP2 POP POP JUMP JUMPDEST PUSH2 0xF79 PUSH2 0x1561 JUMP JUMPDEST PUSH0 PUSH32 0x30644E72E131A029B85045B68181585D97816A916871CA8D3C208C16D87CFD47 SWAP1 POP PUSH0 DUP4 PUSH0 ADD MLOAD EQ DUP1 ISZERO PUSH2 0xFB2 JUMPI POP PUSH0 DUP4 PUSH1 0x20 ADD MLOAD EQ JUMPDEST ISZERO PUSH2 0xFD4 JUMPI PUSH1 0x40 MLOAD DUP1 PUSH1 0x40 ADD PUSH1 0x40 MSTORE DUP1 PUSH0 DUP2 MSTORE PUSH1 0x20 ADD PUSH0 DUP2 MSTORE POP SWAP2 POP POP PUSH2 0x100A JUMP JUMPDEST PUSH1 0x40 MLOAD DUP1 PUSH1 0x40 ADD PUSH1 0x40 MSTORE DUP1 DUP5 PUSH0 ADD MLOAD DUP2 MSTORE PUSH1 0x20 ADD DUP3 DUP6 PUSH1 0x20 ADD MLOAD PUSH2 0xFF8 SWAP2 SWAP1 PUSH2 0x1F46 JUMP JUMPDEST DUP4 PUSH2 0x1003 SWAP2 SWAP1 PUSH2 0x1F76 JUMP JUMPDEST DUP2 MSTORE POP SWAP2 POP POP JUMPDEST SWAP2 SWAP1 POP JUMP JUMPDEST PUSH0 PUSH0 PUSH1 0x4 PUSH8 0xFFFFFFFFFFFFFFFF DUP2 GT ISZERO PUSH2 0x102C JUMPI PUSH2 0x102B PUSH2 0x17B0 JUMP JUMPDEST JUMPDEST PUSH1 0x40 MLOAD SWAP1 DUP1 DUP3 MSTORE DUP1 PUSH1 0x20 MUL PUSH1 0x20 ADD DUP3 ADD PUSH1 0x40 MSTORE DUP1 ISZERO PUSH2 0x1065 JUMPI DUP2 PUSH1 0x20 ADD JUMPDEST PUSH2 0x1052 PUSH2 0x1561 JUMP JUMPDEST DUP2 MSTORE PUSH1 0x20 ADD SWAP1 PUSH1 0x1 SWAP1 SUB SWAP1 DUP2 PUSH2 0x104A JUMPI SWAP1 POP JUMPDEST POP SWAP1 POP PUSH0 PUSH1 0x4 PUSH8 0xFFFFFFFFFFFFFFFF DUP2 GT ISZERO PUSH2 0x1084 JUMPI PUSH2 0x1083 PUSH2 0x17B0 JUMP JUMPDEST JUMPDEST PUSH1 0x40 MLOAD SWAP1 DUP1 DUP3 MSTORE DUP1 PUSH1 0x20 MUL PUSH1 0x20 ADD DUP3 ADD PUSH1 0x40 MSTORE DUP1 ISZERO PUSH2 0x10BD JUMPI DUP2 PUSH1 0x20 ADD JUMPDEST PUSH2 0x10AA PUSH2 0x15BD JUMP JUMPDEST DUP2 MSTORE PUSH1 0x20 ADD SWAP1 PUSH1 0x1 SWAP1 SUB SWAP1 DUP2 PUSH2 0x10A2 JUMPI SWAP1 POP JUMPDEST POP SWAP1 POP DUP11 DUP3 PUSH0 DUP2 MLOAD DUP2 LT PUSH2 0x10D4 JUMPI PUSH2 0x10D3 PUSH2 0x1D1B JUMP JUMPDEST JUMPDEST PUSH1 0x20 MUL PUSH1 0x20 ADD ADD DUP2 SWAP1 MSTORE POP DUP9 DUP3 PUSH1 0x1 DUP2 MLOAD DUP2 LT PUSH2 0x10F4 JUMPI PUSH2 0x10F3 PUSH2 0x1D1B JUMP JUMPDEST JUMPDEST PUSH1 0x20 MUL PUSH1 0x20 ADD ADD DUP2 SWAP1 MSTORE POP DUP7 DUP3 PUSH1 0x2 DUP2 MLOAD DUP2 LT PUSH2 0x1114 JUMPI PUSH2 0x1113 PUSH2 0x1D1B JUMP JUMPDEST JUMPDEST PUSH1 0x20 MUL PUSH1 0x20 ADD ADD DUP2 SWAP1 MSTORE POP DUP5 DUP3 PUSH1 0x3 DUP2 MLOAD DUP2 LT PUSH2 0x1134 JUMPI PUSH2 0x1133 PUSH2 0x1D1B JUMP JUMPDEST JUMPDEST PUSH1 0x20 MUL PUSH1 0x20 ADD ADD DUP2 SWAP1 MSTORE POP DUP10 DUP2 PUSH0 DUP2 MLOAD DUP2 LT PUSH2 0x1153 JUMPI PUSH2 0x1152 PUSH2 0x1D1B JUMP JUMPDEST JUMPDEST PUSH1 0x20 MUL PUSH1 0x20 ADD ADD DUP2 SWAP1 MSTORE POP DUP8 DUP2 PUSH1 0x1 DUP2 MLOAD DUP2 LT PUSH2 0x1173 JUMPI PUSH2 0x1172 PUSH2 0x1D1B JUMP JUMPDEST JUMPDEST PUSH1 0x20 MUL PUSH1 0x20 ADD ADD DUP2 SWAP1 MSTORE POP DUP6 DUP2 PUSH1 0x2 DUP2 MLOAD DUP2 LT PUSH2 0x1193 JUMPI PUSH2 0x1192 PUSH2 0x1D1B JUMP JUMPDEST JUMPDEST PUSH1 0x20 MUL PUSH1 0x20 ADD ADD DUP2 SWAP1 MSTORE POP DUP4 DUP2 PUSH1 0x3 DUP2 MLOAD DUP2 LT PUSH2 0x11B3 JUMPI PUSH2 0x11B2 PUSH2 0x1D1B JUMP JUMPDEST JUMPDEST PUSH1 0x20 MUL PUSH1 0x20 ADD ADD DUP2 SWAP1 MSTORE POP PUSH2 0x11C8 DUP3 DUP3 PUSH2 0x11D8 JUMP JUMPDEST SWAP3 POP POP POP SWAP9 SWAP8 POP POP POP POP POP POP POP POP JUMP JUMPDEST PUSH0 DUP2 MLOAD DUP4 MLOAD EQ PUSH2 0x11E6 JUMPI PUSH0 PUSH0 REVERT JUMPDEST PUSH0 DUP4 MLOAD SWAP1 POP PUSH0 PUSH1 0x6 DUP3 PUSH2 0x11F9 SWAP2 SWAP1 PUSH2 0x1FA9 JUMP JUMPDEST SWAP1 POP PUSH0 DUP2 PUSH8 0xFFFFFFFFFFFFFFFF DUP2 GT ISZERO PUSH2 0x1216 JUMPI PUSH2 0x1215 PUSH2 0x17B0 JUMP JUMPDEST JUMPDEST PUSH1 0x40 MLOAD SWAP1 DUP1 DUP3 MSTORE DUP1 PUSH1 0x20 MUL PUSH1 0x20 ADD DUP3 ADD PUSH1 0x40 MSTORE DUP1 ISZERO PUSH2 0x1244 JUMPI DUP2 PUSH1 0x20 ADD PUSH1 0x20 DUP3 MUL DUP1 CALLDATASIZE DUP4 CALLDATACOPY DUP1 DUP3 ADD SWAP2 POP POP SWAP1 POP JUMPDEST POP SWAP1 POP PUSH0 PUSH0 SWAP1 POP JUMPDEST DUP4 DUP2 LT ISZERO PUSH2 0x14BF JUMPI DUP7 DUP2 DUP2 MLOAD DUP2 LT PUSH2 0x1267 JUMPI PUSH2 0x1266 PUSH2 0x1D1B JUMP JUMPDEST JUMPDEST PUSH1 0x20 MUL PUSH1 0x20 ADD ADD MLOAD PUSH0 ADD MLOAD DUP3 PUSH0 PUSH1 0x6 DUP5 PUSH2 0x1281 SWAP2 SWAP1 PUSH2 0x1FA9 JUMP JUMPDEST PUSH2 0x128B SWAP2 SWAP1 PUSH2 0x1CE8 JUMP JUMPDEST DUP2 MLOAD DUP2 LT PUSH2 0x129C JUMPI PUSH2 0x129B PUSH2 0x1D1B JUMP JUMPDEST JUMPDEST PUSH1 0x20 MUL PUSH1 0x20 ADD ADD DUP2 DUP2 MSTORE POP POP DUP7 DUP2 DUP2 MLOAD DUP2 LT PUSH2 0x12BB JUMPI PUSH2 0x12BA PUSH2 0x1D1B JUMP JUMPDEST JUMPDEST PUSH1 0x20 MUL PUSH1 0x20 ADD ADD MLOAD PUSH1 0x20 ADD MLOAD DUP3 PUSH1 0x1 PUSH1 0x6 DUP5 PUSH2 0x12D7 SWAP2 SWAP1 PUSH2 0x1FA9 JUMP JUMPDEST PUSH2 0x12E1 SWAP2 SWAP1 PUSH2 0x1CE8 JUMP JUMPDEST DUP2 MLOAD DUP2 LT PUSH2 0x12F2 JUMPI PUSH2 0x12F1 PUSH2 0x1D1B JUMP JUMPDEST JUMPDEST PUSH1 0x20 MUL PUSH1 0x20 ADD ADD DUP2 DUP2 MSTORE POP POP DUP6 DUP2 DUP2 MLOAD DUP2 LT PUSH2 0x1311 JUMPI PUSH2 0x1310 PUSH2 0x1D1B JUMP JUMPDEST JUMPDEST PUSH1 0x20 MUL PUSH1 0x20 ADD ADD MLOAD PUSH0 ADD MLOAD PUSH1 0x1 PUSH1 0x2 DUP2 LT PUSH2 0x132F JUMPI PUSH2 0x132E PUSH2 0x1D1B JUMP JUMPDEST JUMPDEST PUSH1 0x20 MUL ADD MLOAD DUP3 PUSH1 0x2 PUSH1 0x6 DUP5 PUSH2 0x1344 SWAP2 SWAP1 PUSH2 0x1FA9 JUMP JUMPDEST PUSH2 0x134E SWAP2 SWAP1 PUSH2 0x1CE8 JUMP JUMPDEST DUP2 MLOAD DUP2 LT PUSH2 0x135F JUMPI PUSH2 0x135E PUSH2 0x1D1B JUMP JUMPDEST JUMPDEST PUSH1 0x20 MUL PUSH1 0x20 ADD ADD DUP2 DUP2 MSTORE POP POP DUP6 DUP2 DUP2 MLOAD DUP2 LT PUSH2 0x137E JUMPI PUSH2 0x137D PUSH2 0x1D1B JUMP JUMPDEST JUMPDEST PUSH1 0x20 MUL PUSH1 0x20 ADD ADD MLOAD PUSH0 ADD MLOAD PUSH0 PUSH1 0x2 DUP2 LT PUSH2 0x139B JUMPI PUSH2 0x139A PUSH2 0x1D1B JUMP JUMPDEST JUMPDEST PUSH1 0x20 MUL ADD MLOAD DUP3 PUSH1 0x3 PUSH1 0x6 DUP5 PUSH2 0x13B0 SWAP2 SWAP1 PUSH2 0x1FA9 JUMP JUMPDEST PUSH2 0x13BA SWAP2 SWAP1 PUSH2 0x1CE8 JUMP JUMPDEST DUP2 MLOAD DUP2 LT PUSH2 0x13CB JUMPI PUSH2 0x13CA PUSH2 0x1D1B JUMP JUMPDEST JUMPDEST PUSH1 0x20 MUL PUSH1 0x20 ADD ADD DUP2 DUP2 MSTORE POP POP DUP6 DUP2 DUP2 MLOAD DUP2 LT PUSH2 0x13EA JUMPI PUSH2 0x13E9 PUSH2 0x1D1B JUMP JUMPDEST JUMPDEST PUSH1 0x20 MUL PUSH1 0x20 ADD ADD MLOAD PUSH1 0x20 ADD MLOAD PUSH1 0x1 PUSH1 0x2 DUP2 LT PUSH2 0x1409 JUMPI PUSH2 0x1408 PUSH2 0x1D1B JUMP JUMPDEST JUMPDEST PUSH1 0x20 MUL ADD MLOAD DUP3 PUSH1 0x4 PUSH1 0x6 DUP5 PUSH2 0x141E SWAP2 SWAP1 PUSH2 0x1FA9 JUMP JUMPDEST PUSH2 0x1428 SWAP2 SWAP1 PUSH2 0x1CE8 JUMP JUMPDEST DUP2 MLOAD DUP2 LT PUSH2 0x1439 JUMPI PUSH2 0x1438 PUSH2 0x1D1B JUMP JUMPDEST JUMPDEST PUSH1 0x20 MUL PUSH1 0x20 ADD ADD DUP2 DUP2 MSTORE POP POP DUP6 DUP2 DUP2 MLOAD DUP2 LT PUSH2 0x1458 JUMPI PUSH2 0x1457 PUSH2 0x1D1B JUMP JUMPDEST JUMPDEST PUSH1 0x20 MUL PUSH1 0x20 ADD ADD MLOAD PUSH1 0x20 ADD MLOAD PUSH0 PUSH1 0x2 DUP2 LT PUSH2 0x1476 JUMPI PUSH2 0x1475 PUSH2 0x1D1B JUMP JUMPDEST JUMPDEST PUSH1 0x20 MUL ADD MLOAD DUP3 PUSH1 0x5 PUSH1 0x6 DUP5 PUSH2 0x148B SWAP2 SWAP1 PUSH2 0x1FA9 JUMP JUMPDEST PUSH2 0x1495 SWAP2 SWAP1 PUSH2 0x1CE8 JUMP JUMPDEST DUP2 MLOAD DUP2 LT PUSH2 0x14A6 JUMPI PUSH2 0x14A5 PUSH2 0x1D1B JUMP JUMPDEST JUMPDEST PUSH1 0x20 MUL PUSH1 0x20 ADD ADD DUP2 DUP2 MSTORE POP POP DUP1 DUP1 PUSH1 0x1 ADD SWAP2 POP POP PUSH2 0x124C JUMP JUMPDEST POP PUSH2 0x14C8 PUSH2 0x15E3 JUMP JUMPDEST PUSH0 PUSH1 0x20 DUP3 PUSH1 0x20 DUP7 MUL PUSH1 0x20 DUP7 ADD PUSH1 0x8 PUSH2 0x7D0 GAS SUB STATICCALL SWAP1 POP DUP1 PUSH0 DUP2 SUB PUSH2 0x14E8 JUMPI INVALID JUMPDEST POP DUP1 PUSH2 0x14F2 JUMPI PUSH0 PUSH0 REVERT JUMPDEST PUSH0 DUP3 PUSH0 PUSH1 0x1 DUP2 LT PUSH2 0x1506 JUMPI PUSH2 0x1505 PUSH2 0x1D1B JUMP JUMPDEST JUMPDEST PUSH1 0x20 MUL ADD MLOAD EQ ISZERO SWAP6 POP POP POP POP POP POP SWAP3 SWAP2 POP POP JUMP JUMPDEST PUSH1 0x40 MLOAD DUP1 PUSH1 0xA0 ADD PUSH1 0x40 MSTORE DUP1 PUSH2 0x152D PUSH2 0x1561 JUMP JUMPDEST DUP2 MSTORE PUSH1 0x20 ADD PUSH2 0x153A PUSH2 0x15BD JUMP JUMPDEST DUP2 MSTORE PUSH1 0x20 ADD PUSH2 0x1547 PUSH2 0x15BD JUMP JUMPDEST DUP2 MSTORE PUSH1 0x20 ADD PUSH2 0x1554 PUSH2 0x15BD JUMP JUMPDEST DUP2 MSTORE PUSH1 0x20 ADD PUSH1 0x60 DUP2 MSTORE POP SWAP1 JUMP JUMPDEST PUSH1 0x40 MLOAD DUP1 PUSH1 0x40 ADD PUSH1 0x40 MSTORE DUP1 PUSH0 DUP2 MSTORE PUSH1 0x20 ADD PUSH0 DUP2 MSTORE POP SWAP1 JUMP JUMPDEST PUSH1 0x40 MLOAD DUP1 PUSH1 0x60 ADD PUSH1 0x40 MSTORE DUP1 PUSH1 0x3 SWAP1 PUSH1 0x20 DUP3 MUL DUP1 CALLDATASIZE DUP4 CALLDATACOPY DUP1 DUP3 ADD SWAP2 POP POP SWAP1 POP POP SWAP1 JUMP JUMPDEST PUSH1 0x40 MLOAD DUP1 PUSH1 0x80 ADD PUSH1 0x40 MSTORE DUP1 PUSH1 0x4 SWAP1 PUSH1 0x20 DUP3 MUL DUP1 CALLDATASIZE DUP4 CALLDATACOPY DUP1 DUP3 ADD SWAP2 POP POP SWAP1 POP POP SWAP1 JUMP JUMPDEST PUSH1 0x40 MLOAD DUP1 PUSH1 0x40 ADD PUSH1 0x40 MSTORE DUP1 PUSH2 0x15D0 PUSH2 0x1605 JUMP JUMPDEST DUP2 MSTORE PUSH1 0x20 ADD PUSH2 0x15DD PUSH2 0x1605 JUMP JUMPDEST DUP2 MSTORE POP SWAP1 JUMP JUMPDEST PUSH1 0x40 MLOAD DUP1 PUSH1 0x20 ADD PUSH1 0x40 MSTORE DUP1 PUSH1 0x1 SWAP1 PUSH1 0x20 DUP3 MUL DUP1 CALLDATASIZE DUP4 CALLDATACOPY DUP1 DUP3 ADD SWAP2 POP POP SWAP1 POP POP SWAP1 JUMP JUMPDEST PUSH1 0x40 MLOAD DUP1 PUSH1 0x40 ADD PUSH1 0x40 MSTORE DUP1 PUSH1 0x2 SWAP1 PUSH1 0x20 DUP3 MUL DUP1 CALLDATASIZE DUP4 CALLDATACOPY DUP1 DUP3 ADD SWAP2 POP POP SWAP1 POP POP SWAP1 JUMP JUMPDEST PUSH0 DUP2 SWAP1 POP SWAP2 SWAP1 POP JUMP JUMPDEST PUSH2 0x1639 DUP2 PUSH2 0x1627 JUMP JUMPDEST DUP3 MSTORE POP POP JUMP JUMPDEST PUSH0 PUSH1 0x20 DUP3 ADD SWAP1 POP PUSH2 0x1652 PUSH0 DUP4 ADD DUP5 PUSH2 0x1630 JUMP JUMPDEST SWAP3 SWAP2 POP POP JUMP JUMPDEST PUSH0 PUSH1 0x40 MLOAD SWAP1 POP SWAP1 JUMP JUMPDEST PUSH0 PUSH0 REVERT JUMPDEST PUSH0 PUSH0 REVERT JUMPDEST PUSH0 PUSH2 0x100 DUP3 DUP5 SUB SLT ISZERO PUSH2 0x167F JUMPI PUSH2 0x167E PUSH2 0x1665 JUMP JUMPDEST JUMPDEST DUP2 SWAP1 POP SWAP3 SWAP2 POP POP JUMP JUMPDEST PUSH0 PUSH0 REVERT JUMPDEST PUSH0 DUP2 SWAP1 POP DUP3 PUSH1 0x20 PUSH1 0x4 MUL DUP3 ADD GT ISZERO PUSH2 0x16A7 JUMPI PUSH2 0x16A6 PUSH2 0x1688 JUMP JUMPDEST JUMPDEST SWAP3 SWAP2 POP POP JUMP JUMPDEST PUSH2 0x16B6 DUP2 PUSH2 0x1627 JUMP JUMPDEST DUP2 EQ PUSH2 0x16C0 JUMPI PUSH0 PUSH0 REVERT JUMPDEST POP JUMP JUMPDEST PUSH0 DUP2 CALLDATALOAD SWAP1 POP PUSH2 0x16D1 DUP2 PUSH2 0x16AD JUMP JUMPDEST SWAP3 SWAP2 POP POP JUMP JUMPDEST PUSH0 DUP2 ISZERO ISZERO SWAP1 POP SWAP2 SWAP1 POP JUMP JUMPDEST PUSH2 0x16EB DUP2 PUSH2 0x16D7 JUMP JUMPDEST DUP2 EQ PUSH2 0x16F5 JUMPI PUSH0 PUSH0 REVERT JUMPDEST POP JUMP JUMPDEST PUSH0 DUP2 CALLDATALOAD SWAP1 POP PUSH2 0x1706 DUP2 PUSH2 0x16E2 JUMP JUMPDEST SWAP3 SWAP2 POP POP JUMP JUMPDEST PUSH0 PUSH0 PUSH0 PUSH0 PUSH2 0x1C0 DUP6 DUP8 SUB SLT ISZERO PUSH2 0x1725 JUMPI PUSH2 0x1724 PUSH2 0x1661 JUMP JUMPDEST JUMPDEST PUSH0 PUSH2 0x1732 DUP8 DUP3 DUP9 ADD PUSH2 0x1669 JUMP JUMPDEST SWAP5 POP POP PUSH2 0x100 PUSH2 0x1744 DUP8 DUP3 DUP9 ADD PUSH2 0x168C JUMP JUMPDEST SWAP4 POP POP PUSH2 0x180 PUSH2 0x1756 DUP8 DUP3 DUP9 ADD PUSH2 0x16C3 JUMP JUMPDEST SWAP3 POP POP PUSH2 0x1A0 PUSH2 0x1768 DUP8 DUP3 DUP9 ADD PUSH2 0x16F8 JUMP JUMPDEST SWAP2 POP POP SWAP3 SWAP6 SWAP2 SWAP5 POP SWAP3 POP JUMP JUMPDEST PUSH2 0x177D DUP2 PUSH2 0x16D7 JUMP JUMPDEST DUP3 MSTORE POP POP JUMP JUMPDEST PUSH0 PUSH1 0x20 DUP3 ADD SWAP1 POP PUSH2 0x1796 PUSH0 DUP4 ADD DUP5 PUSH2 0x1774 JUMP JUMPDEST SWAP3 SWAP2 POP POP JUMP JUMPDEST PUSH0 PUSH0 REVERT JUMPDEST PUSH0 PUSH1 0x1F NOT PUSH1 0x1F DUP4 ADD AND SWAP1 POP SWAP2 SWAP1 POP JUMP JUMPDEST PUSH32 0x4E487B7100000000000000000000000000000000000000000000000000000000 PUSH0 MSTORE PUSH1 0x41 PUSH1 0x4 MSTORE PUSH1 0x24 PUSH0 REVERT JUMPDEST PUSH2 0x17E6 DUP3 PUSH2 0x17A0 JUMP JUMPDEST DUP2 ADD DUP2 DUP2 LT PUSH8 0xFFFFFFFFFFFFFFFF DUP3 GT OR ISZERO PUSH2 0x1805 JUMPI PUSH2 0x1804 PUSH2 0x17B0 JUMP JUMPDEST JUMPDEST DUP1 PUSH1 0x40 MSTORE POP POP POP JUMP JUMPDEST PUSH0 PUSH2 0x1817 PUSH2 0x1658 JUMP JUMPDEST SWAP1 POP PUSH2 0x1823 DUP3 DUP3 PUSH2 0x17DD JUMP JUMPDEST SWAP2 SWAP1 POP JUMP JUMPDEST PUSH0 PUSH1 0x40 DUP3 DUP5 SUB SLT ISZERO PUSH2 0x183D JUMPI PUSH2 0x183C PUSH2 0x179C JUMP JUMPDEST JUMPDEST PUSH2 0x1847 PUSH1 0x40 PUSH2 0x180E JUMP JUMPDEST SWAP1 POP PUSH0 PUSH2 0x1856 DUP5 DUP3 DUP6 ADD PUSH2 0x16C3 JUMP JUMPDEST PUSH0 DUP4 ADD MSTORE POP PUSH1 0x20 PUSH2 0x1869 DUP5 DUP3 DUP6 ADD PUSH2 0x16C3 JUMP JUMPDEST PUSH1 0x20 DUP4 ADD MSTORE POP SWAP3 SWAP2 POP POP JUMP JUMPDEST PUSH0 PUSH0 REVERT JUMPDEST PUSH0 PUSH8 0xFFFFFFFFFFFFFFFF DUP3 GT ISZERO PUSH2 0x1893 JUMPI PUSH2 0x1892 PUSH2 0x17B0 JUMP JUMPDEST JUMPDEST PUSH1 0x20 DUP3 MUL SWAP1 POP SWAP2 SWAP1 POP JUMP JUMPDEST PUSH0 PUSH2 0x18B0 PUSH2 0x18AB DUP5 PUSH2 0x1879 JUMP JUMPDEST PUSH2 0x180E JUMP JUMPDEST SWAP1 POP DUP1 PUSH1 0x20 DUP5 MUL DUP4 ADD DUP6 DUP2 GT ISZERO PUSH2 0x18CA JUMPI PUSH2 0x18C9 PUSH2 0x1688 JUMP JUMPDEST JUMPDEST DUP4 JUMPDEST DUP2 DUP2 LT ISZERO PUSH2 0x18F3 JUMPI DUP1 PUSH2 0x18DF DUP9 DUP3 PUSH2 0x16C3 JUMP JUMPDEST DUP5 MSTORE PUSH1 0x20 DUP5 ADD SWAP4 POP POP PUSH1 0x20 DUP2 ADD SWAP1 POP PUSH2 0x18CC JUMP JUMPDEST POP POP POP SWAP4 SWAP3 POP POP POP JUMP JUMPDEST PUSH0 DUP3 PUSH1 0x1F DUP4 ADD SLT PUSH2 0x1911 JUMPI PUSH2 0x1910 PUSH2 0x1875 JUMP JUMPDEST JUMPDEST PUSH1 0x2 PUSH2 0x191E DUP5 DUP3 DUP6 PUSH2 0x189E JUMP JUMPDEST SWAP2 POP POP SWAP3 SWAP2 POP POP JUMP JUMPDEST PUSH0 PUSH1 0x80 DUP3 DUP5 SUB SLT ISZERO PUSH2 0x193C JUMPI PUSH2 0x193B PUSH2 0x179C JUMP JUMPDEST JUMPDEST PUSH2 0x1946 PUSH1 0x40 PUSH2 0x180E JUMP JUMPDEST SWAP1 POP PUSH0 PUSH2 0x1955 DUP5 DUP3 DUP6 ADD PUSH2 0x18FD JUMP JUMPDEST PUSH0 DUP4 ADD MSTORE POP PUSH1 0x40 PUSH2 0x1968 DUP5 DUP3 DUP6 ADD PUSH2 0x18FD JUMP JUMPDEST PUSH1 0x20 DUP4 ADD MSTORE POP SWAP3 SWAP2 POP POP JUMP JUMPDEST PUSH0 PUSH2 0x100 DUP3 DUP5 SUB SLT ISZERO PUSH2 0x198A JUMPI PUSH2 0x1989 PUSH2 0x179C JUMP JUMPDEST JUMPDEST PUSH2 0x1994 PUSH1 0x60 PUSH2 0x180E JUMP JUMPDEST SWAP1 POP PUSH0 PUSH2 0x19A3 DUP5 DUP3 DUP6 ADD PUSH2 0x1828 JUMP JUMPDEST PUSH0 DUP4 ADD MSTORE POP PUSH1 0x40 PUSH2 0x19B6 DUP5 DUP3 DUP6 ADD PUSH2 0x1927 JUMP JUMPDEST PUSH1 0x20 DUP4 ADD MSTORE POP PUSH1 0xC0 PUSH2 0x19CA DUP5 DUP3 DUP6 ADD PUSH2 0x1828 JUMP JUMPDEST PUSH1 0x40 DUP4 ADD MSTORE POP SWAP3 SWAP2 POP POP JUMP JUMPDEST PUSH0 PUSH8 0xFFFFFFFFFFFFFFFF DUP3 GT ISZERO PUSH2 0x19F0 JUMPI PUSH2 0x19EF PUSH2 0x17B0 JUMP JUMPDEST JUMPDEST PUSH1 0x20 DUP3 MUL SWAP1 POP SWAP2 SWAP1 POP JUMP JUMPDEST PUSH0 PUSH2 0x1A0D PUSH2 0x1A08 DUP5 PUSH2 0x19D6 JUMP JUMPDEST PUSH2 0x180E JUMP JUMPDEST SWAP1 POP DUP1 PUSH1 0x20 DUP5 MUL DUP4 ADD DUP6 DUP2 GT ISZERO PUSH2 0x1A27 JUMPI PUSH2 0x1A26 PUSH2 0x1688 JUMP JUMPDEST JUMPDEST DUP4 JUMPDEST DUP2 DUP2 LT ISZERO PUSH2 0x1A50 JUMPI DUP1 PUSH2 0x1A3C DUP9 DUP3 PUSH2 0x16C3 JUMP JUMPDEST DUP5 MSTORE PUSH1 0x20 DUP5 ADD SWAP4 POP POP PUSH1 0x20 DUP2 ADD SWAP1 POP PUSH2 0x1A29 JUMP JUMPDEST POP POP POP SWAP4 SWAP3 POP POP POP JUMP JUMPDEST PUSH0 DUP3 PUSH1 0x1F DUP4 ADD SLT PUSH2 0x1A6E JUMPI PUSH2 0x1A6D PUSH2 0x1875 JUMP JUMPDEST JUMPDEST PUSH1 0x4 PUSH2 0x1A7B DUP5 DUP3 DUP6 PUSH2 0x19FB JUMP JUMPDEST SWAP2 POP POP SWAP3 SWAP2 POP POP JUMP JUMPDEST PUSH0 PUSH0 PUSH2 0x180 DUP4 DUP6 SUB SLT ISZERO PUSH2 0x1A9B JUMPI PUSH2 0x1A9A PUSH2 0x1661 JUMP JUMPDEST JUMPDEST PUSH0 PUSH2 0x1AA8 DUP6 DUP3 DUP7 ADD PUSH2 0x1974 JUMP JUMPDEST SWAP3 POP POP PUSH2 0x100 PUSH2 0x1ABA DUP6 DUP3 DUP7 ADD PUSH2 0x1A5A JUMP JUMPDEST SWAP2 POP POP SWAP3 POP SWAP3 SWAP1 POP JUMP JUMPDEST PUSH0 PUSH1 0x20 DUP3 DUP5 SUB SLT ISZERO PUSH2 0x1AD9 JUMPI PUSH2 0x1AD8 PUSH2 0x1661 JUMP JUMPDEST JUMPDEST PUSH0 PUSH2 0x1AE6 DUP5 DUP3 DUP6 ADD PUSH2 0x16C3 JUMP JUMPDEST SWAP2 POP POP SWAP3 SWAP2 POP POP JUMP JUMPDEST PUSH0 PUSH20 0xFFFFFFFFFFFFFFFFFFFFFFFFFFFFFFFFFFFFFFFF DUP3 AND SWAP1 POP SWAP2 SWAP1 POP JUMP JUMPDEST PUSH0 PUSH2 0x1B18 DUP3 PUSH2 0x1AEF JUMP JUMPDEST SWAP1 POP SWAP2 SWAP1 POP JUMP JUMPDEST PUSH2 0x1B28 DUP2 PUSH2 0x1B0E JUMP JUMPDEST DUP3 MSTORE POP POP JUMP JUMPDEST PUSH0 PUSH1 0x20 DUP3 ADD SWAP1 POP PUSH2 0x1B41 PUSH0 DUP4 ADD DUP5 PUSH2 0x1B1F JUMP JUMPDEST SWAP3 SWAP2 POP POP JUMP JUMPDEST PUSH0 DUP3 DUP3 MSTORE PUSH1 0x20 DUP3 ADD SWAP1 POP SWAP3 SWAP2 POP POP JUMP JUMPDEST PUSH32 0x456C656363696F6E206365727261646100000000000000000000000000000000 PUSH0 DUP3 ADD MSTORE POP JUMP JUMPDEST PUSH0 PUSH2 0x1B8B PUSH1 0x10 DUP4 PUSH2 0x1B47 JUMP JUMPDEST SWAP2 POP PUSH2 0x1B96 DUP3 PUSH2 0x1B57 JUMP JUMPDEST PUSH1 0x20 DUP3 ADD SWAP1 POP SWAP2 SWAP1 POP JUMP JUMPDEST PUSH0 PUSH1 0x20 DUP3 ADD SWAP1 POP DUP2 DUP2 SUB PUSH0 DUP4 ADD MSTORE PUSH2 0x1BB8 DUP2 PUSH2 0x1B7F JUMP JUMPDEST SWAP1 POP SWAP2 SWAP1 POP JUMP JUMPDEST PUSH32 0x4E756C6C6966696572207961207574696C697A61646F00000000000000000000 PUSH0 DUP3 ADD MSTORE POP JUMP JUMPDEST PUSH0 PUSH2 0x1BF3 PUSH1 0x16 DUP4 PUSH2 0x1B47 JUMP JUMPDEST SWAP2 POP PUSH2 0x1BFE DUP3 PUSH2 0x1BBF JUMP JUMPDEST PUSH1 0x20 DUP3 ADD SWAP1 POP SWAP2 SWAP1 POP JUMP JUMPDEST PUSH0 PUSH1 0x20 DUP3 ADD SWAP1 POP DUP2 DUP2 SUB PUSH0 DUP4 ADD MSTORE PUSH2 0x1C20 DUP2 PUSH2 0x1BE7 JUMP JUMPDEST SWAP1 POP SWAP2 SWAP1 POP JUMP JUMPDEST PUSH0 PUSH2 0x100 DUP3 DUP5 SUB SLT ISZERO PUSH2 0x1C3D JUMPI PUSH2 0x1C3C PUSH2 0x1661 JUMP JUMPDEST JUMPDEST PUSH0 PUSH2 0x1C4A DUP5 DUP3 DUP6 ADD PUSH2 0x1974 JUMP JUMPDEST SWAP2 POP POP SWAP3 SWAP2 POP POP JUMP JUMPDEST PUSH32 0x496E76616C6964205A4B2070726F6F6600000000000000000000000000000000 PUSH0 DUP3 ADD MSTORE POP JUMP JUMPDEST PUSH0 PUSH2 0x1C87 PUSH1 0x10 DUP4 PUSH2 0x1B47 JUMP JUMPDEST SWAP2 POP PUSH2 0x1C92 DUP3 PUSH2 0x1C53 JUMP JUMPDEST PUSH1 0x20 DUP3 ADD SWAP1 POP SWAP2 SWAP1 POP JUMP JUMPDEST PUSH0 PUSH1 0x20 DUP3 ADD SWAP1 POP DUP2 DUP2 SUB PUSH0 DUP4 ADD MSTORE PUSH2 0x1CB4 DUP2 PUSH2 0x1C7B JUMP JUMPDEST SWAP1 POP SWAP2 SWAP1 POP JUMP JUMPDEST PUSH32 0x4E487B7100000000000000000000000000000000000000000000000000000000 PUSH0 MSTORE PUSH1 0x11 PUSH1 0x4 MSTORE PUSH1 0x24 PUSH0 REVERT JUMPDEST PUSH0 PUSH2 0x1CF2 DUP3 PUSH2 0x1627 JUMP JUMPDEST SWAP2 POP PUSH2 0x1CFD DUP4 PUSH2 0x1627 JUMP JUMPDEST SWAP3 POP DUP3 DUP3 ADD SWAP1 POP DUP1 DUP3 GT ISZERO PUSH2 0x1D15 JUMPI PUSH2 0x1D14 PUSH2 0x1CBB JUMP JUMPDEST JUMPDEST SWAP3 SWAP2 POP POP JUMP JUMPDEST PUSH32 0x4E487B7100000000000000000000000000000000000000000000000000000000 PUSH0 MSTORE PUSH1 0x32 PUSH1 0x4 MSTORE PUSH1 0x24 PUSH0 REVERT JUMPDEST PUSH0 PUSH1 0x2 SWAP1 POP SWAP2 SWAP1 POP JUMP JUMPDEST PUSH0 DUP2 SWAP1 POP SWAP3 SWAP2 POP POP JUMP JUMPDEST PUSH0 DUP2 SWAP1 POP SWAP2 SWAP1 POP JUMP JUMPDEST PUSH2 0x1D6E DUP2 PUSH2 0x1627 JUMP JUMPDEST DUP3 MSTORE POP POP JUMP JUMPDEST PUSH0 PUSH2 0x1D7F DUP4 DUP4 PUSH2 0x1D65 JUMP JUMPDEST PUSH1 0x20 DUP4 ADD SWAP1 POP SWAP3 SWAP2 POP POP JUMP JUMPDEST PUSH0 PUSH1 0x20 DUP3 ADD SWAP1 POP SWAP2 SWAP1 POP JUMP JUMPDEST PUSH2 0x1DA0 DUP2 PUSH2 0x1D48 JUMP JUMPDEST PUSH2 0x1DAA DUP2 DUP5 PUSH2 0x1D52 JUMP JUMPDEST SWAP3 POP PUSH2 0x1DB5 DUP3 PUSH2 0x1D5C JUMP JUMPDEST DUP1 PUSH0 JUMPDEST DUP4 DUP2 LT ISZERO PUSH2 0x1DE5 JUMPI DUP2 MLOAD PUSH2 0x1DCC DUP8 DUP3 PUSH2 0x1D74 JUMP JUMPDEST SWAP7 POP PUSH2 0x1DD7 DUP4 PUSH2 0x1D8B JUMP JUMPDEST SWAP3 POP POP PUSH1 0x1 DUP2 ADD SWAP1 POP PUSH2 0x1DB8 JUMP JUMPDEST POP POP POP POP POP POP JUMP JUMPDEST PUSH0 PUSH1 0xA0 DUP3 ADD SWAP1 POP PUSH2 0x1E00 PUSH0 DUP4 ADD DUP7 PUSH2 0x1D97 JUMP JUMPDEST PUSH2 0x1E0D PUSH1 0x40 DUP4 ADD DUP6 PUSH2 0x1D97 JUMP JUMPDEST PUSH2 0x1E1A PUSH1 0x80 DUP4 ADD DUP5 PUSH2 0x1630 JUMP JUMPDEST SWAP5 SWAP4 POP POP POP POP JUMP JUMPDEST PUSH32 0x4F6E6C79206F776E657200000000000000000000000000000000000000000000 PUSH0 DUP3 ADD MSTORE POP JUMP JUMPDEST PUSH0 PUSH2 0x1E56 PUSH1 0xA DUP4 PUSH2 0x1B47 JUMP JUMPDEST SWAP2 POP PUSH2 0x1E61 DUP3 PUSH2 0x1E22 JUMP JUMPDEST PUSH1 0x20 DUP3 ADD SWAP1 POP SWAP2 SWAP1 POP JUMP JUMPDEST PUSH0 PUSH1 0x20 DUP3 ADD SWAP1 POP DUP2 DUP2 SUB PUSH0 DUP4 ADD MSTORE PUSH2 0x1E83 DUP2 PUSH2 0x1E4A JUMP JUMPDEST SWAP1 POP SWAP2 SWAP1 POP JUMP JUMPDEST PUSH32 0x456C656374696F6E207374696C6C206F70656E00000000000000000000000000 PUSH0 DUP3 ADD MSTORE POP JUMP JUMPDEST PUSH0 PUSH2 0x1EBE PUSH1 0x13 DUP4 PUSH2 0x1B47 JUMP JUMPDEST SWAP2 POP PUSH2 0x1EC9 DUP3 PUSH2 0x1E8A JUMP JUMPDEST PUSH1 0x20 DUP3 ADD SWAP1 POP SWAP2 SWAP1 POP JUMP JUMPDEST PUSH0 PUSH1 0x20 DUP3 ADD SWAP1 POP DUP2 DUP2 SUB PUSH0 DUP4 ADD MSTORE PUSH2 0x1EEB DUP2 PUSH2 0x1EB2 JUMP JUMPDEST SWAP1 POP SWAP2 SWAP1 POP JUMP JUMPDEST PUSH0 PUSH1 0x40 DUP3 ADD SWAP1 POP PUSH2 0x1F05 PUSH0 DUP4 ADD DUP6 PUSH2 0x1630 JUMP JUMPDEST PUSH2 0x1F12 PUSH1 0x20 DUP4 ADD DUP5 PUSH2 0x1630 JUMP JUMPDEST SWAP4 SWAP3 POP POP POP JUMP JUMPDEST PUSH32 0x4E487B7100000000000000000000000000000000000000000000000000000000 PUSH0 MSTORE PUSH1 0x12 PUSH1 0x4 MSTORE PUSH1 0x24 PUSH0 REVERT JUMPDEST PUSH0 PUSH2 0x1F50 DUP3 PUSH2 0x1627 JUMP JUMPDEST SWAP2 POP PUSH2 0x1F5B DUP4 PUSH2 0x1627 JUMP JUMPDEST SWAP3 POP DUP3 PUSH2 0x1F6B JUMPI PUSH2 0x1F6A PUSH2 0x1F19 JUMP JUMPDEST JUMPDEST DUP3 DUP3 MOD SWAP1 POP SWAP3 SWAP2 POP POP JUMP JUMPDEST PUSH0 PUSH2 0x1F80 DUP3 PUSH2 0x1627 JUMP JUMPDEST SWAP2 POP PUSH2 0x1F8B DUP4 PUSH2 0x1627 JUMP JUMPDEST SWAP3 POP DUP3 DUP3 SUB SWAP1 POP DUP2 DUP2 GT ISZERO PUSH2 0x1FA3 JUMPI PUSH2 0x1FA2 PUSH2 0x1CBB JUMP JUMPDEST JUMPDEST SWAP3 SWAP2 POP POP JUMP JUMPDEST PUSH0 PUSH2 0x1FB3 DUP3 PUSH2 0x1627 JUMP JUMPDEST SWAP2 POP PUSH2 0x1FBE DUP4 PUSH2 0x1627 JUMP JUMPDEST SWAP3 POP DUP3 DUP3 MUL PUSH2 0x1FCC DUP2 PUSH2 0x1627 JUMP JUMPDEST SWAP2 POP DUP3 DUP3 DIV DUP5 EQ DUP4 ISZERO OR PUSH2 0x1FE3 JUMPI PUSH2 0x1FE2 PUSH2 0x1CBB JUMP JUMPDEST JUMPDEST POP SWAP3 SWAP2 POP POP JUMP INVALID LOG2 PUSH5 0x6970667358 0x22 SLT KECCAK256 PUSH3 0x85511F 0x2A 0xB7 SUB DATALOADN 0x8622 GAS GT PUSH24 0x908012D4D5C1B47C8F2880082E7E7C86E2818164736F6C63 NUMBER STOP ADDMOD 0x1E STOP CALLER "
				},
				"gasEstimates": {
					"creation": {
						"codeDepositCost": "1644800",
						"executionCost": "infinite",
						"totalCost": "infinite"
					},
					"external": {
						"closeElection()": "26693",
						"electionOpen()": "2561",
						"nullifierUsed(uint256)": "2785",
						"owner()": "2529",
						"publishResults()": "infinite",
						"registerVote(((uint256,uint256),(uint256[2],uint256[2]),(uint256,uint256)),uint256[4],uint256,bool)": "infinite",
						"root()": "2513",
						"verifyTx(((uint256,uint256),(uint256[2],uint256[2]),(uint256,uint256)),uint256[4])": "infinite",
						"votes0()": "2469",
						"votes1()": "2426"
					}
				},
				"methodIdentifiers": {
					"closeElection()": "6c6c32d0",
					"electionOpen()": "4a39d442",
					"nullifierUsed(uint256)": "79f95ee9",
					"owner()": "8da5cb5b",
					"publishResults()": "b952e7d8",
					"registerVote(((uint256,uint256),(uint256[2],uint256[2]),(uint256,uint256)),uint256[4],uint256,bool)": "249f66c6",
					"root()": "ebf0c717",
					"verifyTx(((uint256,uint256),(uint256[2],uint256[2]),(uint256,uint256)),uint256[4])": "799afa76",
					"votes0()": "9aa69136",
					"votes1()": "1327e258"
				}
			},
			"storageLayout": {
				"storage": [
					{
						"astId": 6,
						"contract": "TP FINAL/VotingSystem.sol:VotingSystem",
						"label": "owner",
						"offset": 0,
						"slot": "0",
						"type": "t_address"
					},
					{
						"astId": 9,
						"contract": "TP FINAL/VotingSystem.sol:VotingSystem",
						"label": "electionOpen",
						"offset": 20,
						"slot": "0",
						"type": "t_bool"
					},
					{
						"astId": 11,
						"contract": "TP FINAL/VotingSystem.sol:VotingSystem",
						"label": "root",
						"offset": 0,
						"slot": "1",
						"type": "t_uint256"
					},
					{
						"astId": 13,
						"contract": "TP FINAL/VotingSystem.sol:VotingSystem",
						"label": "votes0",
						"offset": 0,
						"slot": "2",
						"type": "t_uint256"
					},
					{
						"astId": 15,
						"contract": "TP FINAL/VotingSystem.sol:VotingSystem",
						"label": "votes1",
						"offset": 0,
						"slot": "3",
						"type": "t_uint256"
					},
					{
						"astId": 19,
						"contract": "TP FINAL/VotingSystem.sol:VotingSystem",
						"label": "nullifierUsed",
						"offset": 0,
						"slot": "4",
						"type": "t_mapping(t_uint256,t_bool)"
					}
				],
				"types": {
					"t_address": {
						"encoding": "inplace",
						"label": "address",
						"numberOfBytes": "20"
					},
					"t_bool": {
						"encoding": "inplace",
						"label": "bool",
						"numberOfBytes": "1"
					},
					"t_mapping(t_uint256,t_bool)": {
						"encoding": "mapping",
						"key": "t_uint256",
						"label": "mapping(uint256 => bool)",
						"numberOfBytes": "32",
						"value": "t_bool"
					},
					"t_uint256": {
						"encoding": "inplace",
						"label": "uint256",
						"numberOfBytes": "32"
					}
				}
			},
			"userdoc": {
				"kind": "user",
				"methods": {},
				"version": 1
			}
		}
	}
}