{
	"TP FINAL/VotingSystem.sol": {
		"VotingSystem": {
			"abi": [
				{
					"inputs": [
						{
							"internalType": "address",
							"name": "_voteVerifier",
							"type": "address"
						},
						{
							"internalType": "address",
							"name": "_recountVerifier",
							"type": "address"
						}
					],
					"stateMutability": "nonpayable",
					"type": "constructor"
				},
				{
					"anonymous": false,
					"inputs": [],
					"name": "ElectionClosed",
					"type": "event"
				},
				{
					"anonymous": false,
					"inputs": [
						{
							"indexed": false,
							"internalType": "uint256",
							"name": "result",
							"type": "uint256"
						}
					],
					"name": "ResultsPublished",
					"type": "event"
				},
				{
					"anonymous": false,
					"inputs": [
						{
							"indexed": false,
							"internalType": "uint256[2]",
							"name": "C1",
							"type": "uint256[2]"
						},
						{
							"indexed": false,
							"internalType": "uint256[2]",
							"name": "C2",
							"type": "uint256[2]"
						},
						{
							"indexed": false,
							"internalType": "uint256",
							"name": "nullifier",
							"type": "uint256"
						}
					],
					"name": "VoteRegistered",
					"type": "event"
				},
				{
					"inputs": [],
					"name": "accC1x",
					"outputs": [
						{
							"internalType": "uint256",
							"name": "",
							"type": "uint256"
						}
					],
					"stateMutability": "view",
					"type": "function"
				},
				{
					"inputs": [],
					"name": "accC1y",
					"outputs": [
						{
							"internalType": "uint256",
							"name": "",
							"type": "uint256"
						}
					],
					"stateMutability": "view",
					"type": "function"
				},
				{
					"inputs": [],
					"name": "accC2x",
					"outputs": [
						{
							"internalType": "uint256",
							"name": "",
							"type": "uint256"
						}
					],
					"stateMutability": "view",
					"type": "function"
				},
				{
					"inputs": [],
					"name": "accC2y",
					"outputs": [
						{
							"internalType": "uint256",
							"name": "",
							"type": "uint256"
						}
					],
					"stateMutability": "view",
					"type": "function"
				},
				{
					"inputs": [],
					"name": "closeElection",
					"outputs": [],
					"stateMutability": "nonpayable",
					"type": "function"
				},
				{
					"inputs": [],
					"name": "electionOpen",
					"outputs": [
						{
							"internalType": "bool",
							"name": "",
							"type": "bool"
						}
					],
					"stateMutability": "view",
					"type": "function"
				},
				{
					"inputs": [
						{
							"internalType": "uint256",
							"name": "",
							"type": "uint256"
						}
					],
					"name": "nullifierUsed",
					"outputs": [
						{
							"internalType": "bool",
							"name": "",
							"type": "bool"
						}
					],
					"stateMutability": "view",
					"type": "function"
				},
				{
					"inputs": [],
					"name": "numberOfVotes",
					"outputs": [
						{
							"internalType": "uint256",
							"name": "",
							"type": "uint256"
						}
					],
					"stateMutability": "view",
					"type": "function"
				},
				{
					"inputs": [],
					"name": "owner",
					"outputs": [
						{
							"internalType": "address",
							"name": "",
							"type": "address"
						}
					],
					"stateMutability": "view",
					"type": "function"
				},
				{
					"inputs": [
						{
							"internalType": "uint256",
							"name": "result",
							"type": "uint256"
						},
						{
							"components": [
								{
									"components": [
										{
											"internalType": "uint256",
											"name": "X",
											"type": "uint256"
										},
										{
											"internalType": "uint256",
											"name": "Y",
											"type": "uint256"
										}
									],
									"internalType": "struct G1Point",
									"name": "a",
									"type": "tuple"
								},
								{
									"components": [
										{
											"internalType": "uint256[2]",
											"name": "X",
											"type": "uint256[2]"
										},
										{
											"internalType": "uint256[2]",
											"name": "Y",
											"type": "uint256[2]"
										}
									],
									"internalType": "struct G2Point",
									"name": "b",
									"type": "tuple"
								},
								{
									"components": [
										{
											"internalType": "uint256",
											"name": "X",
											"type": "uint256"
										},
										{
											"internalType": "uint256",
											"name": "Y",
											"type": "uint256"
										}
									],
									"internalType": "struct G1Point",
									"name": "c",
									"type": "tuple"
								}
							],
							"internalType": "struct Proof",
							"name": "proof",
							"type": "tuple"
						}
					],
					"name": "publishResults",
					"outputs": [],
					"stateMutability": "nonpayable",
					"type": "function"
				},
				{
					"inputs": [],
					"name": "recountVerifier",
					"outputs": [
						{
							"internalType": "contract IVerifier",
							"name": "",
							"type": "address"
						}
					],
					"stateMutability": "view",
					"type": "function"
				},
				{
					"inputs": [
						{
							"components": [
								{
									"components": [
										{
											"internalType": "uint256",
											"name": "X",
											"type": "uint256"
										},
										{
											"internalType": "uint256",
											"name": "Y",
											"type": "uint256"
										}
									],
									"internalType": "struct G1Point",
									"name": "a",
									"type": "tuple"
								},
								{
									"components": [
										{
											"internalType": "uint256[2]",
											"name": "X",
											"type": "uint256[2]"
										},
										{
											"internalType": "uint256[2]",
											"name": "Y",
											"type": "uint256[2]"
										}
									],
									"internalType": "struct G2Point",
									"name": "b",
									"type": "tuple"
								},
								{
									"components": [
										{
											"internalType": "uint256",
											"name": "X",
											"type": "uint256"
										},
										{
											"internalType": "uint256",
											"name": "Y",
											"type": "uint256"
										}
									],
									"internalType": "struct G1Point",
									"name": "c",
									"type": "tuple"
								}
							],
							"internalType": "struct Proof",
							"name": "proof",
							"type": "tuple"
						},
						{
							"internalType": "uint256[2]",
							"name": "C1",
							"type": "uint256[2]"
						},
						{
							"internalType": "uint256[2]",
							"name": "C2",
							"type": "uint256[2]"
						},
						{
							"internalType": "uint256",
							"name": "nullifier",
							"type": "uint256"
						}
					],
					"name": "registerVote",
					"outputs": [],
					"stateMutability": "nonpayable",
					"type": "function"
				},
				{
					"inputs": [],
					"name": "voteVerifier",
					"outputs": [
						{
							"internalType": "contract IVerifier",
							"name": "",
							"type": "address"
						}
					],
					"stateMutability": "view",
					"type": "function"
				}
			],
			"devdoc": {
				"kind": "dev",
				"methods": {},
				"version": 1
			},
			"evm": {
				"assembly": "    /* \"TP FINAL/VotingSystem.sol\":122:3324  contract VotingSystem {... */\n  mstore(0x40, 0x80)\n    /* \"TP FINAL/VotingSystem.sol\":860:1205  constructor(... */\n  callvalue\n  dup1\n  iszero\n  tag_1\n  jumpi\n  revert(0x00, 0x00)\ntag_1:\n  pop\n  mload(0x40)\n  sub(codesize, bytecodeSize)\n  dup1\n  bytecodeSize\n  dup4\n  codecopy\n  dup2\n  dup2\n  add\n  0x40\n  mstore\n  dup2\n  add\n  swap1\n  tag_2\n  swap2\n  swap1\n  tag_3\n  jump\t// in\ntag_2:\n    /* \"TP FINAL/VotingSystem.sol\":965:975  msg.sender */\n  caller\n    /* \"TP FINAL/VotingSystem.sol\":957:962  owner */\n  0x00\n  0x00\n    /* \"TP FINAL/VotingSystem.sol\":957:975  owner = msg.sender */\n  0x0100\n  exp\n  dup2\n  sload\n  dup2\n  0xffffffffffffffffffffffffffffffffffffffff\n  mul\n  not\n  and\n  swap1\n  dup4\n  0xffffffffffffffffffffffffffffffffffffffff\n  and\n  mul\n  or\n  swap1\n  sstore\n  pop\n    /* \"TP FINAL/VotingSystem.sol\":1001:1005  true */\n  0x01\n    /* \"TP FINAL/VotingSystem.sol\":986:998  electionOpen */\n  0x00\n  0x14\n    /* \"TP FINAL/VotingSystem.sol\":986:1005  electionOpen = true */\n  0x0100\n  exp\n  dup2\n  sload\n  dup2\n  0xff\n  mul\n  not\n  and\n  swap1\n  dup4\n  iszero\n  iszero\n  mul\n  or\n  swap1\n  sstore\n  pop\n    /* \"TP FINAL/VotingSystem.sol\":1043:1056  _voteVerifier */\n  dup2\n    /* \"TP FINAL/VotingSystem.sol\":1018:1030  voteVerifier */\n  0x07\n  0x00\n    /* \"TP FINAL/VotingSystem.sol\":1018:1057  voteVerifier = IVerifier(_voteVerifier) */\n  0x0100\n  exp\n  dup2\n  sload\n  dup2\n  0xffffffffffffffffffffffffffffffffffffffff\n  mul\n  not\n  and\n  swap1\n  dup4\n  0xffffffffffffffffffffffffffffffffffffffff\n  and\n  mul\n  or\n  swap1\n  sstore\n  pop\n    /* \"TP FINAL/VotingSystem.sol\":1096:1112  _recountVerifier */\n  dup1\n    /* \"TP FINAL/VotingSystem.sol\":1068:1083  recountVerifier */\n  0x08\n  0x00\n    /* \"TP FINAL/VotingSystem.sol\":1068:1113  recountVerifier = IVerifier(_recountVerifier) */\n  0x0100\n  exp\n  dup2\n  sload\n  dup2\n  0xffffffffffffffffffffffffffffffffffffffff\n  mul\n  not\n  and\n  swap1\n  dup4\n  0xffffffffffffffffffffffffffffffffffffffff\n  and\n  mul\n  or\n  swap1\n  sstore\n  pop\n    /* \"TP FINAL/VotingSystem.sol\":1135:1136  0 */\n  0x00\n    /* \"TP FINAL/VotingSystem.sol\":1128:1134  accC1x */\n  0x01\n    /* \"TP FINAL/VotingSystem.sol\":1128:1136  accC1x=0 */\n  dup2\n  swap1\n  sstore\n  pop\n    /* \"TP FINAL/VotingSystem.sol\":1154:1155  1 */\n  0x01\n    /* \"TP FINAL/VotingSystem.sol\":1147:1153  accC1y */\n  0x02\n    /* \"TP FINAL/VotingSystem.sol\":1147:1155  accC1y=1 */\n  dup2\n  swap1\n  sstore\n  pop\n    /* \"TP FINAL/VotingSystem.sol\":1175:1176  0 */\n  0x00\n    /* \"TP FINAL/VotingSystem.sol\":1166:1172  accC2x */\n  0x03\n    /* \"TP FINAL/VotingSystem.sol\":1166:1176  accC2x = 0 */\n  dup2\n  swap1\n  sstore\n  pop\n    /* \"TP FINAL/VotingSystem.sol\":1196:1197  1 */\n  0x01\n    /* \"TP FINAL/VotingSystem.sol\":1187:1193  accC2y */\n  0x04\n    /* \"TP FINAL/VotingSystem.sol\":1187:1197  accC2y = 1 */\n  dup2\n  swap1\n  sstore\n  pop\n    /* \"TP FINAL/VotingSystem.sol\":860:1205  constructor(... */\n  pop\n  pop\n    /* \"TP FINAL/VotingSystem.sol\":122:3324  contract VotingSystem {... */\n  jump(tag_6)\n    /* \"#utility.yul\":88:205   */\ntag_8:\n    /* \"#utility.yul\":197:198   */\n  0x00\n    /* \"#utility.yul\":194:195   */\n  0x00\n    /* \"#utility.yul\":187:199   */\n  revert\n    /* \"#utility.yul\":334:460   */\ntag_10:\n    /* \"#utility.yul\":371:378   */\n  0x00\n    /* \"#utility.yul\":411:453   */\n  0xffffffffffffffffffffffffffffffffffffffff\n    /* \"#utility.yul\":404:409   */\n  dup3\n    /* \"#utility.yul\":400:454   */\n  and\n    /* \"#utility.yul\":389:454   */\n  swap1\n  pop\n    /* \"#utility.yul\":334:460   */\n  swap2\n  swap1\n  pop\n  jump\t// out\n    /* \"#utility.yul\":466:562   */\ntag_11:\n    /* \"#utility.yul\":503:510   */\n  0x00\n    /* \"#utility.yul\":532:556   */\n  tag_20\n    /* \"#utility.yul\":550:555   */\n  dup3\n    /* \"#utility.yul\":532:556   */\n  tag_10\n  jump\t// in\ntag_20:\n    /* \"#utility.yul\":521:556   */\n  swap1\n  pop\n    /* \"#utility.yul\":466:562   */\n  swap2\n  swap1\n  pop\n  jump\t// out\n    /* \"#utility.yul\":568:690   */\ntag_12:\n    /* \"#utility.yul\":641:665   */\n  tag_22\n    /* \"#utility.yul\":659:664   */\n  dup2\n    /* \"#utility.yul\":641:665   */\n  tag_11\n  jump\t// in\ntag_22:\n    /* \"#utility.yul\":634:639   */\n  dup2\n    /* \"#utility.yul\":631:666   */\n  eq\n    /* \"#utility.yul\":621:684   */\n  tag_23\n  jumpi\n    /* \"#utility.yul\":680:681   */\n  0x00\n    /* \"#utility.yul\":677:678   */\n  0x00\n    /* \"#utility.yul\":670:682   */\n  revert\n    /* \"#utility.yul\":621:684   */\ntag_23:\n    /* \"#utility.yul\":568:690   */\n  pop\n  jump\t// out\n    /* \"#utility.yul\":696:839   */\ntag_13:\n    /* \"#utility.yul\":753:758   */\n  0x00\n    /* \"#utility.yul\":784:790   */\n  dup2\n    /* \"#utility.yul\":778:791   */\n  mload\n    /* \"#utility.yul\":769:791   */\n  swap1\n  pop\n    /* \"#utility.yul\":800:833   */\n  tag_25\n    /* \"#utility.yul\":827:832   */\n  dup2\n    /* \"#utility.yul\":800:833   */\n  tag_12\n  jump\t// in\ntag_25:\n    /* \"#utility.yul\":696:839   */\n  swap3\n  swap2\n  pop\n  pop\n  jump\t// out\n    /* \"#utility.yul\":845:1352   */\ntag_3:\n    /* \"#utility.yul\":924:930   */\n  0x00\n    /* \"#utility.yul\":932:938   */\n  0x00\n    /* \"#utility.yul\":981:983   */\n  0x40\n    /* \"#utility.yul\":969:978   */\n  dup4\n    /* \"#utility.yul\":960:967   */\n  dup6\n    /* \"#utility.yul\":956:979   */\n  sub\n    /* \"#utility.yul\":952:984   */\n  slt\n    /* \"#utility.yul\":949:1068   */\n  iszero\n  tag_27\n  jumpi\n    /* \"#utility.yul\":987:1066   */\n  tag_28\n  tag_8\n  jump\t// in\ntag_28:\n    /* \"#utility.yul\":949:1068   */\ntag_27:\n    /* \"#utility.yul\":1107:1108   */\n  0x00\n    /* \"#utility.yul\":1132:1196   */\n  tag_29\n    /* \"#utility.yul\":1188:1195   */\n  dup6\n    /* \"#utility.yul\":1179:1185   */\n  dup3\n    /* \"#utility.yul\":1168:1177   */\n  dup7\n    /* \"#utility.yul\":1164:1186   */\n  add\n    /* \"#utility.yul\":1132:1196   */\n  tag_13\n  jump\t// in\ntag_29:\n    /* \"#utility.yul\":1122:1196   */\n  swap3\n  pop\n    /* \"#utility.yul\":1078:1206   */\n  pop\n    /* \"#utility.yul\":1245:1247   */\n  0x20\n    /* \"#utility.yul\":1271:1335   */\n  tag_30\n    /* \"#utility.yul\":1327:1334   */\n  dup6\n    /* \"#utility.yul\":1318:1324   */\n  dup3\n    /* \"#utility.yul\":1307:1316   */\n  dup7\n    /* \"#utility.yul\":1303:1325   */\n  add\n    /* \"#utility.yul\":1271:1335   */\n  tag_13\n  jump\t// in\ntag_30:\n    /* \"#utility.yul\":1261:1335   */\n  swap2\n  pop\n    /* \"#utility.yul\":1216:1345   */\n  pop\n    /* \"#utility.yul\":845:1352   */\n  swap3\n  pop\n  swap3\n  swap1\n  pop\n  jump\t// out\n    /* \"TP FINAL/VotingSystem.sol\":122:3324  contract VotingSystem {... */\ntag_6:\n  dataSize(sub_0)\n  dup1\n  dataOffset(sub_0)\n  0x00\n  codecopy\n  0x00\n  return\nstop\n\nsub_0: assembly {\n        /* \"TP FINAL/VotingSystem.sol\":122:3324  contract VotingSystem {... */\n      mstore(0x40, 0x80)\n      callvalue\n      dup1\n      iszero\n      tag_1\n      jumpi\n      revert(0x00, 0x00)\n    tag_1:\n      pop\n      jumpi(tag_2, lt(calldatasize, 0x04))\n      shr(0xe0, calldataload(0x00))\n      dup1\n      0x79f95ee9\n      gt\n      tag_16\n      jumpi\n      dup1\n      0x8da5cb5b\n      gt\n      tag_17\n      jumpi\n      dup1\n      0x8da5cb5b\n      eq\n      tag_12\n      jumpi\n      dup1\n      0x99d74c71\n      eq\n      tag_13\n      jumpi\n      dup1\n      0xbf0516f2\n      eq\n      tag_14\n      jumpi\n      dup1\n      0xe63aa8fb\n      eq\n      tag_15\n      jumpi\n      jump(tag_2)\n    tag_17:\n      dup1\n      0x79f95ee9\n      eq\n      tag_9\n      jumpi\n      dup1\n      0x82786199\n      eq\n      tag_10\n      jumpi\n      dup1\n      0x87dde0be\n      eq\n      tag_11\n      jumpi\n      jump(tag_2)\n    tag_16:\n      dup1\n      0x0e7d490d\n      eq\n      tag_3\n      jumpi\n      dup1\n      0x2353d3aa\n      eq\n      tag_4\n      jumpi\n      dup1\n      0x4a39d442\n      eq\n      tag_5\n      jumpi\n      dup1\n      0x4d139763\n      eq\n      tag_6\n      jumpi\n      dup1\n      0x6c6c32d0\n      eq\n      tag_7\n      jumpi\n      dup1\n      0x75f11da1\n      eq\n      tag_8\n      jumpi\n    tag_2:\n      revert(0x00, 0x00)\n        /* \"TP FINAL/VotingSystem.sol\":329:357  uint256 public numberOfVotes */\n    tag_3:\n      tag_18\n      tag_19\n      jump\t// in\n    tag_18:\n      mload(0x40)\n      tag_20\n      swap2\n      swap1\n      tag_21\n      jump\t// in\n    tag_20:\n      mload(0x40)\n      dup1\n      swap2\n      sub\n      swap1\n      return\n        /* \"TP FINAL/VotingSystem.sol\":1286:2311  function registerVote(... */\n    tag_4:\n      tag_22\n      0x04\n      dup1\n      calldatasize\n      sub\n      dup2\n      add\n      swap1\n      tag_23\n      swap2\n      swap1\n      tag_24\n      jump\t// in\n    tag_23:\n      tag_25\n      jump\t// in\n    tag_22:\n      stop\n        /* \"TP FINAL/VotingSystem.sol\":180:204  bool public electionOpen */\n    tag_5:\n      tag_26\n      tag_27\n      jump\t// in\n    tag_26:\n      mload(0x40)\n      tag_28\n      swap2\n      swap1\n      tag_29\n      jump\t// in\n    tag_28:\n      mload(0x40)\n      dup1\n      swap2\n      sub\n      swap1\n      return\n        /* \"TP FINAL/VotingSystem.sol\":213:234  uint256 public accC1x */\n    tag_6:\n      tag_30\n      tag_31\n      jump\t// in\n    tag_30:\n      mload(0x40)\n      tag_32\n      swap2\n      swap1\n      tag_21\n      jump\t// in\n    tag_32:\n      mload(0x40)\n      dup1\n      swap2\n      sub\n      swap1\n      return\n        /* \"TP FINAL/VotingSystem.sol\":2402:2612  function closeElection() external {... */\n    tag_7:\n      tag_33\n      tag_34\n      jump\t// in\n    tag_33:\n      stop\n        /* \"TP FINAL/VotingSystem.sol\":241:263  uint256 public  accC1y */\n    tag_8:\n      tag_35\n      tag_36\n      jump\t// in\n    tag_35:\n      mload(0x40)\n      tag_37\n      swap2\n      swap1\n      tag_21\n      jump\t// in\n    tag_37:\n      mload(0x40)\n      dup1\n      swap2\n      sub\n      swap1\n      return\n        /* \"TP FINAL/VotingSystem.sol\":366:411  mapping(uint256 => bool) public nullifierUsed */\n    tag_9:\n      tag_38\n      0x04\n      dup1\n      calldatasize\n      sub\n      dup2\n      add\n      swap1\n      tag_39\n      swap2\n      swap1\n      tag_40\n      jump\t// in\n    tag_39:\n      tag_41\n      jump\t// in\n    tag_38:\n      mload(0x40)\n      tag_42\n      swap2\n      swap1\n      tag_29\n      jump\t// in\n    tag_42:\n      mload(0x40)\n      dup1\n      swap2\n      sub\n      swap1\n      return\n        /* \"TP FINAL/VotingSystem.sol\":270:291  uint256 public accC2x */\n    tag_10:\n      tag_43\n      tag_44\n      jump\t// in\n    tag_43:\n      mload(0x40)\n      tag_45\n      swap2\n      swap1\n      tag_21\n      jump\t// in\n    tag_45:\n      mload(0x40)\n      dup1\n      swap2\n      sub\n      swap1\n      return\n        /* \"TP FINAL/VotingSystem.sol\":298:320  uint256 public  accC2y */\n    tag_11:\n      tag_46\n      tag_47\n      jump\t// in\n    tag_46:\n      mload(0x40)\n      tag_48\n      swap2\n      swap1\n      tag_21\n      jump\t// in\n    tag_48:\n      mload(0x40)\n      dup1\n      swap2\n      sub\n      swap1\n      return\n        /* \"TP FINAL/VotingSystem.sol\":153:173  address public owner */\n    tag_12:\n      tag_49\n      tag_50\n      jump\t// in\n    tag_49:\n      mload(0x40)\n      tag_51\n      swap2\n      swap1\n      tag_52\n      jump\t// in\n    tag_51:\n      mload(0x40)\n      dup1\n      swap2\n      sub\n      swap1\n      return\n        /* \"TP FINAL/VotingSystem.sol\":420:449  IVerifier public voteVerifier */\n    tag_13:\n      tag_53\n      tag_54\n      jump\t// in\n    tag_53:\n      mload(0x40)\n      tag_55\n      swap2\n      swap1\n      tag_56\n      jump\t// in\n    tag_55:\n      mload(0x40)\n      dup1\n      swap2\n      sub\n      swap1\n      return\n        /* \"TP FINAL/VotingSystem.sol\":456:488  IVerifier public recountVerifier */\n    tag_14:\n      tag_57\n      tag_58\n      jump\t// in\n    tag_57:\n      mload(0x40)\n      tag_59\n      swap2\n      swap1\n      tag_56\n      jump\t// in\n    tag_59:\n      mload(0x40)\n      dup1\n      swap2\n      sub\n      swap1\n      return\n        /* \"TP FINAL/VotingSystem.sol\":2704:3321  function publishResults(... */\n    tag_15:\n      tag_60\n      0x04\n      dup1\n      calldatasize\n      sub\n      dup2\n      add\n      swap1\n      tag_61\n      swap2\n      swap1\n      tag_62\n      jump\t// in\n    tag_61:\n      tag_63\n      jump\t// in\n    tag_60:\n      stop\n        /* \"TP FINAL/VotingSystem.sol\":329:357  uint256 public numberOfVotes */\n    tag_19:\n      sload(0x05)\n      dup2\n      jump\t// out\n        /* \"TP FINAL/VotingSystem.sol\":1286:2311  function registerVote(... */\n    tag_25:\n        /* \"TP FINAL/VotingSystem.sol\":1460:1491  uint256[12] memory publicInputs */\n      tag_65\n      tag_66\n      jump\t// in\n    tag_65:\n        /* \"TP FINAL/VotingSystem.sol\":1520:1522  C1 */\n      dup4\n        /* \"TP FINAL/VotingSystem.sol\":1523:1524  0 */\n      0x00\n        /* \"TP FINAL/VotingSystem.sol\":1520:1525  C1[0] */\n      0x02\n      dup2\n      lt\n      tag_67\n      jumpi\n      tag_68\n      tag_69\n      jump\t// in\n    tag_68:\n    tag_67:\n      0x20\n      mul\n      add\n      calldataload\n        /* \"TP FINAL/VotingSystem.sol\":1502:1514  publicInputs */\n      dup2\n        /* \"TP FINAL/VotingSystem.sol\":1515:1516  0 */\n      0x00\n        /* \"TP FINAL/VotingSystem.sol\":1502:1517  publicInputs[0] */\n      0x0c\n      dup2\n      lt\n      tag_70\n      jumpi\n      tag_71\n      tag_69\n      jump\t// in\n    tag_71:\n    tag_70:\n      0x20\n      mul\n      add\n        /* \"TP FINAL/VotingSystem.sol\":1502:1525  publicInputs[0] = C1[0] */\n      dup2\n      dup2\n      mstore\n      pop\n      pop\n        /* \"TP FINAL/VotingSystem.sol\":1554:1556  C1 */\n      dup4\n        /* \"TP FINAL/VotingSystem.sol\":1557:1558  1 */\n      0x01\n        /* \"TP FINAL/VotingSystem.sol\":1554:1559  C1[1] */\n      0x02\n      dup2\n      lt\n      tag_72\n      jumpi\n      tag_73\n      tag_69\n      jump\t// in\n    tag_73:\n    tag_72:\n      0x20\n      mul\n      add\n      calldataload\n        /* \"TP FINAL/VotingSystem.sol\":1536:1548  publicInputs */\n      dup2\n        /* \"TP FINAL/VotingSystem.sol\":1549:1550  1 */\n      0x01\n        /* \"TP FINAL/VotingSystem.sol\":1536:1551  publicInputs[1] */\n      0x0c\n      dup2\n      lt\n      tag_74\n      jumpi\n      tag_75\n      tag_69\n      jump\t// in\n    tag_75:\n    tag_74:\n      0x20\n      mul\n      add\n        /* \"TP FINAL/VotingSystem.sol\":1536:1559  publicInputs[1] = C1[1] */\n      dup2\n      dup2\n      mstore\n      pop\n      pop\n        /* \"TP FINAL/VotingSystem.sol\":1588:1590  C2 */\n      dup3\n        /* \"TP FINAL/VotingSystem.sol\":1591:1592  0 */\n      0x00\n        /* \"TP FINAL/VotingSystem.sol\":1588:1593  C2[0] */\n      0x02\n      dup2\n      lt\n      tag_76\n      jumpi\n      tag_77\n      tag_69\n      jump\t// in\n    tag_77:\n    tag_76:\n      0x20\n      mul\n      add\n      calldataload\n        /* \"TP FINAL/VotingSystem.sol\":1570:1582  publicInputs */\n      dup2\n        /* \"TP FINAL/VotingSystem.sol\":1583:1584  2 */\n      0x02\n        /* \"TP FINAL/VotingSystem.sol\":1570:1585  publicInputs[2] */\n      0x0c\n      dup2\n      lt\n      tag_78\n      jumpi\n      tag_79\n      tag_69\n      jump\t// in\n    tag_79:\n    tag_78:\n      0x20\n      mul\n      add\n        /* \"TP FINAL/VotingSystem.sol\":1570:1593  publicInputs[2] = C2[0] */\n      dup2\n      dup2\n      mstore\n      pop\n      pop\n        /* \"TP FINAL/VotingSystem.sol\":1622:1624  C2 */\n      dup3\n        /* \"TP FINAL/VotingSystem.sol\":1625:1626  1 */\n      0x01\n        /* \"TP FINAL/VotingSystem.sol\":1622:1627  C2[1] */\n      0x02\n      dup2\n      lt\n      tag_80\n      jumpi\n      tag_81\n      tag_69\n      jump\t// in\n    tag_81:\n    tag_80:\n      0x20\n      mul\n      add\n      calldataload\n        /* \"TP FINAL/VotingSystem.sol\":1604:1616  publicInputs */\n      dup2\n        /* \"TP FINAL/VotingSystem.sol\":1617:1618  3 */\n      0x03\n        /* \"TP FINAL/VotingSystem.sol\":1604:1619  publicInputs[3] */\n      0x0c\n      dup2\n      lt\n      tag_82\n      jumpi\n      tag_83\n      tag_69\n      jump\t// in\n    tag_83:\n    tag_82:\n      0x20\n      mul\n      add\n        /* \"TP FINAL/VotingSystem.sol\":1604:1627  publicInputs[3] = C2[1] */\n      dup2\n      dup2\n      mstore\n      pop\n      pop\n        /* \"TP FINAL/VotingSystem.sol\":1656:1665  nullifier */\n      dup2\n        /* \"TP FINAL/VotingSystem.sol\":1638:1650  publicInputs */\n      dup2\n        /* \"TP FINAL/VotingSystem.sol\":1651:1652  4 */\n      0x04\n        /* \"TP FINAL/VotingSystem.sol\":1638:1653  publicInputs[4] */\n      0x0c\n      dup2\n      lt\n      tag_84\n      jumpi\n      tag_85\n      tag_69\n      jump\t// in\n    tag_85:\n    tag_84:\n      0x20\n      mul\n      add\n        /* \"TP FINAL/VotingSystem.sol\":1638:1665  publicInputs[4] = nullifier */\n      dup2\n      dup2\n      mstore\n      pop\n      pop\n        /* \"TP FINAL/VotingSystem.sol\":1688:1700  electionOpen */\n      0x00\n      0x14\n      swap1\n      sload\n      swap1\n      0x0100\n      exp\n      swap1\n      div\n      0xff\n      and\n        /* \"TP FINAL/VotingSystem.sol\":1680:1720  require(electionOpen, \"Election closed\") */\n      tag_86\n      jumpi\n      mload(0x40)\n      0x08c379a000000000000000000000000000000000000000000000000000000000\n      dup2\n      mstore\n      0x04\n      add\n      tag_87\n      swap1\n      tag_88\n      jump\t// in\n    tag_87:\n      mload(0x40)\n      dup1\n      swap2\n      sub\n      swap1\n      revert\n    tag_86:\n        /* \"TP FINAL/VotingSystem.sol\":1740:1753  nullifierUsed */\n      0x06\n        /* \"TP FINAL/VotingSystem.sol\":1740:1764  nullifierUsed[nullifier] */\n      0x00\n        /* \"TP FINAL/VotingSystem.sol\":1754:1763  nullifier */\n      dup4\n        /* \"TP FINAL/VotingSystem.sol\":1740:1764  nullifierUsed[nullifier] */\n      dup2\n      mstore\n      0x20\n      add\n      swap1\n      dup2\n      mstore\n      0x20\n      add\n      0x00\n      keccak256\n      0x00\n      swap1\n      sload\n      swap1\n      0x0100\n      exp\n      swap1\n      div\n      0xff\n      and\n        /* \"TP FINAL/VotingSystem.sol\":1739:1764  !nullifierUsed[nullifier] */\n      iszero\n        /* \"TP FINAL/VotingSystem.sol\":1731:1791  require(!nullifierUsed[nullifier], \"Nullifier already used\") */\n      tag_89\n      jumpi\n      mload(0x40)\n      0x08c379a000000000000000000000000000000000000000000000000000000000\n      dup2\n      mstore\n      0x04\n      add\n      tag_90\n      swap1\n      tag_91\n      jump\t// in\n    tag_90:\n      mload(0x40)\n      dup1\n      swap2\n      sub\n      swap1\n      revert\n    tag_89:\n        /* \"TP FINAL/VotingSystem.sol\":1836:1843  bool ok */\n      0x00\n        /* \"TP FINAL/VotingSystem.sol\":1846:1858  voteVerifier */\n      0x07\n      0x00\n      swap1\n      sload\n      swap1\n      0x0100\n      exp\n      swap1\n      div\n      0xffffffffffffffffffffffffffffffffffffffff\n      and\n        /* \"TP FINAL/VotingSystem.sol\":1846:1867  voteVerifier.verifyTx */\n      0xffffffffffffffffffffffffffffffffffffffff\n      and\n      0x66670599\n        /* \"TP FINAL/VotingSystem.sol\":1868:1873  proof */\n      dup8\n        /* \"TP FINAL/VotingSystem.sol\":1875:1887  publicInputs */\n      dup5\n        /* \"TP FINAL/VotingSystem.sol\":1846:1888  voteVerifier.verifyTx(proof, publicInputs) */\n      mload(0x40)\n      dup4\n      0xffffffff\n      and\n      0xe0\n      shl\n      dup2\n      mstore\n      0x04\n      add\n      tag_92\n      swap3\n      swap2\n      swap1\n      tag_93\n      jump\t// in\n    tag_92:\n      0x20\n      mload(0x40)\n      dup1\n      dup4\n      sub\n      dup2\n      dup7\n      gas\n      staticcall\n      iszero\n      dup1\n      iszero\n      tag_95\n      jumpi\n      returndatacopy(0x00, 0x00, returndatasize)\n      revert(0x00, returndatasize)\n    tag_95:\n      pop\n      pop\n      pop\n      pop\n      mload(0x40)\n      returndatasize\n      not(0x1f)\n      0x1f\n      dup3\n      add\n      and\n      dup3\n      add\n      dup1\n      0x40\n      mstore\n      pop\n      dup2\n      add\n      swap1\n      tag_96\n      swap2\n      swap1\n      tag_97\n      jump\t// in\n    tag_96:\n        /* \"TP FINAL/VotingSystem.sol\":1836:1888  bool ok = voteVerifier.verifyTx(proof, publicInputs) */\n      swap1\n      pop\n        /* \"TP FINAL/VotingSystem.sol\":1907:1909  ok */\n      dup1\n        /* \"TP FINAL/VotingSystem.sol\":1899:1932  require(ok, \"Invalid vote proof\") */\n      tag_98\n      jumpi\n      mload(0x40)\n      0x08c379a000000000000000000000000000000000000000000000000000000000\n      dup2\n      mstore\n      0x04\n      add\n      tag_99\n      swap1\n      tag_100\n      jump\t// in\n    tag_99:\n      mload(0x40)\n      dup1\n      swap2\n      sub\n      swap1\n      revert\n    tag_98:\n        /* \"TP FINAL/VotingSystem.sol\":2001:2005  true */\n      0x01\n        /* \"TP FINAL/VotingSystem.sol\":1974:1987  nullifierUsed */\n      0x06\n        /* \"TP FINAL/VotingSystem.sol\":1974:1998  nullifierUsed[nullifier] */\n      0x00\n        /* \"TP FINAL/VotingSystem.sol\":1988:1997  nullifier */\n      dup6\n        /* \"TP FINAL/VotingSystem.sol\":1974:1998  nullifierUsed[nullifier] */\n      dup2\n      mstore\n      0x20\n      add\n      swap1\n      dup2\n      mstore\n      0x20\n      add\n      0x00\n      keccak256\n      0x00\n        /* \"TP FINAL/VotingSystem.sol\":1974:2005  nullifierUsed[nullifier] = true */\n      0x0100\n      exp\n      dup2\n      sload\n      dup2\n      0xff\n      mul\n      not\n      and\n      swap1\n      dup4\n      iszero\n      iszero\n      mul\n      or\n      swap1\n      sstore\n      pop\n        /* \"TP FINAL/VotingSystem.sol\":2083:2137  CurveBabyJubJub.pointAdd(accC1x, accC1y, C1[0], C1[1]) */\n      tag_101\n        /* \"TP FINAL/VotingSystem.sol\":2108:2114  accC1x */\n      sload(0x01)\n        /* \"TP FINAL/VotingSystem.sol\":2116:2122  accC1y */\n      sload(0x02)\n        /* \"TP FINAL/VotingSystem.sol\":2124:2126  C1 */\n      dup8\n        /* \"TP FINAL/VotingSystem.sol\":2127:2128  0 */\n      0x00\n        /* \"TP FINAL/VotingSystem.sol\":2124:2129  C1[0] */\n      0x02\n      dup2\n      lt\n      tag_102\n      jumpi\n      tag_103\n      tag_69\n      jump\t// in\n    tag_103:\n    tag_102:\n      0x20\n      mul\n      add\n      calldataload\n        /* \"TP FINAL/VotingSystem.sol\":2131:2133  C1 */\n      dup9\n        /* \"TP FINAL/VotingSystem.sol\":2134:2135  1 */\n      0x01\n        /* \"TP FINAL/VotingSystem.sol\":2131:2136  C1[1] */\n      0x02\n      dup2\n      lt\n      tag_104\n      jumpi\n      tag_105\n      tag_69\n      jump\t// in\n    tag_105:\n    tag_104:\n      0x20\n      mul\n      add\n      calldataload\n        /* \"TP FINAL/VotingSystem.sol\":2083:2107  CurveBabyJubJub.pointAdd */\n      tag_106\n        /* \"TP FINAL/VotingSystem.sol\":2083:2137  CurveBabyJubJub.pointAdd(accC1x, accC1y, C1[0], C1[1]) */\n      jump\t// in\n    tag_101:\n        /* \"TP FINAL/VotingSystem.sol\":2065:2071  accC1x */\n      0x01\n      0x00\n        /* \"TP FINAL/VotingSystem.sol\":2073:2079  accC1y */\n      0x02\n      0x00\n        /* \"TP FINAL/VotingSystem.sol\":2064:2137  (accC1x, accC1y) = CurveBabyJubJub.pointAdd(accC1x, accC1y, C1[0], C1[1]) */\n      dup5\n      swap2\n      swap1\n      pop\n      sstore\n      dup4\n      swap2\n      swap1\n      pop\n      sstore\n      pop\n      pop\n        /* \"TP FINAL/VotingSystem.sol\":2167:2221  CurveBabyJubJub.pointAdd(accC2x, accC2y, C2[0], C2[1]) */\n      tag_107\n        /* \"TP FINAL/VotingSystem.sol\":2192:2198  accC2x */\n      sload(0x03)\n        /* \"TP FINAL/VotingSystem.sol\":2200:2206  accC2y */\n      sload(0x04)\n        /* \"TP FINAL/VotingSystem.sol\":2208:2210  C2 */\n      dup7\n        /* \"TP FINAL/VotingSystem.sol\":2211:2212  0 */\n      0x00\n        /* \"TP FINAL/VotingSystem.sol\":2208:2213  C2[0] */\n      0x02\n      dup2\n      lt\n      tag_108\n      jumpi\n      tag_109\n      tag_69\n      jump\t// in\n    tag_109:\n    tag_108:\n      0x20\n      mul\n      add\n      calldataload\n        /* \"TP FINAL/VotingSystem.sol\":2215:2217  C2 */\n      dup8\n        /* \"TP FINAL/VotingSystem.sol\":2218:2219  1 */\n      0x01\n        /* \"TP FINAL/VotingSystem.sol\":2215:2220  C2[1] */\n      0x02\n      dup2\n      lt\n      tag_110\n      jumpi\n      tag_111\n      tag_69\n      jump\t// in\n    tag_111:\n    tag_110:\n      0x20\n      mul\n      add\n      calldataload\n        /* \"TP FINAL/VotingSystem.sol\":2167:2191  CurveBabyJubJub.pointAdd */\n      tag_106\n        /* \"TP FINAL/VotingSystem.sol\":2167:2221  CurveBabyJubJub.pointAdd(accC2x, accC2y, C2[0], C2[1]) */\n      jump\t// in\n    tag_107:\n        /* \"TP FINAL/VotingSystem.sol\":2149:2155  accC2x */\n      0x03\n      0x00\n        /* \"TP FINAL/VotingSystem.sol\":2157:2163  accC2y */\n      0x04\n      0x00\n        /* \"TP FINAL/VotingSystem.sol\":2148:2221  (accC2x, accC2y) = CurveBabyJubJub.pointAdd(accC2x, accC2y, C2[0], C2[1]) */\n      dup5\n      swap2\n      swap1\n      pop\n      sstore\n      dup4\n      swap2\n      swap1\n      pop\n      sstore\n      pop\n      pop\n        /* \"TP FINAL/VotingSystem.sol\":2251:2252  1 */\n      0x01\n        /* \"TP FINAL/VotingSystem.sol\":2234:2247  numberOfVotes */\n      0x05\n      0x00\n        /* \"TP FINAL/VotingSystem.sol\":2234:2252  numberOfVotes += 1 */\n      dup3\n      dup3\n      sload\n      tag_112\n      swap2\n      swap1\n      tag_113\n      jump\t// in\n    tag_112:\n      swap3\n      pop\n      pop\n      dup2\n      swap1\n      sstore\n      pop\n        /* \"TP FINAL/VotingSystem.sol\":2270:2303  VoteRegistered(C1, C2, nullifier) */\n      0x08e06ca7e757dcec7c8019011a586c5d97abb6f8e892dc4fe53d5fbfacd0cc72\n        /* \"TP FINAL/VotingSystem.sol\":2285:2287  C1 */\n      dup6\n        /* \"TP FINAL/VotingSystem.sol\":2289:2291  C2 */\n      dup6\n        /* \"TP FINAL/VotingSystem.sol\":2293:2302  nullifier */\n      dup6\n        /* \"TP FINAL/VotingSystem.sol\":2270:2303  VoteRegistered(C1, C2, nullifier) */\n      mload(0x40)\n      tag_114\n      swap4\n      swap3\n      swap2\n      swap1\n      tag_115\n      jump\t// in\n    tag_114:\n      mload(0x40)\n      dup1\n      swap2\n      sub\n      swap1\n      log1\n        /* \"TP FINAL/VotingSystem.sol\":1449:2311  {... */\n      pop\n      pop\n        /* \"TP FINAL/VotingSystem.sol\":1286:2311  function registerVote(... */\n      pop\n      pop\n      pop\n      pop\n      jump\t// out\n        /* \"TP FINAL/VotingSystem.sol\":180:204  bool public electionOpen */\n    tag_27:\n      0x00\n      0x14\n      swap1\n      sload\n      swap1\n      0x0100\n      exp\n      swap1\n      div\n      0xff\n      and\n      dup2\n      jump\t// out\n        /* \"TP FINAL/VotingSystem.sol\":213:234  uint256 public accC1x */\n    tag_31:\n      sload(0x01)\n      dup2\n      jump\t// out\n        /* \"TP FINAL/VotingSystem.sol\":2402:2612  function closeElection() external {... */\n    tag_34:\n        /* \"TP FINAL/VotingSystem.sol\":2469:2474  owner */\n      0x00\n      0x00\n      swap1\n      sload\n      swap1\n      0x0100\n      exp\n      swap1\n      div\n      0xffffffffffffffffffffffffffffffffffffffff\n      and\n        /* \"TP FINAL/VotingSystem.sol\":2455:2474  msg.sender == owner */\n      0xffffffffffffffffffffffffffffffffffffffff\n      and\n        /* \"TP FINAL/VotingSystem.sol\":2455:2465  msg.sender */\n      caller\n        /* \"TP FINAL/VotingSystem.sol\":2455:2474  msg.sender == owner */\n      0xffffffffffffffffffffffffffffffffffffffff\n      and\n      eq\n        /* \"TP FINAL/VotingSystem.sol\":2447:2489  require(msg.sender == owner, \"Only owner\") */\n      tag_117\n      jumpi\n      mload(0x40)\n      0x08c379a000000000000000000000000000000000000000000000000000000000\n      dup2\n      mstore\n      0x04\n      add\n      tag_118\n      swap1\n      tag_119\n      jump\t// in\n    tag_118:\n      mload(0x40)\n      dup1\n      swap2\n      sub\n      swap1\n      revert\n    tag_117:\n        /* \"TP FINAL/VotingSystem.sol\":2508:2520  electionOpen */\n      0x00\n      0x14\n      swap1\n      sload\n      swap1\n      0x0100\n      exp\n      swap1\n      div\n      0xff\n      and\n        /* \"TP FINAL/VotingSystem.sol\":2500:2539  require(electionOpen, \"Already closed\") */\n      tag_120\n      jumpi\n      mload(0x40)\n      0x08c379a000000000000000000000000000000000000000000000000000000000\n      dup2\n      mstore\n      0x04\n      add\n      tag_121\n      swap1\n      tag_122\n      jump\t// in\n    tag_121:\n      mload(0x40)\n      dup1\n      swap2\n      sub\n      swap1\n      revert\n    tag_120:\n        /* \"TP FINAL/VotingSystem.sol\":2567:2572  false */\n      0x00\n        /* \"TP FINAL/VotingSystem.sol\":2552:2564  electionOpen */\n      0x00\n      0x14\n        /* \"TP FINAL/VotingSystem.sol\":2552:2572  electionOpen = false */\n      0x0100\n      exp\n      dup2\n      sload\n      dup2\n      0xff\n      mul\n      not\n      and\n      swap1\n      dup4\n      iszero\n      iszero\n      mul\n      or\n      swap1\n      sstore\n      pop\n        /* \"TP FINAL/VotingSystem.sol\":2588:2604  ElectionClosed() */\n      0xa549b9addfc3693a1863ac5b0b13c42960d78df554c01ea6ac72a7db985df0cf\n      mload(0x40)\n      mload(0x40)\n      dup1\n      swap2\n      sub\n      swap1\n      log1\n        /* \"TP FINAL/VotingSystem.sol\":2402:2612  function closeElection() external {... */\n      jump\t// out\n        /* \"TP FINAL/VotingSystem.sol\":241:263  uint256 public  accC1y */\n    tag_36:\n      sload(0x02)\n      dup2\n      jump\t// out\n        /* \"TP FINAL/VotingSystem.sol\":366:411  mapping(uint256 => bool) public nullifierUsed */\n    tag_41:\n      mstore(0x20, 0x06)\n      dup1\n      0x00\n      mstore\n      keccak256(0x00, 0x40)\n      0x00\n      swap2\n      pop\n      sload\n      swap1\n      0x0100\n      exp\n      swap1\n      div\n      0xff\n      and\n      dup2\n      jump\t// out\n        /* \"TP FINAL/VotingSystem.sol\":270:291  uint256 public accC2x */\n    tag_44:\n      sload(0x03)\n      dup2\n      jump\t// out\n        /* \"TP FINAL/VotingSystem.sol\":298:320  uint256 public  accC2y */\n    tag_47:\n      sload(0x04)\n      dup2\n      jump\t// out\n        /* \"TP FINAL/VotingSystem.sol\":153:173  address public owner */\n    tag_50:\n      0x00\n      0x00\n      swap1\n      sload\n      swap1\n      0x0100\n      exp\n      swap1\n      div\n      0xffffffffffffffffffffffffffffffffffffffff\n      and\n      dup2\n      jump\t// out\n        /* \"TP FINAL/VotingSystem.sol\":420:449  IVerifier public voteVerifier */\n    tag_54:\n      0x07\n      0x00\n      swap1\n      sload\n      swap1\n      0x0100\n      exp\n      swap1\n      div\n      0xffffffffffffffffffffffffffffffffffffffff\n      and\n      dup2\n      jump\t// out\n        /* \"TP FINAL/VotingSystem.sol\":456:488  IVerifier public recountVerifier */\n    tag_58:\n      0x08\n      0x00\n      swap1\n      sload\n      swap1\n      0x0100\n      exp\n      swap1\n      div\n      0xffffffffffffffffffffffffffffffffffffffff\n      and\n      dup2\n      jump\t// out\n        /* \"TP FINAL/VotingSystem.sol\":2704:3321  function publishResults(... */\n    tag_63:\n        /* \"TP FINAL/VotingSystem.sol\":2845:2850  owner */\n      0x00\n      0x00\n      swap1\n      sload\n      swap1\n      0x0100\n      exp\n      swap1\n      div\n      0xffffffffffffffffffffffffffffffffffffffff\n      and\n        /* \"TP FINAL/VotingSystem.sol\":2831:2850  msg.sender == owner */\n      0xffffffffffffffffffffffffffffffffffffffff\n      and\n        /* \"TP FINAL/VotingSystem.sol\":2831:2841  msg.sender */\n      caller\n        /* \"TP FINAL/VotingSystem.sol\":2831:2850  msg.sender == owner */\n      0xffffffffffffffffffffffffffffffffffffffff\n      and\n      eq\n        /* \"TP FINAL/VotingSystem.sol\":2823:2865  require(msg.sender == owner, \"Only owner\") */\n      tag_124\n      jumpi\n      mload(0x40)\n      0x08c379a000000000000000000000000000000000000000000000000000000000\n      dup2\n      mstore\n      0x04\n      add\n      tag_125\n      swap1\n      tag_119\n      jump\t// in\n    tag_125:\n      mload(0x40)\n      dup1\n      swap2\n      sub\n      swap1\n      revert\n    tag_124:\n        /* \"TP FINAL/VotingSystem.sol\":2885:2897  electionOpen */\n      0x00\n      0x14\n      swap1\n      sload\n      swap1\n      0x0100\n      exp\n      swap1\n      div\n      0xff\n      and\n        /* \"TP FINAL/VotingSystem.sol\":2884:2897  !electionOpen */\n      iszero\n        /* \"TP FINAL/VotingSystem.sol\":2876:2921  require(!electionOpen, \"Election still open\") */\n      tag_126\n      jumpi\n      mload(0x40)\n      0x08c379a000000000000000000000000000000000000000000000000000000000\n      dup2\n      mstore\n      0x04\n      add\n      tag_127\n      swap1\n      tag_128\n      jump\t// in\n    tag_127:\n      mload(0x40)\n      dup1\n      swap2\n      sub\n      swap1\n      revert\n    tag_126:\n        /* \"TP FINAL/VotingSystem.sol\":2994:3019  uint256[12] memory inputs */\n      tag_129\n      tag_66\n      jump\t// in\n    tag_129:\n        /* \"TP FINAL/VotingSystem.sol\":3042:3048  accC1x */\n      sload(0x01)\n        /* \"TP FINAL/VotingSystem.sol\":3030:3036  inputs */\n      dup2\n        /* \"TP FINAL/VotingSystem.sol\":3037:3038  0 */\n      0x00\n        /* \"TP FINAL/VotingSystem.sol\":3030:3039  inputs[0] */\n      0x0c\n      dup2\n      lt\n      tag_130\n      jumpi\n      tag_131\n      tag_69\n      jump\t// in\n    tag_131:\n    tag_130:\n      0x20\n      mul\n      add\n        /* \"TP FINAL/VotingSystem.sol\":3030:3048  inputs[0] = accC1x */\n      dup2\n      dup2\n      mstore\n      pop\n      pop\n        /* \"TP FINAL/VotingSystem.sol\":3071:3077  accC1y */\n      sload(0x02)\n        /* \"TP FINAL/VotingSystem.sol\":3059:3065  inputs */\n      dup2\n        /* \"TP FINAL/VotingSystem.sol\":3066:3067  1 */\n      0x01\n        /* \"TP FINAL/VotingSystem.sol\":3059:3068  inputs[1] */\n      0x0c\n      dup2\n      lt\n      tag_132\n      jumpi\n      tag_133\n      tag_69\n      jump\t// in\n    tag_133:\n    tag_132:\n      0x20\n      mul\n      add\n        /* \"TP FINAL/VotingSystem.sol\":3059:3077  inputs[1] = accC1y */\n      dup2\n      dup2\n      mstore\n      pop\n      pop\n        /* \"TP FINAL/VotingSystem.sol\":3100:3106  accC2x */\n      sload(0x03)\n        /* \"TP FINAL/VotingSystem.sol\":3088:3094  inputs */\n      dup2\n        /* \"TP FINAL/VotingSystem.sol\":3095:3096  2 */\n      0x02\n        /* \"TP FINAL/VotingSystem.sol\":3088:3097  inputs[2] */\n      0x0c\n      dup2\n      lt\n      tag_134\n      jumpi\n      tag_135\n      tag_69\n      jump\t// in\n    tag_135:\n    tag_134:\n      0x20\n      mul\n      add\n        /* \"TP FINAL/VotingSystem.sol\":3088:3106  inputs[2] = accC2x */\n      dup2\n      dup2\n      mstore\n      pop\n      pop\n        /* \"TP FINAL/VotingSystem.sol\":3129:3135  accC2y */\n      sload(0x04)\n        /* \"TP FINAL/VotingSystem.sol\":3117:3123  inputs */\n      dup2\n        /* \"TP FINAL/VotingSystem.sol\":3124:3125  3 */\n      0x03\n        /* \"TP FINAL/VotingSystem.sol\":3117:3126  inputs[3] */\n      0x0c\n      dup2\n      lt\n      tag_136\n      jumpi\n      tag_137\n      tag_69\n      jump\t// in\n    tag_137:\n    tag_136:\n      0x20\n      mul\n      add\n        /* \"TP FINAL/VotingSystem.sol\":3117:3135  inputs[3] = accC2y */\n      dup2\n      dup2\n      mstore\n      pop\n      pop\n        /* \"TP FINAL/VotingSystem.sol\":3158:3164  result */\n      dup3\n        /* \"TP FINAL/VotingSystem.sol\":3146:3152  inputs */\n      dup2\n        /* \"TP FINAL/VotingSystem.sol\":3153:3154  4 */\n      0x04\n        /* \"TP FINAL/VotingSystem.sol\":3146:3155  inputs[4] */\n      0x0c\n      dup2\n      lt\n      tag_138\n      jumpi\n      tag_139\n      tag_69\n      jump\t// in\n    tag_139:\n    tag_138:\n      0x20\n      mul\n      add\n        /* \"TP FINAL/VotingSystem.sol\":3146:3164  inputs[4] = result */\n      dup2\n      dup2\n      mstore\n      pop\n      pop\n        /* \"TP FINAL/VotingSystem.sol\":3175:3182  bool ok */\n      0x00\n        /* \"TP FINAL/VotingSystem.sol\":3185:3200  recountVerifier */\n      0x08\n      0x00\n      swap1\n      sload\n      swap1\n      0x0100\n      exp\n      swap1\n      div\n      0xffffffffffffffffffffffffffffffffffffffff\n      and\n        /* \"TP FINAL/VotingSystem.sol\":3185:3209  recountVerifier.verifyTx */\n      0xffffffffffffffffffffffffffffffffffffffff\n      and\n      0x66670599\n        /* \"TP FINAL/VotingSystem.sol\":3210:3215  proof */\n      dup5\n        /* \"TP FINAL/VotingSystem.sol\":3217:3223  inputs */\n      dup5\n        /* \"TP FINAL/VotingSystem.sol\":3185:3224  recountVerifier.verifyTx(proof, inputs) */\n      mload(0x40)\n      dup4\n      0xffffffff\n      and\n      0xe0\n      shl\n      dup2\n      mstore\n      0x04\n      add\n      tag_140\n      swap3\n      swap2\n      swap1\n      tag_93\n      jump\t// in\n    tag_140:\n      0x20\n      mload(0x40)\n      dup1\n      dup4\n      sub\n      dup2\n      dup7\n      gas\n      staticcall\n      iszero\n      dup1\n      iszero\n      tag_142\n      jumpi\n      returndatacopy(0x00, 0x00, returndatasize)\n      revert(0x00, returndatasize)\n    tag_142:\n      pop\n      pop\n      pop\n      pop\n      mload(0x40)\n      returndatasize\n      not(0x1f)\n      0x1f\n      dup3\n      add\n      and\n      dup3\n      add\n      dup1\n      0x40\n      mstore\n      pop\n      dup2\n      add\n      swap1\n      tag_143\n      swap2\n      swap1\n      tag_97\n      jump\t// in\n    tag_143:\n        /* \"TP FINAL/VotingSystem.sol\":3175:3224  bool ok = recountVerifier.verifyTx(proof, inputs) */\n      swap1\n      pop\n        /* \"TP FINAL/VotingSystem.sol\":3243:3245  ok */\n      dup1\n        /* \"TP FINAL/VotingSystem.sol\":3235:3271  require(ok, \"Invalid recount proof\") */\n      tag_144\n      jumpi\n      mload(0x40)\n      0x08c379a000000000000000000000000000000000000000000000000000000000\n      dup2\n      mstore\n      0x04\n      add\n      tag_145\n      swap1\n      tag_146\n      jump\t// in\n    tag_145:\n      mload(0x40)\n      dup1\n      swap2\n      sub\n      swap1\n      revert\n    tag_144:\n        /* \"TP FINAL/VotingSystem.sol\":3289:3313  ResultsPublished(result) */\n      0xee088bcc4c9bbd048c9c087916ec26aae94e63151610af8167078ef170e5ae60\n        /* \"TP FINAL/VotingSystem.sol\":3306:3312  result */\n      dup5\n        /* \"TP FINAL/VotingSystem.sol\":3289:3313  ResultsPublished(result) */\n      mload(0x40)\n      tag_147\n      swap2\n      swap1\n      tag_21\n      jump\t// in\n    tag_147:\n      mload(0x40)\n      dup1\n      swap2\n      sub\n      swap1\n      log1\n        /* \"TP FINAL/VotingSystem.sol\":2810:3321  {... */\n      pop\n      pop\n        /* \"TP FINAL/VotingSystem.sol\":2704:3321  function publishResults(... */\n      pop\n      pop\n      jump\t// out\n        /* \"TP FINAL/CurveBabyJubJub.sol\":671:1433  function pointAdd(... */\n    tag_106:\n        /* \"TP FINAL/CurveBabyJubJub.sol\":807:817  uint256 x3 */\n      0x00\n        /* \"TP FINAL/CurveBabyJubJub.sol\":819:829  uint256 y3 */\n      0x00\n        /* \"TP FINAL/CurveBabyJubJub.sol\":853:854  0 */\n      0x00\n        /* \"TP FINAL/CurveBabyJubJub.sol\":846:849  _x1 */\n      dup7\n        /* \"TP FINAL/CurveBabyJubJub.sol\":846:854  _x1 == 0 */\n      eq\n        /* \"TP FINAL/CurveBabyJubJub.sol\":846:866  _x1 == 0 && _y1 == 0 */\n      dup1\n      iszero\n      tag_149\n      jumpi\n      pop\n        /* \"TP FINAL/CurveBabyJubJub.sol\":865:866  0 */\n      0x00\n        /* \"TP FINAL/CurveBabyJubJub.sol\":858:861  _y1 */\n      dup6\n        /* \"TP FINAL/CurveBabyJubJub.sol\":858:866  _y1 == 0 */\n      eq\n        /* \"TP FINAL/CurveBabyJubJub.sol\":846:866  _x1 == 0 && _y1 == 0 */\n    tag_149:\n        /* \"TP FINAL/CurveBabyJubJub.sol\":842:912  if (_x1 == 0 && _y1 == 0) {... */\n      iszero\n      tag_150\n      jumpi\n        /* \"TP FINAL/CurveBabyJubJub.sol\":891:894  _x2 */\n      dup4\n        /* \"TP FINAL/CurveBabyJubJub.sol\":896:899  _y2 */\n      dup4\n        /* \"TP FINAL/CurveBabyJubJub.sol\":883:900  return (_x2, _y2) */\n      swap2\n      pop\n      swap2\n      pop\n      jump(tag_148)\n        /* \"TP FINAL/CurveBabyJubJub.sol\":842:912  if (_x1 == 0 && _y1 == 0) {... */\n    tag_150:\n        /* \"TP FINAL/CurveBabyJubJub.sol\":935:936  0 */\n      0x00\n        /* \"TP FINAL/CurveBabyJubJub.sol\":928:931  _x2 */\n      dup5\n        /* \"TP FINAL/CurveBabyJubJub.sol\":928:936  _x2 == 0 */\n      eq\n        /* \"TP FINAL/CurveBabyJubJub.sol\":928:948  _x2 == 0 && _y1 == 0 */\n      dup1\n      iszero\n      tag_151\n      jumpi\n      pop\n        /* \"TP FINAL/CurveBabyJubJub.sol\":947:948  0 */\n      0x00\n        /* \"TP FINAL/CurveBabyJubJub.sol\":940:943  _y1 */\n      dup6\n        /* \"TP FINAL/CurveBabyJubJub.sol\":940:948  _y1 == 0 */\n      eq\n        /* \"TP FINAL/CurveBabyJubJub.sol\":928:948  _x2 == 0 && _y1 == 0 */\n    tag_151:\n        /* \"TP FINAL/CurveBabyJubJub.sol\":924:994  if (_x2 == 0 && _y1 == 0) {... */\n      iszero\n      tag_152\n      jumpi\n        /* \"TP FINAL/CurveBabyJubJub.sol\":973:976  _x1 */\n      dup6\n        /* \"TP FINAL/CurveBabyJubJub.sol\":978:981  _y1 */\n      dup6\n        /* \"TP FINAL/CurveBabyJubJub.sol\":965:982  return (_x1, _y1) */\n      swap2\n      pop\n      swap2\n      pop\n      jump(tag_148)\n        /* \"TP FINAL/CurveBabyJubJub.sol\":924:994  if (_x2 == 0 && _y1 == 0) {... */\n    tag_152:\n        /* \"TP FINAL/CurveBabyJubJub.sol\":1006:1018  uint256 x1x2 */\n      0x00\n        /* \"TP FINAL/CurveBabyJubJub.sol\":375:441  0x30644E72E131A029B85045B68181585D2833E84879B9709143E1F593F0000001 */\n      0x30644e72e131a029b85045b68181585d2833e84879b9709143e1f593f0000001\n        /* \"TP FINAL/CurveBabyJubJub.sol\":1021:1040  mulmod(_x1, _x2, Q) */\n      dup1\n      tag_153\n      jumpi\n      tag_154\n      tag_155\n      jump\t// in\n    tag_154:\n    tag_153:\n        /* \"TP FINAL/CurveBabyJubJub.sol\":1033:1036  _x2 */\n      dup6\n        /* \"TP FINAL/CurveBabyJubJub.sol\":1028:1031  _x1 */\n      dup9\n        /* \"TP FINAL/CurveBabyJubJub.sol\":1021:1040  mulmod(_x1, _x2, Q) */\n      mulmod\n        /* \"TP FINAL/CurveBabyJubJub.sol\":1006:1040  uint256 x1x2 = mulmod(_x1, _x2, Q) */\n      swap1\n      pop\n        /* \"TP FINAL/CurveBabyJubJub.sol\":1051:1063  uint256 y1y2 */\n      0x00\n        /* \"TP FINAL/CurveBabyJubJub.sol\":375:441  0x30644E72E131A029B85045B68181585D2833E84879B9709143E1F593F0000001 */\n      0x30644e72e131a029b85045b68181585d2833e84879b9709143e1f593f0000001\n        /* \"TP FINAL/CurveBabyJubJub.sol\":1066:1085  mulmod(_y1, _y2, Q) */\n      dup1\n      tag_156\n      jumpi\n      tag_157\n      tag_155\n      jump\t// in\n    tag_157:\n    tag_156:\n        /* \"TP FINAL/CurveBabyJubJub.sol\":1078:1081  _y2 */\n      dup6\n        /* \"TP FINAL/CurveBabyJubJub.sol\":1073:1076  _y1 */\n      dup9\n        /* \"TP FINAL/CurveBabyJubJub.sol\":1066:1085  mulmod(_y1, _y2, Q) */\n      mulmod\n        /* \"TP FINAL/CurveBabyJubJub.sol\":1051:1085  uint256 y1y2 = mulmod(_y1, _y2, Q) */\n      swap1\n      pop\n        /* \"TP FINAL/CurveBabyJubJub.sol\":1096:1113  uint256 dx1x2y1y2 */\n      0x00\n        /* \"TP FINAL/CurveBabyJubJub.sol\":375:441  0x30644E72E131A029B85045B68181585D2833E84879B9709143E1F593F0000001 */\n      0x30644e72e131a029b85045b68181585d2833e84879b9709143e1f593f0000001\n        /* \"TP FINAL/CurveBabyJubJub.sol\":1116:1151  mulmod(D, mulmod(x1x2, y1y2, Q), Q) */\n      dup1\n      tag_158\n      jumpi\n      tag_159\n      tag_155\n      jump\t// in\n    tag_159:\n    tag_158:\n        /* \"TP FINAL/CurveBabyJubJub.sol\":375:441  0x30644E72E131A029B85045B68181585D2833E84879B9709143E1F593F0000001 */\n      0x30644e72e131a029b85045b68181585d2833e84879b9709143e1f593f0000001\n        /* \"TP FINAL/CurveBabyJubJub.sol\":1126:1147  mulmod(x1x2, y1y2, Q) */\n      dup1\n      tag_160\n      jumpi\n      tag_161\n      tag_155\n      jump\t// in\n    tag_161:\n    tag_160:\n        /* \"TP FINAL/CurveBabyJubJub.sol\":1139:1143  y1y2 */\n      dup4\n        /* \"TP FINAL/CurveBabyJubJub.sol\":1133:1137  x1x2 */\n      dup6\n        /* \"TP FINAL/CurveBabyJubJub.sol\":1126:1147  mulmod(x1x2, y1y2, Q) */\n      mulmod\n        /* \"TP FINAL/CurveBabyJubJub.sol\":237:244  0x292F8 */\n      0x0292f8\n        /* \"TP FINAL/CurveBabyJubJub.sol\":1116:1151  mulmod(D, mulmod(x1x2, y1y2, Q), Q) */\n      mulmod\n        /* \"TP FINAL/CurveBabyJubJub.sol\":1096:1151  uint256 dx1x2y1y2 = mulmod(D, mulmod(x1x2, y1y2, Q), Q) */\n      swap1\n      pop\n        /* \"TP FINAL/CurveBabyJubJub.sol\":1162:1175  uint256 x3Num */\n      0x00\n        /* \"TP FINAL/CurveBabyJubJub.sol\":375:441  0x30644E72E131A029B85045B68181585D2833E84879B9709143E1F593F0000001 */\n      0x30644e72e131a029b85045b68181585d2833e84879b9709143e1f593f0000001\n        /* \"TP FINAL/CurveBabyJubJub.sol\":1178:1229  addmod(mulmod(_x1, _y2, Q), mulmod(_y1, _x2, Q), Q) */\n      dup1\n      tag_162\n      jumpi\n      tag_163\n      tag_155\n      jump\t// in\n    tag_163:\n    tag_162:\n        /* \"TP FINAL/CurveBabyJubJub.sol\":375:441  0x30644E72E131A029B85045B68181585D2833E84879B9709143E1F593F0000001 */\n      0x30644e72e131a029b85045b68181585d2833e84879b9709143e1f593f0000001\n        /* \"TP FINAL/CurveBabyJubJub.sol\":1206:1225  mulmod(_y1, _x2, Q) */\n      dup1\n      tag_164\n      jumpi\n      tag_165\n      tag_155\n      jump\t// in\n    tag_165:\n    tag_164:\n        /* \"TP FINAL/CurveBabyJubJub.sol\":1218:1221  _x2 */\n      dup10\n        /* \"TP FINAL/CurveBabyJubJub.sol\":1213:1216  _y1 */\n      dup12\n        /* \"TP FINAL/CurveBabyJubJub.sol\":1206:1225  mulmod(_y1, _x2, Q) */\n      mulmod\n        /* \"TP FINAL/CurveBabyJubJub.sol\":375:441  0x30644E72E131A029B85045B68181585D2833E84879B9709143E1F593F0000001 */\n      0x30644e72e131a029b85045b68181585d2833e84879b9709143e1f593f0000001\n        /* \"TP FINAL/CurveBabyJubJub.sol\":1185:1204  mulmod(_x1, _y2, Q) */\n      dup1\n      tag_166\n      jumpi\n      tag_167\n      tag_155\n      jump\t// in\n    tag_167:\n    tag_166:\n        /* \"TP FINAL/CurveBabyJubJub.sol\":1197:1200  _y2 */\n      dup10\n        /* \"TP FINAL/CurveBabyJubJub.sol\":1192:1195  _x1 */\n      dup14\n        /* \"TP FINAL/CurveBabyJubJub.sol\":1185:1204  mulmod(_x1, _y2, Q) */\n      mulmod\n        /* \"TP FINAL/CurveBabyJubJub.sol\":1178:1229  addmod(mulmod(_x1, _y2, Q), mulmod(_y1, _x2, Q), Q) */\n      addmod\n        /* \"TP FINAL/CurveBabyJubJub.sol\":1162:1229  uint256 x3Num = addmod(mulmod(_x1, _y2, Q), mulmod(_y1, _x2, Q), Q) */\n      swap1\n      pop\n        /* \"TP FINAL/CurveBabyJubJub.sol\":1240:1253  uint256 y3Num */\n      0x00\n        /* \"TP FINAL/CurveBabyJubJub.sol\":1256:1291  submod(y1y2, mulmod(A, x1x2, Q), Q) */\n      tag_168\n        /* \"TP FINAL/CurveBabyJubJub.sol\":1263:1267  y1y2 */\n      dup5\n        /* \"TP FINAL/CurveBabyJubJub.sol\":375:441  0x30644E72E131A029B85045B68181585D2833E84879B9709143E1F593F0000001 */\n      0x30644e72e131a029b85045b68181585d2833e84879b9709143e1f593f0000001\n        /* \"TP FINAL/CurveBabyJubJub.sol\":1269:1287  mulmod(A, x1x2, Q) */\n      dup1\n      tag_169\n      jumpi\n      tag_170\n      tag_155\n      jump\t// in\n    tag_170:\n    tag_169:\n        /* \"TP FINAL/CurveBabyJubJub.sol\":1279:1283  x1x2 */\n      dup8\n        /* \"TP FINAL/CurveBabyJubJub.sol\":176:183  0x292FC */\n      0x0292fc\n        /* \"TP FINAL/CurveBabyJubJub.sol\":1269:1287  mulmod(A, x1x2, Q) */\n      mulmod\n        /* \"TP FINAL/CurveBabyJubJub.sol\":375:441  0x30644E72E131A029B85045B68181585D2833E84879B9709143E1F593F0000001 */\n      0x30644e72e131a029b85045b68181585d2833e84879b9709143e1f593f0000001\n        /* \"TP FINAL/CurveBabyJubJub.sol\":1256:1262  submod */\n      tag_171\n        /* \"TP FINAL/CurveBabyJubJub.sol\":1256:1291  submod(y1y2, mulmod(A, x1x2, Q), Q) */\n      jump\t// in\n    tag_168:\n        /* \"TP FINAL/CurveBabyJubJub.sol\":1240:1291  uint256 y3Num = submod(y1y2, mulmod(A, x1x2, Q), Q) */\n      swap1\n      pop\n        /* \"TP FINAL/CurveBabyJubJub.sol\":375:441  0x30644E72E131A029B85045B68181585D2833E84879B9709143E1F593F0000001 */\n      0x30644e72e131a029b85045b68181585d2833e84879b9709143e1f593f0000001\n        /* \"TP FINAL/CurveBabyJubJub.sol\":1309:1359  mulmod(x3Num, inverse(addmod(1, dx1x2y1y2, Q)), Q) */\n      dup1\n      tag_172\n      jumpi\n      tag_173\n      tag_155\n      jump\t// in\n    tag_173:\n    tag_172:\n        /* \"TP FINAL/CurveBabyJubJub.sol\":1323:1355  inverse(addmod(1, dx1x2y1y2, Q)) */\n      tag_174\n        /* \"TP FINAL/CurveBabyJubJub.sol\":375:441  0x30644E72E131A029B85045B68181585D2833E84879B9709143E1F593F0000001 */\n      0x30644e72e131a029b85045b68181585d2833e84879b9709143e1f593f0000001\n        /* \"TP FINAL/CurveBabyJubJub.sol\":1331:1354  addmod(1, dx1x2y1y2, Q) */\n      dup1\n      tag_175\n      jumpi\n      tag_176\n      tag_155\n      jump\t// in\n    tag_176:\n    tag_175:\n        /* \"TP FINAL/CurveBabyJubJub.sol\":1341:1350  dx1x2y1y2 */\n      dup6\n        /* \"TP FINAL/CurveBabyJubJub.sol\":1338:1339  1 */\n      0x01\n        /* \"TP FINAL/CurveBabyJubJub.sol\":1331:1354  addmod(1, dx1x2y1y2, Q) */\n      addmod\n        /* \"TP FINAL/CurveBabyJubJub.sol\":1323:1330  inverse */\n      tag_177\n        /* \"TP FINAL/CurveBabyJubJub.sol\":1323:1355  inverse(addmod(1, dx1x2y1y2, Q)) */\n      jump\t// in\n    tag_174:\n        /* \"TP FINAL/CurveBabyJubJub.sol\":1316:1321  x3Num */\n      dup4\n        /* \"TP FINAL/CurveBabyJubJub.sol\":1309:1359  mulmod(x3Num, inverse(addmod(1, dx1x2y1y2, Q)), Q) */\n      mulmod\n        /* \"TP FINAL/CurveBabyJubJub.sol\":1304:1359  x3 = mulmod(x3Num, inverse(addmod(1, dx1x2y1y2, Q)), Q) */\n      swap7\n      pop\n        /* \"TP FINAL/CurveBabyJubJub.sol\":375:441  0x30644E72E131A029B85045B68181585D2833E84879B9709143E1F593F0000001 */\n      0x30644e72e131a029b85045b68181585d2833e84879b9709143e1f593f0000001\n        /* \"TP FINAL/CurveBabyJubJub.sol\":1375:1425  mulmod(y3Num, inverse(submod(1, dx1x2y1y2, Q)), Q) */\n      dup1\n      tag_178\n      jumpi\n      tag_179\n      tag_155\n      jump\t// in\n    tag_179:\n    tag_178:\n        /* \"TP FINAL/CurveBabyJubJub.sol\":1389:1421  inverse(submod(1, dx1x2y1y2, Q)) */\n      tag_180\n        /* \"TP FINAL/CurveBabyJubJub.sol\":1397:1420  submod(1, dx1x2y1y2, Q) */\n      tag_181\n        /* \"TP FINAL/CurveBabyJubJub.sol\":1404:1405  1 */\n      0x01\n        /* \"TP FINAL/CurveBabyJubJub.sol\":1407:1416  dx1x2y1y2 */\n      dup7\n        /* \"TP FINAL/CurveBabyJubJub.sol\":375:441  0x30644E72E131A029B85045B68181585D2833E84879B9709143E1F593F0000001 */\n      0x30644e72e131a029b85045b68181585d2833e84879b9709143e1f593f0000001\n        /* \"TP FINAL/CurveBabyJubJub.sol\":1397:1403  submod */\n      tag_171\n        /* \"TP FINAL/CurveBabyJubJub.sol\":1397:1420  submod(1, dx1x2y1y2, Q) */\n      jump\t// in\n    tag_181:\n        /* \"TP FINAL/CurveBabyJubJub.sol\":1389:1396  inverse */\n      tag_177\n        /* \"TP FINAL/CurveBabyJubJub.sol\":1389:1421  inverse(submod(1, dx1x2y1y2, Q)) */\n      jump\t// in\n    tag_180:\n        /* \"TP FINAL/CurveBabyJubJub.sol\":1382:1387  y3Num */\n      dup3\n        /* \"TP FINAL/CurveBabyJubJub.sol\":1375:1425  mulmod(y3Num, inverse(submod(1, dx1x2y1y2, Q)), Q) */\n      mulmod\n        /* \"TP FINAL/CurveBabyJubJub.sol\":1370:1425  y3 = mulmod(y3Num, inverse(submod(1, dx1x2y1y2, Q)), Q) */\n      swap6\n      pop\n        /* \"TP FINAL/CurveBabyJubJub.sol\":831:1433  {... */\n      pop\n      pop\n      pop\n      pop\n      pop\n        /* \"TP FINAL/CurveBabyJubJub.sol\":671:1433  function pointAdd(... */\n    tag_148:\n      swap5\n      pop\n      swap5\n      swap3\n      pop\n      pop\n      pop\n      jump\t// out\n        /* \"TP FINAL/CurveBabyJubJub.sol\":3024:3288  function submod(... */\n    tag_171:\n        /* \"TP FINAL/CurveBabyJubJub.sol\":3135:3142  uint256 */\n      0x00\n        /* \"TP FINAL/CurveBabyJubJub.sol\":3155:3166  uint256 aNN */\n      0x00\n        /* \"TP FINAL/CurveBabyJubJub.sol\":3169:3171  _a */\n      dup5\n        /* \"TP FINAL/CurveBabyJubJub.sol\":3155:3171  uint256 aNN = _a */\n      swap1\n      pop\n        /* \"TP FINAL/CurveBabyJubJub.sol\":3194:3196  _b */\n      dup4\n        /* \"TP FINAL/CurveBabyJubJub.sol\":3188:3190  _a */\n      dup6\n        /* \"TP FINAL/CurveBabyJubJub.sol\":3188:3196  _a <= _b */\n      gt\n        /* \"TP FINAL/CurveBabyJubJub.sol\":3184:3236  if (_a <= _b) {... */\n      tag_183\n      jumpi\n        /* \"TP FINAL/CurveBabyJubJub.sol\":3220:3224  _mod */\n      dup3\n        /* \"TP FINAL/CurveBabyJubJub.sol\":3213:3224  aNN += _mod */\n      dup2\n      tag_184\n      swap2\n      swap1\n      tag_113\n      jump\t// in\n    tag_184:\n      swap1\n      pop\n        /* \"TP FINAL/CurveBabyJubJub.sol\":3184:3236  if (_a <= _b) {... */\n    tag_183:\n        /* \"TP FINAL/CurveBabyJubJub.sol\":3275:3279  _mod */\n      dup3\n        /* \"TP FINAL/CurveBabyJubJub.sol\":3255:3280  addmod(aNN - _b, 0, _mod) */\n      dup1\n      tag_185\n      jumpi\n      tag_186\n      tag_155\n      jump\t// in\n    tag_186:\n    tag_185:\n        /* \"TP FINAL/CurveBabyJubJub.sol\":3272:3273  0 */\n      0x00\n        /* \"TP FINAL/CurveBabyJubJub.sol\":3268:3270  _b */\n      dup6\n        /* \"TP FINAL/CurveBabyJubJub.sol\":3262:3265  aNN */\n      dup4\n        /* \"TP FINAL/CurveBabyJubJub.sol\":3262:3270  aNN - _b */\n      tag_187\n      swap2\n      swap1\n      tag_188\n      jump\t// in\n    tag_187:\n        /* \"TP FINAL/CurveBabyJubJub.sol\":3255:3280  addmod(aNN - _b, 0, _mod) */\n      addmod\n        /* \"TP FINAL/CurveBabyJubJub.sol\":3248:3280  return addmod(aNN - _b, 0, _mod) */\n      swap2\n      pop\n      pop\n        /* \"TP FINAL/CurveBabyJubJub.sol\":3024:3288  function submod(... */\n      swap4\n      swap3\n      pop\n      pop\n      pop\n      jump\t// out\n        /* \"TP FINAL/CurveBabyJubJub.sol\":3363:3626  function inverse(uint256 _a) internal view returns (uint256) {... */\n    tag_177:\n        /* \"TP FINAL/CurveBabyJubJub.sol\":3415:3422  uint256 */\n      0x00\n        /* \"TP FINAL/CurveBabyJubJub.sol\":3598:3618  expmod(_a, Q - 2, Q) */\n      tag_190\n        /* \"TP FINAL/CurveBabyJubJub.sol\":3605:3607  _a */\n      dup3\n        /* \"TP FINAL/CurveBabyJubJub.sol\":3613:3614  2 */\n      0x02\n        /* \"TP FINAL/CurveBabyJubJub.sol\":375:441  0x30644E72E131A029B85045B68181585D2833E84879B9709143E1F593F0000001 */\n      0x30644e72e131a029b85045b68181585d2833e84879b9709143e1f593f0000001\n        /* \"TP FINAL/CurveBabyJubJub.sol\":3609:3614  Q - 2 */\n      tag_191\n      swap2\n      swap1\n      tag_188\n      jump\t// in\n    tag_191:\n        /* \"TP FINAL/CurveBabyJubJub.sol\":375:441  0x30644E72E131A029B85045B68181585D2833E84879B9709143E1F593F0000001 */\n      0x30644e72e131a029b85045b68181585d2833e84879b9709143e1f593f0000001\n        /* \"TP FINAL/CurveBabyJubJub.sol\":3598:3604  expmod */\n      tag_192\n        /* \"TP FINAL/CurveBabyJubJub.sol\":3598:3618  expmod(_a, Q - 2, Q) */\n      jump\t// in\n    tag_190:\n        /* \"TP FINAL/CurveBabyJubJub.sol\":3591:3618  return expmod(_a, Q - 2, Q) */\n      swap1\n      pop\n        /* \"TP FINAL/CurveBabyJubJub.sol\":3363:3626  function inverse(uint256 _a) internal view returns (uint256) {... */\n      swap2\n      swap1\n      pop\n      jump\t// out\n        /* \"TP FINAL/CurveBabyJubJub.sol\":3714:4358  function expmod(... */\n    tag_192:\n        /* \"TP FINAL/CurveBabyJubJub.sol\":3823:3832  uint256 o */\n      0x00\n        /* \"TP FINAL/CurveBabyJubJub.sol\":3889:3893  0x40 */\n      0x40\n        /* \"TP FINAL/CurveBabyJubJub.sol\":3883:3894  mload(0x40) */\n      mload\n        /* \"TP FINAL/CurveBabyJubJub.sol\":3923:3927  0x20 */\n      0x20\n        /* \"TP FINAL/CurveBabyJubJub.sol\":3915:3921  memPtr */\n      dup2\n        /* \"TP FINAL/CurveBabyJubJub.sol\":3908:3928  mstore(memPtr, 0x20) */\n      mstore\n        /* \"TP FINAL/CurveBabyJubJub.sol\":3968:3972  0x20 */\n      0x20\n        /* \"TP FINAL/CurveBabyJubJub.sol\":3961:3965  0x20 */\n      dup1\n        /* \"TP FINAL/CurveBabyJubJub.sol\":3953:3959  memPtr */\n      dup3\n        /* \"TP FINAL/CurveBabyJubJub.sol\":3949:3966  add(memPtr, 0x20) */\n      add\n        /* \"TP FINAL/CurveBabyJubJub.sol\":3942:3973  mstore(add(memPtr, 0x20), 0x20) */\n      mstore\n        /* \"TP FINAL/CurveBabyJubJub.sol\":4013:4017  0x20 */\n      0x20\n        /* \"TP FINAL/CurveBabyJubJub.sol\":4006:4010  0x40 */\n      0x40\n        /* \"TP FINAL/CurveBabyJubJub.sol\":3998:4004  memPtr */\n      dup3\n        /* \"TP FINAL/CurveBabyJubJub.sol\":3994:4011  add(memPtr, 0x40) */\n      add\n        /* \"TP FINAL/CurveBabyJubJub.sol\":3987:4018  mstore(add(memPtr, 0x40), 0x20) */\n      mstore\n        /* \"TP FINAL/CurveBabyJubJub.sol\":4058:4060  _b */\n      dup5\n        /* \"TP FINAL/CurveBabyJubJub.sol\":4051:4055  0x60 */\n      0x60\n        /* \"TP FINAL/CurveBabyJubJub.sol\":4043:4049  memPtr */\n      dup3\n        /* \"TP FINAL/CurveBabyJubJub.sol\":4039:4056  add(memPtr, 0x60) */\n      add\n        /* \"TP FINAL/CurveBabyJubJub.sol\":4032:4061  mstore(add(memPtr, 0x60), _b) */\n      mstore\n        /* \"TP FINAL/CurveBabyJubJub.sol\":4101:4103  _e */\n      dup4\n        /* \"TP FINAL/CurveBabyJubJub.sol\":4094:4098  0x80 */\n      0x80\n        /* \"TP FINAL/CurveBabyJubJub.sol\":4086:4092  memPtr */\n      dup3\n        /* \"TP FINAL/CurveBabyJubJub.sol\":4082:4099  add(memPtr, 0x80) */\n      add\n        /* \"TP FINAL/CurveBabyJubJub.sol\":4075:4104  mstore(add(memPtr, 0x80), _e) */\n      mstore\n        /* \"TP FINAL/CurveBabyJubJub.sol\":4144:4146  _m */\n      dup3\n        /* \"TP FINAL/CurveBabyJubJub.sol\":4137:4141  0xa0 */\n      0xa0\n        /* \"TP FINAL/CurveBabyJubJub.sol\":4129:4135  memPtr */\n      dup3\n        /* \"TP FINAL/CurveBabyJubJub.sol\":4125:4142  add(memPtr, 0xa0) */\n      add\n        /* \"TP FINAL/CurveBabyJubJub.sol\":4118:4147  mstore(add(memPtr, 0xa0), _m) */\n      mstore\n        /* \"TP FINAL/CurveBabyJubJub.sol\":4224:4228  0x20 */\n      0x20\n        /* \"TP FINAL/CurveBabyJubJub.sol\":4216:4222  memPtr */\n      dup2\n        /* \"TP FINAL/CurveBabyJubJub.sol\":4210:4214  0xc0 */\n      0xc0\n        /* \"TP FINAL/CurveBabyJubJub.sol\":4202:4208  memPtr */\n      dup4\n        /* \"TP FINAL/CurveBabyJubJub.sol\":4196:4200  0x05 */\n      0x05\n        /* \"TP FINAL/CurveBabyJubJub.sol\":4189:4194  gas() */\n      gas\n        /* \"TP FINAL/CurveBabyJubJub.sol\":4178:4229  staticcall(gas(), 0x05, memPtr, 0xc0, memPtr, 0x20) */\n      staticcall\n        /* \"TP FINAL/CurveBabyJubJub.sol\":4253:4260  success */\n      dup1\n        /* \"TP FINAL/CurveBabyJubJub.sol\":4243:4308  if iszero(success) {... */\n      tag_194\n      jumpi\n        /* \"TP FINAL/CurveBabyJubJub.sol\":4291:4292  0 */\n      0x00\n        /* \"TP FINAL/CurveBabyJubJub.sol\":4288:4289  0 */\n      0x00\n        /* \"TP FINAL/CurveBabyJubJub.sol\":4281:4293  revert(0, 0) */\n      revert\n        /* \"TP FINAL/CurveBabyJubJub.sol\":4243:4308  if iszero(success) {... */\n    tag_194:\n        /* \"TP FINAL/CurveBabyJubJub.sol\":4333:4339  memPtr */\n      dup2\n        /* \"TP FINAL/CurveBabyJubJub.sol\":4327:4340  mload(memPtr) */\n      mload\n        /* \"TP FINAL/CurveBabyJubJub.sol\":4322:4340  o := mload(memPtr) */\n      swap3\n      pop\n        /* \"TP FINAL/CurveBabyJubJub.sol\":3854:4351  {... */\n      pop\n      pop\n        /* \"TP FINAL/CurveBabyJubJub.sol\":3714:4358  function expmod(... */\n      swap4\n      swap3\n      pop\n      pop\n      pop\n      jump\t// out\n    tag_66:\n      mload(0x40)\n      dup1\n      0x0180\n      add\n      0x40\n      mstore\n      dup1\n      0x0c\n      swap1\n      0x20\n      dup3\n      mul\n      dup1\n      calldatasize\n      dup4\n      calldatacopy\n      dup1\n      dup3\n      add\n      swap2\n      pop\n      pop\n      swap1\n      pop\n      pop\n      swap1\n      jump\t// out\n        /* \"#utility.yul\":7:84   */\n    tag_195:\n        /* \"#utility.yul\":44:51   */\n      0x00\n        /* \"#utility.yul\":73:78   */\n      dup2\n        /* \"#utility.yul\":62:78   */\n      swap1\n      pop\n        /* \"#utility.yul\":7:84   */\n      swap2\n      swap1\n      pop\n      jump\t// out\n        /* \"#utility.yul\":90:208   */\n    tag_196:\n        /* \"#utility.yul\":177:201   */\n      tag_254\n        /* \"#utility.yul\":195:200   */\n      dup2\n        /* \"#utility.yul\":177:201   */\n      tag_195\n      jump\t// in\n    tag_254:\n        /* \"#utility.yul\":172:175   */\n      dup3\n        /* \"#utility.yul\":165:202   */\n      mstore\n        /* \"#utility.yul\":90:208   */\n      pop\n      pop\n      jump\t// out\n        /* \"#utility.yul\":214:436   */\n    tag_21:\n        /* \"#utility.yul\":307:311   */\n      0x00\n        /* \"#utility.yul\":345:347   */\n      0x20\n        /* \"#utility.yul\":334:343   */\n      dup3\n        /* \"#utility.yul\":330:348   */\n      add\n        /* \"#utility.yul\":322:348   */\n      swap1\n      pop\n        /* \"#utility.yul\":358:429   */\n      tag_256\n        /* \"#utility.yul\":426:427   */\n      0x00\n        /* \"#utility.yul\":415:424   */\n      dup4\n        /* \"#utility.yul\":411:428   */\n      add\n        /* \"#utility.yul\":402:408   */\n      dup5\n        /* \"#utility.yul\":358:429   */\n      tag_196\n      jump\t// in\n    tag_256:\n        /* \"#utility.yul\":214:436   */\n      swap3\n      swap2\n      pop\n      pop\n      jump\t// out\n        /* \"#utility.yul\":523:640   */\n    tag_198:\n        /* \"#utility.yul\":632:633   */\n      0x00\n        /* \"#utility.yul\":629:630   */\n      0x00\n        /* \"#utility.yul\":622:634   */\n      revert\n        /* \"#utility.yul\":769:886   */\n    tag_200:\n        /* \"#utility.yul\":878:879   */\n      0x00\n        /* \"#utility.yul\":875:876   */\n      0x00\n        /* \"#utility.yul\":868:880   */\n      revert\n        /* \"#utility.yul\":912:1141   */\n    tag_201:\n        /* \"#utility.yul\":982:987   */\n      0x00\n        /* \"#utility.yul\":1023:1026   */\n      0x0100\n        /* \"#utility.yul\":1014:1020   */\n      dup3\n        /* \"#utility.yul\":1009:1012   */\n      dup5\n        /* \"#utility.yul\":1005:1021   */\n      sub\n        /* \"#utility.yul\":1001:1027   */\n      slt\n        /* \"#utility.yul\":998:1111   */\n      iszero\n      tag_262\n      jumpi\n        /* \"#utility.yul\":1030:1109   */\n      tag_263\n      tag_200\n      jump\t// in\n    tag_263:\n        /* \"#utility.yul\":998:1111   */\n    tag_262:\n        /* \"#utility.yul\":1129:1135   */\n      dup2\n        /* \"#utility.yul\":1120:1135   */\n      swap1\n      pop\n        /* \"#utility.yul\":912:1141   */\n      swap3\n      swap2\n      pop\n      pop\n      jump\t// out\n        /* \"#utility.yul\":1147:1264   */\n    tag_202:\n        /* \"#utility.yul\":1256:1257   */\n      0x00\n        /* \"#utility.yul\":1253:1254   */\n      0x00\n        /* \"#utility.yul\":1246:1258   */\n      revert\n        /* \"#utility.yul\":1288:1537   */\n    tag_203:\n        /* \"#utility.yul\":1359:1367   */\n      0x00\n        /* \"#utility.yul\":1390:1396   */\n      dup2\n        /* \"#utility.yul\":1378:1396   */\n      swap1\n      pop\n        /* \"#utility.yul\":1443:1446   */\n      dup3\n        /* \"#utility.yul\":1435:1439   */\n      0x20\n        /* \"#utility.yul\":1429:1433   */\n      0x02\n        /* \"#utility.yul\":1425:1440   */\n      mul\n        /* \"#utility.yul\":1415:1423   */\n      dup3\n        /* \"#utility.yul\":1411:1441   */\n      add\n        /* \"#utility.yul\":1408:1447   */\n      gt\n        /* \"#utility.yul\":1405:1531   */\n      iszero\n      tag_266\n      jumpi\n        /* \"#utility.yul\":1450:1529   */\n      tag_267\n      tag_202\n      jump\t// in\n    tag_267:\n        /* \"#utility.yul\":1405:1531   */\n    tag_266:\n        /* \"#utility.yul\":1288:1537   */\n      swap3\n      swap2\n      pop\n      pop\n      jump\t// out\n        /* \"#utility.yul\":1543:1665   */\n    tag_204:\n        /* \"#utility.yul\":1616:1640   */\n      tag_269\n        /* \"#utility.yul\":1634:1639   */\n      dup2\n        /* \"#utility.yul\":1616:1640   */\n      tag_195\n      jump\t// in\n    tag_269:\n        /* \"#utility.yul\":1609:1614   */\n      dup2\n        /* \"#utility.yul\":1606:1641   */\n      eq\n        /* \"#utility.yul\":1596:1659   */\n      tag_270\n      jumpi\n        /* \"#utility.yul\":1655:1656   */\n      0x00\n        /* \"#utility.yul\":1652:1653   */\n      0x00\n        /* \"#utility.yul\":1645:1657   */\n      revert\n        /* \"#utility.yul\":1596:1659   */\n    tag_270:\n        /* \"#utility.yul\":1543:1665   */\n      pop\n      jump\t// out\n        /* \"#utility.yul\":1671:1810   */\n    tag_205:\n        /* \"#utility.yul\":1717:1722   */\n      0x00\n        /* \"#utility.yul\":1755:1761   */\n      dup2\n        /* \"#utility.yul\":1742:1762   */\n      calldataload\n        /* \"#utility.yul\":1733:1762   */\n      swap1\n      pop\n        /* \"#utility.yul\":1771:1804   */\n      tag_272\n        /* \"#utility.yul\":1798:1803   */\n      dup2\n        /* \"#utility.yul\":1771:1804   */\n      tag_204\n      jump\t// in\n    tag_272:\n        /* \"#utility.yul\":1671:1810   */\n      swap3\n      swap2\n      pop\n      pop\n      jump\t// out\n        /* \"#utility.yul\":1816:2732   */\n    tag_24:\n        /* \"#utility.yul\":1976:1982   */\n      0x00\n        /* \"#utility.yul\":1984:1990   */\n      0x00\n        /* \"#utility.yul\":1992:1998   */\n      0x00\n        /* \"#utility.yul\":2000:2006   */\n      0x00\n        /* \"#utility.yul\":2049:2052   */\n      0x01a0\n        /* \"#utility.yul\":2037:2046   */\n      dup6\n        /* \"#utility.yul\":2028:2035   */\n      dup8\n        /* \"#utility.yul\":2024:2047   */\n      sub\n        /* \"#utility.yul\":2020:2053   */\n      slt\n        /* \"#utility.yul\":2017:2137   */\n      iszero\n      tag_274\n      jumpi\n        /* \"#utility.yul\":2056:2135   */\n      tag_275\n      tag_198\n      jump\t// in\n    tag_275:\n        /* \"#utility.yul\":2017:2137   */\n    tag_274:\n        /* \"#utility.yul\":2176:2177   */\n      0x00\n        /* \"#utility.yul\":2201:2278   */\n      tag_276\n        /* \"#utility.yul\":2270:2277   */\n      dup8\n        /* \"#utility.yul\":2261:2267   */\n      dup3\n        /* \"#utility.yul\":2250:2259   */\n      dup9\n        /* \"#utility.yul\":2246:2268   */\n      add\n        /* \"#utility.yul\":2201:2278   */\n      tag_201\n      jump\t// in\n    tag_276:\n        /* \"#utility.yul\":2191:2278   */\n      swap5\n      pop\n        /* \"#utility.yul\":2147:2288   */\n      pop\n        /* \"#utility.yul\":2327:2330   */\n      0x0100\n        /* \"#utility.yul\":2354:2432   */\n      tag_277\n        /* \"#utility.yul\":2424:2431   */\n      dup8\n        /* \"#utility.yul\":2415:2421   */\n      dup3\n        /* \"#utility.yul\":2404:2413   */\n      dup9\n        /* \"#utility.yul\":2400:2422   */\n      add\n        /* \"#utility.yul\":2354:2432   */\n      tag_203\n      jump\t// in\n    tag_277:\n        /* \"#utility.yul\":2344:2432   */\n      swap4\n      pop\n        /* \"#utility.yul\":2298:2442   */\n      pop\n        /* \"#utility.yul\":2481:2484   */\n      0x0140\n        /* \"#utility.yul\":2508:2586   */\n      tag_278\n        /* \"#utility.yul\":2578:2585   */\n      dup8\n        /* \"#utility.yul\":2569:2575   */\n      dup3\n        /* \"#utility.yul\":2558:2567   */\n      dup9\n        /* \"#utility.yul\":2554:2576   */\n      add\n        /* \"#utility.yul\":2508:2586   */\n      tag_203\n      jump\t// in\n    tag_278:\n        /* \"#utility.yul\":2498:2586   */\n      swap3\n      pop\n        /* \"#utility.yul\":2452:2596   */\n      pop\n        /* \"#utility.yul\":2635:2638   */\n      0x0180\n        /* \"#utility.yul\":2662:2715   */\n      tag_279\n        /* \"#utility.yul\":2707:2714   */\n      dup8\n        /* \"#utility.yul\":2698:2704   */\n      dup3\n        /* \"#utility.yul\":2687:2696   */\n      dup9\n        /* \"#utility.yul\":2683:2705   */\n      add\n        /* \"#utility.yul\":2662:2715   */\n      tag_205\n      jump\t// in\n    tag_279:\n        /* \"#utility.yul\":2652:2715   */\n      swap2\n      pop\n        /* \"#utility.yul\":2606:2725   */\n      pop\n        /* \"#utility.yul\":1816:2732   */\n      swap3\n      swap6\n      swap2\n      swap5\n      pop\n      swap3\n      pop\n      jump\t// out\n        /* \"#utility.yul\":2738:2828   */\n    tag_206:\n        /* \"#utility.yul\":2772:2779   */\n      0x00\n        /* \"#utility.yul\":2815:2820   */\n      dup2\n        /* \"#utility.yul\":2808:2821   */\n      iszero\n        /* \"#utility.yul\":2801:2822   */\n      iszero\n        /* \"#utility.yul\":2790:2822   */\n      swap1\n      pop\n        /* \"#utility.yul\":2738:2828   */\n      swap2\n      swap1\n      pop\n      jump\t// out\n        /* \"#utility.yul\":2834:2943   */\n    tag_207:\n        /* \"#utility.yul\":2915:2936   */\n      tag_282\n        /* \"#utility.yul\":2930:2935   */\n      dup2\n        /* \"#utility.yul\":2915:2936   */\n      tag_206\n      jump\t// in\n    tag_282:\n        /* \"#utility.yul\":2910:2913   */\n      dup3\n        /* \"#utility.yul\":2903:2937   */\n      mstore\n        /* \"#utility.yul\":2834:2943   */\n      pop\n      pop\n      jump\t// out\n        /* \"#utility.yul\":2949:3159   */\n    tag_29:\n        /* \"#utility.yul\":3036:3040   */\n      0x00\n        /* \"#utility.yul\":3074:3076   */\n      0x20\n        /* \"#utility.yul\":3063:3072   */\n      dup3\n        /* \"#utility.yul\":3059:3077   */\n      add\n        /* \"#utility.yul\":3051:3077   */\n      swap1\n      pop\n        /* \"#utility.yul\":3087:3152   */\n      tag_284\n        /* \"#utility.yul\":3149:3150   */\n      0x00\n        /* \"#utility.yul\":3138:3147   */\n      dup4\n        /* \"#utility.yul\":3134:3151   */\n      add\n        /* \"#utility.yul\":3125:3131   */\n      dup5\n        /* \"#utility.yul\":3087:3152   */\n      tag_207\n      jump\t// in\n    tag_284:\n        /* \"#utility.yul\":2949:3159   */\n      swap3\n      swap2\n      pop\n      pop\n      jump\t// out\n        /* \"#utility.yul\":3165:3494   */\n    tag_40:\n        /* \"#utility.yul\":3224:3230   */\n      0x00\n        /* \"#utility.yul\":3273:3275   */\n      0x20\n        /* \"#utility.yul\":3261:3270   */\n      dup3\n        /* \"#utility.yul\":3252:3259   */\n      dup5\n        /* \"#utility.yul\":3248:3271   */\n      sub\n        /* \"#utility.yul\":3244:3276   */\n      slt\n        /* \"#utility.yul\":3241:3360   */\n      iszero\n      tag_286\n      jumpi\n        /* \"#utility.yul\":3279:3358   */\n      tag_287\n      tag_198\n      jump\t// in\n    tag_287:\n        /* \"#utility.yul\":3241:3360   */\n    tag_286:\n        /* \"#utility.yul\":3399:3400   */\n      0x00\n        /* \"#utility.yul\":3424:3477   */\n      tag_288\n        /* \"#utility.yul\":3469:3476   */\n      dup5\n        /* \"#utility.yul\":3460:3466   */\n      dup3\n        /* \"#utility.yul\":3449:3458   */\n      dup6\n        /* \"#utility.yul\":3445:3467   */\n      add\n        /* \"#utility.yul\":3424:3477   */\n      tag_205\n      jump\t// in\n    tag_288:\n        /* \"#utility.yul\":3414:3477   */\n      swap2\n      pop\n        /* \"#utility.yul\":3370:3487   */\n      pop\n        /* \"#utility.yul\":3165:3494   */\n      swap3\n      swap2\n      pop\n      pop\n      jump\t// out\n        /* \"#utility.yul\":3500:3626   */\n    tag_208:\n        /* \"#utility.yul\":3537:3544   */\n      0x00\n        /* \"#utility.yul\":3577:3619   */\n      0xffffffffffffffffffffffffffffffffffffffff\n        /* \"#utility.yul\":3570:3575   */\n      dup3\n        /* \"#utility.yul\":3566:3620   */\n      and\n        /* \"#utility.yul\":3555:3620   */\n      swap1\n      pop\n        /* \"#utility.yul\":3500:3626   */\n      swap2\n      swap1\n      pop\n      jump\t// out\n        /* \"#utility.yul\":3632:3728   */\n    tag_209:\n        /* \"#utility.yul\":3669:3676   */\n      0x00\n        /* \"#utility.yul\":3698:3722   */\n      tag_291\n        /* \"#utility.yul\":3716:3721   */\n      dup3\n        /* \"#utility.yul\":3698:3722   */\n      tag_208\n      jump\t// in\n    tag_291:\n        /* \"#utility.yul\":3687:3722   */\n      swap1\n      pop\n        /* \"#utility.yul\":3632:3728   */\n      swap2\n      swap1\n      pop\n      jump\t// out\n        /* \"#utility.yul\":3734:3852   */\n    tag_210:\n        /* \"#utility.yul\":3821:3845   */\n      tag_293\n        /* \"#utility.yul\":3839:3844   */\n      dup2\n        /* \"#utility.yul\":3821:3845   */\n      tag_209\n      jump\t// in\n    tag_293:\n        /* \"#utility.yul\":3816:3819   */\n      dup3\n        /* \"#utility.yul\":3809:3846   */\n      mstore\n        /* \"#utility.yul\":3734:3852   */\n      pop\n      pop\n      jump\t// out\n        /* \"#utility.yul\":3858:4080   */\n    tag_52:\n        /* \"#utility.yul\":3951:3955   */\n      0x00\n        /* \"#utility.yul\":3989:3991   */\n      0x20\n        /* \"#utility.yul\":3978:3987   */\n      dup3\n        /* \"#utility.yul\":3974:3992   */\n      add\n        /* \"#utility.yul\":3966:3992   */\n      swap1\n      pop\n        /* \"#utility.yul\":4002:4073   */\n      tag_295\n        /* \"#utility.yul\":4070:4071   */\n      0x00\n        /* \"#utility.yul\":4059:4068   */\n      dup4\n        /* \"#utility.yul\":4055:4072   */\n      add\n        /* \"#utility.yul\":4046:4052   */\n      dup5\n        /* \"#utility.yul\":4002:4073   */\n      tag_210\n      jump\t// in\n    tag_295:\n        /* \"#utility.yul\":3858:4080   */\n      swap3\n      swap2\n      pop\n      pop\n      jump\t// out\n        /* \"#utility.yul\":4086:4146   */\n    tag_211:\n        /* \"#utility.yul\":4114:4117   */\n      0x00\n        /* \"#utility.yul\":4135:4140   */\n      dup2\n        /* \"#utility.yul\":4128:4140   */\n      swap1\n      pop\n        /* \"#utility.yul\":4086:4146   */\n      swap2\n      swap1\n      pop\n      jump\t// out\n        /* \"#utility.yul\":4152:4294   */\n    tag_212:\n        /* \"#utility.yul\":4202:4211   */\n      0x00\n        /* \"#utility.yul\":4235:4288   */\n      tag_298\n        /* \"#utility.yul\":4253:4287   */\n      tag_299\n        /* \"#utility.yul\":4262:4286   */\n      tag_300\n        /* \"#utility.yul\":4280:4285   */\n      dup5\n        /* \"#utility.yul\":4262:4286   */\n      tag_208\n      jump\t// in\n    tag_300:\n        /* \"#utility.yul\":4253:4287   */\n      tag_211\n      jump\t// in\n    tag_299:\n        /* \"#utility.yul\":4235:4288   */\n      tag_208\n      jump\t// in\n    tag_298:\n        /* \"#utility.yul\":4222:4288   */\n      swap1\n      pop\n        /* \"#utility.yul\":4152:4294   */\n      swap2\n      swap1\n      pop\n      jump\t// out\n        /* \"#utility.yul\":4300:4426   */\n    tag_213:\n        /* \"#utility.yul\":4350:4359   */\n      0x00\n        /* \"#utility.yul\":4383:4420   */\n      tag_302\n        /* \"#utility.yul\":4414:4419   */\n      dup3\n        /* \"#utility.yul\":4383:4420   */\n      tag_212\n      jump\t// in\n    tag_302:\n        /* \"#utility.yul\":4370:4420   */\n      swap1\n      pop\n        /* \"#utility.yul\":4300:4426   */\n      swap2\n      swap1\n      pop\n      jump\t// out\n        /* \"#utility.yul\":4432:4575   */\n    tag_214:\n        /* \"#utility.yul\":4499:4508   */\n      0x00\n        /* \"#utility.yul\":4532:4569   */\n      tag_304\n        /* \"#utility.yul\":4563:4568   */\n      dup3\n        /* \"#utility.yul\":4532:4569   */\n      tag_213\n      jump\t// in\n    tag_304:\n        /* \"#utility.yul\":4519:4569   */\n      swap1\n      pop\n        /* \"#utility.yul\":4432:4575   */\n      swap2\n      swap1\n      pop\n      jump\t// out\n        /* \"#utility.yul\":4581:4746   */\n    tag_215:\n        /* \"#utility.yul\":4685:4739   */\n      tag_306\n        /* \"#utility.yul\":4733:4738   */\n      dup2\n        /* \"#utility.yul\":4685:4739   */\n      tag_214\n      jump\t// in\n    tag_306:\n        /* \"#utility.yul\":4680:4683   */\n      dup3\n        /* \"#utility.yul\":4673:4740   */\n      mstore\n        /* \"#utility.yul\":4581:4746   */\n      pop\n      pop\n      jump\t// out\n        /* \"#utility.yul\":4752:5008   */\n    tag_56:\n        /* \"#utility.yul\":4862:4866   */\n      0x00\n        /* \"#utility.yul\":4900:4902   */\n      0x20\n        /* \"#utility.yul\":4889:4898   */\n      dup3\n        /* \"#utility.yul\":4885:4903   */\n      add\n        /* \"#utility.yul\":4877:4903   */\n      swap1\n      pop\n        /* \"#utility.yul\":4913:5001   */\n      tag_308\n        /* \"#utility.yul\":4998:4999   */\n      0x00\n        /* \"#utility.yul\":4987:4996   */\n      dup4\n        /* \"#utility.yul\":4983:5000   */\n      add\n        /* \"#utility.yul\":4974:4980   */\n      dup5\n        /* \"#utility.yul\":4913:5001   */\n      tag_215\n      jump\t// in\n    tag_308:\n        /* \"#utility.yul\":4752:5008   */\n      swap3\n      swap2\n      pop\n      pop\n      jump\t// out\n        /* \"#utility.yul\":5014:5537   */\n    tag_62:\n        /* \"#utility.yul\":5106:5112   */\n      0x00\n        /* \"#utility.yul\":5114:5120   */\n      0x00\n        /* \"#utility.yul\":5163:5166   */\n      0x0120\n        /* \"#utility.yul\":5151:5160   */\n      dup4\n        /* \"#utility.yul\":5142:5149   */\n      dup6\n        /* \"#utility.yul\":5138:5161   */\n      sub\n        /* \"#utility.yul\":5134:5167   */\n      slt\n        /* \"#utility.yul\":5131:5251   */\n      iszero\n      tag_310\n      jumpi\n        /* \"#utility.yul\":5170:5249   */\n      tag_311\n      tag_198\n      jump\t// in\n    tag_311:\n        /* \"#utility.yul\":5131:5251   */\n    tag_310:\n        /* \"#utility.yul\":5290:5291   */\n      0x00\n        /* \"#utility.yul\":5315:5368   */\n      tag_312\n        /* \"#utility.yul\":5360:5367   */\n      dup6\n        /* \"#utility.yul\":5351:5357   */\n      dup3\n        /* \"#utility.yul\":5340:5349   */\n      dup7\n        /* \"#utility.yul\":5336:5358   */\n      add\n        /* \"#utility.yul\":5315:5368   */\n      tag_205\n      jump\t// in\n    tag_312:\n        /* \"#utility.yul\":5305:5368   */\n      swap3\n      pop\n        /* \"#utility.yul\":5261:5378   */\n      pop\n        /* \"#utility.yul\":5417:5419   */\n      0x20\n        /* \"#utility.yul\":5443:5520   */\n      tag_313\n        /* \"#utility.yul\":5512:5519   */\n      dup6\n        /* \"#utility.yul\":5503:5509   */\n      dup3\n        /* \"#utility.yul\":5492:5501   */\n      dup7\n        /* \"#utility.yul\":5488:5510   */\n      add\n        /* \"#utility.yul\":5443:5520   */\n      tag_201\n      jump\t// in\n    tag_313:\n        /* \"#utility.yul\":5433:5520   */\n      swap2\n      pop\n        /* \"#utility.yul\":5388:5530   */\n      pop\n        /* \"#utility.yul\":5014:5537   */\n      swap3\n      pop\n      swap3\n      swap1\n      pop\n      jump\t// out\n        /* \"#utility.yul\":5543:5723   */\n    tag_69:\n        /* \"#utility.yul\":5591:5668   */\n      0x4e487b7100000000000000000000000000000000000000000000000000000000\n        /* \"#utility.yul\":5588:5589   */\n      0x00\n        /* \"#utility.yul\":5581:5669   */\n      mstore\n        /* \"#utility.yul\":5688:5692   */\n      0x32\n        /* \"#utility.yul\":5685:5686   */\n      0x04\n        /* \"#utility.yul\":5678:5693   */\n      mstore\n        /* \"#utility.yul\":5712:5716   */\n      0x24\n        /* \"#utility.yul\":5709:5710   */\n      0x00\n        /* \"#utility.yul\":5702:5717   */\n      revert\n        /* \"#utility.yul\":5729:5898   */\n    tag_216:\n        /* \"#utility.yul\":5813:5824   */\n      0x00\n        /* \"#utility.yul\":5847:5853   */\n      dup3\n        /* \"#utility.yul\":5842:5845   */\n      dup3\n        /* \"#utility.yul\":5835:5854   */\n      mstore\n        /* \"#utility.yul\":5887:5891   */\n      0x20\n        /* \"#utility.yul\":5882:5885   */\n      dup3\n        /* \"#utility.yul\":5878:5892   */\n      add\n        /* \"#utility.yul\":5863:5892   */\n      swap1\n      pop\n        /* \"#utility.yul\":5729:5898   */\n      swap3\n      swap2\n      pop\n      pop\n      jump\t// out\n        /* \"#utility.yul\":5904:6069   */\n    tag_217:\n        /* \"#utility.yul\":6044:6061   */\n      0x456c656374696f6e20636c6f7365640000000000000000000000000000000000\n        /* \"#utility.yul\":6040:6041   */\n      0x00\n        /* \"#utility.yul\":6032:6038   */\n      dup3\n        /* \"#utility.yul\":6028:6042   */\n      add\n        /* \"#utility.yul\":6021:6062   */\n      mstore\n        /* \"#utility.yul\":5904:6069   */\n      pop\n      jump\t// out\n        /* \"#utility.yul\":6075:6441   */\n    tag_218:\n        /* \"#utility.yul\":6217:6220   */\n      0x00\n        /* \"#utility.yul\":6238:6305   */\n      tag_318\n        /* \"#utility.yul\":6302:6304   */\n      0x0f\n        /* \"#utility.yul\":6297:6300   */\n      dup4\n        /* \"#utility.yul\":6238:6305   */\n      tag_216\n      jump\t// in\n    tag_318:\n        /* \"#utility.yul\":6231:6305   */\n      swap2\n      pop\n        /* \"#utility.yul\":6314:6407   */\n      tag_319\n        /* \"#utility.yul\":6403:6406   */\n      dup3\n        /* \"#utility.yul\":6314:6407   */\n      tag_217\n      jump\t// in\n    tag_319:\n        /* \"#utility.yul\":6432:6434   */\n      0x20\n        /* \"#utility.yul\":6427:6430   */\n      dup3\n        /* \"#utility.yul\":6423:6435   */\n      add\n        /* \"#utility.yul\":6416:6435   */\n      swap1\n      pop\n        /* \"#utility.yul\":6075:6441   */\n      swap2\n      swap1\n      pop\n      jump\t// out\n        /* \"#utility.yul\":6447:6866   */\n    tag_88:\n        /* \"#utility.yul\":6613:6617   */\n      0x00\n        /* \"#utility.yul\":6651:6653   */\n      0x20\n        /* \"#utility.yul\":6640:6649   */\n      dup3\n        /* \"#utility.yul\":6636:6654   */\n      add\n        /* \"#utility.yul\":6628:6654   */\n      swap1\n      pop\n        /* \"#utility.yul\":6700:6709   */\n      dup2\n        /* \"#utility.yul\":6694:6698   */\n      dup2\n        /* \"#utility.yul\":6690:6710   */\n      sub\n        /* \"#utility.yul\":6686:6687   */\n      0x00\n        /* \"#utility.yul\":6675:6684   */\n      dup4\n        /* \"#utility.yul\":6671:6688   */\n      add\n        /* \"#utility.yul\":6664:6711   */\n      mstore\n        /* \"#utility.yul\":6728:6859   */\n      tag_321\n        /* \"#utility.yul\":6854:6858   */\n      dup2\n        /* \"#utility.yul\":6728:6859   */\n      tag_218\n      jump\t// in\n    tag_321:\n        /* \"#utility.yul\":6720:6859   */\n      swap1\n      pop\n        /* \"#utility.yul\":6447:6866   */\n      swap2\n      swap1\n      pop\n      jump\t// out\n        /* \"#utility.yul\":6872:7044   */\n    tag_219:\n        /* \"#utility.yul\":7012:7036   */\n      0x4e756c6c696669657220616c7265616479207573656400000000000000000000\n        /* \"#utility.yul\":7008:7009   */\n      0x00\n        /* \"#utility.yul\":7000:7006   */\n      dup3\n        /* \"#utility.yul\":6996:7010   */\n      add\n        /* \"#utility.yul\":6989:7037   */\n      mstore\n        /* \"#utility.yul\":6872:7044   */\n      pop\n      jump\t// out\n        /* \"#utility.yul\":7050:7416   */\n    tag_220:\n        /* \"#utility.yul\":7192:7195   */\n      0x00\n        /* \"#utility.yul\":7213:7280   */\n      tag_324\n        /* \"#utility.yul\":7277:7279   */\n      0x16\n        /* \"#utility.yul\":7272:7275   */\n      dup4\n        /* \"#utility.yul\":7213:7280   */\n      tag_216\n      jump\t// in\n    tag_324:\n        /* \"#utility.yul\":7206:7280   */\n      swap2\n      pop\n        /* \"#utility.yul\":7289:7382   */\n      tag_325\n        /* \"#utility.yul\":7378:7381   */\n      dup3\n        /* \"#utility.yul\":7289:7382   */\n      tag_219\n      jump\t// in\n    tag_325:\n        /* \"#utility.yul\":7407:7409   */\n      0x20\n        /* \"#utility.yul\":7402:7405   */\n      dup3\n        /* \"#utility.yul\":7398:7410   */\n      add\n        /* \"#utility.yul\":7391:7410   */\n      swap1\n      pop\n        /* \"#utility.yul\":7050:7416   */\n      swap2\n      swap1\n      pop\n      jump\t// out\n        /* \"#utility.yul\":7422:7841   */\n    tag_91:\n        /* \"#utility.yul\":7588:7592   */\n      0x00\n        /* \"#utility.yul\":7626:7628   */\n      0x20\n        /* \"#utility.yul\":7615:7624   */\n      dup3\n        /* \"#utility.yul\":7611:7629   */\n      add\n        /* \"#utility.yul\":7603:7629   */\n      swap1\n      pop\n        /* \"#utility.yul\":7675:7684   */\n      dup2\n        /* \"#utility.yul\":7669:7673   */\n      dup2\n        /* \"#utility.yul\":7665:7685   */\n      sub\n        /* \"#utility.yul\":7661:7662   */\n      0x00\n        /* \"#utility.yul\":7650:7659   */\n      dup4\n        /* \"#utility.yul\":7646:7663   */\n      add\n        /* \"#utility.yul\":7639:7686   */\n      mstore\n        /* \"#utility.yul\":7703:7834   */\n      tag_327\n        /* \"#utility.yul\":7829:7833   */\n      dup2\n        /* \"#utility.yul\":7703:7834   */\n      tag_220\n      jump\t// in\n    tag_327:\n        /* \"#utility.yul\":7695:7834   */\n      swap1\n      pop\n        /* \"#utility.yul\":7422:7841   */\n      swap2\n      swap1\n      pop\n      jump\t// out\n        /* \"#utility.yul\":7847:7959   */\n    tag_221:\n        /* \"#utility.yul\":7925:7930   */\n      0x00\n        /* \"#utility.yul\":7950:7953   */\n      dup3\n        /* \"#utility.yul\":7941:7953   */\n      swap1\n      pop\n        /* \"#utility.yul\":7847:7959   */\n      swap3\n      swap2\n      pop\n      pop\n      jump\t// out\n        /* \"#utility.yul\":7965:8087   */\n    tag_222:\n        /* \"#utility.yul\":8017:8022   */\n      0x00\n        /* \"#utility.yul\":8042:8081   */\n      tag_330\n        /* \"#utility.yul\":8077:8079   */\n      0x20\n        /* \"#utility.yul\":8072:8075   */\n      dup5\n        /* \"#utility.yul\":8068:8080   */\n      add\n        /* \"#utility.yul\":8063:8066   */\n      dup5\n        /* \"#utility.yul\":8042:8081   */\n      tag_205\n      jump\t// in\n    tag_330:\n        /* \"#utility.yul\":8033:8081   */\n      swap1\n      pop\n        /* \"#utility.yul\":7965:8087   */\n      swap3\n      swap2\n      pop\n      pop\n      jump\t// out\n        /* \"#utility.yul\":8093:8201   */\n    tag_223:\n        /* \"#utility.yul\":8170:8194   */\n      tag_332\n        /* \"#utility.yul\":8188:8193   */\n      dup2\n        /* \"#utility.yul\":8170:8194   */\n      tag_195\n      jump\t// in\n    tag_332:\n        /* \"#utility.yul\":8165:8168   */\n      dup3\n        /* \"#utility.yul\":8158:8195   */\n      mstore\n        /* \"#utility.yul\":8093:8201   */\n      pop\n      pop\n      jump\t// out\n        /* \"#utility.yul\":8247:8792   */\n    tag_224:\n        /* \"#utility.yul\":8384:8388   */\n      0x40\n        /* \"#utility.yul\":8379:8382   */\n      dup3\n        /* \"#utility.yul\":8375:8389   */\n      add\n        /* \"#utility.yul\":8451:8501   */\n      tag_334\n        /* \"#utility.yul\":8495:8499   */\n      0x00\n        /* \"#utility.yul\":8488:8493   */\n      dup4\n        /* \"#utility.yul\":8484:8500   */\n      add\n        /* \"#utility.yul\":8477:8482   */\n      dup4\n        /* \"#utility.yul\":8451:8501   */\n      tag_222\n      jump\t// in\n    tag_334:\n        /* \"#utility.yul\":8514:8577   */\n      tag_335\n        /* \"#utility.yul\":8571:8575   */\n      0x00\n        /* \"#utility.yul\":8566:8569   */\n      dup6\n        /* \"#utility.yul\":8562:8576   */\n      add\n        /* \"#utility.yul\":8548:8560   */\n      dup3\n        /* \"#utility.yul\":8514:8577   */\n      tag_223\n      jump\t// in\n    tag_335:\n        /* \"#utility.yul\":8399:8587   */\n      pop\n        /* \"#utility.yul\":8649:8699   */\n      tag_336\n        /* \"#utility.yul\":8693:8697   */\n      0x20\n        /* \"#utility.yul\":8686:8691   */\n      dup4\n        /* \"#utility.yul\":8682:8698   */\n      add\n        /* \"#utility.yul\":8675:8680   */\n      dup4\n        /* \"#utility.yul\":8649:8699   */\n      tag_222\n      jump\t// in\n    tag_336:\n        /* \"#utility.yul\":8712:8775   */\n      tag_337\n        /* \"#utility.yul\":8769:8773   */\n      0x20\n        /* \"#utility.yul\":8764:8767   */\n      dup6\n        /* \"#utility.yul\":8760:8774   */\n      add\n        /* \"#utility.yul\":8746:8758   */\n      dup3\n        /* \"#utility.yul\":8712:8775   */\n      tag_223\n      jump\t// in\n    tag_337:\n        /* \"#utility.yul\":8597:8785   */\n      pop\n        /* \"#utility.yul\":8353:8792   */\n      pop\n        /* \"#utility.yul\":8247:8792   */\n      pop\n      pop\n      jump\t// out\n        /* \"#utility.yul\":8798:8910   */\n    tag_225:\n        /* \"#utility.yul\":8876:8881   */\n      0x00\n        /* \"#utility.yul\":8901:8904   */\n      dup3\n        /* \"#utility.yul\":8892:8904   */\n      swap1\n      pop\n        /* \"#utility.yul\":8798:8910   */\n      swap3\n      swap2\n      pop\n      pop\n      jump\t// out\n        /* \"#utility.yul\":8916:9027   */\n    tag_226:\n        /* \"#utility.yul\":8993:8998   */\n      0x00\n        /* \"#utility.yul\":9018:9021   */\n      dup3\n        /* \"#utility.yul\":9009:9021   */\n      swap1\n      pop\n        /* \"#utility.yul\":8916:9027   */\n      swap3\n      swap2\n      pop\n      pop\n      jump\t// out\n        /* \"#utility.yul\":9033:9132   */\n    tag_227:\n        /* \"#utility.yul\":9118:9124   */\n      dup3\n        /* \"#utility.yul\":9113:9116   */\n      dup2\n        /* \"#utility.yul\":9108:9111   */\n      dup4\n        /* \"#utility.yul\":9095:9125   */\n      calldatacopy\n        /* \"#utility.yul\":9033:9132   */\n      pop\n      pop\n      pop\n      jump\t// out\n        /* \"#utility.yul\":9170:9330   */\n    tag_228:\n        /* \"#utility.yul\":9283:9324   */\n      tag_342\n        /* \"#utility.yul\":9319:9323   */\n      0x40\n        /* \"#utility.yul\":9314:9317   */\n      dup4\n        /* \"#utility.yul\":9307:9312   */\n      dup4\n        /* \"#utility.yul\":9283:9324   */\n      tag_227\n      jump\t// in\n    tag_342:\n        /* \"#utility.yul\":9170:9330   */\n      pop\n      pop\n      jump\t// out\n        /* \"#utility.yul\":9376:10067   */\n    tag_229:\n        /* \"#utility.yul\":9513:9517   */\n      0x80\n        /* \"#utility.yul\":9508:9511   */\n      dup3\n        /* \"#utility.yul\":9504:9518   */\n      add\n        /* \"#utility.yul\":9580:9655   */\n      tag_344\n        /* \"#utility.yul\":9649:9653   */\n      0x00\n        /* \"#utility.yul\":9642:9647   */\n      dup4\n        /* \"#utility.yul\":9638:9654   */\n      add\n        /* \"#utility.yul\":9631:9636   */\n      dup4\n        /* \"#utility.yul\":9580:9655   */\n      tag_226\n      jump\t// in\n    tag_344:\n        /* \"#utility.yul\":9668:9779   */\n      tag_345\n        /* \"#utility.yul\":9773:9777   */\n      0x00\n        /* \"#utility.yul\":9768:9771   */\n      dup6\n        /* \"#utility.yul\":9764:9778   */\n      add\n        /* \"#utility.yul\":9750:9762   */\n      dup3\n        /* \"#utility.yul\":9668:9779   */\n      tag_228\n      jump\t// in\n    tag_345:\n        /* \"#utility.yul\":9528:9789   */\n      pop\n        /* \"#utility.yul\":9851:9926   */\n      tag_346\n        /* \"#utility.yul\":9920:9924   */\n      0x40\n        /* \"#utility.yul\":9913:9918   */\n      dup4\n        /* \"#utility.yul\":9909:9925   */\n      add\n        /* \"#utility.yul\":9902:9907   */\n      dup4\n        /* \"#utility.yul\":9851:9926   */\n      tag_226\n      jump\t// in\n    tag_346:\n        /* \"#utility.yul\":9939:10050   */\n      tag_347\n        /* \"#utility.yul\":10044:10048   */\n      0x40\n        /* \"#utility.yul\":10039:10042   */\n      dup6\n        /* \"#utility.yul\":10035:10049   */\n      add\n        /* \"#utility.yul\":10021:10033   */\n      dup3\n        /* \"#utility.yul\":9939:10050   */\n      tag_228\n      jump\t// in\n    tag_347:\n        /* \"#utility.yul\":9799:10060   */\n      pop\n        /* \"#utility.yul\":9482:10067   */\n      pop\n        /* \"#utility.yul\":9376:10067   */\n      pop\n      pop\n      jump\t// out\n        /* \"#utility.yul\":10109:11088   */\n    tag_230:\n        /* \"#utility.yul\":10252:10258   */\n      0x0100\n        /* \"#utility.yul\":10247:10250   */\n      dup3\n        /* \"#utility.yul\":10243:10259   */\n      add\n        /* \"#utility.yul\":10321:10397   */\n      tag_349\n        /* \"#utility.yul\":10391:10395   */\n      0x00\n        /* \"#utility.yul\":10384:10389   */\n      dup4\n        /* \"#utility.yul\":10380:10396   */\n      add\n        /* \"#utility.yul\":10373:10378   */\n      dup4\n        /* \"#utility.yul\":10321:10397   */\n      tag_221\n      jump\t// in\n    tag_349:\n        /* \"#utility.yul\":10410:10523   */\n      tag_350\n        /* \"#utility.yul\":10517:10521   */\n      0x00\n        /* \"#utility.yul\":10512:10515   */\n      dup6\n        /* \"#utility.yul\":10508:10522   */\n      add\n        /* \"#utility.yul\":10494:10506   */\n      dup3\n        /* \"#utility.yul\":10410:10523   */\n      tag_224\n      jump\t// in\n    tag_350:\n        /* \"#utility.yul\":10269:10533   */\n      pop\n        /* \"#utility.yul\":10595:10671   */\n      tag_351\n        /* \"#utility.yul\":10665:10669   */\n      0x40\n        /* \"#utility.yul\":10658:10663   */\n      dup4\n        /* \"#utility.yul\":10654:10670   */\n      add\n        /* \"#utility.yul\":10647:10652   */\n      dup4\n        /* \"#utility.yul\":10595:10671   */\n      tag_225\n      jump\t// in\n    tag_351:\n        /* \"#utility.yul\":10684:10797   */\n      tag_352\n        /* \"#utility.yul\":10791:10795   */\n      0x40\n        /* \"#utility.yul\":10786:10789   */\n      dup6\n        /* \"#utility.yul\":10782:10796   */\n      add\n        /* \"#utility.yul\":10768:10780   */\n      dup3\n        /* \"#utility.yul\":10684:10797   */\n      tag_229\n      jump\t// in\n    tag_352:\n        /* \"#utility.yul\":10543:10807   */\n      pop\n        /* \"#utility.yul\":10869:10945   */\n      tag_353\n        /* \"#utility.yul\":10939:10943   */\n      0xc0\n        /* \"#utility.yul\":10932:10937   */\n      dup4\n        /* \"#utility.yul\":10928:10944   */\n      add\n        /* \"#utility.yul\":10921:10926   */\n      dup4\n        /* \"#utility.yul\":10869:10945   */\n      tag_221\n      jump\t// in\n    tag_353:\n        /* \"#utility.yul\":10958:11071   */\n      tag_354\n        /* \"#utility.yul\":11065:11069   */\n      0xc0\n        /* \"#utility.yul\":11060:11063   */\n      dup6\n        /* \"#utility.yul\":11056:11070   */\n      add\n        /* \"#utility.yul\":11042:11054   */\n      dup3\n        /* \"#utility.yul\":10958:11071   */\n      tag_224\n      jump\t// in\n    tag_354:\n        /* \"#utility.yul\":10817:11081   */\n      pop\n        /* \"#utility.yul\":10221:11088   */\n      pop\n        /* \"#utility.yul\":10109:11088   */\n      pop\n      pop\n      jump\t// out\n        /* \"#utility.yul\":11094:11199   */\n    tag_231:\n        /* \"#utility.yul\":11160:11166   */\n      0x00\n        /* \"#utility.yul\":11188:11192   */\n      0x0c\n        /* \"#utility.yul\":11178:11192   */\n      swap1\n      pop\n        /* \"#utility.yul\":11094:11199   */\n      swap2\n      swap1\n      pop\n      jump\t// out\n        /* \"#utility.yul\":11205:11349   */\n    tag_232:\n        /* \"#utility.yul\":11303:11314   */\n      0x00\n        /* \"#utility.yul\":11340:11343   */\n      dup2\n        /* \"#utility.yul\":11325:11343   */\n      swap1\n      pop\n        /* \"#utility.yul\":11205:11349   */\n      swap3\n      swap2\n      pop\n      pop\n      jump\t// out\n        /* \"#utility.yul\":11355:11454   */\n    tag_233:\n        /* \"#utility.yul\":11421:11425   */\n      0x00\n        /* \"#utility.yul\":11444:11447   */\n      dup2\n        /* \"#utility.yul\":11436:11447   */\n      swap1\n      pop\n        /* \"#utility.yul\":11355:11454   */\n      swap2\n      swap1\n      pop\n      jump\t// out\n        /* \"#utility.yul\":11460:11639   */\n    tag_234:\n        /* \"#utility.yul\":11529:11539   */\n      0x00\n        /* \"#utility.yul\":11550:11596   */\n      tag_359\n        /* \"#utility.yul\":11592:11595   */\n      dup4\n        /* \"#utility.yul\":11584:11590   */\n      dup4\n        /* \"#utility.yul\":11550:11596   */\n      tag_223\n      jump\t// in\n    tag_359:\n        /* \"#utility.yul\":11628:11632   */\n      0x20\n        /* \"#utility.yul\":11623:11626   */\n      dup4\n        /* \"#utility.yul\":11619:11633   */\n      add\n        /* \"#utility.yul\":11605:11633   */\n      swap1\n      pop\n        /* \"#utility.yul\":11460:11639   */\n      swap3\n      swap2\n      pop\n      pop\n      jump\t// out\n        /* \"#utility.yul\":11645:11757   */\n    tag_235:\n        /* \"#utility.yul\":11714:11718   */\n      0x00\n        /* \"#utility.yul\":11746:11750   */\n      0x20\n        /* \"#utility.yul\":11741:11744   */\n      dup3\n        /* \"#utility.yul\":11737:11751   */\n      add\n        /* \"#utility.yul\":11729:11751   */\n      swap1\n      pop\n        /* \"#utility.yul\":11645:11757   */\n      swap2\n      swap1\n      pop\n      jump\t// out\n        /* \"#utility.yul\":11797:12497   */\n    tag_236:\n        /* \"#utility.yul\":11935:11988   */\n      tag_362\n        /* \"#utility.yul\":11982:11987   */\n      dup2\n        /* \"#utility.yul\":11935:11988   */\n      tag_231\n      jump\t// in\n    tag_362:\n        /* \"#utility.yul\":12004:12089   */\n      tag_363\n        /* \"#utility.yul\":12082:12088   */\n      dup2\n        /* \"#utility.yul\":12077:12080   */\n      dup5\n        /* \"#utility.yul\":12004:12089   */\n      tag_232\n      jump\t// in\n    tag_363:\n        /* \"#utility.yul\":11997:12089   */\n      swap3\n      pop\n        /* \"#utility.yul\":12113:12168   */\n      tag_364\n        /* \"#utility.yul\":12162:12167   */\n      dup3\n        /* \"#utility.yul\":12113:12168   */\n      tag_233\n      jump\t// in\n    tag_364:\n        /* \"#utility.yul\":12191:12198   */\n      dup1\n        /* \"#utility.yul\":12222:12223   */\n      0x00\n        /* \"#utility.yul\":12207:12490   */\n    tag_365:\n        /* \"#utility.yul\":12232:12238   */\n      dup4\n        /* \"#utility.yul\":12229:12230   */\n      dup2\n        /* \"#utility.yul\":12226:12239   */\n      lt\n        /* \"#utility.yul\":12207:12490   */\n      iszero\n      tag_367\n      jumpi\n        /* \"#utility.yul\":12308:12314   */\n      dup2\n        /* \"#utility.yul\":12302:12315   */\n      mload\n        /* \"#utility.yul\":12335:12398   */\n      tag_368\n        /* \"#utility.yul\":12394:12397   */\n      dup8\n        /* \"#utility.yul\":12379:12392   */\n      dup3\n        /* \"#utility.yul\":12335:12398   */\n      tag_234\n      jump\t// in\n    tag_368:\n        /* \"#utility.yul\":12328:12398   */\n      swap7\n      pop\n        /* \"#utility.yul\":12421:12480   */\n      tag_369\n        /* \"#utility.yul\":12473:12479   */\n      dup4\n        /* \"#utility.yul\":12421:12480   */\n      tag_235\n      jump\t// in\n    tag_369:\n        /* \"#utility.yul\":12411:12480   */\n      swap3\n      pop\n        /* \"#utility.yul\":12267:12490   */\n      pop\n        /* \"#utility.yul\":12254:12255   */\n      0x01\n        /* \"#utility.yul\":12251:12252   */\n      dup2\n        /* \"#utility.yul\":12247:12256   */\n      add\n        /* \"#utility.yul\":12242:12256   */\n      swap1\n      pop\n        /* \"#utility.yul\":12207:12490   */\n      jump(tag_365)\n    tag_367:\n        /* \"#utility.yul\":12211:12225   */\n      pop\n        /* \"#utility.yul\":11911:12497   */\n      pop\n      pop\n      pop\n        /* \"#utility.yul\":11797:12497   */\n      pop\n      pop\n      jump\t// out\n        /* \"#utility.yul\":12503:13025   */\n    tag_93:\n        /* \"#utility.yul\":12718:12722   */\n      0x00\n        /* \"#utility.yul\":12756:12759   */\n      0x0280\n        /* \"#utility.yul\":12745:12754   */\n      dup3\n        /* \"#utility.yul\":12741:12760   */\n      add\n        /* \"#utility.yul\":12733:12760   */\n      swap1\n      pop\n        /* \"#utility.yul\":12770:12887   */\n      tag_371\n        /* \"#utility.yul\":12884:12885   */\n      0x00\n        /* \"#utility.yul\":12873:12882   */\n      dup4\n        /* \"#utility.yul\":12869:12886   */\n      add\n        /* \"#utility.yul\":12860:12866   */\n      dup6\n        /* \"#utility.yul\":12770:12887   */\n      tag_230\n      jump\t// in\n    tag_371:\n        /* \"#utility.yul\":12897:13018   */\n      tag_372\n        /* \"#utility.yul\":13013:13016   */\n      0x0100\n        /* \"#utility.yul\":13002:13011   */\n      dup4\n        /* \"#utility.yul\":12998:13017   */\n      add\n        /* \"#utility.yul\":12989:12995   */\n      dup5\n        /* \"#utility.yul\":12897:13018   */\n      tag_236\n      jump\t// in\n    tag_372:\n        /* \"#utility.yul\":12503:13025   */\n      swap4\n      swap3\n      pop\n      pop\n      pop\n      jump\t// out\n        /* \"#utility.yul\":13031:13147   */\n    tag_237:\n        /* \"#utility.yul\":13101:13122   */\n      tag_374\n        /* \"#utility.yul\":13116:13121   */\n      dup2\n        /* \"#utility.yul\":13101:13122   */\n      tag_206\n      jump\t// in\n    tag_374:\n        /* \"#utility.yul\":13094:13099   */\n      dup2\n        /* \"#utility.yul\":13091:13123   */\n      eq\n        /* \"#utility.yul\":13081:13141   */\n      tag_375\n      jumpi\n        /* \"#utility.yul\":13137:13138   */\n      0x00\n        /* \"#utility.yul\":13134:13135   */\n      0x00\n        /* \"#utility.yul\":13127:13139   */\n      revert\n        /* \"#utility.yul\":13081:13141   */\n    tag_375:\n        /* \"#utility.yul\":13031:13147   */\n      pop\n      jump\t// out\n        /* \"#utility.yul\":13153:13290   */\n    tag_238:\n        /* \"#utility.yul\":13207:13212   */\n      0x00\n        /* \"#utility.yul\":13238:13244   */\n      dup2\n        /* \"#utility.yul\":13232:13245   */\n      mload\n        /* \"#utility.yul\":13223:13245   */\n      swap1\n      pop\n        /* \"#utility.yul\":13254:13284   */\n      tag_377\n        /* \"#utility.yul\":13278:13283   */\n      dup2\n        /* \"#utility.yul\":13254:13284   */\n      tag_237\n      jump\t// in\n    tag_377:\n        /* \"#utility.yul\":13153:13290   */\n      swap3\n      swap2\n      pop\n      pop\n      jump\t// out\n        /* \"#utility.yul\":13296:13641   */\n    tag_97:\n        /* \"#utility.yul\":13363:13369   */\n      0x00\n        /* \"#utility.yul\":13412:13414   */\n      0x20\n        /* \"#utility.yul\":13400:13409   */\n      dup3\n        /* \"#utility.yul\":13391:13398   */\n      dup5\n        /* \"#utility.yul\":13387:13410   */\n      sub\n        /* \"#utility.yul\":13383:13415   */\n      slt\n        /* \"#utility.yul\":13380:13499   */\n      iszero\n      tag_379\n      jumpi\n        /* \"#utility.yul\":13418:13497   */\n      tag_380\n      tag_198\n      jump\t// in\n    tag_380:\n        /* \"#utility.yul\":13380:13499   */\n    tag_379:\n        /* \"#utility.yul\":13538:13539   */\n      0x00\n        /* \"#utility.yul\":13563:13624   */\n      tag_381\n        /* \"#utility.yul\":13616:13623   */\n      dup5\n        /* \"#utility.yul\":13607:13613   */\n      dup3\n        /* \"#utility.yul\":13596:13605   */\n      dup6\n        /* \"#utility.yul\":13592:13614   */\n      add\n        /* \"#utility.yul\":13563:13624   */\n      tag_238\n      jump\t// in\n    tag_381:\n        /* \"#utility.yul\":13553:13624   */\n      swap2\n      pop\n        /* \"#utility.yul\":13509:13634   */\n      pop\n        /* \"#utility.yul\":13296:13641   */\n      swap3\n      swap2\n      pop\n      pop\n      jump\t// out\n        /* \"#utility.yul\":13647:13815   */\n    tag_239:\n        /* \"#utility.yul\":13787:13807   */\n      0x496e76616c696420766f74652070726f6f660000000000000000000000000000\n        /* \"#utility.yul\":13783:13784   */\n      0x00\n        /* \"#utility.yul\":13775:13781   */\n      dup3\n        /* \"#utility.yul\":13771:13785   */\n      add\n        /* \"#utility.yul\":13764:13808   */\n      mstore\n        /* \"#utility.yul\":13647:13815   */\n      pop\n      jump\t// out\n        /* \"#utility.yul\":13821:14187   */\n    tag_240:\n        /* \"#utility.yul\":13963:13966   */\n      0x00\n        /* \"#utility.yul\":13984:14051   */\n      tag_384\n        /* \"#utility.yul\":14048:14050   */\n      0x12\n        /* \"#utility.yul\":14043:14046   */\n      dup4\n        /* \"#utility.yul\":13984:14051   */\n      tag_216\n      jump\t// in\n    tag_384:\n        /* \"#utility.yul\":13977:14051   */\n      swap2\n      pop\n        /* \"#utility.yul\":14060:14153   */\n      tag_385\n        /* \"#utility.yul\":14149:14152   */\n      dup3\n        /* \"#utility.yul\":14060:14153   */\n      tag_239\n      jump\t// in\n    tag_385:\n        /* \"#utility.yul\":14178:14180   */\n      0x20\n        /* \"#utility.yul\":14173:14176   */\n      dup3\n        /* \"#utility.yul\":14169:14181   */\n      add\n        /* \"#utility.yul\":14162:14181   */\n      swap1\n      pop\n        /* \"#utility.yul\":13821:14187   */\n      swap2\n      swap1\n      pop\n      jump\t// out\n        /* \"#utility.yul\":14193:14612   */\n    tag_100:\n        /* \"#utility.yul\":14359:14363   */\n      0x00\n        /* \"#utility.yul\":14397:14399   */\n      0x20\n        /* \"#utility.yul\":14386:14395   */\n      dup3\n        /* \"#utility.yul\":14382:14400   */\n      add\n        /* \"#utility.yul\":14374:14400   */\n      swap1\n      pop\n        /* \"#utility.yul\":14446:14455   */\n      dup2\n        /* \"#utility.yul\":14440:14444   */\n      dup2\n        /* \"#utility.yul\":14436:14456   */\n      sub\n        /* \"#utility.yul\":14432:14433   */\n      0x00\n        /* \"#utility.yul\":14421:14430   */\n      dup4\n        /* \"#utility.yul\":14417:14434   */\n      add\n        /* \"#utility.yul\":14410:14457   */\n      mstore\n        /* \"#utility.yul\":14474:14605   */\n      tag_387\n        /* \"#utility.yul\":14600:14604   */\n      dup2\n        /* \"#utility.yul\":14474:14605   */\n      tag_240\n      jump\t// in\n    tag_387:\n        /* \"#utility.yul\":14466:14605   */\n      swap1\n      pop\n        /* \"#utility.yul\":14193:14612   */\n      swap2\n      swap1\n      pop\n      jump\t// out\n        /* \"#utility.yul\":14618:14798   */\n    tag_241:\n        /* \"#utility.yul\":14666:14743   */\n      0x4e487b7100000000000000000000000000000000000000000000000000000000\n        /* \"#utility.yul\":14663:14664   */\n      0x00\n        /* \"#utility.yul\":14656:14744   */\n      mstore\n        /* \"#utility.yul\":14763:14767   */\n      0x11\n        /* \"#utility.yul\":14760:14761   */\n      0x04\n        /* \"#utility.yul\":14753:14768   */\n      mstore\n        /* \"#utility.yul\":14787:14791   */\n      0x24\n        /* \"#utility.yul\":14784:14785   */\n      0x00\n        /* \"#utility.yul\":14777:14792   */\n      revert\n        /* \"#utility.yul\":14804:14995   */\n    tag_113:\n        /* \"#utility.yul\":14844:14847   */\n      0x00\n        /* \"#utility.yul\":14863:14883   */\n      tag_390\n        /* \"#utility.yul\":14881:14882   */\n      dup3\n        /* \"#utility.yul\":14863:14883   */\n      tag_195\n      jump\t// in\n    tag_390:\n        /* \"#utility.yul\":14858:14883   */\n      swap2\n      pop\n        /* \"#utility.yul\":14897:14917   */\n      tag_391\n        /* \"#utility.yul\":14915:14916   */\n      dup4\n        /* \"#utility.yul\":14897:14917   */\n      tag_195\n      jump\t// in\n    tag_391:\n        /* \"#utility.yul\":14892:14917   */\n      swap3\n      pop\n        /* \"#utility.yul\":14940:14941   */\n      dup3\n        /* \"#utility.yul\":14937:14938   */\n      dup3\n        /* \"#utility.yul\":14933:14942   */\n      add\n        /* \"#utility.yul\":14926:14942   */\n      swap1\n      pop\n        /* \"#utility.yul\":14961:14964   */\n      dup1\n        /* \"#utility.yul\":14958:14959   */\n      dup3\n        /* \"#utility.yul\":14955:14965   */\n      gt\n        /* \"#utility.yul\":14952:14988   */\n      iszero\n      tag_392\n      jumpi\n        /* \"#utility.yul\":14968:14986   */\n      tag_393\n      tag_241\n      jump\t// in\n    tag_393:\n        /* \"#utility.yul\":14952:14988   */\n    tag_392:\n        /* \"#utility.yul\":14804:14995   */\n      swap3\n      swap2\n      pop\n      pop\n      jump\t// out\n        /* \"#utility.yul\":15033:15203   */\n    tag_242:\n        /* \"#utility.yul\":15156:15197   */\n      tag_395\n        /* \"#utility.yul\":15192:15196   */\n      0x40\n        /* \"#utility.yul\":15187:15190   */\n      dup4\n        /* \"#utility.yul\":15180:15185   */\n      dup4\n        /* \"#utility.yul\":15156:15197   */\n      tag_227\n      jump\t// in\n    tag_395:\n        /* \"#utility.yul\":15033:15203   */\n      pop\n      pop\n      jump\t// out\n        /* \"#utility.yul\":15209:15845   */\n    tag_115:\n        /* \"#utility.yul\":15454:15458   */\n      0x00\n        /* \"#utility.yul\":15492:15495   */\n      0xa0\n        /* \"#utility.yul\":15481:15490   */\n      dup3\n        /* \"#utility.yul\":15477:15496   */\n      add\n        /* \"#utility.yul\":15469:15496   */\n      swap1\n      pop\n        /* \"#utility.yul\":15506:15625   */\n      tag_397\n        /* \"#utility.yul\":15622:15623   */\n      0x00\n        /* \"#utility.yul\":15611:15620   */\n      dup4\n        /* \"#utility.yul\":15607:15624   */\n      add\n        /* \"#utility.yul\":15598:15604   */\n      dup7\n        /* \"#utility.yul\":15506:15625   */\n      tag_242\n      jump\t// in\n    tag_397:\n        /* \"#utility.yul\":15635:15755   */\n      tag_398\n        /* \"#utility.yul\":15751:15753   */\n      0x40\n        /* \"#utility.yul\":15740:15749   */\n      dup4\n        /* \"#utility.yul\":15736:15754   */\n      add\n        /* \"#utility.yul\":15727:15733   */\n      dup6\n        /* \"#utility.yul\":15635:15755   */\n      tag_242\n      jump\t// in\n    tag_398:\n        /* \"#utility.yul\":15765:15838   */\n      tag_399\n        /* \"#utility.yul\":15833:15836   */\n      0x80\n        /* \"#utility.yul\":15822:15831   */\n      dup4\n        /* \"#utility.yul\":15818:15837   */\n      add\n        /* \"#utility.yul\":15809:15815   */\n      dup5\n        /* \"#utility.yul\":15765:15838   */\n      tag_196\n      jump\t// in\n    tag_399:\n        /* \"#utility.yul\":15209:15845   */\n      swap5\n      swap4\n      pop\n      pop\n      pop\n      pop\n      jump\t// out\n        /* \"#utility.yul\":15851:16011   */\n    tag_243:\n        /* \"#utility.yul\":15991:16003   */\n      0x4f6e6c79206f776e657200000000000000000000000000000000000000000000\n        /* \"#utility.yul\":15987:15988   */\n      0x00\n        /* \"#utility.yul\":15979:15985   */\n      dup3\n        /* \"#utility.yul\":15975:15989   */\n      add\n        /* \"#utility.yul\":15968:16004   */\n      mstore\n        /* \"#utility.yul\":15851:16011   */\n      pop\n      jump\t// out\n        /* \"#utility.yul\":16017:16383   */\n    tag_244:\n        /* \"#utility.yul\":16159:16162   */\n      0x00\n        /* \"#utility.yul\":16180:16247   */\n      tag_402\n        /* \"#utility.yul\":16244:16246   */\n      0x0a\n        /* \"#utility.yul\":16239:16242   */\n      dup4\n        /* \"#utility.yul\":16180:16247   */\n      tag_216\n      jump\t// in\n    tag_402:\n        /* \"#utility.yul\":16173:16247   */\n      swap2\n      pop\n        /* \"#utility.yul\":16256:16349   */\n      tag_403\n        /* \"#utility.yul\":16345:16348   */\n      dup3\n        /* \"#utility.yul\":16256:16349   */\n      tag_243\n      jump\t// in\n    tag_403:\n        /* \"#utility.yul\":16374:16376   */\n      0x20\n        /* \"#utility.yul\":16369:16372   */\n      dup3\n        /* \"#utility.yul\":16365:16377   */\n      add\n        /* \"#utility.yul\":16358:16377   */\n      swap1\n      pop\n        /* \"#utility.yul\":16017:16383   */\n      swap2\n      swap1\n      pop\n      jump\t// out\n        /* \"#utility.yul\":16389:16808   */\n    tag_119:\n        /* \"#utility.yul\":16555:16559   */\n      0x00\n        /* \"#utility.yul\":16593:16595   */\n      0x20\n        /* \"#utility.yul\":16582:16591   */\n      dup3\n        /* \"#utility.yul\":16578:16596   */\n      add\n        /* \"#utility.yul\":16570:16596   */\n      swap1\n      pop\n        /* \"#utility.yul\":16642:16651   */\n      dup2\n        /* \"#utility.yul\":16636:16640   */\n      dup2\n        /* \"#utility.yul\":16632:16652   */\n      sub\n        /* \"#utility.yul\":16628:16629   */\n      0x00\n        /* \"#utility.yul\":16617:16626   */\n      dup4\n        /* \"#utility.yul\":16613:16630   */\n      add\n        /* \"#utility.yul\":16606:16653   */\n      mstore\n        /* \"#utility.yul\":16670:16801   */\n      tag_405\n        /* \"#utility.yul\":16796:16800   */\n      dup2\n        /* \"#utility.yul\":16670:16801   */\n      tag_244\n      jump\t// in\n    tag_405:\n        /* \"#utility.yul\":16662:16801   */\n      swap1\n      pop\n        /* \"#utility.yul\":16389:16808   */\n      swap2\n      swap1\n      pop\n      jump\t// out\n        /* \"#utility.yul\":16814:16978   */\n    tag_245:\n        /* \"#utility.yul\":16954:16970   */\n      0x416c726561647920636c6f736564000000000000000000000000000000000000\n        /* \"#utility.yul\":16950:16951   */\n      0x00\n        /* \"#utility.yul\":16942:16948   */\n      dup3\n        /* \"#utility.yul\":16938:16952   */\n      add\n        /* \"#utility.yul\":16931:16971   */\n      mstore\n        /* \"#utility.yul\":16814:16978   */\n      pop\n      jump\t// out\n        /* \"#utility.yul\":16984:17350   */\n    tag_246:\n        /* \"#utility.yul\":17126:17129   */\n      0x00\n        /* \"#utility.yul\":17147:17214   */\n      tag_408\n        /* \"#utility.yul\":17211:17213   */\n      0x0e\n        /* \"#utility.yul\":17206:17209   */\n      dup4\n        /* \"#utility.yul\":17147:17214   */\n      tag_216\n      jump\t// in\n    tag_408:\n        /* \"#utility.yul\":17140:17214   */\n      swap2\n      pop\n        /* \"#utility.yul\":17223:17316   */\n      tag_409\n        /* \"#utility.yul\":17312:17315   */\n      dup3\n        /* \"#utility.yul\":17223:17316   */\n      tag_245\n      jump\t// in\n    tag_409:\n        /* \"#utility.yul\":17341:17343   */\n      0x20\n        /* \"#utility.yul\":17336:17339   */\n      dup3\n        /* \"#utility.yul\":17332:17344   */\n      add\n        /* \"#utility.yul\":17325:17344   */\n      swap1\n      pop\n        /* \"#utility.yul\":16984:17350   */\n      swap2\n      swap1\n      pop\n      jump\t// out\n        /* \"#utility.yul\":17356:17775   */\n    tag_122:\n        /* \"#utility.yul\":17522:17526   */\n      0x00\n        /* \"#utility.yul\":17560:17562   */\n      0x20\n        /* \"#utility.yul\":17549:17558   */\n      dup3\n        /* \"#utility.yul\":17545:17563   */\n      add\n        /* \"#utility.yul\":17537:17563   */\n      swap1\n      pop\n        /* \"#utility.yul\":17609:17618   */\n      dup2\n        /* \"#utility.yul\":17603:17607   */\n      dup2\n        /* \"#utility.yul\":17599:17619   */\n      sub\n        /* \"#utility.yul\":17595:17596   */\n      0x00\n        /* \"#utility.yul\":17584:17593   */\n      dup4\n        /* \"#utility.yul\":17580:17597   */\n      add\n        /* \"#utility.yul\":17573:17620   */\n      mstore\n        /* \"#utility.yul\":17637:17768   */\n      tag_411\n        /* \"#utility.yul\":17763:17767   */\n      dup2\n        /* \"#utility.yul\":17637:17768   */\n      tag_246\n      jump\t// in\n    tag_411:\n        /* \"#utility.yul\":17629:17768   */\n      swap1\n      pop\n        /* \"#utility.yul\":17356:17775   */\n      swap2\n      swap1\n      pop\n      jump\t// out\n        /* \"#utility.yul\":17781:17950   */\n    tag_247:\n        /* \"#utility.yul\":17921:17942   */\n      0x456c656374696f6e207374696c6c206f70656e00000000000000000000000000\n        /* \"#utility.yul\":17917:17918   */\n      0x00\n        /* \"#utility.yul\":17909:17915   */\n      dup3\n        /* \"#utility.yul\":17905:17919   */\n      add\n        /* \"#utility.yul\":17898:17943   */\n      mstore\n        /* \"#utility.yul\":17781:17950   */\n      pop\n      jump\t// out\n        /* \"#utility.yul\":17956:18322   */\n    tag_248:\n        /* \"#utility.yul\":18098:18101   */\n      0x00\n        /* \"#utility.yul\":18119:18186   */\n      tag_414\n        /* \"#utility.yul\":18183:18185   */\n      0x13\n        /* \"#utility.yul\":18178:18181   */\n      dup4\n        /* \"#utility.yul\":18119:18186   */\n      tag_216\n      jump\t// in\n    tag_414:\n        /* \"#utility.yul\":18112:18186   */\n      swap2\n      pop\n        /* \"#utility.yul\":18195:18288   */\n      tag_415\n        /* \"#utility.yul\":18284:18287   */\n      dup3\n        /* \"#utility.yul\":18195:18288   */\n      tag_247\n      jump\t// in\n    tag_415:\n        /* \"#utility.yul\":18313:18315   */\n      0x20\n        /* \"#utility.yul\":18308:18311   */\n      dup3\n        /* \"#utility.yul\":18304:18316   */\n      add\n        /* \"#utility.yul\":18297:18316   */\n      swap1\n      pop\n        /* \"#utility.yul\":17956:18322   */\n      swap2\n      swap1\n      pop\n      jump\t// out\n        /* \"#utility.yul\":18328:18747   */\n    tag_128:\n        /* \"#utility.yul\":18494:18498   */\n      0x00\n        /* \"#utility.yul\":18532:18534   */\n      0x20\n        /* \"#utility.yul\":18521:18530   */\n      dup3\n        /* \"#utility.yul\":18517:18535   */\n      add\n        /* \"#utility.yul\":18509:18535   */\n      swap1\n      pop\n        /* \"#utility.yul\":18581:18590   */\n      dup2\n        /* \"#utility.yul\":18575:18579   */\n      dup2\n        /* \"#utility.yul\":18571:18591   */\n      sub\n        /* \"#utility.yul\":18567:18568   */\n      0x00\n        /* \"#utility.yul\":18556:18565   */\n      dup4\n        /* \"#utility.yul\":18552:18569   */\n      add\n        /* \"#utility.yul\":18545:18592   */\n      mstore\n        /* \"#utility.yul\":18609:18740   */\n      tag_417\n        /* \"#utility.yul\":18735:18739   */\n      dup2\n        /* \"#utility.yul\":18609:18740   */\n      tag_248\n      jump\t// in\n    tag_417:\n        /* \"#utility.yul\":18601:18740   */\n      swap1\n      pop\n        /* \"#utility.yul\":18328:18747   */\n      swap2\n      swap1\n      pop\n      jump\t// out\n        /* \"#utility.yul\":18753:18924   */\n    tag_249:\n        /* \"#utility.yul\":18893:18916   */\n      0x496e76616c6964207265636f756e742070726f6f660000000000000000000000\n        /* \"#utility.yul\":18889:18890   */\n      0x00\n        /* \"#utility.yul\":18881:18887   */\n      dup3\n        /* \"#utility.yul\":18877:18891   */\n      add\n        /* \"#utility.yul\":18870:18917   */\n      mstore\n        /* \"#utility.yul\":18753:18924   */\n      pop\n      jump\t// out\n        /* \"#utility.yul\":18930:19296   */\n    tag_250:\n        /* \"#utility.yul\":19072:19075   */\n      0x00\n        /* \"#utility.yul\":19093:19160   */\n      tag_420\n        /* \"#utility.yul\":19157:19159   */\n      0x15\n        /* \"#utility.yul\":19152:19155   */\n      dup4\n        /* \"#utility.yul\":19093:19160   */\n      tag_216\n      jump\t// in\n    tag_420:\n        /* \"#utility.yul\":19086:19160   */\n      swap2\n      pop\n        /* \"#utility.yul\":19169:19262   */\n      tag_421\n        /* \"#utility.yul\":19258:19261   */\n      dup3\n        /* \"#utility.yul\":19169:19262   */\n      tag_249\n      jump\t// in\n    tag_421:\n        /* \"#utility.yul\":19287:19289   */\n      0x20\n        /* \"#utility.yul\":19282:19285   */\n      dup3\n        /* \"#utility.yul\":19278:19290   */\n      add\n        /* \"#utility.yul\":19271:19290   */\n      swap1\n      pop\n        /* \"#utility.yul\":18930:19296   */\n      swap2\n      swap1\n      pop\n      jump\t// out\n        /* \"#utility.yul\":19302:19721   */\n    tag_146:\n        /* \"#utility.yul\":19468:19472   */\n      0x00\n        /* \"#utility.yul\":19506:19508   */\n      0x20\n        /* \"#utility.yul\":19495:19504   */\n      dup3\n        /* \"#utility.yul\":19491:19509   */\n      add\n        /* \"#utility.yul\":19483:19509   */\n      swap1\n      pop\n        /* \"#utility.yul\":19555:19564   */\n      dup2\n        /* \"#utility.yul\":19549:19553   */\n      dup2\n        /* \"#utility.yul\":19545:19565   */\n      sub\n        /* \"#utility.yul\":19541:19542   */\n      0x00\n        /* \"#utility.yul\":19530:19539   */\n      dup4\n        /* \"#utility.yul\":19526:19543   */\n      add\n        /* \"#utility.yul\":19519:19566   */\n      mstore\n        /* \"#utility.yul\":19583:19714   */\n      tag_423\n        /* \"#utility.yul\":19709:19713   */\n      dup2\n        /* \"#utility.yul\":19583:19714   */\n      tag_250\n      jump\t// in\n    tag_423:\n        /* \"#utility.yul\":19575:19714   */\n      swap1\n      pop\n        /* \"#utility.yul\":19302:19721   */\n      swap2\n      swap1\n      pop\n      jump\t// out\n        /* \"#utility.yul\":19727:19907   */\n    tag_155:\n        /* \"#utility.yul\":19775:19852   */\n      0x4e487b7100000000000000000000000000000000000000000000000000000000\n        /* \"#utility.yul\":19772:19773   */\n      0x00\n        /* \"#utility.yul\":19765:19853   */\n      mstore\n        /* \"#utility.yul\":19872:19876   */\n      0x12\n        /* \"#utility.yul\":19869:19870   */\n      0x04\n        /* \"#utility.yul\":19862:19877   */\n      mstore\n        /* \"#utility.yul\":19896:19900   */\n      0x24\n        /* \"#utility.yul\":19893:19894   */\n      0x00\n        /* \"#utility.yul\":19886:19901   */\n      revert\n        /* \"#utility.yul\":19913:20107   */\n    tag_188:\n        /* \"#utility.yul\":19953:19957   */\n      0x00\n        /* \"#utility.yul\":19973:19993   */\n      tag_426\n        /* \"#utility.yul\":19991:19992   */\n      dup3\n        /* \"#utility.yul\":19973:19993   */\n      tag_195\n      jump\t// in\n    tag_426:\n        /* \"#utility.yul\":19968:19993   */\n      swap2\n      pop\n        /* \"#utility.yul\":20007:20027   */\n      tag_427\n        /* \"#utility.yul\":20025:20026   */\n      dup4\n        /* \"#utility.yul\":20007:20027   */\n      tag_195\n      jump\t// in\n    tag_427:\n        /* \"#utility.yul\":20002:20027   */\n      swap3\n      pop\n        /* \"#utility.yul\":20051:20052   */\n      dup3\n        /* \"#utility.yul\":20048:20049   */\n      dup3\n        /* \"#utility.yul\":20044:20053   */\n      sub\n        /* \"#utility.yul\":20036:20053   */\n      swap1\n      pop\n        /* \"#utility.yul\":20075:20076   */\n      dup2\n        /* \"#utility.yul\":20069:20073   */\n      dup2\n        /* \"#utility.yul\":20066:20077   */\n      gt\n        /* \"#utility.yul\":20063:20100   */\n      iszero\n      tag_428\n      jumpi\n        /* \"#utility.yul\":20080:20098   */\n      tag_429\n      tag_241\n      jump\t// in\n    tag_429:\n        /* \"#utility.yul\":20063:20100   */\n    tag_428:\n        /* \"#utility.yul\":19913:20107   */\n      swap3\n      swap2\n      pop\n      pop\n      jump\t// out\n\n    auxdata: 0xa2646970667358221220ab7fc38244a5790dbae607fedb26e3f644da34c30207605e83b8bf77c0423e7d64736f6c634300081e0033\n}\n",
				"bytecode": {
					"linkReferences": {},
					"object": "608060405234801561000f575f5ffd5b506040516119543803806119548339818101604052810190610031919061018d565b335f5f6101000a81548173ffffffffffffffffffffffffffffffffffffffff021916908373ffffffffffffffffffffffffffffffffffffffff16021790555060015f60146101000a81548160ff0219169083151502179055508160075f6101000a81548173ffffffffffffffffffffffffffffffffffffffff021916908373ffffffffffffffffffffffffffffffffffffffff1602179055508060085f6101000a81548173ffffffffffffffffffffffffffffffffffffffff021916908373ffffffffffffffffffffffffffffffffffffffff1602179055505f60018190555060016002819055505f600381905550600160048190555050506101cb565b5f5ffd5b5f73ffffffffffffffffffffffffffffffffffffffff82169050919050565b5f61015c82610133565b9050919050565b61016c81610152565b8114610176575f5ffd5b50565b5f8151905061018781610163565b92915050565b5f5f604083850312156101a3576101a261012f565b5b5f6101b085828601610179565b92505060206101c185828601610179565b9150509250929050565b61177c806101d85f395ff3fe608060405234801561000f575f5ffd5b50600436106100cd575f3560e01c806379f95ee91161008a5780638da5cb5b116100645780638da5cb5b146101db57806399d74c71146101f9578063bf0516f214610217578063e63aa8fb14610235576100cd565b806379f95ee91461016f578063827861991461019f57806387dde0be146101bd576100cd565b80630e7d490d146100d15780632353d3aa146100ef5780634a39d4421461010b5780634d139763146101295780636c6c32d01461014757806375f11da114610151575b5f5ffd5b6100d9610251565b6040516100e69190610e89565b60405180910390f35b61010960048036038101906101049190610f18565b610257565b005b610113610603565b6040516101209190610f9a565b60405180910390f35b610131610615565b60405161013e9190610e89565b60405180910390f35b61014f61061b565b005b61015961073e565b6040516101669190610e89565b60405180910390f35b61018960048036038101906101849190610fb3565b610744565b6040516101969190610f9a565b60405180910390f35b6101a7610761565b6040516101b49190610e89565b60405180910390f35b6101c5610767565b6040516101d29190610e89565b60405180910390f35b6101e361076d565b6040516101f0919061101d565b60405180910390f35b610201610791565b60405161020e9190611091565b60405180910390f35b61021f6107b6565b60405161022c9190611091565b60405180910390f35b61024f600480360381019061024a91906110aa565b6107db565b005b60055481565b61025f610e4e565b835f60028110610272576102716110e9565b5b6020020135815f600c811061028a576102896110e9565b5b602002018181525050836001600281106102a7576102a66110e9565b5b6020020135816001600c81106102c0576102bf6110e9565b5b602002018181525050825f600281106102dc576102db6110e9565b5b6020020135816002600c81106102f5576102f46110e9565b5b60200201818152505082600160028110610312576103116110e9565b5b6020020135816003600c811061032b5761032a6110e9565b5b60200201818152505081816004600c8110610349576103486110e9565b5b6020020181815250505f60149054906101000a900460ff166103a0576040517f08c379a000000000000000000000000000000000000000000000000000000000815260040161039790611170565b60405180910390fd5b60065f8381526020019081526020015f205f9054906101000a900460ff16156103fe576040517f08c379a00000000000000000000000000000000000000000000000000000000081526004016103f5906111d8565b60405180910390fd5b5f60075f9054906101000a900473ffffffffffffffffffffffffffffffffffffffff1673ffffffffffffffffffffffffffffffffffffffff16636667059987846040518363ffffffff1660e01b815260040161045b9291906113bb565b602060405180830381865afa158015610476573d5f5f3e3d5ffd5b505050506040513d601f19601f8201168201806040525081019061049a919061140e565b9050806104dc576040517f08c379a00000000000000000000000000000000000000000000000000000000081526004016104d390611483565b60405180910390fd5b600160065f8581526020019081526020015f205f6101000a81548160ff021916908315150217905550610544600154600254875f60028110610521576105206110e9565b5b60200201358860016002811061053a576105396110e9565b5b6020020135610a78565b60015f60025f849190505583919050555050610595600354600454865f60028110610572576105716110e9565b5b60200201358760016002811061058b5761058a6110e9565b5b6020020135610a78565b60035f60045f849190505583919050555050600160055f8282546105b991906114ce565b925050819055507f08e06ca7e757dcec7c8019011a586c5d97abb6f8e892dc4fe53d5fbfacd0cc728585856040516105f393929190611511565b60405180910390a1505050505050565b5f60149054906101000a900460ff1681565b60015481565b5f5f9054906101000a900473ffffffffffffffffffffffffffffffffffffffff1673ffffffffffffffffffffffffffffffffffffffff163373ffffffffffffffffffffffffffffffffffffffff16146106a9576040517f08c379a00000000000000000000000000000000000000000000000000000000081526004016106a090611590565b60405180910390fd5b5f60149054906101000a900460ff166106f7576040517f08c379a00000000000000000000000000000000000000000000000000000000081526004016106ee906115f8565b60405180910390fd5b5f5f60146101000a81548160ff0219169083151502179055507fa549b9addfc3693a1863ac5b0b13c42960d78df554c01ea6ac72a7db985df0cf60405160405180910390a1565b60025481565b6006602052805f5260405f205f915054906101000a900460ff1681565b60035481565b60045481565b5f5f9054906101000a900473ffffffffffffffffffffffffffffffffffffffff1681565b60075f9054906101000a900473ffffffffffffffffffffffffffffffffffffffff1681565b60085f9054906101000a900473ffffffffffffffffffffffffffffffffffffffff1681565b5f5f9054906101000a900473ffffffffffffffffffffffffffffffffffffffff1673ffffffffffffffffffffffffffffffffffffffff163373ffffffffffffffffffffffffffffffffffffffff1614610869576040517f08c379a000000000000000000000000000000000000000000000000000000000815260040161086090611590565b60405180910390fd5b5f60149054906101000a900460ff16156108b8576040517f08c379a00000000000000000000000000000000000000000000000000000000081526004016108af90611660565b60405180910390fd5b6108c0610e4e565b600154815f600c81106108d6576108d56110e9565b5b602002018181525050600254816001600c81106108f6576108f56110e9565b5b602002018181525050600354816002600c8110610916576109156110e9565b5b602002018181525050600454816003600c8110610936576109356110e9565b5b60200201818152505082816004600c8110610954576109536110e9565b5b6020020181815250505f60085f9054906101000a900473ffffffffffffffffffffffffffffffffffffffff1673ffffffffffffffffffffffffffffffffffffffff16636667059984846040518363ffffffff1660e01b81526004016109ba9291906113bb565b602060405180830381865afa1580156109d5573d5f5f3e3d5ffd5b505050506040513d601f19601f820116820180604052508101906109f9919061140e565b905080610a3b576040517f08c379a0000000000000000000000000000000000000000000000000000000008152600401610a32906116c8565b60405180910390fd5b7fee088bcc4c9bbd048c9c087916ec26aae94e63151610af8167078ef170e5ae6084604051610a6a9190610e89565b60405180910390a150505050565b5f5f5f86148015610a8857505f85145b15610a9857838391509150610d5d565b5f84148015610aa657505f85145b15610ab657858591509150610d5d565b5f7f30644e72e131a029b85045b68181585d2833e84879b9709143e1f593f000000180610ae657610ae56116e6565b5b85880990505f7f30644e72e131a029b85045b68181585d2833e84879b9709143e1f593f000000180610b1b57610b1a6116e6565b5b85880990505f7f30644e72e131a029b85045b68181585d2833e84879b9709143e1f593f000000180610b5057610b4f6116e6565b5b7f30644e72e131a029b85045b68181585d2833e84879b9709143e1f593f000000180610b7f57610b7e6116e6565b5b838509620292f80990505f7f30644e72e131a029b85045b68181585d2833e84879b9709143e1f593f000000180610bb957610bb86116e6565b5b7f30644e72e131a029b85045b68181585d2833e84879b9709143e1f593f000000180610be857610be76116e6565b5b898b097f30644e72e131a029b85045b68181585d2833e84879b9709143e1f593f000000180610c1a57610c196116e6565b5b898d090890505f610c80847f30644e72e131a029b85045b68181585d2833e84879b9709143e1f593f000000180610c5457610c536116e6565b5b87620292fc097f30644e72e131a029b85045b68181585d2833e84879b9709143e1f593f0000001610d66565b90507f30644e72e131a029b85045b68181585d2833e84879b9709143e1f593f000000180610cb157610cb06116e6565b5b610cec7f30644e72e131a029b85045b68181585d2833e84879b9709143e1f593f000000180610ce357610ce26116e6565b5b85600108610da8565b830996507f30644e72e131a029b85045b68181585d2833e84879b9709143e1f593f000000180610d1f57610d1e6116e6565b5b610d53610d4e6001867f30644e72e131a029b85045b68181585d2833e84879b9709143e1f593f0000001610d66565b610da8565b8209955050505050505b94509492505050565b5f5f849050838511610d81578281610d7e91906114ce565b90505b8280610d9057610d8f6116e6565b5b5f8583610d9d9190611713565b089150509392505050565b5f610e008260027f30644e72e131a029b85045b68181585d2833e84879b9709143e1f593f0000001610dda9190611713565b7f30644e72e131a029b85045b68181585d2833e84879b9709143e1f593f0000001610e07565b9050919050565b5f60405160208152602080820152602060408201528460608201528360808201528260a082015260208160c08360055afa80610e41575f5ffd5b8151925050509392505050565b604051806101800160405280600c90602082028036833780820191505090505090565b5f819050919050565b610e8381610e71565b82525050565b5f602082019050610e9c5f830184610e7a565b92915050565b5f5ffd5b5f5ffd5b5f6101008284031215610ec057610ebf610ea6565b5b81905092915050565b5f5ffd5b5f81905082602060020282011115610ee857610ee7610ec9565b5b92915050565b610ef781610e71565b8114610f01575f5ffd5b50565b5f81359050610f1281610eee565b92915050565b5f5f5f5f6101a08587031215610f3157610f30610ea2565b5b5f610f3e87828801610eaa565b945050610100610f5087828801610ecd565b935050610140610f6287828801610ecd565b925050610180610f7487828801610f04565b91505092959194509250565b5f8115159050919050565b610f9481610f80565b82525050565b5f602082019050610fad5f830184610f8b565b92915050565b5f60208284031215610fc857610fc7610ea2565b5b5f610fd584828501610f04565b91505092915050565b5f73ffffffffffffffffffffffffffffffffffffffff82169050919050565b5f61100782610fde565b9050919050565b61101781610ffd565b82525050565b5f6020820190506110305f83018461100e565b92915050565b5f819050919050565b5f61105961105461104f84610fde565b611036565b610fde565b9050919050565b5f61106a8261103f565b9050919050565b5f61107b82611060565b9050919050565b61108b81611071565b82525050565b5f6020820190506110a45f830184611082565b92915050565b5f5f61012083850312156110c1576110c0610ea2565b5b5f6110ce85828601610f04565b92505060206110df85828601610eaa565b9150509250929050565b7f4e487b71000000000000000000000000000000000000000000000000000000005f52603260045260245ffd5b5f82825260208201905092915050565b7f456c656374696f6e20636c6f73656400000000000000000000000000000000005f82015250565b5f61115a600f83611116565b915061116582611126565b602082019050919050565b5f6020820190508181035f8301526111878161114e565b9050919050565b7f4e756c6c696669657220616c72656164792075736564000000000000000000005f82015250565b5f6111c2601683611116565b91506111cd8261118e565b602082019050919050565b5f6020820190508181035f8301526111ef816111b6565b9050919050565b5f82905092915050565b5f61120e6020840184610f04565b905092915050565b61121f81610e71565b82525050565b604082016112355f830183611200565b6112415f850182611216565b5061124f6020830183611200565b61125c6020850182611216565b50505050565b5f82905092915050565b5f82905092915050565b82818337505050565b61128b60408383611276565b5050565b6080820161129f5f83018361126c565b6112ab5f85018261127f565b506112b9604083018361126c565b6112c6604085018261127f565b50505050565b61010082016112dd5f8301836111f6565b6112e95f850182611225565b506112f76040830183611262565b611304604085018261128f565b5061131260c08301836111f6565b61131f60c0850182611225565b50505050565b5f600c9050919050565b5f81905092915050565b5f819050919050565b5f61134d8383611216565b60208301905092915050565b5f602082019050919050565b61136e81611325565b611378818461132f565b925061138382611339565b805f5b838110156113b357815161139a8782611342565b96506113a583611359565b925050600181019050611386565b505050505050565b5f610280820190506113cf5f8301856112cc565b6113dd610100830184611365565b9392505050565b6113ed81610f80565b81146113f7575f5ffd5b50565b5f81519050611408816113e4565b92915050565b5f6020828403121561142357611422610ea2565b5b5f611430848285016113fa565b91505092915050565b7f496e76616c696420766f74652070726f6f6600000000000000000000000000005f82015250565b5f61146d601283611116565b915061147882611439565b602082019050919050565b5f6020820190508181035f83015261149a81611461565b9050919050565b7f4e487b71000000000000000000000000000000000000000000000000000000005f52601160045260245ffd5b5f6114d882610e71565b91506114e383610e71565b92508282019050808211156114fb576114fa6114a1565b5b92915050565b61150d60408383611276565b5050565b5f60a0820190506115245f830186611501565b6115316040830185611501565b61153e6080830184610e7a565b949350505050565b7f4f6e6c79206f776e6572000000000000000000000000000000000000000000005f82015250565b5f61157a600a83611116565b915061158582611546565b602082019050919050565b5f6020820190508181035f8301526115a78161156e565b9050919050565b7f416c726561647920636c6f7365640000000000000000000000000000000000005f82015250565b5f6115e2600e83611116565b91506115ed826115ae565b602082019050919050565b5f6020820190508181035f83015261160f816115d6565b9050919050565b7f456c656374696f6e207374696c6c206f70656e000000000000000000000000005f82015250565b5f61164a601383611116565b915061165582611616565b602082019050919050565b5f6020820190508181035f8301526116778161163e565b9050919050565b7f496e76616c6964207265636f756e742070726f6f6600000000000000000000005f82015250565b5f6116b2601583611116565b91506116bd8261167e565b602082019050919050565b5f6020820190508181035f8301526116df816116a6565b9050919050565b7f4e487b71000000000000000000000000000000000000000000000000000000005f52601260045260245ffd5b5f61171d82610e71565b915061172883610e71565b92508282039050818111156117405761173f6114a1565b5b9291505056fea2646970667358221220ab7fc38244a5790dbae607fedb26e3f644da34c30207605e83b8bf77c0423e7d64736f6c634300081e0033",
					"opcodes": "PUSH1 0x80 PUSH1 0x40 MSTORE CALLVALUE DUP1 ISZERO PUSH2 0xF JUMPI PUSH0 PUSH0 REVERT JUMPDEST POP PUSH1 0x40 MLOAD PUSH2 0x1954 CODESIZE SUB DUP1 PUSH2 0x1954 DUP4 CODECOPY DUP2 DUP2 ADD PUSH1 0x40 MSTORE DUP2 ADD SWAP1 PUSH2 0x31 SWAP2 SWAP1 PUSH2 0x18D JUMP JUMPDEST CALLER PUSH0 PUSH0 PUSH2 0x100 EXP DUP2 SLOAD DUP2 PUSH20 0xFFFFFFFFFFFFFFFFFFFFFFFFFFFFFFFFFFFFFFFF MUL NOT AND SWAP1 DUP4 PUSH20 0xFFFFFFFFFFFFFFFFFFFFFFFFFFFFFFFFFFFFFFFF AND MUL OR SWAP1 SSTORE POP PUSH1 0x1 PUSH0 PUSH1 0x14 PUSH2 0x100 EXP DUP2 SLOAD DUP2 PUSH1 0xFF MUL NOT AND SWAP1 DUP4 ISZERO ISZERO MUL OR SWAP1 SSTORE POP DUP2 PUSH1 0x7 PUSH0 PUSH2 0x100 EXP DUP2 SLOAD DUP2 PUSH20 0xFFFFFFFFFFFFFFFFFFFFFFFFFFFFFFFFFFFFFFFF MUL NOT AND SWAP1 DUP4 PUSH20 0xFFFFFFFFFFFFFFFFFFFFFFFFFFFFFFFFFFFFFFFF AND MUL OR SWAP1 SSTORE POP DUP1 PUSH1 0x8 PUSH0 PUSH2 0x100 EXP DUP2 SLOAD DUP2 PUSH20 0xFFFFFFFFFFFFFFFFFFFFFFFFFFFFFFFFFFFFFFFF MUL NOT AND SWAP1 DUP4 PUSH20 0xFFFFFFFFFFFFFFFFFFFFFFFFFFFFFFFFFFFFFFFF AND MUL OR SWAP1 SSTORE POP PUSH0 PUSH1 0x1 DUP2 SWAP1 SSTORE POP PUSH1 0x1 PUSH1 0x2 DUP2 SWAP1 SSTORE POP PUSH0 PUSH1 0x3 DUP2 SWAP1 SSTORE POP PUSH1 0x1 PUSH1 0x4 DUP2 SWAP1 SSTORE POP POP POP PUSH2 0x1CB JUMP JUMPDEST PUSH0 PUSH0 REVERT JUMPDEST PUSH0 PUSH20 0xFFFFFFFFFFFFFFFFFFFFFFFFFFFFFFFFFFFFFFFF DUP3 AND SWAP1 POP SWAP2 SWAP1 POP JUMP JUMPDEST PUSH0 PUSH2 0x15C DUP3 PUSH2 0x133 JUMP JUMPDEST SWAP1 POP SWAP2 SWAP1 POP JUMP JUMPDEST PUSH2 0x16C DUP2 PUSH2 0x152 JUMP JUMPDEST DUP2 EQ PUSH2 0x176 JUMPI PUSH0 PUSH0 REVERT JUMPDEST POP JUMP JUMPDEST PUSH0 DUP2 MLOAD SWAP1 POP PUSH2 0x187 DUP2 PUSH2 0x163 JUMP JUMPDEST SWAP3 SWAP2 POP POP JUMP JUMPDEST PUSH0 PUSH0 PUSH1 0x40 DUP4 DUP6 SUB SLT ISZERO PUSH2 0x1A3 JUMPI PUSH2 0x1A2 PUSH2 0x12F JUMP JUMPDEST JUMPDEST PUSH0 PUSH2 0x1B0 DUP6 DUP3 DUP7 ADD PUSH2 0x179 JUMP JUMPDEST SWAP3 POP POP PUSH1 0x20 PUSH2 0x1C1 DUP6 DUP3 DUP7 ADD PUSH2 0x179 JUMP JUMPDEST SWAP2 POP POP SWAP3 POP SWAP3 SWAP1 POP JUMP JUMPDEST PUSH2 0x177C DUP1 PUSH2 0x1D8 PUSH0 CODECOPY PUSH0 RETURN INVALID PUSH1 0x80 PUSH1 0x40 MSTORE CALLVALUE DUP1 ISZERO PUSH2 0xF JUMPI PUSH0 PUSH0 REVERT JUMPDEST POP PUSH1 0x4 CALLDATASIZE LT PUSH2 0xCD JUMPI PUSH0 CALLDATALOAD PUSH1 0xE0 SHR DUP1 PUSH4 0x79F95EE9 GT PUSH2 0x8A JUMPI DUP1 PUSH4 0x8DA5CB5B GT PUSH2 0x64 JUMPI DUP1 PUSH4 0x8DA5CB5B EQ PUSH2 0x1DB JUMPI DUP1 PUSH4 0x99D74C71 EQ PUSH2 0x1F9 JUMPI DUP1 PUSH4 0xBF0516F2 EQ PUSH2 0x217 JUMPI DUP1 PUSH4 0xE63AA8FB EQ PUSH2 0x235 JUMPI PUSH2 0xCD JUMP JUMPDEST DUP1 PUSH4 0x79F95EE9 EQ PUSH2 0x16F JUMPI DUP1 PUSH4 0x82786199 EQ PUSH2 0x19F JUMPI DUP1 PUSH4 0x87DDE0BE EQ PUSH2 0x1BD JUMPI PUSH2 0xCD JUMP JUMPDEST DUP1 PUSH4 0xE7D490D EQ PUSH2 0xD1 JUMPI DUP1 PUSH4 0x2353D3AA EQ PUSH2 0xEF JUMPI DUP1 PUSH4 0x4A39D442 EQ PUSH2 0x10B JUMPI DUP1 PUSH4 0x4D139763 EQ PUSH2 0x129 JUMPI DUP1 PUSH4 0x6C6C32D0 EQ PUSH2 0x147 JUMPI DUP1 PUSH4 0x75F11DA1 EQ PUSH2 0x151 JUMPI JUMPDEST PUSH0 PUSH0 REVERT JUMPDEST PUSH2 0xD9 PUSH2 0x251 JUMP JUMPDEST PUSH1 0x40 MLOAD PUSH2 0xE6 SWAP2 SWAP1 PUSH2 0xE89 JUMP JUMPDEST PUSH1 0x40 MLOAD DUP1 SWAP2 SUB SWAP1 RETURN JUMPDEST PUSH2 0x109 PUSH1 0x4 DUP1 CALLDATASIZE SUB DUP2 ADD SWAP1 PUSH2 0x104 SWAP2 SWAP1 PUSH2 0xF18 JUMP JUMPDEST PUSH2 0x257 JUMP JUMPDEST STOP JUMPDEST PUSH2 0x113 PUSH2 0x603 JUMP JUMPDEST PUSH1 0x40 MLOAD PUSH2 0x120 SWAP2 SWAP1 PUSH2 0xF9A JUMP JUMPDEST PUSH1 0x40 MLOAD DUP1 SWAP2 SUB SWAP1 RETURN JUMPDEST PUSH2 0x131 PUSH2 0x615 JUMP JUMPDEST PUSH1 0x40 MLOAD PUSH2 0x13E SWAP2 SWAP1 PUSH2 0xE89 JUMP JUMPDEST PUSH1 0x40 MLOAD DUP1 SWAP2 SUB SWAP1 RETURN JUMPDEST PUSH2 0x14F PUSH2 0x61B JUMP JUMPDEST STOP JUMPDEST PUSH2 0x159 PUSH2 0x73E JUMP JUMPDEST PUSH1 0x40 MLOAD PUSH2 0x166 SWAP2 SWAP1 PUSH2 0xE89 JUMP JUMPDEST PUSH1 0x40 MLOAD DUP1 SWAP2 SUB SWAP1 RETURN JUMPDEST PUSH2 0x189 PUSH1 0x4 DUP1 CALLDATASIZE SUB DUP2 ADD SWAP1 PUSH2 0x184 SWAP2 SWAP1 PUSH2 0xFB3 JUMP JUMPDEST PUSH2 0x744 JUMP JUMPDEST PUSH1 0x40 MLOAD PUSH2 0x196 SWAP2 SWAP1 PUSH2 0xF9A JUMP JUMPDEST PUSH1 0x40 MLOAD DUP1 SWAP2 SUB SWAP1 RETURN JUMPDEST PUSH2 0x1A7 PUSH2 0x761 JUMP JUMPDEST PUSH1 0x40 MLOAD PUSH2 0x1B4 SWAP2 SWAP1 PUSH2 0xE89 JUMP JUMPDEST PUSH1 0x40 MLOAD DUP1 SWAP2 SUB SWAP1 RETURN JUMPDEST PUSH2 0x1C5 PUSH2 0x767 JUMP JUMPDEST PUSH1 0x40 MLOAD PUSH2 0x1D2 SWAP2 SWAP1 PUSH2 0xE89 JUMP JUMPDEST PUSH1 0x40 MLOAD DUP1 SWAP2 SUB SWAP1 RETURN JUMPDEST PUSH2 0x1E3 PUSH2 0x76D JUMP JUMPDEST PUSH1 0x40 MLOAD PUSH2 0x1F0 SWAP2 SWAP1 PUSH2 0x101D JUMP JUMPDEST PUSH1 0x40 MLOAD DUP1 SWAP2 SUB SWAP1 RETURN JUMPDEST PUSH2 0x201 PUSH2 0x791 JUMP JUMPDEST PUSH1 0x40 MLOAD PUSH2 0x20E SWAP2 SWAP1 PUSH2 0x1091 JUMP JUMPDEST PUSH1 0x40 MLOAD DUP1 SWAP2 SUB SWAP1 RETURN JUMPDEST PUSH2 0x21F PUSH2 0x7B6 JUMP JUMPDEST PUSH1 0x40 MLOAD PUSH2 0x22C SWAP2 SWAP1 PUSH2 0x1091 JUMP JUMPDEST PUSH1 0x40 MLOAD DUP1 SWAP2 SUB SWAP1 RETURN JUMPDEST PUSH2 0x24F PUSH1 0x4 DUP1 CALLDATASIZE SUB DUP2 ADD SWAP1 PUSH2 0x24A SWAP2 SWAP1 PUSH2 0x10AA JUMP JUMPDEST PUSH2 0x7DB JUMP JUMPDEST STOP JUMPDEST PUSH1 0x5 SLOAD DUP2 JUMP JUMPDEST PUSH2 0x25F PUSH2 0xE4E JUMP JUMPDEST DUP4 PUSH0 PUSH1 0x2 DUP2 LT PUSH2 0x272 JUMPI PUSH2 0x271 PUSH2 0x10E9 JUMP JUMPDEST JUMPDEST PUSH1 0x20 MUL ADD CALLDATALOAD DUP2 PUSH0 PUSH1 0xC DUP2 LT PUSH2 0x28A JUMPI PUSH2 0x289 PUSH2 0x10E9 JUMP JUMPDEST JUMPDEST PUSH1 0x20 MUL ADD DUP2 DUP2 MSTORE POP POP DUP4 PUSH1 0x1 PUSH1 0x2 DUP2 LT PUSH2 0x2A7 JUMPI PUSH2 0x2A6 PUSH2 0x10E9 JUMP JUMPDEST JUMPDEST PUSH1 0x20 MUL ADD CALLDATALOAD DUP2 PUSH1 0x1 PUSH1 0xC DUP2 LT PUSH2 0x2C0 JUMPI PUSH2 0x2BF PUSH2 0x10E9 JUMP JUMPDEST JUMPDEST PUSH1 0x20 MUL ADD DUP2 DUP2 MSTORE POP POP DUP3 PUSH0 PUSH1 0x2 DUP2 LT PUSH2 0x2DC JUMPI PUSH2 0x2DB PUSH2 0x10E9 JUMP JUMPDEST JUMPDEST PUSH1 0x20 MUL ADD CALLDATALOAD DUP2 PUSH1 0x2 PUSH1 0xC DUP2 LT PUSH2 0x2F5 JUMPI PUSH2 0x2F4 PUSH2 0x10E9 JUMP JUMPDEST JUMPDEST PUSH1 0x20 MUL ADD DUP2 DUP2 MSTORE POP POP DUP3 PUSH1 0x1 PUSH1 0x2 DUP2 LT PUSH2 0x312 JUMPI PUSH2 0x311 PUSH2 0x10E9 JUMP JUMPDEST JUMPDEST PUSH1 0x20 MUL ADD CALLDATALOAD DUP2 PUSH1 0x3 PUSH1 0xC DUP2 LT PUSH2 0x32B JUMPI PUSH2 0x32A PUSH2 0x10E9 JUMP JUMPDEST JUMPDEST PUSH1 0x20 MUL ADD DUP2 DUP2 MSTORE POP POP DUP2 DUP2 PUSH1 0x4 PUSH1 0xC DUP2 LT PUSH2 0x349 JUMPI PUSH2 0x348 PUSH2 0x10E9 JUMP JUMPDEST JUMPDEST PUSH1 0x20 MUL ADD DUP2 DUP2 MSTORE POP POP PUSH0 PUSH1 0x14 SWAP1 SLOAD SWAP1 PUSH2 0x100 EXP SWAP1 DIV PUSH1 0xFF AND PUSH2 0x3A0 JUMPI PUSH1 0x40 MLOAD PUSH32 0x8C379A000000000000000000000000000000000000000000000000000000000 DUP2 MSTORE PUSH1 0x4 ADD PUSH2 0x397 SWAP1 PUSH2 0x1170 JUMP JUMPDEST PUSH1 0x40 MLOAD DUP1 SWAP2 SUB SWAP1 REVERT JUMPDEST PUSH1 0x6 PUSH0 DUP4 DUP2 MSTORE PUSH1 0x20 ADD SWAP1 DUP2 MSTORE PUSH1 0x20 ADD PUSH0 KECCAK256 PUSH0 SWAP1 SLOAD SWAP1 PUSH2 0x100 EXP SWAP1 DIV PUSH1 0xFF AND ISZERO PUSH2 0x3FE JUMPI PUSH1 0x40 MLOAD PUSH32 0x8C379A000000000000000000000000000000000000000000000000000000000 DUP2 MSTORE PUSH1 0x4 ADD PUSH2 0x3F5 SWAP1 PUSH2 0x11D8 JUMP JUMPDEST PUSH1 0x40 MLOAD DUP1 SWAP2 SUB SWAP1 REVERT JUMPDEST PUSH0 PUSH1 0x7 PUSH0 SWAP1 SLOAD SWAP1 PUSH2 0x100 EXP SWAP1 DIV PUSH20 0xFFFFFFFFFFFFFFFFFFFFFFFFFFFFFFFFFFFFFFFF AND PUSH20 0xFFFFFFFFFFFFFFFFFFFFFFFFFFFFFFFFFFFFFFFF AND PUSH4 0x66670599 DUP8 DUP5 PUSH1 0x40 MLOAD DUP4 PUSH4 0xFFFFFFFF AND PUSH1 0xE0 SHL DUP2 MSTORE PUSH1 0x4 ADD PUSH2 0x45B SWAP3 SWAP2 SWAP1 PUSH2 0x13BB JUMP JUMPDEST PUSH1 0x20 PUSH1 0x40 MLOAD DUP1 DUP4 SUB DUP2 DUP7 GAS STATICCALL ISZERO DUP1 ISZERO PUSH2 0x476 JUMPI RETURNDATASIZE PUSH0 PUSH0 RETURNDATACOPY RETURNDATASIZE PUSH0 REVERT JUMPDEST POP POP POP POP PUSH1 0x40 MLOAD RETURNDATASIZE PUSH1 0x1F NOT PUSH1 0x1F DUP3 ADD AND DUP3 ADD DUP1 PUSH1 0x40 MSTORE POP DUP2 ADD SWAP1 PUSH2 0x49A SWAP2 SWAP1 PUSH2 0x140E JUMP JUMPDEST SWAP1 POP DUP1 PUSH2 0x4DC JUMPI PUSH1 0x40 MLOAD PUSH32 0x8C379A000000000000000000000000000000000000000000000000000000000 DUP2 MSTORE PUSH1 0x4 ADD PUSH2 0x4D3 SWAP1 PUSH2 0x1483 JUMP JUMPDEST PUSH1 0x40 MLOAD DUP1 SWAP2 SUB SWAP1 REVERT JUMPDEST PUSH1 0x1 PUSH1 0x6 PUSH0 DUP6 DUP2 MSTORE PUSH1 0x20 ADD SWAP1 DUP2 MSTORE PUSH1 0x20 ADD PUSH0 KECCAK256 PUSH0 PUSH2 0x100 EXP DUP2 SLOAD DUP2 PUSH1 0xFF MUL NOT AND SWAP1 DUP4 ISZERO ISZERO MUL OR SWAP1 SSTORE POP PUSH2 0x544 PUSH1 0x1 SLOAD PUSH1 0x2 SLOAD DUP8 PUSH0 PUSH1 0x2 DUP2 LT PUSH2 0x521 JUMPI PUSH2 0x520 PUSH2 0x10E9 JUMP JUMPDEST JUMPDEST PUSH1 0x20 MUL ADD CALLDATALOAD DUP9 PUSH1 0x1 PUSH1 0x2 DUP2 LT PUSH2 0x53A JUMPI PUSH2 0x539 PUSH2 0x10E9 JUMP JUMPDEST JUMPDEST PUSH1 0x20 MUL ADD CALLDATALOAD PUSH2 0xA78 JUMP JUMPDEST PUSH1 0x1 PUSH0 PUSH1 0x2 PUSH0 DUP5 SWAP2 SWAP1 POP SSTORE DUP4 SWAP2 SWAP1 POP SSTORE POP POP PUSH2 0x595 PUSH1 0x3 SLOAD PUSH1 0x4 SLOAD DUP7 PUSH0 PUSH1 0x2 DUP2 LT PUSH2 0x572 JUMPI PUSH2 0x571 PUSH2 0x10E9 JUMP JUMPDEST JUMPDEST PUSH1 0x20 MUL ADD CALLDATALOAD DUP8 PUSH1 0x1 PUSH1 0x2 DUP2 LT PUSH2 0x58B JUMPI PUSH2 0x58A PUSH2 0x10E9 JUMP JUMPDEST JUMPDEST PUSH1 0x20 MUL ADD CALLDATALOAD PUSH2 0xA78 JUMP JUMPDEST PUSH1 0x3 PUSH0 PUSH1 0x4 PUSH0 DUP5 SWAP2 SWAP1 POP SSTORE DUP4 SWAP2 SWAP1 POP SSTORE POP POP PUSH1 0x1 PUSH1 0x5 PUSH0 DUP3 DUP3 SLOAD PUSH2 0x5B9 SWAP2 SWAP1 PUSH2 0x14CE JUMP JUMPDEST SWAP3 POP POP DUP2 SWAP1 SSTORE POP PUSH32 0x8E06CA7E757DCEC7C8019011A586C5D97ABB6F8E892DC4FE53D5FBFACD0CC72 DUP6 DUP6 DUP6 PUSH1 0x40 MLOAD PUSH2 0x5F3 SWAP4 SWAP3 SWAP2 SWAP1 PUSH2 0x1511 JUMP JUMPDEST PUSH1 0x40 MLOAD DUP1 SWAP2 SUB SWAP1 LOG1 POP POP POP POP POP POP JUMP JUMPDEST PUSH0 PUSH1 0x14 SWAP1 SLOAD SWAP1 PUSH2 0x100 EXP SWAP1 DIV PUSH1 0xFF AND DUP2 JUMP JUMPDEST PUSH1 0x1 SLOAD DUP2 JUMP JUMPDEST PUSH0 PUSH0 SWAP1 SLOAD SWAP1 PUSH2 0x100 EXP SWAP1 DIV PUSH20 0xFFFFFFFFFFFFFFFFFFFFFFFFFFFFFFFFFFFFFFFF AND PUSH20 0xFFFFFFFFFFFFFFFFFFFFFFFFFFFFFFFFFFFFFFFF AND CALLER PUSH20 0xFFFFFFFFFFFFFFFFFFFFFFFFFFFFFFFFFFFFFFFF AND EQ PUSH2 0x6A9 JUMPI PUSH1 0x40 MLOAD PUSH32 0x8C379A000000000000000000000000000000000000000000000000000000000 DUP2 MSTORE PUSH1 0x4 ADD PUSH2 0x6A0 SWAP1 PUSH2 0x1590 JUMP JUMPDEST PUSH1 0x40 MLOAD DUP1 SWAP2 SUB SWAP1 REVERT JUMPDEST PUSH0 PUSH1 0x14 SWAP1 SLOAD SWAP1 PUSH2 0x100 EXP SWAP1 DIV PUSH1 0xFF AND PUSH2 0x6F7 JUMPI PUSH1 0x40 MLOAD PUSH32 0x8C379A000000000000000000000000000000000000000000000000000000000 DUP2 MSTORE PUSH1 0x4 ADD PUSH2 0x6EE SWAP1 PUSH2 0x15F8 JUMP JUMPDEST PUSH1 0x40 MLOAD DUP1 SWAP2 SUB SWAP1 REVERT JUMPDEST PUSH0 PUSH0 PUSH1 0x14 PUSH2 0x100 EXP DUP2 SLOAD DUP2 PUSH1 0xFF MUL NOT AND SWAP1 DUP4 ISZERO ISZERO MUL OR SWAP1 SSTORE POP PUSH32 0xA549B9ADDFC3693A1863AC5B0B13C42960D78DF554C01EA6AC72A7DB985DF0CF PUSH1 0x40 MLOAD PUSH1 0x40 MLOAD DUP1 SWAP2 SUB SWAP1 LOG1 JUMP JUMPDEST PUSH1 0x2 SLOAD DUP2 JUMP JUMPDEST PUSH1 0x6 PUSH1 0x20 MSTORE DUP1 PUSH0 MSTORE PUSH1 0x40 PUSH0 KECCAK256 PUSH0 SWAP2 POP SLOAD SWAP1 PUSH2 0x100 EXP SWAP1 DIV PUSH1 0xFF AND DUP2 JUMP JUMPDEST PUSH1 0x3 SLOAD DUP2 JUMP JUMPDEST PUSH1 0x4 SLOAD DUP2 JUMP JUMPDEST PUSH0 PUSH0 SWAP1 SLOAD SWAP1 PUSH2 0x100 EXP SWAP1 DIV PUSH20 0xFFFFFFFFFFFFFFFFFFFFFFFFFFFFFFFFFFFFFFFF AND DUP2 JUMP JUMPDEST PUSH1 0x7 PUSH0 SWAP1 SLOAD SWAP1 PUSH2 0x100 EXP SWAP1 DIV PUSH20 0xFFFFFFFFFFFFFFFFFFFFFFFFFFFFFFFFFFFFFFFF AND DUP2 JUMP JUMPDEST PUSH1 0x8 PUSH0 SWAP1 SLOAD SWAP1 PUSH2 0x100 EXP SWAP1 DIV PUSH20 0xFFFFFFFFFFFFFFFFFFFFFFFFFFFFFFFFFFFFFFFF AND DUP2 JUMP JUMPDEST PUSH0 PUSH0 SWAP1 SLOAD SWAP1 PUSH2 0x100 EXP SWAP1 DIV PUSH20 0xFFFFFFFFFFFFFFFFFFFFFFFFFFFFFFFFFFFFFFFF AND PUSH20 0xFFFFFFFFFFFFFFFFFFFFFFFFFFFFFFFFFFFFFFFF AND CALLER PUSH20 0xFFFFFFFFFFFFFFFFFFFFFFFFFFFFFFFFFFFFFFFF AND EQ PUSH2 0x869 JUMPI PUSH1 0x40 MLOAD PUSH32 0x8C379A000000000000000000000000000000000000000000000000000000000 DUP2 MSTORE PUSH1 0x4 ADD PUSH2 0x860 SWAP1 PUSH2 0x1590 JUMP JUMPDEST PUSH1 0x40 MLOAD DUP1 SWAP2 SUB SWAP1 REVERT JUMPDEST PUSH0 PUSH1 0x14 SWAP1 SLOAD SWAP1 PUSH2 0x100 EXP SWAP1 DIV PUSH1 0xFF AND ISZERO PUSH2 0x8B8 JUMPI PUSH1 0x40 MLOAD PUSH32 0x8C379A000000000000000000000000000000000000000000000000000000000 DUP2 MSTORE PUSH1 0x4 ADD PUSH2 0x8AF SWAP1 PUSH2 0x1660 JUMP JUMPDEST PUSH1 0x40 MLOAD DUP1 SWAP2 SUB SWAP1 REVERT JUMPDEST PUSH2 0x8C0 PUSH2 0xE4E JUMP JUMPDEST PUSH1 0x1 SLOAD DUP2 PUSH0 PUSH1 0xC DUP2 LT PUSH2 0x8D6 JUMPI PUSH2 0x8D5 PUSH2 0x10E9 JUMP JUMPDEST JUMPDEST PUSH1 0x20 MUL ADD DUP2 DUP2 MSTORE POP POP PUSH1 0x2 SLOAD DUP2 PUSH1 0x1 PUSH1 0xC DUP2 LT PUSH2 0x8F6 JUMPI PUSH2 0x8F5 PUSH2 0x10E9 JUMP JUMPDEST JUMPDEST PUSH1 0x20 MUL ADD DUP2 DUP2 MSTORE POP POP PUSH1 0x3 SLOAD DUP2 PUSH1 0x2 PUSH1 0xC DUP2 LT PUSH2 0x916 JUMPI PUSH2 0x915 PUSH2 0x10E9 JUMP JUMPDEST JUMPDEST PUSH1 0x20 MUL ADD DUP2 DUP2 MSTORE POP POP PUSH1 0x4 SLOAD DUP2 PUSH1 0x3 PUSH1 0xC DUP2 LT PUSH2 0x936 JUMPI PUSH2 0x935 PUSH2 0x10E9 JUMP JUMPDEST JUMPDEST PUSH1 0x20 MUL ADD DUP2 DUP2 MSTORE POP POP DUP3 DUP2 PUSH1 0x4 PUSH1 0xC DUP2 LT PUSH2 0x954 JUMPI PUSH2 0x953 PUSH2 0x10E9 JUMP JUMPDEST JUMPDEST PUSH1 0x20 MUL ADD DUP2 DUP2 MSTORE POP POP PUSH0 PUSH1 0x8 PUSH0 SWAP1 SLOAD SWAP1 PUSH2 0x100 EXP SWAP1 DIV PUSH20 0xFFFFFFFFFFFFFFFFFFFFFFFFFFFFFFFFFFFFFFFF AND PUSH20 0xFFFFFFFFFFFFFFFFFFFFFFFFFFFFFFFFFFFFFFFF AND PUSH4 0x66670599 DUP5 DUP5 PUSH1 0x40 MLOAD DUP4 PUSH4 0xFFFFFFFF AND PUSH1 0xE0 SHL DUP2 MSTORE PUSH1 0x4 ADD PUSH2 0x9BA SWAP3 SWAP2 SWAP1 PUSH2 0x13BB JUMP JUMPDEST PUSH1 0x20 PUSH1 0x40 MLOAD DUP1 DUP4 SUB DUP2 DUP7 GAS STATICCALL ISZERO DUP1 ISZERO PUSH2 0x9D5 JUMPI RETURNDATASIZE PUSH0 PUSH0 RETURNDATACOPY RETURNDATASIZE PUSH0 REVERT JUMPDEST POP POP POP POP PUSH1 0x40 MLOAD RETURNDATASIZE PUSH1 0x1F NOT PUSH1 0x1F DUP3 ADD AND DUP3 ADD DUP1 PUSH1 0x40 MSTORE POP DUP2 ADD SWAP1 PUSH2 0x9F9 SWAP2 SWAP1 PUSH2 0x140E JUMP JUMPDEST SWAP1 POP DUP1 PUSH2 0xA3B JUMPI PUSH1 0x40 MLOAD PUSH32 0x8C379A000000000000000000000000000000000000000000000000000000000 DUP2 MSTORE PUSH1 0x4 ADD PUSH2 0xA32 SWAP1 PUSH2 0x16C8 JUMP JUMPDEST PUSH1 0x40 MLOAD DUP1 SWAP2 SUB SWAP1 REVERT JUMPDEST PUSH32 0xEE088BCC4C9BBD048C9C087916EC26AAE94E63151610AF8167078EF170E5AE60 DUP5 PUSH1 0x40 MLOAD PUSH2 0xA6A SWAP2 SWAP1 PUSH2 0xE89 JUMP JUMPDEST PUSH1 0x40 MLOAD DUP1 SWAP2 SUB SWAP1 LOG1 POP POP POP POP JUMP JUMPDEST PUSH0 PUSH0 PUSH0 DUP7 EQ DUP1 ISZERO PUSH2 0xA88 JUMPI POP PUSH0 DUP6 EQ JUMPDEST ISZERO PUSH2 0xA98 JUMPI DUP4 DUP4 SWAP2 POP SWAP2 POP PUSH2 0xD5D JUMP JUMPDEST PUSH0 DUP5 EQ DUP1 ISZERO PUSH2 0xAA6 JUMPI POP PUSH0 DUP6 EQ JUMPDEST ISZERO PUSH2 0xAB6 JUMPI DUP6 DUP6 SWAP2 POP SWAP2 POP PUSH2 0xD5D JUMP JUMPDEST PUSH0 PUSH32 0x30644E72E131A029B85045B68181585D2833E84879B9709143E1F593F0000001 DUP1 PUSH2 0xAE6 JUMPI PUSH2 0xAE5 PUSH2 0x16E6 JUMP JUMPDEST JUMPDEST DUP6 DUP9 MULMOD SWAP1 POP PUSH0 PUSH32 0x30644E72E131A029B85045B68181585D2833E84879B9709143E1F593F0000001 DUP1 PUSH2 0xB1B JUMPI PUSH2 0xB1A PUSH2 0x16E6 JUMP JUMPDEST JUMPDEST DUP6 DUP9 MULMOD SWAP1 POP PUSH0 PUSH32 0x30644E72E131A029B85045B68181585D2833E84879B9709143E1F593F0000001 DUP1 PUSH2 0xB50 JUMPI PUSH2 0xB4F PUSH2 0x16E6 JUMP JUMPDEST JUMPDEST PUSH32 0x30644E72E131A029B85045B68181585D2833E84879B9709143E1F593F0000001 DUP1 PUSH2 0xB7F JUMPI PUSH2 0xB7E PUSH2 0x16E6 JUMP JUMPDEST JUMPDEST DUP4 DUP6 MULMOD PUSH3 0x292F8 MULMOD SWAP1 POP PUSH0 PUSH32 0x30644E72E131A029B85045B68181585D2833E84879B9709143E1F593F0000001 DUP1 PUSH2 0xBB9 JUMPI PUSH2 0xBB8 PUSH2 0x16E6 JUMP JUMPDEST JUMPDEST PUSH32 0x30644E72E131A029B85045B68181585D2833E84879B9709143E1F593F0000001 DUP1 PUSH2 0xBE8 JUMPI PUSH2 0xBE7 PUSH2 0x16E6 JUMP JUMPDEST JUMPDEST DUP10 DUP12 MULMOD PUSH32 0x30644E72E131A029B85045B68181585D2833E84879B9709143E1F593F0000001 DUP1 PUSH2 0xC1A JUMPI PUSH2 0xC19 PUSH2 0x16E6 JUMP JUMPDEST JUMPDEST DUP10 DUP14 MULMOD ADDMOD SWAP1 POP PUSH0 PUSH2 0xC80 DUP5 PUSH32 0x30644E72E131A029B85045B68181585D2833E84879B9709143E1F593F0000001 DUP1 PUSH2 0xC54 JUMPI PUSH2 0xC53 PUSH2 0x16E6 JUMP JUMPDEST JUMPDEST DUP8 PUSH3 0x292FC MULMOD PUSH32 0x30644E72E131A029B85045B68181585D2833E84879B9709143E1F593F0000001 PUSH2 0xD66 JUMP JUMPDEST SWAP1 POP PUSH32 0x30644E72E131A029B85045B68181585D2833E84879B9709143E1F593F0000001 DUP1 PUSH2 0xCB1 JUMPI PUSH2 0xCB0 PUSH2 0x16E6 JUMP JUMPDEST JUMPDEST PUSH2 0xCEC PUSH32 0x30644E72E131A029B85045B68181585D2833E84879B9709143E1F593F0000001 DUP1 PUSH2 0xCE3 JUMPI PUSH2 0xCE2 PUSH2 0x16E6 JUMP JUMPDEST JUMPDEST DUP6 PUSH1 0x1 ADDMOD PUSH2 0xDA8 JUMP JUMPDEST DUP4 MULMOD SWAP7 POP PUSH32 0x30644E72E131A029B85045B68181585D2833E84879B9709143E1F593F0000001 DUP1 PUSH2 0xD1F JUMPI PUSH2 0xD1E PUSH2 0x16E6 JUMP JUMPDEST JUMPDEST PUSH2 0xD53 PUSH2 0xD4E PUSH1 0x1 DUP7 PUSH32 0x30644E72E131A029B85045B68181585D2833E84879B9709143E1F593F0000001 PUSH2 0xD66 JUMP JUMPDEST PUSH2 0xDA8 JUMP JUMPDEST DUP3 MULMOD SWAP6 POP POP POP POP POP POP JUMPDEST SWAP5 POP SWAP5 SWAP3 POP POP POP JUMP JUMPDEST PUSH0 PUSH0 DUP5 SWAP1 POP DUP4 DUP6 GT PUSH2 0xD81 JUMPI DUP3 DUP2 PUSH2 0xD7E SWAP2 SWAP1 PUSH2 0x14CE JUMP JUMPDEST SWAP1 POP JUMPDEST DUP3 DUP1 PUSH2 0xD90 JUMPI PUSH2 0xD8F PUSH2 0x16E6 JUMP JUMPDEST JUMPDEST PUSH0 DUP6 DUP4 PUSH2 0xD9D SWAP2 SWAP1 PUSH2 0x1713 JUMP JUMPDEST ADDMOD SWAP2 POP POP SWAP4 SWAP3 POP POP POP JUMP JUMPDEST PUSH0 PUSH2 0xE00 DUP3 PUSH1 0x2 PUSH32 0x30644E72E131A029B85045B68181585D2833E84879B9709143E1F593F0000001 PUSH2 0xDDA SWAP2 SWAP1 PUSH2 0x1713 JUMP JUMPDEST PUSH32 0x30644E72E131A029B85045B68181585D2833E84879B9709143E1F593F0000001 PUSH2 0xE07 JUMP JUMPDEST SWAP1 POP SWAP2 SWAP1 POP JUMP JUMPDEST PUSH0 PUSH1 0x40 MLOAD PUSH1 0x20 DUP2 MSTORE PUSH1 0x20 DUP1 DUP3 ADD MSTORE PUSH1 0x20 PUSH1 0x40 DUP3 ADD MSTORE DUP5 PUSH1 0x60 DUP3 ADD MSTORE DUP4 PUSH1 0x80 DUP3 ADD MSTORE DUP3 PUSH1 0xA0 DUP3 ADD MSTORE PUSH1 0x20 DUP2 PUSH1 0xC0 DUP4 PUSH1 0x5 GAS STATICCALL DUP1 PUSH2 0xE41 JUMPI PUSH0 PUSH0 REVERT JUMPDEST DUP2 MLOAD SWAP3 POP POP POP SWAP4 SWAP3 POP POP POP JUMP JUMPDEST PUSH1 0x40 MLOAD DUP1 PUSH2 0x180 ADD PUSH1 0x40 MSTORE DUP1 PUSH1 0xC SWAP1 PUSH1 0x20 DUP3 MUL DUP1 CALLDATASIZE DUP4 CALLDATACOPY DUP1 DUP3 ADD SWAP2 POP POP SWAP1 POP POP SWAP1 JUMP JUMPDEST PUSH0 DUP2 SWAP1 POP SWAP2 SWAP1 POP JUMP JUMPDEST PUSH2 0xE83 DUP2 PUSH2 0xE71 JUMP JUMPDEST DUP3 MSTORE POP POP JUMP JUMPDEST PUSH0 PUSH1 0x20 DUP3 ADD SWAP1 POP PUSH2 0xE9C PUSH0 DUP4 ADD DUP5 PUSH2 0xE7A JUMP JUMPDEST SWAP3 SWAP2 POP POP JUMP JUMPDEST PUSH0 PUSH0 REVERT JUMPDEST PUSH0 PUSH0 REVERT JUMPDEST PUSH0 PUSH2 0x100 DUP3 DUP5 SUB SLT ISZERO PUSH2 0xEC0 JUMPI PUSH2 0xEBF PUSH2 0xEA6 JUMP JUMPDEST JUMPDEST DUP2 SWAP1 POP SWAP3 SWAP2 POP POP JUMP JUMPDEST PUSH0 PUSH0 REVERT JUMPDEST PUSH0 DUP2 SWAP1 POP DUP3 PUSH1 0x20 PUSH1 0x2 MUL DUP3 ADD GT ISZERO PUSH2 0xEE8 JUMPI PUSH2 0xEE7 PUSH2 0xEC9 JUMP JUMPDEST JUMPDEST SWAP3 SWAP2 POP POP JUMP JUMPDEST PUSH2 0xEF7 DUP2 PUSH2 0xE71 JUMP JUMPDEST DUP2 EQ PUSH2 0xF01 JUMPI PUSH0 PUSH0 REVERT JUMPDEST POP JUMP JUMPDEST PUSH0 DUP2 CALLDATALOAD SWAP1 POP PUSH2 0xF12 DUP2 PUSH2 0xEEE JUMP JUMPDEST SWAP3 SWAP2 POP POP JUMP JUMPDEST PUSH0 PUSH0 PUSH0 PUSH0 PUSH2 0x1A0 DUP6 DUP8 SUB SLT ISZERO PUSH2 0xF31 JUMPI PUSH2 0xF30 PUSH2 0xEA2 JUMP JUMPDEST JUMPDEST PUSH0 PUSH2 0xF3E DUP8 DUP3 DUP9 ADD PUSH2 0xEAA JUMP JUMPDEST SWAP5 POP POP PUSH2 0x100 PUSH2 0xF50 DUP8 DUP3 DUP9 ADD PUSH2 0xECD JUMP JUMPDEST SWAP4 POP POP PUSH2 0x140 PUSH2 0xF62 DUP8 DUP3 DUP9 ADD PUSH2 0xECD JUMP JUMPDEST SWAP3 POP POP PUSH2 0x180 PUSH2 0xF74 DUP8 DUP3 DUP9 ADD PUSH2 0xF04 JUMP JUMPDEST SWAP2 POP POP SWAP3 SWAP6 SWAP2 SWAP5 POP SWAP3 POP JUMP JUMPDEST PUSH0 DUP2 ISZERO ISZERO SWAP1 POP SWAP2 SWAP1 POP JUMP JUMPDEST PUSH2 0xF94 DUP2 PUSH2 0xF80 JUMP JUMPDEST DUP3 MSTORE POP POP JUMP JUMPDEST PUSH0 PUSH1 0x20 DUP3 ADD SWAP1 POP PUSH2 0xFAD PUSH0 DUP4 ADD DUP5 PUSH2 0xF8B JUMP JUMPDEST SWAP3 SWAP2 POP POP JUMP JUMPDEST PUSH0 PUSH1 0x20 DUP3 DUP5 SUB SLT ISZERO PUSH2 0xFC8 JUMPI PUSH2 0xFC7 PUSH2 0xEA2 JUMP JUMPDEST JUMPDEST PUSH0 PUSH2 0xFD5 DUP5 DUP3 DUP6 ADD PUSH2 0xF04 JUMP JUMPDEST SWAP2 POP POP SWAP3 SWAP2 POP POP JUMP JUMPDEST PUSH0 PUSH20 0xFFFFFFFFFFFFFFFFFFFFFFFFFFFFFFFFFFFFFFFF DUP3 AND SWAP1 POP SWAP2 SWAP1 POP JUMP JUMPDEST PUSH0 PUSH2 0x1007 DUP3 PUSH2 0xFDE JUMP JUMPDEST SWAP1 POP SWAP2 SWAP1 POP JUMP JUMPDEST PUSH2 0x1017 DUP2 PUSH2 0xFFD JUMP JUMPDEST DUP3 MSTORE POP POP JUMP JUMPDEST PUSH0 PUSH1 0x20 DUP3 ADD SWAP1 POP PUSH2 0x1030 PUSH0 DUP4 ADD DUP5 PUSH2 0x100E JUMP JUMPDEST SWAP3 SWAP2 POP POP JUMP JUMPDEST PUSH0 DUP2 SWAP1 POP SWAP2 SWAP1 POP JUMP JUMPDEST PUSH0 PUSH2 0x1059 PUSH2 0x1054 PUSH2 0x104F DUP5 PUSH2 0xFDE JUMP JUMPDEST PUSH2 0x1036 JUMP JUMPDEST PUSH2 0xFDE JUMP JUMPDEST SWAP1 POP SWAP2 SWAP1 POP JUMP JUMPDEST PUSH0 PUSH2 0x106A DUP3 PUSH2 0x103F JUMP JUMPDEST SWAP1 POP SWAP2 SWAP1 POP JUMP JUMPDEST PUSH0 PUSH2 0x107B DUP3 PUSH2 0x1060 JUMP JUMPDEST SWAP1 POP SWAP2 SWAP1 POP JUMP JUMPDEST PUSH2 0x108B DUP2 PUSH2 0x1071 JUMP JUMPDEST DUP3 MSTORE POP POP JUMP JUMPDEST PUSH0 PUSH1 0x20 DUP3 ADD SWAP1 POP PUSH2 0x10A4 PUSH0 DUP4 ADD DUP5 PUSH2 0x1082 JUMP JUMPDEST SWAP3 SWAP2 POP POP JUMP JUMPDEST PUSH0 PUSH0 PUSH2 0x120 DUP4 DUP6 SUB SLT ISZERO PUSH2 0x10C1 JUMPI PUSH2 0x10C0 PUSH2 0xEA2 JUMP JUMPDEST JUMPDEST PUSH0 PUSH2 0x10CE DUP6 DUP3 DUP7 ADD PUSH2 0xF04 JUMP JUMPDEST SWAP3 POP POP PUSH1 0x20 PUSH2 0x10DF DUP6 DUP3 DUP7 ADD PUSH2 0xEAA JUMP JUMPDEST SWAP2 POP POP SWAP3 POP SWAP3 SWAP1 POP JUMP JUMPDEST PUSH32 0x4E487B7100000000000000000000000000000000000000000000000000000000 PUSH0 MSTORE PUSH1 0x32 PUSH1 0x4 MSTORE PUSH1 0x24 PUSH0 REVERT JUMPDEST PUSH0 DUP3 DUP3 MSTORE PUSH1 0x20 DUP3 ADD SWAP1 POP SWAP3 SWAP2 POP POP JUMP JUMPDEST PUSH32 0x456C656374696F6E20636C6F7365640000000000000000000000000000000000 PUSH0 DUP3 ADD MSTORE POP JUMP JUMPDEST PUSH0 PUSH2 0x115A PUSH1 0xF DUP4 PUSH2 0x1116 JUMP JUMPDEST SWAP2 POP PUSH2 0x1165 DUP3 PUSH2 0x1126 JUMP JUMPDEST PUSH1 0x20 DUP3 ADD SWAP1 POP SWAP2 SWAP1 POP JUMP JUMPDEST PUSH0 PUSH1 0x20 DUP3 ADD SWAP1 POP DUP2 DUP2 SUB PUSH0 DUP4 ADD MSTORE PUSH2 0x1187 DUP2 PUSH2 0x114E JUMP JUMPDEST SWAP1 POP SWAP2 SWAP1 POP JUMP JUMPDEST PUSH32 0x4E756C6C696669657220616C7265616479207573656400000000000000000000 PUSH0 DUP3 ADD MSTORE POP JUMP JUMPDEST PUSH0 PUSH2 0x11C2 PUSH1 0x16 DUP4 PUSH2 0x1116 JUMP JUMPDEST SWAP2 POP PUSH2 0x11CD DUP3 PUSH2 0x118E JUMP JUMPDEST PUSH1 0x20 DUP3 ADD SWAP1 POP SWAP2 SWAP1 POP JUMP JUMPDEST PUSH0 PUSH1 0x20 DUP3 ADD SWAP1 POP DUP2 DUP2 SUB PUSH0 DUP4 ADD MSTORE PUSH2 0x11EF DUP2 PUSH2 0x11B6 JUMP JUMPDEST SWAP1 POP SWAP2 SWAP1 POP JUMP JUMPDEST PUSH0 DUP3 SWAP1 POP SWAP3 SWAP2 POP POP JUMP JUMPDEST PUSH0 PUSH2 0x120E PUSH1 0x20 DUP5 ADD DUP5 PUSH2 0xF04 JUMP JUMPDEST SWAP1 POP SWAP3 SWAP2 POP POP JUMP JUMPDEST PUSH2 0x121F DUP2 PUSH2 0xE71 JUMP JUMPDEST DUP3 MSTORE POP POP JUMP JUMPDEST PUSH1 0x40 DUP3 ADD PUSH2 0x1235 PUSH0 DUP4 ADD DUP4 PUSH2 0x1200 JUMP JUMPDEST PUSH2 0x1241 PUSH0 DUP6 ADD DUP3 PUSH2 0x1216 JUMP JUMPDEST POP PUSH2 0x124F PUSH1 0x20 DUP4 ADD DUP4 PUSH2 0x1200 JUMP JUMPDEST PUSH2 0x125C PUSH1 0x20 DUP6 ADD DUP3 PUSH2 0x1216 JUMP JUMPDEST POP POP POP POP JUMP JUMPDEST PUSH0 DUP3 SWAP1 POP SWAP3 SWAP2 POP POP JUMP JUMPDEST PUSH0 DUP3 SWAP1 POP SWAP3 SWAP2 POP POP JUMP JUMPDEST DUP3 DUP2 DUP4 CALLDATACOPY POP POP POP JUMP JUMPDEST PUSH2 0x128B PUSH1 0x40 DUP4 DUP4 PUSH2 0x1276 JUMP JUMPDEST POP POP JUMP JUMPDEST PUSH1 0x80 DUP3 ADD PUSH2 0x129F PUSH0 DUP4 ADD DUP4 PUSH2 0x126C JUMP JUMPDEST PUSH2 0x12AB PUSH0 DUP6 ADD DUP3 PUSH2 0x127F JUMP JUMPDEST POP PUSH2 0x12B9 PUSH1 0x40 DUP4 ADD DUP4 PUSH2 0x126C JUMP JUMPDEST PUSH2 0x12C6 PUSH1 0x40 DUP6 ADD DUP3 PUSH2 0x127F JUMP JUMPDEST POP POP POP POP JUMP JUMPDEST PUSH2 0x100 DUP3 ADD PUSH2 0x12DD PUSH0 DUP4 ADD DUP4 PUSH2 0x11F6 JUMP JUMPDEST PUSH2 0x12E9 PUSH0 DUP6 ADD DUP3 PUSH2 0x1225 JUMP JUMPDEST POP PUSH2 0x12F7 PUSH1 0x40 DUP4 ADD DUP4 PUSH2 0x1262 JUMP JUMPDEST PUSH2 0x1304 PUSH1 0x40 DUP6 ADD DUP3 PUSH2 0x128F JUMP JUMPDEST POP PUSH2 0x1312 PUSH1 0xC0 DUP4 ADD DUP4 PUSH2 0x11F6 JUMP JUMPDEST PUSH2 0x131F PUSH1 0xC0 DUP6 ADD DUP3 PUSH2 0x1225 JUMP JUMPDEST POP POP POP POP JUMP JUMPDEST PUSH0 PUSH1 0xC SWAP1 POP SWAP2 SWAP1 POP JUMP JUMPDEST PUSH0 DUP2 SWAP1 POP SWAP3 SWAP2 POP POP JUMP JUMPDEST PUSH0 DUP2 SWAP1 POP SWAP2 SWAP1 POP JUMP JUMPDEST PUSH0 PUSH2 0x134D DUP4 DUP4 PUSH2 0x1216 JUMP JUMPDEST PUSH1 0x20 DUP4 ADD SWAP1 POP SWAP3 SWAP2 POP POP JUMP JUMPDEST PUSH0 PUSH1 0x20 DUP3 ADD SWAP1 POP SWAP2 SWAP1 POP JUMP JUMPDEST PUSH2 0x136E DUP2 PUSH2 0x1325 JUMP JUMPDEST PUSH2 0x1378 DUP2 DUP5 PUSH2 0x132F JUMP JUMPDEST SWAP3 POP PUSH2 0x1383 DUP3 PUSH2 0x1339 JUMP JUMPDEST DUP1 PUSH0 JUMPDEST DUP4 DUP2 LT ISZERO PUSH2 0x13B3 JUMPI DUP2 MLOAD PUSH2 0x139A DUP8 DUP3 PUSH2 0x1342 JUMP JUMPDEST SWAP7 POP PUSH2 0x13A5 DUP4 PUSH2 0x1359 JUMP JUMPDEST SWAP3 POP POP PUSH1 0x1 DUP2 ADD SWAP1 POP PUSH2 0x1386 JUMP JUMPDEST POP POP POP POP POP POP JUMP JUMPDEST PUSH0 PUSH2 0x280 DUP3 ADD SWAP1 POP PUSH2 0x13CF PUSH0 DUP4 ADD DUP6 PUSH2 0x12CC JUMP JUMPDEST PUSH2 0x13DD PUSH2 0x100 DUP4 ADD DUP5 PUSH2 0x1365 JUMP JUMPDEST SWAP4 SWAP3 POP POP POP JUMP JUMPDEST PUSH2 0x13ED DUP2 PUSH2 0xF80 JUMP JUMPDEST DUP2 EQ PUSH2 0x13F7 JUMPI PUSH0 PUSH0 REVERT JUMPDEST POP JUMP JUMPDEST PUSH0 DUP2 MLOAD SWAP1 POP PUSH2 0x1408 DUP2 PUSH2 0x13E4 JUMP JUMPDEST SWAP3 SWAP2 POP POP JUMP JUMPDEST PUSH0 PUSH1 0x20 DUP3 DUP5 SUB SLT ISZERO PUSH2 0x1423 JUMPI PUSH2 0x1422 PUSH2 0xEA2 JUMP JUMPDEST JUMPDEST PUSH0 PUSH2 0x1430 DUP5 DUP3 DUP6 ADD PUSH2 0x13FA JUMP JUMPDEST SWAP2 POP POP SWAP3 SWAP2 POP POP JUMP JUMPDEST PUSH32 0x496E76616C696420766F74652070726F6F660000000000000000000000000000 PUSH0 DUP3 ADD MSTORE POP JUMP JUMPDEST PUSH0 PUSH2 0x146D PUSH1 0x12 DUP4 PUSH2 0x1116 JUMP JUMPDEST SWAP2 POP PUSH2 0x1478 DUP3 PUSH2 0x1439 JUMP JUMPDEST PUSH1 0x20 DUP3 ADD SWAP1 POP SWAP2 SWAP1 POP JUMP JUMPDEST PUSH0 PUSH1 0x20 DUP3 ADD SWAP1 POP DUP2 DUP2 SUB PUSH0 DUP4 ADD MSTORE PUSH2 0x149A DUP2 PUSH2 0x1461 JUMP JUMPDEST SWAP1 POP SWAP2 SWAP1 POP JUMP JUMPDEST PUSH32 0x4E487B7100000000000000000000000000000000000000000000000000000000 PUSH0 MSTORE PUSH1 0x11 PUSH1 0x4 MSTORE PUSH1 0x24 PUSH0 REVERT JUMPDEST PUSH0 PUSH2 0x14D8 DUP3 PUSH2 0xE71 JUMP JUMPDEST SWAP2 POP PUSH2 0x14E3 DUP4 PUSH2 0xE71 JUMP JUMPDEST SWAP3 POP DUP3 DUP3 ADD SWAP1 POP DUP1 DUP3 GT ISZERO PUSH2 0x14FB JUMPI PUSH2 0x14FA PUSH2 0x14A1 JUMP JUMPDEST JUMPDEST SWAP3 SWAP2 POP POP JUMP JUMPDEST PUSH2 0x150D PUSH1 0x40 DUP4 DUP4 PUSH2 0x1276 JUMP JUMPDEST POP POP JUMP JUMPDEST PUSH0 PUSH1 0xA0 DUP3 ADD SWAP1 POP PUSH2 0x1524 PUSH0 DUP4 ADD DUP7 PUSH2 0x1501 JUMP JUMPDEST PUSH2 0x1531 PUSH1 0x40 DUP4 ADD DUP6 PUSH2 0x1501 JUMP JUMPDEST PUSH2 0x153E PUSH1 0x80 DUP4 ADD DUP5 PUSH2 0xE7A JUMP JUMPDEST SWAP5 SWAP4 POP POP POP POP JUMP JUMPDEST PUSH32 0x4F6E6C79206F776E657200000000000000000000000000000000000000000000 PUSH0 DUP3 ADD MSTORE POP JUMP JUMPDEST PUSH0 PUSH2 0x157A PUSH1 0xA DUP4 PUSH2 0x1116 JUMP JUMPDEST SWAP2 POP PUSH2 0x1585 DUP3 PUSH2 0x1546 JUMP JUMPDEST PUSH1 0x20 DUP3 ADD SWAP1 POP SWAP2 SWAP1 POP JUMP JUMPDEST PUSH0 PUSH1 0x20 DUP3 ADD SWAP1 POP DUP2 DUP2 SUB PUSH0 DUP4 ADD MSTORE PUSH2 0x15A7 DUP2 PUSH2 0x156E JUMP JUMPDEST SWAP1 POP SWAP2 SWAP1 POP JUMP JUMPDEST PUSH32 0x416C726561647920636C6F736564000000000000000000000000000000000000 PUSH0 DUP3 ADD MSTORE POP JUMP JUMPDEST PUSH0 PUSH2 0x15E2 PUSH1 0xE DUP4 PUSH2 0x1116 JUMP JUMPDEST SWAP2 POP PUSH2 0x15ED DUP3 PUSH2 0x15AE JUMP JUMPDEST PUSH1 0x20 DUP3 ADD SWAP1 POP SWAP2 SWAP1 POP JUMP JUMPDEST PUSH0 PUSH1 0x20 DUP3 ADD SWAP1 POP DUP2 DUP2 SUB PUSH0 DUP4 ADD MSTORE PUSH2 0x160F DUP2 PUSH2 0x15D6 JUMP JUMPDEST SWAP1 POP SWAP2 SWAP1 POP JUMP JUMPDEST PUSH32 0x456C656374696F6E207374696C6C206F70656E00000000000000000000000000 PUSH0 DUP3 ADD MSTORE POP JUMP JUMPDEST PUSH0 PUSH2 0x164A PUSH1 0x13 DUP4 PUSH2 0x1116 JUMP JUMPDEST SWAP2 POP PUSH2 0x1655 DUP3 PUSH2 0x1616 JUMP JUMPDEST PUSH1 0x20 DUP3 ADD SWAP1 POP SWAP2 SWAP1 POP JUMP JUMPDEST PUSH0 PUSH1 0x20 DUP3 ADD SWAP1 POP DUP2 DUP2 SUB PUSH0 DUP4 ADD MSTORE PUSH2 0x1677 DUP2 PUSH2 0x163E JUMP JUMPDEST SWAP1 POP SWAP2 SWAP1 POP JUMP JUMPDEST PUSH32 0x496E76616C6964207265636F756E742070726F6F660000000000000000000000 PUSH0 DUP3 ADD MSTORE POP JUMP JUMPDEST PUSH0 PUSH2 0x16B2 PUSH1 0x15 DUP4 PUSH2 0x1116 JUMP JUMPDEST SWAP2 POP PUSH2 0x16BD DUP3 PUSH2 0x167E JUMP JUMPDEST PUSH1 0x20 DUP3 ADD SWAP1 POP SWAP2 SWAP1 POP JUMP JUMPDEST PUSH0 PUSH1 0x20 DUP3 ADD SWAP1 POP DUP2 DUP2 SUB PUSH0 DUP4 ADD MSTORE PUSH2 0x16DF DUP2 PUSH2 0x16A6 JUMP JUMPDEST SWAP1 POP SWAP2 SWAP1 POP JUMP JUMPDEST PUSH32 0x4E487B7100000000000000000000000000000000000000000000000000000000 PUSH0 MSTORE PUSH1 0x12 PUSH1 0x4 MSTORE PUSH1 0x24 PUSH0 REVERT JUMPDEST PUSH0 PUSH2 0x171D DUP3 PUSH2 0xE71 JUMP JUMPDEST SWAP2 POP PUSH2 0x1728 DUP4 PUSH2 0xE71 JUMP JUMPDEST SWAP3 POP DUP3 DUP3 SUB SWAP1 POP DUP2 DUP2 GT ISZERO PUSH2 0x1740 JUMPI PUSH2 0x173F PUSH2 0x14A1 JUMP JUMPDEST JUMPDEST SWAP3 SWAP2 POP POP JUMP INVALID LOG2 PUSH5 0x6970667358 0x22 SLT KECCAK256 0xAB PUSH32 0xC38244A5790DBAE607FEDB26E3F644DA34C30207605E83B8BF77C0423E7D6473 PUSH16 0x6C634300081E00330000000000000000 "
				},
				"gasEstimates": {
					"creation": {
						"codeDepositCost": "1202400",
						"executionCost": "infinite",
						"totalCost": "infinite"
					},
					"external": {
						"accC1x()": "2492",
						"accC1y()": "2536",
						"accC2x()": "2470",
						"accC2y()": "2492",
						"closeElection()": "29694",
						"electionOpen()": "2561",
						"nullifierUsed(uint256)": "2808",
						"numberOfVotes()": "2426",
						"owner()": "2529",
						"publishResults(uint256,((uint256,uint256),(uint256[2],uint256[2]),(uint256,uint256)))": "infinite",
						"recountVerifier()": "infinite",
						"registerVote(((uint256,uint256),(uint256[2],uint256[2]),(uint256,uint256)),uint256[2],uint256[2],uint256)": "infinite",
						"voteVerifier()": "infinite"
					}
				},
				"methodIdentifiers": {
					"accC1x()": "4d139763",
					"accC1y()": "75f11da1",
					"accC2x()": "82786199",
					"accC2y()": "87dde0be",
					"closeElection()": "6c6c32d0",
					"electionOpen()": "4a39d442",
					"nullifierUsed(uint256)": "79f95ee9",
					"numberOfVotes()": "0e7d490d",
					"owner()": "8da5cb5b",
					"publishResults(uint256,((uint256,uint256),(uint256[2],uint256[2]),(uint256,uint256)))": "e63aa8fb",
					"recountVerifier()": "bf0516f2",
					"registerVote(((uint256,uint256),(uint256[2],uint256[2]),(uint256,uint256)),uint256[2],uint256[2],uint256)": "2353d3aa",
					"voteVerifier()": "99d74c71"
				}
			},
			"storageLayout": {
				"storage": [
					{
						"astId": 413,
						"contract": "TP FINAL/VotingSystem.sol:VotingSystem",
						"label": "owner",
						"offset": 0,
						"slot": "0",
						"type": "t_address"
					},
					{
						"astId": 415,
						"contract": "TP FINAL/VotingSystem.sol:VotingSystem",
						"label": "electionOpen",
						"offset": 20,
						"slot": "0",
						"type": "t_bool"
					},
					{
						"astId": 417,
						"contract": "TP FINAL/VotingSystem.sol:VotingSystem",
						"label": "accC1x",
						"offset": 0,
						"slot": "1",
						"type": "t_uint256"
					},
					{
						"astId": 419,
						"contract": "TP FINAL/VotingSystem.sol:VotingSystem",
						"label": "accC1y",
						"offset": 0,
						"slot": "2",
						"type": "t_uint256"
					},
					{
						"astId": 421,
						"contract": "TP FINAL/VotingSystem.sol:VotingSystem",
						"label": "accC2x",
						"offset": 0,
						"slot": "3",
						"type": "t_uint256"
					},
					{
						"astId": 423,
						"contract": "TP FINAL/VotingSystem.sol:VotingSystem",
						"label": "accC2y",
						"offset": 0,
						"slot": "4",
						"type": "t_uint256"
					},
					{
						"astId": 425,
						"contract": "TP FINAL/VotingSystem.sol:VotingSystem",
						"label": "numberOfVotes",
						"offset": 0,
						"slot": "5",
						"type": "t_uint256"
					},
					{
						"astId": 429,
						"contract": "TP FINAL/VotingSystem.sol:VotingSystem",
						"label": "nullifierUsed",
						"offset": 0,
						"slot": "6",
						"type": "t_mapping(t_uint256,t_bool)"
					},
					{
						"astId": 432,
						"contract": "TP FINAL/VotingSystem.sol:VotingSystem",
						"label": "voteVerifier",
						"offset": 0,
						"slot": "7",
						"type": "t_contract(IVerifier)407"
					},
					{
						"astId": 435,
						"contract": "TP FINAL/VotingSystem.sol:VotingSystem",
						"label": "recountVerifier",
						"offset": 0,
						"slot": "8",
						"type": "t_contract(IVerifier)407"
					}
				],
				"types": {
					"t_address": {
						"encoding": "inplace",
						"label": "address",
						"numberOfBytes": "20"
					},
					"t_bool": {
						"encoding": "inplace",
						"label": "bool",
						"numberOfBytes": "1"
					},
					"t_contract(IVerifier)407": {
						"encoding": "inplace",
						"label": "contract IVerifier",
						"numberOfBytes": "20"
					},
					"t_mapping(t_uint256,t_bool)": {
						"encoding": "mapping",
						"key": "t_uint256",
						"label": "mapping(uint256 => bool)",
						"numberOfBytes": "32",
						"value": "t_bool"
					},
					"t_uint256": {
						"encoding": "inplace",
						"label": "uint256",
						"numberOfBytes": "32"
					}
				}
			},
			"userdoc": {
				"kind": "user",
				"methods": {},
				"version": 1
			}
		}
	}
}