{
	"data": {
		"bytecode": {
			"linkReferences": {},
			"object": "61012d61004d600b8282823980515f1a6073146041577f4e487b71000000000000000000000000000000000000000000000000000000005f525f60045260245ffd5b305f52607381538281f3fe73000000000000000000000000000000000000000030146080604052600436106046575f3560e01c80630f529ba214604a578063e493ef8c146064578063f446c1d014607e575b5f5ffd5b60506098565b604051605b919060e0565b60405180910390f35b606a609f565b6040516075919060e0565b60405180910390f35b608460c3565b604051608f919060e0565b60405180910390f35b620292f881565b7f30644e72e131a029b85045b68181585d2833e84879b9709143e1f593f000000181565b620292fc81565b5f819050919050565b60da8160ca565b82525050565b5f60208201905060f15f83018460d3565b9291505056fea2646970667358221220730d1a1cd790d2b209516b44807eb1a1d28d5f783c7c06085f337dc06b225f1c64736f6c634300081e0033",
			"opcodes": "PUSH2 0x12D PUSH2 0x4D PUSH1 0xB DUP3 DUP3 DUP3 CODECOPY DUP1 MLOAD PUSH0 BYTE PUSH1 0x73 EQ PUSH1 0x41 JUMPI PUSH32 0x4E487B7100000000000000000000000000000000000000000000000000000000 PUSH0 MSTORE PUSH0 PUSH1 0x4 MSTORE PUSH1 0x24 PUSH0 REVERT JUMPDEST ADDRESS PUSH0 MSTORE PUSH1 0x73 DUP2 MSTORE8 DUP3 DUP2 RETURN INVALID PUSH20 0x0 ADDRESS EQ PUSH1 0x80 PUSH1 0x40 MSTORE PUSH1 0x4 CALLDATASIZE LT PUSH1 0x46 JUMPI PUSH0 CALLDATALOAD PUSH1 0xE0 SHR DUP1 PUSH4 0xF529BA2 EQ PUSH1 0x4A JUMPI DUP1 PUSH4 0xE493EF8C EQ PUSH1 0x64 JUMPI DUP1 PUSH4 0xF446C1D0 EQ PUSH1 0x7E JUMPI JUMPDEST PUSH0 PUSH0 REVERT JUMPDEST PUSH1 0x50 PUSH1 0x98 JUMP JUMPDEST PUSH1 0x40 MLOAD PUSH1 0x5B SWAP2 SWAP1 PUSH1 0xE0 JUMP JUMPDEST PUSH1 0x40 MLOAD DUP1 SWAP2 SUB SWAP1 RETURN JUMPDEST PUSH1 0x6A PUSH1 0x9F JUMP JUMPDEST PUSH1 0x40 MLOAD PUSH1 0x75 SWAP2 SWAP1 PUSH1 0xE0 JUMP JUMPDEST PUSH1 0x40 MLOAD DUP1 SWAP2 SUB SWAP1 RETURN JUMPDEST PUSH1 0x84 PUSH1 0xC3 JUMP JUMPDEST PUSH1 0x40 MLOAD PUSH1 0x8F SWAP2 SWAP1 PUSH1 0xE0 JUMP JUMPDEST PUSH1 0x40 MLOAD DUP1 SWAP2 SUB SWAP1 RETURN JUMPDEST PUSH3 0x292F8 DUP2 JUMP JUMPDEST PUSH32 0x30644E72E131A029B85045B68181585D2833E84879B9709143E1F593F0000001 DUP2 JUMP JUMPDEST PUSH3 0x292FC DUP2 JUMP JUMPDEST PUSH0 DUP2 SWAP1 POP SWAP2 SWAP1 POP JUMP JUMPDEST PUSH1 0xDA DUP2 PUSH1 0xCA JUMP JUMPDEST DUP3 MSTORE POP POP JUMP JUMPDEST PUSH0 PUSH1 0x20 DUP3 ADD SWAP1 POP PUSH1 0xF1 PUSH0 DUP4 ADD DUP5 PUSH1 0xD3 JUMP JUMPDEST SWAP3 SWAP2 POP POP JUMP INVALID LOG2 PUSH5 0x6970667358 0x22 SLT KECCAK256 PUSH20 0xD1A1CD790D2B209516B44807EB1A1D28D5F783C PUSH29 0x6085F337DC06B225F1C64736F6C634300081E00330000000000000000 "
		},
		"gasEstimates": {
			"creation": {
				"codeDepositCost": "60200",
				"executionCost": "134",
				"totalCost": "60334"
			},
			"external": {
				"A()": "331",
				"D()": "287",
				"Q()": "309"
			},
			"internal": {
				"expmod(uint256,uint256,uint256)": "infinite",
				"inverse(uint256)": "infinite",
				"isOnCurve(uint256,uint256)": "infinite",
				"pointAdd(uint256,uint256,uint256,uint256)": "infinite",
				"pointDouble(uint256,uint256)": "infinite",
				"pointMul(uint256,uint256,uint256)": "infinite",
				"submod(uint256,uint256,uint256)": "infinite"
			}
		},
		"methodIdentifiers": {
			"A()": "f446c1d0",
			"D()": "0f529ba2",
			"Q()": "e493ef8c"
		}
	},
	"abi": [
		{
			"inputs": [],
			"name": "A",
			"outputs": [
				{
					"internalType": "uint256",
					"name": "",
					"type": "uint256"
				}
			],
			"stateMutability": "view",
			"type": "function"
		},
		{
			"inputs": [],
			"name": "D",
			"outputs": [
				{
					"internalType": "uint256",
					"name": "",
					"type": "uint256"
				}
			],
			"stateMutability": "view",
			"type": "function"
		},
		{
			"inputs": [],
			"name": "Q",
			"outputs": [
				{
					"internalType": "uint256",
					"name": "",
					"type": "uint256"
				}
			],
			"stateMutability": "view",
			"type": "function"
		}
	]
}