{
	"data": {
		"bytecode": {
			"linkReferences": {},
			"object": "6080604052348015600e575f5ffd5b506117b58061001c5f395ff3fe608060405234801561000f575f5ffd5b5060043610610029575f3560e01c806373d7ed691461002d575b5f5ffd5b610047600480360381019061004291906115ae565b61005d565b6040516100549190611608565b60405180910390f35b5f5f600967ffffffffffffffff81111561007a576100796112a3565b5b6040519080825280602002602001820160405280156100a85781602001602082028036833780820191505090505b5090505f5f90505b60098110156100fd578381600981106100cc576100cb611621565b5b60200201518282815181106100e4576100e3611621565b5b60200260200101818152505080806001019150506100b0565b505f6101098286610123565b0361011857600191505061011d565b5f9150505b92915050565b5f5f7f30644e72e131a029b85045b68181585d2833e84879b9709143e1f593f000000190505f6101516102ab565b905080608001515160018651610167919061167b565b14610170575f5ffd5b5f60405180604001604052805f81526020015f81525090505f5f90505b865181101561022157838782815181106101aa576101a9611621565b5b6020026020010151106101bb575f5ffd5b6102128261020d85608001516001856101d4919061167b565b815181106101e5576101e4611621565b5b60200260200101518a8581518110610200576101ff611621565b5b6020026020010151610a6d565b610b0a565b9150808060010191505061018d565b5061024a8183608001515f8151811061023d5761023c611621565b5b6020026020010151610b0a565b905061028e855f0151866020015161026184610bcc565b85604001516102738a60400151610bcc565b8760600151610284895f0151610bcc565b8960200151610c6a565b61029e57600193505050506102a5565b5f93505050505b92915050565b6102b3611175565b60405180604001604052807f118fbb0a5ee9b43c18beb7635661e77ac69fd3b805e3c25f19e27686418ec89e81526020017f1acfa81fab5ab5e8cdf1f3790a48eb99b4863f316d0f94cc5b7a7ac57d4e8a4a815250815f0181905250604051806040016040528060405180604001604052807f01172f2cab5971a859b185ee7c31b4c3fc3f1b63e28d6448a8949ca1cde40b2281526020017f02f6076c9d5bc3a99f67c7bbfcf29aa6a1dab3227569c6ac57e6eb34a10eaf44815250815260200160405180604001604052807f1ee04abc4a3c10cc590e18d2fbe31fd9c2c3f4bb4f7c71fdcfbd5439ee826c2881526020017f1979beefaac84ae737a6a6f1dd8dab634926f16707002b45b5946d108f4178ce8152508152508160200181905250604051806040016040528060405180604001604052807f257c5fbf7a3ad4ceb3146571e02f987d4968db506bb29df18b9e4b40830be48581526020017f05e7c844dbb10d6e6d59d24a5ed575fe0b246a86714ef9e1cbe84ec956d9306f815250815260200160405180604001604052807f06c46ea67cd4105a736f47ce59b9674b11332c3464eb74406a758bd159e04fea81526020017f0723b284133cd4379dac3041aa7fc0aa3c34bcd7c6860607a432790c58c457038152508152508160400181905250604051806040016040528060405180604001604052807f29c17b86d6f7b076802c259f7248f016b590aead6aeb30fb7a4e0c3385b7f80d81526020017f2259d0cfc24b983774b90d4bd865016331c69d752d8441ebde3f7cc3ac3b5a9e815250815260200160405180604001604052807f195a91b8283b0fa4afe331642d3f3ac6ff837f722d752bf45870c9437b751ddd81526020017f2b9960125d06445d0d28c4ed1ad0abc528305ac55a807ce8e0544f4b1a01e99e8152508152508160600181905250600a67ffffffffffffffff811115610579576105786112a3565b5b6040519080825280602002602001820160405280156105b257816020015b61059f6111bc565b8152602001906001900390816105975790505b50816080018190525060405180604001604052807f2a0b8f16c28a58766e5f6755fb31a5688aea29fd79f0b4ac2e711bb13bbce2de81526020017f13fe7fbd27a3abffa60d80234afe1e205f4b9ed43f010c0e8153d08a4c20803b81525081608001515f8151811061062757610626611621565b5b602002602001018190525060405180604001604052807f1842fe47b77042d04a912557874d7eeaaa523218976a1add64162e339a0edbc281526020017f1f4129596b15ef2fd8cfc6e8a10c281f73f3f5fdf8712310707a22a513c87baa815250816080015160018151811061069f5761069e611621565b5b602002602001018190525060405180604001604052807f1a339af39883d30074ad1c15e0a578ce2fe94e125a93f1f2bcc37484f1830b5181526020017f1d951a1ad956f804e9e4ff08c49d52eadf60fcc4ca744a64cce74180c32e4c92815250816080015160028151811061071757610716611621565b5b602002602001018190525060405180604001604052807f234d4a5370c9716c7075d13c6c7ed7a2462929c6f5debd56407d3918abb46c1b81526020017f154f40dc03bc7d073a4893bde280b6931258008c3da85a85e26de403de5a0467815250816080015160038151811061078f5761078e611621565b5b602002602001018190525060405180604001604052807f0d50b9fa554211908233887d57059f4e03663ab91d09253a5f064a160bb780a081526020017f202bacf9b06298f661bda3341c119129e23f9627342d5dc7282382ea208b9ea0815250816080015160048151811061080757610806611621565b5b602002602001018190525060405180604001604052807f181a1c1dc9f37434d127adb0718343fb668672466aa3da04007f3fa208c067a481526020017f28d633a9242f524f1abd65aa589f7c9c4ac3b33181b3d6153e172dbf9d6f0ba6815250816080015160058151811061087f5761087e611621565b5b602002602001018190525060405180604001604052807f0dc00119e28138cfb09f23e266e32e5c5611eab8f1c3fb415286a160ef17a60081526020017f02455136164a310fab0c27f5abc26efdf19fd32a31b772eaa26ca45f9557ce3381525081608001516006815181106108f7576108f6611621565b5b602002602001018190525060405180604001604052807f103e4ccc1c6c34ca0ed2a871abd5184b33085700894c10ec3025eb7285a8229f81526020017f130070488f04736beb0ec1f19fe27334cb1cde1fe1dc695983fabb7401d20dbc815250816080015160078151811061096f5761096e611621565b5b602002602001018190525060405180604001604052807f08eca4bd6974f4e03384c0da9e38f00c05bdeb34d80f7bd7130f7ca8e7fd046281526020017f14c96ff029b7a2b4dc74febd0b7fcd58dfa953e37b2f29d0320c01f5556db7bb81525081608001516008815181106109e7576109e6611621565b5b602002602001018190525060405180604001604052807f25f8e92a9990bc027a9d38ac2ac07931129ad0a0d82ebeaa322093f6172ba15b81526020017f0f07637580ffbfaefaee13d41c5b4c6c9f32eb8f30e1fc77f1fc86bf496d6cbb8152508160800151600981518110610a5f57610a5e611621565b5b602002602001018190525090565b610a756111bc565b610a7d6111d4565b835f0151815f60038110610a9457610a93611621565b5b602002018181525050836020015181600160038110610ab657610ab5611621565b5b6020020181815250508281600260038110610ad457610ad3611621565b5b6020020181815250505f60608360808460076107d05a03fa9050805f8103610af857fe5b5080610b02575f5ffd5b505092915050565b610b126111bc565b610b1a6111f6565b835f0151815f60048110610b3157610b30611621565b5b602002018181525050836020015181600160048110610b5357610b52611621565b5b602002018181525050825f015181600260048110610b7457610b73611621565b5b602002018181525050826020015181600360048110610b9657610b95611621565b5b6020020181815250505f60608360c08460066107d05a03fa9050805f8103610bba57fe5b5080610bc4575f5ffd5b505092915050565b610bd46111bc565b5f7f30644e72e131a029b85045b68181585d97816a916871ca8d3c208c16d87cfd4790505f835f0151148015610c0d57505f8360200151145b15610c2f5760405180604001604052805f81526020015f815250915050610c65565b6040518060400160405280845f01518152602001828560200151610c5391906116db565b83610c5e919061170b565b8152509150505b919050565b5f5f600467ffffffffffffffff811115610c8757610c866112a3565b5b604051908082528060200260200182016040528015610cc057816020015b610cad6111bc565b815260200190600190039081610ca55790505b5090505f600467ffffffffffffffff811115610cdf57610cde6112a3565b5b604051908082528060200260200182016040528015610d1857816020015b610d05611218565b815260200190600190039081610cfd5790505b5090508a825f81518110610d2f57610d2e611621565b5b60200260200101819052508882600181518110610d4f57610d4e611621565b5b60200260200101819052508682600281518110610d6f57610d6e611621565b5b60200260200101819052508482600381518110610d8f57610d8e611621565b5b602002602001018190525089815f81518110610dae57610dad611621565b5b60200260200101819052508781600181518110610dce57610dcd611621565b5b60200260200101819052508581600281518110610dee57610ded611621565b5b60200260200101819052508381600381518110610e0e57610e0d611621565b5b6020026020010181905250610e238282610e33565b9250505098975050505050505050565b5f8151835114610e41575f5ffd5b5f835190505f600682610e54919061173e565b90505f8167ffffffffffffffff811115610e7157610e706112a3565b5b604051908082528060200260200182016040528015610e9f5781602001602082028036833780820191505090505b5090505f5f90505b8381101561111a57868181518110610ec257610ec1611621565b5b60200260200101515f0151825f600684610edc919061173e565b610ee6919061167b565b81518110610ef757610ef6611621565b5b602002602001018181525050868181518110610f1657610f15611621565b5b602002602001015160200151826001600684610f32919061173e565b610f3c919061167b565b81518110610f4d57610f4c611621565b5b602002602001018181525050858181518110610f6c57610f6b611621565b5b60200260200101515f0151600160028110610f8a57610f89611621565b5b6020020151826002600684610f9f919061173e565b610fa9919061167b565b81518110610fba57610fb9611621565b5b602002602001018181525050858181518110610fd957610fd8611621565b5b60200260200101515f01515f60028110610ff657610ff5611621565b5b602002015182600360068461100b919061173e565b611015919061167b565b8151811061102657611025611621565b5b60200260200101818152505085818151811061104557611044611621565b5b60200260200101516020015160016002811061106457611063611621565b5b6020020151826004600684611079919061173e565b611083919061167b565b8151811061109457611093611621565b5b6020026020010181815250508581815181106110b3576110b2611621565b5b6020026020010151602001515f600281106110d1576110d0611621565b5b60200201518260056006846110e6919061173e565b6110f0919061167b565b8151811061110157611100611621565b5b6020026020010181815250508080600101915050610ea7565b5061112361123e565b5f602082602086026020860160086107d05a03fa9050805f810361114357fe5b508061114d575f5ffd5b5f825f6001811061116157611160611621565b5b602002015114159550505050505092915050565b6040518060a001604052806111886111bc565b8152602001611195611218565b81526020016111a2611218565b81526020016111af611218565b8152602001606081525090565b60405180604001604052805f81526020015f81525090565b6040518060600160405280600390602082028036833780820191505090505090565b6040518060800160405280600490602082028036833780820191505090505090565b604051806040016040528061122b611260565b8152602001611238611260565b81525090565b6040518060200160405280600190602082028036833780820191505090505090565b6040518060400160405280600290602082028036833780820191505090505090565b5f604051905090565b5f5ffd5b5f5ffd5b5f601f19601f8301169050919050565b7f4e487b71000000000000000000000000000000000000000000000000000000005f52604160045260245ffd5b6112d982611293565b810181811067ffffffffffffffff821117156112f8576112f76112a3565b5b80604052505050565b5f61130a611282565b905061131682826112d0565b919050565b5f819050919050565b61132d8161131b565b8114611337575f5ffd5b50565b5f8135905061134881611324565b92915050565b5f604082840312156113635761136261128f565b5b61136d6040611301565b90505f61137c8482850161133a565b5f83015250602061138f8482850161133a565b60208301525092915050565b5f5ffd5b5f67ffffffffffffffff8211156113b9576113b86112a3565b5b602082029050919050565b5f5ffd5b5f6113da6113d58461139f565b611301565b905080602084028301858111156113f4576113f36113c4565b5b835b8181101561141d5780611409888261133a565b8452602084019350506020810190506113f6565b5050509392505050565b5f82601f83011261143b5761143a61139b565b5b60026114488482856113c8565b91505092915050565b5f608082840312156114665761146561128f565b5b6114706040611301565b90505f61147f84828501611427565b5f83015250604061149284828501611427565b60208301525092915050565b5f61010082840312156114b4576114b361128f565b5b6114be6060611301565b90505f6114cd8482850161134e565b5f8301525060406114e084828501611451565b60208301525060c06114f48482850161134e565b60408301525092915050565b5f67ffffffffffffffff82111561151a576115196112a3565b5b602082029050919050565b5f61153761153284611500565b611301565b90508060208402830185811115611551576115506113c4565b5b835b8181101561157a5780611566888261133a565b845260208401935050602081019050611553565b5050509392505050565b5f82601f8301126115985761159761139b565b5b60096115a5848285611525565b91505092915050565b5f5f61022083850312156115c5576115c461128b565b5b5f6115d28582860161149e565b9250506101006115e485828601611584565b9150509250929050565b5f8115159050919050565b611602816115ee565b82525050565b5f60208201905061161b5f8301846115f9565b92915050565b7f4e487b71000000000000000000000000000000000000000000000000000000005f52603260045260245ffd5b7f4e487b71000000000000000000000000000000000000000000000000000000005f52601160045260245ffd5b5f6116858261131b565b91506116908361131b565b92508282019050808211156116a8576116a761164e565b5b92915050565b7f4e487b71000000000000000000000000000000000000000000000000000000005f52601260045260245ffd5b5f6116e58261131b565b91506116f08361131b565b925082611700576116ff6116ae565b5b828206905092915050565b5f6117158261131b565b91506117208361131b565b92508282039050818111156117385761173761164e565b5b92915050565b5f6117488261131b565b91506117538361131b565b92508282026117618161131b565b915082820484148315176117785761177761164e565b5b509291505056fea2646970667358221220c4382c0122004fe4717b50f1fb016a4e241f7b37885684830b1a3c7704bd91f164736f6c634300081e0033",
			"opcodes": "PUSH1 0x80 PUSH1 0x40 MSTORE CALLVALUE DUP1 ISZERO PUSH1 0xE JUMPI PUSH0 PUSH0 REVERT JUMPDEST POP PUSH2 0x17B5 DUP1 PUSH2 0x1C PUSH0 CODECOPY PUSH0 RETURN INVALID PUSH1 0x80 PUSH1 0x40 MSTORE CALLVALUE DUP1 ISZERO PUSH2 0xF JUMPI PUSH0 PUSH0 REVERT JUMPDEST POP PUSH1 0x4 CALLDATASIZE LT PUSH2 0x29 JUMPI PUSH0 CALLDATALOAD PUSH1 0xE0 SHR DUP1 PUSH4 0x73D7ED69 EQ PUSH2 0x2D JUMPI JUMPDEST PUSH0 PUSH0 REVERT JUMPDEST PUSH2 0x47 PUSH1 0x4 DUP1 CALLDATASIZE SUB DUP2 ADD SWAP1 PUSH2 0x42 SWAP2 SWAP1 PUSH2 0x15AE JUMP JUMPDEST PUSH2 0x5D JUMP JUMPDEST PUSH1 0x40 MLOAD PUSH2 0x54 SWAP2 SWAP1 PUSH2 0x1608 JUMP JUMPDEST PUSH1 0x40 MLOAD DUP1 SWAP2 SUB SWAP1 RETURN JUMPDEST PUSH0 PUSH0 PUSH1 0x9 PUSH8 0xFFFFFFFFFFFFFFFF DUP2 GT ISZERO PUSH2 0x7A JUMPI PUSH2 0x79 PUSH2 0x12A3 JUMP JUMPDEST JUMPDEST PUSH1 0x40 MLOAD SWAP1 DUP1 DUP3 MSTORE DUP1 PUSH1 0x20 MUL PUSH1 0x20 ADD DUP3 ADD PUSH1 0x40 MSTORE DUP1 ISZERO PUSH2 0xA8 JUMPI DUP2 PUSH1 0x20 ADD PUSH1 0x20 DUP3 MUL DUP1 CALLDATASIZE DUP4 CALLDATACOPY DUP1 DUP3 ADD SWAP2 POP POP SWAP1 POP JUMPDEST POP SWAP1 POP PUSH0 PUSH0 SWAP1 POP JUMPDEST PUSH1 0x9 DUP2 LT ISZERO PUSH2 0xFD JUMPI DUP4 DUP2 PUSH1 0x9 DUP2 LT PUSH2 0xCC JUMPI PUSH2 0xCB PUSH2 0x1621 JUMP JUMPDEST JUMPDEST PUSH1 0x20 MUL ADD MLOAD DUP3 DUP3 DUP2 MLOAD DUP2 LT PUSH2 0xE4 JUMPI PUSH2 0xE3 PUSH2 0x1621 JUMP JUMPDEST JUMPDEST PUSH1 0x20 MUL PUSH1 0x20 ADD ADD DUP2 DUP2 MSTORE POP POP DUP1 DUP1 PUSH1 0x1 ADD SWAP2 POP POP PUSH2 0xB0 JUMP JUMPDEST POP PUSH0 PUSH2 0x109 DUP3 DUP7 PUSH2 0x123 JUMP JUMPDEST SUB PUSH2 0x118 JUMPI PUSH1 0x1 SWAP2 POP POP PUSH2 0x11D JUMP JUMPDEST PUSH0 SWAP2 POP POP JUMPDEST SWAP3 SWAP2 POP POP JUMP JUMPDEST PUSH0 PUSH0 PUSH32 0x30644E72E131A029B85045B68181585D2833E84879B9709143E1F593F0000001 SWAP1 POP PUSH0 PUSH2 0x151 PUSH2 0x2AB JUMP JUMPDEST SWAP1 POP DUP1 PUSH1 0x80 ADD MLOAD MLOAD PUSH1 0x1 DUP7 MLOAD PUSH2 0x167 SWAP2 SWAP1 PUSH2 0x167B JUMP JUMPDEST EQ PUSH2 0x170 JUMPI PUSH0 PUSH0 REVERT JUMPDEST PUSH0 PUSH1 0x40 MLOAD DUP1 PUSH1 0x40 ADD PUSH1 0x40 MSTORE DUP1 PUSH0 DUP2 MSTORE PUSH1 0x20 ADD PUSH0 DUP2 MSTORE POP SWAP1 POP PUSH0 PUSH0 SWAP1 POP JUMPDEST DUP7 MLOAD DUP2 LT ISZERO PUSH2 0x221 JUMPI DUP4 DUP8 DUP3 DUP2 MLOAD DUP2 LT PUSH2 0x1AA JUMPI PUSH2 0x1A9 PUSH2 0x1621 JUMP JUMPDEST JUMPDEST PUSH1 0x20 MUL PUSH1 0x20 ADD ADD MLOAD LT PUSH2 0x1BB JUMPI PUSH0 PUSH0 REVERT JUMPDEST PUSH2 0x212 DUP3 PUSH2 0x20D DUP6 PUSH1 0x80 ADD MLOAD PUSH1 0x1 DUP6 PUSH2 0x1D4 SWAP2 SWAP1 PUSH2 0x167B JUMP JUMPDEST DUP2 MLOAD DUP2 LT PUSH2 0x1E5 JUMPI PUSH2 0x1E4 PUSH2 0x1621 JUMP JUMPDEST JUMPDEST PUSH1 0x20 MUL PUSH1 0x20 ADD ADD MLOAD DUP11 DUP6 DUP2 MLOAD DUP2 LT PUSH2 0x200 JUMPI PUSH2 0x1FF PUSH2 0x1621 JUMP JUMPDEST JUMPDEST PUSH1 0x20 MUL PUSH1 0x20 ADD ADD MLOAD PUSH2 0xA6D JUMP JUMPDEST PUSH2 0xB0A JUMP JUMPDEST SWAP2 POP DUP1 DUP1 PUSH1 0x1 ADD SWAP2 POP POP PUSH2 0x18D JUMP JUMPDEST POP PUSH2 0x24A DUP2 DUP4 PUSH1 0x80 ADD MLOAD PUSH0 DUP2 MLOAD DUP2 LT PUSH2 0x23D JUMPI PUSH2 0x23C PUSH2 0x1621 JUMP JUMPDEST JUMPDEST PUSH1 0x20 MUL PUSH1 0x20 ADD ADD MLOAD PUSH2 0xB0A JUMP JUMPDEST SWAP1 POP PUSH2 0x28E DUP6 PUSH0 ADD MLOAD DUP7 PUSH1 0x20 ADD MLOAD PUSH2 0x261 DUP5 PUSH2 0xBCC JUMP JUMPDEST DUP6 PUSH1 0x40 ADD MLOAD PUSH2 0x273 DUP11 PUSH1 0x40 ADD MLOAD PUSH2 0xBCC JUMP JUMPDEST DUP8 PUSH1 0x60 ADD MLOAD PUSH2 0x284 DUP10 PUSH0 ADD MLOAD PUSH2 0xBCC JUMP JUMPDEST DUP10 PUSH1 0x20 ADD MLOAD PUSH2 0xC6A JUMP JUMPDEST PUSH2 0x29E JUMPI PUSH1 0x1 SWAP4 POP POP POP POP PUSH2 0x2A5 JUMP JUMPDEST PUSH0 SWAP4 POP POP POP POP JUMPDEST SWAP3 SWAP2 POP POP JUMP JUMPDEST PUSH2 0x2B3 PUSH2 0x1175 JUMP JUMPDEST PUSH1 0x40 MLOAD DUP1 PUSH1 0x40 ADD PUSH1 0x40 MSTORE DUP1 PUSH32 0x118FBB0A5EE9B43C18BEB7635661E77AC69FD3B805E3C25F19E27686418EC89E DUP2 MSTORE PUSH1 0x20 ADD PUSH32 0x1ACFA81FAB5AB5E8CDF1F3790A48EB99B4863F316D0F94CC5B7A7AC57D4E8A4A DUP2 MSTORE POP DUP2 PUSH0 ADD DUP2 SWAP1 MSTORE POP PUSH1 0x40 MLOAD DUP1 PUSH1 0x40 ADD PUSH1 0x40 MSTORE DUP1 PUSH1 0x40 MLOAD DUP1 PUSH1 0x40 ADD PUSH1 0x40 MSTORE DUP1 PUSH32 0x1172F2CAB5971A859B185EE7C31B4C3FC3F1B63E28D6448A8949CA1CDE40B22 DUP2 MSTORE PUSH1 0x20 ADD PUSH32 0x2F6076C9D5BC3A99F67C7BBFCF29AA6A1DAB3227569C6AC57E6EB34A10EAF44 DUP2 MSTORE POP DUP2 MSTORE PUSH1 0x20 ADD PUSH1 0x40 MLOAD DUP1 PUSH1 0x40 ADD PUSH1 0x40 MSTORE DUP1 PUSH32 0x1EE04ABC4A3C10CC590E18D2FBE31FD9C2C3F4BB4F7C71FDCFBD5439EE826C28 DUP2 MSTORE PUSH1 0x20 ADD PUSH32 0x1979BEEFAAC84AE737A6A6F1DD8DAB634926F16707002B45B5946D108F4178CE DUP2 MSTORE POP DUP2 MSTORE POP DUP2 PUSH1 0x20 ADD DUP2 SWAP1 MSTORE POP PUSH1 0x40 MLOAD DUP1 PUSH1 0x40 ADD PUSH1 0x40 MSTORE DUP1 PUSH1 0x40 MLOAD DUP1 PUSH1 0x40 ADD PUSH1 0x40 MSTORE DUP1 PUSH32 0x257C5FBF7A3AD4CEB3146571E02F987D4968DB506BB29DF18B9E4B40830BE485 DUP2 MSTORE PUSH1 0x20 ADD PUSH32 0x5E7C844DBB10D6E6D59D24A5ED575FE0B246A86714EF9E1CBE84EC956D9306F DUP2 MSTORE POP DUP2 MSTORE PUSH1 0x20 ADD PUSH1 0x40 MLOAD DUP1 PUSH1 0x40 ADD PUSH1 0x40 MSTORE DUP1 PUSH32 0x6C46EA67CD4105A736F47CE59B9674B11332C3464EB74406A758BD159E04FEA DUP2 MSTORE PUSH1 0x20 ADD PUSH32 0x723B284133CD4379DAC3041AA7FC0AA3C34BCD7C6860607A432790C58C45703 DUP2 MSTORE POP DUP2 MSTORE POP DUP2 PUSH1 0x40 ADD DUP2 SWAP1 MSTORE POP PUSH1 0x40 MLOAD DUP1 PUSH1 0x40 ADD PUSH1 0x40 MSTORE DUP1 PUSH1 0x40 MLOAD DUP1 PUSH1 0x40 ADD PUSH1 0x40 MSTORE DUP1 PUSH32 0x29C17B86D6F7B076802C259F7248F016B590AEAD6AEB30FB7A4E0C3385B7F80D DUP2 MSTORE PUSH1 0x20 ADD PUSH32 0x2259D0CFC24B983774B90D4BD865016331C69D752D8441EBDE3F7CC3AC3B5A9E DUP2 MSTORE POP DUP2 MSTORE PUSH1 0x20 ADD PUSH1 0x40 MLOAD DUP1 PUSH1 0x40 ADD PUSH1 0x40 MSTORE DUP1 PUSH32 0x195A91B8283B0FA4AFE331642D3F3AC6FF837F722D752BF45870C9437B751DDD DUP2 MSTORE PUSH1 0x20 ADD PUSH32 0x2B9960125D06445D0D28C4ED1AD0ABC528305AC55A807CE8E0544F4B1A01E99E DUP2 MSTORE POP DUP2 MSTORE POP DUP2 PUSH1 0x60 ADD DUP2 SWAP1 MSTORE POP PUSH1 0xA PUSH8 0xFFFFFFFFFFFFFFFF DUP2 GT ISZERO PUSH2 0x579 JUMPI PUSH2 0x578 PUSH2 0x12A3 JUMP JUMPDEST JUMPDEST PUSH1 0x40 MLOAD SWAP1 DUP1 DUP3 MSTORE DUP1 PUSH1 0x20 MUL PUSH1 0x20 ADD DUP3 ADD PUSH1 0x40 MSTORE DUP1 ISZERO PUSH2 0x5B2 JUMPI DUP2 PUSH1 0x20 ADD JUMPDEST PUSH2 0x59F PUSH2 0x11BC JUMP JUMPDEST DUP2 MSTORE PUSH1 0x20 ADD SWAP1 PUSH1 0x1 SWAP1 SUB SWAP1 DUP2 PUSH2 0x597 JUMPI SWAP1 POP JUMPDEST POP DUP2 PUSH1 0x80 ADD DUP2 SWAP1 MSTORE POP PUSH1 0x40 MLOAD DUP1 PUSH1 0x40 ADD PUSH1 0x40 MSTORE DUP1 PUSH32 0x2A0B8F16C28A58766E5F6755FB31A5688AEA29FD79F0B4AC2E711BB13BBCE2DE DUP2 MSTORE PUSH1 0x20 ADD PUSH32 0x13FE7FBD27A3ABFFA60D80234AFE1E205F4B9ED43F010C0E8153D08A4C20803B DUP2 MSTORE POP DUP2 PUSH1 0x80 ADD MLOAD PUSH0 DUP2 MLOAD DUP2 LT PUSH2 0x627 JUMPI PUSH2 0x626 PUSH2 0x1621 JUMP JUMPDEST JUMPDEST PUSH1 0x20 MUL PUSH1 0x20 ADD ADD DUP2 SWAP1 MSTORE POP PUSH1 0x40 MLOAD DUP1 PUSH1 0x40 ADD PUSH1 0x40 MSTORE DUP1 PUSH32 0x1842FE47B77042D04A912557874D7EEAAA523218976A1ADD64162E339A0EDBC2 DUP2 MSTORE PUSH1 0x20 ADD PUSH32 0x1F4129596B15EF2FD8CFC6E8A10C281F73F3F5FDF8712310707A22A513C87BAA DUP2 MSTORE POP DUP2 PUSH1 0x80 ADD MLOAD PUSH1 0x1 DUP2 MLOAD DUP2 LT PUSH2 0x69F JUMPI PUSH2 0x69E PUSH2 0x1621 JUMP JUMPDEST JUMPDEST PUSH1 0x20 MUL PUSH1 0x20 ADD ADD DUP2 SWAP1 MSTORE POP PUSH1 0x40 MLOAD DUP1 PUSH1 0x40 ADD PUSH1 0x40 MSTORE DUP1 PUSH32 0x1A339AF39883D30074AD1C15E0A578CE2FE94E125A93F1F2BCC37484F1830B51 DUP2 MSTORE PUSH1 0x20 ADD PUSH32 0x1D951A1AD956F804E9E4FF08C49D52EADF60FCC4CA744A64CCE74180C32E4C92 DUP2 MSTORE POP DUP2 PUSH1 0x80 ADD MLOAD PUSH1 0x2 DUP2 MLOAD DUP2 LT PUSH2 0x717 JUMPI PUSH2 0x716 PUSH2 0x1621 JUMP JUMPDEST JUMPDEST PUSH1 0x20 MUL PUSH1 0x20 ADD ADD DUP2 SWAP1 MSTORE POP PUSH1 0x40 MLOAD DUP1 PUSH1 0x40 ADD PUSH1 0x40 MSTORE DUP1 PUSH32 0x234D4A5370C9716C7075D13C6C7ED7A2462929C6F5DEBD56407D3918ABB46C1B DUP2 MSTORE PUSH1 0x20 ADD PUSH32 0x154F40DC03BC7D073A4893BDE280B6931258008C3DA85A85E26DE403DE5A0467 DUP2 MSTORE POP DUP2 PUSH1 0x80 ADD MLOAD PUSH1 0x3 DUP2 MLOAD DUP2 LT PUSH2 0x78F JUMPI PUSH2 0x78E PUSH2 0x1621 JUMP JUMPDEST JUMPDEST PUSH1 0x20 MUL PUSH1 0x20 ADD ADD DUP2 SWAP1 MSTORE POP PUSH1 0x40 MLOAD DUP1 PUSH1 0x40 ADD PUSH1 0x40 MSTORE DUP1 PUSH32 0xD50B9FA554211908233887D57059F4E03663AB91D09253A5F064A160BB780A0 DUP2 MSTORE PUSH1 0x20 ADD PUSH32 0x202BACF9B06298F661BDA3341C119129E23F9627342D5DC7282382EA208B9EA0 DUP2 MSTORE POP DUP2 PUSH1 0x80 ADD MLOAD PUSH1 0x4 DUP2 MLOAD DUP2 LT PUSH2 0x807 JUMPI PUSH2 0x806 PUSH2 0x1621 JUMP JUMPDEST JUMPDEST PUSH1 0x20 MUL PUSH1 0x20 ADD ADD DUP2 SWAP1 MSTORE POP PUSH1 0x40 MLOAD DUP1 PUSH1 0x40 ADD PUSH1 0x40 MSTORE DUP1 PUSH32 0x181A1C1DC9F37434D127ADB0718343FB668672466AA3DA04007F3FA208C067A4 DUP2 MSTORE PUSH1 0x20 ADD PUSH32 0x28D633A9242F524F1ABD65AA589F7C9C4AC3B33181B3D6153E172DBF9D6F0BA6 DUP2 MSTORE POP DUP2 PUSH1 0x80 ADD MLOAD PUSH1 0x5 DUP2 MLOAD DUP2 LT PUSH2 0x87F JUMPI PUSH2 0x87E PUSH2 0x1621 JUMP JUMPDEST JUMPDEST PUSH1 0x20 MUL PUSH1 0x20 ADD ADD DUP2 SWAP1 MSTORE POP PUSH1 0x40 MLOAD DUP1 PUSH1 0x40 ADD PUSH1 0x40 MSTORE DUP1 PUSH32 0xDC00119E28138CFB09F23E266E32E5C5611EAB8F1C3FB415286A160EF17A600 DUP2 MSTORE PUSH1 0x20 ADD PUSH32 0x2455136164A310FAB0C27F5ABC26EFDF19FD32A31B772EAA26CA45F9557CE33 DUP2 MSTORE POP DUP2 PUSH1 0x80 ADD MLOAD PUSH1 0x6 DUP2 MLOAD DUP2 LT PUSH2 0x8F7 JUMPI PUSH2 0x8F6 PUSH2 0x1621 JUMP JUMPDEST JUMPDEST PUSH1 0x20 MUL PUSH1 0x20 ADD ADD DUP2 SWAP1 MSTORE POP PUSH1 0x40 MLOAD DUP1 PUSH1 0x40 ADD PUSH1 0x40 MSTORE DUP1 PUSH32 0x103E4CCC1C6C34CA0ED2A871ABD5184B33085700894C10EC3025EB7285A8229F DUP2 MSTORE PUSH1 0x20 ADD PUSH32 0x130070488F04736BEB0EC1F19FE27334CB1CDE1FE1DC695983FABB7401D20DBC DUP2 MSTORE POP DUP2 PUSH1 0x80 ADD MLOAD PUSH1 0x7 DUP2 MLOAD DUP2 LT PUSH2 0x96F JUMPI PUSH2 0x96E PUSH2 0x1621 JUMP JUMPDEST JUMPDEST PUSH1 0x20 MUL PUSH1 0x20 ADD ADD DUP2 SWAP1 MSTORE POP PUSH1 0x40 MLOAD DUP1 PUSH1 0x40 ADD PUSH1 0x40 MSTORE DUP1 PUSH32 0x8ECA4BD6974F4E03384C0DA9E38F00C05BDEB34D80F7BD7130F7CA8E7FD0462 DUP2 MSTORE PUSH1 0x20 ADD PUSH32 0x14C96FF029B7A2B4DC74FEBD0B7FCD58DFA953E37B2F29D0320C01F5556DB7BB DUP2 MSTORE POP DUP2 PUSH1 0x80 ADD MLOAD PUSH1 0x8 DUP2 MLOAD DUP2 LT PUSH2 0x9E7 JUMPI PUSH2 0x9E6 PUSH2 0x1621 JUMP JUMPDEST JUMPDEST PUSH1 0x20 MUL PUSH1 0x20 ADD ADD DUP2 SWAP1 MSTORE POP PUSH1 0x40 MLOAD DUP1 PUSH1 0x40 ADD PUSH1 0x40 MSTORE DUP1 PUSH32 0x25F8E92A9990BC027A9D38AC2AC07931129AD0A0D82EBEAA322093F6172BA15B DUP2 MSTORE PUSH1 0x20 ADD PUSH32 0xF07637580FFBFAEFAEE13D41C5B4C6C9F32EB8F30E1FC77F1FC86BF496D6CBB DUP2 MSTORE POP DUP2 PUSH1 0x80 ADD MLOAD PUSH1 0x9 DUP2 MLOAD DUP2 LT PUSH2 0xA5F JUMPI PUSH2 0xA5E PUSH2 0x1621 JUMP JUMPDEST JUMPDEST PUSH1 0x20 MUL PUSH1 0x20 ADD ADD DUP2 SWAP1 MSTORE POP SWAP1 JUMP JUMPDEST PUSH2 0xA75 PUSH2 0x11BC JUMP JUMPDEST PUSH2 0xA7D PUSH2 0x11D4 JUMP JUMPDEST DUP4 PUSH0 ADD MLOAD DUP2 PUSH0 PUSH1 0x3 DUP2 LT PUSH2 0xA94 JUMPI PUSH2 0xA93 PUSH2 0x1621 JUMP JUMPDEST JUMPDEST PUSH1 0x20 MUL ADD DUP2 DUP2 MSTORE POP POP DUP4 PUSH1 0x20 ADD MLOAD DUP2 PUSH1 0x1 PUSH1 0x3 DUP2 LT PUSH2 0xAB6 JUMPI PUSH2 0xAB5 PUSH2 0x1621 JUMP JUMPDEST JUMPDEST PUSH1 0x20 MUL ADD DUP2 DUP2 MSTORE POP POP DUP3 DUP2 PUSH1 0x2 PUSH1 0x3 DUP2 LT PUSH2 0xAD4 JUMPI PUSH2 0xAD3 PUSH2 0x1621 JUMP JUMPDEST JUMPDEST PUSH1 0x20 MUL ADD DUP2 DUP2 MSTORE POP POP PUSH0 PUSH1 0x60 DUP4 PUSH1 0x80 DUP5 PUSH1 0x7 PUSH2 0x7D0 GAS SUB STATICCALL SWAP1 POP DUP1 PUSH0 DUP2 SUB PUSH2 0xAF8 JUMPI INVALID JUMPDEST POP DUP1 PUSH2 0xB02 JUMPI PUSH0 PUSH0 REVERT JUMPDEST POP POP SWAP3 SWAP2 POP POP JUMP JUMPDEST PUSH2 0xB12 PUSH2 0x11BC JUMP JUMPDEST PUSH2 0xB1A PUSH2 0x11F6 JUMP JUMPDEST DUP4 PUSH0 ADD MLOAD DUP2 PUSH0 PUSH1 0x4 DUP2 LT PUSH2 0xB31 JUMPI PUSH2 0xB30 PUSH2 0x1621 JUMP JUMPDEST JUMPDEST PUSH1 0x20 MUL ADD DUP2 DUP2 MSTORE POP POP DUP4 PUSH1 0x20 ADD MLOAD DUP2 PUSH1 0x1 PUSH1 0x4 DUP2 LT PUSH2 0xB53 JUMPI PUSH2 0xB52 PUSH2 0x1621 JUMP JUMPDEST JUMPDEST PUSH1 0x20 MUL ADD DUP2 DUP2 MSTORE POP POP DUP3 PUSH0 ADD MLOAD DUP2 PUSH1 0x2 PUSH1 0x4 DUP2 LT PUSH2 0xB74 JUMPI PUSH2 0xB73 PUSH2 0x1621 JUMP JUMPDEST JUMPDEST PUSH1 0x20 MUL ADD DUP2 DUP2 MSTORE POP POP DUP3 PUSH1 0x20 ADD MLOAD DUP2 PUSH1 0x3 PUSH1 0x4 DUP2 LT PUSH2 0xB96 JUMPI PUSH2 0xB95 PUSH2 0x1621 JUMP JUMPDEST JUMPDEST PUSH1 0x20 MUL ADD DUP2 DUP2 MSTORE POP POP PUSH0 PUSH1 0x60 DUP4 PUSH1 0xC0 DUP5 PUSH1 0x6 PUSH2 0x7D0 GAS SUB STATICCALL SWAP1 POP DUP1 PUSH0 DUP2 SUB PUSH2 0xBBA JUMPI INVALID JUMPDEST POP DUP1 PUSH2 0xBC4 JUMPI PUSH0 PUSH0 REVERT JUMPDEST POP POP SWAP3 SWAP2 POP POP JUMP JUMPDEST PUSH2 0xBD4 PUSH2 0x11BC JUMP JUMPDEST PUSH0 PUSH32 0x30644E72E131A029B85045B68181585D97816A916871CA8D3C208C16D87CFD47 SWAP1 POP PUSH0 DUP4 PUSH0 ADD MLOAD EQ DUP1 ISZERO PUSH2 0xC0D JUMPI POP PUSH0 DUP4 PUSH1 0x20 ADD MLOAD EQ JUMPDEST ISZERO PUSH2 0xC2F JUMPI PUSH1 0x40 MLOAD DUP1 PUSH1 0x40 ADD PUSH1 0x40 MSTORE DUP1 PUSH0 DUP2 MSTORE PUSH1 0x20 ADD PUSH0 DUP2 MSTORE POP SWAP2 POP POP PUSH2 0xC65 JUMP JUMPDEST PUSH1 0x40 MLOAD DUP1 PUSH1 0x40 ADD PUSH1 0x40 MSTORE DUP1 DUP5 PUSH0 ADD MLOAD DUP2 MSTORE PUSH1 0x20 ADD DUP3 DUP6 PUSH1 0x20 ADD MLOAD PUSH2 0xC53 SWAP2 SWAP1 PUSH2 0x16DB JUMP JUMPDEST DUP4 PUSH2 0xC5E SWAP2 SWAP1 PUSH2 0x170B JUMP JUMPDEST DUP2 MSTORE POP SWAP2 POP POP JUMPDEST SWAP2 SWAP1 POP JUMP JUMPDEST PUSH0 PUSH0 PUSH1 0x4 PUSH8 0xFFFFFFFFFFFFFFFF DUP2 GT ISZERO PUSH2 0xC87 JUMPI PUSH2 0xC86 PUSH2 0x12A3 JUMP JUMPDEST JUMPDEST PUSH1 0x40 MLOAD SWAP1 DUP1 DUP3 MSTORE DUP1 PUSH1 0x20 MUL PUSH1 0x20 ADD DUP3 ADD PUSH1 0x40 MSTORE DUP1 ISZERO PUSH2 0xCC0 JUMPI DUP2 PUSH1 0x20 ADD JUMPDEST PUSH2 0xCAD PUSH2 0x11BC JUMP JUMPDEST DUP2 MSTORE PUSH1 0x20 ADD SWAP1 PUSH1 0x1 SWAP1 SUB SWAP1 DUP2 PUSH2 0xCA5 JUMPI SWAP1 POP JUMPDEST POP SWAP1 POP PUSH0 PUSH1 0x4 PUSH8 0xFFFFFFFFFFFFFFFF DUP2 GT ISZERO PUSH2 0xCDF JUMPI PUSH2 0xCDE PUSH2 0x12A3 JUMP JUMPDEST JUMPDEST PUSH1 0x40 MLOAD SWAP1 DUP1 DUP3 MSTORE DUP1 PUSH1 0x20 MUL PUSH1 0x20 ADD DUP3 ADD PUSH1 0x40 MSTORE DUP1 ISZERO PUSH2 0xD18 JUMPI DUP2 PUSH1 0x20 ADD JUMPDEST PUSH2 0xD05 PUSH2 0x1218 JUMP JUMPDEST DUP2 MSTORE PUSH1 0x20 ADD SWAP1 PUSH1 0x1 SWAP1 SUB SWAP1 DUP2 PUSH2 0xCFD JUMPI SWAP1 POP JUMPDEST POP SWAP1 POP DUP11 DUP3 PUSH0 DUP2 MLOAD DUP2 LT PUSH2 0xD2F JUMPI PUSH2 0xD2E PUSH2 0x1621 JUMP JUMPDEST JUMPDEST PUSH1 0x20 MUL PUSH1 0x20 ADD ADD DUP2 SWAP1 MSTORE POP DUP9 DUP3 PUSH1 0x1 DUP2 MLOAD DUP2 LT PUSH2 0xD4F JUMPI PUSH2 0xD4E PUSH2 0x1621 JUMP JUMPDEST JUMPDEST PUSH1 0x20 MUL PUSH1 0x20 ADD ADD DUP2 SWAP1 MSTORE POP DUP7 DUP3 PUSH1 0x2 DUP2 MLOAD DUP2 LT PUSH2 0xD6F JUMPI PUSH2 0xD6E PUSH2 0x1621 JUMP JUMPDEST JUMPDEST PUSH1 0x20 MUL PUSH1 0x20 ADD ADD DUP2 SWAP1 MSTORE POP DUP5 DUP3 PUSH1 0x3 DUP2 MLOAD DUP2 LT PUSH2 0xD8F JUMPI PUSH2 0xD8E PUSH2 0x1621 JUMP JUMPDEST JUMPDEST PUSH1 0x20 MUL PUSH1 0x20 ADD ADD DUP2 SWAP1 MSTORE POP DUP10 DUP2 PUSH0 DUP2 MLOAD DUP2 LT PUSH2 0xDAE JUMPI PUSH2 0xDAD PUSH2 0x1621 JUMP JUMPDEST JUMPDEST PUSH1 0x20 MUL PUSH1 0x20 ADD ADD DUP2 SWAP1 MSTORE POP DUP8 DUP2 PUSH1 0x1 DUP2 MLOAD DUP2 LT PUSH2 0xDCE JUMPI PUSH2 0xDCD PUSH2 0x1621 JUMP JUMPDEST JUMPDEST PUSH1 0x20 MUL PUSH1 0x20 ADD ADD DUP2 SWAP1 MSTORE POP DUP6 DUP2 PUSH1 0x2 DUP2 MLOAD DUP2 LT PUSH2 0xDEE JUMPI PUSH2 0xDED PUSH2 0x1621 JUMP JUMPDEST JUMPDEST PUSH1 0x20 MUL PUSH1 0x20 ADD ADD DUP2 SWAP1 MSTORE POP DUP4 DUP2 PUSH1 0x3 DUP2 MLOAD DUP2 LT PUSH2 0xE0E JUMPI PUSH2 0xE0D PUSH2 0x1621 JUMP JUMPDEST JUMPDEST PUSH1 0x20 MUL PUSH1 0x20 ADD ADD DUP2 SWAP1 MSTORE POP PUSH2 0xE23 DUP3 DUP3 PUSH2 0xE33 JUMP JUMPDEST SWAP3 POP POP POP SWAP9 SWAP8 POP POP POP POP POP POP POP POP JUMP JUMPDEST PUSH0 DUP2 MLOAD DUP4 MLOAD EQ PUSH2 0xE41 JUMPI PUSH0 PUSH0 REVERT JUMPDEST PUSH0 DUP4 MLOAD SWAP1 POP PUSH0 PUSH1 0x6 DUP3 PUSH2 0xE54 SWAP2 SWAP1 PUSH2 0x173E JUMP JUMPDEST SWAP1 POP PUSH0 DUP2 PUSH8 0xFFFFFFFFFFFFFFFF DUP2 GT ISZERO PUSH2 0xE71 JUMPI PUSH2 0xE70 PUSH2 0x12A3 JUMP JUMPDEST JUMPDEST PUSH1 0x40 MLOAD SWAP1 DUP1 DUP3 MSTORE DUP1 PUSH1 0x20 MUL PUSH1 0x20 ADD DUP3 ADD PUSH1 0x40 MSTORE DUP1 ISZERO PUSH2 0xE9F JUMPI DUP2 PUSH1 0x20 ADD PUSH1 0x20 DUP3 MUL DUP1 CALLDATASIZE DUP4 CALLDATACOPY DUP1 DUP3 ADD SWAP2 POP POP SWAP1 POP JUMPDEST POP SWAP1 POP PUSH0 PUSH0 SWAP1 POP JUMPDEST DUP4 DUP2 LT ISZERO PUSH2 0x111A JUMPI DUP7 DUP2 DUP2 MLOAD DUP2 LT PUSH2 0xEC2 JUMPI PUSH2 0xEC1 PUSH2 0x1621 JUMP JUMPDEST JUMPDEST PUSH1 0x20 MUL PUSH1 0x20 ADD ADD MLOAD PUSH0 ADD MLOAD DUP3 PUSH0 PUSH1 0x6 DUP5 PUSH2 0xEDC SWAP2 SWAP1 PUSH2 0x173E JUMP JUMPDEST PUSH2 0xEE6 SWAP2 SWAP1 PUSH2 0x167B JUMP JUMPDEST DUP2 MLOAD DUP2 LT PUSH2 0xEF7 JUMPI PUSH2 0xEF6 PUSH2 0x1621 JUMP JUMPDEST JUMPDEST PUSH1 0x20 MUL PUSH1 0x20 ADD ADD DUP2 DUP2 MSTORE POP POP DUP7 DUP2 DUP2 MLOAD DUP2 LT PUSH2 0xF16 JUMPI PUSH2 0xF15 PUSH2 0x1621 JUMP JUMPDEST JUMPDEST PUSH1 0x20 MUL PUSH1 0x20 ADD ADD MLOAD PUSH1 0x20 ADD MLOAD DUP3 PUSH1 0x1 PUSH1 0x6 DUP5 PUSH2 0xF32 SWAP2 SWAP1 PUSH2 0x173E JUMP JUMPDEST PUSH2 0xF3C SWAP2 SWAP1 PUSH2 0x167B JUMP JUMPDEST DUP2 MLOAD DUP2 LT PUSH2 0xF4D JUMPI PUSH2 0xF4C PUSH2 0x1621 JUMP JUMPDEST JUMPDEST PUSH1 0x20 MUL PUSH1 0x20 ADD ADD DUP2 DUP2 MSTORE POP POP DUP6 DUP2 DUP2 MLOAD DUP2 LT PUSH2 0xF6C JUMPI PUSH2 0xF6B PUSH2 0x1621 JUMP JUMPDEST JUMPDEST PUSH1 0x20 MUL PUSH1 0x20 ADD ADD MLOAD PUSH0 ADD MLOAD PUSH1 0x1 PUSH1 0x2 DUP2 LT PUSH2 0xF8A JUMPI PUSH2 0xF89 PUSH2 0x1621 JUMP JUMPDEST JUMPDEST PUSH1 0x20 MUL ADD MLOAD DUP3 PUSH1 0x2 PUSH1 0x6 DUP5 PUSH2 0xF9F SWAP2 SWAP1 PUSH2 0x173E JUMP JUMPDEST PUSH2 0xFA9 SWAP2 SWAP1 PUSH2 0x167B JUMP JUMPDEST DUP2 MLOAD DUP2 LT PUSH2 0xFBA JUMPI PUSH2 0xFB9 PUSH2 0x1621 JUMP JUMPDEST JUMPDEST PUSH1 0x20 MUL PUSH1 0x20 ADD ADD DUP2 DUP2 MSTORE POP POP DUP6 DUP2 DUP2 MLOAD DUP2 LT PUSH2 0xFD9 JUMPI PUSH2 0xFD8 PUSH2 0x1621 JUMP JUMPDEST JUMPDEST PUSH1 0x20 MUL PUSH1 0x20 ADD ADD MLOAD PUSH0 ADD MLOAD PUSH0 PUSH1 0x2 DUP2 LT PUSH2 0xFF6 JUMPI PUSH2 0xFF5 PUSH2 0x1621 JUMP JUMPDEST JUMPDEST PUSH1 0x20 MUL ADD MLOAD DUP3 PUSH1 0x3 PUSH1 0x6 DUP5 PUSH2 0x100B SWAP2 SWAP1 PUSH2 0x173E JUMP JUMPDEST PUSH2 0x1015 SWAP2 SWAP1 PUSH2 0x167B JUMP JUMPDEST DUP2 MLOAD DUP2 LT PUSH2 0x1026 JUMPI PUSH2 0x1025 PUSH2 0x1621 JUMP JUMPDEST JUMPDEST PUSH1 0x20 MUL PUSH1 0x20 ADD ADD DUP2 DUP2 MSTORE POP POP DUP6 DUP2 DUP2 MLOAD DUP2 LT PUSH2 0x1045 JUMPI PUSH2 0x1044 PUSH2 0x1621 JUMP JUMPDEST JUMPDEST PUSH1 0x20 MUL PUSH1 0x20 ADD ADD MLOAD PUSH1 0x20 ADD MLOAD PUSH1 0x1 PUSH1 0x2 DUP2 LT PUSH2 0x1064 JUMPI PUSH2 0x1063 PUSH2 0x1621 JUMP JUMPDEST JUMPDEST PUSH1 0x20 MUL ADD MLOAD DUP3 PUSH1 0x4 PUSH1 0x6 DUP5 PUSH2 0x1079 SWAP2 SWAP1 PUSH2 0x173E JUMP JUMPDEST PUSH2 0x1083 SWAP2 SWAP1 PUSH2 0x167B JUMP JUMPDEST DUP2 MLOAD DUP2 LT PUSH2 0x1094 JUMPI PUSH2 0x1093 PUSH2 0x1621 JUMP JUMPDEST JUMPDEST PUSH1 0x20 MUL PUSH1 0x20 ADD ADD DUP2 DUP2 MSTORE POP POP DUP6 DUP2 DUP2 MLOAD DUP2 LT PUSH2 0x10B3 JUMPI PUSH2 0x10B2 PUSH2 0x1621 JUMP JUMPDEST JUMPDEST PUSH1 0x20 MUL PUSH1 0x20 ADD ADD MLOAD PUSH1 0x20 ADD MLOAD PUSH0 PUSH1 0x2 DUP2 LT PUSH2 0x10D1 JUMPI PUSH2 0x10D0 PUSH2 0x1621 JUMP JUMPDEST JUMPDEST PUSH1 0x20 MUL ADD MLOAD DUP3 PUSH1 0x5 PUSH1 0x6 DUP5 PUSH2 0x10E6 SWAP2 SWAP1 PUSH2 0x173E JUMP JUMPDEST PUSH2 0x10F0 SWAP2 SWAP1 PUSH2 0x167B JUMP JUMPDEST DUP2 MLOAD DUP2 LT PUSH2 0x1101 JUMPI PUSH2 0x1100 PUSH2 0x1621 JUMP JUMPDEST JUMPDEST PUSH1 0x20 MUL PUSH1 0x20 ADD ADD DUP2 DUP2 MSTORE POP POP DUP1 DUP1 PUSH1 0x1 ADD SWAP2 POP POP PUSH2 0xEA7 JUMP JUMPDEST POP PUSH2 0x1123 PUSH2 0x123E JUMP JUMPDEST PUSH0 PUSH1 0x20 DUP3 PUSH1 0x20 DUP7 MUL PUSH1 0x20 DUP7 ADD PUSH1 0x8 PUSH2 0x7D0 GAS SUB STATICCALL SWAP1 POP DUP1 PUSH0 DUP2 SUB PUSH2 0x1143 JUMPI INVALID JUMPDEST POP DUP1 PUSH2 0x114D JUMPI PUSH0 PUSH0 REVERT JUMPDEST PUSH0 DUP3 PUSH0 PUSH1 0x1 DUP2 LT PUSH2 0x1161 JUMPI PUSH2 0x1160 PUSH2 0x1621 JUMP JUMPDEST JUMPDEST PUSH1 0x20 MUL ADD MLOAD EQ ISZERO SWAP6 POP POP POP POP POP POP SWAP3 SWAP2 POP POP JUMP JUMPDEST PUSH1 0x40 MLOAD DUP1 PUSH1 0xA0 ADD PUSH1 0x40 MSTORE DUP1 PUSH2 0x1188 PUSH2 0x11BC JUMP JUMPDEST DUP2 MSTORE PUSH1 0x20 ADD PUSH2 0x1195 PUSH2 0x1218 JUMP JUMPDEST DUP2 MSTORE PUSH1 0x20 ADD PUSH2 0x11A2 PUSH2 0x1218 JUMP JUMPDEST DUP2 MSTORE PUSH1 0x20 ADD PUSH2 0x11AF PUSH2 0x1218 JUMP JUMPDEST DUP2 MSTORE PUSH1 0x20 ADD PUSH1 0x60 DUP2 MSTORE POP SWAP1 JUMP JUMPDEST PUSH1 0x40 MLOAD DUP1 PUSH1 0x40 ADD PUSH1 0x40 MSTORE DUP1 PUSH0 DUP2 MSTORE PUSH1 0x20 ADD PUSH0 DUP2 MSTORE POP SWAP1 JUMP JUMPDEST PUSH1 0x40 MLOAD DUP1 PUSH1 0x60 ADD PUSH1 0x40 MSTORE DUP1 PUSH1 0x3 SWAP1 PUSH1 0x20 DUP3 MUL DUP1 CALLDATASIZE DUP4 CALLDATACOPY DUP1 DUP3 ADD SWAP2 POP POP SWAP1 POP POP SWAP1 JUMP JUMPDEST PUSH1 0x40 MLOAD DUP1 PUSH1 0x80 ADD PUSH1 0x40 MSTORE DUP1 PUSH1 0x4 SWAP1 PUSH1 0x20 DUP3 MUL DUP1 CALLDATASIZE DUP4 CALLDATACOPY DUP1 DUP3 ADD SWAP2 POP POP SWAP1 POP POP SWAP1 JUMP JUMPDEST PUSH1 0x40 MLOAD DUP1 PUSH1 0x40 ADD PUSH1 0x40 MSTORE DUP1 PUSH2 0x122B PUSH2 0x1260 JUMP JUMPDEST DUP2 MSTORE PUSH1 0x20 ADD PUSH2 0x1238 PUSH2 0x1260 JUMP JUMPDEST DUP2 MSTORE POP SWAP1 JUMP JUMPDEST PUSH1 0x40 MLOAD DUP1 PUSH1 0x20 ADD PUSH1 0x40 MSTORE DUP1 PUSH1 0x1 SWAP1 PUSH1 0x20 DUP3 MUL DUP1 CALLDATASIZE DUP4 CALLDATACOPY DUP1 DUP3 ADD SWAP2 POP POP SWAP1 POP POP SWAP1 JUMP JUMPDEST PUSH1 0x40 MLOAD DUP1 PUSH1 0x40 ADD PUSH1 0x40 MSTORE DUP1 PUSH1 0x2 SWAP1 PUSH1 0x20 DUP3 MUL DUP1 CALLDATASIZE DUP4 CALLDATACOPY DUP1 DUP3 ADD SWAP2 POP POP SWAP1 POP POP SWAP1 JUMP JUMPDEST PUSH0 PUSH1 0x40 MLOAD SWAP1 POP SWAP1 JUMP JUMPDEST PUSH0 PUSH0 REVERT JUMPDEST PUSH0 PUSH0 REVERT JUMPDEST PUSH0 PUSH1 0x1F NOT PUSH1 0x1F DUP4 ADD AND SWAP1 POP SWAP2 SWAP1 POP JUMP JUMPDEST PUSH32 0x4E487B7100000000000000000000000000000000000000000000000000000000 PUSH0 MSTORE PUSH1 0x41 PUSH1 0x4 MSTORE PUSH1 0x24 PUSH0 REVERT JUMPDEST PUSH2 0x12D9 DUP3 PUSH2 0x1293 JUMP JUMPDEST DUP2 ADD DUP2 DUP2 LT PUSH8 0xFFFFFFFFFFFFFFFF DUP3 GT OR ISZERO PUSH2 0x12F8 JUMPI PUSH2 0x12F7 PUSH2 0x12A3 JUMP JUMPDEST JUMPDEST DUP1 PUSH1 0x40 MSTORE POP POP POP JUMP JUMPDEST PUSH0 PUSH2 0x130A PUSH2 0x1282 JUMP JUMPDEST SWAP1 POP PUSH2 0x1316 DUP3 DUP3 PUSH2 0x12D0 JUMP JUMPDEST SWAP2 SWAP1 POP JUMP JUMPDEST PUSH0 DUP2 SWAP1 POP SWAP2 SWAP1 POP JUMP JUMPDEST PUSH2 0x132D DUP2 PUSH2 0x131B JUMP JUMPDEST DUP2 EQ PUSH2 0x1337 JUMPI PUSH0 PUSH0 REVERT JUMPDEST POP JUMP JUMPDEST PUSH0 DUP2 CALLDATALOAD SWAP1 POP PUSH2 0x1348 DUP2 PUSH2 0x1324 JUMP JUMPDEST SWAP3 SWAP2 POP POP JUMP JUMPDEST PUSH0 PUSH1 0x40 DUP3 DUP5 SUB SLT ISZERO PUSH2 0x1363 JUMPI PUSH2 0x1362 PUSH2 0x128F JUMP JUMPDEST JUMPDEST PUSH2 0x136D PUSH1 0x40 PUSH2 0x1301 JUMP JUMPDEST SWAP1 POP PUSH0 PUSH2 0x137C DUP5 DUP3 DUP6 ADD PUSH2 0x133A JUMP JUMPDEST PUSH0 DUP4 ADD MSTORE POP PUSH1 0x20 PUSH2 0x138F DUP5 DUP3 DUP6 ADD PUSH2 0x133A JUMP JUMPDEST PUSH1 0x20 DUP4 ADD MSTORE POP SWAP3 SWAP2 POP POP JUMP JUMPDEST PUSH0 PUSH0 REVERT JUMPDEST PUSH0 PUSH8 0xFFFFFFFFFFFFFFFF DUP3 GT ISZERO PUSH2 0x13B9 JUMPI PUSH2 0x13B8 PUSH2 0x12A3 JUMP JUMPDEST JUMPDEST PUSH1 0x20 DUP3 MUL SWAP1 POP SWAP2 SWAP1 POP JUMP JUMPDEST PUSH0 PUSH0 REVERT JUMPDEST PUSH0 PUSH2 0x13DA PUSH2 0x13D5 DUP5 PUSH2 0x139F JUMP JUMPDEST PUSH2 0x1301 JUMP JUMPDEST SWAP1 POP DUP1 PUSH1 0x20 DUP5 MUL DUP4 ADD DUP6 DUP2 GT ISZERO PUSH2 0x13F4 JUMPI PUSH2 0x13F3 PUSH2 0x13C4 JUMP JUMPDEST JUMPDEST DUP4 JUMPDEST DUP2 DUP2 LT ISZERO PUSH2 0x141D JUMPI DUP1 PUSH2 0x1409 DUP9 DUP3 PUSH2 0x133A JUMP JUMPDEST DUP5 MSTORE PUSH1 0x20 DUP5 ADD SWAP4 POP POP PUSH1 0x20 DUP2 ADD SWAP1 POP PUSH2 0x13F6 JUMP JUMPDEST POP POP POP SWAP4 SWAP3 POP POP POP JUMP JUMPDEST PUSH0 DUP3 PUSH1 0x1F DUP4 ADD SLT PUSH2 0x143B JUMPI PUSH2 0x143A PUSH2 0x139B JUMP JUMPDEST JUMPDEST PUSH1 0x2 PUSH2 0x1448 DUP5 DUP3 DUP6 PUSH2 0x13C8 JUMP JUMPDEST SWAP2 POP POP SWAP3 SWAP2 POP POP JUMP JUMPDEST PUSH0 PUSH1 0x80 DUP3 DUP5 SUB SLT ISZERO PUSH2 0x1466 JUMPI PUSH2 0x1465 PUSH2 0x128F JUMP JUMPDEST JUMPDEST PUSH2 0x1470 PUSH1 0x40 PUSH2 0x1301 JUMP JUMPDEST SWAP1 POP PUSH0 PUSH2 0x147F DUP5 DUP3 DUP6 ADD PUSH2 0x1427 JUMP JUMPDEST PUSH0 DUP4 ADD MSTORE POP PUSH1 0x40 PUSH2 0x1492 DUP5 DUP3 DUP6 ADD PUSH2 0x1427 JUMP JUMPDEST PUSH1 0x20 DUP4 ADD MSTORE POP SWAP3 SWAP2 POP POP JUMP JUMPDEST PUSH0 PUSH2 0x100 DUP3 DUP5 SUB SLT ISZERO PUSH2 0x14B4 JUMPI PUSH2 0x14B3 PUSH2 0x128F JUMP JUMPDEST JUMPDEST PUSH2 0x14BE PUSH1 0x60 PUSH2 0x1301 JUMP JUMPDEST SWAP1 POP PUSH0 PUSH2 0x14CD DUP5 DUP3 DUP6 ADD PUSH2 0x134E JUMP JUMPDEST PUSH0 DUP4 ADD MSTORE POP PUSH1 0x40 PUSH2 0x14E0 DUP5 DUP3 DUP6 ADD PUSH2 0x1451 JUMP JUMPDEST PUSH1 0x20 DUP4 ADD MSTORE POP PUSH1 0xC0 PUSH2 0x14F4 DUP5 DUP3 DUP6 ADD PUSH2 0x134E JUMP JUMPDEST PUSH1 0x40 DUP4 ADD MSTORE POP SWAP3 SWAP2 POP POP JUMP JUMPDEST PUSH0 PUSH8 0xFFFFFFFFFFFFFFFF DUP3 GT ISZERO PUSH2 0x151A JUMPI PUSH2 0x1519 PUSH2 0x12A3 JUMP JUMPDEST JUMPDEST PUSH1 0x20 DUP3 MUL SWAP1 POP SWAP2 SWAP1 POP JUMP JUMPDEST PUSH0 PUSH2 0x1537 PUSH2 0x1532 DUP5 PUSH2 0x1500 JUMP JUMPDEST PUSH2 0x1301 JUMP JUMPDEST SWAP1 POP DUP1 PUSH1 0x20 DUP5 MUL DUP4 ADD DUP6 DUP2 GT ISZERO PUSH2 0x1551 JUMPI PUSH2 0x1550 PUSH2 0x13C4 JUMP JUMPDEST JUMPDEST DUP4 JUMPDEST DUP2 DUP2 LT ISZERO PUSH2 0x157A JUMPI DUP1 PUSH2 0x1566 DUP9 DUP3 PUSH2 0x133A JUMP JUMPDEST DUP5 MSTORE PUSH1 0x20 DUP5 ADD SWAP4 POP POP PUSH1 0x20 DUP2 ADD SWAP1 POP PUSH2 0x1553 JUMP JUMPDEST POP POP POP SWAP4 SWAP3 POP POP POP JUMP JUMPDEST PUSH0 DUP3 PUSH1 0x1F DUP4 ADD SLT PUSH2 0x1598 JUMPI PUSH2 0x1597 PUSH2 0x139B JUMP JUMPDEST JUMPDEST PUSH1 0x9 PUSH2 0x15A5 DUP5 DUP3 DUP6 PUSH2 0x1525 JUMP JUMPDEST SWAP2 POP POP SWAP3 SWAP2 POP POP JUMP JUMPDEST PUSH0 PUSH0 PUSH2 0x220 DUP4 DUP6 SUB SLT ISZERO PUSH2 0x15C5 JUMPI PUSH2 0x15C4 PUSH2 0x128B JUMP JUMPDEST JUMPDEST PUSH0 PUSH2 0x15D2 DUP6 DUP3 DUP7 ADD PUSH2 0x149E JUMP JUMPDEST SWAP3 POP POP PUSH2 0x100 PUSH2 0x15E4 DUP6 DUP3 DUP7 ADD PUSH2 0x1584 JUMP JUMPDEST SWAP2 POP POP SWAP3 POP SWAP3 SWAP1 POP JUMP JUMPDEST PUSH0 DUP2 ISZERO ISZERO SWAP1 POP SWAP2 SWAP1 POP JUMP JUMPDEST PUSH2 0x1602 DUP2 PUSH2 0x15EE JUMP JUMPDEST DUP3 MSTORE POP POP JUMP JUMPDEST PUSH0 PUSH1 0x20 DUP3 ADD SWAP1 POP PUSH2 0x161B PUSH0 DUP4 ADD DUP5 PUSH2 0x15F9 JUMP JUMPDEST SWAP3 SWAP2 POP POP JUMP JUMPDEST PUSH32 0x4E487B7100000000000000000000000000000000000000000000000000000000 PUSH0 MSTORE PUSH1 0x32 PUSH1 0x4 MSTORE PUSH1 0x24 PUSH0 REVERT JUMPDEST PUSH32 0x4E487B7100000000000000000000000000000000000000000000000000000000 PUSH0 MSTORE PUSH1 0x11 PUSH1 0x4 MSTORE PUSH1 0x24 PUSH0 REVERT JUMPDEST PUSH0 PUSH2 0x1685 DUP3 PUSH2 0x131B JUMP JUMPDEST SWAP2 POP PUSH2 0x1690 DUP4 PUSH2 0x131B JUMP JUMPDEST SWAP3 POP DUP3 DUP3 ADD SWAP1 POP DUP1 DUP3 GT ISZERO PUSH2 0x16A8 JUMPI PUSH2 0x16A7 PUSH2 0x164E JUMP JUMPDEST JUMPDEST SWAP3 SWAP2 POP POP JUMP JUMPDEST PUSH32 0x4E487B7100000000000000000000000000000000000000000000000000000000 PUSH0 MSTORE PUSH1 0x12 PUSH1 0x4 MSTORE PUSH1 0x24 PUSH0 REVERT JUMPDEST PUSH0 PUSH2 0x16E5 DUP3 PUSH2 0x131B JUMP JUMPDEST SWAP2 POP PUSH2 0x16F0 DUP4 PUSH2 0x131B JUMP JUMPDEST SWAP3 POP DUP3 PUSH2 0x1700 JUMPI PUSH2 0x16FF PUSH2 0x16AE JUMP JUMPDEST JUMPDEST DUP3 DUP3 MOD SWAP1 POP SWAP3 SWAP2 POP POP JUMP JUMPDEST PUSH0 PUSH2 0x1715 DUP3 PUSH2 0x131B JUMP JUMPDEST SWAP2 POP PUSH2 0x1720 DUP4 PUSH2 0x131B JUMP JUMPDEST SWAP3 POP DUP3 DUP3 SUB SWAP1 POP DUP2 DUP2 GT ISZERO PUSH2 0x1738 JUMPI PUSH2 0x1737 PUSH2 0x164E JUMP JUMPDEST JUMPDEST SWAP3 SWAP2 POP POP JUMP JUMPDEST PUSH0 PUSH2 0x1748 DUP3 PUSH2 0x131B JUMP JUMPDEST SWAP2 POP PUSH2 0x1753 DUP4 PUSH2 0x131B JUMP JUMPDEST SWAP3 POP DUP3 DUP3 MUL PUSH2 0x1761 DUP2 PUSH2 0x131B JUMP JUMPDEST SWAP2 POP DUP3 DUP3 DIV DUP5 EQ DUP4 ISZERO OR PUSH2 0x1778 JUMPI PUSH2 0x1777 PUSH2 0x164E JUMP JUMPDEST JUMPDEST POP SWAP3 SWAP2 POP POP JUMP INVALID LOG2 PUSH5 0x6970667358 0x22 SLT KECCAK256 0xC4 CODESIZE 0x2C ADD 0x22 STOP 0x4F RETF PUSH18 0x7B50F1FB016A4E241F7B37885684830B1A3C PUSH24 0x4BD91F164736F6C634300081E0033000000000000000000 "
		},
		"gasEstimates": {
			"creation": {
				"codeDepositCost": "1213800",
				"executionCost": "1259",
				"totalCost": "1215059"
			},
			"external": {
				"verifyTx(((uint256,uint256),(uint256[2],uint256[2]),(uint256,uint256)),uint256[9])": "infinite"
			},
			"internal": {
				"verify(uint256[] memory,struct Verifier.Proof memory)": "infinite",
				"verifyingKey()": "infinite"
			}
		},
		"methodIdentifiers": {
			"verifyTx(((uint256,uint256),(uint256[2],uint256[2]),(uint256,uint256)),uint256[9])": "73d7ed69"
		}
	},
	"abi": [
		{
			"inputs": [
				{
					"components": [
						{
							"components": [
								{
									"internalType": "uint256",
									"name": "X",
									"type": "uint256"
								},
								{
									"internalType": "uint256",
									"name": "Y",
									"type": "uint256"
								}
							],
							"internalType": "struct Pairing.G1Point",
							"name": "a",
							"type": "tuple"
						},
						{
							"components": [
								{
									"internalType": "uint256[2]",
									"name": "X",
									"type": "uint256[2]"
								},
								{
									"internalType": "uint256[2]",
									"name": "Y",
									"type": "uint256[2]"
								}
							],
							"internalType": "struct Pairing.G2Point",
							"name": "b",
							"type": "tuple"
						},
						{
							"components": [
								{
									"internalType": "uint256",
									"name": "X",
									"type": "uint256"
								},
								{
									"internalType": "uint256",
									"name": "Y",
									"type": "uint256"
								}
							],
							"internalType": "struct Pairing.G1Point",
							"name": "c",
							"type": "tuple"
						}
					],
					"internalType": "struct Verifier.Proof",
					"name": "proof",
					"type": "tuple"
				},
				{
					"internalType": "uint256[9]",
					"name": "input",
					"type": "uint256[9]"
				}
			],
			"name": "verifyTx",
			"outputs": [
				{
					"internalType": "bool",
					"name": "r",
					"type": "bool"
				}
			],
			"stateMutability": "view",
			"type": "function"
		}
	]
}