{
	"data": {
		"bytecode": {
			"linkReferences": {},
			"object": "6080604052348015600e575f5ffd5b5061191d8061001c5f395ff3fe608060405234801561000f575f5ffd5b5060043610610029575f3560e01c8063666705991461002d575b5f5ffd5b61004760048036038101906100429190611716565b61005d565b6040516100549190611770565b60405180910390f35b5f5f600c67ffffffffffffffff81111561007a5761007961140b565b5b6040519080825280602002602001820160405280156100a85781602001602082028036833780820191505090505b5090505f5f90505b600c8110156100fd578381600c81106100cc576100cb611789565b5b60200201518282815181106100e4576100e3611789565b5b60200260200101818152505080806001019150506100b0565b505f6101098286610123565b0361011857600191505061011d565b5f9150505b92915050565b5f5f7f30644e72e131a029b85045b68181585d2833e84879b9709143e1f593f000000190505f6101516102ab565b90508060800151516001865161016791906117e3565b14610170575f5ffd5b5f60405180604001604052805f81526020015f81525090505f5f90505b865181101561022157838782815181106101aa576101a9611789565b5b6020026020010151106101bb575f5ffd5b6102128261020d85608001516001856101d491906117e3565b815181106101e5576101e4611789565b5b60200260200101518a8581518110610200576101ff611789565b5b6020026020010151610bd5565b610c72565b9150808060010191505061018d565b5061024a8183608001515f8151811061023d5761023c611789565b5b6020026020010151610c72565b905061028e855f0151866020015161026184610d34565b85604001516102738a60400151610d34565b8760600151610284895f0151610d34565b8960200151610dd2565b61029e57600193505050506102a5565b5f93505050505b92915050565b6102b36112dd565b60405180604001604052807f28a7729804d9784737152ba161e9b5bb3075adf4dbe2fb7bca382216cddd6d7081526020017f28784a9669ed9a0a339d22b73f39b4ff0eb15f5ce1b7426ce6cba26b39772317815250815f0181905250604051806040016040528060405180604001604052807f0e6e11738f4757f3df0986e0122743121956c43471b337241e1a130c722858ec81526020017f2d65d4fe199b98e9182ccb71d3877da10fdd277e6111ef0b709c6cfaa8840308815250815260200160405180604001604052807f22f7daee6dd380548926f390b2e5ccbd52c2e9ff6e64ad903f12ff872876a37d81526020017f0a121cf0cf08910ed781228eb30edc6528fcb63ef2d624859b8311a1fd94d43c8152508152508160200181905250604051806040016040528060405180604001604052807f269f66b3ce49dab8bf3eeaf1b8815c5347fe986bc68b44bf9738780744e5ccdb81526020017f2fd45e1eb6617859a5d7f3fa555b40d86c4154e6a2cf0034bd3222fff296b3ca815250815260200160405180604001604052807f04f94bd8573dbcf47ee1313af6ad79ffcaf21ad60f4bb4ccdebe43f3369c5dee81526020017f1c1d5b5ceb346ec69040a6d6c687960bcba9adbb3b626d2043450e9e12dbf6a28152508152508160400181905250604051806040016040528060405180604001604052807f20b716b6c087263484e0665da2edd5448a3afc07ed399598ab9d4fe51d4673c281526020017f2be69cabfcd1ca824594d678eafb7606a63d4ac8c88b54359db9cb9efdb5b009815250815260200160405180604001604052807f2d6251b9b12e346d39b87256520a546bf9b76135c815bc5f06b083e396e9ab8481526020017f01ec3a52a96658f2a1cfbf70aad62515fb27c25b29240a4b5b8b7e99ffa537698152508152508160600181905250600d67ffffffffffffffff8111156105795761057861140b565b5b6040519080825280602002602001820160405280156105b257816020015b61059f611324565b8152602001906001900390816105975790505b50816080018190525060405180604001604052807f1deef4c2163c27ef391a67129bff86ac96fd4f255f20f0387bf8382c9924148881526020017f25d8aebada2fe633dddff87d3a2f3fde80e559a0a2c5f96be63bfd7c8360440281525081608001515f8151811061062757610626611789565b5b602002602001018190525060405180604001604052807f0ce914d7009ed6549895785755e62171d10b0dc88f90cd2c3545116d2da3868e81526020017f094c15f9a4a4a981aa152456f33b467b56c183ba0b9ce2e4fc6b5a1b35d45924815250816080015160018151811061069f5761069e611789565b5b602002602001018190525060405180604001604052807f2176329002eaca982d0fafffd371b95553b7ba6b595caa5952d2031677905e1481526020017f0276de88554a48c91efb6116208bb83a49fd4c04a69d3022f426248eb46095ad815250816080015160028151811061071757610716611789565b5b602002602001018190525060405180604001604052807f04fdde8cbf46445df350925504ba0ba0dfb069aca2c0a9e52b60994a22265a7081526020017f110040cd9d9b9cc7f5beee07b1fd78deb4c942ada14836a2a371a7a7086b775d815250816080015160038151811061078f5761078e611789565b5b602002602001018190525060405180604001604052807f1de361fad29615559888fd87f7e26896acb358d92e7652e027bcb51efdcc381781526020017f1592e6746475ad488afcff1b19d3bb60e900a75a5a00311e515814a3acab99ac815250816080015160048151811061080757610806611789565b5b602002602001018190525060405180604001604052807f0b486bc7267410a315d45a2033e80c24afd73b92e308db08835be523ecac9e2781526020017f1fe232523b83eccd37db23b3ea381e992168b4087838421e0afb703ecd634c2a815250816080015160058151811061087f5761087e611789565b5b602002602001018190525060405180604001604052807f2b01058f10c05d33184e3d146e134f5c24a3ba9dca0b7a9e8e4df49a6c28492781526020017f189d5092a7cec07849e3fc6f40970bb7c778590d17670c17d79c013092c4134b81525081608001516006815181106108f7576108f6611789565b5b602002602001018190525060405180604001604052807f01eafab0be54246f0612615f7c4926e524643094ceec5e2d1e408a2ca83d027b81526020017f10ce98a135cd3b80e8c9fbd205e354ca3d526878ecfbe2803892842a187f78a5815250816080015160078151811061096f5761096e611789565b5b602002602001018190525060405180604001604052807f0c65ce40152eba575a15253dd929f5074bdb3746811a8e13f1fd4b41bf0284fc81526020017f0e1f3ed6ea56b4b51148b6b8735eb31595c63fbd414facb84a84f6a122aeba1581525081608001516008815181106109e7576109e6611789565b5b602002602001018190525060405180604001604052807f2a71a8b23d9e78b23664642644148d2caeee718b445bfcc028ee6876cb55ed2c81526020017f0b9ddaf66f5f4cac359d07ecf7cfdb3caf40627a7673f5e1c2de77f2f25df31b8152508160800151600981518110610a5f57610a5e611789565b5b602002602001018190525060405180604001604052807f2134ae21d4b4a30f4462f471df99d59e476f3d1b5004533624639cde55ddea1f81526020017f018071500c6ab3c5cafafd511958d76e1deee4c8700397991758d1829311f7e08152508160800151600a81518110610ad757610ad6611789565b5b602002602001018190525060405180604001604052807f02d23e166e9fad75b3e4d328e1bf2f35372dce751550ed21a10ec4b96491b4c181526020017f0361bc0450dde385c9c8301f6e73995e5190f44f903d9fc6474ec16fb0995b7e8152508160800151600b81518110610b4f57610b4e611789565b5b602002602001018190525060405180604001604052807f1d51d31d0477236fc08266d0205de543fcfa65443c4f2bd453fbbcfee8279ab581526020017f2a1b55cf51f4f2b414a710eab948346ade0b7e85c80536ed61fc878c326e6e6c8152508160800151600c81518110610bc757610bc6611789565b5b602002602001018190525090565b610bdd611324565b610be561133c565b835f0151815f60038110610bfc57610bfb611789565b5b602002018181525050836020015181600160038110610c1e57610c1d611789565b5b6020020181815250508281600260038110610c3c57610c3b611789565b5b6020020181815250505f60608360808460076107d05a03fa9050805f8103610c6057fe5b5080610c6a575f5ffd5b505092915050565b610c7a611324565b610c8261135e565b835f0151815f60048110610c9957610c98611789565b5b602002018181525050836020015181600160048110610cbb57610cba611789565b5b602002018181525050825f015181600260048110610cdc57610cdb611789565b5b602002018181525050826020015181600360048110610cfe57610cfd611789565b5b6020020181815250505f60608360c08460066107d05a03fa9050805f8103610d2257fe5b5080610d2c575f5ffd5b505092915050565b610d3c611324565b5f7f30644e72e131a029b85045b68181585d97816a916871ca8d3c208c16d87cfd4790505f835f0151148015610d7557505f8360200151145b15610d975760405180604001604052805f81526020015f815250915050610dcd565b6040518060400160405280845f01518152602001828560200151610dbb9190611843565b83610dc69190611873565b8152509150505b919050565b5f5f600467ffffffffffffffff811115610def57610dee61140b565b5b604051908082528060200260200182016040528015610e2857816020015b610e15611324565b815260200190600190039081610e0d5790505b5090505f600467ffffffffffffffff811115610e4757610e4661140b565b5b604051908082528060200260200182016040528015610e8057816020015b610e6d611380565b815260200190600190039081610e655790505b5090508a825f81518110610e9757610e96611789565b5b60200260200101819052508882600181518110610eb757610eb6611789565b5b60200260200101819052508682600281518110610ed757610ed6611789565b5b60200260200101819052508482600381518110610ef757610ef6611789565b5b602002602001018190525089815f81518110610f1657610f15611789565b5b60200260200101819052508781600181518110610f3657610f35611789565b5b60200260200101819052508581600281518110610f5657610f55611789565b5b60200260200101819052508381600381518110610f7657610f75611789565b5b6020026020010181905250610f8b8282610f9b565b9250505098975050505050505050565b5f8151835114610fa9575f5ffd5b5f835190505f600682610fbc91906118a6565b90505f8167ffffffffffffffff811115610fd957610fd861140b565b5b6040519080825280602002602001820160405280156110075781602001602082028036833780820191505090505b5090505f5f90505b838110156112825786818151811061102a57611029611789565b5b60200260200101515f0151825f60068461104491906118a6565b61104e91906117e3565b8151811061105f5761105e611789565b5b60200260200101818152505086818151811061107e5761107d611789565b5b60200260200101516020015182600160068461109a91906118a6565b6110a491906117e3565b815181106110b5576110b4611789565b5b6020026020010181815250508581815181106110d4576110d3611789565b5b60200260200101515f01516001600281106110f2576110f1611789565b5b602002015182600260068461110791906118a6565b61111191906117e3565b8151811061112257611121611789565b5b60200260200101818152505085818151811061114157611140611789565b5b60200260200101515f01515f6002811061115e5761115d611789565b5b602002015182600360068461117391906118a6565b61117d91906117e3565b8151811061118e5761118d611789565b5b6020026020010181815250508581815181106111ad576111ac611789565b5b6020026020010151602001516001600281106111cc576111cb611789565b5b60200201518260046006846111e191906118a6565b6111eb91906117e3565b815181106111fc576111fb611789565b5b60200260200101818152505085818151811061121b5761121a611789565b5b6020026020010151602001515f6002811061123957611238611789565b5b602002015182600560068461124e91906118a6565b61125891906117e3565b8151811061126957611268611789565b5b602002602001018181525050808060010191505061100f565b5061128b6113a6565b5f602082602086026020860160086107d05a03fa9050805f81036112ab57fe5b50806112b5575f5ffd5b5f825f600181106112c9576112c8611789565b5b602002015114159550505050505092915050565b6040518060a001604052806112f0611324565b81526020016112fd611380565b815260200161130a611380565b8152602001611317611380565b8152602001606081525090565b60405180604001604052805f81526020015f81525090565b6040518060600160405280600390602082028036833780820191505090505090565b6040518060800160405280600490602082028036833780820191505090505090565b60405180604001604052806113936113c8565b81526020016113a06113c8565b81525090565b6040518060200160405280600190602082028036833780820191505090505090565b6040518060400160405280600290602082028036833780820191505090505090565b5f604051905090565b5f5ffd5b5f5ffd5b5f601f19601f8301169050919050565b7f4e487b71000000000000000000000000000000000000000000000000000000005f52604160045260245ffd5b611441826113fb565b810181811067ffffffffffffffff821117156114605761145f61140b565b5b80604052505050565b5f6114726113ea565b905061147e8282611438565b919050565b5f819050919050565b61149581611483565b811461149f575f5ffd5b50565b5f813590506114b08161148c565b92915050565b5f604082840312156114cb576114ca6113f7565b5b6114d56040611469565b90505f6114e4848285016114a2565b5f8301525060206114f7848285016114a2565b60208301525092915050565b5f5ffd5b5f67ffffffffffffffff8211156115215761152061140b565b5b602082029050919050565b5f5ffd5b5f61154261153d84611507565b611469565b9050806020840283018581111561155c5761155b61152c565b5b835b81811015611585578061157188826114a2565b84526020840193505060208101905061155e565b5050509392505050565b5f82601f8301126115a3576115a2611503565b5b60026115b0848285611530565b91505092915050565b5f608082840312156115ce576115cd6113f7565b5b6115d86040611469565b90505f6115e78482850161158f565b5f8301525060406115fa8482850161158f565b60208301525092915050565b5f610100828403121561161c5761161b6113f7565b5b6116266060611469565b90505f611635848285016114b6565b5f830152506040611648848285016115b9565b60208301525060c061165c848285016114b6565b60408301525092915050565b5f67ffffffffffffffff8211156116825761168161140b565b5b602082029050919050565b5f61169f61169a84611668565b611469565b905080602084028301858111156116b9576116b861152c565b5b835b818110156116e257806116ce88826114a2565b8452602084019350506020810190506116bb565b5050509392505050565b5f82601f830112611700576116ff611503565b5b600c61170d84828561168d565b91505092915050565b5f5f610280838503121561172d5761172c6113f3565b5b5f61173a85828601611606565b92505061010061174c858286016116ec565b9150509250929050565b5f8115159050919050565b61176a81611756565b82525050565b5f6020820190506117835f830184611761565b92915050565b7f4e487b71000000000000000000000000000000000000000000000000000000005f52603260045260245ffd5b7f4e487b71000000000000000000000000000000000000000000000000000000005f52601160045260245ffd5b5f6117ed82611483565b91506117f883611483565b92508282019050808211156118105761180f6117b6565b5b92915050565b7f4e487b71000000000000000000000000000000000000000000000000000000005f52601260045260245ffd5b5f61184d82611483565b915061185883611483565b92508261186857611867611816565b5b828206905092915050565b5f61187d82611483565b915061188883611483565b92508282039050818111156118a05761189f6117b6565b5b92915050565b5f6118b082611483565b91506118bb83611483565b92508282026118c981611483565b915082820484148315176118e0576118df6117b6565b5b509291505056fea2646970667358221220d17f00fcfdb66aa02b451db6995f5708307b50776106588960fc1bc5db2cbd8564736f6c634300081e0033",
			"opcodes": "PUSH1 0x80 PUSH1 0x40 MSTORE CALLVALUE DUP1 ISZERO PUSH1 0xE JUMPI PUSH0 PUSH0 REVERT JUMPDEST POP PUSH2 0x191D DUP1 PUSH2 0x1C PUSH0 CODECOPY PUSH0 RETURN INVALID PUSH1 0x80 PUSH1 0x40 MSTORE CALLVALUE DUP1 ISZERO PUSH2 0xF JUMPI PUSH0 PUSH0 REVERT JUMPDEST POP PUSH1 0x4 CALLDATASIZE LT PUSH2 0x29 JUMPI PUSH0 CALLDATALOAD PUSH1 0xE0 SHR DUP1 PUSH4 0x66670599 EQ PUSH2 0x2D JUMPI JUMPDEST PUSH0 PUSH0 REVERT JUMPDEST PUSH2 0x47 PUSH1 0x4 DUP1 CALLDATASIZE SUB DUP2 ADD SWAP1 PUSH2 0x42 SWAP2 SWAP1 PUSH2 0x1716 JUMP JUMPDEST PUSH2 0x5D JUMP JUMPDEST PUSH1 0x40 MLOAD PUSH2 0x54 SWAP2 SWAP1 PUSH2 0x1770 JUMP JUMPDEST PUSH1 0x40 MLOAD DUP1 SWAP2 SUB SWAP1 RETURN JUMPDEST PUSH0 PUSH0 PUSH1 0xC PUSH8 0xFFFFFFFFFFFFFFFF DUP2 GT ISZERO PUSH2 0x7A JUMPI PUSH2 0x79 PUSH2 0x140B JUMP JUMPDEST JUMPDEST PUSH1 0x40 MLOAD SWAP1 DUP1 DUP3 MSTORE DUP1 PUSH1 0x20 MUL PUSH1 0x20 ADD DUP3 ADD PUSH1 0x40 MSTORE DUP1 ISZERO PUSH2 0xA8 JUMPI DUP2 PUSH1 0x20 ADD PUSH1 0x20 DUP3 MUL DUP1 CALLDATASIZE DUP4 CALLDATACOPY DUP1 DUP3 ADD SWAP2 POP POP SWAP1 POP JUMPDEST POP SWAP1 POP PUSH0 PUSH0 SWAP1 POP JUMPDEST PUSH1 0xC DUP2 LT ISZERO PUSH2 0xFD JUMPI DUP4 DUP2 PUSH1 0xC DUP2 LT PUSH2 0xCC JUMPI PUSH2 0xCB PUSH2 0x1789 JUMP JUMPDEST JUMPDEST PUSH1 0x20 MUL ADD MLOAD DUP3 DUP3 DUP2 MLOAD DUP2 LT PUSH2 0xE4 JUMPI PUSH2 0xE3 PUSH2 0x1789 JUMP JUMPDEST JUMPDEST PUSH1 0x20 MUL PUSH1 0x20 ADD ADD DUP2 DUP2 MSTORE POP POP DUP1 DUP1 PUSH1 0x1 ADD SWAP2 POP POP PUSH2 0xB0 JUMP JUMPDEST POP PUSH0 PUSH2 0x109 DUP3 DUP7 PUSH2 0x123 JUMP JUMPDEST SUB PUSH2 0x118 JUMPI PUSH1 0x1 SWAP2 POP POP PUSH2 0x11D JUMP JUMPDEST PUSH0 SWAP2 POP POP JUMPDEST SWAP3 SWAP2 POP POP JUMP JUMPDEST PUSH0 PUSH0 PUSH32 0x30644E72E131A029B85045B68181585D2833E84879B9709143E1F593F0000001 SWAP1 POP PUSH0 PUSH2 0x151 PUSH2 0x2AB JUMP JUMPDEST SWAP1 POP DUP1 PUSH1 0x80 ADD MLOAD MLOAD PUSH1 0x1 DUP7 MLOAD PUSH2 0x167 SWAP2 SWAP1 PUSH2 0x17E3 JUMP JUMPDEST EQ PUSH2 0x170 JUMPI PUSH0 PUSH0 REVERT JUMPDEST PUSH0 PUSH1 0x40 MLOAD DUP1 PUSH1 0x40 ADD PUSH1 0x40 MSTORE DUP1 PUSH0 DUP2 MSTORE PUSH1 0x20 ADD PUSH0 DUP2 MSTORE POP SWAP1 POP PUSH0 PUSH0 SWAP1 POP JUMPDEST DUP7 MLOAD DUP2 LT ISZERO PUSH2 0x221 JUMPI DUP4 DUP8 DUP3 DUP2 MLOAD DUP2 LT PUSH2 0x1AA JUMPI PUSH2 0x1A9 PUSH2 0x1789 JUMP JUMPDEST JUMPDEST PUSH1 0x20 MUL PUSH1 0x20 ADD ADD MLOAD LT PUSH2 0x1BB JUMPI PUSH0 PUSH0 REVERT JUMPDEST PUSH2 0x212 DUP3 PUSH2 0x20D DUP6 PUSH1 0x80 ADD MLOAD PUSH1 0x1 DUP6 PUSH2 0x1D4 SWAP2 SWAP1 PUSH2 0x17E3 JUMP JUMPDEST DUP2 MLOAD DUP2 LT PUSH2 0x1E5 JUMPI PUSH2 0x1E4 PUSH2 0x1789 JUMP JUMPDEST JUMPDEST PUSH1 0x20 MUL PUSH1 0x20 ADD ADD MLOAD DUP11 DUP6 DUP2 MLOAD DUP2 LT PUSH2 0x200 JUMPI PUSH2 0x1FF PUSH2 0x1789 JUMP JUMPDEST JUMPDEST PUSH1 0x20 MUL PUSH1 0x20 ADD ADD MLOAD PUSH2 0xBD5 JUMP JUMPDEST PUSH2 0xC72 JUMP JUMPDEST SWAP2 POP DUP1 DUP1 PUSH1 0x1 ADD SWAP2 POP POP PUSH2 0x18D JUMP JUMPDEST POP PUSH2 0x24A DUP2 DUP4 PUSH1 0x80 ADD MLOAD PUSH0 DUP2 MLOAD DUP2 LT PUSH2 0x23D JUMPI PUSH2 0x23C PUSH2 0x1789 JUMP JUMPDEST JUMPDEST PUSH1 0x20 MUL PUSH1 0x20 ADD ADD MLOAD PUSH2 0xC72 JUMP JUMPDEST SWAP1 POP PUSH2 0x28E DUP6 PUSH0 ADD MLOAD DUP7 PUSH1 0x20 ADD MLOAD PUSH2 0x261 DUP5 PUSH2 0xD34 JUMP JUMPDEST DUP6 PUSH1 0x40 ADD MLOAD PUSH2 0x273 DUP11 PUSH1 0x40 ADD MLOAD PUSH2 0xD34 JUMP JUMPDEST DUP8 PUSH1 0x60 ADD MLOAD PUSH2 0x284 DUP10 PUSH0 ADD MLOAD PUSH2 0xD34 JUMP JUMPDEST DUP10 PUSH1 0x20 ADD MLOAD PUSH2 0xDD2 JUMP JUMPDEST PUSH2 0x29E JUMPI PUSH1 0x1 SWAP4 POP POP POP POP PUSH2 0x2A5 JUMP JUMPDEST PUSH0 SWAP4 POP POP POP POP JUMPDEST SWAP3 SWAP2 POP POP JUMP JUMPDEST PUSH2 0x2B3 PUSH2 0x12DD JUMP JUMPDEST PUSH1 0x40 MLOAD DUP1 PUSH1 0x40 ADD PUSH1 0x40 MSTORE DUP1 PUSH32 0x28A7729804D9784737152BA161E9B5BB3075ADF4DBE2FB7BCA382216CDDD6D70 DUP2 MSTORE PUSH1 0x20 ADD PUSH32 0x28784A9669ED9A0A339D22B73F39B4FF0EB15F5CE1B7426CE6CBA26B39772317 DUP2 MSTORE POP DUP2 PUSH0 ADD DUP2 SWAP1 MSTORE POP PUSH1 0x40 MLOAD DUP1 PUSH1 0x40 ADD PUSH1 0x40 MSTORE DUP1 PUSH1 0x40 MLOAD DUP1 PUSH1 0x40 ADD PUSH1 0x40 MSTORE DUP1 PUSH32 0xE6E11738F4757F3DF0986E0122743121956C43471B337241E1A130C722858EC DUP2 MSTORE PUSH1 0x20 ADD PUSH32 0x2D65D4FE199B98E9182CCB71D3877DA10FDD277E6111EF0B709C6CFAA8840308 DUP2 MSTORE POP DUP2 MSTORE PUSH1 0x20 ADD PUSH1 0x40 MLOAD DUP1 PUSH1 0x40 ADD PUSH1 0x40 MSTORE DUP1 PUSH32 0x22F7DAEE6DD380548926F390B2E5CCBD52C2E9FF6E64AD903F12FF872876A37D DUP2 MSTORE PUSH1 0x20 ADD PUSH32 0xA121CF0CF08910ED781228EB30EDC6528FCB63EF2D624859B8311A1FD94D43C DUP2 MSTORE POP DUP2 MSTORE POP DUP2 PUSH1 0x20 ADD DUP2 SWAP1 MSTORE POP PUSH1 0x40 MLOAD DUP1 PUSH1 0x40 ADD PUSH1 0x40 MSTORE DUP1 PUSH1 0x40 MLOAD DUP1 PUSH1 0x40 ADD PUSH1 0x40 MSTORE DUP1 PUSH32 0x269F66B3CE49DAB8BF3EEAF1B8815C5347FE986BC68B44BF9738780744E5CCDB DUP2 MSTORE PUSH1 0x20 ADD PUSH32 0x2FD45E1EB6617859A5D7F3FA555B40D86C4154E6A2CF0034BD3222FFF296B3CA DUP2 MSTORE POP DUP2 MSTORE PUSH1 0x20 ADD PUSH1 0x40 MLOAD DUP1 PUSH1 0x40 ADD PUSH1 0x40 MSTORE DUP1 PUSH32 0x4F94BD8573DBCF47EE1313AF6AD79FFCAF21AD60F4BB4CCDEBE43F3369C5DEE DUP2 MSTORE PUSH1 0x20 ADD PUSH32 0x1C1D5B5CEB346EC69040A6D6C687960BCBA9ADBB3B626D2043450E9E12DBF6A2 DUP2 MSTORE POP DUP2 MSTORE POP DUP2 PUSH1 0x40 ADD DUP2 SWAP1 MSTORE POP PUSH1 0x40 MLOAD DUP1 PUSH1 0x40 ADD PUSH1 0x40 MSTORE DUP1 PUSH1 0x40 MLOAD DUP1 PUSH1 0x40 ADD PUSH1 0x40 MSTORE DUP1 PUSH32 0x20B716B6C087263484E0665DA2EDD5448A3AFC07ED399598AB9D4FE51D4673C2 DUP2 MSTORE PUSH1 0x20 ADD PUSH32 0x2BE69CABFCD1CA824594D678EAFB7606A63D4AC8C88B54359DB9CB9EFDB5B009 DUP2 MSTORE POP DUP2 MSTORE PUSH1 0x20 ADD PUSH1 0x40 MLOAD DUP1 PUSH1 0x40 ADD PUSH1 0x40 MSTORE DUP1 PUSH32 0x2D6251B9B12E346D39B87256520A546BF9B76135C815BC5F06B083E396E9AB84 DUP2 MSTORE PUSH1 0x20 ADD PUSH32 0x1EC3A52A96658F2A1CFBF70AAD62515FB27C25B29240A4B5B8B7E99FFA53769 DUP2 MSTORE POP DUP2 MSTORE POP DUP2 PUSH1 0x60 ADD DUP2 SWAP1 MSTORE POP PUSH1 0xD PUSH8 0xFFFFFFFFFFFFFFFF DUP2 GT ISZERO PUSH2 0x579 JUMPI PUSH2 0x578 PUSH2 0x140B JUMP JUMPDEST JUMPDEST PUSH1 0x40 MLOAD SWAP1 DUP1 DUP3 MSTORE DUP1 PUSH1 0x20 MUL PUSH1 0x20 ADD DUP3 ADD PUSH1 0x40 MSTORE DUP1 ISZERO PUSH2 0x5B2 JUMPI DUP2 PUSH1 0x20 ADD JUMPDEST PUSH2 0x59F PUSH2 0x1324 JUMP JUMPDEST DUP2 MSTORE PUSH1 0x20 ADD SWAP1 PUSH1 0x1 SWAP1 SUB SWAP1 DUP2 PUSH2 0x597 JUMPI SWAP1 POP JUMPDEST POP DUP2 PUSH1 0x80 ADD DUP2 SWAP1 MSTORE POP PUSH1 0x40 MLOAD DUP1 PUSH1 0x40 ADD PUSH1 0x40 MSTORE DUP1 PUSH32 0x1DEEF4C2163C27EF391A67129BFF86AC96FD4F255F20F0387BF8382C99241488 DUP2 MSTORE PUSH1 0x20 ADD PUSH32 0x25D8AEBADA2FE633DDDFF87D3A2F3FDE80E559A0A2C5F96BE63BFD7C83604402 DUP2 MSTORE POP DUP2 PUSH1 0x80 ADD MLOAD PUSH0 DUP2 MLOAD DUP2 LT PUSH2 0x627 JUMPI PUSH2 0x626 PUSH2 0x1789 JUMP JUMPDEST JUMPDEST PUSH1 0x20 MUL PUSH1 0x20 ADD ADD DUP2 SWAP1 MSTORE POP PUSH1 0x40 MLOAD DUP1 PUSH1 0x40 ADD PUSH1 0x40 MSTORE DUP1 PUSH32 0xCE914D7009ED6549895785755E62171D10B0DC88F90CD2C3545116D2DA3868E DUP2 MSTORE PUSH1 0x20 ADD PUSH32 0x94C15F9A4A4A981AA152456F33B467B56C183BA0B9CE2E4FC6B5A1B35D45924 DUP2 MSTORE POP DUP2 PUSH1 0x80 ADD MLOAD PUSH1 0x1 DUP2 MLOAD DUP2 LT PUSH2 0x69F JUMPI PUSH2 0x69E PUSH2 0x1789 JUMP JUMPDEST JUMPDEST PUSH1 0x20 MUL PUSH1 0x20 ADD ADD DUP2 SWAP1 MSTORE POP PUSH1 0x40 MLOAD DUP1 PUSH1 0x40 ADD PUSH1 0x40 MSTORE DUP1 PUSH32 0x2176329002EACA982D0FAFFFD371B95553B7BA6B595CAA5952D2031677905E14 DUP2 MSTORE PUSH1 0x20 ADD PUSH32 0x276DE88554A48C91EFB6116208BB83A49FD4C04A69D3022F426248EB46095AD DUP2 MSTORE POP DUP2 PUSH1 0x80 ADD MLOAD PUSH1 0x2 DUP2 MLOAD DUP2 LT PUSH2 0x717 JUMPI PUSH2 0x716 PUSH2 0x1789 JUMP JUMPDEST JUMPDEST PUSH1 0x20 MUL PUSH1 0x20 ADD ADD DUP2 SWAP1 MSTORE POP PUSH1 0x40 MLOAD DUP1 PUSH1 0x40 ADD PUSH1 0x40 MSTORE DUP1 PUSH32 0x4FDDE8CBF46445DF350925504BA0BA0DFB069ACA2C0A9E52B60994A22265A70 DUP2 MSTORE PUSH1 0x20 ADD PUSH32 0x110040CD9D9B9CC7F5BEEE07B1FD78DEB4C942ADA14836A2A371A7A7086B775D DUP2 MSTORE POP DUP2 PUSH1 0x80 ADD MLOAD PUSH1 0x3 DUP2 MLOAD DUP2 LT PUSH2 0x78F JUMPI PUSH2 0x78E PUSH2 0x1789 JUMP JUMPDEST JUMPDEST PUSH1 0x20 MUL PUSH1 0x20 ADD ADD DUP2 SWAP1 MSTORE POP PUSH1 0x40 MLOAD DUP1 PUSH1 0x40 ADD PUSH1 0x40 MSTORE DUP1 PUSH32 0x1DE361FAD29615559888FD87F7E26896ACB358D92E7652E027BCB51EFDCC3817 DUP2 MSTORE PUSH1 0x20 ADD PUSH32 0x1592E6746475AD488AFCFF1B19D3BB60E900A75A5A00311E515814A3ACAB99AC DUP2 MSTORE POP DUP2 PUSH1 0x80 ADD MLOAD PUSH1 0x4 DUP2 MLOAD DUP2 LT PUSH2 0x807 JUMPI PUSH2 0x806 PUSH2 0x1789 JUMP JUMPDEST JUMPDEST PUSH1 0x20 MUL PUSH1 0x20 ADD ADD DUP2 SWAP1 MSTORE POP PUSH1 0x40 MLOAD DUP1 PUSH1 0x40 ADD PUSH1 0x40 MSTORE DUP1 PUSH32 0xB486BC7267410A315D45A2033E80C24AFD73B92E308DB08835BE523ECAC9E27 DUP2 MSTORE PUSH1 0x20 ADD PUSH32 0x1FE232523B83ECCD37DB23B3EA381E992168B4087838421E0AFB703ECD634C2A DUP2 MSTORE POP DUP2 PUSH1 0x80 ADD MLOAD PUSH1 0x5 DUP2 MLOAD DUP2 LT PUSH2 0x87F JUMPI PUSH2 0x87E PUSH2 0x1789 JUMP JUMPDEST JUMPDEST PUSH1 0x20 MUL PUSH1 0x20 ADD ADD DUP2 SWAP1 MSTORE POP PUSH1 0x40 MLOAD DUP1 PUSH1 0x40 ADD PUSH1 0x40 MSTORE DUP1 PUSH32 0x2B01058F10C05D33184E3D146E134F5C24A3BA9DCA0B7A9E8E4DF49A6C284927 DUP2 MSTORE PUSH1 0x20 ADD PUSH32 0x189D5092A7CEC07849E3FC6F40970BB7C778590D17670C17D79C013092C4134B DUP2 MSTORE POP DUP2 PUSH1 0x80 ADD MLOAD PUSH1 0x6 DUP2 MLOAD DUP2 LT PUSH2 0x8F7 JUMPI PUSH2 0x8F6 PUSH2 0x1789 JUMP JUMPDEST JUMPDEST PUSH1 0x20 MUL PUSH1 0x20 ADD ADD DUP2 SWAP1 MSTORE POP PUSH1 0x40 MLOAD DUP1 PUSH1 0x40 ADD PUSH1 0x40 MSTORE DUP1 PUSH32 0x1EAFAB0BE54246F0612615F7C4926E524643094CEEC5E2D1E408A2CA83D027B DUP2 MSTORE PUSH1 0x20 ADD PUSH32 0x10CE98A135CD3B80E8C9FBD205E354CA3D526878ECFBE2803892842A187F78A5 DUP2 MSTORE POP DUP2 PUSH1 0x80 ADD MLOAD PUSH1 0x7 DUP2 MLOAD DUP2 LT PUSH2 0x96F JUMPI PUSH2 0x96E PUSH2 0x1789 JUMP JUMPDEST JUMPDEST PUSH1 0x20 MUL PUSH1 0x20 ADD ADD DUP2 SWAP1 MSTORE POP PUSH1 0x40 MLOAD DUP1 PUSH1 0x40 ADD PUSH1 0x40 MSTORE DUP1 PUSH32 0xC65CE40152EBA575A15253DD929F5074BDB3746811A8E13F1FD4B41BF0284FC DUP2 MSTORE PUSH1 0x20 ADD PUSH32 0xE1F3ED6EA56B4B51148B6B8735EB31595C63FBD414FACB84A84F6A122AEBA15 DUP2 MSTORE POP DUP2 PUSH1 0x80 ADD MLOAD PUSH1 0x8 DUP2 MLOAD DUP2 LT PUSH2 0x9E7 JUMPI PUSH2 0x9E6 PUSH2 0x1789 JUMP JUMPDEST JUMPDEST PUSH1 0x20 MUL PUSH1 0x20 ADD ADD DUP2 SWAP1 MSTORE POP PUSH1 0x40 MLOAD DUP1 PUSH1 0x40 ADD PUSH1 0x40 MSTORE DUP1 PUSH32 0x2A71A8B23D9E78B23664642644148D2CAEEE718B445BFCC028EE6876CB55ED2C DUP2 MSTORE PUSH1 0x20 ADD PUSH32 0xB9DDAF66F5F4CAC359D07ECF7CFDB3CAF40627A7673F5E1C2DE77F2F25DF31B DUP2 MSTORE POP DUP2 PUSH1 0x80 ADD MLOAD PUSH1 0x9 DUP2 MLOAD DUP2 LT PUSH2 0xA5F JUMPI PUSH2 0xA5E PUSH2 0x1789 JUMP JUMPDEST JUMPDEST PUSH1 0x20 MUL PUSH1 0x20 ADD ADD DUP2 SWAP1 MSTORE POP PUSH1 0x40 MLOAD DUP1 PUSH1 0x40 ADD PUSH1 0x40 MSTORE DUP1 PUSH32 0x2134AE21D4B4A30F4462F471DF99D59E476F3D1B5004533624639CDE55DDEA1F DUP2 MSTORE PUSH1 0x20 ADD PUSH32 0x18071500C6AB3C5CAFAFD511958D76E1DEEE4C8700397991758D1829311F7E0 DUP2 MSTORE POP DUP2 PUSH1 0x80 ADD MLOAD PUSH1 0xA DUP2 MLOAD DUP2 LT PUSH2 0xAD7 JUMPI PUSH2 0xAD6 PUSH2 0x1789 JUMP JUMPDEST JUMPDEST PUSH1 0x20 MUL PUSH1 0x20 ADD ADD DUP2 SWAP1 MSTORE POP PUSH1 0x40 MLOAD DUP1 PUSH1 0x40 ADD PUSH1 0x40 MSTORE DUP1 PUSH32 0x2D23E166E9FAD75B3E4D328E1BF2F35372DCE751550ED21A10EC4B96491B4C1 DUP2 MSTORE PUSH1 0x20 ADD PUSH32 0x361BC0450DDE385C9C8301F6E73995E5190F44F903D9FC6474EC16FB0995B7E DUP2 MSTORE POP DUP2 PUSH1 0x80 ADD MLOAD PUSH1 0xB DUP2 MLOAD DUP2 LT PUSH2 0xB4F JUMPI PUSH2 0xB4E PUSH2 0x1789 JUMP JUMPDEST JUMPDEST PUSH1 0x20 MUL PUSH1 0x20 ADD ADD DUP2 SWAP1 MSTORE POP PUSH1 0x40 MLOAD DUP1 PUSH1 0x40 ADD PUSH1 0x40 MSTORE DUP1 PUSH32 0x1D51D31D0477236FC08266D0205DE543FCFA65443C4F2BD453FBBCFEE8279AB5 DUP2 MSTORE PUSH1 0x20 ADD PUSH32 0x2A1B55CF51F4F2B414A710EAB948346ADE0B7E85C80536ED61FC878C326E6E6C DUP2 MSTORE POP DUP2 PUSH1 0x80 ADD MLOAD PUSH1 0xC DUP2 MLOAD DUP2 LT PUSH2 0xBC7 JUMPI PUSH2 0xBC6 PUSH2 0x1789 JUMP JUMPDEST JUMPDEST PUSH1 0x20 MUL PUSH1 0x20 ADD ADD DUP2 SWAP1 MSTORE POP SWAP1 JUMP JUMPDEST PUSH2 0xBDD PUSH2 0x1324 JUMP JUMPDEST PUSH2 0xBE5 PUSH2 0x133C JUMP JUMPDEST DUP4 PUSH0 ADD MLOAD DUP2 PUSH0 PUSH1 0x3 DUP2 LT PUSH2 0xBFC JUMPI PUSH2 0xBFB PUSH2 0x1789 JUMP JUMPDEST JUMPDEST PUSH1 0x20 MUL ADD DUP2 DUP2 MSTORE POP POP DUP4 PUSH1 0x20 ADD MLOAD DUP2 PUSH1 0x1 PUSH1 0x3 DUP2 LT PUSH2 0xC1E JUMPI PUSH2 0xC1D PUSH2 0x1789 JUMP JUMPDEST JUMPDEST PUSH1 0x20 MUL ADD DUP2 DUP2 MSTORE POP POP DUP3 DUP2 PUSH1 0x2 PUSH1 0x3 DUP2 LT PUSH2 0xC3C JUMPI PUSH2 0xC3B PUSH2 0x1789 JUMP JUMPDEST JUMPDEST PUSH1 0x20 MUL ADD DUP2 DUP2 MSTORE POP POP PUSH0 PUSH1 0x60 DUP4 PUSH1 0x80 DUP5 PUSH1 0x7 PUSH2 0x7D0 GAS SUB STATICCALL SWAP1 POP DUP1 PUSH0 DUP2 SUB PUSH2 0xC60 JUMPI INVALID JUMPDEST POP DUP1 PUSH2 0xC6A JUMPI PUSH0 PUSH0 REVERT JUMPDEST POP POP SWAP3 SWAP2 POP POP JUMP JUMPDEST PUSH2 0xC7A PUSH2 0x1324 JUMP JUMPDEST PUSH2 0xC82 PUSH2 0x135E JUMP JUMPDEST DUP4 PUSH0 ADD MLOAD DUP2 PUSH0 PUSH1 0x4 DUP2 LT PUSH2 0xC99 JUMPI PUSH2 0xC98 PUSH2 0x1789 JUMP JUMPDEST JUMPDEST PUSH1 0x20 MUL ADD DUP2 DUP2 MSTORE POP POP DUP4 PUSH1 0x20 ADD MLOAD DUP2 PUSH1 0x1 PUSH1 0x4 DUP2 LT PUSH2 0xCBB JUMPI PUSH2 0xCBA PUSH2 0x1789 JUMP JUMPDEST JUMPDEST PUSH1 0x20 MUL ADD DUP2 DUP2 MSTORE POP POP DUP3 PUSH0 ADD MLOAD DUP2 PUSH1 0x2 PUSH1 0x4 DUP2 LT PUSH2 0xCDC JUMPI PUSH2 0xCDB PUSH2 0x1789 JUMP JUMPDEST JUMPDEST PUSH1 0x20 MUL ADD DUP2 DUP2 MSTORE POP POP DUP3 PUSH1 0x20 ADD MLOAD DUP2 PUSH1 0x3 PUSH1 0x4 DUP2 LT PUSH2 0xCFE JUMPI PUSH2 0xCFD PUSH2 0x1789 JUMP JUMPDEST JUMPDEST PUSH1 0x20 MUL ADD DUP2 DUP2 MSTORE POP POP PUSH0 PUSH1 0x60 DUP4 PUSH1 0xC0 DUP5 PUSH1 0x6 PUSH2 0x7D0 GAS SUB STATICCALL SWAP1 POP DUP1 PUSH0 DUP2 SUB PUSH2 0xD22 JUMPI INVALID JUMPDEST POP DUP1 PUSH2 0xD2C JUMPI PUSH0 PUSH0 REVERT JUMPDEST POP POP SWAP3 SWAP2 POP POP JUMP JUMPDEST PUSH2 0xD3C PUSH2 0x1324 JUMP JUMPDEST PUSH0 PUSH32 0x30644E72E131A029B85045B68181585D97816A916871CA8D3C208C16D87CFD47 SWAP1 POP PUSH0 DUP4 PUSH0 ADD MLOAD EQ DUP1 ISZERO PUSH2 0xD75 JUMPI POP PUSH0 DUP4 PUSH1 0x20 ADD MLOAD EQ JUMPDEST ISZERO PUSH2 0xD97 JUMPI PUSH1 0x40 MLOAD DUP1 PUSH1 0x40 ADD PUSH1 0x40 MSTORE DUP1 PUSH0 DUP2 MSTORE PUSH1 0x20 ADD PUSH0 DUP2 MSTORE POP SWAP2 POP POP PUSH2 0xDCD JUMP JUMPDEST PUSH1 0x40 MLOAD DUP1 PUSH1 0x40 ADD PUSH1 0x40 MSTORE DUP1 DUP5 PUSH0 ADD MLOAD DUP2 MSTORE PUSH1 0x20 ADD DUP3 DUP6 PUSH1 0x20 ADD MLOAD PUSH2 0xDBB SWAP2 SWAP1 PUSH2 0x1843 JUMP JUMPDEST DUP4 PUSH2 0xDC6 SWAP2 SWAP1 PUSH2 0x1873 JUMP JUMPDEST DUP2 MSTORE POP SWAP2 POP POP JUMPDEST SWAP2 SWAP1 POP JUMP JUMPDEST PUSH0 PUSH0 PUSH1 0x4 PUSH8 0xFFFFFFFFFFFFFFFF DUP2 GT ISZERO PUSH2 0xDEF JUMPI PUSH2 0xDEE PUSH2 0x140B JUMP JUMPDEST JUMPDEST PUSH1 0x40 MLOAD SWAP1 DUP1 DUP3 MSTORE DUP1 PUSH1 0x20 MUL PUSH1 0x20 ADD DUP3 ADD PUSH1 0x40 MSTORE DUP1 ISZERO PUSH2 0xE28 JUMPI DUP2 PUSH1 0x20 ADD JUMPDEST PUSH2 0xE15 PUSH2 0x1324 JUMP JUMPDEST DUP2 MSTORE PUSH1 0x20 ADD SWAP1 PUSH1 0x1 SWAP1 SUB SWAP1 DUP2 PUSH2 0xE0D JUMPI SWAP1 POP JUMPDEST POP SWAP1 POP PUSH0 PUSH1 0x4 PUSH8 0xFFFFFFFFFFFFFFFF DUP2 GT ISZERO PUSH2 0xE47 JUMPI PUSH2 0xE46 PUSH2 0x140B JUMP JUMPDEST JUMPDEST PUSH1 0x40 MLOAD SWAP1 DUP1 DUP3 MSTORE DUP1 PUSH1 0x20 MUL PUSH1 0x20 ADD DUP3 ADD PUSH1 0x40 MSTORE DUP1 ISZERO PUSH2 0xE80 JUMPI DUP2 PUSH1 0x20 ADD JUMPDEST PUSH2 0xE6D PUSH2 0x1380 JUMP JUMPDEST DUP2 MSTORE PUSH1 0x20 ADD SWAP1 PUSH1 0x1 SWAP1 SUB SWAP1 DUP2 PUSH2 0xE65 JUMPI SWAP1 POP JUMPDEST POP SWAP1 POP DUP11 DUP3 PUSH0 DUP2 MLOAD DUP2 LT PUSH2 0xE97 JUMPI PUSH2 0xE96 PUSH2 0x1789 JUMP JUMPDEST JUMPDEST PUSH1 0x20 MUL PUSH1 0x20 ADD ADD DUP2 SWAP1 MSTORE POP DUP9 DUP3 PUSH1 0x1 DUP2 MLOAD DUP2 LT PUSH2 0xEB7 JUMPI PUSH2 0xEB6 PUSH2 0x1789 JUMP JUMPDEST JUMPDEST PUSH1 0x20 MUL PUSH1 0x20 ADD ADD DUP2 SWAP1 MSTORE POP DUP7 DUP3 PUSH1 0x2 DUP2 MLOAD DUP2 LT PUSH2 0xED7 JUMPI PUSH2 0xED6 PUSH2 0x1789 JUMP JUMPDEST JUMPDEST PUSH1 0x20 MUL PUSH1 0x20 ADD ADD DUP2 SWAP1 MSTORE POP DUP5 DUP3 PUSH1 0x3 DUP2 MLOAD DUP2 LT PUSH2 0xEF7 JUMPI PUSH2 0xEF6 PUSH2 0x1789 JUMP JUMPDEST JUMPDEST PUSH1 0x20 MUL PUSH1 0x20 ADD ADD DUP2 SWAP1 MSTORE POP DUP10 DUP2 PUSH0 DUP2 MLOAD DUP2 LT PUSH2 0xF16 JUMPI PUSH2 0xF15 PUSH2 0x1789 JUMP JUMPDEST JUMPDEST PUSH1 0x20 MUL PUSH1 0x20 ADD ADD DUP2 SWAP1 MSTORE POP DUP8 DUP2 PUSH1 0x1 DUP2 MLOAD DUP2 LT PUSH2 0xF36 JUMPI PUSH2 0xF35 PUSH2 0x1789 JUMP JUMPDEST JUMPDEST PUSH1 0x20 MUL PUSH1 0x20 ADD ADD DUP2 SWAP1 MSTORE POP DUP6 DUP2 PUSH1 0x2 DUP2 MLOAD DUP2 LT PUSH2 0xF56 JUMPI PUSH2 0xF55 PUSH2 0x1789 JUMP JUMPDEST JUMPDEST PUSH1 0x20 MUL PUSH1 0x20 ADD ADD DUP2 SWAP1 MSTORE POP DUP4 DUP2 PUSH1 0x3 DUP2 MLOAD DUP2 LT PUSH2 0xF76 JUMPI PUSH2 0xF75 PUSH2 0x1789 JUMP JUMPDEST JUMPDEST PUSH1 0x20 MUL PUSH1 0x20 ADD ADD DUP2 SWAP1 MSTORE POP PUSH2 0xF8B DUP3 DUP3 PUSH2 0xF9B JUMP JUMPDEST SWAP3 POP POP POP SWAP9 SWAP8 POP POP POP POP POP POP POP POP JUMP JUMPDEST PUSH0 DUP2 MLOAD DUP4 MLOAD EQ PUSH2 0xFA9 JUMPI PUSH0 PUSH0 REVERT JUMPDEST PUSH0 DUP4 MLOAD SWAP1 POP PUSH0 PUSH1 0x6 DUP3 PUSH2 0xFBC SWAP2 SWAP1 PUSH2 0x18A6 JUMP JUMPDEST SWAP1 POP PUSH0 DUP2 PUSH8 0xFFFFFFFFFFFFFFFF DUP2 GT ISZERO PUSH2 0xFD9 JUMPI PUSH2 0xFD8 PUSH2 0x140B JUMP JUMPDEST JUMPDEST PUSH1 0x40 MLOAD SWAP1 DUP1 DUP3 MSTORE DUP1 PUSH1 0x20 MUL PUSH1 0x20 ADD DUP3 ADD PUSH1 0x40 MSTORE DUP1 ISZERO PUSH2 0x1007 JUMPI DUP2 PUSH1 0x20 ADD PUSH1 0x20 DUP3 MUL DUP1 CALLDATASIZE DUP4 CALLDATACOPY DUP1 DUP3 ADD SWAP2 POP POP SWAP1 POP JUMPDEST POP SWAP1 POP PUSH0 PUSH0 SWAP1 POP JUMPDEST DUP4 DUP2 LT ISZERO PUSH2 0x1282 JUMPI DUP7 DUP2 DUP2 MLOAD DUP2 LT PUSH2 0x102A JUMPI PUSH2 0x1029 PUSH2 0x1789 JUMP JUMPDEST JUMPDEST PUSH1 0x20 MUL PUSH1 0x20 ADD ADD MLOAD PUSH0 ADD MLOAD DUP3 PUSH0 PUSH1 0x6 DUP5 PUSH2 0x1044 SWAP2 SWAP1 PUSH2 0x18A6 JUMP JUMPDEST PUSH2 0x104E SWAP2 SWAP1 PUSH2 0x17E3 JUMP JUMPDEST DUP2 MLOAD DUP2 LT PUSH2 0x105F JUMPI PUSH2 0x105E PUSH2 0x1789 JUMP JUMPDEST JUMPDEST PUSH1 0x20 MUL PUSH1 0x20 ADD ADD DUP2 DUP2 MSTORE POP POP DUP7 DUP2 DUP2 MLOAD DUP2 LT PUSH2 0x107E JUMPI PUSH2 0x107D PUSH2 0x1789 JUMP JUMPDEST JUMPDEST PUSH1 0x20 MUL PUSH1 0x20 ADD ADD MLOAD PUSH1 0x20 ADD MLOAD DUP3 PUSH1 0x1 PUSH1 0x6 DUP5 PUSH2 0x109A SWAP2 SWAP1 PUSH2 0x18A6 JUMP JUMPDEST PUSH2 0x10A4 SWAP2 SWAP1 PUSH2 0x17E3 JUMP JUMPDEST DUP2 MLOAD DUP2 LT PUSH2 0x10B5 JUMPI PUSH2 0x10B4 PUSH2 0x1789 JUMP JUMPDEST JUMPDEST PUSH1 0x20 MUL PUSH1 0x20 ADD ADD DUP2 DUP2 MSTORE POP POP DUP6 DUP2 DUP2 MLOAD DUP2 LT PUSH2 0x10D4 JUMPI PUSH2 0x10D3 PUSH2 0x1789 JUMP JUMPDEST JUMPDEST PUSH1 0x20 MUL PUSH1 0x20 ADD ADD MLOAD PUSH0 ADD MLOAD PUSH1 0x1 PUSH1 0x2 DUP2 LT PUSH2 0x10F2 JUMPI PUSH2 0x10F1 PUSH2 0x1789 JUMP JUMPDEST JUMPDEST PUSH1 0x20 MUL ADD MLOAD DUP3 PUSH1 0x2 PUSH1 0x6 DUP5 PUSH2 0x1107 SWAP2 SWAP1 PUSH2 0x18A6 JUMP JUMPDEST PUSH2 0x1111 SWAP2 SWAP1 PUSH2 0x17E3 JUMP JUMPDEST DUP2 MLOAD DUP2 LT PUSH2 0x1122 JUMPI PUSH2 0x1121 PUSH2 0x1789 JUMP JUMPDEST JUMPDEST PUSH1 0x20 MUL PUSH1 0x20 ADD ADD DUP2 DUP2 MSTORE POP POP DUP6 DUP2 DUP2 MLOAD DUP2 LT PUSH2 0x1141 JUMPI PUSH2 0x1140 PUSH2 0x1789 JUMP JUMPDEST JUMPDEST PUSH1 0x20 MUL PUSH1 0x20 ADD ADD MLOAD PUSH0 ADD MLOAD PUSH0 PUSH1 0x2 DUP2 LT PUSH2 0x115E JUMPI PUSH2 0x115D PUSH2 0x1789 JUMP JUMPDEST JUMPDEST PUSH1 0x20 MUL ADD MLOAD DUP3 PUSH1 0x3 PUSH1 0x6 DUP5 PUSH2 0x1173 SWAP2 SWAP1 PUSH2 0x18A6 JUMP JUMPDEST PUSH2 0x117D SWAP2 SWAP1 PUSH2 0x17E3 JUMP JUMPDEST DUP2 MLOAD DUP2 LT PUSH2 0x118E JUMPI PUSH2 0x118D PUSH2 0x1789 JUMP JUMPDEST JUMPDEST PUSH1 0x20 MUL PUSH1 0x20 ADD ADD DUP2 DUP2 MSTORE POP POP DUP6 DUP2 DUP2 MLOAD DUP2 LT PUSH2 0x11AD JUMPI PUSH2 0x11AC PUSH2 0x1789 JUMP JUMPDEST JUMPDEST PUSH1 0x20 MUL PUSH1 0x20 ADD ADD MLOAD PUSH1 0x20 ADD MLOAD PUSH1 0x1 PUSH1 0x2 DUP2 LT PUSH2 0x11CC JUMPI PUSH2 0x11CB PUSH2 0x1789 JUMP JUMPDEST JUMPDEST PUSH1 0x20 MUL ADD MLOAD DUP3 PUSH1 0x4 PUSH1 0x6 DUP5 PUSH2 0x11E1 SWAP2 SWAP1 PUSH2 0x18A6 JUMP JUMPDEST PUSH2 0x11EB SWAP2 SWAP1 PUSH2 0x17E3 JUMP JUMPDEST DUP2 MLOAD DUP2 LT PUSH2 0x11FC JUMPI PUSH2 0x11FB PUSH2 0x1789 JUMP JUMPDEST JUMPDEST PUSH1 0x20 MUL PUSH1 0x20 ADD ADD DUP2 DUP2 MSTORE POP POP DUP6 DUP2 DUP2 MLOAD DUP2 LT PUSH2 0x121B JUMPI PUSH2 0x121A PUSH2 0x1789 JUMP JUMPDEST JUMPDEST PUSH1 0x20 MUL PUSH1 0x20 ADD ADD MLOAD PUSH1 0x20 ADD MLOAD PUSH0 PUSH1 0x2 DUP2 LT PUSH2 0x1239 JUMPI PUSH2 0x1238 PUSH2 0x1789 JUMP JUMPDEST JUMPDEST PUSH1 0x20 MUL ADD MLOAD DUP3 PUSH1 0x5 PUSH1 0x6 DUP5 PUSH2 0x124E SWAP2 SWAP1 PUSH2 0x18A6 JUMP JUMPDEST PUSH2 0x1258 SWAP2 SWAP1 PUSH2 0x17E3 JUMP JUMPDEST DUP2 MLOAD DUP2 LT PUSH2 0x1269 JUMPI PUSH2 0x1268 PUSH2 0x1789 JUMP JUMPDEST JUMPDEST PUSH1 0x20 MUL PUSH1 0x20 ADD ADD DUP2 DUP2 MSTORE POP POP DUP1 DUP1 PUSH1 0x1 ADD SWAP2 POP POP PUSH2 0x100F JUMP JUMPDEST POP PUSH2 0x128B PUSH2 0x13A6 JUMP JUMPDEST PUSH0 PUSH1 0x20 DUP3 PUSH1 0x20 DUP7 MUL PUSH1 0x20 DUP7 ADD PUSH1 0x8 PUSH2 0x7D0 GAS SUB STATICCALL SWAP1 POP DUP1 PUSH0 DUP2 SUB PUSH2 0x12AB JUMPI INVALID JUMPDEST POP DUP1 PUSH2 0x12B5 JUMPI PUSH0 PUSH0 REVERT JUMPDEST PUSH0 DUP3 PUSH0 PUSH1 0x1 DUP2 LT PUSH2 0x12C9 JUMPI PUSH2 0x12C8 PUSH2 0x1789 JUMP JUMPDEST JUMPDEST PUSH1 0x20 MUL ADD MLOAD EQ ISZERO SWAP6 POP POP POP POP POP POP SWAP3 SWAP2 POP POP JUMP JUMPDEST PUSH1 0x40 MLOAD DUP1 PUSH1 0xA0 ADD PUSH1 0x40 MSTORE DUP1 PUSH2 0x12F0 PUSH2 0x1324 JUMP JUMPDEST DUP2 MSTORE PUSH1 0x20 ADD PUSH2 0x12FD PUSH2 0x1380 JUMP JUMPDEST DUP2 MSTORE PUSH1 0x20 ADD PUSH2 0x130A PUSH2 0x1380 JUMP JUMPDEST DUP2 MSTORE PUSH1 0x20 ADD PUSH2 0x1317 PUSH2 0x1380 JUMP JUMPDEST DUP2 MSTORE PUSH1 0x20 ADD PUSH1 0x60 DUP2 MSTORE POP SWAP1 JUMP JUMPDEST PUSH1 0x40 MLOAD DUP1 PUSH1 0x40 ADD PUSH1 0x40 MSTORE DUP1 PUSH0 DUP2 MSTORE PUSH1 0x20 ADD PUSH0 DUP2 MSTORE POP SWAP1 JUMP JUMPDEST PUSH1 0x40 MLOAD DUP1 PUSH1 0x60 ADD PUSH1 0x40 MSTORE DUP1 PUSH1 0x3 SWAP1 PUSH1 0x20 DUP3 MUL DUP1 CALLDATASIZE DUP4 CALLDATACOPY DUP1 DUP3 ADD SWAP2 POP POP SWAP1 POP POP SWAP1 JUMP JUMPDEST PUSH1 0x40 MLOAD DUP1 PUSH1 0x80 ADD PUSH1 0x40 MSTORE DUP1 PUSH1 0x4 SWAP1 PUSH1 0x20 DUP3 MUL DUP1 CALLDATASIZE DUP4 CALLDATACOPY DUP1 DUP3 ADD SWAP2 POP POP SWAP1 POP POP SWAP1 JUMP JUMPDEST PUSH1 0x40 MLOAD DUP1 PUSH1 0x40 ADD PUSH1 0x40 MSTORE DUP1 PUSH2 0x1393 PUSH2 0x13C8 JUMP JUMPDEST DUP2 MSTORE PUSH1 0x20 ADD PUSH2 0x13A0 PUSH2 0x13C8 JUMP JUMPDEST DUP2 MSTORE POP SWAP1 JUMP JUMPDEST PUSH1 0x40 MLOAD DUP1 PUSH1 0x20 ADD PUSH1 0x40 MSTORE DUP1 PUSH1 0x1 SWAP1 PUSH1 0x20 DUP3 MUL DUP1 CALLDATASIZE DUP4 CALLDATACOPY DUP1 DUP3 ADD SWAP2 POP POP SWAP1 POP POP SWAP1 JUMP JUMPDEST PUSH1 0x40 MLOAD DUP1 PUSH1 0x40 ADD PUSH1 0x40 MSTORE DUP1 PUSH1 0x2 SWAP1 PUSH1 0x20 DUP3 MUL DUP1 CALLDATASIZE DUP4 CALLDATACOPY DUP1 DUP3 ADD SWAP2 POP POP SWAP1 POP POP SWAP1 JUMP JUMPDEST PUSH0 PUSH1 0x40 MLOAD SWAP1 POP SWAP1 JUMP JUMPDEST PUSH0 PUSH0 REVERT JUMPDEST PUSH0 PUSH0 REVERT JUMPDEST PUSH0 PUSH1 0x1F NOT PUSH1 0x1F DUP4 ADD AND SWAP1 POP SWAP2 SWAP1 POP JUMP JUMPDEST PUSH32 0x4E487B7100000000000000000000000000000000000000000000000000000000 PUSH0 MSTORE PUSH1 0x41 PUSH1 0x4 MSTORE PUSH1 0x24 PUSH0 REVERT JUMPDEST PUSH2 0x1441 DUP3 PUSH2 0x13FB JUMP JUMPDEST DUP2 ADD DUP2 DUP2 LT PUSH8 0xFFFFFFFFFFFFFFFF DUP3 GT OR ISZERO PUSH2 0x1460 JUMPI PUSH2 0x145F PUSH2 0x140B JUMP JUMPDEST JUMPDEST DUP1 PUSH1 0x40 MSTORE POP POP POP JUMP JUMPDEST PUSH0 PUSH2 0x1472 PUSH2 0x13EA JUMP JUMPDEST SWAP1 POP PUSH2 0x147E DUP3 DUP3 PUSH2 0x1438 JUMP JUMPDEST SWAP2 SWAP1 POP JUMP JUMPDEST PUSH0 DUP2 SWAP1 POP SWAP2 SWAP1 POP JUMP JUMPDEST PUSH2 0x1495 DUP2 PUSH2 0x1483 JUMP JUMPDEST DUP2 EQ PUSH2 0x149F JUMPI PUSH0 PUSH0 REVERT JUMPDEST POP JUMP JUMPDEST PUSH0 DUP2 CALLDATALOAD SWAP1 POP PUSH2 0x14B0 DUP2 PUSH2 0x148C JUMP JUMPDEST SWAP3 SWAP2 POP POP JUMP JUMPDEST PUSH0 PUSH1 0x40 DUP3 DUP5 SUB SLT ISZERO PUSH2 0x14CB JUMPI PUSH2 0x14CA PUSH2 0x13F7 JUMP JUMPDEST JUMPDEST PUSH2 0x14D5 PUSH1 0x40 PUSH2 0x1469 JUMP JUMPDEST SWAP1 POP PUSH0 PUSH2 0x14E4 DUP5 DUP3 DUP6 ADD PUSH2 0x14A2 JUMP JUMPDEST PUSH0 DUP4 ADD MSTORE POP PUSH1 0x20 PUSH2 0x14F7 DUP5 DUP3 DUP6 ADD PUSH2 0x14A2 JUMP JUMPDEST PUSH1 0x20 DUP4 ADD MSTORE POP SWAP3 SWAP2 POP POP JUMP JUMPDEST PUSH0 PUSH0 REVERT JUMPDEST PUSH0 PUSH8 0xFFFFFFFFFFFFFFFF DUP3 GT ISZERO PUSH2 0x1521 JUMPI PUSH2 0x1520 PUSH2 0x140B JUMP JUMPDEST JUMPDEST PUSH1 0x20 DUP3 MUL SWAP1 POP SWAP2 SWAP1 POP JUMP JUMPDEST PUSH0 PUSH0 REVERT JUMPDEST PUSH0 PUSH2 0x1542 PUSH2 0x153D DUP5 PUSH2 0x1507 JUMP JUMPDEST PUSH2 0x1469 JUMP JUMPDEST SWAP1 POP DUP1 PUSH1 0x20 DUP5 MUL DUP4 ADD DUP6 DUP2 GT ISZERO PUSH2 0x155C JUMPI PUSH2 0x155B PUSH2 0x152C JUMP JUMPDEST JUMPDEST DUP4 JUMPDEST DUP2 DUP2 LT ISZERO PUSH2 0x1585 JUMPI DUP1 PUSH2 0x1571 DUP9 DUP3 PUSH2 0x14A2 JUMP JUMPDEST DUP5 MSTORE PUSH1 0x20 DUP5 ADD SWAP4 POP POP PUSH1 0x20 DUP2 ADD SWAP1 POP PUSH2 0x155E JUMP JUMPDEST POP POP POP SWAP4 SWAP3 POP POP POP JUMP JUMPDEST PUSH0 DUP3 PUSH1 0x1F DUP4 ADD SLT PUSH2 0x15A3 JUMPI PUSH2 0x15A2 PUSH2 0x1503 JUMP JUMPDEST JUMPDEST PUSH1 0x2 PUSH2 0x15B0 DUP5 DUP3 DUP6 PUSH2 0x1530 JUMP JUMPDEST SWAP2 POP POP SWAP3 SWAP2 POP POP JUMP JUMPDEST PUSH0 PUSH1 0x80 DUP3 DUP5 SUB SLT ISZERO PUSH2 0x15CE JUMPI PUSH2 0x15CD PUSH2 0x13F7 JUMP JUMPDEST JUMPDEST PUSH2 0x15D8 PUSH1 0x40 PUSH2 0x1469 JUMP JUMPDEST SWAP1 POP PUSH0 PUSH2 0x15E7 DUP5 DUP3 DUP6 ADD PUSH2 0x158F JUMP JUMPDEST PUSH0 DUP4 ADD MSTORE POP PUSH1 0x40 PUSH2 0x15FA DUP5 DUP3 DUP6 ADD PUSH2 0x158F JUMP JUMPDEST PUSH1 0x20 DUP4 ADD MSTORE POP SWAP3 SWAP2 POP POP JUMP JUMPDEST PUSH0 PUSH2 0x100 DUP3 DUP5 SUB SLT ISZERO PUSH2 0x161C JUMPI PUSH2 0x161B PUSH2 0x13F7 JUMP JUMPDEST JUMPDEST PUSH2 0x1626 PUSH1 0x60 PUSH2 0x1469 JUMP JUMPDEST SWAP1 POP PUSH0 PUSH2 0x1635 DUP5 DUP3 DUP6 ADD PUSH2 0x14B6 JUMP JUMPDEST PUSH0 DUP4 ADD MSTORE POP PUSH1 0x40 PUSH2 0x1648 DUP5 DUP3 DUP6 ADD PUSH2 0x15B9 JUMP JUMPDEST PUSH1 0x20 DUP4 ADD MSTORE POP PUSH1 0xC0 PUSH2 0x165C DUP5 DUP3 DUP6 ADD PUSH2 0x14B6 JUMP JUMPDEST PUSH1 0x40 DUP4 ADD MSTORE POP SWAP3 SWAP2 POP POP JUMP JUMPDEST PUSH0 PUSH8 0xFFFFFFFFFFFFFFFF DUP3 GT ISZERO PUSH2 0x1682 JUMPI PUSH2 0x1681 PUSH2 0x140B JUMP JUMPDEST JUMPDEST PUSH1 0x20 DUP3 MUL SWAP1 POP SWAP2 SWAP1 POP JUMP JUMPDEST PUSH0 PUSH2 0x169F PUSH2 0x169A DUP5 PUSH2 0x1668 JUMP JUMPDEST PUSH2 0x1469 JUMP JUMPDEST SWAP1 POP DUP1 PUSH1 0x20 DUP5 MUL DUP4 ADD DUP6 DUP2 GT ISZERO PUSH2 0x16B9 JUMPI PUSH2 0x16B8 PUSH2 0x152C JUMP JUMPDEST JUMPDEST DUP4 JUMPDEST DUP2 DUP2 LT ISZERO PUSH2 0x16E2 JUMPI DUP1 PUSH2 0x16CE DUP9 DUP3 PUSH2 0x14A2 JUMP JUMPDEST DUP5 MSTORE PUSH1 0x20 DUP5 ADD SWAP4 POP POP PUSH1 0x20 DUP2 ADD SWAP1 POP PUSH2 0x16BB JUMP JUMPDEST POP POP POP SWAP4 SWAP3 POP POP POP JUMP JUMPDEST PUSH0 DUP3 PUSH1 0x1F DUP4 ADD SLT PUSH2 0x1700 JUMPI PUSH2 0x16FF PUSH2 0x1503 JUMP JUMPDEST JUMPDEST PUSH1 0xC PUSH2 0x170D DUP5 DUP3 DUP6 PUSH2 0x168D JUMP JUMPDEST SWAP2 POP POP SWAP3 SWAP2 POP POP JUMP JUMPDEST PUSH0 PUSH0 PUSH2 0x280 DUP4 DUP6 SUB SLT ISZERO PUSH2 0x172D JUMPI PUSH2 0x172C PUSH2 0x13F3 JUMP JUMPDEST JUMPDEST PUSH0 PUSH2 0x173A DUP6 DUP3 DUP7 ADD PUSH2 0x1606 JUMP JUMPDEST SWAP3 POP POP PUSH2 0x100 PUSH2 0x174C DUP6 DUP3 DUP7 ADD PUSH2 0x16EC JUMP JUMPDEST SWAP2 POP POP SWAP3 POP SWAP3 SWAP1 POP JUMP JUMPDEST PUSH0 DUP2 ISZERO ISZERO SWAP1 POP SWAP2 SWAP1 POP JUMP JUMPDEST PUSH2 0x176A DUP2 PUSH2 0x1756 JUMP JUMPDEST DUP3 MSTORE POP POP JUMP JUMPDEST PUSH0 PUSH1 0x20 DUP3 ADD SWAP1 POP PUSH2 0x1783 PUSH0 DUP4 ADD DUP5 PUSH2 0x1761 JUMP JUMPDEST SWAP3 SWAP2 POP POP JUMP JUMPDEST PUSH32 0x4E487B7100000000000000000000000000000000000000000000000000000000 PUSH0 MSTORE PUSH1 0x32 PUSH1 0x4 MSTORE PUSH1 0x24 PUSH0 REVERT JUMPDEST PUSH32 0x4E487B7100000000000000000000000000000000000000000000000000000000 PUSH0 MSTORE PUSH1 0x11 PUSH1 0x4 MSTORE PUSH1 0x24 PUSH0 REVERT JUMPDEST PUSH0 PUSH2 0x17ED DUP3 PUSH2 0x1483 JUMP JUMPDEST SWAP2 POP PUSH2 0x17F8 DUP4 PUSH2 0x1483 JUMP JUMPDEST SWAP3 POP DUP3 DUP3 ADD SWAP1 POP DUP1 DUP3 GT ISZERO PUSH2 0x1810 JUMPI PUSH2 0x180F PUSH2 0x17B6 JUMP JUMPDEST JUMPDEST SWAP3 SWAP2 POP POP JUMP JUMPDEST PUSH32 0x4E487B7100000000000000000000000000000000000000000000000000000000 PUSH0 MSTORE PUSH1 0x12 PUSH1 0x4 MSTORE PUSH1 0x24 PUSH0 REVERT JUMPDEST PUSH0 PUSH2 0x184D DUP3 PUSH2 0x1483 JUMP JUMPDEST SWAP2 POP PUSH2 0x1858 DUP4 PUSH2 0x1483 JUMP JUMPDEST SWAP3 POP DUP3 PUSH2 0x1868 JUMPI PUSH2 0x1867 PUSH2 0x1816 JUMP JUMPDEST JUMPDEST DUP3 DUP3 MOD SWAP1 POP SWAP3 SWAP2 POP POP JUMP JUMPDEST PUSH0 PUSH2 0x187D DUP3 PUSH2 0x1483 JUMP JUMPDEST SWAP2 POP PUSH2 0x1888 DUP4 PUSH2 0x1483 JUMP JUMPDEST SWAP3 POP DUP3 DUP3 SUB SWAP1 POP DUP2 DUP2 GT ISZERO PUSH2 0x18A0 JUMPI PUSH2 0x189F PUSH2 0x17B6 JUMP JUMPDEST JUMPDEST SWAP3 SWAP2 POP POP JUMP JUMPDEST PUSH0 PUSH2 0x18B0 DUP3 PUSH2 0x1483 JUMP JUMPDEST SWAP2 POP PUSH2 0x18BB DUP4 PUSH2 0x1483 JUMP JUMPDEST SWAP3 POP DUP3 DUP3 MUL PUSH2 0x18C9 DUP2 PUSH2 0x1483 JUMP JUMPDEST SWAP2 POP DUP3 DUP3 DIV DUP5 EQ DUP4 ISZERO OR PUSH2 0x18E0 JUMPI PUSH2 0x18DF PUSH2 0x17B6 JUMP JUMPDEST JUMPDEST POP SWAP3 SWAP2 POP POP JUMP INVALID LOG2 PUSH5 0x6970667358 0x22 SLT KECCAK256 DATALOADN 0x7F00 0xFC REVERT 0xB6 PUSH11 0xA02B451DB6995F5708307B POP PUSH24 0x6106588960FC1BC5DB2CBD8564736F6C634300081E003300 "
		},
		"gasEstimates": {
			"creation": {
				"codeDepositCost": "1285800",
				"executionCost": "1333",
				"totalCost": "1287133"
			},
			"external": {
				"verifyTx(((uint256,uint256),(uint256[2],uint256[2]),(uint256,uint256)),uint256[12])": "infinite"
			},
			"internal": {
				"verify(uint256[] memory,struct Verifier.Proof memory)": "infinite",
				"verifyingKey()": "infinite"
			}
		},
		"methodIdentifiers": {
			"verifyTx(((uint256,uint256),(uint256[2],uint256[2]),(uint256,uint256)),uint256[12])": "66670599"
		}
	},
	"abi": [
		{
			"inputs": [
				{
					"components": [
						{
							"components": [
								{
									"internalType": "uint256",
									"name": "X",
									"type": "uint256"
								},
								{
									"internalType": "uint256",
									"name": "Y",
									"type": "uint256"
								}
							],
							"internalType": "struct Pairing.G1Point",
							"name": "a",
							"type": "tuple"
						},
						{
							"components": [
								{
									"internalType": "uint256[2]",
									"name": "X",
									"type": "uint256[2]"
								},
								{
									"internalType": "uint256[2]",
									"name": "Y",
									"type": "uint256[2]"
								}
							],
							"internalType": "struct Pairing.G2Point",
							"name": "b",
							"type": "tuple"
						},
						{
							"components": [
								{
									"internalType": "uint256",
									"name": "X",
									"type": "uint256"
								},
								{
									"internalType": "uint256",
									"name": "Y",
									"type": "uint256"
								}
							],
							"internalType": "struct Pairing.G1Point",
							"name": "c",
							"type": "tuple"
						}
					],
					"internalType": "struct Verifier.Proof",
					"name": "proof",
					"type": "tuple"
				},
				{
					"internalType": "uint256[12]",
					"name": "input",
					"type": "uint256[12]"
				}
			],
			"name": "verifyTx",
			"outputs": [
				{
					"internalType": "bool",
					"name": "r",
					"type": "bool"
				}
			],
			"stateMutability": "view",
			"type": "function"
		}
	]
}