{
	"data": {
		"bytecode": {
			"linkReferences": {},
			"object": "6080604052348015600e575f5ffd5b5061191c8061001c5f395ff3fe608060405234801561000f575f5ffd5b5060043610610029575f3560e01c8063666705991461002d575b5f5ffd5b61004760048036038101906100429190611715565b61005d565b604051610054919061176f565b60405180910390f35b5f5f600c67ffffffffffffffff81111561007a5761007961140a565b5b6040519080825280602002602001820160405280156100a85781602001602082028036833780820191505090505b5090505f5f90505b600c8110156100fd578381600c81106100cc576100cb611788565b5b60200201518282815181106100e4576100e3611788565b5b60200260200101818152505080806001019150506100b0565b505f6101098286610123565b0361011857600191505061011d565b5f9150505b92915050565b5f5f7f30644e72e131a029b85045b68181585d2833e84879b9709143e1f593f000000190505f6101516102ab565b90508060800151516001865161016791906117e2565b14610170575f5ffd5b5f60405180604001604052805f81526020015f81525090505f5f90505b865181101561022157838782815181106101aa576101a9611788565b5b6020026020010151106101bb575f5ffd5b6102128261020d85608001516001856101d491906117e2565b815181106101e5576101e4611788565b5b60200260200101518a8581518110610200576101ff611788565b5b6020026020010151610bd4565b610c71565b9150808060010191505061018d565b5061024a8183608001515f8151811061023d5761023c611788565b5b6020026020010151610c71565b905061028e855f0151866020015161026184610d33565b85604001516102738a60400151610d33565b8760600151610284895f0151610d33565b8960200151610dd1565b61029e57600193505050506102a5565b5f93505050505b92915050565b6102b36112dc565b60405180604001604052807f0daa57dc4a4692c2ac1f2b06c0f5be3297fb59681cb6ee071334ab6435f6f39f81526020017f072515937d4f66f7fd7bd111c87c377f41a6724c4445437f3238c46fd413afc6815250815f0181905250604051806040016040528060405180604001604052807f2de1f7c564d6a0ca0431221e98101d1d71b0e68f915032b7381e9e6301ad3de681526020017f118c304086f3359014d0af4f4c87571decff530aaa45da37c133aca4ec537d71815250815260200160405180604001604052807f117846116db6bdbc400b5b1ed1a5c227aa3b556573b80c1403bc34d7a3f0e75181526020017f167a659204992d15584e0c75e4a7e47a30c03023fe19dac1aab163e817f8dc758152508152508160200181905250604051806040016040528060405180604001604052807f2968ed1423c743f4f1410c66985a635ff325e21a895c94589331b70554cd4fa881526020017f016b68374b6d4825747c83cee8c589e8deb7be7f63c83c80c85985387aa3c9cd815250815260200160405180604001604052807f0cb42d30f5ceedaa6936c083e68e6adc0b386d36a86059a305624b998cdb0a2881526020017f0774bee6b76b7fc994e2349dcdd8f1fca28a67e9b07509dc4f249bda432087e48152508152508160400181905250604051806040016040528060405180604001604052807f0e9a7e0c5e9237e049821a9b96107098c0f878977a78ca983233ac9174ce87eb81526020017f2bb21a00ec8b20398799687107808f1d8c7bfe515cfc6db2a0a5e468896b08d1815250815260200160405180604001604052807f22647b8cf8e82011242b5d9638f6efc0b72e0bfdc1a1b2cfaa4e578712c3478781526020017f02566cb9c3ddfa185320ded12e3f3f1e27a161d1fbe4a7f3cad3e35cf71b33fb8152508152508160600181905250600d67ffffffffffffffff8111156105795761057861140a565b5b6040519080825280602002602001820160405280156105b257816020015b61059f611323565b8152602001906001900390816105975790505b50816080018190525060405180604001604052807f2af849b578726a614b9cf837813b1920d037d44d4fb4bc16f12191fad80f49a781526020017f2996abb657ecb50682bdddffaebaa1d8ac4f24f9e9a0316061f3b752eeb45eb281525081608001515f8151811061062757610626611788565b5b602002602001018190525060405180604001604052807f0f712efb483b65815be9b69fcba66737d47b7cbe013e8de2d2165c24b049d9cc81526020017f0ca7b9adfe5ab02ce2a736b251a7445727bbb4976609c2f64afb79e10c887aa8815250816080015160018151811061069f5761069e611788565b5b602002602001018190525060405180604001604052807f257841b48225a6a393bef459cfbadd860b062e3a4cfcdcd84e1f17a8566b5a2f81526020017f1a2651a33495d6fc0cad673183fdf57e17633cad5bb5f498bcec10cfab67cfde815250816080015160028151811061071757610716611788565b5b602002602001018190525060405180604001604052807f094e3cd70d9e5d64a4d8edabce7da6c82886b83e2f354b11c52fab27889b34a381526020017f2dacdd83d24d55f4a68f7d2b3b93f9cd3211c1d20ab137daa2f400c52339a8fe815250816080015160038151811061078f5761078e611788565b5b602002602001018190525060405180604001604052807f0d4a741a96da6c76bfaec796252395489e90cfe4433878dca9302fbb46df022681526020017f061594c538bc606f36887a7e1c66ac8a961afaddcc804ad7ffc4b90f0a4c3e06815250816080015160048151811061080757610806611788565b5b602002602001018190525060405180604001604052807f193a0d2b254ffea955d5785440b9207c678aacb1a3f53d9e3e9ca3b68646292281526020017f24d34ba9aeb28b477546bfcd799b397b126c2e900cf52fd8d75b613b0f3d0fbd815250816080015160058151811061087f5761087e611788565b5b602002602001018190525060405180604001604052807f1444833fd0171d0153fe099b605a3acc2d59e21ab4cf6363f48e3f356a69febd81526020017e7b3259fca2e2081506324d1e635984ffa6e96617c3af356b144a9f4f0d2b4f81525081608001516006815181106108f6576108f5611788565b5b602002602001018190525060405180604001604052807f0754b8b3c860c7a0bade23151b313fb3603fb8ed9ab46870bba02ce6a8947fc681526020017f27aa34fcf45b39af9a1cc47f5f445d38bffb9daaaef0abff7ca0cf5690d3a5bb815250816080015160078151811061096e5761096d611788565b5b602002602001018190525060405180604001604052807f0c3a9b3069b87a21366c0747c8dc11116a494115bef45835ad706c3e9263a62681526020017f0679d15a217ecd95db26f4c3b63441f3aee0dbd429e658b1d6b8ba11204ad90081525081608001516008815181106109e6576109e5611788565b5b602002602001018190525060405180604001604052807f1bbc2288469bcee3f68e84dee9b37b42d6170e0fe13bae9e9ad7533ef51d0e6b81526020017f0b699e3e8f4c9081e4ca6ec357938656e4672743692d8ca6c46c2276ec3beacd8152508160800151600981518110610a5e57610a5d611788565b5b602002602001018190525060405180604001604052807f104f36c1bd12a5ef51ddef228954b3e83aad23ccb1f62ae85a5bcda689574f7381526020017f1da183ca55536270a093a0cae171e4460b529d9a4d934aa2b5c560d1012a24038152508160800151600a81518110610ad657610ad5611788565b5b602002602001018190525060405180604001604052807f2ff01214ab73082c36227a00198362112a9b699f3bdb527f2b63ac16894fa44d81526020017f2e2ae1c36df72ce92b54f3c43b8271c3c8bf9c6e77f6c52b96c56cf4d0b8bb868152508160800151600b81518110610b4e57610b4d611788565b5b602002602001018190525060405180604001604052807f2a7dac41610238196b131c0ab8b9bae8e29516450c1d059a3e55047bc709a7dd81526020017f30601d27494f77eb029cc892a1b9bc46adc00de4d115c379d5fb5224dcc05b478152508160800151600c81518110610bc657610bc5611788565b5b602002602001018190525090565b610bdc611323565b610be461133b565b835f0151815f60038110610bfb57610bfa611788565b5b602002018181525050836020015181600160038110610c1d57610c1c611788565b5b6020020181815250508281600260038110610c3b57610c3a611788565b5b6020020181815250505f60608360808460076107d05a03fa9050805f8103610c5f57fe5b5080610c69575f5ffd5b505092915050565b610c79611323565b610c8161135d565b835f0151815f60048110610c9857610c97611788565b5b602002018181525050836020015181600160048110610cba57610cb9611788565b5b602002018181525050825f015181600260048110610cdb57610cda611788565b5b602002018181525050826020015181600360048110610cfd57610cfc611788565b5b6020020181815250505f60608360c08460066107d05a03fa9050805f8103610d2157fe5b5080610d2b575f5ffd5b505092915050565b610d3b611323565b5f7f30644e72e131a029b85045b68181585d97816a916871ca8d3c208c16d87cfd4790505f835f0151148015610d7457505f8360200151145b15610d965760405180604001604052805f81526020015f815250915050610dcc565b6040518060400160405280845f01518152602001828560200151610dba9190611842565b83610dc59190611872565b8152509150505b919050565b5f5f600467ffffffffffffffff811115610dee57610ded61140a565b5b604051908082528060200260200182016040528015610e2757816020015b610e14611323565b815260200190600190039081610e0c5790505b5090505f600467ffffffffffffffff811115610e4657610e4561140a565b5b604051908082528060200260200182016040528015610e7f57816020015b610e6c61137f565b815260200190600190039081610e645790505b5090508a825f81518110610e9657610e95611788565b5b60200260200101819052508882600181518110610eb657610eb5611788565b5b60200260200101819052508682600281518110610ed657610ed5611788565b5b60200260200101819052508482600381518110610ef657610ef5611788565b5b602002602001018190525089815f81518110610f1557610f14611788565b5b60200260200101819052508781600181518110610f3557610f34611788565b5b60200260200101819052508581600281518110610f5557610f54611788565b5b60200260200101819052508381600381518110610f7557610f74611788565b5b6020026020010181905250610f8a8282610f9a565b9250505098975050505050505050565b5f8151835114610fa8575f5ffd5b5f835190505f600682610fbb91906118a5565b90505f8167ffffffffffffffff811115610fd857610fd761140a565b5b6040519080825280602002602001820160405280156110065781602001602082028036833780820191505090505b5090505f5f90505b838110156112815786818151811061102957611028611788565b5b60200260200101515f0151825f60068461104391906118a5565b61104d91906117e2565b8151811061105e5761105d611788565b5b60200260200101818152505086818151811061107d5761107c611788565b5b60200260200101516020015182600160068461109991906118a5565b6110a391906117e2565b815181106110b4576110b3611788565b5b6020026020010181815250508581815181106110d3576110d2611788565b5b60200260200101515f01516001600281106110f1576110f0611788565b5b602002015182600260068461110691906118a5565b61111091906117e2565b8151811061112157611120611788565b5b6020026020010181815250508581815181106111405761113f611788565b5b60200260200101515f01515f6002811061115d5761115c611788565b5b602002015182600360068461117291906118a5565b61117c91906117e2565b8151811061118d5761118c611788565b5b6020026020010181815250508581815181106111ac576111ab611788565b5b6020026020010151602001516001600281106111cb576111ca611788565b5b60200201518260046006846111e091906118a5565b6111ea91906117e2565b815181106111fb576111fa611788565b5b60200260200101818152505085818151811061121a57611219611788565b5b6020026020010151602001515f6002811061123857611237611788565b5b602002015182600560068461124d91906118a5565b61125791906117e2565b8151811061126857611267611788565b5b602002602001018181525050808060010191505061100e565b5061128a6113a5565b5f602082602086026020860160086107d05a03fa9050805f81036112aa57fe5b50806112b4575f5ffd5b5f825f600181106112c8576112c7611788565b5b602002015114159550505050505092915050565b6040518060a001604052806112ef611323565b81526020016112fc61137f565b815260200161130961137f565b815260200161131661137f565b8152602001606081525090565b60405180604001604052805f81526020015f81525090565b6040518060600160405280600390602082028036833780820191505090505090565b6040518060800160405280600490602082028036833780820191505090505090565b60405180604001604052806113926113c7565b815260200161139f6113c7565b81525090565b6040518060200160405280600190602082028036833780820191505090505090565b6040518060400160405280600290602082028036833780820191505090505090565b5f604051905090565b5f5ffd5b5f5ffd5b5f601f19601f8301169050919050565b7f4e487b71000000000000000000000000000000000000000000000000000000005f52604160045260245ffd5b611440826113fa565b810181811067ffffffffffffffff8211171561145f5761145e61140a565b5b80604052505050565b5f6114716113e9565b905061147d8282611437565b919050565b5f819050919050565b61149481611482565b811461149e575f5ffd5b50565b5f813590506114af8161148b565b92915050565b5f604082840312156114ca576114c96113f6565b5b6114d46040611468565b90505f6114e3848285016114a1565b5f8301525060206114f6848285016114a1565b60208301525092915050565b5f5ffd5b5f67ffffffffffffffff8211156115205761151f61140a565b5b602082029050919050565b5f5ffd5b5f61154161153c84611506565b611468565b9050806020840283018581111561155b5761155a61152b565b5b835b81811015611584578061157088826114a1565b84526020840193505060208101905061155d565b5050509392505050565b5f82601f8301126115a2576115a1611502565b5b60026115af84828561152f565b91505092915050565b5f608082840312156115cd576115cc6113f6565b5b6115d76040611468565b90505f6115e68482850161158e565b5f8301525060406115f98482850161158e565b60208301525092915050565b5f610100828403121561161b5761161a6113f6565b5b6116256060611468565b90505f611634848285016114b5565b5f830152506040611647848285016115b8565b60208301525060c061165b848285016114b5565b60408301525092915050565b5f67ffffffffffffffff8211156116815761168061140a565b5b602082029050919050565b5f61169e61169984611667565b611468565b905080602084028301858111156116b8576116b761152b565b5b835b818110156116e157806116cd88826114a1565b8452602084019350506020810190506116ba565b5050509392505050565b5f82601f8301126116ff576116fe611502565b5b600c61170c84828561168c565b91505092915050565b5f5f610280838503121561172c5761172b6113f2565b5b5f61173985828601611605565b92505061010061174b858286016116eb565b9150509250929050565b5f8115159050919050565b61176981611755565b82525050565b5f6020820190506117825f830184611760565b92915050565b7f4e487b71000000000000000000000000000000000000000000000000000000005f52603260045260245ffd5b7f4e487b71000000000000000000000000000000000000000000000000000000005f52601160045260245ffd5b5f6117ec82611482565b91506117f783611482565b925082820190508082111561180f5761180e6117b5565b5b92915050565b7f4e487b71000000000000000000000000000000000000000000000000000000005f52601260045260245ffd5b5f61184c82611482565b915061185783611482565b92508261186757611866611815565b5b828206905092915050565b5f61187c82611482565b915061188783611482565b925082820390508181111561189f5761189e6117b5565b5b92915050565b5f6118af82611482565b91506118ba83611482565b92508282026118c881611482565b915082820484148315176118df576118de6117b5565b5b509291505056fea2646970667358221220539f7562857a2854c53a6ba1c63f8edd251d5720528cb0c0eb186ea69a9d56b064736f6c634300081e0033",
			"opcodes": "PUSH1 0x80 PUSH1 0x40 MSTORE CALLVALUE DUP1 ISZERO PUSH1 0xE JUMPI PUSH0 PUSH0 REVERT JUMPDEST POP PUSH2 0x191C DUP1 PUSH2 0x1C PUSH0 CODECOPY PUSH0 RETURN INVALID PUSH1 0x80 PUSH1 0x40 MSTORE CALLVALUE DUP1 ISZERO PUSH2 0xF JUMPI PUSH0 PUSH0 REVERT JUMPDEST POP PUSH1 0x4 CALLDATASIZE LT PUSH2 0x29 JUMPI PUSH0 CALLDATALOAD PUSH1 0xE0 SHR DUP1 PUSH4 0x66670599 EQ PUSH2 0x2D JUMPI JUMPDEST PUSH0 PUSH0 REVERT JUMPDEST PUSH2 0x47 PUSH1 0x4 DUP1 CALLDATASIZE SUB DUP2 ADD SWAP1 PUSH2 0x42 SWAP2 SWAP1 PUSH2 0x1715 JUMP JUMPDEST PUSH2 0x5D JUMP JUMPDEST PUSH1 0x40 MLOAD PUSH2 0x54 SWAP2 SWAP1 PUSH2 0x176F JUMP JUMPDEST PUSH1 0x40 MLOAD DUP1 SWAP2 SUB SWAP1 RETURN JUMPDEST PUSH0 PUSH0 PUSH1 0xC PUSH8 0xFFFFFFFFFFFFFFFF DUP2 GT ISZERO PUSH2 0x7A JUMPI PUSH2 0x79 PUSH2 0x140A JUMP JUMPDEST JUMPDEST PUSH1 0x40 MLOAD SWAP1 DUP1 DUP3 MSTORE DUP1 PUSH1 0x20 MUL PUSH1 0x20 ADD DUP3 ADD PUSH1 0x40 MSTORE DUP1 ISZERO PUSH2 0xA8 JUMPI DUP2 PUSH1 0x20 ADD PUSH1 0x20 DUP3 MUL DUP1 CALLDATASIZE DUP4 CALLDATACOPY DUP1 DUP3 ADD SWAP2 POP POP SWAP1 POP JUMPDEST POP SWAP1 POP PUSH0 PUSH0 SWAP1 POP JUMPDEST PUSH1 0xC DUP2 LT ISZERO PUSH2 0xFD JUMPI DUP4 DUP2 PUSH1 0xC DUP2 LT PUSH2 0xCC JUMPI PUSH2 0xCB PUSH2 0x1788 JUMP JUMPDEST JUMPDEST PUSH1 0x20 MUL ADD MLOAD DUP3 DUP3 DUP2 MLOAD DUP2 LT PUSH2 0xE4 JUMPI PUSH2 0xE3 PUSH2 0x1788 JUMP JUMPDEST JUMPDEST PUSH1 0x20 MUL PUSH1 0x20 ADD ADD DUP2 DUP2 MSTORE POP POP DUP1 DUP1 PUSH1 0x1 ADD SWAP2 POP POP PUSH2 0xB0 JUMP JUMPDEST POP PUSH0 PUSH2 0x109 DUP3 DUP7 PUSH2 0x123 JUMP JUMPDEST SUB PUSH2 0x118 JUMPI PUSH1 0x1 SWAP2 POP POP PUSH2 0x11D JUMP JUMPDEST PUSH0 SWAP2 POP POP JUMPDEST SWAP3 SWAP2 POP POP JUMP JUMPDEST PUSH0 PUSH0 PUSH32 0x30644E72E131A029B85045B68181585D2833E84879B9709143E1F593F0000001 SWAP1 POP PUSH0 PUSH2 0x151 PUSH2 0x2AB JUMP JUMPDEST SWAP1 POP DUP1 PUSH1 0x80 ADD MLOAD MLOAD PUSH1 0x1 DUP7 MLOAD PUSH2 0x167 SWAP2 SWAP1 PUSH2 0x17E2 JUMP JUMPDEST EQ PUSH2 0x170 JUMPI PUSH0 PUSH0 REVERT JUMPDEST PUSH0 PUSH1 0x40 MLOAD DUP1 PUSH1 0x40 ADD PUSH1 0x40 MSTORE DUP1 PUSH0 DUP2 MSTORE PUSH1 0x20 ADD PUSH0 DUP2 MSTORE POP SWAP1 POP PUSH0 PUSH0 SWAP1 POP JUMPDEST DUP7 MLOAD DUP2 LT ISZERO PUSH2 0x221 JUMPI DUP4 DUP8 DUP3 DUP2 MLOAD DUP2 LT PUSH2 0x1AA JUMPI PUSH2 0x1A9 PUSH2 0x1788 JUMP JUMPDEST JUMPDEST PUSH1 0x20 MUL PUSH1 0x20 ADD ADD MLOAD LT PUSH2 0x1BB JUMPI PUSH0 PUSH0 REVERT JUMPDEST PUSH2 0x212 DUP3 PUSH2 0x20D DUP6 PUSH1 0x80 ADD MLOAD PUSH1 0x1 DUP6 PUSH2 0x1D4 SWAP2 SWAP1 PUSH2 0x17E2 JUMP JUMPDEST DUP2 MLOAD DUP2 LT PUSH2 0x1E5 JUMPI PUSH2 0x1E4 PUSH2 0x1788 JUMP JUMPDEST JUMPDEST PUSH1 0x20 MUL PUSH1 0x20 ADD ADD MLOAD DUP11 DUP6 DUP2 MLOAD DUP2 LT PUSH2 0x200 JUMPI PUSH2 0x1FF PUSH2 0x1788 JUMP JUMPDEST JUMPDEST PUSH1 0x20 MUL PUSH1 0x20 ADD ADD MLOAD PUSH2 0xBD4 JUMP JUMPDEST PUSH2 0xC71 JUMP JUMPDEST SWAP2 POP DUP1 DUP1 PUSH1 0x1 ADD SWAP2 POP POP PUSH2 0x18D JUMP JUMPDEST POP PUSH2 0x24A DUP2 DUP4 PUSH1 0x80 ADD MLOAD PUSH0 DUP2 MLOAD DUP2 LT PUSH2 0x23D JUMPI PUSH2 0x23C PUSH2 0x1788 JUMP JUMPDEST JUMPDEST PUSH1 0x20 MUL PUSH1 0x20 ADD ADD MLOAD PUSH2 0xC71 JUMP JUMPDEST SWAP1 POP PUSH2 0x28E DUP6 PUSH0 ADD MLOAD DUP7 PUSH1 0x20 ADD MLOAD PUSH2 0x261 DUP5 PUSH2 0xD33 JUMP JUMPDEST DUP6 PUSH1 0x40 ADD MLOAD PUSH2 0x273 DUP11 PUSH1 0x40 ADD MLOAD PUSH2 0xD33 JUMP JUMPDEST DUP8 PUSH1 0x60 ADD MLOAD PUSH2 0x284 DUP10 PUSH0 ADD MLOAD PUSH2 0xD33 JUMP JUMPDEST DUP10 PUSH1 0x20 ADD MLOAD PUSH2 0xDD1 JUMP JUMPDEST PUSH2 0x29E JUMPI PUSH1 0x1 SWAP4 POP POP POP POP PUSH2 0x2A5 JUMP JUMPDEST PUSH0 SWAP4 POP POP POP POP JUMPDEST SWAP3 SWAP2 POP POP JUMP JUMPDEST PUSH2 0x2B3 PUSH2 0x12DC JUMP JUMPDEST PUSH1 0x40 MLOAD DUP1 PUSH1 0x40 ADD PUSH1 0x40 MSTORE DUP1 PUSH32 0xDAA57DC4A4692C2AC1F2B06C0F5BE3297FB59681CB6EE071334AB6435F6F39F DUP2 MSTORE PUSH1 0x20 ADD PUSH32 0x72515937D4F66F7FD7BD111C87C377F41A6724C4445437F3238C46FD413AFC6 DUP2 MSTORE POP DUP2 PUSH0 ADD DUP2 SWAP1 MSTORE POP PUSH1 0x40 MLOAD DUP1 PUSH1 0x40 ADD PUSH1 0x40 MSTORE DUP1 PUSH1 0x40 MLOAD DUP1 PUSH1 0x40 ADD PUSH1 0x40 MSTORE DUP1 PUSH32 0x2DE1F7C564D6A0CA0431221E98101D1D71B0E68F915032B7381E9E6301AD3DE6 DUP2 MSTORE PUSH1 0x20 ADD PUSH32 0x118C304086F3359014D0AF4F4C87571DECFF530AAA45DA37C133ACA4EC537D71 DUP2 MSTORE POP DUP2 MSTORE PUSH1 0x20 ADD PUSH1 0x40 MLOAD DUP1 PUSH1 0x40 ADD PUSH1 0x40 MSTORE DUP1 PUSH32 0x117846116DB6BDBC400B5B1ED1A5C227AA3B556573B80C1403BC34D7A3F0E751 DUP2 MSTORE PUSH1 0x20 ADD PUSH32 0x167A659204992D15584E0C75E4A7E47A30C03023FE19DAC1AAB163E817F8DC75 DUP2 MSTORE POP DUP2 MSTORE POP DUP2 PUSH1 0x20 ADD DUP2 SWAP1 MSTORE POP PUSH1 0x40 MLOAD DUP1 PUSH1 0x40 ADD PUSH1 0x40 MSTORE DUP1 PUSH1 0x40 MLOAD DUP1 PUSH1 0x40 ADD PUSH1 0x40 MSTORE DUP1 PUSH32 0x2968ED1423C743F4F1410C66985A635FF325E21A895C94589331B70554CD4FA8 DUP2 MSTORE PUSH1 0x20 ADD PUSH32 0x16B68374B6D4825747C83CEE8C589E8DEB7BE7F63C83C80C85985387AA3C9CD DUP2 MSTORE POP DUP2 MSTORE PUSH1 0x20 ADD PUSH1 0x40 MLOAD DUP1 PUSH1 0x40 ADD PUSH1 0x40 MSTORE DUP1 PUSH32 0xCB42D30F5CEEDAA6936C083E68E6ADC0B386D36A86059A305624B998CDB0A28 DUP2 MSTORE PUSH1 0x20 ADD PUSH32 0x774BEE6B76B7FC994E2349DCDD8F1FCA28A67E9B07509DC4F249BDA432087E4 DUP2 MSTORE POP DUP2 MSTORE POP DUP2 PUSH1 0x40 ADD DUP2 SWAP1 MSTORE POP PUSH1 0x40 MLOAD DUP1 PUSH1 0x40 ADD PUSH1 0x40 MSTORE DUP1 PUSH1 0x40 MLOAD DUP1 PUSH1 0x40 ADD PUSH1 0x40 MSTORE DUP1 PUSH32 0xE9A7E0C5E9237E049821A9B96107098C0F878977A78CA983233AC9174CE87EB DUP2 MSTORE PUSH1 0x20 ADD PUSH32 0x2BB21A00EC8B20398799687107808F1D8C7BFE515CFC6DB2A0A5E468896B08D1 DUP2 MSTORE POP DUP2 MSTORE PUSH1 0x20 ADD PUSH1 0x40 MLOAD DUP1 PUSH1 0x40 ADD PUSH1 0x40 MSTORE DUP1 PUSH32 0x22647B8CF8E82011242B5D9638F6EFC0B72E0BFDC1A1B2CFAA4E578712C34787 DUP2 MSTORE PUSH1 0x20 ADD PUSH32 0x2566CB9C3DDFA185320DED12E3F3F1E27A161D1FBE4A7F3CAD3E35CF71B33FB DUP2 MSTORE POP DUP2 MSTORE POP DUP2 PUSH1 0x60 ADD DUP2 SWAP1 MSTORE POP PUSH1 0xD PUSH8 0xFFFFFFFFFFFFFFFF DUP2 GT ISZERO PUSH2 0x579 JUMPI PUSH2 0x578 PUSH2 0x140A JUMP JUMPDEST JUMPDEST PUSH1 0x40 MLOAD SWAP1 DUP1 DUP3 MSTORE DUP1 PUSH1 0x20 MUL PUSH1 0x20 ADD DUP3 ADD PUSH1 0x40 MSTORE DUP1 ISZERO PUSH2 0x5B2 JUMPI DUP2 PUSH1 0x20 ADD JUMPDEST PUSH2 0x59F PUSH2 0x1323 JUMP JUMPDEST DUP2 MSTORE PUSH1 0x20 ADD SWAP1 PUSH1 0x1 SWAP1 SUB SWAP1 DUP2 PUSH2 0x597 JUMPI SWAP1 POP JUMPDEST POP DUP2 PUSH1 0x80 ADD DUP2 SWAP1 MSTORE POP PUSH1 0x40 MLOAD DUP1 PUSH1 0x40 ADD PUSH1 0x40 MSTORE DUP1 PUSH32 0x2AF849B578726A614B9CF837813B1920D037D44D4FB4BC16F12191FAD80F49A7 DUP2 MSTORE PUSH1 0x20 ADD PUSH32 0x2996ABB657ECB50682BDDDFFAEBAA1D8AC4F24F9E9A0316061F3B752EEB45EB2 DUP2 MSTORE POP DUP2 PUSH1 0x80 ADD MLOAD PUSH0 DUP2 MLOAD DUP2 LT PUSH2 0x627 JUMPI PUSH2 0x626 PUSH2 0x1788 JUMP JUMPDEST JUMPDEST PUSH1 0x20 MUL PUSH1 0x20 ADD ADD DUP2 SWAP1 MSTORE POP PUSH1 0x40 MLOAD DUP1 PUSH1 0x40 ADD PUSH1 0x40 MSTORE DUP1 PUSH32 0xF712EFB483B65815BE9B69FCBA66737D47B7CBE013E8DE2D2165C24B049D9CC DUP2 MSTORE PUSH1 0x20 ADD PUSH32 0xCA7B9ADFE5AB02CE2A736B251A7445727BBB4976609C2F64AFB79E10C887AA8 DUP2 MSTORE POP DUP2 PUSH1 0x80 ADD MLOAD PUSH1 0x1 DUP2 MLOAD DUP2 LT PUSH2 0x69F JUMPI PUSH2 0x69E PUSH2 0x1788 JUMP JUMPDEST JUMPDEST PUSH1 0x20 MUL PUSH1 0x20 ADD ADD DUP2 SWAP1 MSTORE POP PUSH1 0x40 MLOAD DUP1 PUSH1 0x40 ADD PUSH1 0x40 MSTORE DUP1 PUSH32 0x257841B48225A6A393BEF459CFBADD860B062E3A4CFCDCD84E1F17A8566B5A2F DUP2 MSTORE PUSH1 0x20 ADD PUSH32 0x1A2651A33495D6FC0CAD673183FDF57E17633CAD5BB5F498BCEC10CFAB67CFDE DUP2 MSTORE POP DUP2 PUSH1 0x80 ADD MLOAD PUSH1 0x2 DUP2 MLOAD DUP2 LT PUSH2 0x717 JUMPI PUSH2 0x716 PUSH2 0x1788 JUMP JUMPDEST JUMPDEST PUSH1 0x20 MUL PUSH1 0x20 ADD ADD DUP2 SWAP1 MSTORE POP PUSH1 0x40 MLOAD DUP1 PUSH1 0x40 ADD PUSH1 0x40 MSTORE DUP1 PUSH32 0x94E3CD70D9E5D64A4D8EDABCE7DA6C82886B83E2F354B11C52FAB27889B34A3 DUP2 MSTORE PUSH1 0x20 ADD PUSH32 0x2DACDD83D24D55F4A68F7D2B3B93F9CD3211C1D20AB137DAA2F400C52339A8FE DUP2 MSTORE POP DUP2 PUSH1 0x80 ADD MLOAD PUSH1 0x3 DUP2 MLOAD DUP2 LT PUSH2 0x78F JUMPI PUSH2 0x78E PUSH2 0x1788 JUMP JUMPDEST JUMPDEST PUSH1 0x20 MUL PUSH1 0x20 ADD ADD DUP2 SWAP1 MSTORE POP PUSH1 0x40 MLOAD DUP1 PUSH1 0x40 ADD PUSH1 0x40 MSTORE DUP1 PUSH32 0xD4A741A96DA6C76BFAEC796252395489E90CFE4433878DCA9302FBB46DF0226 DUP2 MSTORE PUSH1 0x20 ADD PUSH32 0x61594C538BC606F36887A7E1C66AC8A961AFADDCC804AD7FFC4B90F0A4C3E06 DUP2 MSTORE POP DUP2 PUSH1 0x80 ADD MLOAD PUSH1 0x4 DUP2 MLOAD DUP2 LT PUSH2 0x807 JUMPI PUSH2 0x806 PUSH2 0x1788 JUMP JUMPDEST JUMPDEST PUSH1 0x20 MUL PUSH1 0x20 ADD ADD DUP2 SWAP1 MSTORE POP PUSH1 0x40 MLOAD DUP1 PUSH1 0x40 ADD PUSH1 0x40 MSTORE DUP1 PUSH32 0x193A0D2B254FFEA955D5785440B9207C678AACB1A3F53D9E3E9CA3B686462922 DUP2 MSTORE PUSH1 0x20 ADD PUSH32 0x24D34BA9AEB28B477546BFCD799B397B126C2E900CF52FD8D75B613B0F3D0FBD DUP2 MSTORE POP DUP2 PUSH1 0x80 ADD MLOAD PUSH1 0x5 DUP2 MLOAD DUP2 LT PUSH2 0x87F JUMPI PUSH2 0x87E PUSH2 0x1788 JUMP JUMPDEST JUMPDEST PUSH1 0x20 MUL PUSH1 0x20 ADD ADD DUP2 SWAP1 MSTORE POP PUSH1 0x40 MLOAD DUP1 PUSH1 0x40 ADD PUSH1 0x40 MSTORE DUP1 PUSH32 0x1444833FD0171D0153FE099B605A3ACC2D59E21AB4CF6363F48E3F356A69FEBD DUP2 MSTORE PUSH1 0x20 ADD PUSH31 0x7B3259FCA2E2081506324D1E635984FFA6E96617C3AF356B144A9F4F0D2B4F DUP2 MSTORE POP DUP2 PUSH1 0x80 ADD MLOAD PUSH1 0x6 DUP2 MLOAD DUP2 LT PUSH2 0x8F6 JUMPI PUSH2 0x8F5 PUSH2 0x1788 JUMP JUMPDEST JUMPDEST PUSH1 0x20 MUL PUSH1 0x20 ADD ADD DUP2 SWAP1 MSTORE POP PUSH1 0x40 MLOAD DUP1 PUSH1 0x40 ADD PUSH1 0x40 MSTORE DUP1 PUSH32 0x754B8B3C860C7A0BADE23151B313FB3603FB8ED9AB46870BBA02CE6A8947FC6 DUP2 MSTORE PUSH1 0x20 ADD PUSH32 0x27AA34FCF45B39AF9A1CC47F5F445D38BFFB9DAAAEF0ABFF7CA0CF5690D3A5BB DUP2 MSTORE POP DUP2 PUSH1 0x80 ADD MLOAD PUSH1 0x7 DUP2 MLOAD DUP2 LT PUSH2 0x96E JUMPI PUSH2 0x96D PUSH2 0x1788 JUMP JUMPDEST JUMPDEST PUSH1 0x20 MUL PUSH1 0x20 ADD ADD DUP2 SWAP1 MSTORE POP PUSH1 0x40 MLOAD DUP1 PUSH1 0x40 ADD PUSH1 0x40 MSTORE DUP1 PUSH32 0xC3A9B3069B87A21366C0747C8DC11116A494115BEF45835AD706C3E9263A626 DUP2 MSTORE PUSH1 0x20 ADD PUSH32 0x679D15A217ECD95DB26F4C3B63441F3AEE0DBD429E658B1D6B8BA11204AD900 DUP2 MSTORE POP DUP2 PUSH1 0x80 ADD MLOAD PUSH1 0x8 DUP2 MLOAD DUP2 LT PUSH2 0x9E6 JUMPI PUSH2 0x9E5 PUSH2 0x1788 JUMP JUMPDEST JUMPDEST PUSH1 0x20 MUL PUSH1 0x20 ADD ADD DUP2 SWAP1 MSTORE POP PUSH1 0x40 MLOAD DUP1 PUSH1 0x40 ADD PUSH1 0x40 MSTORE DUP1 PUSH32 0x1BBC2288469BCEE3F68E84DEE9B37B42D6170E0FE13BAE9E9AD7533EF51D0E6B DUP2 MSTORE PUSH1 0x20 ADD PUSH32 0xB699E3E8F4C9081E4CA6EC357938656E4672743692D8CA6C46C2276EC3BEACD DUP2 MSTORE POP DUP2 PUSH1 0x80 ADD MLOAD PUSH1 0x9 DUP2 MLOAD DUP2 LT PUSH2 0xA5E JUMPI PUSH2 0xA5D PUSH2 0x1788 JUMP JUMPDEST JUMPDEST PUSH1 0x20 MUL PUSH1 0x20 ADD ADD DUP2 SWAP1 MSTORE POP PUSH1 0x40 MLOAD DUP1 PUSH1 0x40 ADD PUSH1 0x40 MSTORE DUP1 PUSH32 0x104F36C1BD12A5EF51DDEF228954B3E83AAD23CCB1F62AE85A5BCDA689574F73 DUP2 MSTORE PUSH1 0x20 ADD PUSH32 0x1DA183CA55536270A093A0CAE171E4460B529D9A4D934AA2B5C560D1012A2403 DUP2 MSTORE POP DUP2 PUSH1 0x80 ADD MLOAD PUSH1 0xA DUP2 MLOAD DUP2 LT PUSH2 0xAD6 JUMPI PUSH2 0xAD5 PUSH2 0x1788 JUMP JUMPDEST JUMPDEST PUSH1 0x20 MUL PUSH1 0x20 ADD ADD DUP2 SWAP1 MSTORE POP PUSH1 0x40 MLOAD DUP1 PUSH1 0x40 ADD PUSH1 0x40 MSTORE DUP1 PUSH32 0x2FF01214AB73082C36227A00198362112A9B699F3BDB527F2B63AC16894FA44D DUP2 MSTORE PUSH1 0x20 ADD PUSH32 0x2E2AE1C36DF72CE92B54F3C43B8271C3C8BF9C6E77F6C52B96C56CF4D0B8BB86 DUP2 MSTORE POP DUP2 PUSH1 0x80 ADD MLOAD PUSH1 0xB DUP2 MLOAD DUP2 LT PUSH2 0xB4E JUMPI PUSH2 0xB4D PUSH2 0x1788 JUMP JUMPDEST JUMPDEST PUSH1 0x20 MUL PUSH1 0x20 ADD ADD DUP2 SWAP1 MSTORE POP PUSH1 0x40 MLOAD DUP1 PUSH1 0x40 ADD PUSH1 0x40 MSTORE DUP1 PUSH32 0x2A7DAC41610238196B131C0AB8B9BAE8E29516450C1D059A3E55047BC709A7DD DUP2 MSTORE PUSH1 0x20 ADD PUSH32 0x30601D27494F77EB029CC892A1B9BC46ADC00DE4D115C379D5FB5224DCC05B47 DUP2 MSTORE POP DUP2 PUSH1 0x80 ADD MLOAD PUSH1 0xC DUP2 MLOAD DUP2 LT PUSH2 0xBC6 JUMPI PUSH2 0xBC5 PUSH2 0x1788 JUMP JUMPDEST JUMPDEST PUSH1 0x20 MUL PUSH1 0x20 ADD ADD DUP2 SWAP1 MSTORE POP SWAP1 JUMP JUMPDEST PUSH2 0xBDC PUSH2 0x1323 JUMP JUMPDEST PUSH2 0xBE4 PUSH2 0x133B JUMP JUMPDEST DUP4 PUSH0 ADD MLOAD DUP2 PUSH0 PUSH1 0x3 DUP2 LT PUSH2 0xBFB JUMPI PUSH2 0xBFA PUSH2 0x1788 JUMP JUMPDEST JUMPDEST PUSH1 0x20 MUL ADD DUP2 DUP2 MSTORE POP POP DUP4 PUSH1 0x20 ADD MLOAD DUP2 PUSH1 0x1 PUSH1 0x3 DUP2 LT PUSH2 0xC1D JUMPI PUSH2 0xC1C PUSH2 0x1788 JUMP JUMPDEST JUMPDEST PUSH1 0x20 MUL ADD DUP2 DUP2 MSTORE POP POP DUP3 DUP2 PUSH1 0x2 PUSH1 0x3 DUP2 LT PUSH2 0xC3B JUMPI PUSH2 0xC3A PUSH2 0x1788 JUMP JUMPDEST JUMPDEST PUSH1 0x20 MUL ADD DUP2 DUP2 MSTORE POP POP PUSH0 PUSH1 0x60 DUP4 PUSH1 0x80 DUP5 PUSH1 0x7 PUSH2 0x7D0 GAS SUB STATICCALL SWAP1 POP DUP1 PUSH0 DUP2 SUB PUSH2 0xC5F JUMPI INVALID JUMPDEST POP DUP1 PUSH2 0xC69 JUMPI PUSH0 PUSH0 REVERT JUMPDEST POP POP SWAP3 SWAP2 POP POP JUMP JUMPDEST PUSH2 0xC79 PUSH2 0x1323 JUMP JUMPDEST PUSH2 0xC81 PUSH2 0x135D JUMP JUMPDEST DUP4 PUSH0 ADD MLOAD DUP2 PUSH0 PUSH1 0x4 DUP2 LT PUSH2 0xC98 JUMPI PUSH2 0xC97 PUSH2 0x1788 JUMP JUMPDEST JUMPDEST PUSH1 0x20 MUL ADD DUP2 DUP2 MSTORE POP POP DUP4 PUSH1 0x20 ADD MLOAD DUP2 PUSH1 0x1 PUSH1 0x4 DUP2 LT PUSH2 0xCBA JUMPI PUSH2 0xCB9 PUSH2 0x1788 JUMP JUMPDEST JUMPDEST PUSH1 0x20 MUL ADD DUP2 DUP2 MSTORE POP POP DUP3 PUSH0 ADD MLOAD DUP2 PUSH1 0x2 PUSH1 0x4 DUP2 LT PUSH2 0xCDB JUMPI PUSH2 0xCDA PUSH2 0x1788 JUMP JUMPDEST JUMPDEST PUSH1 0x20 MUL ADD DUP2 DUP2 MSTORE POP POP DUP3 PUSH1 0x20 ADD MLOAD DUP2 PUSH1 0x3 PUSH1 0x4 DUP2 LT PUSH2 0xCFD JUMPI PUSH2 0xCFC PUSH2 0x1788 JUMP JUMPDEST JUMPDEST PUSH1 0x20 MUL ADD DUP2 DUP2 MSTORE POP POP PUSH0 PUSH1 0x60 DUP4 PUSH1 0xC0 DUP5 PUSH1 0x6 PUSH2 0x7D0 GAS SUB STATICCALL SWAP1 POP DUP1 PUSH0 DUP2 SUB PUSH2 0xD21 JUMPI INVALID JUMPDEST POP DUP1 PUSH2 0xD2B JUMPI PUSH0 PUSH0 REVERT JUMPDEST POP POP SWAP3 SWAP2 POP POP JUMP JUMPDEST PUSH2 0xD3B PUSH2 0x1323 JUMP JUMPDEST PUSH0 PUSH32 0x30644E72E131A029B85045B68181585D97816A916871CA8D3C208C16D87CFD47 SWAP1 POP PUSH0 DUP4 PUSH0 ADD MLOAD EQ DUP1 ISZERO PUSH2 0xD74 JUMPI POP PUSH0 DUP4 PUSH1 0x20 ADD MLOAD EQ JUMPDEST ISZERO PUSH2 0xD96 JUMPI PUSH1 0x40 MLOAD DUP1 PUSH1 0x40 ADD PUSH1 0x40 MSTORE DUP1 PUSH0 DUP2 MSTORE PUSH1 0x20 ADD PUSH0 DUP2 MSTORE POP SWAP2 POP POP PUSH2 0xDCC JUMP JUMPDEST PUSH1 0x40 MLOAD DUP1 PUSH1 0x40 ADD PUSH1 0x40 MSTORE DUP1 DUP5 PUSH0 ADD MLOAD DUP2 MSTORE PUSH1 0x20 ADD DUP3 DUP6 PUSH1 0x20 ADD MLOAD PUSH2 0xDBA SWAP2 SWAP1 PUSH2 0x1842 JUMP JUMPDEST DUP4 PUSH2 0xDC5 SWAP2 SWAP1 PUSH2 0x1872 JUMP JUMPDEST DUP2 MSTORE POP SWAP2 POP POP JUMPDEST SWAP2 SWAP1 POP JUMP JUMPDEST PUSH0 PUSH0 PUSH1 0x4 PUSH8 0xFFFFFFFFFFFFFFFF DUP2 GT ISZERO PUSH2 0xDEE JUMPI PUSH2 0xDED PUSH2 0x140A JUMP JUMPDEST JUMPDEST PUSH1 0x40 MLOAD SWAP1 DUP1 DUP3 MSTORE DUP1 PUSH1 0x20 MUL PUSH1 0x20 ADD DUP3 ADD PUSH1 0x40 MSTORE DUP1 ISZERO PUSH2 0xE27 JUMPI DUP2 PUSH1 0x20 ADD JUMPDEST PUSH2 0xE14 PUSH2 0x1323 JUMP JUMPDEST DUP2 MSTORE PUSH1 0x20 ADD SWAP1 PUSH1 0x1 SWAP1 SUB SWAP1 DUP2 PUSH2 0xE0C JUMPI SWAP1 POP JUMPDEST POP SWAP1 POP PUSH0 PUSH1 0x4 PUSH8 0xFFFFFFFFFFFFFFFF DUP2 GT ISZERO PUSH2 0xE46 JUMPI PUSH2 0xE45 PUSH2 0x140A JUMP JUMPDEST JUMPDEST PUSH1 0x40 MLOAD SWAP1 DUP1 DUP3 MSTORE DUP1 PUSH1 0x20 MUL PUSH1 0x20 ADD DUP3 ADD PUSH1 0x40 MSTORE DUP1 ISZERO PUSH2 0xE7F JUMPI DUP2 PUSH1 0x20 ADD JUMPDEST PUSH2 0xE6C PUSH2 0x137F JUMP JUMPDEST DUP2 MSTORE PUSH1 0x20 ADD SWAP1 PUSH1 0x1 SWAP1 SUB SWAP1 DUP2 PUSH2 0xE64 JUMPI SWAP1 POP JUMPDEST POP SWAP1 POP DUP11 DUP3 PUSH0 DUP2 MLOAD DUP2 LT PUSH2 0xE96 JUMPI PUSH2 0xE95 PUSH2 0x1788 JUMP JUMPDEST JUMPDEST PUSH1 0x20 MUL PUSH1 0x20 ADD ADD DUP2 SWAP1 MSTORE POP DUP9 DUP3 PUSH1 0x1 DUP2 MLOAD DUP2 LT PUSH2 0xEB6 JUMPI PUSH2 0xEB5 PUSH2 0x1788 JUMP JUMPDEST JUMPDEST PUSH1 0x20 MUL PUSH1 0x20 ADD ADD DUP2 SWAP1 MSTORE POP DUP7 DUP3 PUSH1 0x2 DUP2 MLOAD DUP2 LT PUSH2 0xED6 JUMPI PUSH2 0xED5 PUSH2 0x1788 JUMP JUMPDEST JUMPDEST PUSH1 0x20 MUL PUSH1 0x20 ADD ADD DUP2 SWAP1 MSTORE POP DUP5 DUP3 PUSH1 0x3 DUP2 MLOAD DUP2 LT PUSH2 0xEF6 JUMPI PUSH2 0xEF5 PUSH2 0x1788 JUMP JUMPDEST JUMPDEST PUSH1 0x20 MUL PUSH1 0x20 ADD ADD DUP2 SWAP1 MSTORE POP DUP10 DUP2 PUSH0 DUP2 MLOAD DUP2 LT PUSH2 0xF15 JUMPI PUSH2 0xF14 PUSH2 0x1788 JUMP JUMPDEST JUMPDEST PUSH1 0x20 MUL PUSH1 0x20 ADD ADD DUP2 SWAP1 MSTORE POP DUP8 DUP2 PUSH1 0x1 DUP2 MLOAD DUP2 LT PUSH2 0xF35 JUMPI PUSH2 0xF34 PUSH2 0x1788 JUMP JUMPDEST JUMPDEST PUSH1 0x20 MUL PUSH1 0x20 ADD ADD DUP2 SWAP1 MSTORE POP DUP6 DUP2 PUSH1 0x2 DUP2 MLOAD DUP2 LT PUSH2 0xF55 JUMPI PUSH2 0xF54 PUSH2 0x1788 JUMP JUMPDEST JUMPDEST PUSH1 0x20 MUL PUSH1 0x20 ADD ADD DUP2 SWAP1 MSTORE POP DUP4 DUP2 PUSH1 0x3 DUP2 MLOAD DUP2 LT PUSH2 0xF75 JUMPI PUSH2 0xF74 PUSH2 0x1788 JUMP JUMPDEST JUMPDEST PUSH1 0x20 MUL PUSH1 0x20 ADD ADD DUP2 SWAP1 MSTORE POP PUSH2 0xF8A DUP3 DUP3 PUSH2 0xF9A JUMP JUMPDEST SWAP3 POP POP POP SWAP9 SWAP8 POP POP POP POP POP POP POP POP JUMP JUMPDEST PUSH0 DUP2 MLOAD DUP4 MLOAD EQ PUSH2 0xFA8 JUMPI PUSH0 PUSH0 REVERT JUMPDEST PUSH0 DUP4 MLOAD SWAP1 POP PUSH0 PUSH1 0x6 DUP3 PUSH2 0xFBB SWAP2 SWAP1 PUSH2 0x18A5 JUMP JUMPDEST SWAP1 POP PUSH0 DUP2 PUSH8 0xFFFFFFFFFFFFFFFF DUP2 GT ISZERO PUSH2 0xFD8 JUMPI PUSH2 0xFD7 PUSH2 0x140A JUMP JUMPDEST JUMPDEST PUSH1 0x40 MLOAD SWAP1 DUP1 DUP3 MSTORE DUP1 PUSH1 0x20 MUL PUSH1 0x20 ADD DUP3 ADD PUSH1 0x40 MSTORE DUP1 ISZERO PUSH2 0x1006 JUMPI DUP2 PUSH1 0x20 ADD PUSH1 0x20 DUP3 MUL DUP1 CALLDATASIZE DUP4 CALLDATACOPY DUP1 DUP3 ADD SWAP2 POP POP SWAP1 POP JUMPDEST POP SWAP1 POP PUSH0 PUSH0 SWAP1 POP JUMPDEST DUP4 DUP2 LT ISZERO PUSH2 0x1281 JUMPI DUP7 DUP2 DUP2 MLOAD DUP2 LT PUSH2 0x1029 JUMPI PUSH2 0x1028 PUSH2 0x1788 JUMP JUMPDEST JUMPDEST PUSH1 0x20 MUL PUSH1 0x20 ADD ADD MLOAD PUSH0 ADD MLOAD DUP3 PUSH0 PUSH1 0x6 DUP5 PUSH2 0x1043 SWAP2 SWAP1 PUSH2 0x18A5 JUMP JUMPDEST PUSH2 0x104D SWAP2 SWAP1 PUSH2 0x17E2 JUMP JUMPDEST DUP2 MLOAD DUP2 LT PUSH2 0x105E JUMPI PUSH2 0x105D PUSH2 0x1788 JUMP JUMPDEST JUMPDEST PUSH1 0x20 MUL PUSH1 0x20 ADD ADD DUP2 DUP2 MSTORE POP POP DUP7 DUP2 DUP2 MLOAD DUP2 LT PUSH2 0x107D JUMPI PUSH2 0x107C PUSH2 0x1788 JUMP JUMPDEST JUMPDEST PUSH1 0x20 MUL PUSH1 0x20 ADD ADD MLOAD PUSH1 0x20 ADD MLOAD DUP3 PUSH1 0x1 PUSH1 0x6 DUP5 PUSH2 0x1099 SWAP2 SWAP1 PUSH2 0x18A5 JUMP JUMPDEST PUSH2 0x10A3 SWAP2 SWAP1 PUSH2 0x17E2 JUMP JUMPDEST DUP2 MLOAD DUP2 LT PUSH2 0x10B4 JUMPI PUSH2 0x10B3 PUSH2 0x1788 JUMP JUMPDEST JUMPDEST PUSH1 0x20 MUL PUSH1 0x20 ADD ADD DUP2 DUP2 MSTORE POP POP DUP6 DUP2 DUP2 MLOAD DUP2 LT PUSH2 0x10D3 JUMPI PUSH2 0x10D2 PUSH2 0x1788 JUMP JUMPDEST JUMPDEST PUSH1 0x20 MUL PUSH1 0x20 ADD ADD MLOAD PUSH0 ADD MLOAD PUSH1 0x1 PUSH1 0x2 DUP2 LT PUSH2 0x10F1 JUMPI PUSH2 0x10F0 PUSH2 0x1788 JUMP JUMPDEST JUMPDEST PUSH1 0x20 MUL ADD MLOAD DUP3 PUSH1 0x2 PUSH1 0x6 DUP5 PUSH2 0x1106 SWAP2 SWAP1 PUSH2 0x18A5 JUMP JUMPDEST PUSH2 0x1110 SWAP2 SWAP1 PUSH2 0x17E2 JUMP JUMPDEST DUP2 MLOAD DUP2 LT PUSH2 0x1121 JUMPI PUSH2 0x1120 PUSH2 0x1788 JUMP JUMPDEST JUMPDEST PUSH1 0x20 MUL PUSH1 0x20 ADD ADD DUP2 DUP2 MSTORE POP POP DUP6 DUP2 DUP2 MLOAD DUP2 LT PUSH2 0x1140 JUMPI PUSH2 0x113F PUSH2 0x1788 JUMP JUMPDEST JUMPDEST PUSH1 0x20 MUL PUSH1 0x20 ADD ADD MLOAD PUSH0 ADD MLOAD PUSH0 PUSH1 0x2 DUP2 LT PUSH2 0x115D JUMPI PUSH2 0x115C PUSH2 0x1788 JUMP JUMPDEST JUMPDEST PUSH1 0x20 MUL ADD MLOAD DUP3 PUSH1 0x3 PUSH1 0x6 DUP5 PUSH2 0x1172 SWAP2 SWAP1 PUSH2 0x18A5 JUMP JUMPDEST PUSH2 0x117C SWAP2 SWAP1 PUSH2 0x17E2 JUMP JUMPDEST DUP2 MLOAD DUP2 LT PUSH2 0x118D JUMPI PUSH2 0x118C PUSH2 0x1788 JUMP JUMPDEST JUMPDEST PUSH1 0x20 MUL PUSH1 0x20 ADD ADD DUP2 DUP2 MSTORE POP POP DUP6 DUP2 DUP2 MLOAD DUP2 LT PUSH2 0x11AC JUMPI PUSH2 0x11AB PUSH2 0x1788 JUMP JUMPDEST JUMPDEST PUSH1 0x20 MUL PUSH1 0x20 ADD ADD MLOAD PUSH1 0x20 ADD MLOAD PUSH1 0x1 PUSH1 0x2 DUP2 LT PUSH2 0x11CB JUMPI PUSH2 0x11CA PUSH2 0x1788 JUMP JUMPDEST JUMPDEST PUSH1 0x20 MUL ADD MLOAD DUP3 PUSH1 0x4 PUSH1 0x6 DUP5 PUSH2 0x11E0 SWAP2 SWAP1 PUSH2 0x18A5 JUMP JUMPDEST PUSH2 0x11EA SWAP2 SWAP1 PUSH2 0x17E2 JUMP JUMPDEST DUP2 MLOAD DUP2 LT PUSH2 0x11FB JUMPI PUSH2 0x11FA PUSH2 0x1788 JUMP JUMPDEST JUMPDEST PUSH1 0x20 MUL PUSH1 0x20 ADD ADD DUP2 DUP2 MSTORE POP POP DUP6 DUP2 DUP2 MLOAD DUP2 LT PUSH2 0x121A JUMPI PUSH2 0x1219 PUSH2 0x1788 JUMP JUMPDEST JUMPDEST PUSH1 0x20 MUL PUSH1 0x20 ADD ADD MLOAD PUSH1 0x20 ADD MLOAD PUSH0 PUSH1 0x2 DUP2 LT PUSH2 0x1238 JUMPI PUSH2 0x1237 PUSH2 0x1788 JUMP JUMPDEST JUMPDEST PUSH1 0x20 MUL ADD MLOAD DUP3 PUSH1 0x5 PUSH1 0x6 DUP5 PUSH2 0x124D SWAP2 SWAP1 PUSH2 0x18A5 JUMP JUMPDEST PUSH2 0x1257 SWAP2 SWAP1 PUSH2 0x17E2 JUMP JUMPDEST DUP2 MLOAD DUP2 LT PUSH2 0x1268 JUMPI PUSH2 0x1267 PUSH2 0x1788 JUMP JUMPDEST JUMPDEST PUSH1 0x20 MUL PUSH1 0x20 ADD ADD DUP2 DUP2 MSTORE POP POP DUP1 DUP1 PUSH1 0x1 ADD SWAP2 POP POP PUSH2 0x100E JUMP JUMPDEST POP PUSH2 0x128A PUSH2 0x13A5 JUMP JUMPDEST PUSH0 PUSH1 0x20 DUP3 PUSH1 0x20 DUP7 MUL PUSH1 0x20 DUP7 ADD PUSH1 0x8 PUSH2 0x7D0 GAS SUB STATICCALL SWAP1 POP DUP1 PUSH0 DUP2 SUB PUSH2 0x12AA JUMPI INVALID JUMPDEST POP DUP1 PUSH2 0x12B4 JUMPI PUSH0 PUSH0 REVERT JUMPDEST PUSH0 DUP3 PUSH0 PUSH1 0x1 DUP2 LT PUSH2 0x12C8 JUMPI PUSH2 0x12C7 PUSH2 0x1788 JUMP JUMPDEST JUMPDEST PUSH1 0x20 MUL ADD MLOAD EQ ISZERO SWAP6 POP POP POP POP POP POP SWAP3 SWAP2 POP POP JUMP JUMPDEST PUSH1 0x40 MLOAD DUP1 PUSH1 0xA0 ADD PUSH1 0x40 MSTORE DUP1 PUSH2 0x12EF PUSH2 0x1323 JUMP JUMPDEST DUP2 MSTORE PUSH1 0x20 ADD PUSH2 0x12FC PUSH2 0x137F JUMP JUMPDEST DUP2 MSTORE PUSH1 0x20 ADD PUSH2 0x1309 PUSH2 0x137F JUMP JUMPDEST DUP2 MSTORE PUSH1 0x20 ADD PUSH2 0x1316 PUSH2 0x137F JUMP JUMPDEST DUP2 MSTORE PUSH1 0x20 ADD PUSH1 0x60 DUP2 MSTORE POP SWAP1 JUMP JUMPDEST PUSH1 0x40 MLOAD DUP1 PUSH1 0x40 ADD PUSH1 0x40 MSTORE DUP1 PUSH0 DUP2 MSTORE PUSH1 0x20 ADD PUSH0 DUP2 MSTORE POP SWAP1 JUMP JUMPDEST PUSH1 0x40 MLOAD DUP1 PUSH1 0x60 ADD PUSH1 0x40 MSTORE DUP1 PUSH1 0x3 SWAP1 PUSH1 0x20 DUP3 MUL DUP1 CALLDATASIZE DUP4 CALLDATACOPY DUP1 DUP3 ADD SWAP2 POP POP SWAP1 POP POP SWAP1 JUMP JUMPDEST PUSH1 0x40 MLOAD DUP1 PUSH1 0x80 ADD PUSH1 0x40 MSTORE DUP1 PUSH1 0x4 SWAP1 PUSH1 0x20 DUP3 MUL DUP1 CALLDATASIZE DUP4 CALLDATACOPY DUP1 DUP3 ADD SWAP2 POP POP SWAP1 POP POP SWAP1 JUMP JUMPDEST PUSH1 0x40 MLOAD DUP1 PUSH1 0x40 ADD PUSH1 0x40 MSTORE DUP1 PUSH2 0x1392 PUSH2 0x13C7 JUMP JUMPDEST DUP2 MSTORE PUSH1 0x20 ADD PUSH2 0x139F PUSH2 0x13C7 JUMP JUMPDEST DUP2 MSTORE POP SWAP1 JUMP JUMPDEST PUSH1 0x40 MLOAD DUP1 PUSH1 0x20 ADD PUSH1 0x40 MSTORE DUP1 PUSH1 0x1 SWAP1 PUSH1 0x20 DUP3 MUL DUP1 CALLDATASIZE DUP4 CALLDATACOPY DUP1 DUP3 ADD SWAP2 POP POP SWAP1 POP POP SWAP1 JUMP JUMPDEST PUSH1 0x40 MLOAD DUP1 PUSH1 0x40 ADD PUSH1 0x40 MSTORE DUP1 PUSH1 0x2 SWAP1 PUSH1 0x20 DUP3 MUL DUP1 CALLDATASIZE DUP4 CALLDATACOPY DUP1 DUP3 ADD SWAP2 POP POP SWAP1 POP POP SWAP1 JUMP JUMPDEST PUSH0 PUSH1 0x40 MLOAD SWAP1 POP SWAP1 JUMP JUMPDEST PUSH0 PUSH0 REVERT JUMPDEST PUSH0 PUSH0 REVERT JUMPDEST PUSH0 PUSH1 0x1F NOT PUSH1 0x1F DUP4 ADD AND SWAP1 POP SWAP2 SWAP1 POP JUMP JUMPDEST PUSH32 0x4E487B7100000000000000000000000000000000000000000000000000000000 PUSH0 MSTORE PUSH1 0x41 PUSH1 0x4 MSTORE PUSH1 0x24 PUSH0 REVERT JUMPDEST PUSH2 0x1440 DUP3 PUSH2 0x13FA JUMP JUMPDEST DUP2 ADD DUP2 DUP2 LT PUSH8 0xFFFFFFFFFFFFFFFF DUP3 GT OR ISZERO PUSH2 0x145F JUMPI PUSH2 0x145E PUSH2 0x140A JUMP JUMPDEST JUMPDEST DUP1 PUSH1 0x40 MSTORE POP POP POP JUMP JUMPDEST PUSH0 PUSH2 0x1471 PUSH2 0x13E9 JUMP JUMPDEST SWAP1 POP PUSH2 0x147D DUP3 DUP3 PUSH2 0x1437 JUMP JUMPDEST SWAP2 SWAP1 POP JUMP JUMPDEST PUSH0 DUP2 SWAP1 POP SWAP2 SWAP1 POP JUMP JUMPDEST PUSH2 0x1494 DUP2 PUSH2 0x1482 JUMP JUMPDEST DUP2 EQ PUSH2 0x149E JUMPI PUSH0 PUSH0 REVERT JUMPDEST POP JUMP JUMPDEST PUSH0 DUP2 CALLDATALOAD SWAP1 POP PUSH2 0x14AF DUP2 PUSH2 0x148B JUMP JUMPDEST SWAP3 SWAP2 POP POP JUMP JUMPDEST PUSH0 PUSH1 0x40 DUP3 DUP5 SUB SLT ISZERO PUSH2 0x14CA JUMPI PUSH2 0x14C9 PUSH2 0x13F6 JUMP JUMPDEST JUMPDEST PUSH2 0x14D4 PUSH1 0x40 PUSH2 0x1468 JUMP JUMPDEST SWAP1 POP PUSH0 PUSH2 0x14E3 DUP5 DUP3 DUP6 ADD PUSH2 0x14A1 JUMP JUMPDEST PUSH0 DUP4 ADD MSTORE POP PUSH1 0x20 PUSH2 0x14F6 DUP5 DUP3 DUP6 ADD PUSH2 0x14A1 JUMP JUMPDEST PUSH1 0x20 DUP4 ADD MSTORE POP SWAP3 SWAP2 POP POP JUMP JUMPDEST PUSH0 PUSH0 REVERT JUMPDEST PUSH0 PUSH8 0xFFFFFFFFFFFFFFFF DUP3 GT ISZERO PUSH2 0x1520 JUMPI PUSH2 0x151F PUSH2 0x140A JUMP JUMPDEST JUMPDEST PUSH1 0x20 DUP3 MUL SWAP1 POP SWAP2 SWAP1 POP JUMP JUMPDEST PUSH0 PUSH0 REVERT JUMPDEST PUSH0 PUSH2 0x1541 PUSH2 0x153C DUP5 PUSH2 0x1506 JUMP JUMPDEST PUSH2 0x1468 JUMP JUMPDEST SWAP1 POP DUP1 PUSH1 0x20 DUP5 MUL DUP4 ADD DUP6 DUP2 GT ISZERO PUSH2 0x155B JUMPI PUSH2 0x155A PUSH2 0x152B JUMP JUMPDEST JUMPDEST DUP4 JUMPDEST DUP2 DUP2 LT ISZERO PUSH2 0x1584 JUMPI DUP1 PUSH2 0x1570 DUP9 DUP3 PUSH2 0x14A1 JUMP JUMPDEST DUP5 MSTORE PUSH1 0x20 DUP5 ADD SWAP4 POP POP PUSH1 0x20 DUP2 ADD SWAP1 POP PUSH2 0x155D JUMP JUMPDEST POP POP POP SWAP4 SWAP3 POP POP POP JUMP JUMPDEST PUSH0 DUP3 PUSH1 0x1F DUP4 ADD SLT PUSH2 0x15A2 JUMPI PUSH2 0x15A1 PUSH2 0x1502 JUMP JUMPDEST JUMPDEST PUSH1 0x2 PUSH2 0x15AF DUP5 DUP3 DUP6 PUSH2 0x152F JUMP JUMPDEST SWAP2 POP POP SWAP3 SWAP2 POP POP JUMP JUMPDEST PUSH0 PUSH1 0x80 DUP3 DUP5 SUB SLT ISZERO PUSH2 0x15CD JUMPI PUSH2 0x15CC PUSH2 0x13F6 JUMP JUMPDEST JUMPDEST PUSH2 0x15D7 PUSH1 0x40 PUSH2 0x1468 JUMP JUMPDEST SWAP1 POP PUSH0 PUSH2 0x15E6 DUP5 DUP3 DUP6 ADD PUSH2 0x158E JUMP JUMPDEST PUSH0 DUP4 ADD MSTORE POP PUSH1 0x40 PUSH2 0x15F9 DUP5 DUP3 DUP6 ADD PUSH2 0x158E JUMP JUMPDEST PUSH1 0x20 DUP4 ADD MSTORE POP SWAP3 SWAP2 POP POP JUMP JUMPDEST PUSH0 PUSH2 0x100 DUP3 DUP5 SUB SLT ISZERO PUSH2 0x161B JUMPI PUSH2 0x161A PUSH2 0x13F6 JUMP JUMPDEST JUMPDEST PUSH2 0x1625 PUSH1 0x60 PUSH2 0x1468 JUMP JUMPDEST SWAP1 POP PUSH0 PUSH2 0x1634 DUP5 DUP3 DUP6 ADD PUSH2 0x14B5 JUMP JUMPDEST PUSH0 DUP4 ADD MSTORE POP PUSH1 0x40 PUSH2 0x1647 DUP5 DUP3 DUP6 ADD PUSH2 0x15B8 JUMP JUMPDEST PUSH1 0x20 DUP4 ADD MSTORE POP PUSH1 0xC0 PUSH2 0x165B DUP5 DUP3 DUP6 ADD PUSH2 0x14B5 JUMP JUMPDEST PUSH1 0x40 DUP4 ADD MSTORE POP SWAP3 SWAP2 POP POP JUMP JUMPDEST PUSH0 PUSH8 0xFFFFFFFFFFFFFFFF DUP3 GT ISZERO PUSH2 0x1681 JUMPI PUSH2 0x1680 PUSH2 0x140A JUMP JUMPDEST JUMPDEST PUSH1 0x20 DUP3 MUL SWAP1 POP SWAP2 SWAP1 POP JUMP JUMPDEST PUSH0 PUSH2 0x169E PUSH2 0x1699 DUP5 PUSH2 0x1667 JUMP JUMPDEST PUSH2 0x1468 JUMP JUMPDEST SWAP1 POP DUP1 PUSH1 0x20 DUP5 MUL DUP4 ADD DUP6 DUP2 GT ISZERO PUSH2 0x16B8 JUMPI PUSH2 0x16B7 PUSH2 0x152B JUMP JUMPDEST JUMPDEST DUP4 JUMPDEST DUP2 DUP2 LT ISZERO PUSH2 0x16E1 JUMPI DUP1 PUSH2 0x16CD DUP9 DUP3 PUSH2 0x14A1 JUMP JUMPDEST DUP5 MSTORE PUSH1 0x20 DUP5 ADD SWAP4 POP POP PUSH1 0x20 DUP2 ADD SWAP1 POP PUSH2 0x16BA JUMP JUMPDEST POP POP POP SWAP4 SWAP3 POP POP POP JUMP JUMPDEST PUSH0 DUP3 PUSH1 0x1F DUP4 ADD SLT PUSH2 0x16FF JUMPI PUSH2 0x16FE PUSH2 0x1502 JUMP JUMPDEST JUMPDEST PUSH1 0xC PUSH2 0x170C DUP5 DUP3 DUP6 PUSH2 0x168C JUMP JUMPDEST SWAP2 POP POP SWAP3 SWAP2 POP POP JUMP JUMPDEST PUSH0 PUSH0 PUSH2 0x280 DUP4 DUP6 SUB SLT ISZERO PUSH2 0x172C JUMPI PUSH2 0x172B PUSH2 0x13F2 JUMP JUMPDEST JUMPDEST PUSH0 PUSH2 0x1739 DUP6 DUP3 DUP7 ADD PUSH2 0x1605 JUMP JUMPDEST SWAP3 POP POP PUSH2 0x100 PUSH2 0x174B DUP6 DUP3 DUP7 ADD PUSH2 0x16EB JUMP JUMPDEST SWAP2 POP POP SWAP3 POP SWAP3 SWAP1 POP JUMP JUMPDEST PUSH0 DUP2 ISZERO ISZERO SWAP1 POP SWAP2 SWAP1 POP JUMP JUMPDEST PUSH2 0x1769 DUP2 PUSH2 0x1755 JUMP JUMPDEST DUP3 MSTORE POP POP JUMP JUMPDEST PUSH0 PUSH1 0x20 DUP3 ADD SWAP1 POP PUSH2 0x1782 PUSH0 DUP4 ADD DUP5 PUSH2 0x1760 JUMP JUMPDEST SWAP3 SWAP2 POP POP JUMP JUMPDEST PUSH32 0x4E487B7100000000000000000000000000000000000000000000000000000000 PUSH0 MSTORE PUSH1 0x32 PUSH1 0x4 MSTORE PUSH1 0x24 PUSH0 REVERT JUMPDEST PUSH32 0x4E487B7100000000000000000000000000000000000000000000000000000000 PUSH0 MSTORE PUSH1 0x11 PUSH1 0x4 MSTORE PUSH1 0x24 PUSH0 REVERT JUMPDEST PUSH0 PUSH2 0x17EC DUP3 PUSH2 0x1482 JUMP JUMPDEST SWAP2 POP PUSH2 0x17F7 DUP4 PUSH2 0x1482 JUMP JUMPDEST SWAP3 POP DUP3 DUP3 ADD SWAP1 POP DUP1 DUP3 GT ISZERO PUSH2 0x180F JUMPI PUSH2 0x180E PUSH2 0x17B5 JUMP JUMPDEST JUMPDEST SWAP3 SWAP2 POP POP JUMP JUMPDEST PUSH32 0x4E487B7100000000000000000000000000000000000000000000000000000000 PUSH0 MSTORE PUSH1 0x12 PUSH1 0x4 MSTORE PUSH1 0x24 PUSH0 REVERT JUMPDEST PUSH0 PUSH2 0x184C DUP3 PUSH2 0x1482 JUMP JUMPDEST SWAP2 POP PUSH2 0x1857 DUP4 PUSH2 0x1482 JUMP JUMPDEST SWAP3 POP DUP3 PUSH2 0x1867 JUMPI PUSH2 0x1866 PUSH2 0x1815 JUMP JUMPDEST JUMPDEST DUP3 DUP3 MOD SWAP1 POP SWAP3 SWAP2 POP POP JUMP JUMPDEST PUSH0 PUSH2 0x187C DUP3 PUSH2 0x1482 JUMP JUMPDEST SWAP2 POP PUSH2 0x1887 DUP4 PUSH2 0x1482 JUMP JUMPDEST SWAP3 POP DUP3 DUP3 SUB SWAP1 POP DUP2 DUP2 GT ISZERO PUSH2 0x189F JUMPI PUSH2 0x189E PUSH2 0x17B5 JUMP JUMPDEST JUMPDEST SWAP3 SWAP2 POP POP JUMP JUMPDEST PUSH0 PUSH2 0x18AF DUP3 PUSH2 0x1482 JUMP JUMPDEST SWAP2 POP PUSH2 0x18BA DUP4 PUSH2 0x1482 JUMP JUMPDEST SWAP3 POP DUP3 DUP3 MUL PUSH2 0x18C8 DUP2 PUSH2 0x1482 JUMP JUMPDEST SWAP2 POP DUP3 DUP3 DIV DUP5 EQ DUP4 ISZERO OR PUSH2 0x18DF JUMPI PUSH2 0x18DE PUSH2 0x17B5 JUMP JUMPDEST JUMPDEST POP SWAP3 SWAP2 POP POP JUMP INVALID LOG2 PUSH5 0x6970667358 0x22 SLT KECCAK256 MSTORE8 SWAP16 PUSH22 0x62857A2854C53A6BA1C63F8EDD251D5720528CB0C0EB XOR PUSH15 0xA69A9D56B064736F6C634300081E00 CALLER "
		},
		"gasEstimates": {
			"creation": {
				"codeDepositCost": "1285600",
				"executionCost": "1333",
				"totalCost": "1286933"
			},
			"external": {
				"verifyTx(((uint256,uint256),(uint256[2],uint256[2]),(uint256,uint256)),uint256[12])": "infinite"
			},
			"internal": {
				"verify(uint256[] memory,struct VoteVerifier.Proof memory)": "infinite",
				"verifyingKey()": "infinite"
			}
		},
		"methodIdentifiers": {
			"verifyTx(((uint256,uint256),(uint256[2],uint256[2]),(uint256,uint256)),uint256[12])": "66670599"
		}
	},
	"abi": [
		{
			"inputs": [
				{
					"components": [
						{
							"components": [
								{
									"internalType": "uint256",
									"name": "X",
									"type": "uint256"
								},
								{
									"internalType": "uint256",
									"name": "Y",
									"type": "uint256"
								}
							],
							"internalType": "struct Pairing.G1Point",
							"name": "a",
							"type": "tuple"
						},
						{
							"components": [
								{
									"internalType": "uint256[2]",
									"name": "X",
									"type": "uint256[2]"
								},
								{
									"internalType": "uint256[2]",
									"name": "Y",
									"type": "uint256[2]"
								}
							],
							"internalType": "struct Pairing.G2Point",
							"name": "b",
							"type": "tuple"
						},
						{
							"components": [
								{
									"internalType": "uint256",
									"name": "X",
									"type": "uint256"
								},
								{
									"internalType": "uint256",
									"name": "Y",
									"type": "uint256"
								}
							],
							"internalType": "struct Pairing.G1Point",
							"name": "c",
							"type": "tuple"
						}
					],
					"internalType": "struct VoteVerifier.Proof",
					"name": "proof",
					"type": "tuple"
				},
				{
					"internalType": "uint256[12]",
					"name": "input",
					"type": "uint256[12]"
				}
			],
			"name": "verifyTx",
			"outputs": [
				{
					"internalType": "bool",
					"name": "r",
					"type": "bool"
				}
			],
			"stateMutability": "view",
			"type": "function"
		}
	]
}