{
	"data": {
		"bytecode": {
			"linkReferences": {},
			"object": "608060405234801561000f575f5ffd5b506040516119543803806119548339818101604052810190610031919061018d565b335f5f6101000a81548173ffffffffffffffffffffffffffffffffffffffff021916908373ffffffffffffffffffffffffffffffffffffffff16021790555060015f60146101000a81548160ff0219169083151502179055508160075f6101000a81548173ffffffffffffffffffffffffffffffffffffffff021916908373ffffffffffffffffffffffffffffffffffffffff1602179055508060085f6101000a81548173ffffffffffffffffffffffffffffffffffffffff021916908373ffffffffffffffffffffffffffffffffffffffff1602179055505f60018190555060016002819055505f600381905550600160048190555050506101cb565b5f5ffd5b5f73ffffffffffffffffffffffffffffffffffffffff82169050919050565b5f61015c82610133565b9050919050565b61016c81610152565b8114610176575f5ffd5b50565b5f8151905061018781610163565b92915050565b5f5f604083850312156101a3576101a261012f565b5b5f6101b085828601610179565b92505060206101c185828601610179565b9150509250929050565b61177c806101d85f395ff3fe608060405234801561000f575f5ffd5b50600436106100cd575f3560e01c806379f95ee91161008a5780638da5cb5b116100645780638da5cb5b146101db57806399d74c71146101f9578063bf0516f214610217578063e63aa8fb14610235576100cd565b806379f95ee91461016f578063827861991461019f57806387dde0be146101bd576100cd565b80630e7d490d146100d15780632353d3aa146100ef5780634a39d4421461010b5780634d139763146101295780636c6c32d01461014757806375f11da114610151575b5f5ffd5b6100d9610251565b6040516100e69190610e89565b60405180910390f35b61010960048036038101906101049190610f18565b610257565b005b610113610603565b6040516101209190610f9a565b60405180910390f35b610131610615565b60405161013e9190610e89565b60405180910390f35b61014f61061b565b005b61015961073e565b6040516101669190610e89565b60405180910390f35b61018960048036038101906101849190610fb3565b610744565b6040516101969190610f9a565b60405180910390f35b6101a7610761565b6040516101b49190610e89565b60405180910390f35b6101c5610767565b6040516101d29190610e89565b60405180910390f35b6101e361076d565b6040516101f0919061101d565b60405180910390f35b610201610791565b60405161020e9190611091565b60405180910390f35b61021f6107b6565b60405161022c9190611091565b60405180910390f35b61024f600480360381019061024a91906110aa565b6107db565b005b60055481565b61025f610e4e565b835f60028110610272576102716110e9565b5b6020020135815f600c811061028a576102896110e9565b5b602002018181525050836001600281106102a7576102a66110e9565b5b6020020135816001600c81106102c0576102bf6110e9565b5b602002018181525050825f600281106102dc576102db6110e9565b5b6020020135816002600c81106102f5576102f46110e9565b5b60200201818152505082600160028110610312576103116110e9565b5b6020020135816003600c811061032b5761032a6110e9565b5b60200201818152505081816004600c8110610349576103486110e9565b5b6020020181815250505f60149054906101000a900460ff166103a0576040517f08c379a000000000000000000000000000000000000000000000000000000000815260040161039790611170565b60405180910390fd5b60065f8381526020019081526020015f205f9054906101000a900460ff16156103fe576040517f08c379a00000000000000000000000000000000000000000000000000000000081526004016103f5906111d8565b60405180910390fd5b5f60075f9054906101000a900473ffffffffffffffffffffffffffffffffffffffff1673ffffffffffffffffffffffffffffffffffffffff16636667059987846040518363ffffffff1660e01b815260040161045b9291906113bb565b602060405180830381865afa158015610476573d5f5f3e3d5ffd5b505050506040513d601f19601f8201168201806040525081019061049a919061140e565b9050806104dc576040517f08c379a00000000000000000000000000000000000000000000000000000000081526004016104d390611483565b60405180910390fd5b600160065f8581526020019081526020015f205f6101000a81548160ff021916908315150217905550610544600154600254875f60028110610521576105206110e9565b5b60200201358860016002811061053a576105396110e9565b5b6020020135610a78565b60015f60025f849190505583919050555050610595600354600454865f60028110610572576105716110e9565b5b60200201358760016002811061058b5761058a6110e9565b5b6020020135610a78565b60035f60045f849190505583919050555050600160055f8282546105b991906114ce565b925050819055507f08e06ca7e757dcec7c8019011a586c5d97abb6f8e892dc4fe53d5fbfacd0cc728585856040516105f393929190611511565b60405180910390a1505050505050565b5f60149054906101000a900460ff1681565b60015481565b5f5f9054906101000a900473ffffffffffffffffffffffffffffffffffffffff1673ffffffffffffffffffffffffffffffffffffffff163373ffffffffffffffffffffffffffffffffffffffff16146106a9576040517f08c379a00000000000000000000000000000000000000000000000000000000081526004016106a090611590565b60405180910390fd5b5f60149054906101000a900460ff166106f7576040517f08c379a00000000000000000000000000000000000000000000000000000000081526004016106ee906115f8565b60405180910390fd5b5f5f60146101000a81548160ff0219169083151502179055507fa549b9addfc3693a1863ac5b0b13c42960d78df554c01ea6ac72a7db985df0cf60405160405180910390a1565b60025481565b6006602052805f5260405f205f915054906101000a900460ff1681565b60035481565b60045481565b5f5f9054906101000a900473ffffffffffffffffffffffffffffffffffffffff1681565b60075f9054906101000a900473ffffffffffffffffffffffffffffffffffffffff1681565b60085f9054906101000a900473ffffffffffffffffffffffffffffffffffffffff1681565b5f5f9054906101000a900473ffffffffffffffffffffffffffffffffffffffff1673ffffffffffffffffffffffffffffffffffffffff163373ffffffffffffffffffffffffffffffffffffffff1614610869576040517f08c379a000000000000000000000000000000000000000000000000000000000815260040161086090611590565b60405180910390fd5b5f60149054906101000a900460ff16156108b8576040517f08c379a00000000000000000000000000000000000000000000000000000000081526004016108af90611660565b60405180910390fd5b6108c0610e4e565b600154815f600c81106108d6576108d56110e9565b5b602002018181525050600254816001600c81106108f6576108f56110e9565b5b602002018181525050600354816002600c8110610916576109156110e9565b5b602002018181525050600454816003600c8110610936576109356110e9565b5b60200201818152505082816004600c8110610954576109536110e9565b5b6020020181815250505f60085f9054906101000a900473ffffffffffffffffffffffffffffffffffffffff1673ffffffffffffffffffffffffffffffffffffffff16636667059984846040518363ffffffff1660e01b81526004016109ba9291906113bb565b602060405180830381865afa1580156109d5573d5f5f3e3d5ffd5b505050506040513d601f19601f820116820180604052508101906109f9919061140e565b905080610a3b576040517f08c379a0000000000000000000000000000000000000000000000000000000008152600401610a32906116c8565b60405180910390fd5b7fee088bcc4c9bbd048c9c087916ec26aae94e63151610af8167078ef170e5ae6084604051610a6a9190610e89565b60405180910390a150505050565b5f5f5f86148015610a8857505f85145b15610a9857838391509150610d5d565b5f84148015610aa657505f85145b15610ab657858591509150610d5d565b5f7f30644e72e131a029b85045b68181585d2833e84879b9709143e1f593f000000180610ae657610ae56116e6565b5b85880990505f7f30644e72e131a029b85045b68181585d2833e84879b9709143e1f593f000000180610b1b57610b1a6116e6565b5b85880990505f7f30644e72e131a029b85045b68181585d2833e84879b9709143e1f593f000000180610b5057610b4f6116e6565b5b7f30644e72e131a029b85045b68181585d2833e84879b9709143e1f593f000000180610b7f57610b7e6116e6565b5b838509620292f80990505f7f30644e72e131a029b85045b68181585d2833e84879b9709143e1f593f000000180610bb957610bb86116e6565b5b7f30644e72e131a029b85045b68181585d2833e84879b9709143e1f593f000000180610be857610be76116e6565b5b898b097f30644e72e131a029b85045b68181585d2833e84879b9709143e1f593f000000180610c1a57610c196116e6565b5b898d090890505f610c80847f30644e72e131a029b85045b68181585d2833e84879b9709143e1f593f000000180610c5457610c536116e6565b5b87620292fc097f30644e72e131a029b85045b68181585d2833e84879b9709143e1f593f0000001610d66565b90507f30644e72e131a029b85045b68181585d2833e84879b9709143e1f593f000000180610cb157610cb06116e6565b5b610cec7f30644e72e131a029b85045b68181585d2833e84879b9709143e1f593f000000180610ce357610ce26116e6565b5b85600108610da8565b830996507f30644e72e131a029b85045b68181585d2833e84879b9709143e1f593f000000180610d1f57610d1e6116e6565b5b610d53610d4e6001867f30644e72e131a029b85045b68181585d2833e84879b9709143e1f593f0000001610d66565b610da8565b8209955050505050505b94509492505050565b5f5f849050838511610d81578281610d7e91906114ce565b90505b8280610d9057610d8f6116e6565b5b5f8583610d9d9190611713565b089150509392505050565b5f610e008260027f30644e72e131a029b85045b68181585d2833e84879b9709143e1f593f0000001610dda9190611713565b7f30644e72e131a029b85045b68181585d2833e84879b9709143e1f593f0000001610e07565b9050919050565b5f60405160208152602080820152602060408201528460608201528360808201528260a082015260208160c08360055afa80610e41575f5ffd5b8151925050509392505050565b604051806101800160405280600c90602082028036833780820191505090505090565b5f819050919050565b610e8381610e71565b82525050565b5f602082019050610e9c5f830184610e7a565b92915050565b5f5ffd5b5f5ffd5b5f6101008284031215610ec057610ebf610ea6565b5b81905092915050565b5f5ffd5b5f81905082602060020282011115610ee857610ee7610ec9565b5b92915050565b610ef781610e71565b8114610f01575f5ffd5b50565b5f81359050610f1281610eee565b92915050565b5f5f5f5f6101a08587031215610f3157610f30610ea2565b5b5f610f3e87828801610eaa565b945050610100610f5087828801610ecd565b935050610140610f6287828801610ecd565b925050610180610f7487828801610f04565b91505092959194509250565b5f8115159050919050565b610f9481610f80565b82525050565b5f602082019050610fad5f830184610f8b565b92915050565b5f60208284031215610fc857610fc7610ea2565b5b5f610fd584828501610f04565b91505092915050565b5f73ffffffffffffffffffffffffffffffffffffffff82169050919050565b5f61100782610fde565b9050919050565b61101781610ffd565b82525050565b5f6020820190506110305f83018461100e565b92915050565b5f819050919050565b5f61105961105461104f84610fde565b611036565b610fde565b9050919050565b5f61106a8261103f565b9050919050565b5f61107b82611060565b9050919050565b61108b81611071565b82525050565b5f6020820190506110a45f830184611082565b92915050565b5f5f61012083850312156110c1576110c0610ea2565b5b5f6110ce85828601610f04565b92505060206110df85828601610eaa565b9150509250929050565b7f4e487b71000000000000000000000000000000000000000000000000000000005f52603260045260245ffd5b5f82825260208201905092915050565b7f456c656374696f6e20636c6f73656400000000000000000000000000000000005f82015250565b5f61115a600f83611116565b915061116582611126565b602082019050919050565b5f6020820190508181035f8301526111878161114e565b9050919050565b7f4e756c6c696669657220616c72656164792075736564000000000000000000005f82015250565b5f6111c2601683611116565b91506111cd8261118e565b602082019050919050565b5f6020820190508181035f8301526111ef816111b6565b9050919050565b5f82905092915050565b5f61120e6020840184610f04565b905092915050565b61121f81610e71565b82525050565b604082016112355f830183611200565b6112415f850182611216565b5061124f6020830183611200565b61125c6020850182611216565b50505050565b5f82905092915050565b5f82905092915050565b82818337505050565b61128b60408383611276565b5050565b6080820161129f5f83018361126c565b6112ab5f85018261127f565b506112b9604083018361126c565b6112c6604085018261127f565b50505050565b61010082016112dd5f8301836111f6565b6112e95f850182611225565b506112f76040830183611262565b611304604085018261128f565b5061131260c08301836111f6565b61131f60c0850182611225565b50505050565b5f600c9050919050565b5f81905092915050565b5f819050919050565b5f61134d8383611216565b60208301905092915050565b5f602082019050919050565b61136e81611325565b611378818461132f565b925061138382611339565b805f5b838110156113b357815161139a8782611342565b96506113a583611359565b925050600181019050611386565b505050505050565b5f610280820190506113cf5f8301856112cc565b6113dd610100830184611365565b9392505050565b6113ed81610f80565b81146113f7575f5ffd5b50565b5f81519050611408816113e4565b92915050565b5f6020828403121561142357611422610ea2565b5b5f611430848285016113fa565b91505092915050565b7f496e76616c696420766f74652070726f6f6600000000000000000000000000005f82015250565b5f61146d601283611116565b915061147882611439565b602082019050919050565b5f6020820190508181035f83015261149a81611461565b9050919050565b7f4e487b71000000000000000000000000000000000000000000000000000000005f52601160045260245ffd5b5f6114d882610e71565b91506114e383610e71565b92508282019050808211156114fb576114fa6114a1565b5b92915050565b61150d60408383611276565b5050565b5f60a0820190506115245f830186611501565b6115316040830185611501565b61153e6080830184610e7a565b949350505050565b7f4f6e6c79206f776e6572000000000000000000000000000000000000000000005f82015250565b5f61157a600a83611116565b915061158582611546565b602082019050919050565b5f6020820190508181035f8301526115a78161156e565b9050919050565b7f416c726561647920636c6f7365640000000000000000000000000000000000005f82015250565b5f6115e2600e83611116565b91506115ed826115ae565b602082019050919050565b5f6020820190508181035f83015261160f816115d6565b9050919050565b7f456c656374696f6e207374696c6c206f70656e000000000000000000000000005f82015250565b5f61164a601383611116565b915061165582611616565b602082019050919050565b5f6020820190508181035f8301526116778161163e565b9050919050565b7f496e76616c6964207265636f756e742070726f6f6600000000000000000000005f82015250565b5f6116b2601583611116565b91506116bd8261167e565b602082019050919050565b5f6020820190508181035f8301526116df816116a6565b9050919050565b7f4e487b71000000000000000000000000000000000000000000000000000000005f52601260045260245ffd5b5f61171d82610e71565b915061172883610e71565b92508282039050818111156117405761173f6114a1565b5b9291505056fea2646970667358221220ab7fc38244a5790dbae607fedb26e3f644da34c30207605e83b8bf77c0423e7d64736f6c634300081e0033",
			"opcodes": "PUSH1 0x80 PUSH1 0x40 MSTORE CALLVALUE DUP1 ISZERO PUSH2 0xF JUMPI PUSH0 PUSH0 REVERT JUMPDEST POP PUSH1 0x40 MLOAD PUSH2 0x1954 CODESIZE SUB DUP1 PUSH2 0x1954 DUP4 CODECOPY DUP2 DUP2 ADD PUSH1 0x40 MSTORE DUP2 ADD SWAP1 PUSH2 0x31 SWAP2 SWAP1 PUSH2 0x18D JUMP JUMPDEST CALLER PUSH0 PUSH0 PUSH2 0x100 EXP DUP2 SLOAD DUP2 PUSH20 0xFFFFFFFFFFFFFFFFFFFFFFFFFFFFFFFFFFFFFFFF MUL NOT AND SWAP1 DUP4 PUSH20 0xFFFFFFFFFFFFFFFFFFFFFFFFFFFFFFFFFFFFFFFF AND MUL OR SWAP1 SSTORE POP PUSH1 0x1 PUSH0 PUSH1 0x14 PUSH2 0x100 EXP DUP2 SLOAD DUP2 PUSH1 0xFF MUL NOT AND SWAP1 DUP4 ISZERO ISZERO MUL OR SWAP1 SSTORE POP DUP2 PUSH1 0x7 PUSH0 PUSH2 0x100 EXP DUP2 SLOAD DUP2 PUSH20 0xFFFFFFFFFFFFFFFFFFFFFFFFFFFFFFFFFFFFFFFF MUL NOT AND SWAP1 DUP4 PUSH20 0xFFFFFFFFFFFFFFFFFFFFFFFFFFFFFFFFFFFFFFFF AND MUL OR SWAP1 SSTORE POP DUP1 PUSH1 0x8 PUSH0 PUSH2 0x100 EXP DUP2 SLOAD DUP2 PUSH20 0xFFFFFFFFFFFFFFFFFFFFFFFFFFFFFFFFFFFFFFFF MUL NOT AND SWAP1 DUP4 PUSH20 0xFFFFFFFFFFFFFFFFFFFFFFFFFFFFFFFFFFFFFFFF AND MUL OR SWAP1 SSTORE POP PUSH0 PUSH1 0x1 DUP2 SWAP1 SSTORE POP PUSH1 0x1 PUSH1 0x2 DUP2 SWAP1 SSTORE POP PUSH0 PUSH1 0x3 DUP2 SWAP1 SSTORE POP PUSH1 0x1 PUSH1 0x4 DUP2 SWAP1 SSTORE POP POP POP PUSH2 0x1CB JUMP JUMPDEST PUSH0 PUSH0 REVERT JUMPDEST PUSH0 PUSH20 0xFFFFFFFFFFFFFFFFFFFFFFFFFFFFFFFFFFFFFFFF DUP3 AND SWAP1 POP SWAP2 SWAP1 POP JUMP JUMPDEST PUSH0 PUSH2 0x15C DUP3 PUSH2 0x133 JUMP JUMPDEST SWAP1 POP SWAP2 SWAP1 POP JUMP JUMPDEST PUSH2 0x16C DUP2 PUSH2 0x152 JUMP JUMPDEST DUP2 EQ PUSH2 0x176 JUMPI PUSH0 PUSH0 REVERT JUMPDEST POP JUMP JUMPDEST PUSH0 DUP2 MLOAD SWAP1 POP PUSH2 0x187 DUP2 PUSH2 0x163 JUMP JUMPDEST SWAP3 SWAP2 POP POP JUMP JUMPDEST PUSH0 PUSH0 PUSH1 0x40 DUP4 DUP6 SUB SLT ISZERO PUSH2 0x1A3 JUMPI PUSH2 0x1A2 PUSH2 0x12F JUMP JUMPDEST JUMPDEST PUSH0 PUSH2 0x1B0 DUP6 DUP3 DUP7 ADD PUSH2 0x179 JUMP JUMPDEST SWAP3 POP POP PUSH1 0x20 PUSH2 0x1C1 DUP6 DUP3 DUP7 ADD PUSH2 0x179 JUMP JUMPDEST SWAP2 POP POP SWAP3 POP SWAP3 SWAP1 POP JUMP JUMPDEST PUSH2 0x177C DUP1 PUSH2 0x1D8 PUSH0 CODECOPY PUSH0 RETURN INVALID PUSH1 0x80 PUSH1 0x40 MSTORE CALLVALUE DUP1 ISZERO PUSH2 0xF JUMPI PUSH0 PUSH0 REVERT JUMPDEST POP PUSH1 0x4 CALLDATASIZE LT PUSH2 0xCD JUMPI PUSH0 CALLDATALOAD PUSH1 0xE0 SHR DUP1 PUSH4 0x79F95EE9 GT PUSH2 0x8A JUMPI DUP1 PUSH4 0x8DA5CB5B GT PUSH2 0x64 JUMPI DUP1 PUSH4 0x8DA5CB5B EQ PUSH2 0x1DB JUMPI DUP1 PUSH4 0x99D74C71 EQ PUSH2 0x1F9 JUMPI DUP1 PUSH4 0xBF0516F2 EQ PUSH2 0x217 JUMPI DUP1 PUSH4 0xE63AA8FB EQ PUSH2 0x235 JUMPI PUSH2 0xCD JUMP JUMPDEST DUP1 PUSH4 0x79F95EE9 EQ PUSH2 0x16F JUMPI DUP1 PUSH4 0x82786199 EQ PUSH2 0x19F JUMPI DUP1 PUSH4 0x87DDE0BE EQ PUSH2 0x1BD JUMPI PUSH2 0xCD JUMP JUMPDEST DUP1 PUSH4 0xE7D490D EQ PUSH2 0xD1 JUMPI DUP1 PUSH4 0x2353D3AA EQ PUSH2 0xEF JUMPI DUP1 PUSH4 0x4A39D442 EQ PUSH2 0x10B JUMPI DUP1 PUSH4 0x4D139763 EQ PUSH2 0x129 JUMPI DUP1 PUSH4 0x6C6C32D0 EQ PUSH2 0x147 JUMPI DUP1 PUSH4 0x75F11DA1 EQ PUSH2 0x151 JUMPI JUMPDEST PUSH0 PUSH0 REVERT JUMPDEST PUSH2 0xD9 PUSH2 0x251 JUMP JUMPDEST PUSH1 0x40 MLOAD PUSH2 0xE6 SWAP2 SWAP1 PUSH2 0xE89 JUMP JUMPDEST PUSH1 0x40 MLOAD DUP1 SWAP2 SUB SWAP1 RETURN JUMPDEST PUSH2 0x109 PUSH1 0x4 DUP1 CALLDATASIZE SUB DUP2 ADD SWAP1 PUSH2 0x104 SWAP2 SWAP1 PUSH2 0xF18 JUMP JUMPDEST PUSH2 0x257 JUMP JUMPDEST STOP JUMPDEST PUSH2 0x113 PUSH2 0x603 JUMP JUMPDEST PUSH1 0x40 MLOAD PUSH2 0x120 SWAP2 SWAP1 PUSH2 0xF9A JUMP JUMPDEST PUSH1 0x40 MLOAD DUP1 SWAP2 SUB SWAP1 RETURN JUMPDEST PUSH2 0x131 PUSH2 0x615 JUMP JUMPDEST PUSH1 0x40 MLOAD PUSH2 0x13E SWAP2 SWAP1 PUSH2 0xE89 JUMP JUMPDEST PUSH1 0x40 MLOAD DUP1 SWAP2 SUB SWAP1 RETURN JUMPDEST PUSH2 0x14F PUSH2 0x61B JUMP JUMPDEST STOP JUMPDEST PUSH2 0x159 PUSH2 0x73E JUMP JUMPDEST PUSH1 0x40 MLOAD PUSH2 0x166 SWAP2 SWAP1 PUSH2 0xE89 JUMP JUMPDEST PUSH1 0x40 MLOAD DUP1 SWAP2 SUB SWAP1 RETURN JUMPDEST PUSH2 0x189 PUSH1 0x4 DUP1 CALLDATASIZE SUB DUP2 ADD SWAP1 PUSH2 0x184 SWAP2 SWAP1 PUSH2 0xFB3 JUMP JUMPDEST PUSH2 0x744 JUMP JUMPDEST PUSH1 0x40 MLOAD PUSH2 0x196 SWAP2 SWAP1 PUSH2 0xF9A JUMP JUMPDEST PUSH1 0x40 MLOAD DUP1 SWAP2 SUB SWAP1 RETURN JUMPDEST PUSH2 0x1A7 PUSH2 0x761 JUMP JUMPDEST PUSH1 0x40 MLOAD PUSH2 0x1B4 SWAP2 SWAP1 PUSH2 0xE89 JUMP JUMPDEST PUSH1 0x40 MLOAD DUP1 SWAP2 SUB SWAP1 RETURN JUMPDEST PUSH2 0x1C5 PUSH2 0x767 JUMP JUMPDEST PUSH1 0x40 MLOAD PUSH2 0x1D2 SWAP2 SWAP1 PUSH2 0xE89 JUMP JUMPDEST PUSH1 0x40 MLOAD DUP1 SWAP2 SUB SWAP1 RETURN JUMPDEST PUSH2 0x1E3 PUSH2 0x76D JUMP JUMPDEST PUSH1 0x40 MLOAD PUSH2 0x1F0 SWAP2 SWAP1 PUSH2 0x101D JUMP JUMPDEST PUSH1 0x40 MLOAD DUP1 SWAP2 SUB SWAP1 RETURN JUMPDEST PUSH2 0x201 PUSH2 0x791 JUMP JUMPDEST PUSH1 0x40 MLOAD PUSH2 0x20E SWAP2 SWAP1 PUSH2 0x1091 JUMP JUMPDEST PUSH1 0x40 MLOAD DUP1 SWAP2 SUB SWAP1 RETURN JUMPDEST PUSH2 0x21F PUSH2 0x7B6 JUMP JUMPDEST PUSH1 0x40 MLOAD PUSH2 0x22C SWAP2 SWAP1 PUSH2 0x1091 JUMP JUMPDEST PUSH1 0x40 MLOAD DUP1 SWAP2 SUB SWAP1 RETURN JUMPDEST PUSH2 0x24F PUSH1 0x4 DUP1 CALLDATASIZE SUB DUP2 ADD SWAP1 PUSH2 0x24A SWAP2 SWAP1 PUSH2 0x10AA JUMP JUMPDEST PUSH2 0x7DB JUMP JUMPDEST STOP JUMPDEST PUSH1 0x5 SLOAD DUP2 JUMP JUMPDEST PUSH2 0x25F PUSH2 0xE4E JUMP JUMPDEST DUP4 PUSH0 PUSH1 0x2 DUP2 LT PUSH2 0x272 JUMPI PUSH2 0x271 PUSH2 0x10E9 JUMP JUMPDEST JUMPDEST PUSH1 0x20 MUL ADD CALLDATALOAD DUP2 PUSH0 PUSH1 0xC DUP2 LT PUSH2 0x28A JUMPI PUSH2 0x289 PUSH2 0x10E9 JUMP JUMPDEST JUMPDEST PUSH1 0x20 MUL ADD DUP2 DUP2 MSTORE POP POP DUP4 PUSH1 0x1 PUSH1 0x2 DUP2 LT PUSH2 0x2A7 JUMPI PUSH2 0x2A6 PUSH2 0x10E9 JUMP JUMPDEST JUMPDEST PUSH1 0x20 MUL ADD CALLDATALOAD DUP2 PUSH1 0x1 PUSH1 0xC DUP2 LT PUSH2 0x2C0 JUMPI PUSH2 0x2BF PUSH2 0x10E9 JUMP JUMPDEST JUMPDEST PUSH1 0x20 MUL ADD DUP2 DUP2 MSTORE POP POP DUP3 PUSH0 PUSH1 0x2 DUP2 LT PUSH2 0x2DC JUMPI PUSH2 0x2DB PUSH2 0x10E9 JUMP JUMPDEST JUMPDEST PUSH1 0x20 MUL ADD CALLDATALOAD DUP2 PUSH1 0x2 PUSH1 0xC DUP2 LT PUSH2 0x2F5 JUMPI PUSH2 0x2F4 PUSH2 0x10E9 JUMP JUMPDEST JUMPDEST PUSH1 0x20 MUL ADD DUP2 DUP2 MSTORE POP POP DUP3 PUSH1 0x1 PUSH1 0x2 DUP2 LT PUSH2 0x312 JUMPI PUSH2 0x311 PUSH2 0x10E9 JUMP JUMPDEST JUMPDEST PUSH1 0x20 MUL ADD CALLDATALOAD DUP2 PUSH1 0x3 PUSH1 0xC DUP2 LT PUSH2 0x32B JUMPI PUSH2 0x32A PUSH2 0x10E9 JUMP JUMPDEST JUMPDEST PUSH1 0x20 MUL ADD DUP2 DUP2 MSTORE POP POP DUP2 DUP2 PUSH1 0x4 PUSH1 0xC DUP2 LT PUSH2 0x349 JUMPI PUSH2 0x348 PUSH2 0x10E9 JUMP JUMPDEST JUMPDEST PUSH1 0x20 MUL ADD DUP2 DUP2 MSTORE POP POP PUSH0 PUSH1 0x14 SWAP1 SLOAD SWAP1 PUSH2 0x100 EXP SWAP1 DIV PUSH1 0xFF AND PUSH2 0x3A0 JUMPI PUSH1 0x40 MLOAD PUSH32 0x8C379A000000000000000000000000000000000000000000000000000000000 DUP2 MSTORE PUSH1 0x4 ADD PUSH2 0x397 SWAP1 PUSH2 0x1170 JUMP JUMPDEST PUSH1 0x40 MLOAD DUP1 SWAP2 SUB SWAP1 REVERT JUMPDEST PUSH1 0x6 PUSH0 DUP4 DUP2 MSTORE PUSH1 0x20 ADD SWAP1 DUP2 MSTORE PUSH1 0x20 ADD PUSH0 KECCAK256 PUSH0 SWAP1 SLOAD SWAP1 PUSH2 0x100 EXP SWAP1 DIV PUSH1 0xFF AND ISZERO PUSH2 0x3FE JUMPI PUSH1 0x40 MLOAD PUSH32 0x8C379A000000000000000000000000000000000000000000000000000000000 DUP2 MSTORE PUSH1 0x4 ADD PUSH2 0x3F5 SWAP1 PUSH2 0x11D8 JUMP JUMPDEST PUSH1 0x40 MLOAD DUP1 SWAP2 SUB SWAP1 REVERT JUMPDEST PUSH0 PUSH1 0x7 PUSH0 SWAP1 SLOAD SWAP1 PUSH2 0x100 EXP SWAP1 DIV PUSH20 0xFFFFFFFFFFFFFFFFFFFFFFFFFFFFFFFFFFFFFFFF AND PUSH20 0xFFFFFFFFFFFFFFFFFFFFFFFFFFFFFFFFFFFFFFFF AND PUSH4 0x66670599 DUP8 DUP5 PUSH1 0x40 MLOAD DUP4 PUSH4 0xFFFFFFFF AND PUSH1 0xE0 SHL DUP2 MSTORE PUSH1 0x4 ADD PUSH2 0x45B SWAP3 SWAP2 SWAP1 PUSH2 0x13BB JUMP JUMPDEST PUSH1 0x20 PUSH1 0x40 MLOAD DUP1 DUP4 SUB DUP2 DUP7 GAS STATICCALL ISZERO DUP1 ISZERO PUSH2 0x476 JUMPI RETURNDATASIZE PUSH0 PUSH0 RETURNDATACOPY RETURNDATASIZE PUSH0 REVERT JUMPDEST POP POP POP POP PUSH1 0x40 MLOAD RETURNDATASIZE PUSH1 0x1F NOT PUSH1 0x1F DUP3 ADD AND DUP3 ADD DUP1 PUSH1 0x40 MSTORE POP DUP2 ADD SWAP1 PUSH2 0x49A SWAP2 SWAP1 PUSH2 0x140E JUMP JUMPDEST SWAP1 POP DUP1 PUSH2 0x4DC JUMPI PUSH1 0x40 MLOAD PUSH32 0x8C379A000000000000000000000000000000000000000000000000000000000 DUP2 MSTORE PUSH1 0x4 ADD PUSH2 0x4D3 SWAP1 PUSH2 0x1483 JUMP JUMPDEST PUSH1 0x40 MLOAD DUP1 SWAP2 SUB SWAP1 REVERT JUMPDEST PUSH1 0x1 PUSH1 0x6 PUSH0 DUP6 DUP2 MSTORE PUSH1 0x20 ADD SWAP1 DUP2 MSTORE PUSH1 0x20 ADD PUSH0 KECCAK256 PUSH0 PUSH2 0x100 EXP DUP2 SLOAD DUP2 PUSH1 0xFF MUL NOT AND SWAP1 DUP4 ISZERO ISZERO MUL OR SWAP1 SSTORE POP PUSH2 0x544 PUSH1 0x1 SLOAD PUSH1 0x2 SLOAD DUP8 PUSH0 PUSH1 0x2 DUP2 LT PUSH2 0x521 JUMPI PUSH2 0x520 PUSH2 0x10E9 JUMP JUMPDEST JUMPDEST PUSH1 0x20 MUL ADD CALLDATALOAD DUP9 PUSH1 0x1 PUSH1 0x2 DUP2 LT PUSH2 0x53A JUMPI PUSH2 0x539 PUSH2 0x10E9 JUMP JUMPDEST JUMPDEST PUSH1 0x20 MUL ADD CALLDATALOAD PUSH2 0xA78 JUMP JUMPDEST PUSH1 0x1 PUSH0 PUSH1 0x2 PUSH0 DUP5 SWAP2 SWAP1 POP SSTORE DUP4 SWAP2 SWAP1 POP SSTORE POP POP PUSH2 0x595 PUSH1 0x3 SLOAD PUSH1 0x4 SLOAD DUP7 PUSH0 PUSH1 0x2 DUP2 LT PUSH2 0x572 JUMPI PUSH2 0x571 PUSH2 0x10E9 JUMP JUMPDEST JUMPDEST PUSH1 0x20 MUL ADD CALLDATALOAD DUP8 PUSH1 0x1 PUSH1 0x2 DUP2 LT PUSH2 0x58B JUMPI PUSH2 0x58A PUSH2 0x10E9 JUMP JUMPDEST JUMPDEST PUSH1 0x20 MUL ADD CALLDATALOAD PUSH2 0xA78 JUMP JUMPDEST PUSH1 0x3 PUSH0 PUSH1 0x4 PUSH0 DUP5 SWAP2 SWAP1 POP SSTORE DUP4 SWAP2 SWAP1 POP SSTORE POP POP PUSH1 0x1 PUSH1 0x5 PUSH0 DUP3 DUP3 SLOAD PUSH2 0x5B9 SWAP2 SWAP1 PUSH2 0x14CE JUMP JUMPDEST SWAP3 POP POP DUP2 SWAP1 SSTORE POP PUSH32 0x8E06CA7E757DCEC7C8019011A586C5D97ABB6F8E892DC4FE53D5FBFACD0CC72 DUP6 DUP6 DUP6 PUSH1 0x40 MLOAD PUSH2 0x5F3 SWAP4 SWAP3 SWAP2 SWAP1 PUSH2 0x1511 JUMP JUMPDEST PUSH1 0x40 MLOAD DUP1 SWAP2 SUB SWAP1 LOG1 POP POP POP POP POP POP JUMP JUMPDEST PUSH0 PUSH1 0x14 SWAP1 SLOAD SWAP1 PUSH2 0x100 EXP SWAP1 DIV PUSH1 0xFF AND DUP2 JUMP JUMPDEST PUSH1 0x1 SLOAD DUP2 JUMP JUMPDEST PUSH0 PUSH0 SWAP1 SLOAD SWAP1 PUSH2 0x100 EXP SWAP1 DIV PUSH20 0xFFFFFFFFFFFFFFFFFFFFFFFFFFFFFFFFFFFFFFFF AND PUSH20 0xFFFFFFFFFFFFFFFFFFFFFFFFFFFFFFFFFFFFFFFF AND CALLER PUSH20 0xFFFFFFFFFFFFFFFFFFFFFFFFFFFFFFFFFFFFFFFF AND EQ PUSH2 0x6A9 JUMPI PUSH1 0x40 MLOAD PUSH32 0x8C379A000000000000000000000000000000000000000000000000000000000 DUP2 MSTORE PUSH1 0x4 ADD PUSH2 0x6A0 SWAP1 PUSH2 0x1590 JUMP JUMPDEST PUSH1 0x40 MLOAD DUP1 SWAP2 SUB SWAP1 REVERT JUMPDEST PUSH0 PUSH1 0x14 SWAP1 SLOAD SWAP1 PUSH2 0x100 EXP SWAP1 DIV PUSH1 0xFF AND PUSH2 0x6F7 JUMPI PUSH1 0x40 MLOAD PUSH32 0x8C379A000000000000000000000000000000000000000000000000000000000 DUP2 MSTORE PUSH1 0x4 ADD PUSH2 0x6EE SWAP1 PUSH2 0x15F8 JUMP JUMPDEST PUSH1 0x40 MLOAD DUP1 SWAP2 SUB SWAP1 REVERT JUMPDEST PUSH0 PUSH0 PUSH1 0x14 PUSH2 0x100 EXP DUP2 SLOAD DUP2 PUSH1 0xFF MUL NOT AND SWAP1 DUP4 ISZERO ISZERO MUL OR SWAP1 SSTORE POP PUSH32 0xA549B9ADDFC3693A1863AC5B0B13C42960D78DF554C01EA6AC72A7DB985DF0CF PUSH1 0x40 MLOAD PUSH1 0x40 MLOAD DUP1 SWAP2 SUB SWAP1 LOG1 JUMP JUMPDEST PUSH1 0x2 SLOAD DUP2 JUMP JUMPDEST PUSH1 0x6 PUSH1 0x20 MSTORE DUP1 PUSH0 MSTORE PUSH1 0x40 PUSH0 KECCAK256 PUSH0 SWAP2 POP SLOAD SWAP1 PUSH2 0x100 EXP SWAP1 DIV PUSH1 0xFF AND DUP2 JUMP JUMPDEST PUSH1 0x3 SLOAD DUP2 JUMP JUMPDEST PUSH1 0x4 SLOAD DUP2 JUMP JUMPDEST PUSH0 PUSH0 SWAP1 SLOAD SWAP1 PUSH2 0x100 EXP SWAP1 DIV PUSH20 0xFFFFFFFFFFFFFFFFFFFFFFFFFFFFFFFFFFFFFFFF AND DUP2 JUMP JUMPDEST PUSH1 0x7 PUSH0 SWAP1 SLOAD SWAP1 PUSH2 0x100 EXP SWAP1 DIV PUSH20 0xFFFFFFFFFFFFFFFFFFFFFFFFFFFFFFFFFFFFFFFF AND DUP2 JUMP JUMPDEST PUSH1 0x8 PUSH0 SWAP1 SLOAD SWAP1 PUSH2 0x100 EXP SWAP1 DIV PUSH20 0xFFFFFFFFFFFFFFFFFFFFFFFFFFFFFFFFFFFFFFFF AND DUP2 JUMP JUMPDEST PUSH0 PUSH0 SWAP1 SLOAD SWAP1 PUSH2 0x100 EXP SWAP1 DIV PUSH20 0xFFFFFFFFFFFFFFFFFFFFFFFFFFFFFFFFFFFFFFFF AND PUSH20 0xFFFFFFFFFFFFFFFFFFFFFFFFFFFFFFFFFFFFFFFF AND CALLER PUSH20 0xFFFFFFFFFFFFFFFFFFFFFFFFFFFFFFFFFFFFFFFF AND EQ PUSH2 0x869 JUMPI PUSH1 0x40 MLOAD PUSH32 0x8C379A000000000000000000000000000000000000000000000000000000000 DUP2 MSTORE PUSH1 0x4 ADD PUSH2 0x860 SWAP1 PUSH2 0x1590 JUMP JUMPDEST PUSH1 0x40 MLOAD DUP1 SWAP2 SUB SWAP1 REVERT JUMPDEST PUSH0 PUSH1 0x14 SWAP1 SLOAD SWAP1 PUSH2 0x100 EXP SWAP1 DIV PUSH1 0xFF AND ISZERO PUSH2 0x8B8 JUMPI PUSH1 0x40 MLOAD PUSH32 0x8C379A000000000000000000000000000000000000000000000000000000000 DUP2 MSTORE PUSH1 0x4 ADD PUSH2 0x8AF SWAP1 PUSH2 0x1660 JUMP JUMPDEST PUSH1 0x40 MLOAD DUP1 SWAP2 SUB SWAP1 REVERT JUMPDEST PUSH2 0x8C0 PUSH2 0xE4E JUMP JUMPDEST PUSH1 0x1 SLOAD DUP2 PUSH0 PUSH1 0xC DUP2 LT PUSH2 0x8D6 JUMPI PUSH2 0x8D5 PUSH2 0x10E9 JUMP JUMPDEST JUMPDEST PUSH1 0x20 MUL ADD DUP2 DUP2 MSTORE POP POP PUSH1 0x2 SLOAD DUP2 PUSH1 0x1 PUSH1 0xC DUP2 LT PUSH2 0x8F6 JUMPI PUSH2 0x8F5 PUSH2 0x10E9 JUMP JUMPDEST JUMPDEST PUSH1 0x20 MUL ADD DUP2 DUP2 MSTORE POP POP PUSH1 0x3 SLOAD DUP2 PUSH1 0x2 PUSH1 0xC DUP2 LT PUSH2 0x916 JUMPI PUSH2 0x915 PUSH2 0x10E9 JUMP JUMPDEST JUMPDEST PUSH1 0x20 MUL ADD DUP2 DUP2 MSTORE POP POP PUSH1 0x4 SLOAD DUP2 PUSH1 0x3 PUSH1 0xC DUP2 LT PUSH2 0x936 JUMPI PUSH2 0x935 PUSH2 0x10E9 JUMP JUMPDEST JUMPDEST PUSH1 0x20 MUL ADD DUP2 DUP2 MSTORE POP POP DUP3 DUP2 PUSH1 0x4 PUSH1 0xC DUP2 LT PUSH2 0x954 JUMPI PUSH2 0x953 PUSH2 0x10E9 JUMP JUMPDEST JUMPDEST PUSH1 0x20 MUL ADD DUP2 DUP2 MSTORE POP POP PUSH0 PUSH1 0x8 PUSH0 SWAP1 SLOAD SWAP1 PUSH2 0x100 EXP SWAP1 DIV PUSH20 0xFFFFFFFFFFFFFFFFFFFFFFFFFFFFFFFFFFFFFFFF AND PUSH20 0xFFFFFFFFFFFFFFFFFFFFFFFFFFFFFFFFFFFFFFFF AND PUSH4 0x66670599 DUP5 DUP5 PUSH1 0x40 MLOAD DUP4 PUSH4 0xFFFFFFFF AND PUSH1 0xE0 SHL DUP2 MSTORE PUSH1 0x4 ADD PUSH2 0x9BA SWAP3 SWAP2 SWAP1 PUSH2 0x13BB JUMP JUMPDEST PUSH1 0x20 PUSH1 0x40 MLOAD DUP1 DUP4 SUB DUP2 DUP7 GAS STATICCALL ISZERO DUP1 ISZERO PUSH2 0x9D5 JUMPI RETURNDATASIZE PUSH0 PUSH0 RETURNDATACOPY RETURNDATASIZE PUSH0 REVERT JUMPDEST POP POP POP POP PUSH1 0x40 MLOAD RETURNDATASIZE PUSH1 0x1F NOT PUSH1 0x1F DUP3 ADD AND DUP3 ADD DUP1 PUSH1 0x40 MSTORE POP DUP2 ADD SWAP1 PUSH2 0x9F9 SWAP2 SWAP1 PUSH2 0x140E JUMP JUMPDEST SWAP1 POP DUP1 PUSH2 0xA3B JUMPI PUSH1 0x40 MLOAD PUSH32 0x8C379A000000000000000000000000000000000000000000000000000000000 DUP2 MSTORE PUSH1 0x4 ADD PUSH2 0xA32 SWAP1 PUSH2 0x16C8 JUMP JUMPDEST PUSH1 0x40 MLOAD DUP1 SWAP2 SUB SWAP1 REVERT JUMPDEST PUSH32 0xEE088BCC4C9BBD048C9C087916EC26AAE94E63151610AF8167078EF170E5AE60 DUP5 PUSH1 0x40 MLOAD PUSH2 0xA6A SWAP2 SWAP1 PUSH2 0xE89 JUMP JUMPDEST PUSH1 0x40 MLOAD DUP1 SWAP2 SUB SWAP1 LOG1 POP POP POP POP JUMP JUMPDEST PUSH0 PUSH0 PUSH0 DUP7 EQ DUP1 ISZERO PUSH2 0xA88 JUMPI POP PUSH0 DUP6 EQ JUMPDEST ISZERO PUSH2 0xA98 JUMPI DUP4 DUP4 SWAP2 POP SWAP2 POP PUSH2 0xD5D JUMP JUMPDEST PUSH0 DUP5 EQ DUP1 ISZERO PUSH2 0xAA6 JUMPI POP PUSH0 DUP6 EQ JUMPDEST ISZERO PUSH2 0xAB6 JUMPI DUP6 DUP6 SWAP2 POP SWAP2 POP PUSH2 0xD5D JUMP JUMPDEST PUSH0 PUSH32 0x30644E72E131A029B85045B68181585D2833E84879B9709143E1F593F0000001 DUP1 PUSH2 0xAE6 JUMPI PUSH2 0xAE5 PUSH2 0x16E6 JUMP JUMPDEST JUMPDEST DUP6 DUP9 MULMOD SWAP1 POP PUSH0 PUSH32 0x30644E72E131A029B85045B68181585D2833E84879B9709143E1F593F0000001 DUP1 PUSH2 0xB1B JUMPI PUSH2 0xB1A PUSH2 0x16E6 JUMP JUMPDEST JUMPDEST DUP6 DUP9 MULMOD SWAP1 POP PUSH0 PUSH32 0x30644E72E131A029B85045B68181585D2833E84879B9709143E1F593F0000001 DUP1 PUSH2 0xB50 JUMPI PUSH2 0xB4F PUSH2 0x16E6 JUMP JUMPDEST JUMPDEST PUSH32 0x30644E72E131A029B85045B68181585D2833E84879B9709143E1F593F0000001 DUP1 PUSH2 0xB7F JUMPI PUSH2 0xB7E PUSH2 0x16E6 JUMP JUMPDEST JUMPDEST DUP4 DUP6 MULMOD PUSH3 0x292F8 MULMOD SWAP1 POP PUSH0 PUSH32 0x30644E72E131A029B85045B68181585D2833E84879B9709143E1F593F0000001 DUP1 PUSH2 0xBB9 JUMPI PUSH2 0xBB8 PUSH2 0x16E6 JUMP JUMPDEST JUMPDEST PUSH32 0x30644E72E131A029B85045B68181585D2833E84879B9709143E1F593F0000001 DUP1 PUSH2 0xBE8 JUMPI PUSH2 0xBE7 PUSH2 0x16E6 JUMP JUMPDEST JUMPDEST DUP10 DUP12 MULMOD PUSH32 0x30644E72E131A029B85045B68181585D2833E84879B9709143E1F593F0000001 DUP1 PUSH2 0xC1A JUMPI PUSH2 0xC19 PUSH2 0x16E6 JUMP JUMPDEST JUMPDEST DUP10 DUP14 MULMOD ADDMOD SWAP1 POP PUSH0 PUSH2 0xC80 DUP5 PUSH32 0x30644E72E131A029B85045B68181585D2833E84879B9709143E1F593F0000001 DUP1 PUSH2 0xC54 JUMPI PUSH2 0xC53 PUSH2 0x16E6 JUMP JUMPDEST JUMPDEST DUP8 PUSH3 0x292FC MULMOD PUSH32 0x30644E72E131A029B85045B68181585D2833E84879B9709143E1F593F0000001 PUSH2 0xD66 JUMP JUMPDEST SWAP1 POP PUSH32 0x30644E72E131A029B85045B68181585D2833E84879B9709143E1F593F0000001 DUP1 PUSH2 0xCB1 JUMPI PUSH2 0xCB0 PUSH2 0x16E6 JUMP JUMPDEST JUMPDEST PUSH2 0xCEC PUSH32 0x30644E72E131A029B85045B68181585D2833E84879B9709143E1F593F0000001 DUP1 PUSH2 0xCE3 JUMPI PUSH2 0xCE2 PUSH2 0x16E6 JUMP JUMPDEST JUMPDEST DUP6 PUSH1 0x1 ADDMOD PUSH2 0xDA8 JUMP JUMPDEST DUP4 MULMOD SWAP7 POP PUSH32 0x30644E72E131A029B85045B68181585D2833E84879B9709143E1F593F0000001 DUP1 PUSH2 0xD1F JUMPI PUSH2 0xD1E PUSH2 0x16E6 JUMP JUMPDEST JUMPDEST PUSH2 0xD53 PUSH2 0xD4E PUSH1 0x1 DUP7 PUSH32 0x30644E72E131A029B85045B68181585D2833E84879B9709143E1F593F0000001 PUSH2 0xD66 JUMP JUMPDEST PUSH2 0xDA8 JUMP JUMPDEST DUP3 MULMOD SWAP6 POP POP POP POP POP POP JUMPDEST SWAP5 POP SWAP5 SWAP3 POP POP POP JUMP JUMPDEST PUSH0 PUSH0 DUP5 SWAP1 POP DUP4 DUP6 GT PUSH2 0xD81 JUMPI DUP3 DUP2 PUSH2 0xD7E SWAP2 SWAP1 PUSH2 0x14CE JUMP JUMPDEST SWAP1 POP JUMPDEST DUP3 DUP1 PUSH2 0xD90 JUMPI PUSH2 0xD8F PUSH2 0x16E6 JUMP JUMPDEST JUMPDEST PUSH0 DUP6 DUP4 PUSH2 0xD9D SWAP2 SWAP1 PUSH2 0x1713 JUMP JUMPDEST ADDMOD SWAP2 POP POP SWAP4 SWAP3 POP POP POP JUMP JUMPDEST PUSH0 PUSH2 0xE00 DUP3 PUSH1 0x2 PUSH32 0x30644E72E131A029B85045B68181585D2833E84879B9709143E1F593F0000001 PUSH2 0xDDA SWAP2 SWAP1 PUSH2 0x1713 JUMP JUMPDEST PUSH32 0x30644E72E131A029B85045B68181585D2833E84879B9709143E1F593F0000001 PUSH2 0xE07 JUMP JUMPDEST SWAP1 POP SWAP2 SWAP1 POP JUMP JUMPDEST PUSH0 PUSH1 0x40 MLOAD PUSH1 0x20 DUP2 MSTORE PUSH1 0x20 DUP1 DUP3 ADD MSTORE PUSH1 0x20 PUSH1 0x40 DUP3 ADD MSTORE DUP5 PUSH1 0x60 DUP3 ADD MSTORE DUP4 PUSH1 0x80 DUP3 ADD MSTORE DUP3 PUSH1 0xA0 DUP3 ADD MSTORE PUSH1 0x20 DUP2 PUSH1 0xC0 DUP4 PUSH1 0x5 GAS STATICCALL DUP1 PUSH2 0xE41 JUMPI PUSH0 PUSH0 REVERT JUMPDEST DUP2 MLOAD SWAP3 POP POP POP SWAP4 SWAP3 POP POP POP JUMP JUMPDEST PUSH1 0x40 MLOAD DUP1 PUSH2 0x180 ADD PUSH1 0x40 MSTORE DUP1 PUSH1 0xC SWAP1 PUSH1 0x20 DUP3 MUL DUP1 CALLDATASIZE DUP4 CALLDATACOPY DUP1 DUP3 ADD SWAP2 POP POP SWAP1 POP POP SWAP1 JUMP JUMPDEST PUSH0 DUP2 SWAP1 POP SWAP2 SWAP1 POP JUMP JUMPDEST PUSH2 0xE83 DUP2 PUSH2 0xE71 JUMP JUMPDEST DUP3 MSTORE POP POP JUMP JUMPDEST PUSH0 PUSH1 0x20 DUP3 ADD SWAP1 POP PUSH2 0xE9C PUSH0 DUP4 ADD DUP5 PUSH2 0xE7A JUMP JUMPDEST SWAP3 SWAP2 POP POP JUMP JUMPDEST PUSH0 PUSH0 REVERT JUMPDEST PUSH0 PUSH0 REVERT JUMPDEST PUSH0 PUSH2 0x100 DUP3 DUP5 SUB SLT ISZERO PUSH2 0xEC0 JUMPI PUSH2 0xEBF PUSH2 0xEA6 JUMP JUMPDEST JUMPDEST DUP2 SWAP1 POP SWAP3 SWAP2 POP POP JUMP JUMPDEST PUSH0 PUSH0 REVERT JUMPDEST PUSH0 DUP2 SWAP1 POP DUP3 PUSH1 0x20 PUSH1 0x2 MUL DUP3 ADD GT ISZERO PUSH2 0xEE8 JUMPI PUSH2 0xEE7 PUSH2 0xEC9 JUMP JUMPDEST JUMPDEST SWAP3 SWAP2 POP POP JUMP JUMPDEST PUSH2 0xEF7 DUP2 PUSH2 0xE71 JUMP JUMPDEST DUP2 EQ PUSH2 0xF01 JUMPI PUSH0 PUSH0 REVERT JUMPDEST POP JUMP JUMPDEST PUSH0 DUP2 CALLDATALOAD SWAP1 POP PUSH2 0xF12 DUP2 PUSH2 0xEEE JUMP JUMPDEST SWAP3 SWAP2 POP POP JUMP JUMPDEST PUSH0 PUSH0 PUSH0 PUSH0 PUSH2 0x1A0 DUP6 DUP8 SUB SLT ISZERO PUSH2 0xF31 JUMPI PUSH2 0xF30 PUSH2 0xEA2 JUMP JUMPDEST JUMPDEST PUSH0 PUSH2 0xF3E DUP8 DUP3 DUP9 ADD PUSH2 0xEAA JUMP JUMPDEST SWAP5 POP POP PUSH2 0x100 PUSH2 0xF50 DUP8 DUP3 DUP9 ADD PUSH2 0xECD JUMP JUMPDEST SWAP4 POP POP PUSH2 0x140 PUSH2 0xF62 DUP8 DUP3 DUP9 ADD PUSH2 0xECD JUMP JUMPDEST SWAP3 POP POP PUSH2 0x180 PUSH2 0xF74 DUP8 DUP3 DUP9 ADD PUSH2 0xF04 JUMP JUMPDEST SWAP2 POP POP SWAP3 SWAP6 SWAP2 SWAP5 POP SWAP3 POP JUMP JUMPDEST PUSH0 DUP2 ISZERO ISZERO SWAP1 POP SWAP2 SWAP1 POP JUMP JUMPDEST PUSH2 0xF94 DUP2 PUSH2 0xF80 JUMP JUMPDEST DUP3 MSTORE POP POP JUMP JUMPDEST PUSH0 PUSH1 0x20 DUP3 ADD SWAP1 POP PUSH2 0xFAD PUSH0 DUP4 ADD DUP5 PUSH2 0xF8B JUMP JUMPDEST SWAP3 SWAP2 POP POP JUMP JUMPDEST PUSH0 PUSH1 0x20 DUP3 DUP5 SUB SLT ISZERO PUSH2 0xFC8 JUMPI PUSH2 0xFC7 PUSH2 0xEA2 JUMP JUMPDEST JUMPDEST PUSH0 PUSH2 0xFD5 DUP5 DUP3 DUP6 ADD PUSH2 0xF04 JUMP JUMPDEST SWAP2 POP POP SWAP3 SWAP2 POP POP JUMP JUMPDEST PUSH0 PUSH20 0xFFFFFFFFFFFFFFFFFFFFFFFFFFFFFFFFFFFFFFFF DUP3 AND SWAP1 POP SWAP2 SWAP1 POP JUMP JUMPDEST PUSH0 PUSH2 0x1007 DUP3 PUSH2 0xFDE JUMP JUMPDEST SWAP1 POP SWAP2 SWAP1 POP JUMP JUMPDEST PUSH2 0x1017 DUP2 PUSH2 0xFFD JUMP JUMPDEST DUP3 MSTORE POP POP JUMP JUMPDEST PUSH0 PUSH1 0x20 DUP3 ADD SWAP1 POP PUSH2 0x1030 PUSH0 DUP4 ADD DUP5 PUSH2 0x100E JUMP JUMPDEST SWAP3 SWAP2 POP POP JUMP JUMPDEST PUSH0 DUP2 SWAP1 POP SWAP2 SWAP1 POP JUMP JUMPDEST PUSH0 PUSH2 0x1059 PUSH2 0x1054 PUSH2 0x104F DUP5 PUSH2 0xFDE JUMP JUMPDEST PUSH2 0x1036 JUMP JUMPDEST PUSH2 0xFDE JUMP JUMPDEST SWAP1 POP SWAP2 SWAP1 POP JUMP JUMPDEST PUSH0 PUSH2 0x106A DUP3 PUSH2 0x103F JUMP JUMPDEST SWAP1 POP SWAP2 SWAP1 POP JUMP JUMPDEST PUSH0 PUSH2 0x107B DUP3 PUSH2 0x1060 JUMP JUMPDEST SWAP1 POP SWAP2 SWAP1 POP JUMP JUMPDEST PUSH2 0x108B DUP2 PUSH2 0x1071 JUMP JUMPDEST DUP3 MSTORE POP POP JUMP JUMPDEST PUSH0 PUSH1 0x20 DUP3 ADD SWAP1 POP PUSH2 0x10A4 PUSH0 DUP4 ADD DUP5 PUSH2 0x1082 JUMP JUMPDEST SWAP3 SWAP2 POP POP JUMP JUMPDEST PUSH0 PUSH0 PUSH2 0x120 DUP4 DUP6 SUB SLT ISZERO PUSH2 0x10C1 JUMPI PUSH2 0x10C0 PUSH2 0xEA2 JUMP JUMPDEST JUMPDEST PUSH0 PUSH2 0x10CE DUP6 DUP3 DUP7 ADD PUSH2 0xF04 JUMP JUMPDEST SWAP3 POP POP PUSH1 0x20 PUSH2 0x10DF DUP6 DUP3 DUP7 ADD PUSH2 0xEAA JUMP JUMPDEST SWAP2 POP POP SWAP3 POP SWAP3 SWAP1 POP JUMP JUMPDEST PUSH32 0x4E487B7100000000000000000000000000000000000000000000000000000000 PUSH0 MSTORE PUSH1 0x32 PUSH1 0x4 MSTORE PUSH1 0x24 PUSH0 REVERT JUMPDEST PUSH0 DUP3 DUP3 MSTORE PUSH1 0x20 DUP3 ADD SWAP1 POP SWAP3 SWAP2 POP POP JUMP JUMPDEST PUSH32 0x456C656374696F6E20636C6F7365640000000000000000000000000000000000 PUSH0 DUP3 ADD MSTORE POP JUMP JUMPDEST PUSH0 PUSH2 0x115A PUSH1 0xF DUP4 PUSH2 0x1116 JUMP JUMPDEST SWAP2 POP PUSH2 0x1165 DUP3 PUSH2 0x1126 JUMP JUMPDEST PUSH1 0x20 DUP3 ADD SWAP1 POP SWAP2 SWAP1 POP JUMP JUMPDEST PUSH0 PUSH1 0x20 DUP3 ADD SWAP1 POP DUP2 DUP2 SUB PUSH0 DUP4 ADD MSTORE PUSH2 0x1187 DUP2 PUSH2 0x114E JUMP JUMPDEST SWAP1 POP SWAP2 SWAP1 POP JUMP JUMPDEST PUSH32 0x4E756C6C696669657220616C7265616479207573656400000000000000000000 PUSH0 DUP3 ADD MSTORE POP JUMP JUMPDEST PUSH0 PUSH2 0x11C2 PUSH1 0x16 DUP4 PUSH2 0x1116 JUMP JUMPDEST SWAP2 POP PUSH2 0x11CD DUP3 PUSH2 0x118E JUMP JUMPDEST PUSH1 0x20 DUP3 ADD SWAP1 POP SWAP2 SWAP1 POP JUMP JUMPDEST PUSH0 PUSH1 0x20 DUP3 ADD SWAP1 POP DUP2 DUP2 SUB PUSH0 DUP4 ADD MSTORE PUSH2 0x11EF DUP2 PUSH2 0x11B6 JUMP JUMPDEST SWAP1 POP SWAP2 SWAP1 POP JUMP JUMPDEST PUSH0 DUP3 SWAP1 POP SWAP3 SWAP2 POP POP JUMP JUMPDEST PUSH0 PUSH2 0x120E PUSH1 0x20 DUP5 ADD DUP5 PUSH2 0xF04 JUMP JUMPDEST SWAP1 POP SWAP3 SWAP2 POP POP JUMP JUMPDEST PUSH2 0x121F DUP2 PUSH2 0xE71 JUMP JUMPDEST DUP3 MSTORE POP POP JUMP JUMPDEST PUSH1 0x40 DUP3 ADD PUSH2 0x1235 PUSH0 DUP4 ADD DUP4 PUSH2 0x1200 JUMP JUMPDEST PUSH2 0x1241 PUSH0 DUP6 ADD DUP3 PUSH2 0x1216 JUMP JUMPDEST POP PUSH2 0x124F PUSH1 0x20 DUP4 ADD DUP4 PUSH2 0x1200 JUMP JUMPDEST PUSH2 0x125C PUSH1 0x20 DUP6 ADD DUP3 PUSH2 0x1216 JUMP JUMPDEST POP POP POP POP JUMP JUMPDEST PUSH0 DUP3 SWAP1 POP SWAP3 SWAP2 POP POP JUMP JUMPDEST PUSH0 DUP3 SWAP1 POP SWAP3 SWAP2 POP POP JUMP JUMPDEST DUP3 DUP2 DUP4 CALLDATACOPY POP POP POP JUMP JUMPDEST PUSH2 0x128B PUSH1 0x40 DUP4 DUP4 PUSH2 0x1276 JUMP JUMPDEST POP POP JUMP JUMPDEST PUSH1 0x80 DUP3 ADD PUSH2 0x129F PUSH0 DUP4 ADD DUP4 PUSH2 0x126C JUMP JUMPDEST PUSH2 0x12AB PUSH0 DUP6 ADD DUP3 PUSH2 0x127F JUMP JUMPDEST POP PUSH2 0x12B9 PUSH1 0x40 DUP4 ADD DUP4 PUSH2 0x126C JUMP JUMPDEST PUSH2 0x12C6 PUSH1 0x40 DUP6 ADD DUP3 PUSH2 0x127F JUMP JUMPDEST POP POP POP POP JUMP JUMPDEST PUSH2 0x100 DUP3 ADD PUSH2 0x12DD PUSH0 DUP4 ADD DUP4 PUSH2 0x11F6 JUMP JUMPDEST PUSH2 0x12E9 PUSH0 DUP6 ADD DUP3 PUSH2 0x1225 JUMP JUMPDEST POP PUSH2 0x12F7 PUSH1 0x40 DUP4 ADD DUP4 PUSH2 0x1262 JUMP JUMPDEST PUSH2 0x1304 PUSH1 0x40 DUP6 ADD DUP3 PUSH2 0x128F JUMP JUMPDEST POP PUSH2 0x1312 PUSH1 0xC0 DUP4 ADD DUP4 PUSH2 0x11F6 JUMP JUMPDEST PUSH2 0x131F PUSH1 0xC0 DUP6 ADD DUP3 PUSH2 0x1225 JUMP JUMPDEST POP POP POP POP JUMP JUMPDEST PUSH0 PUSH1 0xC SWAP1 POP SWAP2 SWAP1 POP JUMP JUMPDEST PUSH0 DUP2 SWAP1 POP SWAP3 SWAP2 POP POP JUMP JUMPDEST PUSH0 DUP2 SWAP1 POP SWAP2 SWAP1 POP JUMP JUMPDEST PUSH0 PUSH2 0x134D DUP4 DUP4 PUSH2 0x1216 JUMP JUMPDEST PUSH1 0x20 DUP4 ADD SWAP1 POP SWAP3 SWAP2 POP POP JUMP JUMPDEST PUSH0 PUSH1 0x20 DUP3 ADD SWAP1 POP SWAP2 SWAP1 POP JUMP JUMPDEST PUSH2 0x136E DUP2 PUSH2 0x1325 JUMP JUMPDEST PUSH2 0x1378 DUP2 DUP5 PUSH2 0x132F JUMP JUMPDEST SWAP3 POP PUSH2 0x1383 DUP3 PUSH2 0x1339 JUMP JUMPDEST DUP1 PUSH0 JUMPDEST DUP4 DUP2 LT ISZERO PUSH2 0x13B3 JUMPI DUP2 MLOAD PUSH2 0x139A DUP8 DUP3 PUSH2 0x1342 JUMP JUMPDEST SWAP7 POP PUSH2 0x13A5 DUP4 PUSH2 0x1359 JUMP JUMPDEST SWAP3 POP POP PUSH1 0x1 DUP2 ADD SWAP1 POP PUSH2 0x1386 JUMP JUMPDEST POP POP POP POP POP POP JUMP JUMPDEST PUSH0 PUSH2 0x280 DUP3 ADD SWAP1 POP PUSH2 0x13CF PUSH0 DUP4 ADD DUP6 PUSH2 0x12CC JUMP JUMPDEST PUSH2 0x13DD PUSH2 0x100 DUP4 ADD DUP5 PUSH2 0x1365 JUMP JUMPDEST SWAP4 SWAP3 POP POP POP JUMP JUMPDEST PUSH2 0x13ED DUP2 PUSH2 0xF80 JUMP JUMPDEST DUP2 EQ PUSH2 0x13F7 JUMPI PUSH0 PUSH0 REVERT JUMPDEST POP JUMP JUMPDEST PUSH0 DUP2 MLOAD SWAP1 POP PUSH2 0x1408 DUP2 PUSH2 0x13E4 JUMP JUMPDEST SWAP3 SWAP2 POP POP JUMP JUMPDEST PUSH0 PUSH1 0x20 DUP3 DUP5 SUB SLT ISZERO PUSH2 0x1423 JUMPI PUSH2 0x1422 PUSH2 0xEA2 JUMP JUMPDEST JUMPDEST PUSH0 PUSH2 0x1430 DUP5 DUP3 DUP6 ADD PUSH2 0x13FA JUMP JUMPDEST SWAP2 POP POP SWAP3 SWAP2 POP POP JUMP JUMPDEST PUSH32 0x496E76616C696420766F74652070726F6F660000000000000000000000000000 PUSH0 DUP3 ADD MSTORE POP JUMP JUMPDEST PUSH0 PUSH2 0x146D PUSH1 0x12 DUP4 PUSH2 0x1116 JUMP JUMPDEST SWAP2 POP PUSH2 0x1478 DUP3 PUSH2 0x1439 JUMP JUMPDEST PUSH1 0x20 DUP3 ADD SWAP1 POP SWAP2 SWAP1 POP JUMP JUMPDEST PUSH0 PUSH1 0x20 DUP3 ADD SWAP1 POP DUP2 DUP2 SUB PUSH0 DUP4 ADD MSTORE PUSH2 0x149A DUP2 PUSH2 0x1461 JUMP JUMPDEST SWAP1 POP SWAP2 SWAP1 POP JUMP JUMPDEST PUSH32 0x4E487B7100000000000000000000000000000000000000000000000000000000 PUSH0 MSTORE PUSH1 0x11 PUSH1 0x4 MSTORE PUSH1 0x24 PUSH0 REVERT JUMPDEST PUSH0 PUSH2 0x14D8 DUP3 PUSH2 0xE71 JUMP JUMPDEST SWAP2 POP PUSH2 0x14E3 DUP4 PUSH2 0xE71 JUMP JUMPDEST SWAP3 POP DUP3 DUP3 ADD SWAP1 POP DUP1 DUP3 GT ISZERO PUSH2 0x14FB JUMPI PUSH2 0x14FA PUSH2 0x14A1 JUMP JUMPDEST JUMPDEST SWAP3 SWAP2 POP POP JUMP JUMPDEST PUSH2 0x150D PUSH1 0x40 DUP4 DUP4 PUSH2 0x1276 JUMP JUMPDEST POP POP JUMP JUMPDEST PUSH0 PUSH1 0xA0 DUP3 ADD SWAP1 POP PUSH2 0x1524 PUSH0 DUP4 ADD DUP7 PUSH2 0x1501 JUMP JUMPDEST PUSH2 0x1531 PUSH1 0x40 DUP4 ADD DUP6 PUSH2 0x1501 JUMP JUMPDEST PUSH2 0x153E PUSH1 0x80 DUP4 ADD DUP5 PUSH2 0xE7A JUMP JUMPDEST SWAP5 SWAP4 POP POP POP POP JUMP JUMPDEST PUSH32 0x4F6E6C79206F776E657200000000000000000000000000000000000000000000 PUSH0 DUP3 ADD MSTORE POP JUMP JUMPDEST PUSH0 PUSH2 0x157A PUSH1 0xA DUP4 PUSH2 0x1116 JUMP JUMPDEST SWAP2 POP PUSH2 0x1585 DUP3 PUSH2 0x1546 JUMP JUMPDEST PUSH1 0x20 DUP3 ADD SWAP1 POP SWAP2 SWAP1 POP JUMP JUMPDEST PUSH0 PUSH1 0x20 DUP3 ADD SWAP1 POP DUP2 DUP2 SUB PUSH0 DUP4 ADD MSTORE PUSH2 0x15A7 DUP2 PUSH2 0x156E JUMP JUMPDEST SWAP1 POP SWAP2 SWAP1 POP JUMP JUMPDEST PUSH32 0x416C726561647920636C6F736564000000000000000000000000000000000000 PUSH0 DUP3 ADD MSTORE POP JUMP JUMPDEST PUSH0 PUSH2 0x15E2 PUSH1 0xE DUP4 PUSH2 0x1116 JUMP JUMPDEST SWAP2 POP PUSH2 0x15ED DUP3 PUSH2 0x15AE JUMP JUMPDEST PUSH1 0x20 DUP3 ADD SWAP1 POP SWAP2 SWAP1 POP JUMP JUMPDEST PUSH0 PUSH1 0x20 DUP3 ADD SWAP1 POP DUP2 DUP2 SUB PUSH0 DUP4 ADD MSTORE PUSH2 0x160F DUP2 PUSH2 0x15D6 JUMP JUMPDEST SWAP1 POP SWAP2 SWAP1 POP JUMP JUMPDEST PUSH32 0x456C656374696F6E207374696C6C206F70656E00000000000000000000000000 PUSH0 DUP3 ADD MSTORE POP JUMP JUMPDEST PUSH0 PUSH2 0x164A PUSH1 0x13 DUP4 PUSH2 0x1116 JUMP JUMPDEST SWAP2 POP PUSH2 0x1655 DUP3 PUSH2 0x1616 JUMP JUMPDEST PUSH1 0x20 DUP3 ADD SWAP1 POP SWAP2 SWAP1 POP JUMP JUMPDEST PUSH0 PUSH1 0x20 DUP3 ADD SWAP1 POP DUP2 DUP2 SUB PUSH0 DUP4 ADD MSTORE PUSH2 0x1677 DUP2 PUSH2 0x163E JUMP JUMPDEST SWAP1 POP SWAP2 SWAP1 POP JUMP JUMPDEST PUSH32 0x496E76616C6964207265636F756E742070726F6F660000000000000000000000 PUSH0 DUP3 ADD MSTORE POP JUMP JUMPDEST PUSH0 PUSH2 0x16B2 PUSH1 0x15 DUP4 PUSH2 0x1116 JUMP JUMPDEST SWAP2 POP PUSH2 0x16BD DUP3 PUSH2 0x167E JUMP JUMPDEST PUSH1 0x20 DUP3 ADD SWAP1 POP SWAP2 SWAP1 POP JUMP JUMPDEST PUSH0 PUSH1 0x20 DUP3 ADD SWAP1 POP DUP2 DUP2 SUB PUSH0 DUP4 ADD MSTORE PUSH2 0x16DF DUP2 PUSH2 0x16A6 JUMP JUMPDEST SWAP1 POP SWAP2 SWAP1 POP JUMP JUMPDEST PUSH32 0x4E487B7100000000000000000000000000000000000000000000000000000000 PUSH0 MSTORE PUSH1 0x12 PUSH1 0x4 MSTORE PUSH1 0x24 PUSH0 REVERT JUMPDEST PUSH0 PUSH2 0x171D DUP3 PUSH2 0xE71 JUMP JUMPDEST SWAP2 POP PUSH2 0x1728 DUP4 PUSH2 0xE71 JUMP JUMPDEST SWAP3 POP DUP3 DUP3 SUB SWAP1 POP DUP2 DUP2 GT ISZERO PUSH2 0x1740 JUMPI PUSH2 0x173F PUSH2 0x14A1 JUMP JUMPDEST JUMPDEST SWAP3 SWAP2 POP POP JUMP INVALID LOG2 PUSH5 0x6970667358 0x22 SLT KECCAK256 0xAB PUSH32 0xC38244A5790DBAE607FEDB26E3F644DA34C30207605E83B8BF77C0423E7D6473 PUSH16 0x6C634300081E00330000000000000000 "
		},
		"gasEstimates": {
			"creation": {
				"codeDepositCost": "1202400",
				"executionCost": "infinite",
				"totalCost": "infinite"
			},
			"external": {
				"accC1x()": "2492",
				"accC1y()": "2536",
				"accC2x()": "2470",
				"accC2y()": "2492",
				"closeElection()": "29694",
				"electionOpen()": "2561",
				"nullifierUsed(uint256)": "2808",
				"numberOfVotes()": "2426",
				"owner()": "2529",
				"publishResults(uint256,((uint256,uint256),(uint256[2],uint256[2]),(uint256,uint256)))": "infinite",
				"recountVerifier()": "infinite",
				"registerVote(((uint256,uint256),(uint256[2],uint256[2]),(uint256,uint256)),uint256[2],uint256[2],uint256)": "infinite",
				"voteVerifier()": "infinite"
			}
		},
		"methodIdentifiers": {
			"accC1x()": "4d139763",
			"accC1y()": "75f11da1",
			"accC2x()": "82786199",
			"accC2y()": "87dde0be",
			"closeElection()": "6c6c32d0",
			"electionOpen()": "4a39d442",
			"nullifierUsed(uint256)": "79f95ee9",
			"numberOfVotes()": "0e7d490d",
			"owner()": "8da5cb5b",
			"publishResults(uint256,((uint256,uint256),(uint256[2],uint256[2]),(uint256,uint256)))": "e63aa8fb",
			"recountVerifier()": "bf0516f2",
			"registerVote(((uint256,uint256),(uint256[2],uint256[2]),(uint256,uint256)),uint256[2],uint256[2],uint256)": "2353d3aa",
			"voteVerifier()": "99d74c71"
		}
	},
	"abi": [
		{
			"inputs": [
				{
					"internalType": "address",
					"name": "_voteVerifier",
					"type": "address"
				},
				{
					"internalType": "address",
					"name": "_recountVerifier",
					"type": "address"
				}
			],
			"stateMutability": "nonpayable",
			"type": "constructor"
		},
		{
			"anonymous": false,
			"inputs": [],
			"name": "ElectionClosed",
			"type": "event"
		},
		{
			"anonymous": false,
			"inputs": [
				{
					"indexed": false,
					"internalType": "uint256",
					"name": "result",
					"type": "uint256"
				}
			],
			"name": "ResultsPublished",
			"type": "event"
		},
		{
			"anonymous": false,
			"inputs": [
				{
					"indexed": false,
					"internalType": "uint256[2]",
					"name": "C1",
					"type": "uint256[2]"
				},
				{
					"indexed": false,
					"internalType": "uint256[2]",
					"name": "C2",
					"type": "uint256[2]"
				},
				{
					"indexed": false,
					"internalType": "uint256",
					"name": "nullifier",
					"type": "uint256"
				}
			],
			"name": "VoteRegistered",
			"type": "event"
		},
		{
			"inputs": [],
			"name": "accC1x",
			"outputs": [
				{
					"internalType": "uint256",
					"name": "",
					"type": "uint256"
				}
			],
			"stateMutability": "view",
			"type": "function"
		},
		{
			"inputs": [],
			"name": "accC1y",
			"outputs": [
				{
					"internalType": "uint256",
					"name": "",
					"type": "uint256"
				}
			],
			"stateMutability": "view",
			"type": "function"
		},
		{
			"inputs": [],
			"name": "accC2x",
			"outputs": [
				{
					"internalType": "uint256",
					"name": "",
					"type": "uint256"
				}
			],
			"stateMutability": "view",
			"type": "function"
		},
		{
			"inputs": [],
			"name": "accC2y",
			"outputs": [
				{
					"internalType": "uint256",
					"name": "",
					"type": "uint256"
				}
			],
			"stateMutability": "view",
			"type": "function"
		},
		{
			"inputs": [],
			"name": "closeElection",
			"outputs": [],
			"stateMutability": "nonpayable",
			"type": "function"
		},
		{
			"inputs": [],
			"name": "electionOpen",
			"outputs": [
				{
					"internalType": "bool",
					"name": "",
					"type": "bool"
				}
			],
			"stateMutability": "view",
			"type": "function"
		},
		{
			"inputs": [
				{
					"internalType": "uint256",
					"name": "",
					"type": "uint256"
				}
			],
			"name": "nullifierUsed",
			"outputs": [
				{
					"internalType": "bool",
					"name": "",
					"type": "bool"
				}
			],
			"stateMutability": "view",
			"type": "function"
		},
		{
			"inputs": [],
			"name": "numberOfVotes",
			"outputs": [
				{
					"internalType": "uint256",
					"name": "",
					"type": "uint256"
				}
			],
			"stateMutability": "view",
			"type": "function"
		},
		{
			"inputs": [],
			"name": "owner",
			"outputs": [
				{
					"internalType": "address",
					"name": "",
					"type": "address"
				}
			],
			"stateMutability": "view",
			"type": "function"
		},
		{
			"inputs": [
				{
					"internalType": "uint256",
					"name": "result",
					"type": "uint256"
				},
				{
					"components": [
						{
							"components": [
								{
									"internalType": "uint256",
									"name": "X",
									"type": "uint256"
								},
								{
									"internalType": "uint256",
									"name": "Y",
									"type": "uint256"
								}
							],
							"internalType": "struct G1Point",
							"name": "a",
							"type": "tuple"
						},
						{
							"components": [
								{
									"internalType": "uint256[2]",
									"name": "X",
									"type": "uint256[2]"
								},
								{
									"internalType": "uint256[2]",
									"name": "Y",
									"type": "uint256[2]"
								}
							],
							"internalType": "struct G2Point",
							"name": "b",
							"type": "tuple"
						},
						{
							"components": [
								{
									"internalType": "uint256",
									"name": "X",
									"type": "uint256"
								},
								{
									"internalType": "uint256",
									"name": "Y",
									"type": "uint256"
								}
							],
							"internalType": "struct G1Point",
							"name": "c",
							"type": "tuple"
						}
					],
					"internalType": "struct Proof",
					"name": "proof",
					"type": "tuple"
				}
			],
			"name": "publishResults",
			"outputs": [],
			"stateMutability": "nonpayable",
			"type": "function"
		},
		{
			"inputs": [],
			"name": "recountVerifier",
			"outputs": [
				{
					"internalType": "contract IVerifier",
					"name": "",
					"type": "address"
				}
			],
			"stateMutability": "view",
			"type": "function"
		},
		{
			"inputs": [
				{
					"components": [
						{
							"components": [
								{
									"internalType": "uint256",
									"name": "X",
									"type": "uint256"
								},
								{
									"internalType": "uint256",
									"name": "Y",
									"type": "uint256"
								}
							],
							"internalType": "struct G1Point",
							"name": "a",
							"type": "tuple"
						},
						{
							"components": [
								{
									"internalType": "uint256[2]",
									"name": "X",
									"type": "uint256[2]"
								},
								{
									"internalType": "uint256[2]",
									"name": "Y",
									"type": "uint256[2]"
								}
							],
							"internalType": "struct G2Point",
							"name": "b",
							"type": "tuple"
						},
						{
							"components": [
								{
									"internalType": "uint256",
									"name": "X",
									"type": "uint256"
								},
								{
									"internalType": "uint256",
									"name": "Y",
									"type": "uint256"
								}
							],
							"internalType": "struct G1Point",
							"name": "c",
							"type": "tuple"
						}
					],
					"internalType": "struct Proof",
					"name": "proof",
					"type": "tuple"
				},
				{
					"internalType": "uint256[2]",
					"name": "C1",
					"type": "uint256[2]"
				},
				{
					"internalType": "uint256[2]",
					"name": "C2",
					"type": "uint256[2]"
				},
				{
					"internalType": "uint256",
					"name": "nullifier",
					"type": "uint256"
				}
			],
			"name": "registerVote",
			"outputs": [],
			"stateMutability": "nonpayable",
			"type": "function"
		},
		{
			"inputs": [],
			"name": "voteVerifier",
			"outputs": [
				{
					"internalType": "contract IVerifier",
					"name": "",
					"type": "address"
				}
			],
			"stateMutability": "view",
			"type": "function"
		}
	]
}