{
	"data": {
		"bytecode": {
			"linkReferences": {},
			"object": "608060405260015f60146101000a81548160ff021916908315150217905550348015610029575f5ffd5b50604051612126380380612126833981810160405281019061004b91906100ce565b335f5f6101000a81548173ffffffffffffffffffffffffffffffffffffffff021916908373ffffffffffffffffffffffffffffffffffffffff16021790555080600181905550506100f9565b5f5ffd5b5f819050919050565b6100ad8161009b565b81146100b7575f5ffd5b50565b5f815190506100c8816100a4565b92915050565b5f602082840312156100e3576100e2610097565b5b5f6100f0848285016100ba565b91505092915050565b612020806101065f395ff3fe608060405234801561000f575f5ffd5b506004361061009c575f3560e01c806379f95ee91161006457806379f95ee9146101325780638da5cb5b146101625780639aa6913614610180578063b952e7d81461019e578063ebf0c717146101a85761009c565b80631327e258146100a0578063249f66c6146100be5780634a39d442146100da5780636c6c32d0146100f8578063799afa7614610102575b5f5ffd5b6100a86101c6565b6040516100b5919061163f565b60405180910390f35b6100d860048036038101906100d3919061170c565b6101cc565b005b6100e2610436565b6040516100ef9190611783565b60405180910390f35b610100610448565b005b61011c60048036038101906101179190611a84565b6104f1565b6040516101299190611783565b60405180910390f35b61014c60048036038101906101479190611ac4565b6105b7565b6040516101599190611783565b60405180910390f35b61016a6105d4565b6040516101779190611b2e565b60405180910390f35b6101886105f8565b604051610195919061163f565b60405180910390f35b6101a66105fe565b005b6101b061071a565b6040516101bd919061163f565b60405180910390f35b60035481565b5f60149054906101000a900460ff1661021a576040517f08c379a000000000000000000000000000000000000000000000000000000000815260040161021190611ba1565b60405180910390fd5b60045f8381526020019081526020015f205f9054906101000a900460ff1615610278576040517f08c379a000000000000000000000000000000000000000000000000000000000815260040161026f90611c09565b60405180910390fd5b6102c88480360381019061028c9190611c27565b8460048060200260405190810160405280929190826004602002808284375f81840152601f19601f8201169050808301925050505050506104f1565b610307576040517f08c379a00000000000000000000000000000000000000000000000000000000081526004016102fe90611c9d565b60405180910390fd5b600160045f8481526020019081526020015f205f6101000a81548160ff021916908315150217905550801561035457600160035f8282546103489190611ce8565b9250508190555061036e565b600160025f8282546103669190611ce8565b925050819055505b7f13b68c699a704c5d2a4a72f379bb25eccd08e5a21a3fc611aa82a031461969ed6040518060400160405280855f600481106103ad576103ac611d1b565b5b60200201358152602001856001600481106103cb576103ca611d1b565b5b60200201358152506040518060400160405280866002600481106103f2576103f1611d1b565b5b60200201358152602001866003600481106104105761040f611d1b565b5b60200201358152508460405161042893929190611ded565b60405180910390a150505050565b5f60149054906101000a900460ff1681565b5f5f9054906101000a900473ffffffffffffffffffffffffffffffffffffffff1673ffffffffffffffffffffffffffffffffffffffff163373ffffffffffffffffffffffffffffffffffffffff16146104d6576040517f08c379a00000000000000000000000000000000000000000000000000000000081526004016104cd90611e6c565b60405180910390fd5b5f5f60146101000a81548160ff021916908315150217905550565b5f5f600467ffffffffffffffff81111561050e5761050d6117b0565b5b60405190808252806020026020018201604052801561053c5781602001602082028036833780820191505090505b5090505f5f90505b6004811015610591578381600481106105605761055f611d1b565b5b602002015182828151811061057857610577611d1b565b5b6020026020010181815250508080600101915050610544565b505f61059d8286610720565b036105ac5760019150506105b1565b5f9150505b92915050565b6004602052805f5260405f205f915054906101000a900460ff1681565b5f5f9054906101000a900473ffffffffffffffffffffffffffffffffffffffff1681565b60025481565b5f5f9054906101000a900473ffffffffffffffffffffffffffffffffffffffff1673ffffffffffffffffffffffffffffffffffffffff163373ffffffffffffffffffffffffffffffffffffffff161461068c576040517f08c379a000000000000000000000000000000000000000000000000000000000815260040161068390611e6c565b60405180910390fd5b5f60149054906101000a900460ff16156106db576040517f08c379a00000000000000000000000000000000000000000000000000000000081526004016106d290611ed4565b60405180910390fd5b7f118f959a74f702cdc24614ce54eaada8f5b8e1b01a9bcf1d1b2fe673bedc5147600254600354604051610710929190611ef2565b60405180910390a1565b60015481565b5f5f7f30644e72e131a029b85045b68181585d2833e84879b9709143e1f593f000000190505f61074e6108a8565b9050806080015151600186516107649190611ce8565b1461076d575f5ffd5b5f60405180604001604052805f81526020015f81525090505f5f90505b865181101561081e57838782815181106107a7576107a6611d1b565b5b6020026020010151106107b8575f5ffd5b61080f8261080a85608001516001856107d19190611ce8565b815181106107e2576107e1611d1b565b5b60200260200101518a85815181106107fd576107fc611d1b565b5b6020026020010151610e12565b610eaf565b9150808060010191505061078a565b506108478183608001515f8151811061083a57610839611d1b565b5b6020026020010151610eaf565b905061088b855f0151866020015161085e84610f71565b85604001516108708a60400151610f71565b8760600151610881895f0151610f71565b896020015161100f565b61089b57600193505050506108a2565b5f93505050505b92915050565b6108b061151a565b60405180604001604052807f1f7831672127bb363374647d0c87a31ce91a1c685d875a53a5cac600faeded4f81526020017f07670423de21a7bdb3578ffb77b415c2ea786e4e502990bd70f5466f912d2852815250815f0181905250604051806040016040528060405180604001604052807f159b583d51881a3d382c9a4e3fd9a650135055063b6a6b22721d76173dfbab2d81526020017f04139747af7047fe4cf264d25b15235f4ec43bb38e7a688567f031c5e2d920e0815250815260200160405180604001604052807f1fc4a8d05593db0d87f4f97e5f91ae18430aca05a0cf38232eeae735fe87454b81526020017f10ea261691552ffb0a35fed505cd904ac01e01abf590a16ad75e2b8986f8a0a68152508152508160200181905250604051806040016040528060405180604001604052807f2f4d859e096097fcb241bdb87257410ee80b2524f44733a8add221e92bbb9d4881526020017f0216bedc2a1ab164892327794537e324bdb9118bf6ebe21459983e953b550bea815250815260200160405180604001604052807f2e50d45ceb04b952f390bd9e7c421db774d9cad30be64a8541d221f9cab6fe0581526020017f092209f9c9688a024370181dc66215ac222860e409b6aa5bc1f01fcb4baadf708152508152508160400181905250604051806040016040528060405180604001604052807f0306d089d5f2bb7c7f566c89ae7621fd4f9a125e4c1634d121f4346d19542b6081526020017f29b81308a9e273f8cf524d7ab1a777751fdc2477f3f0921756e6a3d1f6c1996b815250815260200160405180604001604052807f1d7247377df3c9907bc574eca03edb7ee6be018f01a00897dda62c17d921857581526020017f289c126ce263de6300c6134b4e06559e4023bb41546866016334e23347d44f568152508152508160600181905250600567ffffffffffffffff811115610b7657610b756117b0565b5b604051908082528060200260200182016040528015610baf57816020015b610b9c611561565b815260200190600190039081610b945790505b50816080018190525060405180604001604052807f1ff6515df24714beb6bec648702cd88f0786a266aaf3cee0c4791cff6c53d35e81526020017f1e74942a208ab7636752dd9f910b0de565526b80ab4dbdb1942b116d02603e2181525081608001515f81518110610c2457610c23611d1b565b5b602002602001018190525060405180604001604052807f0a90e62d51d3f72378ddbe28514cdcac96876323092907fcca74f8cf8418b7f081526020017f300713f90ee55c54909db0adabbf98487a86992617e1143f646ed9f460d52ead8152508160800151600181518110610c9c57610c9b611d1b565b5b602002602001018190525060405180604001604052807f1654353e47ff9707ab0f55af2ed3ca63994d4c0e6389cb4752844400a13c290581526020017f0c78254a4716a42e8bf12038f2a11f9c66dcdca054caaefe00a540ee0beafde68152508160800151600281518110610d1457610d13611d1b565b5b602002602001018190525060405180604001604052807f1dae2230cc5d0736855c7052a432659f83440d5886f19e6ffe4035d58bb1616881526020017f129a45fefad763d1e4ebaa56312122372fcba4cea3b6e81dc6cfe3cefde2026b8152508160800151600381518110610d8c57610d8b611d1b565b5b602002602001018190525060405180604001604052807f06de78707393bd9eb1c9d0a3adc107320bbc90ba7f1985e844b7a9d30970403b81526020017f22500a1cb2c7a6db8d193e1a32d1054d581d6bc6a066637ddf2d24e26c56e8ce8152508160800151600481518110610e0457610e03611d1b565b5b602002602001018190525090565b610e1a611561565b610e22611579565b835f0151815f60038110610e3957610e38611d1b565b5b602002018181525050836020015181600160038110610e5b57610e5a611d1b565b5b6020020181815250508281600260038110610e7957610e78611d1b565b5b6020020181815250505f60608360808460076107d05a03fa9050805f8103610e9d57fe5b5080610ea7575f5ffd5b505092915050565b610eb7611561565b610ebf61159b565b835f0151815f60048110610ed657610ed5611d1b565b5b602002018181525050836020015181600160048110610ef857610ef7611d1b565b5b602002018181525050825f015181600260048110610f1957610f18611d1b565b5b602002018181525050826020015181600360048110610f3b57610f3a611d1b565b5b6020020181815250505f60608360c08460066107d05a03fa9050805f8103610f5f57fe5b5080610f69575f5ffd5b505092915050565b610f79611561565b5f7f30644e72e131a029b85045b68181585d97816a916871ca8d3c208c16d87cfd4790505f835f0151148015610fb257505f8360200151145b15610fd45760405180604001604052805f81526020015f81525091505061100a565b6040518060400160405280845f01518152602001828560200151610ff89190611f46565b836110039190611f76565b8152509150505b919050565b5f5f600467ffffffffffffffff81111561102c5761102b6117b0565b5b60405190808252806020026020018201604052801561106557816020015b611052611561565b81526020019060019003908161104a5790505b5090505f600467ffffffffffffffff811115611084576110836117b0565b5b6040519080825280602002602001820160405280156110bd57816020015b6110aa6115bd565b8152602001906001900390816110a25790505b5090508a825f815181106110d4576110d3611d1b565b5b602002602001018190525088826001815181106110f4576110f3611d1b565b5b6020026020010181905250868260028151811061111457611113611d1b565b5b6020026020010181905250848260038151811061113457611133611d1b565b5b602002602001018190525089815f8151811061115357611152611d1b565b5b6020026020010181905250878160018151811061117357611172611d1b565b5b6020026020010181905250858160028151811061119357611192611d1b565b5b602002602001018190525083816003815181106111b3576111b2611d1b565b5b60200260200101819052506111c882826111d8565b9250505098975050505050505050565b5f81518351146111e6575f5ffd5b5f835190505f6006826111f99190611fa9565b90505f8167ffffffffffffffff811115611216576112156117b0565b5b6040519080825280602002602001820160405280156112445781602001602082028036833780820191505090505b5090505f5f90505b838110156114bf5786818151811061126757611266611d1b565b5b60200260200101515f0151825f6006846112819190611fa9565b61128b9190611ce8565b8151811061129c5761129b611d1b565b5b6020026020010181815250508681815181106112bb576112ba611d1b565b5b6020026020010151602001518260016006846112d79190611fa9565b6112e19190611ce8565b815181106112f2576112f1611d1b565b5b60200260200101818152505085818151811061131157611310611d1b565b5b60200260200101515f015160016002811061132f5761132e611d1b565b5b60200201518260026006846113449190611fa9565b61134e9190611ce8565b8151811061135f5761135e611d1b565b5b60200260200101818152505085818151811061137e5761137d611d1b565b5b60200260200101515f01515f6002811061139b5761139a611d1b565b5b60200201518260036006846113b09190611fa9565b6113ba9190611ce8565b815181106113cb576113ca611d1b565b5b6020026020010181815250508581815181106113ea576113e9611d1b565b5b60200260200101516020015160016002811061140957611408611d1b565b5b602002015182600460068461141e9190611fa9565b6114289190611ce8565b8151811061143957611438611d1b565b5b60200260200101818152505085818151811061145857611457611d1b565b5b6020026020010151602001515f6002811061147657611475611d1b565b5b602002015182600560068461148b9190611fa9565b6114959190611ce8565b815181106114a6576114a5611d1b565b5b602002602001018181525050808060010191505061124c565b506114c86115e3565b5f602082602086026020860160086107d05a03fa9050805f81036114e857fe5b50806114f2575f5ffd5b5f825f6001811061150657611505611d1b565b5b602002015114159550505050505092915050565b6040518060a0016040528061152d611561565b815260200161153a6115bd565b81526020016115476115bd565b81526020016115546115bd565b8152602001606081525090565b60405180604001604052805f81526020015f81525090565b6040518060600160405280600390602082028036833780820191505090505090565b6040518060800160405280600490602082028036833780820191505090505090565b60405180604001604052806115d0611605565b81526020016115dd611605565b81525090565b6040518060200160405280600190602082028036833780820191505090505090565b6040518060400160405280600290602082028036833780820191505090505090565b5f819050919050565b61163981611627565b82525050565b5f6020820190506116525f830184611630565b92915050565b5f604051905090565b5f5ffd5b5f5ffd5b5f610100828403121561167f5761167e611665565b5b81905092915050565b5f5ffd5b5f819050826020600402820111156116a7576116a6611688565b5b92915050565b6116b681611627565b81146116c0575f5ffd5b50565b5f813590506116d1816116ad565b92915050565b5f8115159050919050565b6116eb816116d7565b81146116f5575f5ffd5b50565b5f81359050611706816116e2565b92915050565b5f5f5f5f6101c0858703121561172557611724611661565b5b5f61173287828801611669565b9450506101006117448782880161168c565b935050610180611756878288016116c3565b9250506101a0611768878288016116f8565b91505092959194509250565b61177d816116d7565b82525050565b5f6020820190506117965f830184611774565b92915050565b5f5ffd5b5f601f19601f8301169050919050565b7f4e487b71000000000000000000000000000000000000000000000000000000005f52604160045260245ffd5b6117e6826117a0565b810181811067ffffffffffffffff82111715611805576118046117b0565b5b80604052505050565b5f611817611658565b905061182382826117dd565b919050565b5f6040828403121561183d5761183c61179c565b5b611847604061180e565b90505f611856848285016116c3565b5f830152506020611869848285016116c3565b60208301525092915050565b5f5ffd5b5f67ffffffffffffffff821115611893576118926117b0565b5b602082029050919050565b5f6118b06118ab84611879565b61180e565b905080602084028301858111156118ca576118c9611688565b5b835b818110156118f357806118df88826116c3565b8452602084019350506020810190506118cc565b5050509392505050565b5f82601f83011261191157611910611875565b5b600261191e84828561189e565b91505092915050565b5f6080828403121561193c5761193b61179c565b5b611946604061180e565b90505f611955848285016118fd565b5f830152506040611968848285016118fd565b60208301525092915050565b5f610100828403121561198a5761198961179c565b5b611994606061180e565b90505f6119a384828501611828565b5f8301525060406119b684828501611927565b60208301525060c06119ca84828501611828565b60408301525092915050565b5f67ffffffffffffffff8211156119f0576119ef6117b0565b5b602082029050919050565b5f611a0d611a08846119d6565b61180e565b90508060208402830185811115611a2757611a26611688565b5b835b81811015611a505780611a3c88826116c3565b845260208401935050602081019050611a29565b5050509392505050565b5f82601f830112611a6e57611a6d611875565b5b6004611a7b8482856119fb565b91505092915050565b5f5f6101808385031215611a9b57611a9a611661565b5b5f611aa885828601611974565b925050610100611aba85828601611a5a565b9150509250929050565b5f60208284031215611ad957611ad8611661565b5b5f611ae6848285016116c3565b91505092915050565b5f73ffffffffffffffffffffffffffffffffffffffff82169050919050565b5f611b1882611aef565b9050919050565b611b2881611b0e565b82525050565b5f602082019050611b415f830184611b1f565b92915050565b5f82825260208201905092915050565b7f456c656363696f6e2063657272616461000000000000000000000000000000005f82015250565b5f611b8b601083611b47565b9150611b9682611b57565b602082019050919050565b5f6020820190508181035f830152611bb881611b7f565b9050919050565b7f4e756c6c6966696572207961207574696c697a61646f000000000000000000005f82015250565b5f611bf3601683611b47565b9150611bfe82611bbf565b602082019050919050565b5f6020820190508181035f830152611c2081611be7565b9050919050565b5f6101008284031215611c3d57611c3c611661565b5b5f611c4a84828501611974565b91505092915050565b7f496e76616c6964205a4b2070726f6f66000000000000000000000000000000005f82015250565b5f611c87601083611b47565b9150611c9282611c53565b602082019050919050565b5f6020820190508181035f830152611cb481611c7b565b9050919050565b7f4e487b71000000000000000000000000000000000000000000000000000000005f52601160045260245ffd5b5f611cf282611627565b9150611cfd83611627565b9250828201905080821115611d1557611d14611cbb565b5b92915050565b7f4e487b71000000000000000000000000000000000000000000000000000000005f52603260045260245ffd5b5f60029050919050565b5f81905092915050565b5f819050919050565b611d6e81611627565b82525050565b5f611d7f8383611d65565b60208301905092915050565b5f602082019050919050565b611da081611d48565b611daa8184611d52565b9250611db582611d5c565b805f5b83811015611de5578151611dcc8782611d74565b9650611dd783611d8b565b925050600181019050611db8565b505050505050565b5f60a082019050611e005f830186611d97565b611e0d6040830185611d97565b611e1a6080830184611630565b949350505050565b7f4f6e6c79206f776e6572000000000000000000000000000000000000000000005f82015250565b5f611e56600a83611b47565b9150611e6182611e22565b602082019050919050565b5f6020820190508181035f830152611e8381611e4a565b9050919050565b7f456c656374696f6e207374696c6c206f70656e000000000000000000000000005f82015250565b5f611ebe601383611b47565b9150611ec982611e8a565b602082019050919050565b5f6020820190508181035f830152611eeb81611eb2565b9050919050565b5f604082019050611f055f830185611630565b611f126020830184611630565b9392505050565b7f4e487b71000000000000000000000000000000000000000000000000000000005f52601260045260245ffd5b5f611f5082611627565b9150611f5b83611627565b925082611f6b57611f6a611f19565b5b828206905092915050565b5f611f8082611627565b9150611f8b83611627565b9250828203905081811115611fa357611fa2611cbb565b5b92915050565b5f611fb382611627565b9150611fbe83611627565b9250828202611fcc81611627565b91508282048414831517611fe357611fe2611cbb565b5b509291505056fea26469706673582212206285511f2ab703d186225a1177908012d4d5c1b47c8f2880082e7e7c86e2818164736f6c634300081e0033",
			"opcodes": "PUSH1 0x80 PUSH1 0x40 MSTORE PUSH1 0x1 PUSH0 PUSH1 0x14 PUSH2 0x100 EXP DUP2 SLOAD DUP2 PUSH1 0xFF MUL NOT AND SWAP1 DUP4 ISZERO ISZERO MUL OR SWAP1 SSTORE POP CALLVALUE DUP1 ISZERO PUSH2 0x29 JUMPI PUSH0 PUSH0 REVERT JUMPDEST POP PUSH1 0x40 MLOAD PUSH2 0x2126 CODESIZE SUB DUP1 PUSH2 0x2126 DUP4 CODECOPY DUP2 DUP2 ADD PUSH1 0x40 MSTORE DUP2 ADD SWAP1 PUSH2 0x4B SWAP2 SWAP1 PUSH2 0xCE JUMP JUMPDEST CALLER PUSH0 PUSH0 PUSH2 0x100 EXP DUP2 SLOAD DUP2 PUSH20 0xFFFFFFFFFFFFFFFFFFFFFFFFFFFFFFFFFFFFFFFF MUL NOT AND SWAP1 DUP4 PUSH20 0xFFFFFFFFFFFFFFFFFFFFFFFFFFFFFFFFFFFFFFFF AND MUL OR SWAP1 SSTORE POP DUP1 PUSH1 0x1 DUP2 SWAP1 SSTORE POP POP PUSH2 0xF9 JUMP JUMPDEST PUSH0 PUSH0 REVERT JUMPDEST PUSH0 DUP2 SWAP1 POP SWAP2 SWAP1 POP JUMP JUMPDEST PUSH2 0xAD DUP2 PUSH2 0x9B JUMP JUMPDEST DUP2 EQ PUSH2 0xB7 JUMPI PUSH0 PUSH0 REVERT JUMPDEST POP JUMP JUMPDEST PUSH0 DUP2 MLOAD SWAP1 POP PUSH2 0xC8 DUP2 PUSH2 0xA4 JUMP JUMPDEST SWAP3 SWAP2 POP POP JUMP JUMPDEST PUSH0 PUSH1 0x20 DUP3 DUP5 SUB SLT ISZERO PUSH2 0xE3 JUMPI PUSH2 0xE2 PUSH2 0x97 JUMP JUMPDEST JUMPDEST PUSH0 PUSH2 0xF0 DUP5 DUP3 DUP6 ADD PUSH2 0xBA JUMP JUMPDEST SWAP2 POP POP SWAP3 SWAP2 POP POP JUMP JUMPDEST PUSH2 0x2020 DUP1 PUSH2 0x106 PUSH0 CODECOPY PUSH0 RETURN INVALID PUSH1 0x80 PUSH1 0x40 MSTORE CALLVALUE DUP1 ISZERO PUSH2 0xF JUMPI PUSH0 PUSH0 REVERT JUMPDEST POP PUSH1 0x4 CALLDATASIZE LT PUSH2 0x9C JUMPI PUSH0 CALLDATALOAD PUSH1 0xE0 SHR DUP1 PUSH4 0x79F95EE9 GT PUSH2 0x64 JUMPI DUP1 PUSH4 0x79F95EE9 EQ PUSH2 0x132 JUMPI DUP1 PUSH4 0x8DA5CB5B EQ PUSH2 0x162 JUMPI DUP1 PUSH4 0x9AA69136 EQ PUSH2 0x180 JUMPI DUP1 PUSH4 0xB952E7D8 EQ PUSH2 0x19E JUMPI DUP1 PUSH4 0xEBF0C717 EQ PUSH2 0x1A8 JUMPI PUSH2 0x9C JUMP JUMPDEST DUP1 PUSH4 0x1327E258 EQ PUSH2 0xA0 JUMPI DUP1 PUSH4 0x249F66C6 EQ PUSH2 0xBE JUMPI DUP1 PUSH4 0x4A39D442 EQ PUSH2 0xDA JUMPI DUP1 PUSH4 0x6C6C32D0 EQ PUSH2 0xF8 JUMPI DUP1 PUSH4 0x799AFA76 EQ PUSH2 0x102 JUMPI JUMPDEST PUSH0 PUSH0 REVERT JUMPDEST PUSH2 0xA8 PUSH2 0x1C6 JUMP JUMPDEST PUSH1 0x40 MLOAD PUSH2 0xB5 SWAP2 SWAP1 PUSH2 0x163F JUMP JUMPDEST PUSH1 0x40 MLOAD DUP1 SWAP2 SUB SWAP1 RETURN JUMPDEST PUSH2 0xD8 PUSH1 0x4 DUP1 CALLDATASIZE SUB DUP2 ADD SWAP1 PUSH2 0xD3 SWAP2 SWAP1 PUSH2 0x170C JUMP JUMPDEST PUSH2 0x1CC JUMP JUMPDEST STOP JUMPDEST PUSH2 0xE2 PUSH2 0x436 JUMP JUMPDEST PUSH1 0x40 MLOAD PUSH2 0xEF SWAP2 SWAP1 PUSH2 0x1783 JUMP JUMPDEST PUSH1 0x40 MLOAD DUP1 SWAP2 SUB SWAP1 RETURN JUMPDEST PUSH2 0x100 PUSH2 0x448 JUMP JUMPDEST STOP JUMPDEST PUSH2 0x11C PUSH1 0x4 DUP1 CALLDATASIZE SUB DUP2 ADD SWAP1 PUSH2 0x117 SWAP2 SWAP1 PUSH2 0x1A84 JUMP JUMPDEST PUSH2 0x4F1 JUMP JUMPDEST PUSH1 0x40 MLOAD PUSH2 0x129 SWAP2 SWAP1 PUSH2 0x1783 JUMP JUMPDEST PUSH1 0x40 MLOAD DUP1 SWAP2 SUB SWAP1 RETURN JUMPDEST PUSH2 0x14C PUSH1 0x4 DUP1 CALLDATASIZE SUB DUP2 ADD SWAP1 PUSH2 0x147 SWAP2 SWAP1 PUSH2 0x1AC4 JUMP JUMPDEST PUSH2 0x5B7 JUMP JUMPDEST PUSH1 0x40 MLOAD PUSH2 0x159 SWAP2 SWAP1 PUSH2 0x1783 JUMP JUMPDEST PUSH1 0x40 MLOAD DUP1 SWAP2 SUB SWAP1 RETURN JUMPDEST PUSH2 0x16A PUSH2 0x5D4 JUMP JUMPDEST PUSH1 0x40 MLOAD PUSH2 0x177 SWAP2 SWAP1 PUSH2 0x1B2E JUMP JUMPDEST PUSH1 0x40 MLOAD DUP1 SWAP2 SUB SWAP1 RETURN JUMPDEST PUSH2 0x188 PUSH2 0x5F8 JUMP JUMPDEST PUSH1 0x40 MLOAD PUSH2 0x195 SWAP2 SWAP1 PUSH2 0x163F JUMP JUMPDEST PUSH1 0x40 MLOAD DUP1 SWAP2 SUB SWAP1 RETURN JUMPDEST PUSH2 0x1A6 PUSH2 0x5FE JUMP JUMPDEST STOP JUMPDEST PUSH2 0x1B0 PUSH2 0x71A JUMP JUMPDEST PUSH1 0x40 MLOAD PUSH2 0x1BD SWAP2 SWAP1 PUSH2 0x163F JUMP JUMPDEST PUSH1 0x40 MLOAD DUP1 SWAP2 SUB SWAP1 RETURN JUMPDEST PUSH1 0x3 SLOAD DUP2 JUMP JUMPDEST PUSH0 PUSH1 0x14 SWAP1 SLOAD SWAP1 PUSH2 0x100 EXP SWAP1 DIV PUSH1 0xFF AND PUSH2 0x21A JUMPI PUSH1 0x40 MLOAD PUSH32 0x8C379A000000000000000000000000000000000000000000000000000000000 DUP2 MSTORE PUSH1 0x4 ADD PUSH2 0x211 SWAP1 PUSH2 0x1BA1 JUMP JUMPDEST PUSH1 0x40 MLOAD DUP1 SWAP2 SUB SWAP1 REVERT JUMPDEST PUSH1 0x4 PUSH0 DUP4 DUP2 MSTORE PUSH1 0x20 ADD SWAP1 DUP2 MSTORE PUSH1 0x20 ADD PUSH0 KECCAK256 PUSH0 SWAP1 SLOAD SWAP1 PUSH2 0x100 EXP SWAP1 DIV PUSH1 0xFF AND ISZERO PUSH2 0x278 JUMPI PUSH1 0x40 MLOAD PUSH32 0x8C379A000000000000000000000000000000000000000000000000000000000 DUP2 MSTORE PUSH1 0x4 ADD PUSH2 0x26F SWAP1 PUSH2 0x1C09 JUMP JUMPDEST PUSH1 0x40 MLOAD DUP1 SWAP2 SUB SWAP1 REVERT JUMPDEST PUSH2 0x2C8 DUP5 DUP1 CALLDATASIZE SUB DUP2 ADD SWAP1 PUSH2 0x28C SWAP2 SWAP1 PUSH2 0x1C27 JUMP JUMPDEST DUP5 PUSH1 0x4 DUP1 PUSH1 0x20 MUL PUSH1 0x40 MLOAD SWAP1 DUP2 ADD PUSH1 0x40 MSTORE DUP1 SWAP3 SWAP2 SWAP1 DUP3 PUSH1 0x4 PUSH1 0x20 MUL DUP1 DUP3 DUP5 CALLDATACOPY PUSH0 DUP2 DUP5 ADD MSTORE PUSH1 0x1F NOT PUSH1 0x1F DUP3 ADD AND SWAP1 POP DUP1 DUP4 ADD SWAP3 POP POP POP POP POP POP PUSH2 0x4F1 JUMP JUMPDEST PUSH2 0x307 JUMPI PUSH1 0x40 MLOAD PUSH32 0x8C379A000000000000000000000000000000000000000000000000000000000 DUP2 MSTORE PUSH1 0x4 ADD PUSH2 0x2FE SWAP1 PUSH2 0x1C9D JUMP JUMPDEST PUSH1 0x40 MLOAD DUP1 SWAP2 SUB SWAP1 REVERT JUMPDEST PUSH1 0x1 PUSH1 0x4 PUSH0 DUP5 DUP2 MSTORE PUSH1 0x20 ADD SWAP1 DUP2 MSTORE PUSH1 0x20 ADD PUSH0 KECCAK256 PUSH0 PUSH2 0x100 EXP DUP2 SLOAD DUP2 PUSH1 0xFF MUL NOT AND SWAP1 DUP4 ISZERO ISZERO MUL OR SWAP1 SSTORE POP DUP1 ISZERO PUSH2 0x354 JUMPI PUSH1 0x1 PUSH1 0x3 PUSH0 DUP3 DUP3 SLOAD PUSH2 0x348 SWAP2 SWAP1 PUSH2 0x1CE8 JUMP JUMPDEST SWAP3 POP POP DUP2 SWAP1 SSTORE POP PUSH2 0x36E JUMP JUMPDEST PUSH1 0x1 PUSH1 0x2 PUSH0 DUP3 DUP3 SLOAD PUSH2 0x366 SWAP2 SWAP1 PUSH2 0x1CE8 JUMP JUMPDEST SWAP3 POP POP DUP2 SWAP1 SSTORE POP JUMPDEST PUSH32 0x13B68C699A704C5D2A4A72F379BB25ECCD08E5A21A3FC611AA82A031461969ED PUSH1 0x40 MLOAD DUP1 PUSH1 0x40 ADD PUSH1 0x40 MSTORE DUP1 DUP6 PUSH0 PUSH1 0x4 DUP2 LT PUSH2 0x3AD JUMPI PUSH2 0x3AC PUSH2 0x1D1B JUMP JUMPDEST JUMPDEST PUSH1 0x20 MUL ADD CALLDATALOAD DUP2 MSTORE PUSH1 0x20 ADD DUP6 PUSH1 0x1 PUSH1 0x4 DUP2 LT PUSH2 0x3CB JUMPI PUSH2 0x3CA PUSH2 0x1D1B JUMP JUMPDEST JUMPDEST PUSH1 0x20 MUL ADD CALLDATALOAD DUP2 MSTORE POP PUSH1 0x40 MLOAD DUP1 PUSH1 0x40 ADD PUSH1 0x40 MSTORE DUP1 DUP7 PUSH1 0x2 PUSH1 0x4 DUP2 LT PUSH2 0x3F2 JUMPI PUSH2 0x3F1 PUSH2 0x1D1B JUMP JUMPDEST JUMPDEST PUSH1 0x20 MUL ADD CALLDATALOAD DUP2 MSTORE PUSH1 0x20 ADD DUP7 PUSH1 0x3 PUSH1 0x4 DUP2 LT PUSH2 0x410 JUMPI PUSH2 0x40F PUSH2 0x1D1B JUMP JUMPDEST JUMPDEST PUSH1 0x20 MUL ADD CALLDATALOAD DUP2 MSTORE POP DUP5 PUSH1 0x40 MLOAD PUSH2 0x428 SWAP4 SWAP3 SWAP2 SWAP1 PUSH2 0x1DED JUMP JUMPDEST PUSH1 0x40 MLOAD DUP1 SWAP2 SUB SWAP1 LOG1 POP POP POP POP JUMP JUMPDEST PUSH0 PUSH1 0x14 SWAP1 SLOAD SWAP1 PUSH2 0x100 EXP SWAP1 DIV PUSH1 0xFF AND DUP2 JUMP JUMPDEST PUSH0 PUSH0 SWAP1 SLOAD SWAP1 PUSH2 0x100 EXP SWAP1 DIV PUSH20 0xFFFFFFFFFFFFFFFFFFFFFFFFFFFFFFFFFFFFFFFF AND PUSH20 0xFFFFFFFFFFFFFFFFFFFFFFFFFFFFFFFFFFFFFFFF AND CALLER PUSH20 0xFFFFFFFFFFFFFFFFFFFFFFFFFFFFFFFFFFFFFFFF AND EQ PUSH2 0x4D6 JUMPI PUSH1 0x40 MLOAD PUSH32 0x8C379A000000000000000000000000000000000000000000000000000000000 DUP2 MSTORE PUSH1 0x4 ADD PUSH2 0x4CD SWAP1 PUSH2 0x1E6C JUMP JUMPDEST PUSH1 0x40 MLOAD DUP1 SWAP2 SUB SWAP1 REVERT JUMPDEST PUSH0 PUSH0 PUSH1 0x14 PUSH2 0x100 EXP DUP2 SLOAD DUP2 PUSH1 0xFF MUL NOT AND SWAP1 DUP4 ISZERO ISZERO MUL OR SWAP1 SSTORE POP JUMP JUMPDEST PUSH0 PUSH0 PUSH1 0x4 PUSH8 0xFFFFFFFFFFFFFFFF DUP2 GT ISZERO PUSH2 0x50E JUMPI PUSH2 0x50D PUSH2 0x17B0 JUMP JUMPDEST JUMPDEST PUSH1 0x40 MLOAD SWAP1 DUP1 DUP3 MSTORE DUP1 PUSH1 0x20 MUL PUSH1 0x20 ADD DUP3 ADD PUSH1 0x40 MSTORE DUP1 ISZERO PUSH2 0x53C JUMPI DUP2 PUSH1 0x20 ADD PUSH1 0x20 DUP3 MUL DUP1 CALLDATASIZE DUP4 CALLDATACOPY DUP1 DUP3 ADD SWAP2 POP POP SWAP1 POP JUMPDEST POP SWAP1 POP PUSH0 PUSH0 SWAP1 POP JUMPDEST PUSH1 0x4 DUP2 LT ISZERO PUSH2 0x591 JUMPI DUP4 DUP2 PUSH1 0x4 DUP2 LT PUSH2 0x560 JUMPI PUSH2 0x55F PUSH2 0x1D1B JUMP JUMPDEST JUMPDEST PUSH1 0x20 MUL ADD MLOAD DUP3 DUP3 DUP2 MLOAD DUP2 LT PUSH2 0x578 JUMPI PUSH2 0x577 PUSH2 0x1D1B JUMP JUMPDEST JUMPDEST PUSH1 0x20 MUL PUSH1 0x20 ADD ADD DUP2 DUP2 MSTORE POP POP DUP1 DUP1 PUSH1 0x1 ADD SWAP2 POP POP PUSH2 0x544 JUMP JUMPDEST POP PUSH0 PUSH2 0x59D DUP3 DUP7 PUSH2 0x720 JUMP JUMPDEST SUB PUSH2 0x5AC JUMPI PUSH1 0x1 SWAP2 POP POP PUSH2 0x5B1 JUMP JUMPDEST PUSH0 SWAP2 POP POP JUMPDEST SWAP3 SWAP2 POP POP JUMP JUMPDEST PUSH1 0x4 PUSH1 0x20 MSTORE DUP1 PUSH0 MSTORE PUSH1 0x40 PUSH0 KECCAK256 PUSH0 SWAP2 POP SLOAD SWAP1 PUSH2 0x100 EXP SWAP1 DIV PUSH1 0xFF AND DUP2 JUMP JUMPDEST PUSH0 PUSH0 SWAP1 SLOAD SWAP1 PUSH2 0x100 EXP SWAP1 DIV PUSH20 0xFFFFFFFFFFFFFFFFFFFFFFFFFFFFFFFFFFFFFFFF AND DUP2 JUMP JUMPDEST PUSH1 0x2 SLOAD DUP2 JUMP JUMPDEST PUSH0 PUSH0 SWAP1 SLOAD SWAP1 PUSH2 0x100 EXP SWAP1 DIV PUSH20 0xFFFFFFFFFFFFFFFFFFFFFFFFFFFFFFFFFFFFFFFF AND PUSH20 0xFFFFFFFFFFFFFFFFFFFFFFFFFFFFFFFFFFFFFFFF AND CALLER PUSH20 0xFFFFFFFFFFFFFFFFFFFFFFFFFFFFFFFFFFFFFFFF AND EQ PUSH2 0x68C JUMPI PUSH1 0x40 MLOAD PUSH32 0x8C379A000000000000000000000000000000000000000000000000000000000 DUP2 MSTORE PUSH1 0x4 ADD PUSH2 0x683 SWAP1 PUSH2 0x1E6C JUMP JUMPDEST PUSH1 0x40 MLOAD DUP1 SWAP2 SUB SWAP1 REVERT JUMPDEST PUSH0 PUSH1 0x14 SWAP1 SLOAD SWAP1 PUSH2 0x100 EXP SWAP1 DIV PUSH1 0xFF AND ISZERO PUSH2 0x6DB JUMPI PUSH1 0x40 MLOAD PUSH32 0x8C379A000000000000000000000000000000000000000000000000000000000 DUP2 MSTORE PUSH1 0x4 ADD PUSH2 0x6D2 SWAP1 PUSH2 0x1ED4 JUMP JUMPDEST PUSH1 0x40 MLOAD DUP1 SWAP2 SUB SWAP1 REVERT JUMPDEST PUSH32 0x118F959A74F702CDC24614CE54EAADA8F5B8E1B01A9BCF1D1B2FE673BEDC5147 PUSH1 0x2 SLOAD PUSH1 0x3 SLOAD PUSH1 0x40 MLOAD PUSH2 0x710 SWAP3 SWAP2 SWAP1 PUSH2 0x1EF2 JUMP JUMPDEST PUSH1 0x40 MLOAD DUP1 SWAP2 SUB SWAP1 LOG1 JUMP JUMPDEST PUSH1 0x1 SLOAD DUP2 JUMP JUMPDEST PUSH0 PUSH0 PUSH32 0x30644E72E131A029B85045B68181585D2833E84879B9709143E1F593F0000001 SWAP1 POP PUSH0 PUSH2 0x74E PUSH2 0x8A8 JUMP JUMPDEST SWAP1 POP DUP1 PUSH1 0x80 ADD MLOAD MLOAD PUSH1 0x1 DUP7 MLOAD PUSH2 0x764 SWAP2 SWAP1 PUSH2 0x1CE8 JUMP JUMPDEST EQ PUSH2 0x76D JUMPI PUSH0 PUSH0 REVERT JUMPDEST PUSH0 PUSH1 0x40 MLOAD DUP1 PUSH1 0x40 ADD PUSH1 0x40 MSTORE DUP1 PUSH0 DUP2 MSTORE PUSH1 0x20 ADD PUSH0 DUP2 MSTORE POP SWAP1 POP PUSH0 PUSH0 SWAP1 POP JUMPDEST DUP7 MLOAD DUP2 LT ISZERO PUSH2 0x81E JUMPI DUP4 DUP8 DUP3 DUP2 MLOAD DUP2 LT PUSH2 0x7A7 JUMPI PUSH2 0x7A6 PUSH2 0x1D1B JUMP JUMPDEST JUMPDEST PUSH1 0x20 MUL PUSH1 0x20 ADD ADD MLOAD LT PUSH2 0x7B8 JUMPI PUSH0 PUSH0 REVERT JUMPDEST PUSH2 0x80F DUP3 PUSH2 0x80A DUP6 PUSH1 0x80 ADD MLOAD PUSH1 0x1 DUP6 PUSH2 0x7D1 SWAP2 SWAP1 PUSH2 0x1CE8 JUMP JUMPDEST DUP2 MLOAD DUP2 LT PUSH2 0x7E2 JUMPI PUSH2 0x7E1 PUSH2 0x1D1B JUMP JUMPDEST JUMPDEST PUSH1 0x20 MUL PUSH1 0x20 ADD ADD MLOAD DUP11 DUP6 DUP2 MLOAD DUP2 LT PUSH2 0x7FD JUMPI PUSH2 0x7FC PUSH2 0x1D1B JUMP JUMPDEST JUMPDEST PUSH1 0x20 MUL PUSH1 0x20 ADD ADD MLOAD PUSH2 0xE12 JUMP JUMPDEST PUSH2 0xEAF JUMP JUMPDEST SWAP2 POP DUP1 DUP1 PUSH1 0x1 ADD SWAP2 POP POP PUSH2 0x78A JUMP JUMPDEST POP PUSH2 0x847 DUP2 DUP4 PUSH1 0x80 ADD MLOAD PUSH0 DUP2 MLOAD DUP2 LT PUSH2 0x83A JUMPI PUSH2 0x839 PUSH2 0x1D1B JUMP JUMPDEST JUMPDEST PUSH1 0x20 MUL PUSH1 0x20 ADD ADD MLOAD PUSH2 0xEAF JUMP JUMPDEST SWAP1 POP PUSH2 0x88B DUP6 PUSH0 ADD MLOAD DUP7 PUSH1 0x20 ADD MLOAD PUSH2 0x85E DUP5 PUSH2 0xF71 JUMP JUMPDEST DUP6 PUSH1 0x40 ADD MLOAD PUSH2 0x870 DUP11 PUSH1 0x40 ADD MLOAD PUSH2 0xF71 JUMP JUMPDEST DUP8 PUSH1 0x60 ADD MLOAD PUSH2 0x881 DUP10 PUSH0 ADD MLOAD PUSH2 0xF71 JUMP JUMPDEST DUP10 PUSH1 0x20 ADD MLOAD PUSH2 0x100F JUMP JUMPDEST PUSH2 0x89B JUMPI PUSH1 0x1 SWAP4 POP POP POP POP PUSH2 0x8A2 JUMP JUMPDEST PUSH0 SWAP4 POP POP POP POP JUMPDEST SWAP3 SWAP2 POP POP JUMP JUMPDEST PUSH2 0x8B0 PUSH2 0x151A JUMP JUMPDEST PUSH1 0x40 MLOAD DUP1 PUSH1 0x40 ADD PUSH1 0x40 MSTORE DUP1 PUSH32 0x1F7831672127BB363374647D0C87A31CE91A1C685D875A53A5CAC600FAEDED4F DUP2 MSTORE PUSH1 0x20 ADD PUSH32 0x7670423DE21A7BDB3578FFB77B415C2EA786E4E502990BD70F5466F912D2852 DUP2 MSTORE POP DUP2 PUSH0 ADD DUP2 SWAP1 MSTORE POP PUSH1 0x40 MLOAD DUP1 PUSH1 0x40 ADD PUSH1 0x40 MSTORE DUP1 PUSH1 0x40 MLOAD DUP1 PUSH1 0x40 ADD PUSH1 0x40 MSTORE DUP1 PUSH32 0x159B583D51881A3D382C9A4E3FD9A650135055063B6A6B22721D76173DFBAB2D DUP2 MSTORE PUSH1 0x20 ADD PUSH32 0x4139747AF7047FE4CF264D25B15235F4EC43BB38E7A688567F031C5E2D920E0 DUP2 MSTORE POP DUP2 MSTORE PUSH1 0x20 ADD PUSH1 0x40 MLOAD DUP1 PUSH1 0x40 ADD PUSH1 0x40 MSTORE DUP1 PUSH32 0x1FC4A8D05593DB0D87F4F97E5F91AE18430ACA05A0CF38232EEAE735FE87454B DUP2 MSTORE PUSH1 0x20 ADD PUSH32 0x10EA261691552FFB0A35FED505CD904AC01E01ABF590A16AD75E2B8986F8A0A6 DUP2 MSTORE POP DUP2 MSTORE POP DUP2 PUSH1 0x20 ADD DUP2 SWAP1 MSTORE POP PUSH1 0x40 MLOAD DUP1 PUSH1 0x40 ADD PUSH1 0x40 MSTORE DUP1 PUSH1 0x40 MLOAD DUP1 PUSH1 0x40 ADD PUSH1 0x40 MSTORE DUP1 PUSH32 0x2F4D859E096097FCB241BDB87257410EE80B2524F44733A8ADD221E92BBB9D48 DUP2 MSTORE PUSH1 0x20 ADD PUSH32 0x216BEDC2A1AB164892327794537E324BDB9118BF6EBE21459983E953B550BEA DUP2 MSTORE POP DUP2 MSTORE PUSH1 0x20 ADD PUSH1 0x40 MLOAD DUP1 PUSH1 0x40 ADD PUSH1 0x40 MSTORE DUP1 PUSH32 0x2E50D45CEB04B952F390BD9E7C421DB774D9CAD30BE64A8541D221F9CAB6FE05 DUP2 MSTORE PUSH1 0x20 ADD PUSH32 0x92209F9C9688A024370181DC66215AC222860E409B6AA5BC1F01FCB4BAADF70 DUP2 MSTORE POP DUP2 MSTORE POP DUP2 PUSH1 0x40 ADD DUP2 SWAP1 MSTORE POP PUSH1 0x40 MLOAD DUP1 PUSH1 0x40 ADD PUSH1 0x40 MSTORE DUP1 PUSH1 0x40 MLOAD DUP1 PUSH1 0x40 ADD PUSH1 0x40 MSTORE DUP1 PUSH32 0x306D089D5F2BB7C7F566C89AE7621FD4F9A125E4C1634D121F4346D19542B60 DUP2 MSTORE PUSH1 0x20 ADD PUSH32 0x29B81308A9E273F8CF524D7AB1A777751FDC2477F3F0921756E6A3D1F6C1996B DUP2 MSTORE POP DUP2 MSTORE PUSH1 0x20 ADD PUSH1 0x40 MLOAD DUP1 PUSH1 0x40 ADD PUSH1 0x40 MSTORE DUP1 PUSH32 0x1D7247377DF3C9907BC574ECA03EDB7EE6BE018F01A00897DDA62C17D9218575 DUP2 MSTORE PUSH1 0x20 ADD PUSH32 0x289C126CE263DE6300C6134B4E06559E4023BB41546866016334E23347D44F56 DUP2 MSTORE POP DUP2 MSTORE POP DUP2 PUSH1 0x60 ADD DUP2 SWAP1 MSTORE POP PUSH1 0x5 PUSH8 0xFFFFFFFFFFFFFFFF DUP2 GT ISZERO PUSH2 0xB76 JUMPI PUSH2 0xB75 PUSH2 0x17B0 JUMP JUMPDEST JUMPDEST PUSH1 0x40 MLOAD SWAP1 DUP1 DUP3 MSTORE DUP1 PUSH1 0x20 MUL PUSH1 0x20 ADD DUP3 ADD PUSH1 0x40 MSTORE DUP1 ISZERO PUSH2 0xBAF JUMPI DUP2 PUSH1 0x20 ADD JUMPDEST PUSH2 0xB9C PUSH2 0x1561 JUMP JUMPDEST DUP2 MSTORE PUSH1 0x20 ADD SWAP1 PUSH1 0x1 SWAP1 SUB SWAP1 DUP2 PUSH2 0xB94 JUMPI SWAP1 POP JUMPDEST POP DUP2 PUSH1 0x80 ADD DUP2 SWAP1 MSTORE POP PUSH1 0x40 MLOAD DUP1 PUSH1 0x40 ADD PUSH1 0x40 MSTORE DUP1 PUSH32 0x1FF6515DF24714BEB6BEC648702CD88F0786A266AAF3CEE0C4791CFF6C53D35E DUP2 MSTORE PUSH1 0x20 ADD PUSH32 0x1E74942A208AB7636752DD9F910B0DE565526B80AB4DBDB1942B116D02603E21 DUP2 MSTORE POP DUP2 PUSH1 0x80 ADD MLOAD PUSH0 DUP2 MLOAD DUP2 LT PUSH2 0xC24 JUMPI PUSH2 0xC23 PUSH2 0x1D1B JUMP JUMPDEST JUMPDEST PUSH1 0x20 MUL PUSH1 0x20 ADD ADD DUP2 SWAP1 MSTORE POP PUSH1 0x40 MLOAD DUP1 PUSH1 0x40 ADD PUSH1 0x40 MSTORE DUP1 PUSH32 0xA90E62D51D3F72378DDBE28514CDCAC96876323092907FCCA74F8CF8418B7F0 DUP2 MSTORE PUSH1 0x20 ADD PUSH32 0x300713F90EE55C54909DB0ADABBF98487A86992617E1143F646ED9F460D52EAD DUP2 MSTORE POP DUP2 PUSH1 0x80 ADD MLOAD PUSH1 0x1 DUP2 MLOAD DUP2 LT PUSH2 0xC9C JUMPI PUSH2 0xC9B PUSH2 0x1D1B JUMP JUMPDEST JUMPDEST PUSH1 0x20 MUL PUSH1 0x20 ADD ADD DUP2 SWAP1 MSTORE POP PUSH1 0x40 MLOAD DUP1 PUSH1 0x40 ADD PUSH1 0x40 MSTORE DUP1 PUSH32 0x1654353E47FF9707AB0F55AF2ED3CA63994D4C0E6389CB4752844400A13C2905 DUP2 MSTORE PUSH1 0x20 ADD PUSH32 0xC78254A4716A42E8BF12038F2A11F9C66DCDCA054CAAEFE00A540EE0BEAFDE6 DUP2 MSTORE POP DUP2 PUSH1 0x80 ADD MLOAD PUSH1 0x2 DUP2 MLOAD DUP2 LT PUSH2 0xD14 JUMPI PUSH2 0xD13 PUSH2 0x1D1B JUMP JUMPDEST JUMPDEST PUSH1 0x20 MUL PUSH1 0x20 ADD ADD DUP2 SWAP1 MSTORE POP PUSH1 0x40 MLOAD DUP1 PUSH1 0x40 ADD PUSH1 0x40 MSTORE DUP1 PUSH32 0x1DAE2230CC5D0736855C7052A432659F83440D5886F19E6FFE4035D58BB16168 DUP2 MSTORE PUSH1 0x20 ADD PUSH32 0x129A45FEFAD763D1E4EBAA56312122372FCBA4CEA3B6E81DC6CFE3CEFDE2026B DUP2 MSTORE POP DUP2 PUSH1 0x80 ADD MLOAD PUSH1 0x3 DUP2 MLOAD DUP2 LT PUSH2 0xD8C JUMPI PUSH2 0xD8B PUSH2 0x1D1B JUMP JUMPDEST JUMPDEST PUSH1 0x20 MUL PUSH1 0x20 ADD ADD DUP2 SWAP1 MSTORE POP PUSH1 0x40 MLOAD DUP1 PUSH1 0x40 ADD PUSH1 0x40 MSTORE DUP1 PUSH32 0x6DE78707393BD9EB1C9D0A3ADC107320BBC90BA7F1985E844B7A9D30970403B DUP2 MSTORE PUSH1 0x20 ADD PUSH32 0x22500A1CB2C7A6DB8D193E1A32D1054D581D6BC6A066637DDF2D24E26C56E8CE DUP2 MSTORE POP DUP2 PUSH1 0x80 ADD MLOAD PUSH1 0x4 DUP2 MLOAD DUP2 LT PUSH2 0xE04 JUMPI PUSH2 0xE03 PUSH2 0x1D1B JUMP JUMPDEST JUMPDEST PUSH1 0x20 MUL PUSH1 0x20 ADD ADD DUP2 SWAP1 MSTORE POP SWAP1 JUMP JUMPDEST PUSH2 0xE1A PUSH2 0x1561 JUMP JUMPDEST PUSH2 0xE22 PUSH2 0x1579 JUMP JUMPDEST DUP4 PUSH0 ADD MLOAD DUP2 PUSH0 PUSH1 0x3 DUP2 LT PUSH2 0xE39 JUMPI PUSH2 0xE38 PUSH2 0x1D1B JUMP JUMPDEST JUMPDEST PUSH1 0x20 MUL ADD DUP2 DUP2 MSTORE POP POP DUP4 PUSH1 0x20 ADD MLOAD DUP2 PUSH1 0x1 PUSH1 0x3 DUP2 LT PUSH2 0xE5B JUMPI PUSH2 0xE5A PUSH2 0x1D1B JUMP JUMPDEST JUMPDEST PUSH1 0x20 MUL ADD DUP2 DUP2 MSTORE POP POP DUP3 DUP2 PUSH1 0x2 PUSH1 0x3 DUP2 LT PUSH2 0xE79 JUMPI PUSH2 0xE78 PUSH2 0x1D1B JUMP JUMPDEST JUMPDEST PUSH1 0x20 MUL ADD DUP2 DUP2 MSTORE POP POP PUSH0 PUSH1 0x60 DUP4 PUSH1 0x80 DUP5 PUSH1 0x7 PUSH2 0x7D0 GAS SUB STATICCALL SWAP1 POP DUP1 PUSH0 DUP2 SUB PUSH2 0xE9D JUMPI INVALID JUMPDEST POP DUP1 PUSH2 0xEA7 JUMPI PUSH0 PUSH0 REVERT JUMPDEST POP POP SWAP3 SWAP2 POP POP JUMP JUMPDEST PUSH2 0xEB7 PUSH2 0x1561 JUMP JUMPDEST PUSH2 0xEBF PUSH2 0x159B JUMP JUMPDEST DUP4 PUSH0 ADD MLOAD DUP2 PUSH0 PUSH1 0x4 DUP2 LT PUSH2 0xED6 JUMPI PUSH2 0xED5 PUSH2 0x1D1B JUMP JUMPDEST JUMPDEST PUSH1 0x20 MUL ADD DUP2 DUP2 MSTORE POP POP DUP4 PUSH1 0x20 ADD MLOAD DUP2 PUSH1 0x1 PUSH1 0x4 DUP2 LT PUSH2 0xEF8 JUMPI PUSH2 0xEF7 PUSH2 0x1D1B JUMP JUMPDEST JUMPDEST PUSH1 0x20 MUL ADD DUP2 DUP2 MSTORE POP POP DUP3 PUSH0 ADD MLOAD DUP2 PUSH1 0x2 PUSH1 0x4 DUP2 LT PUSH2 0xF19 JUMPI PUSH2 0xF18 PUSH2 0x1D1B JUMP JUMPDEST JUMPDEST PUSH1 0x20 MUL ADD DUP2 DUP2 MSTORE POP POP DUP3 PUSH1 0x20 ADD MLOAD DUP2 PUSH1 0x3 PUSH1 0x4 DUP2 LT PUSH2 0xF3B JUMPI PUSH2 0xF3A PUSH2 0x1D1B JUMP JUMPDEST JUMPDEST PUSH1 0x20 MUL ADD DUP2 DUP2 MSTORE POP POP PUSH0 PUSH1 0x60 DUP4 PUSH1 0xC0 DUP5 PUSH1 0x6 PUSH2 0x7D0 GAS SUB STATICCALL SWAP1 POP DUP1 PUSH0 DUP2 SUB PUSH2 0xF5F JUMPI INVALID JUMPDEST POP DUP1 PUSH2 0xF69 JUMPI PUSH0 PUSH0 REVERT JUMPDEST POP POP SWAP3 SWAP2 POP POP JUMP JUMPDEST PUSH2 0xF79 PUSH2 0x1561 JUMP JUMPDEST PUSH0 PUSH32 0x30644E72E131A029B85045B68181585D97816A916871CA8D3C208C16D87CFD47 SWAP1 POP PUSH0 DUP4 PUSH0 ADD MLOAD EQ DUP1 ISZERO PUSH2 0xFB2 JUMPI POP PUSH0 DUP4 PUSH1 0x20 ADD MLOAD EQ JUMPDEST ISZERO PUSH2 0xFD4 JUMPI PUSH1 0x40 MLOAD DUP1 PUSH1 0x40 ADD PUSH1 0x40 MSTORE DUP1 PUSH0 DUP2 MSTORE PUSH1 0x20 ADD PUSH0 DUP2 MSTORE POP SWAP2 POP POP PUSH2 0x100A JUMP JUMPDEST PUSH1 0x40 MLOAD DUP1 PUSH1 0x40 ADD PUSH1 0x40 MSTORE DUP1 DUP5 PUSH0 ADD MLOAD DUP2 MSTORE PUSH1 0x20 ADD DUP3 DUP6 PUSH1 0x20 ADD MLOAD PUSH2 0xFF8 SWAP2 SWAP1 PUSH2 0x1F46 JUMP JUMPDEST DUP4 PUSH2 0x1003 SWAP2 SWAP1 PUSH2 0x1F76 JUMP JUMPDEST DUP2 MSTORE POP SWAP2 POP POP JUMPDEST SWAP2 SWAP1 POP JUMP JUMPDEST PUSH0 PUSH0 PUSH1 0x4 PUSH8 0xFFFFFFFFFFFFFFFF DUP2 GT ISZERO PUSH2 0x102C JUMPI PUSH2 0x102B PUSH2 0x17B0 JUMP JUMPDEST JUMPDEST PUSH1 0x40 MLOAD SWAP1 DUP1 DUP3 MSTORE DUP1 PUSH1 0x20 MUL PUSH1 0x20 ADD DUP3 ADD PUSH1 0x40 MSTORE DUP1 ISZERO PUSH2 0x1065 JUMPI DUP2 PUSH1 0x20 ADD JUMPDEST PUSH2 0x1052 PUSH2 0x1561 JUMP JUMPDEST DUP2 MSTORE PUSH1 0x20 ADD SWAP1 PUSH1 0x1 SWAP1 SUB SWAP1 DUP2 PUSH2 0x104A JUMPI SWAP1 POP JUMPDEST POP SWAP1 POP PUSH0 PUSH1 0x4 PUSH8 0xFFFFFFFFFFFFFFFF DUP2 GT ISZERO PUSH2 0x1084 JUMPI PUSH2 0x1083 PUSH2 0x17B0 JUMP JUMPDEST JUMPDEST PUSH1 0x40 MLOAD SWAP1 DUP1 DUP3 MSTORE DUP1 PUSH1 0x20 MUL PUSH1 0x20 ADD DUP3 ADD PUSH1 0x40 MSTORE DUP1 ISZERO PUSH2 0x10BD JUMPI DUP2 PUSH1 0x20 ADD JUMPDEST PUSH2 0x10AA PUSH2 0x15BD JUMP JUMPDEST DUP2 MSTORE PUSH1 0x20 ADD SWAP1 PUSH1 0x1 SWAP1 SUB SWAP1 DUP2 PUSH2 0x10A2 JUMPI SWAP1 POP JUMPDEST POP SWAP1 POP DUP11 DUP3 PUSH0 DUP2 MLOAD DUP2 LT PUSH2 0x10D4 JUMPI PUSH2 0x10D3 PUSH2 0x1D1B JUMP JUMPDEST JUMPDEST PUSH1 0x20 MUL PUSH1 0x20 ADD ADD DUP2 SWAP1 MSTORE POP DUP9 DUP3 PUSH1 0x1 DUP2 MLOAD DUP2 LT PUSH2 0x10F4 JUMPI PUSH2 0x10F3 PUSH2 0x1D1B JUMP JUMPDEST JUMPDEST PUSH1 0x20 MUL PUSH1 0x20 ADD ADD DUP2 SWAP1 MSTORE POP DUP7 DUP3 PUSH1 0x2 DUP2 MLOAD DUP2 LT PUSH2 0x1114 JUMPI PUSH2 0x1113 PUSH2 0x1D1B JUMP JUMPDEST JUMPDEST PUSH1 0x20 MUL PUSH1 0x20 ADD ADD DUP2 SWAP1 MSTORE POP DUP5 DUP3 PUSH1 0x3 DUP2 MLOAD DUP2 LT PUSH2 0x1134 JUMPI PUSH2 0x1133 PUSH2 0x1D1B JUMP JUMPDEST JUMPDEST PUSH1 0x20 MUL PUSH1 0x20 ADD ADD DUP2 SWAP1 MSTORE POP DUP10 DUP2 PUSH0 DUP2 MLOAD DUP2 LT PUSH2 0x1153 JUMPI PUSH2 0x1152 PUSH2 0x1D1B JUMP JUMPDEST JUMPDEST PUSH1 0x20 MUL PUSH1 0x20 ADD ADD DUP2 SWAP1 MSTORE POP DUP8 DUP2 PUSH1 0x1 DUP2 MLOAD DUP2 LT PUSH2 0x1173 JUMPI PUSH2 0x1172 PUSH2 0x1D1B JUMP JUMPDEST JUMPDEST PUSH1 0x20 MUL PUSH1 0x20 ADD ADD DUP2 SWAP1 MSTORE POP DUP6 DUP2 PUSH1 0x2 DUP2 MLOAD DUP2 LT PUSH2 0x1193 JUMPI PUSH2 0x1192 PUSH2 0x1D1B JUMP JUMPDEST JUMPDEST PUSH1 0x20 MUL PUSH1 0x20 ADD ADD DUP2 SWAP1 MSTORE POP DUP4 DUP2 PUSH1 0x3 DUP2 MLOAD DUP2 LT PUSH2 0x11B3 JUMPI PUSH2 0x11B2 PUSH2 0x1D1B JUMP JUMPDEST JUMPDEST PUSH1 0x20 MUL PUSH1 0x20 ADD ADD DUP2 SWAP1 MSTORE POP PUSH2 0x11C8 DUP3 DUP3 PUSH2 0x11D8 JUMP JUMPDEST SWAP3 POP POP POP SWAP9 SWAP8 POP POP POP POP POP POP POP POP JUMP JUMPDEST PUSH0 DUP2 MLOAD DUP4 MLOAD EQ PUSH2 0x11E6 JUMPI PUSH0 PUSH0 REVERT JUMPDEST PUSH0 DUP4 MLOAD SWAP1 POP PUSH0 PUSH1 0x6 DUP3 PUSH2 0x11F9 SWAP2 SWAP1 PUSH2 0x1FA9 JUMP JUMPDEST SWAP1 POP PUSH0 DUP2 PUSH8 0xFFFFFFFFFFFFFFFF DUP2 GT ISZERO PUSH2 0x1216 JUMPI PUSH2 0x1215 PUSH2 0x17B0 JUMP JUMPDEST JUMPDEST PUSH1 0x40 MLOAD SWAP1 DUP1 DUP3 MSTORE DUP1 PUSH1 0x20 MUL PUSH1 0x20 ADD DUP3 ADD PUSH1 0x40 MSTORE DUP1 ISZERO PUSH2 0x1244 JUMPI DUP2 PUSH1 0x20 ADD PUSH1 0x20 DUP3 MUL DUP1 CALLDATASIZE DUP4 CALLDATACOPY DUP1 DUP3 ADD SWAP2 POP POP SWAP1 POP JUMPDEST POP SWAP1 POP PUSH0 PUSH0 SWAP1 POP JUMPDEST DUP4 DUP2 LT ISZERO PUSH2 0x14BF JUMPI DUP7 DUP2 DUP2 MLOAD DUP2 LT PUSH2 0x1267 JUMPI PUSH2 0x1266 PUSH2 0x1D1B JUMP JUMPDEST JUMPDEST PUSH1 0x20 MUL PUSH1 0x20 ADD ADD MLOAD PUSH0 ADD MLOAD DUP3 PUSH0 PUSH1 0x6 DUP5 PUSH2 0x1281 SWAP2 SWAP1 PUSH2 0x1FA9 JUMP JUMPDEST PUSH2 0x128B SWAP2 SWAP1 PUSH2 0x1CE8 JUMP JUMPDEST DUP2 MLOAD DUP2 LT PUSH2 0x129C JUMPI PUSH2 0x129B PUSH2 0x1D1B JUMP JUMPDEST JUMPDEST PUSH1 0x20 MUL PUSH1 0x20 ADD ADD DUP2 DUP2 MSTORE POP POP DUP7 DUP2 DUP2 MLOAD DUP2 LT PUSH2 0x12BB JUMPI PUSH2 0x12BA PUSH2 0x1D1B JUMP JUMPDEST JUMPDEST PUSH1 0x20 MUL PUSH1 0x20 ADD ADD MLOAD PUSH1 0x20 ADD MLOAD DUP3 PUSH1 0x1 PUSH1 0x6 DUP5 PUSH2 0x12D7 SWAP2 SWAP1 PUSH2 0x1FA9 JUMP JUMPDEST PUSH2 0x12E1 SWAP2 SWAP1 PUSH2 0x1CE8 JUMP JUMPDEST DUP2 MLOAD DUP2 LT PUSH2 0x12F2 JUMPI PUSH2 0x12F1 PUSH2 0x1D1B JUMP JUMPDEST JUMPDEST PUSH1 0x20 MUL PUSH1 0x20 ADD ADD DUP2 DUP2 MSTORE POP POP DUP6 DUP2 DUP2 MLOAD DUP2 LT PUSH2 0x1311 JUMPI PUSH2 0x1310 PUSH2 0x1D1B JUMP JUMPDEST JUMPDEST PUSH1 0x20 MUL PUSH1 0x20 ADD ADD MLOAD PUSH0 ADD MLOAD PUSH1 0x1 PUSH1 0x2 DUP2 LT PUSH2 0x132F JUMPI PUSH2 0x132E PUSH2 0x1D1B JUMP JUMPDEST JUMPDEST PUSH1 0x20 MUL ADD MLOAD DUP3 PUSH1 0x2 PUSH1 0x6 DUP5 PUSH2 0x1344 SWAP2 SWAP1 PUSH2 0x1FA9 JUMP JUMPDEST PUSH2 0x134E SWAP2 SWAP1 PUSH2 0x1CE8 JUMP JUMPDEST DUP2 MLOAD DUP2 LT PUSH2 0x135F JUMPI PUSH2 0x135E PUSH2 0x1D1B JUMP JUMPDEST JUMPDEST PUSH1 0x20 MUL PUSH1 0x20 ADD ADD DUP2 DUP2 MSTORE POP POP DUP6 DUP2 DUP2 MLOAD DUP2 LT PUSH2 0x137E JUMPI PUSH2 0x137D PUSH2 0x1D1B JUMP JUMPDEST JUMPDEST PUSH1 0x20 MUL PUSH1 0x20 ADD ADD MLOAD PUSH0 ADD MLOAD PUSH0 PUSH1 0x2 DUP2 LT PUSH2 0x139B JUMPI PUSH2 0x139A PUSH2 0x1D1B JUMP JUMPDEST JUMPDEST PUSH1 0x20 MUL ADD MLOAD DUP3 PUSH1 0x3 PUSH1 0x6 DUP5 PUSH2 0x13B0 SWAP2 SWAP1 PUSH2 0x1FA9 JUMP JUMPDEST PUSH2 0x13BA SWAP2 SWAP1 PUSH2 0x1CE8 JUMP JUMPDEST DUP2 MLOAD DUP2 LT PUSH2 0x13CB JUMPI PUSH2 0x13CA PUSH2 0x1D1B JUMP JUMPDEST JUMPDEST PUSH1 0x20 MUL PUSH1 0x20 ADD ADD DUP2 DUP2 MSTORE POP POP DUP6 DUP2 DUP2 MLOAD DUP2 LT PUSH2 0x13EA JUMPI PUSH2 0x13E9 PUSH2 0x1D1B JUMP JUMPDEST JUMPDEST PUSH1 0x20 MUL PUSH1 0x20 ADD ADD MLOAD PUSH1 0x20 ADD MLOAD PUSH1 0x1 PUSH1 0x2 DUP2 LT PUSH2 0x1409 JUMPI PUSH2 0x1408 PUSH2 0x1D1B JUMP JUMPDEST JUMPDEST PUSH1 0x20 MUL ADD MLOAD DUP3 PUSH1 0x4 PUSH1 0x6 DUP5 PUSH2 0x141E SWAP2 SWAP1 PUSH2 0x1FA9 JUMP JUMPDEST PUSH2 0x1428 SWAP2 SWAP1 PUSH2 0x1CE8 JUMP JUMPDEST DUP2 MLOAD DUP2 LT PUSH2 0x1439 JUMPI PUSH2 0x1438 PUSH2 0x1D1B JUMP JUMPDEST JUMPDEST PUSH1 0x20 MUL PUSH1 0x20 ADD ADD DUP2 DUP2 MSTORE POP POP DUP6 DUP2 DUP2 MLOAD DUP2 LT PUSH2 0x1458 JUMPI PUSH2 0x1457 PUSH2 0x1D1B JUMP JUMPDEST JUMPDEST PUSH1 0x20 MUL PUSH1 0x20 ADD ADD MLOAD PUSH1 0x20 ADD MLOAD PUSH0 PUSH1 0x2 DUP2 LT PUSH2 0x1476 JUMPI PUSH2 0x1475 PUSH2 0x1D1B JUMP JUMPDEST JUMPDEST PUSH1 0x20 MUL ADD MLOAD DUP3 PUSH1 0x5 PUSH1 0x6 DUP5 PUSH2 0x148B SWAP2 SWAP1 PUSH2 0x1FA9 JUMP JUMPDEST PUSH2 0x1495 SWAP2 SWAP1 PUSH2 0x1CE8 JUMP JUMPDEST DUP2 MLOAD DUP2 LT PUSH2 0x14A6 JUMPI PUSH2 0x14A5 PUSH2 0x1D1B JUMP JUMPDEST JUMPDEST PUSH1 0x20 MUL PUSH1 0x20 ADD ADD DUP2 DUP2 MSTORE POP POP DUP1 DUP1 PUSH1 0x1 ADD SWAP2 POP POP PUSH2 0x124C JUMP JUMPDEST POP PUSH2 0x14C8 PUSH2 0x15E3 JUMP JUMPDEST PUSH0 PUSH1 0x20 DUP3 PUSH1 0x20 DUP7 MUL PUSH1 0x20 DUP7 ADD PUSH1 0x8 PUSH2 0x7D0 GAS SUB STATICCALL SWAP1 POP DUP1 PUSH0 DUP2 SUB PUSH2 0x14E8 JUMPI INVALID JUMPDEST POP DUP1 PUSH2 0x14F2 JUMPI PUSH0 PUSH0 REVERT JUMPDEST PUSH0 DUP3 PUSH0 PUSH1 0x1 DUP2 LT PUSH2 0x1506 JUMPI PUSH2 0x1505 PUSH2 0x1D1B JUMP JUMPDEST JUMPDEST PUSH1 0x20 MUL ADD MLOAD EQ ISZERO SWAP6 POP POP POP POP POP POP SWAP3 SWAP2 POP POP JUMP JUMPDEST PUSH1 0x40 MLOAD DUP1 PUSH1 0xA0 ADD PUSH1 0x40 MSTORE DUP1 PUSH2 0x152D PUSH2 0x1561 JUMP JUMPDEST DUP2 MSTORE PUSH1 0x20 ADD PUSH2 0x153A PUSH2 0x15BD JUMP JUMPDEST DUP2 MSTORE PUSH1 0x20 ADD PUSH2 0x1547 PUSH2 0x15BD JUMP JUMPDEST DUP2 MSTORE PUSH1 0x20 ADD PUSH2 0x1554 PUSH2 0x15BD JUMP JUMPDEST DUP2 MSTORE PUSH1 0x20 ADD PUSH1 0x60 DUP2 MSTORE POP SWAP1 JUMP JUMPDEST PUSH1 0x40 MLOAD DUP1 PUSH1 0x40 ADD PUSH1 0x40 MSTORE DUP1 PUSH0 DUP2 MSTORE PUSH1 0x20 ADD PUSH0 DUP2 MSTORE POP SWAP1 JUMP JUMPDEST PUSH1 0x40 MLOAD DUP1 PUSH1 0x60 ADD PUSH1 0x40 MSTORE DUP1 PUSH1 0x3 SWAP1 PUSH1 0x20 DUP3 MUL DUP1 CALLDATASIZE DUP4 CALLDATACOPY DUP1 DUP3 ADD SWAP2 POP POP SWAP1 POP POP SWAP1 JUMP JUMPDEST PUSH1 0x40 MLOAD DUP1 PUSH1 0x80 ADD PUSH1 0x40 MSTORE DUP1 PUSH1 0x4 SWAP1 PUSH1 0x20 DUP3 MUL DUP1 CALLDATASIZE DUP4 CALLDATACOPY DUP1 DUP3 ADD SWAP2 POP POP SWAP1 POP POP SWAP1 JUMP JUMPDEST PUSH1 0x40 MLOAD DUP1 PUSH1 0x40 ADD PUSH1 0x40 MSTORE DUP1 PUSH2 0x15D0 PUSH2 0x1605 JUMP JUMPDEST DUP2 MSTORE PUSH1 0x20 ADD PUSH2 0x15DD PUSH2 0x1605 JUMP JUMPDEST DUP2 MSTORE POP SWAP1 JUMP JUMPDEST PUSH1 0x40 MLOAD DUP1 PUSH1 0x20 ADD PUSH1 0x40 MSTORE DUP1 PUSH1 0x1 SWAP1 PUSH1 0x20 DUP3 MUL DUP1 CALLDATASIZE DUP4 CALLDATACOPY DUP1 DUP3 ADD SWAP2 POP POP SWAP1 POP POP SWAP1 JUMP JUMPDEST PUSH1 0x40 MLOAD DUP1 PUSH1 0x40 ADD PUSH1 0x40 MSTORE DUP1 PUSH1 0x2 SWAP1 PUSH1 0x20 DUP3 MUL DUP1 CALLDATASIZE DUP4 CALLDATACOPY DUP1 DUP3 ADD SWAP2 POP POP SWAP1 POP POP SWAP1 JUMP JUMPDEST PUSH0 DUP2 SWAP1 POP SWAP2 SWAP1 POP JUMP JUMPDEST PUSH2 0x1639 DUP2 PUSH2 0x1627 JUMP JUMPDEST DUP3 MSTORE POP POP JUMP JUMPDEST PUSH0 PUSH1 0x20 DUP3 ADD SWAP1 POP PUSH2 0x1652 PUSH0 DUP4 ADD DUP5 PUSH2 0x1630 JUMP JUMPDEST SWAP3 SWAP2 POP POP JUMP JUMPDEST PUSH0 PUSH1 0x40 MLOAD SWAP1 POP SWAP1 JUMP JUMPDEST PUSH0 PUSH0 REVERT JUMPDEST PUSH0 PUSH0 REVERT JUMPDEST PUSH0 PUSH2 0x100 DUP3 DUP5 SUB SLT ISZERO PUSH2 0x167F JUMPI PUSH2 0x167E PUSH2 0x1665 JUMP JUMPDEST JUMPDEST DUP2 SWAP1 POP SWAP3 SWAP2 POP POP JUMP JUMPDEST PUSH0 PUSH0 REVERT JUMPDEST PUSH0 DUP2 SWAP1 POP DUP3 PUSH1 0x20 PUSH1 0x4 MUL DUP3 ADD GT ISZERO PUSH2 0x16A7 JUMPI PUSH2 0x16A6 PUSH2 0x1688 JUMP JUMPDEST JUMPDEST SWAP3 SWAP2 POP POP JUMP JUMPDEST PUSH2 0x16B6 DUP2 PUSH2 0x1627 JUMP JUMPDEST DUP2 EQ PUSH2 0x16C0 JUMPI PUSH0 PUSH0 REVERT JUMPDEST POP JUMP JUMPDEST PUSH0 DUP2 CALLDATALOAD SWAP1 POP PUSH2 0x16D1 DUP2 PUSH2 0x16AD JUMP JUMPDEST SWAP3 SWAP2 POP POP JUMP JUMPDEST PUSH0 DUP2 ISZERO ISZERO SWAP1 POP SWAP2 SWAP1 POP JUMP JUMPDEST PUSH2 0x16EB DUP2 PUSH2 0x16D7 JUMP JUMPDEST DUP2 EQ PUSH2 0x16F5 JUMPI PUSH0 PUSH0 REVERT JUMPDEST POP JUMP JUMPDEST PUSH0 DUP2 CALLDATALOAD SWAP1 POP PUSH2 0x1706 DUP2 PUSH2 0x16E2 JUMP JUMPDEST SWAP3 SWAP2 POP POP JUMP JUMPDEST PUSH0 PUSH0 PUSH0 PUSH0 PUSH2 0x1C0 DUP6 DUP8 SUB SLT ISZERO PUSH2 0x1725 JUMPI PUSH2 0x1724 PUSH2 0x1661 JUMP JUMPDEST JUMPDEST PUSH0 PUSH2 0x1732 DUP8 DUP3 DUP9 ADD PUSH2 0x1669 JUMP JUMPDEST SWAP5 POP POP PUSH2 0x100 PUSH2 0x1744 DUP8 DUP3 DUP9 ADD PUSH2 0x168C JUMP JUMPDEST SWAP4 POP POP PUSH2 0x180 PUSH2 0x1756 DUP8 DUP3 DUP9 ADD PUSH2 0x16C3 JUMP JUMPDEST SWAP3 POP POP PUSH2 0x1A0 PUSH2 0x1768 DUP8 DUP3 DUP9 ADD PUSH2 0x16F8 JUMP JUMPDEST SWAP2 POP POP SWAP3 SWAP6 SWAP2 SWAP5 POP SWAP3 POP JUMP JUMPDEST PUSH2 0x177D DUP2 PUSH2 0x16D7 JUMP JUMPDEST DUP3 MSTORE POP POP JUMP JUMPDEST PUSH0 PUSH1 0x20 DUP3 ADD SWAP1 POP PUSH2 0x1796 PUSH0 DUP4 ADD DUP5 PUSH2 0x1774 JUMP JUMPDEST SWAP3 SWAP2 POP POP JUMP JUMPDEST PUSH0 PUSH0 REVERT JUMPDEST PUSH0 PUSH1 0x1F NOT PUSH1 0x1F DUP4 ADD AND SWAP1 POP SWAP2 SWAP1 POP JUMP JUMPDEST PUSH32 0x4E487B7100000000000000000000000000000000000000000000000000000000 PUSH0 MSTORE PUSH1 0x41 PUSH1 0x4 MSTORE PUSH1 0x24 PUSH0 REVERT JUMPDEST PUSH2 0x17E6 DUP3 PUSH2 0x17A0 JUMP JUMPDEST DUP2 ADD DUP2 DUP2 LT PUSH8 0xFFFFFFFFFFFFFFFF DUP3 GT OR ISZERO PUSH2 0x1805 JUMPI PUSH2 0x1804 PUSH2 0x17B0 JUMP JUMPDEST JUMPDEST DUP1 PUSH1 0x40 MSTORE POP POP POP JUMP JUMPDEST PUSH0 PUSH2 0x1817 PUSH2 0x1658 JUMP JUMPDEST SWAP1 POP PUSH2 0x1823 DUP3 DUP3 PUSH2 0x17DD JUMP JUMPDEST SWAP2 SWAP1 POP JUMP JUMPDEST PUSH0 PUSH1 0x40 DUP3 DUP5 SUB SLT ISZERO PUSH2 0x183D JUMPI PUSH2 0x183C PUSH2 0x179C JUMP JUMPDEST JUMPDEST PUSH2 0x1847 PUSH1 0x40 PUSH2 0x180E JUMP JUMPDEST SWAP1 POP PUSH0 PUSH2 0x1856 DUP5 DUP3 DUP6 ADD PUSH2 0x16C3 JUMP JUMPDEST PUSH0 DUP4 ADD MSTORE POP PUSH1 0x20 PUSH2 0x1869 DUP5 DUP3 DUP6 ADD PUSH2 0x16C3 JUMP JUMPDEST PUSH1 0x20 DUP4 ADD MSTORE POP SWAP3 SWAP2 POP POP JUMP JUMPDEST PUSH0 PUSH0 REVERT JUMPDEST PUSH0 PUSH8 0xFFFFFFFFFFFFFFFF DUP3 GT ISZERO PUSH2 0x1893 JUMPI PUSH2 0x1892 PUSH2 0x17B0 JUMP JUMPDEST JUMPDEST PUSH1 0x20 DUP3 MUL SWAP1 POP SWAP2 SWAP1 POP JUMP JUMPDEST PUSH0 PUSH2 0x18B0 PUSH2 0x18AB DUP5 PUSH2 0x1879 JUMP JUMPDEST PUSH2 0x180E JUMP JUMPDEST SWAP1 POP DUP1 PUSH1 0x20 DUP5 MUL DUP4 ADD DUP6 DUP2 GT ISZERO PUSH2 0x18CA JUMPI PUSH2 0x18C9 PUSH2 0x1688 JUMP JUMPDEST JUMPDEST DUP4 JUMPDEST DUP2 DUP2 LT ISZERO PUSH2 0x18F3 JUMPI DUP1 PUSH2 0x18DF DUP9 DUP3 PUSH2 0x16C3 JUMP JUMPDEST DUP5 MSTORE PUSH1 0x20 DUP5 ADD SWAP4 POP POP PUSH1 0x20 DUP2 ADD SWAP1 POP PUSH2 0x18CC JUMP JUMPDEST POP POP POP SWAP4 SWAP3 POP POP POP JUMP JUMPDEST PUSH0 DUP3 PUSH1 0x1F DUP4 ADD SLT PUSH2 0x1911 JUMPI PUSH2 0x1910 PUSH2 0x1875 JUMP JUMPDEST JUMPDEST PUSH1 0x2 PUSH2 0x191E DUP5 DUP3 DUP6 PUSH2 0x189E JUMP JUMPDEST SWAP2 POP POP SWAP3 SWAP2 POP POP JUMP JUMPDEST PUSH0 PUSH1 0x80 DUP3 DUP5 SUB SLT ISZERO PUSH2 0x193C JUMPI PUSH2 0x193B PUSH2 0x179C JUMP JUMPDEST JUMPDEST PUSH2 0x1946 PUSH1 0x40 PUSH2 0x180E JUMP JUMPDEST SWAP1 POP PUSH0 PUSH2 0x1955 DUP5 DUP3 DUP6 ADD PUSH2 0x18FD JUMP JUMPDEST PUSH0 DUP4 ADD MSTORE POP PUSH1 0x40 PUSH2 0x1968 DUP5 DUP3 DUP6 ADD PUSH2 0x18FD JUMP JUMPDEST PUSH1 0x20 DUP4 ADD MSTORE POP SWAP3 SWAP2 POP POP JUMP JUMPDEST PUSH0 PUSH2 0x100 DUP3 DUP5 SUB SLT ISZERO PUSH2 0x198A JUMPI PUSH2 0x1989 PUSH2 0x179C JUMP JUMPDEST JUMPDEST PUSH2 0x1994 PUSH1 0x60 PUSH2 0x180E JUMP JUMPDEST SWAP1 POP PUSH0 PUSH2 0x19A3 DUP5 DUP3 DUP6 ADD PUSH2 0x1828 JUMP JUMPDEST PUSH0 DUP4 ADD MSTORE POP PUSH1 0x40 PUSH2 0x19B6 DUP5 DUP3 DUP6 ADD PUSH2 0x1927 JUMP JUMPDEST PUSH1 0x20 DUP4 ADD MSTORE POP PUSH1 0xC0 PUSH2 0x19CA DUP5 DUP3 DUP6 ADD PUSH2 0x1828 JUMP JUMPDEST PUSH1 0x40 DUP4 ADD MSTORE POP SWAP3 SWAP2 POP POP JUMP JUMPDEST PUSH0 PUSH8 0xFFFFFFFFFFFFFFFF DUP3 GT ISZERO PUSH2 0x19F0 JUMPI PUSH2 0x19EF PUSH2 0x17B0 JUMP JUMPDEST JUMPDEST PUSH1 0x20 DUP3 MUL SWAP1 POP SWAP2 SWAP1 POP JUMP JUMPDEST PUSH0 PUSH2 0x1A0D PUSH2 0x1A08 DUP5 PUSH2 0x19D6 JUMP JUMPDEST PUSH2 0x180E JUMP JUMPDEST SWAP1 POP DUP1 PUSH1 0x20 DUP5 MUL DUP4 ADD DUP6 DUP2 GT ISZERO PUSH2 0x1A27 JUMPI PUSH2 0x1A26 PUSH2 0x1688 JUMP JUMPDEST JUMPDEST DUP4 JUMPDEST DUP2 DUP2 LT ISZERO PUSH2 0x1A50 JUMPI DUP1 PUSH2 0x1A3C DUP9 DUP3 PUSH2 0x16C3 JUMP JUMPDEST DUP5 MSTORE PUSH1 0x20 DUP5 ADD SWAP4 POP POP PUSH1 0x20 DUP2 ADD SWAP1 POP PUSH2 0x1A29 JUMP JUMPDEST POP POP POP SWAP4 SWAP3 POP POP POP JUMP JUMPDEST PUSH0 DUP3 PUSH1 0x1F DUP4 ADD SLT PUSH2 0x1A6E JUMPI PUSH2 0x1A6D PUSH2 0x1875 JUMP JUMPDEST JUMPDEST PUSH1 0x4 PUSH2 0x1A7B DUP5 DUP3 DUP6 PUSH2 0x19FB JUMP JUMPDEST SWAP2 POP POP SWAP3 SWAP2 POP POP JUMP JUMPDEST PUSH0 PUSH0 PUSH2 0x180 DUP4 DUP6 SUB SLT ISZERO PUSH2 0x1A9B JUMPI PUSH2 0x1A9A PUSH2 0x1661 JUMP JUMPDEST JUMPDEST PUSH0 PUSH2 0x1AA8 DUP6 DUP3 DUP7 ADD PUSH2 0x1974 JUMP JUMPDEST SWAP3 POP POP PUSH2 0x100 PUSH2 0x1ABA DUP6 DUP3 DUP7 ADD PUSH2 0x1A5A JUMP JUMPDEST SWAP2 POP POP SWAP3 POP SWAP3 SWAP1 POP JUMP JUMPDEST PUSH0 PUSH1 0x20 DUP3 DUP5 SUB SLT ISZERO PUSH2 0x1AD9 JUMPI PUSH2 0x1AD8 PUSH2 0x1661 JUMP JUMPDEST JUMPDEST PUSH0 PUSH2 0x1AE6 DUP5 DUP3 DUP6 ADD PUSH2 0x16C3 JUMP JUMPDEST SWAP2 POP POP SWAP3 SWAP2 POP POP JUMP JUMPDEST PUSH0 PUSH20 0xFFFFFFFFFFFFFFFFFFFFFFFFFFFFFFFFFFFFFFFF DUP3 AND SWAP1 POP SWAP2 SWAP1 POP JUMP JUMPDEST PUSH0 PUSH2 0x1B18 DUP3 PUSH2 0x1AEF JUMP JUMPDEST SWAP1 POP SWAP2 SWAP1 POP JUMP JUMPDEST PUSH2 0x1B28 DUP2 PUSH2 0x1B0E JUMP JUMPDEST DUP3 MSTORE POP POP JUMP JUMPDEST PUSH0 PUSH1 0x20 DUP3 ADD SWAP1 POP PUSH2 0x1B41 PUSH0 DUP4 ADD DUP5 PUSH2 0x1B1F JUMP JUMPDEST SWAP3 SWAP2 POP POP JUMP JUMPDEST PUSH0 DUP3 DUP3 MSTORE PUSH1 0x20 DUP3 ADD SWAP1 POP SWAP3 SWAP2 POP POP JUMP JUMPDEST PUSH32 0x456C656363696F6E206365727261646100000000000000000000000000000000 PUSH0 DUP3 ADD MSTORE POP JUMP JUMPDEST PUSH0 PUSH2 0x1B8B PUSH1 0x10 DUP4 PUSH2 0x1B47 JUMP JUMPDEST SWAP2 POP PUSH2 0x1B96 DUP3 PUSH2 0x1B57 JUMP JUMPDEST PUSH1 0x20 DUP3 ADD SWAP1 POP SWAP2 SWAP1 POP JUMP JUMPDEST PUSH0 PUSH1 0x20 DUP3 ADD SWAP1 POP DUP2 DUP2 SUB PUSH0 DUP4 ADD MSTORE PUSH2 0x1BB8 DUP2 PUSH2 0x1B7F JUMP JUMPDEST SWAP1 POP SWAP2 SWAP1 POP JUMP JUMPDEST PUSH32 0x4E756C6C6966696572207961207574696C697A61646F00000000000000000000 PUSH0 DUP3 ADD MSTORE POP JUMP JUMPDEST PUSH0 PUSH2 0x1BF3 PUSH1 0x16 DUP4 PUSH2 0x1B47 JUMP JUMPDEST SWAP2 POP PUSH2 0x1BFE DUP3 PUSH2 0x1BBF JUMP JUMPDEST PUSH1 0x20 DUP3 ADD SWAP1 POP SWAP2 SWAP1 POP JUMP JUMPDEST PUSH0 PUSH1 0x20 DUP3 ADD SWAP1 POP DUP2 DUP2 SUB PUSH0 DUP4 ADD MSTORE PUSH2 0x1C20 DUP2 PUSH2 0x1BE7 JUMP JUMPDEST SWAP1 POP SWAP2 SWAP1 POP JUMP JUMPDEST PUSH0 PUSH2 0x100 DUP3 DUP5 SUB SLT ISZERO PUSH2 0x1C3D JUMPI PUSH2 0x1C3C PUSH2 0x1661 JUMP JUMPDEST JUMPDEST PUSH0 PUSH2 0x1C4A DUP5 DUP3 DUP6 ADD PUSH2 0x1974 JUMP JUMPDEST SWAP2 POP POP SWAP3 SWAP2 POP POP JUMP JUMPDEST PUSH32 0x496E76616C6964205A4B2070726F6F6600000000000000000000000000000000 PUSH0 DUP3 ADD MSTORE POP JUMP JUMPDEST PUSH0 PUSH2 0x1C87 PUSH1 0x10 DUP4 PUSH2 0x1B47 JUMP JUMPDEST SWAP2 POP PUSH2 0x1C92 DUP3 PUSH2 0x1C53 JUMP JUMPDEST PUSH1 0x20 DUP3 ADD SWAP1 POP SWAP2 SWAP1 POP JUMP JUMPDEST PUSH0 PUSH1 0x20 DUP3 ADD SWAP1 POP DUP2 DUP2 SUB PUSH0 DUP4 ADD MSTORE PUSH2 0x1CB4 DUP2 PUSH2 0x1C7B JUMP JUMPDEST SWAP1 POP SWAP2 SWAP1 POP JUMP JUMPDEST PUSH32 0x4E487B7100000000000000000000000000000000000000000000000000000000 PUSH0 MSTORE PUSH1 0x11 PUSH1 0x4 MSTORE PUSH1 0x24 PUSH0 REVERT JUMPDEST PUSH0 PUSH2 0x1CF2 DUP3 PUSH2 0x1627 JUMP JUMPDEST SWAP2 POP PUSH2 0x1CFD DUP4 PUSH2 0x1627 JUMP JUMPDEST SWAP3 POP DUP3 DUP3 ADD SWAP1 POP DUP1 DUP3 GT ISZERO PUSH2 0x1D15 JUMPI PUSH2 0x1D14 PUSH2 0x1CBB JUMP JUMPDEST JUMPDEST SWAP3 SWAP2 POP POP JUMP JUMPDEST PUSH32 0x4E487B7100000000000000000000000000000000000000000000000000000000 PUSH0 MSTORE PUSH1 0x32 PUSH1 0x4 MSTORE PUSH1 0x24 PUSH0 REVERT JUMPDEST PUSH0 PUSH1 0x2 SWAP1 POP SWAP2 SWAP1 POP JUMP JUMPDEST PUSH0 DUP2 SWAP1 POP SWAP3 SWAP2 POP POP JUMP JUMPDEST PUSH0 DUP2 SWAP1 POP SWAP2 SWAP1 POP JUMP JUMPDEST PUSH2 0x1D6E DUP2 PUSH2 0x1627 JUMP JUMPDEST DUP3 MSTORE POP POP JUMP JUMPDEST PUSH0 PUSH2 0x1D7F DUP4 DUP4 PUSH2 0x1D65 JUMP JUMPDEST PUSH1 0x20 DUP4 ADD SWAP1 POP SWAP3 SWAP2 POP POP JUMP JUMPDEST PUSH0 PUSH1 0x20 DUP3 ADD SWAP1 POP SWAP2 SWAP1 POP JUMP JUMPDEST PUSH2 0x1DA0 DUP2 PUSH2 0x1D48 JUMP JUMPDEST PUSH2 0x1DAA DUP2 DUP5 PUSH2 0x1D52 JUMP JUMPDEST SWAP3 POP PUSH2 0x1DB5 DUP3 PUSH2 0x1D5C JUMP JUMPDEST DUP1 PUSH0 JUMPDEST DUP4 DUP2 LT ISZERO PUSH2 0x1DE5 JUMPI DUP2 MLOAD PUSH2 0x1DCC DUP8 DUP3 PUSH2 0x1D74 JUMP JUMPDEST SWAP7 POP PUSH2 0x1DD7 DUP4 PUSH2 0x1D8B JUMP JUMPDEST SWAP3 POP POP PUSH1 0x1 DUP2 ADD SWAP1 POP PUSH2 0x1DB8 JUMP JUMPDEST POP POP POP POP POP POP JUMP JUMPDEST PUSH0 PUSH1 0xA0 DUP3 ADD SWAP1 POP PUSH2 0x1E00 PUSH0 DUP4 ADD DUP7 PUSH2 0x1D97 JUMP JUMPDEST PUSH2 0x1E0D PUSH1 0x40 DUP4 ADD DUP6 PUSH2 0x1D97 JUMP JUMPDEST PUSH2 0x1E1A PUSH1 0x80 DUP4 ADD DUP5 PUSH2 0x1630 JUMP JUMPDEST SWAP5 SWAP4 POP POP POP POP JUMP JUMPDEST PUSH32 0x4F6E6C79206F776E657200000000000000000000000000000000000000000000 PUSH0 DUP3 ADD MSTORE POP JUMP JUMPDEST PUSH0 PUSH2 0x1E56 PUSH1 0xA DUP4 PUSH2 0x1B47 JUMP JUMPDEST SWAP2 POP PUSH2 0x1E61 DUP3 PUSH2 0x1E22 JUMP JUMPDEST PUSH1 0x20 DUP3 ADD SWAP1 POP SWAP2 SWAP1 POP JUMP JUMPDEST PUSH0 PUSH1 0x20 DUP3 ADD SWAP1 POP DUP2 DUP2 SUB PUSH0 DUP4 ADD MSTORE PUSH2 0x1E83 DUP2 PUSH2 0x1E4A JUMP JUMPDEST SWAP1 POP SWAP2 SWAP1 POP JUMP JUMPDEST PUSH32 0x456C656374696F6E207374696C6C206F70656E00000000000000000000000000 PUSH0 DUP3 ADD MSTORE POP JUMP JUMPDEST PUSH0 PUSH2 0x1EBE PUSH1 0x13 DUP4 PUSH2 0x1B47 JUMP JUMPDEST SWAP2 POP PUSH2 0x1EC9 DUP3 PUSH2 0x1E8A JUMP JUMPDEST PUSH1 0x20 DUP3 ADD SWAP1 POP SWAP2 SWAP1 POP JUMP JUMPDEST PUSH0 PUSH1 0x20 DUP3 ADD SWAP1 POP DUP2 DUP2 SUB PUSH0 DUP4 ADD MSTORE PUSH2 0x1EEB DUP2 PUSH2 0x1EB2 JUMP JUMPDEST SWAP1 POP SWAP2 SWAP1 POP JUMP JUMPDEST PUSH0 PUSH1 0x40 DUP3 ADD SWAP1 POP PUSH2 0x1F05 PUSH0 DUP4 ADD DUP6 PUSH2 0x1630 JUMP JUMPDEST PUSH2 0x1F12 PUSH1 0x20 DUP4 ADD DUP5 PUSH2 0x1630 JUMP JUMPDEST SWAP4 SWAP3 POP POP POP JUMP JUMPDEST PUSH32 0x4E487B7100000000000000000000000000000000000000000000000000000000 PUSH0 MSTORE PUSH1 0x12 PUSH1 0x4 MSTORE PUSH1 0x24 PUSH0 REVERT JUMPDEST PUSH0 PUSH2 0x1F50 DUP3 PUSH2 0x1627 JUMP JUMPDEST SWAP2 POP PUSH2 0x1F5B DUP4 PUSH2 0x1627 JUMP JUMPDEST SWAP3 POP DUP3 PUSH2 0x1F6B JUMPI PUSH2 0x1F6A PUSH2 0x1F19 JUMP JUMPDEST JUMPDEST DUP3 DUP3 MOD SWAP1 POP SWAP3 SWAP2 POP POP JUMP JUMPDEST PUSH0 PUSH2 0x1F80 DUP3 PUSH2 0x1627 JUMP JUMPDEST SWAP2 POP PUSH2 0x1F8B DUP4 PUSH2 0x1627 JUMP JUMPDEST SWAP3 POP DUP3 DUP3 SUB SWAP1 POP DUP2 DUP2 GT ISZERO PUSH2 0x1FA3 JUMPI PUSH2 0x1FA2 PUSH2 0x1CBB JUMP JUMPDEST JUMPDEST SWAP3 SWAP2 POP POP JUMP JUMPDEST PUSH0 PUSH2 0x1FB3 DUP3 PUSH2 0x1627 JUMP JUMPDEST SWAP2 POP PUSH2 0x1FBE DUP4 PUSH2 0x1627 JUMP JUMPDEST SWAP3 POP DUP3 DUP3 MUL PUSH2 0x1FCC DUP2 PUSH2 0x1627 JUMP JUMPDEST SWAP2 POP DUP3 DUP3 DIV DUP5 EQ DUP4 ISZERO OR PUSH2 0x1FE3 JUMPI PUSH2 0x1FE2 PUSH2 0x1CBB JUMP JUMPDEST JUMPDEST POP SWAP3 SWAP2 POP POP JUMP INVALID LOG2 PUSH5 0x6970667358 0x22 SLT KECCAK256 PUSH3 0x85511F 0x2A 0xB7 SUB DATALOADN 0x8622 GAS GT PUSH24 0x908012D4D5C1B47C8F2880082E7E7C86E2818164736F6C63 NUMBER STOP ADDMOD 0x1E STOP CALLER "
		},
		"gasEstimates": {
			"creation": {
				"codeDepositCost": "1644800",
				"executionCost": "infinite",
				"totalCost": "infinite"
			},
			"external": {
				"closeElection()": "26693",
				"electionOpen()": "2561",
				"nullifierUsed(uint256)": "2785",
				"owner()": "2529",
				"publishResults()": "infinite",
				"registerVote(((uint256,uint256),(uint256[2],uint256[2]),(uint256,uint256)),uint256[4],uint256,bool)": "infinite",
				"root()": "2513",
				"verifyTx(((uint256,uint256),(uint256[2],uint256[2]),(uint256,uint256)),uint256[4])": "infinite",
				"votes0()": "2469",
				"votes1()": "2426"
			}
		},
		"methodIdentifiers": {
			"closeElection()": "6c6c32d0",
			"electionOpen()": "4a39d442",
			"nullifierUsed(uint256)": "79f95ee9",
			"owner()": "8da5cb5b",
			"publishResults()": "b952e7d8",
			"registerVote(((uint256,uint256),(uint256[2],uint256[2]),(uint256,uint256)),uint256[4],uint256,bool)": "249f66c6",
			"root()": "ebf0c717",
			"verifyTx(((uint256,uint256),(uint256[2],uint256[2]),(uint256,uint256)),uint256[4])": "799afa76",
			"votes0()": "9aa69136",
			"votes1()": "1327e258"
		}
	},
	"abi": [
		{
			"inputs": [
				{
					"internalType": "uint256",
					"name": "_root",
					"type": "uint256"
				}
			],
			"stateMutability": "nonpayable",
			"type": "constructor"
		},
		{
			"anonymous": false,
			"inputs": [
				{
					"indexed": false,
					"internalType": "uint256",
					"name": "votes0",
					"type": "uint256"
				},
				{
					"indexed": false,
					"internalType": "uint256",
					"name": "votes1",
					"type": "uint256"
				}
			],
			"name": "ResultsPublished",
			"type": "event"
		},
		{
			"anonymous": false,
			"inputs": [
				{
					"indexed": false,
					"internalType": "uint256[2]",
					"name": "c1",
					"type": "uint256[2]"
				},
				{
					"indexed": false,
					"internalType": "uint256[2]",
					"name": "c2",
					"type": "uint256[2]"
				},
				{
					"indexed": false,
					"internalType": "uint256",
					"name": "nullifier",
					"type": "uint256"
				}
			],
			"name": "VoteEmitted",
			"type": "event"
		},
		{
			"inputs": [],
			"name": "closeElection",
			"outputs": [],
			"stateMutability": "nonpayable",
			"type": "function"
		},
		{
			"inputs": [],
			"name": "electionOpen",
			"outputs": [
				{
					"internalType": "bool",
					"name": "",
					"type": "bool"
				}
			],
			"stateMutability": "view",
			"type": "function"
		},
		{
			"inputs": [
				{
					"internalType": "uint256",
					"name": "",
					"type": "uint256"
				}
			],
			"name": "nullifierUsed",
			"outputs": [
				{
					"internalType": "bool",
					"name": "",
					"type": "bool"
				}
			],
			"stateMutability": "view",
			"type": "function"
		},
		{
			"inputs": [],
			"name": "owner",
			"outputs": [
				{
					"internalType": "address",
					"name": "",
					"type": "address"
				}
			],
			"stateMutability": "view",
			"type": "function"
		},
		{
			"inputs": [],
			"name": "publishResults",
			"outputs": [],
			"stateMutability": "nonpayable",
			"type": "function"
		},
		{
			"inputs": [
				{
					"components": [
						{
							"components": [
								{
									"internalType": "uint256",
									"name": "X",
									"type": "uint256"
								},
								{
									"internalType": "uint256",
									"name": "Y",
									"type": "uint256"
								}
							],
							"internalType": "struct Pairing.G1Point",
							"name": "a",
							"type": "tuple"
						},
						{
							"components": [
								{
									"internalType": "uint256[2]",
									"name": "X",
									"type": "uint256[2]"
								},
								{
									"internalType": "uint256[2]",
									"name": "Y",
									"type": "uint256[2]"
								}
							],
							"internalType": "struct Pairing.G2Point",
							"name": "b",
							"type": "tuple"
						},
						{
							"components": [
								{
									"internalType": "uint256",
									"name": "X",
									"type": "uint256"
								},
								{
									"internalType": "uint256",
									"name": "Y",
									"type": "uint256"
								}
							],
							"internalType": "struct Pairing.G1Point",
							"name": "c",
							"type": "tuple"
						}
					],
					"internalType": "struct Verifier.Proof",
					"name": "proof",
					"type": "tuple"
				},
				{
					"internalType": "uint256[4]",
					"name": "publicInputs",
					"type": "uint256[4]"
				},
				{
					"internalType": "uint256",
					"name": "nullifier",
					"type": "uint256"
				},
				{
					"internalType": "bool",
					"name": "vote",
					"type": "bool"
				}
			],
			"name": "registerVote",
			"outputs": [],
			"stateMutability": "nonpayable",
			"type": "function"
		},
		{
			"inputs": [],
			"name": "root",
			"outputs": [
				{
					"internalType": "uint256",
					"name": "",
					"type": "uint256"
				}
			],
			"stateMutability": "view",
			"type": "function"
		},
		{
			"inputs": [
				{
					"components": [
						{
							"components": [
								{
									"internalType": "uint256",
									"name": "X",
									"type": "uint256"
								},
								{
									"internalType": "uint256",
									"name": "Y",
									"type": "uint256"
								}
							],
							"internalType": "struct Pairing.G1Point",
							"name": "a",
							"type": "tuple"
						},
						{
							"components": [
								{
									"internalType": "uint256[2]",
									"name": "X",
									"type": "uint256[2]"
								},
								{
									"internalType": "uint256[2]",
									"name": "Y",
									"type": "uint256[2]"
								}
							],
							"internalType": "struct Pairing.G2Point",
							"name": "b",
							"type": "tuple"
						},
						{
							"components": [
								{
									"internalType": "uint256",
									"name": "X",
									"type": "uint256"
								},
								{
									"internalType": "uint256",
									"name": "Y",
									"type": "uint256"
								}
							],
							"internalType": "struct Pairing.G1Point",
							"name": "c",
							"type": "tuple"
						}
					],
					"internalType": "struct Verifier.Proof",
					"name": "proof",
					"type": "tuple"
				},
				{
					"internalType": "uint256[4]",
					"name": "input",
					"type": "uint256[4]"
				}
			],
			"name": "verifyTx",
			"outputs": [
				{
					"internalType": "bool",
					"name": "r",
					"type": "bool"
				}
			],
			"stateMutability": "view",
			"type": "function"
		},
		{
			"inputs": [],
			"name": "votes0",
			"outputs": [
				{
					"internalType": "uint256",
					"name": "",
					"type": "uint256"
				}
			],
			"stateMutability": "view",
			"type": "function"
		},
		{
			"inputs": [],
			"name": "votes1",
			"outputs": [
				{
					"internalType": "uint256",
					"name": "",
					"type": "uint256"
				}
			],
			"stateMutability": "view",
			"type": "function"
		}
	]
}