{
	"data": {
		"bytecode": {
			"linkReferences": {},
			"object": "608060405234801561000f575f5ffd5b50604051611d55380380611d558339818101604052810190610031919061018d565b335f5f6101000a81548173ffffffffffffffffffffffffffffffffffffffff021916908373ffffffffffffffffffffffffffffffffffffffff16021790555060015f60146101000a81548160ff0219169083151502179055508160075f6101000a81548173ffffffffffffffffffffffffffffffffffffffff021916908373ffffffffffffffffffffffffffffffffffffffff1602179055508060085f6101000a81548173ffffffffffffffffffffffffffffffffffffffff021916908373ffffffffffffffffffffffffffffffffffffffff1602179055505f60018190555060016002819055505f600381905550600160048190555050506101cb565b5f5ffd5b5f73ffffffffffffffffffffffffffffffffffffffff82169050919050565b5f61015c82610133565b9050919050565b61016c81610152565b8114610176575f5ffd5b50565b5f8151905061018781610163565b92915050565b5f5f604083850312156101a3576101a261012f565b5b5f6101b085828601610179565b92505060206101c185828601610179565b9150509250929050565b611b7d806101d85f395ff3fe608060405234801561000f575f5ffd5b50600436106100cd575f3560e01c80637ecf686d1161008a5780638da5cb5b116100645780638da5cb5b146101db57806399d74c71146101f9578063bf0516f214610217578063e63aa8fb14610235576100cd565b80637ecf686d1461016f578063827861991461019f57806387dde0be146101bd576100cd565b80630e7d490d146100d15780634a39d442146100ef5780634d1397631461010d57806359a00a301461012b5780636c6c32d01461014757806375f11da114610151575b5f5ffd5b6100d9610251565b6040516100e691906110e5565b60405180910390f35b6100f7610257565b6040516101049190611118565b60405180910390f35b610115610269565b60405161012291906110e5565b60405180910390f35b6101456004803603810190610140919061119e565b61026f565b005b61014f610877565b005b61015961099a565b60405161016691906110e5565b60405180910390f35b61018960048036038101906101849190611239565b6109a0565b6040516101969190611118565b60405180910390f35b6101a76109bd565b6040516101b491906110e5565b60405180910390f35b6101c56109c3565b6040516101d291906110e5565b60405180910390f35b6101e36109c9565b6040516101f091906112a3565b60405180910390f35b6102016109ed565b60405161020e9190611317565b60405180910390f35b61021f610a12565b60405161022c9190611317565b60405180910390f35b61024f600480360381019061024a919061135a565b610a37565b005b60055481565b5f60149054906101000a900460ff1681565b60015481565b6102776110aa565b835f6002811061028a57610289611399565b5b6020020135815f600c81106102a2576102a1611399565b5b602002018181525050836001600281106102bf576102be611399565b5b6020020135816001600c81106102d8576102d7611399565b5b602002018181525050825f600281106102f4576102f3611399565b5b6020020135816002600c811061030d5761030c611399565b5b6020020181815250508260016002811061032a57610329611399565b5b6020020135816003600c811061034357610342611399565b5b602002018181525050815f6008811061035f5761035e611399565b5b60200201602081019061037291906113ff565b63ffffffff16816004600c811061038c5761038b611399565b5b602002018181525050816001600881106103a9576103a8611399565b5b6020020160208101906103bc91906113ff565b63ffffffff16816005600c81106103d6576103d5611399565b5b602002018181525050816002600881106103f3576103f2611399565b5b60200201602081019061040691906113ff565b63ffffffff16816006600c81106104205761041f611399565b5b6020020181815250508160036008811061043d5761043c611399565b5b60200201602081019061045091906113ff565b63ffffffff16816007600c811061046a57610469611399565b5b6020020181815250508160046008811061048757610486611399565b5b60200201602081019061049a91906113ff565b63ffffffff16816008600c81106104b4576104b3611399565b5b602002018181525050816005600881106104d1576104d0611399565b5b6020020160208101906104e491906113ff565b63ffffffff16816009600c81106104fe576104fd611399565b5b6020020181815250508160066008811061051b5761051a611399565b5b60200201602081019061052e91906113ff565b63ffffffff1681600a600c811061054857610547611399565b5b6020020181815250508160076008811061056557610564611399565b5b60200201602081019061057891906113ff565b63ffffffff1681600b600c811061059257610591611399565b5b6020020181815250505f60149054906101000a900460ff166105e9576040517f08c379a00000000000000000000000000000000000000000000000000000000081526004016105e090611484565b60405180910390fd5b5f826040516020016105fb9190611565565b60405160208183030381529060405280519060200120905060065f8281526020019081526020015f205f9054906101000a900460ff1615610671576040517f08c379a0000000000000000000000000000000000000000000000000000000008152600401610668906115ca565b60405180910390fd5b5f60075f9054906101000a900473ffffffffffffffffffffffffffffffffffffffff1673ffffffffffffffffffffffffffffffffffffffff16636667059988856040518363ffffffff1660e01b81526004016106ce9291906117ad565b602060405180830381865afa1580156106e9573d5f5f3e3d5ffd5b505050506040513d601f19601f8201168201806040525081019061070d9190611800565b90508061074f576040517f08c379a000000000000000000000000000000000000000000000000000000000815260040161074690611875565b60405180910390fd5b600160065f8481526020019081526020015f205f6101000a81548160ff0219169083151502179055506107b7600154600254885f6002811061079457610793611399565b5b6020020135896001600281106107ad576107ac611399565b5b6020020135610cd4565b60015f60025f849190505583919050555050610808600354600454875f600281106107e5576107e4611399565b5b6020020135886001600281106107fe576107fd611399565b5b6020020135610cd4565b60035f60045f849190505583919050555050600160055f82825461082c91906118c0565b925050819055507fec3373933d5241831a4fb1607a10c99cc2d1a609f099ff1987ce2c1884d0528486868460405161086693929190611912565b60405180910390a150505050505050565b5f5f9054906101000a900473ffffffffffffffffffffffffffffffffffffffff1673ffffffffffffffffffffffffffffffffffffffff163373ffffffffffffffffffffffffffffffffffffffff1614610905576040517f08c379a00000000000000000000000000000000000000000000000000000000081526004016108fc90611991565b60405180910390fd5b5f60149054906101000a900460ff16610953576040517f08c379a000000000000000000000000000000000000000000000000000000000815260040161094a906119f9565b60405180910390fd5b5f5f60146101000a81548160ff0219169083151502179055507fa549b9addfc3693a1863ac5b0b13c42960d78df554c01ea6ac72a7db985df0cf60405160405180910390a1565b60025481565b6006602052805f5260405f205f915054906101000a900460ff1681565b60035481565b60045481565b5f5f9054906101000a900473ffffffffffffffffffffffffffffffffffffffff1681565b60075f9054906101000a900473ffffffffffffffffffffffffffffffffffffffff1681565b60085f9054906101000a900473ffffffffffffffffffffffffffffffffffffffff1681565b5f5f9054906101000a900473ffffffffffffffffffffffffffffffffffffffff1673ffffffffffffffffffffffffffffffffffffffff163373ffffffffffffffffffffffffffffffffffffffff1614610ac5576040517f08c379a0000000000000000000000000000000000000000000000000000000008152600401610abc90611991565b60405180910390fd5b5f60149054906101000a900460ff1615610b14576040517f08c379a0000000000000000000000000000000000000000000000000000000008152600401610b0b90611a61565b60405180910390fd5b610b1c6110aa565b600154815f600c8110610b3257610b31611399565b5b602002018181525050600254816001600c8110610b5257610b51611399565b5b602002018181525050600354816002600c8110610b7257610b71611399565b5b602002018181525050600454816003600c8110610b9257610b91611399565b5b60200201818152505082816004600c8110610bb057610baf611399565b5b6020020181815250505f60085f9054906101000a900473ffffffffffffffffffffffffffffffffffffffff1673ffffffffffffffffffffffffffffffffffffffff16636667059984846040518363ffffffff1660e01b8152600401610c169291906117ad565b602060405180830381865afa158015610c31573d5f5f3e3d5ffd5b505050506040513d601f19601f82011682018060405250810190610c559190611800565b905080610c97576040517f08c379a0000000000000000000000000000000000000000000000000000000008152600401610c8e90611ac9565b60405180910390fd5b7fee088bcc4c9bbd048c9c087916ec26aae94e63151610af8167078ef170e5ae6084604051610cc691906110e5565b60405180910390a150505050565b5f5f5f86148015610ce457505f85145b15610cf457838391509150610fb9565b5f84148015610d0257505f85145b15610d1257858591509150610fb9565b5f7f30644e72e131a029b85045b68181585d2833e84879b9709143e1f593f000000180610d4257610d41611ae7565b5b85880990505f7f30644e72e131a029b85045b68181585d2833e84879b9709143e1f593f000000180610d7757610d76611ae7565b5b85880990505f7f30644e72e131a029b85045b68181585d2833e84879b9709143e1f593f000000180610dac57610dab611ae7565b5b7f30644e72e131a029b85045b68181585d2833e84879b9709143e1f593f000000180610ddb57610dda611ae7565b5b838509620292f80990505f7f30644e72e131a029b85045b68181585d2833e84879b9709143e1f593f000000180610e1557610e14611ae7565b5b7f30644e72e131a029b85045b68181585d2833e84879b9709143e1f593f000000180610e4457610e43611ae7565b5b898b097f30644e72e131a029b85045b68181585d2833e84879b9709143e1f593f000000180610e7657610e75611ae7565b5b898d090890505f610edc847f30644e72e131a029b85045b68181585d2833e84879b9709143e1f593f000000180610eb057610eaf611ae7565b5b87620292fc097f30644e72e131a029b85045b68181585d2833e84879b9709143e1f593f0000001610fc2565b90507f30644e72e131a029b85045b68181585d2833e84879b9709143e1f593f000000180610f0d57610f0c611ae7565b5b610f487f30644e72e131a029b85045b68181585d2833e84879b9709143e1f593f000000180610f3f57610f3e611ae7565b5b85600108611004565b830996507f30644e72e131a029b85045b68181585d2833e84879b9709143e1f593f000000180610f7b57610f7a611ae7565b5b610faf610faa6001867f30644e72e131a029b85045b68181585d2833e84879b9709143e1f593f0000001610fc2565b611004565b8209955050505050505b94509492505050565b5f5f849050838511610fdd578281610fda91906118c0565b90505b8280610fec57610feb611ae7565b5b5f8583610ff99190611b14565b089150509392505050565b5f61105c8260027f30644e72e131a029b85045b68181585d2833e84879b9709143e1f593f00000016110369190611b14565b7f30644e72e131a029b85045b68181585d2833e84879b9709143e1f593f0000001611063565b9050919050565b5f60405160208152602080820152602060408201528460608201528360808201528260a082015260208160c08360055afa8061109d575f5ffd5b8151925050509392505050565b604051806101800160405280600c90602082028036833780820191505090505090565b5f819050919050565b6110df816110cd565b82525050565b5f6020820190506110f85f8301846110d6565b92915050565b5f8115159050919050565b611112816110fe565b82525050565b5f60208201905061112b5f830184611109565b92915050565b5f5ffd5b5f5ffd5b5f610100828403121561114f5761114e611135565b5b81905092915050565b5f5ffd5b5f8190508260206002028201111561117757611176611158565b5b92915050565b5f8190508260206008028201111561119857611197611158565b5b92915050565b5f5f5f5f61028085870312156111b7576111b6611131565b5b5f6111c487828801611139565b9450506101006111d68782880161115c565b9350506101406111e88782880161115c565b9250506101806111fa8782880161117d565b91505092959194509250565b5f819050919050565b61121881611206565b8114611222575f5ffd5b50565b5f813590506112338161120f565b92915050565b5f6020828403121561124e5761124d611131565b5b5f61125b84828501611225565b91505092915050565b5f73ffffffffffffffffffffffffffffffffffffffff82169050919050565b5f61128d82611264565b9050919050565b61129d81611283565b82525050565b5f6020820190506112b65f830184611294565b92915050565b5f819050919050565b5f6112df6112da6112d584611264565b6112bc565b611264565b9050919050565b5f6112f0826112c5565b9050919050565b5f611301826112e6565b9050919050565b611311816112f7565b82525050565b5f60208201905061132a5f830184611308565b92915050565b611339816110cd565b8114611343575f5ffd5b50565b5f8135905061135481611330565b92915050565b5f5f610120838503121561137157611370611131565b5b5f61137e85828601611346565b925050602061138f85828601611139565b9150509250929050565b7f4e487b71000000000000000000000000000000000000000000000000000000005f52603260045260245ffd5b5f63ffffffff82169050919050565b6113de816113c6565b81146113e8575f5ffd5b50565b5f813590506113f9816113d5565b92915050565b5f6020828403121561141457611413611131565b5b5f611421848285016113eb565b91505092915050565b5f82825260208201905092915050565b7f456c656374696f6e20636c6f73656400000000000000000000000000000000005f82015250565b5f61146e600f8361142a565b91506114798261143a565b602082019050919050565b5f6020820190508181035f83015261149b81611462565b9050919050565b5f60089050919050565b5f81905092915050565b5f819050919050565b6114c8816113c6565b82525050565b5f6114d983836114bf565b60208301905092915050565b5f6114f360208401846113eb565b905092915050565b5f602082019050919050565b611510816114a2565b61151a81846114ac565b9250611525826114b6565b805f5b8381101561155d5761153a82846114e5565b61154487826114ce565b965061154f836114fb565b925050600181019050611528565b505050505050565b5f6115708284611507565b6101008201915081905092915050565b7f4e756c6c696669657220616c72656164792075736564000000000000000000005f82015250565b5f6115b460168361142a565b91506115bf82611580565b602082019050919050565b5f6020820190508181035f8301526115e1816115a8565b9050919050565b5f82905092915050565b5f6116006020840184611346565b905092915050565b611611816110cd565b82525050565b604082016116275f8301836115f2565b6116335f850182611608565b5061164160208301836115f2565b61164e6020850182611608565b50505050565b5f82905092915050565b5f82905092915050565b82818337505050565b61167d60408383611668565b5050565b608082016116915f83018361165e565b61169d5f850182611671565b506116ab604083018361165e565b6116b86040850182611671565b50505050565b61010082016116cf5f8301836115e8565b6116db5f850182611617565b506116e96040830183611654565b6116f66040850182611681565b5061170460c08301836115e8565b61171160c0850182611617565b50505050565b5f600c9050919050565b5f81905092915050565b5f819050919050565b5f61173f8383611608565b60208301905092915050565b5f602082019050919050565b61176081611717565b61176a8184611721565b92506117758261172b565b805f5b838110156117a557815161178c8782611734565b96506117978361174b565b925050600181019050611778565b505050505050565b5f610280820190506117c15f8301856116be565b6117cf610100830184611757565b9392505050565b6117df816110fe565b81146117e9575f5ffd5b50565b5f815190506117fa816117d6565b92915050565b5f6020828403121561181557611814611131565b5b5f611822848285016117ec565b91505092915050565b7f496e76616c696420766f74652070726f6f6600000000000000000000000000005f82015250565b5f61185f60128361142a565b915061186a8261182b565b602082019050919050565b5f6020820190508181035f83015261188c81611853565b9050919050565b7f4e487b71000000000000000000000000000000000000000000000000000000005f52601160045260245ffd5b5f6118ca826110cd565b91506118d5836110cd565b92508282019050808211156118ed576118ec611893565b5b92915050565b6118ff60408383611668565b5050565b61190c81611206565b82525050565b5f60a0820190506119255f8301866118f3565b61193260408301856118f3565b61193f6080830184611903565b949350505050565b7f4f6e6c79206f776e6572000000000000000000000000000000000000000000005f82015250565b5f61197b600a8361142a565b915061198682611947565b602082019050919050565b5f6020820190508181035f8301526119a88161196f565b9050919050565b7f416c726561647920636c6f7365640000000000000000000000000000000000005f82015250565b5f6119e3600e8361142a565b91506119ee826119af565b602082019050919050565b5f6020820190508181035f830152611a10816119d7565b9050919050565b7f456c656374696f6e207374696c6c206f70656e000000000000000000000000005f82015250565b5f611a4b60138361142a565b9150611a5682611a17565b602082019050919050565b5f6020820190508181035f830152611a7881611a3f565b9050919050565b7f496e76616c6964207265636f756e742070726f6f6600000000000000000000005f82015250565b5f611ab360158361142a565b9150611abe82611a7f565b602082019050919050565b5f6020820190508181035f830152611ae081611aa7565b9050919050565b7f4e487b71000000000000000000000000000000000000000000000000000000005f52601260045260245ffd5b5f611b1e826110cd565b9150611b29836110cd565b9250828203905081811115611b4157611b40611893565b5b9291505056fea2646970667358221220b6b59541c049b06ad43eed160692742f0dd1da98c28b608d855f7c2036640cab64736f6c634300081e0033",
			"opcodes": "PUSH1 0x80 PUSH1 0x40 MSTORE CALLVALUE DUP1 ISZERO PUSH2 0xF JUMPI PUSH0 PUSH0 REVERT JUMPDEST POP PUSH1 0x40 MLOAD PUSH2 0x1D55 CODESIZE SUB DUP1 PUSH2 0x1D55 DUP4 CODECOPY DUP2 DUP2 ADD PUSH1 0x40 MSTORE DUP2 ADD SWAP1 PUSH2 0x31 SWAP2 SWAP1 PUSH2 0x18D JUMP JUMPDEST CALLER PUSH0 PUSH0 PUSH2 0x100 EXP DUP2 SLOAD DUP2 PUSH20 0xFFFFFFFFFFFFFFFFFFFFFFFFFFFFFFFFFFFFFFFF MUL NOT AND SWAP1 DUP4 PUSH20 0xFFFFFFFFFFFFFFFFFFFFFFFFFFFFFFFFFFFFFFFF AND MUL OR SWAP1 SSTORE POP PUSH1 0x1 PUSH0 PUSH1 0x14 PUSH2 0x100 EXP DUP2 SLOAD DUP2 PUSH1 0xFF MUL NOT AND SWAP1 DUP4 ISZERO ISZERO MUL OR SWAP1 SSTORE POP DUP2 PUSH1 0x7 PUSH0 PUSH2 0x100 EXP DUP2 SLOAD DUP2 PUSH20 0xFFFFFFFFFFFFFFFFFFFFFFFFFFFFFFFFFFFFFFFF MUL NOT AND SWAP1 DUP4 PUSH20 0xFFFFFFFFFFFFFFFFFFFFFFFFFFFFFFFFFFFFFFFF AND MUL OR SWAP1 SSTORE POP DUP1 PUSH1 0x8 PUSH0 PUSH2 0x100 EXP DUP2 SLOAD DUP2 PUSH20 0xFFFFFFFFFFFFFFFFFFFFFFFFFFFFFFFFFFFFFFFF MUL NOT AND SWAP1 DUP4 PUSH20 0xFFFFFFFFFFFFFFFFFFFFFFFFFFFFFFFFFFFFFFFF AND MUL OR SWAP1 SSTORE POP PUSH0 PUSH1 0x1 DUP2 SWAP1 SSTORE POP PUSH1 0x1 PUSH1 0x2 DUP2 SWAP1 SSTORE POP PUSH0 PUSH1 0x3 DUP2 SWAP1 SSTORE POP PUSH1 0x1 PUSH1 0x4 DUP2 SWAP1 SSTORE POP POP POP PUSH2 0x1CB JUMP JUMPDEST PUSH0 PUSH0 REVERT JUMPDEST PUSH0 PUSH20 0xFFFFFFFFFFFFFFFFFFFFFFFFFFFFFFFFFFFFFFFF DUP3 AND SWAP1 POP SWAP2 SWAP1 POP JUMP JUMPDEST PUSH0 PUSH2 0x15C DUP3 PUSH2 0x133 JUMP JUMPDEST SWAP1 POP SWAP2 SWAP1 POP JUMP JUMPDEST PUSH2 0x16C DUP2 PUSH2 0x152 JUMP JUMPDEST DUP2 EQ PUSH2 0x176 JUMPI PUSH0 PUSH0 REVERT JUMPDEST POP JUMP JUMPDEST PUSH0 DUP2 MLOAD SWAP1 POP PUSH2 0x187 DUP2 PUSH2 0x163 JUMP JUMPDEST SWAP3 SWAP2 POP POP JUMP JUMPDEST PUSH0 PUSH0 PUSH1 0x40 DUP4 DUP6 SUB SLT ISZERO PUSH2 0x1A3 JUMPI PUSH2 0x1A2 PUSH2 0x12F JUMP JUMPDEST JUMPDEST PUSH0 PUSH2 0x1B0 DUP6 DUP3 DUP7 ADD PUSH2 0x179 JUMP JUMPDEST SWAP3 POP POP PUSH1 0x20 PUSH2 0x1C1 DUP6 DUP3 DUP7 ADD PUSH2 0x179 JUMP JUMPDEST SWAP2 POP POP SWAP3 POP SWAP3 SWAP1 POP JUMP JUMPDEST PUSH2 0x1B7D DUP1 PUSH2 0x1D8 PUSH0 CODECOPY PUSH0 RETURN INVALID PUSH1 0x80 PUSH1 0x40 MSTORE CALLVALUE DUP1 ISZERO PUSH2 0xF JUMPI PUSH0 PUSH0 REVERT JUMPDEST POP PUSH1 0x4 CALLDATASIZE LT PUSH2 0xCD JUMPI PUSH0 CALLDATALOAD PUSH1 0xE0 SHR DUP1 PUSH4 0x7ECF686D GT PUSH2 0x8A JUMPI DUP1 PUSH4 0x8DA5CB5B GT PUSH2 0x64 JUMPI DUP1 PUSH4 0x8DA5CB5B EQ PUSH2 0x1DB JUMPI DUP1 PUSH4 0x99D74C71 EQ PUSH2 0x1F9 JUMPI DUP1 PUSH4 0xBF0516F2 EQ PUSH2 0x217 JUMPI DUP1 PUSH4 0xE63AA8FB EQ PUSH2 0x235 JUMPI PUSH2 0xCD JUMP JUMPDEST DUP1 PUSH4 0x7ECF686D EQ PUSH2 0x16F JUMPI DUP1 PUSH4 0x82786199 EQ PUSH2 0x19F JUMPI DUP1 PUSH4 0x87DDE0BE EQ PUSH2 0x1BD JUMPI PUSH2 0xCD JUMP JUMPDEST DUP1 PUSH4 0xE7D490D EQ PUSH2 0xD1 JUMPI DUP1 PUSH4 0x4A39D442 EQ PUSH2 0xEF JUMPI DUP1 PUSH4 0x4D139763 EQ PUSH2 0x10D JUMPI DUP1 PUSH4 0x59A00A30 EQ PUSH2 0x12B JUMPI DUP1 PUSH4 0x6C6C32D0 EQ PUSH2 0x147 JUMPI DUP1 PUSH4 0x75F11DA1 EQ PUSH2 0x151 JUMPI JUMPDEST PUSH0 PUSH0 REVERT JUMPDEST PUSH2 0xD9 PUSH2 0x251 JUMP JUMPDEST PUSH1 0x40 MLOAD PUSH2 0xE6 SWAP2 SWAP1 PUSH2 0x10E5 JUMP JUMPDEST PUSH1 0x40 MLOAD DUP1 SWAP2 SUB SWAP1 RETURN JUMPDEST PUSH2 0xF7 PUSH2 0x257 JUMP JUMPDEST PUSH1 0x40 MLOAD PUSH2 0x104 SWAP2 SWAP1 PUSH2 0x1118 JUMP JUMPDEST PUSH1 0x40 MLOAD DUP1 SWAP2 SUB SWAP1 RETURN JUMPDEST PUSH2 0x115 PUSH2 0x269 JUMP JUMPDEST PUSH1 0x40 MLOAD PUSH2 0x122 SWAP2 SWAP1 PUSH2 0x10E5 JUMP JUMPDEST PUSH1 0x40 MLOAD DUP1 SWAP2 SUB SWAP1 RETURN JUMPDEST PUSH2 0x145 PUSH1 0x4 DUP1 CALLDATASIZE SUB DUP2 ADD SWAP1 PUSH2 0x140 SWAP2 SWAP1 PUSH2 0x119E JUMP JUMPDEST PUSH2 0x26F JUMP JUMPDEST STOP JUMPDEST PUSH2 0x14F PUSH2 0x877 JUMP JUMPDEST STOP JUMPDEST PUSH2 0x159 PUSH2 0x99A JUMP JUMPDEST PUSH1 0x40 MLOAD PUSH2 0x166 SWAP2 SWAP1 PUSH2 0x10E5 JUMP JUMPDEST PUSH1 0x40 MLOAD DUP1 SWAP2 SUB SWAP1 RETURN JUMPDEST PUSH2 0x189 PUSH1 0x4 DUP1 CALLDATASIZE SUB DUP2 ADD SWAP1 PUSH2 0x184 SWAP2 SWAP1 PUSH2 0x1239 JUMP JUMPDEST PUSH2 0x9A0 JUMP JUMPDEST PUSH1 0x40 MLOAD PUSH2 0x196 SWAP2 SWAP1 PUSH2 0x1118 JUMP JUMPDEST PUSH1 0x40 MLOAD DUP1 SWAP2 SUB SWAP1 RETURN JUMPDEST PUSH2 0x1A7 PUSH2 0x9BD JUMP JUMPDEST PUSH1 0x40 MLOAD PUSH2 0x1B4 SWAP2 SWAP1 PUSH2 0x10E5 JUMP JUMPDEST PUSH1 0x40 MLOAD DUP1 SWAP2 SUB SWAP1 RETURN JUMPDEST PUSH2 0x1C5 PUSH2 0x9C3 JUMP JUMPDEST PUSH1 0x40 MLOAD PUSH2 0x1D2 SWAP2 SWAP1 PUSH2 0x10E5 JUMP JUMPDEST PUSH1 0x40 MLOAD DUP1 SWAP2 SUB SWAP1 RETURN JUMPDEST PUSH2 0x1E3 PUSH2 0x9C9 JUMP JUMPDEST PUSH1 0x40 MLOAD PUSH2 0x1F0 SWAP2 SWAP1 PUSH2 0x12A3 JUMP JUMPDEST PUSH1 0x40 MLOAD DUP1 SWAP2 SUB SWAP1 RETURN JUMPDEST PUSH2 0x201 PUSH2 0x9ED JUMP JUMPDEST PUSH1 0x40 MLOAD PUSH2 0x20E SWAP2 SWAP1 PUSH2 0x1317 JUMP JUMPDEST PUSH1 0x40 MLOAD DUP1 SWAP2 SUB SWAP1 RETURN JUMPDEST PUSH2 0x21F PUSH2 0xA12 JUMP JUMPDEST PUSH1 0x40 MLOAD PUSH2 0x22C SWAP2 SWAP1 PUSH2 0x1317 JUMP JUMPDEST PUSH1 0x40 MLOAD DUP1 SWAP2 SUB SWAP1 RETURN JUMPDEST PUSH2 0x24F PUSH1 0x4 DUP1 CALLDATASIZE SUB DUP2 ADD SWAP1 PUSH2 0x24A SWAP2 SWAP1 PUSH2 0x135A JUMP JUMPDEST PUSH2 0xA37 JUMP JUMPDEST STOP JUMPDEST PUSH1 0x5 SLOAD DUP2 JUMP JUMPDEST PUSH0 PUSH1 0x14 SWAP1 SLOAD SWAP1 PUSH2 0x100 EXP SWAP1 DIV PUSH1 0xFF AND DUP2 JUMP JUMPDEST PUSH1 0x1 SLOAD DUP2 JUMP JUMPDEST PUSH2 0x277 PUSH2 0x10AA JUMP JUMPDEST DUP4 PUSH0 PUSH1 0x2 DUP2 LT PUSH2 0x28A JUMPI PUSH2 0x289 PUSH2 0x1399 JUMP JUMPDEST JUMPDEST PUSH1 0x20 MUL ADD CALLDATALOAD DUP2 PUSH0 PUSH1 0xC DUP2 LT PUSH2 0x2A2 JUMPI PUSH2 0x2A1 PUSH2 0x1399 JUMP JUMPDEST JUMPDEST PUSH1 0x20 MUL ADD DUP2 DUP2 MSTORE POP POP DUP4 PUSH1 0x1 PUSH1 0x2 DUP2 LT PUSH2 0x2BF JUMPI PUSH2 0x2BE PUSH2 0x1399 JUMP JUMPDEST JUMPDEST PUSH1 0x20 MUL ADD CALLDATALOAD DUP2 PUSH1 0x1 PUSH1 0xC DUP2 LT PUSH2 0x2D8 JUMPI PUSH2 0x2D7 PUSH2 0x1399 JUMP JUMPDEST JUMPDEST PUSH1 0x20 MUL ADD DUP2 DUP2 MSTORE POP POP DUP3 PUSH0 PUSH1 0x2 DUP2 LT PUSH2 0x2F4 JUMPI PUSH2 0x2F3 PUSH2 0x1399 JUMP JUMPDEST JUMPDEST PUSH1 0x20 MUL ADD CALLDATALOAD DUP2 PUSH1 0x2 PUSH1 0xC DUP2 LT PUSH2 0x30D JUMPI PUSH2 0x30C PUSH2 0x1399 JUMP JUMPDEST JUMPDEST PUSH1 0x20 MUL ADD DUP2 DUP2 MSTORE POP POP DUP3 PUSH1 0x1 PUSH1 0x2 DUP2 LT PUSH2 0x32A JUMPI PUSH2 0x329 PUSH2 0x1399 JUMP JUMPDEST JUMPDEST PUSH1 0x20 MUL ADD CALLDATALOAD DUP2 PUSH1 0x3 PUSH1 0xC DUP2 LT PUSH2 0x343 JUMPI PUSH2 0x342 PUSH2 0x1399 JUMP JUMPDEST JUMPDEST PUSH1 0x20 MUL ADD DUP2 DUP2 MSTORE POP POP DUP2 PUSH0 PUSH1 0x8 DUP2 LT PUSH2 0x35F JUMPI PUSH2 0x35E PUSH2 0x1399 JUMP JUMPDEST JUMPDEST PUSH1 0x20 MUL ADD PUSH1 0x20 DUP2 ADD SWAP1 PUSH2 0x372 SWAP2 SWAP1 PUSH2 0x13FF JUMP JUMPDEST PUSH4 0xFFFFFFFF AND DUP2 PUSH1 0x4 PUSH1 0xC DUP2 LT PUSH2 0x38C JUMPI PUSH2 0x38B PUSH2 0x1399 JUMP JUMPDEST JUMPDEST PUSH1 0x20 MUL ADD DUP2 DUP2 MSTORE POP POP DUP2 PUSH1 0x1 PUSH1 0x8 DUP2 LT PUSH2 0x3A9 JUMPI PUSH2 0x3A8 PUSH2 0x1399 JUMP JUMPDEST JUMPDEST PUSH1 0x20 MUL ADD PUSH1 0x20 DUP2 ADD SWAP1 PUSH2 0x3BC SWAP2 SWAP1 PUSH2 0x13FF JUMP JUMPDEST PUSH4 0xFFFFFFFF AND DUP2 PUSH1 0x5 PUSH1 0xC DUP2 LT PUSH2 0x3D6 JUMPI PUSH2 0x3D5 PUSH2 0x1399 JUMP JUMPDEST JUMPDEST PUSH1 0x20 MUL ADD DUP2 DUP2 MSTORE POP POP DUP2 PUSH1 0x2 PUSH1 0x8 DUP2 LT PUSH2 0x3F3 JUMPI PUSH2 0x3F2 PUSH2 0x1399 JUMP JUMPDEST JUMPDEST PUSH1 0x20 MUL ADD PUSH1 0x20 DUP2 ADD SWAP1 PUSH2 0x406 SWAP2 SWAP1 PUSH2 0x13FF JUMP JUMPDEST PUSH4 0xFFFFFFFF AND DUP2 PUSH1 0x6 PUSH1 0xC DUP2 LT PUSH2 0x420 JUMPI PUSH2 0x41F PUSH2 0x1399 JUMP JUMPDEST JUMPDEST PUSH1 0x20 MUL ADD DUP2 DUP2 MSTORE POP POP DUP2 PUSH1 0x3 PUSH1 0x8 DUP2 LT PUSH2 0x43D JUMPI PUSH2 0x43C PUSH2 0x1399 JUMP JUMPDEST JUMPDEST PUSH1 0x20 MUL ADD PUSH1 0x20 DUP2 ADD SWAP1 PUSH2 0x450 SWAP2 SWAP1 PUSH2 0x13FF JUMP JUMPDEST PUSH4 0xFFFFFFFF AND DUP2 PUSH1 0x7 PUSH1 0xC DUP2 LT PUSH2 0x46A JUMPI PUSH2 0x469 PUSH2 0x1399 JUMP JUMPDEST JUMPDEST PUSH1 0x20 MUL ADD DUP2 DUP2 MSTORE POP POP DUP2 PUSH1 0x4 PUSH1 0x8 DUP2 LT PUSH2 0x487 JUMPI PUSH2 0x486 PUSH2 0x1399 JUMP JUMPDEST JUMPDEST PUSH1 0x20 MUL ADD PUSH1 0x20 DUP2 ADD SWAP1 PUSH2 0x49A SWAP2 SWAP1 PUSH2 0x13FF JUMP JUMPDEST PUSH4 0xFFFFFFFF AND DUP2 PUSH1 0x8 PUSH1 0xC DUP2 LT PUSH2 0x4B4 JUMPI PUSH2 0x4B3 PUSH2 0x1399 JUMP JUMPDEST JUMPDEST PUSH1 0x20 MUL ADD DUP2 DUP2 MSTORE POP POP DUP2 PUSH1 0x5 PUSH1 0x8 DUP2 LT PUSH2 0x4D1 JUMPI PUSH2 0x4D0 PUSH2 0x1399 JUMP JUMPDEST JUMPDEST PUSH1 0x20 MUL ADD PUSH1 0x20 DUP2 ADD SWAP1 PUSH2 0x4E4 SWAP2 SWAP1 PUSH2 0x13FF JUMP JUMPDEST PUSH4 0xFFFFFFFF AND DUP2 PUSH1 0x9 PUSH1 0xC DUP2 LT PUSH2 0x4FE JUMPI PUSH2 0x4FD PUSH2 0x1399 JUMP JUMPDEST JUMPDEST PUSH1 0x20 MUL ADD DUP2 DUP2 MSTORE POP POP DUP2 PUSH1 0x6 PUSH1 0x8 DUP2 LT PUSH2 0x51B JUMPI PUSH2 0x51A PUSH2 0x1399 JUMP JUMPDEST JUMPDEST PUSH1 0x20 MUL ADD PUSH1 0x20 DUP2 ADD SWAP1 PUSH2 0x52E SWAP2 SWAP1 PUSH2 0x13FF JUMP JUMPDEST PUSH4 0xFFFFFFFF AND DUP2 PUSH1 0xA PUSH1 0xC DUP2 LT PUSH2 0x548 JUMPI PUSH2 0x547 PUSH2 0x1399 JUMP JUMPDEST JUMPDEST PUSH1 0x20 MUL ADD DUP2 DUP2 MSTORE POP POP DUP2 PUSH1 0x7 PUSH1 0x8 DUP2 LT PUSH2 0x565 JUMPI PUSH2 0x564 PUSH2 0x1399 JUMP JUMPDEST JUMPDEST PUSH1 0x20 MUL ADD PUSH1 0x20 DUP2 ADD SWAP1 PUSH2 0x578 SWAP2 SWAP1 PUSH2 0x13FF JUMP JUMPDEST PUSH4 0xFFFFFFFF AND DUP2 PUSH1 0xB PUSH1 0xC DUP2 LT PUSH2 0x592 JUMPI PUSH2 0x591 PUSH2 0x1399 JUMP JUMPDEST JUMPDEST PUSH1 0x20 MUL ADD DUP2 DUP2 MSTORE POP POP PUSH0 PUSH1 0x14 SWAP1 SLOAD SWAP1 PUSH2 0x100 EXP SWAP1 DIV PUSH1 0xFF AND PUSH2 0x5E9 JUMPI PUSH1 0x40 MLOAD PUSH32 0x8C379A000000000000000000000000000000000000000000000000000000000 DUP2 MSTORE PUSH1 0x4 ADD PUSH2 0x5E0 SWAP1 PUSH2 0x1484 JUMP JUMPDEST PUSH1 0x40 MLOAD DUP1 SWAP2 SUB SWAP1 REVERT JUMPDEST PUSH0 DUP3 PUSH1 0x40 MLOAD PUSH1 0x20 ADD PUSH2 0x5FB SWAP2 SWAP1 PUSH2 0x1565 JUMP JUMPDEST PUSH1 0x40 MLOAD PUSH1 0x20 DUP2 DUP4 SUB SUB DUP2 MSTORE SWAP1 PUSH1 0x40 MSTORE DUP1 MLOAD SWAP1 PUSH1 0x20 ADD KECCAK256 SWAP1 POP PUSH1 0x6 PUSH0 DUP3 DUP2 MSTORE PUSH1 0x20 ADD SWAP1 DUP2 MSTORE PUSH1 0x20 ADD PUSH0 KECCAK256 PUSH0 SWAP1 SLOAD SWAP1 PUSH2 0x100 EXP SWAP1 DIV PUSH1 0xFF AND ISZERO PUSH2 0x671 JUMPI PUSH1 0x40 MLOAD PUSH32 0x8C379A000000000000000000000000000000000000000000000000000000000 DUP2 MSTORE PUSH1 0x4 ADD PUSH2 0x668 SWAP1 PUSH2 0x15CA JUMP JUMPDEST PUSH1 0x40 MLOAD DUP1 SWAP2 SUB SWAP1 REVERT JUMPDEST PUSH0 PUSH1 0x7 PUSH0 SWAP1 SLOAD SWAP1 PUSH2 0x100 EXP SWAP1 DIV PUSH20 0xFFFFFFFFFFFFFFFFFFFFFFFFFFFFFFFFFFFFFFFF AND PUSH20 0xFFFFFFFFFFFFFFFFFFFFFFFFFFFFFFFFFFFFFFFF AND PUSH4 0x66670599 DUP9 DUP6 PUSH1 0x40 MLOAD DUP4 PUSH4 0xFFFFFFFF AND PUSH1 0xE0 SHL DUP2 MSTORE PUSH1 0x4 ADD PUSH2 0x6CE SWAP3 SWAP2 SWAP1 PUSH2 0x17AD JUMP JUMPDEST PUSH1 0x20 PUSH1 0x40 MLOAD DUP1 DUP4 SUB DUP2 DUP7 GAS STATICCALL ISZERO DUP1 ISZERO PUSH2 0x6E9 JUMPI RETURNDATASIZE PUSH0 PUSH0 RETURNDATACOPY RETURNDATASIZE PUSH0 REVERT JUMPDEST POP POP POP POP PUSH1 0x40 MLOAD RETURNDATASIZE PUSH1 0x1F NOT PUSH1 0x1F DUP3 ADD AND DUP3 ADD DUP1 PUSH1 0x40 MSTORE POP DUP2 ADD SWAP1 PUSH2 0x70D SWAP2 SWAP1 PUSH2 0x1800 JUMP JUMPDEST SWAP1 POP DUP1 PUSH2 0x74F JUMPI PUSH1 0x40 MLOAD PUSH32 0x8C379A000000000000000000000000000000000000000000000000000000000 DUP2 MSTORE PUSH1 0x4 ADD PUSH2 0x746 SWAP1 PUSH2 0x1875 JUMP JUMPDEST PUSH1 0x40 MLOAD DUP1 SWAP2 SUB SWAP1 REVERT JUMPDEST PUSH1 0x1 PUSH1 0x6 PUSH0 DUP5 DUP2 MSTORE PUSH1 0x20 ADD SWAP1 DUP2 MSTORE PUSH1 0x20 ADD PUSH0 KECCAK256 PUSH0 PUSH2 0x100 EXP DUP2 SLOAD DUP2 PUSH1 0xFF MUL NOT AND SWAP1 DUP4 ISZERO ISZERO MUL OR SWAP1 SSTORE POP PUSH2 0x7B7 PUSH1 0x1 SLOAD PUSH1 0x2 SLOAD DUP9 PUSH0 PUSH1 0x2 DUP2 LT PUSH2 0x794 JUMPI PUSH2 0x793 PUSH2 0x1399 JUMP JUMPDEST JUMPDEST PUSH1 0x20 MUL ADD CALLDATALOAD DUP10 PUSH1 0x1 PUSH1 0x2 DUP2 LT PUSH2 0x7AD JUMPI PUSH2 0x7AC PUSH2 0x1399 JUMP JUMPDEST JUMPDEST PUSH1 0x20 MUL ADD CALLDATALOAD PUSH2 0xCD4 JUMP JUMPDEST PUSH1 0x1 PUSH0 PUSH1 0x2 PUSH0 DUP5 SWAP2 SWAP1 POP SSTORE DUP4 SWAP2 SWAP1 POP SSTORE POP POP PUSH2 0x808 PUSH1 0x3 SLOAD PUSH1 0x4 SLOAD DUP8 PUSH0 PUSH1 0x2 DUP2 LT PUSH2 0x7E5 JUMPI PUSH2 0x7E4 PUSH2 0x1399 JUMP JUMPDEST JUMPDEST PUSH1 0x20 MUL ADD CALLDATALOAD DUP9 PUSH1 0x1 PUSH1 0x2 DUP2 LT PUSH2 0x7FE JUMPI PUSH2 0x7FD PUSH2 0x1399 JUMP JUMPDEST JUMPDEST PUSH1 0x20 MUL ADD CALLDATALOAD PUSH2 0xCD4 JUMP JUMPDEST PUSH1 0x3 PUSH0 PUSH1 0x4 PUSH0 DUP5 SWAP2 SWAP1 POP SSTORE DUP4 SWAP2 SWAP1 POP SSTORE POP POP PUSH1 0x1 PUSH1 0x5 PUSH0 DUP3 DUP3 SLOAD PUSH2 0x82C SWAP2 SWAP1 PUSH2 0x18C0 JUMP JUMPDEST SWAP3 POP POP DUP2 SWAP1 SSTORE POP PUSH32 0xEC3373933D5241831A4FB1607A10C99CC2D1A609F099FF1987CE2C1884D05284 DUP7 DUP7 DUP5 PUSH1 0x40 MLOAD PUSH2 0x866 SWAP4 SWAP3 SWAP2 SWAP1 PUSH2 0x1912 JUMP JUMPDEST PUSH1 0x40 MLOAD DUP1 SWAP2 SUB SWAP1 LOG1 POP POP POP POP POP POP POP JUMP JUMPDEST PUSH0 PUSH0 SWAP1 SLOAD SWAP1 PUSH2 0x100 EXP SWAP1 DIV PUSH20 0xFFFFFFFFFFFFFFFFFFFFFFFFFFFFFFFFFFFFFFFF AND PUSH20 0xFFFFFFFFFFFFFFFFFFFFFFFFFFFFFFFFFFFFFFFF AND CALLER PUSH20 0xFFFFFFFFFFFFFFFFFFFFFFFFFFFFFFFFFFFFFFFF AND EQ PUSH2 0x905 JUMPI PUSH1 0x40 MLOAD PUSH32 0x8C379A000000000000000000000000000000000000000000000000000000000 DUP2 MSTORE PUSH1 0x4 ADD PUSH2 0x8FC SWAP1 PUSH2 0x1991 JUMP JUMPDEST PUSH1 0x40 MLOAD DUP1 SWAP2 SUB SWAP1 REVERT JUMPDEST PUSH0 PUSH1 0x14 SWAP1 SLOAD SWAP1 PUSH2 0x100 EXP SWAP1 DIV PUSH1 0xFF AND PUSH2 0x953 JUMPI PUSH1 0x40 MLOAD PUSH32 0x8C379A000000000000000000000000000000000000000000000000000000000 DUP2 MSTORE PUSH1 0x4 ADD PUSH2 0x94A SWAP1 PUSH2 0x19F9 JUMP JUMPDEST PUSH1 0x40 MLOAD DUP1 SWAP2 SUB SWAP1 REVERT JUMPDEST PUSH0 PUSH0 PUSH1 0x14 PUSH2 0x100 EXP DUP2 SLOAD DUP2 PUSH1 0xFF MUL NOT AND SWAP1 DUP4 ISZERO ISZERO MUL OR SWAP1 SSTORE POP PUSH32 0xA549B9ADDFC3693A1863AC5B0B13C42960D78DF554C01EA6AC72A7DB985DF0CF PUSH1 0x40 MLOAD PUSH1 0x40 MLOAD DUP1 SWAP2 SUB SWAP1 LOG1 JUMP JUMPDEST PUSH1 0x2 SLOAD DUP2 JUMP JUMPDEST PUSH1 0x6 PUSH1 0x20 MSTORE DUP1 PUSH0 MSTORE PUSH1 0x40 PUSH0 KECCAK256 PUSH0 SWAP2 POP SLOAD SWAP1 PUSH2 0x100 EXP SWAP1 DIV PUSH1 0xFF AND DUP2 JUMP JUMPDEST PUSH1 0x3 SLOAD DUP2 JUMP JUMPDEST PUSH1 0x4 SLOAD DUP2 JUMP JUMPDEST PUSH0 PUSH0 SWAP1 SLOAD SWAP1 PUSH2 0x100 EXP SWAP1 DIV PUSH20 0xFFFFFFFFFFFFFFFFFFFFFFFFFFFFFFFFFFFFFFFF AND DUP2 JUMP JUMPDEST PUSH1 0x7 PUSH0 SWAP1 SLOAD SWAP1 PUSH2 0x100 EXP SWAP1 DIV PUSH20 0xFFFFFFFFFFFFFFFFFFFFFFFFFFFFFFFFFFFFFFFF AND DUP2 JUMP JUMPDEST PUSH1 0x8 PUSH0 SWAP1 SLOAD SWAP1 PUSH2 0x100 EXP SWAP1 DIV PUSH20 0xFFFFFFFFFFFFFFFFFFFFFFFFFFFFFFFFFFFFFFFF AND DUP2 JUMP JUMPDEST PUSH0 PUSH0 SWAP1 SLOAD SWAP1 PUSH2 0x100 EXP SWAP1 DIV PUSH20 0xFFFFFFFFFFFFFFFFFFFFFFFFFFFFFFFFFFFFFFFF AND PUSH20 0xFFFFFFFFFFFFFFFFFFFFFFFFFFFFFFFFFFFFFFFF AND CALLER PUSH20 0xFFFFFFFFFFFFFFFFFFFFFFFFFFFFFFFFFFFFFFFF AND EQ PUSH2 0xAC5 JUMPI PUSH1 0x40 MLOAD PUSH32 0x8C379A000000000000000000000000000000000000000000000000000000000 DUP2 MSTORE PUSH1 0x4 ADD PUSH2 0xABC SWAP1 PUSH2 0x1991 JUMP JUMPDEST PUSH1 0x40 MLOAD DUP1 SWAP2 SUB SWAP1 REVERT JUMPDEST PUSH0 PUSH1 0x14 SWAP1 SLOAD SWAP1 PUSH2 0x100 EXP SWAP1 DIV PUSH1 0xFF AND ISZERO PUSH2 0xB14 JUMPI PUSH1 0x40 MLOAD PUSH32 0x8C379A000000000000000000000000000000000000000000000000000000000 DUP2 MSTORE PUSH1 0x4 ADD PUSH2 0xB0B SWAP1 PUSH2 0x1A61 JUMP JUMPDEST PUSH1 0x40 MLOAD DUP1 SWAP2 SUB SWAP1 REVERT JUMPDEST PUSH2 0xB1C PUSH2 0x10AA JUMP JUMPDEST PUSH1 0x1 SLOAD DUP2 PUSH0 PUSH1 0xC DUP2 LT PUSH2 0xB32 JUMPI PUSH2 0xB31 PUSH2 0x1399 JUMP JUMPDEST JUMPDEST PUSH1 0x20 MUL ADD DUP2 DUP2 MSTORE POP POP PUSH1 0x2 SLOAD DUP2 PUSH1 0x1 PUSH1 0xC DUP2 LT PUSH2 0xB52 JUMPI PUSH2 0xB51 PUSH2 0x1399 JUMP JUMPDEST JUMPDEST PUSH1 0x20 MUL ADD DUP2 DUP2 MSTORE POP POP PUSH1 0x3 SLOAD DUP2 PUSH1 0x2 PUSH1 0xC DUP2 LT PUSH2 0xB72 JUMPI PUSH2 0xB71 PUSH2 0x1399 JUMP JUMPDEST JUMPDEST PUSH1 0x20 MUL ADD DUP2 DUP2 MSTORE POP POP PUSH1 0x4 SLOAD DUP2 PUSH1 0x3 PUSH1 0xC DUP2 LT PUSH2 0xB92 JUMPI PUSH2 0xB91 PUSH2 0x1399 JUMP JUMPDEST JUMPDEST PUSH1 0x20 MUL ADD DUP2 DUP2 MSTORE POP POP DUP3 DUP2 PUSH1 0x4 PUSH1 0xC DUP2 LT PUSH2 0xBB0 JUMPI PUSH2 0xBAF PUSH2 0x1399 JUMP JUMPDEST JUMPDEST PUSH1 0x20 MUL ADD DUP2 DUP2 MSTORE POP POP PUSH0 PUSH1 0x8 PUSH0 SWAP1 SLOAD SWAP1 PUSH2 0x100 EXP SWAP1 DIV PUSH20 0xFFFFFFFFFFFFFFFFFFFFFFFFFFFFFFFFFFFFFFFF AND PUSH20 0xFFFFFFFFFFFFFFFFFFFFFFFFFFFFFFFFFFFFFFFF AND PUSH4 0x66670599 DUP5 DUP5 PUSH1 0x40 MLOAD DUP4 PUSH4 0xFFFFFFFF AND PUSH1 0xE0 SHL DUP2 MSTORE PUSH1 0x4 ADD PUSH2 0xC16 SWAP3 SWAP2 SWAP1 PUSH2 0x17AD JUMP JUMPDEST PUSH1 0x20 PUSH1 0x40 MLOAD DUP1 DUP4 SUB DUP2 DUP7 GAS STATICCALL ISZERO DUP1 ISZERO PUSH2 0xC31 JUMPI RETURNDATASIZE PUSH0 PUSH0 RETURNDATACOPY RETURNDATASIZE PUSH0 REVERT JUMPDEST POP POP POP POP PUSH1 0x40 MLOAD RETURNDATASIZE PUSH1 0x1F NOT PUSH1 0x1F DUP3 ADD AND DUP3 ADD DUP1 PUSH1 0x40 MSTORE POP DUP2 ADD SWAP1 PUSH2 0xC55 SWAP2 SWAP1 PUSH2 0x1800 JUMP JUMPDEST SWAP1 POP DUP1 PUSH2 0xC97 JUMPI PUSH1 0x40 MLOAD PUSH32 0x8C379A000000000000000000000000000000000000000000000000000000000 DUP2 MSTORE PUSH1 0x4 ADD PUSH2 0xC8E SWAP1 PUSH2 0x1AC9 JUMP JUMPDEST PUSH1 0x40 MLOAD DUP1 SWAP2 SUB SWAP1 REVERT JUMPDEST PUSH32 0xEE088BCC4C9BBD048C9C087916EC26AAE94E63151610AF8167078EF170E5AE60 DUP5 PUSH1 0x40 MLOAD PUSH2 0xCC6 SWAP2 SWAP1 PUSH2 0x10E5 JUMP JUMPDEST PUSH1 0x40 MLOAD DUP1 SWAP2 SUB SWAP1 LOG1 POP POP POP POP JUMP JUMPDEST PUSH0 PUSH0 PUSH0 DUP7 EQ DUP1 ISZERO PUSH2 0xCE4 JUMPI POP PUSH0 DUP6 EQ JUMPDEST ISZERO PUSH2 0xCF4 JUMPI DUP4 DUP4 SWAP2 POP SWAP2 POP PUSH2 0xFB9 JUMP JUMPDEST PUSH0 DUP5 EQ DUP1 ISZERO PUSH2 0xD02 JUMPI POP PUSH0 DUP6 EQ JUMPDEST ISZERO PUSH2 0xD12 JUMPI DUP6 DUP6 SWAP2 POP SWAP2 POP PUSH2 0xFB9 JUMP JUMPDEST PUSH0 PUSH32 0x30644E72E131A029B85045B68181585D2833E84879B9709143E1F593F0000001 DUP1 PUSH2 0xD42 JUMPI PUSH2 0xD41 PUSH2 0x1AE7 JUMP JUMPDEST JUMPDEST DUP6 DUP9 MULMOD SWAP1 POP PUSH0 PUSH32 0x30644E72E131A029B85045B68181585D2833E84879B9709143E1F593F0000001 DUP1 PUSH2 0xD77 JUMPI PUSH2 0xD76 PUSH2 0x1AE7 JUMP JUMPDEST JUMPDEST DUP6 DUP9 MULMOD SWAP1 POP PUSH0 PUSH32 0x30644E72E131A029B85045B68181585D2833E84879B9709143E1F593F0000001 DUP1 PUSH2 0xDAC JUMPI PUSH2 0xDAB PUSH2 0x1AE7 JUMP JUMPDEST JUMPDEST PUSH32 0x30644E72E131A029B85045B68181585D2833E84879B9709143E1F593F0000001 DUP1 PUSH2 0xDDB JUMPI PUSH2 0xDDA PUSH2 0x1AE7 JUMP JUMPDEST JUMPDEST DUP4 DUP6 MULMOD PUSH3 0x292F8 MULMOD SWAP1 POP PUSH0 PUSH32 0x30644E72E131A029B85045B68181585D2833E84879B9709143E1F593F0000001 DUP1 PUSH2 0xE15 JUMPI PUSH2 0xE14 PUSH2 0x1AE7 JUMP JUMPDEST JUMPDEST PUSH32 0x30644E72E131A029B85045B68181585D2833E84879B9709143E1F593F0000001 DUP1 PUSH2 0xE44 JUMPI PUSH2 0xE43 PUSH2 0x1AE7 JUMP JUMPDEST JUMPDEST DUP10 DUP12 MULMOD PUSH32 0x30644E72E131A029B85045B68181585D2833E84879B9709143E1F593F0000001 DUP1 PUSH2 0xE76 JUMPI PUSH2 0xE75 PUSH2 0x1AE7 JUMP JUMPDEST JUMPDEST DUP10 DUP14 MULMOD ADDMOD SWAP1 POP PUSH0 PUSH2 0xEDC DUP5 PUSH32 0x30644E72E131A029B85045B68181585D2833E84879B9709143E1F593F0000001 DUP1 PUSH2 0xEB0 JUMPI PUSH2 0xEAF PUSH2 0x1AE7 JUMP JUMPDEST JUMPDEST DUP8 PUSH3 0x292FC MULMOD PUSH32 0x30644E72E131A029B85045B68181585D2833E84879B9709143E1F593F0000001 PUSH2 0xFC2 JUMP JUMPDEST SWAP1 POP PUSH32 0x30644E72E131A029B85045B68181585D2833E84879B9709143E1F593F0000001 DUP1 PUSH2 0xF0D JUMPI PUSH2 0xF0C PUSH2 0x1AE7 JUMP JUMPDEST JUMPDEST PUSH2 0xF48 PUSH32 0x30644E72E131A029B85045B68181585D2833E84879B9709143E1F593F0000001 DUP1 PUSH2 0xF3F JUMPI PUSH2 0xF3E PUSH2 0x1AE7 JUMP JUMPDEST JUMPDEST DUP6 PUSH1 0x1 ADDMOD PUSH2 0x1004 JUMP JUMPDEST DUP4 MULMOD SWAP7 POP PUSH32 0x30644E72E131A029B85045B68181585D2833E84879B9709143E1F593F0000001 DUP1 PUSH2 0xF7B JUMPI PUSH2 0xF7A PUSH2 0x1AE7 JUMP JUMPDEST JUMPDEST PUSH2 0xFAF PUSH2 0xFAA PUSH1 0x1 DUP7 PUSH32 0x30644E72E131A029B85045B68181585D2833E84879B9709143E1F593F0000001 PUSH2 0xFC2 JUMP JUMPDEST PUSH2 0x1004 JUMP JUMPDEST DUP3 MULMOD SWAP6 POP POP POP POP POP POP JUMPDEST SWAP5 POP SWAP5 SWAP3 POP POP POP JUMP JUMPDEST PUSH0 PUSH0 DUP5 SWAP1 POP DUP4 DUP6 GT PUSH2 0xFDD JUMPI DUP3 DUP2 PUSH2 0xFDA SWAP2 SWAP1 PUSH2 0x18C0 JUMP JUMPDEST SWAP1 POP JUMPDEST DUP3 DUP1 PUSH2 0xFEC JUMPI PUSH2 0xFEB PUSH2 0x1AE7 JUMP JUMPDEST JUMPDEST PUSH0 DUP6 DUP4 PUSH2 0xFF9 SWAP2 SWAP1 PUSH2 0x1B14 JUMP JUMPDEST ADDMOD SWAP2 POP POP SWAP4 SWAP3 POP POP POP JUMP JUMPDEST PUSH0 PUSH2 0x105C DUP3 PUSH1 0x2 PUSH32 0x30644E72E131A029B85045B68181585D2833E84879B9709143E1F593F0000001 PUSH2 0x1036 SWAP2 SWAP1 PUSH2 0x1B14 JUMP JUMPDEST PUSH32 0x30644E72E131A029B85045B68181585D2833E84879B9709143E1F593F0000001 PUSH2 0x1063 JUMP JUMPDEST SWAP1 POP SWAP2 SWAP1 POP JUMP JUMPDEST PUSH0 PUSH1 0x40 MLOAD PUSH1 0x20 DUP2 MSTORE PUSH1 0x20 DUP1 DUP3 ADD MSTORE PUSH1 0x20 PUSH1 0x40 DUP3 ADD MSTORE DUP5 PUSH1 0x60 DUP3 ADD MSTORE DUP4 PUSH1 0x80 DUP3 ADD MSTORE DUP3 PUSH1 0xA0 DUP3 ADD MSTORE PUSH1 0x20 DUP2 PUSH1 0xC0 DUP4 PUSH1 0x5 GAS STATICCALL DUP1 PUSH2 0x109D JUMPI PUSH0 PUSH0 REVERT JUMPDEST DUP2 MLOAD SWAP3 POP POP POP SWAP4 SWAP3 POP POP POP JUMP JUMPDEST PUSH1 0x40 MLOAD DUP1 PUSH2 0x180 ADD PUSH1 0x40 MSTORE DUP1 PUSH1 0xC SWAP1 PUSH1 0x20 DUP3 MUL DUP1 CALLDATASIZE DUP4 CALLDATACOPY DUP1 DUP3 ADD SWAP2 POP POP SWAP1 POP POP SWAP1 JUMP JUMPDEST PUSH0 DUP2 SWAP1 POP SWAP2 SWAP1 POP JUMP JUMPDEST PUSH2 0x10DF DUP2 PUSH2 0x10CD JUMP JUMPDEST DUP3 MSTORE POP POP JUMP JUMPDEST PUSH0 PUSH1 0x20 DUP3 ADD SWAP1 POP PUSH2 0x10F8 PUSH0 DUP4 ADD DUP5 PUSH2 0x10D6 JUMP JUMPDEST SWAP3 SWAP2 POP POP JUMP JUMPDEST PUSH0 DUP2 ISZERO ISZERO SWAP1 POP SWAP2 SWAP1 POP JUMP JUMPDEST PUSH2 0x1112 DUP2 PUSH2 0x10FE JUMP JUMPDEST DUP3 MSTORE POP POP JUMP JUMPDEST PUSH0 PUSH1 0x20 DUP3 ADD SWAP1 POP PUSH2 0x112B PUSH0 DUP4 ADD DUP5 PUSH2 0x1109 JUMP JUMPDEST SWAP3 SWAP2 POP POP JUMP JUMPDEST PUSH0 PUSH0 REVERT JUMPDEST PUSH0 PUSH0 REVERT JUMPDEST PUSH0 PUSH2 0x100 DUP3 DUP5 SUB SLT ISZERO PUSH2 0x114F JUMPI PUSH2 0x114E PUSH2 0x1135 JUMP JUMPDEST JUMPDEST DUP2 SWAP1 POP SWAP3 SWAP2 POP POP JUMP JUMPDEST PUSH0 PUSH0 REVERT JUMPDEST PUSH0 DUP2 SWAP1 POP DUP3 PUSH1 0x20 PUSH1 0x2 MUL DUP3 ADD GT ISZERO PUSH2 0x1177 JUMPI PUSH2 0x1176 PUSH2 0x1158 JUMP JUMPDEST JUMPDEST SWAP3 SWAP2 POP POP JUMP JUMPDEST PUSH0 DUP2 SWAP1 POP DUP3 PUSH1 0x20 PUSH1 0x8 MUL DUP3 ADD GT ISZERO PUSH2 0x1198 JUMPI PUSH2 0x1197 PUSH2 0x1158 JUMP JUMPDEST JUMPDEST SWAP3 SWAP2 POP POP JUMP JUMPDEST PUSH0 PUSH0 PUSH0 PUSH0 PUSH2 0x280 DUP6 DUP8 SUB SLT ISZERO PUSH2 0x11B7 JUMPI PUSH2 0x11B6 PUSH2 0x1131 JUMP JUMPDEST JUMPDEST PUSH0 PUSH2 0x11C4 DUP8 DUP3 DUP9 ADD PUSH2 0x1139 JUMP JUMPDEST SWAP5 POP POP PUSH2 0x100 PUSH2 0x11D6 DUP8 DUP3 DUP9 ADD PUSH2 0x115C JUMP JUMPDEST SWAP4 POP POP PUSH2 0x140 PUSH2 0x11E8 DUP8 DUP3 DUP9 ADD PUSH2 0x115C JUMP JUMPDEST SWAP3 POP POP PUSH2 0x180 PUSH2 0x11FA DUP8 DUP3 DUP9 ADD PUSH2 0x117D JUMP JUMPDEST SWAP2 POP POP SWAP3 SWAP6 SWAP2 SWAP5 POP SWAP3 POP JUMP JUMPDEST PUSH0 DUP2 SWAP1 POP SWAP2 SWAP1 POP JUMP JUMPDEST PUSH2 0x1218 DUP2 PUSH2 0x1206 JUMP JUMPDEST DUP2 EQ PUSH2 0x1222 JUMPI PUSH0 PUSH0 REVERT JUMPDEST POP JUMP JUMPDEST PUSH0 DUP2 CALLDATALOAD SWAP1 POP PUSH2 0x1233 DUP2 PUSH2 0x120F JUMP JUMPDEST SWAP3 SWAP2 POP POP JUMP JUMPDEST PUSH0 PUSH1 0x20 DUP3 DUP5 SUB SLT ISZERO PUSH2 0x124E JUMPI PUSH2 0x124D PUSH2 0x1131 JUMP JUMPDEST JUMPDEST PUSH0 PUSH2 0x125B DUP5 DUP3 DUP6 ADD PUSH2 0x1225 JUMP JUMPDEST SWAP2 POP POP SWAP3 SWAP2 POP POP JUMP JUMPDEST PUSH0 PUSH20 0xFFFFFFFFFFFFFFFFFFFFFFFFFFFFFFFFFFFFFFFF DUP3 AND SWAP1 POP SWAP2 SWAP1 POP JUMP JUMPDEST PUSH0 PUSH2 0x128D DUP3 PUSH2 0x1264 JUMP JUMPDEST SWAP1 POP SWAP2 SWAP1 POP JUMP JUMPDEST PUSH2 0x129D DUP2 PUSH2 0x1283 JUMP JUMPDEST DUP3 MSTORE POP POP JUMP JUMPDEST PUSH0 PUSH1 0x20 DUP3 ADD SWAP1 POP PUSH2 0x12B6 PUSH0 DUP4 ADD DUP5 PUSH2 0x1294 JUMP JUMPDEST SWAP3 SWAP2 POP POP JUMP JUMPDEST PUSH0 DUP2 SWAP1 POP SWAP2 SWAP1 POP JUMP JUMPDEST PUSH0 PUSH2 0x12DF PUSH2 0x12DA PUSH2 0x12D5 DUP5 PUSH2 0x1264 JUMP JUMPDEST PUSH2 0x12BC JUMP JUMPDEST PUSH2 0x1264 JUMP JUMPDEST SWAP1 POP SWAP2 SWAP1 POP JUMP JUMPDEST PUSH0 PUSH2 0x12F0 DUP3 PUSH2 0x12C5 JUMP JUMPDEST SWAP1 POP SWAP2 SWAP1 POP JUMP JUMPDEST PUSH0 PUSH2 0x1301 DUP3 PUSH2 0x12E6 JUMP JUMPDEST SWAP1 POP SWAP2 SWAP1 POP JUMP JUMPDEST PUSH2 0x1311 DUP2 PUSH2 0x12F7 JUMP JUMPDEST DUP3 MSTORE POP POP JUMP JUMPDEST PUSH0 PUSH1 0x20 DUP3 ADD SWAP1 POP PUSH2 0x132A PUSH0 DUP4 ADD DUP5 PUSH2 0x1308 JUMP JUMPDEST SWAP3 SWAP2 POP POP JUMP JUMPDEST PUSH2 0x1339 DUP2 PUSH2 0x10CD JUMP JUMPDEST DUP2 EQ PUSH2 0x1343 JUMPI PUSH0 PUSH0 REVERT JUMPDEST POP JUMP JUMPDEST PUSH0 DUP2 CALLDATALOAD SWAP1 POP PUSH2 0x1354 DUP2 PUSH2 0x1330 JUMP JUMPDEST SWAP3 SWAP2 POP POP JUMP JUMPDEST PUSH0 PUSH0 PUSH2 0x120 DUP4 DUP6 SUB SLT ISZERO PUSH2 0x1371 JUMPI PUSH2 0x1370 PUSH2 0x1131 JUMP JUMPDEST JUMPDEST PUSH0 PUSH2 0x137E DUP6 DUP3 DUP7 ADD PUSH2 0x1346 JUMP JUMPDEST SWAP3 POP POP PUSH1 0x20 PUSH2 0x138F DUP6 DUP3 DUP7 ADD PUSH2 0x1139 JUMP JUMPDEST SWAP2 POP POP SWAP3 POP SWAP3 SWAP1 POP JUMP JUMPDEST PUSH32 0x4E487B7100000000000000000000000000000000000000000000000000000000 PUSH0 MSTORE PUSH1 0x32 PUSH1 0x4 MSTORE PUSH1 0x24 PUSH0 REVERT JUMPDEST PUSH0 PUSH4 0xFFFFFFFF DUP3 AND SWAP1 POP SWAP2 SWAP1 POP JUMP JUMPDEST PUSH2 0x13DE DUP2 PUSH2 0x13C6 JUMP JUMPDEST DUP2 EQ PUSH2 0x13E8 JUMPI PUSH0 PUSH0 REVERT JUMPDEST POP JUMP JUMPDEST PUSH0 DUP2 CALLDATALOAD SWAP1 POP PUSH2 0x13F9 DUP2 PUSH2 0x13D5 JUMP JUMPDEST SWAP3 SWAP2 POP POP JUMP JUMPDEST PUSH0 PUSH1 0x20 DUP3 DUP5 SUB SLT ISZERO PUSH2 0x1414 JUMPI PUSH2 0x1413 PUSH2 0x1131 JUMP JUMPDEST JUMPDEST PUSH0 PUSH2 0x1421 DUP5 DUP3 DUP6 ADD PUSH2 0x13EB JUMP JUMPDEST SWAP2 POP POP SWAP3 SWAP2 POP POP JUMP JUMPDEST PUSH0 DUP3 DUP3 MSTORE PUSH1 0x20 DUP3 ADD SWAP1 POP SWAP3 SWAP2 POP POP JUMP JUMPDEST PUSH32 0x456C656374696F6E20636C6F7365640000000000000000000000000000000000 PUSH0 DUP3 ADD MSTORE POP JUMP JUMPDEST PUSH0 PUSH2 0x146E PUSH1 0xF DUP4 PUSH2 0x142A JUMP JUMPDEST SWAP2 POP PUSH2 0x1479 DUP3 PUSH2 0x143A JUMP JUMPDEST PUSH1 0x20 DUP3 ADD SWAP1 POP SWAP2 SWAP1 POP JUMP JUMPDEST PUSH0 PUSH1 0x20 DUP3 ADD SWAP1 POP DUP2 DUP2 SUB PUSH0 DUP4 ADD MSTORE PUSH2 0x149B DUP2 PUSH2 0x1462 JUMP JUMPDEST SWAP1 POP SWAP2 SWAP1 POP JUMP JUMPDEST PUSH0 PUSH1 0x8 SWAP1 POP SWAP2 SWAP1 POP JUMP JUMPDEST PUSH0 DUP2 SWAP1 POP SWAP3 SWAP2 POP POP JUMP JUMPDEST PUSH0 DUP2 SWAP1 POP SWAP2 SWAP1 POP JUMP JUMPDEST PUSH2 0x14C8 DUP2 PUSH2 0x13C6 JUMP JUMPDEST DUP3 MSTORE POP POP JUMP JUMPDEST PUSH0 PUSH2 0x14D9 DUP4 DUP4 PUSH2 0x14BF JUMP JUMPDEST PUSH1 0x20 DUP4 ADD SWAP1 POP SWAP3 SWAP2 POP POP JUMP JUMPDEST PUSH0 PUSH2 0x14F3 PUSH1 0x20 DUP5 ADD DUP5 PUSH2 0x13EB JUMP JUMPDEST SWAP1 POP SWAP3 SWAP2 POP POP JUMP JUMPDEST PUSH0 PUSH1 0x20 DUP3 ADD SWAP1 POP SWAP2 SWAP1 POP JUMP JUMPDEST PUSH2 0x1510 DUP2 PUSH2 0x14A2 JUMP JUMPDEST PUSH2 0x151A DUP2 DUP5 PUSH2 0x14AC JUMP JUMPDEST SWAP3 POP PUSH2 0x1525 DUP3 PUSH2 0x14B6 JUMP JUMPDEST DUP1 PUSH0 JUMPDEST DUP4 DUP2 LT ISZERO PUSH2 0x155D JUMPI PUSH2 0x153A DUP3 DUP5 PUSH2 0x14E5 JUMP JUMPDEST PUSH2 0x1544 DUP8 DUP3 PUSH2 0x14CE JUMP JUMPDEST SWAP7 POP PUSH2 0x154F DUP4 PUSH2 0x14FB JUMP JUMPDEST SWAP3 POP POP PUSH1 0x1 DUP2 ADD SWAP1 POP PUSH2 0x1528 JUMP JUMPDEST POP POP POP POP POP POP JUMP JUMPDEST PUSH0 PUSH2 0x1570 DUP3 DUP5 PUSH2 0x1507 JUMP JUMPDEST PUSH2 0x100 DUP3 ADD SWAP2 POP DUP2 SWAP1 POP SWAP3 SWAP2 POP POP JUMP JUMPDEST PUSH32 0x4E756C6C696669657220616C7265616479207573656400000000000000000000 PUSH0 DUP3 ADD MSTORE POP JUMP JUMPDEST PUSH0 PUSH2 0x15B4 PUSH1 0x16 DUP4 PUSH2 0x142A JUMP JUMPDEST SWAP2 POP PUSH2 0x15BF DUP3 PUSH2 0x1580 JUMP JUMPDEST PUSH1 0x20 DUP3 ADD SWAP1 POP SWAP2 SWAP1 POP JUMP JUMPDEST PUSH0 PUSH1 0x20 DUP3 ADD SWAP1 POP DUP2 DUP2 SUB PUSH0 DUP4 ADD MSTORE PUSH2 0x15E1 DUP2 PUSH2 0x15A8 JUMP JUMPDEST SWAP1 POP SWAP2 SWAP1 POP JUMP JUMPDEST PUSH0 DUP3 SWAP1 POP SWAP3 SWAP2 POP POP JUMP JUMPDEST PUSH0 PUSH2 0x1600 PUSH1 0x20 DUP5 ADD DUP5 PUSH2 0x1346 JUMP JUMPDEST SWAP1 POP SWAP3 SWAP2 POP POP JUMP JUMPDEST PUSH2 0x1611 DUP2 PUSH2 0x10CD JUMP JUMPDEST DUP3 MSTORE POP POP JUMP JUMPDEST PUSH1 0x40 DUP3 ADD PUSH2 0x1627 PUSH0 DUP4 ADD DUP4 PUSH2 0x15F2 JUMP JUMPDEST PUSH2 0x1633 PUSH0 DUP6 ADD DUP3 PUSH2 0x1608 JUMP JUMPDEST POP PUSH2 0x1641 PUSH1 0x20 DUP4 ADD DUP4 PUSH2 0x15F2 JUMP JUMPDEST PUSH2 0x164E PUSH1 0x20 DUP6 ADD DUP3 PUSH2 0x1608 JUMP JUMPDEST POP POP POP POP JUMP JUMPDEST PUSH0 DUP3 SWAP1 POP SWAP3 SWAP2 POP POP JUMP JUMPDEST PUSH0 DUP3 SWAP1 POP SWAP3 SWAP2 POP POP JUMP JUMPDEST DUP3 DUP2 DUP4 CALLDATACOPY POP POP POP JUMP JUMPDEST PUSH2 0x167D PUSH1 0x40 DUP4 DUP4 PUSH2 0x1668 JUMP JUMPDEST POP POP JUMP JUMPDEST PUSH1 0x80 DUP3 ADD PUSH2 0x1691 PUSH0 DUP4 ADD DUP4 PUSH2 0x165E JUMP JUMPDEST PUSH2 0x169D PUSH0 DUP6 ADD DUP3 PUSH2 0x1671 JUMP JUMPDEST POP PUSH2 0x16AB PUSH1 0x40 DUP4 ADD DUP4 PUSH2 0x165E JUMP JUMPDEST PUSH2 0x16B8 PUSH1 0x40 DUP6 ADD DUP3 PUSH2 0x1671 JUMP JUMPDEST POP POP POP POP JUMP JUMPDEST PUSH2 0x100 DUP3 ADD PUSH2 0x16CF PUSH0 DUP4 ADD DUP4 PUSH2 0x15E8 JUMP JUMPDEST PUSH2 0x16DB PUSH0 DUP6 ADD DUP3 PUSH2 0x1617 JUMP JUMPDEST POP PUSH2 0x16E9 PUSH1 0x40 DUP4 ADD DUP4 PUSH2 0x1654 JUMP JUMPDEST PUSH2 0x16F6 PUSH1 0x40 DUP6 ADD DUP3 PUSH2 0x1681 JUMP JUMPDEST POP PUSH2 0x1704 PUSH1 0xC0 DUP4 ADD DUP4 PUSH2 0x15E8 JUMP JUMPDEST PUSH2 0x1711 PUSH1 0xC0 DUP6 ADD DUP3 PUSH2 0x1617 JUMP JUMPDEST POP POP POP POP JUMP JUMPDEST PUSH0 PUSH1 0xC SWAP1 POP SWAP2 SWAP1 POP JUMP JUMPDEST PUSH0 DUP2 SWAP1 POP SWAP3 SWAP2 POP POP JUMP JUMPDEST PUSH0 DUP2 SWAP1 POP SWAP2 SWAP1 POP JUMP JUMPDEST PUSH0 PUSH2 0x173F DUP4 DUP4 PUSH2 0x1608 JUMP JUMPDEST PUSH1 0x20 DUP4 ADD SWAP1 POP SWAP3 SWAP2 POP POP JUMP JUMPDEST PUSH0 PUSH1 0x20 DUP3 ADD SWAP1 POP SWAP2 SWAP1 POP JUMP JUMPDEST PUSH2 0x1760 DUP2 PUSH2 0x1717 JUMP JUMPDEST PUSH2 0x176A DUP2 DUP5 PUSH2 0x1721 JUMP JUMPDEST SWAP3 POP PUSH2 0x1775 DUP3 PUSH2 0x172B JUMP JUMPDEST DUP1 PUSH0 JUMPDEST DUP4 DUP2 LT ISZERO PUSH2 0x17A5 JUMPI DUP2 MLOAD PUSH2 0x178C DUP8 DUP3 PUSH2 0x1734 JUMP JUMPDEST SWAP7 POP PUSH2 0x1797 DUP4 PUSH2 0x174B JUMP JUMPDEST SWAP3 POP POP PUSH1 0x1 DUP2 ADD SWAP1 POP PUSH2 0x1778 JUMP JUMPDEST POP POP POP POP POP POP JUMP JUMPDEST PUSH0 PUSH2 0x280 DUP3 ADD SWAP1 POP PUSH2 0x17C1 PUSH0 DUP4 ADD DUP6 PUSH2 0x16BE JUMP JUMPDEST PUSH2 0x17CF PUSH2 0x100 DUP4 ADD DUP5 PUSH2 0x1757 JUMP JUMPDEST SWAP4 SWAP3 POP POP POP JUMP JUMPDEST PUSH2 0x17DF DUP2 PUSH2 0x10FE JUMP JUMPDEST DUP2 EQ PUSH2 0x17E9 JUMPI PUSH0 PUSH0 REVERT JUMPDEST POP JUMP JUMPDEST PUSH0 DUP2 MLOAD SWAP1 POP PUSH2 0x17FA DUP2 PUSH2 0x17D6 JUMP JUMPDEST SWAP3 SWAP2 POP POP JUMP JUMPDEST PUSH0 PUSH1 0x20 DUP3 DUP5 SUB SLT ISZERO PUSH2 0x1815 JUMPI PUSH2 0x1814 PUSH2 0x1131 JUMP JUMPDEST JUMPDEST PUSH0 PUSH2 0x1822 DUP5 DUP3 DUP6 ADD PUSH2 0x17EC JUMP JUMPDEST SWAP2 POP POP SWAP3 SWAP2 POP POP JUMP JUMPDEST PUSH32 0x496E76616C696420766F74652070726F6F660000000000000000000000000000 PUSH0 DUP3 ADD MSTORE POP JUMP JUMPDEST PUSH0 PUSH2 0x185F PUSH1 0x12 DUP4 PUSH2 0x142A JUMP JUMPDEST SWAP2 POP PUSH2 0x186A DUP3 PUSH2 0x182B JUMP JUMPDEST PUSH1 0x20 DUP3 ADD SWAP1 POP SWAP2 SWAP1 POP JUMP JUMPDEST PUSH0 PUSH1 0x20 DUP3 ADD SWAP1 POP DUP2 DUP2 SUB PUSH0 DUP4 ADD MSTORE PUSH2 0x188C DUP2 PUSH2 0x1853 JUMP JUMPDEST SWAP1 POP SWAP2 SWAP1 POP JUMP JUMPDEST PUSH32 0x4E487B7100000000000000000000000000000000000000000000000000000000 PUSH0 MSTORE PUSH1 0x11 PUSH1 0x4 MSTORE PUSH1 0x24 PUSH0 REVERT JUMPDEST PUSH0 PUSH2 0x18CA DUP3 PUSH2 0x10CD JUMP JUMPDEST SWAP2 POP PUSH2 0x18D5 DUP4 PUSH2 0x10CD JUMP JUMPDEST SWAP3 POP DUP3 DUP3 ADD SWAP1 POP DUP1 DUP3 GT ISZERO PUSH2 0x18ED JUMPI PUSH2 0x18EC PUSH2 0x1893 JUMP JUMPDEST JUMPDEST SWAP3 SWAP2 POP POP JUMP JUMPDEST PUSH2 0x18FF PUSH1 0x40 DUP4 DUP4 PUSH2 0x1668 JUMP JUMPDEST POP POP JUMP JUMPDEST PUSH2 0x190C DUP2 PUSH2 0x1206 JUMP JUMPDEST DUP3 MSTORE POP POP JUMP JUMPDEST PUSH0 PUSH1 0xA0 DUP3 ADD SWAP1 POP PUSH2 0x1925 PUSH0 DUP4 ADD DUP7 PUSH2 0x18F3 JUMP JUMPDEST PUSH2 0x1932 PUSH1 0x40 DUP4 ADD DUP6 PUSH2 0x18F3 JUMP JUMPDEST PUSH2 0x193F PUSH1 0x80 DUP4 ADD DUP5 PUSH2 0x1903 JUMP JUMPDEST SWAP5 SWAP4 POP POP POP POP JUMP JUMPDEST PUSH32 0x4F6E6C79206F776E657200000000000000000000000000000000000000000000 PUSH0 DUP3 ADD MSTORE POP JUMP JUMPDEST PUSH0 PUSH2 0x197B PUSH1 0xA DUP4 PUSH2 0x142A JUMP JUMPDEST SWAP2 POP PUSH2 0x1986 DUP3 PUSH2 0x1947 JUMP JUMPDEST PUSH1 0x20 DUP3 ADD SWAP1 POP SWAP2 SWAP1 POP JUMP JUMPDEST PUSH0 PUSH1 0x20 DUP3 ADD SWAP1 POP DUP2 DUP2 SUB PUSH0 DUP4 ADD MSTORE PUSH2 0x19A8 DUP2 PUSH2 0x196F JUMP JUMPDEST SWAP1 POP SWAP2 SWAP1 POP JUMP JUMPDEST PUSH32 0x416C726561647920636C6F736564000000000000000000000000000000000000 PUSH0 DUP3 ADD MSTORE POP JUMP JUMPDEST PUSH0 PUSH2 0x19E3 PUSH1 0xE DUP4 PUSH2 0x142A JUMP JUMPDEST SWAP2 POP PUSH2 0x19EE DUP3 PUSH2 0x19AF JUMP JUMPDEST PUSH1 0x20 DUP3 ADD SWAP1 POP SWAP2 SWAP1 POP JUMP JUMPDEST PUSH0 PUSH1 0x20 DUP3 ADD SWAP1 POP DUP2 DUP2 SUB PUSH0 DUP4 ADD MSTORE PUSH2 0x1A10 DUP2 PUSH2 0x19D7 JUMP JUMPDEST SWAP1 POP SWAP2 SWAP1 POP JUMP JUMPDEST PUSH32 0x456C656374696F6E207374696C6C206F70656E00000000000000000000000000 PUSH0 DUP3 ADD MSTORE POP JUMP JUMPDEST PUSH0 PUSH2 0x1A4B PUSH1 0x13 DUP4 PUSH2 0x142A JUMP JUMPDEST SWAP2 POP PUSH2 0x1A56 DUP3 PUSH2 0x1A17 JUMP JUMPDEST PUSH1 0x20 DUP3 ADD SWAP1 POP SWAP2 SWAP1 POP JUMP JUMPDEST PUSH0 PUSH1 0x20 DUP3 ADD SWAP1 POP DUP2 DUP2 SUB PUSH0 DUP4 ADD MSTORE PUSH2 0x1A78 DUP2 PUSH2 0x1A3F JUMP JUMPDEST SWAP1 POP SWAP2 SWAP1 POP JUMP JUMPDEST PUSH32 0x496E76616C6964207265636F756E742070726F6F660000000000000000000000 PUSH0 DUP3 ADD MSTORE POP JUMP JUMPDEST PUSH0 PUSH2 0x1AB3 PUSH1 0x15 DUP4 PUSH2 0x142A JUMP JUMPDEST SWAP2 POP PUSH2 0x1ABE DUP3 PUSH2 0x1A7F JUMP JUMPDEST PUSH1 0x20 DUP3 ADD SWAP1 POP SWAP2 SWAP1 POP JUMP JUMPDEST PUSH0 PUSH1 0x20 DUP3 ADD SWAP1 POP DUP2 DUP2 SUB PUSH0 DUP4 ADD MSTORE PUSH2 0x1AE0 DUP2 PUSH2 0x1AA7 JUMP JUMPDEST SWAP1 POP SWAP2 SWAP1 POP JUMP JUMPDEST PUSH32 0x4E487B7100000000000000000000000000000000000000000000000000000000 PUSH0 MSTORE PUSH1 0x12 PUSH1 0x4 MSTORE PUSH1 0x24 PUSH0 REVERT JUMPDEST PUSH0 PUSH2 0x1B1E DUP3 PUSH2 0x10CD JUMP JUMPDEST SWAP2 POP PUSH2 0x1B29 DUP4 PUSH2 0x10CD JUMP JUMPDEST SWAP3 POP DUP3 DUP3 SUB SWAP1 POP DUP2 DUP2 GT ISZERO PUSH2 0x1B41 JUMPI PUSH2 0x1B40 PUSH2 0x1893 JUMP JUMPDEST JUMPDEST SWAP3 SWAP2 POP POP JUMP INVALID LOG2 PUSH5 0x6970667358 0x22 SLT KECCAK256 0xB6 0xB5 SWAP6 COINBASE 0xC0 BLOBHASH 0xB0 PUSH11 0xD43EED160692742F0DD1DA SWAP9 0xC2 DUP12 PUSH1 0x8D DUP6 PUSH0 PUSH29 0x2036640CAB64736F6C634300081E003300000000000000000000000000 "
		},
		"gasEstimates": {
			"creation": {
				"codeDepositCost": "1407400",
				"executionCost": "infinite",
				"totalCost": "infinite"
			},
			"external": {
				"accC1x()": "2470",
				"accC1y()": "2536",
				"accC2x()": "2470",
				"accC2y()": "2492",
				"closeElection()": "29694",
				"electionOpen()": "2539",
				"nullifierUsed(bytes32)": "2808",
				"numberOfVotes()": "2426",
				"owner()": "2529",
				"publishResults(uint256,((uint256,uint256),(uint256[2],uint256[2]),(uint256,uint256)))": "infinite",
				"recountVerifier()": "infinite",
				"registerVote(((uint256,uint256),(uint256[2],uint256[2]),(uint256,uint256)),uint256[2],uint256[2],uint32[8])": "infinite",
				"voteVerifier()": "infinite"
			}
		},
		"methodIdentifiers": {
			"accC1x()": "4d139763",
			"accC1y()": "75f11da1",
			"accC2x()": "82786199",
			"accC2y()": "87dde0be",
			"closeElection()": "6c6c32d0",
			"electionOpen()": "4a39d442",
			"nullifierUsed(bytes32)": "7ecf686d",
			"numberOfVotes()": "0e7d490d",
			"owner()": "8da5cb5b",
			"publishResults(uint256,((uint256,uint256),(uint256[2],uint256[2]),(uint256,uint256)))": "e63aa8fb",
			"recountVerifier()": "bf0516f2",
			"registerVote(((uint256,uint256),(uint256[2],uint256[2]),(uint256,uint256)),uint256[2],uint256[2],uint32[8])": "59a00a30",
			"voteVerifier()": "99d74c71"
		}
	},
	"abi": [
		{
			"inputs": [
				{
					"internalType": "address",
					"name": "_voteVerifier",
					"type": "address"
				},
				{
					"internalType": "address",
					"name": "_recountVerifier",
					"type": "address"
				}
			],
			"stateMutability": "nonpayable",
			"type": "constructor"
		},
		{
			"anonymous": false,
			"inputs": [],
			"name": "ElectionClosed",
			"type": "event"
		},
		{
			"anonymous": false,
			"inputs": [
				{
					"indexed": false,
					"internalType": "uint256",
					"name": "result",
					"type": "uint256"
				}
			],
			"name": "ResultsPublished",
			"type": "event"
		},
		{
			"anonymous": false,
			"inputs": [
				{
					"indexed": false,
					"internalType": "uint256[2]",
					"name": "C1",
					"type": "uint256[2]"
				},
				{
					"indexed": false,
					"internalType": "uint256[2]",
					"name": "C2",
					"type": "uint256[2]"
				},
				{
					"indexed": false,
					"internalType": "bytes32",
					"name": "nullifierHash",
					"type": "bytes32"
				}
			],
			"name": "VoteRegistered",
			"type": "event"
		},
		{
			"inputs": [],
			"name": "accC1x",
			"outputs": [
				{
					"internalType": "uint256",
					"name": "",
					"type": "uint256"
				}
			],
			"stateMutability": "view",
			"type": "function"
		},
		{
			"inputs": [],
			"name": "accC1y",
			"outputs": [
				{
					"internalType": "uint256",
					"name": "",
					"type": "uint256"
				}
			],
			"stateMutability": "view",
			"type": "function"
		},
		{
			"inputs": [],
			"name": "accC2x",
			"outputs": [
				{
					"internalType": "uint256",
					"name": "",
					"type": "uint256"
				}
			],
			"stateMutability": "view",
			"type": "function"
		},
		{
			"inputs": [],
			"name": "accC2y",
			"outputs": [
				{
					"internalType": "uint256",
					"name": "",
					"type": "uint256"
				}
			],
			"stateMutability": "view",
			"type": "function"
		},
		{
			"inputs": [],
			"name": "closeElection",
			"outputs": [],
			"stateMutability": "nonpayable",
			"type": "function"
		},
		{
			"inputs": [],
			"name": "electionOpen",
			"outputs": [
				{
					"internalType": "bool",
					"name": "",
					"type": "bool"
				}
			],
			"stateMutability": "view",
			"type": "function"
		},
		{
			"inputs": [
				{
					"internalType": "bytes32",
					"name": "",
					"type": "bytes32"
				}
			],
			"name": "nullifierUsed",
			"outputs": [
				{
					"internalType": "bool",
					"name": "",
					"type": "bool"
				}
			],
			"stateMutability": "view",
			"type": "function"
		},
		{
			"inputs": [],
			"name": "numberOfVotes",
			"outputs": [
				{
					"internalType": "uint256",
					"name": "",
					"type": "uint256"
				}
			],
			"stateMutability": "view",
			"type": "function"
		},
		{
			"inputs": [],
			"name": "owner",
			"outputs": [
				{
					"internalType": "address",
					"name": "",
					"type": "address"
				}
			],
			"stateMutability": "view",
			"type": "function"
		},
		{
			"inputs": [
				{
					"internalType": "uint256",
					"name": "result",
					"type": "uint256"
				},
				{
					"components": [
						{
							"components": [
								{
									"internalType": "uint256",
									"name": "X",
									"type": "uint256"
								},
								{
									"internalType": "uint256",
									"name": "Y",
									"type": "uint256"
								}
							],
							"internalType": "struct G1Point",
							"name": "a",
							"type": "tuple"
						},
						{
							"components": [
								{
									"internalType": "uint256[2]",
									"name": "X",
									"type": "uint256[2]"
								},
								{
									"internalType": "uint256[2]",
									"name": "Y",
									"type": "uint256[2]"
								}
							],
							"internalType": "struct G2Point",
							"name": "b",
							"type": "tuple"
						},
						{
							"components": [
								{
									"internalType": "uint256",
									"name": "X",
									"type": "uint256"
								},
								{
									"internalType": "uint256",
									"name": "Y",
									"type": "uint256"
								}
							],
							"internalType": "struct G1Point",
							"name": "c",
							"type": "tuple"
						}
					],
					"internalType": "struct Proof",
					"name": "proof",
					"type": "tuple"
				}
			],
			"name": "publishResults",
			"outputs": [],
			"stateMutability": "nonpayable",
			"type": "function"
		},
		{
			"inputs": [],
			"name": "recountVerifier",
			"outputs": [
				{
					"internalType": "contract IVerifier",
					"name": "",
					"type": "address"
				}
			],
			"stateMutability": "view",
			"type": "function"
		},
		{
			"inputs": [
				{
					"components": [
						{
							"components": [
								{
									"internalType": "uint256",
									"name": "X",
									"type": "uint256"
								},
								{
									"internalType": "uint256",
									"name": "Y",
									"type": "uint256"
								}
							],
							"internalType": "struct G1Point",
							"name": "a",
							"type": "tuple"
						},
						{
							"components": [
								{
									"internalType": "uint256[2]",
									"name": "X",
									"type": "uint256[2]"
								},
								{
									"internalType": "uint256[2]",
									"name": "Y",
									"type": "uint256[2]"
								}
							],
							"internalType": "struct G2Point",
							"name": "b",
							"type": "tuple"
						},
						{
							"components": [
								{
									"internalType": "uint256",
									"name": "X",
									"type": "uint256"
								},
								{
									"internalType": "uint256",
									"name": "Y",
									"type": "uint256"
								}
							],
							"internalType": "struct G1Point",
							"name": "c",
							"type": "tuple"
						}
					],
					"internalType": "struct Proof",
					"name": "proof",
					"type": "tuple"
				},
				{
					"internalType": "uint256[2]",
					"name": "C1",
					"type": "uint256[2]"
				},
				{
					"internalType": "uint256[2]",
					"name": "C2",
					"type": "uint256[2]"
				},
				{
					"internalType": "uint32[8]",
					"name": "nullifier",
					"type": "uint32[8]"
				}
			],
			"name": "registerVote",
			"outputs": [],
			"stateMutability": "nonpayable",
			"type": "function"
		},
		{
			"inputs": [],
			"name": "voteVerifier",
			"outputs": [
				{
					"internalType": "contract IVerifier",
					"name": "",
					"type": "address"
				}
			],
			"stateMutability": "view",
			"type": "function"
		}
	]
}